ARM GAS  /tmp/ccz8Y2A9.s 			page 1


   1              		.cpu cortex-m4
   2              		.eabi_attribute 20, 1
   3              		.eabi_attribute 21, 1
   4              		.eabi_attribute 23, 3
   5              		.eabi_attribute 24, 1
   6              		.eabi_attribute 25, 1
   7              		.eabi_attribute 26, 1
   8              		.eabi_attribute 30, 2
   9              		.eabi_attribute 34, 1
  10              		.eabi_attribute 18, 4
  11              		.file	"chcore_v7m.c"
  12              		.file 1 "/usr/share/gcc-arm-none-eabi-10-2020-q4-major/arm-none-eabi/include/machine/_default_type
  13              		.file 2 "/usr/share/gcc-arm-none-eabi-10-2020-q4-major/arm-none-eabi/include/sys/_stdint.h"
  14              		.file 3 "./ChibiOS_20.3.0/os/common/ext/ST/STM32F3xx/stm32f303xc.h"
  15              		.file 4 "./ChibiOS_20.3.0/os/common/ext/ARM/CMSIS/Core/Include/core_cm4.h"
  16              		.file 5 "./ChibiOS_20.3.0/os/common/ports/ARMCMx/chcore_v7m.h"
  17              		.file 6 "./ChibiOS_20.3.0/os/common/ports/ARMCMx/chcore_v7m.c"
  18              		.file 7 "./ChibiOS_20.3.0/os/common/ext/ARM/CMSIS/Core/Include/cmsis_gcc.h"
  19              		.section	.gnu.debuglto_.debug_info,"e",%progbits
  20              	.Ldebug_info0:
  21              		.hidden	chcore_v7m.c.e836cea9
  22              		.weak	chcore_v7m.c.e836cea9
  23              	chcore_v7m.c.e836cea9:
  24 0000 ED080000 		.4byte	0x8ed
  25 0004 0400     		.2byte	0x4
  26 0006 00000000 		.4byte	.Ldebug_abbrev0
  27 000a 04       		.byte	0x4
  28 000b 01       		.uleb128 0x1
  29 000c EF020000 		.4byte	.LASF172
  30 0010 0C       		.byte	0xc
  31 0011 67050000 		.4byte	.LASF173
  32 0015 05060000 		.4byte	.LASF174
  33 0019 00000000 		.4byte	.Ldebug_line0
  34 001d 02       		.uleb128 0x2
  35 001e 04       		.byte	0x4
  36 001f 05       		.byte	0x5
  37 0020 696E7400 		.ascii	"int\000"
  38 0024 03       		.uleb128 0x3
  39 0025 04       		.byte	0x4
  40 0026 07       		.byte	0x7
  41 0027 09020000 		.4byte	.LASF0
  42 002b 03       		.uleb128 0x3
  43 002c 08       		.byte	0x8
  44 002d 05       		.byte	0x5
  45 002e 03010000 		.4byte	.LASF1
  46 0032 03       		.uleb128 0x3
  47 0033 08       		.byte	0x8
  48 0034 04       		.byte	0x4
  49 0035 1F070000 		.4byte	.LASF2
  50 0039 03       		.uleb128 0x3
  51 003a 01       		.byte	0x1
  52 003b 06       		.byte	0x6
  53 003c 11010000 		.4byte	.LASF3
  54 0040 04       		.uleb128 0x4
  55 0041 3B000000 		.4byte	.LASF7
  56 0045 01       		.byte	0x1
  57 0046 2B       		.byte	0x2b
ARM GAS  /tmp/ccz8Y2A9.s 			page 2


  58 0047 18       		.byte	0x18
  59 0048 4C000000 		.4byte	0x4c
  60 004c 03       		.uleb128 0x3
  61 004d 01       		.byte	0x1
  62 004e 08       		.byte	0x8
  63 004f B0050000 		.4byte	.LASF4
  64 0053 03       		.uleb128 0x3
  65 0054 02       		.byte	0x2
  66 0055 05       		.byte	0x5
  67 0056 EC050000 		.4byte	.LASF5
  68 005a 03       		.uleb128 0x3
  69 005b 02       		.byte	0x2
  70 005c 07       		.byte	0x7
  71 005d CD040000 		.4byte	.LASF6
  72 0061 04       		.uleb128 0x4
  73 0062 76070000 		.4byte	.LASF8
  74 0066 01       		.byte	0x1
  75 0067 4D       		.byte	0x4d
  76 0068 18       		.byte	0x18
  77 0069 6D000000 		.4byte	0x6d
  78 006d 03       		.uleb128 0x3
  79 006e 04       		.byte	0x4
  80 006f 05       		.byte	0x5
  81 0070 4B010000 		.4byte	.LASF9
  82 0074 04       		.uleb128 0x4
  83 0075 E1010000 		.4byte	.LASF10
  84 0079 01       		.byte	0x1
  85 007a 4F       		.byte	0x4f
  86 007b 19       		.byte	0x19
  87 007c 80000000 		.4byte	0x80
  88 0080 03       		.uleb128 0x3
  89 0081 04       		.byte	0x4
  90 0082 07       		.byte	0x7
  91 0083 56020000 		.4byte	.LASF11
  92 0087 03       		.uleb128 0x3
  93 0088 08       		.byte	0x8
  94 0089 07       		.byte	0x7
  95 008a 74000000 		.4byte	.LASF12
  96 008e 03       		.uleb128 0x3
  97 008f 01       		.byte	0x1
  98 0090 08       		.byte	0x8
  99 0091 2B070000 		.4byte	.LASF13
 100 0095 04       		.uleb128 0x4
 101 0096 4F080000 		.4byte	.LASF14
 102 009a 02       		.byte	0x2
 103 009b 18       		.byte	0x18
 104 009c 13       		.byte	0x13
 105 009d 40000000 		.4byte	0x40
 106 00a1 05       		.uleb128 0x5
 107 00a2 95000000 		.4byte	0x95
 108 00a6 04       		.uleb128 0x4
 109 00a7 A8050000 		.4byte	.LASF15
 110 00ab 02       		.byte	0x2
 111 00ac 2C       		.byte	0x2c
 112 00ad 13       		.byte	0x13
 113 00ae 61000000 		.4byte	0x61
 114 00b2 04       		.uleb128 0x4
ARM GAS  /tmp/ccz8Y2A9.s 			page 3


 115 00b3 D5060000 		.4byte	.LASF16
 116 00b7 02       		.byte	0x2
 117 00b8 30       		.byte	0x30
 118 00b9 14       		.byte	0x14
 119 00ba 74000000 		.4byte	0x74
 120 00be 05       		.uleb128 0x5
 121 00bf B2000000 		.4byte	0xb2
 122 00c3 06       		.uleb128 0x6
 123 00c4 BE000000 		.4byte	0xbe
 124 00c8 07       		.uleb128 0x7
 125 00c9 05       		.byte	0x5
 126 00ca 01       		.byte	0x1
 127 00cb 39000000 		.4byte	0x39
 128 00cf 03       		.byte	0x3
 129 00d0 53       		.byte	0x53
 130 00d1 01       		.byte	0x1
 131 00d2 99020000 		.4byte	0x299
 132 00d6 08       		.uleb128 0x8
 133 00d7 62070000 		.4byte	.LASF17
 134 00db 72       		.sleb128 -14
 135 00dc 08       		.uleb128 0x8
 136 00dd 9B020000 		.4byte	.LASF18
 137 00e1 73       		.sleb128 -13
 138 00e2 08       		.uleb128 0x8
 139 00e3 40020000 		.4byte	.LASF19
 140 00e7 74       		.sleb128 -12
 141 00e8 08       		.uleb128 0x8
 142 00e9 EC010000 		.4byte	.LASF20
 143 00ed 75       		.sleb128 -11
 144 00ee 08       		.uleb128 0x8
 145 00ef FC060000 		.4byte	.LASF21
 146 00f3 76       		.sleb128 -10
 147 00f4 08       		.uleb128 0x8
 148 00f5 65040000 		.4byte	.LASF22
 149 00f9 7B       		.sleb128 -5
 150 00fa 08       		.uleb128 0x8
 151 00fb 8E040000 		.4byte	.LASF23
 152 00ff 7C       		.sleb128 -4
 153 0100 08       		.uleb128 0x8
 154 0101 B8010000 		.4byte	.LASF24
 155 0105 7E       		.sleb128 -2
 156 0106 08       		.uleb128 0x8
 157 0107 EF030000 		.4byte	.LASF25
 158 010b 7F       		.sleb128 -1
 159 010c 09       		.uleb128 0x9
 160 010d D2000000 		.4byte	.LASF26
 161 0111 00       		.byte	0
 162 0112 09       		.uleb128 0x9
 163 0113 25000000 		.4byte	.LASF27
 164 0117 01       		.byte	0x1
 165 0118 09       		.uleb128 0x9
 166 0119 AD070000 		.4byte	.LASF28
 167 011d 02       		.byte	0x2
 168 011e 09       		.uleb128 0x9
 169 011f C4000000 		.4byte	.LASF29
 170 0123 03       		.byte	0x3
 171 0124 09       		.uleb128 0x9
ARM GAS  /tmp/ccz8Y2A9.s 			page 4


 172 0125 95060000 		.4byte	.LASF30
 173 0129 04       		.byte	0x4
 174 012a 09       		.uleb128 0x9
 175 012b CC080000 		.4byte	.LASF31
 176 012f 05       		.byte	0x5
 177 0130 09       		.uleb128 0x9
 178 0131 1A080000 		.4byte	.LASF32
 179 0135 06       		.byte	0x6
 180 0136 09       		.uleb128 0x9
 181 0137 6D080000 		.4byte	.LASF33
 182 013b 07       		.byte	0x7
 183 013c 09       		.uleb128 0x9
 184 013d 94080000 		.4byte	.LASF34
 185 0141 08       		.byte	0x8
 186 0142 09       		.uleb128 0x9
 187 0143 31080000 		.4byte	.LASF35
 188 0147 09       		.byte	0x9
 189 0148 09       		.uleb128 0x9
 190 0149 37060000 		.4byte	.LASF36
 191 014d 0A       		.byte	0xa
 192 014e 09       		.uleb128 0x9
 193 014f 00050000 		.4byte	.LASF37
 194 0153 0B       		.byte	0xb
 195 0154 09       		.uleb128 0x9
 196 0155 37040000 		.4byte	.LASF38
 197 0159 0C       		.byte	0xc
 198 015a 09       		.uleb128 0x9
 199 015b 48060000 		.4byte	.LASF39
 200 015f 0D       		.byte	0xd
 201 0160 09       		.uleb128 0x9
 202 0161 C9010000 		.4byte	.LASF40
 203 0165 0E       		.byte	0xe
 204 0166 09       		.uleb128 0x9
 205 0167 72020000 		.4byte	.LASF41
 206 016b 0F       		.byte	0xf
 207 016c 09       		.uleb128 0x9
 208 016d 8E070000 		.4byte	.LASF42
 209 0171 10       		.byte	0x10
 210 0172 09       		.uleb128 0x9
 211 0173 78080000 		.4byte	.LASF43
 212 0177 11       		.byte	0x11
 213 0178 09       		.uleb128 0x9
 214 0179 93010000 		.4byte	.LASF44
 215 017d 12       		.byte	0x12
 216 017e 09       		.uleb128 0x9
 217 017f 13050000 		.4byte	.LASF45
 218 0183 13       		.byte	0x13
 219 0184 09       		.uleb128 0x9
 220 0185 6A060000 		.4byte	.LASF46
 221 0189 14       		.byte	0x14
 222 018a 09       		.uleb128 0x9
 223 018b ED040000 		.4byte	.LASF47
 224 018f 15       		.byte	0x15
 225 0190 09       		.uleb128 0x9
 226 0191 C4020000 		.4byte	.LASF48
 227 0195 16       		.byte	0x16
 228 0196 09       		.uleb128 0x9
ARM GAS  /tmp/ccz8Y2A9.s 			page 5


 229 0197 61010000 		.4byte	.LASF49
 230 019b 17       		.byte	0x17
 231 019c 09       		.uleb128 0x9
 232 019d DF080000 		.4byte	.LASF50
 233 01a1 18       		.byte	0x18
 234 01a2 09       		.uleb128 0x9
 235 01a3 A0060000 		.4byte	.LASF51
 236 01a7 19       		.byte	0x19
 237 01a8 09       		.uleb128 0x9
 238 01a9 0D000000 		.4byte	.LASF52
 239 01ad 1A       		.byte	0x1a
 240 01ae 09       		.uleb128 0x9
 241 01af FC030000 		.4byte	.LASF53
 242 01b3 1B       		.byte	0x1b
 243 01b4 09       		.uleb128 0x9
 244 01b5 03080000 		.4byte	.LASF54
 245 01b9 1C       		.byte	0x1c
 246 01ba 09       		.uleb128 0x9
 247 01bb D5080000 		.4byte	.LASF55
 248 01bf 1D       		.byte	0x1d
 249 01c0 09       		.uleb128 0x9
 250 01c1 BA000000 		.4byte	.LASF56
 251 01c5 1E       		.byte	0x1e
 252 01c6 09       		.uleb128 0x9
 253 01c7 2E000000 		.4byte	.LASF57
 254 01cb 1F       		.byte	0x1f
 255 01cc 09       		.uleb128 0x9
 256 01cd A3080000 		.4byte	.LASF58
 257 01d1 20       		.byte	0x20
 258 01d2 09       		.uleb128 0x9
 259 01d3 54010000 		.4byte	.LASF59
 260 01d7 21       		.byte	0x21
 261 01d8 09       		.uleb128 0x9
 262 01d9 AD000000 		.4byte	.LASF60
 263 01dd 22       		.byte	0x22
 264 01de 09       		.uleb128 0x9
 265 01df D7020000 		.4byte	.LASF61
 266 01e3 23       		.byte	0x23
 267 01e4 09       		.uleb128 0x9
 268 01e5 A0040000 		.4byte	.LASF62
 269 01e9 24       		.byte	0x24
 270 01ea 09       		.uleb128 0x9
 271 01eb 25080000 		.4byte	.LASF63
 272 01ef 25       		.byte	0x25
 273 01f0 09       		.uleb128 0x9
 274 01f1 F0060000 		.4byte	.LASF64
 275 01f5 26       		.byte	0x26
 276 01f6 09       		.uleb128 0x9
 277 01f7 F7070000 		.4byte	.LASF65
 278 01fb 27       		.byte	0x27
 279 01fc 09       		.uleb128 0x9
 280 01fd B5020000 		.4byte	.LASF66
 281 0201 28       		.byte	0x28
 282 0202 09       		.uleb128 0x9
 283 0203 9E000000 		.4byte	.LASF67
 284 0207 29       		.byte	0x29
 285 0208 09       		.uleb128 0x9
ARM GAS  /tmp/ccz8Y2A9.s 			page 6


 286 0209 C6070000 		.4byte	.LASF68
 287 020d 2A       		.byte	0x2a
 288 020e 09       		.uleb128 0x9
 289 020f 4A040000 		.4byte	.LASF69
 290 0213 2B       		.byte	0x2b
 291 0214 09       		.uleb128 0x9
 292 0215 0D080000 		.4byte	.LASF70
 293 0219 2C       		.byte	0x2c
 294 021a 09       		.uleb128 0x9
 295 021b DE060000 		.4byte	.LASF71
 296 021f 2D       		.byte	0x2d
 297 0220 09       		.uleb128 0x9
 298 0221 58040000 		.4byte	.LASF72
 299 0225 2E       		.byte	0x2e
 300 0226 09       		.uleb128 0x9
 301 0227 6E010000 		.4byte	.LASF73
 302 022b 2F       		.byte	0x2f
 303 022c 09       		.uleb128 0x9
 304 022d B0080000 		.4byte	.LASF74
 305 0231 33       		.byte	0x33
 306 0232 09       		.uleb128 0x9
 307 0233 AD010000 		.4byte	.LASF75
 308 0237 34       		.byte	0x34
 309 0238 09       		.uleb128 0x9
 310 0239 AA040000 		.4byte	.LASF76
 311 023d 35       		.byte	0x35
 312 023e 09       		.uleb128 0x9
 313 023f 9F010000 		.4byte	.LASF77
 314 0243 36       		.byte	0x36
 315 0244 09       		.uleb128 0x9
 316 0245 43070000 		.4byte	.LASF78
 317 0249 37       		.byte	0x37
 318 024a 09       		.uleb128 0x9
 319 024b 8B000000 		.4byte	.LASF79
 320 024f 38       		.byte	0x38
 321 0250 09       		.uleb128 0x9
 322 0251 71040000 		.4byte	.LASF80
 323 0255 39       		.byte	0x39
 324 0256 09       		.uleb128 0x9
 325 0257 18040000 		.4byte	.LASF81
 326 025b 3A       		.byte	0x3a
 327 025c 09       		.uleb128 0x9
 328 025d 30070000 		.4byte	.LASF82
 329 0261 3B       		.byte	0x3b
 330 0262 09       		.uleb128 0x9
 331 0263 38010000 		.4byte	.LASF83
 332 0267 3C       		.byte	0x3c
 333 0268 09       		.uleb128 0x9
 334 0269 36020000 		.4byte	.LASF84
 335 026d 3D       		.byte	0x3d
 336 026e 09       		.uleb128 0x9
 337 026f 5B060000 		.4byte	.LASF85
 338 0273 40       		.byte	0x40
 339 0274 09       		.uleb128 0x9
 340 0275 09040000 		.4byte	.LASF86
 341 0279 41       		.byte	0x41
 342 027a 09       		.uleb128 0x9
ARM GAS  /tmp/ccz8Y2A9.s 			page 7


 343 027b 7E060000 		.4byte	.LASF87
 344 027f 42       		.byte	0x42
 345 0280 09       		.uleb128 0x9
 346 0281 E3030000 		.4byte	.LASF88
 347 0285 4A       		.byte	0x4a
 348 0286 09       		.uleb128 0x9
 349 0287 A1070000 		.4byte	.LASF89
 350 028b 4B       		.byte	0x4b
 351 028c 09       		.uleb128 0x9
 352 028d 0C070000 		.4byte	.LASF90
 353 0291 4C       		.byte	0x4c
 354 0292 09       		.uleb128 0x9
 355 0293 8B080000 		.4byte	.LASF91
 356 0297 51       		.byte	0x51
 357 0298 00       		.byte	0
 358 0299 04       		.uleb128 0x4
 359 029a C4060000 		.4byte	.LASF92
 360 029e 03       		.byte	0x3
 361 029f A1       		.byte	0xa1
 362 02a0 03       		.byte	0x3
 363 02a1 C8000000 		.4byte	0xc8
 364 02a5 0A       		.uleb128 0xa
 365 02a6 040E     		.2byte	0xe04
 366 02a8 04       		.byte	0x4
 367 02a9 9601     		.2byte	0x196
 368 02ab 09       		.byte	0x9
 369 02ac 6F030000 		.4byte	0x36f
 370 02b0 0B       		.uleb128 0xb
 371 02b1 F6050000 		.4byte	.LASF93
 372 02b5 04       		.byte	0x4
 373 02b6 9801     		.2byte	0x198
 374 02b8 12       		.byte	0x12
 375 02b9 7F030000 		.4byte	0x37f
 376 02bd 00       		.byte	0
 377 02be 0B       		.uleb128 0xb
 378 02bf 26050000 		.4byte	.LASF94
 379 02c3 04       		.byte	0x4
 380 02c4 9901     		.2byte	0x199
 381 02c6 12       		.byte	0x12
 382 02c7 84030000 		.4byte	0x384
 383 02cb 20       		.byte	0x20
 384 02cc 0B       		.uleb128 0xb
 385 02cd C3030000 		.4byte	.LASF95
 386 02d1 04       		.byte	0x4
 387 02d2 9A01     		.2byte	0x19a
 388 02d4 12       		.byte	0x12
 389 02d5 7F030000 		.4byte	0x37f
 390 02d9 80       		.byte	0x80
 391 02da 0B       		.uleb128 0xb
 392 02db 57080000 		.4byte	.LASF96
 393 02df 04       		.byte	0x4
 394 02e0 9B01     		.2byte	0x19b
 395 02e2 12       		.byte	0x12
 396 02e3 84030000 		.4byte	0x384
 397 02e7 A0       		.byte	0xa0
 398 02e8 0C       		.uleb128 0xc
 399 02e9 DC000000 		.4byte	.LASF97
ARM GAS  /tmp/ccz8Y2A9.s 			page 8


 400 02ed 04       		.byte	0x4
 401 02ee 9C01     		.2byte	0x19c
 402 02f0 12       		.byte	0x12
 403 02f1 7F030000 		.4byte	0x37f
 404 02f5 0001     		.2byte	0x100
 405 02f7 0C       		.uleb128 0xc
 406 02f8 3A050000 		.4byte	.LASF98
 407 02fc 04       		.byte	0x4
 408 02fd 9D01     		.2byte	0x19d
 409 02ff 12       		.byte	0x12
 410 0300 84030000 		.4byte	0x384
 411 0304 2001     		.2byte	0x120
 412 0306 0C       		.uleb128 0xc
 413 0307 68020000 		.4byte	.LASF99
 414 030b 04       		.byte	0x4
 415 030c 9E01     		.2byte	0x19e
 416 030e 12       		.byte	0x12
 417 030f 7F030000 		.4byte	0x37f
 418 0313 8001     		.2byte	0x180
 419 0315 0C       		.uleb128 0xc
 420 0316 44050000 		.4byte	.LASF100
 421 031a 04       		.byte	0x4
 422 031b 9F01     		.2byte	0x19f
 423 031d 12       		.byte	0x12
 424 031e 84030000 		.4byte	0x384
 425 0322 A001     		.2byte	0x1a0
 426 0324 0C       		.uleb128 0xc
 427 0325 89040000 		.4byte	.LASF101
 428 0329 04       		.byte	0x4
 429 032a A001     		.2byte	0x1a0
 430 032c 12       		.byte	0x12
 431 032d 7F030000 		.4byte	0x37f
 432 0331 0002     		.2byte	0x200
 433 0333 0C       		.uleb128 0xc
 434 0334 4E050000 		.4byte	.LASF102
 435 0338 04       		.byte	0x4
 436 0339 A101     		.2byte	0x1a1
 437 033b 12       		.byte	0x12
 438 033c 94030000 		.4byte	0x394
 439 0340 2002     		.2byte	0x220
 440 0342 0D       		.uleb128 0xd
 441 0343 495000   		.ascii	"IP\000"
 442 0346 04       		.byte	0x4
 443 0347 A201     		.2byte	0x1a2
 444 0349 12       		.byte	0x12
 445 034a B4030000 		.4byte	0x3b4
 446 034e 0003     		.2byte	0x300
 447 0350 0C       		.uleb128 0xc
 448 0351 58050000 		.4byte	.LASF103
 449 0355 04       		.byte	0x4
 450 0356 A301     		.2byte	0x1a3
 451 0358 12       		.byte	0x12
 452 0359 B9030000 		.4byte	0x3b9
 453 035d F003     		.2byte	0x3f0
 454 035f 0C       		.uleb128 0xc
 455 0360 60080000 		.4byte	.LASF104
 456 0364 04       		.byte	0x4
ARM GAS  /tmp/ccz8Y2A9.s 			page 9


 457 0365 A401     		.2byte	0x1a4
 458 0367 12       		.byte	0x12
 459 0368 BE000000 		.4byte	0xbe
 460 036c 000E     		.2byte	0xe00
 461 036e 00       		.byte	0
 462 036f 0E       		.uleb128 0xe
 463 0370 BE000000 		.4byte	0xbe
 464 0374 7F030000 		.4byte	0x37f
 465 0378 0F       		.uleb128 0xf
 466 0379 24000000 		.4byte	0x24
 467 037d 07       		.byte	0x7
 468 037e 00       		.byte	0
 469 037f 05       		.uleb128 0x5
 470 0380 6F030000 		.4byte	0x36f
 471 0384 0E       		.uleb128 0xe
 472 0385 B2000000 		.4byte	0xb2
 473 0389 94030000 		.4byte	0x394
 474 038d 0F       		.uleb128 0xf
 475 038e 24000000 		.4byte	0x24
 476 0392 17       		.byte	0x17
 477 0393 00       		.byte	0
 478 0394 0E       		.uleb128 0xe
 479 0395 B2000000 		.4byte	0xb2
 480 0399 A4030000 		.4byte	0x3a4
 481 039d 0F       		.uleb128 0xf
 482 039e 24000000 		.4byte	0x24
 483 03a2 37       		.byte	0x37
 484 03a3 00       		.byte	0
 485 03a4 0E       		.uleb128 0xe
 486 03a5 A1000000 		.4byte	0xa1
 487 03a9 B4030000 		.4byte	0x3b4
 488 03ad 0F       		.uleb128 0xf
 489 03ae 24000000 		.4byte	0x24
 490 03b2 EF       		.byte	0xef
 491 03b3 00       		.byte	0
 492 03b4 05       		.uleb128 0x5
 493 03b5 A4030000 		.4byte	0x3a4
 494 03b9 0E       		.uleb128 0xe
 495 03ba B2000000 		.4byte	0xb2
 496 03be CA030000 		.4byte	0x3ca
 497 03c2 10       		.uleb128 0x10
 498 03c3 24000000 		.4byte	0x24
 499 03c7 8302     		.2byte	0x283
 500 03c9 00       		.byte	0
 501 03ca 11       		.uleb128 0x11
 502 03cb FB050000 		.4byte	.LASF105
 503 03cf 04       		.byte	0x4
 504 03d0 A501     		.2byte	0x1a5
 505 03d2 04       		.byte	0x4
 506 03d3 A5020000 		.4byte	0x2a5
 507 03d7 12       		.uleb128 0x12
 508 03d8 8C       		.byte	0x8c
 509 03d9 04       		.byte	0x4
 510 03da B801     		.2byte	0x1b8
 511 03dc 09       		.byte	0x9
 512 03dd 08050000 		.4byte	0x508
 513 03e1 0B       		.uleb128 0xb
ARM GAS  /tmp/ccz8Y2A9.s 			page 10


 514 03e2 FA040000 		.4byte	.LASF106
 515 03e6 04       		.byte	0x4
 516 03e7 BA01     		.2byte	0x1ba
 517 03e9 12       		.byte	0x12
 518 03ea C3000000 		.4byte	0xc3
 519 03ee 00       		.byte	0
 520 03ef 0B       		.uleb128 0xb
 521 03f0 96020000 		.4byte	.LASF107
 522 03f4 04       		.byte	0x4
 523 03f5 BB01     		.2byte	0x1bb
 524 03f7 12       		.byte	0x12
 525 03f8 BE000000 		.4byte	0xbe
 526 03fc 04       		.byte	0x4
 527 03fd 0B       		.uleb128 0xb
 528 03fe 6D020000 		.4byte	.LASF108
 529 0402 04       		.byte	0x4
 530 0403 BC01     		.2byte	0x1bc
 531 0405 12       		.byte	0x12
 532 0406 BE000000 		.4byte	0xbe
 533 040a 08       		.byte	0x8
 534 040b 0B       		.uleb128 0xb
 535 040c AA020000 		.4byte	.LASF109
 536 0410 04       		.byte	0x4
 537 0411 BD01     		.2byte	0x1bd
 538 0413 12       		.byte	0x12
 539 0414 BE000000 		.4byte	0xbe
 540 0418 0C       		.byte	0xc
 541 0419 13       		.uleb128 0x13
 542 041a 53435200 		.ascii	"SCR\000"
 543 041e 04       		.byte	0x4
 544 041f BE01     		.2byte	0x1be
 545 0421 12       		.byte	0x12
 546 0422 BE000000 		.4byte	0xbe
 547 0426 10       		.byte	0x10
 548 0427 13       		.uleb128 0x13
 549 0428 43435200 		.ascii	"CCR\000"
 550 042c 04       		.byte	0x4
 551 042d BF01     		.2byte	0x1bf
 552 042f 12       		.byte	0x12
 553 0430 BE000000 		.4byte	0xbe
 554 0434 14       		.byte	0x14
 555 0435 13       		.uleb128 0x13
 556 0436 53485000 		.ascii	"SHP\000"
 557 043a 04       		.byte	0x4
 558 043b C001     		.2byte	0x1c0
 559 043d 12       		.byte	0x12
 560 043e 18050000 		.4byte	0x518
 561 0442 18       		.byte	0x18
 562 0443 0B       		.uleb128 0xb
 563 0444 BE050000 		.4byte	.LASF110
 564 0448 04       		.byte	0x4
 565 0449 C101     		.2byte	0x1c1
 566 044b 12       		.byte	0x12
 567 044c BE000000 		.4byte	0xbe
 568 0450 24       		.byte	0x24
 569 0451 0B       		.uleb128 0xb
 570 0452 84040000 		.4byte	.LASF111
ARM GAS  /tmp/ccz8Y2A9.s 			page 11


 571 0456 04       		.byte	0x4
 572 0457 C201     		.2byte	0x1c2
 573 0459 12       		.byte	0x12
 574 045a BE000000 		.4byte	0xbe
 575 045e 28       		.byte	0x28
 576 045f 0B       		.uleb128 0xb
 577 0460 C0080000 		.4byte	.LASF112
 578 0464 04       		.byte	0x4
 579 0465 C301     		.2byte	0x1c3
 580 0467 12       		.byte	0x12
 581 0468 BE000000 		.4byte	0xbe
 582 046c 2C       		.byte	0x2c
 583 046d 0B       		.uleb128 0xb
 584 046e B0020000 		.4byte	.LASF113
 585 0472 04       		.byte	0x4
 586 0473 C401     		.2byte	0x1c4
 587 0475 12       		.byte	0x12
 588 0476 BE000000 		.4byte	0xbe
 589 047a 30       		.byte	0x30
 590 047b 0B       		.uleb128 0xb
 591 047c D1020000 		.4byte	.LASF114
 592 0480 04       		.byte	0x4
 593 0481 C501     		.2byte	0x1c5
 594 0483 12       		.byte	0x12
 595 0484 BE000000 		.4byte	0xbe
 596 0488 34       		.byte	0x34
 597 0489 0B       		.uleb128 0xb
 598 048a C4010000 		.4byte	.LASF115
 599 048e 04       		.byte	0x4
 600 048f C601     		.2byte	0x1c6
 601 0491 12       		.byte	0x12
 602 0492 BE000000 		.4byte	0xbe
 603 0496 38       		.byte	0x38
 604 0497 0B       		.uleb128 0xb
 605 0498 DC010000 		.4byte	.LASF116
 606 049c 04       		.byte	0x4
 607 049d C701     		.2byte	0x1c7
 608 049f 12       		.byte	0x12
 609 04a0 BE000000 		.4byte	0xbe
 610 04a4 3C       		.byte	0x3c
 611 04a5 13       		.uleb128 0x13
 612 04a6 50465200 		.ascii	"PFR\000"
 613 04aa 04       		.byte	0x4
 614 04ab C801     		.2byte	0x1c8
 615 04ad 12       		.byte	0x12
 616 04ae 32050000 		.4byte	0x532
 617 04b2 40       		.byte	0x40
 618 04b3 13       		.uleb128 0x13
 619 04b4 44465200 		.ascii	"DFR\000"
 620 04b8 04       		.byte	0x4
 621 04b9 C901     		.2byte	0x1c9
 622 04bb 12       		.byte	0x12
 623 04bc C3000000 		.4byte	0xc3
 624 04c0 48       		.byte	0x48
 625 04c1 13       		.uleb128 0x13
 626 04c2 41445200 		.ascii	"ADR\000"
 627 04c6 04       		.byte	0x4
ARM GAS  /tmp/ccz8Y2A9.s 			page 12


 628 04c7 CA01     		.2byte	0x1ca
 629 04c9 12       		.byte	0x12
 630 04ca C3000000 		.4byte	0xc3
 631 04ce 4C       		.byte	0x4c
 632 04cf 0B       		.uleb128 0xb
 633 04d0 EA020000 		.4byte	.LASF117
 634 04d4 04       		.byte	0x4
 635 04d5 CB01     		.2byte	0x1cb
 636 04d7 12       		.byte	0x12
 637 04d8 4C050000 		.4byte	0x54c
 638 04dc 50       		.byte	0x50
 639 04dd 0B       		.uleb128 0xb
 640 04de FE000000 		.4byte	.LASF118
 641 04e2 04       		.byte	0x4
 642 04e3 CC01     		.2byte	0x1cc
 643 04e5 12       		.byte	0x12
 644 04e6 66050000 		.4byte	0x566
 645 04ea 60       		.byte	0x60
 646 04eb 0B       		.uleb128 0xb
 647 04ec 26050000 		.4byte	.LASF94
 648 04f0 04       		.byte	0x4
 649 04f1 CD01     		.2byte	0x1cd
 650 04f3 12       		.byte	0x12
 651 04f4 6B050000 		.4byte	0x56b
 652 04f8 74       		.byte	0x74
 653 04f9 0B       		.uleb128 0xb
 654 04fa BA080000 		.4byte	.LASF119
 655 04fe 04       		.byte	0x4
 656 04ff CE01     		.2byte	0x1ce
 657 0501 12       		.byte	0x12
 658 0502 BE000000 		.4byte	0xbe
 659 0506 88       		.byte	0x88
 660 0507 00       		.byte	0
 661 0508 0E       		.uleb128 0xe
 662 0509 A1000000 		.4byte	0xa1
 663 050d 18050000 		.4byte	0x518
 664 0511 0F       		.uleb128 0xf
 665 0512 24000000 		.4byte	0x24
 666 0516 0B       		.byte	0xb
 667 0517 00       		.byte	0
 668 0518 05       		.uleb128 0x5
 669 0519 08050000 		.4byte	0x508
 670 051d 0E       		.uleb128 0xe
 671 051e C3000000 		.4byte	0xc3
 672 0522 2D050000 		.4byte	0x52d
 673 0526 0F       		.uleb128 0xf
 674 0527 24000000 		.4byte	0x24
 675 052b 01       		.byte	0x1
 676 052c 00       		.byte	0
 677 052d 06       		.uleb128 0x6
 678 052e 1D050000 		.4byte	0x51d
 679 0532 05       		.uleb128 0x5
 680 0533 2D050000 		.4byte	0x52d
 681 0537 0E       		.uleb128 0xe
 682 0538 C3000000 		.4byte	0xc3
 683 053c 47050000 		.4byte	0x547
 684 0540 0F       		.uleb128 0xf
ARM GAS  /tmp/ccz8Y2A9.s 			page 13


 685 0541 24000000 		.4byte	0x24
 686 0545 03       		.byte	0x3
 687 0546 00       		.byte	0
 688 0547 06       		.uleb128 0x6
 689 0548 37050000 		.4byte	0x537
 690 054c 05       		.uleb128 0x5
 691 054d 47050000 		.4byte	0x547
 692 0551 0E       		.uleb128 0xe
 693 0552 C3000000 		.4byte	0xc3
 694 0556 61050000 		.4byte	0x561
 695 055a 0F       		.uleb128 0xf
 696 055b 24000000 		.4byte	0x24
 697 055f 04       		.byte	0x4
 698 0560 00       		.byte	0
 699 0561 06       		.uleb128 0x6
 700 0562 51050000 		.4byte	0x551
 701 0566 05       		.uleb128 0x5
 702 0567 61050000 		.4byte	0x561
 703 056b 0E       		.uleb128 0xe
 704 056c B2000000 		.4byte	0xb2
 705 0570 7B050000 		.4byte	0x57b
 706 0574 0F       		.uleb128 0xf
 707 0575 24000000 		.4byte	0x24
 708 0579 04       		.byte	0x4
 709 057a 00       		.byte	0
 710 057b 11       		.uleb128 0x11
 711 057c FA010000 		.4byte	.LASF120
 712 0580 04       		.byte	0x4
 713 0581 CF01     		.2byte	0x1cf
 714 0583 03       		.byte	0x3
 715 0584 D7030000 		.4byte	0x3d7
 716 0588 0E       		.uleb128 0xe
 717 0589 B2000000 		.4byte	0xb2
 718 058d 98050000 		.4byte	0x598
 719 0591 0F       		.uleb128 0xf
 720 0592 24000000 		.4byte	0x24
 721 0596 00       		.byte	0
 722 0597 00       		.byte	0
 723 0598 12       		.uleb128 0x12
 724 0599 5C       		.byte	0x5c
 725 059a 04       		.byte	0x4
 726 059b 9203     		.2byte	0x392
 727 059d 09       		.byte	0x9
 728 059e E5060000 		.4byte	0x6e5
 729 05a2 0B       		.uleb128 0xb
 730 05a3 E8070000 		.4byte	.LASF121
 731 05a7 04       		.byte	0x4
 732 05a8 9403     		.2byte	0x394
 733 05aa 12       		.byte	0x12
 734 05ab BE000000 		.4byte	0xbe
 735 05af 00       		.byte	0
 736 05b0 0B       		.uleb128 0xb
 737 05b1 2B040000 		.4byte	.LASF122
 738 05b5 04       		.byte	0x4
 739 05b6 9503     		.2byte	0x395
 740 05b8 12       		.byte	0x12
 741 05b9 BE000000 		.4byte	0xbe
ARM GAS  /tmp/ccz8Y2A9.s 			page 14


 742 05bd 04       		.byte	0x4
 743 05be 0B       		.uleb128 0xb
 744 05bf 1D010000 		.4byte	.LASF123
 745 05c3 04       		.byte	0x4
 746 05c4 9603     		.2byte	0x396
 747 05c6 12       		.byte	0x12
 748 05c7 BE000000 		.4byte	0xbe
 749 05cb 08       		.byte	0x8
 750 05cc 0B       		.uleb128 0xb
 751 05cd 8F020000 		.4byte	.LASF124
 752 05d1 04       		.byte	0x4
 753 05d2 9703     		.2byte	0x397
 754 05d4 12       		.byte	0x12
 755 05d5 BE000000 		.4byte	0xbe
 756 05d9 0C       		.byte	0xc
 757 05da 0B       		.uleb128 0xb
 758 05db 8A010000 		.4byte	.LASF125
 759 05df 04       		.byte	0x4
 760 05e0 9803     		.2byte	0x398
 761 05e2 12       		.byte	0x12
 762 05e3 BE000000 		.4byte	0xbe
 763 05e7 10       		.byte	0x10
 764 05e8 0B       		.uleb128 0xb
 765 05e9 CE060000 		.4byte	.LASF126
 766 05ed 04       		.byte	0x4
 767 05ee 9903     		.2byte	0x399
 768 05f0 12       		.byte	0x12
 769 05f1 BE000000 		.4byte	0xbe
 770 05f5 14       		.byte	0x14
 771 05f6 0B       		.uleb128 0xb
 772 05f7 65080000 		.4byte	.LASF127
 773 05fb 04       		.byte	0x4
 774 05fc 9A03     		.2byte	0x39a
 775 05fe 12       		.byte	0x12
 776 05ff BE000000 		.4byte	0xbe
 777 0603 18       		.byte	0x18
 778 0604 0B       		.uleb128 0xb
 779 0605 62050000 		.4byte	.LASF128
 780 0609 04       		.byte	0x4
 781 060a 9B03     		.2byte	0x39b
 782 060c 12       		.byte	0x12
 783 060d C3000000 		.4byte	0xc3
 784 0611 1C       		.byte	0x1c
 785 0612 0B       		.uleb128 0xb
 786 0613 B5040000 		.4byte	.LASF129
 787 0617 04       		.byte	0x4
 788 0618 9C03     		.2byte	0x39c
 789 061a 12       		.byte	0x12
 790 061b BE000000 		.4byte	0xbe
 791 061f 20       		.byte	0x20
 792 0620 0B       		.uleb128 0xb
 793 0621 03020000 		.4byte	.LASF130
 794 0625 04       		.byte	0x4
 795 0626 9D03     		.2byte	0x39d
 796 0628 12       		.byte	0x12
 797 0629 BE000000 		.4byte	0xbe
 798 062d 24       		.byte	0x24
ARM GAS  /tmp/ccz8Y2A9.s 			page 15


 799 062e 0B       		.uleb128 0xb
 800 062f C4050000 		.4byte	.LASF131
 801 0633 04       		.byte	0x4
 802 0634 9E03     		.2byte	0x39e
 803 0636 12       		.byte	0x12
 804 0637 BE000000 		.4byte	0xbe
 805 063b 28       		.byte	0x28
 806 063c 0B       		.uleb128 0xb
 807 063d 26050000 		.4byte	.LASF94
 808 0641 04       		.byte	0x4
 809 0642 9F03     		.2byte	0x39f
 810 0644 12       		.byte	0x12
 811 0645 88050000 		.4byte	0x588
 812 0649 2C       		.byte	0x2c
 813 064a 0B       		.uleb128 0xb
 814 064b BB040000 		.4byte	.LASF132
 815 064f 04       		.byte	0x4
 816 0650 A003     		.2byte	0x3a0
 817 0652 12       		.byte	0x12
 818 0653 BE000000 		.4byte	0xbe
 819 0657 30       		.byte	0x30
 820 0658 0B       		.uleb128 0xb
 821 0659 07000000 		.4byte	.LASF133
 822 065d 04       		.byte	0x4
 823 065e A103     		.2byte	0x3a1
 824 0660 12       		.byte	0x12
 825 0661 BE000000 		.4byte	0xbe
 826 0665 34       		.byte	0x34
 827 0666 0B       		.uleb128 0xb
 828 0667 CE050000 		.4byte	.LASF134
 829 066b 04       		.byte	0x4
 830 066c A203     		.2byte	0x3a2
 831 066e 12       		.byte	0x12
 832 066f BE000000 		.4byte	0xbe
 833 0673 38       		.byte	0x38
 834 0674 0B       		.uleb128 0xb
 835 0675 30050000 		.4byte	.LASF135
 836 0679 04       		.byte	0x4
 837 067a A303     		.2byte	0x3a3
 838 067c 12       		.byte	0x12
 839 067d 88050000 		.4byte	0x588
 840 0681 3C       		.byte	0x3c
 841 0682 0B       		.uleb128 0xb
 842 0683 C1040000 		.4byte	.LASF136
 843 0687 04       		.byte	0x4
 844 0688 A403     		.2byte	0x3a4
 845 068a 12       		.byte	0x12
 846 068b BE000000 		.4byte	0xbe
 847 068f 40       		.byte	0x40
 848 0690 0B       		.uleb128 0xb
 849 0691 2A020000 		.4byte	.LASF137
 850 0695 04       		.byte	0x4
 851 0696 A503     		.2byte	0x3a5
 852 0698 12       		.byte	0x12
 853 0699 BE000000 		.4byte	0xbe
 854 069d 44       		.byte	0x44
 855 069e 0B       		.uleb128 0xb
ARM GAS  /tmp/ccz8Y2A9.s 			page 16


 856 069f D8050000 		.4byte	.LASF138
 857 06a3 04       		.byte	0x4
 858 06a4 A603     		.2byte	0x3a6
 859 06a6 12       		.byte	0x12
 860 06a7 BE000000 		.4byte	0xbe
 861 06ab 48       		.byte	0x48
 862 06ac 0B       		.uleb128 0xb
 863 06ad 3A050000 		.4byte	.LASF98
 864 06b1 04       		.byte	0x4
 865 06b2 A703     		.2byte	0x3a7
 866 06b4 12       		.byte	0x12
 867 06b5 88050000 		.4byte	0x588
 868 06b9 4C       		.byte	0x4c
 869 06ba 0B       		.uleb128 0xb
 870 06bb C7040000 		.4byte	.LASF139
 871 06bf 04       		.byte	0x4
 872 06c0 A803     		.2byte	0x3a8
 873 06c2 12       		.byte	0x12
 874 06c3 BE000000 		.4byte	0xbe
 875 06c7 50       		.byte	0x50
 876 06c8 0B       		.uleb128 0xb
 877 06c9 30020000 		.4byte	.LASF140
 878 06cd 04       		.byte	0x4
 879 06ce A903     		.2byte	0x3a9
 880 06d0 12       		.byte	0x12
 881 06d1 BE000000 		.4byte	0xbe
 882 06d5 54       		.byte	0x54
 883 06d6 0B       		.uleb128 0xb
 884 06d7 E2050000 		.4byte	.LASF141
 885 06db 04       		.byte	0x4
 886 06dc AA03     		.2byte	0x3aa
 887 06de 12       		.byte	0x12
 888 06df BE000000 		.4byte	0xbe
 889 06e3 58       		.byte	0x58
 890 06e4 00       		.byte	0
 891 06e5 11       		.uleb128 0x11
 892 06e6 BD070000 		.4byte	.LASF142
 893 06ea 04       		.byte	0x4
 894 06eb AB03     		.2byte	0x3ab
 895 06ed 03       		.byte	0x3
 896 06ee 98050000 		.4byte	0x598
 897 06f2 12       		.uleb128 0x12
 898 06f3 10       		.byte	0x10
 899 06f4 04       		.byte	0x4
 900 06f5 9105     		.2byte	0x591
 901 06f7 09       		.byte	0x9
 902 06f8 35070000 		.4byte	0x735
 903 06fc 0B       		.uleb128 0xb
 904 06fd 78010000 		.4byte	.LASF143
 905 0701 04       		.byte	0x4
 906 0702 9305     		.2byte	0x593
 907 0704 12       		.byte	0x12
 908 0705 BE000000 		.4byte	0xbe
 909 0709 00       		.byte	0
 910 070a 0B       		.uleb128 0xb
 911 070b 58000000 		.4byte	.LASF144
 912 070f 04       		.byte	0x4
ARM GAS  /tmp/ccz8Y2A9.s 			page 17


 913 0710 9405     		.2byte	0x594
 914 0712 12       		.byte	0x12
 915 0713 BE000000 		.4byte	0xbe
 916 0717 04       		.byte	0x4
 917 0718 0B       		.uleb128 0xb
 918 0719 6E000000 		.4byte	.LASF145
 919 071d 04       		.byte	0x4
 920 071e 9505     		.2byte	0x595
 921 0720 12       		.byte	0x12
 922 0721 BE000000 		.4byte	0xbe
 923 0725 08       		.byte	0x8
 924 0726 0B       		.uleb128 0xb
 925 0727 9C050000 		.4byte	.LASF146
 926 072b 04       		.byte	0x4
 927 072c 9605     		.2byte	0x596
 928 072e 12       		.byte	0x12
 929 072f BE000000 		.4byte	0xbe
 930 0733 0C       		.byte	0xc
 931 0734 00       		.byte	0
 932 0735 11       		.uleb128 0x11
 933 0736 EF000000 		.4byte	.LASF147
 934 073a 04       		.byte	0x4
 935 073b 9705     		.2byte	0x597
 936 073d 03       		.byte	0x3
 937 073e F2060000 		.4byte	0x6f2
 938 0742 14       		.uleb128 0x14
 939 0743 7E010000 		.4byte	.LASF175
 940 0747 20       		.byte	0x20
 941 0748 05       		.byte	0x5
 942 0749 5901     		.2byte	0x159
 943 074b 08       		.byte	0x8
 944 074c BC070000 		.4byte	0x7bc
 945 0750 13       		.uleb128 0x13
 946 0751 723000   		.ascii	"r0\000"
 947 0754 05       		.byte	0x5
 948 0755 5A01     		.2byte	0x15a
 949 0757 11       		.byte	0x11
 950 0758 B2000000 		.4byte	0xb2
 951 075c 00       		.byte	0
 952 075d 13       		.uleb128 0x13
 953 075e 723100   		.ascii	"r1\000"
 954 0761 05       		.byte	0x5
 955 0762 5B01     		.2byte	0x15b
 956 0764 11       		.byte	0x11
 957 0765 B2000000 		.4byte	0xb2
 958 0769 04       		.byte	0x4
 959 076a 13       		.uleb128 0x13
 960 076b 723200   		.ascii	"r2\000"
 961 076e 05       		.byte	0x5
 962 076f 5C01     		.2byte	0x15c
 963 0771 11       		.byte	0x11
 964 0772 B2000000 		.4byte	0xb2
 965 0776 08       		.byte	0x8
 966 0777 13       		.uleb128 0x13
 967 0778 723300   		.ascii	"r3\000"
 968 077b 05       		.byte	0x5
 969 077c 5D01     		.2byte	0x15d
ARM GAS  /tmp/ccz8Y2A9.s 			page 18


 970 077e 11       		.byte	0x11
 971 077f B2000000 		.4byte	0xb2
 972 0783 0C       		.byte	0xc
 973 0784 13       		.uleb128 0x13
 974 0785 72313200 		.ascii	"r12\000"
 975 0789 05       		.byte	0x5
 976 078a 5E01     		.2byte	0x15e
 977 078c 11       		.byte	0x11
 978 078d B2000000 		.4byte	0xb2
 979 0791 10       		.byte	0x10
 980 0792 0B       		.uleb128 0xb
 981 0793 00000000 		.4byte	.LASF148
 982 0797 05       		.byte	0x5
 983 0798 5F01     		.2byte	0x15f
 984 079a 11       		.byte	0x11
 985 079b B2000000 		.4byte	0xb2
 986 079f 14       		.byte	0x14
 987 07a0 13       		.uleb128 0x13
 988 07a1 706300   		.ascii	"pc\000"
 989 07a4 05       		.byte	0x5
 990 07a5 6001     		.2byte	0x160
 991 07a7 11       		.byte	0x11
 992 07a8 B2000000 		.4byte	0xb2
 993 07ac 18       		.byte	0x18
 994 07ad 0B       		.uleb128 0xb
 995 07ae 32060000 		.4byte	.LASF149
 996 07b2 05       		.byte	0x5
 997 07b3 6101     		.2byte	0x161
 998 07b5 11       		.byte	0x11
 999 07b6 B2000000 		.4byte	0xb2
 1000 07ba 1C       		.byte	0x1c
 1001 07bb 00       		.byte	0
 1002 07bc 03       		.uleb128 0x3
 1003 07bd 01       		.byte	0x1
 1004 07be 02       		.byte	0x2
 1005 07bf A2050000 		.4byte	.LASF150
 1006 07c3 15       		.uleb128 0x15
 1007 07c4 3C080000 		.4byte	.LASF153
 1008 07c8 06       		.byte	0x6
 1009 07c9 3501     		.2byte	0x135
 1010 07cb 06       		.byte	0x6
 1011 07cc ED070000 		.4byte	0x7ed
 1012 07d0 16       		.uleb128 0x16
 1013 07d1 17       		.uleb128 0x17
 1014 07d2 5E000000 		.4byte	.LASF151
 1015 07d6 06       		.byte	0x6
 1016 07d7 3901     		.2byte	0x139
 1017 07d9 19       		.byte	0x19
 1018 07da ED070000 		.4byte	0x7ed
 1019 07de 17       		.uleb128 0x17
 1020 07df 42060000 		.4byte	.LASF152
 1021 07e3 06       		.byte	0x6
 1022 07e4 3A01     		.2byte	0x13a
 1023 07e6 0E       		.byte	0xe
 1024 07e7 B2000000 		.4byte	0xb2
 1025 07eb 00       		.byte	0
 1026 07ec 00       		.byte	0
ARM GAS  /tmp/ccz8Y2A9.s 			page 19


 1027 07ed 18       		.uleb128 0x18
 1028 07ee 04       		.byte	0x4
 1029 07ef 42070000 		.4byte	0x742
 1030 07f3 19       		.uleb128 0x19
 1031 07f4 85020000 		.4byte	.LASF176
 1032 07f8 06       		.byte	0x6
 1033 07f9 FA       		.byte	0xfa
 1034 07fa 06       		.byte	0x6
 1035 07fb 1A       		.uleb128 0x1a
 1036 07fc 89060000 		.4byte	.LASF154
 1037 0800 06       		.byte	0x6
 1038 0801 7B       		.byte	0x7b
 1039 0802 06       		.byte	0x6
 1040 0803 14080000 		.4byte	0x814
 1041 0807 1B       		.uleb128 0x1b
 1042 0808 70737000 		.ascii	"psp\000"
 1043 080c 06       		.byte	0x6
 1044 080d 7D       		.byte	0x7d
 1045 080e 0C       		.byte	0xc
 1046 080f B2000000 		.4byte	0xb2
 1047 0813 00       		.byte	0
 1048 0814 1C       		.uleb128 0x1c
 1049 0815 4D070000 		.4byte	.LASF155
 1050 0819 05       		.byte	0x5
 1051 081a CF02     		.2byte	0x2cf
 1052 081c 1B       		.byte	0x1b
 1053 081d 1C       		.uleb128 0x1c
 1054 081e D5070000 		.4byte	.LASF156
 1055 0822 05       		.byte	0x5
 1056 0823 C402     		.2byte	0x2c4
 1057 0825 1B       		.byte	0x1b
 1058 0826 1C       		.uleb128 0x1c
 1059 0827 2C010000 		.4byte	.LASF157
 1060 082b 05       		.byte	0x5
 1061 082c B502     		.2byte	0x2b5
 1062 082e 1B       		.byte	0x1b
 1063 082f 1C       		.uleb128 0x1c
 1064 0830 64000000 		.4byte	.LASF158
 1065 0834 05       		.byte	0x5
 1066 0835 9D02     		.2byte	0x29d
 1067 0837 1B       		.byte	0x1b
 1068 0838 1D       		.uleb128 0x1d
 1069 0839 45000000 		.4byte	.LASF161
 1070 083d 04       		.byte	0x4
 1071 083e 1807     		.2byte	0x718
 1072 0840 16       		.byte	0x16
 1073 0841 60080000 		.4byte	0x860
 1074 0845 1E       		.uleb128 0x1e
 1075 0846 32040000 		.4byte	.LASF159
 1076 084a 04       		.byte	0x4
 1077 084b 1807     		.2byte	0x718
 1078 084d 33       		.byte	0x33
 1079 084e 99020000 		.4byte	0x299
 1080 0852 1E       		.uleb128 0x1e
 1081 0853 E1020000 		.4byte	.LASF160
 1082 0857 04       		.byte	0x4
 1083 0858 1807     		.2byte	0x718
ARM GAS  /tmp/ccz8Y2A9.s 			page 20


 1084 085a 42       		.byte	0x42
 1085 085b B2000000 		.4byte	0xb2
 1086 085f 00       		.byte	0
 1087 0860 1D       		.uleb128 0x1d
 1088 0861 C8030000 		.4byte	.LASF162
 1089 0865 04       		.byte	0x4
 1090 0866 7906     		.2byte	0x679
 1091 0868 16       		.byte	0x16
 1092 0869 95080000 		.4byte	0x895
 1093 086d 1E       		.uleb128 0x1e
 1094 086e E1000000 		.4byte	.LASF163
 1095 0872 04       		.byte	0x4
 1096 0873 7906     		.2byte	0x679
 1097 0875 3A       		.byte	0x3a
 1098 0876 B2000000 		.4byte	0xb2
 1099 087a 17       		.uleb128 0x17
 1100 087b 20020000 		.4byte	.LASF164
 1101 087f 04       		.byte	0x4
 1102 0880 7B06     		.2byte	0x67b
 1103 0882 0C       		.byte	0xc
 1104 0883 B2000000 		.4byte	0xb2
 1105 0887 17       		.uleb128 0x17
 1106 0888 B3060000 		.4byte	.LASF165
 1107 088c 04       		.byte	0x4
 1108 088d 7C06     		.2byte	0x67c
 1109 088f 0C       		.byte	0xc
 1110 0890 B2000000 		.4byte	0xb2
 1111 0894 00       		.byte	0
 1112 0895 1D       		.uleb128 0x1d
 1113 0896 80070000 		.4byte	.LASF166
 1114 089a 07       		.byte	0x7
 1115 089b EB01     		.2byte	0x1eb
 1116 089d 1B       		.byte	0x1b
 1117 089e B0080000 		.4byte	0x8b0
 1118 08a2 1E       		.uleb128 0x1e
 1119 08a3 24010000 		.4byte	.LASF167
 1120 08a7 07       		.byte	0x7
 1121 08a8 EB01     		.2byte	0x1eb
 1122 08aa 32       		.byte	0x32
 1123 08ab B2000000 		.4byte	0xb2
 1124 08af 00       		.byte	0
 1125 08b0 1D       		.uleb128 0x1d
 1126 08b1 16020000 		.4byte	.LASF168
 1127 08b5 07       		.byte	0x7
 1128 08b6 1501     		.2byte	0x115
 1129 08b8 1B       		.byte	0x1b
 1130 08b9 CB080000 		.4byte	0x8cb
 1131 08bd 1E       		.uleb128 0x1e
 1132 08be B4030000 		.4byte	.LASF169
 1133 08c2 07       		.byte	0x7
 1134 08c3 1501     		.2byte	0x115
 1135 08c5 2E       		.byte	0x2e
 1136 08c6 B2000000 		.4byte	0xb2
 1137 08ca 00       		.byte	0
 1138 08cb 1F       		.uleb128 0x1f
 1139 08cc ED070000 		.4byte	.LASF177
 1140 08d0 07       		.byte	0x7
ARM GAS  /tmp/ccz8Y2A9.s 			page 21


 1141 08d1 F7       		.byte	0xf7
 1142 08d2 1F       		.byte	0x1f
 1143 08d3 B2000000 		.4byte	0xb2
 1144 08d7 E8080000 		.4byte	0x8e8
 1145 08db 20       		.uleb128 0x20
 1146 08dc C5080000 		.4byte	.LASF170
 1147 08e0 07       		.byte	0x7
 1148 08e1 F9       		.byte	0xf9
 1149 08e2 0C       		.byte	0xc
 1150 08e3 B2000000 		.4byte	0xb2
 1151 08e7 00       		.byte	0
 1152 08e8 21       		.uleb128 0x21
 1153 08e9 E0040000 		.4byte	.LASF171
 1154 08ed 07       		.byte	0x7
 1155 08ee 81       		.byte	0x81
 1156 08ef 1B       		.byte	0x1b
 1157 08f0 00       		.byte	0
 1158              		.section	.gnu.debuglto_.debug_abbrev,"e",%progbits
 1159              	.Ldebug_abbrev0:
 1160 0000 01       		.uleb128 0x1
 1161 0001 11       		.uleb128 0x11
 1162 0002 01       		.byte	0x1
 1163 0003 25       		.uleb128 0x25
 1164 0004 0E       		.uleb128 0xe
 1165 0005 13       		.uleb128 0x13
 1166 0006 0B       		.uleb128 0xb
 1167 0007 03       		.uleb128 0x3
 1168 0008 0E       		.uleb128 0xe
 1169 0009 1B       		.uleb128 0x1b
 1170 000a 0E       		.uleb128 0xe
 1171 000b 10       		.uleb128 0x10
 1172 000c 17       		.uleb128 0x17
 1173 000d 00       		.byte	0
 1174 000e 00       		.byte	0
 1175 000f 02       		.uleb128 0x2
 1176 0010 24       		.uleb128 0x24
 1177 0011 00       		.byte	0
 1178 0012 0B       		.uleb128 0xb
 1179 0013 0B       		.uleb128 0xb
 1180 0014 3E       		.uleb128 0x3e
 1181 0015 0B       		.uleb128 0xb
 1182 0016 03       		.uleb128 0x3
 1183 0017 08       		.uleb128 0x8
 1184 0018 00       		.byte	0
 1185 0019 00       		.byte	0
 1186 001a 03       		.uleb128 0x3
 1187 001b 24       		.uleb128 0x24
 1188 001c 00       		.byte	0
 1189 001d 0B       		.uleb128 0xb
 1190 001e 0B       		.uleb128 0xb
 1191 001f 3E       		.uleb128 0x3e
 1192 0020 0B       		.uleb128 0xb
 1193 0021 03       		.uleb128 0x3
 1194 0022 0E       		.uleb128 0xe
 1195 0023 00       		.byte	0
 1196 0024 00       		.byte	0
 1197 0025 04       		.uleb128 0x4
ARM GAS  /tmp/ccz8Y2A9.s 			page 22


 1198 0026 16       		.uleb128 0x16
 1199 0027 00       		.byte	0
 1200 0028 03       		.uleb128 0x3
 1201 0029 0E       		.uleb128 0xe
 1202 002a 3A       		.uleb128 0x3a
 1203 002b 0B       		.uleb128 0xb
 1204 002c 3B       		.uleb128 0x3b
 1205 002d 0B       		.uleb128 0xb
 1206 002e 39       		.uleb128 0x39
 1207 002f 0B       		.uleb128 0xb
 1208 0030 49       		.uleb128 0x49
 1209 0031 13       		.uleb128 0x13
 1210 0032 00       		.byte	0
 1211 0033 00       		.byte	0
 1212 0034 05       		.uleb128 0x5
 1213 0035 35       		.uleb128 0x35
 1214 0036 00       		.byte	0
 1215 0037 49       		.uleb128 0x49
 1216 0038 13       		.uleb128 0x13
 1217 0039 00       		.byte	0
 1218 003a 00       		.byte	0
 1219 003b 06       		.uleb128 0x6
 1220 003c 26       		.uleb128 0x26
 1221 003d 00       		.byte	0
 1222 003e 49       		.uleb128 0x49
 1223 003f 13       		.uleb128 0x13
 1224 0040 00       		.byte	0
 1225 0041 00       		.byte	0
 1226 0042 07       		.uleb128 0x7
 1227 0043 04       		.uleb128 0x4
 1228 0044 01       		.byte	0x1
 1229 0045 3E       		.uleb128 0x3e
 1230 0046 0B       		.uleb128 0xb
 1231 0047 0B       		.uleb128 0xb
 1232 0048 0B       		.uleb128 0xb
 1233 0049 49       		.uleb128 0x49
 1234 004a 13       		.uleb128 0x13
 1235 004b 3A       		.uleb128 0x3a
 1236 004c 0B       		.uleb128 0xb
 1237 004d 3B       		.uleb128 0x3b
 1238 004e 0B       		.uleb128 0xb
 1239 004f 39       		.uleb128 0x39
 1240 0050 0B       		.uleb128 0xb
 1241 0051 01       		.uleb128 0x1
 1242 0052 13       		.uleb128 0x13
 1243 0053 00       		.byte	0
 1244 0054 00       		.byte	0
 1245 0055 08       		.uleb128 0x8
 1246 0056 28       		.uleb128 0x28
 1247 0057 00       		.byte	0
 1248 0058 03       		.uleb128 0x3
 1249 0059 0E       		.uleb128 0xe
 1250 005a 1C       		.uleb128 0x1c
 1251 005b 0D       		.uleb128 0xd
 1252 005c 00       		.byte	0
 1253 005d 00       		.byte	0
 1254 005e 09       		.uleb128 0x9
ARM GAS  /tmp/ccz8Y2A9.s 			page 23


 1255 005f 28       		.uleb128 0x28
 1256 0060 00       		.byte	0
 1257 0061 03       		.uleb128 0x3
 1258 0062 0E       		.uleb128 0xe
 1259 0063 1C       		.uleb128 0x1c
 1260 0064 0B       		.uleb128 0xb
 1261 0065 00       		.byte	0
 1262 0066 00       		.byte	0
 1263 0067 0A       		.uleb128 0xa
 1264 0068 13       		.uleb128 0x13
 1265 0069 01       		.byte	0x1
 1266 006a 0B       		.uleb128 0xb
 1267 006b 05       		.uleb128 0x5
 1268 006c 3A       		.uleb128 0x3a
 1269 006d 0B       		.uleb128 0xb
 1270 006e 3B       		.uleb128 0x3b
 1271 006f 05       		.uleb128 0x5
 1272 0070 39       		.uleb128 0x39
 1273 0071 0B       		.uleb128 0xb
 1274 0072 01       		.uleb128 0x1
 1275 0073 13       		.uleb128 0x13
 1276 0074 00       		.byte	0
 1277 0075 00       		.byte	0
 1278 0076 0B       		.uleb128 0xb
 1279 0077 0D       		.uleb128 0xd
 1280 0078 00       		.byte	0
 1281 0079 03       		.uleb128 0x3
 1282 007a 0E       		.uleb128 0xe
 1283 007b 3A       		.uleb128 0x3a
 1284 007c 0B       		.uleb128 0xb
 1285 007d 3B       		.uleb128 0x3b
 1286 007e 05       		.uleb128 0x5
 1287 007f 39       		.uleb128 0x39
 1288 0080 0B       		.uleb128 0xb
 1289 0081 49       		.uleb128 0x49
 1290 0082 13       		.uleb128 0x13
 1291 0083 38       		.uleb128 0x38
 1292 0084 0B       		.uleb128 0xb
 1293 0085 00       		.byte	0
 1294 0086 00       		.byte	0
 1295 0087 0C       		.uleb128 0xc
 1296 0088 0D       		.uleb128 0xd
 1297 0089 00       		.byte	0
 1298 008a 03       		.uleb128 0x3
 1299 008b 0E       		.uleb128 0xe
 1300 008c 3A       		.uleb128 0x3a
 1301 008d 0B       		.uleb128 0xb
 1302 008e 3B       		.uleb128 0x3b
 1303 008f 05       		.uleb128 0x5
 1304 0090 39       		.uleb128 0x39
 1305 0091 0B       		.uleb128 0xb
 1306 0092 49       		.uleb128 0x49
 1307 0093 13       		.uleb128 0x13
 1308 0094 38       		.uleb128 0x38
 1309 0095 05       		.uleb128 0x5
 1310 0096 00       		.byte	0
 1311 0097 00       		.byte	0
ARM GAS  /tmp/ccz8Y2A9.s 			page 24


 1312 0098 0D       		.uleb128 0xd
 1313 0099 0D       		.uleb128 0xd
 1314 009a 00       		.byte	0
 1315 009b 03       		.uleb128 0x3
 1316 009c 08       		.uleb128 0x8
 1317 009d 3A       		.uleb128 0x3a
 1318 009e 0B       		.uleb128 0xb
 1319 009f 3B       		.uleb128 0x3b
 1320 00a0 05       		.uleb128 0x5
 1321 00a1 39       		.uleb128 0x39
 1322 00a2 0B       		.uleb128 0xb
 1323 00a3 49       		.uleb128 0x49
 1324 00a4 13       		.uleb128 0x13
 1325 00a5 38       		.uleb128 0x38
 1326 00a6 05       		.uleb128 0x5
 1327 00a7 00       		.byte	0
 1328 00a8 00       		.byte	0
 1329 00a9 0E       		.uleb128 0xe
 1330 00aa 01       		.uleb128 0x1
 1331 00ab 01       		.byte	0x1
 1332 00ac 49       		.uleb128 0x49
 1333 00ad 13       		.uleb128 0x13
 1334 00ae 01       		.uleb128 0x1
 1335 00af 13       		.uleb128 0x13
 1336 00b0 00       		.byte	0
 1337 00b1 00       		.byte	0
 1338 00b2 0F       		.uleb128 0xf
 1339 00b3 21       		.uleb128 0x21
 1340 00b4 00       		.byte	0
 1341 00b5 49       		.uleb128 0x49
 1342 00b6 13       		.uleb128 0x13
 1343 00b7 2F       		.uleb128 0x2f
 1344 00b8 0B       		.uleb128 0xb
 1345 00b9 00       		.byte	0
 1346 00ba 00       		.byte	0
 1347 00bb 10       		.uleb128 0x10
 1348 00bc 21       		.uleb128 0x21
 1349 00bd 00       		.byte	0
 1350 00be 49       		.uleb128 0x49
 1351 00bf 13       		.uleb128 0x13
 1352 00c0 2F       		.uleb128 0x2f
 1353 00c1 05       		.uleb128 0x5
 1354 00c2 00       		.byte	0
 1355 00c3 00       		.byte	0
 1356 00c4 11       		.uleb128 0x11
 1357 00c5 16       		.uleb128 0x16
 1358 00c6 00       		.byte	0
 1359 00c7 03       		.uleb128 0x3
 1360 00c8 0E       		.uleb128 0xe
 1361 00c9 3A       		.uleb128 0x3a
 1362 00ca 0B       		.uleb128 0xb
 1363 00cb 3B       		.uleb128 0x3b
 1364 00cc 05       		.uleb128 0x5
 1365 00cd 39       		.uleb128 0x39
 1366 00ce 0B       		.uleb128 0xb
 1367 00cf 49       		.uleb128 0x49
 1368 00d0 13       		.uleb128 0x13
ARM GAS  /tmp/ccz8Y2A9.s 			page 25


 1369 00d1 00       		.byte	0
 1370 00d2 00       		.byte	0
 1371 00d3 12       		.uleb128 0x12
 1372 00d4 13       		.uleb128 0x13
 1373 00d5 01       		.byte	0x1
 1374 00d6 0B       		.uleb128 0xb
 1375 00d7 0B       		.uleb128 0xb
 1376 00d8 3A       		.uleb128 0x3a
 1377 00d9 0B       		.uleb128 0xb
 1378 00da 3B       		.uleb128 0x3b
 1379 00db 05       		.uleb128 0x5
 1380 00dc 39       		.uleb128 0x39
 1381 00dd 0B       		.uleb128 0xb
 1382 00de 01       		.uleb128 0x1
 1383 00df 13       		.uleb128 0x13
 1384 00e0 00       		.byte	0
 1385 00e1 00       		.byte	0
 1386 00e2 13       		.uleb128 0x13
 1387 00e3 0D       		.uleb128 0xd
 1388 00e4 00       		.byte	0
 1389 00e5 03       		.uleb128 0x3
 1390 00e6 08       		.uleb128 0x8
 1391 00e7 3A       		.uleb128 0x3a
 1392 00e8 0B       		.uleb128 0xb
 1393 00e9 3B       		.uleb128 0x3b
 1394 00ea 05       		.uleb128 0x5
 1395 00eb 39       		.uleb128 0x39
 1396 00ec 0B       		.uleb128 0xb
 1397 00ed 49       		.uleb128 0x49
 1398 00ee 13       		.uleb128 0x13
 1399 00ef 38       		.uleb128 0x38
 1400 00f0 0B       		.uleb128 0xb
 1401 00f1 00       		.byte	0
 1402 00f2 00       		.byte	0
 1403 00f3 14       		.uleb128 0x14
 1404 00f4 13       		.uleb128 0x13
 1405 00f5 01       		.byte	0x1
 1406 00f6 03       		.uleb128 0x3
 1407 00f7 0E       		.uleb128 0xe
 1408 00f8 0B       		.uleb128 0xb
 1409 00f9 0B       		.uleb128 0xb
 1410 00fa 3A       		.uleb128 0x3a
 1411 00fb 0B       		.uleb128 0xb
 1412 00fc 3B       		.uleb128 0x3b
 1413 00fd 05       		.uleb128 0x5
 1414 00fe 39       		.uleb128 0x39
 1415 00ff 0B       		.uleb128 0xb
 1416 0100 01       		.uleb128 0x1
 1417 0101 13       		.uleb128 0x13
 1418 0102 00       		.byte	0
 1419 0103 00       		.byte	0
 1420 0104 15       		.uleb128 0x15
 1421 0105 2E       		.uleb128 0x2e
 1422 0106 01       		.byte	0x1
 1423 0107 3F       		.uleb128 0x3f
 1424 0108 19       		.uleb128 0x19
 1425 0109 03       		.uleb128 0x3
ARM GAS  /tmp/ccz8Y2A9.s 			page 26


 1426 010a 0E       		.uleb128 0xe
 1427 010b 3A       		.uleb128 0x3a
 1428 010c 0B       		.uleb128 0xb
 1429 010d 3B       		.uleb128 0x3b
 1430 010e 05       		.uleb128 0x5
 1431 010f 39       		.uleb128 0x39
 1432 0110 0B       		.uleb128 0xb
 1433 0111 27       		.uleb128 0x27
 1434 0112 19       		.uleb128 0x19
 1435 0113 01       		.uleb128 0x1
 1436 0114 13       		.uleb128 0x13
 1437 0115 00       		.byte	0
 1438 0116 00       		.byte	0
 1439 0117 16       		.uleb128 0x16
 1440 0118 0B       		.uleb128 0xb
 1441 0119 01       		.byte	0x1
 1442 011a 00       		.byte	0
 1443 011b 00       		.byte	0
 1444 011c 17       		.uleb128 0x17
 1445 011d 34       		.uleb128 0x34
 1446 011e 00       		.byte	0
 1447 011f 03       		.uleb128 0x3
 1448 0120 0E       		.uleb128 0xe
 1449 0121 3A       		.uleb128 0x3a
 1450 0122 0B       		.uleb128 0xb
 1451 0123 3B       		.uleb128 0x3b
 1452 0124 05       		.uleb128 0x5
 1453 0125 39       		.uleb128 0x39
 1454 0126 0B       		.uleb128 0xb
 1455 0127 49       		.uleb128 0x49
 1456 0128 13       		.uleb128 0x13
 1457 0129 00       		.byte	0
 1458 012a 00       		.byte	0
 1459 012b 18       		.uleb128 0x18
 1460 012c 0F       		.uleb128 0xf
 1461 012d 00       		.byte	0
 1462 012e 0B       		.uleb128 0xb
 1463 012f 0B       		.uleb128 0xb
 1464 0130 49       		.uleb128 0x49
 1465 0131 13       		.uleb128 0x13
 1466 0132 00       		.byte	0
 1467 0133 00       		.byte	0
 1468 0134 19       		.uleb128 0x19
 1469 0135 2E       		.uleb128 0x2e
 1470 0136 00       		.byte	0
 1471 0137 3F       		.uleb128 0x3f
 1472 0138 19       		.uleb128 0x19
 1473 0139 03       		.uleb128 0x3
 1474 013a 0E       		.uleb128 0xe
 1475 013b 3A       		.uleb128 0x3a
 1476 013c 0B       		.uleb128 0xb
 1477 013d 3B       		.uleb128 0x3b
 1478 013e 0B       		.uleb128 0xb
 1479 013f 39       		.uleb128 0x39
 1480 0140 0B       		.uleb128 0xb
 1481 0141 27       		.uleb128 0x27
 1482 0142 19       		.uleb128 0x19
ARM GAS  /tmp/ccz8Y2A9.s 			page 27


 1483 0143 00       		.byte	0
 1484 0144 00       		.byte	0
 1485 0145 1A       		.uleb128 0x1a
 1486 0146 2E       		.uleb128 0x2e
 1487 0147 01       		.byte	0x1
 1488 0148 3F       		.uleb128 0x3f
 1489 0149 19       		.uleb128 0x19
 1490 014a 03       		.uleb128 0x3
 1491 014b 0E       		.uleb128 0xe
 1492 014c 3A       		.uleb128 0x3a
 1493 014d 0B       		.uleb128 0xb
 1494 014e 3B       		.uleb128 0x3b
 1495 014f 0B       		.uleb128 0xb
 1496 0150 39       		.uleb128 0x39
 1497 0151 0B       		.uleb128 0xb
 1498 0152 27       		.uleb128 0x27
 1499 0153 19       		.uleb128 0x19
 1500 0154 01       		.uleb128 0x1
 1501 0155 13       		.uleb128 0x13
 1502 0156 00       		.byte	0
 1503 0157 00       		.byte	0
 1504 0158 1B       		.uleb128 0x1b
 1505 0159 34       		.uleb128 0x34
 1506 015a 00       		.byte	0
 1507 015b 03       		.uleb128 0x3
 1508 015c 08       		.uleb128 0x8
 1509 015d 3A       		.uleb128 0x3a
 1510 015e 0B       		.uleb128 0xb
 1511 015f 3B       		.uleb128 0x3b
 1512 0160 0B       		.uleb128 0xb
 1513 0161 39       		.uleb128 0x39
 1514 0162 0B       		.uleb128 0xb
 1515 0163 49       		.uleb128 0x49
 1516 0164 13       		.uleb128 0x13
 1517 0165 00       		.byte	0
 1518 0166 00       		.byte	0
 1519 0167 1C       		.uleb128 0x1c
 1520 0168 2E       		.uleb128 0x2e
 1521 0169 00       		.byte	0
 1522 016a 03       		.uleb128 0x3
 1523 016b 0E       		.uleb128 0xe
 1524 016c 3A       		.uleb128 0x3a
 1525 016d 0B       		.uleb128 0xb
 1526 016e 3B       		.uleb128 0x3b
 1527 016f 05       		.uleb128 0x5
 1528 0170 39       		.uleb128 0x39
 1529 0171 0B       		.uleb128 0xb
 1530 0172 27       		.uleb128 0x27
 1531 0173 19       		.uleb128 0x19
 1532 0174 00       		.byte	0
 1533 0175 00       		.byte	0
 1534 0176 1D       		.uleb128 0x1d
 1535 0177 2E       		.uleb128 0x2e
 1536 0178 01       		.byte	0x1
 1537 0179 03       		.uleb128 0x3
 1538 017a 0E       		.uleb128 0xe
 1539 017b 3A       		.uleb128 0x3a
ARM GAS  /tmp/ccz8Y2A9.s 			page 28


 1540 017c 0B       		.uleb128 0xb
 1541 017d 3B       		.uleb128 0x3b
 1542 017e 05       		.uleb128 0x5
 1543 017f 39       		.uleb128 0x39
 1544 0180 0B       		.uleb128 0xb
 1545 0181 27       		.uleb128 0x27
 1546 0182 19       		.uleb128 0x19
 1547 0183 01       		.uleb128 0x1
 1548 0184 13       		.uleb128 0x13
 1549 0185 00       		.byte	0
 1550 0186 00       		.byte	0
 1551 0187 1E       		.uleb128 0x1e
 1552 0188 05       		.uleb128 0x5
 1553 0189 00       		.byte	0
 1554 018a 03       		.uleb128 0x3
 1555 018b 0E       		.uleb128 0xe
 1556 018c 3A       		.uleb128 0x3a
 1557 018d 0B       		.uleb128 0xb
 1558 018e 3B       		.uleb128 0x3b
 1559 018f 05       		.uleb128 0x5
 1560 0190 39       		.uleb128 0x39
 1561 0191 0B       		.uleb128 0xb
 1562 0192 49       		.uleb128 0x49
 1563 0193 13       		.uleb128 0x13
 1564 0194 00       		.byte	0
 1565 0195 00       		.byte	0
 1566 0196 1F       		.uleb128 0x1f
 1567 0197 2E       		.uleb128 0x2e
 1568 0198 01       		.byte	0x1
 1569 0199 03       		.uleb128 0x3
 1570 019a 0E       		.uleb128 0xe
 1571 019b 3A       		.uleb128 0x3a
 1572 019c 0B       		.uleb128 0xb
 1573 019d 3B       		.uleb128 0x3b
 1574 019e 0B       		.uleb128 0xb
 1575 019f 39       		.uleb128 0x39
 1576 01a0 0B       		.uleb128 0xb
 1577 01a1 27       		.uleb128 0x27
 1578 01a2 19       		.uleb128 0x19
 1579 01a3 49       		.uleb128 0x49
 1580 01a4 13       		.uleb128 0x13
 1581 01a5 01       		.uleb128 0x1
 1582 01a6 13       		.uleb128 0x13
 1583 01a7 00       		.byte	0
 1584 01a8 00       		.byte	0
 1585 01a9 20       		.uleb128 0x20
 1586 01aa 34       		.uleb128 0x34
 1587 01ab 00       		.byte	0
 1588 01ac 03       		.uleb128 0x3
 1589 01ad 0E       		.uleb128 0xe
 1590 01ae 3A       		.uleb128 0x3a
 1591 01af 0B       		.uleb128 0xb
 1592 01b0 3B       		.uleb128 0x3b
 1593 01b1 0B       		.uleb128 0xb
 1594 01b2 39       		.uleb128 0x39
 1595 01b3 0B       		.uleb128 0xb
 1596 01b4 49       		.uleb128 0x49
ARM GAS  /tmp/ccz8Y2A9.s 			page 29


 1597 01b5 13       		.uleb128 0x13
 1598 01b6 00       		.byte	0
 1599 01b7 00       		.byte	0
 1600 01b8 21       		.uleb128 0x21
 1601 01b9 2E       		.uleb128 0x2e
 1602 01ba 00       		.byte	0
 1603 01bb 03       		.uleb128 0x3
 1604 01bc 0E       		.uleb128 0xe
 1605 01bd 3A       		.uleb128 0x3a
 1606 01be 0B       		.uleb128 0xb
 1607 01bf 3B       		.uleb128 0x3b
 1608 01c0 0B       		.uleb128 0xb
 1609 01c1 39       		.uleb128 0x39
 1610 01c2 0B       		.uleb128 0xb
 1611 01c3 27       		.uleb128 0x27
 1612 01c4 19       		.uleb128 0x19
 1613 01c5 00       		.byte	0
 1614 01c6 00       		.byte	0
 1615 01c7 00       		.byte	0
 1616              		.section	.gnu.debuglto_.debug_line,"e",%progbits
 1617              	.Ldebug_line0:
 1618 0000 A1010000 		.4byte	.LELT0-.LSLT0
 1619              	.LSLT0:
 1620 0004 0400     		.2byte	0x4
 1621 0006 9B010000 		.4byte	.LELTP0-.LASLTP0
 1622              	.LASLTP0:
 1623 000a 01       		.byte	0x1
 1624 000b 01       		.byte	0x1
 1625 000c 01       		.byte	0x1
 1626 000d F6       		.byte	0xf6
 1627 000e F2       		.byte	0xf2
 1628 000f 0D       		.byte	0xd
 1629 0010 00       		.byte	0
 1630 0011 01       		.byte	0x1
 1631 0012 01       		.byte	0x1
 1632 0013 01       		.byte	0x1
 1633 0014 01       		.byte	0x1
 1634 0015 00       		.byte	0
 1635 0016 00       		.byte	0
 1636 0017 00       		.byte	0
 1637 0018 01       		.byte	0x1
 1638 0019 00       		.byte	0
 1639 001a 00       		.byte	0
 1640 001b 01       		.byte	0x1
 1641 001c 43686962 		.ascii	"ChibiOS_20.3.0/os/common/ext/ARM/CMSIS/Core/Include"
 1641      694F535F 
 1641      32302E33 
 1641      2E302F6F 
 1641      732F636F 
 1642 004f 00       		.byte	0
 1643 0050 43686962 		.ascii	"ChibiOS_20.3.0/os/common/ext/ST/STM32F3xx"
 1643      694F535F 
 1643      32302E33 
 1643      2E302F6F 
 1643      732F636F 
 1644 0079 00       		.byte	0
 1645 007a 43686962 		.ascii	"ChibiOS_20.3.0/os/common/ports/ARMCMx"
ARM GAS  /tmp/ccz8Y2A9.s 			page 30


 1645      694F535F 
 1645      32302E33 
 1645      2E302F6F 
 1645      732F636F 
 1646 009f 00       		.byte	0
 1647 00a0 2F757372 		.ascii	"/usr/share/gcc-arm-none-eabi-10-2020-q4-major/arm-n"
 1647      2F736861 
 1647      72652F67 
 1647      63632D61 
 1647      726D2D6E 
 1648 00d3 6F6E652D 		.ascii	"one-eabi/include/machine"
 1648      65616269 
 1648      2F696E63 
 1648      6C756465 
 1648      2F6D6163 
 1649 00eb 00       		.byte	0
 1650 00ec 2F757372 		.ascii	"/usr/share/gcc-arm-none-eabi-10-2020-q4-major/arm-n"
 1650      2F736861 
 1650      72652F67 
 1650      63632D61 
 1650      726D2D6E 
 1651 011f 6F6E652D 		.ascii	"one-eabi/include/sys"
 1651      65616269 
 1651      2F696E63 
 1651      6C756465 
 1651      2F737973 
 1652 0133 00       		.byte	0
 1653 0134 00       		.byte	0
 1654 0135 5F646566 		.ascii	"_default_types.h\000"
 1654      61756C74 
 1654      5F747970 
 1654      65732E68 
 1654      00
 1655 0146 04       		.uleb128 0x4
 1656 0147 00       		.uleb128 0
 1657 0148 00       		.uleb128 0
 1658 0149 5F737464 		.ascii	"_stdint.h\000"
 1658      696E742E 
 1658      6800
 1659 0153 05       		.uleb128 0x5
 1660 0154 00       		.uleb128 0
 1661 0155 00       		.uleb128 0
 1662 0156 73746D33 		.ascii	"stm32f303xc.h\000"
 1662      32663330 
 1662      3378632E 
 1662      6800
 1663 0164 02       		.uleb128 0x2
 1664 0165 00       		.uleb128 0
 1665 0166 00       		.uleb128 0
 1666 0167 636F7265 		.ascii	"core_cm4.h\000"
 1666      5F636D34 
 1666      2E6800
 1667 0172 01       		.uleb128 0x1
 1668 0173 00       		.uleb128 0
 1669 0174 00       		.uleb128 0
 1670 0175 6368636F 		.ascii	"chcore_v7m.h\000"
 1670      72655F76 
ARM GAS  /tmp/ccz8Y2A9.s 			page 31


 1670      376D2E68 
 1670      00
 1671 0182 03       		.uleb128 0x3
 1672 0183 00       		.uleb128 0
 1673 0184 00       		.uleb128 0
 1674 0185 6368636F 		.ascii	"chcore_v7m.c\000"
 1674      72655F76 
 1674      376D2E63 
 1674      00
 1675 0192 03       		.uleb128 0x3
 1676 0193 00       		.uleb128 0
 1677 0194 00       		.uleb128 0
 1678 0195 636D7369 		.ascii	"cmsis_gcc.h\000"
 1678      735F6763 
 1678      632E6800 
 1679 01a1 01       		.uleb128 0x1
 1680 01a2 00       		.uleb128 0
 1681 01a3 00       		.uleb128 0
 1682 01a4 00       		.byte	0
 1683              	.LELTP0:
 1684              	.LELT0:
 1685              		.section	.gnu.debuglto_.debug_str,"eMS",%progbits,1
 1686              	.LASF148:
 1687 0000 6C725F74 		.ascii	"lr_thd\000"
 1687      686400
 1688              	.LASF133:
 1689 0007 4D41534B 		.ascii	"MASK1\000"
 1689      3100
 1690              	.LASF52:
 1691 000d 54494D31 		.ascii	"TIM1_TRG_COM_TIM17_IRQn\000"
 1691      5F545247 
 1691      5F434F4D 
 1691      5F54494D 
 1691      31375F49 
 1692              	.LASF27:
 1693 0025 5056445F 		.ascii	"PVD_IRQn\000"
 1693      4952516E 
 1693      00
 1694              	.LASF57:
 1695 002e 49324331 		.ascii	"I2C1_EV_IRQn\000"
 1695      5F45565F 
 1695      4952516E 
 1695      00
 1696              	.LASF7:
 1697 003b 5F5F7569 		.ascii	"__uint8_t\000"
 1697      6E74385F 
 1697      7400
 1698              	.LASF161:
 1699 0045 5F5F4E56 		.ascii	"__NVIC_SetPriority\000"
 1699      49435F53 
 1699      65745072 
 1699      696F7269 
 1699      747900
 1700              	.LASF144:
 1701 0058 44435253 		.ascii	"DCRSR\000"
 1701      5200
 1702              	.LASF151:
ARM GAS  /tmp/ccz8Y2A9.s 			page 32


 1703 005e 65637478 		.ascii	"ectxp\000"
 1703      7000
 1704              	.LASF158:
 1705 0064 706F7274 		.ascii	"port_lock\000"
 1705      5F6C6F63 
 1705      6B00
 1706              	.LASF145:
 1707 006e 44435244 		.ascii	"DCRDR\000"
 1707      5200
 1708              	.LASF12:
 1709 0074 6C6F6E67 		.ascii	"long long unsigned int\000"
 1709      206C6F6E 
 1709      6720756E 
 1709      7369676E 
 1709      65642069 
 1710              	.LASF79:
 1711 008b 444D4132 		.ascii	"DMA2_Channel1_IRQn\000"
 1711      5F436861 
 1711      6E6E656C 
 1711      315F4952 
 1711      516E00
 1712              	.LASF67:
 1713 009e 5254435F 		.ascii	"RTC_Alarm_IRQn\000"
 1713      416C6172 
 1713      6D5F4952 
 1713      516E00
 1714              	.LASF60:
 1715 00ad 49324332 		.ascii	"I2C2_ER_IRQn\000"
 1715      5F45525F 
 1715      4952516E 
 1715      00
 1716              	.LASF56:
 1717 00ba 54494D34 		.ascii	"TIM4_IRQn\000"
 1717      5F495251 
 1717      6E00
 1718              	.LASF29:
 1719 00c4 5254435F 		.ascii	"RTC_WKUP_IRQn\000"
 1719      574B5550 
 1719      5F495251 
 1719      6E00
 1720              	.LASF26:
 1721 00d2 57574447 		.ascii	"WWDG_IRQn\000"
 1721      5F495251 
 1721      6E00
 1722              	.LASF97:
 1723 00dc 49535052 		.ascii	"ISPR\000"
 1723      00
 1724              	.LASF163:
 1725 00e1 5072696F 		.ascii	"PriorityGroup\000"
 1725      72697479 
 1725      47726F75 
 1725      7000
 1726              	.LASF147:
 1727 00ef 436F7265 		.ascii	"CoreDebug_Type\000"
 1727      44656275 
 1727      675F5479 
 1727      706500
ARM GAS  /tmp/ccz8Y2A9.s 			page 33


 1728              	.LASF118:
 1729 00fe 49534152 		.ascii	"ISAR\000"
 1729      00
 1730              	.LASF1:
 1731 0103 6C6F6E67 		.ascii	"long long int\000"
 1731      206C6F6E 
 1731      6720696E 
 1731      7400
 1732              	.LASF3:
 1733 0111 7369676E 		.ascii	"signed char\000"
 1733      65642063 
 1733      68617200 
 1734              	.LASF123:
 1735 011d 43504943 		.ascii	"CPICNT\000"
 1735      4E5400
 1736              	.LASF167:
 1737 0124 62617365 		.ascii	"basePri\000"
 1737      50726900 
 1738              	.LASF157:
 1739 012c 706F7274 		.ascii	"port_unlock\000"
 1739      5F756E6C 
 1739      6F636B00 
 1740              	.LASF83:
 1741 0138 444D4132 		.ascii	"DMA2_Channel5_IRQn\000"
 1741      5F436861 
 1741      6E6E656C 
 1741      355F4952 
 1741      516E00
 1742              	.LASF9:
 1743 014b 6C6F6E67 		.ascii	"long int\000"
 1743      20696E74 
 1743      00
 1744              	.LASF59:
 1745 0154 49324332 		.ascii	"I2C2_EV_IRQn\000"
 1745      5F45565F 
 1745      4952516E 
 1745      00
 1746              	.LASF49:
 1747 0161 45585449 		.ascii	"EXTI9_5_IRQn\000"
 1747      395F355F 
 1747      4952516E 
 1747      00
 1748              	.LASF73:
 1749 016e 41444333 		.ascii	"ADC3_IRQn\000"
 1749      5F495251 
 1749      6E00
 1750              	.LASF143:
 1751 0178 44484353 		.ascii	"DHCSR\000"
 1751      5200
 1752              	.LASF175:
 1753 017e 706F7274 		.ascii	"port_extctx\000"
 1753      5F657874 
 1753      63747800 
 1754              	.LASF125:
 1755 018a 534C4545 		.ascii	"SLEEPCNT\000"
 1755      50434E54 
 1755      00
ARM GAS  /tmp/ccz8Y2A9.s 			page 34


 1756              	.LASF44:
 1757 0193 41444331 		.ascii	"ADC1_2_IRQn\000"
 1757      5F325F49 
 1757      52516E00 
 1758              	.LASF77:
 1759 019f 54494D36 		.ascii	"TIM6_DAC_IRQn\000"
 1759      5F444143 
 1759      5F495251 
 1759      6E00
 1760              	.LASF75:
 1761 01ad 55415254 		.ascii	"UART4_IRQn\000"
 1761      345F4952 
 1761      516E00
 1762              	.LASF24:
 1763 01b8 50656E64 		.ascii	"PendSV_IRQn\000"
 1763      53565F49 
 1763      52516E00 
 1764              	.LASF115:
 1765 01c4 42464152 		.ascii	"BFAR\000"
 1765      00
 1766              	.LASF40:
 1767 01c9 444D4131 		.ascii	"DMA1_Channel4_IRQn\000"
 1767      5F436861 
 1767      6E6E656C 
 1767      345F4952 
 1767      516E00
 1768              	.LASF116:
 1769 01dc 41465352 		.ascii	"AFSR\000"
 1769      00
 1770              	.LASF10:
 1771 01e1 5F5F7569 		.ascii	"__uint32_t\000"
 1771      6E743332 
 1771      5F7400
 1772              	.LASF20:
 1773 01ec 42757346 		.ascii	"BusFault_IRQn\000"
 1773      61756C74 
 1773      5F495251 
 1773      6E00
 1774              	.LASF120:
 1775 01fa 5343425F 		.ascii	"SCB_Type\000"
 1775      54797065 
 1775      00
 1776              	.LASF130:
 1777 0203 4D41534B 		.ascii	"MASK0\000"
 1777      3000
 1778              	.LASF0:
 1779 0209 756E7369 		.ascii	"unsigned int\000"
 1779      676E6564 
 1779      20696E74 
 1779      00
 1780              	.LASF168:
 1781 0216 5F5F7365 		.ascii	"__set_PSP\000"
 1781      745F5053 
 1781      5000
 1782              	.LASF164:
 1783 0220 7265675F 		.ascii	"reg_value\000"
 1783      76616C75 
ARM GAS  /tmp/ccz8Y2A9.s 			page 35


 1783      6500
 1784              	.LASF137:
 1785 022a 4D41534B 		.ascii	"MASK2\000"
 1785      3200
 1786              	.LASF140:
 1787 0230 4D41534B 		.ascii	"MASK3\000"
 1787      3300
 1788              	.LASF84:
 1789 0236 41444334 		.ascii	"ADC4_IRQn\000"
 1789      5F495251 
 1789      6E00
 1790              	.LASF19:
 1791 0240 4D656D6F 		.ascii	"MemoryManagement_IRQn\000"
 1791      72794D61 
 1791      6E616765 
 1791      6D656E74 
 1791      5F495251 
 1792              	.LASF11:
 1793 0256 6C6F6E67 		.ascii	"long unsigned int\000"
 1793      20756E73 
 1793      69676E65 
 1793      6420696E 
 1793      7400
 1794              	.LASF99:
 1795 0268 49435052 		.ascii	"ICPR\000"
 1795      00
 1796              	.LASF108:
 1797 026d 56544F52 		.ascii	"VTOR\000"
 1797      00
 1798              	.LASF41:
 1799 0272 444D4131 		.ascii	"DMA1_Channel5_IRQn\000"
 1799      5F436861 
 1799      6E6E656C 
 1799      355F4952 
 1799      516E00
 1800              	.LASF176:
 1801 0285 706F7274 		.ascii	"port_init\000"
 1801      5F696E69 
 1801      7400
 1802              	.LASF124:
 1803 028f 45584343 		.ascii	"EXCCNT\000"
 1803      4E5400
 1804              	.LASF107:
 1805 0296 49435352 		.ascii	"ICSR\000"
 1805      00
 1806              	.LASF18:
 1807 029b 48617264 		.ascii	"HardFault_IRQn\000"
 1807      4661756C 
 1807      745F4952 
 1807      516E00
 1808              	.LASF109:
 1809 02aa 41495243 		.ascii	"AIRCR\000"
 1809      5200
 1810              	.LASF113:
 1811 02b0 44465352 		.ascii	"DFSR\000"
 1811      00
 1812              	.LASF66:
ARM GAS  /tmp/ccz8Y2A9.s 			page 36


 1813 02b5 45585449 		.ascii	"EXTI15_10_IRQn\000"
 1813      31355F31 
 1813      305F4952 
 1813      516E00
 1814              	.LASF48:
 1815 02c4 43414E5F 		.ascii	"CAN_SCE_IRQn\000"
 1815      5343455F 
 1815      4952516E 
 1815      00
 1816              	.LASF114:
 1817 02d1 4D4D4641 		.ascii	"MMFAR\000"
 1817      5200
 1818              	.LASF61:
 1819 02d7 53504931 		.ascii	"SPI1_IRQn\000"
 1819      5F495251 
 1819      6E00
 1820              	.LASF160:
 1821 02e1 7072696F 		.ascii	"priority\000"
 1821      72697479 
 1821      00
 1822              	.LASF117:
 1823 02ea 4D4D4652 		.ascii	"MMFR\000"
 1823      00
 1824              	.LASF172:
 1825 02ef 474E5520 		.ascii	"GNU C17 10.2.1 20201103 (release) -mcpu=cortex-m4 -"
 1825      43313720 
 1825      31302E32 
 1825      2E312032 
 1825      30323031 
 1826 0322 6D746875 		.ascii	"mthumb -mfloat-abi=soft -march=armv7e-m -ggdb -O2 -"
 1826      6D62202D 
 1826      6D666C6F 
 1826      61742D61 
 1826      62693D73 
 1827 0355 666F6D69 		.ascii	"fomit-frame-pointer -falign-functions=16 -ffunction"
 1827      742D6672 
 1827      616D652D 
 1827      706F696E 
 1827      74657220 
 1828 0388 2D736563 		.ascii	"-sections -fdata-sections -fno-common -flto\000"
 1828      74696F6E 
 1828      73202D66 
 1828      64617461 
 1828      2D736563 
 1829              	.LASF169:
 1830 03b4 746F704F 		.ascii	"topOfProcStack\000"
 1830      6650726F 
 1830      63537461 
 1830      636B00
 1831              	.LASF95:
 1832 03c3 49434552 		.ascii	"ICER\000"
 1832      00
 1833              	.LASF162:
 1834 03c8 5F5F4E56 		.ascii	"__NVIC_SetPriorityGrouping\000"
 1834      49435F53 
 1834      65745072 
 1834      696F7269 
ARM GAS  /tmp/ccz8Y2A9.s 			page 37


 1834      74794772 
 1835              	.LASF88:
 1836 03e3 5553425F 		.ascii	"USB_HP_IRQn\000"
 1836      48505F49 
 1836      52516E00 
 1837              	.LASF25:
 1838 03ef 53797354 		.ascii	"SysTick_IRQn\000"
 1838      69636B5F 
 1838      4952516E 
 1838      00
 1839              	.LASF53:
 1840 03fc 54494D31 		.ascii	"TIM1_CC_IRQn\000"
 1840      5F43435F 
 1840      4952516E 
 1840      00
 1841              	.LASF86:
 1842 0409 434F4D50 		.ascii	"COMP4_5_6_IRQn\000"
 1842      345F355F 
 1842      365F4952 
 1842      516E00
 1843              	.LASF81:
 1844 0418 444D4132 		.ascii	"DMA2_Channel3_IRQn\000"
 1844      5F436861 
 1844      6E6E656C 
 1844      335F4952 
 1844      516E00
 1845              	.LASF122:
 1846 042b 43594343 		.ascii	"CYCCNT\000"
 1846      4E5400
 1847              	.LASF159:
 1848 0432 4952516E 		.ascii	"IRQn\000"
 1848      00
 1849              	.LASF38:
 1850 0437 444D4131 		.ascii	"DMA1_Channel2_IRQn\000"
 1850      5F436861 
 1850      6E6E656C 
 1850      325F4952 
 1850      516E00
 1851              	.LASF69:
 1852 044a 54494D38 		.ascii	"TIM8_BRK_IRQn\000"
 1852      5F42524B 
 1852      5F495251 
 1852      6E00
 1853              	.LASF72:
 1854 0458 54494D38 		.ascii	"TIM8_CC_IRQn\000"
 1854      5F43435F 
 1854      4952516E 
 1854      00
 1855              	.LASF22:
 1856 0465 53564361 		.ascii	"SVCall_IRQn\000"
 1856      6C6C5F49 
 1856      52516E00 
 1857              	.LASF80:
 1858 0471 444D4132 		.ascii	"DMA2_Channel2_IRQn\000"
 1858      5F436861 
 1858      6E6E656C 
 1858      325F4952 
ARM GAS  /tmp/ccz8Y2A9.s 			page 38


 1858      516E00
 1859              	.LASF111:
 1860 0484 43465352 		.ascii	"CFSR\000"
 1860      00
 1861              	.LASF101:
 1862 0489 49414252 		.ascii	"IABR\000"
 1862      00
 1863              	.LASF23:
 1864 048e 44656275 		.ascii	"DebugMonitor_IRQn\000"
 1864      674D6F6E 
 1864      69746F72 
 1864      5F495251 
 1864      6E00
 1865              	.LASF62:
 1866 04a0 53504932 		.ascii	"SPI2_IRQn\000"
 1866      5F495251 
 1866      6E00
 1867              	.LASF76:
 1868 04aa 55415254 		.ascii	"UART5_IRQn\000"
 1868      355F4952 
 1868      516E00
 1869              	.LASF129:
 1870 04b5 434F4D50 		.ascii	"COMP0\000"
 1870      3000
 1871              	.LASF132:
 1872 04bb 434F4D50 		.ascii	"COMP1\000"
 1872      3100
 1873              	.LASF136:
 1874 04c1 434F4D50 		.ascii	"COMP2\000"
 1874      3200
 1875              	.LASF139:
 1876 04c7 434F4D50 		.ascii	"COMP3\000"
 1876      3300
 1877              	.LASF6:
 1878 04cd 73686F72 		.ascii	"short unsigned int\000"
 1878      7420756E 
 1878      7369676E 
 1878      65642069 
 1878      6E7400
 1879              	.LASF171:
 1880 04e0 5F5F656E 		.ascii	"__enable_irq\000"
 1880      61626C65 
 1880      5F697271 
 1880      00
 1881              	.LASF47:
 1882 04ed 43414E5F 		.ascii	"CAN_RX1_IRQn\000"
 1882      5258315F 
 1882      4952516E 
 1882      00
 1883              	.LASF106:
 1884 04fa 43505549 		.ascii	"CPUID\000"
 1884      4400
 1885              	.LASF37:
 1886 0500 444D4131 		.ascii	"DMA1_Channel1_IRQn\000"
 1886      5F436861 
 1886      6E6E656C 
 1886      315F4952 
ARM GAS  /tmp/ccz8Y2A9.s 			page 39


 1886      516E00
 1887              	.LASF45:
 1888 0513 5553425F 		.ascii	"USB_HP_CAN_TX_IRQn\000"
 1888      48505F43 
 1888      414E5F54 
 1888      585F4952 
 1888      516E00
 1889              	.LASF94:
 1890 0526 52455345 		.ascii	"RESERVED0\000"
 1890      52564544 
 1890      3000
 1891              	.LASF135:
 1892 0530 52455345 		.ascii	"RESERVED1\000"
 1892      52564544 
 1892      3100
 1893              	.LASF98:
 1894 053a 52455345 		.ascii	"RESERVED2\000"
 1894      52564544 
 1894      3200
 1895              	.LASF100:
 1896 0544 52455345 		.ascii	"RESERVED3\000"
 1896      52564544 
 1896      3300
 1897              	.LASF102:
 1898 054e 52455345 		.ascii	"RESERVED4\000"
 1898      52564544 
 1898      3400
 1899              	.LASF103:
 1900 0558 52455345 		.ascii	"RESERVED5\000"
 1900      52564544 
 1900      3500
 1901              	.LASF128:
 1902 0562 50435352 		.ascii	"PCSR\000"
 1902      00
 1903              	.LASF173:
 1904 0567 2E2F4368 		.ascii	"./ChibiOS_20.3.0/os/common/ports/ARMCMx/chcore_v7m."
 1904      6962694F 
 1904      535F3230 
 1904      2E332E30 
 1904      2F6F732F 
 1905 059a 6300     		.ascii	"c\000"
 1906              	.LASF146:
 1907 059c 44454D43 		.ascii	"DEMCR\000"
 1907      5200
 1908              	.LASF150:
 1909 05a2 5F426F6F 		.ascii	"_Bool\000"
 1909      6C00
 1910              	.LASF15:
 1911 05a8 696E7433 		.ascii	"int32_t\000"
 1911      325F7400 
 1912              	.LASF4:
 1913 05b0 756E7369 		.ascii	"unsigned char\000"
 1913      676E6564 
 1913      20636861 
 1913      7200
 1914              	.LASF110:
 1915 05be 53484353 		.ascii	"SHCSR\000"
ARM GAS  /tmp/ccz8Y2A9.s 			page 40


 1915      5200
 1916              	.LASF131:
 1917 05c4 46554E43 		.ascii	"FUNCTION0\000"
 1917      54494F4E 
 1917      3000
 1918              	.LASF134:
 1919 05ce 46554E43 		.ascii	"FUNCTION1\000"
 1919      54494F4E 
 1919      3100
 1920              	.LASF138:
 1921 05d8 46554E43 		.ascii	"FUNCTION2\000"
 1921      54494F4E 
 1921      3200
 1922              	.LASF141:
 1923 05e2 46554E43 		.ascii	"FUNCTION3\000"
 1923      54494F4E 
 1923      3300
 1924              	.LASF5:
 1925 05ec 73686F72 		.ascii	"short int\000"
 1925      7420696E 
 1925      7400
 1926              	.LASF93:
 1927 05f6 49534552 		.ascii	"ISER\000"
 1927      00
 1928              	.LASF105:
 1929 05fb 4E564943 		.ascii	"NVIC_Type\000"
 1929      5F547970 
 1929      6500
 1930              	.LASF174:
 1931 0605 2F686F6D 		.ascii	"/home/iamprithvishetty/CDSpace/mmc3416_test2\000"
 1931      652F6961 
 1931      6D707269 
 1931      74687669 
 1931      73686574 
 1932              	.LASF149:
 1933 0632 78707372 		.ascii	"xpsr\000"
 1933      00
 1934              	.LASF36:
 1935 0637 45585449 		.ascii	"EXTI4_IRQn\000"
 1935      345F4952 
 1935      516E00
 1936              	.LASF152:
 1937 0642 735F7073 		.ascii	"s_psp\000"
 1937      7000
 1938              	.LASF39:
 1939 0648 444D4131 		.ascii	"DMA1_Channel3_IRQn\000"
 1939      5F436861 
 1939      6E6E656C 
 1939      335F4952 
 1939      516E00
 1940              	.LASF85:
 1941 065b 434F4D50 		.ascii	"COMP1_2_3_IRQn\000"
 1941      315F325F 
 1941      335F4952 
 1941      516E00
 1942              	.LASF46:
 1943 066a 5553425F 		.ascii	"USB_LP_CAN_RX0_IRQn\000"
ARM GAS  /tmp/ccz8Y2A9.s 			page 41


 1943      4C505F43 
 1943      414E5F52 
 1943      58305F49 
 1943      52516E00 
 1944              	.LASF87:
 1945 067e 434F4D50 		.ascii	"COMP7_IRQn\000"
 1945      375F4952 
 1945      516E00
 1946              	.LASF154:
 1947 0689 5356435F 		.ascii	"SVC_Handler\000"
 1947      48616E64 
 1947      6C657200 
 1948              	.LASF30:
 1949 0695 464C4153 		.ascii	"FLASH_IRQn\000"
 1949      485F4952 
 1949      516E00
 1950              	.LASF51:
 1951 06a0 54494D31 		.ascii	"TIM1_UP_TIM16_IRQn\000"
 1951      5F55505F 
 1951      54494D31 
 1951      365F4952 
 1951      516E00
 1952              	.LASF165:
 1953 06b3 5072696F 		.ascii	"PriorityGroupTmp\000"
 1953      72697479 
 1953      47726F75 
 1953      70546D70 
 1953      00
 1954              	.LASF92:
 1955 06c4 4952516E 		.ascii	"IRQn_Type\000"
 1955      5F547970 
 1955      6500
 1956              	.LASF126:
 1957 06ce 4C535543 		.ascii	"LSUCNT\000"
 1957      4E5400
 1958              	.LASF16:
 1959 06d5 75696E74 		.ascii	"uint32_t\000"
 1959      33325F74 
 1959      00
 1960              	.LASF71:
 1961 06de 54494D38 		.ascii	"TIM8_TRG_COM_IRQn\000"
 1961      5F545247 
 1961      5F434F4D 
 1961      5F495251 
 1961      6E00
 1962              	.LASF64:
 1963 06f0 55534152 		.ascii	"USART2_IRQn\000"
 1963      54325F49 
 1963      52516E00 
 1964              	.LASF21:
 1965 06fc 55736167 		.ascii	"UsageFault_IRQn\000"
 1965      65466175 
 1965      6C745F49 
 1965      52516E00 
 1966              	.LASF90:
 1967 070c 55534257 		.ascii	"USBWakeUp_RMP_IRQn\000"
 1967      616B6555 
ARM GAS  /tmp/ccz8Y2A9.s 			page 42


 1967      705F524D 
 1967      505F4952 
 1967      516E00
 1968              	.LASF2:
 1969 071f 6C6F6E67 		.ascii	"long double\000"
 1969      20646F75 
 1969      626C6500 
 1970              	.LASF13:
 1971 072b 63686172 		.ascii	"char\000"
 1971      00
 1972              	.LASF82:
 1973 0730 444D4132 		.ascii	"DMA2_Channel4_IRQn\000"
 1973      5F436861 
 1973      6E6E656C 
 1973      345F4952 
 1973      516E00
 1974              	.LASF78:
 1975 0743 54494D37 		.ascii	"TIM7_IRQn\000"
 1975      5F495251 
 1975      6E00
 1976              	.LASF155:
 1977 074d 706F7274 		.ascii	"port_unlock_from_isr\000"
 1977      5F756E6C 
 1977      6F636B5F 
 1977      66726F6D 
 1977      5F697372 
 1978              	.LASF17:
 1979 0762 4E6F6E4D 		.ascii	"NonMaskableInt_IRQn\000"
 1979      61736B61 
 1979      626C6549 
 1979      6E745F49 
 1979      52516E00 
 1980              	.LASF8:
 1981 0776 5F5F696E 		.ascii	"__int32_t\000"
 1981      7433325F 
 1981      7400
 1982              	.LASF166:
 1983 0780 5F5F7365 		.ascii	"__set_BASEPRI\000"
 1983      745F4241 
 1983      53455052 
 1983      4900
 1984              	.LASF42:
 1985 078e 444D4131 		.ascii	"DMA1_Channel6_IRQn\000"
 1985      5F436861 
 1985      6E6E656C 
 1985      365F4952 
 1985      516E00
 1986              	.LASF89:
 1987 07a1 5553425F 		.ascii	"USB_LP_IRQn\000"
 1987      4C505F49 
 1987      52516E00 
 1988              	.LASF28:
 1989 07ad 54414D50 		.ascii	"TAMP_STAMP_IRQn\000"
 1989      5F535441 
 1989      4D505F49 
 1989      52516E00 
 1990              	.LASF142:
ARM GAS  /tmp/ccz8Y2A9.s 			page 43


 1991 07bd 4457545F 		.ascii	"DWT_Type\000"
 1991      54797065 
 1991      00
 1992              	.LASF68:
 1993 07c6 55534257 		.ascii	"USBWakeUp_IRQn\000"
 1993      616B6555 
 1993      705F4952 
 1993      516E00
 1994              	.LASF156:
 1995 07d5 706F7274 		.ascii	"port_lock_from_isr\000"
 1995      5F6C6F63 
 1995      6B5F6672 
 1995      6F6D5F69 
 1995      737200
 1996              	.LASF121:
 1997 07e8 4354524C 		.ascii	"CTRL\000"
 1997      00
 1998              	.LASF177:
 1999 07ed 5F5F6765 		.ascii	"__get_PSP\000"
 1999      745F5053 
 1999      5000
 2000              	.LASF65:
 2001 07f7 55534152 		.ascii	"USART3_IRQn\000"
 2001      54335F49 
 2001      52516E00 
 2002              	.LASF54:
 2003 0803 54494D32 		.ascii	"TIM2_IRQn\000"
 2003      5F495251 
 2003      6E00
 2004              	.LASF70:
 2005 080d 54494D38 		.ascii	"TIM8_UP_IRQn\000"
 2005      5F55505F 
 2005      4952516E 
 2005      00
 2006              	.LASF32:
 2007 081a 45585449 		.ascii	"EXTI0_IRQn\000"
 2007      305F4952 
 2007      516E00
 2008              	.LASF63:
 2009 0825 55534152 		.ascii	"USART1_IRQn\000"
 2009      54315F49 
 2009      52516E00 
 2010              	.LASF35:
 2011 0831 45585449 		.ascii	"EXTI3_IRQn\000"
 2011      335F4952 
 2011      516E00
 2012              	.LASF153:
 2013 083c 5F706F72 		.ascii	"_port_irq_epilogue\000"
 2013      745F6972 
 2013      715F6570 
 2013      696C6F67 
 2013      756500
 2014              	.LASF14:
 2015 084f 75696E74 		.ascii	"uint8_t\000"
 2015      385F7400 
 2016              	.LASF96:
 2017 0857 52534552 		.ascii	"RSERVED1\000"
ARM GAS  /tmp/ccz8Y2A9.s 			page 44


 2017      56454431 
 2017      00
 2018              	.LASF104:
 2019 0860 53544952 		.ascii	"STIR\000"
 2019      00
 2020              	.LASF127:
 2021 0865 464F4C44 		.ascii	"FOLDCNT\000"
 2021      434E5400 
 2022              	.LASF33:
 2023 086d 45585449 		.ascii	"EXTI1_IRQn\000"
 2023      315F4952 
 2023      516E00
 2024              	.LASF43:
 2025 0878 444D4131 		.ascii	"DMA1_Channel7_IRQn\000"
 2025      5F436861 
 2025      6E6E656C 
 2025      375F4952 
 2025      516E00
 2026              	.LASF91:
 2027 088b 4650555F 		.ascii	"FPU_IRQn\000"
 2027      4952516E 
 2027      00
 2028              	.LASF34:
 2029 0894 45585449 		.ascii	"EXTI2_TSC_IRQn\000"
 2029      325F5453 
 2029      435F4952 
 2029      516E00
 2030              	.LASF58:
 2031 08a3 49324331 		.ascii	"I2C1_ER_IRQn\000"
 2031      5F45525F 
 2031      4952516E 
 2031      00
 2032              	.LASF74:
 2033 08b0 53504933 		.ascii	"SPI3_IRQn\000"
 2033      5F495251 
 2033      6E00
 2034              	.LASF119:
 2035 08ba 43504143 		.ascii	"CPACR\000"
 2035      5200
 2036              	.LASF112:
 2037 08c0 48465352 		.ascii	"HFSR\000"
 2037      00
 2038              	.LASF170:
 2039 08c5 72657375 		.ascii	"result\000"
 2039      6C7400
 2040              	.LASF31:
 2041 08cc 5243435F 		.ascii	"RCC_IRQn\000"
 2041      4952516E 
 2041      00
 2042              	.LASF55:
 2043 08d5 54494D33 		.ascii	"TIM3_IRQn\000"
 2043      5F495251 
 2043      6E00
 2044              	.LASF50:
 2045 08df 54494D31 		.ascii	"TIM1_BRK_TIM15_IRQn\000"
 2045      5F42524B 
 2045      5F54494D 
ARM GAS  /tmp/ccz8Y2A9.s 			page 45


 2045      31355F49 
 2045      52516E00 
 2046              		.text
 2047              		.section	.gnu.lto_.profile.77b3254072e8f9f4,"e",%progbits
 2048 0000 789C6362 		.ascii	"x\234cb\000\001\000\000\022\000\003"
 2048      00010000 
 2048      120003
 2049              		.text
 2050              		.section	.gnu.lto_.icf.77b3254072e8f9f4,"e",%progbits
 2051 0000 789C9364 		.ascii	"x\234\223d@\000\026\206\335s\3777\2630\267.\233Q\301"
 2051      40001686 
 2051      DD73FF37 
 2051      B330B72E 
 2051      9B51C1
 2052 0013 72BEF173 		.ascii	"r\276\361s'\023\353\312c\177\346\3603\000\000\220r\013"
 2052      2713EBCA 
 2052      637FE6F0 
 2052      33000090 
 2052      720B
 2053 0025 27       		.ascii	"'"
 2054              		.text
 2055              		.section	.gnu.lto_.ipa_sra.77b3254072e8f9f4,"e",%progbits
 2056 0000 789C1362 		.ascii	"x\234\023b@\000\026\006\006F\006\006f\006F\026\006F"
 2056      40001606 
 2056      06460606 
 2056      66064616 
 2056      0646
 2057 0012 56209391 		.ascii	"V \223\221\001\000\003\016\000("
 2057      0100030E 
 2057      0028
 2058              		.text
 2059              		.section	.gnu.lto_.inline.77b3254072e8f9f4,"e",%progbits
 2060 0000 789C9BC6 		.ascii	"x\234\233\306\200\000,\014\014\274\015\015\015\007\230"
 2060      80002C0C 
 2060      0CBC0D0D 
 2060      0D0798
 2061 000f D2191998 		.ascii	"\322\031\031\230\004@,\346T\006\0066 \243\201)\205\211"
 2061      04402CE6 
 2061      54060636 
 2061      20A38129 
 2061      8589
 2062 0021 8109A884 		.ascii	"\201\011\250\204\211\033\244\220\231\201\035$\310\234"
 2062      891BA490 
 2062      99811D24 
 2062      C89C
 2063 002f 0A54C701 		.ascii	"\012T\307\001\226FW\307\302 \010\346\202L\222\001\233"
 2063      964657C7 
 2063      C22008E6 
 2063      824C9201 
 2063      9B
 2064 0040 9486A682 		.ascii	"\224\206\246\202\225\201\253i\361\322]Li@\025<s~\264"
 2064      9581AB69 
 2064      F1D25D4C 
 2064      6940153C 
 2064      737EB4
 2065 0053 7EC63083 		.ascii	"~\3060\203\221\013\354*\000\001  \213"
 2065      910BEC2A 
ARM GAS  /tmp/ccz8Y2A9.s 			page 46


 2065      00012020 
 2065      8B
 2066              		.text
 2067              		.section	.gnu.lto_.jmpfuncs.77b3254072e8f9f4,"e",%progbits
 2068 0000 789C1360 		.ascii	"x\234\023`@\000\026\020\301\014\246YAL\000\002v\000"
 2068      40001610 
 2068      C10CA659 
 2068      414C0002 
 2068      7600
 2069 0012 21       		.ascii	"!"
 2070              		.text
 2071              		.section	.gnu.lto_.pureconst.77b3254072e8f9f4,"e",%progbits
 2072 0000 789CE365 		.ascii	"x\234\343e```a\330\305\312\274\213\225e\027+\353.V\000"
 2072      60606061 
 2072      D8C5CABC 
 2072      8B956517 
 2072      2BEB2E56 
 2073 0015 14B6031A 		.ascii	"\024\266\003\032"
 2074              		.text
 2075              		.section	.gnu.lto_.lto.77b3254072e8f9f4,"e",%progbits
 2076 0000 09000200 		.ascii	"\011\000\002\000\001\000\000\000"
 2076      01000000 
 2077              		.text
 2078              		.section	.gnu.lto_SVC_Handler.313.77b3254072e8f9f4,"e",%progbits
 2079 0000 789C9D94 		.ascii	"x\234\235\224MlTU\024\307\317\271w:C\023,\020\023\026"
 2079      4D6C5455 
 2079      14C7CFB9 
 2079      773A4313 
 2079      2C101316 
 2080 0014 AE060C31 		.ascii	"\256\006\0141\2322\257RA]\220\210\303\206\305\004\354"
 2080      9A32AF52 
 2080      415D9088 
 2080      C386C504 
 2080      EC
 2081 0025 B86F86E7 		.ascii	"\270o\206\347\303\231\302\343M\336{\020X\361\332Q\232"
 2081      C399C2E3 
 2081      4DDE7B10 
 2081      58F1DA51 
 2081      9A
 2082 0036 34861634 		.ascii	"4\206\0264\261\301\326FR\023\\\030\335PZ>\007F\351\027"
 2082      B1C1D646 
 2082      52135C18 
 2082      DD505A3E 
 2082      0746E917 
 2083 004a A5A6F503 		.ascii	"\245\246\365\003h\260\0217hc)\224\220\232b\344\234{"
 2083      68B01137 
 2083      68632994 
 2083      909A62E4 
 2083      9C7B
 2084 005c E78DB330 		.ascii	"\347\215\2630.\234dr\3579\367\234\377\375\235s\317\314"
 2084      2E9C6472 
 2084      EF39F79C 
 2084      FFFD9D73 
 2084      CFCC
 2085 006e D608C05B 		.ascii	"\326\010\300[\010\360<\000\240\004<q\274C@\020\004o"
 2085      08F03C00 
 2085      A0043C71 
ARM GAS  /tmp/ccz8Y2A9.s 			page 47


 2085      BC434010 
 2085      046F
 2086 0080 C404B61E 		.ascii	"\304\004\266\036\357\250\305!T\026\302\021\201G\360"
 2086      EFA8C521 
 2086      5416C211 
 2086      8147F0
 2087 008f 43F92299 		.ascii	"C\371\"\231K\357\237\\.ap\272\210\375\022\340S\372\226"
 2087      4BEF9F5C 
 2087      2E6170BA 
 2087      88FD12E0 
 2087      53FA96
 2088 00a2 3F3D124F 		.ascii	"?=\022O\310~\211\030)\357\004\306i'\367\360\311\206"
 2088      C87E8918 
 2088      29EF04C6 
 2088      6927F7F0 
 2088      C986
 2089 00b4 62102CFC 		.ascii	"b\020,\374Uh\257\353j]\321/%\236E\312\304\001\3043\310"
 2089      5568AFEB 
 2089      6A5DD12F 
 2089      259E45CA 
 2089      C401C433 
 2090 00c9 B92DEDAB 		.ascii	"\271-\355\253\243\200\203\250\365$\247\265b\2307\370"
 2090      A38083A8 
 2090      F524A7B5 
 2090      629837F8 
 2091 00d9 75C79FED 		.ascii	"u\307\237\355\261`$\210p\3469\312\304r&\236\247\354"
 2091      B1602488 
 2091      70E639CA 
 2091      C472269E 
 2091      A7EC
 2092 00eb 96993514 		.ascii	"\226\2315\024\030U\006\037]P\211QB\275p\357Q\347K@U"
 2092      1855061F 
 2092      5D508951 
 2092      42BD70EF 
 2092      51E74B40 
 2093 0100 903B145B 		.ascii	"\220;\024[Rb=A\361\275x\250\006\325j@B\227h\177\261"
 2093      52623D41 
 2093      F1BD78A8 
 2093      06D56A40 
 2093      4297687F 
 2094 0115 22C4450A 		.ascii	"\"\304E\012,*C\216\253\345\005\256\346\313\321\217\353"
 2094      2C2A438E 
 2094      ABE505AE 
 2094      E6CBD18F 
 2094      EB
 2095 0126 BA9045AE 		.ascii	"\272\220E\256 G\224E\256\262\253\345\342\232\360\276"
 2095      20479445 
 2095      AEB2ABE5 
 2095      E29AF0BE 
 2096 0136 EF6EF57D 		.ascii	"\357n\365}P\201\277R}\335U\324]c\324\245\3414\226P\263"
 2096      5081BF52 
 2096      7DDD55D4 
 2096      5D63D4A5 
 2096      E1349650 
 2097 014b 0A6200FC 		.ascii	"\012b\000\374\006\313w*\000\211\327*e\335\234\220:0"
 2097      06CB772A 
 2097      0089D72A 
ARM GAS  /tmp/ccz8Y2A9.s 			page 48


 2097      65DD9C90 
 2097      3A30
 2098 015d 5229F4DC 		.ascii	"R)\364\334\360\367\237\020\37009k\024g\227\0109\251"
 2098      F0F79F10 
 2098      F830396B 
 2098      14679708 
 2098      39A9
 2099 016f E099C9E7 		.ascii	"\340\231\311\347\250`\0050\212\254U\006\030S\250\247"
 2099      A8600530 
 2099      8AAC5506 
 2099      1853A8A7 
 2100 017f 2AA88F8E 		.ascii	"*\250\217\216\375q\246\276T\010aG\253a\307\252`\007"
 2100      FD71A6BE 
 2100      54086147 
 2100      AB61C7AA 
 2100      6007
 2101 0191 9F9C8C22 		.ascii	"\237\234\214\"u\002GXM\321^G\006\244\030A\257H\015\374"
 2101      75024758 
 2101      4DD15E47 
 2101      06A41841 
 2101      AF480DFC 
 2102 01a5 6AAAA618 		.ascii	"j\252\246\030<\371\2733(\266?\263\\8v\177H\324\010~"
 2102      3CF9BB33 
 2102      28B63FB3 
 2102      5C38767F 
 2102      48D4087E 
 2103 01b9 60A9BA0B 		.ascii	"`\251\272\013\235\222\347,\210`P\004\350\222B\033\005"
 2103      9D92E72C 
 2103      88605004 
 2103      E892421B 
 2103      05
 2104 01ca 327EC7E0 		.ascii	"2~\307\340\356\3620\362\272\370\313G?O\366!=\205\362"
 2104      EEF230F2 
 2104      BAF8CB47 
 2104      3F4FF621 
 2104      3D85F2
 2105 01dd 2E4ED6E2 		.ascii	".N\326\342e\275}\274\012\356c\353z\276\257[\020\324"
 2105      65BD7DBC 
 2105      0AEE63EB 
 2105      7ABEAF5B 
 2105      10D4
 2106 01ef BACFC551 		.ascii	"\272\317\305Q\032+\036\274\010\317\362\015\004Zq\022"
 2106      1A2B1EBC 
 2106      08CFF20D 
 2106      045A7112 
 2107 01ff 4F111E65 		.ascii	"O\021\036e\264\305\351V\336s\362\322*\366,|6}\3714O"
 2107      B4C5E956 
 2107      DE73F2D2 
 2107      2AF62C7C 
 2107      367DF934 
 2108 0214 B8E25121 		.ascii	"\270\342Q!\203\225\220;\343\002\346\261\320st\202\\"
 2108      8395903B 
 2108      E302E6B1 
 2108      D0737482 
 2108      5C
 2109 0225 82BC3CCE 		.ascii	"\202\274<\3165\030\377'N\250\270\276\033B\273J\241\213"
 2109      3518FF27 
ARM GAS  /tmp/ccz8Y2A9.s 			page 49


 2109      4EA8B8BE 
 2109      1B42BB4A 
 2109      A18B
 2110 0237 986F4FF5 		.ascii	"\230oO\365\"\275\236\012\230\235\252\305oQ\301r\377"
 2110      22BD9E0A 
 2110      989DAAC5 
 2110      6F51C172 
 2110      FF
 2111 0248 BE50B003 		.ascii	"\276P\260\003\0126\032\302Ni\330i%\241\321\026\037\274"
 2111      0A361AC2 
 2111      4E69D869 
 2111      25A1D116 
 2111      1FBC
 2112 025a CD6425D4 		.ascii	"\315d%\324\375\030\250S\322\277\365^\232\277\371,\352"
 2112      FD18A853 
 2112      D2BFF55E 
 2112      9ABFF92C 
 2112      EA
 2113 026b E6DC9D9E 		.ascii	"\346\334\235\236\357\326\307\277\316\314\221wD{\037"
 2113      EFD6C7BF 
 2113      CECC9177 
 2113      447B1F
 2114 027a CC7587E5 		.ascii	"\314u\207\345\214\253\037\241\324A\30450K\\\327u\330"
 2114      8CAB1FA1 
 2114      D441C435 
 2114      304B5CD7 
 2114      75D8
 2115 028c F9D95A9C 		.ascii	"\371\331Z\234`\256\266\365\374jC\377\306\365\243\346"
 2115      60AEB6F5 
 2115      FC6A43FF 
 2115      C6F5A3E6 
 2116 029c FA09F107 		.ascii	"\372\011\361\0075z\353\306\324yL\035\336\322\267,\334"
 2116      357AEBC6 
 2116      D4794C1D 
 2116      DED2B72C 
 2116      DC
 2117 02ad EB5D985B 		.ascii	"\353]\230[\001<\014\360P5uq;\221\253\377\203N\211\372"
 2117      013C0CF0 
 2117      50357571 
 2117      3B91ABFF 
 2117      834E89FA 
 2118 02c1 59DB8A6C 		.ascii	"Y\333\212ln4\262\216m\031\271\214\235ws~\366`\316\313"
 2118      6E34B28E 
 2118      6D19B98C 
 2118      9D77737E 
 2118      F660CECB 
 2119 02d5 5ABE7FD8 		.ascii	"Z\276\177\330HnO\3473\246e\330\266\331\370\312\313["
 2119      486E4FE7 
 2119      33A665D8 
 2119      B6D9F8CA 
 2119      CB5B
 2120 02e7 9A7DCBF3 		.ascii	"\232}\313\3637\301\346\204\221\314\346v\347v\246\233"
 2120      37C1E684 
 2120      91CCE676 
 2120      E776A69B 
 2121 02f7 3735241A 		.ascii	"75$\032\023\015\206\343\031\246c\333\316~#\357\270\276"
 2121      130D86E3 
ARM GAS  /tmp/ccz8Y2A9.s 			page 50


 2121      19A663DB 
 2121      CE7E23EF 
 2121      B8BE
 2122 0309 676C6B4A 		.ascii	"glkJ%S\207\0143k:\256\325|\360U;a\202\314{\371\265\325"
 2122      2553870C 
 2122      336B3AAE 
 2122      D57CF055 
 2122      3B6182CC 
 2123 0321 9E84F55A 		.ascii	"\236\204\365Z\343\026\323\312\274\016Q\327\362\016\354"
 2123      E316D3CA 
 2123      BC0E51D7 
 2123      F20EEC
 2124 0330 F3DFFC0F 		.ascii	"\363\337\374\017]\353\220\317\252F2\225\336\2216\222"
 2124      5DEB90CF 
 2124      AA463295 
 2124      DE913692 
 2125 0340 2462ECD8 		.ascii	"$b\354\330o\356;\360\216e\230\266\227\363\232\3375\315"
 2125      6FEE3BF0 
 2125      8E6598B6 
 2125      97F39ADF 
 2125      35CD
 2126 0352 4416EA7C 		.ascii	"D\026\352|'\277s\317.\3271\323~\306\334\373\177H\263"
 2126      27BF73CF 
 2126      2ED731D3 
 2126      7EC6DCFB 
 2126      7F48B3
 2127 0365 10DB9DF1 		.ascii	"\020\333\235\361\254]nne\252)\035\337\320P\037'r\220"
 2127      AC5D6E6E 
 2127      65AA291D 
 2127      DFD0501F 
 2127      277290
 2128 0378 5B5D5899 		.ascii	"[]X\231J7\261QO^\020.\254f\233\203\251k\312\027\263"
 2128      4A37B151 
 2128      4F5E102E 
 2128      AC669B83 
 2128      A96BCA17 
 2129 038d 2DDB710F 		.ascii	"-\333q\017\303S\254\333\302~"
 2129      C353ACDB 
 2129      C27E
 2130              		.text
 2131              		.section	.gnu.lto_port_init.314.77b3254072e8f9f4,"e",%progbits
 2132 0000 789C9D56 		.ascii	"x\234\235V]LTG\024\236s\347\002\273(\260\360@\322>-"
 2132      5D4C5447 
 2132      149E73E7 
 2132      02BB28B0 
 2132      F040D23E 
 2133 0015 36A63569 		.ascii	"6\2465i\271[\240\266>4\255\245I\303\003i\013}'\270\275"
 2133      B95BA0B6 
 2133      3E34ADA5 
 2133      49C30369 
 2133      0B7D27B8 
 2134 002a 753771D9 		.ascii	"u7q\331\315\356B$M\352\270\250$\244\011\002\211\322"
 2134      CDEE4224 
 2134      4DEAB8A8 
 2134      24A40902 
 2134      89D2
 2135 003c 462D924D 		.ascii	"F-\222M\243I\323\277D\013\025\313\202Z\020\205\305\245"
ARM GAS  /tmp/ccz8Y2A9.s 			page 51


 2135      A349D3BF 
 2135      440B15CB 
 2135      825A1085 
 2135      C5A5
 2136 004e 562BAD1A 		.ascii	"V+\255\032I\013\265AW(V\020\245gf\356\205\213\005\036"
 2136      490BB541 
 2136      57285610 
 2136      A56766EE 
 2136      858B051E 
 2137 0062 4AC2DC39 		.ascii	"J\302\33493\347|\347\373\316\234\231\3546\033!:\020"
 2137      33E77CE7 
 2137      FBCE9C99 
 2137      EC361B21 
 2137      3A10
 2138 0074 F20C2104 		.ascii	"\362\014!\004(\201\346\246\006\2050\306^OS`wS\203\035"
 2138      2881E6A6 
 2138      068530C6 
 2138      5E4F5360 
 2138      7753831D 
 2139 0088 4E80B080 		.ascii	"N\200\260\200\354R`\027\264\320Mh>\330\373\351\\\037"
 2139      EC526017 
 2139      B4D04D68 
 2139      3ED8FBE9 
 2139      5C1F
 2140 009a B0633188 		.ascii	"\260c1\210RB\216\340\277\361\227jX)\207(4\323(\005P"
 2140      52428EE0 
 2140      BFF1976A 
 2140      58298728 
 2140      34D32805 
 2141 00af 8D99024E 		.ascii	"\215\231\002N\234\321\017\010\216\033c\010q\275~~\332"
 2141      9CD10F08 
 2141      8E1B6308 
 2141      71BD7E7E 
 2141      DA
 2142 00c0 D553C7FA 		.ascii	"\325S\307\372\231\032\245\024:\340\010z\177\007p\022"
 2142      991AA514 
 2142      3AE0087A 
 2142      7F077012 
 2143 00d0 087422A1 		.ascii	"\010t\"\241N\250\317\346\021\303`\206|\375p:`x\177o"
 2143      4EA8CFE6 
 2143      11C36086 
 2143      7CFD703A 
 2143      60787F6F 
 2144 00e4 F53E25BC 		.ascii	"\365>%\274\347\034\350\226\312-\036\316\267\273D$\275"
 2144      E71CE896 
 2144      CA2D1ECE 
 2144      B7BB4424 
 2144      BD
 2145 00f5 263ECF22 		.ascii	"&>\317\"@rvzb\014X\016G8mE\370\001u\320N\230t\230\344"
 2145      4072767A 
 2145      620C580E 
 2145      47386D45 
 2145      F80175D0 
 2146 010e 862F757F 		.ascii	"\206/u\177\234fR\343\256d\311\025\345\361L\274\014g"
 2146      9C6652E3 
 2146      AE64C915 
 2146      E5F14CBC 
ARM GAS  /tmp/ccz8Y2A9.s 			page 52


 2146      0C67
 2147 0120 8BA01BD7 		.ascii	"\213\240\033\327Np\254\265\204\021\253\260U\344\020"
 2147      4E70ACB5 
 2147      8411ABB0 
 2147      55E410
 2148 012f AB1C2C24 		.ascii	"\253\034,$\364\002\364\240\0313\205\210\332*pV\252\232"
 2148      F402F4A0 
 2148      19338588 
 2148      DA2A7056 
 2148      AA9A
 2149 0141 90AA9045 		.ascii	"\220\252\220E\262c\366\213\021`\251Q\252\3029\340.\205"
 2149      B263F68B 
 2149      1160A951 
 2149      AAC239E0 
 2149      2E85
 2150 0153 E022F023 		.ascii	"\340\"\360#jR;\341\234\320\304\244\246\213\251\254\225"
 2150      6A523BE1 
 2150      9CD0C4A4 
 2150      A68BA9AC 
 2150      95
 2151 0164 67948EC4 		.ascii	"g\224\216\304t\224\234\350\344b\241PC\307\354s\255\035"
 2151      74949CE8 
 2151      E462A150 
 2151      43C7EC73 
 2151      AD1D
 2152 0176 8CD939BD 		.ascii	"\214\3319\275~\201j\320;/k\225X\271V\375V%\347-\265"
 2152      7E816AD0 
 2152      3B2F6B95 
 2152      58B956FD 
 2152      5625E72D 
 2153 018b EA182A82 		.ascii	"\352\030*\202\001\200>\243\\\012o\025\270\000\206\034"
 2153      01803EA3 
 2153      5C0A6F15 
 2153      B800861C 
 2154 019b 4E3039D7 		.ascii	"N09\327\347]\235\035O\265\377\020\213\355q\222\265\363"
 2154      E75D9D1D 
 2154      4FB5FF10 
 2154      8BED7192 
 2154      B5F3
 2155 01ad C48B6008 		.ascii	"\304\213`\010`pY\236\270\231G\324\220\302%Y\303\373"
 2155      6070599E 
 2155      B89947D4 
 2155      90C22559 
 2155      C3FB
 2156 01bf 4B82E71B 		.ascii	"K\202\347\033G\343O#\274\020\221\000\356d\200\217H\275"
 2156      47E34F23 
 2156      BC109100 
 2156      EE64808F 
 2156      48BD
 2157 01d1 EDD92BEA 		.ascii	"\355\331+\352MXy\214X{\343q!\374d\220\240\202\304e0"
 2157      4D58798C 
 2157      587BE371 
 2157      21FC6490 
 2157      A082C465 
 2158 01e6 F20A122A 		.ascii	"\362\012\022*\\\001\323\267u\201JGU8^\005\276\207X\200"
 2158      5C01D3B7 
 2158      75814A47 
ARM GAS  /tmp/ccz8Y2A9.s 			page 53


 2158      55385E05 
 2158      BE875880 
 2159 01fa 3DF05522 		.ascii	"=\360U\"%\306\346\027\032\031\273\362\332\227\363\337"
 2159      25C6E617 
 2159      1A19BBF2 
 2159      DA97F3DF 
 2160 020a A63B00F5 		.ascii	"\246;\000\365\247(|\240|P\371`\343\335b\347C:\037\010"
 2160      A7287CA0 
 2160      7C50F960 
 2160      E3DD62E7 
 2160      433A1F08 
 2161 021e 69A4FC0E 		.ascii	"i\244\374\0163\025X\214\220\375T\221F\035\032\267\201"
 2161      3315588C 
 2161      90FD5491 
 2161      461D1AB7 
 2161      81
 2162 022f DD7A1807 		.ascii	"\335z\030\007\374F\234H\220_M\354]\276<=\373\331\311"
 2162      FC469C48 
 2162      905F4DEC 
 2162      5DBE3C3D 
 2162      FBD9C9
 2163 0242 1B870179 		.ascii	"\033\207\001y\012\247S7\354\3603\220\273\020\331\300"
 2163      0AA75337 
 2163      ECF03390 
 2163      BB10D9C0 
 2164 0252 C9F42848 		.ascii	"\311\364(H6/\241\354\263Ei*NU\376^\214\002\301/\374"
 2164      362FA1EC 
 2164      B345692A 
 2164      4E55FE5E 
 2164      8C02C12F 
 2165 0267 0A202F59 		.ascii	"\012 /Y\336e\261\237&6\257\013\330H\262mdAEu\274\032"
 2165      DE65B19F 
 2165      2636AF0B 
 2165      D848B26D 
 2165      64414575 
 2166 027d 02783ECB 		.ascii	"\002x>\313\310\326<\200\331\256\312l\007\007\354\360"
 2166      C8D63C80 
 2166      D9AECA6C 
 2166      0707ECF0 
 2167 028d 0BCFB67B 		.ascii	"\013\317\266{\003\206\222\337\224'\321n\312\350\251"
 2167      038692DF 
 2167      9427D16E 
 2167      CAE8A9
 2168 029c B696A614 		.ascii	"\266\226\246\024D\223\374\273\015\376T \236n\234\032"
 2168      4493FCBB 
 2168      0DFE5420 
 2168      9E6E9C1A 
 2169 02ac BF978317 		.ascii	"\277\227\203\027F \3763\376\011\300\0319\1770.\002\332"
 2169      4620FE33 
 2169      FE09C019 
 2169      397F302E 
 2169      02DA
 2170 02be B6E08D32 		.ascii	"\266\340\2152\336\243\024H\323\261(6\036~\013`l\321"
 2170      DEA31448 
 2170      D3B12836 
 2170      1E7E0B60 
 2170      6CD1
ARM GAS  /tmp/ccz8Y2A9.s 			page 54


 2171 02d0 F7D1F853 		.ascii	"\367\321\370S\344\016\364v\035\317j\2476\303\331&\324"
 2171      E40EF476 
 2171      1DCF6AA7 
 2171      36C3D926 
 2171      D4
 2172 02e1 C919BB56 		.ascii	"\311\031\273V\3072\321\372\234\037\204\035\376\000\370"
 2172      C732D1FA 
 2172      9C1F841D 
 2172      FE00F8
 2173 02f0 1D88EB28 		.ascii	"\035\210\353(c\307r\2434\035\306\3410>\200\222D\244"
 2173      63C772A3 
 2173      341DC6E1 
 2173      303E8092 
 2173      44A4
 2174 0302 ED553C0D 		.ascii	"\355U<\015\204\021\300\013\002\270\356@\375$.\331qU"
 2174      8411C00B 
 2174      02B8EE40 
 2174      FD242ED9 
 2174      7155
 2175 0314 D258B847 		.ascii	"\322X\270G\245\030\356i\027\236M\267\205gs\375\014."
 2175      A518EE69 
 2175      179E4DB7 
 2175      856773FD 
 2175      0C2E
 2176 0326 A5E3AA54 		.ascii	"\245\343\252T\311\366MhK\256\351\262n\302\265\367\300"
 2176      C9F64D68 
 2176      4BAEE9B2 
 2176      6EC2B5F7 
 2176      C0
 2177 0337 F1AC1529 		.ascii	"\361\254\025)QN\351/\223\222\014\212$\217\2664\225\362"
 2177      514EE92F 
 2177      93920C8A 
 2177      248FB634 
 2177      95F2
 2178 0349 13E99627 		.ascii	"\023\351\226'\344\024-\303\321Zs\244\364\334vj\326i"
 2178      E4142DC3 
 2178      D15A73A4 
 2178      F4DC766A 
 2178      D669
 2179 035b DDA2F475 		.ascii	"\335\242\364u\220\0345\245\313\312\255\207;\000\370"
 2179      901C35A5 
 2179      CBCAAD87 
 2179      3B00F8
 2180 036a 6AB8F278 		.ascii	"j\270\362x\232\273\230\206_\000\301\034s)\355f\245\271"
 2180      9ABB9886 
 2180      5F00C11C 
 2180      7329ED66 
 2180      A5B9
 2181 037c 37074E36 		.ascii	"7\007N6\300\252\321S2\032\303\004\223o\022 \250\374"
 2181      C0AAD153 
 2181      321AC304 
 2181      936F1220 
 2181      A8FC
 2182 038e 99D94EA9 		.ascii	"\231\331N\251A c\221J\006\2606\266\214J&\314\000\374"
 2182      41206391 
 2182      4A06B036 
 2182      B68C4A26 
ARM GAS  /tmp/ccz8Y2A9.s 			page 55


 2182      CC00FC
 2183 03a1 6D82DD47 		.ascii	"m\202\335G0\305BEE\020I\005\376\313cy\350\254\014\305"
 2183      30C54245 
 2183      45104905 
 2183      FECB6379 
 2183      E8AC0CC5 
 2184 03b5 18C1A333 		.ascii	"\030\301\2433a\264Z\237H\254\302\207\322\0340:\017\214"
 2184      61B45A9F 
 2184      48ACC287 
 2184      D21C303A 
 2184      0F8C
 2185 03c7 CE4B4E61 		.ascii	"\316KNa\347]\220\03543\205\235wQ\316\233\2467\311\214"
 2185      E75D901D 
 2185      3433859D 
 2185      7751CE9B 
 2185      A637C98C 
 2186 03db 33294F1E 		.ascii	"3)O\036\020\332\342\214\326Gi\026<\302\264\224?\210"
 2186      10DAE28C 
 2186      D6476916 
 2186      3CC2B494 
 2186      3F88
 2187 03ed 05B83491 		.ascii	"\005\2704\221\031\245\016x\314\273R<\222<U68\344\331"
 2187      19A50E78 
 2187      CCBB523C 
 2187      923C5536 
 2187      38E4D9
 2188 0400 9D691167 		.ascii	"\235i\021g\327g\236\335\200qv]9\322\0364\210~$\315!"
 2188      D7679EDD 
 2188      8071765D 
 2188      39D21E34 
 2188      887E24CD 
 2189 0415 83A86225 		.ascii	"\203\250b%\032\267\020\035^\211\250,V\372\232\224\367"
 2189      1AB7101D 
 2189      5E89A82C 
 2189      56FA9A94 
 2189      F7
 2190 0426 288272DC 		.ascii	"(\202r\334By\257\002u\212xo%e\247\244<&)\017\232\224"
 2190      4279AF02 
 2190      758A786F 
 2190      2565A7A4 
 2190      3C26290F 
 2191 043c 87703205 		.ascii	"\207p2\005\221\233\007\313\305\217\206F\012\362}\212"
 2191      919B07CB 
 2191      C58F8646 
 2191      0AF27D8A 
 2192 044c C4B8F982 		.ascii	"\304\270\371\202\346\361\373t\315[\351\013\004\275a"
 2192      E6F1FB74 
 2192      CD5BE90B 
 2192      04BD61
 2193 045b 4F8D37E4 		.ascii	"O\2157\344\321\303\341Z\255\370\315\362@\245[\327|>"
 2193      D1C3E15A 
 2193      ADF8CDF2 
 2193      40A55BD7 
 2193      7C3E
 2194 046d 7761D18B 		.ascii	"wa\321\213\233+\302z(\\@^\312\327\212=\336m\336\267"
 2194      9B2BC27A 
 2194      285C405E 
ARM GAS  /tmp/ccz8Y2A9.s 			page 56


 2194      CAD78A3D 
 2194      DE6DDEB7 
 2195 0481 CB2B0A5C 		.ascii	"\313+\012\\\371\205\371.\315\037\322\334~\237\317_\245"
 2195      F985F92E 
 2195      CD1FD2DC 
 2195      7E9FCF5F 
 2195      A5
 2196 0492 05FCC170 		.ascii	"\005\374\301pH\333ZVZ\\\272Ss{\334\376\240^Q\363\262"
 2196      48DB5A56 
 2196      5A5CBA53 
 2196      737BDCFE 
 2196      A05E51F3 
 2197 04a7 2FDF4D1C 		.ascii	"/\337M\034\357\004\275~D\257}+\350\257\016\274\347\013"
 2197      EF04BD7E 
 2197      44AF7D2B 
 2197      E8AF0EBC 
 2197      E70B
 2198 04b9 6C5D0346 		.ascii	"l]\003F\337\031\346 ZqiyI\271V\214(ZI\225{G\365\373"
 2198      DF19E620 
 2198      5A716979 
 2198      49B9568C 
 2198      285A4995 
 2199 04d1 BA2620DD 		.ascii	"\272& \335\276\242|\017\311\265&\310\327_)\334\354\326"
 2199      BEA27C0F 
 2199      C9B526C8 
 2199      D75F29DC 
 2199      ECD6
 2200 04e3 2BB7107B 		.ascii	"+\267\020{P\337^QS\271\243Z\317X\226S-){\267\312\026"
 2200      50DF5E51 
 2200      53B9A35A 
 2200      CF589653 
 2200      2D297BB7 
 2201 04f9 3096D2B6 		.ascii	"0\226\322\266U\206t\334\177\343\177\322\360\205\274"
 2201      558674DC 
 2201      7FE37FD2 
 2201      F085BC
 2202 0508 A18AED6E 		.ascii	"\241\212\355n7\362p\224\226\22799\034b?\357\334\350"
 2202      37F27094 
 2202      96973939 
 2202      1C623FEF 
 2202      DCE8
 2203 051a 224A90A4 		.ascii	"\"J\220\244\371t\237?XKl\356@\310\253;\275\344_\351"
 2203      F9749F3F 
 2203      584B6CEE 
 2203      40C8AB3B 
 2203      BDE45FE9 
 2204 052e 6F1151   		.ascii	"o\021Q"
 2205              		.text
 2206              		.section	.gnu.lto__port_irq_epilogue.315.77b3254072e8f9f4,"e",%progbits
 2207 0000 789C9D52 		.ascii	"x\234\235R]HSa\030~\337\357;\323\331\037F\020d7\253"
 2207      5D485361 
 2207      187EDFEF 
 2207      3BD3D91F 
 2207      46106437 
 2208 0015 90086AC7 		.ascii	"\220\010j\307\262\254\356\252u\343\305(\032t+v:\264"
 2208      B2ACEEAA 
 2208      75E3C528 
ARM GAS  /tmp/ccz8Y2A9.s 			page 57


 2208      1A742B76 
 2208      3AB4
 2209 0027 41A7C9B6 		.ascii	"A\247\311\266B\257<9KHpi\024\242\323JFt\027]h\323L\217"
 2209      42AF3C39 
 2209      4B487069 
 2209      14A2D34A 
 2209      4674175D 
 2210 003f AE2C8B52 		.ascii	"\256,\213R\372\201\250\213\350\207\374K\263\272H*\252"
 2210      FA81A88B 
 2210      E887FC4B 
 2210      B3BA482A 
 2210      AA
 2211 0050 F7FBCEDC 		.ascii	"\367\373\316\334v\325E\203m\357\373\274\177\317\373"
 2211      76D54583 
 2211      6DEFFBBC 
 2211      7FCFFB
 2212 005f BC5F3F07 		.ascii	"\274_?\007X\203\000\207\001\000\363\000[\232\31710M"
 2212      58830087 
 2212      0100F300 
 2212      5B9ACF31 
 2212      304D
 2213 0071 734F3E63 		.ascii	"sO>c\321\346F\206\335\370\241\341\3072\245\276yE|\341"
 2213      D1E64686 
 2213      DDF8A1E1 
 2213      C732A5BE 
 2213      79457CE1 
 2214 0085 4CA9C2F1 		.ascii	"L\251\302\361\242\323\216+x\261\371\341\373\336\361"
 2214      A2D38E2B 
 2214      78B1F9E1 
 2214      FBDEF1
 2215 0094 BE0DD88B 		.ascii	"\276\015\330\213\022q\340\351L5B-\343\212\003k\361\002"
 2215      1271E0E9 
 2215      4C35422D 
 2215      E38A036B 
 2215      F102
 2216 00a6 DF44C8C2 		.ascii	"\337D\310\302\231\266\331Q4\257[\230\240\211\235\364"
 2216      99B6D951 
 2216      34AF5B98 
 2216      A0899DF4 
 2217 00b6 4D7FF2A4 		.ascii	"M\177\362\244Gc\200\3059J\017\261\007a\321ax\313vD\223"
 2217      476380C5 
 2217      394A0FB1 
 2217      0761D161 
 2217      78CB7644 
 2218 00cb 91329149 		.ascii	"\2212\221I`:\214I\314\011\307\237\244\236\257\005b\323"
 2218      603A8C49 
 2218      CC09C79F 
 2218      A49EAF05 
 2218      62D3
 2219 00dd C9B9C05A 		.ascii	"\311\271\300Zx\202z)i\213\241\213,\036\227\351\033-"
 2219      78827A29 
 2219      698BA18B 
 2219      2C1E97E9 
 2219      1B2D
 2220 00ef EAD6DAF8 		.ascii	"\352\326\332\370z\254(nZJ\202s\274\203bp?\342m\004\034"
 2220      7AAC286E 
 2220      5A4A8273 
ARM GAS  /tmp/ccz8Y2A9.s 			page 58


 2220      BC836270 
 2220      3FE26D04 
 2221 0104 20967C02 		.ascii	" \226|\002\273VRj\261H\2157\314voNE\315\007f&\031\262"
 2221      BB56526A 
 2221      B1488D37 
 2221      CC766F4E 
 2221      45CD0766 
 2222 011b C9B4469A 		.ascii	"\311\264F\232B\362W[\036\016\022\330'\332\211\345\320"
 2222      42F2575B 
 2222      1E0E12D8 
 2222      27DA89E5 
 2222      D0
 2223 012c CAAC2328 		.ascii	"\312\254#(N\366o\264WP\262\254\243\367\211\3650a\016"
 2223      4EF66FB4 
 2223      5750B2AC 
 2223      A3F789F5 
 2223      30610E
 2224 013f 48CF9BBF 		.ascii	"H\317\233\277\323\375\351-\232-&\376s\332\302G\232v"
 2224      D3FDE92D 
 2224      9A2D26FE 
 2224      73DAC247 
 2224      9A76
 2225 0151 97C05466 		.ascii	"\227\300Tf\332=9M\344\334x\352\260\314_\177b\246\325"
 2225      DA3D394D 
 2225      E4DC78EA 
 2225      B0CC5F7F 
 2225      62A6D5
 2226 0164 B07C762A 		.ascii	"\260|v*\366}\2229\031$\270\302\305\017@\214\213C\231"
 2226      F67D9239 
 2226      1924B8C2 
 2226      C50F408C 
 2226      8B4399
 2227 0177 0A9A16C0 		.ascii	"\012\232\026\300y\316l'J\3164\232_\257~\353\360\212"
 2227      79CE6C27 
 2227      4ACE349A 
 2227      5FAF7EEB 
 2227      F08A
 2228 0189 9B90FDAD 		.ascii	"\233\220\375\255\267\251u\356\345*\"(\274w\035s\255"
 2228      B7A975EE 
 2228      E52A2228 
 2228      BC771D73 
 2228      AD
 2229 019a 2873DEFF 		.ascii	"(s\336\377\234&4e\243\35536Z\347\">Bm\216.Y|\363R\317"
 2229      9C263465 
 2229      A3ED3336 
 2229      5AE7223E 
 2229      426D8E2E 
 2230 01b3 9B0E245A 		.ascii	"\233\016$Z2\355\366\233\002\034A\370\214u\353\005\311"
 2230      32EDF69B 
 2230      021C41F8 
 2230      8C75EB05 
 2230      C9
 2231 01c4 DF488BAC 		.ascii	"\337H\213\254\213\261\263\316\004w\220\251\210G\370"
 2231      8BB1B3CE 
 2231      047790A9 
 2231      8847F8
 2232 01d3 0081FE71 		.ascii	"\000\201\376q\024\361\276\224m]\213\214\347\311\340"
ARM GAS  /tmp/ccz8Y2A9.s 			page 59


 2232      14F1BE94 
 2232      6D5D8B8C 
 2232      E7C9E0
 2233 01e2 237BCA7C 		.ascii	"#{\312|\262\251m\306\011bwI\367J\364\262C\320\235\303"
 2233      B2A96DC6 
 2233      09627749 
 2233      F74AF4B2 
 2233      43D09DC3 
 2234 01f6 E1FEA9E5 		.ascii	"\341\376\251\345]\234\245o\236\217\220\261\314WQs\005"
 2234      5D9CA56F 
 2234      9E8F90B1 
 2234      CC575173 
 2234      05
 2235 0207 79D7C463 		.ascii	"y\327\304c\245\206N|\202\370\030\241\344\252t\013p\014"
 2235      A5864E7C 
 2235      82F818A1 
 2235      E4AA740B 
 2235      700C
 2236 0219 3BE4B39C 		.ascii	";\344\263\234\303\350\245\206\027\254\213sj$jI\243B"
 2236      C3E8A586 
 2236      17AC8B73 
 2236      6A246A49 
 2236      A342
 2237 022b 98C2FAA9 		.ascii	"\230\302\372\251T\021\2016b?\336\363\234_\031\030\237"
 2237      54118136 
 2237      623FDEF3 
 2237      9C5F1918 
 2237      9F
 2238 023c 00A9DB3C 		.ascii	"\000\251\333<r\250G\226\340K:9\235\"\301\227\312\014"
 2238      72A84796 
 2238      E04B3A39 
 2238      9D22C197 
 2238      CA0C
 2239 024e E5EDD08D 		.ascii	"\345\355\320\215V\276\250\354\273\366W\213\252\016\010"
 2239      56BEA8EC 
 2239      BBF6578B 
 2239      AA0E08
 2240 025d 5593B630 		.ascii	"U\223\2660\317HUz\270R\327\3273\204\367\331\370\227"
 2240      CF48557A 
 2240      B852D7D7 
 2240      3384F7D9 
 2240      F897
 2241 026f ACAE8369 		.ascii	"\254\256\203i]!WW+\253\353P\256\256i\005\237K-se\233"
 2241      5D215757 
 2241      2BABEB50 
 2241      AEAE6905 
 2241      9F4B2D73 
 2242 0285 17B20DA2 		.ascii	"\027\262\015\242M\336\221=\372Wdr\243\030G\033\254\263"
 2242      4DDE913D 
 2242      FA576472 
 2242      A318471B 
 2242      ACB3
 2243 0297 84BB45F5 		.ascii	"\204\273E\365\007\015]\015T\032U\241@\304\177*\020\366"
 2243      070D5D0D 
 2243      541A55A1 
 2243      40C47F2A 
 2243      10F6
ARM GAS  /tmp/ccz8Y2A9.s 			page 60


 2244 02a9 EB91488D 		.ascii	"\353\221H\215\352\331\357\253\252\324t\3250\264\322"
 2244      EAD9EFAB 
 2244      AAD474D5 
 2244      30B4D2
 2245 02b8 ED5BCB2A 		.ascii	"\355[\313*\"z8\262\015v\270U\217?p$p\300W\261\255\304"
 2245      227A38B2 
 2245      0D76B855 
 2245      8F3F7024 
 2245      70C057B1 
 2246 02ce 5DEA2E51 		.ascii	"]\352.Q\203aU\013\032F\360\204Z\025\014E\302\352\336"
 2246      8361550B 
 2246      1A46F084 
 2246      5A150C45 
 2246      C2EADE
 2247 02e1 435E8FB7 		.ascii	"C^\217\267Z\325\374Z0\244W\234\332i\270\265\377\252"
 2247      5AD5FC5A 
 2247      30A4579C 
 2247      DA69B8B5 
 2247      FFAA
 2248 02f3 F243FE91 		.ascii	"\362C\376\221\312\260~0\024\330\367\217j\275:\"jU\217"
 2248      CAB07E30 
 2248      14D8F78F 
 2248      6ABD3A22 
 2248      6A558F
 2249 0306 D757EE53 		.ascii	"\327W\356S=T\254\226\237\320\216\237<\252\253\232\021"
 2249      3D54AC96 
 2249      9FD08E9F 
 2249      3CAAAB9A 
 2249      11
 2250 0317 0E842B8E 		.ascii	"\016\204+\216i\032\265Z\235K\307\255\357*-\323\364\312"
 2250      691AB55A 
 2250      9D4BC7AD 
 2250      EF2A2DD3 
 2250      F4CA
 2251 0329 DD50E8F5 		.ascii	"\335P\350\365\035r\211)\264\372fWq\011\260\020\344\033"
 2251      1D728929 
 2251      B4FA6657 
 2251      7109B010 
 2251      E41B
 2252 033b BA110CD5 		.ascii	"\272\021\014\325\300_\312\314\234\352"
 2252      C05FCACC 
 2252      9CEA
 2253              		.text
 2254              		.section	.gnu.lto__port_irq_epilogue.part.0.325.77b3254072e8f9f4,"e",%progbits
 2255 0000 789C9D54 		.ascii	"x\234\235T]L\034U\024\276g\356\354\354B)\233\252i\023"
 2255      5D4C1C55 
 2255      14BE67EE 
 2255      ECEC4229 
 2255      9BAA6913 
 2256 0014 4DCCAA21 		.ascii	"M\314\252!\215\006\031,\212\232h\202\342K\037H\0336"
 2256      8D06192C 
 2256      8A9A6882 
 2256      E24B1F48 
 2256      1B36
 2257 0026 7D26308E 		.ascii	"}&0\216\356\306nw\263\273m\360\251\003,%\001#K\325b"
 2257      EEC66E77 
 2257      B3BB6DF0 
ARM GAS  /tmp/ccz8Y2A9.s 			page 61


 2257      A9032C25 
 2257      01234BD5 
 2258 003b 9A2DADB8 		.ascii	"\232-\255\2701\370\320\230F\253\255-\025EKQ\313_[i\241"
 2258      31F8D098 
 2258      46ABAD2D 
 2258      15454B51 
 2258      CB5F5B69 
 2259 0050 855A7F80 		.ascii	"\205Z\177\200F\354\006\254\241\006\305s\356\335Y\346"
 2259      46EC06AC 
 2259      A106C573 
 2259      EEDD59E6 
 2260 0060 41897193 		.ascii	"A\211q\223\235{\346\334\357|\347\234\357\334\271\003"
 2260      9D7BE6DC 
 2260      EF7CE79C 
 2260      EFDCB903 
 2261 0070 1A6315C0 		.ascii	"\032c\025\300X\2001\006\036\006\235\036fYV\205\333\015"
 2261      58803106 
 2261      1E069D1E 
 2261      66595685 
 2261      DB0D
 2262 0082 77895551 		.ascii	"w\211UQ\232:\332\024\270\000\370\346S\023\035\205b\345"
 2262      9A3ADA14 
 2262      B800F8E6 
 2262      53131D85 
 2262      62E5
 2263 0094 F05647BE 		.ascii	"\360VG\276\330W\321jUd\214\013\016t\264N\317>\"\321"
 2263      D857D16A 
 2263      55648C0B 
 2263      0E74B44E 
 2263      CF3E22D1 
 2264 00a8 156E0D1A 		.ascii	"\025n\015\032r{\300\366\272\025\256\2724\330\013o\360"
 2264      727BC0F6 
 2264      BA15AEBA 
 2264      34D80B6F 
 2264      F0
 2265 00b9 148787D1 		.ascii	"\024\207\207\321\275\324|p~\020\254\236>Hs\306\272\360"
 2265      BDD47C70 
 2265      7E10AC9E 
 2265      3E4873C6 
 2265      BAF0
 2266 00cb 2F7EB495 		.ascii	"/~\264\225\\\365\002\225\366\021=\031\306i\002\010\037"
 2266      5CF50295 
 2266      F6113D19 
 2266      C6690208 
 2266      1F
 2267 00dc 03131690 		.ascii	"\003\023\026\220\245\332~\005N@\016\304\341\244|\241"
 2267      A5DA7E05 
 2267      4E400EC4 
 2267      E1A47CA1 
 2268 00ec 4C67CB19 		.ascii	"Lg\313\031|\002\350\314n\303\247\340\330N\015\365_\274"
 2268      7C02E8CC 
 2268      6EC3A7E0 
 2268      D84E0DF5 
 2268      5FBC
 2269 00fe 8FC12904 		.ascii	"\217\301)\004\250\344\333\317\323\310\254f-\005|h\361"
 2269      A8E4DBCF 
 2269      D3C8AC66 
ARM GAS  /tmp/ccz8Y2A9.s 			page 62


 2269      2D057C68 
 2269      F1
 2270 010f 94806FEE 		.ascii	"\224\200o\356C\266\267\333&\207\357MY}j\032\263|\006"
 2270      43B6B7DB 
 2270      2687EF4D 
 2270      597D6A1A 
 2270      B37C06
 2271 0122 94F80C40 		.ascii	"\224\370\014@/0\240\242\371\014to@h\021AS-\363\307\213"
 2271      2F30A0A2 
 2271      F90C746F 
 2271      40681141 
 2271      532DF3C7 
 2272 0137 FB9BAC73 		.ascii	"\373\233\254sV\016\014\253\340lOX\302\211\345\203\032"
 2272      560E0CAB 
 2272      E06C4F58 
 2272      C289E583 
 2272      1A
 2273 0148 7C8ECED3 		.ascii	"|\216\316\323DG\315\301\027`\267C%\316\236\336,[p\255"
 2273      4447CDC1 
 2273      1760B743 
 2273      25CE9EDE 
 2273      2C5B70AD 
 2274 015c 56DD3480 		.ascii	"V\3354\200U\177\211>\215e\363ez\217\377\362=X\373-X"
 2274      557F893E 
 2274      8D65F365 
 2274      7A8FFFF2 
 2274      3D58FB2D 
 2275 0171 33DBD2CF 		.ascii	"3\333\322\317\230\355,:\277\312e\033\260\263\361\277"
 2275      98ED2C3A 
 2275      BFCA651B 
 2275      B0B3F1BF 
 2276 0181 C066C346 		.ascii	"\300f\303F\357\264\270\261\321\204\217\350\006\021\354"
 2276      EFB4B8B1 
 2276      D1848FE8 
 2276      0611EC
 2277 0190 B6E9BE46 		.ascii	"\266\351\276F\272\031\230\334 \364\2447\332\373F24+"
 2277      BA1998DC 
 2277      20F4A437 
 2277      DAFB4632 
 2277      342B
 2278 01a2 398691D1 		.ascii	"9\206\221\321\341gr\004\337\002\315.Kp^\020Ly)\240-"
 2278      E1677204 
 2278      DF02CD2E 
 2278      4B705E10 
 2278      4C7929A0 
 2279 01b7 1790B9F3 		.ascii	"\027\220\271\363\376\353\205\311\006O\232\2530\344\204"
 2279      FEEB85C9 
 2279      064F9AAB 
 2279      30E484
 2280 01c6 0F0BF8A8 		.ascii	"\017\013\370\250W\346\033\006\212\307\341\303\010\314"
 2280      57E61B06 
 2280      8AC7E1C3 
 2280      08CC
 2281 01d4 C088D78E 		.ascii	"\300\210\327\216\376c\260EF\313d\340L\366o)\300\231"
 2281      FE63B045 
 2281      46CB64E0 
 2281      4CF66F29 
ARM GAS  /tmp/ccz8Y2A9.s 			page 63


 2281      C099
 2282 01e6 429E0F18 		.ascii	"B\236\017\030\003\030\005\322\033\371s#\372\351\022"
 2282      031805D2 
 2282      1BF97323 
 2282      FAE912
 2283 01f5 96738144 		.ascii	"\226s\201DXC p\012\204\312\302%\264/BV\032q2=0.u\352"
 2283      58432070 
 2283      0A84CAC2 
 2283      25B42F42 
 2283      561A7132 
 2284 020e 50EC2395 		.ascii	"P\354#\2259:\330Y\230\024C\273\014\204\310\222\\\221"
 2284      393AD859 
 2284      981443BB 
 2284      0C84C892 
 2284      5C91
 2285 0220 E7A93777 		.ascii	"\347\2517w\236F\346\206^s\333\247\351\2623\337\025\347"
 2285      9E46E686 
 2285      5E73DBA7 
 2285      E9B233DF 
 2285      15E7
 2286 0232 7C6FEF80 		.ascii	"|o\357\200\011\220\305z\304x'\201\222\"D\305\202\350"
 2286      0990C57A 
 2286      C4782781 
 2286      922244C5 
 2286      82E8
 2287 0244 FB93D5DF 		.ascii	"\373\223\325\337\232\361\246z\3049f\253\263\305_Q_\""
 2287      9AF1A67A 
 2287      C43966AB 
 2287      B3C55F51 
 2287      5F22
 2288 0256 9BAB59E6 		.ascii	"\233\253Y\346b\216L\327\304'9\012\250\322\007c.\313"
 2288      628E4CD7 
 2288      C427390A 
 2288      A8D20763 
 2288      2ECB
 2289 0268 5A5E69B7 		.ascii	"Z^i\267\254\253\017m\\\017\324\255B[\234$TY\232\273"
 2289      ACAB0F6D 
 2289      5C0FD4AD 
 2289      425B9C24 
 2289      54599ABB 
 2290 027c 5CF8D034 		.ascii	"\\\370\3204z0\326\316\3516\260T \323-M\316\222\\\261"
 2290      7A30D6CE 
 2290      E936B054 
 2290      20D32D4D 
 2290      CE925CB1 
 2291 0290 CD9B60DD 		.ascii	"\315\233`\335X\360c\331\302\372\355n\261\274\271\211"
 2291      58F063D9 
 2291      C2FAED6E 
 2291      B1BCB989 
 2292 02a0 96C56307 		.ascii	"\226\305c\007\246\206\017\003J)\234\213\303y\360\235"
 2292      A6860F03 
 2292      4A299C8B 
 2292      C379F09D 
 2293 02b0 347FF7B2 		.ascii	"4\177\367\262[\320\360 5wD\301\326\0368\252\354\303"
 2293      5BD0F020 
 2293      357744C1 
 2293      D61E38AA 
ARM GAS  /tmp/ccz8Y2A9.s 			page 64


 2293      ECC3
 2294 02c2 E1BAD154 		.ascii	"\341\272\321T\251\320i\274!p\271\016\335t\227\334\204"
 2294      A9D069BC 
 2294      2170B90E 
 2294      DD7497DC 
 2294      84
 2295 02d3 461F5649 		.ascii	"F\037VI6\005/y\311\223y\347\335\223\267=\230\227\246"
 2295      36052F79 
 2295      C99379E7 
 2295      DD93B73D 
 2295      9897A6
 2296 02e6 2521A339 		.ascii	"%!\2439\310\341q\205\375\012M\251}\327\320\245t\313"
 2296      C8E17185 
 2296      FD0A4DA9 
 2296      7DD7D0A5 
 2296      74CB
 2297 02f8 4B4183EB 		.ascii	"KA\203\353+++\336U\254\"\260\307\005\266q\271\205\260"
 2297      2B2B2BDE 
 2297      55AC22B0 
 2297      C705B671 
 2297      B985B0
 2298 030b 5C7A1130 		.ascii	"\\z\0210Fo\002pJ\002\026f\357\311\336.\2528\012\357"
 2298      466F0270 
 2298      4A021666 
 2298      EFC9DE2E 
 2298      AA380AEF 
 2299 031f 012AE441 		.ascii	"\001*\344A\020\374\000\254\024\325\350YO\003\376\021"
 2299      10FC00AC 
 2299      14D5E859 
 2299      4F03FE11 
 2300 032f 0ED1AD48 		.ascii	"\016\321\255H8N\227\252Gp\214\217gi'\354\274(\316\304"
 2300      384E97AA 
 2300      47708C8F 
 2300      676927EC 
 2300      BC28CEC4 
 2301 0343 D821C029 		.ascii	"\330!\300)\013\300\364X\036\\\005\241\012\215\352\230"
 2301      0BC0F458 
 2301      1E5C05A1 
 2301      0A8DEA98 
 2302 0353 50E58C50 		.ascii	"P\345\214P%\317VeF\2522+(\244\006\037\366\356 \011&"
 2302      25CF5665 
 2302      46AA322B 
 2302      28A4061F 
 2302      F6EE2009 
 2303 0368 8404D68D 		.ascii	"\204\004\326\215\251M,\003MG\312\272\271\232\000%\315"
 2303      A94D2C03 
 2303      4D47CABA 
 2303      B99A0025 
 2303      CD
 2304 0379 F3BB781E 		.ascii	"\363\273x\036\3032\327\2619H\314\365\327\241\237\012"
 2304      C332D7B1 
 2304      3948CCF5 
 2304      D7A19F0A 
 2305 0389 7381BCB6 		.ascii	"s\201\274\266\223\2347`\211Jv\214\213\343<\253\004J"
 2305      939C3760 
 2305      894A768C 
 2305      8BE33CAB 
ARM GAS  /tmp/ccz8Y2A9.s 			page 65


 2305      044A
 2306 039b E64A40A3 		.ascii	"\346J@\243e\315\336\237\346\005]<\237\321F\246\365\274"
 2306      65CDDE9F 
 2306      E6055D3C 
 2306      9FD146A6 
 2306      F5BC
 2307 03ad F28F8D17 		.ascii	"\362\217\215\027R\257\363\3308\362b\244`V\235\314\177"
 2307      52AFF3D8 
 2307      38F262A4 
 2307      60569DCC 
 2307      7F
 2308 03be 3A993527 		.ascii	":\2315'\363\272\377\300\234\261\2315\301\354r\036\275"
 2308      F3BAFFC0 
 2308      9CB19935 
 2308      C1EC721E 
 2308      BD
 2309 03cf CE098525 		.ascii	"\316\011\205%\025\353\234*\2664{k\001\032+d\217\355"
 2309      15EB9C2A 
 2309      B6347B6B 
 2309      011A2B64 
 2309      8FED
 2310 03e1 620AE844 		.ascii	"b\012\350D\311\330\243z \0342\365`m(\022\015\306\003"
 2310      C9D8A37A 
 2310      201C32F5 
 2310      606D2812 
 2310      0DC603
 2311 03f4 7B82B180 		.ascii	"{\202\261\200\031\217\277\252W\276\340\217\324\032\246"
 2311      198FBFAA 
 2311      57BEE08F 
 2311      D41AA6
 2312 0403 1E0A1965 		.ascii	"\036\012\031e\217?V^\0237c\361-\354\211\022\2752\020"
 2312      8F3F565E 
 2312      133763F1 
 2312      2DEC8912 
 2312      BD3210
 2313 0416 AC0B6EF3 		.ascii	"\254\013n\363\327l)-)+)\325\3031\335\010\207B\341]z"
 2313      D76C292D 
 2313      292B29D5 
 2313      C331DD08 
 2313      8742E15D 
 2314 042b 241C8DC7 		.ascii	"$\034\215\307\364\347\252\253*\253\352u#`\204\243f\315"
 2314      F4E7AAAB 
 2314      2AABEA75 
 2314      236084A3 
 2314      66CD
 2315 043d 9E274325 		.ascii	"\236'C%\306\377\212\0120w]m\314\334\036\015>\277F\264"
 2315      C6FF8A0A 
 2315      30775D6D 
 2315      CCDC1E0D 
 2315      3EBF46B4 
 2316 0451 591FA758 		.ascii	"Y\037\247X\275\262\312\277\325\257Wb\260\276u\227\261"
 2316      BDB2CABF 
 2316      D5AF5762 
 2316      B0BE7597 
 2316      B1
 2317 0462 73F78BA6 		.ascii	"s\367\213\246n\204b\301X\315\313\206\201T\033\235\345"
 2317      6E8462C1 
ARM GAS  /tmp/ccz8Y2A9.s 			page 66


 2317      58CDCB86 
 2317      81541B9D 
 2317      E5
 2318 0473 94984F95 		.ascii	"\224\230O\225\225\033f\355\323L\213\232\261\335;\343"
 2318      951B66ED 
 2318      D34C8B9A 
 2318      B1DD3BE3 
 2319 0483 AE584D24 		.ascii	"\256XM$\026q\231F\274>R\030\017G\266\275\264=\0326\374"
 2319      16719946 
 2319      BC3E5218 
 2319      0F47B6BD 
 2319      B43D1A36 
 2320 0498 F15AE395 		.ascii	"\361Z\343\225\202\252j\277\257\250\264\330\207\000\306"
 2320      82AA6ABF 
 2320      AFA8B4D8 
 2320      8700C6
 2321 04a7 9F8DB282 		.ascii	"\237\215\262\202*\1775\275\024\243\227)Q\3667\216P\211"
 2321      2A7F35BD 
 2321      14A39729 
 2321      51F6378E 
 2321      5089
 2322 04b9 BB       		.ascii	"\273"
 2323              		.text
 2324              		.section	.gnu.lto_.symbol_nodes.77b3254072e8f9f4,"e",%progbits
 2325 0000 789C758D 		.ascii	"x\234u\215\267\015\200@\020\004\367\3661\031-P\352\335"
 2325      B70D8040 
 2325      1004F7F6 
 2325      31192D50 
 2325      EADD
 2326 0012 4B144009 		.ascii	"K\024@\011\264\201\315H\0215 $\312\300'\010\375\244"
 2326      B481CD48 
 2326      11352024 
 2326      CAC02708 
 2326      FDA4
 2327 0024 B366C109 		.ascii	"\263f\301\011G*\354$\222r\002\024\250\013\357\215\220"
 2327      472AEC24 
 2327      92720214 
 2327      A80BEF8D 
 2327      90
 2328 0035 CB427AAA 		.ascii	"\313Bz\252\354/\371\035\001\254\262\313\312@e\300\261"
 2328      EC2FF91D 
 2328      01ACB2CB 
 2328      CA4065C0 
 2328      B1
 2329 0046 A6BACF6C 		.ascii	"\246\272\317lc^\336Q6\324(([j\034\222\322Q\223\337\245"
 2329      635EDE51 
 2329      36D42828 
 2329      5B6A1C92 
 2329      D25193DF 
 2330 005b DD970EC9 		.ascii	"\335\227\016\311S[3\027\243\032\346\015\262\2448\000"
 2330      535B3317 
 2330      A31AE60D 
 2330      B2A43800 
 2331 006b F0714961 		.ascii	"\360qIa"
 2332              		.text
 2333              		.section	.gnu.lto_.refs.77b3254072e8f9f4,"e",%progbits
 2334 0000 789CE366 		.ascii	"x\234\343f```b`b\224c`bRd`\000\000\002+\000T"
ARM GAS  /tmp/ccz8Y2A9.s 			page 67


 2334      60606062 
 2334      60629463 
 2334      60625264 
 2334      60000002 
 2335              		.text
 2336              		.section	.gnu.lto_.decls.77b3254072e8f9f4,"e",%progbits
 2337 0000 789CAD58 		.ascii	"x\234\255XypTE\032\357\257{\256\014\201\304\020W\\-"
 2337      79705445 
 2337      1AEFAF7B 
 2337      AE0C81C4 
 2337      10575C2D 
 2338 0014 37655965 		.ascii	"7eYe\266jar \260\265\377\020& )\005\2623\210\272\273"
 2338      B66A6172 
 2338      20B0B5FF 
 2338      10262029 
 2338      05B23388 
 2339 002a 55B37166 		.ascii	"U\263qf\226Lm.'\203bmm\371\002!\007$\020\302!G0A\004"
 2339      964C6D2E 
 2339      2783626D 
 2339      6DF90221 
 2339      072410C2 
 2340 0043 418E442E 		.ascii	"A\216D.#!0\011\202\201pC\270\217p\007\004A@\204p\355"
 2340      23213009 
 2340      82817043 
 2340      B88F7007 
 2340      04414084 
 2341 0059 D7FDDEBC 		.ascii	"\327\375\336\2747\223\031\375\303\332\011\337\353\327"
 2341      379319FD 
 2341      C3DA09DF 
 2341      EBD7
 2342 0067 FD7EFDFB 		.ascii	"\375~\375\373\256\356\357\275\346\355~\204\024\351\010"
 2342      AEEEEFBD 
 2342      E6ED7E84 
 2342      14E908
 2343 0076 49A0843C 		.ascii	"I\240\204<\305\237\236\020r\200h?#\312\026\024?J+\312"
 2343      C59F9E10 
 2343      7280683F 
 2343      23CA1614 
 2343      3F4A2BCA 
 2344 008a B7283B50 		.ascii	"\267(;P\232Q\366\220\360_9\020b\3026\033%\016%\036\345"
 2344      9A51F690 
 2344      F05F3910 
 2344      62C2361B 
 2344      250E251E 
 2345 009f 10CA4994 		.ascii	"\020\312I\224WQN\243\234W\260\006\205\357\012\312u\224"
 2345      57514EA3 
 2345      9C57B006 
 2345      85EF0ACA 
 2345      7594
 2346 00b1 9B28B751 		.ascii	"\233(\267Q~\212\300[\0112_O\336\356\036\274\231\210"
 2346      7E8AC05B 
 2346      09325F4F 
 2346      DEEE1EBC 
 2346      9988
 2347 00c3 1B83D20F 		.ascii	"\033\203\322\017\345\037(\177G\251F\231\2112\000\245"
 2347      E51F287F 
 2347      47A94699 
ARM GAS  /tmp/ccz8Y2A9.s 			page 68


 2347      893200A5 
 2348 00d3 3FCA8B88 		.ascii	"?\312\213\210C\227\311P\274\177\007\245\004\345u\024"
 2348      4397C950 
 2348      BC7F07A5 
 2348      04E57514 
 2349 00e3 BDE2DB6C 		.ascii	"\275\342\333l\274\237\017\262=5\020n\313\177p,:\202"
 2349      BC9F0FB2 
 2349      3D35106E 
 2349      CB7F702C 
 2349      3A82
 2350 00f5 2DBF64C7 		.ascii	"-\277d\307\"\224\3158\306\251\206\200\034\323\346\036"
 2350      2294CD38 
 2350      C6A98680 
 2350      1CD3E61E 
 2351 0105 FED6E1F8 		.ascii	"\376\326\341\370\022\220c\335\363\367_\034\357\035A"
 2351      129063DD 
 2351      F3F75F1C 
 2351      EF1D41
 2352 0114 DFD738DE 		.ascii	"\337\3278\336\256\350\345\361m\000Y\177#\266\273\211"
 2352      AEE8E5F1 
 2352      6D00597F 
 2352      23B6BB89 
 2353 0124 AC17D34A 		.ascii	"\254\027\323J\352\261]\243\330\314\365n\371\005\335"
 2353      EAB15DA3 
 2353      D8CCF56E 
 2353      F905DD
 2354 0133 813CF0BC 		.ascii	"\201<\360\274\372\211\234\357\236\277\205\214\256\274"
 2354      FA899CEF 
 2354      9EBF858C 
 2354      AEBC
 2355 0141 D0743AFA 		.ascii	"\320t:\372\022\010j\235\013\000\216\015\302\213\231"
 2355      12086A9D 
 2355      0B008E0D 
 2355      C28B99
 2356 0150 FC8D9178 		.ascii	"\374\215\221x\211J\324\340b\324\314\314\314en\203\227"
 2356      894AD4E0 
 2356      62D4CCCC 
 2356      CC656E83 
 2356      97
 2357 0161 12EFB2A1 		.ascii	"\022\357\262\241&\232\030c6-\337\006\261f\275\211\322"
 2357      269A1863 
 2357      362DDF06 
 2357      B166BD89 
 2357      D2
 2358 0172 2EA3CB9C 		.ascii	".\243\313\234\330\015\253h\235!a\250\244sU<\333e\224"
 2358      D80DAB68 
 2358      9D2161A8 
 2358      A473553C 
 2358      DB6594
 2359 0185 68D5E8F8 		.ascii	"h\325\350\370\324\241x\3552\266\201\013ge\352L\261x"
 2359      D4A178ED 
 2359      32B6810B 
 2359      6765EA4C 
 2359      B178
 2360 0197 D76534DF 		.ascii	"\327e4\337eu\225\006\327\036Z\366*\264\201\331\225\022"
 2360      65759506 
 2360      D71E5AF6 
ARM GAS  /tmp/ccz8Y2A9.s 			page 69


 2360      2AB481D9 
 2360      9512
 2361 01a9 2F49D250 		.ascii	"/I\322P\223\351\245\230V\326\312F\340r35\254y\326\334"
 2361      93E9A598 
 2361      56D6CA46 
 2361      E0723335 
 2361      AC79D6DC 
 2362 01bd 658C418A 		.ascii	"e\214A\212DWB\254+!\246\015\364.\2279>\221\240\021\256"
 2362      445742AC 
 2362      2B21A60D 
 2362      F42E9739 
 2362      3E91A011 
 2363 01d2 9494A1D4 		.ascii	"\224\224\241\324\214\314:S\033\2440\210N\221\316}\377"
 2363      8CCC3A53 
 2363      1BA43088 
 2363      4E91CE7D 
 2363      FF
 2364 01e3 9C596F8E 		.ascii	"\234Yo\216z)!\221\020\027\031A\221\227=\015\374\300"
 2364      7A292191 
 2364      10171941 
 2364      91973D0D 
 2364      FCC0
 2365 01f5 883A5D5A 		.ascii	"\210:]Z\027 \321LS({\243\013\363Fi\002!\222\316\024"
 2365      1720D14C 
 2365      53287BA3 
 2365      0BF34669 
 2365      022192CE 
 2366 020a 1D0D1236 		.ascii	"\035\015\0226Q\2167\\\231)f\322e\244\370(^\007\022\005"
 2366      518E375C 
 2366      992966D2 
 2366      65A4F828 
 2366      5E071205 
 2367 021e 6DA6D940 		.ascii	"m\246\331@\000(\020\371\217_@\271\000\357\202\274\343"
 2367      002810F9 
 2367      8F5F40B9 
 2367      00EF82BC 
 2367      E3
 2368 022f 025AC438 		.ascii	"\002Z\3048_%TAs\210<\2526\312=\007P\205\207*\211\001"
 2368      5F255441 
 2368      73883CAA 
 2368      36CA3D07 
 2368      5085872A 
 2369 0245 798EA284 		.ascii	"y\216\242\204_\203\310U\010(\220\000\217<G\001\250s"
 2369      5F83C855 
 2369      08289000 
 2369      8F3C4701 
 2369      A873
 2370 0257 955BAE43 		.ascii	"\225[\256C\200i\360\0341/\304p\215\222\250\264\001\223"
 2370      8069F01C 
 2370      312FC470 
 2370      8D92A8B4 
 2370      0193
 2371 0269 0804964D 		.ascii	"\010\004\226M\313\254\223\245\372\313\0306i^<<[5\224"
 2371      CBAC93A5 
 2371      FACB1836 
 2371      695E3C3C 
 2371      5B3594
ARM GAS  /tmp/ccz8Y2A9.s 			page 70


 2372 027c 007B81B0 		.ascii	"\000{\201\260\327\010\033I,\222\370}\3661\201F\031_"
 2372      D7081B49 
 2372      2C92F87D 
 2372      F6318146 
 2372      195F
 2373 028e 02BDAA19 		.ascii	"\002\275\252\031\304\001\305k<\304\342\364\322\246\351"
 2373      C401C56B 
 2373      3CC4E2F4 
 2373      D2A6E9
 2374 029d EDE6E710 		.ascii	"\355\346\347\020u]\222\342!\033\232\0006q\315\233Qi"
 2374      755D92E2 
 2374      211B9A00 
 2374      3671CD9B 
 2374      5169
 2375 02af BE50507B 		.ascii	"\276PP{m\357\215\336/\317\233'\335\177\270k\317\222"
 2375      6DEF8DDE 
 2375      2FCF9B27 
 2375      DD7FB86B 
 2375      CF92
 2376 02c1 BF5C6C94 		.ascii	"\277\\l\224\244)\2224\311\3041\3605\3007\302\234f~O"
 2376      A4299234 
 2376      C9C431F0 
 2376      35C037C2 
 2376      9C667E4F 
 2377 02d5 6003C07A 		.ascii	"`\003\300z(\201m1/W\315\223\252j\352\374T\222\030\007"
 2377      28816D31 
 2377      2F57CD93 
 2377      AA6AEAFC 
 2377      54921807 
 2378 02e9 6E0C026E 		.ascii	"n\014\002n\014\000\011+\242\\\305\375\212\271\207\330"
 2378      0C00092B 
 2378      A25CC5FD 
 2378      8AB987D8 
 2379 02f9 CBF324E9 		.ascii	"\313\363$\351\376\231\352\346u\011-\223\353\022\371"
 2379      FE99EAE6 
 2379      75092D93 
 2379      EB12F9
 2380 0308 9CADCA1C 		.ascii	"\234\255\312\034\202w\274a{\004z\371\243\373\263(G7"
 2380      8277BC61 
 2380      7B047AF9 
 2380      A3FBB328 
 2380      4737
 2381 031a 6C59774B 		.ascii	"lYwK2\011h\213\012m\221\241\347\004\264dv\321'\321\302"
 2381      3209688B 
 2381      0A6D91A1 
 2381      E704B464 
 2381      76D127D1 
 2382 032f F68DD31F 		.ascii	"\366\215\323\037n\203\032\311?\011]\325\361\031\333"
 2382      6E831AC9 
 2382      3F095DD5 
 2382      F119DB
 2383 033e D419DB34 		.ascii	"\324\031\3334\273\037\306\260\033b\342:\377\231\030"
 2383      BB1FC6B0 
 2383      1B62E23A 
 2383      FF9918
 2384 034d 3EAFA1BB 		.ascii	">\257\241\273\264T\212U'mW'm\327&\335\211a?S\302f2\234"
 2384      B4548A55 
ARM GAS  /tmp/ccz8Y2A9.s 			page 71


 2384      276D5727 
 2384      6DD726DD 
 2384      89613F53 
 2385 0365 68D83475 		.ascii	"h\3304u\375\022\335\013\000\370/\212B;L\3423\333\301"
 2385      FD12DD0B 
 2385      00F82F8A 
 2385      423B4CE2 
 2385      33DBC1
 2386 0378 2F495D52 		.ascii	"/I]Rq4\201TH\"\270/p\210\300N\200]\200\312\226\371\027"
 2386      71348154 
 2386      4822B82F 
 2386      7088C04E 
 2386      805D80CA 
 2387 038f 76829A83 		.ascii	"v\202\232\203vP\223\260[M\302\343\323?\2552\310\021"
 2387      765093B0 
 2387      5B4DC2E3 
 2387      D33FAD32 
 2387      C811
 2388 03a1 5A503FC3 		.ascii	"ZP?\303P#\265R|\012\337\251\366|'\032L\353\253b\247"
 2388      5023B552 
 2388      7C0ADFA9 
 2388      F67C271A 
 2388      4CEBAB62 
 2389 03b6 C4883BC2 		.ascii	"\304\210;\302\374\214\210\204\353D\302\023\220\351\372"
 2389      FC8C8884 
 2389      EB44C213 
 2389      90E9FA
 2390 03c5 F6ABBB7B 		.ascii	"\366\253\273{\233\321\236[\222\2778\212\300A\200\003"
 2390      9BD19E5B 
 2390      92BF388A 
 2390      C0418003 
 2391 03d5 A8663F20 		.ascii	"\250f? \376\033\200}\000{\271M_\034?\261\224\232%\005"
 2391      FE1B807D 
 2391      007BB94D 
 2391      5F1C3FB1 
 2391      949A2505 
 2392 03e9 860C328E 		.ascii	"\206\0142\216\300a\004[\320<A\313\004m?\266S\370\376"
 2392      C061045B 
 2392      D03C41CB 
 2392      046D3FB6 
 2392      53F8FE
 2393 03fc F870C77E 		.ascii	"\370p\307~\243Yv^8\334Z\304\024\217\217b9\303\211\307"
 2393      A359765E 
 2393      38DC5AC4 
 2393      148F8F62 
 2393      39C389C7 
 2394 0410 014EE046 		.ascii	"\001N\340F<\306\303\362\350\017\330\242\246\262\342"
 2394      3CC6C3F2 
 2394      E80FD8A2 
 2394      A6B2E2
 2395 041f 05151087 		.ascii	"\005\025\020\207\232\212%\351\2378\004G\000:\270\246"
 2395      9A8A25E9 
 2395      9F380447 
 2395      003AB8A6 
 2396 042f 9320B471 		.ascii	"\223 \264q\3677\374\360\250A\037\311\232S\302\232$\204"
 2396      F737FCF0 
 2396      A8411FC9 
ARM GAS  /tmp/ccz8Y2A9.s 			page 72


 2396      9A53C29A 
 2396      2484
 2397 0441 742CE9DE 		.ascii	"t,\351\336\314\202i\002A<\015\002&\307\301\300]\373"
 2397      CC826902 
 2397      413C0D02 
 2397      26C7C1C0 
 2397      5DFB
 2398 0453 A6AC3D2A 		.ascii	"\246\254=*\022\331YAvFv\315(\\\033\202\370C\027.\267"
 2398      12D95941 
 2398      764676CD 
 2398      285C1B82 
 2398      F843172E 
 2399 0468 C604339F 		.ascii	"\306\0043\237\003\350\344\370\363 \346\020\266\227\021"
 2399      03E8E4F8 
 2399      F320E610 
 2399      B69711
 2400 0477 768C8780 		.ascii	"v\214\207\200Nk\335Vc\300\227 \\\224\015\357\250~\262"
 2400      4E6BDD56 
 2400      63C09720 
 2400      5C940DEF 
 2400      A87EB2
 2401 048a 8BAAA93D 		.ascii	"\213\252\251=\244YuYN-\337&\367kjo^\211\221\327fK<>"
 2401      A4597559 
 2401      4E2DDF26 
 2401      F76B6A6F 
 2401      5E8991D7 
 2402 04a2 810B725A 		.ascii	"\201\013rZ\341\022\300\025\336S\227Z\3733l\205.\222"
 2402      E112C015 
 2402      DE53975A 
 2402      FB336C85 
 2402      2E92
 2403 04b4 9EAAB2C3 		.ascii	"\236\252\262\303\203\370\273\227\253\310\307\376\211"
 2403      83F8BB97 
 2403      ABC8C7FE 
 2403      89
 2404 04c1 CAF9E5C6 		.ascii	"\312\371\345\306\010\333\372{\344\272\006\262\336[\253"
 2404      08DBFA7B 
 2404      E4BA06B2 
 2404      DE5BAB
 2405 04d0 AF4EEFB3 		.ascii	"\257N\357\263_\222\352\252\3648\016]\212\322\253\000"
 2405      5F92EAAA 
 2405      F4380E5D 
 2405      8AD2AB00 
 2406 04e0 D7794F55 		.ascii	"\327yOU\332\360\014[\027\256\22434\234\234!\357\016"
 2406      DAF00C5B 
 2406      17AE9433 
 2406      349C9C21 
 2406      EF0E
 2407 04f2 341B196E 		.ascii	"4\033\031n(\014?\000\334\344=\225a\3163\254%2C\343\231"
 2407      280C3F00 
 2407      DCE43D95 
 2407      61CE33AC 
 2407      253243E3 
 2408 0507 EADAC1AA 		.ascii	"\352\332\301\252\353\270\303n)\034?\002\334\346=\225"
 2408      EBB8C36E 
 2408      291C3F02 
 2408      DCE63D95 
ARM GAS  /tmp/ccz8Y2A9.s 			page 73


 2409 0517 63762C3B 		.ascii	"cv,;\362\013V\334\330P\260\\\222\252\332('\270\243\020"
 2409      F20B56DC 
 2409      D850B05C 
 2409      92AADA28 
 2409      27B8A310 
 2410 052b DC05F889 		.ascii	"\334\005\370\211\367T\202e\261\230\321\347\340)\021"
 2410      F7548265 
 2410      B198D1E7 
 2410      E02911
 2411 053a 8DF43152 		.ascii	"\215\3641R5.:\263#\332\204Q\352*\353\364\203\274T\011"
 2411      352E3AB3 
 2411      23DA8451 
 2411      EA2AEBF4 
 2411      83BC5409 
 2412 054e DCE70CF0 		.ascii	"\334\347\014\3603\300=`\347\205\312\242c\267j\373\364"
 2412      33C03D60 
 2412      E785CAA2 
 2412      63B76AFB 
 2412      F4
 2413 055f C0C10308 		.ascii	"\300\301\003\010F\2125S&7\267\344\265\026/VP\035\260"
 2413      468A3553 
 2413      2637B7E4 
 2413      B5162F56 
 2413      501DB0
 2414 0572 EB82A46B 		.ascii	"\353\202\244k\341\201\035\321\221\226\235D\371\262;"
 2414      E1811DD1 
 2414      91969D44 
 2414      F9B23B
 2415 0581 C0F7C2B6 		.ascii	"\300\367\302\266\316\222:\263\262\324\352(O\346\023"
 2415      CE923AB3 
 2415      B2D4EA28 
 2415      4FE613
 2416 0590 80C71C84 		.ascii	"\200\307\034\204\205\222\003e\346N\302\356\011\316\007"
 2416      85920365 
 2416      E64EC2EE 
 2416      09CE07
 2417 059f 4BBABF67 		.ascii	"K\272\277g\346N\344\364\377\332f\276\360\350\322\326"
 2417      E64EE4F4 
 2417      FFDA66BE 
 2417      F0E8D2D6 
 2418 05af 5E1A6D31 		.ascii	"^\032m1\215L\273_nb\205\335\022\260\207B\307\254k\017"
 2418      8D4CBB5F 
 2418      6E6285DD 
 2418      12B08742 
 2418      C7AC6B0F 
 2419 05c3 EB23DA3D 		.ascii	"\353#\332=U\330\335\301\025\254Yp\262\034B\354.\243"
 2419      55D8DDC1 
 2419      15AC5970 
 2419      B21C42EC 
 2419      2EA3
 2420 05d5 508ABC30 		.ascii	"P\212\2740\215\012 '\272\260\350\350\024c\210\025=A"
 2420      8D0A2027 
 2420      BAB0E8E8 
 2420      14638815 
 2420      3D41
 2421 05e7 427D1B61 		.ascii	"B}\033a\222\236\260b\275\334\365\313\215I\030\345'\254"
 2421      929EB062 
ARM GAS  /tmp/ccz8Y2A9.s 			page 74


 2421      BDDCF5CB 
 2421      8D4918E5 
 2421      27AC
 2422 05f9 4CCFB9D6 		.ascii	"L\317\271\3267\265/\247!\012\253)\314\344\\\263\251"
 2422      37B52FA7 
 2422      210AAB29 
 2422      CCE45CB3 
 2422      A9
 2423 060a BCDD1174 		.ascii	"\274\335\021t\376\340\375\233\020\242\260'HP\017a\025"
 2423      FEE0FD9B 
 2423      10A2B027 
 2423      48500F61 
 2423      15
 2424 061b 82B3C47F 		.ascii	"\202\263\304\177e\277I\004\363\227+#\233\251\230\225"
 2424      65BF4904 
 2424      F3972B23 
 2424      9BA99895 
 2425 062b C4E6A291 		.ascii	"\304\346\242\2215J/\221-\306\3362\245\227\300V*w\375"
 2425      354A2F91 
 2425      2DC6DE32 
 2425      A597C056 
 2425      2A77FD
 2426 063e C4355AD8 		.ascii	"\3045Z\330\216I\373J\031\356\205\332\016w\034\272\030"
 2426      8E49FB4A 
 2426      19EE85DA 
 2426      0E771CBA 
 2426      18
 2427 064f B1A47D21 		.ascii	"\261\244}!\302\272\214\277\242_\204\247 \032\3026\010"
 2427      C2BA8CBF 
 2427      A25F84A7 
 2427      201AC236 
 2427      08
 2428 0660 1377EFA8 		.ascii	"\023w\357\250\304o\265\036\265\365K\212\0104p\005\205"
 2428      C46FB51E 
 2428      B5F54B8A 
 2428      08347005 
 2428      85
 2429 0671 E514413F 		.ascii	"\345\024A?\226\256-2\253\365j%\205\317),\341^\257\242"
 2429      96AE2D32 
 2429      ABF56A25 
 2429      85CF292C 
 2429      E15EAFA2 
 2430 0685 829D1355 		.ascii	"\202\235\023U\2349\327\035\303}\3755\242\203;\253\212"
 2430      9C39D71D 
 2430      C37DFD35 
 2430      A2833BAB 
 2430      8A
 2431 0696 A354A2D5 		.ascii	"\243T\242\325\341D\254\031\275nA\331\216\322\216\262"
 2431      E144AC19 
 2431      BD6E41D9 
 2431      8ED28EB2 
 2432 06a6 1FA54371 		.ascii	"\037\245Cq\262\002d\267M\354$\267\375O\253Z\253\213"
 2432      B20264B7 
 2432      4DEC24B7 
 2432      FD4FAB5A 
 2432      AB8B
 2433 06b8 625E09FE 		.ascii	"b^\011\376\365\015\334\234\303\367Z\365\315\206\263"
ARM GAS  /tmp/ccz8Y2A9.s 			page 75


 2433      F50DDC9C 
 2433      C3F75AF5 
 2433      CD86B3
 2434 06c7 7F6C9D2C 		.ascii	"\177l\235,\265\371\001\346QXGa;Ucb!<\035d)\276\363k"
 2434      B5F901E6 
 2434      51584761 
 2434      3B556362 
 2434      213C1D64 
 2435 06df EA2529B6 		.ascii	"\352%)\2668\032\246P\230,0\201\245<\211[\226L\220\253"
 2435      381AA650 
 2435      982C3081 
 2435      A53C895B 
 2435      964C90AB 
 2436 06f3 A19C9725 		.ascii	"\241\234\227%\304 \317\342\020\236:*\023]B\320\002\005"
 2436      C420CFE2 
 2436      109E3A2A 
 2436      135D42D0 
 2436      0205
 2437 0705 84CB627A 		.ascii	"\204\313bz\010\250R\001q\246\012\215\251&\004\264@\326"
 2437      08A85201 
 2437      71A60A8D 
 2437      A92604B4 
 2437      40D6
 2438 0717 C689BA2B 		.ascii	"\306\211\272+U\242\365aV\313\006M\325hjC \2134\243\247"
 2438      55A2F561 
 2438      56CB064D 
 2438      D5686A43 
 2438      208B34A3 
 2439 072c 69984FC3 		.ascii	"i\230O\3031\212=\217+U\320W!\240\231A\240O5\246\257"
 2439      318A3D8F 
 2439      2B55D057 
 2439      21A09941 
 2439      A04F35A6 
 2440 0741 43400F41 		.ascii	"C@\017A\3256]\303\314\017\301\314\325,z\252)\253\017"
 2440      D5365DC3 
 2440      CC0FC1CC 
 2440      D52C7AAA 
 2440      29AB0F
 2441 0754 C1940685 		.ascii	"\301\224\006\205q\276\026\306\031\341aL&\362\362\361"
 2441      71BE16C6 
 2441      19E1614C 
 2441      26F2F2F1 
 2442 0764 EB086CA4 		.ascii	"\353\010l\244\260\201\217!\006\027Y3\205F\012;(\370"
 2442      B0818F21 
 2442      06175933 
 2442      85460A3B 
 2442      28F8
 2443 0776 F14B86C2 		.ascii	"\361K\206\3026\012\337Q\330Da\013\205\255X\310\361\360"
 2443      360ADF51 
 2443      D844610B 
 2443      85AD58C8 
 2443      F1F0
 2444 0788 40013F72 		.ascii	"@\001?r\366P\330E\341[\012M\3705\205\023)\354\244\320"
 2444      F650D845 
 2444      E15B0A4D 
 2444      F8358513 
 2444      29ECA4D0 
ARM GAS  /tmp/ccz8Y2A9.s 			page 76


 2445 079c C2BFCEB9 		.ascii	"\302\277\316\271\205\2174\013\327\206\207#\231,FL\031"
 2445      858F340B 
 2445      D7868723 
 2445      992C464C 
 2445      19
 2446 07ad 5F3045D1 		.ascii	"_0E\321\260\206\302R\201\011\254\342\3174O+\265h,\014"
 2446      B086C252 
 2446      8109ACE2 
 2446      CF344F2B 
 2446      B5682C0C 
 2447 07c1 4F337A8A 		.ascii	"O3z\212^4,RV^\021\036F x"
 2447      5E342C52 
 2447      565E111E 
 2447      462078
 2448 07d0 E53D026D 		.ascii	"\345=\002my\316S@s(\314\022L\201\222S%k\343\230\205"
 2448      79CE5340 
 2448      7328CC12 
 2448      4C819253 
 2448      256BE398 
 2449 07e5 0AA68242 		.ascii	"\012\246\202B\271\300\004\352`\211f\321\023\315\263"
 2449      B9C004EA 
 2449      608966D1 
 2449      13CDB3
 2450 07f4 86F0D8CB 		.ascii	"\206\360\330\313\230\031\232\325\237\204\347\020\015"
 2450      98199AD5 
 2450      9F84E710 
 2450      0D
 2451 0801 624B0CE2 		.ascii	"bK\014\342\343`\316\343\363\264o\317D\300^\372\377J"
 2451      E360CEE3 
 2451      F3B46FCF 
 2451      44C05EFA 
 2451      FF4A
 2452 0813 052F3A73 		.ascii	"\005/:s\247\370\215\321\342\263\262\256U\007\3734c\366"
 2452      A7F88DD1 
 2452      E2B3B2AE 
 2452      5507FB34 
 2452      63F6
 2453 0825 F342B1CA 		.ascii	"\363B\261\312@\330Z\224F\224-\334(\363'_^)1\210\012"
 2453      40D85A94 
 2453      46942DDC 
 2453      28F3275F 
 2453      5E293188 
 2454 083a A0191688 		.ascii	"\240\031\026\210C\2070\353(\205#\024\216\343\347b \335"
 2454      438730EB 
 2454      28852314 
 2454      8EE3E762 
 2454      20DD
 2455 084c AB4E1728 		.ascii	"\253N\027(\345\341 \345\240\036\345\201CV\252\220Ca"
 2455      E5E120E5 
 2455      A01EE581 
 2455      4356AA90 
 2455      4361
 2456 085e 10396A6B 		.ascii	"\0209jkT\304\341\020D\360\016Z\255b\016\204c\222\011"
 2456      54C4E110 
 2456      44F00E5A 
 2456      AD620E84 
 2456      639209
ARM GAS  /tmp/ccz8Y2A9.s 			page 77


 2457 0871 FB56C4F5 		.ascii	"\373V\304\365\332\234;;Y\337\236\346\303\011\032\321"
 2457      DA9C3B3B 
 2457      59DF9EE6 
 2457      C3091AD1 
 2458 0881 019C70F9 		.ascii	"\001\234p\371r\313\014\320\202tR#>\025x\373\035#\354"
 2458      72CB0CD0 
 2458      82745223 
 2458      3E1578FB 
 2458      1D23EC
 2459 0894 10C6E838 		.ascii	"\020\306\3508\312Y\241d\353\221{\337\032\"\275'\316"
 2459      CA59A164 
 2459      EB917BDF 
 2459      1A22BD27 
 2459      CE
 2460 08a5 89F78405 		.ascii	"\211\367\204\005!?<)?\322'N@\224\227a\000s\236\012\034"
 2460      213F3C29 
 2460      3FD2274E 
 2460      40949761 
 2460      00739E0A 
 2461 08ba 615791EF 		.ascii	"aW\221\357\016\312\003\224\247(\345F\302f\241\314G\251"
 2461      0ECA0394 
 2461      A728E546 
 2461      C266A1CC 
 2461      47A9
 2462 08cc 45598152 		.ascii	"EY\201R\217\262\001e\023J+\312N\224\203(\307Q:Q\256"
 2462      8FB20165 
 2462      134A2BCA 
 2462      4E948328 
 2462      C7513A51 
 2463 08e1 1865134F 		.ascii	"\030e\023O\021\271\260\353\331u#Z\230\364Ui\307\"\375"
 2463      11B9B0EB 
 2463      D975235A 
 2463      98F45569 
 2463      C722FD
 2464 08f4 2BE1BFBE 		.ascii	"+\341\277\276Jio\250o\016D\363G\012\323X\344\210\253"
 2464      4A696FA8 
 2464      6F0E44F3 
 2464      470AD358 
 2464      E488AB
 2465 0907 983B2198 		.ascii	"\230;!\230\240\324\356T!]!\220\005A\325\250I\306`1\272"
 2465      A0D4EE54 
 2465      215D2190 
 2465      0541D5A8 
 2465      49C66031 
 2466 091c 1182F92C 		.ascii	"\021\202\371,H\3257*\317\315\020Li\020f\215\212\271"
 2466      48D5372A 
 2466      CFCD104C 
 2466      6910668D 
 2466      8AB9
 2467 092e 1D6EB228 		.ascii	"\035n\262(j\015\373d\310y\012\235!\220\312\240\222\261"
 2467      6A0DFB64 
 2467      C8790A9D 
 2467      2190CAA0 
 2467      92B1
 2468 0940 55C560C5 		.ascii	"U\305`\305\010\302\004\227\364\315\252\252\353!<u\332"
 2468      08C20497 
 2468      F4CDAAAA 
ARM GAS  /tmp/ccz8Y2A9.s 			page 78


 2468      EB213C75 
 2468      DA
 2469 0951 463FA642 		.ascii	"F?\246B\316\206@\202\352\305&\025\362C\270\3432d\267"
 2469      CE864082 
 2469      EAC52615 
 2469      F243B8E3 
 2469      3264B7
 2470 0964 0AB91402 		.ascii	"\012\271\024\002\251\322 \315*\344\373p[\024{O\250\230"
 2470      A9D220CD 
 2470      2AE4FB70 
 2470      5B147B4F 
 2470      A898
 2471 0976 9F4330A7 		.ascii	"\237C0\2475\232U*\344nX2e\304q\025q&\334#EQ\243\212"
 2471      359A552A 
 2471      E46E5832 
 2471      65C47115 
 2471      7126DC23 
 2472 098e B9159E27 		.ascii	"\271\025\236'\231f\227\012\271\022\002\011z\211\355"
 2472      9966970A 
 2472      B9120209 
 2472      7A89ED
 2473 099d 552117C2 		.ascii	"U!\027\302\323\024\374z\272G\341'\3611\312\370\336-"
 2473      D314FC7A 
 2473      BA47E127 
 2473      F131CAF8 
 2473      DE2D
 2474 09af 61F080C2 		.ascii	"a\360\200\302c\012\367\261<3xDa\022\203\207\024$\006"
 2474      630AF7B1 
 2474      3C337844 
 2474      61128387 
 2474      142406
 2475 09c2 C50C2A19 		.ascii	"\305\014*\031<\245P\301\240\033K8\203\031\014&3\230"
 2475      3CA550C1 
 2475      A01B4B38 
 2475      83190C26 
 2475      3398
 2476 09d4 CE602A83 		.ascii	"\316`*\203'\024\212\030\2242\230\302\224\252\325\246"
 2476      27148A18 
 2476      943298C2 
 2476      94AAD5A6 
 2477 09e4 5A70357C 		.ascii	"Zp5|\335\312FnQ!\327h\330:\221!{T\310\305\360\354)\313"
 2477      DDCA466E 
 2477      5121D768 
 2477      D83A9121 
 2477      7B54C8C5 
 2478 09fc AD5D5D6E 		.ascii	"\255]]n\227\303\303\301\337\007\367\214\342\324p\342"
 2478      97C3C3C1 
 2478      DF07F78C 
 2478      E2D470E2 
 2479 0a0c F6BB7D7B 		.ascii	"\366\273}{:\016U\354\377\353:\377\242n:Xk\320\352\335"
 2479      3A0E55EC 
 2479      FFEB3AFF 
 2479      A26E3A58 
 2479      6BD0EADD 
 2480 0a20 4CCDA26A 		.ascii	"L\315\242jD\260\247F\371\034\372\340N\3439\220\246\242"
 2480      44B0A746 
 2480      F91CFAE0 
ARM GAS  /tmp/ccz8Y2A9.s 			page 79


 2480      4EE33990 
 2480      A6A2
 2481 0a32 4171FC18 		.ascii	"Aq\374\0309\213)\377U4\233\341\275z~\353\214e\013L\221"
 2481      398B29FF 
 2481      55349BE1 
 2481      BD7A7EEB 
 2481      8C650B4C 
 2482 0a47 CEBA5B9A 		.ascii	"\316\272[\232f\3140\213\201n\200\271\014G\246\334\236"
 2482      66CC308B 
 2482      816E80B9 
 2482      0C47A6DC 
 2482      9E
 2483 0a58 B602229C 		.ascii	"\266\002\"\234~\347!\333'L956>\020\247\306\2218\012"
 2483      7EE721DB 
 2483      274C3935 
 2483      363E10A7 
 2483      C691380A 
 2484 0a6c 73022AE7 		.ascii	"s\002*\347\363{Uec,[m\212x\346\3043{\371\245>\301\007"
 2484      F37B5565 
 2484      632C5B6D 
 2484      8A78E6C4 
 2484      337BF9A5 
 2485 0a83 D7053205 		.ascii	"\327\0052\005\236\206\240\206aO%\351z\006\011v\235j"
 2485      9E86A086 
 2485      614F25E9 
 2485      7A060976 
 2485      9D6A
 2486 0a95 7868D222 		.ascii	"xh\322\"\261Y+\321\213x$6E\326\202\247\343\212\220\323"
 2486      B1592BD1 
 2486      8B782436 
 2486      45D682A7 
 2486      E38A90D3 
 2487 0aa9 F1A78A92 		.ascii	"\361\247\212\222Z\006u\014{\252\222E\261lOd\216\206"
 2487      5A06750C 
 2487      7BAA9245 
 2487      B16C4F64 
 2487      8E86
 2488 0abb E6E0D3F1 		.ascii	"\346\340\323\361b\205\3403\006K\030\366T\202\372Xv\324"
 2488      6285E033 
 2488      064B18F6 
 2488      5482FA58 
 2488      76D4
 2489 0acd 44D82994 		.ascii	"D\330)\224\263(\227Q\256\241\334@\271\205r\007\345\236"
 2489      B3289751 
 2489      AEA1DC40 
 2489      B9857207 
 2489      E59E
 2490 0adf 492EFC12 		.ascii	"I.\374\022\236\015\342\316\356\231}\027\324Ox\356X\333"
 2490      9E0DE2CE 
 2490      EE997D17 
 2490      D44F78EE 
 2490      58DB
 2491 0af1 CAA97DAA 		.ascii	"\312\251}\2520\377\230\225\245\014\032\302J\220\237"
 2491      30FF9895 
 2491      A50C1AC2 
 2491      4A909F
 2492 0b00 97F069F2 		.ascii	"\227\360i\362\027\013b>\017\307\310\253XY\225\253\031"
ARM GAS  /tmp/ccz8Y2A9.s 			page 80


 2492      170B623E 
 2492      0FC7C8AB 
 2492      585995AB 
 2492      19
 2493 0b11 AF3AB04A 		.ascii	"\257:\260J\300pUn`\260\236\301Z\006\353\030ld\360\025"
 2493      C070556E 
 2493      60B09EC1 
 2493      5A06EB18 
 2493      6C64F015 
 2494 0b25 83350CEA 		.ascii	"\2035\014\352\371B\343\304[5\342e!\304\201\242\316A"
 2494      F942E3C4 
 2494      5B35E265 
 2494      21C481A2 
 2494      CE41
 2495 0b37 9B35D08A 		.ascii	"\2335\320\212\020\320L\315\302f\015\263<\034\243\020"
 2495      10D04CCD 
 2495      C2660DB3 
 2495      3C1CA310 
 2496 0b47 3569A02F 		.ascii	"5i\240/C@\026\015\263I\303\254\014\303\310\272\266h"
 2496      4340160D 
 2496      B349C3AC 
 2496      0CC3C8BA 
 2496      B668
 2497 0b59 902FC28D 		.ascii	"\220/\302\215N\346\351,^\274r\037\325\326M\020\346k"
 2497      4EE6E92C 
 2497      5EBC721F 
 2497      D5D64D10 
 2497      E66B
 2498 0b6b 26B6D8EC 		.ascii	"&\266\330\3543gKt\032`\267\266\260\032ylX\362 \022\225"
 2498      33674B74 
 2498      1A60B7B6 
 2498      B01A796C 
 2498      58F22012 
 2499 0b80 E5CDFD60 		.ascii	"\345\315\375`\260\273\177.1;\363\275>\367\304\376\271"
 2499      B0BB7F2E 
 2499      313BF3BD 
 2499      3EF7C4FE 
 2499      B9
 2500 0b91 03C9F38E 		.ascii	"\003\311\363\216\002\274wx\274\357;\334\005\236\234"
 2500      02BC7778 
 2500      BCEF3BDC 
 2500      059E9C
 2501 0ba0 FCF113DC 		.ascii	"\374\361\023\334\003\012\262\274\276\001Iq\341O\006"
 2501      030AB2BC 
 2501      BE014971 
 2501      E14F06
 2502 0baf 0EB058B3 		.ascii	"\016\260X\263=\357y\306\330\035)I\003R\007$Y\362\013"
 2502      3DEF79C6 
 2502      D81D2949 
 2502      03520724 
 2502      59F20B
 2503 0bc2 2DCEFCDC 		.ascii	"-\316\374\334\334\374<\013\007\027Z\322l\243\254\243"
 2503      DCFC3C0B 
 2503      07175AD2 
 2503      6CA3ACA3 
 2504 0bd2 265A9CD9 		.ascii	"&Z\234\331\250\301\355\370`p\356\000\247\351\365\321"
 2504      A8C1EDF8 
ARM GAS  /tmp/ccz8Y2A9.s 			page 81


 2504      6070EE00 
 2504      A7E9F5D1 
 2505 0be2 6F255893 		.ascii	"o%X\223\007\223\337\005\217\016p\017I\035\344tg\375"
 2505      0793DF05 
 2505      8F0E700F 
 2505      491DE474 
 2505      67FD
 2506 0bf4 99F4B764 		.ascii	"\231\364\267d\347\347\272-\236\254\334\002\257\307\227"
 2506      E7E7BA2D 
 2506      9EACDC02 
 2506      AFC797
 2507 0c03 FD81A730 		.ascii	"\375\201\2470\333\355\363}d\261\246\333\013\262\234"
 2507      DBEDF37D 
 2507      64B1A6DB 
 2507      0BB29C
 2508 0c12 6E4B6EAE 		.ascii	"nKn\2563u`\362 \207\317]\350K!\257\375\026\023\310\263"
 2508      337560F2 
 2508      2087CF5D 
 2508      E84B21AF 
 2508      FD1613C8 
 2509 0c27 B22F851F 		.ascii	"\262/\205\037z|\316l\307\277\274\371\271\016O\241\367"
 2509      7A7CCE6C 
 2509      C7BFBCF9 
 2509      B90E4FA1 
 2509      F7
 2510 0c38 B7706593 		.ascii	"\267pe\223\2762\227{\242\307\2472\365\262\217\263:F"
 2510      BE32977B 
 2510      A2C7A732 
 2510      F5B28FB3 
 2510      3A46
 2511 0c4a 66E5B972 		.ascii	"f\345\271r\334\336(9ly\036\337\363\316l\2733;\2430\323"
 2511      DCDE2839 
 2511      6C791EDF 
 2511      F3CE6CBB 
 2511      333BA330 
 2512 0c5f EB76E716 		.ascii	"\353v\347\026\370<\371y6\367\373\023<^\267K\357\030"
 2512      F83CF979 
 2512      36F7FB13 
 2512      3C5EB74B 
 2512      EF18
 2513 0c71 969F9F93 		.ascii	"\226\237\237\223\030I\277\327g\361\3449s&\270\334\250"
 2513      1849BFD7 
 2513      67F1E439 
 2513      7326B8DC 
 2513      A8
 2514 0c82 B6D099ED 		.ascii	"\266\320\231\355B\225\246\011\236<_j\212\303\247sfg"
 2514      4295A609 
 2514      9E3C5F6A 
 2514      8AC3A773 
 2514      6667
 2515 0c94 79A31C8E 		.ascii	"y\243\034\216\361n\237#\323\236\331;+\347\303\254\217"
 2515      F16E9F23 
 2515      D39ED93B 
 2515      2BE7C3AC 
 2515      8F
 2516 0ca5 0A51598E 		.ascii	"\012QY\216'\317=\354W\334qO\364qg,\326Q\366\014\273"
 2516      27CF3DEC 
ARM GAS  /tmp/ccz8Y2A9.s 			page 82


 2516      57DC714F 
 2516      F471672C 
 2516      D651F60C 
 2517 0cba C58ADE58 		.ascii	"\305\212\336X2\002Zr\013=\205\216\361N'*B\352B\205Z"
 2517      32025A72 
 2517      0B3D858E 
 2517      F14E272A 
 2517      42EA4285 
 2518 0ccf BE1B9666 		.ascii	"\276\033\226f\037\236i\313\210\027>M\310\313\311w\376"
 2518      1F9E69CB 
 2518      88173E4D 
 2518      C8CBC977 
 2518      FE
 2519 0ce0 5B733A68 		.ascii	"[s:h0*\303\366\327<\307\330\217\012\334Q\266\341\366"
 2519      302AC3F6 
 2519      D73CC7D8 
 2519      8F0ADC51 
 2519      B6E1F6
 2520 0cf3 E1B671C3 		.ascii	"\341\266q\303\323\223t\031\3664\233n\324\250\0216\226"
 2520      D3937419 
 2520      F6349B6E 
 2520      D4A81136 
 2520      96
 2521 0d04 966E63E9 		.ascii	"\226nc\351\330f\216\260\351\322F\330m\272a#\322lz|\204"
 2521      D8668EB0 
 2521      E9D246D8 
 2521      6DBA6123 
 2521      D26C7A7C 
 2522 0d19 8074DE1F 		.ascii	"\200t\336\037\311/V\274\350\355#\255v\033\263\217\314"
 2522      C92F56BC 
 2522      E8ED23AD 
 2522      761BB38F 
 2522      CC
 2523 0d2a 3472A787 		.ascii	"4r\247\2078|\314j\305\276\325\246O\313\260Ym\272qc\307"
 2523      387CCC6A 
 2523      C5BED5A6 
 2523      4FCBB059 
 2523      6DBA7163 
 2524 0d3f D8741988 		.ascii	"\330t\031\210\321[3\337\312H\307k\232\325\226\366\033"
 2524      D15B33DF 
 2524      CA48C76B 
 2524      9AD596F6 
 2524      1B
 2525 0d50 5DE75975 		.ascii	"]\347Yu\346\016\344!\266[\207\011\373\365\351V[\272"
 2525      E60EE421 
 2525      B65B8709 
 2525      FBF5E956 
 2525      5BBA
 2526 0d62 8D5F5145 		.ascii	"\215_QE:7F\237>|\224\325\326\207\317Lw\2777a\274\014"
 2526      3A37469F 
 2526      3E7C94D5 
 2526      D687CF4C 
 2526      77BF3761 
 2527 0d78 1B95667F 		.ascii	"\033\225f\177#Uo\0353*3Uu9%j\304[\243\255c3\306\214"
 2527      23556F1D 
 2527      332A3355 
 2527      7539256A 
ARM GAS  /tmp/ccz8Y2A9.s 			page 83


 2527      C45BA3AD 
 2528 0d90 4E11CF53 		.ascii	"N\021\317S\304\363\024\365y\262\372<Y<O\026\317\265"
 2528      C4F314F5 
 2528      79B2FA3C 
 2528      593C4F16 
 2528      CFB5
 2529 0da2 D124319A 		.ascii	"\321$1\232$F\223t\231\250\3338b\314\233\351\326\321"
 2529      24469374 
 2529      99A8DB38 
 2529      62CC9BE9 
 2529      D6D1
 2530 0db4 630D6FDA 		.ascii	"c\015o\332\337\302\306d\177s\370\360L\336\037\376\216"
 2530      DFC2C664 
 2530      7F73F8F0 
 2530      4CDE1FFE 
 2530      8E
 2531 0dc5 9537D6CC 		.ascii	"\2257\326\314\014\321\274\313{:\353X\333\233*Y\252)"
 2531      0CD1BCCB 
 2531      7B3AEB58 
 2531      DB9B2A59 
 2531      AA29
 2532 0dd7 FDEDB1C2 		.ascii	"\375\355\261\302\326\337;\034\243\307eX\035v\267/\323"
 2532      D6DF3B1C 
 2532      A3C76558 
 2532      1D76B72F 
 2532      D3
 2533 0de8 EBC9C75D 		.ascii	"\353\311\307]\366\321\353\336\374\011\005\236\274\361"
 2533      F6D1EBDE 
 2533      FC09059E 
 2533      BCF1
 2534 0df6 71E18FA2 		.ascii	"q\341\217\242\035\016w^\326{9n\276\365\343D\216C\322"
 2534      1D0E775E 
 2534      D67B396E 
 2534      BEF5E344 
 2534      8E43D2
 2535 0e09 1EA50EE9 		.ascii	"\036\245\016\351&\026\024zi\201\323\220\343u\370\262"
 2535      2616147A 
 2535      6981D390 
 2535      E375F8B2 
 2536 0e19 5DCC9B9C 		.ascii	"]\314\233\234B\275\251\324\213\327d\352M\352\245\354"
 2536      42BDA9D4 
 2536      8BD764EA 
 2536      4DEAA5EC 
 2537 0e29 139FD337 		.ascii	"\023\237\3237\361\177\023z\212w"
 2537      F17F137A 
 2537      8A77
 2538              		.text
 2539              		.section	.gnu.lto_.symtab.77b3254072e8f9f4,"e",%progbits
 2540 0000 5356435F 		.ascii	"SVC_Handler\000"
 2540      48616E64 
 2540      6C657200 
 2541 000c 00       		.ascii	"\000"
 2542 000d 00       		.ascii	"\000"
 2543 000e 00       		.ascii	"\000"
 2544 000f 00000000 		.ascii	"\000\000\000\000\000\000\000\000"
 2544      00000000 
 2545 0017 C4000000 		.ascii	"\304\000\000\000"
ARM GAS  /tmp/ccz8Y2A9.s 			page 84


 2546 001b 706F7274 		.ascii	"port_init\000"
 2546      5F696E69 
 2546      7400
 2547 0025 00       		.ascii	"\000"
 2548 0026 00       		.ascii	"\000"
 2549 0027 00       		.ascii	"\000"
 2550 0028 00000000 		.ascii	"\000\000\000\000\000\000\000\000"
 2550      00000000 
 2551 0030 C6000000 		.ascii	"\306\000\000\000"
 2552 0034 5F706F72 		.ascii	"_port_irq_epilogue\000"
 2552      745F6972 
 2552      715F6570 
 2552      696C6F67 
 2552      756500
 2553 0047 00       		.ascii	"\000"
 2554 0048 00       		.ascii	"\000"
 2555 0049 00       		.ascii	"\000"
 2556 004a 00000000 		.ascii	"\000\000\000\000\000\000\000\000"
 2556      00000000 
 2557 0052 BD000000 		.ascii	"\275\000\000\000"
 2558 0056 5F706F72 		.ascii	"_port_switch_from_isr\000"
 2558      745F7377 
 2558      69746368 
 2558      5F66726F 
 2558      6D5F6973 
 2559 006c 00       		.ascii	"\000"
 2560 006d 02       		.ascii	"\002"
 2561 006e 00       		.ascii	"\000"
 2562 006f 00000000 		.ascii	"\000\000\000\000\000\000\000\000"
 2562      00000000 
 2563 0077 C0000000 		.ascii	"\300\000\000\000"
 2564 007b 5F706F72 		.ascii	"_port_exit_from_isr\000"
 2564      745F6578 
 2564      69745F66 
 2564      726F6D5F 
 2564      69737200 
 2565 008f 00       		.ascii	"\000"
 2566 0090 02       		.ascii	"\002"
 2567 0091 00       		.ascii	"\000"
 2568 0092 00000000 		.ascii	"\000\000\000\000\000\000\000\000"
 2568      00000000 
 2569 009a C2000000 		.ascii	"\302\000\000\000"
 2570 009e 63685363 		.ascii	"chSchIsPreemptionRequired\000"
 2570      68497350 
 2570      7265656D 
 2570      7074696F 
 2570      6E526571 
 2571 00b8 00       		.ascii	"\000"
 2572 00b9 02       		.ascii	"\002"
 2573 00ba 00       		.ascii	"\000"
 2574 00bb 00000000 		.ascii	"\000\000\000\000\000\000\000\000"
 2574      00000000 
 2575 00c3 CD000000 		.ascii	"\315\000\000\000"
 2576              		.text
 2577              		.section	.gnu.lto_.ext_symtab.77b3254072e8f9f4,"e",%progbits
 2578 0000 01       		.ascii	"\001"
 2579 0001 01       		.ascii	"\001"
ARM GAS  /tmp/ccz8Y2A9.s 			page 85


 2580 0002 00       		.ascii	"\000"
 2581 0003 01       		.ascii	"\001"
 2582 0004 00       		.ascii	"\000"
 2583 0005 01       		.ascii	"\001"
 2584 0006 00       		.ascii	"\000"
 2585 0007 01       		.ascii	"\001"
 2586 0008 00       		.ascii	"\000"
 2587 0009 01       		.ascii	"\001"
 2588 000a 00       		.ascii	"\000"
 2589 000b 01       		.ascii	"\001"
 2590 000c 00       		.ascii	"\000"
 2591              		.text
 2592              		.section	.gnu.lto_.opts,"e",%progbits
 2593 0000 272D666E 		.ascii	"'-fno-openmp' '-fno-openacc' '-fno-pie' '-fcf-prote"
 2593      6F2D6F70 
 2593      656E6D70 
 2593      2720272D 
 2593      666E6F2D 
 2594 0033 6374696F 		.ascii	"ction=none' '-g' '-mcpu=cortex-m4' '-mthumb' '-mflo"
 2594      6E3D6E6F 
 2594      6E652720 
 2594      272D6727 
 2594      20272D6D 
 2595 0066 61742D61 		.ascii	"at-abi=soft' '-march=armv7e-m' '-O2' '-fomit-frame-"
 2595      62693D73 
 2595      6F667427 
 2595      20272D6D 
 2595      61726368 
 2596 0099 706F696E 		.ascii	"pointer' '-falign-functions=16' '-ffunction-section"
 2596      74657227 
 2596      20272D66 
 2596      616C6967 
 2596      6E2D6675 
 2597 00cc 73272027 		.ascii	"s' '-fdata-sections' '-fno-common' '-flto' '-Xassem"
 2597      2D666461 
 2597      74612D73 
 2597      65637469 
 2597      6F6E7327 
 2598 00ff 626C6572 		.ascii	"bler' '-alms=./build/lst/chcore_v7m.lst'\000"
 2598      2720272D 
 2598      616C6D73 
 2598      3D2E2F62 
 2598      75696C64 
 2599              		.text
 2600              		.comm	__gnu_lto_slim,1,1
 2601              		.ident	"GCC: (GNU Arm Embedded Toolchain 10-2020-q4-major) 10.2.1 20201103 (release)"
ARM GAS  /tmp/ccz8Y2A9.s 			page 86


DEFINED SYMBOLS
                            *ABS*:0000000000000000 chcore_v7m.c
     /tmp/ccz8Y2A9.s:23     .gnu.debuglto_.debug_info:0000000000000000 chcore_v7m.c.e836cea9
                            *COM*:0000000000000001 __gnu_lto_slim

NO UNDEFINED SYMBOLS
