ARM GAS  /tmp/cc5rUxS6.s 			page 1


   1              		.cpu cortex-m4
   2              		.eabi_attribute 20, 1
   3              		.eabi_attribute 21, 1
   4              		.eabi_attribute 23, 3
   5              		.eabi_attribute 24, 1
   6              		.eabi_attribute 25, 1
   7              		.eabi_attribute 26, 1
   8              		.eabi_attribute 30, 2
   9              		.eabi_attribute 34, 1
  10              		.eabi_attribute 18, 4
  11              		.file	"chdynamic.c"
  12              		.file 1 "/usr/share/gcc-arm-none-eabi-10-2020-q4-major/lib/gcc/arm-none-eabi/10.2.1/include/stddef
  13              		.file 2 "/usr/share/gcc-arm-none-eabi-10-2020-q4-major/arm-none-eabi/include/machine/_default_type
  14              		.file 3 "/usr/share/gcc-arm-none-eabi-10-2020-q4-major/arm-none-eabi/include/sys/_stdint.h"
  15              		.file 4 "./ChibiOS_20.3.0/os/common/ports/ARMCMx/compilers/GCC/chtypes.h"
  16              		.file 5 "./ChibiOS_20.3.0/os/rt/include/chsystypes.h"
  17              		.file 6 "./ChibiOS_20.3.0/os/rt/include/chschd.h"
  18              		.file 7 "./ChibiOS_20.3.0/os/common/ports/ARMCMx/chcore.h"
  19              		.file 8 "./ChibiOS_20.3.0/os/common/ports/ARMCMx/chcore_v7m.h"
  20              		.file 9 "./ChibiOS_20.3.0/os/rt/include/chsem.h"
  21              		.file 10 "./ChibiOS_20.3.0/os/rt/include/chmtx.h"
  22              		.file 11 "./ChibiOS_20.3.0/os/rt/include/chthreads.h"
  23              		.file 12 "./ChibiOS_20.3.0/os/oslib/include/chmemcore.h"
  24              		.file 13 "./ChibiOS_20.3.0/os/oslib/include/chmemheaps.h"
  25              		.file 14 "./ChibiOS_20.3.0/os/oslib/include/chmempools.h"
  26              		.file 15 "./ChibiOS_20.3.0/os/rt/src/chdynamic.c"
  27              		.file 16 "./ChibiOS_20.3.0/os/rt/include/chsys.h"
  28              		.file 17 "./ChibiOS_20.3.0/os/common/ext/ARM/CMSIS/Core/Include/cmsis_gcc.h"
  29              		.section	.gnu.debuglto_.debug_info,"e",%progbits
  30              	.Ldebug_info0:
  31              		.hidden	chdynamic.c.801109b1
  32              		.weak	chdynamic.c.801109b1
  33              	chdynamic.c.801109b1:
  34 0000 BE070000 		.4byte	0x7be
  35 0004 0400     		.2byte	0x4
  36 0006 00000000 		.4byte	.Ldebug_abbrev0
  37 000a 04       		.byte	0x4
  38 000b 01       		.uleb128 0x1
  39 000c 54020000 		.4byte	.LASF96
  40 0010 0C       		.byte	0xc
  41 0011 2F010000 		.4byte	.LASF97
  42 0015 56010000 		.4byte	.LASF98
  43 0019 00000000 		.4byte	.Ldebug_line0
  44 001d 02       		.uleb128 0x2
  45 001e 04       		.byte	0x4
  46 001f 05       		.byte	0x5
  47 0020 696E7400 		.ascii	"int\000"
  48 0024 03       		.uleb128 0x3
  49 0025 36000000 		.4byte	.LASF4
  50 0029 01       		.byte	0x1
  51 002a D1       		.byte	0xd1
  52 002b 17       		.byte	0x17
  53 002c 30000000 		.4byte	0x30
  54 0030 04       		.uleb128 0x4
  55 0031 04       		.byte	0x4
  56 0032 07       		.byte	0x7
  57 0033 39020000 		.4byte	.LASF0
ARM GAS  /tmp/cc5rUxS6.s 			page 2


  58 0037 04       		.uleb128 0x4
  59 0038 08       		.byte	0x8
  60 0039 05       		.byte	0x5
  61 003a 12010000 		.4byte	.LASF1
  62 003e 04       		.uleb128 0x4
  63 003f 08       		.byte	0x8
  64 0040 04       		.byte	0x4
  65 0041 FE000000 		.4byte	.LASF2
  66 0045 04       		.uleb128 0x4
  67 0046 01       		.byte	0x1
  68 0047 06       		.byte	0x6
  69 0048 15020000 		.4byte	.LASF3
  70 004c 03       		.uleb128 0x3
  71 004d 99010000 		.4byte	.LASF5
  72 0051 02       		.byte	0x2
  73 0052 2B       		.byte	0x2b
  74 0053 18       		.byte	0x18
  75 0054 58000000 		.4byte	0x58
  76 0058 04       		.uleb128 0x4
  77 0059 01       		.byte	0x1
  78 005a 08       		.byte	0x8
  79 005b E2010000 		.4byte	.LASF6
  80 005f 04       		.uleb128 0x4
  81 0060 02       		.byte	0x2
  82 0061 05       		.byte	0x5
  83 0062 97000000 		.4byte	.LASF7
  84 0066 04       		.uleb128 0x4
  85 0067 02       		.byte	0x2
  86 0068 07       		.byte	0x7
  87 0069 36030000 		.4byte	.LASF8
  88 006d 03       		.uleb128 0x3
  89 006e 17040000 		.4byte	.LASF9
  90 0072 02       		.byte	0x2
  91 0073 4D       		.byte	0x4d
  92 0074 18       		.byte	0x18
  93 0075 79000000 		.4byte	0x79
  94 0079 04       		.uleb128 0x4
  95 007a 04       		.byte	0x4
  96 007b 05       		.byte	0x5
  97 007c 83010000 		.4byte	.LASF10
  98 0080 03       		.uleb128 0x3
  99 0081 D9030000 		.4byte	.LASF11
 100 0085 02       		.byte	0x2
 101 0086 4F       		.byte	0x4f
 102 0087 19       		.byte	0x19
 103 0088 8C000000 		.4byte	0x8c
 104 008c 04       		.uleb128 0x4
 105 008d 04       		.byte	0x4
 106 008e 07       		.byte	0x7
 107 008f C7030000 		.4byte	.LASF12
 108 0093 03       		.uleb128 0x3
 109 0094 B2030000 		.4byte	.LASF13
 110 0098 02       		.byte	0x2
 111 0099 69       		.byte	0x69
 112 009a 19       		.byte	0x19
 113 009b 9F000000 		.4byte	0x9f
 114 009f 04       		.uleb128 0x4
ARM GAS  /tmp/cc5rUxS6.s 			page 3


 115 00a0 08       		.byte	0x8
 116 00a1 07       		.byte	0x7
 117 00a2 4B000000 		.4byte	.LASF14
 118 00a6 03       		.uleb128 0x3
 119 00a7 BE000000 		.4byte	.LASF15
 120 00ab 03       		.byte	0x3
 121 00ac 18       		.byte	0x18
 122 00ad 13       		.byte	0x13
 123 00ae 4C000000 		.4byte	0x4c
 124 00b2 03       		.uleb128 0x3
 125 00b3 63030000 		.4byte	.LASF16
 126 00b7 03       		.byte	0x3
 127 00b8 2C       		.byte	0x2c
 128 00b9 13       		.byte	0x13
 129 00ba 6D000000 		.4byte	0x6d
 130 00be 03       		.uleb128 0x3
 131 00bf 09000000 		.4byte	.LASF17
 132 00c3 03       		.byte	0x3
 133 00c4 30       		.byte	0x30
 134 00c5 14       		.byte	0x14
 135 00c6 80000000 		.4byte	0x80
 136 00ca 03       		.uleb128 0x3
 137 00cb 28000000 		.4byte	.LASF18
 138 00cf 03       		.byte	0x3
 139 00d0 3C       		.byte	0x3c
 140 00d1 14       		.byte	0x14
 141 00d2 93000000 		.4byte	0x93
 142 00d6 03       		.uleb128 0x3
 143 00d7 0A010000 		.4byte	.LASF19
 144 00db 04       		.byte	0x4
 145 00dc 2A       		.byte	0x2a
 146 00dd 1D       		.byte	0x1d
 147 00de A6000000 		.4byte	0xa6
 148 00e2 03       		.uleb128 0x3
 149 00e3 41040000 		.4byte	.LASF20
 150 00e7 04       		.byte	0x4
 151 00e8 2B       		.byte	0x2b
 152 00e9 1D       		.byte	0x1d
 153 00ea A6000000 		.4byte	0xa6
 154 00ee 03       		.uleb128 0x3
 155 00ef D2040000 		.4byte	.LASF21
 156 00f3 04       		.byte	0x4
 157 00f4 2C       		.byte	0x2c
 158 00f5 1D       		.byte	0x1d
 159 00f6 A6000000 		.4byte	0xa6
 160 00fa 03       		.uleb128 0x3
 161 00fb 27010000 		.4byte	.LASF22
 162 00ff 04       		.byte	0x4
 163 0100 2E       		.byte	0x2e
 164 0101 1D       		.byte	0x1d
 165 0102 BE000000 		.4byte	0xbe
 166 0106 03       		.uleb128 0x3
 167 0107 B2040000 		.4byte	.LASF23
 168 010b 04       		.byte	0x4
 169 010c 2F       		.byte	0x2f
 170 010d 1D       		.byte	0x1d
 171 010e B2000000 		.4byte	0xb2
ARM GAS  /tmp/cc5rUxS6.s 			page 4


 172 0112 03       		.uleb128 0x3
 173 0113 76000000 		.4byte	.LASF24
 174 0117 04       		.byte	0x4
 175 0118 31       		.byte	0x31
 176 0119 1D       		.byte	0x1d
 177 011a BE000000 		.4byte	0xbe
 178 011e 03       		.uleb128 0x3
 179 011f 77030000 		.4byte	.LASF25
 180 0123 04       		.byte	0x4
 181 0124 33       		.byte	0x33
 182 0125 1D       		.byte	0x1d
 183 0126 B2000000 		.4byte	0xb2
 184 012a 03       		.uleb128 0x3
 185 012b 00000000 		.4byte	.LASF26
 186 012f 05       		.byte	0x5
 187 0130 34       		.byte	0x34
 188 0131 1A       		.byte	0x1a
 189 0132 36010000 		.4byte	0x136
 190 0136 05       		.uleb128 0x5
 191 0137 E7000000 		.4byte	.LASF44
 192 013b 44       		.byte	0x44
 193 013c 06       		.byte	0x6
 194 013d 8E       		.byte	0x8e
 195 013e 08       		.byte	0x8
 196 013f 26020000 		.4byte	0x226
 197 0143 06       		.uleb128 0x6
 198 0144 D7010000 		.4byte	.LASF27
 199 0148 06       		.byte	0x6
 200 0149 8F       		.byte	0x8f
 201 014a 19       		.byte	0x19
 202 014b 5F020000 		.4byte	0x25f
 203 014f 00       		.byte	0
 204 0150 06       		.uleb128 0x6
 205 0151 B8040000 		.4byte	.LASF28
 206 0155 06       		.byte	0x6
 207 0156 90       		.byte	0x90
 208 0157 19       		.byte	0x19
 209 0158 FA000000 		.4byte	0xfa
 210 015c 08       		.byte	0x8
 211 015d 07       		.uleb128 0x7
 212 015e 63747800 		.ascii	"ctx\000"
 213 0162 06       		.byte	0x6
 214 0163 91       		.byte	0x91
 215 0164 19       		.byte	0x19
 216 0165 38030000 		.4byte	0x338
 217 0169 0C       		.byte	0xc
 218 016a 06       		.uleb128 0x6
 219 016b D1010000 		.4byte	.LASF29
 220 016f 06       		.byte	0x6
 221 0170 93       		.byte	0x93
 222 0171 1A       		.byte	0x1a
 223 0172 32020000 		.4byte	0x232
 224 0176 10       		.byte	0x10
 225 0177 06       		.uleb128 0x6
 226 0178 F1000000 		.4byte	.LASF30
 227 017c 06       		.byte	0x6
 228 017d 94       		.byte	0x94
ARM GAS  /tmp/cc5rUxS6.s 			page 5


 229 017e 1A       		.byte	0x1a
 230 017f 32020000 		.4byte	0x232
 231 0183 14       		.byte	0x14
 232 0184 06       		.uleb128 0x6
 233 0185 DD010000 		.4byte	.LASF31
 234 0189 06       		.byte	0x6
 235 018a 9B       		.byte	0x9b
 236 018b 1A       		.byte	0x1a
 237 018c 34040000 		.4byte	0x434
 238 0190 18       		.byte	0x18
 239 0191 06       		.uleb128 0x6
 240 0192 F7000000 		.4byte	.LASF32
 241 0196 06       		.byte	0x6
 242 0197 A4       		.byte	0xa4
 243 0198 1A       		.byte	0x1a
 244 0199 46040000 		.4byte	0x446
 245 019d 1C       		.byte	0x1c
 246 019e 06       		.uleb128 0x6
 247 019f 22000000 		.4byte	.LASF33
 248 01a3 06       		.byte	0x6
 249 01a4 A9       		.byte	0xa9
 250 01a5 19       		.byte	0x19
 251 01a6 E2000000 		.4byte	0xe2
 252 01aa 20       		.byte	0x20
 253 01ab 06       		.uleb128 0x6
 254 01ac 21020000 		.4byte	.LASF34
 255 01b0 06       		.byte	0x6
 256 01b1 AD       		.byte	0xad
 257 01b2 19       		.byte	0x19
 258 01b3 D6000000 		.4byte	0xd6
 259 01b7 21       		.byte	0x21
 260 01b8 06       		.uleb128 0x6
 261 01b9 C2030000 		.4byte	.LASF35
 262 01bd 06       		.byte	0x6
 263 01be B2       		.byte	0xb2
 264 01bf 19       		.byte	0x19
 265 01c0 EE000000 		.4byte	0xee
 266 01c4 22       		.byte	0x22
 267 01c5 08       		.uleb128 0x8
 268 01c6 7500     		.ascii	"u\000"
 269 01c8 06       		.byte	0x6
 270 01c9 0301     		.2byte	0x103
 271 01cb 19       		.byte	0x19
 272 01cc 5A030000 		.4byte	0x35a
 273 01d0 24       		.byte	0x24
 274 01d1 09       		.uleb128 0x9
 275 01d2 90040000 		.4byte	.LASF36
 276 01d6 06       		.byte	0x6
 277 01d7 0801     		.2byte	0x108
 278 01d9 19       		.byte	0x19
 279 01da 38020000 		.4byte	0x238
 280 01de 28       		.byte	0x28
 281 01df 09       		.uleb128 0x9
 282 01e0 A1000000 		.4byte	.LASF37
 283 01e4 06       		.byte	0x6
 284 01e5 0E01     		.2byte	0x10e
 285 01e7 19       		.byte	0x19
ARM GAS  /tmp/cc5rUxS6.s 			page 6


 286 01e8 5F020000 		.4byte	0x25f
 287 01ec 2C       		.byte	0x2c
 288 01ed 09       		.uleb128 0x9
 289 01ee 19000000 		.4byte	.LASF38
 290 01f2 06       		.byte	0x6
 291 01f3 1401     		.2byte	0x114
 292 01f5 19       		.byte	0x19
 293 01f6 12010000 		.4byte	0x112
 294 01fa 34       		.byte	0x34
 295 01fb 09       		.uleb128 0x9
 296 01fc 98040000 		.4byte	.LASF39
 297 0200 06       		.byte	0x6
 298 0201 1B01     		.2byte	0x11b
 299 0203 1A       		.byte	0x1a
 300 0204 2E040000 		.4byte	0x42e
 301 0208 38       		.byte	0x38
 302 0209 09       		.uleb128 0x9
 303 020a 7D030000 		.4byte	.LASF40
 304 020e 06       		.byte	0x6
 305 020f 1F01     		.2byte	0x11f
 306 0211 19       		.byte	0x19
 307 0212 FA000000 		.4byte	0xfa
 308 0216 3C       		.byte	0x3c
 309 0217 09       		.uleb128 0x9
 310 0218 5E040000 		.4byte	.LASF41
 311 021c 06       		.byte	0x6
 312 021d 2601     		.2byte	0x126
 313 021f 1A       		.byte	0x1a
 314 0220 A4020000 		.4byte	0x2a4
 315 0224 40       		.byte	0x40
 316 0225 00       		.byte	0
 317 0226 03       		.uleb128 0x3
 318 0227 27040000 		.4byte	.LASF42
 319 022b 05       		.byte	0x5
 320 022c 39       		.byte	0x39
 321 022d 14       		.byte	0x14
 322 022e 32020000 		.4byte	0x232
 323 0232 0A       		.uleb128 0xa
 324 0233 04       		.byte	0x4
 325 0234 2A010000 		.4byte	0x12a
 326 0238 03       		.uleb128 0x3
 327 0239 FF010000 		.4byte	.LASF43
 328 023d 05       		.byte	0x5
 329 023e 3E       		.byte	0x3e
 330 023f 20       		.byte	0x20
 331 0240 44020000 		.4byte	0x244
 332 0244 05       		.uleb128 0x5
 333 0245 87000000 		.4byte	.LASF45
 334 0249 04       		.byte	0x4
 335 024a 06       		.byte	0x6
 336 024b 7C       		.byte	0x7c
 337 024c 08       		.byte	0x8
 338 024d 5F020000 		.4byte	0x25f
 339 0251 06       		.uleb128 0x6
 340 0252 51030000 		.4byte	.LASF46
 341 0256 06       		.byte	0x6
 342 0257 7D       		.byte	0x7d
ARM GAS  /tmp/cc5rUxS6.s 			page 7


 343 0258 1A       		.byte	0x1a
 344 0259 32020000 		.4byte	0x232
 345 025d 00       		.byte	0
 346 025e 00       		.byte	0
 347 025f 03       		.uleb128 0x3
 348 0260 26030000 		.4byte	.LASF47
 349 0264 05       		.byte	0x5
 350 0265 45       		.byte	0x45
 351 0266 21       		.byte	0x21
 352 0267 6B020000 		.4byte	0x26b
 353 026b 05       		.uleb128 0x5
 354 026c C6000000 		.4byte	.LASF48
 355 0270 08       		.byte	0x8
 356 0271 06       		.byte	0x6
 357 0272 83       		.byte	0x83
 358 0273 08       		.byte	0x8
 359 0274 93020000 		.4byte	0x293
 360 0278 06       		.uleb128 0x6
 361 0279 51030000 		.4byte	.LASF46
 362 027d 06       		.byte	0x6
 363 027e 84       		.byte	0x84
 364 027f 1A       		.byte	0x1a
 365 0280 32020000 		.4byte	0x232
 366 0284 00       		.byte	0
 367 0285 06       		.uleb128 0x6
 368 0286 D7000000 		.4byte	.LASF49
 369 028a 06       		.byte	0x6
 370 028b 85       		.byte	0x85
 371 028c 1A       		.byte	0x1a
 372 028d 32020000 		.4byte	0x232
 373 0291 04       		.byte	0x4
 374 0292 00       		.byte	0
 375 0293 0A       		.uleb128 0xa
 376 0294 04       		.byte	0x4
 377 0295 99020000 		.4byte	0x299
 378 0299 0B       		.uleb128 0xb
 379 029a A4020000 		.4byte	0x2a4
 380 029e 0C       		.uleb128 0xc
 381 029f A4020000 		.4byte	0x2a4
 382 02a3 00       		.byte	0
 383 02a4 0D       		.uleb128 0xd
 384 02a5 04       		.byte	0x4
 385 02a6 03       		.uleb128 0x3
 386 02a7 4A040000 		.4byte	.LASF50
 387 02ab 07       		.byte	0x7
 388 02ac 68       		.byte	0x68
 389 02ad 12       		.byte	0x12
 390 02ae CA000000 		.4byte	0xca
 391 02b2 0E       		.uleb128 0xe
 392 02b3 0B040000 		.4byte	.LASF51
 393 02b7 24       		.byte	0x24
 394 02b8 08       		.byte	0x8
 395 02b9 8501     		.2byte	0x185
 396 02bb 08       		.byte	0x8
 397 02bc 38030000 		.4byte	0x338
 398 02c0 08       		.uleb128 0x8
 399 02c1 723400   		.ascii	"r4\000"
ARM GAS  /tmp/cc5rUxS6.s 			page 8


 400 02c4 08       		.byte	0x8
 401 02c5 9E01     		.2byte	0x19e
 402 02c7 11       		.byte	0x11
 403 02c8 BE000000 		.4byte	0xbe
 404 02cc 00       		.byte	0
 405 02cd 08       		.uleb128 0x8
 406 02ce 723500   		.ascii	"r5\000"
 407 02d1 08       		.byte	0x8
 408 02d2 9F01     		.2byte	0x19f
 409 02d4 11       		.byte	0x11
 410 02d5 BE000000 		.4byte	0xbe
 411 02d9 04       		.byte	0x4
 412 02da 08       		.uleb128 0x8
 413 02db 723600   		.ascii	"r6\000"
 414 02de 08       		.byte	0x8
 415 02df A001     		.2byte	0x1a0
 416 02e1 11       		.byte	0x11
 417 02e2 BE000000 		.4byte	0xbe
 418 02e6 08       		.byte	0x8
 419 02e7 08       		.uleb128 0x8
 420 02e8 723700   		.ascii	"r7\000"
 421 02eb 08       		.byte	0x8
 422 02ec A101     		.2byte	0x1a1
 423 02ee 11       		.byte	0x11
 424 02ef BE000000 		.4byte	0xbe
 425 02f3 0C       		.byte	0xc
 426 02f4 08       		.uleb128 0x8
 427 02f5 723800   		.ascii	"r8\000"
 428 02f8 08       		.byte	0x8
 429 02f9 A201     		.2byte	0x1a2
 430 02fb 11       		.byte	0x11
 431 02fc BE000000 		.4byte	0xbe
 432 0300 10       		.byte	0x10
 433 0301 08       		.uleb128 0x8
 434 0302 723900   		.ascii	"r9\000"
 435 0305 08       		.byte	0x8
 436 0306 A301     		.2byte	0x1a3
 437 0308 11       		.byte	0x11
 438 0309 BE000000 		.4byte	0xbe
 439 030d 14       		.byte	0x14
 440 030e 08       		.uleb128 0x8
 441 030f 72313000 		.ascii	"r10\000"
 442 0313 08       		.byte	0x8
 443 0314 A401     		.2byte	0x1a4
 444 0316 11       		.byte	0x11
 445 0317 BE000000 		.4byte	0xbe
 446 031b 18       		.byte	0x18
 447 031c 08       		.uleb128 0x8
 448 031d 72313100 		.ascii	"r11\000"
 449 0321 08       		.byte	0x8
 450 0322 A501     		.2byte	0x1a5
 451 0324 11       		.byte	0x11
 452 0325 BE000000 		.4byte	0xbe
 453 0329 1C       		.byte	0x1c
 454 032a 08       		.uleb128 0x8
 455 032b 6C7200   		.ascii	"lr\000"
 456 032e 08       		.byte	0x8
ARM GAS  /tmp/cc5rUxS6.s 			page 9


 457 032f A601     		.2byte	0x1a6
 458 0331 11       		.byte	0x11
 459 0332 BE000000 		.4byte	0xbe
 460 0336 20       		.byte	0x20
 461 0337 00       		.byte	0
 462 0338 0E       		.uleb128 0xe
 463 0339 8C010000 		.4byte	.LASF52
 464 033d 04       		.byte	0x4
 465 033e 08       		.byte	0x8
 466 033f A901     		.2byte	0x1a9
 467 0341 08       		.byte	0x8
 468 0342 54030000 		.4byte	0x354
 469 0346 08       		.uleb128 0x8
 470 0347 737000   		.ascii	"sp\000"
 471 034a 08       		.byte	0x8
 472 034b AA01     		.2byte	0x1aa
 473 034d 1A       		.byte	0x1a
 474 034e 54030000 		.4byte	0x354
 475 0352 00       		.byte	0
 476 0353 00       		.byte	0
 477 0354 0A       		.uleb128 0xa
 478 0355 04       		.byte	0x4
 479 0356 B2020000 		.4byte	0x2b2
 480 035a 0F       		.uleb128 0xf
 481 035b 04       		.byte	0x4
 482 035c 06       		.byte	0x6
 483 035d C6       		.byte	0xc6
 484 035e 03       		.byte	0x3
 485 035f C5030000 		.4byte	0x3c5
 486 0363 10       		.uleb128 0x10
 487 0364 AB040000 		.4byte	.LASF53
 488 0368 06       		.byte	0x6
 489 0369 CD       		.byte	0xcd
 490 036a 19       		.byte	0x19
 491 036b 06010000 		.4byte	0x106
 492 036f 10       		.uleb128 0x10
 493 0370 55040000 		.4byte	.LASF54
 494 0374 06       		.byte	0x6
 495 0375 D4       		.byte	0xd4
 496 0376 19       		.byte	0x19
 497 0377 06010000 		.4byte	0x106
 498 037b 10       		.uleb128 0x10
 499 037c 3A040000 		.4byte	.LASF55
 500 0380 06       		.byte	0x6
 501 0381 DB       		.byte	0xdb
 502 0382 1A       		.byte	0x1a
 503 0383 A4020000 		.4byte	0x2a4
 504 0387 10       		.uleb128 0x10
 505 0388 C5040000 		.4byte	.LASF56
 506 038c 06       		.byte	0x6
 507 038d E2       		.byte	0xe2
 508 038e 1A       		.byte	0x1a
 509 038f C5030000 		.4byte	0x3c5
 510 0393 10       		.uleb128 0x10
 511 0394 BD040000 		.4byte	.LASF57
 512 0398 06       		.byte	0x6
 513 0399 E7       		.byte	0xe7
ARM GAS  /tmp/cc5rUxS6.s 			page 10


 514 039a 19       		.byte	0x19
 515 039b 06010000 		.4byte	0x106
 516 039f 10       		.uleb128 0x10
 517 03a0 20010000 		.4byte	.LASF58
 518 03a4 06       		.byte	0x6
 519 03a5 F0       		.byte	0xf0
 520 03a6 1A       		.byte	0x1a
 521 03a7 F3030000 		.4byte	0x3f3
 522 03ab 10       		.uleb128 0x10
 523 03ac CB040000 		.4byte	.LASF59
 524 03b0 06       		.byte	0x6
 525 03b1 F9       		.byte	0xf9
 526 03b2 1A       		.byte	0x1a
 527 03b3 2E040000 		.4byte	0x42e
 528 03b7 11       		.uleb128 0x11
 529 03b8 0E020000 		.4byte	.LASF60
 530 03bc 06       		.byte	0x6
 531 03bd 0101     		.2byte	0x101
 532 03bf 19       		.byte	0x19
 533 03c0 12010000 		.4byte	0x112
 534 03c4 00       		.byte	0
 535 03c5 0A       		.uleb128 0xa
 536 03c6 04       		.byte	0x4
 537 03c7 26020000 		.4byte	0x226
 538 03cb 05       		.uleb128 0x5
 539 03cc FE030000 		.4byte	.LASF61
 540 03d0 0C       		.byte	0xc
 541 03d1 09       		.byte	0x9
 542 03d2 34       		.byte	0x34
 543 03d3 10       		.byte	0x10
 544 03d4 F3030000 		.4byte	0x3f3
 545 03d8 06       		.uleb128 0x6
 546 03d9 D7010000 		.4byte	.LASF27
 547 03dd 09       		.byte	0x9
 548 03de 35       		.byte	0x35
 549 03df 19       		.byte	0x19
 550 03e0 5F020000 		.4byte	0x25f
 551 03e4 00       		.byte	0
 552 03e5 07       		.uleb128 0x7
 553 03e6 636E7400 		.ascii	"cnt\000"
 554 03ea 09       		.byte	0x9
 555 03eb 37       		.byte	0x37
 556 03ec 19       		.byte	0x19
 557 03ed 1E010000 		.4byte	0x11e
 558 03f1 08       		.byte	0x8
 559 03f2 00       		.byte	0
 560 03f3 0A       		.uleb128 0xa
 561 03f4 04       		.byte	0x4
 562 03f5 CB030000 		.4byte	0x3cb
 563 03f9 05       		.uleb128 0x5
 564 03fa 27020000 		.4byte	.LASF62
 565 03fe 10       		.byte	0x10
 566 03ff 0A       		.byte	0xa
 567 0400 39       		.byte	0x39
 568 0401 08       		.byte	0x8
 569 0402 2E040000 		.4byte	0x42e
 570 0406 06       		.uleb128 0x6
ARM GAS  /tmp/cc5rUxS6.s 			page 11


 571 0407 D7010000 		.4byte	.LASF27
 572 040b 0A       		.byte	0xa
 573 040c 3A       		.byte	0x3a
 574 040d 19       		.byte	0x19
 575 040e 5F020000 		.4byte	0x25f
 576 0412 00       		.byte	0
 577 0413 06       		.uleb128 0x6
 578 0414 F9010000 		.4byte	.LASF63
 579 0418 0A       		.byte	0xa
 580 0419 3C       		.byte	0x3c
 581 041a 1A       		.byte	0x1a
 582 041b 32020000 		.4byte	0x232
 583 041f 08       		.byte	0x8
 584 0420 06       		.uleb128 0x6
 585 0421 51030000 		.4byte	.LASF46
 586 0425 0A       		.byte	0xa
 587 0426 3E       		.byte	0x3e
 588 0427 1A       		.byte	0x1a
 589 0428 C8040000 		.4byte	0x4c8
 590 042c 0C       		.byte	0xc
 591 042d 00       		.byte	0
 592 042e 0A       		.uleb128 0xa
 593 042f 04       		.byte	0x4
 594 0430 F9030000 		.4byte	0x3f9
 595 0434 0A       		.uleb128 0xa
 596 0435 04       		.byte	0x4
 597 0436 41040000 		.4byte	0x441
 598 043a 04       		.uleb128 0x4
 599 043b 01       		.byte	0x1
 600 043c 08       		.byte	0x8
 601 043d 56030000 		.4byte	.LASF64
 602 0441 12       		.uleb128 0x12
 603 0442 3A040000 		.4byte	0x43a
 604 0446 0A       		.uleb128 0xa
 605 0447 04       		.byte	0x4
 606 0448 A6020000 		.4byte	0x2a6
 607 044c 03       		.uleb128 0x3
 608 044d 5B030000 		.4byte	.LASF65
 609 0451 0B       		.byte	0xb
 610 0452 34       		.byte	0x34
 611 0453 10       		.byte	0x10
 612 0454 93020000 		.4byte	0x293
 613 0458 13       		.uleb128 0x13
 614 0459 18       		.byte	0x18
 615 045a 0B       		.byte	0xb
 616 045b 39       		.byte	0x39
 617 045c 09       		.byte	0x9
 618 045d B0040000 		.4byte	0x4b0
 619 0461 06       		.uleb128 0x6
 620 0462 DD010000 		.4byte	.LASF31
 621 0466 0B       		.byte	0xb
 622 0467 3D       		.byte	0x3d
 623 0468 16       		.byte	0x16
 624 0469 34040000 		.4byte	0x434
 625 046d 00       		.byte	0
 626 046e 06       		.uleb128 0x6
 627 046f 46020000 		.4byte	.LASF66
ARM GAS  /tmp/cc5rUxS6.s 			page 12


 628 0473 0B       		.byte	0xb
 629 0474 41       		.byte	0x41
 630 0475 16       		.byte	0x16
 631 0476 46040000 		.4byte	0x446
 632 047a 04       		.byte	0x4
 633 047b 06       		.uleb128 0x6
 634 047c 31000000 		.4byte	.LASF67
 635 0480 0B       		.byte	0xb
 636 0481 45       		.byte	0x45
 637 0482 16       		.byte	0x16
 638 0483 46040000 		.4byte	0x446
 639 0487 08       		.byte	0x8
 640 0488 06       		.uleb128 0x6
 641 0489 B8040000 		.4byte	.LASF28
 642 048d 0B       		.byte	0xb
 643 048e 49       		.byte	0x49
 644 048f 15       		.byte	0x15
 645 0490 FA000000 		.4byte	0xfa
 646 0494 0C       		.byte	0xc
 647 0495 06       		.uleb128 0x6
 648 0496 E1000000 		.4byte	.LASF68
 649 049a 0B       		.byte	0xb
 650 049b 4D       		.byte	0x4d
 651 049c 15       		.byte	0x15
 652 049d 4C040000 		.4byte	0x44c
 653 04a1 10       		.byte	0x10
 654 04a2 07       		.uleb128 0x7
 655 04a3 61726700 		.ascii	"arg\000"
 656 04a7 0B       		.byte	0xb
 657 04a8 51       		.byte	0x51
 658 04a9 16       		.byte	0x16
 659 04aa A4020000 		.4byte	0x2a4
 660 04ae 14       		.byte	0x14
 661 04af 00       		.byte	0
 662 04b0 03       		.uleb128 0x3
 663 04b1 BD010000 		.4byte	.LASF69
 664 04b5 0B       		.byte	0xb
 665 04b6 52       		.byte	0x52
 666 04b7 03       		.byte	0x3
 667 04b8 58040000 		.4byte	0x458
 668 04bc 03       		.uleb128 0x3
 669 04bd 4C020000 		.4byte	.LASF70
 670 04c1 0A       		.byte	0xa
 671 04c2 34       		.byte	0x34
 672 04c3 19       		.byte	0x19
 673 04c4 F9030000 		.4byte	0x3f9
 674 04c8 0A       		.uleb128 0xa
 675 04c9 04       		.byte	0x4
 676 04ca BC040000 		.4byte	0x4bc
 677 04ce 04       		.uleb128 0x4
 678 04cf 01       		.byte	0x1
 679 04d0 02       		.byte	0x2
 680 04d1 86030000 		.4byte	.LASF71
 681 04d5 03       		.uleb128 0x3
 682 04d6 19030000 		.4byte	.LASF72
 683 04da 0C       		.byte	0xc
 684 04db 47       		.byte	0x47
ARM GAS  /tmp/cc5rUxS6.s 			page 13


 685 04dc 11       		.byte	0x11
 686 04dd E1040000 		.4byte	0x4e1
 687 04e1 0A       		.uleb128 0xa
 688 04e2 04       		.byte	0x4
 689 04e3 E7040000 		.4byte	0x4e7
 690 04e7 14       		.uleb128 0x14
 691 04e8 A4020000 		.4byte	0x2a4
 692 04ec FB040000 		.4byte	0x4fb
 693 04f0 0C       		.uleb128 0xc
 694 04f1 24000000 		.4byte	0x24
 695 04f5 0C       		.uleb128 0xc
 696 04f6 30000000 		.4byte	0x30
 697 04fa 00       		.byte	0
 698 04fb 03       		.uleb128 0x3
 699 04fc F0030000 		.4byte	.LASF73
 700 0500 0C       		.byte	0xc
 701 0501 4C       		.byte	0x4c
 702 0502 11       		.byte	0x11
 703 0503 07050000 		.4byte	0x507
 704 0507 0A       		.uleb128 0xa
 705 0508 04       		.byte	0x4
 706 0509 0D050000 		.4byte	0x50d
 707 050d 14       		.uleb128 0x14
 708 050e A4020000 		.4byte	0x2a4
 709 0512 26050000 		.4byte	0x526
 710 0516 0C       		.uleb128 0xc
 711 0517 24000000 		.4byte	0x24
 712 051b 0C       		.uleb128 0xc
 713 051c 30000000 		.4byte	0x30
 714 0520 0C       		.uleb128 0xc
 715 0521 24000000 		.4byte	0x24
 716 0525 00       		.byte	0
 717 0526 03       		.uleb128 0x3
 718 0527 DA040000 		.4byte	.LASF74
 719 052b 0D       		.byte	0xd
 720 052c 48       		.byte	0x48
 721 052d 1C       		.byte	0x1c
 722 052e 32050000 		.4byte	0x532
 723 0532 05       		.uleb128 0x5
 724 0533 98030000 		.4byte	.LASF75
 725 0537 1C       		.byte	0x1c
 726 0538 0D       		.byte	0xd
 727 0539 60       		.byte	0x60
 728 053a 08       		.byte	0x8
 729 053b 67050000 		.4byte	0x567
 730 053f 06       		.uleb128 0x6
 731 0540 30020000 		.4byte	.LASF76
 732 0544 0D       		.byte	0xd
 733 0545 61       		.byte	0x61
 734 0546 19       		.byte	0x19
 735 0547 FB040000 		.4byte	0x4fb
 736 054b 00       		.byte	0
 737 054c 06       		.uleb128 0x6
 738 054d 12000000 		.4byte	.LASF77
 739 0551 0D       		.byte	0xd
 740 0552 63       		.byte	0x63
 741 0553 19       		.byte	0x19
ARM GAS  /tmp/cc5rUxS6.s 			page 14


 742 0554 67050000 		.4byte	0x567
 743 0558 04       		.byte	0x4
 744 0559 07       		.uleb128 0x7
 745 055a 6D747800 		.ascii	"mtx\000"
 746 055e 0D       		.byte	0xd
 747 055f 65       		.byte	0x65
 748 0560 19       		.byte	0x19
 749 0561 BC040000 		.4byte	0x4bc
 750 0565 0C       		.byte	0xc
 751 0566 00       		.byte	0
 752 0567 03       		.uleb128 0x3
 753 0568 3D000000 		.4byte	.LASF78
 754 056c 0D       		.byte	0xd
 755 056d 4D       		.byte	0x4d
 756 056e 1B       		.byte	0x1b
 757 056f 73050000 		.4byte	0x573
 758 0573 15       		.uleb128 0x15
 759 0574 70040000 		.4byte	.LASF99
 760 0578 08       		.byte	0x8
 761 0579 0D       		.byte	0xd
 762 057a 52       		.byte	0x52
 763 057b 07       		.byte	0x7
 764 057c 99050000 		.4byte	0x599
 765 0580 10       		.uleb128 0x10
 766 0581 A0040000 		.4byte	.LASF79
 767 0585 0D       		.byte	0xd
 768 0586 56       		.byte	0x56
 769 0587 05       		.byte	0x5
 770 0588 99050000 		.4byte	0x599
 771 058c 10       		.uleb128 0x10
 772 058d 82000000 		.4byte	.LASF80
 773 0591 0D       		.byte	0xd
 774 0592 5A       		.byte	0x5a
 775 0593 05       		.byte	0x5
 776 0594 C3050000 		.4byte	0x5c3
 777 0598 00       		.byte	0
 778 0599 13       		.uleb128 0x13
 779 059a 08       		.byte	0x8
 780 059b 0D       		.byte	0xd
 781 059c 53       		.byte	0x53
 782 059d 03       		.byte	0x3
 783 059e BD050000 		.4byte	0x5bd
 784 05a2 06       		.uleb128 0x6
 785 05a3 51030000 		.4byte	.LASF46
 786 05a7 0D       		.byte	0xd
 787 05a8 54       		.byte	0x54
 788 05a9 1A       		.byte	0x1a
 789 05aa BD050000 		.4byte	0x5bd
 790 05ae 00       		.byte	0
 791 05af 06       		.uleb128 0x6
 792 05b0 A5040000 		.4byte	.LASF81
 793 05b4 0D       		.byte	0xd
 794 05b5 55       		.byte	0x55
 795 05b6 19       		.byte	0x19
 796 05b7 24000000 		.4byte	0x24
 797 05bb 04       		.byte	0x4
 798 05bc 00       		.byte	0
ARM GAS  /tmp/cc5rUxS6.s 			page 15


 799 05bd 0A       		.uleb128 0xa
 800 05be 04       		.byte	0x4
 801 05bf 67050000 		.4byte	0x567
 802 05c3 13       		.uleb128 0x13
 803 05c4 08       		.byte	0x8
 804 05c5 0D       		.byte	0xd
 805 05c6 57       		.byte	0x57
 806 05c7 03       		.byte	0x3
 807 05c8 E7050000 		.4byte	0x5e7
 808 05cc 06       		.uleb128 0x6
 809 05cd DC000000 		.4byte	.LASF82
 810 05d1 0D       		.byte	0xd
 811 05d2 58       		.byte	0x58
 812 05d3 1A       		.byte	0x1a
 813 05d4 E7050000 		.4byte	0x5e7
 814 05d8 00       		.byte	0
 815 05d9 06       		.uleb128 0x6
 816 05da BD030000 		.4byte	.LASF83
 817 05de 0D       		.byte	0xd
 818 05df 59       		.byte	0x59
 819 05e0 19       		.byte	0x19
 820 05e1 24000000 		.4byte	0x24
 821 05e5 04       		.byte	0x4
 822 05e6 00       		.byte	0
 823 05e7 0A       		.uleb128 0xa
 824 05e8 04       		.byte	0x4
 825 05e9 26050000 		.4byte	0x526
 826 05ed 05       		.uleb128 0x5
 827 05ee 64040000 		.4byte	.LASF84
 828 05f2 04       		.byte	0x4
 829 05f3 0E       		.byte	0xe
 830 05f4 38       		.byte	0x38
 831 05f5 08       		.byte	0x8
 832 05f6 08060000 		.4byte	0x608
 833 05fa 06       		.uleb128 0x6
 834 05fb 51030000 		.4byte	.LASF46
 835 05ff 0E       		.byte	0xe
 836 0600 39       		.byte	0x39
 837 0601 1A       		.byte	0x1a
 838 0602 08060000 		.4byte	0x608
 839 0606 00       		.byte	0
 840 0607 00       		.byte	0
 841 0608 0A       		.uleb128 0xa
 842 0609 04       		.byte	0x4
 843 060a ED050000 		.4byte	0x5ed
 844 060e 13       		.uleb128 0x13
 845 060f 10       		.byte	0x10
 846 0610 0E       		.byte	0xe
 847 0611 40       		.byte	0x40
 848 0612 09       		.byte	0x9
 849 0613 4C060000 		.4byte	0x64c
 850 0617 06       		.uleb128 0x6
 851 0618 51030000 		.4byte	.LASF46
 852 061c 0E       		.byte	0xe
 853 061d 41       		.byte	0x41
 854 061e 1A       		.byte	0x1a
 855 061f 08060000 		.4byte	0x608
ARM GAS  /tmp/cc5rUxS6.s 			page 16


 856 0623 00       		.byte	0
 857 0624 06       		.uleb128 0x6
 858 0625 6B030000 		.4byte	.LASF85
 859 0629 0E       		.byte	0xe
 860 062a 42       		.byte	0x42
 861 062b 19       		.byte	0x19
 862 062c 24000000 		.4byte	0x24
 863 0630 04       		.byte	0x4
 864 0631 06       		.uleb128 0x6
 865 0632 21040000 		.4byte	.LASF86
 866 0636 0E       		.byte	0xe
 867 0637 44       		.byte	0x44
 868 0638 19       		.byte	0x19
 869 0639 30000000 		.4byte	0x30
 870 063d 08       		.byte	0x8
 871 063e 06       		.uleb128 0x6
 872 063f 30020000 		.4byte	.LASF76
 873 0643 0E       		.byte	0xe
 874 0644 45       		.byte	0x45
 875 0645 19       		.byte	0x19
 876 0646 D5040000 		.4byte	0x4d5
 877 064a 0C       		.byte	0xc
 878 064b 00       		.byte	0
 879 064c 03       		.uleb128 0x3
 880 064d A4030000 		.4byte	.LASF87
 881 0651 0E       		.byte	0xe
 882 0652 47       		.byte	0x47
 883 0653 03       		.byte	0x3
 884 0654 0E060000 		.4byte	0x60e
 885 0658 16       		.uleb128 0x16
 886 0659 A3010000 		.4byte	.LASF88
 887 065d 0F       		.byte	0xf
 888 065e 91       		.byte	0x91
 889 065f 0B       		.byte	0xb
 890 0660 32020000 		.4byte	0x232
 891 0664 CE060000 		.4byte	0x6ce
 892 0668 17       		.uleb128 0x17
 893 0669 6D7000   		.ascii	"mp\000"
 894 066c 0F       		.byte	0xf
 895 066d 91       		.byte	0x91
 896 066e 34       		.byte	0x34
 897 066f CE060000 		.4byte	0x6ce
 898 0673 18       		.uleb128 0x18
 899 0674 DD010000 		.4byte	.LASF31
 900 0678 0F       		.byte	0xf
 901 0679 91       		.byte	0x91
 902 067a 44       		.byte	0x44
 903 067b 34040000 		.4byte	0x434
 904 067f 18       		.uleb128 0x18
 905 0680 B8040000 		.4byte	.LASF28
 906 0684 0F       		.byte	0xf
 907 0685 92       		.byte	0x92
 908 0686 2D       		.byte	0x2d
 909 0687 FA000000 		.4byte	0xfa
 910 068b 17       		.uleb128 0x17
 911 068c 706600   		.ascii	"pf\000"
 912 068f 0F       		.byte	0xf
ARM GAS  /tmp/cc5rUxS6.s 			page 17


 913 0690 92       		.byte	0x92
 914 0691 3B       		.byte	0x3b
 915 0692 4C040000 		.4byte	0x44c
 916 0696 17       		.uleb128 0x17
 917 0697 61726700 		.ascii	"arg\000"
 918 069b 0F       		.byte	0xf
 919 069c 92       		.byte	0x92
 920 069d 45       		.byte	0x45
 921 069e A4020000 		.4byte	0x2a4
 922 06a2 19       		.uleb128 0x19
 923 06a3 747000   		.ascii	"tp\000"
 924 06a6 0F       		.byte	0xf
 925 06a7 93       		.byte	0x93
 926 06a8 0D       		.byte	0xd
 927 06a9 32020000 		.4byte	0x232
 928 06ad 19       		.uleb128 0x19
 929 06ae 77737000 		.ascii	"wsp\000"
 930 06b2 0F       		.byte	0xf
 931 06b3 94       		.byte	0x94
 932 06b4 09       		.byte	0x9
 933 06b5 A4020000 		.4byte	0x2a4
 934 06b9 1A       		.uleb128 0x1a
 935 06ba F0010000 		.4byte	.LASF91
 936 06be E4060000 		.4byte	0x6e4
 937 06c2 19       		.uleb128 0x19
 938 06c3 746400   		.ascii	"td\000"
 939 06c6 0F       		.byte	0xf
 940 06c7 9D       		.byte	0x9d
 941 06c8 17       		.byte	0x17
 942 06c9 B0040000 		.4byte	0x4b0
 943 06cd 00       		.byte	0
 944 06ce 0A       		.uleb128 0xa
 945 06cf 04       		.byte	0x4
 946 06d0 4C060000 		.4byte	0x64c
 947 06d4 1B       		.uleb128 0x1b
 948 06d5 41040000 		.4byte	0x441
 949 06d9 E4060000 		.4byte	0x6e4
 950 06dd 1C       		.uleb128 0x1c
 951 06de 30000000 		.4byte	0x30
 952 06e2 19       		.byte	0x19
 953 06e3 00       		.byte	0
 954 06e4 12       		.uleb128 0x12
 955 06e5 D4060000 		.4byte	0x6d4
 956 06e9 16       		.uleb128 0x16
 957 06ea AA000000 		.4byte	.LASF89
 958 06ee 0F       		.byte	0xf
 959 06ef 52       		.byte	0x52
 960 06f0 0B       		.byte	0xb
 961 06f1 32020000 		.4byte	0x232
 962 06f5 63070000 		.4byte	0x763
 963 06f9 18       		.uleb128 0x18
 964 06fa 7C040000 		.4byte	.LASF90
 965 06fe 0F       		.byte	0xf
 966 06ff 52       		.byte	0x52
 967 0700 2E       		.byte	0x2e
 968 0701 E7050000 		.4byte	0x5e7
 969 0705 18       		.uleb128 0x18
ARM GAS  /tmp/cc5rUxS6.s 			page 18


 970 0706 BD030000 		.4byte	.LASF83
 971 070a 0F       		.byte	0xf
 972 070b 52       		.byte	0x52
 973 070c 3C       		.byte	0x3c
 974 070d 24000000 		.4byte	0x24
 975 0711 18       		.uleb128 0x18
 976 0712 DD010000 		.4byte	.LASF31
 977 0716 0F       		.byte	0xf
 978 0717 53       		.byte	0x53
 979 0718 2B       		.byte	0x2b
 980 0719 34040000 		.4byte	0x434
 981 071d 18       		.uleb128 0x18
 982 071e B8040000 		.4byte	.LASF28
 983 0722 0F       		.byte	0xf
 984 0723 53       		.byte	0x53
 985 0724 39       		.byte	0x39
 986 0725 FA000000 		.4byte	0xfa
 987 0729 17       		.uleb128 0x17
 988 072a 706600   		.ascii	"pf\000"
 989 072d 0F       		.byte	0xf
 990 072e 54       		.byte	0x54
 991 072f 27       		.byte	0x27
 992 0730 4C040000 		.4byte	0x44c
 993 0734 17       		.uleb128 0x17
 994 0735 61726700 		.ascii	"arg\000"
 995 0739 0F       		.byte	0xf
 996 073a 54       		.byte	0x54
 997 073b 31       		.byte	0x31
 998 073c A4020000 		.4byte	0x2a4
 999 0740 19       		.uleb128 0x19
 1000 0741 747000   		.ascii	"tp\000"
 1001 0744 0F       		.byte	0xf
 1002 0745 55       		.byte	0x55
 1003 0746 0D       		.byte	0xd
 1004 0747 32020000 		.4byte	0x232
 1005 074b 19       		.uleb128 0x19
 1006 074c 77737000 		.ascii	"wsp\000"
 1007 0750 0F       		.byte	0xf
 1008 0751 56       		.byte	0x56
 1009 0752 09       		.byte	0x9
 1010 0753 A4020000 		.4byte	0x2a4
 1011 0757 19       		.uleb128 0x19
 1012 0758 746400   		.ascii	"td\000"
 1013 075b 0F       		.byte	0xf
 1014 075c 5D       		.byte	0x5d
 1015 075d 17       		.byte	0x17
 1016 075e B0040000 		.4byte	0x4b0
 1017 0762 00       		.byte	0
 1018 0763 1D       		.uleb128 0x1d
 1019 0764 E4030000 		.4byte	.LASF100
 1020 0768 10       		.byte	0x10
 1021 0769 6D01     		.2byte	0x16d
 1022 076b 14       		.byte	0x14
 1023 076c 7A070000 		.4byte	0x77a
 1024 0770 1A       		.uleb128 0x1a
 1025 0771 F0010000 		.4byte	.LASF91
 1026 0775 8A070000 		.4byte	0x78a
ARM GAS  /tmp/cc5rUxS6.s 			page 19


 1027 0779 00       		.byte	0
 1028 077a 1B       		.uleb128 0x1b
 1029 077b 41040000 		.4byte	0x441
 1030 077f 8A070000 		.4byte	0x78a
 1031 0783 1C       		.uleb128 0x1c
 1032 0784 30000000 		.4byte	0x30
 1033 0788 0B       		.byte	0xb
 1034 0789 00       		.byte	0
 1035 078a 12       		.uleb128 0x12
 1036 078b 7A070000 		.4byte	0x77a
 1037 078f 1E       		.uleb128 0x1e
 1038 0790 6C000000 		.4byte	.LASF92
 1039 0794 10       		.byte	0x10
 1040 0795 6101     		.2byte	0x161
 1041 0797 14       		.byte	0x14
 1042 0798 1E       		.uleb128 0x1e
 1043 0799 8C030000 		.4byte	.LASF93
 1044 079d 08       		.byte	0x8
 1045 079e B502     		.2byte	0x2b5
 1046 07a0 1B       		.byte	0x1b
 1047 07a1 1E       		.uleb128 0x1e
 1048 07a2 62000000 		.4byte	.LASF94
 1049 07a6 08       		.byte	0x8
 1050 07a7 9D02     		.2byte	0x29d
 1051 07a9 1B       		.byte	0x1b
 1052 07aa 1F       		.uleb128 0x1f
 1053 07ab 82040000 		.4byte	.LASF101
 1054 07af 11       		.byte	0x11
 1055 07b0 EB01     		.2byte	0x1eb
 1056 07b2 1B       		.byte	0x1b
 1057 07b3 20       		.uleb128 0x20
 1058 07b4 49030000 		.4byte	.LASF95
 1059 07b8 11       		.byte	0x11
 1060 07b9 EB01     		.2byte	0x1eb
 1061 07bb 32       		.byte	0x32
 1062 07bc BE000000 		.4byte	0xbe
 1063 07c0 00       		.byte	0
 1064 07c1 00       		.byte	0
 1065              		.section	.gnu.debuglto_.debug_abbrev,"e",%progbits
 1066              	.Ldebug_abbrev0:
 1067 0000 01       		.uleb128 0x1
 1068 0001 11       		.uleb128 0x11
 1069 0002 01       		.byte	0x1
 1070 0003 25       		.uleb128 0x25
 1071 0004 0E       		.uleb128 0xe
 1072 0005 13       		.uleb128 0x13
 1073 0006 0B       		.uleb128 0xb
 1074 0007 03       		.uleb128 0x3
 1075 0008 0E       		.uleb128 0xe
 1076 0009 1B       		.uleb128 0x1b
 1077 000a 0E       		.uleb128 0xe
 1078 000b 10       		.uleb128 0x10
 1079 000c 17       		.uleb128 0x17
 1080 000d 00       		.byte	0
 1081 000e 00       		.byte	0
 1082 000f 02       		.uleb128 0x2
 1083 0010 24       		.uleb128 0x24
ARM GAS  /tmp/cc5rUxS6.s 			page 20


 1084 0011 00       		.byte	0
 1085 0012 0B       		.uleb128 0xb
 1086 0013 0B       		.uleb128 0xb
 1087 0014 3E       		.uleb128 0x3e
 1088 0015 0B       		.uleb128 0xb
 1089 0016 03       		.uleb128 0x3
 1090 0017 08       		.uleb128 0x8
 1091 0018 00       		.byte	0
 1092 0019 00       		.byte	0
 1093 001a 03       		.uleb128 0x3
 1094 001b 16       		.uleb128 0x16
 1095 001c 00       		.byte	0
 1096 001d 03       		.uleb128 0x3
 1097 001e 0E       		.uleb128 0xe
 1098 001f 3A       		.uleb128 0x3a
 1099 0020 0B       		.uleb128 0xb
 1100 0021 3B       		.uleb128 0x3b
 1101 0022 0B       		.uleb128 0xb
 1102 0023 39       		.uleb128 0x39
 1103 0024 0B       		.uleb128 0xb
 1104 0025 49       		.uleb128 0x49
 1105 0026 13       		.uleb128 0x13
 1106 0027 00       		.byte	0
 1107 0028 00       		.byte	0
 1108 0029 04       		.uleb128 0x4
 1109 002a 24       		.uleb128 0x24
 1110 002b 00       		.byte	0
 1111 002c 0B       		.uleb128 0xb
 1112 002d 0B       		.uleb128 0xb
 1113 002e 3E       		.uleb128 0x3e
 1114 002f 0B       		.uleb128 0xb
 1115 0030 03       		.uleb128 0x3
 1116 0031 0E       		.uleb128 0xe
 1117 0032 00       		.byte	0
 1118 0033 00       		.byte	0
 1119 0034 05       		.uleb128 0x5
 1120 0035 13       		.uleb128 0x13
 1121 0036 01       		.byte	0x1
 1122 0037 03       		.uleb128 0x3
 1123 0038 0E       		.uleb128 0xe
 1124 0039 0B       		.uleb128 0xb
 1125 003a 0B       		.uleb128 0xb
 1126 003b 3A       		.uleb128 0x3a
 1127 003c 0B       		.uleb128 0xb
 1128 003d 3B       		.uleb128 0x3b
 1129 003e 0B       		.uleb128 0xb
 1130 003f 39       		.uleb128 0x39
 1131 0040 0B       		.uleb128 0xb
 1132 0041 01       		.uleb128 0x1
 1133 0042 13       		.uleb128 0x13
 1134 0043 00       		.byte	0
 1135 0044 00       		.byte	0
 1136 0045 06       		.uleb128 0x6
 1137 0046 0D       		.uleb128 0xd
 1138 0047 00       		.byte	0
 1139 0048 03       		.uleb128 0x3
 1140 0049 0E       		.uleb128 0xe
ARM GAS  /tmp/cc5rUxS6.s 			page 21


 1141 004a 3A       		.uleb128 0x3a
 1142 004b 0B       		.uleb128 0xb
 1143 004c 3B       		.uleb128 0x3b
 1144 004d 0B       		.uleb128 0xb
 1145 004e 39       		.uleb128 0x39
 1146 004f 0B       		.uleb128 0xb
 1147 0050 49       		.uleb128 0x49
 1148 0051 13       		.uleb128 0x13
 1149 0052 38       		.uleb128 0x38
 1150 0053 0B       		.uleb128 0xb
 1151 0054 00       		.byte	0
 1152 0055 00       		.byte	0
 1153 0056 07       		.uleb128 0x7
 1154 0057 0D       		.uleb128 0xd
 1155 0058 00       		.byte	0
 1156 0059 03       		.uleb128 0x3
 1157 005a 08       		.uleb128 0x8
 1158 005b 3A       		.uleb128 0x3a
 1159 005c 0B       		.uleb128 0xb
 1160 005d 3B       		.uleb128 0x3b
 1161 005e 0B       		.uleb128 0xb
 1162 005f 39       		.uleb128 0x39
 1163 0060 0B       		.uleb128 0xb
 1164 0061 49       		.uleb128 0x49
 1165 0062 13       		.uleb128 0x13
 1166 0063 38       		.uleb128 0x38
 1167 0064 0B       		.uleb128 0xb
 1168 0065 00       		.byte	0
 1169 0066 00       		.byte	0
 1170 0067 08       		.uleb128 0x8
 1171 0068 0D       		.uleb128 0xd
 1172 0069 00       		.byte	0
 1173 006a 03       		.uleb128 0x3
 1174 006b 08       		.uleb128 0x8
 1175 006c 3A       		.uleb128 0x3a
 1176 006d 0B       		.uleb128 0xb
 1177 006e 3B       		.uleb128 0x3b
 1178 006f 05       		.uleb128 0x5
 1179 0070 39       		.uleb128 0x39
 1180 0071 0B       		.uleb128 0xb
 1181 0072 49       		.uleb128 0x49
 1182 0073 13       		.uleb128 0x13
 1183 0074 38       		.uleb128 0x38
 1184 0075 0B       		.uleb128 0xb
 1185 0076 00       		.byte	0
 1186 0077 00       		.byte	0
 1187 0078 09       		.uleb128 0x9
 1188 0079 0D       		.uleb128 0xd
 1189 007a 00       		.byte	0
 1190 007b 03       		.uleb128 0x3
 1191 007c 0E       		.uleb128 0xe
 1192 007d 3A       		.uleb128 0x3a
 1193 007e 0B       		.uleb128 0xb
 1194 007f 3B       		.uleb128 0x3b
 1195 0080 05       		.uleb128 0x5
 1196 0081 39       		.uleb128 0x39
 1197 0082 0B       		.uleb128 0xb
ARM GAS  /tmp/cc5rUxS6.s 			page 22


 1198 0083 49       		.uleb128 0x49
 1199 0084 13       		.uleb128 0x13
 1200 0085 38       		.uleb128 0x38
 1201 0086 0B       		.uleb128 0xb
 1202 0087 00       		.byte	0
 1203 0088 00       		.byte	0
 1204 0089 0A       		.uleb128 0xa
 1205 008a 0F       		.uleb128 0xf
 1206 008b 00       		.byte	0
 1207 008c 0B       		.uleb128 0xb
 1208 008d 0B       		.uleb128 0xb
 1209 008e 49       		.uleb128 0x49
 1210 008f 13       		.uleb128 0x13
 1211 0090 00       		.byte	0
 1212 0091 00       		.byte	0
 1213 0092 0B       		.uleb128 0xb
 1214 0093 15       		.uleb128 0x15
 1215 0094 01       		.byte	0x1
 1216 0095 27       		.uleb128 0x27
 1217 0096 19       		.uleb128 0x19
 1218 0097 01       		.uleb128 0x1
 1219 0098 13       		.uleb128 0x13
 1220 0099 00       		.byte	0
 1221 009a 00       		.byte	0
 1222 009b 0C       		.uleb128 0xc
 1223 009c 05       		.uleb128 0x5
 1224 009d 00       		.byte	0
 1225 009e 49       		.uleb128 0x49
 1226 009f 13       		.uleb128 0x13
 1227 00a0 00       		.byte	0
 1228 00a1 00       		.byte	0
 1229 00a2 0D       		.uleb128 0xd
 1230 00a3 0F       		.uleb128 0xf
 1231 00a4 00       		.byte	0
 1232 00a5 0B       		.uleb128 0xb
 1233 00a6 0B       		.uleb128 0xb
 1234 00a7 00       		.byte	0
 1235 00a8 00       		.byte	0
 1236 00a9 0E       		.uleb128 0xe
 1237 00aa 13       		.uleb128 0x13
 1238 00ab 01       		.byte	0x1
 1239 00ac 03       		.uleb128 0x3
 1240 00ad 0E       		.uleb128 0xe
 1241 00ae 0B       		.uleb128 0xb
 1242 00af 0B       		.uleb128 0xb
 1243 00b0 3A       		.uleb128 0x3a
 1244 00b1 0B       		.uleb128 0xb
 1245 00b2 3B       		.uleb128 0x3b
 1246 00b3 05       		.uleb128 0x5
 1247 00b4 39       		.uleb128 0x39
 1248 00b5 0B       		.uleb128 0xb
 1249 00b6 01       		.uleb128 0x1
 1250 00b7 13       		.uleb128 0x13
 1251 00b8 00       		.byte	0
 1252 00b9 00       		.byte	0
 1253 00ba 0F       		.uleb128 0xf
 1254 00bb 17       		.uleb128 0x17
ARM GAS  /tmp/cc5rUxS6.s 			page 23


 1255 00bc 01       		.byte	0x1
 1256 00bd 0B       		.uleb128 0xb
 1257 00be 0B       		.uleb128 0xb
 1258 00bf 3A       		.uleb128 0x3a
 1259 00c0 0B       		.uleb128 0xb
 1260 00c1 3B       		.uleb128 0x3b
 1261 00c2 0B       		.uleb128 0xb
 1262 00c3 39       		.uleb128 0x39
 1263 00c4 0B       		.uleb128 0xb
 1264 00c5 01       		.uleb128 0x1
 1265 00c6 13       		.uleb128 0x13
 1266 00c7 00       		.byte	0
 1267 00c8 00       		.byte	0
 1268 00c9 10       		.uleb128 0x10
 1269 00ca 0D       		.uleb128 0xd
 1270 00cb 00       		.byte	0
 1271 00cc 03       		.uleb128 0x3
 1272 00cd 0E       		.uleb128 0xe
 1273 00ce 3A       		.uleb128 0x3a
 1274 00cf 0B       		.uleb128 0xb
 1275 00d0 3B       		.uleb128 0x3b
 1276 00d1 0B       		.uleb128 0xb
 1277 00d2 39       		.uleb128 0x39
 1278 00d3 0B       		.uleb128 0xb
 1279 00d4 49       		.uleb128 0x49
 1280 00d5 13       		.uleb128 0x13
 1281 00d6 00       		.byte	0
 1282 00d7 00       		.byte	0
 1283 00d8 11       		.uleb128 0x11
 1284 00d9 0D       		.uleb128 0xd
 1285 00da 00       		.byte	0
 1286 00db 03       		.uleb128 0x3
 1287 00dc 0E       		.uleb128 0xe
 1288 00dd 3A       		.uleb128 0x3a
 1289 00de 0B       		.uleb128 0xb
 1290 00df 3B       		.uleb128 0x3b
 1291 00e0 05       		.uleb128 0x5
 1292 00e1 39       		.uleb128 0x39
 1293 00e2 0B       		.uleb128 0xb
 1294 00e3 49       		.uleb128 0x49
 1295 00e4 13       		.uleb128 0x13
 1296 00e5 00       		.byte	0
 1297 00e6 00       		.byte	0
 1298 00e7 12       		.uleb128 0x12
 1299 00e8 26       		.uleb128 0x26
 1300 00e9 00       		.byte	0
 1301 00ea 49       		.uleb128 0x49
 1302 00eb 13       		.uleb128 0x13
 1303 00ec 00       		.byte	0
 1304 00ed 00       		.byte	0
 1305 00ee 13       		.uleb128 0x13
 1306 00ef 13       		.uleb128 0x13
 1307 00f0 01       		.byte	0x1
 1308 00f1 0B       		.uleb128 0xb
 1309 00f2 0B       		.uleb128 0xb
 1310 00f3 3A       		.uleb128 0x3a
 1311 00f4 0B       		.uleb128 0xb
ARM GAS  /tmp/cc5rUxS6.s 			page 24


 1312 00f5 3B       		.uleb128 0x3b
 1313 00f6 0B       		.uleb128 0xb
 1314 00f7 39       		.uleb128 0x39
 1315 00f8 0B       		.uleb128 0xb
 1316 00f9 01       		.uleb128 0x1
 1317 00fa 13       		.uleb128 0x13
 1318 00fb 00       		.byte	0
 1319 00fc 00       		.byte	0
 1320 00fd 14       		.uleb128 0x14
 1321 00fe 15       		.uleb128 0x15
 1322 00ff 01       		.byte	0x1
 1323 0100 27       		.uleb128 0x27
 1324 0101 19       		.uleb128 0x19
 1325 0102 49       		.uleb128 0x49
 1326 0103 13       		.uleb128 0x13
 1327 0104 01       		.uleb128 0x1
 1328 0105 13       		.uleb128 0x13
 1329 0106 00       		.byte	0
 1330 0107 00       		.byte	0
 1331 0108 15       		.uleb128 0x15
 1332 0109 17       		.uleb128 0x17
 1333 010a 01       		.byte	0x1
 1334 010b 03       		.uleb128 0x3
 1335 010c 0E       		.uleb128 0xe
 1336 010d 0B       		.uleb128 0xb
 1337 010e 0B       		.uleb128 0xb
 1338 010f 3A       		.uleb128 0x3a
 1339 0110 0B       		.uleb128 0xb
 1340 0111 3B       		.uleb128 0x3b
 1341 0112 0B       		.uleb128 0xb
 1342 0113 39       		.uleb128 0x39
 1343 0114 0B       		.uleb128 0xb
 1344 0115 01       		.uleb128 0x1
 1345 0116 13       		.uleb128 0x13
 1346 0117 00       		.byte	0
 1347 0118 00       		.byte	0
 1348 0119 16       		.uleb128 0x16
 1349 011a 2E       		.uleb128 0x2e
 1350 011b 01       		.byte	0x1
 1351 011c 3F       		.uleb128 0x3f
 1352 011d 19       		.uleb128 0x19
 1353 011e 03       		.uleb128 0x3
 1354 011f 0E       		.uleb128 0xe
 1355 0120 3A       		.uleb128 0x3a
 1356 0121 0B       		.uleb128 0xb
 1357 0122 3B       		.uleb128 0x3b
 1358 0123 0B       		.uleb128 0xb
 1359 0124 39       		.uleb128 0x39
 1360 0125 0B       		.uleb128 0xb
 1361 0126 27       		.uleb128 0x27
 1362 0127 19       		.uleb128 0x19
 1363 0128 49       		.uleb128 0x49
 1364 0129 13       		.uleb128 0x13
 1365 012a 01       		.uleb128 0x1
 1366 012b 13       		.uleb128 0x13
 1367 012c 00       		.byte	0
 1368 012d 00       		.byte	0
ARM GAS  /tmp/cc5rUxS6.s 			page 25


 1369 012e 17       		.uleb128 0x17
 1370 012f 05       		.uleb128 0x5
 1371 0130 00       		.byte	0
 1372 0131 03       		.uleb128 0x3
 1373 0132 08       		.uleb128 0x8
 1374 0133 3A       		.uleb128 0x3a
 1375 0134 0B       		.uleb128 0xb
 1376 0135 3B       		.uleb128 0x3b
 1377 0136 0B       		.uleb128 0xb
 1378 0137 39       		.uleb128 0x39
 1379 0138 0B       		.uleb128 0xb
 1380 0139 49       		.uleb128 0x49
 1381 013a 13       		.uleb128 0x13
 1382 013b 00       		.byte	0
 1383 013c 00       		.byte	0
 1384 013d 18       		.uleb128 0x18
 1385 013e 05       		.uleb128 0x5
 1386 013f 00       		.byte	0
 1387 0140 03       		.uleb128 0x3
 1388 0141 0E       		.uleb128 0xe
 1389 0142 3A       		.uleb128 0x3a
 1390 0143 0B       		.uleb128 0xb
 1391 0144 3B       		.uleb128 0x3b
 1392 0145 0B       		.uleb128 0xb
 1393 0146 39       		.uleb128 0x39
 1394 0147 0B       		.uleb128 0xb
 1395 0148 49       		.uleb128 0x49
 1396 0149 13       		.uleb128 0x13
 1397 014a 00       		.byte	0
 1398 014b 00       		.byte	0
 1399 014c 19       		.uleb128 0x19
 1400 014d 34       		.uleb128 0x34
 1401 014e 00       		.byte	0
 1402 014f 03       		.uleb128 0x3
 1403 0150 08       		.uleb128 0x8
 1404 0151 3A       		.uleb128 0x3a
 1405 0152 0B       		.uleb128 0xb
 1406 0153 3B       		.uleb128 0x3b
 1407 0154 0B       		.uleb128 0xb
 1408 0155 39       		.uleb128 0x39
 1409 0156 0B       		.uleb128 0xb
 1410 0157 49       		.uleb128 0x49
 1411 0158 13       		.uleb128 0x13
 1412 0159 00       		.byte	0
 1413 015a 00       		.byte	0
 1414 015b 1A       		.uleb128 0x1a
 1415 015c 34       		.uleb128 0x34
 1416 015d 00       		.byte	0
 1417 015e 03       		.uleb128 0x3
 1418 015f 0E       		.uleb128 0xe
 1419 0160 49       		.uleb128 0x49
 1420 0161 13       		.uleb128 0x13
 1421 0162 34       		.uleb128 0x34
 1422 0163 19       		.uleb128 0x19
 1423 0164 00       		.byte	0
 1424 0165 00       		.byte	0
 1425 0166 1B       		.uleb128 0x1b
ARM GAS  /tmp/cc5rUxS6.s 			page 26


 1426 0167 01       		.uleb128 0x1
 1427 0168 01       		.byte	0x1
 1428 0169 49       		.uleb128 0x49
 1429 016a 13       		.uleb128 0x13
 1430 016b 01       		.uleb128 0x1
 1431 016c 13       		.uleb128 0x13
 1432 016d 00       		.byte	0
 1433 016e 00       		.byte	0
 1434 016f 1C       		.uleb128 0x1c
 1435 0170 21       		.uleb128 0x21
 1436 0171 00       		.byte	0
 1437 0172 49       		.uleb128 0x49
 1438 0173 13       		.uleb128 0x13
 1439 0174 2F       		.uleb128 0x2f
 1440 0175 0B       		.uleb128 0xb
 1441 0176 00       		.byte	0
 1442 0177 00       		.byte	0
 1443 0178 1D       		.uleb128 0x1d
 1444 0179 2E       		.uleb128 0x2e
 1445 017a 01       		.byte	0x1
 1446 017b 03       		.uleb128 0x3
 1447 017c 0E       		.uleb128 0xe
 1448 017d 3A       		.uleb128 0x3a
 1449 017e 0B       		.uleb128 0xb
 1450 017f 3B       		.uleb128 0x3b
 1451 0180 05       		.uleb128 0x5
 1452 0181 39       		.uleb128 0x39
 1453 0182 0B       		.uleb128 0xb
 1454 0183 27       		.uleb128 0x27
 1455 0184 19       		.uleb128 0x19
 1456 0185 01       		.uleb128 0x1
 1457 0186 13       		.uleb128 0x13
 1458 0187 00       		.byte	0
 1459 0188 00       		.byte	0
 1460 0189 1E       		.uleb128 0x1e
 1461 018a 2E       		.uleb128 0x2e
 1462 018b 00       		.byte	0
 1463 018c 03       		.uleb128 0x3
 1464 018d 0E       		.uleb128 0xe
 1465 018e 3A       		.uleb128 0x3a
 1466 018f 0B       		.uleb128 0xb
 1467 0190 3B       		.uleb128 0x3b
 1468 0191 05       		.uleb128 0x5
 1469 0192 39       		.uleb128 0x39
 1470 0193 0B       		.uleb128 0xb
 1471 0194 27       		.uleb128 0x27
 1472 0195 19       		.uleb128 0x19
 1473 0196 00       		.byte	0
 1474 0197 00       		.byte	0
 1475 0198 1F       		.uleb128 0x1f
 1476 0199 2E       		.uleb128 0x2e
 1477 019a 01       		.byte	0x1
 1478 019b 03       		.uleb128 0x3
 1479 019c 0E       		.uleb128 0xe
 1480 019d 3A       		.uleb128 0x3a
 1481 019e 0B       		.uleb128 0xb
 1482 019f 3B       		.uleb128 0x3b
ARM GAS  /tmp/cc5rUxS6.s 			page 27


 1483 01a0 05       		.uleb128 0x5
 1484 01a1 39       		.uleb128 0x39
 1485 01a2 0B       		.uleb128 0xb
 1486 01a3 27       		.uleb128 0x27
 1487 01a4 19       		.uleb128 0x19
 1488 01a5 00       		.byte	0
 1489 01a6 00       		.byte	0
 1490 01a7 20       		.uleb128 0x20
 1491 01a8 05       		.uleb128 0x5
 1492 01a9 00       		.byte	0
 1493 01aa 03       		.uleb128 0x3
 1494 01ab 0E       		.uleb128 0xe
 1495 01ac 3A       		.uleb128 0x3a
 1496 01ad 0B       		.uleb128 0xb
 1497 01ae 3B       		.uleb128 0x3b
 1498 01af 05       		.uleb128 0x5
 1499 01b0 39       		.uleb128 0x39
 1500 01b1 0B       		.uleb128 0xb
 1501 01b2 49       		.uleb128 0x49
 1502 01b3 13       		.uleb128 0x13
 1503 01b4 00       		.byte	0
 1504 01b5 00       		.byte	0
 1505 01b6 00       		.byte	0
 1506              		.section	.gnu.debuglto_.debug_line,"e",%progbits
 1507              	.Ldebug_line0:
 1508 0000 D4020000 		.4byte	.LELT0-.LSLT0
 1509              	.LSLT0:
 1510 0004 0400     		.2byte	0x4
 1511 0006 CE020000 		.4byte	.LELTP0-.LASLTP0
 1512              	.LASLTP0:
 1513 000a 01       		.byte	0x1
 1514 000b 01       		.byte	0x1
 1515 000c 01       		.byte	0x1
 1516 000d F6       		.byte	0xf6
 1517 000e F2       		.byte	0xf2
 1518 000f 0D       		.byte	0xd
 1519 0010 00       		.byte	0
 1520 0011 01       		.byte	0x1
 1521 0012 01       		.byte	0x1
 1522 0013 01       		.byte	0x1
 1523 0014 01       		.byte	0x1
 1524 0015 00       		.byte	0
 1525 0016 00       		.byte	0
 1526 0017 00       		.byte	0
 1527 0018 01       		.byte	0x1
 1528 0019 00       		.byte	0
 1529 001a 00       		.byte	0
 1530 001b 01       		.byte	0x1
 1531 001c 43686962 		.ascii	"ChibiOS_20.3.0/os/common/ext/ARM/CMSIS/Core/Include"
 1531      694F535F 
 1531      32302E33 
 1531      2E302F6F 
 1531      732F636F 
 1532 004f 00       		.byte	0
 1533 0050 43686962 		.ascii	"ChibiOS_20.3.0/os/common/ports/ARMCMx/compilers/GCC"
 1533      694F535F 
 1533      32302E33 
ARM GAS  /tmp/cc5rUxS6.s 			page 28


 1533      2E302F6F 
 1533      732F636F 
 1534 0083 00       		.byte	0
 1535 0084 43686962 		.ascii	"ChibiOS_20.3.0/os/common/ports/ARMCMx"
 1535      694F535F 
 1535      32302E33 
 1535      2E302F6F 
 1535      732F636F 
 1536 00a9 00       		.byte	0
 1537 00aa 43686962 		.ascii	"ChibiOS_20.3.0/os/oslib/include"
 1537      694F535F 
 1537      32302E33 
 1537      2E302F6F 
 1537      732F6F73 
 1538 00c9 00       		.byte	0
 1539 00ca 43686962 		.ascii	"ChibiOS_20.3.0/os/rt/include"
 1539      694F535F 
 1539      32302E33 
 1539      2E302F6F 
 1539      732F7274 
 1540 00e6 00       		.byte	0
 1541 00e7 43686962 		.ascii	"ChibiOS_20.3.0/os/rt/src"
 1541      694F535F 
 1541      32302E33 
 1541      2E302F6F 
 1541      732F7274 
 1542 00ff 00       		.byte	0
 1543 0100 2F757372 		.ascii	"/usr/share/gcc-arm-none-eabi-10-2020-q4-major/arm-n"
 1543      2F736861 
 1543      72652F67 
 1543      63632D61 
 1543      726D2D6E 
 1544 0133 6F6E652D 		.ascii	"one-eabi/include/machine"
 1544      65616269 
 1544      2F696E63 
 1544      6C756465 
 1544      2F6D6163 
 1545 014b 00       		.byte	0
 1546 014c 2F757372 		.ascii	"/usr/share/gcc-arm-none-eabi-10-2020-q4-major/arm-n"
 1546      2F736861 
 1546      72652F67 
 1546      63632D61 
 1546      726D2D6E 
 1547 017f 6F6E652D 		.ascii	"one-eabi/include/sys"
 1547      65616269 
 1547      2F696E63 
 1547      6C756465 
 1547      2F737973 
 1548 0193 00       		.byte	0
 1549 0194 2F757372 		.ascii	"/usr/share/gcc-arm-none-eabi-10-2020-q4-major/lib/g"
 1549      2F736861 
 1549      72652F67 
 1549      63632D61 
 1549      726D2D6E 
 1550 01c7 63632F61 		.ascii	"cc/arm-none-eabi/10.2.1/include"
 1550      726D2D6E 
 1550      6F6E652D 
ARM GAS  /tmp/cc5rUxS6.s 			page 29


 1550      65616269 
 1550      2F31302E 
 1551 01e6 00       		.byte	0
 1552 01e7 00       		.byte	0
 1553 01e8 73746464 		.ascii	"stddef.h\000"
 1553      65662E68 
 1553      00
 1554 01f1 09       		.uleb128 0x9
 1555 01f2 00       		.uleb128 0
 1556 01f3 00       		.uleb128 0
 1557 01f4 5F646566 		.ascii	"_default_types.h\000"
 1557      61756C74 
 1557      5F747970 
 1557      65732E68 
 1557      00
 1558 0205 07       		.uleb128 0x7
 1559 0206 00       		.uleb128 0
 1560 0207 00       		.uleb128 0
 1561 0208 5F737464 		.ascii	"_stdint.h\000"
 1561      696E742E 
 1561      6800
 1562 0212 08       		.uleb128 0x8
 1563 0213 00       		.uleb128 0
 1564 0214 00       		.uleb128 0
 1565 0215 63687479 		.ascii	"chtypes.h\000"
 1565      7065732E 
 1565      6800
 1566 021f 02       		.uleb128 0x2
 1567 0220 00       		.uleb128 0
 1568 0221 00       		.uleb128 0
 1569 0222 63687379 		.ascii	"chsystypes.h\000"
 1569      73747970 
 1569      65732E68 
 1569      00
 1570 022f 05       		.uleb128 0x5
 1571 0230 00       		.uleb128 0
 1572 0231 00       		.uleb128 0
 1573 0232 63687363 		.ascii	"chschd.h\000"
 1573      68642E68 
 1573      00
 1574 023b 05       		.uleb128 0x5
 1575 023c 00       		.uleb128 0
 1576 023d 00       		.uleb128 0
 1577 023e 6368636F 		.ascii	"chcore.h\000"
 1577      72652E68 
 1577      00
 1578 0247 03       		.uleb128 0x3
 1579 0248 00       		.uleb128 0
 1580 0249 00       		.uleb128 0
 1581 024a 6368636F 		.ascii	"chcore_v7m.h\000"
 1581      72655F76 
 1581      376D2E68 
 1581      00
 1582 0257 03       		.uleb128 0x3
 1583 0258 00       		.uleb128 0
 1584 0259 00       		.uleb128 0
 1585 025a 63687365 		.ascii	"chsem.h\000"
ARM GAS  /tmp/cc5rUxS6.s 			page 30


 1585      6D2E6800 
 1586 0262 05       		.uleb128 0x5
 1587 0263 00       		.uleb128 0
 1588 0264 00       		.uleb128 0
 1589 0265 63686D74 		.ascii	"chmtx.h\000"
 1589      782E6800 
 1590 026d 05       		.uleb128 0x5
 1591 026e 00       		.uleb128 0
 1592 026f 00       		.uleb128 0
 1593 0270 63687468 		.ascii	"chthreads.h\000"
 1593      72656164 
 1593      732E6800 
 1594 027c 05       		.uleb128 0x5
 1595 027d 00       		.uleb128 0
 1596 027e 00       		.uleb128 0
 1597 027f 63686D65 		.ascii	"chmemcore.h\000"
 1597      6D636F72 
 1597      652E6800 
 1598 028b 04       		.uleb128 0x4
 1599 028c 00       		.uleb128 0
 1600 028d 00       		.uleb128 0
 1601 028e 63686D65 		.ascii	"chmemheaps.h\000"
 1601      6D686561 
 1601      70732E68 
 1601      00
 1602 029b 04       		.uleb128 0x4
 1603 029c 00       		.uleb128 0
 1604 029d 00       		.uleb128 0
 1605 029e 63686D65 		.ascii	"chmempools.h\000"
 1605      6D706F6F 
 1605      6C732E68 
 1605      00
 1606 02ab 04       		.uleb128 0x4
 1607 02ac 00       		.uleb128 0
 1608 02ad 00       		.uleb128 0
 1609 02ae 63686479 		.ascii	"chdynamic.c\000"
 1609      6E616D69 
 1609      632E6300 
 1610 02ba 06       		.uleb128 0x6
 1611 02bb 00       		.uleb128 0
 1612 02bc 00       		.uleb128 0
 1613 02bd 63687379 		.ascii	"chsys.h\000"
 1613      732E6800 
 1614 02c5 05       		.uleb128 0x5
 1615 02c6 00       		.uleb128 0
 1616 02c7 00       		.uleb128 0
 1617 02c8 636D7369 		.ascii	"cmsis_gcc.h\000"
 1617      735F6763 
 1617      632E6800 
 1618 02d4 01       		.uleb128 0x1
 1619 02d5 00       		.uleb128 0
 1620 02d6 00       		.uleb128 0
 1621 02d7 00       		.byte	0
 1622              	.LELTP0:
 1623              	.LELT0:
 1624              		.section	.gnu.debuglto_.debug_str,"eMS",%progbits,1
 1625              	.LASF26:
ARM GAS  /tmp/cc5rUxS6.s 			page 31


 1626 0000 74687265 		.ascii	"thread_t\000"
 1626      61645F74 
 1626      00
 1627              	.LASF17:
 1628 0009 75696E74 		.ascii	"uint32_t\000"
 1628      33325F74 
 1628      00
 1629              	.LASF77:
 1630 0012 68656164 		.ascii	"header\000"
 1630      657200
 1631              	.LASF38:
 1632 0019 6570656E 		.ascii	"epending\000"
 1632      64696E67 
 1632      00
 1633              	.LASF33:
 1634 0022 73746174 		.ascii	"state\000"
 1634      6500
 1635              	.LASF18:
 1636 0028 75696E74 		.ascii	"uint64_t\000"
 1636      36345F74 
 1636      00
 1637              	.LASF67:
 1638 0031 77656E64 		.ascii	"wend\000"
 1638      00
 1639              	.LASF4:
 1640 0036 73697A65 		.ascii	"size_t\000"
 1640      5F7400
 1641              	.LASF78:
 1642 003d 68656170 		.ascii	"heap_header_t\000"
 1642      5F686561 
 1642      6465725F 
 1642      7400
 1643              	.LASF14:
 1644 004b 6C6F6E67 		.ascii	"long long unsigned int\000"
 1644      206C6F6E 
 1644      6720756E 
 1644      7369676E 
 1644      65642069 
 1645              	.LASF94:
 1646 0062 706F7274 		.ascii	"port_lock\000"
 1646      5F6C6F63 
 1646      6B00
 1647              	.LASF92:
 1648 006c 63685379 		.ascii	"chSysLock\000"
 1648      734C6F63 
 1648      6B00
 1649              	.LASF24:
 1650 0076 6576656E 		.ascii	"eventmask_t\000"
 1650      746D6173 
 1650      6B5F7400 
 1651              	.LASF80:
 1652 0082 75736564 		.ascii	"used\000"
 1652      00
 1653              	.LASF45:
 1654 0087 63685F74 		.ascii	"ch_threads_list\000"
 1654      68726561 
 1654      64735F6C 
ARM GAS  /tmp/cc5rUxS6.s 			page 32


 1654      69737400 
 1655              	.LASF7:
 1656 0097 73686F72 		.ascii	"short int\000"
 1656      7420696E 
 1656      7400
 1657              	.LASF37:
 1658 00a1 6D736771 		.ascii	"msgqueue\000"
 1658      75657565 
 1658      00
 1659              	.LASF89:
 1660 00aa 63685468 		.ascii	"chThdCreateFromHeap\000"
 1660      64437265 
 1660      61746546 
 1660      726F6D48 
 1660      65617000 
 1661              	.LASF15:
 1662 00be 75696E74 		.ascii	"uint8_t\000"
 1662      385F7400 
 1663              	.LASF48:
 1664 00c6 63685F74 		.ascii	"ch_threads_queue\000"
 1664      68726561 
 1664      64735F71 
 1664      75657565 
 1664      00
 1665              	.LASF49:
 1666 00d7 70726576 		.ascii	"prev\000"
 1666      00
 1667              	.LASF82:
 1668 00dc 68656170 		.ascii	"heap\000"
 1668      00
 1669              	.LASF68:
 1670 00e1 66756E63 		.ascii	"funcp\000"
 1670      7000
 1671              	.LASF44:
 1672 00e7 63685F74 		.ascii	"ch_thread\000"
 1672      68726561 
 1672      6400
 1673              	.LASF30:
 1674 00f1 6F6C6465 		.ascii	"older\000"
 1674      7200
 1675              	.LASF32:
 1676 00f7 77616261 		.ascii	"wabase\000"
 1676      736500
 1677              	.LASF2:
 1678 00fe 6C6F6E67 		.ascii	"long double\000"
 1678      20646F75 
 1678      626C6500 
 1679              	.LASF19:
 1680 010a 746D6F64 		.ascii	"tmode_t\000"
 1680      655F7400 
 1681              	.LASF1:
 1682 0112 6C6F6E67 		.ascii	"long long int\000"
 1682      206C6F6E 
 1682      6720696E 
 1682      7400
 1683              	.LASF58:
 1684 0120 77747365 		.ascii	"wtsemp\000"
ARM GAS  /tmp/cc5rUxS6.s 			page 33


 1684      6D7000
 1685              	.LASF22:
 1686 0127 74707269 		.ascii	"tprio_t\000"
 1686      6F5F7400 
 1687              	.LASF97:
 1688 012f 2E2F4368 		.ascii	"./ChibiOS_20.3.0/os/rt/src/chdynamic.c\000"
 1688      6962694F 
 1688      535F3230 
 1688      2E332E30 
 1688      2F6F732F 
 1689              	.LASF98:
 1690 0156 2F686F6D 		.ascii	"/home/iamprithvishetty/CDSpace/mmc3416_test2\000"
 1690      652F6961 
 1690      6D707269 
 1690      74687669 
 1690      73686574 
 1691              	.LASF10:
 1692 0183 6C6F6E67 		.ascii	"long int\000"
 1692      20696E74 
 1692      00
 1693              	.LASF52:
 1694 018c 706F7274 		.ascii	"port_context\000"
 1694      5F636F6E 
 1694      74657874 
 1694      00
 1695              	.LASF5:
 1696 0199 5F5F7569 		.ascii	"__uint8_t\000"
 1696      6E74385F 
 1696      7400
 1697              	.LASF88:
 1698 01a3 63685468 		.ascii	"chThdCreateFromMemoryPool\000"
 1698      64437265 
 1698      61746546 
 1698      726F6D4D 
 1698      656D6F72 
 1699              	.LASF69:
 1700 01bd 74687265 		.ascii	"thread_descriptor_t\000"
 1700      61645F64 
 1700      65736372 
 1700      6970746F 
 1700      725F7400 
 1701              	.LASF29:
 1702 01d1 6E657765 		.ascii	"newer\000"
 1702      7200
 1703              	.LASF27:
 1704 01d7 71756575 		.ascii	"queue\000"
 1704      6500
 1705              	.LASF31:
 1706 01dd 6E616D65 		.ascii	"name\000"
 1706      00
 1707              	.LASF6:
 1708 01e2 756E7369 		.ascii	"unsigned char\000"
 1708      676E6564 
 1708      20636861 
 1708      7200
 1709              	.LASF91:
 1710 01f0 5F5F6675 		.ascii	"__func__\000"
ARM GAS  /tmp/cc5rUxS6.s 			page 34


 1710      6E635F5F 
 1710      00
 1711              	.LASF63:
 1712 01f9 6F776E65 		.ascii	"owner\000"
 1712      7200
 1713              	.LASF43:
 1714 01ff 74687265 		.ascii	"threads_list_t\000"
 1714      6164735F 
 1714      6C697374 
 1714      5F7400
 1715              	.LASF60:
 1716 020e 65776D61 		.ascii	"ewmask\000"
 1716      736B00
 1717              	.LASF3:
 1718 0215 7369676E 		.ascii	"signed char\000"
 1718      65642063 
 1718      68617200 
 1719              	.LASF34:
 1720 0221 666C6167 		.ascii	"flags\000"
 1720      7300
 1721              	.LASF62:
 1722 0227 63685F6D 		.ascii	"ch_mutex\000"
 1722      75746578 
 1722      00
 1723              	.LASF76:
 1724 0230 70726F76 		.ascii	"provider\000"
 1724      69646572 
 1724      00
 1725              	.LASF0:
 1726 0239 756E7369 		.ascii	"unsigned int\000"
 1726      676E6564 
 1726      20696E74 
 1726      00
 1727              	.LASF66:
 1728 0246 77626173 		.ascii	"wbase\000"
 1728      6500
 1729              	.LASF70:
 1730 024c 6D757465 		.ascii	"mutex_t\000"
 1730      785F7400 
 1731              	.LASF96:
 1732 0254 474E5520 		.ascii	"GNU C17 10.2.1 20201103 (release) -mcpu=cortex-m4 -"
 1732      43313720 
 1732      31302E32 
 1732      2E312032 
 1732      30323031 
 1733 0287 6D746875 		.ascii	"mthumb -mfloat-abi=soft -march=armv7e-m -ggdb -O2 -"
 1733      6D62202D 
 1733      6D666C6F 
 1733      61742D61 
 1733      62693D73 
 1734 02ba 666F6D69 		.ascii	"fomit-frame-pointer -falign-functions=16 -ffunction"
 1734      742D6672 
 1734      616D652D 
 1734      706F696E 
 1734      74657220 
 1735 02ed 2D736563 		.ascii	"-sections -fdata-sections -fno-common -flto\000"
 1735      74696F6E 
ARM GAS  /tmp/cc5rUxS6.s 			page 35


 1735      73202D66 
 1735      64617461 
 1735      2D736563 
 1736              	.LASF72:
 1737 0319 6D656D67 		.ascii	"memgetfunc_t\000"
 1737      65746675 
 1737      6E635F74 
 1737      00
 1738              	.LASF47:
 1739 0326 74687265 		.ascii	"threads_queue_t\000"
 1739      6164735F 
 1739      71756575 
 1739      655F7400 
 1740              	.LASF8:
 1741 0336 73686F72 		.ascii	"short unsigned int\000"
 1741      7420756E 
 1741      7369676E 
 1741      65642069 
 1741      6E7400
 1742              	.LASF95:
 1743 0349 62617365 		.ascii	"basePri\000"
 1743      50726900 
 1744              	.LASF46:
 1745 0351 6E657874 		.ascii	"next\000"
 1745      00
 1746              	.LASF64:
 1747 0356 63686172 		.ascii	"char\000"
 1747      00
 1748              	.LASF65:
 1749 035b 7466756E 		.ascii	"tfunc_t\000"
 1749      635F7400 
 1750              	.LASF16:
 1751 0363 696E7433 		.ascii	"int32_t\000"
 1751      325F7400 
 1752              	.LASF85:
 1753 036b 6F626A65 		.ascii	"object_size\000"
 1753      63745F73 
 1753      697A6500 
 1754              	.LASF25:
 1755 0377 636E745F 		.ascii	"cnt_t\000"
 1755      7400
 1756              	.LASF40:
 1757 037d 7265616C 		.ascii	"realprio\000"
 1757      7072696F 
 1757      00
 1758              	.LASF71:
 1759 0386 5F426F6F 		.ascii	"_Bool\000"
 1759      6C00
 1760              	.LASF93:
 1761 038c 706F7274 		.ascii	"port_unlock\000"
 1761      5F756E6C 
 1761      6F636B00 
 1762              	.LASF75:
 1763 0398 6D656D6F 		.ascii	"memory_heap\000"
 1763      72795F68 
 1763      65617000 
 1764              	.LASF87:
ARM GAS  /tmp/cc5rUxS6.s 			page 36


 1765 03a4 6D656D6F 		.ascii	"memory_pool_t\000"
 1765      72795F70 
 1765      6F6F6C5F 
 1765      7400
 1766              	.LASF13:
 1767 03b2 5F5F7569 		.ascii	"__uint64_t\000"
 1767      6E743634 
 1767      5F7400
 1768              	.LASF83:
 1769 03bd 73697A65 		.ascii	"size\000"
 1769      00
 1770              	.LASF35:
 1771 03c2 72656673 		.ascii	"refs\000"
 1771      00
 1772              	.LASF12:
 1773 03c7 6C6F6E67 		.ascii	"long unsigned int\000"
 1773      20756E73 
 1773      69676E65 
 1773      6420696E 
 1773      7400
 1774              	.LASF11:
 1775 03d9 5F5F7569 		.ascii	"__uint32_t\000"
 1775      6E743332 
 1775      5F7400
 1776              	.LASF100:
 1777 03e4 63685379 		.ascii	"chSysUnlock\000"
 1777      73556E6C 
 1777      6F636B00 
 1778              	.LASF73:
 1779 03f0 6D656D67 		.ascii	"memgetfunc2_t\000"
 1779      65746675 
 1779      6E63325F 
 1779      7400
 1780              	.LASF61:
 1781 03fe 63685F73 		.ascii	"ch_semaphore\000"
 1781      656D6170 
 1781      686F7265 
 1781      00
 1782              	.LASF51:
 1783 040b 706F7274 		.ascii	"port_intctx\000"
 1783      5F696E74 
 1783      63747800 
 1784              	.LASF9:
 1785 0417 5F5F696E 		.ascii	"__int32_t\000"
 1785      7433325F 
 1785      7400
 1786              	.LASF86:
 1787 0421 616C6967 		.ascii	"align\000"
 1787      6E00
 1788              	.LASF42:
 1789 0427 74687265 		.ascii	"thread_reference_t\000"
 1789      61645F72 
 1789      65666572 
 1789      656E6365 
 1789      5F7400
 1790              	.LASF55:
 1791 043a 77746F62 		.ascii	"wtobjp\000"
ARM GAS  /tmp/cc5rUxS6.s 			page 37


 1791      6A7000
 1792              	.LASF20:
 1793 0441 74737461 		.ascii	"tstate_t\000"
 1793      74655F74 
 1793      00
 1794              	.LASF50:
 1795 044a 73746B61 		.ascii	"stkalign_t\000"
 1795      6C69676E 
 1795      5F7400
 1796              	.LASF54:
 1797 0455 65786974 		.ascii	"exitcode\000"
 1797      636F6465 
 1797      00
 1798              	.LASF41:
 1799 045e 6D706F6F 		.ascii	"mpool\000"
 1799      6C00
 1800              	.LASF84:
 1801 0464 706F6F6C 		.ascii	"pool_header\000"
 1801      5F686561 
 1801      64657200 
 1802              	.LASF99:
 1803 0470 68656170 		.ascii	"heap_header\000"
 1803      5F686561 
 1803      64657200 
 1804              	.LASF90:
 1805 047c 68656170 		.ascii	"heapp\000"
 1805      7000
 1806              	.LASF101:
 1807 0482 5F5F7365 		.ascii	"__set_BASEPRI\000"
 1807      745F4241 
 1807      53455052 
 1807      4900
 1808              	.LASF36:
 1809 0490 77616974 		.ascii	"waiting\000"
 1809      696E6700 
 1810              	.LASF39:
 1811 0498 6D74786C 		.ascii	"mtxlist\000"
 1811      69737400 
 1812              	.LASF79:
 1813 04a0 66726565 		.ascii	"free\000"
 1813      00
 1814              	.LASF81:
 1815 04a5 70616765 		.ascii	"pages\000"
 1815      7300
 1816              	.LASF53:
 1817 04ab 7264796D 		.ascii	"rdymsg\000"
 1817      736700
 1818              	.LASF23:
 1819 04b2 6D73675F 		.ascii	"msg_t\000"
 1819      7400
 1820              	.LASF28:
 1821 04b8 7072696F 		.ascii	"prio\000"
 1821      00
 1822              	.LASF57:
 1823 04bd 73656E74 		.ascii	"sentmsg\000"
 1823      6D736700 
 1824              	.LASF56:
ARM GAS  /tmp/cc5rUxS6.s 			page 38


 1825 04c5 77747472 		.ascii	"wttrp\000"
 1825      7000
 1826              	.LASF59:
 1827 04cb 77746D74 		.ascii	"wtmtxp\000"
 1827      787000
 1828              	.LASF21:
 1829 04d2 74726566 		.ascii	"trefs_t\000"
 1829      735F7400 
 1830              	.LASF74:
 1831 04da 6D656D6F 		.ascii	"memory_heap_t\000"
 1831      72795F68 
 1831      6561705F 
 1831      7400
 1832              		.text
 1833              		.section	.gnu.lto_.profile.bfbc1e068b2d7dc,"e",%progbits
 1834 0000 789C6362 		.ascii	"x\234cb\000\001\000\000\022\000\003"
 1834      00010000 
 1834      120003
 1835              		.text
 1836              		.section	.gnu.lto_.icf.bfbc1e068b2d7dc,"e",%progbits
 1837 0000 789CE365 		.ascii	"x\234\343e@\000&\206S\337\31732~\234q\376\020;\003\000"
 1837      40002686 
 1837      53DFCF33 
 1837      327E9C71 
 1837      FE103B03 
 1838 0015 295005C3 		.ascii	")P\005\303"
 1839              		.text
 1840              		.section	.gnu.lto_.ipa_sra.bfbc1e068b2d7dc,"e",%progbits
 1841 0000 789C8B64 		.ascii	"x\234\213d@\000&\0066\006\016\006v\006,\200\231\011"
 1841      40002606 
 1841      36060E06 
 1841      76062C80 
 1841      9909
 1842 0012 C6626484 		.ascii	"\306bd\204\01006\360 \3113\262b\325\305\000Q\014\000"
 1842      083036F0 
 1842      20C933B2 
 1842      62D5C500 
 1842      510C00
 1843 0025 45BE0112 		.ascii	"E\276\001\022"
 1844              		.text
 1845              		.section	.gnu.lto_.inline.bfbc1e068b2d7dc,"e",%progbits
 1846 0000 789CAB64 		.ascii	"x\234\253d@\000&\006\011\251\375\277\277~e\312`d`\222"
 1846      40002606 
 1846      09A9FDBF 
 1846      BF7E65CA 
 1846      60646092 
 1847 0014 D8B56FFF 		.ascii	"\330\265o\3779\2464\006\006\266\006 `Ja\002J300\363"
 1847      39A63406 
 1847      06B60620 
 1847      604A6102 
 1847      4A333030 
 1848 0029 80D44DF0 		.ascii	"\200\324M\360\2030\030\031X\371@\202\023\374\200\"\214"
 1848      83301819 
 1848      58F94082 
 1848      13FC8022 
 1848      8C
 1849 003a 12522F26 		.ascii	"\022R/&\356\374\014\326,\275\275\261\363;H3\373\322"
ARM GAS  /tmp/cc5rUxS6.s 			page 39


 1849      EEFC0CD6 
 1849      2CBDBDB1 
 1849      F33B4833 
 1849      FBD2
 1850 004c 9B3DDB70 		.ascii	"\233=\333pi\206P@>\000)\221\031\243"
 1850      69865040 
 1850      3E002991 
 1850      19A3
 1851              		.text
 1852              		.section	.gnu.lto_.jmpfuncs.bfbc1e068b2d7dc,"e",%progbits
 1853 0000 789C858E 		.ascii	"x\234\205\216\321\011\002A\014\005\337lr\353\372!\226"
 1853      D1090241 
 1853      0C05DF6C 
 1853      72EBFA21 
 1853      96
 1854 0011 60297676 		.ascii	"`)vv\366`\015[\202w\337\026&h.\302\011r\350\203aI\310"
 1854      F6600D5B 
 1854      8277DF16 
 1854      26682EC2 
 1854      0972E883 
 1855 0028 3EE680D6 		.ascii	">\346\200\326\024U2g\272\351\322\215\240\004\026x0\270"
 1855      14553267 
 1855      BAE9D28D 
 1855      A0041678 
 1855      30B8
 1856 003a C4DD51F0 		.ascii	"\304\335Q\360\214\034U\256\326\255\362Y/-\353\360Xn"
 1856      8C1C55AE 
 1856      D6ADF259 
 1856      2F2DEBF0 
 1856      586E
 1857 004c C89B1DBC 		.ascii	"\310\233\035\274\237\374W}\024_U>\262\331\336h\271n"
 1857      9FFC577D 
 1857      145F553E 
 1857      B2D9DE68 
 1857      B96E
 1858 005e D9CE9086 		.ascii	"\331\316\220\206\247\260\331\377\267\343\306O3&\230"
 1858      A7B0D9FF 
 1858      B7E3C64F 
 1858      332698
 1859 006d 291B367A 		.ascii	")\0336z\001s\037E\177"
 1859      01731F45 
 1859      7F
 1860              		.text
 1861              		.section	.gnu.lto_.pureconst.bfbc1e068b2d7dc,"e",%progbits
 1862 0000 789C6367 		.ascii	"x\234cg```b\330\305\312\270\213\025\000\005\230\001"
 1862      60606062 
 1862      D8C5CAB8 
 1862      8B150005 
 1862      9801
 1863 0012 89       		.ascii	"\211"
 1864              		.text
 1865              		.section	.gnu.lto_.lto.bfbc1e068b2d7dc,"e",%progbits
 1866 0000 09000200 		.ascii	"\011\000\002\000\001\000\000\000"
 1866      01000000 
 1867              		.text
 1868              		.section	.gnu.lto_chThdCreateFromHeap.313.bfbc1e068b2d7dc,"e",%progbits
 1869 0000 789C8D94 		.ascii	"x\234\215\224mL[e\024\307\237s\237\3337&e86\346\276"
ARM GAS  /tmp/cc5rUxS6.s 			page 40


 1869      6D4C5B65 
 1869      14C79F73 
 1869      9FDB3726 
 1869      653836E6 
 1870 0015 C8886431 		.ascii	"\310\210d1\231\275\355\230\323}\233bL\026%\232\361e"
 1870      99BDED98 
 1870      D37D9B62 
 1870      4C16259A 
 1870      F165
 1871 0027 9F4A4AA9 		.ascii	"\237JJ\251k\023K\233\266\316\341\007w\307\333\022|\031"
 1871      6B134B9B 
 1871      B6CEE107 
 1871      77C7DB12 
 1871      7C19
 1872 0039 650E0894 		.ascii	"e\016\010\224\006\241.\233\":\335\034\033\324\325\341"
 1872      06A12E9B 
 1872      223ADD1C 
 1872      1BD4D5E1 
 1873 0049 C6DC7483 		.ascii	"\306\334t\203\275P\024\035\021\202\341%B\005?\260\211"
 1873      BD50141D 
 1873      1182E125 
 1873      42053FB0 
 1873      89
 1874 005a D1F33CF7 		.ascii	"\321\363<\367\332\026\243\306/\367\345\177\177\3179"
 1874      DA16A3C6 
 1874      2FF7E57F 
 1874      7FCF39
 1875 0069 E7F99FF3 		.ascii	"\347\371\237\363\334Q-!{\201\220g\011!\240!\320\030"
 1875      DC512D21 
 1875      7B819067 
 1875      0921A021 
 1875      D018
 1876 007b AC17882C 		.ascii	"\254\027\210,\313\273t\202P\023|C\200k0v|\311 V\007"
 1876      CBBB7482 
 1876      50137C43 
 1876      806B3076 
 1876      7CC92056 
 1877 0090 8DEF7DFB 		.ascii	"\215\357}\373\346\016\221\302;\301\372xx;GD8\224\304"
 1877      E60E91C2 
 1877      3BC1FA78 
 1877      783B4744 
 1877      3894C4
 1878 00a3 811C14A8 		.ascii	"\201\034\024\250\010\007\341(\015Qh\244\021J@T\237\000"
 1878      0807E128 
 1878      0D5168A4 
 1878      114A4054 
 1878      9F00
 1879 00b5 F21E8DC9 		.ascii	"\362\036\215\311\362rm\353\373\223\332\320\211\230\030"
 1879      F2726DEB 
 1879      FB93DAD0 
 1879      899818
 1880 00c4 A1020923 		.ascii	"\241\002\011#p\006\3404&'\004A\272\227lAh\350n\257,"
 1880      7006E034 
 1880      26270441 
 1880      BA976C41 
 1880      68E86EAF 
 1881 00d9 1B488452 		.ascii	"\033H\204R8\013i\014\012\326{\231\214\013(\334\212\312"
ARM GAS  /tmp/cc5rUxS6.s 			page 41


 1881      380B690C 
 1881      0AD67B99 
 1881      8C0B28DC 
 1881      8ACA
 1882 00eb 89706E35 		.ascii	"\211pn5'Zk\215\214\253\344\\\342\203\311&c\003D\250"
 1882      275A6B8D 
 1882      8CABE45C 
 1882      E283C926 
 1882      630344A8 
 1883 00ff 06FA5673 		.ascii	"\006\372Vs\032k\220s\257+\361\356\251\361\264\020]\315"
 1883      1A6B9073 
 1883      AF2BF1EE 
 1883      A9F1B410 
 1883      5DCD
 1884 0111 69ADED9C 		.ascii	"i\255\355\234\253\006%`\367\344Q\036P\007\027V\203:"
 1884      AB062560 
 1884      F7E4511E 
 1884      50071756 
 1884      833A
 1885 0123 EB490ED6 		.ascii	"\353I\016\326)\340\320\214\032Q\017_\254\006\365\326"
 1885      29E0D08C 
 1885      1A510F5F 
 1885      AC06F5D6 
 1886 0133 D346BE67 		.ascii	"\323F\276g\305\246\215I\233b\300\326\327\003\373V\320"
 1886      C5A68D49 
 1886      9B62C0D6 
 1886      D703FB56 
 1886      D0
 1887 0144 80B9A293 		.ascii	"\200\271\242\223\3175\034\322G\250\001.\361\020_\002"
 1887      CF351CD2 
 1887      47A8012E 
 1887      F1105F02 
 1888 0154 0C70C3AC 		.ascii	"\014p\303\254q\236\352-\005ee\365t\325\0319\253\207"
 1888      719EEA2D 
 1888      056565F5 
 1888      74D51939 
 1888      AB87
 1889 0166 415865AE 		.ascii	"AXe\256\365\032g\203)\366\303\256\303\012+\300W\177"
 1889      F51A6783 
 1889      29F6C3AE 
 1889      C30A2BC0 
 1889      577F
 1890 0178 6363462D 		.ascii	"ccF-\201\253\000W\000.\003k\022!\002.\3031\011c\201"
 1890      81AB0057 
 1890      002E036B 
 1890      1221022E 
 1890      C3310963 
 1891 018d 5FF3185A 		.ascii	"_\363\030Z\354x\357\274\205\340p\204\261\223\252\022"
 1891      EC78EFBC 
 1891      85E07084 
 1891      B193AA12 
 1892 019d EABE3485 		.ascii	"\352\2764\205\023\364\015j\2247\264\237\303\314\212"
 1892      13F40D6A 
 1892      9437B49F 
 1892      C3CC8A
 1893 01ac E596B7C7 		.ascii	"\345\226\267\307nl\012\311\254\363\031p\003X(%%\014"
 1893      6E6C0AC9 
ARM GAS  /tmp/cc5rUxS6.s 			page 42


 1893      ACF31970 
 1893      03582825 
 1893      250C
 1894 01be A19319D6 		.ascii	"\241\223\031\326O\263\324\322\226\303\215\3213[\007"
 1894      4FB3D4D2 
 1894      96C38DD1 
 1894      335B07
 1895 01cd AAE52B72 		.ascii	"\252\345+r\222%)V\031\025\226m\371\247V-\014\243x\235"
 1895      92252956 
 1895      1915966D 
 1895      F9A7562D 
 1895      0CA3789D 
 1896 01e1 4523581F 		.ascii	"E#X\037\334L\257/4\335\221\245\024(\246\012\254\375"
 1896      DC4CAF2F 
 1896      34DD91A5 
 1896      1428A60A 
 1896      ACFD
 1897 01f3 1D0BBC8D 		.ascii	"\035\013\274\215\232\206\244\362\375\374\277\362\365"
 1897      9A86A4F2 
 1897      FDFCBFF2 
 1897      F5
 1898 0200 AE60BE11 		.ascii	"\256`\276\021\024\357$\363\305y>dh\322\260\217njb\362"
 1898      14EF24F3 
 1898      C5793E64 
 1898      68D2B08F 
 1898      6E6A62F2 
 1899 0214 CA1F47E4 		.ascii	"\312\037G\344\330\341\314\356\201\266\361\260\260\011"
 1899      D8E1CCEE 
 1899      81B6F1B0 
 1899      B009
 1900 0222 B0E16B04 		.ascii	"\260\341k\004\274\010\032\200^\320\002\234\007=A\334"
 1900      BC081A80 
 1900      5ED0029C 
 1900      073D41DC 
 1901 0232 00D00F99 		.ascii	"\000\320\017\231\000\237C\026\353|6\300E\310a\336\023"
 1901      009F4316 
 1901      EB7C36C0 
 1901      45C861DE 
 1901      13
 1902 0243 7284B243 		.ascii	"r\204\262C%\213 \307\010i\240\202\362R\215/\263 O\214"
 1902      258B20C7 
 1902      0869A082 
 1902      F2528D2F 
 1902      B3204F8C 
 1903 0257 5D36E0C6 		.ascii	"]6\340\306\370\343\367Z~KhI\002\352:\012;\251\276\006"
 1903      F8E3F75A 
 1903      7E4B6849 
 1903      02EA3A0A 
 1903      3BA9BE06 
 1904 026b 84087D20 		.ascii	"\204\010} L\261\300N\252\351\244Z6Y\231\200\2756\"Z"
 1904      4CB1C04E 
 1904      AAE9A45A 
 1904      36599980 
 1904      BD36225A 
 1905 027f 95878991 		.ascii	"\225\207\211\221\342\253\226\260\3013P3=\260\011\025"
 1905      E2AB96B0 
 1905      C1335033 
ARM GAS  /tmp/cc5rUxS6.s 			page 43


 1905      3DB00915 
 1906 028f 30B1F663 		.ascii	"0\261\366c2z\362\352\324\3074\231\3547\204\346\241\252"
 1906      327AF2EA 
 1906      D4C73499 
 1906      EC3784E6 
 1906      A1AA
 1907 02a1 7526D7CC 		.ascii	"u&\327\314\316\014\356\261\235\315D'50\271\311\300\324"
 1907      CE0CEEB1 
 1907      9DCD4427 
 1907      3530B9C9 
 1907      C0D4
 1908 02b3 355C05A6 		.ascii	"5\\\005\246\352Q\255\376\244n0\224\321IY\",\200q\211"
 1908      EA51ADFE 
 1908      A46E3094 
 1908      D1495922 
 1908      2C807189 
 1909 02c7 FA85366B 		.ascii	"\372\2056k\012\025\030\252\304\345\001\264\\\245L\315"
 1909      0A1518AA 
 1909      C4E501B4 
 1909      5CA54CCD 
 1910 02d7 4CA93AAE 		.ascii	"L\251:\256\212L\315J\251z\256j\230\232\315+<7\310\275"
 1910      8A4CCD4A 
 1910      A97AAE6A 
 1910      989ACD2B 
 1910      3C37C8BD 
 1911 02eb 583A75AC 		.ascii	"X:u\254\261\271\011p\376\270\332\0347\360\015,E#\367"
 1911      B1B90970 
 1911      FEB8DA1C 
 1911      37F00D2C 
 1911      4523F7
 1912 02fe 6747D7E1 		.ascii	"gG\327\341\230p\271m\256\005\210b\3040?t\031\220\247"
 1912      9870B96D 
 1912      AE058862 
 1912      C4303F74 
 1912      1990A7
 1913 0311 AC0E7D36 		.ascii	"\254\016}6\336\0168C\034\353\0337\300- \013P\225\317"
 1913      DE0E3843 
 1913      1CEB1B37 
 1913      C02D200B 
 1913      5095CF
 1914 0324 3A1C6547 		.ascii	":\034eG`\363u\241\016md\223*\262\277\345\004\020\274"
 1914      60F375A1 
 1914      0E6D6493 
 1914      2AB2BFE5 
 1914      0410BC
 1915 0337 C324C08F 		.ascii	"\303$\300\217|\3526\017\363\357k\371\307)%K\242?\322"
 1915      7CEA360F 
 1915      F3EF6BF9 
 1915      C729254B 
 1915      A23FD2
 1916 034a 3A87DD1E 		.ascii	":\207\335\036\346\257\362\342\251c-\315\005J!\315\033"
 1916      E6AFF2E2 
 1916      A9632DCD 
 1916      054A21CD 
 1916      1B
 1917 035b B8F2EEAD 		.ascii	"\270\362\356\255\276\347Y7\023P\323a\351\2449\274\177"
 1917      BEE75937 
ARM GAS  /tmp/cc5rUxS6.s 			page 44


 1917      1350D361 
 1917      E9A439BC 
 1917      7F
 1918 036c D961AA23 		.ascii	"\331a\252#\244\006\260\355'\036\216\320\007q\313\310"
 1918      A406B0ED 
 1918      271E8ED0 
 1918      0771CBC8 
 1919 037c 44E83A16 		.ascii	"D\350:\026\263\303\2023\202$\017\023\035\3446.N\033"
 1919      B3C38233 
 1919      82240F13 
 1919      1DE4362E 
 1919      4E1B
 1920 038e D59F88C0 		.ascii	"\325\237\210\300k9\316\226Nc\244\034\004a\006\210\031"
 1920      6B39CE96 
 1920      4E63A41C 
 1920      04610688 
 1920      19
 1921 039f DFB1B8F5 		.ascii	"\337\261\270\3650\213\346\341l0t\003(\233\2750\310\322"
 1921      308BE6E1 
 1921      6C307403 
 1921      289BBD30 
 1921      C8D2
 1922 03b1 D7E6119E 		.ascii	"\327\346\021\236;7\214MDss\030\262\221M\357C\234\032"
 1922      3B378C4D 
 1922      44737318 
 1922      B2914DEF 
 1922      439C1A
 1923 03c4 D2A92E9F 		.ascii	"\322\251.\237g.\337V\22767+;\233\030\216?\302\357?\304"
 1923      672EDF56 
 1923      9736372B 
 1923      3B9B188E 
 1923      3FC2EF3F 
 1924 03d9 F997FCE4 		.ascii	"\371\227\374\344e\342\327\\\265\017\337\315a\037\356"
 1924      65E2D75C 
 1924      B50FDFCD 
 1924      611FEE
 1925 03e8 280B7F49 		.ascii	"(\013\177I\365aD\355\003I\357C<\325\207\321\364>\250"
 1925      F56144ED 
 1925      0349EF43 
 1925      3CD587D1 
 1925      F43EA8
 1926 03fb 8E2F70EF 		.ascii	"\216/p\357\323mN0\233GT\233;\272\242\"3\225\315\263"
 1926      D36D4E30 
 1926      9B47549B 
 1926      3BBAA222 
 1926      3395CDB3 
 1927 040f 983A3CF3 		.ascii	"\230:<\363p\361.;\245;\363\361\217J\026\241j\027\356"
 1927      70F12E3B 
 1927      A53BF3F1 
 1927      8F4A16A1 
 1927      6A17EE
 1928 0422 136791DC 		.ascii	"\023g\221\334\007\001M\022z\316&\364\270\014\367N{\242"
 1928      07014D12 
 1928      7ACE26F4 
 1928      B80CF74E 
 1928      7BA2
 1929 0434 4E3C85A0 		.ascii	"N<\205\240\254\255\212\261\243\361\230\344\364\270\035"
ARM GAS  /tmp/cc5rUxS6.s 			page 45


 1929      ACAD8AB1 
 1929      A3F198E4 
 1929      F4B81D
 1930 0443 92CBE6F6 		.ascii	"\222\313\346\366\372\\\001\347~\227\337\351\010\004"
 1930      FA5C01E7 
 1930      7E97DFE9 
 1930      0804
 1931 0451 2AA5A267 		.ascii	"*\245\242gJ\2746\273Cr\273\355\205\333-;J\003\016\177"
 1931      4ABC36BB 
 1931      4372BBED 
 1931      85DB2D3B 
 1931      4A030E7F 
 1932 0465 601BD962 		.ascii	"`\033\331b\222\212\234\2562\327\013%\245\333\314\246"
 1932      928A9CAE 
 1932      32D70B25 
 1932      A5DBCCA6 
 1933 0475 429359F2 		.ascii	"B\223Y\362\370%_@\362\373\354\222\335Y^Yas\273\354&"
 1933      F8255F40 
 1933      F2FBEC92 
 1933      DD595E59 
 1933      6173BBEC 
 1934 048a 3BD1381D 		.ascii	";\3218\0356\257w}\232dz\322l\261\230w\226Y\210\350w"
 1934      36AF777D 
 1934      9A647AD2 
 1934      6CB19877 
 1934      965988E8 
 1935 049f BDE61051 		.ascii	"\275\346\020Qv\210\230\322#x_\2426\337>!PN_\365{\205"
 1935      768898D2 
 1935      23785FA2 
 1935      36DF3E21 
 1935      504E5FF5 
 1936 04b5 80F7DF72 		.ascii	"\200\367\337r\270*\354/\277R\356\300<\376J\277\311I"
 1936      B82AEC2F 
 1936      BF52EEC0 
 1936      3CFE4ABF 
 1936      C949
 1937 04c7 746536BF 		.ascii	"te6\277\343E\237\353\351\177\342\355\036\267\333S!9"
 1937      E3459FEB 
 1937      E97FE2ED 
 1937      1EB7DB53 
 1937      2139
 1938 04d9 0E04A4A7 		.ascii	"\016\004\244\247\366\024KE\305%\273K\244\"\217\317!"
 1938      F6144B45 
 1938      C525BB4B 
 1938      A4228FCF 
 1938      21
 1939 04ea EDFE2B8C 		.ascii	"\355\376+\214\333\357\362\227\356\263\3331\324\343\377"
 1939      DBEFF297 
 1939      EEB3DB31 
 1939      D4E3FF
 1940 04f9 11C2EBF1 		.ascii	"\021\302\353\361\005\374,HQ\361\001\314m\307\030\245"
 1940      05FC2C48 
 1940      51F101CC 
 1940      6DC718A5 
 1941 0509 FB9F70E3 		.ascii	"\373\237p\343\252\265\305%{\362X\021\270\215\255y\005"
 1941      AAB5C525 
 1941      7BF25811 
ARM GAS  /tmp/cc5rUxS6.s 			page 46


 1941      B88DAD79 
 1941      05
 1942 051a 6622F888 		.ascii	"f\"\370\210\316\355p{|\225\344OX\310\237R"
 1942      CEED707B 
 1942      7C95E44F 
 1942      58C89F52 
 1943              		.text
 1944              		.section	.gnu.lto_chThdCreateFromMemoryPool.314.bfbc1e068b2d7dc,"e",%progbits
 1945 0000 789C8D54 		.ascii	"x\234\215T[l\024U\030>\3779\263\227)l[\244P\304\007"
 1945      5B6C1455 
 1945      183EFF39 
 1945      B397296C 
 1945      5BA450C4 
 1946 0015 4B63434C 		.ascii	"KcCL`g[\020\345\015\2551!\332H\350\013\311&6\355ve7"
 1946      60675B10 
 1946      E50DAD31 
 1946      21DA48E8 
 1946      0BC92636 
 1947 002d 71BAEBEE 		.ascii	"q\272\353\356\2124&2\364\032\013\206\026\011Kj)\270"
 1947      8A342632 
 1947      F41A0B86 
 1947      16094B6A 
 1947      29B8
 1948 003f D9122E8A 		.ascii	"\331\022.\212F\250\266@am\005\241U\013\245X\244\"\261"
 1948      46A8B640 
 1948      616D05A1 
 1948      550BA558 
 1948      A422B1
 1949 0052 5AD27229 		.ascii	"Z\322r)\333\326\207\206\213\370\2373\343nK\224\3702"
 1949      DBD68786 
 1949      8BF89F33 
 1949      E36E4B94 
 1949      F832
 1950 0064 976FBEFF 		.ascii	"\227o\276\377\373/\337\177&\333B\310\032 \344\025B\010"
 1950      FB2FDF7F 
 1950      26DB42C8 
 1950      1A20E415 
 1950      4208
 1951 0076 98086C6F 		.ascii	"\230\010lo\250\243D\323\264U\026J\253\032\266P8\007"
 1951      A8A344D3 
 1951      B455164A 
 1951      AB1AB650 
 1951      3807
 1952 0088 83FB2665 		.ascii	"\203\373&e\251\262!\265\345\347\255+$\006;\032\352\256"
 1952      A9B221B5 
 1952      E5E7AD2B 
 1952      24063B1A 
 1952      EAAE
 1953 009a 1D5E2E28 		.ascii	"\035^.(\022lN\320\201l\242L\202M\360\021kb\260\235E"
 1953      126C4ED0 
 1953      816CA24C 
 1953      824DF011 
 1953      6B62B09D 
 1954 00af 1901C978 		.ascii	"\031\001\311x\002\310z6\246iS\325\215\007\206\315M\373"
 1954      02C87A36 
 1954      A66953D5 
 1954      8D0786CD 
ARM GAS  /tmp/cc5rUxS6.s 			page 47


 1954      4DFB
 1955 00c1 63529451 		.ascii	"cR\224Q\322\214\204V\200\243\230\234\020$\262ud1\222"
 1955      D28C8456 
 1955      80A3989C 
 1955      1024B275 
 1955      643192
 1956 00d4 CEDF6AD3 		.ascii	"\316\337j\3234\231D\031\203\257a\032\007\001\347\310"
 1956      34994419 
 1956      83AF611A 
 1956      0701E7C8 
 1957 00e4 6CCE7B5B 		.ascii	"l\316{[\347m\255\254\325\322QI\202\366\231<\3119)x\033"
 1957      E76DADAC 
 1957      D5D25149 
 1957      82F6993C 
 1957      C9392978 
 1958 00f9 042F7EB0 		.ascii	"\004/~\260%\234Z\017Qf\202\3433y&\347C\301{O\327\273"
 1958      259C5A0F 
 1958      516682E3 
 1958      337926E7 
 1958      43C17B4F 
 1959 010f 67E43543 		.ascii	"g\3445C\307L\236\331\271\305\306y\357\353\274\017\215"
 1959      C74C9ED9 
 1959      B9C5C679 
 1959      EFEBBC0F 
 1959      8D
 1960 0120 BC163835 		.ascii	"\274\02685\223gq\356\264\211N\364\346\027$\232\217\001"
 1960      936771EE 
 1960      B4894EF4 
 1960      E617249A 
 1960      8F01
 1961 0132 0FAF00FE 		.ascii	"\017\257\000\376-\247\036K\352\030~\265~\2635\312\254"
 1961      2DA71E4B 
 1961      EA187EB5 
 1961      7EB335CA 
 1961      AC
 1962 0143 D025243A 		.ascii	"\320%$:\001\276\021cpv\212L\325:\225W\377iKM\252\340"
 1962      01BE1163 
 1962      70768A4C 
 1962      D53A9557 
 1962      FF694B4D 
 1963 0159 5AE034CC 		.ascii	"Z\3404\314\030\231\3633\301\375 \311=\324R\253s)|\367"
 1963      1899F333 
 1963      C1FD20C9 
 1963      3DD452AB 
 1963      73297CF7 
 1964 016d 08376233 		.ascii	"\0107b3\0238\013p\006\340[\340\243'\204b\230\231\340"
 1964      13380B70 
 1964      06E05BE0 
 1964      A3278462 
 1964      9899E0
 1965 0180 3340B7D0 		.ascii	"3@\267\3200\243\217mcy\004-oF\177\014\244\251\351\364"
 1965      30A38F6D 
 1965      6379042D 
 1965      6F467F0C 
 1965      A4A9E9F4 
 1966 0194 30EE450F 		.ascii	"0\356E\017bL\330tT\220\371(\246\246\266\014\366.l\322"
 1966      624CD874 
ARM GAS  /tmp/cc5rUxS6.s 			page 48


 1966      5490F928 
 1966      A6A6B60C 
 1966      F62E6CD2 
 1967 01a8 B89F32FC 		.ascii	"\270\2372\374\000\\JO\011?\342\300e\347\2214\243\264"
 1967      005C4A4F 
 1967      093FE2C0 
 1967      65E79134 
 1967      A3B4
 1968 01ba A9BFB675 		.ascii	"\251\277\266u\264.\351\252\324\316j\011.Ir\365\005\340"
 1968      B42EE9AA 
 1968      D4CE6A09 
 1968      2E4972F5 
 1968      05E0
 1969 01cc D9A6AE37 		.ascii	"\331\246\2567\232\241\027\301\357\271\032\301\372\340"
 1969      9AA117C1 
 1969      EFB91AC1 
 1969      FAE0
 1970 01da FCF4FA9A 		.ascii	"\374\364\372\232F\242\231z\201R\262\300\352\007X`\037"
 1970      46A2997A 
 1970      8152B2C0 
 1970      EA075860 
 1970      1F
 1971 01eb 622692CC 		.ascii	"b&\222\314w\373\177\345k\273\217\371\372\021\274\230"
 1971      77FB7FE5 
 1971      6BBB8FF9 
 1971      FA11BC98 
 1972 01fb C87749E4 		.ascii	"\310wI\344C\016K\014\354\363>SL\273\377p\233\026\253"
 1972      430E4B0C 
 1972      ECF33E53 
 1972      4CBBFF70 
 1972      9B16AB
 1973 020e B51D3C7D 		.ascii	"\265\035<}=~+\347)@\303S(^f1\274P3@\033X\011\322e\200"
 1973      3D7E2BE7 
 1973      2940C353 
 1973      285E6631 
 1973      BC503340 
 1974 0228 63600338 		.ascii	"c`\0038\001i\000'a\016\267?\203\317\236\220m\214\037"
 1974      01690027 
 1974      610EB73F 
 1974      83CF9E90 
 1974      6D8C1F
 1975 023b 154D022D 		.ascii	"\025M\002-FH=\243\372K%\276\334\000mh\240[\306\306\304"
 1975      46483DA3 
 1975      FA4B25BE 
 1975      DC006D68 
 1975      A05BC6C6 
 1976 0250 E3E51471 		.ascii	"\343\345\024q\373E\334\262\023\227\241x\012\211C\325"
 1976      FB45DCB2 
 1976      1397A178 
 1976      0A8943D5 
 1977 0260 DE651166 		.ascii	"\336e\021f\255\002\032e\263\233\031V\034a\346(\263!"
 1977      AD021A65 
 1977      B39B1956 
 1977      1C61E628 
 1977      B321
 1978 0272 A1220BF3 		.ascii	"\241\"\013\363\3437\301\235\304&F\241j\244k!\"`\347"
 1978      E337C19D 
ARM GAS  /tmp/cc5rUxS6.s 			page 49


 1978      C42646A1 
 1978      6AA46B21 
 1978      2260E7
 1979 0285 5B8039D9 		.ascii	"[\2009\331\201\356\341/X\"\347=$\215AE\343h\246\203"
 1979      81EEE12F 
 1979      5822E73D 
 1979      248D4145 
 1979      E368A683 
 1980 0299 1F1C6C75 		.ascii	"\037\034lu7_\215\010\2239\274S\346\350,\201\002G\255"
 1980      375F8D08 
 1980      9339BC53 
 1980      E6E82C81 
 1980      0247AD
 1981 02ac 1C3DD1FE 		.ascii	"\034=\321\376\307\204\034a`\2547\023\336\354\003\354"
 1981      C7841C61 
 1981      60AC3713 
 1981      DEEC03EC 
 1982 02bc 05372F15 		.ascii	"\0057/\025\213\201+@\034\372k\032\014b,E\3111\250\374"
 1982      8B812B40 
 1982      1CFA6B1A 
 1982      0C622C45 
 1982      C931A8FC 
 1983 02d0 B2666984 		.ascii	"\262fi\204QT\301`.\024\257\273s\350\215d\006\3063PQ"
 1983      5154C160 
 1983      2E14AFBB 
 1983      73E88D64 
 1983      06C63350 
 1984 02e5 8EC86B12 		.ascii	"\216\310k\022\250\304Q[\0225\013\324\304\321\264$j\021"
 1984      A8C4515B 
 1984      12350BD4 
 1984      C4D1B424 
 1984      6A11
 1985 02f7 A898C51C 		.ascii	"\250\230\305\034\321X{\217\230\344\344\370\216\355\341"
 1985      D1587B8F 
 1985      98E4E4F8 
 1985      8EEDE1
 1986 0306 9D00FADB 		.ascii	"\235\000\372\333Px@\026}O>\330s\367\306\345\271\270"
 1986      50784016 
 1986      7D4F3ED8 
 1986      73F7C6E5 
 1986      B9B8
 1987 0318 6402FEF8 		.ascii	"d\002\376\370\346. \372\374zEO2d\351\321\341\257\256"
 1987      E62E20FA 
 1987      FC7A454F 
 1987      3264E9D1 
 1987      E1AFAE
 1988 032b ED06DC40 		.ascii	"\355\006\334@A;~M\206\013@\356@E6\337\217V~\200\026"
 1988      413B7E4D 
 1988      860B40EE 
 1988      404536DF 
 1988      8F567E80 
 1989 0340 9DA135D8 		.ascii	"\235\2415\330g:>J\374\017:\004\004\357\360;\300ob.\213"
 1989      673A3E4A 
 1989      FC0F3A04 
 1989      04EFF03B 
 1989      C06F622E 
 1990 0355 CE89EF73 		.ascii	"\316\211\357s\304\307a=K\374\376\236\306\233\270+\275"
ARM GAS  /tmp/cc5rUxS6.s 			page 50


 1990      C4C7613D 
 1990      4BFCFE9E 
 1990      C69BB82B 
 1990      BD
 1991 0366 E2559B18 		.ascii	"\342U\233\030\337\261+\234\243\027\022\236/\220O.\016"
 1991      DFB12B9C 
 1991      A317129E 
 1991      2F904F2E 
 1991      0E
 1992 0377 BEC67781 		.ascii	"\276\306w\201\233\235\033a\031\302\354'\232\031\376"
 1992      9B9D1B61 
 1992      19C2EC27 
 1992      9A19FE
 1993 0386 ABABF8A0 		.ascii	"\253\253\370\240\367?\035es\261e\344DY\006\327\334\233"
 1993      F73F1D65 
 1993      73B165E4 
 1993      445906D7 
 1993      DC9B
 1994 0398 8B1B1611 		.ascii	"\213\033\026\021\317\332PG\217\230\357\304H\252\341"
 1994      CFDA5047 
 1994      8F98EFC4 
 1994      48AAE1
 1995 03a7 114D7A34 		.ascii	"\021Mz4\202J\363\220\010\243\011\223\346\303\015\034"
 1995      824AF390 
 1995      08A30993 
 1995      E6C30D1C 
 1996 03b7 1E6A736A 		.ascii	"\036jsj&P\241q\252\307\330\214\324\307DZ\3406FZ\305"
 1996      2650A171 
 1996      AAC7D88C 
 1996      D4C7445A 
 1996      E036465A 
 1997 03cc 0A8AA80B 		.ascii	"\012\212\250\013=\274\350\352,\"*^\320\254\177\313\340"
 1997      3DBCE8EA 
 1997      2C222A5E 
 1997      D0AC7FCB 
 1997      E0
 1998 03dd C24FF213 		.ascii	"\302O\362\023\263P\260\372f\031\336\034\343\336\364"
 1998      B350B0FA 
 1998      6619DE1C 
 1998      E3DEF4
 1999 03ec E9D33D15 		.ascii	"\351\323=\025\016\353\363\030\2720\360\214\270_\035"
 1999      0EEBF318 
 1999      BA30F08C 
 1999      B85F1D
 2000 03fb 8047F6FF 		.ascii	"\200G\366\377\317L\303\275+7\321\275\213z\340x\322\275"
 2000      CF4CC3BD 
 2000      2B37D1BD 
 2000      8B7AE078 
 2000      D2BD
 2001 040d 7EC33D32 		.ascii	"~\303=2\335\275KI\367~\232\356\236\341\323\270pl\272"
 2001      DDBD4B49 
 2001      F77E9AEE 
 2001      9EE1D3B8 
 2001      706CBA
 2002 0420 39716E4E 		.ascii	"9qnN\277a\316\336#W%n\005?<R\362\300\216A\347\257\374"
 2002      BF61CEDE 
 2002      2357256E 
ARM GAS  /tmp/cc5rUxS6.s 			page 51


 2002      053F3C52 
 2002      F2C08E41 
 2003 0437 CFB0321B 		.ascii	"\317\2602\033\377\342d\002*Va\237\374\350\334\005\206"
 2003      FFE26402 
 2003      2A56619F 
 2003      FCE8DC05 
 2003      86
 2004 0448 03A28707 		.ascii	"\003\242\207\007\342V\014\303\336\331\311\253\036<\371"
 2004      E2560CC3 
 2004      DED9C9AB 
 2004      1E3CF9
 2005 0457 A0C756C4 		.ascii	"\240\307V\304\3709\\\252x|\252[\361\026\253\376\200"
 2005      F8395CAA 
 2005      787CAA5B 
 2005      F116ABFE 
 2005      80
 2006 0468 37E4D9E0 		.ascii	"7\344\331\340\015z\334\241P\271\222\377r\241\277\330"
 2006      0D7ADCA1 
 2006      50B992FF 
 2006      72A1BFD8 
 2007 0478 E55654D5 		.ascii	"\345VT\325\265ly\356\212\242\220;\030\312#\213\355J"
 2007      B56C79EE 
 2007      8AA2903B 
 2007      18CA238B 
 2007      ED4A
 2008 048a BEC75BE2 		.ascii	"\276\307[\342}\275\260(\317a_fw(\276\240\022\010)\301"
 2008      7DBDB028 
 2008      CF615F66 
 2008      7728BEA0 
 2008      120829C1 
 2009 049e 804B7179 		.ascii	"\200KqyJ\313\313\212U\257\313\356\"T\365\317\233\366"
 2009      4ACBCB8A 
 2009      55AFCBEE 
 2009      2254F5CF 
 2009      9BF6
 2010 04b0 6E7FC191 		.ascii	"n\177\301\221\233\353XY\222K$D\334\022\246\362Q\377"
 2010      9BEB5859 
 2010      924B2444 
 2010      DC12A6F2 
 2010      51FF
 2011 04c2 9BAC38B0 		.ascii	"\233\2548\260\236\206J\331\273A?\015\371\377K\333[\346"
 2011      9E864AD9 
 2011      BB413F0D 
 2011      F9FF4BDB 
 2011      5BE6
 2012 04d4 7AEB9D52 		.ascii	"z\353\235R7\352\007\313\203v\017\261\224\024\007\335"
 2012      37EA07CB 
 2012      83760FB1 
 2012      941407DD 
 2013 04e4 6B02DE97 		.ascii	"k\002\336\227\376\215\357\362\251\252\257Lqo\014)/\256"
 2013      FE8DEFF2 
 2013      A9AAAF4C 
 2013      716F0C29 
 2013      2FAE
 2014 04f6 2D50F20B 		.ascii	"-P\362\013\012W\027*\371\276\200[Y\375\217\214\032\364"
 2014      0A57172A 
 2014      F9BE805B 
ARM GAS  /tmp/cc5rUxS6.s 			page 52


 2014      59FD8F8C 
 2014      1AF4
 2015 0508 068BD6BB 		.ascii	"\006\213\326\273\\(\365\334c$\374\276@(\310E\362\013"
 2015      5C28F5DC 
 2015      6324FCBE 
 2015      4028C845 
 2015      F20B
 2016 051a 36626E17 		.ascii	"6bn\027j\024mx^\305\250\364\202\302\265Y\274\010lcI"
 2016      6A146D78 
 2016      5EC5A8F4 
 2016      82C2B559 
 2016      BC086C63 
 2017 052f 568E83D0 		.ascii	"V\216\203\320\000\261\250n\325\027('\177\003\006\205"
 2017      00B1A86E 
 2017      D5172827 
 2017      7F030685 
 2018 053f B779     		.ascii	"\267y"
 2019              		.text
 2020              		.section	.gnu.lto_.symbol_nodes.bfbc1e068b2d7dc,"e",%progbits
 2021 0000 789C758E 		.ascii	"x\234u\2161\016\203@\014\004w\327G\035\211\202\226\247"
 2021      310E8340 
 2021      0C0477D7 
 2021      471D8982 
 2021      96A7
 2022 0012 1A241E90 		.ascii	"\032$\036\220G\320\320\245\205\200hR\245\340\025I\233"
 2022      47D0D0A5 
 2022      85806852 
 2022      A5E01549 
 2022      9B
 2023 0023 2F240747 		.ascii	"/$\007G\312\233\312\362\214,\177\020\321(G\023\011\274"
 2023      CA9BCAF2 
 2023      8C2C7F10 
 2023      D1284713 
 2023      09BC
 2024 0035 6E800353 		.ascii	"n\200\003S\323\022\304!'9s\222\213\\\337\223\372\010"
 2024      D312C421 
 2024      27397392 
 2024      8B5CDF93 
 2024      FA08
 2025 0047 B05FDA2D 		.ascii	"\260_\332-g\271\345\334]\036rn\225\027\031g\010\351"
 2025      67B9E5DC 
 2025      5D1E726E 
 2025      95171967 
 2025      08E9
 2026 0059 958E061B 		.ascii	"\225\216\006\033\236\357\233\261\277\030\224\306Gi,"
 2026      9EEF9BB1 
 2026      BF1894C6 
 2026      47692C
 2027 0068 52F0A2F1 		.ascii	"R\360\242\361\037\304\355\031t\025~\030\177T1"
 2027      1FC4ED19 
 2027      74157E18 
 2027      7F5431
 2028              		.text
 2029              		.section	.gnu.lto_.refs.bfbc1e068b2d7dc,"e",%progbits
 2030 0000 789C6364 		.ascii	"x\234cd\000\002\000\000\012\000\002"
 2030      00020000 
 2030      0A0002
ARM GAS  /tmp/cc5rUxS6.s 			page 53


 2031              		.text
 2032              		.section	.gnu.lto_.decls.bfbc1e068b2d7dc,"e",%progbits
 2033 0000 789CA559 		.ascii	"x\234\245Y{PTW\232\277\3379\375\242\001\261\004kf3\331"
 2033      7B505457 
 2033      9ABFDF39 
 2033      FDA201B1 
 2033      046B6633 
 2034 0015 AC9BA526 		.ascii	"\254\233\245&\354f#\212\231$\273U\273e\306lv\254\331"
 2034      EC66238A 
 2034      9924BB55 
 2034      BB65C66C 
 2034      76ACD9
 2035 0028 645263A6 		.ascii	"dRc\246\246\222\332\255^\354\276\201\036i\232\351\276"
 2035      A692DAAD 
 2035      5EECBE81 
 2035      1E699AE9 
 2035      BE
 2036 0039 F8D87FF6 		.ascii	"\370\330\177\366\212(\"\212\240\361\201\370@\211\002"
 2036      8A28228A 
 2036      A0F181F8 
 2036      408902
 2037 0048 2AD88A0F 		.ascii	"*\330\212\017\024\037\010\242\210\340\033TPD\361\201"
 2037      141F08A2 
 2037      88E01B54 
 2037      5044F181 
 2038 0058 C1073EA2 		.ascii	"\301\007>\242\250\030\366;\347\336\356\333/\342nm\353"
 2038      A818F63B 
 2038      E7DEEEDB 
 2038      2FE26E6D 
 2038      EB
 2039 0069 77CFBDE7 		.ascii	"w\317\275\347\376\316\367\376\316\343\362\363\277\024"
 2039      FECEF7FE 
 2039      CEE3F2F3 
 2039      BF14
 2040 0077 8474BD20 		.ascii	"\204t\275 \010D\020\206\360G\361\366\014\222\031I\017"
 2040      08441086 
 2040      F047F1F6 
 2040      0C921949 
 2040      0F
 2041 0088 82508F6D 		.ascii	"\202P\217m$\2661HqH)\370l@z\027\357\277\302\366\237"
 2041      24B63148 
 2041      714829F8 
 2041      6C407A17 
 2041      EFBFC2F6 
 2042 009d B115D4BE 		.ascii	"\261\025\324\276\311x\377%\322\177 \331\220\376\204"
 2042      C978FF25 
 2042      D27F20D9 
 2042      90FE84
 2043 00ac 94AEBEF7 		.ascii	"\224\256\276\367\377-EYo`;\012)\016\251\021\206\227"
 2043      FF2D4559 
 2043      6F603B0A 
 2043      290EA911 
 2043      8697
 2044 00be F577D81E 		.ascii	"\365w\330\036Cz\023\251I\225i\307\266\031\351\024\322"
 2044      437A13A9 
 2044      499569C7 
 2044      B619E914 
ARM GAS  /tmp/cc5rUxS6.s 			page 54


 2044      D2
 2045 00cf 695074B1 		.ascii	"iPt\261\"\035A*aXf\003(:\375;\266Fl\023\260\375\033"
 2045      221D412A 
 2045      61586603 
 2045      283AFD3B 
 2045      B6466C13 
 2046 00e6 A47790E2 		.ascii	"\244w\220\342\221\336F\372%\322a\244\010U\367\013H\035"
 2046      91DE46FA 
 2046      25D261A4 
 2046      0855F70B 
 2046      481D
 2047 00f8 485790AE 		.ascii	"HW\220\256\"]Wm\260\2516\005\377*\320\216_\004\331\301"
 2047      225D576D 
 2047      B0A93605 
 2047      FF2AD08E 
 2047      5F04D9C1 
 2048 010c FC319C0D 		.ascii	"\3741\234\015LwfG\017\222\003\351\237T\233\377/\266"
 2048      4C776647 
 2048      0F9203E9 
 2048      9F549BFF 
 2048      2FB6
 2049 011e 44F8D9F2 		.ascii	"D\370\331\362\217\303\330\263G\305}9\214M\351?a\323"
 2049      8FC3D8B3 
 2049      47C57D39 
 2049      8C4DE93F 
 2049      61D3
 2050 0130 120AA340 		.ascii	"\022\012\243@\207\3278\030\303\357M\374:\222\367\310"
 2050      87D73818 
 2050      C3EF4DFC 
 2050      3A92F7C8 
 2051 0140 C09B3A81 		.ascii	"\300\233:\201\022\201F\010t\004\203\177\005,ob\370\235"
 2051      12814608 
 2051      7404837F 
 2051      052C6F62 
 2051      F89D
 2052 0152 40E38444 		.ascii	"@\343\204D\231\377\256\277%\300!E\300'\221\364k\241"
 2052      99FFAEBF 
 2052      25C02145 
 2052      C02791F4 
 2052      6BA1
 2053 0164 9892258F 		.ascii	"\230\222%\217\2375\031\314u\262\334/\327eG\010\260\013"
 2053      9F3519CC 
 2053      75B2DC2F 
 2053      D7654708 
 2053      B00B
 2054 0176 60270870 		.ascii	"`'\010p\030pd\035\300A\200\003@\223\005\372\015\003"
 2054      1870641D 
 2054      C0418003 
 2054      409305FA 
 2054      0D03
 2055 0188 B73F6CD9 		.ascii	"\267?l\331M\343\024^u\234\017\034\001h\004\340\017\324"
 2055      4DE3145E 
 2055      759C0F1C 
 2055      016804E0 
 2055      0FD4
 2056 019a C530A7F6 		.ascii	"\3050\247\366\035\3574\006b\216j\030\006\350<\274<*"
 2056      1DEF3406 
ARM GAS  /tmp/cc5rUxS6.s 			page 55


 2056      628E6A18 
 2056      06E83CBC 
 2056      3C2A
 2057 01ac 8A4B2CA9 		.ascii	"\212K,\251\327\3011Pe\012\300r\251\230\032\012\013\217"
 2057      D7C13150 
 2057      650AC072 
 2057      A9981A0A 
 2057      0B8F
 2058 01be 5DA2F1F1 		.ascii	"]\242\361\361\261\010\031(\\\360 \353\335\36599r\301"
 2058      B1081928 
 2058      5CF020EB 
 2058      DDF53939 
 2058      72C1
 2059 01d0 6C8AEFA1 		.ascii	"l\212\357\241\001\340\2046 \021i\274\300XU\226\346\217"
 2059      01E08436 
 2059      201169BC 
 2059      C0585596 
 2059      E68F
 2060 01e2 60907A80 		.ascii	"`\220z\200\375!\220] \2402\331\250\217N\200\275\000"
 2060      FD21905D 
 2060      20A032D9 
 2060      A88F4E80 
 2060      BD00
 2061 01f4 BBD98B13 		.ascii	"\273\331\213\023L#8\016\320\314u\357B?a\016\320^\244"
 2061      4C23380E 
 2061      D0CC75EF 
 2061      423F610E 
 2061      D05EA4
 2062 0207 7BC0F45C 		.ascii	"{\300\364\\\177\357I+\304\006\030r\012\340\264\327\330"
 2062      7FEF492B 
 2062      C4061872 
 2062      0AE0B4D7 
 2062      D8
 2063 0218 E71C94B3 		.ascii	"\347\034\224\263`O\007\015\004\235\321@\0108\271\267"
 2063      604F070D 
 2063      049DD140 
 2063      0838B9B7 
 2064 0228 723FD5AC 		.ascii	"r?\325\254=\253ivN\261\266\246k\347\220N\261\266\277"
 2064      3DAB6976 
 2064      4EB1B6A6 
 2064      6BE7904E 
 2064      B1B6BF
 2065 023b A641B1E2 		.ascii	"\246A\261\342\034\300I\200\366p\206\356\325\014m\015"
 2065      1CC04980 
 2065      F67086EE 
 2065      D50C6D0D 
 2066 024b 818435B4 		.ascii	"\201\2045\264\235\033z\036\240MQ\311\360\354\341\251"
 2066      9D1B7A1E 
 2066      A04D51C9 
 2066      F0ECE1A9 
 2067 025b A551F171 		.ascii	"\245Q\361q\361\010\355\257*\3257\325q\207\325\002\\"
 2067      F108EDAF 
 2067      2AD537D5 
 2067      7187D502 
 2067      5C
 2068 026c 04DF2045 		.ascii	"\004\337 E`03\026\355\213\234\335\005\200K\214\035\""
 2068      60303316 
ARM GAS  /tmp/cc5rUxS6.s 			page 56


 2068      ED8B9CDD 
 2068      05804B8C 
 2068      1D22
 2069 027e 3CFB4A65 		.ascii	"<\373Jeydv\024\023\324\022\206\011:\241|\263|\221\347"
 2069      79647614 
 2069      13D41286 
 2069      093AA17C 
 2069      B37C91E7 
 2070 0292 4420B7A3 		.ascii	"D \267\243\301\334h\016a\360\342C{\313t:\346K\264\322"
 2070      C1DC680E 
 2070      61F0E243 
 2070      7BCB743A 
 2070      E64BB4D2 
 2071 02a6 891D077A 		.ascii	"\211\035\007z\362<\006\336\361\025\\\006\354\230\373"
 2071      F23C06DE 
 2071      F1155C06 
 2071      EC98FB
 2072 02b5 A0FB3C78 		.ascii	"\240\373<x\021W\200\227\003\341u0\022\337Vv\237\274"
 2072      11578097 
 2072      03E17530 
 2072      12DF5676 
 2072      9FBC
 2073 02c7 64FA198A 		.ascii	"d\372\031\212\273+\313q\220\002\335\000\254\314\340"
 2073      BB2BCB71 
 2073      9002DD00 
 2073      ACCCE0
 2074 02d6 1ACAECE2 		.ascii	"\032\312\354\342^'\273o\255Z\253\323\302rM\363\343u"
 2074      5E27BB6F 
 2074      AD5AABD3 
 2074      C2724DF3 
 2074      E375
 2075 02e8 1E3B5AC0 		.ascii	"\036;Z\3005yu(\377V8\030\364\200\012\344\242\337\344"
 2075      35797528 
 2075      FF563818 
 2075      F4800AE4 
 2075      A2DFE4
 2076 02fb A2BB81AE 		.ascii	"\242\273\201\256\305\032\334\200T\316Gg\347\024\035"
 2076      C51ADC80 
 2076      54CE4767 
 2076      E7141D
 2077 030a 2781C971 		.ascii	"'\201\311q\007\340{o\006\355P@?\254{\252\017\004\365"
 2077      07E07B6F 
 2077      06ED5040 
 2077      3FAC7BAA 
 2077      0F04F5
 2078 031d 69205674 		.ascii	"i VtEE\333\210\246\303]MU\314S\201\326\242\270\303H"
 2078      4545DB88 
 2078      A6C35D4D 
 2078      55CC5381 
 2078      D6A2B8C3 
 2079 0332 671937C3 		.ascii	"g\0317\303\232\203\363\236B|l<\253\235\256\345\013\033"
 2079      9A83F39E 
 2079      427C6C3C 
 2079      AB9DAEE5 
 2079      0B1B
 2080 0344 47ACC6B2 		.ascii	"G\254\306\262\216B$\253\234G\301\011\025\022\221\007"
 2080      8E4224AB 
ARM GAS  /tmp/cc5rUxS6.s 			page 57


 2080      9C47C109 
 2080      15129107 
 2081 0354 1C841179 		.ascii	"\034\204\021y\010\360\230\311G>\236Essx|\221I\177\010"
 2081      08F098C9 
 2081      473E9E45 
 2081      7373787C 
 2081      91497F08 
 2082 0368 134C392A 		.ascii	"\023L9*S\246\347&\317\206r]l\010\313'\301,i\001\207"
 2082      53A6E726 
 2082      CF86725D 
 2082      6C08CB27 
 2082      C12C6901 
 2083 037d DF78BCF5 		.ascii	"\337x\274\365IL\240\335O\001\236y\235S\304A\207w\336"
 2083      494CA0DD 
 2083      4F019E79 
 2083      9D53C441 
 2083      8777DE
 2084 0390 AC1A1108 		.ascii	"\254\032\021\010\032\320@,\021Num\211\321\234\363\\"
 2084      1AD0402C 
 2084      114E756D 
 2084      89D19CF3 
 2084      5C
 2085 03a1 53EE050F 		.ascii	"S\356\005\017\264i\363\375\305K#\320!,\333\007\226\024"
 2085      B469F3FD 
 2085      C54B23D0 
 2085      212CDB07 
 2085      9614
 2086 03b3 BF70CDE6 		.ascii	"\277p\315\346\016\371\001\340>\300\340\360\011_\003"
 2086      0EF901E0 
 2086      3EC0E0F0 
 2086      095F03
 2087 03c2 80533653 		.ascii	"\200S6Si\220k\377\022\340\025\300\217\252O\372\007\237"
 2087      69906BFF 
 2087      12E015C0 
 2087      8FAA4FFA 
 2087      079F
 2088 03d4 64B0BA41 		.ascii	"d\260\272A\227\364r\204W*\347\305+\325\363c\215,GD\241"
 2088      97F47284 
 2088      572AE7C5 
 2088      2BD5F363 
 2088      8D2C4744 
 2089 03e9 1ECCF5C1 		.ascii	"\036\314\365\301\220]|\366\270,\017^\205\330\020\241"
 2089      905D7CF6 
 2089      B82C0F5E 
 2089      85D810A1 
 2090 03f9 036184A2 		.ascii	"\003a\204\242)\236\207WW\350\321\222xm\300-\200\233"
 2090      299E8757 
 2090      57E8D192 
 2090      786DC02D 
 2090      809B
 2091 040b C0E72599 		.ascii	"\300\347%\231\260\001Y\004\346\020\230M\224\312\034"
 2091      B0015904 
 2091      E610984D 
 2091      94CA1C
 2092 041a D89FD75A 		.ascii	"\330\237\327Z:B1x\010\3406G)245\230\252\307\347(\021"
 2092      3A423178 
 2092      08E03647 
ARM GAS  /tmp/cc5rUxS6.s 			page 58


 2092      29323435 
 2092      98AAC7E7 
 2093 0430 BE01D0C9 		.ascii	"\276\001\320\311A!i\3429\241\026y\007\300>\016\361w"
 2093      412169E2 
 2093      39A11679 
 2093      07C03E0E 
 2093      F177
 2094 0442 9C62CD8E 		.ascii	"\234b\315\216\346\227\20346D\2713a\224C\364\323ok\252"
 2094      E6978334 
 2094      3644B933 
 2094      619443F4 
 2094      D36F6BAA 
 2095 0456 23B5C865 		.ascii	"#\265\310ekB\347\"\202\036g\3617\274:\337v\332h\376"
 2095      6B42E722 
 2095      821E67F1 
 2095      37BC3ADF 
 2095      76DA68FE 
 2096 046a 0500FE47 		.ascii	"\005\000\376Gh\257\\?\233\0120\001\306\0110\217\000"
 2096      68AF5C3F 
 2096      9B0A3001 
 2096      C609308F 
 2096      00
 2097 047b CE16309F 		.ascii	"\316\0260\237@.a\267Y\262<\370W\330\"\353\222\037OW"
 2097      402E61B7 
 2097      59B23CF8 
 2097      57D822EB 
 2097      921F4F57 
 2098 048f 44B235AD 		.ascii	"D\2625\255\267.<\0361W\327\254+\364[\205\026h\342\363"
 2098      B72E3C1E 
 2098      3157D7AC 
 2098      2BF45B85 
 2098      1668E2F3 
 2099 04a3 085F71DF 		.ascii	"\010_q\337\361-\241\270\234\323\223<\035\333\344\326"
 2099      F12DA1B8 
 2099      9CD3933C 
 2099      1DDBE4D6 
 2100 04b3 D5A6D0C5 		.ascii	"\325\246\320\3052\237 \006\015\\D`!\343}g \273/\206"
 2100      329F2006 
 2100      0D5C4460 
 2100      21E37D67 
 2100      20BB2F86 
 2101 04c7 CF4E297C 		.ascii	"\317N)|\372zyc\347\034\342\233\217R}\363Q!\352\203\363"
 2101      FA7A7963 
 2101      E71CE29B 
 2101      8F527DF3 
 2101      5121EA83 
 2102 04dc 0C9F05F2 		.ascii	"\014\237\005\362\347v\0314u\0125u\226\020>\037\265s"
 2102      E7761934 
 2102      750A3575 
 2102      96103E1F 
 2102      B573
 2103 04ee 0536E7AE 		.ascii	"\0056\347\256\355\246a`\260\224x\201]T\2407\220\356"
 2103      EDA66160 
 2103      B0947881 
 2103      5D54A037 
 2103      90EE
 2104 0500 50664502 		.ascii	"PfE\002\3747\277\012\364>g\220\325U\\\316-x\"\327\255"
ARM GAS  /tmp/cc5rUxS6.s 			page 59


 2104      FC37BF0A 
 2104      F43E6790 
 2104      D5555CCE 
 2104      2D7822D7 
 2105 0515 2C30F8AA 		.ascii	",0\370\252t\025A\020\232PD`%3\2415k\341\201\021\232"
 2105      74154110 
 2105      9A504460 
 2105      2533A135 
 2105      6BE18111 
 2106 052a A0624D9F 		.ascii	"\240bM\237\325,:\317Q\300\020U&\277\237+\373\017\240"
 2106      D52C3ACF 
 2106      51C01055 
 2106      26BF9F2B 
 2106      FB0FA0
 2107 053d D93A9430 		.ascii	"\331:\2240\342nY\3233\023&)KT6\013y\256\237\256~\277"
 2107      E26E59D3 
 2107      33132629 
 2107      4B54360B 
 2107      79AE9FAE 
 2108 0553 7E8ECCCA 		.ascii	"~\216\314\312\345[\002\313\010l\324\230\355\361\225"
 2108      E55B02CB 
 2108      086CD498 
 2108      EDF195
 2109 0562 4B7F6E43 		.ascii	"K\177nC\036_\330V\023X\023\200I\364\345i\177Q\251\202"
 2109      1E5FD856 
 2109      13581380 
 2109      49F4E569 
 2109      7F51A982 
 2110 0576 594C6079 		.ascii	"YL`y\000\306\233\314Z\362\225\020X\207\2322\020\012"
 2110      00C69BCC 
 2110      5AF29510 
 2110      58879A32 
 2110      100A
 2111 0588 2E27504A 		.ascii	".'PJ\240\214\300w\0046\020\330D\3242\256P\205\246\300"
 2111      A08CC077 
 2111      043610D8 
 2111      44D432AE 
 2111      5085A6C0 
 2112 059c FA50BDD4 		.ascii	"\372P\275\324\342X\244\026\007*\266\"T\250R\353\257"
 2112      E258A416 
 2112      072AB622 
 2112      54A852EB 
 2112      AF
 2113 05ad 945ACF23 		.ascii	"\224Z\317#\2606D\367\361\002\335\311<C\276\335\264r"
 2113      B03644F7 
 2113      F102DDC9 
 2113      3C43BEDD 
 2113      B472
 2114 05bf 494C6CB0 		.ascii	"ILl\260\212PA~BI\034V:\277\252\023\264Pl\326\270oa\241"
 2114      8A50417E 
 2114      42491C56 
 2114      3ABFAA13 
 2114      B4506CD6 
 2115 05d7 68D26176 		.ascii	"h\322av\"up\031\335\333\017\224\030\002'\314*\002\333"
 2115      22757019 
 2115      DDDB0F94 
 2115      180227CC 
ARM GAS  /tmp/cc5rUxS6.s 			page 60


 2115      2A02DB
 2116 05ea 886FC23C 		.ascii	"\210o\302<~\340\334E?n\3334n\036%\023\037\225\254j\322"
 2116      7EE0DC45 
 2116      3F6EDB34 
 2116      6E1E2513 
 2116      1F95AC6A 
 2117 05ff AB6B2D4B 		.ascii	"\253k-K\336\322\366\371sc\274K\355v\226\033\331\335"
 2117      DED2F6F9 
 2117      7363BC4B 
 2117      ED76961B 
 2117      D9DD
 2118 0611 1DDB62C2 		.ascii	"\035\333b\302,\257\325h\314\016\205I\313\340\276\\\277"
 2118      2CAFD568 
 2118      CC0E8549 
 2118      CBE0BE5C 
 2118      BF
 2119 0622 E2AED6A4 		.ascii	"\342\256\326\244\354T\262\364\026\327\366a\353\2635"
 2119      EC54B2F4 
 2119      16D7F661 
 2119      EBB335
 2120 0631 316160B0 		.ascii	"1a`\260\213\250\300bj\256\255\270\322c`\331\3447\357"
 2120      8BA8C062 
 2120      6AAEADB8 
 2120      D26360D9 
 2120      E437EF
 2121 0644 7927B13D 		.ascii	"y'\261=\334q\265\004\366\341\204\204s\233\032\327\201"
 2121      DC71B504 
 2121      F6E18484 
 2121      739B1AD7 
 2121      81
 2122 0655 F6DBA7B7 		.ascii	"\366\333\247\267\3077(I\267\233\260ImOh\262\260\300"
 2122      C7372849 
 2122      B79BB049 
 2122      6D4F68B2 
 2122      B0C0
 2123 0667 2D5483FB 		.ascii	"-T\203\373\025l%!\030%\266\013T\010\232_\031\200\361"
 2123      156C2521 
 2123      1825B60B 
 2123      54089A5F 
 2123      1980F1
 2124 067a 4BCC5C75 		.ascii	"K\314\\u\343\346!l\262\337\023\222\000\245zfna\337\354"
 2124      E3E6216C 
 2124      B2DF1392 
 2124      00A57A66 
 2124      6E61DFEC 
 2125 068e CAE8D0E9 		.ascii	"\312\350\320\351~?\011k\007\016\330V\270\251\332o\351"
 2125      7E3F096B 
 2125      070ED856 
 2125      B8A9DA6F 
 2125      E9
 2126 069f 3FA0F13D 		.ascii	"?\240\361=\250\370yKO\355\225(\234d\031^g\003\334O}"
 2126      A8F8794B 
 2126      4FED9528 
 2126      9C64195E 
 2126      6703DC4F 
 2127 06b4 8017B3F0 		.ascii	"\200\027\263\3605\025\342d\"\023\203\215\02235S\233"
 2127      3515E264 
ARM GAS  /tmp/cc5rUxS6.s 			page 61


 2127      2213838D 
 2127      12333553 
 2127      9B
 2128 06c5 B909DE4A 		.ascii	"\271\011\336JxB'\232HB\214\331T\336\000#\315z\023!\275"
 2128      7842279A 
 2128      48428CD9 
 2128      54DE0023 
 2128      CD7A1321 
 2129 06da 469B39E1 		.ascii	"F\2339\341\005\332^b\0303Q\326\331\026\216\3565\312"
 2129      05DA5E62 
 2129      183351D6 
 2129      D9168EEE 
 2129      35CA
 2130 06ec A4E0F3B8 		.ascii	"\244\340\363\270\011\023\361\332kl\002\033\216\372B"
 2130      0913F1DA 
 2130      6B6C021B 
 2130      8EFA42
 2131 06fb 671A8977 		.ascii	"g\032\211w\275F\363\023Z\262\310`k%\363\337\301\315"
 2131      BD46F313 
 2131      5AB2C860 
 2131      6B25F3DF 
 2131      C1CD
 2132 070d B8D996C4 		.ascii	"\270\331\226\304\366t\023M\246\267b\352i=\375T\020L"
 2132      F674134D 
 2132      A6B762EA 
 2132      693DFD54 
 2132      104C
 2133 071f 264FD568 		.ascii	"&O\325hs\2571\006Y$\330\306\214\264\215\211i\002\275"
 2133      73AF3106 
 2133      5924D8C6 
 2133      8CB48D89 
 2133      6902BD
 2134 0732 CD668E4B 		.ascii	"\315f\216K\020P\011[R\322DbF\316:S\023$Q\210J\222\257"
 2134      1050095B 
 2134      52D24462 
 2134      46CE3A53 
 2134      13245188 
 2135 0749 F5FDCCAC 		.ascii	"\365\375\314\2547G\2745&\001\317?\302\247\004\371\322"
 2135      3747BC35 
 2135      2601CF3F 
 2135      C2A704F9 
 2135      D2
 2136 075a 21EF0F8C 		.ascii	"!\357\017\214(\323\246=\002$\230I\022\241\277\355\305"
 2136      28D3A63D 
 2136      02249849 
 2136      12A1BFED 
 2136      C5
 2137 076b E3232163 		.ascii	"\343#!cp\225\323\231\242\242@\306&\302\362[\333\027"
 2137      7095D399 
 2137      A2A240C6 
 2137      26C2F25B 
 2137      DB17
 2138 077d 4966A1D7 		.ascii	"If\241\327H\360U\234\216-:\332H3Nup\347W\350m\376\217"
 2138      48F0559C 
 2138      8E2D3ADA 
 2138      48334E75 
 2138      70E757E8 
ARM GAS  /tmp/cc5rUxS6.s 			page 62


 2139 0794 5D40BD00 		.ascii	"]@\275\000{\004\345\244\355\025\303\373Y\316\023\025"
 2139      7B04E5A4 
 2139      ED15C3FB 
 2139      59CE1315 
 2140 07a4 CD204AAF 		.ascii	"\315 J\257\257Q\357\031\200\250|\210z`\003e\214*\204"
 2140      AF51EF19 
 2140      80A87C88 
 2140      7A600365 
 2140      8C2A84
 2141 07b7 5DFD98FB 		.ascii	"]\375\230\373 \240B\274|\2241*\3007V\275e28\230\370"
 2141      20A042BC 
 2141      7C94312A 
 2141      C03756BD 
 2141      65323898 
 2142 07cc 8FE1E302 		.ascii	"\217\341\343\002"
 2143 07d0 14D7580A 		.ascii	"\024\327X\012>\266^\225\004\345\201\355\253\226v\346"
 2143      3EB65E95 
 2143      04E581ED 
 2143      AB9676E6 
 2144 07e0 E86FA1DF 		.ascii	"\350o\241\337\344\235\027\036^5\300\350\202\211\002"
 2144      E49D171E 
 2144      5E35C0E8 
 2144      828902
 2145 07ef D0669EA5 		.ascii	"\320f\236\245\301\253W\326\205\332\306H\376\214\323"
 2145      C1AB57D6 
 2145      85DAC648 
 2145      FE8CD3
 2146 07fe 773D9B00 		.ascii	"w=\233\000\032j7\3745\357\300y\270\201w\014\025\310"
 2146      1A6A37FC 
 2146      35EFC079 
 2146      B881770C 
 2146      15C8
 2147 0810 51BC0767 		.ascii	"Q\274\007g\300#\254\347\314\201\216\333\321\336Y\243"
 2147      C023ACE7 
 2147      CC818EDB 
 2147      D1DE59A3 
 2148 0820 91F5F4E4 		.ascii	"\221\365\364\344n\375\035\357\300\303\315Q\326q\366"
 2148      6EFD1DEF 
 2148      C0C3CD51 
 2148      D671F6
 2149 082f 6E5E6794 		.ascii	"n^g\224o\032\301\235\224w\036iB\023\217)\371}s\343\331"
 2149      6F1AC19D 
 2149      94771E69 
 2149      42138F29 
 2149      F97D73E3 
 2150 0844 2BE6B757 		.ascii	"+\346\267W\256\224\007\006\357\227\354\372\373\303s"
 2150      AE940706 
 2150      EF97ECFA 
 2150      FBC373
 2151 0853 E4729671 		.ascii	"\344r\226q\010\201\303\352\234\206gU\304\327\0218D>"
 2151      0881C3EA 
 2151      9C866755 
 2151      C4D71138 
 2151      443E
 2152 0865 B9134DE7 		.ascii	"\271\023M\347\031^k\303\211`\033ZBlhe=\235s\267\347"
 2152      195E6BC3 
 2152      89601B5A 
ARM GAS  /tmp/cc5rUxS6.s 			page 63


 2152      426C6865 
 2152      3D9D73B7 
 2153 087a 071E0071 		.ascii	"\007\036\000q\247\245\315\2447\373\216-\215\014\234"
 2153      A7A5CDA4 
 2153      37FB8E2D 
 2153      8D0C9C
 2154 0889 6AB192FD 		.ascii	"j\261\222\375\000\3477\325\266\231\264\352=\255U\357"
 2154      00E737D5 
 2154      B699B4EA 
 2154      3DAD55EF 
 2155 0899 19C5BA7D 		.ascii	"\031\305\272}wv\354U\3169g\010\234d\"ow\024\224G\204"
 2155      7776EC55 
 2155      CE396708 
 2155      9C64226F 
 2155      77149447 
 2156 08ae F3C939B4 		.ascii	"\363\3119\264\361\2542\252\264\273-?\232\371\304S\301"
 2156      F1AC32AA 
 2156      B4BB2D3F 
 2156      9AF9C453 
 2156      C1
 2157 08bf 36E6B8EF 		.ascii	"6\346\270\357\221u\370\036\232}\016i\3669\344b\024-"
 2157      9175F81E 
 2157      9A7D0E69 
 2157      F639E462 
 2157      142D
 2158 08d1 31B065DA 		.ascii	"1\260e\332\300k\301\310\357\230\3023i%w\324\203\366"
 2158      C06BC1C8 
 2158      EF98C233 
 2158      692577D4 
 2158      83F6
 2159 08e3 B67A8359 		.ascii	"\266z\203Y\016\336\321\\$\210c\0073\002\355L\257\276"
 2159      0EDED15C 
 2159      24886307 
 2159      3302ED4C 
 2159      AFBE
 2160 08f5 8343D3B9 		.ascii	"\203C\323\271\242\227\010\367\347\262\242\252\307&\336"
 2160      A29708F7 
 2160      E7B2A2AA 
 2160      C726DE
 2161 0904 813A7630 		.ascii	"\201:v0\204\247\376\334)\032f\217s\031u\351T\024\317"
 2161      84A7FEDC 
 2161      291A668F 
 2161      731975E9 
 2161      5414CF
 2162 0917 BD3F9403 		.ascii	"\275?\224\003o\257\344'\223\312\305\206\325r=\301\327"
 2162      6FAFE427 
 2162      93CAC586 
 2162      D5723DC1 
 2162      D7
 2163 0928 D0E6D3BB 		.ascii	"\320\346\323\273\215\327\017\255\346\232\205\363\376"
 2163      8DD70FAD 
 2163      E69A85F3 
 2163      FE
 2164 0935 55CDB987 		.ascii	"U\315\271\207j\262\257)\307\207:\257\367q!\365\003\334"
 2164      6AB2AF29 
 2164      C7873AAF 
 2164      F77121F5 
ARM GAS  /tmp/cc5rUxS6.s 			page 64


 2164      03DC
 2165 0947 5AD1501B 		.ascii	"Z\321P\033\241y\277[\363\3765E\235\2277\363\337\340"
 2165      A179BF5B 
 2165      F3FE3545 
 2165      9D9737F3 
 2165      DFE0
 2166 0959 265C536C 		.ascii	"&\\Sl\252h\271<`\010\347\373\0364\341\2722\246\242\240"
 2166      AA68B93C 
 2166      6008E7FB 
 2166      1E34E1BA 
 2166      32A6A2A0 
 2167 096d 6ABB8E9B 		.ascii	"j\273\216\233\340\271\356y\376\376\3419%\011\370\032"
 2167      E0B9EE79 
 2167      FEFEE139 
 2167      2509F81A 
 2168 097d BA7C2674 		.ascii	"\272|&t)&\0347\274v)\275\305\274\226U\333\360X\347\255"
 2168      29261C37 
 2168      BC7629BD 
 2168      C5BC9655 
 2168      DBF058E7 
 2169 0992 8ADBAC67 		.ascii	"\212\333\254g\371\336\313\213\302-\256wP\211^E\211\254"
 2169      F9DECB8B 
 2169      C22DAE77 
 2169      50895E45 
 2169      89AC
 2170 09a4 818BEB8D 		.ascii	"\201\213\353\215\\\211\375yC\245\212\037\357\020\270"
 2170      5C89FD79 
 2170      43A58A1F 
 2170      EF10B8
 2171 09b3 E953E2A6 		.ascii	"\351S\342\246\242\304e\256D\311\372\241Wfo\2221-\212"
 2171      A2C465AE 
 2171      44C9FAA1 
 2171      57666F92 
 2171      312D8A
 2172 09c6 BB760F46 		.ascii	"\273v\017F\204\221p\017%\334U$4\266\024T\352\231\204"
 2172      8491700F 
 2172      25DC5524 
 2172      34B61454 
 2172      EA9984
 2173 09d9 9AF6DB25 		.ascii	"\232\366\333%\177\344\002\356\021\350\363\011\350#\276"
 2173      7FE402EE 
 2173      11E8F309 
 2173      E823BE
 2174 09e8 CF52754A 		.ascii	"\317RuJ\363\021\3555\010\364\241\222S\335EU~[\353g\332"
 2174      F311ED35 
 2174      08F4A192 
 2174      53DD4555 
 2174      7E5BEB67 
 2175 09fd D1E73151 		.ascii	"\321\3471QG\215\243\317\021\236ed\360\243?\234X\246"
 2175      478DA3CF 
 2175      119E6564 
 2175      F0A33F9C 
 2175      58A6
 2176 0a0f 0FDD543F 		.ascii	"\017\335T?\365\337T\363A\0114\337(\320\025H\353\330"
 2176      F5DF54F3 
 2176      410934DF 
 2176      28D01548 
ARM GAS  /tmp/cc5rUxS6.s 			page 65


 2176      EBD8
 2177 0a21 40DD63CF 		.ascii	"@\335c\317\374\253:\3453Q\327\362W\015\001G\335Wa\316"
 2177      FCAB3AE5 
 2177      3351D7F2 
 2177      570D0147 
 2177      DD5761CE 
 2178 0a35 30FDCAAA 		.ascii	"0\375\312\252\253\362\177I\030\010\005\0142c\3506\256"
 2178      ABF27F49 
 2178      1808050C 
 2178      3263E836 
 2178      AE
 2179 0a46 CBCDBB2D 		.ascii	"\313\315\273-\177\216\015\201\376\030\000\345\272\214"
 2179      7F8E0D81 
 2179      FE1800E5 
 2179      BA8C
 2180 0a54 A107518F 		.ascii	"\241\007Q\217:\244cH'\221\3328\203#7\317\025\004\235"
 2180      3AA46348 
 2180      2791DA38 
 2180      832337CF 
 2180      15049D
 2181 0a67 E6E75298 		.ascii	"\346\347R\230G}iy\364Y\225\377\201\025\337x\365\314"
 2181      477D6979 
 2181      F45995FF 
 2181      8115DF78 
 2181      F5CC
 2182 0a79 A1A8C675 		.ascii	"\241\250\306u\344\364=R?\347\326\376\244\254+:\314\321"
 2182      E4F43D52 
 2182      3FE7D6FE 
 2182      A4AC2B3A 
 2182      CCD1
 2183 0a8b 1F16507E 		.ascii	"\037\026P~\370g3\306\355U\245~;\255<\215\337B\306o\216"
 2183      F86733C6 
 2183      ED55A57E 
 2183      3BAD3C8D 
 2183      DF42C66F 
 2184 0aa0 49A00B90 		.ascii	"I\240\013\220\226\232\020<\352Fm\337\006\210\217\213"
 2184      969A103C 
 2184      EA466DDF 
 2184      06888F8B 
 2185 0ab0 577E6C73 		.ascii	"W~ls\363<G\331\334<\306\263\031\205B\372\032\257\011"
 2185      F33C47D9 
 2185      DC3CC6B3 
 2185      198542FA 
 2185      1AAF09
 2186 0ac3 0CC236F2 		.ascii	"\014\3026\362\024VPXNa)e\037_VR(\240\260\214*\307\316"
 2186      14565058 
 2186      4E612965 
 2186      1F5F5652 
 2186      28A0B08C 
 2187 0ada FE5365CA 		.ascii	"\376Se\312n\010'\213\371a\2302e\233\217)\220\205\024"
 2187      6E08278B 
 2187      F9619832 
 2187      659B8F29 
 2187      908514
 2188 0aed 728791BB 		.ascii	"r\207\221\273F\343\2628<\027On\256\242\3753\002Y\303"
 2188      46E3B238 
 2188      3C174F6E 
ARM GAS  /tmp/cc5rUxS6.s 			page 66


 2188      AEA2FD33 
 2188      0259C3
 2189 0b00 08AA5505 		.ascii	"\010\252U\005\245\300\242a\344l\325\344\344\017\303"
 2189      A5C0A261 
 2189      E46CD5E4 
 2189      E40FC3
 2190 0b0f A4576592 		.ascii	"\244We\222C!;\014\204\2562\261\254x\023\017\331\274"
 2190      43213B0C 
 2190      84AE32B1 
 2190      AC78130F 
 2190      D9BC
 2191 0b21 C10465EE 		.ascii	"\301\004e\356&{\256\316\336\240\234C\375\316\255\253"
 2191      267BAECE 
 2191      DEA09C43 
 2191      FDCEADAB 
 2192 0b31 19025D58 		.ascii	"\031\002]XLa\025\245e\030\233J\016~\260\343\362\355"
 2192      4C6115A5 
 2192      65189B4A 
 2192      0E7EB0E3 
 2192      F2ED
 2193 0b43 E860F0BA 		.ascii	"\350`\360\272\000\360.\004\327r\360\225\347[\317\205"
 2193      00F02E04 
 2193      D772F095 
 2193      E75BCF85 
 2194 0b53 80370480 		.ascii	"\2007\004\200\217 \370\004\322\031\244\013H\235H]|p"
 2194      8F20F804 
 2194      D219A40B 
 2194      489D485D 
 2194      7C70
 2195 0b65 EE83BE37 		.ascii	"\356\203\2767\002S\264\202\302f-E\327}\273\271\304\257"
 2195      0253B482 
 2195      C2662D45 
 2195      D77DBBB9 
 2195      C4AF
 2196 0b77 7E376BE6 		.ascii	"~7k\346na)\365=c\242\313\332\325|7\"6>\244V\266R\250"
 2196      6E6129F5 
 2196      3D63A2CB 
 2196      DAD57C37 
 2196      22363EA4 
 2197 0b8f E4295245 		.ascii	"\344)RE\225\275xMW\331\372NPjs\013\205r\376>\320\177"
 2197      95BD784D 
 2197      57D9FA4E 
 2197      506A730B 
 2197      8572FE3E 
 2198 0ba5 BCA28E08 		.ascii	"\274\242\216\010\374\034Y\242\243\225\021( \376\341"
 2198      FC1C59A2 
 2198      A3951128 
 2198      20FEE1
 2199 0bb4 A18DB321 		.ascii	"\241\215\263!^=Hj?\316q\371\226\271FY\375\376\262\211"
 2199      5E3D486A 
 2199      3FCE71F9 
 2199      96B94659 
 2199      FDFEB289 
 2200 0bc8 C26E8DA1 		.ascii	"\302n\215\241z\240dj\255\333\3709\213\231\362\245\007"
 2200      7AA0646A 
 2200      ADDBF839 
 2200      8B99F2A5 
ARM GAS  /tmp/cc5rUxS6.s 			page 67


 2200      07
 2201 0bd9 21215F7A 		.ascii	"!!_z<yj\372`@g\007p\221\251\266\265oi\314\367\236K\277"
 2201      3C796AFA 
 2201      60406707 
 2201      7091A9B6 
 2201      B56F69CC 
 2202 0bf1 0B00F1E3 		.ascii	"\013\000\361\343e\300\231\323Ca\033\345\337\370vs\027"
 2202      65C099D3 
 2202      43611BE5 
 2202      DFF87673 
 2202      17
 2203 0c02 54E315E5 		.ascii	"T\343\025\345R\330A\341 \205C8\226\302\001\012\207)"
 2203      52D841E1 
 2203      20854338 
 2203      96C2010A 
 2203      8729
 2204 0c14 D452D849 		.ascii	"\324R\330Ia\037\205\006\012\373)\324P\250\247\260Gu"
 2204      611F8506 
 2204      0AFB29D4 
 2204      50A8A7B0 
 2204      4775
 2205 0c26 99E7A4AA 		.ascii	"\231\347\244\252X\012l\017\020\371\200\370R\2776\327"
 2205      580A6C0F 
 2205      10F980F8 
 2205      52BF36D7 
 2206 0c36 57B88F88 		.ascii	"W\270\217\210?\246\237\370<P\261QQ\035\035^\026\300"
 2206      3FA69FF8 
 2206      3C50B151 
 2206      511D1D5E 
 2206      16C0
 2207 0c48 C7EFB8EC 		.ascii	"\307\357\270\354Y\2512\032\"\360\"\200\321\200&\354"
 2207      59A9321A 
 2207      22F02280 
 2207      D18026EC 
 2208 0c58 FBC679F2 		.ascii	"\373\306y\362\310\331Q\260\206B\021g\304\362MuS\267"
 2208      C8D951B0 
 2208      86421167 
 2208      C4F24D75 
 2208      53B7
 2209 0c6a 7290DAAA 		.ascii	"r\220\332\252\225\342\017\001l\236\020\355\264uI\345"
 2209      95E20F01 
 2209      6C9E10ED 
 2209      B47549E5 
 2210 0c7a 534A617D 		.ascii	"SJa}0\037\245\322\266\252\336\306\300n\014\015\254\312"
 2210      301FA5D2 
 2210      B6AADEC6 
 2210      C06E0C0D 
 2210      ACCA
 2211 0c8c A656FD20 		.ascii	"\246V\375 \251\034\267\203C\2420*WmW>\025\004\333\256"
 2211      A91CB783 
 2211      43A2302A 
 2211      576D573E 
 2211      1504DBAE 
 2212 0ca0 98754555 		.ascii	"\230uEU\247\204\302\332`u&p\304!\325*\344\3620\324\313"
 2212      A784C2DA 
 2212      60752670 
 2212      C421D52A 
ARM GAS  /tmp/cc5rUxS6.s 			page 68


 2212      E4F230D4 
 2213 0cb5 AA07D756 		.ascii	"\252\007\327V(\237\3060\323\236\023\377L\033PA\354{"
 2213      289FC630 
 2213      D39E13FF 
 2213      4C1B5041 
 2213      EC7B
 2214 0cc7 4AD1E2C5 		.ascii	"J\321\342\305\246\330\220T\351\373\177\245\012\362}"
 2214      A6D89054 
 2214      E9FB7FA5 
 2214      0AF27D
 2215 0cd6 51FC6893 		.ascii	"Q\374h\223\337q\376\210\246a#/hZ\315\212\211\334m\274"
 2215      DF71FE88 
 2215      A661232F 
 2215      685ACD8A 
 2215      89DC6DBC 
 2216 0cea D3121DBA 		.ascii	"\323\022\035\272\306\036\245\201\037\256Z\233\252\357"
 2216      C61EA581 
 2216      1FAE5A9B 
 2216      AAEF
 2217 0cf8 FB7DF5B9 		.ascii	"\373}\365\271\243-\242M\224\213\333u\177\320\243\367"
 2217      A32DA24D 
 2217      948BDB75 
 2217      7FD0A3F7 
 2218 0d08 6D17B16A 		.ascii	"m\027\261j\275\357\217\2431\2110\216}#+}\261\237\216"
 2218      BDEF8FA3 
 2218      3189308E 
 2218      7D232B7D 
 2218      B19F8E
 2219 0d1b 522CFD4F 		.ascii	"R,\375O\310!\276\375E3\3450\245\332\015\210,\333;\377"
 2219      C821BEFD 
 2219      4533E530 
 2219      A5DA0D88 
 2219      2CDB3BFF 
 2220 0d2f 44443866 		.ascii	"DD8f-\234\331\011\312\221F>-|\204\370s=\267\352c\374"
 2220      2D9CD909 
 2220      CA91463E 
 2220      2D7C84F8 
 2220      733DB7EA 
 2221 0d45 399FA4D0 		.ascii	"9\237\244\320\312bu\212\3621L\301\375\207\276[j\324"
 2221      CA62758A 
 2221      F2314CC1 
 2221      FD87BE5B 
 2221      6AD4
 2222 0d57 2CE8D12C 		.ascii	",\350\321,8\255\000J^\334~\344\267-\274\354\267)g\223"
 2222      38AD004A 
 2222      5EDC7EE4 
 2222      B72DBCEC 
 2222      B7296793 
 2223 0d6b DBFE0881 		.ascii	"\333\376\010\2016s\227\345\3257\254f\177s\200s\312\300"
 2223      367397E5 
 2223      D537AC66 
 2223      7F738073 
 2223      CAC0
 2224 0d7d 82F9E73F 		.ascii	"\202\371\347?\340\333\250c\224o\243:\026\025\345\032"
 2224      E0DBA863 
 2224      946FA33A 
 2224      1615E51A 
ARM GAS  /tmp/cc5rUxS6.s 			page 69


 2225 0d8d C36C78DB 		.ascii	"\303lx\333Q\2316\034\362v\001\236Z\372\253\266\277|"
 2225      5199361C 
 2225      F276019E 
 2225      5AFAABB6 
 2225      BF7C
 2226 0d9f AF819F5A 		.ascii	"\257\201\237Z\012\360\314\322N\341\2542\317\302y\012"
 2226      0AF0CCD2 
 2226      4EE1AC32 
 2226      CFC2790A 
 2227 0daf 17D89377 		.ascii	"\027\330\223w\247\2769\206\026\233\371_\224j\363O\230"
 2227      A7BE3986 
 2227      169BF95F 
 2227      946AF34F 
 2227      98
 2228 0dc0 C3F0BD84 		.ascii	"\303\360\275\204P\247\312vUu\341\336\361\365\012\333"
 2228      50A7CA76 
 2228      5575E1DE 
 2228      F1F50ADB 
 2229 0dd0 DFE01BB8 		.ascii	"\337\340\033\270\250\316\336\320\301\356\275<\027\307"
 2229      A8CEDED0 
 2229      C1EEBD3C 
 2229      17C7
 2230 0dde D0567388 		.ascii	"\320Vs\210-\234CW\331\231\013\206\332\032Y\236+\313"
 2230      2D9C4357 
 2230      D9990B86 
 2230      DA1A599E 
 2230      2BCB
 2231 0df0 597FCBB8 		.ascii	"Y\177\313\270C\247\252\331e\012W\330\223\227\313\372"
 2231      43A7AAD9 
 2231      650A57D8 
 2231      9397CBFA 
 2232 0e00 187AC1EC 		.ascii	"\030z\301\354\225{\2466@n\227W\356Uv\357\035\3213\202"
 2232      957BA636 
 2232      406E9757 
 2232      EE5576EF 
 2232      1DD13382 
 2233 0e14 F60C2FF7 		.ascii	"\366\014/\367J\220\334nU\3565\012\327\331\223\227\313"
 2233      4A90DC6E 
 2233      55EE350A 
 2233      D7D99397 
 2233      CB
 2234 0e25 CA18E4B0 		.ascii	"\312\030\344\260b\331\272\257\265h\335\323\242\325\303"
 2234      62D9BAAF 
 2234      B568DDD3 
 2234      A2D5C3
 2235 0e34 0AC0902A 		.ascii	"\012\300\220*&\333D\227\356\033\227(\3523\222SD\367"
 2235      26DB4497 
 2235      EE1B9728 
 2235      EA339253 
 2235      44F7
 2236 0e46 2FC7264E 		.ascii	"/\307&NJ\265O\265\377n\212%i\334\330\011c\307%:\335"
 2236      4AB54FB5 
 2236      FF6E8A25 
 2236      69DCD809 
 2236      63C7253A 
 2237 0e5b 892E29D1 		.ascii	"\211.)\321\355\262&ZSm\263\322\223\035v\353X\253\351"
 2237      EDB2265A 
ARM GAS  /tmp/cc5rUxS6.s 			page 70


 2237      536DB3D2 
 2237      931D76EB 
 2237      58ABE9
 2238 0e6e 5F3FFFC3 		.ascii	"_?\377\303\230I\343?\024F\373u\216\375h\334\370\361"
 2238      9849E33F 
 2238      1446FB75 
 2238      8EFD68DC 
 2238      F8F1
 2239 0e80 E3FE61EA 		.ascii	"\343\376a\352x\301\340\266\377\227h\221t\351\342L)\022"
 2239      78C1E0B6 
 2239      FF976891 
 2239      74E9E24C 
 2239      2912
 2240 0e92 65645814 		.ascii	"edX\024A\321~\367\026\351\275\304T\247CL\264';2\\v)"
 2240      41D17EF7 
 2240      16E9BDC4 
 2240      54A7434C 
 2240      B4273B32 
 2241 0ea9 75BADD9D 		.ascii	"u\272\335\235*J\322\254\304I\237L\311H\266\212\211\016"
 2241      2A4AD2AC 
 2241      C4499F4C 
 2241      C948B68A 
 2241      890E
 2242 0ebb 8775C2FB 		.ascii	"\207u\302\373\343?\260H\242[J\022\022\303i\346t\247"
 2242      E33FB048 
 2242      A25B4A12 
 2242      12C369E6 
 2242      74A7
 2243 0ecd D9A726DA 		.ascii	"\331\247&\332\323\255i\2316\021\025t\210\016&\302=6"
 2243      D3AD6999 
 2243      36111574 
 2243      880E26C2 
 2243      3D36
 2244 0edf 55D065BA 		.ascii	"U\320e\272E\233\216)\242c]\221\370\312\351\232\305\204"
 2244      459B8E29 
 2244      A2635D91 
 2244      F8CAE99A 
 2244      C584
 2245 0ef1 6744FBDD 		.ascii	"gD\373\335[$S\206\3139\335\316\264\303\356\024Q\372"
 2245      5B245386 
 2245      CB39DDCE 
 2245      B4C3EE14 
 2245      51FA
 2246 0f03 2633DD9A 		.ascii	"&3\335\232d\221\250C\232\251w\316H\027]\021\326T\213"
 2246      6491A843 
 2246      9AA977CE 
 2246      48175D11 
 2246      D6548B
 2247 0f16 94EA42AD 		.ascii	"\224\352B\255MJc\221\364\177\316\0243\305\221\276\027"
 2247      4D4A6391 
 2247      F47FCE14 
 2247      33C591BE 
 2247      17
 2248 0f27 6E0BEFD0 		.ascii	"n\013\357\320e\270\304\351\011\303\270P\323\322\215"
 2248      65B8C4E9 
 2248      09C3B850 
 2248      D3D28D
ARM GAS  /tmp/cc5rUxS6.s 			page 71


 2249 0f36 4E430D63 		.ascii	"NC\015c\002\306\242\"\310\316\221)\2113\215\374j\221"
 2249      02C6A222 
 2249      C8CE9129 
 2249      89338DFC 
 2249      6A91
 2250 0f48 DE792D27 		.ascii	"\336y-'\324\221\231jMMv\031%\364\242\323\"\031\271\001"
 2250      D491996A 
 2250      4D4D7619 
 2250      25F4A2D3 
 2250      2219B901 
 2251 0f5c A8226B32 		.ascii	"\250\"k2t\254S7CL\267\231\335\322\264\3444{J:\276\232"
 2251      74AC5337 
 2251      434CB799 
 2251      DDD2B4E4 
 2251      347B4A3A 
 2252 0f72 3135D92D 		.ascii	"15\331-\3520l\"Mv\245\274\373Z1\252\242(*V\365\200M"
 2252      EA306C22 
 2252      4D76A5BC 
 2252      FB5A31AA 
 2252      A2282A56 
 2253 0f89 745B5DF6 		.ascii	"t[]\366\014\311\211q\324s\266\221\316\251\177\022\255"
 2253      0CC98971 
 2253      D473B691 
 2253      CEA97F12 
 2253      AD
 2254 0f9a 9285793C 		.ascii	"\222\205y<2\303"
 2254      32C3
 2255 0fa0 E94C53E3 		.ascii	"\351LS\343\034\245y\325\"\375o\203\310\3063q\336Hq~"
 2255      1CA579D5 
 2255      22FD6F83 
 2255      C8C63371 
 2255      DE48717E 
 2256 0fb4 121DFF81 		.ascii	"\022\035\377\201\020\221\354rL\377P|\317!\230\255N\027"
 2256      1091EC72 
 2256      4CFF507C 
 2256      CF2198AD 
 2256      4E17
 2257 0fc6 BAE93DC7 		.ascii	"\272\351=\307\373B\2545\365\313T\333$\324L\022?u9\035"
 2257      FB42AC35 
 2257      F5CB54DB 
 2257      24D44C12 
 2257      3F75391D 
 2258 0fda BFC1C00E 		.ascii	"\277\301\300\016\347\274\240L\026\376\"h\354g\\\342"
 2258      E7BCA04C 
 2258      16FE2268 
 2258      EC675CE2 
 2259 0fea 172830CA 		.ascii	"\027(0\312\232:\305\232\372\307\344ibf\306\024\275\303"
 2259      9A3AC59A 
 2259      FAC7E469 
 2259      6266C614 
 2259      BDC3
 2260 0ffc 9D629146 		.ascii	"\235b\221F"
 2261 1000 FB81A764 		.ascii	"\373\201\247d\2723\320\257\242m\362(k*\223\370qZ\232"
 2261      BA33D0AF 
 2261      A26DF228 
 2261      6B2A93F8 
 2261      715A9A
ARM GAS  /tmp/cc5rUxS6.s 			page 72


 2262 1013 D3FA31F3 		.ascii	"\323\3721\363\205h\213\264\2462\026\274\313\204\360"
 2262      85688BB4 
 2262      A63216BC 
 2262      CB84F0
 2263 1022 34160723 		.ascii	"4\026\007#\206+\315\356\226L\"\033hOO\211\024\247\213"
 2263      862BCDEE 
 2263      964C221B 
 2263      684F4F89 
 2263      14A78B
 2264 1035 E99223D9 		.ascii	"\351\222#\331=\015\243\217\002x\"\030g$\333%|\031\343"
 2264      3D0DA38F 
 2264      02782218 
 2264      6724DB25 
 2264      7C19E3
 2265 1048 975D6CD4 		.ascii	"\227]l\324\010\377\007\213\004\231\006q\006\033j\230"
 2265      08FF078B 
 2265      04990671 
 2265      061B6A98 
 2266 1058 2121DF0C 		.ascii	"!!\337\014l\334\3508T\332\202mrF\252\323%\032\335\214"
 2266      6CDCE838 
 2266      54DA826D 
 2266      7246AAD3 
 2266      251ADD8C 
 2267 106c BD3B453F 		.ascii	"\275;E?C\222\\\031\243\324\330\271\304oD\227\230n\305"
 2267      43925C19 
 2267      A3D4D8B9 
 2267      C46F4497 
 2267      986EC5
 2268 107f 94C34118 		.ascii	"\224\303A\030\266\014\2238\323.Y\2356\321\340\262\315"
 2268      B60C9338 
 2268      D32E599D 
 2268      36D1E0B2 
 2268      CD
 2269 1090 42BC0E21 		.ascii	"B\274\016!n\243\304\256,\221\322\222S\360\311\201\357"
 2269      6EA3C4AE 
 2269      2C91D292 
 2269      53F0C981 
 2269      EF
 2270 10a1 F1C92DA1 		.ascii	"\361\311-\241\355&\2117\214A2\313%\2753\015C\255O\027"
 2270      ED268937 
 2270      8C4132CB 
 2270      25BD330D 
 2270      43AD4F17 
 2271 10b5 67882E6A 		.ascii	"g\210.j\225f\022w\006\346\200K\262\330\323%|\214\342"
 2271      95661277 
 2271      06E6804B 
 2271      B2D8D325 
 2271      7C8CE2
 2272 10c8 F756673A 		.ascii	"\367Vg:\306K\372U\270\300X\235\016\2073=\221\341\334"
 2272      C64BFA55 
 2272      B8C0589D 
 2272      0E87333D 
 2272      91E1DC
 2273 10db 891FFFFE 		.ascii	"\211\037\377\376\263I\237\315\304(a\204E\313\364\017"
 2273      B3499FCD 
 2273      C4286184 
 2273      45CBF40F 
ARM GAS  /tmp/cc5rUxS6.s 			page 73


 2274 10eb 1D98097A 		.ascii	"\035\230\011z\236\023\246Ld8\001\2533\332\202VJ\226"
 2274      9E13A64C 
 2274      643801AB 
 2274      33DA8256 
 2274      4A96
 2275 10fd 5F7F3CE5 		.ascii	"_\177<\345_\276\370\375\344\350\344\264\031\311\263"
 2275      5FBEF8FD 
 2275      E4E8E4B4 
 2275      19C9B3
 2276 110c DC282DCD 		.ascii	"\334(-\315\236.\376\372'\004\240|\306>q\322gS&OI\234"
 2276      9E2EFEFA 
 2276      2704A07C 
 2276      C63E71D2 
 2276      6753264F 
 2277 1122 84FC1327 		.ascii	"\204\374\023'{\023\317\341\266\273-)V+J\303\222\237"
 2277      7B13CFE1 
 2277      B6BB2D29 
 2277      562B4AC3 
 2277      929F
 2278 1134 32CBFD6F 		.ascii	"2\313\375oN\353\264\327\327\240{\026\313\324\010n\""
 2278      4EEBB4D7 
 2278      D7A07B16 
 2278      CBD4086E 
 2278      22
 2279 1145 467B5A24 		.ascii	"F{Z$\037\373\207t~\317{3\371\375\377\000\361\303\202"
 2279      1FFB8774 
 2279      7ECF7B33 
 2279      F9FDFF00 
 2279      F1C382
 2280 1158 C6       		.ascii	"\306"
 2281              		.text
 2282              		.section	.gnu.lto_.symtab.bfbc1e068b2d7dc,"e",%progbits
 2283 0000 63685468 		.ascii	"chThdCreateFromHeap\000"
 2283      64437265 
 2283      61746546 
 2283      726F6D48 
 2283      65617000 
 2284 0014 00       		.ascii	"\000"
 2285 0015 00       		.ascii	"\000"
 2286 0016 00       		.ascii	"\000"
 2287 0017 00000000 		.ascii	"\000\000\000\000\000\000\000\000"
 2287      00000000 
 2288 001f 49010000 		.ascii	"I\001\000\000"
 2289 0023 63685468 		.ascii	"chThdCreateFromMemoryPool\000"
 2289      64437265 
 2289      61746546 
 2289      726F6D4D 
 2289      656D6F72 
 2290 003d 00       		.ascii	"\000"
 2291 003e 00       		.ascii	"\000"
 2292 003f 00       		.ascii	"\000"
 2293 0040 00000000 		.ascii	"\000\000\000\000\000\000\000\000"
 2293      00000000 
 2294 0048 54010000 		.ascii	"T\001\000\000"
 2295 004c 63685363 		.ascii	"chSchWakeupS\000"
 2295      6857616B 
 2295      65757053 
ARM GAS  /tmp/cc5rUxS6.s 			page 74


 2295      00
 2296 0059 00       		.ascii	"\000"
 2297 005a 02       		.ascii	"\002"
 2298 005b 00       		.ascii	"\000"
 2299 005c 00000000 		.ascii	"\000\000\000\000\000\000\000\000"
 2299      00000000 
 2300 0064 5D010000 		.ascii	"]\001\000\000"
 2301 0068 63685468 		.ascii	"chThdCreateSuspendedI\000"
 2301      64437265 
 2301      61746553 
 2301      75737065 
 2301      6E646564 
 2302 007e 00       		.ascii	"\000"
 2303 007f 02       		.ascii	"\002"
 2304 0080 00       		.ascii	"\000"
 2305 0081 00000000 		.ascii	"\000\000\000\000\000\000\000\000"
 2305      00000000 
 2306 0089 64010000 		.ascii	"d\001\000\000"
 2307 008d 63684865 		.ascii	"chHeapAllocAligned\000"
 2307      6170416C 
 2307      6C6F6341 
 2307      6C69676E 
 2307      656400
 2308 00a0 00       		.ascii	"\000"
 2309 00a1 02       		.ascii	"\002"
 2310 00a2 00       		.ascii	"\000"
 2311 00a3 00000000 		.ascii	"\000\000\000\000\000\000\000\000"
 2311      00000000 
 2312 00ab 6A010000 		.ascii	"j\001\000\000"
 2313 00af 6368506F 		.ascii	"chPoolAlloc\000"
 2313      6F6C416C 
 2313      6C6F6300 
 2314 00bb 00       		.ascii	"\000"
 2315 00bc 02       		.ascii	"\002"
 2316 00bd 00       		.ascii	"\000"
 2317 00be 00000000 		.ascii	"\000\000\000\000\000\000\000\000"
 2317      00000000 
 2318 00c6 6E010000 		.ascii	"n\001\000\000"
 2319              		.text
 2320              		.section	.gnu.lto_.ext_symtab.bfbc1e068b2d7dc,"e",%progbits
 2321 0000 01       		.ascii	"\001"
 2322 0001 01       		.ascii	"\001"
 2323 0002 00       		.ascii	"\000"
 2324 0003 01       		.ascii	"\001"
 2325 0004 00       		.ascii	"\000"
 2326 0005 01       		.ascii	"\001"
 2327 0006 00       		.ascii	"\000"
 2328 0007 01       		.ascii	"\001"
 2329 0008 00       		.ascii	"\000"
 2330 0009 01       		.ascii	"\001"
 2331 000a 00       		.ascii	"\000"
 2332 000b 01       		.ascii	"\001"
 2333 000c 00       		.ascii	"\000"
 2334              		.text
 2335              		.section	.gnu.lto_.opts,"e",%progbits
 2336 0000 272D666E 		.ascii	"'-fno-openmp' '-fno-openacc' '-fno-pie' '-fcf-prote"
 2336      6F2D6F70 
ARM GAS  /tmp/cc5rUxS6.s 			page 75


 2336      656E6D70 
 2336      2720272D 
 2336      666E6F2D 
 2337 0033 6374696F 		.ascii	"ction=none' '-g' '-mcpu=cortex-m4' '-mthumb' '-mflo"
 2337      6E3D6E6F 
 2337      6E652720 
 2337      272D6727 
 2337      20272D6D 
 2338 0066 61742D61 		.ascii	"at-abi=soft' '-march=armv7e-m' '-O2' '-fomit-frame-"
 2338      62693D73 
 2338      6F667427 
 2338      20272D6D 
 2338      61726368 
 2339 0099 706F696E 		.ascii	"pointer' '-falign-functions=16' '-ffunction-section"
 2339      74657227 
 2339      20272D66 
 2339      616C6967 
 2339      6E2D6675 
 2340 00cc 73272027 		.ascii	"s' '-fdata-sections' '-fno-common' '-flto' '-Xassem"
 2340      2D666461 
 2340      74612D73 
 2340      65637469 
 2340      6F6E7327 
 2341 00ff 626C6572 		.ascii	"bler' '-alms=./build/lst/chdynamic.lst'\000"
 2341      2720272D 
 2341      616C6D73 
 2341      3D2E2F62 
 2341      75696C64 
 2342              		.text
 2343              		.comm	__gnu_lto_slim,1,1
 2344              		.ident	"GCC: (GNU Arm Embedded Toolchain 10-2020-q4-major) 10.2.1 20201103 (release)"
ARM GAS  /tmp/cc5rUxS6.s 			page 76


DEFINED SYMBOLS
                            *ABS*:0000000000000000 chdynamic.c
     /tmp/cc5rUxS6.s:33     .gnu.debuglto_.debug_info:0000000000000000 chdynamic.c.801109b1
                            *COM*:0000000000000001 __gnu_lto_slim

NO UNDEFINED SYMBOLS
