ARM GAS  /tmp/cc5zVToH.s 			page 1


   1              		.cpu cortex-m4
   2              		.eabi_attribute 20, 1
   3              		.eabi_attribute 21, 1
   4              		.eabi_attribute 23, 3
   5              		.eabi_attribute 24, 1
   6              		.eabi_attribute 25, 1
   7              		.eabi_attribute 26, 1
   8              		.eabi_attribute 30, 2
   9              		.eabi_attribute 34, 1
  10              		.eabi_attribute 18, 4
  11              		.file	"chmemcore.c"
  12              		.file 1 "/usr/share/gcc-arm-none-eabi-10-2020-q4-major/lib/gcc/arm-none-eabi/10.2.1/include/stddef
  13              		.file 2 "/usr/share/gcc-arm-none-eabi-10-2020-q4-major/arm-none-eabi/include/machine/_default_type
  14              		.file 3 "/usr/share/gcc-arm-none-eabi-10-2020-q4-major/arm-none-eabi/include/sys/_stdint.h"
  15              		.file 4 "./ChibiOS_20.3.0/os/common/ports/ARMCMx/compilers/GCC/chtypes.h"
  16              		.file 5 "./ChibiOS_20.3.0/os/rt/include/chsystypes.h"
  17              		.file 6 "./ChibiOS_20.3.0/os/rt/include/chschd.h"
  18              		.file 7 "./ChibiOS_20.3.0/os/common/ports/ARMCMx/chcore.h"
  19              		.file 8 "./ChibiOS_20.3.0/os/common/ports/ARMCMx/chcore_v7m.h"
  20              		.file 9 "./ChibiOS_20.3.0/os/rt/include/chsem.h"
  21              		.file 10 "./ChibiOS_20.3.0/os/rt/include/chmtx.h"
  22              		.file 11 "./ChibiOS_20.3.0/os/oslib/include/chmemcore.h"
  23              		.file 12 "./ChibiOS_20.3.0/os/oslib/src/chmemcore.c"
  24              		.file 13 "./ChibiOS_20.3.0/os/rt/include/chsys.h"
  25              		.file 14 "./ChibiOS_20.3.0/os/common/ext/ARM/CMSIS/Core/Include/cmsis_gcc.h"
  26              		.section	.gnu.debuglto_.debug_info,"e",%progbits
  27              	.Ldebug_info0:
  28              		.hidden	chmemcore.c.4912f759
  29              		.weak	chmemcore.c.4912f759
  30              	chmemcore.c.4912f759:
  31 0000 85060000 		.4byte	0x685
  32 0004 0400     		.2byte	0x4
  33 0006 00000000 		.4byte	.Ldebug_abbrev0
  34 000a 04       		.byte	0x4
  35 000b 01       		.uleb128 0x1
  36 000c 18020000 		.4byte	.LASF85
  37 0010 0C       		.byte	0xc
  38 0011 C2030000 		.4byte	.LASF86
  39 0015 1D010000 		.4byte	.LASF87
  40 0019 00000000 		.4byte	.Ldebug_line0
  41 001d 02       		.uleb128 0x2
  42 001e 04       		.byte	0x4
  43 001f 05       		.byte	0x5
  44 0020 696E7400 		.ascii	"int\000"
  45 0024 03       		.uleb128 0x3
  46 0025 33000000 		.4byte	.LASF4
  47 0029 01       		.byte	0x1
  48 002a D1       		.byte	0xd1
  49 002b 17       		.byte	0x17
  50 002c 30000000 		.4byte	0x30
  51 0030 04       		.uleb128 0x4
  52 0031 04       		.byte	0x4
  53 0032 07       		.byte	0x7
  54 0033 0B020000 		.4byte	.LASF0
  55 0037 04       		.uleb128 0x4
  56 0038 08       		.byte	0x8
  57 0039 05       		.byte	0x5
ARM GAS  /tmp/cc5zVToH.s 			page 2


  58 003a F6000000 		.4byte	.LASF1
  59 003e 04       		.uleb128 0x4
  60 003f 08       		.byte	0x8
  61 0040 04       		.byte	0x4
  62 0041 EA000000 		.4byte	.LASF2
  63 0045 04       		.uleb128 0x4
  64 0046 01       		.byte	0x1
  65 0047 06       		.byte	0x6
  66 0048 F0010000 		.4byte	.LASF3
  67 004c 03       		.uleb128 0x3
  68 004d 6F010000 		.4byte	.LASF5
  69 0051 02       		.byte	0x2
  70 0052 2B       		.byte	0x2b
  71 0053 18       		.byte	0x18
  72 0054 58000000 		.4byte	0x58
  73 0058 04       		.uleb128 0x4
  74 0059 01       		.byte	0x1
  75 005a 08       		.byte	0x8
  76 005b A6010000 		.4byte	.LASF6
  77 005f 04       		.uleb128 0x4
  78 0060 02       		.byte	0x2
  79 0061 05       		.byte	0x5
  80 0062 29000000 		.4byte	.LASF7
  81 0066 04       		.uleb128 0x4
  82 0067 02       		.byte	0x2
  83 0068 07       		.byte	0x7
  84 0069 F6020000 		.4byte	.LASF8
  85 006d 03       		.uleb128 0x3
  86 006e 13010000 		.4byte	.LASF9
  87 0072 02       		.byte	0x2
  88 0073 4D       		.byte	0x4d
  89 0074 18       		.byte	0x18
  90 0075 79000000 		.4byte	0x79
  91 0079 04       		.uleb128 0x4
  92 007a 04       		.byte	0x4
  93 007b 05       		.byte	0x5
  94 007c 4A010000 		.4byte	.LASF10
  95 0080 03       		.uleb128 0x3
  96 0081 84030000 		.4byte	.LASF11
  97 0085 02       		.byte	0x2
  98 0086 4F       		.byte	0x4f
  99 0087 19       		.byte	0x19
 100 0088 8C000000 		.4byte	0x8c
 101 008c 04       		.uleb128 0x4
 102 008d 04       		.byte	0x4
 103 008e 07       		.byte	0x7
 104 008f 72030000 		.4byte	.LASF12
 105 0093 03       		.uleb128 0x3
 106 0094 5D030000 		.4byte	.LASF13
 107 0098 02       		.byte	0x2
 108 0099 69       		.byte	0x69
 109 009a 19       		.byte	0x19
 110 009b 9F000000 		.4byte	0x9f
 111 009f 04       		.uleb128 0x4
 112 00a0 08       		.byte	0x8
 113 00a1 07       		.byte	0x7
 114 00a2 3A000000 		.4byte	.LASF14
ARM GAS  /tmp/cc5zVToH.s 			page 3


 115 00a6 03       		.uleb128 0x3
 116 00a7 92000000 		.4byte	.LASF15
 117 00ab 03       		.byte	0x3
 118 00ac 18       		.byte	0x18
 119 00ad 13       		.byte	0x13
 120 00ae 4C000000 		.4byte	0x4c
 121 00b2 03       		.uleb128 0x3
 122 00b3 1E030000 		.4byte	.LASF16
 123 00b7 03       		.byte	0x3
 124 00b8 2C       		.byte	0x2c
 125 00b9 13       		.byte	0x13
 126 00ba 6D000000 		.4byte	0x6d
 127 00be 03       		.uleb128 0x3
 128 00bf B3000000 		.4byte	.LASF17
 129 00c3 03       		.byte	0x3
 130 00c4 30       		.byte	0x30
 131 00c5 14       		.byte	0x14
 132 00c6 80000000 		.4byte	0x80
 133 00ca 03       		.uleb128 0x3
 134 00cb 20000000 		.4byte	.LASF18
 135 00cf 03       		.byte	0x3
 136 00d0 3C       		.byte	0x3c
 137 00d1 14       		.byte	0x14
 138 00d2 93000000 		.4byte	0x93
 139 00d6 03       		.uleb128 0x3
 140 00d7 71000000 		.4byte	.LASF19
 141 00db 04       		.byte	0x4
 142 00dc 2A       		.byte	0x2a
 143 00dd 1D       		.byte	0x1d
 144 00de A6000000 		.4byte	0xa6
 145 00e2 03       		.uleb128 0x3
 146 00e3 0C040000 		.4byte	.LASF20
 147 00e7 04       		.byte	0x4
 148 00e8 2B       		.byte	0x2b
 149 00e9 1D       		.byte	0x1d
 150 00ea A6000000 		.4byte	0xa6
 151 00ee 03       		.uleb128 0x3
 152 00ef 09000000 		.4byte	.LASF21
 153 00f3 04       		.byte	0x4
 154 00f4 2C       		.byte	0x2c
 155 00f5 1D       		.byte	0x1d
 156 00f6 A6000000 		.4byte	0xa6
 157 00fa 03       		.uleb128 0x3
 158 00fb 0B010000 		.4byte	.LASF22
 159 00ff 04       		.byte	0x4
 160 0100 2E       		.byte	0x2e
 161 0101 1D       		.byte	0x1d
 162 0102 BE000000 		.4byte	0xbe
 163 0106 03       		.uleb128 0x3
 164 0107 7C040000 		.4byte	.LASF23
 165 010b 04       		.byte	0x4
 166 010c 2F       		.byte	0x2f
 167 010d 1D       		.byte	0x1d
 168 010e B2000000 		.4byte	0xb2
 169 0112 03       		.uleb128 0x3
 170 0113 65000000 		.4byte	.LASF24
 171 0117 04       		.byte	0x4
ARM GAS  /tmp/cc5zVToH.s 			page 4


 172 0118 31       		.byte	0x31
 173 0119 1D       		.byte	0x1d
 174 011a BE000000 		.4byte	0xbe
 175 011e 03       		.uleb128 0x3
 176 011f 26030000 		.4byte	.LASF25
 177 0123 04       		.byte	0x4
 178 0124 33       		.byte	0x33
 179 0125 1D       		.byte	0x1d
 180 0126 B2000000 		.4byte	0xb2
 181 012a 03       		.uleb128 0x3
 182 012b 00000000 		.4byte	.LASF26
 183 012f 05       		.byte	0x5
 184 0130 34       		.byte	0x34
 185 0131 1A       		.byte	0x1a
 186 0132 36010000 		.4byte	0x136
 187 0136 05       		.uleb128 0x5
 188 0137 BC000000 		.4byte	.LASF44
 189 013b 44       		.byte	0x44
 190 013c 06       		.byte	0x6
 191 013d 8E       		.byte	0x8e
 192 013e 08       		.byte	0x8
 193 013f 26020000 		.4byte	0x226
 194 0143 06       		.uleb128 0x6
 195 0144 9B010000 		.4byte	.LASF27
 196 0148 06       		.byte	0x6
 197 0149 8F       		.byte	0x8f
 198 014a 19       		.byte	0x19
 199 014b 5F020000 		.4byte	0x25f
 200 014f 00       		.byte	0
 201 0150 06       		.uleb128 0x6
 202 0151 82040000 		.4byte	.LASF28
 203 0155 06       		.byte	0x6
 204 0156 90       		.byte	0x90
 205 0157 19       		.byte	0x19
 206 0158 FA000000 		.4byte	0xfa
 207 015c 08       		.byte	0x8
 208 015d 07       		.uleb128 0x7
 209 015e 63747800 		.ascii	"ctx\000"
 210 0162 06       		.byte	0x6
 211 0163 91       		.byte	0x91
 212 0164 19       		.byte	0x19
 213 0165 27030000 		.4byte	0x327
 214 0169 0C       		.byte	0xc
 215 016a 06       		.uleb128 0x6
 216 016b 95010000 		.4byte	.LASF29
 217 016f 06       		.byte	0x6
 218 0170 93       		.byte	0x93
 219 0171 1A       		.byte	0x1a
 220 0172 32020000 		.4byte	0x232
 221 0176 10       		.byte	0x10
 222 0177 06       		.uleb128 0x6
 223 0178 C6000000 		.4byte	.LASF30
 224 017c 06       		.byte	0x6
 225 017d 94       		.byte	0x94
 226 017e 1A       		.byte	0x1a
 227 017f 32020000 		.4byte	0x232
 228 0183 14       		.byte	0x14
ARM GAS  /tmp/cc5zVToH.s 			page 5


 229 0184 06       		.uleb128 0x6
 230 0185 A1010000 		.4byte	.LASF31
 231 0189 06       		.byte	0x6
 232 018a 9B       		.byte	0x9b
 233 018b 1A       		.byte	0x1a
 234 018c 23040000 		.4byte	0x423
 235 0190 18       		.byte	0x18
 236 0191 06       		.uleb128 0x6
 237 0192 CC000000 		.4byte	.LASF32
 238 0196 06       		.byte	0x6
 239 0197 A4       		.byte	0xa4
 240 0198 1A       		.byte	0x1a
 241 0199 35040000 		.4byte	0x435
 242 019d 1C       		.byte	0x1c
 243 019e 06       		.uleb128 0x6
 244 019f 1A000000 		.4byte	.LASF33
 245 01a3 06       		.byte	0x6
 246 01a4 A9       		.byte	0xa9
 247 01a5 19       		.byte	0x19
 248 01a6 E2000000 		.4byte	0xe2
 249 01aa 20       		.byte	0x20
 250 01ab 06       		.uleb128 0x6
 251 01ac FC010000 		.4byte	.LASF34
 252 01b0 06       		.byte	0x6
 253 01b1 AD       		.byte	0xad
 254 01b2 19       		.byte	0x19
 255 01b3 D6000000 		.4byte	0xd6
 256 01b7 21       		.byte	0x21
 257 01b8 06       		.uleb128 0x6
 258 01b9 6D030000 		.4byte	.LASF35
 259 01bd 06       		.byte	0x6
 260 01be B2       		.byte	0xb2
 261 01bf 19       		.byte	0x19
 262 01c0 EE000000 		.4byte	0xee
 263 01c4 22       		.byte	0x22
 264 01c5 08       		.uleb128 0x8
 265 01c6 7500     		.ascii	"u\000"
 266 01c8 06       		.byte	0x6
 267 01c9 0301     		.2byte	0x103
 268 01cb 19       		.byte	0x19
 269 01cc 49030000 		.4byte	0x349
 270 01d0 24       		.byte	0x24
 271 01d1 09       		.uleb128 0x9
 272 01d2 4E040000 		.4byte	.LASF36
 273 01d6 06       		.byte	0x6
 274 01d7 0801     		.2byte	0x108
 275 01d9 19       		.byte	0x19
 276 01da 38020000 		.4byte	0x238
 277 01de 28       		.byte	0x28
 278 01df 09       		.uleb128 0x9
 279 01e0 89000000 		.4byte	.LASF37
 280 01e4 06       		.byte	0x6
 281 01e5 0E01     		.2byte	0x10e
 282 01e7 19       		.byte	0x19
 283 01e8 5F020000 		.4byte	0x25f
 284 01ec 2C       		.byte	0x2c
 285 01ed 09       		.uleb128 0x9
ARM GAS  /tmp/cc5zVToH.s 			page 6


 286 01ee 11000000 		.4byte	.LASF38
 287 01f2 06       		.byte	0x6
 288 01f3 1401     		.2byte	0x114
 289 01f5 19       		.byte	0x19
 290 01f6 12010000 		.4byte	0x112
 291 01fa 34       		.byte	0x34
 292 01fb 09       		.uleb128 0x9
 293 01fc 9A000000 		.4byte	.LASF39
 294 0200 06       		.byte	0x6
 295 0201 1B01     		.2byte	0x11b
 296 0203 1A       		.byte	0x1a
 297 0204 1D040000 		.4byte	0x41d
 298 0208 38       		.byte	0x38
 299 0209 09       		.uleb128 0x9
 300 020a DD020000 		.4byte	.LASF40
 301 020e 06       		.byte	0x6
 302 020f 1F01     		.2byte	0x11f
 303 0211 19       		.byte	0x19
 304 0212 FA000000 		.4byte	0xfa
 305 0216 3C       		.byte	0x3c
 306 0217 09       		.uleb128 0x9
 307 0218 29040000 		.4byte	.LASF41
 308 021c 06       		.byte	0x6
 309 021d 2601     		.2byte	0x126
 310 021f 1A       		.byte	0x1a
 311 0220 93020000 		.4byte	0x293
 312 0224 40       		.byte	0x40
 313 0225 00       		.byte	0
 314 0226 03       		.uleb128 0x3
 315 0227 F2030000 		.4byte	.LASF42
 316 022b 05       		.byte	0x5
 317 022c 39       		.byte	0x39
 318 022d 14       		.byte	0x14
 319 022e 32020000 		.4byte	0x232
 320 0232 0A       		.uleb128 0xa
 321 0233 04       		.byte	0x4
 322 0234 2A010000 		.4byte	0x12a
 323 0238 03       		.uleb128 0x3
 324 0239 93040000 		.4byte	.LASF43
 325 023d 05       		.byte	0x5
 326 023e 3E       		.byte	0x3e
 327 023f 20       		.byte	0x20
 328 0240 44020000 		.4byte	0x244
 329 0244 05       		.uleb128 0x5
 330 0245 79000000 		.4byte	.LASF45
 331 0249 04       		.byte	0x4
 332 024a 06       		.byte	0x6
 333 024b 7C       		.byte	0x7c
 334 024c 08       		.byte	0x8
 335 024d 5F020000 		.4byte	0x25f
 336 0251 06       		.uleb128 0x6
 337 0252 87040000 		.4byte	.LASF46
 338 0256 06       		.byte	0x6
 339 0257 7D       		.byte	0x7d
 340 0258 1A       		.byte	0x1a
 341 0259 32020000 		.4byte	0x232
 342 025d 00       		.byte	0
ARM GAS  /tmp/cc5zVToH.s 			page 7


 343 025e 00       		.byte	0
 344 025f 03       		.uleb128 0x3
 345 0260 E6020000 		.4byte	.LASF47
 346 0264 05       		.byte	0x5
 347 0265 45       		.byte	0x45
 348 0266 21       		.byte	0x21
 349 0267 6B020000 		.4byte	0x26b
 350 026b 05       		.uleb128 0x5
 351 026c 2F040000 		.4byte	.LASF48
 352 0270 08       		.byte	0x8
 353 0271 06       		.byte	0x6
 354 0272 83       		.byte	0x83
 355 0273 08       		.byte	0x8
 356 0274 93020000 		.4byte	0x293
 357 0278 06       		.uleb128 0x6
 358 0279 87040000 		.4byte	.LASF46
 359 027d 06       		.byte	0x6
 360 027e 84       		.byte	0x84
 361 027f 1A       		.byte	0x1a
 362 0280 32020000 		.4byte	0x232
 363 0284 00       		.byte	0
 364 0285 06       		.uleb128 0x6
 365 0286 D8010000 		.4byte	.LASF49
 366 028a 06       		.byte	0x6
 367 028b 85       		.byte	0x85
 368 028c 1A       		.byte	0x1a
 369 028d 32020000 		.4byte	0x232
 370 0291 04       		.byte	0x4
 371 0292 00       		.byte	0
 372 0293 0B       		.uleb128 0xb
 373 0294 04       		.byte	0x4
 374 0295 03       		.uleb128 0x3
 375 0296 15040000 		.4byte	.LASF50
 376 029a 07       		.byte	0x7
 377 029b 68       		.byte	0x68
 378 029c 12       		.byte	0x12
 379 029d CA000000 		.4byte	0xca
 380 02a1 0C       		.uleb128 0xc
 381 02a2 B6030000 		.4byte	.LASF51
 382 02a6 24       		.byte	0x24
 383 02a7 08       		.byte	0x8
 384 02a8 8501     		.2byte	0x185
 385 02aa 08       		.byte	0x8
 386 02ab 27030000 		.4byte	0x327
 387 02af 08       		.uleb128 0x8
 388 02b0 723400   		.ascii	"r4\000"
 389 02b3 08       		.byte	0x8
 390 02b4 9E01     		.2byte	0x19e
 391 02b6 11       		.byte	0x11
 392 02b7 BE000000 		.4byte	0xbe
 393 02bb 00       		.byte	0
 394 02bc 08       		.uleb128 0x8
 395 02bd 723500   		.ascii	"r5\000"
 396 02c0 08       		.byte	0x8
 397 02c1 9F01     		.2byte	0x19f
 398 02c3 11       		.byte	0x11
 399 02c4 BE000000 		.4byte	0xbe
ARM GAS  /tmp/cc5zVToH.s 			page 8


 400 02c8 04       		.byte	0x4
 401 02c9 08       		.uleb128 0x8
 402 02ca 723600   		.ascii	"r6\000"
 403 02cd 08       		.byte	0x8
 404 02ce A001     		.2byte	0x1a0
 405 02d0 11       		.byte	0x11
 406 02d1 BE000000 		.4byte	0xbe
 407 02d5 08       		.byte	0x8
 408 02d6 08       		.uleb128 0x8
 409 02d7 723700   		.ascii	"r7\000"
 410 02da 08       		.byte	0x8
 411 02db A101     		.2byte	0x1a1
 412 02dd 11       		.byte	0x11
 413 02de BE000000 		.4byte	0xbe
 414 02e2 0C       		.byte	0xc
 415 02e3 08       		.uleb128 0x8
 416 02e4 723800   		.ascii	"r8\000"
 417 02e7 08       		.byte	0x8
 418 02e8 A201     		.2byte	0x1a2
 419 02ea 11       		.byte	0x11
 420 02eb BE000000 		.4byte	0xbe
 421 02ef 10       		.byte	0x10
 422 02f0 08       		.uleb128 0x8
 423 02f1 723900   		.ascii	"r9\000"
 424 02f4 08       		.byte	0x8
 425 02f5 A301     		.2byte	0x1a3
 426 02f7 11       		.byte	0x11
 427 02f8 BE000000 		.4byte	0xbe
 428 02fc 14       		.byte	0x14
 429 02fd 08       		.uleb128 0x8
 430 02fe 72313000 		.ascii	"r10\000"
 431 0302 08       		.byte	0x8
 432 0303 A401     		.2byte	0x1a4
 433 0305 11       		.byte	0x11
 434 0306 BE000000 		.4byte	0xbe
 435 030a 18       		.byte	0x18
 436 030b 08       		.uleb128 0x8
 437 030c 72313100 		.ascii	"r11\000"
 438 0310 08       		.byte	0x8
 439 0311 A501     		.2byte	0x1a5
 440 0313 11       		.byte	0x11
 441 0314 BE000000 		.4byte	0xbe
 442 0318 1C       		.byte	0x1c
 443 0319 08       		.uleb128 0x8
 444 031a 6C7200   		.ascii	"lr\000"
 445 031d 08       		.byte	0x8
 446 031e A601     		.2byte	0x1a6
 447 0320 11       		.byte	0x11
 448 0321 BE000000 		.4byte	0xbe
 449 0325 20       		.byte	0x20
 450 0326 00       		.byte	0
 451 0327 0C       		.uleb128 0xc
 452 0328 33030000 		.4byte	.LASF52
 453 032c 04       		.byte	0x4
 454 032d 08       		.byte	0x8
 455 032e A901     		.2byte	0x1a9
 456 0330 08       		.byte	0x8
ARM GAS  /tmp/cc5zVToH.s 			page 9


 457 0331 43030000 		.4byte	0x343
 458 0335 08       		.uleb128 0x8
 459 0336 737000   		.ascii	"sp\000"
 460 0339 08       		.byte	0x8
 461 033a AA01     		.2byte	0x1aa
 462 033c 1A       		.byte	0x1a
 463 033d 43030000 		.4byte	0x343
 464 0341 00       		.byte	0
 465 0342 00       		.byte	0
 466 0343 0A       		.uleb128 0xa
 467 0344 04       		.byte	0x4
 468 0345 A1020000 		.4byte	0x2a1
 469 0349 0D       		.uleb128 0xd
 470 034a 04       		.byte	0x4
 471 034b 06       		.byte	0x6
 472 034c C6       		.byte	0xc6
 473 034d 03       		.byte	0x3
 474 034e B4030000 		.4byte	0x3b4
 475 0352 0E       		.uleb128 0xe
 476 0353 75040000 		.4byte	.LASF53
 477 0357 06       		.byte	0x6
 478 0358 CD       		.byte	0xcd
 479 0359 19       		.byte	0x19
 480 035a 06010000 		.4byte	0x106
 481 035e 0E       		.uleb128 0xe
 482 035f 20040000 		.4byte	.LASF54
 483 0363 06       		.byte	0x6
 484 0364 D4       		.byte	0xd4
 485 0365 19       		.byte	0x19
 486 0366 06010000 		.4byte	0x106
 487 036a 0E       		.uleb128 0xe
 488 036b 05040000 		.4byte	.LASF55
 489 036f 06       		.byte	0x6
 490 0370 DB       		.byte	0xdb
 491 0371 1A       		.byte	0x1a
 492 0372 93020000 		.4byte	0x293
 493 0376 0E       		.uleb128 0xe
 494 0377 8F030000 		.4byte	.LASF56
 495 037b 06       		.byte	0x6
 496 037c E2       		.byte	0xe2
 497 037d 1A       		.byte	0x1a
 498 037e B4030000 		.4byte	0x3b4
 499 0382 0E       		.uleb128 0xe
 500 0383 79010000 		.4byte	.LASF57
 501 0387 06       		.byte	0x6
 502 0388 E7       		.byte	0xe7
 503 0389 19       		.byte	0x19
 504 038a 06010000 		.4byte	0x106
 505 038e 0E       		.uleb128 0xe
 506 038f 04010000 		.4byte	.LASF58
 507 0393 06       		.byte	0x6
 508 0394 F0       		.byte	0xf0
 509 0395 1A       		.byte	0x1a
 510 0396 E2030000 		.4byte	0x3e2
 511 039a 0E       		.uleb128 0xe
 512 039b 8C040000 		.4byte	.LASF59
 513 039f 06       		.byte	0x6
ARM GAS  /tmp/cc5zVToH.s 			page 10


 514 03a0 F9       		.byte	0xf9
 515 03a1 1A       		.byte	0x1a
 516 03a2 1D040000 		.4byte	0x41d
 517 03a6 0F       		.uleb128 0xf
 518 03a7 D1010000 		.4byte	.LASF60
 519 03ab 06       		.byte	0x6
 520 03ac 0101     		.2byte	0x101
 521 03ae 19       		.byte	0x19
 522 03af 12010000 		.4byte	0x112
 523 03b3 00       		.byte	0
 524 03b4 0A       		.uleb128 0xa
 525 03b5 04       		.byte	0x4
 526 03b6 26020000 		.4byte	0x226
 527 03ba 05       		.uleb128 0x5
 528 03bb A9030000 		.4byte	.LASF61
 529 03bf 0C       		.byte	0xc
 530 03c0 09       		.byte	0x9
 531 03c1 34       		.byte	0x34
 532 03c2 10       		.byte	0x10
 533 03c3 E2030000 		.4byte	0x3e2
 534 03c7 06       		.uleb128 0x6
 535 03c8 9B010000 		.4byte	.LASF27
 536 03cc 09       		.byte	0x9
 537 03cd 35       		.byte	0x35
 538 03ce 19       		.byte	0x19
 539 03cf 5F020000 		.4byte	0x25f
 540 03d3 00       		.byte	0
 541 03d4 07       		.uleb128 0x7
 542 03d5 636E7400 		.ascii	"cnt\000"
 543 03d9 09       		.byte	0x9
 544 03da 37       		.byte	0x37
 545 03db 19       		.byte	0x19
 546 03dc 1E010000 		.4byte	0x11e
 547 03e0 08       		.byte	0x8
 548 03e1 00       		.byte	0
 549 03e2 0A       		.uleb128 0xa
 550 03e3 04       		.byte	0x4
 551 03e4 BA030000 		.4byte	0x3ba
 552 03e8 05       		.uleb128 0x5
 553 03e9 02020000 		.4byte	.LASF62
 554 03ed 10       		.byte	0x10
 555 03ee 0A       		.byte	0xa
 556 03ef 39       		.byte	0x39
 557 03f0 08       		.byte	0x8
 558 03f1 1D040000 		.4byte	0x41d
 559 03f5 06       		.uleb128 0x6
 560 03f6 9B010000 		.4byte	.LASF27
 561 03fa 0A       		.byte	0xa
 562 03fb 3A       		.byte	0x3a
 563 03fc 19       		.byte	0x19
 564 03fd 5F020000 		.4byte	0x25f
 565 0401 00       		.byte	0
 566 0402 06       		.uleb128 0x6
 567 0403 CB010000 		.4byte	.LASF63
 568 0407 0A       		.byte	0xa
 569 0408 3C       		.byte	0x3c
 570 0409 1A       		.byte	0x1a
ARM GAS  /tmp/cc5zVToH.s 			page 11


 571 040a 32020000 		.4byte	0x232
 572 040e 08       		.byte	0x8
 573 040f 06       		.uleb128 0x6
 574 0410 87040000 		.4byte	.LASF46
 575 0414 0A       		.byte	0xa
 576 0415 3E       		.byte	0x3e
 577 0416 1A       		.byte	0x1a
 578 0417 47040000 		.4byte	0x447
 579 041b 0C       		.byte	0xc
 580 041c 00       		.byte	0
 581 041d 0A       		.uleb128 0xa
 582 041e 04       		.byte	0x4
 583 041f E8030000 		.4byte	0x3e8
 584 0423 0A       		.uleb128 0xa
 585 0424 04       		.byte	0x4
 586 0425 30040000 		.4byte	0x430
 587 0429 04       		.uleb128 0x4
 588 042a 01       		.byte	0x1
 589 042b 08       		.byte	0x8
 590 042c 11030000 		.4byte	.LASF64
 591 0430 10       		.uleb128 0x10
 592 0431 29040000 		.4byte	0x429
 593 0435 0A       		.uleb128 0xa
 594 0436 04       		.byte	0x4
 595 0437 95020000 		.4byte	0x295
 596 043b 03       		.uleb128 0x3
 597 043c 16030000 		.4byte	.LASF65
 598 0440 0A       		.byte	0xa
 599 0441 34       		.byte	0x34
 600 0442 19       		.byte	0x19
 601 0443 E8030000 		.4byte	0x3e8
 602 0447 0A       		.uleb128 0xa
 603 0448 04       		.byte	0x4
 604 0449 3B040000 		.4byte	0x43b
 605 044d 04       		.uleb128 0x4
 606 044e 01       		.byte	0x1
 607 044f 02       		.byte	0x2
 608 0450 40030000 		.4byte	.LASF66
 609 0454 11       		.uleb128 0x11
 610 0455 08       		.byte	0x8
 611 0456 0B       		.byte	0xb
 612 0457 51       		.byte	0x51
 613 0458 09       		.byte	0x9
 614 0459 78040000 		.4byte	0x478
 615 045d 06       		.uleb128 0x6
 616 045e A1030000 		.4byte	.LASF67
 617 0462 0B       		.byte	0xb
 618 0463 55       		.byte	0x55
 619 0464 0C       		.byte	0xc
 620 0465 78040000 		.4byte	0x478
 621 0469 00       		.byte	0
 622 046a 06       		.uleb128 0x6
 623 046b 2C030000 		.4byte	.LASF68
 624 046f 0B       		.byte	0xb
 625 0470 59       		.byte	0x59
 626 0471 0C       		.byte	0xc
 627 0472 78040000 		.4byte	0x478
ARM GAS  /tmp/cc5zVToH.s 			page 12


 628 0476 04       		.byte	0x4
 629 0477 00       		.byte	0
 630 0478 0A       		.uleb128 0xa
 631 0479 04       		.byte	0x4
 632 047a A6000000 		.4byte	0xa6
 633 047e 03       		.uleb128 0x3
 634 047f D3000000 		.4byte	.LASF69
 635 0483 0B       		.byte	0xb
 636 0484 5A       		.byte	0x5a
 637 0485 03       		.byte	0x3
 638 0486 54040000 		.4byte	0x454
 639 048a 12       		.uleb128 0x12
 640 048b 52030000 		.4byte	.LASF78
 641 048f 0B       		.byte	0xb
 642 0490 75       		.byte	0x75
 643 0491 12       		.byte	0x12
 644 0492 7E040000 		.4byte	0x47e
 645 0496 13       		.uleb128 0x13
 646 0497 8A040000 		.4byte	0x48a
 647 049b 0C       		.byte	0xc
 648 049c 3A       		.byte	0x3a
 649 049d 0B       		.byte	0xb
 650 049e 14       		.uleb128 0x14
 651 049f A2000000 		.4byte	.LASF88
 652 04a3 0C       		.byte	0xc
 653 04a4 DB       		.byte	0xdb
 654 04a5 08       		.byte	0x8
 655 04a6 24000000 		.4byte	0x24
 656 04aa 15       		.uleb128 0x15
 657 04ab DD010000 		.4byte	.LASF73
 658 04af 0C       		.byte	0xc
 659 04b0 CA       		.byte	0xca
 660 04b1 07       		.byte	0x7
 661 04b2 93020000 		.4byte	0x293
 662 04b6 E9040000 		.4byte	0x4e9
 663 04ba 16       		.uleb128 0x16
 664 04bb 68030000 		.4byte	.LASF70
 665 04bf 0C       		.byte	0xc
 666 04c0 CA       		.byte	0xca
 667 04c1 21       		.byte	0x21
 668 04c2 24000000 		.4byte	0x24
 669 04c6 16       		.uleb128 0x16
 670 04c7 EC030000 		.4byte	.LASF71
 671 04cb 0C       		.byte	0xc
 672 04cc CA       		.byte	0xca
 673 04cd 30       		.byte	0x30
 674 04ce 30000000 		.4byte	0x30
 675 04d2 16       		.uleb128 0x16
 676 04d3 53010000 		.4byte	.LASF72
 677 04d7 0C       		.byte	0xc
 678 04d8 CA       		.byte	0xca
 679 04d9 3E       		.byte	0x3e
 680 04da 24000000 		.4byte	0x24
 681 04de 17       		.uleb128 0x17
 682 04df 7000     		.ascii	"p\000"
 683 04e1 0C       		.byte	0xc
 684 04e2 CB       		.byte	0xcb
ARM GAS  /tmp/cc5zVToH.s 			page 13


 685 04e3 09       		.byte	0x9
 686 04e4 93020000 		.4byte	0x293
 687 04e8 00       		.byte	0
 688 04e9 15       		.uleb128 0x15
 689 04ea 81010000 		.4byte	.LASF74
 690 04ee 0C       		.byte	0xc
 691 04ef B2       		.byte	0xb2
 692 04f0 07       		.byte	0x7
 693 04f1 93020000 		.4byte	0x293
 694 04f5 28050000 		.4byte	0x528
 695 04f9 16       		.uleb128 0x16
 696 04fa 68030000 		.4byte	.LASF70
 697 04fe 0C       		.byte	0xc
 698 04ff B2       		.byte	0xb2
 699 0500 22       		.byte	0x22
 700 0501 24000000 		.4byte	0x24
 701 0505 16       		.uleb128 0x16
 702 0506 EC030000 		.4byte	.LASF71
 703 050a 0C       		.byte	0xc
 704 050b B2       		.byte	0xb2
 705 050c 31       		.byte	0x31
 706 050d 30000000 		.4byte	0x30
 707 0511 16       		.uleb128 0x16
 708 0512 53010000 		.4byte	.LASF72
 709 0516 0C       		.byte	0xc
 710 0517 B2       		.byte	0xb2
 711 0518 3F       		.byte	0x3f
 712 0519 24000000 		.4byte	0x24
 713 051d 17       		.uleb128 0x17
 714 051e 7000     		.ascii	"p\000"
 715 0520 0C       		.byte	0xc
 716 0521 B3       		.byte	0xb3
 717 0522 09       		.byte	0x9
 718 0523 93020000 		.4byte	0x293
 719 0527 00       		.byte	0
 720 0528 15       		.uleb128 0x15
 721 0529 61040000 		.4byte	.LASF75
 722 052d 0C       		.byte	0xc
 723 052e 91       		.byte	0x91
 724 052f 07       		.byte	0x7
 725 0530 93020000 		.4byte	0x293
 726 0534 7C050000 		.4byte	0x57c
 727 0538 16       		.uleb128 0x16
 728 0539 68030000 		.4byte	.LASF70
 729 053d 0C       		.byte	0xc
 730 053e 91       		.byte	0x91
 731 053f 22       		.byte	0x22
 732 0540 24000000 		.4byte	0x24
 733 0544 16       		.uleb128 0x16
 734 0545 EC030000 		.4byte	.LASF71
 735 0549 0C       		.byte	0xc
 736 054a 91       		.byte	0x91
 737 054b 31       		.byte	0x31
 738 054c 30000000 		.4byte	0x30
 739 0550 16       		.uleb128 0x16
 740 0551 53010000 		.4byte	.LASF72
 741 0555 0C       		.byte	0xc
ARM GAS  /tmp/cc5zVToH.s 			page 14


 742 0556 91       		.byte	0x91
 743 0557 3F       		.byte	0x3f
 744 0558 24000000 		.4byte	0x24
 745 055c 17       		.uleb128 0x17
 746 055d 7000     		.ascii	"p\000"
 747 055f 0C       		.byte	0xc
 748 0560 92       		.byte	0x92
 749 0561 0C       		.byte	0xc
 750 0562 78040000 		.4byte	0x478
 751 0566 18       		.uleb128 0x18
 752 0567 D8010000 		.4byte	.LASF49
 753 056b 0C       		.byte	0xc
 754 056c 92       		.byte	0x92
 755 056d 10       		.byte	0x10
 756 056e 78040000 		.4byte	0x478
 757 0572 19       		.uleb128 0x19
 758 0573 C2010000 		.4byte	.LASF77
 759 0577 8C050000 		.4byte	0x58c
 760 057b 00       		.byte	0
 761 057c 1A       		.uleb128 0x1a
 762 057d 30040000 		.4byte	0x430
 763 0581 8C050000 		.4byte	0x58c
 764 0585 1B       		.uleb128 0x1b
 765 0586 30000000 		.4byte	0x30
 766 058a 13       		.byte	0x13
 767 058b 00       		.byte	0
 768 058c 10       		.uleb128 0x10
 769 058d 7C050000 		.4byte	0x57c
 770 0591 15       		.uleb128 0x15
 771 0592 5A010000 		.4byte	.LASF76
 772 0596 0C       		.byte	0xc
 773 0597 70       		.byte	0x70
 774 0598 07       		.byte	0x7
 775 0599 93020000 		.4byte	0x293
 776 059d E5050000 		.4byte	0x5e5
 777 05a1 16       		.uleb128 0x16
 778 05a2 68030000 		.4byte	.LASF70
 779 05a6 0C       		.byte	0xc
 780 05a7 70       		.byte	0x70
 781 05a8 23       		.byte	0x23
 782 05a9 24000000 		.4byte	0x24
 783 05ad 16       		.uleb128 0x16
 784 05ae EC030000 		.4byte	.LASF71
 785 05b2 0C       		.byte	0xc
 786 05b3 70       		.byte	0x70
 787 05b4 32       		.byte	0x32
 788 05b5 30000000 		.4byte	0x30
 789 05b9 16       		.uleb128 0x16
 790 05ba 53010000 		.4byte	.LASF72
 791 05be 0C       		.byte	0xc
 792 05bf 70       		.byte	0x70
 793 05c0 40       		.byte	0x40
 794 05c1 24000000 		.4byte	0x24
 795 05c5 17       		.uleb128 0x17
 796 05c6 7000     		.ascii	"p\000"
 797 05c8 0C       		.byte	0xc
 798 05c9 71       		.byte	0x71
ARM GAS  /tmp/cc5zVToH.s 			page 15


 799 05ca 0C       		.byte	0xc
 800 05cb 78040000 		.4byte	0x478
 801 05cf 18       		.uleb128 0x18
 802 05d0 87040000 		.4byte	.LASF46
 803 05d4 0C       		.byte	0xc
 804 05d5 71       		.byte	0x71
 805 05d6 10       		.byte	0x10
 806 05d7 78040000 		.4byte	0x478
 807 05db 19       		.uleb128 0x19
 808 05dc C2010000 		.4byte	.LASF77
 809 05e0 F5050000 		.4byte	0x5f5
 810 05e4 00       		.byte	0
 811 05e5 1A       		.uleb128 0x1a
 812 05e6 30040000 		.4byte	0x430
 813 05ea F5050000 		.4byte	0x5f5
 814 05ee 1B       		.uleb128 0x1b
 815 05ef 30000000 		.4byte	0x30
 816 05f3 14       		.byte	0x14
 817 05f4 00       		.byte	0
 818 05f5 10       		.uleb128 0x10
 819 05f6 E5050000 		.4byte	0x5e5
 820 05fa 1C       		.uleb128 0x1c
 821 05fb 56040000 		.4byte	.LASF89
 822 05ff 0C       		.byte	0xc
 823 0600 51       		.byte	0x51
 824 0601 06       		.byte	0x6
 825 0602 1F060000 		.4byte	0x61f
 826 0606 12       		.uleb128 0x12
 827 0607 B4010000 		.4byte	.LASF79
 828 060b 0C       		.byte	0xc
 829 060c 53       		.byte	0x53
 830 060d 12       		.byte	0x12
 831 060e 1F060000 		.4byte	0x61f
 832 0612 12       		.uleb128 0x12
 833 0613 DD000000 		.4byte	.LASF80
 834 0617 0C       		.byte	0xc
 835 0618 54       		.byte	0x54
 836 0619 12       		.byte	0x12
 837 061a 1F060000 		.4byte	0x61f
 838 061e 00       		.byte	0
 839 061f 1A       		.uleb128 0x1a
 840 0620 A6000000 		.4byte	0xa6
 841 0624 2A060000 		.4byte	0x62a
 842 0628 1D       		.uleb128 0x1d
 843 0629 00       		.byte	0
 844 062a 1E       		.uleb128 0x1e
 845 062b 95030000 		.4byte	.LASF90
 846 062f 0D       		.byte	0xd
 847 0630 6D01     		.2byte	0x16d
 848 0632 14       		.byte	0x14
 849 0633 41060000 		.4byte	0x641
 850 0637 19       		.uleb128 0x19
 851 0638 C2010000 		.4byte	.LASF77
 852 063c 51060000 		.4byte	0x651
 853 0640 00       		.byte	0
 854 0641 1A       		.uleb128 0x1a
 855 0642 30040000 		.4byte	0x430
ARM GAS  /tmp/cc5zVToH.s 			page 16


 856 0646 51060000 		.4byte	0x651
 857 064a 1B       		.uleb128 0x1b
 858 064b 30000000 		.4byte	0x30
 859 064f 0B       		.byte	0xb
 860 0650 00       		.byte	0
 861 0651 10       		.uleb128 0x10
 862 0652 41060000 		.4byte	0x641
 863 0656 1F       		.uleb128 0x1f
 864 0657 5B000000 		.4byte	.LASF81
 865 065b 0D       		.byte	0xd
 866 065c 6101     		.2byte	0x161
 867 065e 14       		.byte	0x14
 868 065f 1F       		.uleb128 0x1f
 869 0660 46030000 		.4byte	.LASF82
 870 0664 08       		.byte	0x8
 871 0665 B502     		.2byte	0x2b5
 872 0667 1B       		.byte	0x1b
 873 0668 1F       		.uleb128 0x1f
 874 0669 51000000 		.4byte	.LASF83
 875 066d 08       		.byte	0x8
 876 066e 9D02     		.2byte	0x29d
 877 0670 1B       		.byte	0x1b
 878 0671 20       		.uleb128 0x20
 879 0672 40040000 		.4byte	.LASF91
 880 0676 0E       		.byte	0xe
 881 0677 EB01     		.2byte	0x1eb
 882 0679 1B       		.byte	0x1b
 883 067a 21       		.uleb128 0x21
 884 067b 09030000 		.4byte	.LASF84
 885 067f 0E       		.byte	0xe
 886 0680 EB01     		.2byte	0x1eb
 887 0682 32       		.byte	0x32
 888 0683 BE000000 		.4byte	0xbe
 889 0687 00       		.byte	0
 890 0688 00       		.byte	0
 891              		.section	.gnu.debuglto_.debug_abbrev,"e",%progbits
 892              	.Ldebug_abbrev0:
 893 0000 01       		.uleb128 0x1
 894 0001 11       		.uleb128 0x11
 895 0002 01       		.byte	0x1
 896 0003 25       		.uleb128 0x25
 897 0004 0E       		.uleb128 0xe
 898 0005 13       		.uleb128 0x13
 899 0006 0B       		.uleb128 0xb
 900 0007 03       		.uleb128 0x3
 901 0008 0E       		.uleb128 0xe
 902 0009 1B       		.uleb128 0x1b
 903 000a 0E       		.uleb128 0xe
 904 000b 10       		.uleb128 0x10
 905 000c 17       		.uleb128 0x17
 906 000d 00       		.byte	0
 907 000e 00       		.byte	0
 908 000f 02       		.uleb128 0x2
 909 0010 24       		.uleb128 0x24
 910 0011 00       		.byte	0
 911 0012 0B       		.uleb128 0xb
 912 0013 0B       		.uleb128 0xb
ARM GAS  /tmp/cc5zVToH.s 			page 17


 913 0014 3E       		.uleb128 0x3e
 914 0015 0B       		.uleb128 0xb
 915 0016 03       		.uleb128 0x3
 916 0017 08       		.uleb128 0x8
 917 0018 00       		.byte	0
 918 0019 00       		.byte	0
 919 001a 03       		.uleb128 0x3
 920 001b 16       		.uleb128 0x16
 921 001c 00       		.byte	0
 922 001d 03       		.uleb128 0x3
 923 001e 0E       		.uleb128 0xe
 924 001f 3A       		.uleb128 0x3a
 925 0020 0B       		.uleb128 0xb
 926 0021 3B       		.uleb128 0x3b
 927 0022 0B       		.uleb128 0xb
 928 0023 39       		.uleb128 0x39
 929 0024 0B       		.uleb128 0xb
 930 0025 49       		.uleb128 0x49
 931 0026 13       		.uleb128 0x13
 932 0027 00       		.byte	0
 933 0028 00       		.byte	0
 934 0029 04       		.uleb128 0x4
 935 002a 24       		.uleb128 0x24
 936 002b 00       		.byte	0
 937 002c 0B       		.uleb128 0xb
 938 002d 0B       		.uleb128 0xb
 939 002e 3E       		.uleb128 0x3e
 940 002f 0B       		.uleb128 0xb
 941 0030 03       		.uleb128 0x3
 942 0031 0E       		.uleb128 0xe
 943 0032 00       		.byte	0
 944 0033 00       		.byte	0
 945 0034 05       		.uleb128 0x5
 946 0035 13       		.uleb128 0x13
 947 0036 01       		.byte	0x1
 948 0037 03       		.uleb128 0x3
 949 0038 0E       		.uleb128 0xe
 950 0039 0B       		.uleb128 0xb
 951 003a 0B       		.uleb128 0xb
 952 003b 3A       		.uleb128 0x3a
 953 003c 0B       		.uleb128 0xb
 954 003d 3B       		.uleb128 0x3b
 955 003e 0B       		.uleb128 0xb
 956 003f 39       		.uleb128 0x39
 957 0040 0B       		.uleb128 0xb
 958 0041 01       		.uleb128 0x1
 959 0042 13       		.uleb128 0x13
 960 0043 00       		.byte	0
 961 0044 00       		.byte	0
 962 0045 06       		.uleb128 0x6
 963 0046 0D       		.uleb128 0xd
 964 0047 00       		.byte	0
 965 0048 03       		.uleb128 0x3
 966 0049 0E       		.uleb128 0xe
 967 004a 3A       		.uleb128 0x3a
 968 004b 0B       		.uleb128 0xb
 969 004c 3B       		.uleb128 0x3b
ARM GAS  /tmp/cc5zVToH.s 			page 18


 970 004d 0B       		.uleb128 0xb
 971 004e 39       		.uleb128 0x39
 972 004f 0B       		.uleb128 0xb
 973 0050 49       		.uleb128 0x49
 974 0051 13       		.uleb128 0x13
 975 0052 38       		.uleb128 0x38
 976 0053 0B       		.uleb128 0xb
 977 0054 00       		.byte	0
 978 0055 00       		.byte	0
 979 0056 07       		.uleb128 0x7
 980 0057 0D       		.uleb128 0xd
 981 0058 00       		.byte	0
 982 0059 03       		.uleb128 0x3
 983 005a 08       		.uleb128 0x8
 984 005b 3A       		.uleb128 0x3a
 985 005c 0B       		.uleb128 0xb
 986 005d 3B       		.uleb128 0x3b
 987 005e 0B       		.uleb128 0xb
 988 005f 39       		.uleb128 0x39
 989 0060 0B       		.uleb128 0xb
 990 0061 49       		.uleb128 0x49
 991 0062 13       		.uleb128 0x13
 992 0063 38       		.uleb128 0x38
 993 0064 0B       		.uleb128 0xb
 994 0065 00       		.byte	0
 995 0066 00       		.byte	0
 996 0067 08       		.uleb128 0x8
 997 0068 0D       		.uleb128 0xd
 998 0069 00       		.byte	0
 999 006a 03       		.uleb128 0x3
 1000 006b 08       		.uleb128 0x8
 1001 006c 3A       		.uleb128 0x3a
 1002 006d 0B       		.uleb128 0xb
 1003 006e 3B       		.uleb128 0x3b
 1004 006f 05       		.uleb128 0x5
 1005 0070 39       		.uleb128 0x39
 1006 0071 0B       		.uleb128 0xb
 1007 0072 49       		.uleb128 0x49
 1008 0073 13       		.uleb128 0x13
 1009 0074 38       		.uleb128 0x38
 1010 0075 0B       		.uleb128 0xb
 1011 0076 00       		.byte	0
 1012 0077 00       		.byte	0
 1013 0078 09       		.uleb128 0x9
 1014 0079 0D       		.uleb128 0xd
 1015 007a 00       		.byte	0
 1016 007b 03       		.uleb128 0x3
 1017 007c 0E       		.uleb128 0xe
 1018 007d 3A       		.uleb128 0x3a
 1019 007e 0B       		.uleb128 0xb
 1020 007f 3B       		.uleb128 0x3b
 1021 0080 05       		.uleb128 0x5
 1022 0081 39       		.uleb128 0x39
 1023 0082 0B       		.uleb128 0xb
 1024 0083 49       		.uleb128 0x49
 1025 0084 13       		.uleb128 0x13
 1026 0085 38       		.uleb128 0x38
ARM GAS  /tmp/cc5zVToH.s 			page 19


 1027 0086 0B       		.uleb128 0xb
 1028 0087 00       		.byte	0
 1029 0088 00       		.byte	0
 1030 0089 0A       		.uleb128 0xa
 1031 008a 0F       		.uleb128 0xf
 1032 008b 00       		.byte	0
 1033 008c 0B       		.uleb128 0xb
 1034 008d 0B       		.uleb128 0xb
 1035 008e 49       		.uleb128 0x49
 1036 008f 13       		.uleb128 0x13
 1037 0090 00       		.byte	0
 1038 0091 00       		.byte	0
 1039 0092 0B       		.uleb128 0xb
 1040 0093 0F       		.uleb128 0xf
 1041 0094 00       		.byte	0
 1042 0095 0B       		.uleb128 0xb
 1043 0096 0B       		.uleb128 0xb
 1044 0097 00       		.byte	0
 1045 0098 00       		.byte	0
 1046 0099 0C       		.uleb128 0xc
 1047 009a 13       		.uleb128 0x13
 1048 009b 01       		.byte	0x1
 1049 009c 03       		.uleb128 0x3
 1050 009d 0E       		.uleb128 0xe
 1051 009e 0B       		.uleb128 0xb
 1052 009f 0B       		.uleb128 0xb
 1053 00a0 3A       		.uleb128 0x3a
 1054 00a1 0B       		.uleb128 0xb
 1055 00a2 3B       		.uleb128 0x3b
 1056 00a3 05       		.uleb128 0x5
 1057 00a4 39       		.uleb128 0x39
 1058 00a5 0B       		.uleb128 0xb
 1059 00a6 01       		.uleb128 0x1
 1060 00a7 13       		.uleb128 0x13
 1061 00a8 00       		.byte	0
 1062 00a9 00       		.byte	0
 1063 00aa 0D       		.uleb128 0xd
 1064 00ab 17       		.uleb128 0x17
 1065 00ac 01       		.byte	0x1
 1066 00ad 0B       		.uleb128 0xb
 1067 00ae 0B       		.uleb128 0xb
 1068 00af 3A       		.uleb128 0x3a
 1069 00b0 0B       		.uleb128 0xb
 1070 00b1 3B       		.uleb128 0x3b
 1071 00b2 0B       		.uleb128 0xb
 1072 00b3 39       		.uleb128 0x39
 1073 00b4 0B       		.uleb128 0xb
 1074 00b5 01       		.uleb128 0x1
 1075 00b6 13       		.uleb128 0x13
 1076 00b7 00       		.byte	0
 1077 00b8 00       		.byte	0
 1078 00b9 0E       		.uleb128 0xe
 1079 00ba 0D       		.uleb128 0xd
 1080 00bb 00       		.byte	0
 1081 00bc 03       		.uleb128 0x3
 1082 00bd 0E       		.uleb128 0xe
 1083 00be 3A       		.uleb128 0x3a
ARM GAS  /tmp/cc5zVToH.s 			page 20


 1084 00bf 0B       		.uleb128 0xb
 1085 00c0 3B       		.uleb128 0x3b
 1086 00c1 0B       		.uleb128 0xb
 1087 00c2 39       		.uleb128 0x39
 1088 00c3 0B       		.uleb128 0xb
 1089 00c4 49       		.uleb128 0x49
 1090 00c5 13       		.uleb128 0x13
 1091 00c6 00       		.byte	0
 1092 00c7 00       		.byte	0
 1093 00c8 0F       		.uleb128 0xf
 1094 00c9 0D       		.uleb128 0xd
 1095 00ca 00       		.byte	0
 1096 00cb 03       		.uleb128 0x3
 1097 00cc 0E       		.uleb128 0xe
 1098 00cd 3A       		.uleb128 0x3a
 1099 00ce 0B       		.uleb128 0xb
 1100 00cf 3B       		.uleb128 0x3b
 1101 00d0 05       		.uleb128 0x5
 1102 00d1 39       		.uleb128 0x39
 1103 00d2 0B       		.uleb128 0xb
 1104 00d3 49       		.uleb128 0x49
 1105 00d4 13       		.uleb128 0x13
 1106 00d5 00       		.byte	0
 1107 00d6 00       		.byte	0
 1108 00d7 10       		.uleb128 0x10
 1109 00d8 26       		.uleb128 0x26
 1110 00d9 00       		.byte	0
 1111 00da 49       		.uleb128 0x49
 1112 00db 13       		.uleb128 0x13
 1113 00dc 00       		.byte	0
 1114 00dd 00       		.byte	0
 1115 00de 11       		.uleb128 0x11
 1116 00df 13       		.uleb128 0x13
 1117 00e0 01       		.byte	0x1
 1118 00e1 0B       		.uleb128 0xb
 1119 00e2 0B       		.uleb128 0xb
 1120 00e3 3A       		.uleb128 0x3a
 1121 00e4 0B       		.uleb128 0xb
 1122 00e5 3B       		.uleb128 0x3b
 1123 00e6 0B       		.uleb128 0xb
 1124 00e7 39       		.uleb128 0x39
 1125 00e8 0B       		.uleb128 0xb
 1126 00e9 01       		.uleb128 0x1
 1127 00ea 13       		.uleb128 0x13
 1128 00eb 00       		.byte	0
 1129 00ec 00       		.byte	0
 1130 00ed 12       		.uleb128 0x12
 1131 00ee 34       		.uleb128 0x34
 1132 00ef 00       		.byte	0
 1133 00f0 03       		.uleb128 0x3
 1134 00f1 0E       		.uleb128 0xe
 1135 00f2 3A       		.uleb128 0x3a
 1136 00f3 0B       		.uleb128 0xb
 1137 00f4 3B       		.uleb128 0x3b
 1138 00f5 0B       		.uleb128 0xb
 1139 00f6 39       		.uleb128 0x39
 1140 00f7 0B       		.uleb128 0xb
ARM GAS  /tmp/cc5zVToH.s 			page 21


 1141 00f8 49       		.uleb128 0x49
 1142 00f9 13       		.uleb128 0x13
 1143 00fa 3F       		.uleb128 0x3f
 1144 00fb 19       		.uleb128 0x19
 1145 00fc 3C       		.uleb128 0x3c
 1146 00fd 19       		.uleb128 0x19
 1147 00fe 00       		.byte	0
 1148 00ff 00       		.byte	0
 1149 0100 13       		.uleb128 0x13
 1150 0101 34       		.uleb128 0x34
 1151 0102 00       		.byte	0
 1152 0103 47       		.uleb128 0x47
 1153 0104 13       		.uleb128 0x13
 1154 0105 3A       		.uleb128 0x3a
 1155 0106 0B       		.uleb128 0xb
 1156 0107 3B       		.uleb128 0x3b
 1157 0108 0B       		.uleb128 0xb
 1158 0109 39       		.uleb128 0x39
 1159 010a 0B       		.uleb128 0xb
 1160 010b 00       		.byte	0
 1161 010c 00       		.byte	0
 1162 010d 14       		.uleb128 0x14
 1163 010e 2E       		.uleb128 0x2e
 1164 010f 00       		.byte	0
 1165 0110 3F       		.uleb128 0x3f
 1166 0111 19       		.uleb128 0x19
 1167 0112 03       		.uleb128 0x3
 1168 0113 0E       		.uleb128 0xe
 1169 0114 3A       		.uleb128 0x3a
 1170 0115 0B       		.uleb128 0xb
 1171 0116 3B       		.uleb128 0x3b
 1172 0117 0B       		.uleb128 0xb
 1173 0118 39       		.uleb128 0x39
 1174 0119 0B       		.uleb128 0xb
 1175 011a 27       		.uleb128 0x27
 1176 011b 19       		.uleb128 0x19
 1177 011c 49       		.uleb128 0x49
 1178 011d 13       		.uleb128 0x13
 1179 011e 00       		.byte	0
 1180 011f 00       		.byte	0
 1181 0120 15       		.uleb128 0x15
 1182 0121 2E       		.uleb128 0x2e
 1183 0122 01       		.byte	0x1
 1184 0123 3F       		.uleb128 0x3f
 1185 0124 19       		.uleb128 0x19
 1186 0125 03       		.uleb128 0x3
 1187 0126 0E       		.uleb128 0xe
 1188 0127 3A       		.uleb128 0x3a
 1189 0128 0B       		.uleb128 0xb
 1190 0129 3B       		.uleb128 0x3b
 1191 012a 0B       		.uleb128 0xb
 1192 012b 39       		.uleb128 0x39
 1193 012c 0B       		.uleb128 0xb
 1194 012d 27       		.uleb128 0x27
 1195 012e 19       		.uleb128 0x19
 1196 012f 49       		.uleb128 0x49
 1197 0130 13       		.uleb128 0x13
ARM GAS  /tmp/cc5zVToH.s 			page 22


 1198 0131 01       		.uleb128 0x1
 1199 0132 13       		.uleb128 0x13
 1200 0133 00       		.byte	0
 1201 0134 00       		.byte	0
 1202 0135 16       		.uleb128 0x16
 1203 0136 05       		.uleb128 0x5
 1204 0137 00       		.byte	0
 1205 0138 03       		.uleb128 0x3
 1206 0139 0E       		.uleb128 0xe
 1207 013a 3A       		.uleb128 0x3a
 1208 013b 0B       		.uleb128 0xb
 1209 013c 3B       		.uleb128 0x3b
 1210 013d 0B       		.uleb128 0xb
 1211 013e 39       		.uleb128 0x39
 1212 013f 0B       		.uleb128 0xb
 1213 0140 49       		.uleb128 0x49
 1214 0141 13       		.uleb128 0x13
 1215 0142 00       		.byte	0
 1216 0143 00       		.byte	0
 1217 0144 17       		.uleb128 0x17
 1218 0145 34       		.uleb128 0x34
 1219 0146 00       		.byte	0
 1220 0147 03       		.uleb128 0x3
 1221 0148 08       		.uleb128 0x8
 1222 0149 3A       		.uleb128 0x3a
 1223 014a 0B       		.uleb128 0xb
 1224 014b 3B       		.uleb128 0x3b
 1225 014c 0B       		.uleb128 0xb
 1226 014d 39       		.uleb128 0x39
 1227 014e 0B       		.uleb128 0xb
 1228 014f 49       		.uleb128 0x49
 1229 0150 13       		.uleb128 0x13
 1230 0151 00       		.byte	0
 1231 0152 00       		.byte	0
 1232 0153 18       		.uleb128 0x18
 1233 0154 34       		.uleb128 0x34
 1234 0155 00       		.byte	0
 1235 0156 03       		.uleb128 0x3
 1236 0157 0E       		.uleb128 0xe
 1237 0158 3A       		.uleb128 0x3a
 1238 0159 0B       		.uleb128 0xb
 1239 015a 3B       		.uleb128 0x3b
 1240 015b 0B       		.uleb128 0xb
 1241 015c 39       		.uleb128 0x39
 1242 015d 0B       		.uleb128 0xb
 1243 015e 49       		.uleb128 0x49
 1244 015f 13       		.uleb128 0x13
 1245 0160 00       		.byte	0
 1246 0161 00       		.byte	0
 1247 0162 19       		.uleb128 0x19
 1248 0163 34       		.uleb128 0x34
 1249 0164 00       		.byte	0
 1250 0165 03       		.uleb128 0x3
 1251 0166 0E       		.uleb128 0xe
 1252 0167 49       		.uleb128 0x49
 1253 0168 13       		.uleb128 0x13
 1254 0169 34       		.uleb128 0x34
ARM GAS  /tmp/cc5zVToH.s 			page 23


 1255 016a 19       		.uleb128 0x19
 1256 016b 00       		.byte	0
 1257 016c 00       		.byte	0
 1258 016d 1A       		.uleb128 0x1a
 1259 016e 01       		.uleb128 0x1
 1260 016f 01       		.byte	0x1
 1261 0170 49       		.uleb128 0x49
 1262 0171 13       		.uleb128 0x13
 1263 0172 01       		.uleb128 0x1
 1264 0173 13       		.uleb128 0x13
 1265 0174 00       		.byte	0
 1266 0175 00       		.byte	0
 1267 0176 1B       		.uleb128 0x1b
 1268 0177 21       		.uleb128 0x21
 1269 0178 00       		.byte	0
 1270 0179 49       		.uleb128 0x49
 1271 017a 13       		.uleb128 0x13
 1272 017b 2F       		.uleb128 0x2f
 1273 017c 0B       		.uleb128 0xb
 1274 017d 00       		.byte	0
 1275 017e 00       		.byte	0
 1276 017f 1C       		.uleb128 0x1c
 1277 0180 2E       		.uleb128 0x2e
 1278 0181 01       		.byte	0x1
 1279 0182 3F       		.uleb128 0x3f
 1280 0183 19       		.uleb128 0x19
 1281 0184 03       		.uleb128 0x3
 1282 0185 0E       		.uleb128 0xe
 1283 0186 3A       		.uleb128 0x3a
 1284 0187 0B       		.uleb128 0xb
 1285 0188 3B       		.uleb128 0x3b
 1286 0189 0B       		.uleb128 0xb
 1287 018a 39       		.uleb128 0x39
 1288 018b 0B       		.uleb128 0xb
 1289 018c 27       		.uleb128 0x27
 1290 018d 19       		.uleb128 0x19
 1291 018e 01       		.uleb128 0x1
 1292 018f 13       		.uleb128 0x13
 1293 0190 00       		.byte	0
 1294 0191 00       		.byte	0
 1295 0192 1D       		.uleb128 0x1d
 1296 0193 21       		.uleb128 0x21
 1297 0194 00       		.byte	0
 1298 0195 00       		.byte	0
 1299 0196 00       		.byte	0
 1300 0197 1E       		.uleb128 0x1e
 1301 0198 2E       		.uleb128 0x2e
 1302 0199 01       		.byte	0x1
 1303 019a 03       		.uleb128 0x3
 1304 019b 0E       		.uleb128 0xe
 1305 019c 3A       		.uleb128 0x3a
 1306 019d 0B       		.uleb128 0xb
 1307 019e 3B       		.uleb128 0x3b
 1308 019f 05       		.uleb128 0x5
 1309 01a0 39       		.uleb128 0x39
 1310 01a1 0B       		.uleb128 0xb
 1311 01a2 27       		.uleb128 0x27
ARM GAS  /tmp/cc5zVToH.s 			page 24


 1312 01a3 19       		.uleb128 0x19
 1313 01a4 01       		.uleb128 0x1
 1314 01a5 13       		.uleb128 0x13
 1315 01a6 00       		.byte	0
 1316 01a7 00       		.byte	0
 1317 01a8 1F       		.uleb128 0x1f
 1318 01a9 2E       		.uleb128 0x2e
 1319 01aa 00       		.byte	0
 1320 01ab 03       		.uleb128 0x3
 1321 01ac 0E       		.uleb128 0xe
 1322 01ad 3A       		.uleb128 0x3a
 1323 01ae 0B       		.uleb128 0xb
 1324 01af 3B       		.uleb128 0x3b
 1325 01b0 05       		.uleb128 0x5
 1326 01b1 39       		.uleb128 0x39
 1327 01b2 0B       		.uleb128 0xb
 1328 01b3 27       		.uleb128 0x27
 1329 01b4 19       		.uleb128 0x19
 1330 01b5 00       		.byte	0
 1331 01b6 00       		.byte	0
 1332 01b7 20       		.uleb128 0x20
 1333 01b8 2E       		.uleb128 0x2e
 1334 01b9 01       		.byte	0x1
 1335 01ba 03       		.uleb128 0x3
 1336 01bb 0E       		.uleb128 0xe
 1337 01bc 3A       		.uleb128 0x3a
 1338 01bd 0B       		.uleb128 0xb
 1339 01be 3B       		.uleb128 0x3b
 1340 01bf 05       		.uleb128 0x5
 1341 01c0 39       		.uleb128 0x39
 1342 01c1 0B       		.uleb128 0xb
 1343 01c2 27       		.uleb128 0x27
 1344 01c3 19       		.uleb128 0x19
 1345 01c4 00       		.byte	0
 1346 01c5 00       		.byte	0
 1347 01c6 21       		.uleb128 0x21
 1348 01c7 05       		.uleb128 0x5
 1349 01c8 00       		.byte	0
 1350 01c9 03       		.uleb128 0x3
 1351 01ca 0E       		.uleb128 0xe
 1352 01cb 3A       		.uleb128 0x3a
 1353 01cc 0B       		.uleb128 0xb
 1354 01cd 3B       		.uleb128 0x3b
 1355 01ce 05       		.uleb128 0x5
 1356 01cf 39       		.uleb128 0x39
 1357 01d0 0B       		.uleb128 0xb
 1358 01d1 49       		.uleb128 0x49
 1359 01d2 13       		.uleb128 0x13
 1360 01d3 00       		.byte	0
 1361 01d4 00       		.byte	0
 1362 01d5 00       		.byte	0
 1363              		.section	.gnu.debuglto_.debug_line,"e",%progbits
 1364              	.Ldebug_line0:
 1365 0000 A8020000 		.4byte	.LELT0-.LSLT0
 1366              	.LSLT0:
 1367 0004 0400     		.2byte	0x4
 1368 0006 A2020000 		.4byte	.LELTP0-.LASLTP0
ARM GAS  /tmp/cc5zVToH.s 			page 25


 1369              	.LASLTP0:
 1370 000a 01       		.byte	0x1
 1371 000b 01       		.byte	0x1
 1372 000c 01       		.byte	0x1
 1373 000d F6       		.byte	0xf6
 1374 000e F2       		.byte	0xf2
 1375 000f 0D       		.byte	0xd
 1376 0010 00       		.byte	0
 1377 0011 01       		.byte	0x1
 1378 0012 01       		.byte	0x1
 1379 0013 01       		.byte	0x1
 1380 0014 01       		.byte	0x1
 1381 0015 00       		.byte	0
 1382 0016 00       		.byte	0
 1383 0017 00       		.byte	0
 1384 0018 01       		.byte	0x1
 1385 0019 00       		.byte	0
 1386 001a 00       		.byte	0
 1387 001b 01       		.byte	0x1
 1388 001c 43686962 		.ascii	"ChibiOS_20.3.0/os/common/ext/ARM/CMSIS/Core/Include"
 1388      694F535F 
 1388      32302E33 
 1388      2E302F6F 
 1388      732F636F 
 1389 004f 00       		.byte	0
 1390 0050 43686962 		.ascii	"ChibiOS_20.3.0/os/common/ports/ARMCMx/compilers/GCC"
 1390      694F535F 
 1390      32302E33 
 1390      2E302F6F 
 1390      732F636F 
 1391 0083 00       		.byte	0
 1392 0084 43686962 		.ascii	"ChibiOS_20.3.0/os/common/ports/ARMCMx"
 1392      694F535F 
 1392      32302E33 
 1392      2E302F6F 
 1392      732F636F 
 1393 00a9 00       		.byte	0
 1394 00aa 43686962 		.ascii	"ChibiOS_20.3.0/os/oslib/include"
 1394      694F535F 
 1394      32302E33 
 1394      2E302F6F 
 1394      732F6F73 
 1395 00c9 00       		.byte	0
 1396 00ca 43686962 		.ascii	"ChibiOS_20.3.0/os/oslib/src"
 1396      694F535F 
 1396      32302E33 
 1396      2E302F6F 
 1396      732F6F73 
 1397 00e5 00       		.byte	0
 1398 00e6 43686962 		.ascii	"ChibiOS_20.3.0/os/rt/include"
 1398      694F535F 
 1398      32302E33 
 1398      2E302F6F 
 1398      732F7274 
 1399 0102 00       		.byte	0
 1400 0103 2F757372 		.ascii	"/usr/share/gcc-arm-none-eabi-10-2020-q4-major/arm-n"
 1400      2F736861 
ARM GAS  /tmp/cc5zVToH.s 			page 26


 1400      72652F67 
 1400      63632D61 
 1400      726D2D6E 
 1401 0136 6F6E652D 		.ascii	"one-eabi/include/machine"
 1401      65616269 
 1401      2F696E63 
 1401      6C756465 
 1401      2F6D6163 
 1402 014e 00       		.byte	0
 1403 014f 2F757372 		.ascii	"/usr/share/gcc-arm-none-eabi-10-2020-q4-major/arm-n"
 1403      2F736861 
 1403      72652F67 
 1403      63632D61 
 1403      726D2D6E 
 1404 0182 6F6E652D 		.ascii	"one-eabi/include/sys"
 1404      65616269 
 1404      2F696E63 
 1404      6C756465 
 1404      2F737973 
 1405 0196 00       		.byte	0
 1406 0197 2F757372 		.ascii	"/usr/share/gcc-arm-none-eabi-10-2020-q4-major/lib/g"
 1406      2F736861 
 1406      72652F67 
 1406      63632D61 
 1406      726D2D6E 
 1407 01ca 63632F61 		.ascii	"cc/arm-none-eabi/10.2.1/include"
 1407      726D2D6E 
 1407      6F6E652D 
 1407      65616269 
 1407      2F31302E 
 1408 01e9 00       		.byte	0
 1409 01ea 00       		.byte	0
 1410 01eb 73746464 		.ascii	"stddef.h\000"
 1410      65662E68 
 1410      00
 1411 01f4 09       		.uleb128 0x9
 1412 01f5 00       		.uleb128 0
 1413 01f6 00       		.uleb128 0
 1414 01f7 5F646566 		.ascii	"_default_types.h\000"
 1414      61756C74 
 1414      5F747970 
 1414      65732E68 
 1414      00
 1415 0208 07       		.uleb128 0x7
 1416 0209 00       		.uleb128 0
 1417 020a 00       		.uleb128 0
 1418 020b 5F737464 		.ascii	"_stdint.h\000"
 1418      696E742E 
 1418      6800
 1419 0215 08       		.uleb128 0x8
 1420 0216 00       		.uleb128 0
 1421 0217 00       		.uleb128 0
 1422 0218 63687479 		.ascii	"chtypes.h\000"
 1422      7065732E 
 1422      6800
 1423 0222 02       		.uleb128 0x2
 1424 0223 00       		.uleb128 0
ARM GAS  /tmp/cc5zVToH.s 			page 27


 1425 0224 00       		.uleb128 0
 1426 0225 63687379 		.ascii	"chsystypes.h\000"
 1426      73747970 
 1426      65732E68 
 1426      00
 1427 0232 06       		.uleb128 0x6
 1428 0233 00       		.uleb128 0
 1429 0234 00       		.uleb128 0
 1430 0235 63687363 		.ascii	"chschd.h\000"
 1430      68642E68 
 1430      00
 1431 023e 06       		.uleb128 0x6
 1432 023f 00       		.uleb128 0
 1433 0240 00       		.uleb128 0
 1434 0241 6368636F 		.ascii	"chcore.h\000"
 1434      72652E68 
 1434      00
 1435 024a 03       		.uleb128 0x3
 1436 024b 00       		.uleb128 0
 1437 024c 00       		.uleb128 0
 1438 024d 6368636F 		.ascii	"chcore_v7m.h\000"
 1438      72655F76 
 1438      376D2E68 
 1438      00
 1439 025a 03       		.uleb128 0x3
 1440 025b 00       		.uleb128 0
 1441 025c 00       		.uleb128 0
 1442 025d 63687365 		.ascii	"chsem.h\000"
 1442      6D2E6800 
 1443 0265 06       		.uleb128 0x6
 1444 0266 00       		.uleb128 0
 1445 0267 00       		.uleb128 0
 1446 0268 63686D74 		.ascii	"chmtx.h\000"
 1446      782E6800 
 1447 0270 06       		.uleb128 0x6
 1448 0271 00       		.uleb128 0
 1449 0272 00       		.uleb128 0
 1450 0273 63686D65 		.ascii	"chmemcore.h\000"
 1450      6D636F72 
 1450      652E6800 
 1451 027f 04       		.uleb128 0x4
 1452 0280 00       		.uleb128 0
 1453 0281 00       		.uleb128 0
 1454 0282 63686D65 		.ascii	"chmemcore.c\000"
 1454      6D636F72 
 1454      652E6300 
 1455 028e 05       		.uleb128 0x5
 1456 028f 00       		.uleb128 0
 1457 0290 00       		.uleb128 0
 1458 0291 63687379 		.ascii	"chsys.h\000"
 1458      732E6800 
 1459 0299 06       		.uleb128 0x6
 1460 029a 00       		.uleb128 0
 1461 029b 00       		.uleb128 0
 1462 029c 636D7369 		.ascii	"cmsis_gcc.h\000"
 1462      735F6763 
 1462      632E6800 
ARM GAS  /tmp/cc5zVToH.s 			page 28


 1463 02a8 01       		.uleb128 0x1
 1464 02a9 00       		.uleb128 0
 1465 02aa 00       		.uleb128 0
 1466 02ab 00       		.byte	0
 1467              	.LELTP0:
 1468              	.LELT0:
 1469              		.section	.gnu.debuglto_.debug_str,"eMS",%progbits,1
 1470              	.LASF26:
 1471 0000 74687265 		.ascii	"thread_t\000"
 1471      61645F74 
 1471      00
 1472              	.LASF21:
 1473 0009 74726566 		.ascii	"trefs_t\000"
 1473      735F7400 
 1474              	.LASF38:
 1475 0011 6570656E 		.ascii	"epending\000"
 1475      64696E67 
 1475      00
 1476              	.LASF33:
 1477 001a 73746174 		.ascii	"state\000"
 1477      6500
 1478              	.LASF18:
 1479 0020 75696E74 		.ascii	"uint64_t\000"
 1479      36345F74 
 1479      00
 1480              	.LASF7:
 1481 0029 73686F72 		.ascii	"short int\000"
 1481      7420696E 
 1481      7400
 1482              	.LASF4:
 1483 0033 73697A65 		.ascii	"size_t\000"
 1483      5F7400
 1484              	.LASF14:
 1485 003a 6C6F6E67 		.ascii	"long long unsigned int\000"
 1485      206C6F6E 
 1485      6720756E 
 1485      7369676E 
 1485      65642069 
 1486              	.LASF83:
 1487 0051 706F7274 		.ascii	"port_lock\000"
 1487      5F6C6F63 
 1487      6B00
 1488              	.LASF81:
 1489 005b 63685379 		.ascii	"chSysLock\000"
 1489      734C6F63 
 1489      6B00
 1490              	.LASF24:
 1491 0065 6576656E 		.ascii	"eventmask_t\000"
 1491      746D6173 
 1491      6B5F7400 
 1492              	.LASF19:
 1493 0071 746D6F64 		.ascii	"tmode_t\000"
 1493      655F7400 
 1494              	.LASF45:
 1495 0079 63685F74 		.ascii	"ch_threads_list\000"
 1495      68726561 
 1495      64735F6C 
ARM GAS  /tmp/cc5zVToH.s 			page 29


 1495      69737400 
 1496              	.LASF37:
 1497 0089 6D736771 		.ascii	"msgqueue\000"
 1497      75657565 
 1497      00
 1498              	.LASF15:
 1499 0092 75696E74 		.ascii	"uint8_t\000"
 1499      385F7400 
 1500              	.LASF39:
 1501 009a 6D74786C 		.ascii	"mtxlist\000"
 1501      69737400 
 1502              	.LASF88:
 1503 00a2 6368436F 		.ascii	"chCoreGetStatusX\000"
 1503      72654765 
 1503      74537461 
 1503      74757358 
 1503      00
 1504              	.LASF17:
 1505 00b3 75696E74 		.ascii	"uint32_t\000"
 1505      33325F74 
 1505      00
 1506              	.LASF44:
 1507 00bc 63685F74 		.ascii	"ch_thread\000"
 1507      68726561 
 1507      6400
 1508              	.LASF30:
 1509 00c6 6F6C6465 		.ascii	"older\000"
 1509      7200
 1510              	.LASF32:
 1511 00cc 77616261 		.ascii	"wabase\000"
 1511      736500
 1512              	.LASF69:
 1513 00d3 6D656D63 		.ascii	"memcore_t\000"
 1513      6F72655F 
 1513      7400
 1514              	.LASF80:
 1515 00dd 5F5F6865 		.ascii	"__heap_end__\000"
 1515      61705F65 
 1515      6E645F5F 
 1515      00
 1516              	.LASF2:
 1517 00ea 6C6F6E67 		.ascii	"long double\000"
 1517      20646F75 
 1517      626C6500 
 1518              	.LASF1:
 1519 00f6 6C6F6E67 		.ascii	"long long int\000"
 1519      206C6F6E 
 1519      6720696E 
 1519      7400
 1520              	.LASF58:
 1521 0104 77747365 		.ascii	"wtsemp\000"
 1521      6D7000
 1522              	.LASF22:
 1523 010b 74707269 		.ascii	"tprio_t\000"
 1523      6F5F7400 
 1524              	.LASF9:
 1525 0113 5F5F696E 		.ascii	"__int32_t\000"
ARM GAS  /tmp/cc5zVToH.s 			page 30


 1525      7433325F 
 1525      7400
 1526              	.LASF87:
 1527 011d 2F686F6D 		.ascii	"/home/iamprithvishetty/CDSpace/mmc3416_test2\000"
 1527      652F6961 
 1527      6D707269 
 1527      74687669 
 1527      73686574 
 1528              	.LASF10:
 1529 014a 6C6F6E67 		.ascii	"long int\000"
 1529      20696E74 
 1529      00
 1530              	.LASF72:
 1531 0153 6F666673 		.ascii	"offset\000"
 1531      657400
 1532              	.LASF76:
 1533 015a 6368436F 		.ascii	"chCoreAllocFromBaseI\000"
 1533      7265416C 
 1533      6C6F6346 
 1533      726F6D42 
 1533      61736549 
 1534              	.LASF5:
 1535 016f 5F5F7569 		.ascii	"__uint8_t\000"
 1535      6E74385F 
 1535      7400
 1536              	.LASF57:
 1537 0179 73656E74 		.ascii	"sentmsg\000"
 1537      6D736700 
 1538              	.LASF74:
 1539 0181 6368436F 		.ascii	"chCoreAllocFromBase\000"
 1539      7265416C 
 1539      6C6F6346 
 1539      726F6D42 
 1539      61736500 
 1540              	.LASF29:
 1541 0195 6E657765 		.ascii	"newer\000"
 1541      7200
 1542              	.LASF27:
 1543 019b 71756575 		.ascii	"queue\000"
 1543      6500
 1544              	.LASF31:
 1545 01a1 6E616D65 		.ascii	"name\000"
 1545      00
 1546              	.LASF6:
 1547 01a6 756E7369 		.ascii	"unsigned char\000"
 1547      676E6564 
 1547      20636861 
 1547      7200
 1548              	.LASF79:
 1549 01b4 5F5F6865 		.ascii	"__heap_base__\000"
 1549      61705F62 
 1549      6173655F 
 1549      5F00
 1550              	.LASF77:
 1551 01c2 5F5F6675 		.ascii	"__func__\000"
 1551      6E635F5F 
 1551      00
ARM GAS  /tmp/cc5zVToH.s 			page 31


 1552              	.LASF63:
 1553 01cb 6F776E65 		.ascii	"owner\000"
 1553      7200
 1554              	.LASF60:
 1555 01d1 65776D61 		.ascii	"ewmask\000"
 1555      736B00
 1556              	.LASF49:
 1557 01d8 70726576 		.ascii	"prev\000"
 1557      00
 1558              	.LASF73:
 1559 01dd 6368436F 		.ascii	"chCoreAllocFromTop\000"
 1559      7265416C 
 1559      6C6F6346 
 1559      726F6D54 
 1559      6F7000
 1560              	.LASF3:
 1561 01f0 7369676E 		.ascii	"signed char\000"
 1561      65642063 
 1561      68617200 
 1562              	.LASF34:
 1563 01fc 666C6167 		.ascii	"flags\000"
 1563      7300
 1564              	.LASF62:
 1565 0202 63685F6D 		.ascii	"ch_mutex\000"
 1565      75746578 
 1565      00
 1566              	.LASF0:
 1567 020b 756E7369 		.ascii	"unsigned int\000"
 1567      676E6564 
 1567      20696E74 
 1567      00
 1568              	.LASF85:
 1569 0218 474E5520 		.ascii	"GNU C17 10.2.1 20201103 (release) -mcpu=cortex-m4 -"
 1569      43313720 
 1569      31302E32 
 1569      2E312032 
 1569      30323031 
 1570 024b 6D746875 		.ascii	"mthumb -mfloat-abi=soft -march=armv7e-m -ggdb -O2 -"
 1570      6D62202D 
 1570      6D666C6F 
 1570      61742D61 
 1570      62693D73 
 1571 027e 666F6D69 		.ascii	"fomit-frame-pointer -falign-functions=16 -ffunction"
 1571      742D6672 
 1571      616D652D 
 1571      706F696E 
 1571      74657220 
 1572 02b1 2D736563 		.ascii	"-sections -fdata-sections -fno-common -flto\000"
 1572      74696F6E 
 1572      73202D66 
 1572      64617461 
 1572      2D736563 
 1573              	.LASF40:
 1574 02dd 7265616C 		.ascii	"realprio\000"
 1574      7072696F 
 1574      00
 1575              	.LASF47:
ARM GAS  /tmp/cc5zVToH.s 			page 32


 1576 02e6 74687265 		.ascii	"threads_queue_t\000"
 1576      6164735F 
 1576      71756575 
 1576      655F7400 
 1577              	.LASF8:
 1578 02f6 73686F72 		.ascii	"short unsigned int\000"
 1578      7420756E 
 1578      7369676E 
 1578      65642069 
 1578      6E7400
 1579              	.LASF84:
 1580 0309 62617365 		.ascii	"basePri\000"
 1580      50726900 
 1581              	.LASF64:
 1582 0311 63686172 		.ascii	"char\000"
 1582      00
 1583              	.LASF65:
 1584 0316 6D757465 		.ascii	"mutex_t\000"
 1584      785F7400 
 1585              	.LASF16:
 1586 031e 696E7433 		.ascii	"int32_t\000"
 1586      325F7400 
 1587              	.LASF25:
 1588 0326 636E745F 		.ascii	"cnt_t\000"
 1588      7400
 1589              	.LASF68:
 1590 032c 746F706D 		.ascii	"topmem\000"
 1590      656D00
 1591              	.LASF52:
 1592 0333 706F7274 		.ascii	"port_context\000"
 1592      5F636F6E 
 1592      74657874 
 1592      00
 1593              	.LASF66:
 1594 0340 5F426F6F 		.ascii	"_Bool\000"
 1594      6C00
 1595              	.LASF82:
 1596 0346 706F7274 		.ascii	"port_unlock\000"
 1596      5F756E6C 
 1596      6F636B00 
 1597              	.LASF78:
 1598 0352 63685F6D 		.ascii	"ch_memcore\000"
 1598      656D636F 
 1598      726500
 1599              	.LASF13:
 1600 035d 5F5F7569 		.ascii	"__uint64_t\000"
 1600      6E743634 
 1600      5F7400
 1601              	.LASF70:
 1602 0368 73697A65 		.ascii	"size\000"
 1602      00
 1603              	.LASF35:
 1604 036d 72656673 		.ascii	"refs\000"
 1604      00
 1605              	.LASF12:
 1606 0372 6C6F6E67 		.ascii	"long unsigned int\000"
 1606      20756E73 
ARM GAS  /tmp/cc5zVToH.s 			page 33


 1606      69676E65 
 1606      6420696E 
 1606      7400
 1607              	.LASF11:
 1608 0384 5F5F7569 		.ascii	"__uint32_t\000"
 1608      6E743332 
 1608      5F7400
 1609              	.LASF56:
 1610 038f 77747472 		.ascii	"wttrp\000"
 1610      7000
 1611              	.LASF90:
 1612 0395 63685379 		.ascii	"chSysUnlock\000"
 1612      73556E6C 
 1612      6F636B00 
 1613              	.LASF67:
 1614 03a1 62617365 		.ascii	"basemem\000"
 1614      6D656D00 
 1615              	.LASF61:
 1616 03a9 63685F73 		.ascii	"ch_semaphore\000"
 1616      656D6170 
 1616      686F7265 
 1616      00
 1617              	.LASF51:
 1618 03b6 706F7274 		.ascii	"port_intctx\000"
 1618      5F696E74 
 1618      63747800 
 1619              	.LASF86:
 1620 03c2 2E2F4368 		.ascii	"./ChibiOS_20.3.0/os/oslib/src/chmemcore.c\000"
 1620      6962694F 
 1620      535F3230 
 1620      2E332E30 
 1620      2F6F732F 
 1621              	.LASF71:
 1622 03ec 616C6967 		.ascii	"align\000"
 1622      6E00
 1623              	.LASF42:
 1624 03f2 74687265 		.ascii	"thread_reference_t\000"
 1624      61645F72 
 1624      65666572 
 1624      656E6365 
 1624      5F7400
 1625              	.LASF55:
 1626 0405 77746F62 		.ascii	"wtobjp\000"
 1626      6A7000
 1627              	.LASF20:
 1628 040c 74737461 		.ascii	"tstate_t\000"
 1628      74655F74 
 1628      00
 1629              	.LASF50:
 1630 0415 73746B61 		.ascii	"stkalign_t\000"
 1630      6C69676E 
 1630      5F7400
 1631              	.LASF54:
 1632 0420 65786974 		.ascii	"exitcode\000"
 1632      636F6465 
 1632      00
 1633              	.LASF41:
ARM GAS  /tmp/cc5zVToH.s 			page 34


 1634 0429 6D706F6F 		.ascii	"mpool\000"
 1634      6C00
 1635              	.LASF48:
 1636 042f 63685F74 		.ascii	"ch_threads_queue\000"
 1636      68726561 
 1636      64735F71 
 1636      75657565 
 1636      00
 1637              	.LASF91:
 1638 0440 5F5F7365 		.ascii	"__set_BASEPRI\000"
 1638      745F4241 
 1638      53455052 
 1638      4900
 1639              	.LASF36:
 1640 044e 77616974 		.ascii	"waiting\000"
 1640      696E6700 
 1641              	.LASF89:
 1642 0456 5F636F72 		.ascii	"_core_init\000"
 1642      655F696E 
 1642      697400
 1643              	.LASF75:
 1644 0461 6368436F 		.ascii	"chCoreAllocFromTopI\000"
 1644      7265416C 
 1644      6C6F6346 
 1644      726F6D54 
 1644      6F704900 
 1645              	.LASF53:
 1646 0475 7264796D 		.ascii	"rdymsg\000"
 1646      736700
 1647              	.LASF23:
 1648 047c 6D73675F 		.ascii	"msg_t\000"
 1648      7400
 1649              	.LASF28:
 1650 0482 7072696F 		.ascii	"prio\000"
 1650      00
 1651              	.LASF46:
 1652 0487 6E657874 		.ascii	"next\000"
 1652      00
 1653              	.LASF59:
 1654 048c 77746D74 		.ascii	"wtmtxp\000"
 1654      787000
 1655              	.LASF43:
 1656 0493 74687265 		.ascii	"threads_list_t\000"
 1656      6164735F 
 1656      6C697374 
 1656      5F7400
 1657              		.text
 1658              		.section	.gnu.lto_.profile.4d9ac12d6374d524,"e",%progbits
 1659 0000 789C6362 		.ascii	"x\234cb\000\001\000\000\022\000\003"
 1659      00010000 
 1659      120003
 1660              		.text
 1661              		.section	.gnu.lto_.icf.4d9ac12d6374d524,"e",%progbits
 1662 0000 789CD361 		.ascii	"x\234\323a@\000v\206\273?>\034ab\\\360hN\027\027\313"
 1662      40007686 
 1662      BB3F3E1C 
 1662      61625CF0 
ARM GAS  /tmp/cc5zVToH.s 			page 35


 1662      684E1717 
 1663 0015 B155FFEE 		.ascii	"\261U\377\356\261\261\316:\332\373\227\227\255q\327"
 1663      B1B1CE3A 
 1663      DAFB9797 
 1663      AD71D7
 1664 0024 B2CB6CEC 		.ascii	"\262\313l\354`\222c\361\205\223\233\231\031\000\360"
 1664      609263F1 
 1664      85939B99 
 1664      1900F0
 1665 0033 15153E   		.ascii	"\025\025>"
 1666              		.text
 1667              		.section	.gnu.lto_.ipa_sra.4d9ac12d6374d524,"e",%progbits
 1668 0000 789C4B60 		.ascii	"x\234K`@\0006\006\006F\026f$\001\006fVT.\033\210\313"
 1668      40003606 
 1668      06461666 
 1668      24010666 
 1668      56542E1B 
 1669 0016 08C3CCCC 		.ascii	"\010\303\314\314`\012H02100\261\343\223\344``f\000\000"
 1669      600A4830 
 1669      32313030 
 1669      B1E393E4 
 1669      60606600 
 1670 002b 39A300BD 		.ascii	"9\243\000\275"
 1671              		.text
 1672              		.section	.gnu.lto_.inline.4d9ac12d6374d524,"e",%progbits
 1673 0000 789CD363 		.ascii	"x\234\323cd\200\0036\006\006\326\006 `Jed`b\001\263"
 1673      64800336 
 1673      0606D606 
 1673      20604A65 
 1673      64606201 
 1674 0015 5280A210 		.ascii	"R\200\242\020\006\023\003\023P\011\013\203\300\273\351"
 1674      06130313 
 1674      50090B83 
 1674      C0BBE9
 1675 0024 774E31A7 		.ascii	"wN1\2471\002\301\022f\220.f\011\240\310+\2464\240\312"
 1675      3102C112 
 1675      66902E66 
 1675      09A0C82B 
 1675      A634A0CA 
 1676 0038 46B84A26 		.ascii	"F\270J&\260\246d\240z\240\231p=\314\014@= \013az\231"
 1676      B0A664A0 
 1676      7AA09970 
 1676      3DCC0C40 
 1676      3D200B61 
 1677 004e A07C5611 		.ascii	"\240|V\021\240\212U8\315\200\2618\340,\001\260s\271"
 1677      A08A5538 
 1677      CD80B138 
 1677      E02C01B0 
 1677      73B9
 1678 0060 809C054C 		.ascii	"\200\234\005L\3518]\313\312\307\300\310\300<\301\017"
 1678      E9385DCB 
 1678      CAC7C0C8 
 1678      C03CC10F 
 1679 0070 04D94952 		.ascii	"\004\331IR\315\001\226:\000\016\011\260\"ft\325\014"
 1679      CD01963A 
 1679      000E09B0 
 1679      226674D5 
ARM GAS  /tmp/cc5zVToH.s 			page 36


 1679      0C
 1680 0081 00A89C43 		.ascii	"\000\250\234CX"
 1680      58
 1681              		.text
 1682              		.section	.gnu.lto_.jmpfuncs.4d9ac12d6374d524,"e",%progbits
 1683 0000 789C3BC2 		.ascii	"x\234;\302\200\000l@\314\302\314\310\310\310^\277\204"
 1683      80006C40 
 1683      CCC2CCC8 
 1683      C8C85EBF 
 1683      84
 1684 0011 99118819 		.ascii	"\231\021\210\031@4+\206\010\033X\204\021\310\002b\006"
 1684      40342B86 
 1684      081B5884 
 1684      11C80262 
 1684      06
 1685 0022 10CDC652 		.ascii	"\020\315\306R\007\324\313x\200\205\221\001\210\377\003"
 1685      07D4CB78 
 1685      80859101 
 1685      88FF03
 1686 0031 013F034B 		.ascii	"\001?\003K\035#\246\020\023\272\020;\025\315\342\000"
 1686      1D23A610 
 1686      13BA103B 
 1686      15CDE200 
 1687 0041 EA0300E2 		.ascii	"\352\003\000\342\3240\233"
 1687      D4309B
 1688              		.text
 1689              		.section	.gnu.lto_.pureconst.4d9ac12d6374d524,"e",%progbits
 1690 0000 789C1366 		.ascii	"x\234\023f```c\230\301\3022\203\205u\006\013\333.F\366"
 1690      60606063 
 1690      98C1C232 
 1690      83857506 
 1690      0BDB2E46 
 1691 0015 5D8C1C2D 		.ascii	"]\214\034-,\000'C\004\012"
 1691      2C002743 
 1691      040A
 1692              		.text
 1693              		.section	.gnu.lto_.lto.4d9ac12d6374d524,"e",%progbits
 1694 0000 09000200 		.ascii	"\011\000\002\000\001\000\000\000"
 1694      01000000 
 1695              		.text
 1696              		.section	.gnu.lto__core_init.314.4d9ac12d6374d524,"e",%progbits
 1697 0000 789C6D90 		.ascii	"x\234m\220\275K\003A\020\305\347\355^\"6\376\005v\251"
 1697      BD4B0341 
 1697      10C5E7ED 
 1697      5E2236FE 
 1697      0576A9
 1698 0013 14BC8D89 		.ascii	"\024\274\215\211X\013\021,-\322\331\204\3448\270\003"
 1698      580B112C 
 1698      2DD2D984 
 1698      E438B803 
 1699 0023 8F84DC21 		.ascii	"\217\204\334!Xe\023b\223&&Z\211Z\035\022++?P\321\250"
 1699      58651362 
 1699      9326265A 
 1699      895A1D12 
 1699      2B2B3F50 
 1700 0039 20D6365A 		.ascii	" \3266Z\211\244\022\013AA\260Pts\211&\004\227\035f\036"
 1700      89A4120B 
ARM GAS  /tmp/cc5zVToH.s 			page 37


 1700      4141B050 
 1700      74738926 
 1700      04971D66 
 1701 004e CC9BDF30 		.ascii	"\314\233\3370&\210\026\210(\242\002\234P\257U\030I)"
 1701      26881688 
 1701      28A2029C 
 1701      50AF5518 
 1701      4929
 1702 0060 6786188A 		.ascii	"g\206\030\212\265\3120\366\021(P\201\241\2005>\246\344"
 1702      B5CA30F6 
 1702      11285081 
 1702      A180353E 
 1702      A6E4
 1703 0072 C7CAC6EE 		.ascii	"\307\312\306\356\025d\243\011\237\023m\253\350\276\360"
 1703      1564A309 
 1703      9F136DAB 
 1703      E8BEF0
 1704 0081 AF525369 		.ascii	"\257RSi\3576\324\224\237\337U)\277Z\270\211hDU\336\036"
 1704      EF36D494 
 1704      9FDF5529 
 1704      BF5AB889 
 1704      684455DE 
 1705 0096 2D35C826 		.ascii	"-5\310&\321*g\035QT\342\031\262uw\215 \337\207\203\364"
 1705      D12A671D 
 1705      5154E219 
 1705      B275778D 
 1705      20DF8783 
 1706 00ab 10A61794 		.ascii	"\020\246\027\224\326+\357l\223\243\316}\016\220\252"
 1706      D62BEF6C 
 1706      93A3CE7D 
 1706      0E90AA
 1707 00ba CA60AA6C 		.ascii	"\312`\252l(\212\022; \2373\034\002\007\240\250\232\366"
 1707      288A123B 
 1707      209F331C 
 1707      0207A0A8 
 1707      9AF6
 1708 00cc 34E2738E 		.ascii	"4\342s\216#l\265\267\350\372\264\236Okp\374\371B8\001"
 1708      236CB5B7 
 1708      E8FAB49E 
 1708      4F6B70FC 
 1708      F9423801 
 1709 00e0 8E416594 		.ascii	"\216Ae\224\244l\214\266\033O\321Y\345U\255\322\203\377"
 1709      A46C8CB6 
 1709      1B4FD159 
 1709      E555ADD2 
 1709      83FF
 1710 00f2 873C1B40 		.ascii	"\207<\033@\236+$\250\037\304\372@\027\203\240K\325\373"
 1710      9E2B24A8 
 1710      1FC4FA40 
 1710      1783A04B 
 1710      D5FB
 1711 0104 86D2636D 		.ascii	"\206\322cm.\270[\225\243w\030\242\011ae\035S\330i'\227"
 1711      2EB85B95 
 1711      A37718A2 
 1711      0961651D 
 1711      53D86927 
 1712 0119 B73D6BC9 		.ascii	"\267=k\311v-\323\363\226Eb6\231K\033\246p\034#>59\235"
ARM GAS  /tmp/cc5zVToH.s 			page 38


 1712      762DD3F3 
 1712      96456236 
 1712      994B1BA6 
 1712      701C233E 
 1713 0130 F24CD78B 		.ascii	"\362L\327\213\321\270.\022\226\235\261\347\223\251X"
 1713      D1B82E12 
 1713      969DB1E7 
 1713      93A958
 1714 013f 548FEB51 		.ascii	"T\217\353Q\221u\325_\2643\302\315\033\302\260\034\323"
 1714      9175D55F 
 1714      B433C2CD 
 1714      1BC2B01C 
 1714      D3
 1715 0150 31B27953 		.ascii	"1\262yS7\350\007y\326\213}"
 1715      37E80779 
 1715      D68B7D
 1716              		.text
 1717              		.section	.gnu.lto_chCoreAllocFromBaseI.315.4d9ac12d6374d524,"e",%progbits
 1718 0000 789C7552 		.ascii	"x\234uR_HSa\024\377\316\375\276\273M\247S\002\013\""
 1718      5F485361 
 1718      14FFCEFD 
 1718      BEBB4DA7 
 1718      53020B22 
 1719 0014 42828802 		.ascii	"B\202\210\0027\377\254\3027\301\336{\360)z\360\317\270"
 1719      37FFACC2 
 1719      37C1DE7B 
 1719      F0297AF0 
 1719      CFB8
 1720 0026 B681D3E1 		.ascii	"\266\201\323\341\206T\004\336m\232f\220\316J\"f\320"
 1720      865404DE 
 1720      6D9A6690 
 1720      CE4A2266 
 1720      D0
 1721 0037 98A94104 		.ascii	"\230\251A\004Q\244e\333l\311B\037\262z\210(\011\354"
 1721      51A465DB 
 1721      6CC9421F 
 1721      B27A8828 
 1721      09EC
 1722 0049 450D6404 		.ascii	"E\015d\004Q\204a\347|w\016\025\274l\347~\347w~\3379"
 1722      518461E7 
 1722      7C770E15 
 1722      BC6CE77E 
 1722      E7777EDF 
 1723 005e E777CE1D 		.ascii	"\347w\316\035\343\214]c\214\235\303?\230\030\014G\006"
 1723      E38C5D63 
 1723      8C9DC33F 
 1723      98180C47 
 1723      06
 1724 006f 14A6EB7A 		.ascii	"\024\246\353z\235YQz#\327\025\230\205\331\345A\253\010"
 1724      9D59517A 
 1724      23D71598 
 1724      85D9E541 
 1724      AB08
 1725 0081 476CC9D1 		.ascii	"Gl\311\321\254SpD\255\022\351\311!\002nG\0062\023Ny"
 1725      AC537044 
 1725      AD12E9C9 
 1725      21026E47 
ARM GAS  /tmp/cc5zVToH.s 			page 39


 1725      0632134E 
 1726 0096 4985603E 		.ascii	"I\205`>\001\260n\205\013\025\272\341&\217r\030\346q"
 1726      01B06E85 
 1726      0B15BAE1 
 1726      268F7218 
 1726      E671
 1727 00a8 CE40E44E 		.ascii	"\316@\344N\000\345\307S\272\376\247\367\356\312w\210"
 1727      00E5C753 
 1727      BAFEA7F7 
 1727      EECA7788 
 1728 00b8 4EA4449C 		.ascii	"N\244D\234+\354\036\022\236\001<\005l\206!\221\237g"
 1728      2BEC1E12 
 1728      9E013C05 
 1728      6C862191 
 1728      9F67
 1729 00ca C790B4B8 		.ascii	"\307\220\264\2700\245\353\005,\3169<\207m\034\004\232"
 1729      30A5EB05 
 1729      2CCE393C 
 1729      876D1C04 
 1729      9A
 1730 00db EE5B89D7 		.ascii	"\356[\211\327e\360\326r<\001\323;y\242\351\221\344]"
 1730      65F0D672 
 1730      3C01D33B 
 1730      79A2E991 
 1730      E45D
 1731 00ed 3178FDE1 		.ascii	"1x\375\341>\275TP\276\227\273\363M[\215\312a\240\327"
 1731      3EBD5450 
 1731      BE97BBF3 
 1731      4D5B8DCA 
 1731      61A0D7
 1732 0100 51646757 		.ascii	"QdgW\303\003\266\241\240%\316Ux\005;Zlz'\263\366\347"
 1732      C303B6A1 
 1732      A025CE55 
 1732      78053B5A 
 1732      6C7A27B3 
 1733 0116 B98B51EA 		.ascii	"\271\213Q\352\240\234\250\311]\3249+N7\005\220\000\222"
 1733      A09CA8C9 
 1733      5DD4392B 
 1733      4E370590 
 1733      0092
 1734 0128 49D3664C 		.ascii	"I\323fL1\200\307\037\324\224\276\2619\250\353\231\303"
 1734      3180C71F 
 1734      D494BEB1 
 1734      39A8EB99 
 1734      C3
 1735 0139 77D2E3B7 		.ascii	"w\322\343\267`\037`/\012G\243\0122*I0\2211\223\261\220"
 1735      601F602F 
 1735      0A47A30A 
 1735      322A4930 
 1735      913193B1 
 1736 014e 913A0B29 		.ascii	"\221:\013)Z\0040\003\305\000/\300F\025J\000\246\240"
 1736      5A043003 
 1736      C5002FC0 
 1736      46154A00 
 1736      A6A0
 1737 0160 94512136 		.ascii	"\224Q!6\310\331&>\034\364\024cC\\1\234 :k\240/\177\314"
 1737      C8D9263E 
ARM GAS  /tmp/cc5zVToH.s 			page 40


 1737      1CF41463 
 1737      435C319C 
 1737      203A6BA0 
 1738 0177 14E07AE5 		.ascii	"\024\340z\345\361Sf\277|\177\316H\377H\336,\1775\263"
 1738      F15366BF 
 1738      7C7FCE48 
 1738      FF48DE2C 
 1738      7F35B3
 1739 018a 7508CD4C 		.ascii	"u\010\315L\226\305\370\326\026MRo\017(x\234\340r^\017"
 1739      96C5F8D6 
 1739      164D526F 
 1739      0F28789C 
 1739      E0725E0F 
 1740 019e A86333A4 		.ascii	"\250c3\244\001^\003\253\304\365\313q\275\201Q)u\035"
 1740      015E03AB 
 1740      C4F5CB71 
 1740      BD815129 
 1740      751D
 1741 01b0 C24FAE42 		.ascii	"\302O\256B\214\013\314\021\343E\224p\243\017}\025!\012"
 1741      8C0BCC11 
 1741      E3459470 
 1741      A30F7D15 
 1741      210A
 1742 01c2 46296892 		.ascii	"F)h\222~q\3367#D\325\004P\327%t)K\270%G\032\241\014"
 1742      7E71DE37 
 1742      2344D504 
 1742      50D72574 
 1742      294BB825 
 1743 01da 05926731 		.ascii	"\005\222g12V\304\270\015!l;T\216\203@O*\370\206\232"
 1743      3256C4B8 
 1743      0D216C3B 
 1743      548E8340 
 1743      4F2AF886 
 1744 01ef 64077308 		.ascii	"d\007s\010\225JN\211\301I\020 9\277$'4\263z(\306\013"
 1744      954A4E89 
 1744      C1491020 
 1744      39BF2427 
 1744      34B37A28 
 1745 0205 F71097D9 		.ascii	"\367\020\227\331)\356-\212\243\325\256B\317\227\364"
 1745      29EE2D8A 
 1745      A3D5AE42 
 1745      CF97F4
 1746 0214 41BC46B9 		.ascii	"A\274F\271\350\031\342\374\367\217\340\270\2343`t)\375"
 1746      E819E2FC 
 1746      F78FE0B8 
 1746      9C336074 
 1746      29FD
 1747 0226 5091C2B7 		.ascii	"P\221\302\267\302b},\271\244\344\327\360\317\250=2y"
 1747      C2627D2C 
 1747      B9A4E4D7 
 1747      F0CFA83D 
 1747      3279
 1748 0238 608FC2F3 		.ascii	"`\217\302\363\371\302+6\252\274`\214u\253\367\310<\310"
 1748      F9C22B36 
 1748      AABC608C 
 1748      75ABF7C8 
 1748      3CC8
ARM GAS  /tmp/cc5zVToH.s 			page 41


 1749 024a B42A1274 		.ascii	"\264*\022t!\323\376\204P\035\306\011\377\013\000v\236"
 1749      21D3FE84 
 1749      501DC609 
 1749      FF0B0076 
 1749      9E
 1750 025b 48662DB8 		.ascii	"Hf-\270k\024/n\274w\203]I$}\370u\200q\205\276\016\306"
 1750      6B142F6E 
 1750      BC77835D 
 1750      49247DF8 
 1750      75807185 
 1751 0272 2A1CEE0E 		.ascii	"*\034\356\016\257\346\3604{}\235\236\200\273\313\343"
 1751      AFE6F034 
 1751      7B7D9D9E 
 1751      80BBCBE3 
 1752 0282 776B81C0 		.ascii	"wk\201\300%G\375\231\006_\263Ksx\275\256\032g\325\251"
 1752      2547FD99 
 1752      065FB34B 
 1752      7378BDAE 
 1752      1A67D5A9 
 1753 0296 C680E60F 		.ascii	"\306\200\346\017T\263\023vG\275\333\323\3429\333\320"
 1753      54B31376 
 1753      47BDDBD3 
 1753      E239DBD0 
 1754 02a6 585D69AF 		.ascii	"X]i\257\261W::\374\370k\363\2648\374\235.\207\313\355"
 1754      B1573A3A 
 1754      FCF86BF3 
 1754      B438FC9D 
 1754      2E87CBED 
 1755 02ba D5BCAE8E 		.ascii	"\325\274\256\216N\315\356b\302\357\271\254\225mC\354"
 1755      4ECDEE62 
 1755      C2EFB9AC 
 1755      956D43EC 
 1756 02ca CEDAAAEA 		.ascii	"\316\332\252\352\326\323'k\231\332\334\346\271\320n"
 1756      D6D3276B 
 1756      99DADCE6 
 1756      B9D06E
 1757 02d9 EA686DF5 		.ascii	"\352hm\365k\001\321\256]\014\200\357?\315\241\\\025"
 1757      6B01D1AE 
 1757      5D0C80EF 
 1757      3FCDA15C 
 1757      15
 1758              		.text
 1759              		.section	.gnu.lto_chCoreAllocFromTopI.316.4d9ac12d6374d524,"e",%progbits
 1760 0000 789C7552 		.ascii	"x\234uR]H\024Q\024\276g\356\235\375SW\011\364!z\220"
 1760      5D481451 
 1760      14BE67EE 
 1760      9DFD5357 
 1760      09F4217A 
 1761 0015 2022C199 		.ascii	" \"\301\231U\267\3027\301\336{\360)z\360g\031\333\001"
 1761      55B7C237 
 1761      C1DE7BF0 
 1761      297AF067 
 1761      19DB01
 1762 0028 B75D7617 		.ascii	"\267]v\027\241\010\234\365\247\037{XWI\"\324\207e+\255"
 1762      A1089CF5 
 1762      A71F7B58 
 1762      574922D4 
ARM GAS  /tmp/cc5zVToH.s 			page 42


 1762      87652BAD 
 1763 003c 2888222B 		.ascii	"(\210\"+\323\265\265\242\015T\202\0201{\020\214\266"
 1763      D3B5B5A2 
 1763      0D548210 
 1763      317B108C 
 1763      B6
 1764 004d 40B65E8C 		.ascii	"@\266^\214\020\266s\357\350\240\202\303\356\235{\276"
 1764      10B673EF 
 1764      E8A082C3 
 1764      EE9D7BBE 
 1765 005d F39D9FEF 		.ascii	"\363\235\237\357\234\271M\011\271A\0109\207\177\260"
 1765      9CB94D09 
 1765      B9410839 
 1765      877FB0
 1766 006c 11184CF4 		.ascii	"\021\030L\364K\3040\214\006\273$\365%nJ0\013\263k\361"
 1766      4BC4308C 
 1766      06BB24F5 
 1766      256E4A30 
 1766      0BB36BF1 
 1767 0080 22D69370 		.ascii	"\"\326\223p\317\214\346\275\214\"Z$\220\336m\204\301"
 1767      CF8CE6BD 
 1767      8C225A24 
 1767      90DE6D84 
 1767      C1
 1768 0091 AD44FFC2 		.ascii	"\255D\377\302#\257\010\222!f%\000\322%Q&C\027\014\321"
 1768      23AF0892 
 1768      21662500 
 1768      D2255126 
 1768      43170CD1 
 1769 00a5 110A8334 		.ascii	"\021\012\2034E\011\260\355\033@\345\211\264a\374\355"
 1769      4509B0ED 
 1769      1B40E589 
 1769      B461FCED 
 1770 00b5 BB33B10E 		.ascii	"\2733\261\016#\343i\226\242\022\031C\302s\200g\200\315"
 1770      23E36996 
 1770      A2121943 
 1770      C2738067 
 1770      80CD
 1771 00c7 1024D2F3 		.ascii	"\020$\322\363\3448\222\026\263\223\206\341$)J\341\005"
 1771      E4389216 
 1771      B39386E1 
 1771      24294AE1 
 1771      05
 1772 00d8 ECE220D0 		.ascii	"\354\342 \3202\351\342\274N\223\227\333\3461x\271\227"
 1772      32E9E2BC 
 1772      4E9397DB 
 1772      E63178B9 
 1772      97
 1773 00e9 C75AE604 		.ascii	"\307Z\346\004\357\212\311+X\371^\357\317\267\3502+\367"
 1773      EF8AC92B 
 1773      58F95EEF 
 1773      CFB7E832 
 1773      2BF7
 1774 00fb 007F1D43 		.ascii	"\000\177\035Cv\376A_\277{ \346HQ\031\336\300\236\026"
 1774      76FE415F 
 1774      BF7B20E6 
 1774      485119DE 
ARM GAS  /tmp/cc5zVToH.s 			page 43


 1774      C09E16
 1775 010e 5BBE8BAC 		.ascii	"[\276\213\254\327-\356\342\010\317\\\311\2513\373\250"
 1775      D72DEEE2 
 1775      08CF5CC9 
 1775      A933FBA8 
 1776 011e 5F5D38DD 		.ascii	"_]8\3354\3004p\231|\332\204H&\360\344\263\2346\266\012"
 1776      34C03470 
 1776      997CDA84 
 1776      4826F0E4 
 1776      B39C36B6 
 1777 0133 71C358A8 		.ascii	"q\303X\250\212g\036\016\303!\300^$\212\207\314\360 "
 1777      8A671E0E 
 1777      C321C05E 
 1777      248A87CC 
 1777      F020
 1778 0145 32BFD9B8 		.ascii	"2\277\331\270\016;?\034\374\340\375\023\027w\024\003"
 1778      0E3B3F1C 
 1778      FCE0FD13 
 1778      17771403 
 1779 0155 4C4209C0 		.ascii	"LB\011\300+p\363\012\245\000SPFx!\022\247\244\200\017"
 1779      2B70F30A 
 1779      A5005350 
 1779      46782112 
 1779      A7A4800F 
 1780 0169 05234DC8 		.ascii	"\005#M\310\000\225L#\206\306O0\326\276d\235\270^q]\316"
 1780      00954C23 
 1780      86C64F30 
 1780      D6BE649D 
 1780      B85E715D 
 1781 017e 5688F74A 		.ascii	"V\210\367JV\330G\255c\355\233\213l@\367\324Dy\222\356"
 1781      56D847AD 
 1781      63ED9B8B 
 1781      6C40F7D4 
 1781      447992EE 
 1782 0192 6CD126F4 		.ascii	"l\321&\364\366\202\204\327q*\346u\217wl\207\014\300"
 1782      F68284D7 
 1782      712AE675 
 1782      8F776C87 
 1782      0CC0
 1783 01a4 5B201E5C 		.ascii	"[ \036\\\277\030\327\034\214\012\251\230 \177\025\222"
 1783      BF18D71C 
 1783      8C0AA998 
 1783      207F1592 
 1784 01b4 94256931 		.ascii	"\224%i1\032=O\271!cB\204\270s\353\032\3326\204,\246"
 1784      1A3D4FB9 
 1784      21634284 
 1784      B873EB1A 
 1784      DA36842C 
 1785 01c9 3D494B38 		.ascii	"=IK8s\230{\034\302i7\231\325I\352F\010{\353\256D\265"
 1785      73987B1C 
 1785      C2693799 
 1785      D549EA46 
 1785      087BEBAE 
 1786 01df 6889367F 		.ascii	"h\2116\177c\343\"x\035!g\222\226\232u\336\241U&\"\234"
 1786      63E32278 
 1786      1D216792 
 1786      969A75DE 
ARM GAS  /tmp/cc5zVToH.s 			page 44


 1786      A1552622 
 1787 01f4 66C43407 		.ascii	"f\3044\007D\304\246\0311\225;\222\244\256\003\364\274"
 1787      44C4A619 
 1787      31953B92 
 1787      A4AE03F4 
 1787      BC
 1788 0205 DFABE703 		.ascii	"\337\253\347\003\352\341\333\314A\357j\3460\206\361"
 1788      EAE1DBCC 
 1788      41EF6AE6 
 1788      3086F1
 1789 0214 5CFC19A0 		.ascii	"\\\374\031\240t\363W\354\276\030-\240w%\363X\022\362"
 1789      74F357EC 
 1789      BE182DA0 
 1789      7725F358 
 1789      12F2
 1790 0226 76DC6CE3 		.ascii	"v\334l\343\356\314\252dM\276`\326\036\316U\034P\370"
 1790      EECCAA64 
 1790      4DBE60D6 
 1790      1ECE551C 
 1790      50F8
 1791 0238 A355F887 		.ascii	"\243U\370\207\233W\316\232\223\334\351}\350\023\210"
 1791      9B57CE9A 
 1791      93DCE97D 
 1791      E81388
 1792 0247 B432120C 		.ascii	"\2642\022\014&\322\376\201\356\006\364s\374\037\000"
 1792      26D2FE81 
 1792      EE06F473 
 1792      FC1F00
 1793 0256 28747E29 		.ascii	"(t~)\357\300\365\242x6\266\354\007E\232_\012\341\007"
 1793      EFC0F5A2 
 1793      7836B6EC 
 1793      07459A5F 
 1793      0AE107
 1794 0269 016608FF 		.ascii	"\001f\010\377 \010\251V\375\301\200\246\352\255\201"
 1794      2008A956 
 1794      FDC180A6 
 1794      EAAD81
 1795 0278 50588FFA 		.ascii	"PX\217\372;\365\210_\213F/\251\215g\232B\255>M\015\004"
 1795      3BF5885F 
 1795      8B462FA9 
 1795      8D679A42 
 1795      AD3E4D0D 
 1796 028d 7C75DE9A 		.ascii	"|u\336\232S\315Q-\022\255%U\212\332\350\327\333\364"
 1796      53CD512D 
 1796      12AD2555 
 1796      8ADAE8D7 
 1796      DBF4
 1797 029f B34DCDB5 		.ascii	"\263M\315\265\036\245N\361\250\301\010\376:\36465\022"
 1797      1EA54EF1 
 1797      A8C108FE 
 1797      3AF43635 
 1797      12
 1798 02b0 F6A93E7F 		.ascii	"\366\251>\177@\013\370\202aM\361\021\026\321/k\345\273"
 1798      400BF882 
 1798      614DF111 
 1798      16D12F6B 
 1798      E5BB
ARM GAS  /tmp/cc5zVToH.s 			page 45


 1799 02c2 10C55B5F 		.ascii	"\020\305[_S\333~\372d=\221[;\364\013\027m\301\366\366"
 1799      53DB7EFA 
 1799      643D915B 
 1799      3BF40B17 
 1799      6DC1F6F6 
 1800 02d6 881665A1 		.ascii	"\210\026e\241\260\326\011\241\377O\224Y\021"
 1800      B0D609A1 
 1800      FF4F9459 
 1800      11
 1801              		.text
 1802              		.section	.gnu.lto_chCoreAllocFromBase.317.4d9ac12d6374d524,"e",%progbits
 1803 0000 789C8D54 		.ascii	"x\234\215TmHTY\030~\337{\356\214\216}BT\020,L\261&E"
 1803      6D485459 
 1803      187EDF7B 
 1803      EE8C8E7D 
 1803      4254102C 
 1804 0018 3BD72C8B 		.ascii	";\327,\213\376\265;\375\021\222\226\346\347\376\360"
 1804      FEB53BFD 
 1804      119296E6 
 1804      E7FEF0
 1805 0027 E3766D2E 		.ascii	"\343vm.x\035\231{\223\\\202n\232\006E\230\026M\330d"
 1805      781D997B 
 1805      935C826E 
 1805      9A064598 
 1805      164DD864 
 1806 003b 2606FDD9 		.ascii	"&\006\375\331\372\243\255\333\227Sm\273\246\225\025"
 1806      FAA3ADDB 
 1806      97536DBB 
 1806      A69515
 1807 004a 81618465 		.ascii	"\201a\204e\030\255\022M\037\204IQ\3579gr\246\210X\030"
 1807      18AD124D 
 1807      1F844951 
 1807      EF396772 
 1807      A6885818 
 1808 005e E69CF39C 		.ascii	"\346\234\363\234\347\274\317\363>\347p\177P\001\212"
 1808      E7BCCFF3 
 1808      3EE7707F 
 1808      50018A
 1809 006d 10602900 		.ascii	"\020`)\000 \003li\336\253\200\353\272\353\263\024\334"
 1809      20036C69 
 1809      DEAB80EB 
 1809      BAEBB314 
 1809      DC
 1810 007e D5BC77F0 		.ascii	"\325\274w\360L\227\212\275(\000\204\235\012\356\304"
 1810      4C978ABD 
 1810      2800849D 
 1810      0AEEC4
 1811 008d 832CCEB0 		.ascii	"\203,\316\260\205u\022YM\315\020\375\313\022\256;\331"
 1811      85751259 
 1811      4DCD10FD 
 1811      CB12AE3B 
 1811      D9
 1812 009e D03A3E86 		.ascii	"\320:>\206\361S\011\265\223)\320F\204n\304.*\016@D\366"
 1812      F15309B5 
 1812      9329D046 
 1812      846EC42E 
 1812      2A0E4044 
ARM GAS  /tmp/cc5zVToH.s 			page 46


 1813 00b3 1BE411E9 		.ascii	"\033\344\021\351v\177\217\353\372\240\2231\374\0233"
 1813      767F8FEB 
 1813      FAA09331 
 1813      FC1333
 1814 00c2 380494BE 		.ascii	"8\004\224\276\363q^\215\344\375\227\342\251\370\327"
 1814      F3715E8D 
 1814      E4FD97E2 
 1814      A9F8D7
 1815 00d1 973CB5B4 		.ascii	"\227<\265\264!\207\363vH\336\307\351z\347\277\256\327"
 1815      2187F376 
 1815      48DEC7E9 
 1815      7AE7BFAE 
 1815      D7
 1816 00e2 9C2395EB 		.ascii	"\234#\225\353\221\017\271\304NN\234l\234}`W6\031\304"
 1816      910FB9C4 
 1816      4E4E9C6C 
 1816      9C7D6057 
 1816      3619C4
 1817 00f5 8BF885C5 		.ascii	"\213\370\205\305\322c9^\300K\310\215\003(t\300\0134"
 1817      D263395E 
 1817      C04BC88D 
 1817      032874C0 
 1817      0B34
 1818 0107 474C88D3 		.ascii	"GL\210\323^\312`\362m\001P\032m\324]\012\211\357\277"
 1818      5ECA60F2 
 1818      6D01501A 
 1818      6DD45D0A 
 1818      89EFBF
 1819 011a 36E601BC 		.ascii	"6\346\001\274L\030\023R\177\0102769\274\357\301\340"
 1819      4C181352 
 1819      7F083237 
 1819      3639BCEF 
 1819      C1E0
 1820 012c A2B8CBD3 		.ascii	"\242\270\313\323\360\340U\344\245\244\030\376\215\004"
 1820      F0E055E4 
 1820      A5A418FE 
 1820      8D04
 1821 013a 954ECD4C 		.ascii	"\225N\315L\231\232L6]\354^q\265\336\355s\247\271\220"
 1821      999A4C36 
 1821      5DEC5E71 
 1821      B5DEED73 
 1821      A7B990
 1822 014d E6CAF884 		.ascii	"\346\312\370\204\376\323V/^#\360\012\257\006\344\017"
 1822      FED3562F 
 1822      5E23F00A 
 1822      AF06E40F 
 1823 015d FFC9F417 		.ascii	"\377\311\364\027\177va\2414\250\246\0156| \203}\204"
 1823      7F7661A1 
 1823      34A8A60D 
 1823      367C2083 
 1823      7D84
 1824 016f 7920ADF7 		.ascii	"y \255\367\374\177\351\365\274'\275~\002\257O\353\015"
 1824      FC7FE9F5 
 1824      BC27BD7E 
 1824      02AF4FEB 
 1824      0D
 1825 0180 083DE220 		.ascii	"\010=\342 Eu\346\256'\341\276\377\330\344&\366\314\032"
ARM GAS  /tmp/cc5zVToH.s 			page 47


 1825      4575E6AE 
 1825      27E1BEFF 
 1825      D8E426F6 
 1825      CC1A
 1826 0192 1F7B929C 		.ascii	"\037{\222\234\312\365)\210=H\235\236C\025\361\002\312"
 1826      CAF52988 
 1826      3D489D9E 
 1826      4315F102 
 1826      CA
 1827 01a3 44A189F1 		.ascii	"D\241\211\3617\345\252\350&\000\0160E.\352i1\216\356"
 1827      37E5AAE8 
 1827      26000E30 
 1827      452EEA69 
 1827      318EEE
 1828 01b6 E8D0008A 		.ascii	"\350\320\000\212qx\006\037^w\037j\211\035F\312T\200"
 1828      7178061F 
 1828      5E771F6A 
 1828      891D46CA 
 1828      5480
 1829 01c8 B1219F60 		.ascii	"\261!\237`\275~||j\374\376<j]\300G'\216 \307\353\374"
 1829      BD7E7C7C 
 1829      6AFCFE3C 
 1829      6A5DC047 
 1829      278E20C7 
 1830 01de 14087F83 		.ascii	"\024\010\177\203\036\364\313\323\261\263#\307\220r\021"
 1830      1EF4CBD3 
 1830      B1B323C7 
 1830      907211
 1831 01ed B4F3233E 		.ascii	"\264\363#>\374\027\341\005\326-\341\256O\363k]\334\253"
 1831      FC17E105 
 1831      D62DE1AE 
 1831      4FF36B5D 
 1831      DCAB
 1832 01ff 34D203F0 		.ascii	"4\322\003\360\322T\345\257\376\026\002\2158\210xS$\271"
 1832      D254E5AF 
 1832      FE16028D 
 1832      38887853 
 1832      24B9
 1833 0211 F88AD8CF 		.ascii	"\370\212\330\317\022\233w\244J\362\321\361\326\211l"
 1833      129B77A4 
 1833      4AF2D1F1 
 1833      D6896C
 1834 0220 E0E1F3BA 		.ascii	"\340\341\363\272\257\272\017\035\211\345J#\261\005\002"
 1834      AFBA0F1D 
 1834      89E54A23 
 1834      B10502
 1835 022f 39F1E4E1 		.ascii	"9\361\344\341F\212\036\222\330\330>\247\203yw\243\322"
 1835      468A1E92 
 1835      D8D83EA7 
 1835      837977A3 
 1835      D2
 1836 0240 C9B2DB18 		.ascii	"\311\262\333\030\205\326\301\224\016\306:\030\205\355"
 1836      85D6C194 
 1836      0EC63A18 
 1836      85ED
 1837 024e 93962F21 		.ascii	"\223\226/!1\304\361\021\331;5}\2167\335'm\367\306bR"
 1837      31C4F111 
ARM GAS  /tmp/cc5zVToH.s 			page 48


 1837      D93B357D 
 1837      8E37DD27 
 1837      6DF7C662 
 1838 0263 68F4CED0 		.ascii	"h\364\316\320\217b|8$v\226L\377\215\276Y\230\212ex\202"
 1838      8F627C38 
 1838      2476964C 
 1838      FF8DBE59 
 1838      988A6578 
 1839 0278 62B92E0F 		.ascii	"b\271.\017\276L\307\322\237\212\0052c\031H\307r#3\226"
 1839      BE4CC7D2 
 1839      9F8A0532 
 1839      631948C7 
 1839      72233396 
 1840 028c 5400F744 		.ascii	"T\000\367D\024\231]'y\327\375\251\256\333\017\216\360"
 1840      14995D27 
 1840      79D7FDA9 
 1840      AEDB0F8E 
 1840      F0
 1841 029d AF01BCC2 		.ascii	"\257\001\274\302\272\366B\336\001\360\253Ey\233u\011"
 1841      BAF642DE 
 1841      01F0AB45 
 1841      799B7509 
 1842 02ad BEFC490B 		.ascii	"\276\374I\013G,C3\313\254\352\250\351\204kL;l8N\255"
 1842      472C4333 
 1842      CBACEAA8 
 1842      E9846B4C 
 1842      3B6C384E 
 1843 02c2 16DC10AA 		.ascii	"\026\334\020\252.\323\015\315\262\364U\253W\256)q\014"
 1843      2ED30DCD 
 1843      B2F455AB 
 1843      57AE2971 
 1843      0C
 1844 02d3 DB2980E5 		.ascii	"\333)\200\345\001-\0306\313\315M\241\222\202\374\300"
 1844      012D1836 
 1844      CBCD4DA1 
 1844      9282FCC0 
 1845 02e3 AA40BE16 		.ascii	"\252@\276\026\261\351Wi\226kvT\327\364\260eXz$j\004"
 1845      B1E95769 
 1845      966B7654 
 1845      D7F4B065 
 1845      587A246A 
 1846 02f8 74506DF3 		.ascii	"tPm\363wc~\006\022X\275neA\305\332\302u\340)\2534\267"
 1846      77637E06 
 1846      1258BD6E 
 1846      6541C5DA 
 1846      C275E029 
 1847 030f 56792315 		.ascii	"Vy#\025\025\266\341`u\336\267\212F\035\315\254\322+"
 1847      15B6E160 
 1847      75DEB78A 
 1847      461DCDAC 
 1847      D22B
 1848 0321 B76D31A8 		.ascii	"\267m1\250\252]k\007\302\220U^f\033\277F\315_\276\305"
 1848      AA5D6B07 
 1848      C290555E 
 1848      661BBF46 
 1848      CD5FBEC5 
 1849 0335 D7239615 		.ascii	"\327#\226\025\251\322\214\355\216\366\363\346b-X\034"
ARM GAS  /tmp/cc5zVToH.s 			page 49


 1849      A9D28CED 
 1849      8EF6F3E6 
 1849      622D581C 
 1850 0345 2A0A6941 		.ascii	"*\012iA\022\326\212>\227\261l\323.\331\252\353T\252"
 1850      12D68A3E 
 1850      97B16CD3 
 1850      2ED9AAEB 
 1850      54AA
 1851 0357 F03B25AA 		.ascii	"\360;%\252#Q\307\346E\202\305\333I\233\233/\251Yk\321"
 1851      2351C7E6 
 1851      4582C5DB 
 1851      499B9B2F 
 1851      A9596BD1 
 1852 036b A9B9C5A1 		.ascii	"\251\271\305\241\315~n\202\242Z\341\317\315\007%\012"
 1852      CD7E6E82 
 1852      A25AE1CF 
 1852      CD07250A 
 1853 037b 59D45F24 		.ascii	"Y\324_$Z\013\237\000\333\377\311\242"
 1853      5A0B9F00 
 1853      DBFFC9A2 
 1854              		.text
 1855              		.section	.gnu.lto_chCoreAllocFromTop.318.4d9ac12d6374d524,"e",%progbits
 1856 0000 789C8D54 		.ascii	"x\234\215Tmh\024G\030~\337\235\275K\016\324\026\244"
 1856      6D681447 
 1856      187EDF9D 
 1856      BD4B0ED4 
 1856      16A4
 1857 0012 168AC229 		.ascii	"\026\212\302)MC\213\336\306\304(\376S\257\177\002\006"
 1857      4D438BDE 
 1857      C6C428FE 
 1857      53AF7F02 
 1857      06
 1858 0023 4BEEA73F 		.ascii	"K\356\247?\362\261\335x\013\331\\\270\335\006S\012\256"
 1858      F2B1DD78 
 1858      0BD95CB8 
 1858      DD06530A 
 1858      AE
 1859 0034 8989A048 		.ascii	"\211\211\240HL\224\236\234g\214!\240\024\332\376Ijz"
 1859      4C949E9C 
 1859      678C21A0 
 1859      14DAFE49 
 1859      6A7A
 1860 0046 7EE4FC4E 		.ascii	"~\344\374Nb\2334\"\244X\2526R\025\203x\032\205\020\342"
 1860      629B3422 
 1860      A458AA36 
 1860      52158378 
 1860      1A8510E2 
 1861 005a C73B3367 		.ascii	"\307;3g\356\"R\012\307\315\3143\317\274\317\363>3\354"
 1861      EE22520A 
 1861      C7CDCC33 
 1861      CFBCCFF3 
 1861      3E33EC
 1862 006d 0A15A00C 		.ascii	"\012\025\240\014\001>\003\000d\200\235\035\373\024p"
 1862      013E0300 
 1862      64809D1D 
 1862      FB1470
 1863 007c 5D77539E 		.ascii	"]wS\236\202\273;\366\215%\373T\034D\001 \354Rp\027\036"
ARM GAS  /tmp/cc5zVToH.s 			page 50


 1863      82BB3BF6 
 1863      8D25FB54 
 1863      1C440120 
 1863      EC527017 
 1864 0091 6209869D 		.ascii	"b\011\206\235\254\227\310jf\206\350\377<\345\2723\255"
 1864      AC97C86A 
 1864      6686E8FF 
 1864      3CE5BA33 
 1864      AD
 1865 00a2 F1F8034C 		.ascii	"\361\370\003L\234J\251\275L\201.\"\364#\366Qq\000\""
 1865      9C4AA9BD 
 1865      4C812E22 
 1865      F423F651 
 1865      710022
 1866 00b5 B2ED5048 		.ascii	"\262\355PH\244?\206\007\\\327\007\275\214\341i\314\341"
 1866      A43F8607 
 1866      5CD707BD 
 1866      8CE169CC 
 1866      E1
 1867 00c6 105095F4 		.ascii	"\020P\225\364q^\243\344=\314\360T\374u!O\255\272*x\337"
 1867      715EA3E4 
 1867      3DCCF054 
 1867      FC75214F 
 1867      ADBA2A78 
 1868 00db 49DEABF9 		.ascii	"I\336\253\371zg\336\255w\303'\225[\220\017\005\304N"
 1868      7A67DEAD 
 1868      77C32795 
 1868      5B900F05 
 1868      C44E
 1869 00ed 1F3DD9B6 		.ascii	"\037=\331\266\344\340\356|2\210\347p\201\305\252\333"
 1869      E4E0EE7C 
 1869      3288E770 
 1869      81C5AADB 
 1870 00fd 3E2FE079 		.ascii	">/\340y\344\306\001\024:\340\005\232#\246\304i/e03Z"
 1870      E4C60114 
 1870      3AE0059A 
 1870      23A6C469 
 1870      2F653033 
 1871 0112 02944617 		.ascii	"\002\224F\027u\227A\022\007\256\374\353\001\274@\030"
 1871      75974112 
 1871      07AEFCEB 
 1871      01BC4018 
 1872 0122 13523F0A 		.ascii	"\023R?\012276sk\377_c\237$\\\236\206\007/!/%\305\360"
 1872      32373673 
 1872      6BFF5F63 
 1872      9F245C9E 
 1872      86072F21 
 1873 013a 32125435 		.ascii	"2\022T5\273(cj&\335~\256\177\365\245\026w\310\235\347"
 1873      BB28636A 
 1873      26DD7EAE 
 1873      7FF5A516 
 1873      77C89DE7 
 1874 014e 42962BE3 		.ascii	"B\226+\343\023\372\367\343^\274B\340E^\015\310\037^"
 1874      13FAF7E3 
 1874      5EBC42E0 
 1874      455E0DC8 
 1874      1F5E
ARM GAS  /tmp/cc5zVToH.s 			page 51


 1875 0160 CDF59778 		.ascii	"\315\365\227x8\267\\\032T\263\006[_\222\301!\302<\220"
 1875      38B75C1A 
 1875      54B3065B 
 1875      5F92C121 
 1875      C23C90
 1876 0173 D57BFCBF 		.ascii	"\325{\374\277\364\006\346Ho\204\300\341y\275\353B\217"
 1876      F406E648 
 1876      6F84C0E1 
 1876      79BDEB42 
 1876      8F
 1877 0184 384851FD 		.ascii	"8HQ\375|\303\223r\347^\267\273\251\275\213\343\327\356"
 1877      7CC39372 
 1877      E75EB7BB 
 1877      A9BD8BE3 
 1877      D7EE
 1878 0196 A57F28F4 		.ascii	"\245\177(\364)\210\003H\235&QE<\2132Qhg\374M\271*\272"
 1878      29880348 
 1878      9D265145 
 1878      3C8B3251 
 1878      6867FC4D 
 1879 01ad 2980834C 		.ascii	")\200\203L\221\213\026Z<Bw\362\364(\2121\271\204\017"
 1879      918B165A 
 1879      3C4277F2 
 1879      F4288A31 
 1879      B9840F
 1880 01c0 D3FD873B 		.ascii	"\323\375\207;c\337#e*\300\330\204O\260\246\3779>\373"
 1880      63DF2365 
 1880      2AC0D884 
 1880      4FB0A6FF 
 1880      393EFB
 1881 01d3 E8CFA5D4 		.ascii	"\350\317\245\324\272\200\217N\035A\2167\373)\020\376"
 1881      BA808F4E 
 1881      1D418E37 
 1881      FB2910FE 
 1882 01e3 063DE897 		.ascii	"\006=\350\227\247c\277\3349\206\224\213\240\235\271"
 1882      A763BFDC 
 1882      3986948B 
 1882      A09DB9
 1883 01f2 E3C36B08 		.ascii	"\343\303k\010O\260y\025w\375\023\277\326\225\203J\033"
 1883      4FB07915 
 1883      77FD13BF 
 1883      D695834A 
 1883      1B
 1884 0203 3D002F4D 		.ascii	"=\000/MU\376\352I\235F\034C\374]$\271\362\242\330\317"
 1884      55FEEA49 
 1884      9D461C43 
 1884      FC5D24B9 
 1884      F2A2D8CF 
 1885 0217 139BE352 		.ascii	"\023\233\343R%}\367x|*\037x\370\274\356\263\376\303"
 1885      257DF778 
 1885      7C2A1F78 
 1885      F8BCEEB3 
 1885      FEC3
 1886 0229 476205D2 		.ascii	"Gb\005\322Hl\231@N\334\233\336J\321C\032\333\272?\350"
 1886      486C9940 
 1886      4EDC9BDE 
 1886      4AD1431A 
ARM GAS  /tmp/cc5zVToH.s 			page 52


 1886      DBBA3FE8 
 1887 023d 61DE3DA8 		.ascii	"a\336=\250\364\262\374.F\241\3650\245\207\261\036Fa"
 1887      F4B2FC2E 
 1887      46A1F530 
 1887      A587B11E 
 1887      4661
 1888 024f FBA4E5F3 		.ascii	"\373\244\345\363H\014q|P\366NM'y\323C\322\366`,&\205"
 1888      480C717C 
 1888      50F64E4D 
 1888      2779D343 
 1888      D2F6602C 
 1889 0265 26C7273E 		.ascii	"&\307'>\025\343\337\023bg\325\374\337\344\363\2173\261"
 1889      15E3DF13 
 1889      6267D5FC 
 1889      DFE4F38F 
 1889      33B1
 1890 0277 DC9AA258 		.ascii	"\334\232\242X\206\345\301\247\331XF2\261@n,\327\263"
 1890      86E5C1A7 
 1890      D9584632 
 1890      B1406E2C 
 1890      D7B3
 1891 0289 B1FC961B 		.ascii	"\261\374\226\033K&\200\233\"\212\334\256\323\274\353"
 1891      4B26809B 
 1891      228ADCAE 
 1891      D3BCEB
 1892 0298 914CD7DD 		.ascii	"\221L\327\335\207^\360\257\001<\303\346\356R\336\001"
 1892      875EF0AF 
 1892      013CC3E6 
 1892      EE52DE01 
 1893 02a8 F0AB4579 		.ascii	"\360\253Ey\233\315)\276\\\243\205#\226\241\231\325V"
 1893      9BCD29BE 
 1893      5CA38523 
 1893      96A199D5 
 1893      56
 1894 02b9 43D474C2 		.ascii	"C\324t\302\215\246\0356\034\247I\013~\031j\250\326\015"
 1894      8DA61D36 
 1894      1CA7490B 
 1894      7E196AA8 
 1894      D60D
 1895 02cb CDB2F492 		.ascii	"\315\262\364\222uk\327W:\206\355\024\303\027\001-\030"
 1895      756BD757 
 1895      3A86ED14 
 1895      C317012D 
 1895      18
 1896 02dc 366BCC6D 		.ascii	"6k\314m\241\312\342\242@I\240H\213\330\364\2533k4;\252"
 1896      A1CAE2A2 
 1896      4049A048 
 1896      8BD8F4AB 
 1896      336B343B 
 1897 02f1 6B7AD832 		.ascii	"kz\3302,=\0225\002:\250\266\371\255\361Q\016\022X\267"
 1897      2C3D1235 
 1897      023AA8B6 
 1897      F9ADF151 
 1897      0E1258B7 
 1898 0305 716D71ED 		.ascii	"qmq\355\206\322\215\340\251\2563w\324{#\265\265\266"
 1898      86D28DE0 
 1898      A9AE3377 
ARM GAS  /tmp/cc5zVToH.s 			page 53


 1898      D47B23B5 
 1898      B5B6
 1899 0317 E16043E1 		.ascii	"\341`C\341\373\212F\035\315\254\327\353\276\371\332"
 1899      FB8A461D 
 1899      CDACD7EB 
 1899      BEF9DA
 1900 0326 A0AA7693 		.ascii	"\240\252v\223\035\010C^M\265m|\0255\267\274\217\257"
 1900      1D08435E 
 1900      4DB56D7C 
 1900      1535B7BC 
 1900      8FAF
 1901 0338 472C2B52 		.ascii	"G,+R\257\031;\035msE\271\026,\017\225\205\264 \011k"
 1901      AF193B1D 
 1901      6D7345B9 
 1901      162C0F95 
 1901      85B42009 
 1902 034d 656FCB58 		.ascii	"eo\313X\266iW\356\320u*U\372\037%\032\"Q\307\346E\202"
 1902      B66957EE 
 1902      D0752A55 
 1902      FA1F251A 
 1902      2251C7E6 
 1903 0363 E53B499B 		.ascii	"\345;I\233\233\257l\334`\321\251\017\313C\025~n\202"
 1903      9BAF6CDC 
 1903      60D1A90F 
 1903      CB43157E 
 1903      6E82
 1904 0375 A25AED2F 		.ascii	"\242Z\355/(\002%\012y\324_$\332\004o\000\2360\310\306"
 1904      2802250A 
 1904      79D45F24 
 1904      DA046F00 
 1904      9E30C8C6 
 1905              		.text
 1906              		.section	.gnu.lto_chCoreGetStatusX.319.4d9ac12d6374d524,"e",%progbits
 1907 0000 789C754F 		.ascii	"x\234uO=K\003A\020\235\331\275\273\370+$\225\242\340"
 1907      3D4B0341 
 1907      109DD9BD 
 1907      BBF82B24 
 1907      95A2E0
 1908 0013 6D4C8285 		.ascii	"mL\202\205\225\020{\213t6!9\016\356\300#!w\010V\331"
 1908      95107B8B 
 1908      74362139 
 1908      0EEEC023 
 1908      21770856 
 1909 0028 C48F409A 		.ascii	"\304\217@\232\230\330I\2648\202\244\263\211\370\221"
 1909      98D849B4 
 1909      3882A4B3 
 1909      89F891
 1910 0037 08575A0B 		.ascii	"\010WZ\013\376\002+\005-l\264\210\350\354\031\020\013"
 1910      FE022B05 
 1910      2D6CB488 
 1910      E8EC1910 
 1910      0B
 1911 0048 9799E1CD 		.ascii	"\227\231\341\3150\357\275\331U\004\330\004\2009J\344"
 1911      30EFBDD9 
 1911      5504D804 
 1911      80394AE4 
 1912 0058 80DD4E8B 		.ascii	"\200\335N\213\201\224r-\301\260\336i\275\217\206\032"
ARM GAS  /tmp/cc5zVToH.s 			page 54


 1912      8194722D 
 1912      C1B0DE69 
 1912      BD8F861A 
 1913 0068 5E623C40 		.ascii	"^b<@\2501\254\341\021\357q\354\362>-kS\204\230\\\210"
 1913      A831ACE1 
 1913      11EF71EC 
 1913      F23E2D6B 
 1913      5384985C 
 1914 007d A4FCD83F 		.ascii	"\244\374\330?\0365\215\336 \322\372\234\301)-\\ \016"
 1914      1E358DDE 
 1914      20D2FA9C 
 1914      C1292D5C 
 1914      200E
 1915 008f C9403D03 		.ascii	"\311@=\003\324D\271P\236\337\353\221\234|\265\245\374"
 1915      D444B950 
 1915      9EDFEB91 
 1915      9C7CB5A5 
 1915      FC
 1916 00a0 7CC4BB79 		.ascii	"|\304\273y\003\241\317\211B\205S\321tP\002\320\346\352"
 1916      03A1CF89 
 1916      428553D1 
 1916      745002D0 
 1916      E6EA
 1917 00b2 12A9A18C 		.ascii	"\022\251\241\214\000\0169\373i\352\324<\243\014\023"
 1917      000E39FB 
 1917      69EAD43C 
 1917      A30C13
 1918 00c1 F08A8DF1 		.ascii	"\360\212\215\361\323l\310qz\206\216@h\017\031\301\001"
 1918      D36CC871 
 1918      7A868E40 
 1918      680F19C1 
 1918      01
 1919 00d2 795173A6 		.ascii	"yQs\246\224\015\274F\274BH\021\177\206<\360\006O\342"
 1919      940DBC46 
 1919      BC424811 
 1919      7F863CF0 
 1919      064FE2
 1920 00e5 5362816C 		.ascii	"Sb\201l\310\331?\264\361_\332-\3210\246\355\016\017"
 1920      C8D93FB4 
 1920      F15FDA2D 
 1920      D130A6ED 
 1920      0E0F
 1921 00f7 5EB49073 		.ascii	"^\264\220s\362&\266\322\2314\037\010\3524\2037l$\011"
 1921      F226B6D2 
 1921      99341F08 
 1921      EA348337 
 1921      6C2409
 1922 010a 2A8336C7 		.ascii	"*\2036\307\337\037\000,\011\247\354\331\302-z\225\252"
 1922      DF1F002C 
 1922      09A7ECD9 
 1922      C22D7A95 
 1922      AA
 1923 011b 1B38DBAE 		.ascii	"\0338\333\256\357\330A\260#r\353\371J\321\262\205\347"
 1923      EFD841B0 
 1923      2372EBF9 
 1923      4AD1B285 
 1923      E7
ARM GAS  /tmp/cc5zVToH.s 			page 55


 1924 012c 5999ECF2 		.ascii	"Y\231\354\362J!\260\375 \015\213\246\3109n\311\335\310"
 1924      4A21B0FD 
 1924      200D8BA6 
 1924      C8396EC9 
 1924      DDC8
 1925 013e 17D22933 		.ascii	"\027\322)3c\246D\331\247\330rK\302\257Z\302r<\333\263"
 1925      63A644D9 
 1925      A7D8724B 
 1925      C2AF5AC2 
 1925      723CDBB3 
 1926 0152 CA55DBB4 		.ascii	"\312U\333\264\340\033\373}|S"
 1926      E01BFB7D 
 1926      7C53
 1927              		.text
 1928              		.section	.gnu.lto_.symbol_nodes.4d9ac12d6374d524,"e",%progbits
 1929 0000 789C758D 		.ascii	"x\234u\215\333\015\200 \024C{\013\310\032\316\342b\027"
 1929      DB0D8020 
 1929      14437B0B 
 1929      C81ACEE2 
 1929      6217
 1930 0012 36701DF1 		.ascii	"6p\035\361\275\200+\230\270\210B\242\177r~\332\344\244"
 1930      BD802B98 
 1930      B88842A2 
 1930      7F727EDA 
 1930      E4A4
 1931 0024 E9890C13 		.ascii	"\351\211\014\023\025!c\245?\000\005R\210\002)\016n "
 1931      152163A5 
 1931      3F000552 
 1931      8802290E 
 1931      6E20
 1932 0036 6257CA46 		.ascii	"bW\312FiK\356dI\216T\2713\346g\305\211\312\252\234\251"
 1932      694BEE64 
 1932      498E54B9 
 1932      33E667C5 
 1932      89CAAA9C 
 1933 004b A6F6C785 		.ascii	"\246\366\307\205j\253r\245\272\2324\315\273\273\274"
 1933      6AAB72A5 
 1933      BA9A34CD 
 1933      BBBBBC
 1934 005a F1EEAB78 		.ascii	"\361\356\253x\000\305H7i"
 1934      00C54837 
 1934      69
 1935              		.text
 1936              		.section	.gnu.lto_.refs.4d9ac12d6374d524,"e",%progbits
 1937 0000 789C4D88 		.ascii	"x\234M\210\267\001\000 \014\303d'\224\003\030x\205\377"
 1937      B7010020 
 1937      0CC36427 
 1937      94031878 
 1937      85FF
 1938 0012 1F236C4C 		.ascii	"\037#lL*\007H\244\304~\3548:Q:@\253\316&\332_\236\310"
 1938      2A0748A4 
 1938      C47EEC38 
 1938      3A513A40 
 1938      ABCE26DA 
 1939 0029 55011720 		.ascii	"U\001\027 \335\000\355"
 1939      DD00ED
 1940              		.text
ARM GAS  /tmp/cc5zVToH.s 			page 56


 1941              		.section	.gnu.lto_.decls.4d9ac12d6374d524,"e",%progbits
 1942 0000 789C9D55 		.ascii	"x\234\235Ukp\023\327\025\276\347^YZ\255e\354\0011\374"
 1942      6B7013D7 
 1942      15BEE75E 
 1942      595AAD65 
 1942      EC0131FC 
 1943 0014 68877A32 		.ascii	"h\207z2\311\340d\212e\313\330$\377\014nI\031J\312\304"
 1943      C9E0648A 
 1943      65CBD824 
 1943      FF0C6E49 
 1943      194ACAC4 
 1944 0028 C94CC99F 		.ascii	"\311L\311\237\255\320n\220\006\313r\254\205@\177-\017"
 1944      ADD06E90 
 1944      06CB72AC 
 1944      85407F2D 
 1944      0F
 1945 0039 63771C67 		.ascii	"cw\034g\004\231f\314#\224\224\264\241Ih\335\231\220"
 1945      049966CC 
 1945      239494B4 
 1945      A14968DD 
 1945      9990
 1946 004b E0881023 		.ascii	"\340\210\020#CP0\017\207\230$@\014\006\203#\022\022"
 1946      4350300F 
 1946      87982440 
 1946      0C068323 
 1946      1212
 1947 005d F3708AE3 		.ascii	"\363p\212\343\222\320s\357\256V\306\017\246\355\332"
 1947      92D073EF 
 1947      AE56C60F 
 1947      A6EDDA
 1948 006c 67F7DEBB 		.ascii	"g\367\336\273\337\367\235s\317=:\373s7!\333)!O\241\335"
 1948      DFF79D73 
 1948      CF3D3AFB 
 1948      733721DB 
 1948      29214FA1 
 1949 0081 C5CB4508 		.ascii	"\305\313E\010\371\030\015\247d)Z\202\230\227\023-\211"
 1949      F9180DA7 
 1949      64295A82 
 1949      9897132D 
 1949      89
 1950 0092 96423B8A 		.ascii	"\226B;\212v\014\355\204\205eh\027\321.\243\015\220{"
 1950      760CED84 
 1950      85656817 
 1950      D12EA30D 
 1950      907B
 1951 00a4 AF0630B9 		.ascii	"\257\0060\271!\264/\321\372\320\316\242\245\321\372"
 1951      21B42FD1 
 1951      FAD0CEA2 
 1951      A5D1FA
 1952 00b3 2D3F5FA0 		.ascii	"-?_\240\365\242\201\345\343~z\233\020$\341s*\232\027"
 1952      F5A281E5 
 1952      E37E7A9B 
 1952      1024E173 
 1952      2A9A17
 1953 00c6 6DB915E3 		.ascii	"m\271\025\343RK7\343c\254n\312z^\034\243\367\307\377"
 1953      524B37E3 
 1953      63AC6ECA 
ARM GAS  /tmp/cc5zVToH.s 			page 57


 1953      7A5E1CA3 
 1953      F7C7FF
 1954 00d9 41AFD7D2 		.ascii	"A\257\327\322\004+\007\023\351m\301Ey\022\275kh7\321"
 1954      042B0713 
 1954      E96DC145 
 1954      7912BD6B 
 1954      6837D1
 1955 00ec 6EA30DA3 		.ascii	"n\243\015\243\035\2618.+\237?\022S\224\241\345\360\270"
 1955      1DB1382E 
 1955      2B9F3F12 
 1955      5394A1E5 
 1955      F0B8
 1956 00fe C08C7BEC 		.ascii	"\300\214{\354\365\312\377\351\343\304$>\216N\340c\027"
 1956      F5CAFFE9 
 1956      E3C4243E 
 1956      8E4EE063 
 1956      17
 1957 010f 989C8C8F 		.ascii	"\230\234\214\217\204\225\217g\356\223\223\217'\311\311"
 1957      84958F67 
 1957      EE93938F 
 1957      27C9C9
 1958 011e 66064B81 		.ascii	"f\006K\201\027W\276\030\021F\211\317\020\327\272\031"
 1958      1757BE18 
 1958      114689CF 
 1958      10D7BA19 
 1959 012e 04DE0101 		.ascii	"\004\336\001\001*\317e\2138r*8\360\356\205\302m\214"
 1959      2ACF658B 
 1959      38722A38 
 1959      F0EE85C2 
 1959      6D8C
 1960 0140 6EBE753B 		.ascii	"n\276u;\345\224;\014\343\272\321\261\301M\340=\200v"
 1960      E5943B0C 
 1960      E3BAD1B1 
 1960      C14DE03D 
 1960      8076
 1961 0152 20B00F50 		.ascii	" \260\017P\345]\200\275\000o\003\302\336\354O\364z\256"
 1961      E55D80BD 
 1961      006F03C2 
 1961      DEEC4FF4 
 1961      7AAE
 1962 0164 8088C7A1 		.ascii	"\200\210\307\241\002\300\347\025x\223\3113\214x\015"
 1962      02C0E715 
 1962      7893C933 
 1962      8C780D
 1963 0173 6A50A7CA 		.ascii	"jP\247\312\250\314d\246\312)\230Y4\304*%Z\224/K\273"
 1963      A8CC64A6 
 1963      CA299859 
 1963      34C42A25 
 1963      5A942F4B 
 1964 0188 3BA140CE 		.ascii	";\241@\316\221(M\273T\271h\004\336\242;\235\205\225"
 1964      91284DBB 
 1964      54B96804 
 1964      DEA23B9D 
 1964      8595
 1965 019a 86437D61 		.ascii	"\206C}az\332e\320\370\023\336\262J\274\247])P\221\265"
 1965      7ADA65D0 
 1965      F813DEB2 
ARM GAS  /tmp/cc5zVToH.s 			page 58


 1965      4ABCA75D 
 1965      295091B5 
 1966 01ae C42115E0 		.ascii	"\304!\025\340(\355\222\207\330\316\026\247z\2346\315"
 1966      28ED9287 
 1966      D8CE16A7 
 1966      7A9C36CD 
 1967 01be 8214C8AA 		.ascii	"\202\024\310\252\337\213;\251\224\244\231\371I\226d"
 1967      DF8B3BA9 
 1967      94A499F9 
 1967      499664
 1968 01cd 0B30A752 		.ascii	"\0130\247R\333\337\247\313iW>J\024\251\205\005ja~\012"
 1968      DBDFA7CB 
 1968      69573E4A 
 1968      14A98505 
 1968      6A617E0A 
 1969 01e1 725455F6 		.ascii	"rTU\366\026\021\014B\365\373+\251\214\312\016)\005~"
 1969      16110C42 
 1969      F5FB2BA9 
 1969      8CCA0E29 
 1969      057E
 1970 01f3 061EBF71 		.ascii	"\006\036\277q\361\353\031r\216\354\236YXD\210J\026P"
 1970      F1EB1972 
 1970      8EEC9E59 
 1970      5844884A 
 1970      1650
 1971 0205 D4657733 		.ascii	"\324ew3\027\270\320\247\232\235\002\024\311\324O\331"
 1971      17B8D0A7 
 1971      9A9D0214 
 1971      C9D44FD9 
 1972 0215 A2341E10 		.ascii	"\2424\036\020\245\205\204\030\016\311\343\001\003\037"
 1972      A5858418 
 1972      0EC9E301 
 1972      031F
 1973 0223 6E6591BA 		.ascii	"ne\221\272\304/\223\264\213\342+\257\003\014\012Y\246"
 1973      C42F93B4 
 1973      8BE22BAF 
 1973      030C0A59 
 1973      A6
 1974 0234 EC24006F 		.ascii	"\354$\000o\340\321\233\177\374\006\326\015\370\024\314"
 1974      E0D19B7F 
 1974      FC06D60D 
 1974      F814CC
 1975 0243 1E907123 		.ascii	"\036\220q#\326\371\231R\013\315!\346\252\375\260\306"
 1975      D6F99952 
 1975      0BCD21E6 
 1975      AAFDB0C6 
 1976 0253 1C402D1D 		.ascii	"\034@-\035j\035;\230\034\313\011\277\217\022\267!`A"
 1976      6A1D3B98 
 1976      1CCB09BF 
 1976      8F12B721 
 1976      6041
 1977 0265 323A26C7 		.ascii	"2:&\307\002\330\\k\310}\0100\035\315\021\274{\002\317"
 1977      02D85C6B 
 1977      C87D0830 
 1977      1DCD11BC 
 1977      7B02CF
 1978 0278 4A125B36 		.ascii	"J\022[6\023\0221'X7\007_:\327\2303\200y3\366\265\244"
ARM GAS  /tmp/cc5zVToH.s 			page 59


 1978      13123127 
 1978      5837075F 
 1978      3AD79833 
 1978      807933F6 
 1979 028e 184C8F57 		.ascii	"\030L\217W\022`+\314\"\244\242\010\013\020\325\230x"
 1979      12602BCC 
 1979      22A4A208 
 1979      0B10D598 
 1979      78
 1980 029f B14B9E81 		.ascii	"\261K\236\201\240k\206\341\205\020t\000|\300\035\034"
 1980      A06B86E1 
 1980      85107400 
 1980      7CC01D1C 
 1981 02af 44EDA8D0 		.ascii	"D\355\250\320\271\323\263\341\220\353\201\326Vc\270"
 1981      B9D3B3E1 
 1981      90EB81D6 
 1981      5663B8
 1982 02be B771E0CF 		.ascii	"\267q\340\317\217\\\334g\030\015\210\2278\006\016\000"
 1982      8F5CDC67 
 1982      180D8897 
 1982      38060E00 
 1983 02ce 96AAF07D 		.ascii	"\226\252\360}\000\011\357\003\354\207\362\221\\v\022"
 1983      0009EF03 
 1983      EC87F291 
 1983      5C7612
 1984 02dd 3873DB07 		.ascii	"8s\333\007\355\257;\034\374e\002 \212\013\357\3677\267"
 1984      EDAF3B1C 
 1984      FC650220 
 1984      8A0BEFF7 
 1984      37B7
 1985 02ef 39C5C252 		.ascii	"9\305\302R8\304k\273a\260\257\0072\210\303|eO\337\211"
 1985      38C46BBB 
 1985      61B0AF07 
 1985      3288C37C 
 1985      654FDF89 
 1986 0303 33921DCF 		.ascii	"3\222\035\317r;\236#(\377!\210\200\206\016n\374.\217"
 1986      723B9E23 
 1986      28FF2188 
 1986      80860E6E 
 1986      FC2E8F
 1987 0316 07743DDD 		.ascii	"\007t=\335\377\334n^\235\370\026:\355H:\355H6\345\262"
 1987      FFDC6E5E 
 1987      9DF8163A 
 1987      ED483AED 
 1987      4836E5B2 
 1988 032a CB2212E3 		.ascii	"\313\"\022\343\374+\257RNi\373[C\243Q\260\016I\016N"
 1988      FC2BAF52 
 1988      4E69FB5B 
 1988      43A351B0 
 1988      0E490E4E 
 1989 033e FAC8267D 		.ascii	"\372\310&}d\223v\313lX\220N\365\357}q\212 }u\017\251"
 1989      649376CB 
 1989      6C58904E 
 1989      F5EF7D71 
 1989      8A207D75 
 1990 0354 CB2675D9 		.ascii	"\313&u\331\244\253n\366\002\345\244--\337\177\223/H"
 1990      A4AB6EF6 
ARM GAS  /tmp/cc5zVToH.s 			page 60


 1990      02E5A42D 
 1990      2DDF7F93 
 1990      2F48
 1991 0366 5B1B4793 		.ascii	"[\033G\223\216\333\244\3436\351\0157\373\223 ]\370\347"
 1991      8EDBA4E3 
 1991      36E90D37 
 1991      FB93205D 
 1991      F8E7
 1992 0378 FEE629F6 		.ascii	"\376\346)\366\2461\025\231]w\333\247\2605~vs\256\330"
 1992      A6311599 
 1992      5D77DBA7 
 1992      B0357E76 
 1992      73AED8
 1993 038b 74A271E3 		.ascii	"t\242q\343\224n\336^\334\370\032N\332\272'm\335\035"
 1993      946EDE5E 
 1993      DCF81A4E 
 1993      DABA276D 
 1993      DD1D
 1994 039d 6ED646CD 		.ascii	"n\326F\315\203\226\304Aw\020\226\020\013?\205\273 \036"
 1994      8396C441 
 1994      77109610 
 1994      0B3F85BB 
 1994      201E
 1995 03af 84750ACF 		.ascii	"\204u\012\317\307>l\301\0379\366\240\264\221\\\313\010"
 1995      C73E6CC1 
 1995      1F39F6A0 
 1995      B4915CCB 
 1995      08
 1996 03c0 94410981 		.ascii	"\224A\011\201\317\001\021\330\201>\003\370\224\237\311"
 1996      CF0111D8 
 1996      813E03F8 
 1996      949FC9
 1997 03cf D0A1D75E 		.ascii	"\320\241\327^\313\365\210F\2653\351\2003`\265*\002g"
 1997      CBF58846 
 1997      B533E980 
 1997      3360B52A 
 1997      0267
 1998 03e1 79AFEDE2 		.ascii	"y\257\355\342J\316\346m\211\215\354\301\007\247!l\270"
 1998      4ACEE66D 
 1998      898DECC1 
 1998      07A7216C 
 1998      B8
 1999 03f2 E7E53DEB 		.ascii	"\347\345=\353]\333\261\253y\020\001\247\001\316g)>\264"
 1999      5DDBB1AB 
 1999      791001A7 
 1999      01CE6729 
 1999      3EB4
 2000 0404 5282A8B6 		.ascii	"R\202\250\266\366\365\230 \023rn\034\344= \270\305\015"
 2000      F6F59820 
 2000      13726E1C 
 2000      E43D20B8 
 2000      C50D
 2001 0416 86D1E120 		.ascii	"\206\321\341 \320\003\360\011\177q\236o\026\276\000"
 2001      D003F009 
 2001      7F719E6F 
 2001      16BE00
 2002 0425 E8E55B66 		.ascii	"\350\345[f\0300Fwf\317\300m\2306\026\014\027`\014\034"
ARM GAS  /tmp/cc5zVToH.s 			page 61


 2002      18304677 
 2002      66CFC06D 
 2002      9836160C 
 2002      17600C1C 
 2003 0439 A17B9B92 		.ascii	"\241{\233\222\373\362\036j\215\033\303\255\315#\025"
 2003      FBF21E6A 
 2003      8D1BC3AD 
 2003      CD2315
 2004 0448 6B110E7D 		.ascii	"k\021\016}\000\247\004,\343\343\024\220\362\227\335"
 2004      00A7042C 
 2004      E3E31490 
 2004      F297DD
 2005 0457 AC5968F7 		.ascii	"\254Yh\367\234\331\332\355\236jj\377\0167.\022\335\017"
 2005      9CD9DAED 
 2005      9E6A6AFF 
 2005      0E372E12 
 2005      DD0F
 2006 0469 D62FACEF 		.ascii	"\326/\254\357\326\376\270\364P+\346\345\315\316\243"
 2006      D6FEB8F4 
 2006      502BE6E5 
 2006      CDCEA3
 2007 0478 860125F8 		.ascii	"\206\001%\370\012.\331\007r\211'g\213\320\271\361\227"
 2007      0A2ED907 
 2007      72892767 
 2007      8BD0B9F1 
 2007      97
 2008 0489 C3433247 		.ascii	"\303C2G\266\275\265\313\350(\000\016\274b\003\257\230"
 2008      B6BDB5CB 
 2008      E828000E 
 2008      BC6203AF 
 2008      98
 2009 049a 757D73CF 		.ascii	"u}s\317\356\313R6\315}\331\204|i\002Zom\357\316\317"
 2009      EECB5236 
 2009      CD7DD984 
 2009      7C69025A 
 2009      6F6DEFCE 
 2010 04af 02FAB380 		.ascii	"\002\372\263\2004\210\357\320,\373;4\013O\370\257\302"
 2010      3488EFD0 
 2010      2CFB3B34 
 2010      0B4FF8AF 
 2010      C2
 2011 04c0 F5B5C357 		.ascii	"\365\265\303W\217\345\215\377\312|\015\210\301m\177"
 2011      8FE58DFF 
 2011      CA7C0D88 
 2011      C16D7F
 2012 04cf 0570959F 		.ascii	"\005p\225\237\361\336o\357\264\345\310\206\005\303\312"
 2012      F1DE6FEF 
 2012      B4E5C886 
 2012      05C3CA
 2013 04de C9487F83 		.ascii	"\311H\177\203`\037\224\260\177p5\347\017=\247\273]\362"
 2013      601F94B0 
 2013      7F7035E7 
 2013      0F3DA7BB 
 2013      5DF2
 2014 04f0 4F00F07F 		.ascii	"O\000\360\177L\325|\0130\210\330\353\0007\260\245\016"
 2014      4CD57C0B 
 2014      3088D8EB 
ARM GAS  /tmp/cc5zVToH.s 			page 62


 2014      0037B0A5 
 2014      0E
 2015 0501 0296FE9D 		.ascii	"\002\226\376\235\237\341\023\305O\357\032\331\317\354"
 2015      9FE113C5 
 2015      4FEF1AD9 
 2015      CFEC
 2016 050f 340E66EB 		.ascii	"4\016f\353\373&\010\007f\255:\021\371z{S\227{\2420\206"
 2016      FB260807 
 2016      66AD3A11 
 2016      F97A7B53 
 2016      977BA230 
 2017 0524 4418B740 		.ascii	"D\030\267@ ]\242\252\037E\374'\375\003\311\374\321\312"
 2017      205DA2AA 
 2017      1F45FC27 
 2017      FD03C9FC 
 2017      D1CA
 2018 0536 FF02F88E 		.ascii	"\377\002\370\216\343o\203\340\360\014\2743\260u\207"
 2018      E36F83E0 
 2018      F00CBC33 
 2018      B07587
 2019 0545 239BB623 		.ascii	"#\233\266#\331\264\015\213#`o3\202\2376\016mNvn\347"
 2019      D9B40D8B 
 2019      23606F33 
 2019      829F360E 
 2019      6D4E766E 
 2020 055a 0D0A464C 		.ascii	"\015\012FLj\274\251\247B\264\247kf\003;\333\262\345"
 2020      6ABCA9A7 
 2020      42B4A76B 
 2020      66033BDB 
 2020      B2E5
 2021 056c 0FAE09BA 		.ascii	"\017\256\011\272\345\017\350\355\016\016\036\210c\233"
 2021      E50FE8ED 
 2021      0E0E1E88 
 2021      639B
 2022 057a ECDE716E 		.ascii	"\354\336qnp\012V?&\340\240\027_\301\367\346I\303\277"
 2022      700A563F 
 2022      26E0A017 
 2022      5FC1F7E6 
 2022      49C3BF
 2023 058d 017EE4B3 		.ascii	"\001~\344\263\314\357\364\206\207\275\34409#\227\342"
 2023      CCEFF486 
 2023      87BDE430 
 2023      392397E2 
 2024 059d EDA5C9F5 		.ascii	"\355\245\311\365\006\266\263\370\257xc\275kU\207\370"
 2024      06B6B3F8 
 2024      AF7863BD 
 2024      6B5587F8 
 2025 05ad C4D98C4F 		.ascii	"\304\331\214O=\354\260c\\\240B\341\300@\367g\316\204"
 2025      3DECB063 
 2025      5CA042E1 
 2025      C040F767 
 2025      CE84
 2026 05bf D99CD73D 		.ascii	"\331\234\327=,\232\363Zj\372]Ga=\305YF%\355a\0159\031"
 2026      2C9AF35A 
 2026      6AFA5D47 
 2026      613DC559 
 2026      4625ED61 
ARM GAS  /tmp/cc5zVToH.s 			page 63


 2027 05d6 BFDD897B 		.ascii	"\277\335\211{\374n\240\226\337\006\212c\273Sy\330\246"
 2027      FC6EA096 
 2027      DF068A63 
 2027      BB5379D8 
 2027      A6
 2028 05e7 9C49FDF6 		.ascii	"\234I\375\366\216\361\273\321\362\333H\241\211\342,"
 2028      8EF1BBD1 
 2028      F2DB48A1 
 2028      89E22C
 2029 05f6 A372C143 		.ascii	"\243r\301C\036.\366U\205\302\313\302\277\251V\374%\305"
 2029      1E2EF655 
 2029      85C2CBC2 
 2029      BFA956FC 
 2029      25C5
 2030 0608 65C525BE 		.ascii	"e\305%\276h\014\377k\302\313|\261\372\240/\030\212h"
 2030      680CFF6B 
 2030      C2CB7CB1 
 2030      FAA02F18 
 2030      8A68
 2031 061a 9160B45E 		.ascii	"\221`\264^+\016J\217?\361taU\351\\2}\324b\361\234\307"
 2031      2B0E4A8F 
 2031      3FF17461 
 2031      55E95C32 
 2031      7DD462F1 
 2032 0630 4AFDCFCE 		.ascii	"J\375\317\316-\177\2148c\341\337k\212\316J+\210;P\037"
 2032      2D7F8C38 
 2032      63E1DF6B 
 2032      8ACE4A2B 
 2032      883B501F 
 2033 0644 5935579B 		.ascii	"Y5W\233\035!2\242tm\365\354\310\034\"+\234\241\204k"
 2033      1D2132A2 
 2033      746DF5EC 
 2033      C81C222B 
 2033      9CA1846B 
 2034 0658 C3FA6C5F 		.ascii	"\303\372l_(\032\321|\341@\244\256>\254\207V\205c!M\327"
 2034      281AD17C 
 2034      E140A4AE 
 2034      3EAC8756 
 2034      8563214D 
 2035 066d D7F8AA7E 		.ascii	"\327\370\252~Q]\027\010j\276H$X6\247\264B\321\265\230"
 2035      515D1708 
 2035      6ABE4824 
 2035      5836A7B4 
 2035      42D1B598 
 2036 0681 EE278FFC 		.ascii	"\356'\217\374\327\021\022o0T\205\243y55\321\340\202"
 2036      D711126F 
 2036      305485A3 
 2036      793535D1 
 2036      E082
 2037 0693 FA68647E 		.ascii	"\372hd~ \246-\2346f\361\251h\335\2705\016\234:\036W"
 2037      20A62D9C 
 2037      3666F1A9 
 2037      68DDB835 
 2037      0E9C3A1E 
 2038 06a8 602E3DAE 		.ascii	"`.=\256\351\325z@_\031\373\255\034\014)\226;\3272\344"
 2038      E9D57A40 
 2038      5F19FBAD 
ARM GAS  /tmp/cc5zVToH.s 			page 64


 2038      1C0C2996 
 2038      3BD732E4 
 2039 06bc E0D8B532 		.ascii	"\340\330\2652\\\253?\252\350N=Z\207\323\342\311\243"
 2039      5CAB3FAA 
 2039      E84E3D5A 
 2039      87D3E2C9 
 2039      A3
 2040 06cd 0DD7066B 		.ascii	"\015\327\006kV\252\332\250\210C\304m\015\025=OQBZ\240"
 2040      56AADAA8 
 2040      8843C46D 
 2040      0D153D4F 
 2040      51425AA0 
 2041 06e1 4EE1B28A 		.ascii	"N\341\262\212\342\261fZ\255\252(\022wQ\346WtG0\024\250"
 2041      E2B1665A 
 2041      ADAA2812 
 2041      7751E657 
 2041      74473014 
 2042 06f6 47604CD3 		.ascii	"G`L\323\225\371\363\252\177\271\344\311\205y\201\232"
 2042      95F9F3AA 
 2042      7FB9E4C9 
 2042      8579819A 
 2043 0706 E7036B62 		.ascii	"\347\003kb\230\327\232p\2556\177\"\357\301h$\022\255"
 2043      98D79A70 
 2043      AD367F22 
 2043      EFC16824 
 2043      12AD
 2044 0718 F569AB75 		.ascii	"\365i\253u\337\274'\027\373\252\026W/\254\366\361}\371"
 2044      DFBC2717 
 2044      FBAA1657 
 2044      2FACF6F1 
 2044      7DF9
 2045 072a 1666228A 		.ascii	"\026f\"\212\304\3021ey0\310#\012\206\252\327\304~\035"
 2045      C4C23165 
 2045      7930C823 
 2045      0A86AAD7 
 2045      C47E1D
 2046 073d 0DAE9835 		.ascii	"\015\256\2305\221X\275>j\037\26151\316\250\303CV0k+"
 2046      9158BD3E 
 2046      6A1FB135 
 2046      31CEA8C3 
 2046      4356306B 
 2047 0752 CAEFE39E 		.ascii	"\312\357\343\236\203b<\200\252\305\253\221*6\275jn\004"
 2047      83623C80 
 2047      AAC5AB91 
 2047      2A36BD6A 
 2047      6E04
 2048 0764 F9B9C2E3 		.ascii	"\371\271\302\343\323\265\\!Wh\255\024\343\377\000\244"
 2048      D3B55C21 
 2048      5768AD14 
 2048      E3FF00A4 
 2049 0774 B0C831   		.ascii	"\260\3101"
 2050              		.text
 2051              		.section	.gnu.lto_.symtab.4d9ac12d6374d524,"e",%progbits
 2052 0000 5F636F72 		.ascii	"_core_init\000"
 2052      655F696E 
 2052      697400
 2053 000b 00       		.ascii	"\000"
ARM GAS  /tmp/cc5zVToH.s 			page 65


 2054 000c 00       		.ascii	"\000"
 2055 000d 00       		.ascii	"\000"
 2056 000e 00000000 		.ascii	"\000\000\000\000\000\000\000\000"
 2056      00000000 
 2057 0016 C2000000 		.ascii	"\302\000\000\000"
 2058 001a 63685F6D 		.ascii	"ch_memcore\000"
 2058      656D636F 
 2058      726500
 2059 0025 00       		.ascii	"\000"
 2060 0026 00       		.ascii	"\000"
 2061 0027 00       		.ascii	"\000"
 2062 0028 00000000 		.ascii	"\000\000\000\000\000\000\000\000"
 2062      00000000 
 2063 0030 E1000000 		.ascii	"\341\000\000\000"
 2064 0034 6368436F 		.ascii	"chCoreAllocFromBaseI\000"
 2064      7265416C 
 2064      6C6F6346 
 2064      726F6D42 
 2064      61736549 
 2065 0049 00       		.ascii	"\000"
 2066 004a 00       		.ascii	"\000"
 2067 004b 00       		.ascii	"\000"
 2068 004c 00000000 		.ascii	"\000\000\000\000\000\000\000\000"
 2068      00000000 
 2069 0054 C8000000 		.ascii	"\310\000\000\000"
 2070 0058 6368436F 		.ascii	"chCoreAllocFromTopI\000"
 2070      7265416C 
 2070      6C6F6346 
 2070      726F6D54 
 2070      6F704900 
 2071 006c 00       		.ascii	"\000"
 2072 006d 00       		.ascii	"\000"
 2073 006e 00       		.ascii	"\000"
 2074 006f 00000000 		.ascii	"\000\000\000\000\000\000\000\000"
 2074      00000000 
 2075 0077 CA000000 		.ascii	"\312\000\000\000"
 2076 007b 6368436F 		.ascii	"chCoreAllocFromBase\000"
 2076      7265416C 
 2076      6C6F6346 
 2076      726F6D42 
 2076      61736500 
 2077 008f 00       		.ascii	"\000"
 2078 0090 00       		.ascii	"\000"
 2079 0091 00       		.ascii	"\000"
 2080 0092 00000000 		.ascii	"\000\000\000\000\000\000\000\000"
 2080      00000000 
 2081 009a CC000000 		.ascii	"\314\000\000\000"
 2082 009e 6368436F 		.ascii	"chCoreAllocFromTop\000"
 2082      7265416C 
 2082      6C6F6346 
 2082      726F6D54 
 2082      6F7000
 2083 00b1 00       		.ascii	"\000"
 2084 00b2 00       		.ascii	"\000"
 2085 00b3 00       		.ascii	"\000"
 2086 00b4 00000000 		.ascii	"\000\000\000\000\000\000\000\000"
 2086      00000000 
ARM GAS  /tmp/cc5zVToH.s 			page 66


 2087 00bc CE000000 		.ascii	"\316\000\000\000"
 2088 00c0 6368436F 		.ascii	"chCoreGetStatusX\000"
 2088      72654765 
 2088      74537461 
 2088      74757358 
 2088      00
 2089 00d1 00       		.ascii	"\000"
 2090 00d2 00       		.ascii	"\000"
 2091 00d3 00       		.ascii	"\000"
 2092 00d4 00000000 		.ascii	"\000\000\000\000\000\000\000\000"
 2092      00000000 
 2093 00dc D1000000 		.ascii	"\321\000\000\000"
 2094 00e0 5F5F6865 		.ascii	"__heap_base__\000"
 2094      61705F62 
 2094      6173655F 
 2094      5F00
 2095 00ee 00       		.ascii	"\000"
 2096 00ef 02       		.ascii	"\002"
 2097 00f0 00       		.ascii	"\000"
 2098 00f1 00000000 		.ascii	"\000\000\000\000\000\000\000\000"
 2098      00000000 
 2099 00f9 E4000000 		.ascii	"\344\000\000\000"
 2100 00fd 5F5F6865 		.ascii	"__heap_end__\000"
 2100      61705F65 
 2100      6E645F5F 
 2100      00
 2101 010a 00       		.ascii	"\000"
 2102 010b 02       		.ascii	"\002"
 2103 010c 00       		.ascii	"\000"
 2104 010d 00000000 		.ascii	"\000\000\000\000\000\000\000\000"
 2104      00000000 
 2105 0115 E6000000 		.ascii	"\346\000\000\000"
 2106              		.text
 2107              		.section	.gnu.lto_.ext_symtab.4d9ac12d6374d524,"e",%progbits
 2108 0000 01       		.ascii	"\001"
 2109 0001 01       		.ascii	"\001"
 2110 0002 00       		.ascii	"\000"
 2111 0003 02       		.ascii	"\002"
 2112 0004 01       		.ascii	"\001"
 2113 0005 01       		.ascii	"\001"
 2114 0006 00       		.ascii	"\000"
 2115 0007 01       		.ascii	"\001"
 2116 0008 00       		.ascii	"\000"
 2117 0009 01       		.ascii	"\001"
 2118 000a 00       		.ascii	"\000"
 2119 000b 01       		.ascii	"\001"
 2120 000c 00       		.ascii	"\000"
 2121 000d 01       		.ascii	"\001"
 2122 000e 00       		.ascii	"\000"
 2123 000f 02       		.ascii	"\002"
 2124 0010 01       		.ascii	"\001"
 2125 0011 02       		.ascii	"\002"
 2126 0012 01       		.ascii	"\001"
 2127              		.text
 2128              		.section	.gnu.lto_.opts,"e",%progbits
 2129 0000 272D666E 		.ascii	"'-fno-openmp' '-fno-openacc' '-fno-pie' '-fcf-prote"
 2129      6F2D6F70 
ARM GAS  /tmp/cc5zVToH.s 			page 67


 2129      656E6D70 
 2129      2720272D 
 2129      666E6F2D 
 2130 0033 6374696F 		.ascii	"ction=none' '-g' '-mcpu=cortex-m4' '-mthumb' '-mflo"
 2130      6E3D6E6F 
 2130      6E652720 
 2130      272D6727 
 2130      20272D6D 
 2131 0066 61742D61 		.ascii	"at-abi=soft' '-march=armv7e-m' '-O2' '-fomit-frame-"
 2131      62693D73 
 2131      6F667427 
 2131      20272D6D 
 2131      61726368 
 2132 0099 706F696E 		.ascii	"pointer' '-falign-functions=16' '-ffunction-section"
 2132      74657227 
 2132      20272D66 
 2132      616C6967 
 2132      6E2D6675 
 2133 00cc 73272027 		.ascii	"s' '-fdata-sections' '-fno-common' '-flto' '-Xassem"
 2133      2D666461 
 2133      74612D73 
 2133      65637469 
 2133      6F6E7327 
 2134 00ff 626C6572 		.ascii	"bler' '-alms=./build/lst/chmemcore.lst'\000"
 2134      2720272D 
 2134      616C6D73 
 2134      3D2E2F62 
 2134      75696C64 
 2135              		.text
 2136              		.comm	__gnu_lto_slim,1,1
 2137              		.ident	"GCC: (GNU Arm Embedded Toolchain 10-2020-q4-major) 10.2.1 20201103 (release)"
ARM GAS  /tmp/cc5zVToH.s 			page 68


DEFINED SYMBOLS
                            *ABS*:0000000000000000 chmemcore.c
     /tmp/cc5zVToH.s:30     .gnu.debuglto_.debug_info:0000000000000000 chmemcore.c.4912f759
                            *COM*:0000000000000001 __gnu_lto_slim

NO UNDEFINED SYMBOLS
