ARM GAS  /tmp/cc7A5JCV.s 			page 1


   1              		.cpu cortex-m4
   2              		.eabi_attribute 20, 1
   3              		.eabi_attribute 21, 1
   4              		.eabi_attribute 23, 3
   5              		.eabi_attribute 24, 1
   6              		.eabi_attribute 25, 1
   7              		.eabi_attribute 26, 1
   8              		.eabi_attribute 30, 2
   9              		.eabi_attribute 34, 1
  10              		.eabi_attribute 18, 4
  11              		.file	"chmtx.c"
  12              		.file 1 "/usr/share/gcc-arm-none-eabi-10-2020-q4-major/arm-none-eabi/include/machine/_default_type
  13              		.file 2 "/usr/share/gcc-arm-none-eabi-10-2020-q4-major/arm-none-eabi/include/sys/_stdint.h"
  14              		.file 3 "./ChibiOS_20.3.0/os/common/ports/ARMCMx/compilers/GCC/chtypes.h"
  15              		.file 4 "./ChibiOS_20.3.0/os/rt/include/chsystypes.h"
  16              		.file 5 "./ChibiOS_20.3.0/os/rt/include/chschd.h"
  17              		.file 6 "./ChibiOS_20.3.0/os/rt/include/chtime.h"
  18              		.file 7 "./ChibiOS_20.3.0/os/common/ports/ARMCMx/chcore.h"
  19              		.file 8 "./ChibiOS_20.3.0/os/common/ports/ARMCMx/chcore_v7m.h"
  20              		.file 9 "./ChibiOS_20.3.0/os/rt/include/chtm.h"
  21              		.file 10 "./ChibiOS_20.3.0/os/rt/include/chsem.h"
  22              		.file 11 "./ChibiOS_20.3.0/os/rt/include/chmtx.h"
  23              		.file 12 "./ChibiOS_20.3.0/os/rt/src/chmtx.c"
  24              		.file 13 "./ChibiOS_20.3.0/os/rt/include/chsys.h"
  25              		.file 14 "./ChibiOS_20.3.0/os/common/ext/ARM/CMSIS/Core/Include/cmsis_gcc.h"
  26              		.section	.gnu.debuglto_.debug_info,"e",%progbits
  27              	.Ldebug_info0:
  28              		.hidden	chmtx.c.2ed149b2
  29              		.weak	chmtx.c.2ed149b2
  30              	chmtx.c.2ed149b2:
  31 0000 E0090000 		.4byte	0x9e0
  32 0004 0400     		.2byte	0x4
  33 0006 00000000 		.4byte	.Ldebug_abbrev0
  34 000a 04       		.byte	0x4
  35 000b 01       		.uleb128 0x1
  36 000c 95020000 		.4byte	.LASF112
  37 0010 0C       		.byte	0xc
  38 0011 30040000 		.4byte	.LASF113
  39 0015 95010000 		.4byte	.LASF114
  40 0019 00000000 		.4byte	.Ldebug_line0
  41 001d 02       		.uleb128 0x2
  42 001e 04       		.byte	0x4
  43 001f 05       		.byte	0x5
  44 0020 696E7400 		.ascii	"int\000"
  45 0024 03       		.uleb128 0x3
  46 0025 04       		.byte	0x4
  47 0026 07       		.byte	0x7
  48 0027 F3010000 		.4byte	.LASF0
  49 002b 03       		.uleb128 0x3
  50 002c 08       		.byte	0x8
  51 002d 05       		.byte	0x5
  52 002e 5D010000 		.4byte	.LASF1
  53 0032 03       		.uleb128 0x3
  54 0033 08       		.byte	0x8
  55 0034 04       		.byte	0x4
  56 0035 FA040000 		.4byte	.LASF2
  57 0039 03       		.uleb128 0x3
ARM GAS  /tmp/cc7A5JCV.s 			page 2


  58 003a 01       		.byte	0x1
  59 003b 06       		.byte	0x6
  60 003c D3000000 		.4byte	.LASF3
  61 0040 04       		.uleb128 0x4
  62 0041 29000000 		.4byte	.LASF7
  63 0045 01       		.byte	0x1
  64 0046 2B       		.byte	0x2b
  65 0047 18       		.byte	0x18
  66 0048 4C000000 		.4byte	0x4c
  67 004c 03       		.uleb128 0x3
  68 004d 01       		.byte	0x1
  69 004e 08       		.byte	0x8
  70 004f 71040000 		.4byte	.LASF4
  71 0053 03       		.uleb128 0x3
  72 0054 02       		.byte	0x2
  73 0055 05       		.byte	0x5
  74 0056 7F040000 		.4byte	.LASF5
  75 005a 03       		.uleb128 0x3
  76 005b 02       		.byte	0x2
  77 005c 07       		.byte	0x7
  78 005d 24020000 		.4byte	.LASF6
  79 0061 04       		.uleb128 0x4
  80 0062 67030000 		.4byte	.LASF8
  81 0066 01       		.byte	0x1
  82 0067 4D       		.byte	0x4d
  83 0068 18       		.byte	0x18
  84 0069 6D000000 		.4byte	0x6d
  85 006d 03       		.uleb128 0x3
  86 006e 04       		.byte	0x4
  87 006f 05       		.byte	0x5
  88 0070 09010000 		.4byte	.LASF9
  89 0074 04       		.uleb128 0x4
  90 0075 8A010000 		.4byte	.LASF10
  91 0079 01       		.byte	0x1
  92 007a 4F       		.byte	0x4f
  93 007b 19       		.byte	0x19
  94 007c 80000000 		.4byte	0x80
  95 0080 03       		.uleb128 0x3
  96 0081 04       		.byte	0x4
  97 0082 07       		.byte	0x7
  98 0083 07020000 		.4byte	.LASF11
  99 0087 04       		.uleb128 0x4
 100 0088 00040000 		.4byte	.LASF12
 101 008c 01       		.byte	0x1
 102 008d 69       		.byte	0x69
 103 008e 19       		.byte	0x19
 104 008f 93000000 		.4byte	0x93
 105 0093 03       		.uleb128 0x3
 106 0094 08       		.byte	0x8
 107 0095 07       		.byte	0x7
 108 0096 68000000 		.4byte	.LASF13
 109 009a 04       		.uleb128 0x4
 110 009b 8A050000 		.4byte	.LASF14
 111 009f 02       		.byte	0x2
 112 00a0 18       		.byte	0x18
 113 00a1 13       		.byte	0x13
 114 00a2 40000000 		.4byte	0x40
ARM GAS  /tmp/cc7A5JCV.s 			page 3


 115 00a6 04       		.uleb128 0x4
 116 00a7 69040000 		.4byte	.LASF15
 117 00ab 02       		.byte	0x2
 118 00ac 2C       		.byte	0x2c
 119 00ad 13       		.byte	0x13
 120 00ae 61000000 		.4byte	0x61
 121 00b2 04       		.uleb128 0x4
 122 00b3 D4040000 		.4byte	.LASF16
 123 00b7 02       		.byte	0x2
 124 00b8 30       		.byte	0x30
 125 00b9 14       		.byte	0x14
 126 00ba 74000000 		.4byte	0x74
 127 00be 04       		.uleb128 0x4
 128 00bf 20000000 		.4byte	.LASF17
 129 00c3 02       		.byte	0x2
 130 00c4 3C       		.byte	0x3c
 131 00c5 14       		.byte	0x14
 132 00c6 87000000 		.4byte	0x87
 133 00ca 04       		.uleb128 0x4
 134 00cb 8B030000 		.4byte	.LASF18
 135 00cf 03       		.byte	0x3
 136 00d0 27       		.byte	0x27
 137 00d1 1D       		.byte	0x1d
 138 00d2 B2000000 		.4byte	0xb2
 139 00d6 04       		.uleb128 0x4
 140 00d7 73020000 		.4byte	.LASF19
 141 00db 03       		.byte	0x3
 142 00dc 2A       		.byte	0x2a
 143 00dd 1D       		.byte	0x1d
 144 00de 9A000000 		.4byte	0x9a
 145 00e2 04       		.uleb128 0x4
 146 00e3 20010000 		.4byte	.LASF20
 147 00e7 03       		.byte	0x3
 148 00e8 2B       		.byte	0x2b
 149 00e9 1D       		.byte	0x1d
 150 00ea 9A000000 		.4byte	0x9a
 151 00ee 04       		.uleb128 0x4
 152 00ef 0B040000 		.4byte	.LASF21
 153 00f3 03       		.byte	0x3
 154 00f4 2C       		.byte	0x2c
 155 00f5 1D       		.byte	0x1d
 156 00f6 9A000000 		.4byte	0x9a
 157 00fa 04       		.uleb128 0x4
 158 00fb 28040000 		.4byte	.LASF22
 159 00ff 03       		.byte	0x3
 160 0100 2E       		.byte	0x2e
 161 0101 1D       		.byte	0x1d
 162 0102 B2000000 		.4byte	0xb2
 163 0106 04       		.uleb128 0x4
 164 0107 41020000 		.4byte	.LASF23
 165 010b 03       		.byte	0x3
 166 010c 2F       		.byte	0x2f
 167 010d 1D       		.byte	0x1d
 168 010e A6000000 		.4byte	0xa6
 169 0112 04       		.uleb128 0x4
 170 0113 89020000 		.4byte	.LASF24
 171 0117 03       		.byte	0x3
ARM GAS  /tmp/cc7A5JCV.s 			page 4


 172 0118 31       		.byte	0x31
 173 0119 1D       		.byte	0x1d
 174 011a B2000000 		.4byte	0xb2
 175 011e 04       		.uleb128 0x4
 176 011f E0010000 		.4byte	.LASF25
 177 0123 03       		.byte	0x3
 178 0124 33       		.byte	0x33
 179 0125 1D       		.byte	0x1d
 180 0126 A6000000 		.4byte	0xa6
 181 012a 04       		.uleb128 0x4
 182 012b 18050000 		.4byte	.LASF26
 183 012f 04       		.byte	0x4
 184 0130 34       		.byte	0x34
 185 0131 1A       		.byte	0x1a
 186 0132 36010000 		.4byte	0x136
 187 0136 05       		.uleb128 0x5
 188 0137 37020000 		.4byte	.LASF44
 189 013b 44       		.byte	0x44
 190 013c 05       		.byte	0x5
 191 013d 8E       		.byte	0x8e
 192 013e 08       		.byte	0x8
 193 013f 26020000 		.4byte	0x226
 194 0143 06       		.uleb128 0x6
 195 0144 76010000 		.4byte	.LASF27
 196 0148 05       		.byte	0x5
 197 0149 8F       		.byte	0x8f
 198 014a 19       		.byte	0x19
 199 014b 5F020000 		.4byte	0x25f
 200 014f 00       		.byte	0
 201 0150 06       		.uleb128 0x6
 202 0151 F3030000 		.4byte	.LASF28
 203 0155 05       		.byte	0x5
 204 0156 90       		.byte	0x90
 205 0157 19       		.byte	0x19
 206 0158 FA000000 		.4byte	0xfa
 207 015c 08       		.byte	0x8
 208 015d 07       		.uleb128 0x7
 209 015e 63747800 		.ascii	"ctx\000"
 210 0162 05       		.byte	0x5
 211 0163 91       		.byte	0x91
 212 0164 19       		.byte	0x19
 213 0165 0D050000 		.4byte	0x50d
 214 0169 0C       		.byte	0xc
 215 016a 06       		.uleb128 0x6
 216 016b 7C030000 		.4byte	.LASF29
 217 016f 05       		.byte	0x5
 218 0170 93       		.byte	0x93
 219 0171 1A       		.byte	0x1a
 220 0172 32020000 		.4byte	0x232
 221 0176 10       		.byte	0x10
 222 0177 06       		.uleb128 0x6
 223 0178 12050000 		.4byte	.LASF30
 224 017c 05       		.byte	0x5
 225 017d 94       		.byte	0x94
 226 017e 1A       		.byte	0x1a
 227 017f 32020000 		.4byte	0x232
 228 0183 14       		.byte	0x14
ARM GAS  /tmp/cc7A5JCV.s 			page 5


 229 0184 06       		.uleb128 0x6
 230 0185 19020000 		.4byte	.LASF31
 231 0189 05       		.byte	0x5
 232 018a 9B       		.byte	0x9b
 233 018b 1A       		.byte	0x1a
 234 018c 2C060000 		.4byte	0x62c
 235 0190 18       		.byte	0x18
 236 0191 06       		.uleb128 0x6
 237 0192 06050000 		.4byte	.LASF32
 238 0196 05       		.byte	0x5
 239 0197 A4       		.byte	0xa4
 240 0198 1A       		.byte	0x1a
 241 0199 43060000 		.4byte	0x643
 242 019d 1C       		.byte	0x1c
 243 019e 06       		.uleb128 0x6
 244 019f 03010000 		.4byte	.LASF33
 245 01a3 05       		.byte	0x5
 246 01a4 A9       		.byte	0xa9
 247 01a5 19       		.byte	0x19
 248 01a6 E2000000 		.4byte	0xe2
 249 01aa 20       		.byte	0x20
 250 01ab 06       		.uleb128 0x6
 251 01ac 92050000 		.4byte	.LASF34
 252 01b0 05       		.byte	0x5
 253 01b1 AD       		.byte	0xad
 254 01b2 19       		.byte	0x19
 255 01b3 D6000000 		.4byte	0xd6
 256 01b7 21       		.byte	0x21
 257 01b8 06       		.uleb128 0x6
 258 01b9 13040000 		.4byte	.LASF35
 259 01bd 05       		.byte	0x5
 260 01be B2       		.byte	0xb2
 261 01bf 19       		.byte	0x19
 262 01c0 EE000000 		.4byte	0xee
 263 01c4 22       		.byte	0x22
 264 01c5 08       		.uleb128 0x8
 265 01c6 7500     		.ascii	"u\000"
 266 01c8 05       		.byte	0x5
 267 01c9 0301     		.2byte	0x103
 268 01cb 19       		.byte	0x19
 269 01cc 52050000 		.4byte	0x552
 270 01d0 24       		.byte	0x24
 271 01d1 09       		.uleb128 0x9
 272 01d2 C2010000 		.4byte	.LASF36
 273 01d6 05       		.byte	0x5
 274 01d7 0801     		.2byte	0x108
 275 01d9 19       		.byte	0x19
 276 01da 38020000 		.4byte	0x238
 277 01de 28       		.byte	0x28
 278 01df 09       		.uleb128 0x9
 279 01e0 FA000000 		.4byte	.LASF37
 280 01e4 05       		.byte	0x5
 281 01e5 0E01     		.2byte	0x10e
 282 01e7 19       		.byte	0x19
 283 01e8 5F020000 		.4byte	0x25f
 284 01ec 2C       		.byte	0x2c
 285 01ed 09       		.uleb128 0x9
ARM GAS  /tmp/cc7A5JCV.s 			page 6


 286 01ee 47020000 		.4byte	.LASF38
 287 01f2 05       		.byte	0x5
 288 01f3 1401     		.2byte	0x114
 289 01f5 19       		.byte	0x19
 290 01f6 12010000 		.4byte	0x112
 291 01fa 34       		.byte	0x34
 292 01fb 09       		.uleb128 0x9
 293 01fc CC050000 		.4byte	.LASF39
 294 0200 05       		.byte	0x5
 295 0201 1B01     		.2byte	0x11b
 296 0203 1A       		.byte	0x1a
 297 0204 26060000 		.4byte	0x626
 298 0208 38       		.byte	0x38
 299 0209 09       		.uleb128 0x9
 300 020a 82030000 		.4byte	.LASF40
 301 020e 05       		.byte	0x5
 302 020f 1F01     		.2byte	0x11f
 303 0211 19       		.byte	0x19
 304 0212 FA000000 		.4byte	0xfa
 305 0216 3C       		.byte	0x3c
 306 0217 09       		.uleb128 0x9
 307 0218 1E020000 		.4byte	.LASF41
 308 021c 05       		.byte	0x5
 309 021d 2601     		.2byte	0x126
 310 021f 1A       		.byte	0x1a
 311 0220 24030000 		.4byte	0x324
 312 0224 40       		.byte	0x40
 313 0225 00       		.byte	0
 314 0226 04       		.uleb128 0x4
 315 0227 93030000 		.4byte	.LASF42
 316 022b 04       		.byte	0x4
 317 022c 39       		.byte	0x39
 318 022d 14       		.byte	0x14
 319 022e 32020000 		.4byte	0x232
 320 0232 0A       		.uleb128 0xa
 321 0233 04       		.byte	0x4
 322 0234 2A010000 		.4byte	0x12a
 323 0238 04       		.uleb128 0x4
 324 0239 9F050000 		.4byte	.LASF43
 325 023d 04       		.byte	0x4
 326 023e 3E       		.byte	0x3e
 327 023f 20       		.byte	0x20
 328 0240 44020000 		.4byte	0x244
 329 0244 05       		.uleb128 0x5
 330 0245 E4040000 		.4byte	.LASF45
 331 0249 04       		.byte	0x4
 332 024a 05       		.byte	0x5
 333 024b 7C       		.byte	0x7c
 334 024c 08       		.byte	0x8
 335 024d 5F020000 		.4byte	0x25f
 336 0251 06       		.uleb128 0x6
 337 0252 B1000000 		.4byte	.LASF46
 338 0256 05       		.byte	0x5
 339 0257 7D       		.byte	0x7d
 340 0258 1A       		.byte	0x1a
 341 0259 32020000 		.4byte	0x232
 342 025d 00       		.byte	0
ARM GAS  /tmp/cc7A5JCV.s 			page 7


 343 025e 00       		.byte	0
 344 025f 04       		.uleb128 0x4
 345 0260 6B050000 		.4byte	.LASF47
 346 0264 04       		.byte	0x4
 347 0265 45       		.byte	0x45
 348 0266 21       		.byte	0x21
 349 0267 70020000 		.4byte	0x270
 350 026b 0B       		.uleb128 0xb
 351 026c 5F020000 		.4byte	0x25f
 352 0270 05       		.uleb128 0x5
 353 0271 B6000000 		.4byte	.LASF48
 354 0275 08       		.byte	0x8
 355 0276 05       		.byte	0x5
 356 0277 83       		.byte	0x83
 357 0278 08       		.byte	0x8
 358 0279 98020000 		.4byte	0x298
 359 027d 06       		.uleb128 0x6
 360 027e B1000000 		.4byte	.LASF46
 361 0282 05       		.byte	0x5
 362 0283 84       		.byte	0x84
 363 0284 1A       		.byte	0x1a
 364 0285 32020000 		.4byte	0x232
 365 0289 00       		.byte	0
 366 028a 06       		.uleb128 0x6
 367 028b 33000000 		.4byte	.LASF49
 368 028f 05       		.byte	0x5
 369 0290 85       		.byte	0x85
 370 0291 1A       		.byte	0x1a
 371 0292 32020000 		.4byte	0x232
 372 0296 04       		.byte	0x4
 373 0297 00       		.byte	0
 374 0298 04       		.uleb128 0x4
 375 0299 00000000 		.4byte	.LASF50
 376 029d 04       		.byte	0x4
 377 029e 4C       		.byte	0x4c
 378 029f 1E       		.byte	0x1e
 379 02a0 A4020000 		.4byte	0x2a4
 380 02a4 0C       		.uleb128 0xc
 381 02a5 7B020000 		.4byte	.LASF51
 382 02a9 1C       		.byte	0x1c
 383 02aa 05       		.byte	0x5
 384 02ab 5E01     		.2byte	0x15e
 385 02ad 08       		.byte	0x8
 386 02ae 07030000 		.4byte	0x307
 387 02b2 09       		.uleb128 0x9
 388 02b3 76010000 		.4byte	.LASF27
 389 02b7 05       		.byte	0x5
 390 02b8 5F01     		.2byte	0x15f
 391 02ba 19       		.byte	0x19
 392 02bb 5F020000 		.4byte	0x25f
 393 02bf 00       		.byte	0
 394 02c0 09       		.uleb128 0x9
 395 02c1 F3030000 		.4byte	.LASF28
 396 02c5 05       		.byte	0x5
 397 02c6 6001     		.2byte	0x160
 398 02c8 19       		.byte	0x19
 399 02c9 FA000000 		.4byte	0xfa
ARM GAS  /tmp/cc7A5JCV.s 			page 8


 400 02cd 08       		.byte	0x8
 401 02ce 08       		.uleb128 0x8
 402 02cf 63747800 		.ascii	"ctx\000"
 403 02d3 05       		.byte	0x5
 404 02d4 6201     		.2byte	0x162
 405 02d6 19       		.byte	0x19
 406 02d7 0D050000 		.4byte	0x50d
 407 02db 0C       		.byte	0xc
 408 02dc 09       		.uleb128 0x9
 409 02dd 7C030000 		.4byte	.LASF29
 410 02e1 05       		.byte	0x5
 411 02e2 6501     		.2byte	0x165
 412 02e4 1A       		.byte	0x1a
 413 02e5 32020000 		.4byte	0x232
 414 02e9 10       		.byte	0x10
 415 02ea 09       		.uleb128 0x9
 416 02eb 12050000 		.4byte	.LASF30
 417 02ef 05       		.byte	0x5
 418 02f0 6601     		.2byte	0x166
 419 02f2 1A       		.byte	0x1a
 420 02f3 32020000 		.4byte	0x232
 421 02f7 14       		.byte	0x14
 422 02f8 09       		.uleb128 0x9
 423 02f9 F8030000 		.4byte	.LASF52
 424 02fd 05       		.byte	0x5
 425 02fe 6901     		.2byte	0x169
 426 0300 1A       		.byte	0x1a
 427 0301 32020000 		.4byte	0x232
 428 0305 18       		.byte	0x18
 429 0306 00       		.byte	0
 430 0307 04       		.uleb128 0x4
 431 0308 3D050000 		.4byte	.LASF53
 432 030c 04       		.byte	0x4
 433 030d 51       		.byte	0x51
 434 030e 10       		.byte	0x10
 435 030f 13030000 		.4byte	0x313
 436 0313 0A       		.uleb128 0xa
 437 0314 04       		.byte	0x4
 438 0315 19030000 		.4byte	0x319
 439 0319 0D       		.uleb128 0xd
 440 031a 24030000 		.4byte	0x324
 441 031e 0E       		.uleb128 0xe
 442 031f 24030000 		.4byte	0x324
 443 0323 00       		.byte	0
 444 0324 0F       		.uleb128 0xf
 445 0325 04       		.byte	0x4
 446 0326 04       		.uleb128 0x4
 447 0327 18040000 		.4byte	.LASF54
 448 032b 04       		.byte	0x4
 449 032c 56       		.byte	0x56
 450 032d 21       		.byte	0x21
 451 032e 32030000 		.4byte	0x332
 452 0332 0C       		.uleb128 0xc
 453 0333 B6040000 		.4byte	.LASF55
 454 0337 14       		.byte	0x14
 455 0338 05       		.byte	0x5
 456 0339 3901     		.2byte	0x139
ARM GAS  /tmp/cc7A5JCV.s 			page 9


 457 033b 08       		.byte	0x8
 458 033c 87030000 		.4byte	0x387
 459 0340 09       		.uleb128 0x9
 460 0341 B1000000 		.4byte	.LASF46
 461 0345 05       		.byte	0x5
 462 0346 3A01     		.2byte	0x13a
 463 0348 1A       		.byte	0x1a
 464 0349 49060000 		.4byte	0x649
 465 034d 00       		.byte	0
 466 034e 09       		.uleb128 0x9
 467 034f 33000000 		.4byte	.LASF49
 468 0353 05       		.byte	0x5
 469 0354 3B01     		.2byte	0x13b
 470 0356 1A       		.byte	0x1a
 471 0357 49060000 		.4byte	0x649
 472 035b 04       		.byte	0x4
 473 035c 09       		.uleb128 0x9
 474 035d 13000000 		.4byte	.LASF56
 475 0361 05       		.byte	0x5
 476 0362 3C01     		.2byte	0x13c
 477 0364 19       		.byte	0x19
 478 0365 6F040000 		.4byte	0x46f
 479 0369 08       		.byte	0x8
 480 036a 09       		.uleb128 0x9
 481 036b 48010000 		.4byte	.LASF57
 482 036f 05       		.byte	0x5
 483 0370 3D01     		.2byte	0x13d
 484 0372 19       		.byte	0x19
 485 0373 07030000 		.4byte	0x307
 486 0377 0C       		.byte	0xc
 487 0378 08       		.uleb128 0x8
 488 0379 70617200 		.ascii	"par\000"
 489 037d 05       		.byte	0x5
 490 037e 3F01     		.2byte	0x13f
 491 0380 1A       		.byte	0x1a
 492 0381 24030000 		.4byte	0x324
 493 0385 10       		.byte	0x10
 494 0386 00       		.byte	0
 495 0387 04       		.uleb128 0x4
 496 0388 9B000000 		.4byte	.LASF58
 497 038c 04       		.byte	0x4
 498 038d 5B       		.byte	0x5b
 499 038e 28       		.byte	0x28
 500 038f 93030000 		.4byte	0x393
 501 0393 0C       		.uleb128 0xc
 502 0394 A6030000 		.4byte	.LASF59
 503 0398 10       		.byte	0x10
 504 0399 05       		.byte	0x5
 505 039a 4901     		.2byte	0x149
 506 039c 08       		.byte	0x8
 507 039d DA030000 		.4byte	0x3da
 508 03a1 09       		.uleb128 0x9
 509 03a2 B1000000 		.4byte	.LASF46
 510 03a6 05       		.byte	0x5
 511 03a7 4A01     		.2byte	0x14a
 512 03a9 1A       		.byte	0x1a
 513 03aa 49060000 		.4byte	0x649
ARM GAS  /tmp/cc7A5JCV.s 			page 10


 514 03ae 00       		.byte	0
 515 03af 09       		.uleb128 0x9
 516 03b0 33000000 		.4byte	.LASF49
 517 03b4 05       		.byte	0x5
 518 03b5 4C01     		.2byte	0x14c
 519 03b7 1A       		.byte	0x1a
 520 03b8 49060000 		.4byte	0x649
 521 03bc 04       		.byte	0x4
 522 03bd 09       		.uleb128 0x9
 523 03be 13000000 		.4byte	.LASF56
 524 03c2 05       		.byte	0x5
 525 03c3 4E01     		.2byte	0x14e
 526 03c5 19       		.byte	0x19
 527 03c6 6F040000 		.4byte	0x46f
 528 03ca 08       		.byte	0x8
 529 03cb 09       		.uleb128 0x9
 530 03cc 89040000 		.4byte	.LASF60
 531 03d0 05       		.byte	0x5
 532 03d1 5601     		.2byte	0x156
 533 03d3 19       		.byte	0x19
 534 03d4 63040000 		.4byte	0x463
 535 03d8 0C       		.byte	0xc
 536 03d9 00       		.byte	0
 537 03da 04       		.uleb128 0x4
 538 03db 44000000 		.4byte	.LASF61
 539 03df 04       		.byte	0x4
 540 03e0 60       		.byte	0x60
 541 03e1 20       		.byte	0x20
 542 03e2 E6030000 		.4byte	0x3e6
 543 03e6 0C       		.uleb128 0xc
 544 03e7 53040000 		.4byte	.LASF62
 545 03eb 04       		.byte	0x4
 546 03ec 05       		.byte	0x5
 547 03ed 7001     		.2byte	0x170
 548 03ef 08       		.byte	0x8
 549 03f0 03040000 		.4byte	0x403
 550 03f4 09       		.uleb128 0x9
 551 03f5 5A050000 		.4byte	.LASF63
 552 03f9 05       		.byte	0x5
 553 03fa 7801     		.2byte	0x178
 554 03fc 24       		.byte	0x24
 555 03fd 32060000 		.4byte	0x632
 556 0401 00       		.byte	0
 557 0402 00       		.byte	0
 558 0403 04       		.uleb128 0x4
 559 0404 50020000 		.4byte	.LASF64
 560 0408 04       		.byte	0x4
 561 0409 65       		.byte	0x65
 562 040a 1A       		.byte	0x1a
 563 040b 0F040000 		.4byte	0x40f
 564 040f 0C       		.uleb128 0xc
 565 0410 99040000 		.4byte	.LASF65
 566 0414 78       		.byte	0x78
 567 0415 05       		.byte	0x5
 568 0416 9001     		.2byte	0x190
 569 0418 08       		.byte	0x8
 570 0419 63040000 		.4byte	0x463
ARM GAS  /tmp/cc7A5JCV.s 			page 11


 571 041d 09       		.uleb128 0x9
 572 041e 84050000 		.4byte	.LASF66
 573 0422 05       		.byte	0x5
 574 0423 9401     		.2byte	0x194
 575 0425 19       		.byte	0x19
 576 0426 98020000 		.4byte	0x298
 577 042a 00       		.byte	0
 578 042b 09       		.uleb128 0x9
 579 042c E7000000 		.4byte	.LASF67
 580 0430 05       		.byte	0x5
 581 0431 9801     		.2byte	0x198
 582 0433 19       		.byte	0x19
 583 0434 87030000 		.4byte	0x387
 584 0438 1C       		.byte	0x1c
 585 0439 08       		.uleb128 0x8
 586 043a 64626700 		.ascii	"dbg\000"
 587 043e 05       		.byte	0x5
 588 043f 9C01     		.2byte	0x19c
 589 0441 19       		.byte	0x19
 590 0442 DA030000 		.4byte	0x3da
 591 0446 2C       		.byte	0x2c
 592 0447 09       		.uleb128 0x9
 593 0448 88000000 		.4byte	.LASF68
 594 044c 05       		.byte	0x5
 595 044d A001     		.2byte	0x1a0
 596 044f 19       		.byte	0x19
 597 0450 2A010000 		.4byte	0x12a
 598 0454 30       		.byte	0x30
 599 0455 08       		.uleb128 0x8
 600 0456 746D00   		.ascii	"tm\000"
 601 0459 05       		.byte	0x5
 602 045a A501     		.2byte	0x1a5
 603 045c 19       		.byte	0x19
 604 045d 46050000 		.4byte	0x546
 605 0461 74       		.byte	0x74
 606 0462 00       		.byte	0
 607 0463 04       		.uleb128 0x4
 608 0464 33050000 		.4byte	.LASF69
 609 0468 06       		.byte	0x6
 610 0469 6D       		.byte	0x6d
 611 046a 12       		.byte	0x12
 612 046b B2000000 		.4byte	0xb2
 613 046f 04       		.uleb128 0x4
 614 0470 D2010000 		.4byte	.LASF70
 615 0474 06       		.byte	0x6
 616 0475 79       		.byte	0x79
 617 0476 12       		.byte	0x12
 618 0477 B2000000 		.4byte	0xb2
 619 047b 04       		.uleb128 0x4
 620 047c 71030000 		.4byte	.LASF71
 621 0480 07       		.byte	0x7
 622 0481 68       		.byte	0x68
 623 0482 12       		.byte	0x12
 624 0483 BE000000 		.4byte	0xbe
 625 0487 0C       		.uleb128 0xc
 626 0488 38000000 		.4byte	.LASF72
 627 048c 24       		.byte	0x24
ARM GAS  /tmp/cc7A5JCV.s 			page 12


 628 048d 08       		.byte	0x8
 629 048e 8501     		.2byte	0x185
 630 0490 08       		.byte	0x8
 631 0491 0D050000 		.4byte	0x50d
 632 0495 08       		.uleb128 0x8
 633 0496 723400   		.ascii	"r4\000"
 634 0499 08       		.byte	0x8
 635 049a 9E01     		.2byte	0x19e
 636 049c 11       		.byte	0x11
 637 049d B2000000 		.4byte	0xb2
 638 04a1 00       		.byte	0
 639 04a2 08       		.uleb128 0x8
 640 04a3 723500   		.ascii	"r5\000"
 641 04a6 08       		.byte	0x8
 642 04a7 9F01     		.2byte	0x19f
 643 04a9 11       		.byte	0x11
 644 04aa B2000000 		.4byte	0xb2
 645 04ae 04       		.byte	0x4
 646 04af 08       		.uleb128 0x8
 647 04b0 723600   		.ascii	"r6\000"
 648 04b3 08       		.byte	0x8
 649 04b4 A001     		.2byte	0x1a0
 650 04b6 11       		.byte	0x11
 651 04b7 B2000000 		.4byte	0xb2
 652 04bb 08       		.byte	0x8
 653 04bc 08       		.uleb128 0x8
 654 04bd 723700   		.ascii	"r7\000"
 655 04c0 08       		.byte	0x8
 656 04c1 A101     		.2byte	0x1a1
 657 04c3 11       		.byte	0x11
 658 04c4 B2000000 		.4byte	0xb2
 659 04c8 0C       		.byte	0xc
 660 04c9 08       		.uleb128 0x8
 661 04ca 723800   		.ascii	"r8\000"
 662 04cd 08       		.byte	0x8
 663 04ce A201     		.2byte	0x1a2
 664 04d0 11       		.byte	0x11
 665 04d1 B2000000 		.4byte	0xb2
 666 04d5 10       		.byte	0x10
 667 04d6 08       		.uleb128 0x8
 668 04d7 723900   		.ascii	"r9\000"
 669 04da 08       		.byte	0x8
 670 04db A301     		.2byte	0x1a3
 671 04dd 11       		.byte	0x11
 672 04de B2000000 		.4byte	0xb2
 673 04e2 14       		.byte	0x14
 674 04e3 08       		.uleb128 0x8
 675 04e4 72313000 		.ascii	"r10\000"
 676 04e8 08       		.byte	0x8
 677 04e9 A401     		.2byte	0x1a4
 678 04eb 11       		.byte	0x11
 679 04ec B2000000 		.4byte	0xb2
 680 04f0 18       		.byte	0x18
 681 04f1 08       		.uleb128 0x8
 682 04f2 72313100 		.ascii	"r11\000"
 683 04f6 08       		.byte	0x8
 684 04f7 A501     		.2byte	0x1a5
ARM GAS  /tmp/cc7A5JCV.s 			page 13


 685 04f9 11       		.byte	0x11
 686 04fa B2000000 		.4byte	0xb2
 687 04fe 1C       		.byte	0x1c
 688 04ff 08       		.uleb128 0x8
 689 0500 6C7200   		.ascii	"lr\000"
 690 0503 08       		.byte	0x8
 691 0504 A601     		.2byte	0x1a6
 692 0506 11       		.byte	0x11
 693 0507 B2000000 		.4byte	0xb2
 694 050b 20       		.byte	0x20
 695 050c 00       		.byte	0
 696 050d 0C       		.uleb128 0xc
 697 050e D5030000 		.4byte	.LASF73
 698 0512 04       		.byte	0x4
 699 0513 08       		.byte	0x8
 700 0514 A901     		.2byte	0x1a9
 701 0516 08       		.byte	0x8
 702 0517 29050000 		.4byte	0x529
 703 051b 08       		.uleb128 0x8
 704 051c 737000   		.ascii	"sp\000"
 705 051f 08       		.byte	0x8
 706 0520 AA01     		.2byte	0x1aa
 707 0522 1A       		.byte	0x1a
 708 0523 29050000 		.4byte	0x529
 709 0527 00       		.byte	0
 710 0528 00       		.byte	0
 711 0529 0A       		.uleb128 0xa
 712 052a 04       		.byte	0x4
 713 052b 87040000 		.4byte	0x487
 714 052f 10       		.uleb128 0x10
 715 0530 04       		.byte	0x4
 716 0531 09       		.byte	0x9
 717 0532 38       		.byte	0x38
 718 0533 09       		.byte	0x9
 719 0534 46050000 		.4byte	0x546
 720 0538 06       		.uleb128 0x6
 721 0539 64050000 		.4byte	.LASF74
 722 053d 09       		.byte	0x9
 723 053e 3C       		.byte	0x3c
 724 053f 19       		.byte	0x19
 725 0540 CA000000 		.4byte	0xca
 726 0544 00       		.byte	0
 727 0545 00       		.byte	0
 728 0546 04       		.uleb128 0x4
 729 0547 E2030000 		.4byte	.LASF75
 730 054b 09       		.byte	0x9
 731 054c 3D       		.byte	0x3d
 732 054d 03       		.byte	0x3
 733 054e 2F050000 		.4byte	0x52f
 734 0552 11       		.uleb128 0x11
 735 0553 04       		.byte	0x4
 736 0554 05       		.byte	0x5
 737 0555 C6       		.byte	0xc6
 738 0556 03       		.byte	0x3
 739 0557 BD050000 		.4byte	0x5bd
 740 055b 12       		.uleb128 0x12
 741 055c 19000000 		.4byte	.LASF76
ARM GAS  /tmp/cc7A5JCV.s 			page 14


 742 0560 05       		.byte	0x5
 743 0561 CD       		.byte	0xcd
 744 0562 19       		.byte	0x19
 745 0563 06010000 		.4byte	0x106
 746 0567 12       		.uleb128 0x12
 747 0568 7F000000 		.4byte	.LASF77
 748 056c 05       		.byte	0x5
 749 056d D4       		.byte	0xd4
 750 056e 19       		.byte	0x19
 751 056f 06010000 		.4byte	0x106
 752 0573 12       		.uleb128 0x12
 753 0574 98050000 		.4byte	.LASF78
 754 0578 05       		.byte	0x5
 755 0579 DB       		.byte	0xdb
 756 057a 1A       		.byte	0x1a
 757 057b 24030000 		.4byte	0x324
 758 057f 12       		.uleb128 0x12
 759 0580 0D000000 		.4byte	.LASF79
 760 0584 05       		.byte	0x5
 761 0585 E2       		.byte	0xe2
 762 0586 1A       		.byte	0x1a
 763 0587 BD050000 		.4byte	0x5bd
 764 058b 12       		.uleb128 0x12
 765 058c 93000000 		.4byte	.LASF80
 766 0590 05       		.byte	0x5
 767 0591 E7       		.byte	0xe7
 768 0592 19       		.byte	0x19
 769 0593 06010000 		.4byte	0x106
 770 0597 12       		.uleb128 0x12
 771 0598 00020000 		.4byte	.LASF81
 772 059c 05       		.byte	0x5
 773 059d F0       		.byte	0xf0
 774 059e 1A       		.byte	0x1a
 775 059f EB050000 		.4byte	0x5eb
 776 05a3 12       		.uleb128 0x12
 777 05a4 DD040000 		.4byte	.LASF82
 778 05a8 05       		.byte	0x5
 779 05a9 F9       		.byte	0xf9
 780 05aa 1A       		.byte	0x1a
 781 05ab 26060000 		.4byte	0x626
 782 05af 13       		.uleb128 0x13
 783 05b0 92040000 		.4byte	.LASF83
 784 05b4 05       		.byte	0x5
 785 05b5 0101     		.2byte	0x101
 786 05b7 19       		.byte	0x19
 787 05b8 12010000 		.4byte	0x112
 788 05bc 00       		.byte	0
 789 05bd 0A       		.uleb128 0xa
 790 05be 04       		.byte	0x4
 791 05bf 26020000 		.4byte	0x226
 792 05c3 05       		.uleb128 0x5
 793 05c4 C7040000 		.4byte	.LASF84
 794 05c8 0C       		.byte	0xc
 795 05c9 0A       		.byte	0xa
 796 05ca 34       		.byte	0x34
 797 05cb 10       		.byte	0x10
 798 05cc EB050000 		.4byte	0x5eb
ARM GAS  /tmp/cc7A5JCV.s 			page 15


 799 05d0 06       		.uleb128 0x6
 800 05d1 76010000 		.4byte	.LASF27
 801 05d5 0A       		.byte	0xa
 802 05d6 35       		.byte	0x35
 803 05d7 19       		.byte	0x19
 804 05d8 5F020000 		.4byte	0x25f
 805 05dc 00       		.byte	0
 806 05dd 07       		.uleb128 0x7
 807 05de 636E7400 		.ascii	"cnt\000"
 808 05e2 0A       		.byte	0xa
 809 05e3 37       		.byte	0x37
 810 05e4 19       		.byte	0x19
 811 05e5 1E010000 		.4byte	0x11e
 812 05e9 08       		.byte	0x8
 813 05ea 00       		.byte	0
 814 05eb 0A       		.uleb128 0xa
 815 05ec 04       		.byte	0x4
 816 05ed C3050000 		.4byte	0x5c3
 817 05f1 05       		.uleb128 0x5
 818 05f2 7B050000 		.4byte	.LASF85
 819 05f6 10       		.byte	0x10
 820 05f7 0B       		.byte	0xb
 821 05f8 39       		.byte	0x39
 822 05f9 08       		.byte	0x8
 823 05fa 26060000 		.4byte	0x626
 824 05fe 06       		.uleb128 0x6
 825 05ff 76010000 		.4byte	.LASF27
 826 0603 0B       		.byte	0xb
 827 0604 3A       		.byte	0x3a
 828 0605 19       		.byte	0x19
 829 0606 5F020000 		.4byte	0x25f
 830 060a 00       		.byte	0
 831 060b 06       		.uleb128 0x6
 832 060c F4040000 		.4byte	.LASF86
 833 0610 0B       		.byte	0xb
 834 0611 3C       		.byte	0x3c
 835 0612 1A       		.byte	0x1a
 836 0613 32020000 		.4byte	0x232
 837 0617 08       		.byte	0x8
 838 0618 06       		.uleb128 0x6
 839 0619 B1000000 		.4byte	.LASF46
 840 061d 0B       		.byte	0xb
 841 061e 3E       		.byte	0x3e
 842 061f 1A       		.byte	0x1a
 843 0620 67060000 		.4byte	0x667
 844 0624 0C       		.byte	0xc
 845 0625 00       		.byte	0
 846 0626 0A       		.uleb128 0xa
 847 0627 04       		.byte	0x4
 848 0628 F1050000 		.4byte	0x5f1
 849 062c 0A       		.uleb128 0xa
 850 062d 04       		.byte	0x4
 851 062e 3E060000 		.4byte	0x63e
 852 0632 14       		.uleb128 0x14
 853 0633 2C060000 		.4byte	0x62c
 854 0637 03       		.uleb128 0x3
 855 0638 01       		.byte	0x1
ARM GAS  /tmp/cc7A5JCV.s 			page 16


 856 0639 08       		.byte	0x8
 857 063a 0D050000 		.4byte	.LASF87
 858 063e 0B       		.uleb128 0xb
 859 063f 37060000 		.4byte	0x637
 860 0643 0A       		.uleb128 0xa
 861 0644 04       		.byte	0x4
 862 0645 7B040000 		.4byte	0x47b
 863 0649 0A       		.uleb128 0xa
 864 064a 04       		.byte	0x4
 865 064b 26030000 		.4byte	0x326
 866 064f 15       		.uleb128 0x15
 867 0650 636800   		.ascii	"ch\000"
 868 0653 05       		.byte	0x5
 869 0654 C701     		.2byte	0x1c7
 870 0656 14       		.byte	0x14
 871 0657 03040000 		.4byte	0x403
 872 065b 04       		.uleb128 0x4
 873 065c CA010000 		.4byte	.LASF88
 874 0660 0B       		.byte	0xb
 875 0661 34       		.byte	0x34
 876 0662 19       		.byte	0x19
 877 0663 F1050000 		.4byte	0x5f1
 878 0667 0A       		.uleb128 0xa
 879 0668 04       		.byte	0x4
 880 0669 5B060000 		.4byte	0x65b
 881 066d 03       		.uleb128 0x3
 882 066e 01       		.byte	0x1
 883 066f 02       		.byte	0x2
 884 0670 63040000 		.4byte	.LASF89
 885 0674 16       		.uleb128 0x16
 886 0675 5C020000 		.4byte	.LASF90
 887 0679 0C       		.byte	0xc
 888 067a 0C02     		.2byte	0x20c
 889 067c 06       		.byte	0x6
 890 067d AB060000 		.4byte	0x6ab
 891 0681 17       		.uleb128 0x17
 892 0682 63747000 		.ascii	"ctp\000"
 893 0686 0C       		.byte	0xc
 894 0687 0D02     		.2byte	0x20d
 895 0689 0D       		.byte	0xd
 896 068a 32020000 		.4byte	0x232
 897 068e 18       		.uleb128 0x18
 898 068f 17       		.uleb128 0x17
 899 0690 6D7000   		.ascii	"mp\000"
 900 0693 0C       		.byte	0xc
 901 0694 1202     		.2byte	0x212
 902 0696 10       		.byte	0x10
 903 0697 67060000 		.4byte	0x667
 904 069b 18       		.uleb128 0x18
 905 069c 17       		.uleb128 0x17
 906 069d 747000   		.ascii	"tp\000"
 907 06a0 0C       		.byte	0xc
 908 06a1 1802     		.2byte	0x218
 909 06a3 13       		.byte	0x13
 910 06a4 32020000 		.4byte	0x232
 911 06a8 00       		.byte	0
 912 06a9 00       		.byte	0
ARM GAS  /tmp/cc7A5JCV.s 			page 17


 913 06aa 00       		.byte	0
 914 06ab 16       		.uleb128 0x16
 915 06ac 38010000 		.4byte	.LASF91
 916 06b0 0C       		.byte	0xc
 917 06b1 E701     		.2byte	0x1e7
 918 06b3 06       		.byte	0x6
 919 06b4 E2060000 		.4byte	0x6e2
 920 06b8 17       		.uleb128 0x17
 921 06b9 63747000 		.ascii	"ctp\000"
 922 06bd 0C       		.byte	0xc
 923 06be E801     		.2byte	0x1e8
 924 06c0 0D       		.byte	0xd
 925 06c1 32020000 		.4byte	0x232
 926 06c5 18       		.uleb128 0x18
 927 06c6 17       		.uleb128 0x17
 928 06c7 6D7000   		.ascii	"mp\000"
 929 06ca 0C       		.byte	0xc
 930 06cb EB01     		.2byte	0x1eb
 931 06cd 0E       		.byte	0xe
 932 06ce 67060000 		.4byte	0x667
 933 06d2 18       		.uleb128 0x18
 934 06d3 17       		.uleb128 0x17
 935 06d4 747000   		.ascii	"tp\000"
 936 06d7 0C       		.byte	0xc
 937 06d8 F101     		.2byte	0x1f1
 938 06da 11       		.byte	0x11
 939 06db 32020000 		.4byte	0x232
 940 06df 00       		.byte	0
 941 06e0 00       		.byte	0
 942 06e1 00       		.byte	0
 943 06e2 16       		.uleb128 0x16
 944 06e3 E6010000 		.4byte	.LASF92
 945 06e7 0C       		.byte	0xc
 946 06e8 9A01     		.2byte	0x19a
 947 06ea 06       		.byte	0x6
 948 06eb 3A070000 		.4byte	0x73a
 949 06ef 19       		.uleb128 0x19
 950 06f0 6D7000   		.ascii	"mp\000"
 951 06f3 0C       		.byte	0xc
 952 06f4 9A01     		.2byte	0x19a
 953 06f6 1C       		.byte	0x1c
 954 06f7 67060000 		.4byte	0x667
 955 06fb 17       		.uleb128 0x17
 956 06fc 63747000 		.ascii	"ctp\000"
 957 0700 0C       		.byte	0xc
 958 0701 9B01     		.2byte	0x19b
 959 0703 0D       		.byte	0xd
 960 0704 32020000 		.4byte	0x232
 961 0708 17       		.uleb128 0x17
 962 0709 6C6D7000 		.ascii	"lmp\000"
 963 070d 0C       		.byte	0xc
 964 070e 9C01     		.2byte	0x19c
 965 0710 0C       		.byte	0xc
 966 0711 67060000 		.4byte	0x667
 967 0715 1A       		.uleb128 0x1a
 968 0716 A3040000 		.4byte	.LASF95
 969 071a 4A070000 		.4byte	0x74a
ARM GAS  /tmp/cc7A5JCV.s 			page 18


 970 071e 18       		.uleb128 0x18
 971 071f 17       		.uleb128 0x17
 972 0720 747000   		.ascii	"tp\000"
 973 0723 0C       		.byte	0xc
 974 0724 B201     		.2byte	0x1b2
 975 0726 11       		.byte	0x11
 976 0727 32020000 		.4byte	0x232
 977 072b 1B       		.uleb128 0x1b
 978 072c 6B020000 		.4byte	.LASF93
 979 0730 0C       		.byte	0xc
 980 0731 B601     		.2byte	0x1b6
 981 0733 0F       		.byte	0xf
 982 0734 FA000000 		.4byte	0xfa
 983 0738 00       		.byte	0
 984 0739 00       		.byte	0
 985 073a 1C       		.uleb128 0x1c
 986 073b 3E060000 		.4byte	0x63e
 987 073f 4A070000 		.4byte	0x74a
 988 0743 1D       		.uleb128 0x1d
 989 0744 24000000 		.4byte	0x24
 990 0748 0C       		.byte	0xc
 991 0749 00       		.byte	0
 992 074a 0B       		.uleb128 0xb
 993 074b 3A070000 		.4byte	0x73a
 994 074f 16       		.uleb128 0x16
 995 0750 C7000000 		.4byte	.LASF94
 996 0754 0C       		.byte	0xc
 997 0755 4301     		.2byte	0x143
 998 0757 06       		.byte	0x6
 999 0758 A7070000 		.4byte	0x7a7
 1000 075c 19       		.uleb128 0x19
 1001 075d 6D7000   		.ascii	"mp\000"
 1002 0760 0C       		.byte	0xc
 1003 0761 4301     		.2byte	0x143
 1004 0763 1B       		.byte	0x1b
 1005 0764 67060000 		.4byte	0x667
 1006 0768 17       		.uleb128 0x17
 1007 0769 63747000 		.ascii	"ctp\000"
 1008 076d 0C       		.byte	0xc
 1009 076e 4401     		.2byte	0x144
 1010 0770 0D       		.byte	0xd
 1011 0771 32020000 		.4byte	0x232
 1012 0775 17       		.uleb128 0x17
 1013 0776 6C6D7000 		.ascii	"lmp\000"
 1014 077a 0C       		.byte	0xc
 1015 077b 4501     		.2byte	0x145
 1016 077d 0C       		.byte	0xc
 1017 077e 67060000 		.4byte	0x667
 1018 0782 1A       		.uleb128 0x1a
 1019 0783 A3040000 		.4byte	.LASF95
 1020 0787 B7070000 		.4byte	0x7b7
 1021 078b 18       		.uleb128 0x18
 1022 078c 17       		.uleb128 0x17
 1023 078d 747000   		.ascii	"tp\000"
 1024 0790 0C       		.byte	0xc
 1025 0791 5C01     		.2byte	0x15c
 1026 0793 11       		.byte	0x11
ARM GAS  /tmp/cc7A5JCV.s 			page 19


 1027 0794 32020000 		.4byte	0x232
 1028 0798 1B       		.uleb128 0x1b
 1029 0799 6B020000 		.4byte	.LASF93
 1030 079d 0C       		.byte	0xc
 1031 079e 6001     		.2byte	0x160
 1032 07a0 0F       		.byte	0xf
 1033 07a1 FA000000 		.4byte	0xfa
 1034 07a5 00       		.byte	0
 1035 07a6 00       		.byte	0
 1036 07a7 1C       		.uleb128 0x1c
 1037 07a8 3E060000 		.4byte	0x63e
 1038 07ac B7070000 		.4byte	0x7b7
 1039 07b0 1D       		.uleb128 0x1d
 1040 07b1 24000000 		.4byte	0x24
 1041 07b5 0B       		.byte	0xb
 1042 07b6 00       		.byte	0
 1043 07b7 0B       		.uleb128 0xb
 1044 07b8 A7070000 		.4byte	0x7a7
 1045 07bc 1E       		.uleb128 0x1e
 1046 07bd 7C010000 		.4byte	.LASF96
 1047 07c1 0C       		.byte	0xc
 1048 07c2 1A01     		.2byte	0x11a
 1049 07c4 06       		.byte	0x6
 1050 07c5 6D060000 		.4byte	0x66d
 1051 07c9 E3070000 		.4byte	0x7e3
 1052 07cd 19       		.uleb128 0x19
 1053 07ce 6D7000   		.ascii	"mp\000"
 1054 07d1 0C       		.byte	0xc
 1055 07d2 1A01     		.2byte	0x11a
 1056 07d4 1D       		.byte	0x1d
 1057 07d5 67060000 		.4byte	0x667
 1058 07d9 1A       		.uleb128 0x1a
 1059 07da A3040000 		.4byte	.LASF95
 1060 07de F3070000 		.4byte	0x7f3
 1061 07e2 00       		.byte	0
 1062 07e3 1C       		.uleb128 0x1c
 1063 07e4 3E060000 		.4byte	0x63e
 1064 07e8 F3070000 		.4byte	0x7f3
 1065 07ec 1D       		.uleb128 0x1d
 1066 07ed 24000000 		.4byte	0x24
 1067 07f1 0D       		.byte	0xd
 1068 07f2 00       		.byte	0
 1069 07f3 0B       		.uleb128 0xb
 1070 07f4 E3070000 		.4byte	0x7e3
 1071 07f8 1F       		.uleb128 0x1f
 1072 07f9 5A030000 		.4byte	.LASF97
 1073 07fd 0C       		.byte	0xc
 1074 07fe FF       		.byte	0xff
 1075 07ff 06       		.byte	0x6
 1076 0800 6D060000 		.4byte	0x66d
 1077 0804 1F080000 		.4byte	0x81f
 1078 0808 20       		.uleb128 0x20
 1079 0809 6D7000   		.ascii	"mp\000"
 1080 080c 0C       		.byte	0xc
 1081 080d FF       		.byte	0xff
 1082 080e 1C       		.byte	0x1c
 1083 080f 67060000 		.4byte	0x667
ARM GAS  /tmp/cc7A5JCV.s 			page 20


 1084 0813 17       		.uleb128 0x17
 1085 0814 6200     		.ascii	"b\000"
 1086 0816 0C       		.byte	0xc
 1087 0817 0001     		.2byte	0x100
 1088 0819 08       		.byte	0x8
 1089 081a 6D060000 		.4byte	0x66d
 1090 081e 00       		.byte	0
 1091 081f 21       		.uleb128 0x21
 1092 0820 6B010000 		.4byte	.LASF98
 1093 0824 0C       		.byte	0xc
 1094 0825 8B       		.byte	0x8b
 1095 0826 06       		.byte	0x6
 1096 0827 59080000 		.4byte	0x859
 1097 082b 20       		.uleb128 0x20
 1098 082c 6D7000   		.ascii	"mp\000"
 1099 082f 0C       		.byte	0xc
 1100 0830 8B       		.byte	0x8b
 1101 0831 1A       		.byte	0x1a
 1102 0832 67060000 		.4byte	0x667
 1103 0836 22       		.uleb128 0x22
 1104 0837 63747000 		.ascii	"ctp\000"
 1105 083b 0C       		.byte	0xc
 1106 083c 8C       		.byte	0x8c
 1107 083d 0D       		.byte	0xd
 1108 083e 32020000 		.4byte	0x232
 1109 0842 1A       		.uleb128 0x1a
 1110 0843 A3040000 		.4byte	.LASF95
 1111 0847 69080000 		.4byte	0x869
 1112 084b 18       		.uleb128 0x18
 1113 084c 22       		.uleb128 0x22
 1114 084d 747000   		.ascii	"tp\000"
 1115 0850 0C       		.byte	0xc
 1116 0851 A1       		.byte	0xa1
 1117 0852 11       		.byte	0x11
 1118 0853 32020000 		.4byte	0x232
 1119 0857 00       		.byte	0
 1120 0858 00       		.byte	0
 1121 0859 1C       		.uleb128 0x1c
 1122 085a 3E060000 		.4byte	0x63e
 1123 085e 69080000 		.4byte	0x869
 1124 0862 1D       		.uleb128 0x1d
 1125 0863 24000000 		.4byte	0x24
 1126 0867 0A       		.byte	0xa
 1127 0868 00       		.byte	0
 1128 0869 0B       		.uleb128 0xb
 1129 086a 59080000 		.4byte	0x859
 1130 086e 21       		.uleb128 0x21
 1131 086f CB030000 		.4byte	.LASF99
 1132 0873 0C       		.byte	0xc
 1133 0874 7B       		.byte	0x7b
 1134 0875 06       		.byte	0x6
 1135 0876 86080000 		.4byte	0x886
 1136 087a 20       		.uleb128 0x20
 1137 087b 6D7000   		.ascii	"mp\000"
 1138 087e 0C       		.byte	0xc
 1139 087f 7B       		.byte	0x7b
 1140 0880 19       		.byte	0x19
ARM GAS  /tmp/cc7A5JCV.s 			page 21


 1141 0881 67060000 		.4byte	0x667
 1142 0885 00       		.byte	0
 1143 0886 21       		.uleb128 0x21
 1144 0887 4D010000 		.4byte	.LASF100
 1145 088b 0C       		.byte	0xc
 1146 088c 67       		.byte	0x67
 1147 088d 06       		.byte	0x6
 1148 088e A7080000 		.4byte	0x8a7
 1149 0892 20       		.uleb128 0x20
 1150 0893 6D7000   		.ascii	"mp\000"
 1151 0896 0C       		.byte	0xc
 1152 0897 67       		.byte	0x67
 1153 0898 1F       		.byte	0x1f
 1154 0899 67060000 		.4byte	0x667
 1155 089d 1A       		.uleb128 0x1a
 1156 089e A3040000 		.4byte	.LASF95
 1157 08a2 B7080000 		.4byte	0x8b7
 1158 08a6 00       		.byte	0
 1159 08a7 1C       		.uleb128 0x1c
 1160 08a8 3E060000 		.4byte	0x63e
 1161 08ac B7080000 		.4byte	0x8b7
 1162 08b0 1D       		.uleb128 0x1d
 1163 08b1 24000000 		.4byte	0x24
 1164 08b5 0F       		.byte	0xf
 1165 08b6 00       		.byte	0
 1166 08b7 0B       		.uleb128 0xb
 1167 08b8 A7080000 		.4byte	0x8a7
 1168 08bc 23       		.uleb128 0x23
 1169 08bd 46050000 		.4byte	.LASF101
 1170 08c1 0B       		.byte	0xb
 1171 08c2 80       		.byte	0x80
 1172 08c3 14       		.byte	0x14
 1173 08c4 6D060000 		.4byte	0x66d
 1174 08c8 D8080000 		.4byte	0x8d8
 1175 08cc 20       		.uleb128 0x20
 1176 08cd 6D7000   		.ascii	"mp\000"
 1177 08d0 0B       		.byte	0xb
 1178 08d1 80       		.byte	0x80
 1179 08d2 31       		.byte	0x31
 1180 08d3 67060000 		.4byte	0x667
 1181 08d7 00       		.byte	0
 1182 08d8 24       		.uleb128 0x24
 1183 08d9 AE050000 		.4byte	.LASF104
 1184 08dd 0D       		.byte	0xd
 1185 08de 6D01     		.2byte	0x16d
 1186 08e0 14       		.byte	0x14
 1187 08e1 EF080000 		.4byte	0x8ef
 1188 08e5 1A       		.uleb128 0x1a
 1189 08e6 A3040000 		.4byte	.LASF95
 1190 08ea B7070000 		.4byte	0x7b7
 1191 08ee 00       		.byte	0
 1192 08ef 25       		.uleb128 0x25
 1193 08f0 AC040000 		.4byte	.LASF108
 1194 08f4 0D       		.byte	0xd
 1195 08f5 6101     		.2byte	0x161
 1196 08f7 14       		.byte	0x14
 1197 08f8 26       		.uleb128 0x26
ARM GAS  /tmp/cc7A5JCV.s 			page 22


 1198 08f9 12010000 		.4byte	.LASF102
 1199 08fd 05       		.byte	0x5
 1200 08fe 7002     		.2byte	0x270
 1201 0900 19       		.byte	0x19
 1202 0901 32020000 		.4byte	0x232
 1203 0905 16090000 		.4byte	0x916
 1204 0909 19       		.uleb128 0x19
 1205 090a 747000   		.ascii	"tp\000"
 1206 090d 05       		.byte	0x5
 1207 090e 7002     		.2byte	0x270
 1208 0910 31       		.byte	0x31
 1209 0911 32020000 		.4byte	0x232
 1210 0915 00       		.byte	0
 1211 0916 26       		.uleb128 0x26
 1212 0917 21050000 		.4byte	.LASF103
 1213 091b 05       		.byte	0x5
 1214 091c 5E02     		.2byte	0x25e
 1215 091e 19       		.byte	0x19
 1216 091f 32020000 		.4byte	0x232
 1217 0923 41090000 		.4byte	0x941
 1218 0927 19       		.uleb128 0x19
 1219 0928 74717000 		.ascii	"tqp\000"
 1220 092c 05       		.byte	0x5
 1221 092d 5E02     		.2byte	0x25e
 1222 092f 3C       		.byte	0x3c
 1223 0930 41090000 		.4byte	0x941
 1224 0934 17       		.uleb128 0x17
 1225 0935 747000   		.ascii	"tp\000"
 1226 0938 05       		.byte	0x5
 1227 0939 5F02     		.2byte	0x25f
 1228 093b 0D       		.byte	0xd
 1229 093c 32020000 		.4byte	0x232
 1230 0940 00       		.byte	0
 1231 0941 0A       		.uleb128 0xa
 1232 0942 04       		.byte	0x4
 1233 0943 5F020000 		.4byte	0x25f
 1234 0947 24       		.uleb128 0x24
 1235 0948 BA050000 		.4byte	.LASF105
 1236 094c 05       		.byte	0x5
 1237 094d 4A02     		.2byte	0x24a
 1238 094f 14       		.byte	0x14
 1239 0950 7A090000 		.4byte	0x97a
 1240 0954 19       		.uleb128 0x19
 1241 0955 747000   		.ascii	"tp\000"
 1242 0958 05       		.byte	0x5
 1243 0959 4A02     		.2byte	0x24a
 1244 095b 30       		.byte	0x30
 1245 095c 32020000 		.4byte	0x232
 1246 0960 19       		.uleb128 0x19
 1247 0961 74717000 		.ascii	"tqp\000"
 1248 0965 05       		.byte	0x5
 1249 0966 4A02     		.2byte	0x24a
 1250 0968 45       		.byte	0x45
 1251 0969 41090000 		.4byte	0x941
 1252 096d 17       		.uleb128 0x17
 1253 096e 637000   		.ascii	"cp\000"
 1254 0971 05       		.byte	0x5
ARM GAS  /tmp/cc7A5JCV.s 			page 23


 1255 0972 4C02     		.2byte	0x24c
 1256 0974 0D       		.byte	0xd
 1257 0975 32020000 		.4byte	0x232
 1258 0979 00       		.byte	0
 1259 097a 26       		.uleb128 0x26
 1260 097b 29010000 		.4byte	.LASF106
 1261 097f 05       		.byte	0x5
 1262 0980 3402     		.2byte	0x234
 1263 0982 14       		.byte	0x14
 1264 0983 6D060000 		.4byte	0x66d
 1265 0987 99090000 		.4byte	0x999
 1266 098b 19       		.uleb128 0x19
 1267 098c 74717000 		.ascii	"tqp\000"
 1268 0990 05       		.byte	0x5
 1269 0991 3402     		.2byte	0x234
 1270 0993 3A       		.byte	0x3a
 1271 0994 99090000 		.4byte	0x999
 1272 0998 00       		.byte	0
 1273 0999 0A       		.uleb128 0xa
 1274 099a 04       		.byte	0x4
 1275 099b 6B020000 		.4byte	0x26b
 1276 099f 24       		.uleb128 0x24
 1277 09a0 53000000 		.4byte	.LASF107
 1278 09a4 05       		.byte	0x5
 1279 09a5 1902     		.2byte	0x219
 1280 09a7 14       		.byte	0x14
 1281 09a8 BA090000 		.4byte	0x9ba
 1282 09ac 19       		.uleb128 0x19
 1283 09ad 74717000 		.ascii	"tqp\000"
 1284 09b1 05       		.byte	0x5
 1285 09b2 1902     		.2byte	0x219
 1286 09b4 30       		.byte	0x30
 1287 09b5 41090000 		.4byte	0x941
 1288 09b9 00       		.byte	0
 1289 09ba 25       		.uleb128 0x25
 1290 09bb EE000000 		.4byte	.LASF109
 1291 09bf 08       		.byte	0x8
 1292 09c0 B502     		.2byte	0x2b5
 1293 09c2 1B       		.byte	0x1b
 1294 09c3 25       		.uleb128 0x25
 1295 09c4 5E000000 		.4byte	.LASF110
 1296 09c8 08       		.byte	0x8
 1297 09c9 9D02     		.2byte	0x29d
 1298 09cb 1B       		.byte	0x1b
 1299 09cc 27       		.uleb128 0x27
 1300 09cd BD030000 		.4byte	.LASF115
 1301 09d1 0E       		.byte	0xe
 1302 09d2 EB01     		.2byte	0x1eb
 1303 09d4 1B       		.byte	0x1b
 1304 09d5 28       		.uleb128 0x28
 1305 09d6 DF000000 		.4byte	.LASF111
 1306 09da 0E       		.byte	0xe
 1307 09db EB01     		.2byte	0x1eb
 1308 09dd 32       		.byte	0x32
 1309 09de B2000000 		.4byte	0xb2
 1310 09e2 00       		.byte	0
 1311 09e3 00       		.byte	0
ARM GAS  /tmp/cc7A5JCV.s 			page 24


 1312              		.section	.gnu.debuglto_.debug_abbrev,"e",%progbits
 1313              	.Ldebug_abbrev0:
 1314 0000 01       		.uleb128 0x1
 1315 0001 11       		.uleb128 0x11
 1316 0002 01       		.byte	0x1
 1317 0003 25       		.uleb128 0x25
 1318 0004 0E       		.uleb128 0xe
 1319 0005 13       		.uleb128 0x13
 1320 0006 0B       		.uleb128 0xb
 1321 0007 03       		.uleb128 0x3
 1322 0008 0E       		.uleb128 0xe
 1323 0009 1B       		.uleb128 0x1b
 1324 000a 0E       		.uleb128 0xe
 1325 000b 10       		.uleb128 0x10
 1326 000c 17       		.uleb128 0x17
 1327 000d 00       		.byte	0
 1328 000e 00       		.byte	0
 1329 000f 02       		.uleb128 0x2
 1330 0010 24       		.uleb128 0x24
 1331 0011 00       		.byte	0
 1332 0012 0B       		.uleb128 0xb
 1333 0013 0B       		.uleb128 0xb
 1334 0014 3E       		.uleb128 0x3e
 1335 0015 0B       		.uleb128 0xb
 1336 0016 03       		.uleb128 0x3
 1337 0017 08       		.uleb128 0x8
 1338 0018 00       		.byte	0
 1339 0019 00       		.byte	0
 1340 001a 03       		.uleb128 0x3
 1341 001b 24       		.uleb128 0x24
 1342 001c 00       		.byte	0
 1343 001d 0B       		.uleb128 0xb
 1344 001e 0B       		.uleb128 0xb
 1345 001f 3E       		.uleb128 0x3e
 1346 0020 0B       		.uleb128 0xb
 1347 0021 03       		.uleb128 0x3
 1348 0022 0E       		.uleb128 0xe
 1349 0023 00       		.byte	0
 1350 0024 00       		.byte	0
 1351 0025 04       		.uleb128 0x4
 1352 0026 16       		.uleb128 0x16
 1353 0027 00       		.byte	0
 1354 0028 03       		.uleb128 0x3
 1355 0029 0E       		.uleb128 0xe
 1356 002a 3A       		.uleb128 0x3a
 1357 002b 0B       		.uleb128 0xb
 1358 002c 3B       		.uleb128 0x3b
 1359 002d 0B       		.uleb128 0xb
 1360 002e 39       		.uleb128 0x39
 1361 002f 0B       		.uleb128 0xb
 1362 0030 49       		.uleb128 0x49
 1363 0031 13       		.uleb128 0x13
 1364 0032 00       		.byte	0
 1365 0033 00       		.byte	0
 1366 0034 05       		.uleb128 0x5
 1367 0035 13       		.uleb128 0x13
 1368 0036 01       		.byte	0x1
ARM GAS  /tmp/cc7A5JCV.s 			page 25


 1369 0037 03       		.uleb128 0x3
 1370 0038 0E       		.uleb128 0xe
 1371 0039 0B       		.uleb128 0xb
 1372 003a 0B       		.uleb128 0xb
 1373 003b 3A       		.uleb128 0x3a
 1374 003c 0B       		.uleb128 0xb
 1375 003d 3B       		.uleb128 0x3b
 1376 003e 0B       		.uleb128 0xb
 1377 003f 39       		.uleb128 0x39
 1378 0040 0B       		.uleb128 0xb
 1379 0041 01       		.uleb128 0x1
 1380 0042 13       		.uleb128 0x13
 1381 0043 00       		.byte	0
 1382 0044 00       		.byte	0
 1383 0045 06       		.uleb128 0x6
 1384 0046 0D       		.uleb128 0xd
 1385 0047 00       		.byte	0
 1386 0048 03       		.uleb128 0x3
 1387 0049 0E       		.uleb128 0xe
 1388 004a 3A       		.uleb128 0x3a
 1389 004b 0B       		.uleb128 0xb
 1390 004c 3B       		.uleb128 0x3b
 1391 004d 0B       		.uleb128 0xb
 1392 004e 39       		.uleb128 0x39
 1393 004f 0B       		.uleb128 0xb
 1394 0050 49       		.uleb128 0x49
 1395 0051 13       		.uleb128 0x13
 1396 0052 38       		.uleb128 0x38
 1397 0053 0B       		.uleb128 0xb
 1398 0054 00       		.byte	0
 1399 0055 00       		.byte	0
 1400 0056 07       		.uleb128 0x7
 1401 0057 0D       		.uleb128 0xd
 1402 0058 00       		.byte	0
 1403 0059 03       		.uleb128 0x3
 1404 005a 08       		.uleb128 0x8
 1405 005b 3A       		.uleb128 0x3a
 1406 005c 0B       		.uleb128 0xb
 1407 005d 3B       		.uleb128 0x3b
 1408 005e 0B       		.uleb128 0xb
 1409 005f 39       		.uleb128 0x39
 1410 0060 0B       		.uleb128 0xb
 1411 0061 49       		.uleb128 0x49
 1412 0062 13       		.uleb128 0x13
 1413 0063 38       		.uleb128 0x38
 1414 0064 0B       		.uleb128 0xb
 1415 0065 00       		.byte	0
 1416 0066 00       		.byte	0
 1417 0067 08       		.uleb128 0x8
 1418 0068 0D       		.uleb128 0xd
 1419 0069 00       		.byte	0
 1420 006a 03       		.uleb128 0x3
 1421 006b 08       		.uleb128 0x8
 1422 006c 3A       		.uleb128 0x3a
 1423 006d 0B       		.uleb128 0xb
 1424 006e 3B       		.uleb128 0x3b
 1425 006f 05       		.uleb128 0x5
ARM GAS  /tmp/cc7A5JCV.s 			page 26


 1426 0070 39       		.uleb128 0x39
 1427 0071 0B       		.uleb128 0xb
 1428 0072 49       		.uleb128 0x49
 1429 0073 13       		.uleb128 0x13
 1430 0074 38       		.uleb128 0x38
 1431 0075 0B       		.uleb128 0xb
 1432 0076 00       		.byte	0
 1433 0077 00       		.byte	0
 1434 0078 09       		.uleb128 0x9
 1435 0079 0D       		.uleb128 0xd
 1436 007a 00       		.byte	0
 1437 007b 03       		.uleb128 0x3
 1438 007c 0E       		.uleb128 0xe
 1439 007d 3A       		.uleb128 0x3a
 1440 007e 0B       		.uleb128 0xb
 1441 007f 3B       		.uleb128 0x3b
 1442 0080 05       		.uleb128 0x5
 1443 0081 39       		.uleb128 0x39
 1444 0082 0B       		.uleb128 0xb
 1445 0083 49       		.uleb128 0x49
 1446 0084 13       		.uleb128 0x13
 1447 0085 38       		.uleb128 0x38
 1448 0086 0B       		.uleb128 0xb
 1449 0087 00       		.byte	0
 1450 0088 00       		.byte	0
 1451 0089 0A       		.uleb128 0xa
 1452 008a 0F       		.uleb128 0xf
 1453 008b 00       		.byte	0
 1454 008c 0B       		.uleb128 0xb
 1455 008d 0B       		.uleb128 0xb
 1456 008e 49       		.uleb128 0x49
 1457 008f 13       		.uleb128 0x13
 1458 0090 00       		.byte	0
 1459 0091 00       		.byte	0
 1460 0092 0B       		.uleb128 0xb
 1461 0093 26       		.uleb128 0x26
 1462 0094 00       		.byte	0
 1463 0095 49       		.uleb128 0x49
 1464 0096 13       		.uleb128 0x13
 1465 0097 00       		.byte	0
 1466 0098 00       		.byte	0
 1467 0099 0C       		.uleb128 0xc
 1468 009a 13       		.uleb128 0x13
 1469 009b 01       		.byte	0x1
 1470 009c 03       		.uleb128 0x3
 1471 009d 0E       		.uleb128 0xe
 1472 009e 0B       		.uleb128 0xb
 1473 009f 0B       		.uleb128 0xb
 1474 00a0 3A       		.uleb128 0x3a
 1475 00a1 0B       		.uleb128 0xb
 1476 00a2 3B       		.uleb128 0x3b
 1477 00a3 05       		.uleb128 0x5
 1478 00a4 39       		.uleb128 0x39
 1479 00a5 0B       		.uleb128 0xb
 1480 00a6 01       		.uleb128 0x1
 1481 00a7 13       		.uleb128 0x13
 1482 00a8 00       		.byte	0
ARM GAS  /tmp/cc7A5JCV.s 			page 27


 1483 00a9 00       		.byte	0
 1484 00aa 0D       		.uleb128 0xd
 1485 00ab 15       		.uleb128 0x15
 1486 00ac 01       		.byte	0x1
 1487 00ad 27       		.uleb128 0x27
 1488 00ae 19       		.uleb128 0x19
 1489 00af 01       		.uleb128 0x1
 1490 00b0 13       		.uleb128 0x13
 1491 00b1 00       		.byte	0
 1492 00b2 00       		.byte	0
 1493 00b3 0E       		.uleb128 0xe
 1494 00b4 05       		.uleb128 0x5
 1495 00b5 00       		.byte	0
 1496 00b6 49       		.uleb128 0x49
 1497 00b7 13       		.uleb128 0x13
 1498 00b8 00       		.byte	0
 1499 00b9 00       		.byte	0
 1500 00ba 0F       		.uleb128 0xf
 1501 00bb 0F       		.uleb128 0xf
 1502 00bc 00       		.byte	0
 1503 00bd 0B       		.uleb128 0xb
 1504 00be 0B       		.uleb128 0xb
 1505 00bf 00       		.byte	0
 1506 00c0 00       		.byte	0
 1507 00c1 10       		.uleb128 0x10
 1508 00c2 13       		.uleb128 0x13
 1509 00c3 01       		.byte	0x1
 1510 00c4 0B       		.uleb128 0xb
 1511 00c5 0B       		.uleb128 0xb
 1512 00c6 3A       		.uleb128 0x3a
 1513 00c7 0B       		.uleb128 0xb
 1514 00c8 3B       		.uleb128 0x3b
 1515 00c9 0B       		.uleb128 0xb
 1516 00ca 39       		.uleb128 0x39
 1517 00cb 0B       		.uleb128 0xb
 1518 00cc 01       		.uleb128 0x1
 1519 00cd 13       		.uleb128 0x13
 1520 00ce 00       		.byte	0
 1521 00cf 00       		.byte	0
 1522 00d0 11       		.uleb128 0x11
 1523 00d1 17       		.uleb128 0x17
 1524 00d2 01       		.byte	0x1
 1525 00d3 0B       		.uleb128 0xb
 1526 00d4 0B       		.uleb128 0xb
 1527 00d5 3A       		.uleb128 0x3a
 1528 00d6 0B       		.uleb128 0xb
 1529 00d7 3B       		.uleb128 0x3b
 1530 00d8 0B       		.uleb128 0xb
 1531 00d9 39       		.uleb128 0x39
 1532 00da 0B       		.uleb128 0xb
 1533 00db 01       		.uleb128 0x1
 1534 00dc 13       		.uleb128 0x13
 1535 00dd 00       		.byte	0
 1536 00de 00       		.byte	0
 1537 00df 12       		.uleb128 0x12
 1538 00e0 0D       		.uleb128 0xd
 1539 00e1 00       		.byte	0
ARM GAS  /tmp/cc7A5JCV.s 			page 28


 1540 00e2 03       		.uleb128 0x3
 1541 00e3 0E       		.uleb128 0xe
 1542 00e4 3A       		.uleb128 0x3a
 1543 00e5 0B       		.uleb128 0xb
 1544 00e6 3B       		.uleb128 0x3b
 1545 00e7 0B       		.uleb128 0xb
 1546 00e8 39       		.uleb128 0x39
 1547 00e9 0B       		.uleb128 0xb
 1548 00ea 49       		.uleb128 0x49
 1549 00eb 13       		.uleb128 0x13
 1550 00ec 00       		.byte	0
 1551 00ed 00       		.byte	0
 1552 00ee 13       		.uleb128 0x13
 1553 00ef 0D       		.uleb128 0xd
 1554 00f0 00       		.byte	0
 1555 00f1 03       		.uleb128 0x3
 1556 00f2 0E       		.uleb128 0xe
 1557 00f3 3A       		.uleb128 0x3a
 1558 00f4 0B       		.uleb128 0xb
 1559 00f5 3B       		.uleb128 0x3b
 1560 00f6 05       		.uleb128 0x5
 1561 00f7 39       		.uleb128 0x39
 1562 00f8 0B       		.uleb128 0xb
 1563 00f9 49       		.uleb128 0x49
 1564 00fa 13       		.uleb128 0x13
 1565 00fb 00       		.byte	0
 1566 00fc 00       		.byte	0
 1567 00fd 14       		.uleb128 0x14
 1568 00fe 35       		.uleb128 0x35
 1569 00ff 00       		.byte	0
 1570 0100 49       		.uleb128 0x49
 1571 0101 13       		.uleb128 0x13
 1572 0102 00       		.byte	0
 1573 0103 00       		.byte	0
 1574 0104 15       		.uleb128 0x15
 1575 0105 34       		.uleb128 0x34
 1576 0106 00       		.byte	0
 1577 0107 03       		.uleb128 0x3
 1578 0108 08       		.uleb128 0x8
 1579 0109 3A       		.uleb128 0x3a
 1580 010a 0B       		.uleb128 0xb
 1581 010b 3B       		.uleb128 0x3b
 1582 010c 05       		.uleb128 0x5
 1583 010d 39       		.uleb128 0x39
 1584 010e 0B       		.uleb128 0xb
 1585 010f 49       		.uleb128 0x49
 1586 0110 13       		.uleb128 0x13
 1587 0111 3F       		.uleb128 0x3f
 1588 0112 19       		.uleb128 0x19
 1589 0113 3C       		.uleb128 0x3c
 1590 0114 19       		.uleb128 0x19
 1591 0115 00       		.byte	0
 1592 0116 00       		.byte	0
 1593 0117 16       		.uleb128 0x16
 1594 0118 2E       		.uleb128 0x2e
 1595 0119 01       		.byte	0x1
 1596 011a 3F       		.uleb128 0x3f
ARM GAS  /tmp/cc7A5JCV.s 			page 29


 1597 011b 19       		.uleb128 0x19
 1598 011c 03       		.uleb128 0x3
 1599 011d 0E       		.uleb128 0xe
 1600 011e 3A       		.uleb128 0x3a
 1601 011f 0B       		.uleb128 0xb
 1602 0120 3B       		.uleb128 0x3b
 1603 0121 05       		.uleb128 0x5
 1604 0122 39       		.uleb128 0x39
 1605 0123 0B       		.uleb128 0xb
 1606 0124 27       		.uleb128 0x27
 1607 0125 19       		.uleb128 0x19
 1608 0126 01       		.uleb128 0x1
 1609 0127 13       		.uleb128 0x13
 1610 0128 00       		.byte	0
 1611 0129 00       		.byte	0
 1612 012a 17       		.uleb128 0x17
 1613 012b 34       		.uleb128 0x34
 1614 012c 00       		.byte	0
 1615 012d 03       		.uleb128 0x3
 1616 012e 08       		.uleb128 0x8
 1617 012f 3A       		.uleb128 0x3a
 1618 0130 0B       		.uleb128 0xb
 1619 0131 3B       		.uleb128 0x3b
 1620 0132 05       		.uleb128 0x5
 1621 0133 39       		.uleb128 0x39
 1622 0134 0B       		.uleb128 0xb
 1623 0135 49       		.uleb128 0x49
 1624 0136 13       		.uleb128 0x13
 1625 0137 00       		.byte	0
 1626 0138 00       		.byte	0
 1627 0139 18       		.uleb128 0x18
 1628 013a 0B       		.uleb128 0xb
 1629 013b 01       		.byte	0x1
 1630 013c 00       		.byte	0
 1631 013d 00       		.byte	0
 1632 013e 19       		.uleb128 0x19
 1633 013f 05       		.uleb128 0x5
 1634 0140 00       		.byte	0
 1635 0141 03       		.uleb128 0x3
 1636 0142 08       		.uleb128 0x8
 1637 0143 3A       		.uleb128 0x3a
 1638 0144 0B       		.uleb128 0xb
 1639 0145 3B       		.uleb128 0x3b
 1640 0146 05       		.uleb128 0x5
 1641 0147 39       		.uleb128 0x39
 1642 0148 0B       		.uleb128 0xb
 1643 0149 49       		.uleb128 0x49
 1644 014a 13       		.uleb128 0x13
 1645 014b 00       		.byte	0
 1646 014c 00       		.byte	0
 1647 014d 1A       		.uleb128 0x1a
 1648 014e 34       		.uleb128 0x34
 1649 014f 00       		.byte	0
 1650 0150 03       		.uleb128 0x3
 1651 0151 0E       		.uleb128 0xe
 1652 0152 49       		.uleb128 0x49
 1653 0153 13       		.uleb128 0x13
ARM GAS  /tmp/cc7A5JCV.s 			page 30


 1654 0154 34       		.uleb128 0x34
 1655 0155 19       		.uleb128 0x19
 1656 0156 00       		.byte	0
 1657 0157 00       		.byte	0
 1658 0158 1B       		.uleb128 0x1b
 1659 0159 34       		.uleb128 0x34
 1660 015a 00       		.byte	0
 1661 015b 03       		.uleb128 0x3
 1662 015c 0E       		.uleb128 0xe
 1663 015d 3A       		.uleb128 0x3a
 1664 015e 0B       		.uleb128 0xb
 1665 015f 3B       		.uleb128 0x3b
 1666 0160 05       		.uleb128 0x5
 1667 0161 39       		.uleb128 0x39
 1668 0162 0B       		.uleb128 0xb
 1669 0163 49       		.uleb128 0x49
 1670 0164 13       		.uleb128 0x13
 1671 0165 00       		.byte	0
 1672 0166 00       		.byte	0
 1673 0167 1C       		.uleb128 0x1c
 1674 0168 01       		.uleb128 0x1
 1675 0169 01       		.byte	0x1
 1676 016a 49       		.uleb128 0x49
 1677 016b 13       		.uleb128 0x13
 1678 016c 01       		.uleb128 0x1
 1679 016d 13       		.uleb128 0x13
 1680 016e 00       		.byte	0
 1681 016f 00       		.byte	0
 1682 0170 1D       		.uleb128 0x1d
 1683 0171 21       		.uleb128 0x21
 1684 0172 00       		.byte	0
 1685 0173 49       		.uleb128 0x49
 1686 0174 13       		.uleb128 0x13
 1687 0175 2F       		.uleb128 0x2f
 1688 0176 0B       		.uleb128 0xb
 1689 0177 00       		.byte	0
 1690 0178 00       		.byte	0
 1691 0179 1E       		.uleb128 0x1e
 1692 017a 2E       		.uleb128 0x2e
 1693 017b 01       		.byte	0x1
 1694 017c 3F       		.uleb128 0x3f
 1695 017d 19       		.uleb128 0x19
 1696 017e 03       		.uleb128 0x3
 1697 017f 0E       		.uleb128 0xe
 1698 0180 3A       		.uleb128 0x3a
 1699 0181 0B       		.uleb128 0xb
 1700 0182 3B       		.uleb128 0x3b
 1701 0183 05       		.uleb128 0x5
 1702 0184 39       		.uleb128 0x39
 1703 0185 0B       		.uleb128 0xb
 1704 0186 27       		.uleb128 0x27
 1705 0187 19       		.uleb128 0x19
 1706 0188 49       		.uleb128 0x49
 1707 0189 13       		.uleb128 0x13
 1708 018a 01       		.uleb128 0x1
 1709 018b 13       		.uleb128 0x13
 1710 018c 00       		.byte	0
ARM GAS  /tmp/cc7A5JCV.s 			page 31


 1711 018d 00       		.byte	0
 1712 018e 1F       		.uleb128 0x1f
 1713 018f 2E       		.uleb128 0x2e
 1714 0190 01       		.byte	0x1
 1715 0191 3F       		.uleb128 0x3f
 1716 0192 19       		.uleb128 0x19
 1717 0193 03       		.uleb128 0x3
 1718 0194 0E       		.uleb128 0xe
 1719 0195 3A       		.uleb128 0x3a
 1720 0196 0B       		.uleb128 0xb
 1721 0197 3B       		.uleb128 0x3b
 1722 0198 0B       		.uleb128 0xb
 1723 0199 39       		.uleb128 0x39
 1724 019a 0B       		.uleb128 0xb
 1725 019b 27       		.uleb128 0x27
 1726 019c 19       		.uleb128 0x19
 1727 019d 49       		.uleb128 0x49
 1728 019e 13       		.uleb128 0x13
 1729 019f 01       		.uleb128 0x1
 1730 01a0 13       		.uleb128 0x13
 1731 01a1 00       		.byte	0
 1732 01a2 00       		.byte	0
 1733 01a3 20       		.uleb128 0x20
 1734 01a4 05       		.uleb128 0x5
 1735 01a5 00       		.byte	0
 1736 01a6 03       		.uleb128 0x3
 1737 01a7 08       		.uleb128 0x8
 1738 01a8 3A       		.uleb128 0x3a
 1739 01a9 0B       		.uleb128 0xb
 1740 01aa 3B       		.uleb128 0x3b
 1741 01ab 0B       		.uleb128 0xb
 1742 01ac 39       		.uleb128 0x39
 1743 01ad 0B       		.uleb128 0xb
 1744 01ae 49       		.uleb128 0x49
 1745 01af 13       		.uleb128 0x13
 1746 01b0 00       		.byte	0
 1747 01b1 00       		.byte	0
 1748 01b2 21       		.uleb128 0x21
 1749 01b3 2E       		.uleb128 0x2e
 1750 01b4 01       		.byte	0x1
 1751 01b5 3F       		.uleb128 0x3f
 1752 01b6 19       		.uleb128 0x19
 1753 01b7 03       		.uleb128 0x3
 1754 01b8 0E       		.uleb128 0xe
 1755 01b9 3A       		.uleb128 0x3a
 1756 01ba 0B       		.uleb128 0xb
 1757 01bb 3B       		.uleb128 0x3b
 1758 01bc 0B       		.uleb128 0xb
 1759 01bd 39       		.uleb128 0x39
 1760 01be 0B       		.uleb128 0xb
 1761 01bf 27       		.uleb128 0x27
 1762 01c0 19       		.uleb128 0x19
 1763 01c1 01       		.uleb128 0x1
 1764 01c2 13       		.uleb128 0x13
 1765 01c3 00       		.byte	0
 1766 01c4 00       		.byte	0
 1767 01c5 22       		.uleb128 0x22
ARM GAS  /tmp/cc7A5JCV.s 			page 32


 1768 01c6 34       		.uleb128 0x34
 1769 01c7 00       		.byte	0
 1770 01c8 03       		.uleb128 0x3
 1771 01c9 08       		.uleb128 0x8
 1772 01ca 3A       		.uleb128 0x3a
 1773 01cb 0B       		.uleb128 0xb
 1774 01cc 3B       		.uleb128 0x3b
 1775 01cd 0B       		.uleb128 0xb
 1776 01ce 39       		.uleb128 0x39
 1777 01cf 0B       		.uleb128 0xb
 1778 01d0 49       		.uleb128 0x49
 1779 01d1 13       		.uleb128 0x13
 1780 01d2 00       		.byte	0
 1781 01d3 00       		.byte	0
 1782 01d4 23       		.uleb128 0x23
 1783 01d5 2E       		.uleb128 0x2e
 1784 01d6 01       		.byte	0x1
 1785 01d7 03       		.uleb128 0x3
 1786 01d8 0E       		.uleb128 0xe
 1787 01d9 3A       		.uleb128 0x3a
 1788 01da 0B       		.uleb128 0xb
 1789 01db 3B       		.uleb128 0x3b
 1790 01dc 0B       		.uleb128 0xb
 1791 01dd 39       		.uleb128 0x39
 1792 01de 0B       		.uleb128 0xb
 1793 01df 27       		.uleb128 0x27
 1794 01e0 19       		.uleb128 0x19
 1795 01e1 49       		.uleb128 0x49
 1796 01e2 13       		.uleb128 0x13
 1797 01e3 01       		.uleb128 0x1
 1798 01e4 13       		.uleb128 0x13
 1799 01e5 00       		.byte	0
 1800 01e6 00       		.byte	0
 1801 01e7 24       		.uleb128 0x24
 1802 01e8 2E       		.uleb128 0x2e
 1803 01e9 01       		.byte	0x1
 1804 01ea 03       		.uleb128 0x3
 1805 01eb 0E       		.uleb128 0xe
 1806 01ec 3A       		.uleb128 0x3a
 1807 01ed 0B       		.uleb128 0xb
 1808 01ee 3B       		.uleb128 0x3b
 1809 01ef 05       		.uleb128 0x5
 1810 01f0 39       		.uleb128 0x39
 1811 01f1 0B       		.uleb128 0xb
 1812 01f2 27       		.uleb128 0x27
 1813 01f3 19       		.uleb128 0x19
 1814 01f4 01       		.uleb128 0x1
 1815 01f5 13       		.uleb128 0x13
 1816 01f6 00       		.byte	0
 1817 01f7 00       		.byte	0
 1818 01f8 25       		.uleb128 0x25
 1819 01f9 2E       		.uleb128 0x2e
 1820 01fa 00       		.byte	0
 1821 01fb 03       		.uleb128 0x3
 1822 01fc 0E       		.uleb128 0xe
 1823 01fd 3A       		.uleb128 0x3a
 1824 01fe 0B       		.uleb128 0xb
ARM GAS  /tmp/cc7A5JCV.s 			page 33


 1825 01ff 3B       		.uleb128 0x3b
 1826 0200 05       		.uleb128 0x5
 1827 0201 39       		.uleb128 0x39
 1828 0202 0B       		.uleb128 0xb
 1829 0203 27       		.uleb128 0x27
 1830 0204 19       		.uleb128 0x19
 1831 0205 00       		.byte	0
 1832 0206 00       		.byte	0
 1833 0207 26       		.uleb128 0x26
 1834 0208 2E       		.uleb128 0x2e
 1835 0209 01       		.byte	0x1
 1836 020a 03       		.uleb128 0x3
 1837 020b 0E       		.uleb128 0xe
 1838 020c 3A       		.uleb128 0x3a
 1839 020d 0B       		.uleb128 0xb
 1840 020e 3B       		.uleb128 0x3b
 1841 020f 05       		.uleb128 0x5
 1842 0210 39       		.uleb128 0x39
 1843 0211 0B       		.uleb128 0xb
 1844 0212 27       		.uleb128 0x27
 1845 0213 19       		.uleb128 0x19
 1846 0214 49       		.uleb128 0x49
 1847 0215 13       		.uleb128 0x13
 1848 0216 01       		.uleb128 0x1
 1849 0217 13       		.uleb128 0x13
 1850 0218 00       		.byte	0
 1851 0219 00       		.byte	0
 1852 021a 27       		.uleb128 0x27
 1853 021b 2E       		.uleb128 0x2e
 1854 021c 01       		.byte	0x1
 1855 021d 03       		.uleb128 0x3
 1856 021e 0E       		.uleb128 0xe
 1857 021f 3A       		.uleb128 0x3a
 1858 0220 0B       		.uleb128 0xb
 1859 0221 3B       		.uleb128 0x3b
 1860 0222 05       		.uleb128 0x5
 1861 0223 39       		.uleb128 0x39
 1862 0224 0B       		.uleb128 0xb
 1863 0225 27       		.uleb128 0x27
 1864 0226 19       		.uleb128 0x19
 1865 0227 00       		.byte	0
 1866 0228 00       		.byte	0
 1867 0229 28       		.uleb128 0x28
 1868 022a 05       		.uleb128 0x5
 1869 022b 00       		.byte	0
 1870 022c 03       		.uleb128 0x3
 1871 022d 0E       		.uleb128 0xe
 1872 022e 3A       		.uleb128 0x3a
 1873 022f 0B       		.uleb128 0xb
 1874 0230 3B       		.uleb128 0x3b
 1875 0231 05       		.uleb128 0x5
 1876 0232 39       		.uleb128 0x39
 1877 0233 0B       		.uleb128 0xb
 1878 0234 49       		.uleb128 0x49
 1879 0235 13       		.uleb128 0x13
 1880 0236 00       		.byte	0
 1881 0237 00       		.byte	0
ARM GAS  /tmp/cc7A5JCV.s 			page 34


 1882 0238 00       		.byte	0
 1883              		.section	.gnu.debuglto_.debug_line,"e",%progbits
 1884              	.Ldebug_line0:
 1885 0000 29020000 		.4byte	.LELT0-.LSLT0
 1886              	.LSLT0:
 1887 0004 0400     		.2byte	0x4
 1888 0006 23020000 		.4byte	.LELTP0-.LASLTP0
 1889              	.LASLTP0:
 1890 000a 01       		.byte	0x1
 1891 000b 01       		.byte	0x1
 1892 000c 01       		.byte	0x1
 1893 000d F6       		.byte	0xf6
 1894 000e F2       		.byte	0xf2
 1895 000f 0D       		.byte	0xd
 1896 0010 00       		.byte	0
 1897 0011 01       		.byte	0x1
 1898 0012 01       		.byte	0x1
 1899 0013 01       		.byte	0x1
 1900 0014 01       		.byte	0x1
 1901 0015 00       		.byte	0
 1902 0016 00       		.byte	0
 1903 0017 00       		.byte	0
 1904 0018 01       		.byte	0x1
 1905 0019 00       		.byte	0
 1906 001a 00       		.byte	0
 1907 001b 01       		.byte	0x1
 1908 001c 43686962 		.ascii	"ChibiOS_20.3.0/os/common/ext/ARM/CMSIS/Core/Include"
 1908      694F535F 
 1908      32302E33 
 1908      2E302F6F 
 1908      732F636F 
 1909 004f 00       		.byte	0
 1910 0050 43686962 		.ascii	"ChibiOS_20.3.0/os/common/ports/ARMCMx/compilers/GCC"
 1910      694F535F 
 1910      32302E33 
 1910      2E302F6F 
 1910      732F636F 
 1911 0083 00       		.byte	0
 1912 0084 43686962 		.ascii	"ChibiOS_20.3.0/os/common/ports/ARMCMx"
 1912      694F535F 
 1912      32302E33 
 1912      2E302F6F 
 1912      732F636F 
 1913 00a9 00       		.byte	0
 1914 00aa 43686962 		.ascii	"ChibiOS_20.3.0/os/rt/include"
 1914      694F535F 
 1914      32302E33 
 1914      2E302F6F 
 1914      732F7274 
 1915 00c6 00       		.byte	0
 1916 00c7 43686962 		.ascii	"ChibiOS_20.3.0/os/rt/src"
 1916      694F535F 
 1916      32302E33 
 1916      2E302F6F 
 1916      732F7274 
 1917 00df 00       		.byte	0
 1918 00e0 2F757372 		.ascii	"/usr/share/gcc-arm-none-eabi-10-2020-q4-major/arm-n"
ARM GAS  /tmp/cc7A5JCV.s 			page 35


 1918      2F736861 
 1918      72652F67 
 1918      63632D61 
 1918      726D2D6E 
 1919 0113 6F6E652D 		.ascii	"one-eabi/include/machine"
 1919      65616269 
 1919      2F696E63 
 1919      6C756465 
 1919      2F6D6163 
 1920 012b 00       		.byte	0
 1921 012c 2F757372 		.ascii	"/usr/share/gcc-arm-none-eabi-10-2020-q4-major/arm-n"
 1921      2F736861 
 1921      72652F67 
 1921      63632D61 
 1921      726D2D6E 
 1922 015f 6F6E652D 		.ascii	"one-eabi/include/sys"
 1922      65616269 
 1922      2F696E63 
 1922      6C756465 
 1922      2F737973 
 1923 0173 00       		.byte	0
 1924 0174 00       		.byte	0
 1925 0175 5F646566 		.ascii	"_default_types.h\000"
 1925      61756C74 
 1925      5F747970 
 1925      65732E68 
 1925      00
 1926 0186 06       		.uleb128 0x6
 1927 0187 00       		.uleb128 0
 1928 0188 00       		.uleb128 0
 1929 0189 5F737464 		.ascii	"_stdint.h\000"
 1929      696E742E 
 1929      6800
 1930 0193 07       		.uleb128 0x7
 1931 0194 00       		.uleb128 0
 1932 0195 00       		.uleb128 0
 1933 0196 63687479 		.ascii	"chtypes.h\000"
 1933      7065732E 
 1933      6800
 1934 01a0 02       		.uleb128 0x2
 1935 01a1 00       		.uleb128 0
 1936 01a2 00       		.uleb128 0
 1937 01a3 63687379 		.ascii	"chsystypes.h\000"
 1937      73747970 
 1937      65732E68 
 1937      00
 1938 01b0 04       		.uleb128 0x4
 1939 01b1 00       		.uleb128 0
 1940 01b2 00       		.uleb128 0
 1941 01b3 63687363 		.ascii	"chschd.h\000"
 1941      68642E68 
 1941      00
 1942 01bc 04       		.uleb128 0x4
 1943 01bd 00       		.uleb128 0
 1944 01be 00       		.uleb128 0
 1945 01bf 63687469 		.ascii	"chtime.h\000"
 1945      6D652E68 
ARM GAS  /tmp/cc7A5JCV.s 			page 36


 1945      00
 1946 01c8 04       		.uleb128 0x4
 1947 01c9 00       		.uleb128 0
 1948 01ca 00       		.uleb128 0
 1949 01cb 6368636F 		.ascii	"chcore.h\000"
 1949      72652E68 
 1949      00
 1950 01d4 03       		.uleb128 0x3
 1951 01d5 00       		.uleb128 0
 1952 01d6 00       		.uleb128 0
 1953 01d7 6368636F 		.ascii	"chcore_v7m.h\000"
 1953      72655F76 
 1953      376D2E68 
 1953      00
 1954 01e4 03       		.uleb128 0x3
 1955 01e5 00       		.uleb128 0
 1956 01e6 00       		.uleb128 0
 1957 01e7 6368746D 		.ascii	"chtm.h\000"
 1957      2E6800
 1958 01ee 04       		.uleb128 0x4
 1959 01ef 00       		.uleb128 0
 1960 01f0 00       		.uleb128 0
 1961 01f1 63687365 		.ascii	"chsem.h\000"
 1961      6D2E6800 
 1962 01f9 04       		.uleb128 0x4
 1963 01fa 00       		.uleb128 0
 1964 01fb 00       		.uleb128 0
 1965 01fc 63686D74 		.ascii	"chmtx.h\000"
 1965      782E6800 
 1966 0204 04       		.uleb128 0x4
 1967 0205 00       		.uleb128 0
 1968 0206 00       		.uleb128 0
 1969 0207 63686D74 		.ascii	"chmtx.c\000"
 1969      782E6300 
 1970 020f 05       		.uleb128 0x5
 1971 0210 00       		.uleb128 0
 1972 0211 00       		.uleb128 0
 1973 0212 63687379 		.ascii	"chsys.h\000"
 1973      732E6800 
 1974 021a 04       		.uleb128 0x4
 1975 021b 00       		.uleb128 0
 1976 021c 00       		.uleb128 0
 1977 021d 636D7369 		.ascii	"cmsis_gcc.h\000"
 1977      735F6763 
 1977      632E6800 
 1978 0229 01       		.uleb128 0x1
 1979 022a 00       		.uleb128 0
 1980 022b 00       		.uleb128 0
 1981 022c 00       		.byte	0
 1982              	.LELTP0:
 1983              	.LELT0:
 1984              		.section	.gnu.debuglto_.debug_str,"eMS",%progbits,1
 1985              	.LASF50:
 1986 0000 72656164 		.ascii	"ready_list_t\000"
 1986      795F6C69 
 1986      73745F74 
 1986      00
ARM GAS  /tmp/cc7A5JCV.s 			page 37


 1987              	.LASF79:
 1988 000d 77747472 		.ascii	"wttrp\000"
 1988      7000
 1989              	.LASF56:
 1990 0013 64656C74 		.ascii	"delta\000"
 1990      6100
 1991              	.LASF76:
 1992 0019 7264796D 		.ascii	"rdymsg\000"
 1992      736700
 1993              	.LASF17:
 1994 0020 75696E74 		.ascii	"uint64_t\000"
 1994      36345F74 
 1994      00
 1995              	.LASF7:
 1996 0029 5F5F7569 		.ascii	"__uint8_t\000"
 1996      6E74385F 
 1996      7400
 1997              	.LASF49:
 1998 0033 70726576 		.ascii	"prev\000"
 1998      00
 1999              	.LASF72:
 2000 0038 706F7274 		.ascii	"port_intctx\000"
 2000      5F696E74 
 2000      63747800 
 2001              	.LASF61:
 2002 0044 73797374 		.ascii	"system_debug_t\000"
 2002      656D5F64 
 2002      65627567 
 2002      5F7400
 2003              	.LASF107:
 2004 0053 71756575 		.ascii	"queue_init\000"
 2004      655F696E 
 2004      697400
 2005              	.LASF110:
 2006 005e 706F7274 		.ascii	"port_lock\000"
 2006      5F6C6F63 
 2006      6B00
 2007              	.LASF13:
 2008 0068 6C6F6E67 		.ascii	"long long unsigned int\000"
 2008      206C6F6E 
 2008      6720756E 
 2008      7369676E 
 2008      65642069 
 2009              	.LASF77:
 2010 007f 65786974 		.ascii	"exitcode\000"
 2010      636F6465 
 2010      00
 2011              	.LASF68:
 2012 0088 6D61696E 		.ascii	"mainthread\000"
 2012      74687265 
 2012      616400
 2013              	.LASF80:
 2014 0093 73656E74 		.ascii	"sentmsg\000"
 2014      6D736700 
 2015              	.LASF58:
 2016 009b 76697274 		.ascii	"virtual_timers_list_t\000"
 2016      75616C5F 
ARM GAS  /tmp/cc7A5JCV.s 			page 38


 2016      74696D65 
 2016      72735F6C 
 2016      6973745F 
 2017              	.LASF46:
 2018 00b1 6E657874 		.ascii	"next\000"
 2018      00
 2019              	.LASF48:
 2020 00b6 63685F74 		.ascii	"ch_threads_queue\000"
 2020      68726561 
 2020      64735F71 
 2020      75657565 
 2020      00
 2021              	.LASF94:
 2022 00c7 63684D74 		.ascii	"chMtxUnlock\000"
 2022      78556E6C 
 2022      6F636B00 
 2023              	.LASF3:
 2024 00d3 7369676E 		.ascii	"signed char\000"
 2024      65642063 
 2024      68617200 
 2025              	.LASF111:
 2026 00df 62617365 		.ascii	"basePri\000"
 2026      50726900 
 2027              	.LASF67:
 2028 00e7 76746C69 		.ascii	"vtlist\000"
 2028      737400
 2029              	.LASF109:
 2030 00ee 706F7274 		.ascii	"port_unlock\000"
 2030      5F756E6C 
 2030      6F636B00 
 2031              	.LASF37:
 2032 00fa 6D736771 		.ascii	"msgqueue\000"
 2032      75657565 
 2032      00
 2033              	.LASF33:
 2034 0103 73746174 		.ascii	"state\000"
 2034      6500
 2035              	.LASF9:
 2036 0109 6C6F6E67 		.ascii	"long int\000"
 2036      20696E74 
 2036      00
 2037              	.LASF102:
 2038 0112 71756575 		.ascii	"queue_dequeue\000"
 2038      655F6465 
 2038      71756575 
 2038      6500
 2039              	.LASF20:
 2040 0120 74737461 		.ascii	"tstate_t\000"
 2040      74655F74 
 2040      00
 2041              	.LASF106:
 2042 0129 71756575 		.ascii	"queue_notempty\000"
 2042      655F6E6F 
 2042      74656D70 
 2042      747900
 2043              	.LASF91:
 2044 0138 63684D74 		.ascii	"chMtxUnlockAllS\000"
ARM GAS  /tmp/cc7A5JCV.s 			page 39


 2044      78556E6C 
 2044      6F636B41 
 2044      6C6C5300 
 2045              	.LASF57:
 2046 0148 66756E63 		.ascii	"func\000"
 2046      00
 2047              	.LASF100:
 2048 014d 63684D74 		.ascii	"chMtxObjectInit\000"
 2048      784F626A 
 2048      65637449 
 2048      6E697400 
 2049              	.LASF1:
 2050 015d 6C6F6E67 		.ascii	"long long int\000"
 2050      206C6F6E 
 2050      6720696E 
 2050      7400
 2051              	.LASF98:
 2052 016b 63684D74 		.ascii	"chMtxLockS\000"
 2052      784C6F63 
 2052      6B5300
 2053              	.LASF27:
 2054 0176 71756575 		.ascii	"queue\000"
 2054      6500
 2055              	.LASF96:
 2056 017c 63684D74 		.ascii	"chMtxTryLockS\000"
 2056      78547279 
 2056      4C6F636B 
 2056      5300
 2057              	.LASF10:
 2058 018a 5F5F7569 		.ascii	"__uint32_t\000"
 2058      6E743332 
 2058      5F7400
 2059              	.LASF114:
 2060 0195 2F686F6D 		.ascii	"/home/iamprithvishetty/CDSpace/mmc3416_test2\000"
 2060      652F6961 
 2060      6D707269 
 2060      74687669 
 2060      73686574 
 2061              	.LASF36:
 2062 01c2 77616974 		.ascii	"waiting\000"
 2062      696E6700 
 2063              	.LASF88:
 2064 01ca 6D757465 		.ascii	"mutex_t\000"
 2064      785F7400 
 2065              	.LASF70:
 2066 01d2 73797369 		.ascii	"sysinterval_t\000"
 2066      6E746572 
 2066      76616C5F 
 2066      7400
 2067              	.LASF25:
 2068 01e0 636E745F 		.ascii	"cnt_t\000"
 2068      7400
 2069              	.LASF92:
 2070 01e6 63684D74 		.ascii	"chMtxUnlockS\000"
 2070      78556E6C 
 2070      6F636B53 
 2070      00
ARM GAS  /tmp/cc7A5JCV.s 			page 40


 2071              	.LASF0:
 2072 01f3 756E7369 		.ascii	"unsigned int\000"
 2072      676E6564 
 2072      20696E74 
 2072      00
 2073              	.LASF81:
 2074 0200 77747365 		.ascii	"wtsemp\000"
 2074      6D7000
 2075              	.LASF11:
 2076 0207 6C6F6E67 		.ascii	"long unsigned int\000"
 2076      20756E73 
 2076      69676E65 
 2076      6420696E 
 2076      7400
 2077              	.LASF31:
 2078 0219 6E616D65 		.ascii	"name\000"
 2078      00
 2079              	.LASF41:
 2080 021e 6D706F6F 		.ascii	"mpool\000"
 2080      6C00
 2081              	.LASF6:
 2082 0224 73686F72 		.ascii	"short unsigned int\000"
 2082      7420756E 
 2082      7369676E 
 2082      65642069 
 2082      6E7400
 2083              	.LASF44:
 2084 0237 63685F74 		.ascii	"ch_thread\000"
 2084      68726561 
 2084      6400
 2085              	.LASF23:
 2086 0241 6D73675F 		.ascii	"msg_t\000"
 2086      7400
 2087              	.LASF38:
 2088 0247 6570656E 		.ascii	"epending\000"
 2088      64696E67 
 2088      00
 2089              	.LASF64:
 2090 0250 63685F73 		.ascii	"ch_system_t\000"
 2090      79737465 
 2090      6D5F7400 
 2091              	.LASF90:
 2092 025c 63684D74 		.ascii	"chMtxUnlockAll\000"
 2092      78556E6C 
 2092      6F636B41 
 2092      6C6C00
 2093              	.LASF93:
 2094 026b 6E657770 		.ascii	"newprio\000"
 2094      72696F00 
 2095              	.LASF19:
 2096 0273 746D6F64 		.ascii	"tmode_t\000"
 2096      655F7400 
 2097              	.LASF51:
 2098 027b 63685F72 		.ascii	"ch_ready_list\000"
 2098      65616479 
 2098      5F6C6973 
 2098      7400
ARM GAS  /tmp/cc7A5JCV.s 			page 41


 2099              	.LASF24:
 2100 0289 6576656E 		.ascii	"eventmask_t\000"
 2100      746D6173 
 2100      6B5F7400 
 2101              	.LASF112:
 2102 0295 474E5520 		.ascii	"GNU C17 10.2.1 20201103 (release) -mcpu=cortex-m4 -"
 2102      43313720 
 2102      31302E32 
 2102      2E312032 
 2102      30323031 
 2103 02c8 6D746875 		.ascii	"mthumb -mfloat-abi=soft -march=armv7e-m -ggdb -O2 -"
 2103      6D62202D 
 2103      6D666C6F 
 2103      61742D61 
 2103      62693D73 
 2104 02fb 666F6D69 		.ascii	"fomit-frame-pointer -falign-functions=16 -ffunction"
 2104      742D6672 
 2104      616D652D 
 2104      706F696E 
 2104      74657220 
 2105 032e 2D736563 		.ascii	"-sections -fdata-sections -fno-common -flto\000"
 2105      74696F6E 
 2105      73202D66 
 2105      64617461 
 2105      2D736563 
 2106              	.LASF97:
 2107 035a 63684D74 		.ascii	"chMtxTryLock\000"
 2107      78547279 
 2107      4C6F636B 
 2107      00
 2108              	.LASF8:
 2109 0367 5F5F696E 		.ascii	"__int32_t\000"
 2109      7433325F 
 2109      7400
 2110              	.LASF71:
 2111 0371 73746B61 		.ascii	"stkalign_t\000"
 2111      6C69676E 
 2111      5F7400
 2112              	.LASF29:
 2113 037c 6E657765 		.ascii	"newer\000"
 2113      7200
 2114              	.LASF40:
 2115 0382 7265616C 		.ascii	"realprio\000"
 2115      7072696F 
 2115      00
 2116              	.LASF18:
 2117 038b 7274636E 		.ascii	"rtcnt_t\000"
 2117      745F7400 
 2118              	.LASF42:
 2119 0393 74687265 		.ascii	"thread_reference_t\000"
 2119      61645F72 
 2119      65666572 
 2119      656E6365 
 2119      5F7400
 2120              	.LASF59:
 2121 03a6 63685F76 		.ascii	"ch_virtual_timers_list\000"
 2121      69727475 
ARM GAS  /tmp/cc7A5JCV.s 			page 42


 2121      616C5F74 
 2121      696D6572 
 2121      735F6C69 
 2122              	.LASF115:
 2123 03bd 5F5F7365 		.ascii	"__set_BASEPRI\000"
 2123      745F4241 
 2123      53455052 
 2123      4900
 2124              	.LASF99:
 2125 03cb 63684D74 		.ascii	"chMtxLock\000"
 2125      784C6F63 
 2125      6B00
 2126              	.LASF73:
 2127 03d5 706F7274 		.ascii	"port_context\000"
 2127      5F636F6E 
 2127      74657874 
 2127      00
 2128              	.LASF75:
 2129 03e2 746D5F63 		.ascii	"tm_calibration_t\000"
 2129      616C6962 
 2129      72617469 
 2129      6F6E5F74 
 2129      00
 2130              	.LASF28:
 2131 03f3 7072696F 		.ascii	"prio\000"
 2131      00
 2132              	.LASF52:
 2133 03f8 63757272 		.ascii	"current\000"
 2133      656E7400 
 2134              	.LASF12:
 2135 0400 5F5F7569 		.ascii	"__uint64_t\000"
 2135      6E743634 
 2135      5F7400
 2136              	.LASF21:
 2137 040b 74726566 		.ascii	"trefs_t\000"
 2137      735F7400 
 2138              	.LASF35:
 2139 0413 72656673 		.ascii	"refs\000"
 2139      00
 2140              	.LASF54:
 2141 0418 76697274 		.ascii	"virtual_timer_t\000"
 2141      75616C5F 
 2141      74696D65 
 2141      725F7400 
 2142              	.LASF22:
 2143 0428 74707269 		.ascii	"tprio_t\000"
 2143      6F5F7400 
 2144              	.LASF113:
 2145 0430 2E2F4368 		.ascii	"./ChibiOS_20.3.0/os/rt/src/chmtx.c\000"
 2145      6962694F 
 2145      535F3230 
 2145      2E332E30 
 2145      2F6F732F 
 2146              	.LASF62:
 2147 0453 63685F73 		.ascii	"ch_system_debug\000"
 2147      79737465 
 2147      6D5F6465 
ARM GAS  /tmp/cc7A5JCV.s 			page 43


 2147      62756700 
 2148              	.LASF89:
 2149 0463 5F426F6F 		.ascii	"_Bool\000"
 2149      6C00
 2150              	.LASF15:
 2151 0469 696E7433 		.ascii	"int32_t\000"
 2151      325F7400 
 2152              	.LASF4:
 2153 0471 756E7369 		.ascii	"unsigned char\000"
 2153      676E6564 
 2153      20636861 
 2153      7200
 2154              	.LASF5:
 2155 047f 73686F72 		.ascii	"short int\000"
 2155      7420696E 
 2155      7400
 2156              	.LASF60:
 2157 0489 6C617374 		.ascii	"lasttime\000"
 2157      74696D65 
 2157      00
 2158              	.LASF83:
 2159 0492 65776D61 		.ascii	"ewmask\000"
 2159      736B00
 2160              	.LASF65:
 2161 0499 63685F73 		.ascii	"ch_system\000"
 2161      79737465 
 2161      6D00
 2162              	.LASF95:
 2163 04a3 5F5F6675 		.ascii	"__func__\000"
 2163      6E635F5F 
 2163      00
 2164              	.LASF108:
 2165 04ac 63685379 		.ascii	"chSysLock\000"
 2165      734C6F63 
 2165      6B00
 2166              	.LASF55:
 2167 04b6 63685F76 		.ascii	"ch_virtual_timer\000"
 2167      69727475 
 2167      616C5F74 
 2167      696D6572 
 2167      00
 2168              	.LASF84:
 2169 04c7 63685F73 		.ascii	"ch_semaphore\000"
 2169      656D6170 
 2169      686F7265 
 2169      00
 2170              	.LASF16:
 2171 04d4 75696E74 		.ascii	"uint32_t\000"
 2171      33325F74 
 2171      00
 2172              	.LASF82:
 2173 04dd 77746D74 		.ascii	"wtmtxp\000"
 2173      787000
 2174              	.LASF45:
 2175 04e4 63685F74 		.ascii	"ch_threads_list\000"
 2175      68726561 
 2175      64735F6C 
ARM GAS  /tmp/cc7A5JCV.s 			page 44


 2175      69737400 
 2176              	.LASF86:
 2177 04f4 6F776E65 		.ascii	"owner\000"
 2177      7200
 2178              	.LASF2:
 2179 04fa 6C6F6E67 		.ascii	"long double\000"
 2179      20646F75 
 2179      626C6500 
 2180              	.LASF32:
 2181 0506 77616261 		.ascii	"wabase\000"
 2181      736500
 2182              	.LASF87:
 2183 050d 63686172 		.ascii	"char\000"
 2183      00
 2184              	.LASF30:
 2185 0512 6F6C6465 		.ascii	"older\000"
 2185      7200
 2186              	.LASF26:
 2187 0518 74687265 		.ascii	"thread_t\000"
 2187      61645F74 
 2187      00
 2188              	.LASF103:
 2189 0521 71756575 		.ascii	"queue_fifo_remove\000"
 2189      655F6669 
 2189      666F5F72 
 2189      656D6F76 
 2189      6500
 2190              	.LASF69:
 2191 0533 73797374 		.ascii	"systime_t\000"
 2191      696D655F 
 2191      7400
 2192              	.LASF53:
 2193 053d 76746675 		.ascii	"vtfunc_t\000"
 2193      6E635F74 
 2193      00
 2194              	.LASF101:
 2195 0546 63684D74 		.ascii	"chMtxQueueNotEmptyS\000"
 2195      78517565 
 2195      75654E6F 
 2195      74456D70 
 2195      74795300 
 2196              	.LASF63:
 2197 055a 70616E69 		.ascii	"panic_msg\000"
 2197      635F6D73 
 2197      6700
 2198              	.LASF74:
 2199 0564 6F666673 		.ascii	"offset\000"
 2199      657400
 2200              	.LASF47:
 2201 056b 74687265 		.ascii	"threads_queue_t\000"
 2201      6164735F 
 2201      71756575 
 2201      655F7400 
 2202              	.LASF85:
 2203 057b 63685F6D 		.ascii	"ch_mutex\000"
 2203      75746578 
 2203      00
ARM GAS  /tmp/cc7A5JCV.s 			page 45


 2204              	.LASF66:
 2205 0584 726C6973 		.ascii	"rlist\000"
 2205      7400
 2206              	.LASF14:
 2207 058a 75696E74 		.ascii	"uint8_t\000"
 2207      385F7400 
 2208              	.LASF34:
 2209 0592 666C6167 		.ascii	"flags\000"
 2209      7300
 2210              	.LASF78:
 2211 0598 77746F62 		.ascii	"wtobjp\000"
 2211      6A7000
 2212              	.LASF43:
 2213 059f 74687265 		.ascii	"threads_list_t\000"
 2213      6164735F 
 2213      6C697374 
 2213      5F7400
 2214              	.LASF104:
 2215 05ae 63685379 		.ascii	"chSysUnlock\000"
 2215      73556E6C 
 2215      6F636B00 
 2216              	.LASF105:
 2217 05ba 71756575 		.ascii	"queue_prio_insert\000"
 2217      655F7072 
 2217      696F5F69 
 2217      6E736572 
 2217      7400
 2218              	.LASF39:
 2219 05cc 6D74786C 		.ascii	"mtxlist\000"
 2219      69737400 
 2220              		.text
 2221              		.section	.gnu.lto_.profile.7f87b3e556a28f3e,"e",%progbits
 2222 0000 789C6362 		.ascii	"x\234cb\000\001\000\000\022\000\003"
 2222      00010000 
 2222      120003
 2223              		.text
 2224              		.section	.gnu.lto_.icf.7f87b3e556a28f3e,"e",%progbits
 2225 0000 789C7366 		.ascii	"x\234sf@\000n\206\015=\013;\330\031\027\236}\363\200"
 2225      40006E86 
 2225      0D3D0B3B 
 2225      D819179E 
 2225      7DF380
 2226 0013 9DF9DA9D 		.ascii	"\235\371\332\235\177K\330XN,\330w\231\235\365\345\275"
 2226      7F4BD858 
 2226      4E2CD877 
 2226      999DF5E5 
 2226      BD
 2227 0024 DB3BD9D8 		.ascii	"\333;\331\330\3727\236~\306\315\276\177\375\222g,\034"
 2227      FA379E7E 
 2227      C6CDBE7F 
 2227      FD92672C 
 2227      1C
 2228 0035 FB1A5F6C 		.ascii	"\373\032_l\343\347\334\274\346\304[V\256\267\273\027"
 2228      E3E7DCBC 
 2228      E6C45B56 
 2228      AEB7BB17 
 2229 0045 B970EF9D 		.ascii	"\271p\357\235|\344\006\037\003\000w.!|"
ARM GAS  /tmp/cc7A5JCV.s 			page 46


 2229      7CE4061F 
 2229      0300772E 
 2229      217C
 2230              		.text
 2231              		.section	.gnu.lto_.ipa_sra.7f87b3e556a28f3e,"e",%progbits
 2232 0000 789C454C 		.ascii	"x\234EL\001\022\2000\010\222a\313\332\243\3531{\350"
 2232      01128030 
 2232      089261CB 
 2232      DAA3EB31 
 2232      7BE8
 2233 0012 B4E5A99E 		.ascii	"\264\345\251\236 x<R5\244%\005\020@~\000\335P}@LN\377"
 2233      20783C52 
 2233      35A42505 
 2233      10407E00 
 2233      DD507D40 
 2234 0029 7AD5F51E 		.ascii	"z\325\365\036\266r_\315\345I\231\204\251OO\331*\343"
 2234      B6725FCD 
 2234      E5499984 
 2234      A94F4FD9 
 2234      2AE3
 2235 003b 4A7AC71A 		.ascii	"Jz\307\032\177\350\002\012\016\004\012"
 2235      7FE8020A 
 2235      0E040A
 2236              		.text
 2237              		.section	.gnu.lto_.inline.7f87b3e556a28f3e,"e",%progbits
 2238 0000 789C6D51 		.ascii	"x\234mQ\273j\033Q\020=w\346J\273z\200U\270Pc\222\"\270"
 2238      BB6A1B51 
 2238      103D77E6 
 2238      4ABB7A80 
 2238      55B85063 
 2239 0017 4C91C69D 		.ascii	"L\221\306\235\311\027\350\033lG\022R\252\344\007\202"
 2239      C917E81B 
 2239      6C471252 
 2239      AAE40782 
 2240 0027 824D4811 		.ascii	"\202MH\021\011a9\205\202\301\002\2732\216]H`7!\226 "
 2240      09613985 
 2240      82C102BB 
 2240      328E5D48 
 2240      60372196 
 2241 003c 4D500211 		.ascii	"MP\002\021\001W\006\033\204\\\245\015*Td\346\356#\362"
 2241      0157061B 
 2241      845CA50D 
 2241      2A5464E6 
 2241      EE23F2
 2242 004f 6359760F 		.ascii	"cYv\017\303\2313\347\314\314\010\361\223\001\026\372"
 2242      C39933E7 
 2242      CCCC08F1 
 2242      930116FA 
 2243 005f ED419BAA 		.ascii	"\355A\233\252\306\300\0340\201\237\303.N\277\035\377"
 2243      C6C01C30 
 2243      819FC32E 
 2243      4EBF1DFF 
 2244 006f E60AE0BF 		.ascii	"\346\012\340\277\257\325j\\$\020\314n\357\342\023\225"
 2244      AFD56A5C 
 2244      2410CC6E 
 2244      EFE21395 
 2245 007f 0836C6B0 		.ascii	"\0106\306\260\242`\340\013\347\234K\006\244\250&uW\012"
ARM GAS  /tmp/cc7A5JCV.s 			page 47


 2245      A260E00B 
 2245      E79C4B06 
 2245      A4A82675 
 2245      570A
 2246 0091 FB004652 		.ascii	"\373\000FR\031T\012F\260\224\210\035\341\005\220r\315"
 2246      19540A46 
 2246      B094881D 
 2246      E1059072 
 2246      CD
 2247 00a2 21D362A5 		.ascii	"!\323b\245\336\350\217\251b,^\0370\266Y>F-\341\225\242"
 2247      DEE88FA9 
 2247      622C5E1F 
 2247      30B6593E 
 2247      462DE195 
 2248 00b7 9E51281A 		.ascii	"\236Q(\032@\010T\314#7V\304\222o\025\004v]m\203\220"
 2248      400854CC 
 2248      233756C4 
 2248      926F1504 
 2248      765D6D83 
 2249 00cc 2324DCF8 		.ascii	"#$\334\370\"r\240\353a\273K\353>A\336d\253;\031\362"
 2249      2272A0EB 
 2249      61BB4BEB 
 2249      3E41DE64 
 2249      AB3B19F2 
 2250 00e0 860F1FAB 		.ascii	"\206\017\037\253\243\317\303#.[\227\2102\352D\306f\365"
 2250      A3CFC323 
 2250      2E5B9788 
 2250      32EA44C6 
 2250      66F5
 2251 00f2 4FCD42B3 		.ascii	"O\315B\263\020\226\232\205\271\032gM\004\023\360d\304"
 2251      10969A85 
 2251      B91A674D 
 2251      0413F064 
 2251      C4
 2252 0103 15976507 		.ascii	"\025\227e\007\326\015.\302\205\016\315\004\232\332\237"
 2252      D60D2EC2 
 2252      850ECD04 
 2252      9ADA9F
 2253 0112 4466E7EF 		.ascii	"Df\347\357I\30315zG\267\345\005\376\302me\003\246\207"
 2253      49C33135 
 2253      7A47B7E5 
 2253      05FEC26D 
 2253      6503A687 
 2254 0126 94307F52 		.ascii	"\2240\177R\331\320C\341\305\250\206}skN\034\332\377"
 2254      D9D043E1 
 2254      C5A8867D 
 2254      736B4E1C 
 2254      DAFF
 2255 0138 1FDA0F35 		.ascii	"\037\332\0175\235}\037\217G\343\263\303\350\332\356"
 2255      9D7D1F8F 
 2255      47E3B3C3 
 2255      E8DAEE
 2256 0147 144F4F67 		.ascii	"\024OOg\027_\364\330\331Nw\362A/\2546L\032s\266SX\372"
 2256      175FF4D8 
 2256      D94E77F2 
 2256      412FAC36 
 2256      4C1A73B6 
ARM GAS  /tmp/cc7A5JCV.s 			page 48


 2257 015e 353E7B27 		.ascii	"5>{'}\034\364\361Z\274~\375[92\274'\242\364Q\225\322"
 2257      7D1CF4F1 
 2257      5ABC7EFD 
 2257      5B3932BC 
 2257      27A2F451 
 2258 0174 5F27C336 		.ascii	"_'\3036\337\266dc\254V\346\256\023Us\210V\227\237\233"
 2258      DFB66463 
 2258      AC56E6AE 
 2258      13557388 
 2258      56979F9B 
 2259 0188 9C467EDA 		.ascii	"\234F~\332\270\354\321KY\330\362\326f}\237\253\367V"
 2259      B8ECD14B 
 2259      59D8F2D6 
 2259      667D9FAB 
 2259      F756
 2260 019a 6B1C3383 		.ascii	"k\0343\203G?\276_\267\034\363\331\336\340\346\017\335"
 2260      473FBE5F 
 2260      B71CF3D9 
 2260      DEE0E60F 
 2260      DD
 2261 01ab 65469902 		.ascii	"eF\231\002>\376\001s\013\245\227"
 2261      3EFE0173 
 2261      0BA597
 2262              		.text
 2263              		.section	.gnu.lto_.jmpfuncs.7f87b3e556a28f3e,"e",%progbits
 2264 0000 789C6D4F 		.ascii	"x\234mO\333\021\2030\014\223\342\020\012\371`\343\366"
 2264      DB118330 
 2264      0C93E210 
 2264      0AF960E3 
 2264      F6
 2265 0011 830D9821 		.ascii	"\203\015\230!+\264\337\335\014\234\220\364\212\203\357"
 2265      2BB4DFDD 
 2265      0C9C90F4 
 2265      8A83EF
 2266 0020 743A4B7E 		.ascii	"t:K~\256\304/\"\034)\257$P\014\324P\026\251\354+;\267"
 2266      AEC42F22 
 2266      1C29AF24 
 2266      500CD450 
 2266      16A9EC2B 
 2267 0036 4992C000 		.ascii	"I\222\300\000~=\203\002\360(\011\024\273\306\202G\236"
 2267      7E3D8302 
 2267      F0280914 
 2267      BBC68247 
 2267      9E
 2268 0047 779158DA 		.ascii	"w\221X\332@\236T4\327\325\360M~h\3075\335n\351\326\332"
 2268      409E5434 
 2268      D7D5F04D 
 2268      7E68C735 
 2268      DD6EE9D6 
 2269 005c BC3C916F 		.ascii	"\274<\221o\366\317\316\013\355\237\033o\374\363h_\253"
 2269      F6CFCE0B 
 2269      ED9F1B6F 
 2269      FCF3685F 
 2269      AB
 2270 006d 1EECF598 		.ascii	"\036\354\365\230Z\2275f\364\305\0217\"\016\260\036h"
 2270      5A973566 
 2270      F4C51137 
ARM GAS  /tmp/cc7A5JCV.s 			page 49


 2270      220EB01E 
 2270      68
 2271 007e 34       		.ascii	"4"
 2272              		.text
 2273              		.section	.gnu.lto_.pureconst.7f87b3e556a28f3e,"e",%progbits
 2274 0000 789C05C1 		.ascii	"x\234\005\301\011\021\000 \020\002@\034\301\357Z\330"
 2274      09110020 
 2274      1002401C 
 2274      C1EF5AD8 
 2275 0010 5AA290CE 		.ascii	"Z\242\220\316\335\013\240`6\263\2334\025\215h>\256h"
 2275      DD0BA060 
 2275      36B39B34 
 2275      158D683E 
 2275      AE68
 2276 0022 9BC7ACE8 		.ascii	"\233\307\254\350\003\203a\007\273"
 2276      03836107 
 2276      BB
 2277              		.text
 2278              		.section	.gnu.lto_.lto.7f87b3e556a28f3e,"e",%progbits
 2279 0000 09000200 		.ascii	"\011\000\002\000\001\000\000\000"
 2279      01000000 
 2280              		.text
 2281              		.section	.gnu.lto_queue_prio_insert.164.7f87b3e556a28f3e,"e",%progbits
 2282 0000 789C8552 		.ascii	"x\234\205R_HSQ\030?\3379\367\316\273\222aR\340CP/\222"
 2282      5F485351 
 2282      183FDF39 
 2282      F7CEBB92 
 2282      6152E043 
 2283 0017 81EDCE29 		.ascii	"\201\355\316)F\324\203`\357=\370\024\010\242\327\301"
 2283      46D48360 
 2283      EF3DF814 
 2283      08A2D7C1 
 2284 0027 1D345DEE 		.ascii	"\0354]\356\026\365\324q\251\201\0216\205H\321\2501\""
 2284      16F5D471 
 2284      A9811136 
 2284      8548D1A8 
 2284      3122
 2285 0039 F3216AFD 		.ascii	"\363!j\375\231\25194\024\243\322\264\322\010B\014\206"
 2285      99A93934 
 2285      14A3D2B4 
 2285      D208420C 
 2285      86
 2286 004a 16894441 		.ascii	"\026\211DAEP\3379\333r[A\027\3569\337\371\316\357\373"
 2286      4550DF39 
 2286      DB725B41 
 2286      17EE39DF 
 2286      F9CEEFFB 
 2287 005e 9DDFF73B 		.ascii	"\235\337\367;GS\010\261\010!~\374!\217@w\250\223\022"
 2287      475308B1 
 2287      08217EFC 
 2287      218F4077 
 2287      A89312
 2288 0071 CE79551E 		.ascii	"\316yU\036\205\236\320\026\0311\332\026:Oa\014\006c"
 2288      859ED016 
 2288      1931DA16 
 2288      3A4F610C 
 2288      0663
ARM GAS  /tmp/cc7A5JCV.s 			page 50


 2289 0083 638794F6 		.ascii	"c\207\224\366\220cqz\202)\012\355\010m\315\312\330\240"
 2289      9063717A 
 2289      82290AED 
 2289      086DCDCA 
 2289      D8A0
 2290 0095 E77641B2 		.ascii	"\347vA\262X\205\326P\247\035K\344\012\310\031\212\333"
 2290      5885D650 
 2290      A71D4BE4 
 2290      0AC8198A 
 2290      DB
 2291 00a6 2AE04436 		.ascii	"*\340D6\277\036\266\027\267\277\265\367\365E]A\336^"
 2291      BF1EB617 
 2291      B7BFB5F7 
 2291      F5455D41 
 2291      DE5E
 2292 00b8 14C1CD2B 		.ascii	"\024\301\315+i@?\203n\026a\000J*\242\260\033#v\224\354"
 2292      69403F83 
 2292      6E166100 
 2292      4A2AA2B0 
 2292      1B237694 
 2293 00cd 89733EB7 		.ascii	"\211s>\267\032\343\334N\"\214\301\003\300\032\270\017"
 2293      1AE3DC4E 
 2293      228CC103 
 2293      C01AB80F 
 2294 00dd 700F8848 		.ascii	"p\017\210H\324\276,\024\270\246$\356\302\331s\274@\211"
 2294      D4BE2C14 
 2294      B8A624EE 
 2294      C2D973BC 
 2294      4089
 2295 00ef 300586B3 		.ascii	"0\005\206\263qJ\355r\241<\205\265\210\261\030\301\033"
 2295      714AED72 
 2295      A13C85B5 
 2295      88B118C1 
 2295      1B
 2296 0100 FDD12FCB 		.ascii	"\375\321/\313\300\2739\010\336\221L<!\265\237\012m\004"
 2296      C0BB3908 
 2296      DE914C3C 
 2296      21B59F0A 
 2296      6D04
 2297 0112 4621A510 		.ascii	"F!\245\020s\200\253[\363j\234\377\374\325\305\371b/"
 2297      7380AB5B 
 2297      F36A9CFF 
 2297      FCD5C5F9 
 2297      622F
 2298 0124 5C8BC65E 		.ascii	"\\\213\306^\367R\007 \273J\305\300\204\036ET\251b\260"
 2298      F7520720 
 2298      BB4AC5C0 
 2298      841E4554 
 2298      A962B0
 2299 0137 013C044D 		.ascii	"\001<\004MDv\200\0302t1r\363\355J%\3608!\027\031\225"
 2299      44768018 
 2299      32743172 
 2299      F3ED4A25 
 2299      F0382117 
 2300 014d 712BC61F 		.ascii	"q+\306\037\200\257\014'\212p\016^=\210\3600\263\021"
 2300      80AF0C27 
 2300      8A700E5E 
ARM GAS  /tmp/cc7A5JCV.s 			page 51


 2300      3D88F030 
 2300      B311
 2301 015f 81606817 		.ascii	"\201`h\027W\004\204\342V\025\221[\252\204\217$.\003"
 2301      570484E2 
 2301      5615915B 
 2301      AA848F24 
 2301      2E03
 2302 0171 DA2DE3B1 		.ascii	"\332-\343\261D\011Y\207\340\350`~\230i)\367\030\210"
 2302      44095987 
 2302      E0E8607E 
 2302      986929F7 
 2302      1888
 2303 0183 2EAF8BFB 		.ascii	".\257\213\373\270\341\2100\033\326\301#\231saJ\213\260"
 2303      B8E18830 
 2303      1BD6C123 
 2303      9973614A 
 2303      8BB0
 2304 0195 3C188701 		.ascii	"<\030\207\001\321\232X\257\356\020\025qL\210\336\205"
 2304      D19A58AF 
 2304      EE101571 
 2304      4C88DE85 
 2305 01a5 8C327996 		.ascii	"\2142y\226&\371\307\023K@\326\240mm\322\021\026L\232"
 2305      26F9C713 
 2305      4B40D6A0 
 2305      6D6DD211 
 2305      164C9A
 2306 01b8 30E407A8 		.ascii	"0\344\007\250\270\240\317\243S\230\324l\353\321\216"
 2306      B8A0CFA3 
 2306      5398D46C 
 2306      EBD18E
 2307 01c7 7C54AC3C 		.ascii	"|T\254<\231\370\370\236\011\305 \024}\237\355\275\213"
 2307      99F8F89E 
 2307      09C52014 
 2307      7D9FEDBD 
 2307      8B
 2308 01d8 349096A2 		.ascii	"4\220\226\242I%\232P\222\222\241\301\004\236J\221Pv"
 2308      49259A50 
 2308      9292A1C1 
 2308      049E4A91 
 2308      5076
 2309 01ea B03FCC68 		.ascii	"\260?\314h6\330\236\005~\234\002\243\232w\223w(R\207"
 2309      36D89E05 
 2309      7E9C02A3 
 2309      9A779377 
 2309      285287
 2310 01fd E55A786B 		.ascii	"\345Zxk[\212\014\314\340\003B\031\352P\246\265/\320"
 2310      5B8A0CCC 
 2310      E0034219 
 2310      EA50A6B5 
 2310      2FD0
 2311 020f 5A64BF34 		.ascii	"Zd\2774\270+M\275J7\2713-\231\332\264D\270\306`:iI\030"
 2311      B82B4DBD 
 2311      4A37B933 
 2311      2D99DAB4 
 2311      44B8C660 
 2312 0227 6F55302D 		.ascii	"oU0-$\231F\327J\303\214\375\361\267X\222)\271d3\031"
 2312      249946D7 
ARM GAS  /tmp/cc7A5JCV.s 			page 52


 2312      4AC38CFD 
 2312      F1B75892 
 2312      29B96433 
 2313 023c FE960AB2 		.ascii	"\376\226\012\262'\230`\311N7:\277\262\377\211y\232+"
 2313      279860C9 
 2313      4E373ABF 
 2313      B2FF8979 
 2313      9A2B
 2314 024e E659B21E 		.ascii	"\346Y\262\036\217\226b^%\305\364e\264\265]2\261\\\246"
 2314      8F96625E 
 2314      25C5F465 
 2314      B4B55D32 
 2314      B15CA6
 2315 0261 D90CA69D 		.ascii	"\331\014\246\235\202i.\335\226]2-\376\315D\377\335\323"
 2315      82692EDD 
 2315      965D322D 
 2315      FECD44FF 
 2315      DDD3
 2316 0273 7CAEA685 		.ascii	"|\256\246\205\264&;\371\014\301\3457\211\324\343P\360"
 2316      B4263BF9 
 2316      0CC1E537 
 2316      89D4E350 
 2316      F0
 2317 0284 9A997814 		.ascii	"\232\231x\0248+\024o\007\206\322/\237\220}\272\331\354"
 2317      382B146F 
 2317      0786D22F 
 2317      9F907DBA 
 2317      D9EC
 2318 0296 F3E8DE7A 		.ascii	"\363\350\336z\237\277\305k\231'\275\001\323cY\247\365"
 2318      9FBFC56B 
 2318      9927BD01 
 2318      D36359A7 
 2318      F5
 2319 02a7 EAC335FE 		.ascii	"\352\3035\376z\303\243\373|FyEYe\235\345\011XnR\342"
 2319      7AC3A3FB 
 2319      7C467945 
 2319      59659DE5 
 2319      09586E52 
 2320 02bc D4AB4D6F 		.ascii	"\324\253Mo\203\367HM\235\333\345,w\272\364\346\200\336"
 2320      83F7484D 
 2320      9DDBE52C 
 2320      77BAF4E6 
 2320      80DE
 2321 02ce 62E9DE26 		.ascii	"b\351\336&\343\330\211F\217n\230\001\303lt\232\204Z"
 2321      E3D88946 
 2321      8F6E9801 
 2321      C36C749A 
 2321      845A
 2322 02e0 FE6D86E9 		.ascii	"\376m\206\351\263N9\015\247\333\323XVq\240\301M\230"
 2322      B34E390D 
 2322      A7DBD358 
 2322      5671A0C1 
 2322      4D98
 2323 02f2 75DC4F0D 		.ascii	"u\334O\015\377o\027\222z\226"
 2323      FF6F1792 
 2323      7A96
 2324              		.text
ARM GAS  /tmp/cc7A5JCV.s 			page 53


 2325              		.section	.gnu.lto_chMtxObjectInit.313.7f87b3e556a28f3e,"e",%progbits
 2326 0000 789C7552 		.ascii	"x\234uR\317k\023Q\020\236o_\232\264\227B\325\203\007"
 2326      CF6B1351 
 2326      109E6F5F 
 2326      9AB49742 
 2326      D58307
 2327 0013 0FC122EA 		.ascii	"\017\301\"\352\301\335&-\2027\241\202\036\004\017\025"
 2327      C1DD262D 
 2327      8237A182 
 2327      1E040F15 
 2328 0023 7A2CED66 		.ascii	"z,\355fa\027\\\033\223\325\352\251\317T\021\202\030"
 2328      61175C1B 
 2328      93D5EAA9 
 2328      CF541182 
 2328      18
 2329 0034 1B15A444 		.ascii	"\033\025\244D\301\262H\017\202H\261&\255\332\370\263"
 2329      C1B2480F 
 2329      8248B126 
 2329      ADDAF8B3 
 2330 0044 8A07AB7F 		.ascii	"\212\007\253\177A\331S\025\024\211\210\255\010u\336"
 2330      41D95315 
 2330      148988AD 
 2330      0875DE
 2331 0053 666D4E5D 		.ascii	"fmN]x\2733\363f\276o\276\217\035\323\210n\021Q7\037"
 2331      78BB33F3 
 2331      66BE6FBE 
 2331      8F1DD388 
 2331      6E115137 
 2332 0068 084279B2 		.ascii	"\010By\262\250\221\224\362pB\303\305\311b\007j\0103"
 2332      A89194F2 
 2332      7042C3C5 
 2332      C962076A 
 2332      0833
 2333 007a D0B88671 		.ascii	"\320\270\206q\334\020\3739]\273<\365\361\025\344L\035"
 2333      DC10FB39 
 2333      5DBB3CF5 
 2333      F115E44C 
 2333      1D
 2334 008b BE20BACB 		.ascii	"\276 \272\313'|*\002e\341\013 \026E\032\222\034\211"
 2334      277C2A02 
 2334      65E10B20 
 2334      16451A92 
 2334      1C89
 2335 009d 93B4B72E 		.ascii	"\223\264\267.\345\362bU\312\016\362\205\300\023\360"
 2335      E5F26255 
 2335      CA0EF285 
 2335      C013F0
 2336 00ac 0CE680C7 		.ascii	"\014\346\200\307 U\030,w\021\305#$\360H\030\003\363"
 2336      2055182C 
 2336      7711C523 
 2336      24F04818 
 2336      03F3
 2337 00be 5098C251 		.ascii	"P\230\302Qo\005\2616\177\245\366(\371vB\036\363E\014"
 2337      6F05B136 
 2337      7FA5F628 
 2337      F976421E 
 2337      F3450C
ARM GAS  /tmp/cc7A5JCV.s 			page 54


 2338 00d1 0B503D4D 		.ascii	"\013P=M\024<\345Ub\203\017\266s\347\036\325\271\274"
 2338      143CE555 
 2338      62830FB6 
 2338      73E71ED5 
 2338      B9BC
 2339 00e3 5EB99A90 		.ascii	"^\271\232\220\357d\354\177'\265:\233\253\306\225\220"
 2339      EF64EC7F 
 2339      27B53A9B 
 2339      ABC69590 
 2340 00f3 6F293CE3 		.ascii	"o)<\343ZMA\251\015\360<dU-\017?\267\325\345\337\215"
 2340      5A4D41A9 
 2340      0DF03C64 
 2340      552D0F3F 
 2340      B7D5E5DF 
 2341 0108 92941BBB 		.ascii	"\222\224\033\273>T\376\264\263\005\214\245\001U\276"
 2341      3E54FEB4 
 2341      B3058CA5 
 2341      0155BE
 2342 0117 2D096592 		.ascii	"-\011e\222\214A\326\211\256\013\255\231Lp\362\0252\230"
 2342      8C41D689 
 2342      AE0BAD99 
 2342      4C70F215 
 2342      3298
 2343 0129 5D82FAEE 		.ascii	"]\202\372\356\336|\005s\011\372\216\302\315\"\246\005"
 2343      DE7C0573 
 2343      09FA8EC2 
 2343      CD22A605 
 2344 0139 22734428 		.ascii	"\"sD(\356\276\262wu\207/\332\246\331\256zX\353\341R"
 2344      EEBEB277 
 2344      75872FDA 
 2344      A6D9AE7A 
 2344      58EBE152 
 2345 014d BB2FE278 		.ascii	"\273/\342x\201;\312\221Ka\217\022\210\227P\014\205$"
 2345      813BCA91 
 2345      4B618F12 
 2345      8897500C 
 2345      8524
 2346 015f 6FCD480A 		.ascii	"o\315H\012\372\347\257k\215`e\033/\036\022\375\016n"
 2346      FAE7AF6B 
 2346      8D60651B 
 2346      2F1E12FD 
 2346      0E6E
 2347 0171 038B506C 		.ascii	"\003\213PlS_:#\252XD\305\002\342\212\3465Hq\314\360"
 2347      535F3A23 
 2347      AA5844C5 
 2347      02E28AE6 
 2347      354871CC 
 2348 0186 55026F98 		.ascii	"U\002o\230\004Jx\004\030\254\007;[\343[\014-\361\220"
 2348      044A7804 
 2348      18AC073B 
 2348      5BE35B0C 
 2348      2DF190
 2349 0199 D61A2AFC 		.ascii	"\326\032*\374\2707\273p\234mTn\206 \325Ppc\265sS\243"
 2349      B837BB70 
 2349      9C6D546E 
 2349      8620D550 
 2349      7063B573 
ARM GAS  /tmp/cc7A5JCV.s 			page 55


 2350 01af D6D21809 		.ascii	"\326\322\030\011L\340=\303\260\302r\210I\324@a\345\323"
 2350      4CE03DC3 
 2350      B0C27288 
 2350      49D44061 
 2350      E5D3
 2351 01c1 D1F05F2A 		.ascii	"\321\360_*\0114=-\324Uz\300\260G]\313p\206\335l\316"
 2351      09343D2D 
 2351      D4557AC0 
 2351      B0475DCB 
 2351      7086DD6C 
 2352 01d6 F1EC734E 		.ascii	"\361\354sN\336\266<\357\202\321\177d ;lZ\206\353\232"
 2352      DEB63CEF 
 2352      82D17F64 
 2352      203B6C5A 
 2352      86EB9A
 2353 01e9 BD7DA983 		.ascii	"\275}\251\203C\236\225\367\322\324\255\033\375\2663"
 2353      439E95F7 
 2353      D2D4AD1B 
 2353      FDB633
 2354 01f8 E29C1818 		.ascii	"\342\234\030\030J\367\350\275z\2171\2327r\236\221\317"
 2354      4AF7E8BD 
 2354      7A8F319A 
 2354      37729E91 
 2354      CF
 2355 0209 998669BB 		.ascii	"\231\206i\273\336y\335$\315\315vE\261\236\2662\251\276"
 2355      DE79DD24 
 2355      CDCD7645 
 2355      B19EB632 
 2355      A9BE
 2356 021b 43236912 		.ascii	"C#i\022\336\231\354\276-\206\235\323\346\251\263\031"
 2356      DE99ECBE 
 2356      2D869DD3 
 2356      E6A9B319 
 2357 022b 8B01F2A6 		.ascii	"\213\001\362\246\235\321m\372\007i\262\365\305"
 2357      9DD16DFA 
 2357      0769B2F5 
 2357      C5
 2358              		.text
 2359              		.section	.gnu.lto_chMtxLock.314.7f87b3e556a28f3e,"e",%progbits
 2360 0000 789C8D52 		.ascii	"x\234\215R]H\024Q\024>g\356\272\253\017\221!\024\364"
 2360      5D481451 
 2360      143E67EE 
 2360      BAAB0F91 
 2360      2114F4
 2361 0013 B46A2281 		.ascii	"\264j\"\201\356\370W\321[\265\276\010-\205\033\370("
 2361      EEF857D1 
 2361      5BB5BE08 
 2361      2D851BF8 
 2361      28
 2362 0024 3A0EED42 		.ascii	":\016\355B\343.;\223\350\223\223Z\201\017\232F\255\230"
 2362      E32E3B93 
 2362      E893935A 
 2362      810F9A46 
 2362      AD98
 2363 0036 0AE612BE 		.ascii	"\012\346\022\276\365\244\371\223\271\271\232FP\031\204"
 2363      F5A4F993 
 2363      B9B99A46 
ARM GAS  /tmp/cc7A5JCV.s 			page 56


 2363      501984
 2364 0045 FD108261 		.ascii	"\375\020\202a\204\022\371\323\203\250Y\347\336Y]\037"
 2364      8412F9D3 
 2364      83A859E7 
 2364      DE595D1F 
 2365 0055 2A1AD89D 		.ascii	"*\032\330\235s\316=\347\373\276\363\335\251b\000\271"
 2365      73CE3DE7 
 2365      FBBEF3DD 
 2365      A96200B9 
 2366 0065 08900900 		.ascii	"\010\220\011\000\310\000\333\333\232%0M\363\214C\302"
 2366      C800DBDB 
 2366      9A25304D 
 2366      F38C43C2 
 2367 0075 6B6DCD29 		.ascii	"km\315)8\214\"C\250\227\260\036o\263\343\224n\\\357"
 2367      388C2243 
 2367      A897B01E 
 2367      6FB3E394 
 2367      6E5CEF
 2368 0088 DC8AA1D9 		.ascii	"\334\212\241\331\037\305\010\215\367\320O<]\014\333"
 2368      1FC5088D 
 2368      F7D04F3C 
 2368      5D0CDB
 2369 0097 598421DA 		.ascii	"Y\204!\332\342\221\204N\212\330%\310\216\232\346\353"
 2369      E291844E 
 2369      8AD825C8 
 2369      8E9AE6EB 
 2370 00a7 E121D34C 		.ascii	"\341!\323L\201\010c\370\010i\006\007\021\007\210\231"
 2370      810863F8 
 2370      08690607 
 2370      11078899 
 2371 00b7 0A659BA9 		.ascii	"\012e\233\251\000\3668\222D#\"F\034A\216i\347\214;\371"
 2371      00F63892 
 2371      44232246 
 2371      1C418E69 
 2371      E78C3BF9 
 2372 00cb 40527A98 		.ascii	"@Rz\230\264[\351z\037[L\002\034\245\032\3435\326&\232"
 2372      B45BE97A 
 2372      1F5B4C02 
 2372      1CA51AE3 
 2372      35D6269A 
 2373 00df 39D3C65A 		.ascii	"9\323\306Z\363\307WG\273\314\250-\302l8\206\034\312"
 2373      F3C75747 
 2373      BBCCA82D 
 2373      C26C3886 
 2373      1CCA
 2374 00f1 22C327A4 		.ascii	"\"\303'\244\330V\3666\215:\263x\347F\313\330@N\254\321"
 2374      D856F636 
 2374      8D3AB378 
 2374      E746CBD8 
 2374      404EACD1 
 2375 0105 9C31F77A 		.ascii	"\2341\367z!\321k\355$\370\277t\332q\234\212\2179\032"
 2375      21D16BED 
 2375      24F8BF74 
 2375      DA719C8A 
 2375      8F391A
 2376 0118 D78AD1FD 		.ascii	"\327\212\321\375\372\272\276n\037\264\004\332\022\002"
 2376      FABABE6E 
ARM GAS  /tmp/cc7A5JCV.s 			page 57


 2376      1FB404DA 
 2376      1202
 2377 0126 1B7F92C0 		.ascii	"\033\177\222\300\011\252%A\202\357\333\177\361\015m"
 2377      09AA2541 
 2377      82EFDB7F 
 2377      F10D6D
 2378 0135 13DF2415 		.ascii	"\023\337$\025c{|S\202\217\367<|\223\0245\267\177\265"
 2378      637B7C53 
 2378      828FF73C 
 2378      7C931435 
 2378      B77FB5
 2379 0148 9AD19B07 		.ascii	"\232\321\233\007\266\372Z\247\373%\273\2048DG\255\214"
 2379      B6FA5AA7 
 2379      FB25BB84 
 2379      384447AD 
 2379      8C
 2380 0159 DF9D6943 		.ascii	"\337\235iC3\012p\213IV\322H\311\022\232\013[\323\310"
 2380      330A708B 
 2380      4956D248 
 2380      C9129A0B 
 2380      5BD3C8
 2381 016c DFEB8B2D 		.ascii	"\337\353\213-\355\341\273H\326\211jx.E\034\257\257v"
 2381      EDE1BB48 
 2381      D6896A78 
 2381      2E451CAF 
 2381      AF76
 2382 017e 6F2EBD4B 		.ascii	"o.\275K\243\015E\371\336r\007\362z\203\223\366\346\227"
 2382      A30D45F9 
 2382      DE7207F2 
 2382      7A8393F6 
 2382      E697
 2383 0190 6943A735 		.ascii	"iC\2475}gp\276\033i}\3216:\237\202O\021\276cC\006\027"
 2383      7D6770BE 
 2383      1B697DD1 
 2383      363A9F82 
 2383      4F11BE63 
 2384 01a7 D7CE6F2F 		.ascii	"\327\316o/\275O\272\221\034aI\024\332\370g5\203@o|\216"
 2384      BD4FBA91 
 2384      1C614914 
 2384      DAF86735 
 2384      83406F7C 
 2385 01bc 382D0C4B 		.ascii	"8-\014K\177 \316\355\342\360\205\305\262\262\322\335"
 2385      7F20CEED 
 2385      E2F085C5 
 2385      B2B2D2DD 
 2386 01cc B99C0CDC 		.ascii	"\271\234\014\334c\216\273\266\330\322\021\316\262\204"
 2386      638EBBB6 
 2386      D8D211CE 
 2386      B284
 2387 01da 840F8B4A 		.ascii	"\204\017\213J\357\347\361\363\3440\254`\223\023\232"
 2387      EFE7F1F3 
 2387      E430AC60 
 2387      93139A
 2388 01e9 508A3047 		.ascii	"P\2120G\017#c\3563\012\223E\353\216#\276\337\010\337"
 2388      0F2363EE 
 2388      330A9345 
 2388      EB8E23BE 
ARM GAS  /tmp/cc7A5JCV.s 			page 58


 2388      DF08DF
 2389 01fc 6FC25238 		.ascii	"o\302R8\036\016[\230\013\263s\307\304\373\323\2348\311"
 2389      1E0E5B98 
 2389      0BB373C7 
 2389      C4FBD39C 
 2389      38C9
 2390 020e D8FB5BF8 		.ascii	"\330\373[\370q$\356\300\207er f\015\256&\034\230\214"
 2390      7124EEC0 
 2390      87657220 
 2390      660DAE26 
 2390      1C988C
 2391 0221 3B00FB1D 		.ascii	";\000\373\035\230J8\360l\277\003\361]_\212\255\367/"
 2391      984A38F0 
 2391      6CBF03F1 
 2391      5D5F8AAD 
 2391      F72F
 2392 0233 B8C217A4 		.ascii	"\270\302\027\244K\2055J{\033g\213\371:\374ieh\335TC"
 2392      4B85354A 
 2392      7B1B678B 
 2392      F93AFC69 
 2392      6568DD54 
 2393 0248 94A7B9B2 		.ascii	"\224\247\271\262/\240\251\262\277B\013\206\374\206\257"
 2393      2FA0A9B2 
 2393      BF420B86 
 2393      FC86AF
 2394 0257 C6AFFB54 		.ascii	"\306\257\373T\303\250\223\335\305\336`\205\242\312\232"
 2394      C3A893DD 
 2394      C5DE6085 
 2394      A2CA9A
 2395 0266 A61416E5 		.ascii	"\246\024\026\345\237,7T\335(\200L\227\354\366\371+\375"
 2395      9F2C3754 
 2395      DD28804C 
 2395      97ECF6F9 
 2395      2BFD
 2396 0278 17BCE505 		.ascii	"\027\274\345\005y\256BW\236\034\320\345\220!\353!EV"
 2396      79AE4257 
 2396      9E1CD0E5 
 2396      9021EB21 
 2396      4556
 2397 028a 7C9A51EB 		.ascii	"|\232Q\353R@\322\202\207\342\261\253@\255\312/:]Y\000"
 2397      5240D282 
 2397      87E2B1AB 
 2397      40ADCA2F 
 2397      3A5D5900 
 2398 029e D97F19F4 		.ascii	"\331\177\031\364W+W\256V\2514\254\327\351.\0378*+t\365"
 2398      572B57AE 
 2398      56A934AC 
 2398      D7E92E1F 
 2398      382A2B74 
 2399 02b3 62C87FEE 		.ascii	"b\310\177\356O\375J@\323\002\325\262Zk\310gK=\262\333"
 2399      4FFD4A40 
 2399      D302D5B2 
 2399      5A6BC867 
 2399      4B3DB2DB 
 2400 02c7 E32DF1CA 		.ascii	"\343-\361\312\356@H\225Kva4\335\257\227_V\024\202:\361"
 2400      EE404895 
 2400      4B766134 
ARM GAS  /tmp/cc7A5JCV.s 			page 59


 2400      DDAF975F 
 2400      5614823A 
 2401 02dc 0F886020 		.ascii	"\017\210` d\350\034\304\355\251%n\2050\312kNi4\225\352"
 2401      64E81CC4 
 2401      EDA9256E 
 2401      8530CA6B 
 2401      4E693495 
 2402 02f1 F1963AB9 		.ascii	"\361\226:\271\010\262#\307\231\225\007R\010\034\232"
 2402      08B223C7 
 2402      99950752 
 2402      081C9A
 2403 0300 AA054275 		.ascii	"\252\005Bu\360\033U\245\207j"
 2403      F01B55A5 
 2403      876A
 2404              		.text
 2405              		.section	.gnu.lto_chMtxLockS.315.7f87b3e556a28f3e,"e",%progbits
 2406 0000 789C9557 		.ascii	"x\234\225WkLTG\024\236s\347\356\233]\021DLm\014\317"
 2406      6B4C5447 
 2406      149E73E7 
 2406      EE9B5D11 
 2406      444C6D0C 
 2407 0015 B4269655 		.ascii	"\264&\226U\2645MScb\177\364W\375a\023\177\032E\022H"
 2407      B4354D53 
 2407      63627FF4 
 2407      57FD6113 
 2407      7F1A4512 
 2408 002a 4AA5B235 		.ascii	"J\245\2625\366\227\027\204\332n\255,H+\202\242\256k"
 2408      F6971784 
 2408      DA6EAD2C 
 2408      482B82A2 
 2408      AE6B
 2409 003c 0B357D28 		.ascii	"\0135}(\365\215\212(\276\360\201Zc\021\215\226\246\010"
 2409      F58D8A28 
 2409      BEF0815A 
 2409      63118D96 
 2409      A608
 2410 004e 16296AAB 		.ascii	"\026)j\253\2665\265\347\314\334\273{\367\201\265$\314"
 2410      B635B5E7 
 2410      CCDCBB7B 
 2410      F781B524 
 2410      CC
 2411 005f 9D997BCE 		.ascii	"\235\231{\316w\2769\347\233\271\263'\335\214\3253\306"
 2411      77BE39E7 
 2411      9BB9B327 
 2411      DD8CD533 
 2411      C6
 2412 0070 2EE13F24 		.ascii	".\341?$1\250\255\361+L\323\264\3316Ei\014\354\314\204"
 2412      31A8ADF1 
 2412      2B4CD3B4 
 2412      D9364569 
 2412      0CECCC84 
 2413 0084 03D0D0DA 		.ascii	"\003\320\320\332?E]\037\350\203\3763\353SU\027\254\263"
 2413      3F455D1F 
 2413      E883FE33 
 2413      EB535517 
 2413      ACB3
 2414 0096 4B03AED6 		.ascii	"K\003\256\326\007\202\200\335d\353\2075N\361\254\324"
ARM GAS  /tmp/cc7A5JCV.s 			page 60


 2414      078280DD 
 2414      64EB8735 
 2414      4EF1ACD4 
 2415 00a6 9F55FA53 		.ascii	"\237U\372S\205u;\374'\276\331\255\302a\020>\026\250"
 2415      85753BFC 
 2415      27BED9AD 
 2415      C261103E 
 2415      16A8
 2416 00b8 AF0DEEF0 		.ascii	"\257\015\356\360\333\304\300*\006\215r`SV\326\270\352"
 2416      DBC4C02A 
 2416      068D7260 
 2416      5356D6B8 
 2416      EA
 2417 00c9 AE35CD42 		.ascii	"\2565\315B\324>\030\332\372\023\250vh\250\015J?\007"
 2417      D43E18DA 
 2417      FA13A876 
 2417      68A80D4A 
 2417      3F07
 2418 00db 7533655C 		.ascii	"u3e\\'\224\327\370o\035\314Bjb\014l\205\342\342\252"
 2418      2794D7F8 
 2418      6F1DCC42 
 2418      6A620C6C 
 2418      85E2E2AA 
 2419 00ef C56AB33B 		.ascii	"\305j\263;\234\260B\261\261\310\337Z>\031m\036U54v\202"
 2419      9CB042B1 
 2419      B1C8DF5A 
 2419      3E196D1E 
 2419      55353476 
 2420 0104 D6DC0E21 		.ascii	"\326\334\016!\316X\023\327_n\340P\313C\034@\325{\012"
 2420      CE5813D7 
 2420      5F6EE050 
 2420      CB431C40 
 2420      D57B0A
 2421 0117 64608FBF 		.ascii	"d`\217\277\315^h\327\264\356\375{5\315\301B\234\303"
 2421      CD5E68D7 
 2421      B4EEFD7B 
 2421      35CDC142 
 2421      9CC3
 2422 0129 1E401FD8 		.ascii	"\036@\037\330\015\260\013\030M\314\337\236,\274y1\265"
 2422      0DB00B18 
 2422      4DCCDF9E 
 2422      2CBC7931 
 2422      B5
 2423 013a B9683CB2 		.ascii	"\271h<\262a\333*O\240\334\036\342*\3543[36\177w\262"
 2423      61DB2A4F 
 2423      A0DC1EE2 
 2423      2AEC335B 
 2423      33367F77 
 2424 014f 95C17E90 		.ascii	"\225\301~\220q9:X\211\003@\033\010\214\2220\306\251"
 2424      71393A58 
 2424      8903401B 
 2424      088C9230 
 2424      C6A9
 2425 0161 6D7E03E3 		.ascii	"m~\003\343`\014\306\231d\341\007\207\200\341\262\331"
 2425      600CC699 
 2425      64E10787 
 2425      80E1B2D9 
ARM GAS  /tmp/cc7A5JCV.s 			page 61


 2426 0171 FC2E1A13 		.ascii	"\374.\032\023\313G\335\253\006Zs\216\257\324\3364\334"
 2426      CB47DDAB 
 2426      065A738E 
 2426      AFD4DE34 
 2426      DC
 2427 0182 4077035A 		.ascii	"@w\003Z\255:\377\343\024\035\376QwO\313j\233vRSc\003"
 2427      AD3AFFE3 
 2427      141DFE51 
 2427      774FCB6A 
 2427      9B765253 
 2428 0198 A0A5CC86 		.ascii	"\240\245\314\206\025s\265\367\354V\013\034\301\311\303"
 2428      1573B5F7 
 2428      EC560B1C 
 2428      C1C9C3
 2429 01a7 84C5902B 		.ascii	"\204\305\220+t\030\\\005\313\306\316\367\376\013\343"
 2429      74185C05 
 2429      CBC6CEF7 
 2429      FE0BE3
 2430 01b6 D1B1560E 		.ascii	"\321\261V\016\307\2420:\3777\306\360N\016'\2420N\012"
 2430      C7A2303A 
 2430      FF37C6F0 
 2430      4E0E27A2 
 2430      304E0A
 2431 01c9 0CB45130 		.ascii	"\014\264Q0\235\230\212o/Z\332\265\307O\2525\355\306"
 2431      9D988A6F 
 2431      2F5ADAB5 
 2431      C74FAA35 
 2431      EDC6
 2432 01db E4431B1E 		.ascii	"\344C\033\036:\246\000\026GU(K\034{\026\025\033\253"
 2432      3AA60016 
 2432      4755284B 
 2432      1C7B1615 
 2432      1BAB
 2433 01ed 051B9B95 		.ascii	"\005\033\233\225z6j\3544\244\252\332\235\324\270h\350"
 2433      7A366AEC 
 2433      34A4AADA 
 2433      9DD4B868 
 2433      E8
 2434 01fe 260F0FBD 		.ascii	"&\017\017\275M\241B\245\002\354\205t\232\233HM\006\201"
 2434      4DA142A5 
 2434      02EC8574 
 2434      9A9B484D 
 2434      0681
 2435 0210 66529345 		.ascii	"fR\223EM659\324\344R\303X5gO\360\217\203\326\316X\200"
 2435      4D363539 
 2435      D4E452C3 
 2435      5835674F 
 2435      F08F83D6 
 2436 0227 2B72B012 		.ascii	"+r\260\022\007\267A\353\333w\032\3300T\264\015z\202"
 2436      07B741EB 
 2436      DB771AD8 
 2436      3054B40D 
 2436      7A82
 2437 0239 3C459799 		.ascii	"<E\227\231C$\242\022\024\3546s\261\342/\210\272\023"
 2437      4324A212 
 2437      14EC3673 
 2437      B1E22F88 
ARM GAS  /tmp/cc7A5JCV.s 			page 62


 2437      BA13
 2438 024b BA004E8B 		.ascii	"\272\000N\213\227S1\003\003i!\356\2023\260\221tC\023"
 2438      97533103 
 2438      036921EE 
 2438      8233B091 
 2438      744313
 2439 025e 42196771 		.ascii	"B\031gqLi\272\015\025\233_C\266\010+\002\035<=^<\017"
 2439      4C69BA0D 
 2439      159B5F43 
 2439      B6082B02 
 2439      1D3C3D5E 
 2440 0274 23003EB3 		.ascii	"#\000>\263\302M\337\017N\311 )\310Ag\300A\006\225\240"
 2440      C24DDF0F 
 2440      4EC92029 
 2440      C84167C0 
 2440      410695A0 
 2441 0288 F82215CE 		.ascii	"\370\"\025\316C$F7\306P0\306 T\016\036}.(}T\220\273"
 2441      43244637 
 2441      C65030C6 
 2441      20540E1E 
 2441      7D2E287D 
 2442 029f A69ABBBA 		.ascii	"\246\232\273\272\327\267\366+\000\270Z\036\352h?\023"
 2442      D7B7F62B 
 2442      00B85A1E 
 2442      EA683F13 
 2443 02af 59EDA6AE 		.ascii	"Y\355\246\256\325\200\005\243x#\376\313\212\021c\300"
 2443      D58005A3 
 2443      7823FECB 
 2443      8A1163C0 
 2444 02bf 1DE2EE20 		.ascii	"\035\342\356 w\303\305p\020\017\\\302 \270\262 w\012"
 2444      77C3C570 
 2444      100F5CC2 
 2444      20B8B220 
 2444      770A
 2445 02d1 D75D5D49 		.ascii	"\327]]I\222fZ\220s\023\271\030\2771p\031\3750\355\354"
 2445      92665A90 
 2445      7313B918 
 2445      BF317019 
 2445      FD30EDEC 
 2446 02e5 0E546D9E 		.ascii	"\016Tm\236.m\2635\372\363+Q\273\273\036\3125\255\376"
 2446      2E6DB335 
 2446      FAF32B51 
 2446      BBBB1ECA 
 2446      35ADFE
 2447 02f8 1CA74906 		.ascii	"\034\247I\006W@\3449\241\245\236\024\013\350>\307\311"
 2447      5740E439 
 2447      A1A59E14 
 2447      0BE83EC7 
 2447      C9
 2448 0309 07AEA2D4 		.ascii	"\007\256\242\324z\236\305\313*\274~\274C\257\341:z]"
 2448      7A9EC5CB 
 2448      2ABC7EBC 
 2448      43AFE13A 
 2448      7A5D
 2449 031b 7B162F9B 		.ascii	"{\026/\233\364z(\274n\242\327\015\231\337\000WO\005"
 2449      F47A28BC 
 2449      6EA2D70D 
ARM GAS  /tmp/cc7A5JCV.s 			page 63


 2449      99DF0057 
 2449      4F05
 2450 032d 02F799C8 		.ascii	"\002\367\231\310\351\020\224\317\026x\224\241\003]\237"
 2450      E91094CF 
 2450      167894A1 
 2450      035D9F
 2451 033c 8AE462E5 		.ascii	"\212\344b\3453pg`^h\372\376\226\352\356['Sqs\010\243"
 2451      33706760 
 2451      5E68FAFE 
 2451      96EAEE5B 
 2451      27537173 
 2452 0352 CBB7EA01 		.ascii	"\313\267\352\001NI\315\265\240\3462\014q\031y4\304\205"
 2452      4E49CDB5 
 2452      A0E6320C 
 2452      71197934 
 2452      C485
 2453 0364 7193A10F 		.ascii	"q\223\241\017si\241\215ES\315\036*\362\3178e\245)Y\215"
 2453      7369A18D 
 2453      4553CD1E 
 2453      2AF2CF38 
 2453      65A52959 
 2454 0379 29419E39 		.ascii	")A\2369\012Ds.A\374b\206\030\230B\020\3758e3 F\374\177"
 2454      0A44732E 
 2454      41FC6286 
 2454      18984210 
 2454      FD386533 
 2455 0391 70134086 		.ascii	"p\023@\206\231\3038\002\030\210\342\360<\001\014\032"
 2455      99C33802 
 2455      1888E2F0 
 2455      3C010C1A 
 2456 03a1 00185CAC 		.ascii	"\000\030\\\254\352\312\255\011\011\2602\343\260~\215"
 2456      EACAAD09 
 2456      09B032E3 
 2456      B07E8D
 2457 03b0 C71A32D6 		.ascii	"\307\0322\326\203\261\005V/ba\012G\266\\\352\035\262"
 2457      83B10556 
 2457      2F62610A 
 2457      47B65CEA 
 2457      1DB2
 2458 03c2 633EE990 		.ascii	"c>\351\220\221\351\232\031\344jX\262/\307\255\027\325"
 2458      91E99A19 
 2458      E46A58B2 
 2458      2FC7AD17 
 2458      D5
 2459 03d3 37168611 		.ascii	"7\026\206\021\316.\267c\363L<1\3407\234p0\201P\347\277"
 2459      CE2EB763 
 2459      F34C3C31 
 2459      E0379C70 
 2459      308150E7 
 2460 03e8 8E512C7A 		.ascii	"\216Q,z\211\255\221=60+\304S\020\034\356\232\301\222"
 2460      89AD913D 
 2460      36302BC4 
 2460      53101CEE 
 2460      9AC192
 2461 03fb E11EFA3A 		.ascii	"\341\036\372:\031\2534\366\210\015\356#\227\021\250"
 2461      19AB34F6 
 2461      880DEE23 
ARM GAS  /tmp/cc7A5JCV.s 			page 64


 2461      9711A8
 2462 040a CA60E274 		.ascii	"\312`\342tHm\242m\030$\"\226\020\037'\350\267\271da"
 2462      486DA26D 
 2462      18242296 
 2462      101F27E8 
 2462      B7B96461 
 2463 041e C607B9D5 		.ascii	"\306\007\271\325\300oNKL\366A\204\354\300xb\3640B\266"
 2463      C06F4E4B 
 2463      4CF64184 
 2463      ECC07862 
 2463      F43042B6 
 2464 0432 AD654C90 		.ascii	"\255eL\220O\014#L\022\014\255\3040|\014\374\251\037"
 2464      4F0C234C 
 2464      120CADC4 
 2464      307C0CFC 
 2464      A91F
 2465 0444 0374D4BC 		.ascii	"\003t\324\274\216'!\332\013\012\027\272\334,\240hM\252"
 2465      8E2721DA 
 2465      0B0A17BA 
 2465      DC2CA068 
 2465      4DAA
 2466 0456 90AB2556 		.ascii	"\220\253%V\2567\244\022k\337\012\213\365\030\272\246"
 2466      AE37A412 
 2466      6BDF0A8B 
 2466      F518BAA6 
 2467 0466 9BC5DA69 		.ascii	"\233\305\332i\022\353\361\210X\263L\305M\217\023\353"
 2467      12EBF188 
 2467      58B34CC5 
 2467      4D8F13EB 
 2468 0476 DFB2B89D 		.ascii	"\337\262\270\235&\261>\226\305\355\214\2105{\024\010"
 2468      26B13E96 
 2468      C5ED8C88 
 2468      357B1408 
 2469 0486 29D67FCC 		.ascii	")\326\177\314\020R\254O\244\326:\023\2115+N`\345\212"
 2469      1052AC4F 
 2469      A4D63A13 
 2469      89352B4E 
 2469      60E58A
 2470 0499 99831058 		.ascii	"\231\203\020X\205\242\003`\360\247\2105;\016\2532\036"
 2470      85A20360 
 2470      F0A78835 
 2470      3B0EAB32 
 2470      1E
 2471 04aa AB4AD1D7 		.ascii	"\253J\321\327\203\261\243\305\272\366\256\024\3531\223"
 2471      83B1A3C5 
 2471      BAF6AE14 
 2471      EB3193
 2472 04b9 586D3162 		.ascii	"Xm1bM\217\255\377*%F\254\037)1b\265\307H\324\026+Q\277"
 2472      4D8FADFF 
 2472      2A2546AC 
 2472      1F293162 
 2472      B5C748D4 
 2473 04d1 122BD14F 		.ascii	"\022+\321O\224D\022MG,C\242u\036\306\376\002\234q\323"
 2473      9444124D 
 2473      472C43A2 
 2473      751EC6FE 
 2473      029C71D3 
ARM GAS  /tmp/cc7A5JCV.s 			page 65


 2474 04e5 411DE056 		.ascii	"A\035\340V\263B\200\016U\262\372>\242\217#\310D1\353"
 2474      B342800E 
 2474      55B2FA3E 
 2474      A28F23C8 
 2474      4431EB
 2475 04f8 A3C3A48F 		.ascii	"\243\303\244\217\243\021}\344\230\362\251\304\351c\215"
 2475      A3117DE4 
 2475      98F2A9C4 
 2475      E9638D
 2476 0507 CC678749 		.ascii	"\314g\207I\037\3252\237\035\021}\344\216\002!\365Qc"
 2476      1FD5329F 
 2476      1D117DE4 
 2476      8E0221F5 
 2476      5163
 2477 0519 8690FAA8 		.ascii	"\206\220\372\250\225\345\355H\244\217\234\270\232\326"
 2477      95E5ED48 
 2477      A48F9CB8 
 2477      9AD6
 2478 0527 45711035 		.ascii	"Eq\0205\375\314\000\300\340O\321Gn\034\326\272x\254"
 2478      FDCC00C0 
 2478      E04FD147 
 2478      6E1CD6BA 
 2478      78AC
 2479 0539 7A633D18 		.ascii	"zc=\030;Z\037[\3577;H\037G\304\001R\251W'\255I~b\261"
 2479      3B5A1F5B 
 2479      EF373B48 
 2479      1F47C401 
 2479      52A95727 
 2480 0552 2B6F077B 		.ascii	"+o\007{\316\271\2516J\2706\266\372\257\216\366\030\037"
 2480      CEB9A936 
 2480      4AB836B6 
 2480      FAAF8EF6 
 2480      181F
 2481 0564 70456C72 		.ascii	"pElr\361Y\351k\354Zc|\312\333Z\306\005\271c\364o\262"
 2481      F159E96B 
 2481      EC5A637C 
 2481      CADB5AC6 
 2481      05B963F4 
 2482 057a 071A15F1 		.ascii	"\007\032\025\361-\227\306\223\360\223\036m\234\022e"
 2482      2D97C693 
 2482      F0931E6D 
 2482      9C1265
 2483 0589 BC5137C6 		.ascii	"\274Q7\306\333E\357\321e\210LW\000F\264\320t\242:\334"
 2483      DB45EFD1 
 2483      65884C57 
 2483      0046B4D0 
 2483      74A23ADC 
 2484 059d BB1C6F1C 		.ascii	"\273\034o\034\256\246\236\020]0\354\027\304]#r\272\\"
 2484      AEA69E10 
 2484      5D30EC17 
 2484      C45D2372 
 2484      BA5C
 2485 05af 91D2E839 		.ascii	"\221\322\3509\347\322\331\325\371\221\263+\254\343\234"
 2485      E7D2D9D5 
 2485      F991B32B 
 2485      ACE39C
 2486 05be C87DC6AC 		.ascii	"\310}\306\254\343Mf\035s\322\361\346\204:\306=\3402"
ARM GAS  /tmp/cc7A5JCV.s 			page 66


 2486      E34D661D 
 2486      73D2F1E6 
 2486      843AC63D 
 2486      E032
 2487 05d0 747CD543 		.ascii	"t|\325C\370\015\203\343\303\247\244;\262\034\363>\333"
 2487      F80D83E3 
 2487      C3A7A43B 
 2487      B21CF33E 
 2487      DB
 2488 05e1 1AD96703 		.ascii	"\032\331g\003\036\332g!\271\317\220\207\000\272~\216"
 2488      1EDA6721 
 2488      B9CF9087 
 2488      00BA7E8E 
 2489 05f1 9B8A92DE 		.ascii	"\233\212\222\336D\251\307\233B\210O\020\257\177\367"
 2489      44A9C79B 
 2489      42884F10 
 2489      AF7FF7
 2490 0600 C4DCD81E 		.ascii	"\304\334\330\036\350\023T \307w\370\263\013\3027\254"
 2490      E8135420 
 2490      C777F8B3 
 2490      0BC237AC 
 2491 0610 1DE79DF4 		.ascii	"\035\347\235\364\003\000y}>8&\274h\236\340\022\367\245"
 2491      0300797D 
 2491      3E3826BC 
 2491      689EE012 
 2491      F7A5
 2492 0622 B2515F92 		.ascii	"\262Q_\222pl=\257\204\357W\236\321\313c\205\026\364"
 2492      706C3DAF 
 2492      84EF579E 
 2492      D1CB6385 
 2492      16F4
 2493 0634 73C95AA2 		.ascii	"s\311Z\242D\341)18lG\333$\212\341\221w8\031\243\241"
 2493      44E12931 
 2493      386C47DB 
 2493      248AE191 
 2493      773819A3 
 2494 0649 252D9CB1 		.ascii	"%-\234\261\244\004\021\276\226\021(;\264B\372\251\250"
 2494      A40411BE 
 2494      9611283B 
 2494      B442FAA9 
 2494      A8
 2495 065a A96285F7 		.ascii	"\251b\205\367\240\342\346\276\271\3725\023\344|E;\015"
 2495      A0E2E6BE 
 2495      B9FA3513 
 2495      E47C453B 
 2495      0D
 2496 066b 5FF2162D 		.ascii	"_\362\026-))\364\026/,)]Z\354+ZV\\VT\350\363}\340\235"
 2496      2929F416 
 2496      2F2C295D 
 2496      5AEC2B5A 
 2496      565C5654 
 2497 0684 F3C6BCD2 		.ascii	"\363\306\274\322\205\005\205\336\222\222\202\3513\246"
 2497      850585DE 
 2497      929282E9 
 2497      33A6
 2498 0692 BDB2C057 		.ascii	"\275\262\300WX\346\313g\331y\3369E\305\213\212\347\316"
 2498      58E6CB67 
ARM GAS  /tmp/cc7A5JCV.s 			page 67


 2498      D979DE39 
 2498      45C58B8A 
 2498      E7CE
 2499 06a4 5B903F35 		.ascii	"[\220?5oz\336T\357\2222\357R\237\267li\201\267\240\250"
 2499      6F7ADE54 
 2499      EF9232EF 
 2499      529FB76C 
 2499      6981B7A0 
 2500 06b9 C4B73CAF 		.ascii	"\304\267<\257\200)%\245c\365~^~\341\342i3^]\224\317"
 2500      802925A5 
 2500      63F57E5E 
 2500      7EE1E269 
 2500      335E5D94 
 2501 06ce 7881AF54 		.ascii	"x\201\257T\361\225\2768\212\177\361\273\005\357\274"
 2501      F195BE38 
 2501      8A7FF1BB 
 2501      05EFBC
 2502 06dd BFB81031 		.ascii	"\277\270\0201\312\012\212\026\347\025\261\177\001\200"
 2502      CA0A8A16 
 2502      E715B17F 
 2502      0180
 2503 06eb 7A8816   		.ascii	"z\210\026"
 2504              		.text
 2505              		.section	.gnu.lto_chMtxTryLock.316.7f87b3e556a28f3e,"e",%progbits
 2506 0000 789C8D53 		.ascii	"x\234\215S_lSU\030\377\276{\356m7\020\235\220hBbR\246"
 2506      5F6C5355 
 2506      18FFBE7B 
 2506      EE6D3710 
 2506      9D906842 
 2507 0017 0B31C1DE 		.ascii	"\0131\301\336\262\015\215oj}\301\244\321P\223=.[\271"
 2507      B20D8D6F 
 2507      6A7DC1A4 
 2507      D150933D 
 2507      2E5BB9
 2508 002a B14DBC74 		.ascii	"\261M\274t\366^\311\346\013\227n2\234\311\260\335\264"
 2508      F65EC9E6 
 2508      0B976E32 
 2508      9CC9B0DD 
 2508      B4
 2509 003b 38B60597 		.ascii	"8\266\005\227jxR\023\005\307\030\256:\267\025\0062\032"
 2509      6A785213 
 2509      05C718AE 
 2509      3AB71506 
 2509      321A
 2510 004d C9546230 		.ascii	"\311Tb0#\032\3072-\303?\005'\365;\347\336\265\325\250"
 2510      231AC732 
 2510      2DC33F05 
 2510      27F53BE7 
 2510      DEB5D5A8 
 2511 0061 F1E59C73 		.ascii	"\361\345\234s\277\373\375\371\3759\007\024\000\025\001"
 2511      BFFBFDF9 
 2511      FD390714 
 2511      001501
 2512 0070 9E020054 		.ascii	"\236\002\000T\000\223\211\036\011,\313z\314-I]\211W"
 2512      0093891E 
 2512      092CCB7A 
 2512      CC2D495D 
ARM GAS  /tmp/cc7A5JCV.s 			page 68


 2512      8957
 2513 0082 25CC626E 		.ascii	"%\314bn\177\241V\356L\334\371\356\355\356\373d\206\375"
 2513      7FA156EE 
 2513      4CDCF9EE 
 2513      EDEEFB64 
 2513      86FD
 2514 0094 A50C19F7 		.ascii	"\245\014\031\367'z~\313~(\343)\024\001\204}\022\223"
 2514      277A7ECB 
 2514      7E28E329 
 2514      1401847D 
 2514      1293
 2515 00a6 711FF6B1 		.ascii	"q\037\366\261\0073\226Uxy\2408\203\003\3072\230f\000"
 2515      07339655 
 2515      7879A038 
 2515      8303C732 
 2515      986600
 2516 00b9 C30CB001 		.ascii	"\303\014\260\001}4\007\006\031&Y\232!\312\316IB\017"
 2516      7D340706 
 2516      1926599A 
 2516      21CACE49 
 2516      420F
 2517 00cb 9DD8B3B0 		.ascii	"\235\330\263\260\225\312\346\306G-\253\032\322\214\341"
 2517      95CAE6C6 
 2517      472DAB1A 
 2517      D28CE1
 2518 00da 47C8AB4E 		.ascii	"G\310\253N \036'\210\024h:X#\252Y\204\257u\224\234?"
 2518      201E2788 
 2518      14683A58 
 2518      23AA5984 
 2518      AF75949C 
 2519 00ef F8CA810D 		.ascii	"\370\312\201\015\357[U4\001Ob\305\214\246\276\032\027"
 2519      EF5B5534 
 2519      014F62C5 
 2519      8CA6BE1A 
 2519      17
 2520 0100 E018F2B9 		.ascii	"\340\030\362\271\000\214\322]\034\003\3428\362Z\027"
 2520      008CD25D 
 2520      1C03E238 
 2520      F25A17
 2521 010f 011E9D6A 		.ascii	"\001\036\235j\004\202>\314\244\265\310\340\345\311\357"
 2521      04823ECC 
 2521      A4B5C8E0 
 2521      E5C9EF
 2522 011e 4884D314 		.ascii	"H\204\323\024cbN\237H\346\250\012\277\366\\\276\260"
 2522      63624E9F 
 2522      48E6A80A 
 2522      BFF65CBE 
 2522      B0
 2523 012f 79D0CAC8 		.ascii	"y\320\312\310i\2428\201\274\225\015\0149?\271\351\322"
 2523      69A23881 
 2523      BC950D0C 
 2523      393FB9E9 
 2523      D2
 2524 0140 26075261 		.ascii	"&\007Ra\265\367\364\361m\223\235V\326*\345B9\327\346"
 2524      B5F7F4F1 
 2524      6D939D56 
 2524      D62AE542 
ARM GAS  /tmp/cc7A5JCV.s 			page 69


 2524      39D7E6
 2525 0153 CFA715BE 		.ascii	"\317\247\025\276\037p\341'\024\374\230w\003\302\207"
 2525      1F70E127 
 2525      14FC9877 
 2525      03C287
 2526 0162 9F96F071 		.ascii	"\237\226\360q\2602~V\236?wq\366%{\274\255\213\274\326"
 2526      B0327E56 
 2526      9E3F7771 
 2526      F6257BBC 
 2526      AD8BBCD6 
 2527 0176 720AB932 		.ascii	"r\012\2712\347\357ZS\2448\363\202\230\374W\371(\255"
 2527      E7EF5A53 
 2527      A438F382 
 2527      98FC57F9 
 2527      28AD
 2528 0188 62F29489 		.ascii	"b\362\224\211\323h\223\227\305\340\031tf\011a\246\035"
 2528      D3689397 
 2528      C5E01974 
 2528      660961A6 
 2528      1D
 2529 0199 6194B230 		.ascii	"a\224\2620\235\177\2200g(\346\2022\317\345\377\305s"
 2529      9D7F9030 
 2529      6728E682 
 2529      32CFE5FF 
 2529      C573
 2530 01ab 749578CE 		.ascii	"t\225x\316R\360l\211\3479\301\223\347\274\227S2\326"
 2530      52F06C89 
 2530      E739C193 
 2530      E7BC9753 
 2530      32D6
 2531 01bd 6AF19095 		.ascii	"j\361\220\225\351\336P\354N\026\263\322:\011q\024\031"
 2531      E9DE50EC 
 2531      4E16B3D2 
 2531      3A097114 
 2531      19
 2532 01ce F9ADC8B4 		.ascii	"\371\255\310\264\200\302\027\200C\214\337:KF+\003\360"
 2532      80C21780 
 2532      438CDF3A 
 2532      4B462B03 
 2532      F0
 2533 01df 1A93EC8F 		.ascii	"\032\223\354\217N\372\270\206\326B\"\207b\357\337\310"
 2533      4EFAB886 
 2533      D6422287 
 2533      62EFDFC8 
 2534 01ef B71BCBBD 		.ascii	"\267\033\313\275\311\324\033HF\212`j\276Zd\335\2709"
 2534      C9D41B48 
 2534      468A606A 
 2534      BE5A64DD 
 2534      B839
 2535 0201 74EBDA97 		.ascii	"t\353\332\227\233Ho\021>\262t\030y<\356!\027\3705\224"
 2535      9B486F11 
 2535      3EB27418 
 2535      793CEE21 
 2535      17F83594 
 2536 0215 D16357BF 		.ascii	"\321cW\277~\342\312\020\222\031\"\355\324\225j\234D"
 2536      7EE2CA10 
 2536      921922ED 
ARM GAS  /tmp/cc7A5JCV.s 			page 70


 2536      D4956A9C 
 2536      44
 2537 0226 F809E3B5 		.ascii	"\370\011\343\265\034r\277D\264\266\274-\035\240;\347"
 2537      1C72BF44 
 2537      B4B6BC2D 
 2537      1DA03BE7 
 2538 0236 A2A3CC5F 		.ascii	"\242\243\314_\316\005\004\332q\016\361s\241\342\226"
 2538      CE0504DA 
 2538      710EF173 
 2538      A1E296
 2539 0245 63E2BF5B 		.ascii	"c\342\277[\374\314\331S\362\205\241\201\245*\340\216"
 2539      FCCCD953 
 2539      F285A181 
 2539      A52AE08E 
 2540 0255 F3BE2BCB 		.ascii	"\363\276+\313\275\207Su6\220\324=\"\362\326\007\211"
 2540      BD875375 
 2540      3690D43D 
 2540      22F2D607 
 2540      89
 2541 0266 00E96E43 		.ascii	"\000\351nC\232\306\021\272\230\024\276\372Kr=\371#2"
 2541      9AC611BA 
 2541      9814BEFA 
 2541      4B723DF9 
 2541      2332
 2542 0278 6FE68855 		.ascii	"o\346\210U\326>\377nS\256--\013\2677\302\217\030\037"
 2542      D63EFF6E 
 2542      53AE2D2D 
 2542      0BB737C2 
 2542      8F181F
 2543 028b 5FBC6384 		.ascii	"_\274c\2041\347e1\001\347\035$\015\253\250\037~\201"
 2543      31E76531 
 2543      01E71D24 
 2543      0DABA81F 
 2543      7E81
 2544 029d E023E108 		.ascii	"\340#\341\010\233\202\227p\210\011\353a\021\273\026"
 2544      9B829770 
 2544      8809EB61 
 2544      11BB16
 2545 02ac 27375315 		.ascii	"'7S\025/Q\270-\3005f\371\225\211\037Ph\234Gy\204\311"
 2545      2F51B82D 
 2545      C03566F9 
 2545      95891F50 
 2545      689C4779 
 2546 02c2 5D28A559 		.ascii	"](\245Y\3650s\363\"j\227f\353D\242\\iF\374\333Tn=\321"
 2546      F53073F3 
 2546      226A9766 
 2546      EB44A25C 
 2546      6946FCDB 
 2547 02da E037CCA6 		.ascii	"\3407\314\2462FT\024\201\360M\0333\3713\306\3759c3\231"
 2547      32465414 
 2547      81F04D1B 
 2547      33F933C6 
 2547      FD396333 
 2548 02ef 48A56C4D 		.ascii	"H\245lM\026.\316? \366o\346\377\316\355\347{\035\007"
 2548      162ECE3F 
 2548      20F66FE6 
 2548      FFCEEDE7 
ARM GAS  /tmp/cc7A5JCV.s 			page 71


 2548      7B1D07
 2549 0302 BF5E2207 		.ascii	"\277^\"\007\317\332\205\327\313\016\316:\016B\245\203"
 2549      CFDA85D7 
 2549      CB0ECE3A 
 2549      0E42A583 
 2550 0312 E7CA0E9E 		.ascii	"\347\312\016\236\257t\320\361\352+\341Z\245Ayn\320\254"
 2550      AF74D0F1 
 2550      EA2BE15A 
 2550      A541796E 
 2550      D0AC
 2551 0324 63D0D1AB 		.ascii	"c\320\321\253\011\205\333\261\202\361\243;8\003\200"
 2551      0985DBB1 
 2551      82F1A33B 
 2551      380380
 2552 0333 5BA8F031 		.ascii	"[\250\3601\324D\032>r\275\212\254 U\350\011\321\355"
 2552      D4441A3E 
 2552      72BD8AAC 
 2552      2055E809 
 2552      D1ED
 2553 0345 445B8378 		.ascii	"D[\203x\206k\367\220\032\216\352\232\032i\321\333b\021"
 2553      866BF790 
 2553      1A8EEA9A 
 2553      1A69D1DB 
 2553      6211
 2554 0357 33BC3762 		.ascii	"3\2747b\2045\323\354P\375O\006\333ZB\232\252\353\241"
 2554      8435D3EC 
 2554      50FD4F06 
 2554      DB5A429A 
 2554      AAEBA1
 2555 036a 86C6ED0F 		.ascii	"\206\306\355\0177\233\232a\326\303\375^\325\037\216"
 2555      379B9A61 
 2555      D6C3FD5E 
 2555      D51F8E
 2556 0379 B4469E0E 		.ascii	"\264F\236\0166\327\373\274\015^\237\0325\324\230\251"
 2556      36D7FBBC 
 2556      0D5E9F1A 
 2556      35D498A9 
 2557 0389 1AB1901A 		.ascii	"\032\261\220\032\012\353f\2737\004\222\336v\267s\366"
 2557      0AEB66BB 
 2557      370492DE 
 2557      76B773F6 
 2558 0399 D66BBBB7 		.ascii	"\326k\273\2677>\332Z\017\330\272\365_J#{B\317\277\270"
 2558      373EDA5A 
 2558      0FD8BAF5 
 2558      5F4A237B 
 2558      42CFBFB8 
 2559 03ad 5BA372A3 		.ascii	"[\243r\243\303\360\206\301\335\332bh\317\304\"O\374"
 2559      C3F086C1 
 2559      DDDA6268 
 2559      CFC4224F 
 2559      FC
 2560 03be 537E28AA 		.ascii	"S~(\252\353\321=\252\326n\252\217\357\012\250\376@p"
 2560      EBD13DAA 
 2560      D66EAA8F 
 2560      EF0AA8FE 
 2560      4070
 2561 03d0 6750F547 		.ascii	"gP\365Gc\232\272s\255\215nD\214\346\347B!j\265\343?"
ARM GAS  /tmp/cc7A5JCV.s 			page 72


 2561      639ABA73 
 2561      AD8D6E44 
 2561      8CE6E742 
 2561      216AB5E3 
 2562 03e5 5AB44563 		.ascii	"Z\264Ec\246\301\233\370\003\3554;D=\232\367>\242SUM"
 2562      A6C19BF8 
 2562      03ED343B 
 2562      443D9AF7 
 2562      3EA25355 
 2563 03fa 20B8CBC3 		.ascii	" \270\313\303A\220 \333<u>\220b\340\3265=\032\353\200"
 2563      419020DB 
 2563      3C753E90 
 2563      62E0D635 
 2563      3D1AEB80 
 2564 040e 3F018EF2 		.ascii	"?\001\216\362\017\276"
 2564      0FBE
 2565              		.text
 2566              		.section	.gnu.lto_chMtxTryLockS.317.7f87b3e556a28f3e,"e",%progbits
 2567 0000 789C458F 		.ascii	"x\234E\217\315k\023Q\024\305\357y\367%\215\"\212.\005"
 2567      CD6B1351 
 2567      14C5EF79 
 2567      F7258D22 
 2567      8A2E05
 2568 0013 41EA42BA 		.ascii	"A\352B\272p^\232\024\301]\245\356\273\250\340\262\264"
 2568      705E9A14 
 2568      C15DA5EE 
 2568      BBA8E0B2 
 2568      B4
 2569 0024 E3C0CC62 		.ascii	"\343\300\314bhH\006\321U_j\212\240\213\230*.\372\221"
 2569      684806D1 
 2569      555F6A8A 
 2569      A08B982A 
 2569      2EFA91
 2570 0037 4518C495 		.ascii	"E\030\304\225\256\324\266*\006\\\271(H\376\204\342\302"
 2570      AED4B62A 
 2570      065CB928 
 2570      48FE84E2 
 2570      C2
 2571 0048 084AEDAA 		.ascii	"\010J\355\252~P\275/\023,\314\3349w\356;\277w\3562\210"
 2571      7E50BD2F 
 2571      132CCCDC 
 2571      3977EE3B 
 2571      BF77EE32 
 2572 005d 4222BA2A 		.ascii	"B\"\272*/r\204\225\326}E\326\332\311\021\245\032\255"
 2572      2F728495 
 2572      D67D45D6 
 2572      DAC911A5 
 2572      1AAD
 2573 006f 070A5BE8 		.ascii	"\007\012[\350\325\017F\365\335\326\311\347\207\367\316"
 2573      D50F46F5 
 2573      DDD6C9E7 
 2573      87F7CE
 2574 007e 69C6E342 		.ascii	"i\306\343B6\327\250\267\216\017\024hQ\261\306\"\036"
 2574      36D7A8B7 
 2574      8E0F1468 
 2574      51B1C622 
 2574      1E
ARM GAS  /tmp/cc7A5JCV.s 			page 73


 2575 008f F158D7DA 		.ascii	"\361X\327\332\203\345\325\355\217X}\326E\312Dm&\224"
 2575      83E5D5ED 
 2575      8F587DD6 
 2575      45CA446D 
 2575      2694
 2576 00a1 51143CAD 		.ascii	"Q\024<\2553V8e@\017\225\302yQ|\235.\212\355\323\273"
 2576      33563865 
 2576      400F95C2 
 2576      79517C9D 
 2576      2E8AEDD3 
 2577 00b6 4D6B8F51 		.ascii	"Mk\217Q\312\214\327p\256W\300K\0206\005\3037vN\021\345"
 2577      CA8CD770 
 2577      AE57C04B 
 2577      103605C3 
 2577      37764E11 
 2578 00cb 33DA9644 		.ascii	"3\332\226D\226\207^\364r]\373\347o\323\332\235\317\370"
 2578      96875EF4 
 2578      725DFBE7 
 2578      6FD3DA9D 
 2578      CFF8
 2579 00dd 36568078 		.ascii	"6V\200x\265\222B\332\225<\304J\324d\027\327j\330.\321"
 2579      B59242DA 
 2579      953CC44A 
 2579      D46417D7 
 2579      6AD82ED1 
 2580 00f1 43565953 		.ascii	"CVYS\227\346+\354\356\317\336\0238\240\323\277{\203"
 2580      97E62BEC 
 2580      EECFDE13 
 2580      38A0D3BF 
 2580      7B83
 2581 0103 EFE8FFB2 		.ascii	"\357\350\377\262{x\206\276c\351m\377D\2071\214\314p"
 2581      7B7886BE 
 2581      63E96DFF 
 2581      4487318C 
 2581      CC70
 2582 0115 6B3C8550 		.ascii	"k<\205P\012)\347:\234\3076\250\230\265\032o\260\301"
 2582      0A29E73A 
 2582      9CC736A8 
 2582      98B51A6F 
 2582      B0C1
 2583 0127 6ED53E1A 		.ascii	"n\325>\032\375\017g;\231G\273\264\344n\347\275\375\367"
 2583      FD0F673B 
 2583      9947BBB4 
 2583      E46EE7BD 
 2583      FDF7
 2584 0139 5F30B87D 		.ascii	"_0\270}\017\272\303\252\001\225r\276-T\022T\312#\203"
 2584      0FBAC3AA 
 2584      019572BE 
 2584      2D541254 
 2584      CA2383
 2585 014c 63FA28E4 		.ascii	"c\372(\344>\226&e\244\345\377/hG\223\335U{\355GAb\013"
 2585      3E962665 
 2585      A4E5FF2F 
 2585      684793DD 
 2585      557BED47 
 2586 0163 C04D9A8C 		.ascii	"\300M\232\214\243\025\211.\231p!\016L4\027W\252Q\022"
 2586      A315892E 
ARM GAS  /tmp/cc7A5JCV.s 			page 74


 2586      9970210E 
 2586      4C341757 
 2586      AA5112
 2587 0176 DE8A6A61 		.ascii	"\336\212ja\220$w\314\324\265\231\312\234\037\2308\366"
 2587      902477CC 
 2587      D4B599CA 
 2587      9C1F9838 
 2587      F6
 2588 0187 CB13E397 		.ascii	"\313\023\343\227g\223\240\226\224\350\202g\246\302h"
 2588      6793A096 
 2588      94E88267 
 2588      A6C268
 2589 0196 3E9A9E99 		.ascii	">\232\236\231-\025\275\262W4\0135SML\255\352\033?\214"
 2589      2D15BDB2 
 2589      57340B35 
 2589      534D4CAD 
 2589      EA1B3F8C 
 2590 01aa 93DB9E4F 		.ascii	"\223\333\236O*\256\234\036j\257\024\334\034\237\270"
 2590      2AAE9C1E 
 2590      6AAF14DC 
 2590      1C9FB8
 2591 01b9 325FA27F 		.ascii	"2_\242\177\026\231\240\340"
 2591      1699A0E0 
 2592              		.text
 2593              		.section	.gnu.lto_chMtxUnlock.318.7f87b3e556a28f3e,"e",%progbits
 2594 0000 789C9557 		.ascii	"x\234\225W{PT\327\031?\337=w\367.\017\227WT|L\006MM"
 2594      7B5054D7 
 2594      193FDF3D 
 2594      77F72E0F 
 2594      9757547C 
 2595 0018 D219CB12 		.ascii	"\322\031\313\022c\363\230N\23743\315\037L3\2413\314"
 2595      63F3984E 
 2595      9F3433CD 
 2595      1F4C33A1 
 2595      33CC
 2596 002a F41F47D7 		.ascii	"\364\037G\327\235\302LV(\273I\365\217NV\036&\003\030"
 2596      9DC24C56 
 2596      28BB49F5 
 2596      8F4E561E 
 2596      260318
 2597 003d 1E866790 		.ascii	"\036\206g\220\306\355\322\222I'\255\245&\200\0170\304"
 2597      C6EDD292 
 2597      4927ADA5 
 2597      26800F30 
 2597      C4
 2598 004e 478D46A2 		.ascii	"G\215F\242\2055\212\301\202\002+\215\"\232\210\014\031"
 2598      85358AC1 
 2598      82022B8D 
 2598      229A880C 
 2598      19
 2599 005f FB7DE7DC 		.ascii	"\373}\347\334{\367.Z\323\354\037\227s\316\375\316\367"
 2599      7BF72E5A 
 2599      D3EC1F97 
 2599      73CEFDCE 
 2599      F7
 2600 0070 FB7DBFEF 		.ascii	"\373}\277\357;\337\271\224;\031\253\007\306z\030c\220"
 2600      3BDFB994 
ARM GAS  /tmp/cc7A5JCV.s 			page 75


 2600      3B19AB07 
 2600      C67A1863 
 2600      90
 2601 0081 C0A0AEB6 		.ascii	"\300\240\256\266Ba\201@\340'\232\242\224\326V*p\020"
 2601      42618140 
 2601      E0279AA2 
 2601      94D6562A 
 2601      7010
 2602 0093 5A3AC7D7 		.ascii	"Z:\307\327\252\3155\2430~\2629M\345\320X[\021\036\356"
 2602      AACD35A3 
 2602      307EB239 
 2602      4DE5D058 
 2602      5B111EEE 
 2603 00a7 51611884 		.ascii	"Qa\030\204\235\252\224\327&\010\233\035\265Nab\203\206"
 2603      9DAA94D7 
 2603      26089B1D 
 2603      B54E6162 
 2603      8386
 2604 00b9 DA78F1CE 		.ascii	"\332x\361\316\016\215{\015\177\232RF\376\206\341\314"
 2604      0E8D7B0D 
 2604      7F9A5246 
 2604      FE86E1CC 
 2605 00c9 F4DC336A 		.ascii	"\364\3343j\023\372{\257\272\\S\035\320R\027\\\2050\302"
 2605      13FA7BAF 
 2605      BA5C531D 
 2605      D052175C 
 2605      8530C2
 2606 00dc 284ECCE4 		.ascii	"(N\314\344\206x\330\216H\221\325\306;`\257*\\\265\331"
 2606      8678D88E 
 2606      4891D5C6 
 2606      3B60AF2A 
 2606      5CB5D9
 2607 00ef 35475C3C 		.ascii	"5G\\<\274\252h,\372\333\305\277\213&\263\345-\225\037"
 2607      BCAA682C 
 2607      FADBC5BF 
 2607      8B26B3E5 
 2607      2D951F
 2608 0102 43A0A30F 		.ascii	"C\240\243\017B\234\2616\256\277l\345P\307C\034@\325"
 2608      429CB136 
 2608      AEBF6CE5 
 2608      50C7431C 
 2608      40D5
 2609 0114 470A64E0 		.ascii	"G\012d\340\210\377\212=\326\027\010\014\354\357\012"
 2609      88FF8A3D 
 2609      D617080C 
 2609      ECEF0A
 2610 0123 04E25888 		.ascii	"\004\342X\210s\370\000p\017\274\017\260\017\005\301"
 2610      73F80070 
 2610      0FBC0FB0 
 2610      0F05C1
 2611 0132 85BC61A7 		.ascii	"\205\274a\247\330\315\013\350\271\006\215\247wV\276"
 2611      D8CD0BE8 
 2611      B9068DA7 
 2611      7756BE
 2612 0141 E6ACD9EE 		.ascii	"\346\254\331\356 \353n\2535cy_:\311\324k\232V\275\253"
 2612      20EB6EAB 
 2612      3563795F 
ARM GAS  /tmp/cc7A5JCV.s 			page 76


 2612      3AC9D46B 
 2612      9A56BDAB 
 2613 0155 9BAAB07F 		.ascii	"\233\252\260\177\201\351\244\323\316\340\000@\017H\226"
 2613      81E9A4D3 
 2613      CEE00040 
 2613      0F4896
 2614 0164 36DC6327 		.ascii	"6\334c'\306\000\207\200\034\330)\232\223O1\014\275\215"
 2614      C6008780 
 2614      1CD8299A 
 2614      934F310C 
 2614      BD8D
 2615 0176 2BC64A6B 		.ascii	"+\306Jk\244\364k\033\203^\\\343\202W\2630\246(f\353"
 2615      A4F46B1B 
 2615      835E5CE3 
 2615      8257B330 
 2615      A62866EB 
 2616 018a 2A2F9C5E 		.ascii	"*/\234^\336\032\350SC\334\006\207\201\\I<\370\020\325"
 2616      DE1AE853 
 2616      43DC0687 
 2616      815C493C 
 2616      F810D5
 2617 019d B0E50DA6 		.ascii	"\260\345\015\246\351\274f\233\252\277\330\267\266\277"
 2617      E9BC669B 
 2617      AABFD8B7 
 2617      B6BF
 2618 01ab 34703C60 		.ascii	"4p<`\332\262\250\255\324\213\320\272\346[\354\320\217"
 2618      DAB2A8AD 
 2618      D48BD0BA 
 2618      E65BECD0 
 2618      8F
 2619 01bc 8B7DE48D 		.ascii	"\213}\344\215!?\370\310\312\257u\362\362ZIP\215\022"
 2619      213FF8C8 
 2619      CAAF75F2 
 2619      F25A4950 
 2619      8D12
 2620 01ce ECBF8204 		.ascii	"\354\277\202\004\217\342\232\215E\361\016\376_x\263"
 2620      8FE29A8D 
 2620      45F10EFE 
 2620      5F78B3
 2621 01dd E388771C 		.ascii	"\343\210w\034\027\217\231x\3774\361H\034;|\034\235h"
 2621      178F9978 
 2621      FF34F148 
 2621      1C3B7C1C 
 2621      9D68
 2622 01ef 70321AFC 		.ascii	"p2\032\374\255\272\327\333\365\340e\0265\003\340\024"
 2622      ADBAD7DB 
 2622      F5E06516 
 2622      3503E014 
 2623 01ff 501E4FA6 		.ascii	"P\036O\246\030d\006>;W\245I*\261\371FK\013\225\213\365"
 2623      1864063E 
 2623      3B57A549 
 2623      2AB1F946 
 2623      4B0B958B 
 2624 0214 1C3E0119 		.ascii	"\034>\001\031\235\246c\302i\3201\371\207\212\011\335"
 2624      9DA663C2 
 2624      69D031F9 
 2624      878A09DD 
ARM GAS  /tmp/cc7A5JCV.s 			page 77


 2625 0224 DAF09FBD 		.ascii	"\332\360\237\275\217\037+\015\374\"\204\374>\005b\251"
 2625      8F1F2B0D 
 2625      FC2284FC 
 2625      3E0562A9 
 2626 0234 3B3C83D0 		.ascii	";<\203\320\366\274JSw$Y\236\200$\3132\014S\0265\265"
 2626      F6BC4A53 
 2626      7724599E 
 2626      8024CB32 
 2626      0C531635 
 2627 0249 C87E34C8 		.ascii	"\310~4\310\341,.\016\2203!\303\277@\217\234_WLY[\033"
 2627      E12C2E0E 
 2627      903321C3 
 2627      BF408F9C 
 2627      5F574C59 
 2628 025f 7A3BD71F 		.ascii	"z;\327\037\326eUa\010\255\035\206\2770\372\313\373G"
 2628      D6655561 
 2628      08AD1D86 
 2628      BF30FACB 
 2628      FB47
 2629 0271 AAE04D13 		.ascii	"\252\340M\023zuNz\230\211z\0308<\374#\235\217\006\237"
 2629      7A754E7A 
 2629      98897A18 
 2629      383CFC23 
 2629      9D8F069F 
 2630 0285 2D28D1A6 		.ascii	"-(\321\246$\243\216\017\274[a\324\361\320\002\243\252"
 2630      24A38E0F 
 2630      BC5B61D4 
 2630      F1D002A3 
 2630      AA
 2631 0296 24097101 		.ascii	"$\011q\001\340\274P\213\345U&E\2259\324\231%\225q\210"
 2631      E0BC508B 
 2631      E5552645 
 2631      9539D499 
 2631      25957188 
 2632 02aa 704D7A17 		.ascii	"pMz\027Q\031G\336\237S\357\223\024G\2540\027\255\302"
 2632      511947DE 
 2632      9F53EF93 
 2632      1447AC30 
 2632      17ADC2
 2633 02bd DC3EC2E1 		.ascii	"\334>\302\341s\\\034&_\017\322\201Yu@\005\341\022\216"
 2633      735C1C26 
 2633      5F0FD281 
 2633      59754005 
 2633      E1128E
 2634 02d0 474097E0 		.ascii	"G@\227\340[\324A\327\304 \207Q\035\322\254\2031\243"
 2634      5BD441D7 
 2634      C4208751 
 2634      1DD2AC83 
 2634      31A3
 2635 02e2 0EBE755A 		.ascii	"\016\276uZ\257\340\342e3\255\343\"\255h\303e/@\015\377"
 2635      AFE0E265 
 2635      33ADE322 
 2635      AD68C365 
 2635      2F400DFF 
 2636 02f6 7AC6D617 		.ascii	"z\306\326\027\230\277[\035\350{mQ\345Tu8\242\254R\030"
 2636      98BF5B1D 
 2636      E87B6D51 
ARM GAS  /tmp/cc7A5JCV.s 			page 78


 2636      E5547538 
 2636      A2AC5218 
 2637 030a AE737AA8 		.ascii	"\256sz\250\014\215l\324\230\354\370\210\323\350\341"
 2637      0C8D6CD4 
 2637      98ECF888 
 2637      D3E8E1
 2638 0319 C0477C02 		.ascii	"\300G|\0025\223D\200.p\342TM&\343\024z\244\343\324\261"
 2638      35934480 
 2638      2E70E254 
 2638      4D26E314 
 2638      7AA4E3D4 
 2639 032e 8CB62DA7 		.ascii	"\214\266-\247\321\012z\273\222\036\214Us6~\270g\200"
 2639      D10A7ABB 
 2639      921E8C55 
 2639      73367EB8 
 2639      6780
 2640 0340 41A08FB1 		.ascii	"A\240\217\261\032\256\310I)N\256B`\264y\010\3305(9\020"
 2640      1AAEC849 
 2640      294EAE42 
 2640      60B47908 
 2640      D8352839 
 2641 0355 71067982 		.ascii	"q\006y\202\3365\023D\314e\240\340\260\203\213\300\376"
 2641      DE351344 
 2641      CC65A0E0 
 2641      B0838BC0 
 2641      FE
 2642 0366 04E82C11 		.ascii	"\004\350,\021\"\000\223\342e\026\006:\2718\304\027\301"
 2642      220093E2 
 2642      6516063A 
 2642      B938C417 
 2642      C1
 2643 0377 55D84D8D 		.ascii	"U\330M\215\215\026D\345L\341\234\324\270\012%o\377\000"
 2643      8D1644E5 
 2643      4CE19CD4 
 2643      B80A256F 
 2643      FF00
 2644 0389 D9A25B01 		.ascii	"\331\242[\001\364\026\002\321\337\266%\364g\265\371"
 2644      F41602D1 
 2644      DFB625F4 
 2644      67B5F9
 2645 0398 18FDBB58 		.ascii	"\030\375\273X\270\331^]\327\330\000\330Q\304bc8N\360"
 2645      B8D95E5D 
 2645      D7D800D8 
 2645      51C46263 
 2645      384EF0
 2646 03ab BBB9B76D 		.ascii	"\273\271\267m\356\352\2714\354\024\322\311T\023\010"
 2646      EEEAB934 
 2646      EC14D2C9 
 2646      541308
 2647 03ba D719D83F 		.ascii	"\327\031\330?\210\252\0152\344\356\206\367Gv\003\266"
 2647      88AA0D32 
 2647      E4EE86F7 
 2647      477603B6 
 2648 03ca 1161B67F 		.ascii	"\021a\266\177$\016N\000\273\016%\253I\3669\005\031\257"
 2648      240E4E00 
 2648      BB0E25AB 
 2648      49F63905 
ARM GAS  /tmp/cc7A5JCV.s 			page 79


 2648      19AF
 2649 03dc AAE43B90 		.ascii	"\252\344;\220 \265n\225n\300k\300\360/\\\007\370BD\264"
 2649      20B56E95 
 2649      6EC06BC0 
 2649      F02F5C07 
 2649      F84244B4 
 2650 03f0 EA0DF13E 		.ascii	"\352\015\361>I\274\274!Q\246\377\326\3262\345`\324\253"
 2650      49BCBC21 
 2650      51A6FFD6 
 2650      D632E560 
 2650      D4AB
 2651 0402 C8EF4C7B 		.ascii	"\310\357L{uS\343\032I\244Q\260\236\331\323\331\231C"
 2651      7553E31A 
 2651      49A451B0 
 2651      9ED9D3D9 
 2651      9943
 2652 0414 A72136A4 		.ascii	"\247!6\244\256\2051\206\207\224\005+\323K\204\354\357"
 2652      AE853186 
 2652      8794052B 
 2652      D34B84EC 
 2652      EF
 2653 0425 2C0D729B 		.ascii	",\015r\233.;\007\251\264T29\210z\337\004CX\016\267P"
 2653      2E3B07A9 
 2653      B4543239 
 2653      887ADF04 
 2653      43580EB7 
 2654 043a 5805C9E1 		.ascii	"X\005\311\341\266\351\212AE\337\244F7u$\206x\012\312"
 2654      B6E98A41 
 2654      45DFA446 
 2654      37752486 
 2654      780ACA
 2655 044d 0D5F99BB 		.ascii	"\015_\231\273\342\3416\356\302\374 \212\200\275-\210"
 2655      E2E136EE 
 2655      C2FC208A 
 2655      80BD2D88 
 2656 045d A07C9F60 		.ascii	"\240|\237`b\022\205t\221\366\232\012\024\376\264\224"
 2656      62128574 
 2656      91F69A0A 
 2656      14FEB494 
 2657 046d AEFE048E 		.ascii	"\256\376\004\216\007\344\270\371\204\250\2157+N\361"
 2657      07E4B8F9 
 2657      84A88D37 
 2657      2B4EF1
 2658 047c 204F37AA 		.ascii	" O7\252\300 \246WA\307\303!\236\012w\020F\245\306YF"
 2658      C020A657 
 2658      41C7C321 
 2658      9E0A7710 
 2658      46A5C659 
 2659 0491 4C2657D2 		.ascii	"L&W\322\371\236\323\235\"\332YDK\027h\335\17797v)\025"
 2659      F99ED39D 
 2659      22DA5944 
 2659      4B1768DD 
 2659      7F393776 
 2660 04a7 1B9D40B8 		.ascii	"\033\235@\2708\326\0040(+\360\235%A\221\035\212\312"
 2660      38D60430 
 2660      282BF09D 
 2660      2541911D 
ARM GAS  /tmp/cc7A5JCV.s 			page 80


 2660      8ACA
 2661 04b9 0E66D1A5 		.ascii	"\016f\321\245\021\334<FT&\"z\010\276F(\033\223\036J"
 2661      11DC3C46 
 2661      5426227A 
 2661      08BE4628 
 2661      1B931E4A 
 2662 04cd A623ED4D 		.ascii	"\246#\355M\025;\2111uR\261\262\247\363\203+\016\314"
 2662      153B8931 
 2662      7552B1B2 
 2662      A7F3832B 
 2662      0ECC
 2663 04df 09B57516 		.ascii	"\011\265u\026\201\262H\377&tL\370\364\253\341\374\332"
 2663      81B248FF 
 2663      26744CF8 
 2663      F4ABE1FC 
 2663      DA
 2664 04f0 5CC73366 		.ascii	"\\\3073f\375\337\031J\3003/\2065K\345IH\012\362dS\323"
 2664      FDDF194A 
 2664      C0332F86 
 2664      354BE549 
 2664      480AF264 
 2665 0506 87EFD154 		.ascii	"\207\357\321T\203\273\310\300\256\227\370\217\361\360"
 2665      83BBC8C0 
 2665      AE97F88F 
 2665      F1F0
 2666 0514 A1BD70B0 		.ascii	"\241\275p\260+\314\305\332\323x\014\015\301\353\303"
 2666      2BCCC5DA 
 2666      D3780C0D 
 2666      C1EBC3
 2667 0523 5CA0AA35 		.ascii	"\\\240\2525\345\341c\334\204\335\035N\224\312\214\242"
 2667      E5E163DC 
 2667      84DD1D4E 
 2667      94CA8CA2 
 2668 0533 A56ACDC3 		.ascii	"\245j\315\303\230%\017\227\357\223\207\345\226<\250"
 2668      98250F97 
 2668      EF9387E5 
 2668      963CA8
 2669 0542 F7E461BB 		.ascii	"\367\344a\273\"\3620f\315C\211\"\235\"\332\025D[n\315"
 2669      22F23066 
 2669      CD438922 
 2669      9D22DA15 
 2669      445B6ECD 
 2670 0556 C3B8250F 		.ascii	"\303\270%\017\023\321<\254\260\250\257\306\250_\246"
 2670      13D13CAC 
 2670      B0A8AFC6 
 2670      A85FA6
 2671 0565 08F5C763 		.ascii	"\010\365\307c\324\277\014\324\360\244\372c\335_:PQj"
 2671      D4BF0CD4 
 2671      F0A4FA63 
 2671      DD5F3A50 
 2671      516A
 2672 0577 A652FD62 		.ascii	"\246R\375b\204D\217\272\372\266\311\257\346\017)\244"
 2672      84448FBA 
 2672      FAB6C9AF 
 2672      E60F29A4 
 2673 0587 0310D89D 		.ascii	"\003\020\330\235\211A-\310\355\226\272G\265W\304\250"
 2673      89412DC8 
ARM GAS  /tmp/cc7A5JCV.s 			page 81


 2673      ED96BA47 
 2673      B557C4A8 
 2674 0597 BD031135 		.ascii	"\275\003\0215Q\367\245\267v(X\311\264!\310\245\254\366"
 2674      51F7A5B7 
 2674      762858C9 
 2674      B421C8A5 
 2674      ACF6
 2675 05a9 5A8BAC8A 		.ascii	"Z\213\254\212\310\2058i\243\373\302U@\2115z\33323\243"
 2675      C8853869 
 2675      A3FBC255 
 2675      4089357A 
 2675      DB3233A3 
 2676 05bd 8BA3D299 		.ascii	"\213\243\322\231g\353uE\236-\331\264({\313\030\233\003"
 2676      67EB7545 
 2676      9E2DD9B4 
 2676      287BCB18 
 2676      9B03
 2677 05cf 05615495 		.ascii	"\005aT\225 m\004\246\241y@\215\001\343b\324c$q\364\315"
 2677      206D04A6 
 2677      A179408D 
 2677      01E362D4 
 2677      632471F4 
 2678 05e4 3C02A5B8 		.ascii	"<\002\245\270\263u\014F\216T,\007\336\326\355E\277\366"
 2678      B3750C46 
 2678      8E542C07 
 2678      DED6ED45 
 2678      BFF6
 2679 05f6 F7F6BF3C 		.ascii	"\367\366\277<\007\230\310d\376F\367\357\221\256]%\337"
 2679      0798C864 
 2679      FE46F7EF 
 2679      91AE5D25 
 2679      DF
 2680 0607 8E696B55 		.ascii	"\216ikU\366\206\023t\362\015\221\207L\346\213\356S\213"
 2680      F6861374 
 2680      F20D9187 
 2680      4CE68BEE 
 2680      538B
 2681 0619 15529D20 		.ascii	"\025R\235 O\221\211\324K\360Y\274?\243Gn~\374x\032^"
 2681      4F9189D4 
 2681      4BF059BC 
 2681      3FA3476E 
 2681      7EFC781A 
 2682 062e 8BC2E2EE 		.ascii	"\213\302\342\3568\246\372\337\240\207z\011\255\234\262"
 2682      38A6FADF 
 2682      A0877A09 
 2682      AD9CB2
 2683 063d 7827D265 		.ascii	"x'\322e\372\037\015\362\225F\372\021\316IpF\307\027"
 2683      FA1F0DF2 
 2683      9546FA11 
 2683      CE497046 
 2683      C717
 2684 064f 35568590 		.ascii	"5V\205\220\016\272fE\331=J=h\247\254\212\021\220\335"
 2684      0EBA6645 
 2684      D93D4A3D 
 2684      68A7AC8A 
 2684      1190DD
 2685 0662 E914D7CF 		.ascii	"\351\024\327\317\261#z\216S\351\034W+\202y\207h\\5\306"
ARM GAS  /tmp/cc7A5JCV.s 			page 82


 2685      B1237A8E 
 2685      53E91C57 
 2685      2B827987 
 2685      685C35C6 
 2686 0676 26049435 		.ascii	"&\004\2245/)\264D\254\370+-\370\035N\302\257\263\342"
 2686      2F29B444 
 2686      ACF82B2D 
 2686      F81D4EC2 
 2686      AFB3E2
 2687 0689 D325A4C2 		.ascii	"\323%\244\302.\\\212\223\256\322\345\221\231H\327\313"
 2687      2E5C8A93 
 2687      AED2E591 
 2687      9948D7CB 
 2688 0699 F1E00D51 		.ascii	"\361\340\015Q\216\237\033\367\306%cp\301\014}\004E\213"
 2688      8E9F1BF7 
 2688      C6256370 
 2688      C10C7D04 
 2688      458B
 2689 06ab 957A32F1 		.ascii	"\225z2\361\236\006\254B=\202\304\223\324r\327\015\271"
 2689      9E06AC42 
 2689      3D82C493 
 2689      D472D70D 
 2689      B9
 2690 06bc 4B9C1747 		.ascii	"K\234\027Gl\001;cZp\243\"Z\260\224\346\210\362\000\014"
 2690      6C013B63 
 2690      5A70A322 
 2690      5AB094E6 
 2690      88F2000C 
 2691 06d0 0ECDB210 		.ascii	"\016\315\262\020\321\243\300\270)1Z\"\213\255\273\356"
 2691      D1A3C0B8 
 2691      29315A22 
 2691      8BADBBEE 
 2692 06e0 41784BD1 		.ascii	"AxK\321\233|\242L1\356\232\206\262\267\177\310\304\035"
 2692      9B7CA24C 
 2692      31EE9A86 
 2692      B2B77FC8 
 2692      C41D
 2693 06f2 BEB80DB5 		.ascii	"\276\270\015\265!\332!.\356\245\321\332\363\364\276"
 2693      21DA212E 
 2693      EEA5D1DA 
 2693      F3F4BE
 2694 0701 3443BE5E 		.ascii	"4C\276^\332FQ\205\250?\316\001\272\346\232(\310\270"
 2694      DA465185 
 2694      A83FCE01 
 2694      BAE69A28 
 2694      C8B8
 2695 0713 D9A3B5E9 		.ascii	"\331\243\265\351fA6\374\232n9\24423\371`\221\376 E\""
 2695      664136FC 
 2695      9A6E39A4 
 2695      3233F960 
 2695      91FE2045 
 2696 0728 7AE4257E 		.ascii	"z\344%~2\346k\243\363<\350\227}\017]\366\275\262${\033"
 2696      32E66BA3 
 2696      F33CE897 
 2696      7D0F5DF6 
 2696      BDB2247B 
 2697 073d 1BE5053B 		.ascii	"\033\345\005;\372i\370;z\031/\274Ro-\325?\007\316O\341"
ARM GAS  /tmp/cc7A5JCV.s 			page 83


 2697      FA69F83B 
 2697      7A192FBC 
 2697      526F2DD5 
 2697      3F07CE4F 
 2698 0752 E7409FDC 		.ascii	"\347@\237\334x#\3729\320\257\177\0160\353\347\300G\321"
 2698      7823FA39 
 2698      D0AF7F0E 
 2698      30EBE7C0 
 2698      47D1
 2699 0764 CF8123D6 		.ascii	"\317\201#\326\317\001\375\342\337\243\260\005\267\375"
 2699      CF01FDE2 
 2699      DFA3B005 
 2699      B7FD
 2700 0772 34DDF6F8 		.ascii	"4\335\366\370\237\020\233\241\332\371\343\331\347(j"
 2700      9F109BA1 
 2700      DAF9E3D9 
 2700      E7286A
 2701 0781 FA557390 		.ascii	"\372Us\220\221\224\364\321\364{\256\374B\257\307U\260"
 2701      9194F4D1 
 2701      F47BAEFC 
 2701      42AFC755 
 2701      B0
 2702 0792 D15B545C 		.ascii	"\321[T\\\340\317\177\245\300\227\357\361\373\267\271"
 2702      E0CF7FA5 
 2702      C097EFF1 
 2702      FBB7B9
 2703 07a1 B27F9E5B 		.ascii	"\262\177\236[\264\321\355qy\275\356'\327?\361\324\006"
 2703      B4D1ED71 
 2703      79BDEE27 
 2703      D73FF1D4 
 2703      06
 2704 07b2 BFC7E75F 		.ascii	"\277\307\347_\307\036\311te\347\027l*\370e\356\206u"
 2704      C71EC974 
 2704      65E7176C 
 2704      2AF865EE 
 2704      8675
 2705 07c4 59994F66 		.ascii	"Y\231Off\271\012}\256b\277\313"
 2705      66B90A7D 
 2705      AE62BFCB 
 2706 07d0 57EC76B9 		.ascii	"W\354v\271\363\275\376\255\231n\246x\213R\364q\346:"
 2706      F3BDFEAD 
 2706      996EA678 
 2706      8B52F471 
 2706      E63A
 2707 07e2 CFE627D6 		.ascii	"\317\346'\326?\273i\035\343/y\213\270\333_\364\330\377"
 2707      3FBB691D 
 2707      E32F798B 
 2707      B8DB5FF4 
 2707      D8FF
 2708 07f4 7050B0C5 		.ascii	"pP\260\305\375\322\313\233=\350\304\267\315\227\231"
 2708      FDD2CB9B 
 2708      3DE8C4B7 
 2708      CD9799
 2709 0803 CFB44D1B 		.ascii	"\317\264M\033}\236\027\212\013~v?{w\241\327[\270\305"
 2709      7D9E178A 
 2709      0B7E763F 
 2709      7B77A1D7 
ARM GAS  /tmp/cc7A5JCV.s 			page 84


 2709      5BB8C5
 2710 0816 E5D9EA77 		.ascii	"\345\331\352w\375\364\305\034WvN\356\363\271\256\354"
 2710      FDF4C51C 
 2710      57764EEE 
 2710      F3B9AEEC 
 2711 0826 C2628FEB 		.ascii	"\302b\217\353y\303\215\327W\340\333\360\033\267\033"
 2711      79C38DD7 
 2711      57E0DBF0 
 2711      1BB71B
 2712 0835 5D7DFF01 		.ascii	"]}\377\001.\212\012\213\375>r\222\235\263\025\261\335"
 2712      2E8A0A8B 
 2712      FD3E7292 
 2712      9DB315B1 
 2712      DD
 2713 0846 E863C32B 		.ascii	"\350c\303+O{q\3277\023\245\010\363\031\367\377\266\350"
 2713      4F7B71D7 
 2713      3713A508 
 2713      F319F7FF 
 2713      B6E8
 2714 0858 F16F0ECA 		.ascii	"\361o\016\312\235\277\031\215\025\177\221\266\305\363"
 2714      9DBF198D 
 2714      157F91B6 
 2714      C5F3
 2715 0866 3B54BA30 		.ascii	";T\27209'\367\305\014\012\022'k3\326d1\245\230i^\217"
 2715      3927F7C5 
 2715      0C0A1227 
 2715      6B33D664 
 2715      31A59869 
 2716 087c B7B0781B 		.ascii	"\267\260x\033\373/o\340ZH"
 2716      FB2F6FE0 
 2716      5A48
 2717              		.text
 2718              		.section	.gnu.lto_chMtxUnlockS.319.7f87b3e556a28f3e,"e",%progbits
 2719 0000 789C9555 		.ascii	"x\234\225UkLTG\024\236s\347\356\336\205\205\225G\025"
 2719      6B4C5447 
 2719      149E73E7 
 2719      EEDE8585 
 2719      954715
 2720 0013 0463A84D 		.ascii	"\004c\250M\325&-\213hZM\323Gb\177\364_\177\264\011?"
 2720      D5262D8B 
 2720      685A4DD3 
 2720      47627FF4 
 2720      5F7FB409 
 2721 0028 9AD42892 		.ascii	"\232\324(\222@\342*\205\265\217\037\215W\036jP\013\213"
 2721      40E22A85 
 2721      B58F1F8D 
 2721      571E6A50 
 2721      0B8B
 2722 003a 8A42D5DA 		.ascii	"\212B\325\332\015\266\230\3066\206>\020A\261TP+\012"
 2722      0DB698C6 
 2722      36863E10 
 2722      41B15450 
 2722      2B0A
 2723 004c 584045D0 		.ascii	"X@E\320b\213@\015\202\217\012\210\332sf\356\335\275"
 2723      628B400D 
 2723      828F0A88 
 2723      DA7366EE 
ARM GAS  /tmp/cc7A5JCV.s 			page 85


 2723      DDBD
 2724 005e 80B59184 		.ascii	"\200\265\221\204\331\231\271\347\234\357\234\357<\246"
 2724      D999B9E7 
 2724      9CEF9CEF 
 2724      3CA6
 2725 006c C7C95833 		.ascii	"\307\311X3c\254\032\377\301\311\240\330W\2400]\327\337"
 2725      63AC1AFF 
 2725      C1C9A0D8 
 2725      57A0305D 
 2725      D7DF
 2726 007e D41425D7 		.ascii	"\324\024%\327\267Y\201Z(\253\354}Q--\352\201\3363\245"
 2726      B759815A 
 2726      28ABEC7D 
 2726      512D2DEA 
 2726      81DE33A5 
 2727 0092 D12A879D 		.ascii	"\321*\207\235\276\202\306\233\325*\234\003!\247*\371"
 2727      BE82C69B 
 2727      D52A9C03 
 2727      21A72AF9 
 2728 00a2 3EA790D9 		.ascii	">\247\220\331\340s\011\021\033\224\370B\3057;\354<d"
 2728      E0730911 
 2728      1B94F842 
 2728      C5373BEC 
 2728      3C64
 2729 00b4 DAD3943C 		.ascii	"\332\323\224<\262w\016Z\207\306\026\253\273\320\336"
 2729      B2770E5A 
 2729      87C616AB 
 2729      BBD0DE
 2730 00c3 7785F99A 		.ascii	"w\205\371\232\352\200\262b\377\263\010#\204B\304I*\204"
 2730      EA80B262 
 2730      FFB30823 
 2730      8442C449 
 2730      2A84
 2731 00d5 C27A44BA 		.ascii	"\302zD\272?\307\374\006l\235\302U\233]s\204\204\302"
 2731      3FC7FC06 
 2731      6C9DC255 
 2731      9B5D7384 
 2731      84C2
 2732 00e7 3A4563C1 		.ascii	":Ec\301\277m\374\005\024\031\311/\253n\002\275\242\016"
 2732      BF6DFC05 
 2732      1419C92F 
 2732      AB6E02BD 
 2732      A20E
 2733 00f9 CA39637B 		.ascii	"\3129c{\271\361q7\207b^\316\001Tc\247@\002\356\370{"
 2733      B9F17137 
 2733      87625ECE 
 2733      015463A7 
 2733      4002EEF8 
 2734 010e 6C5E9DAE 		.ascii	"l^\235\2567\327T\351z\010+\347\034~\006\324\201\237"
 2734      37D754E9 
 2734      7A082BE7 
 2734      1C7E06D4 
 2734      819F
 2735 0120 007E0446 		.ascii	"\000~\004F\027)7\303\2056\317\240\365y\024\036\252\331"
 2735      172937C3 
 2735      8536CFA0 
 2735      F579141E 
ARM GAS  /tmp/cc7A5JCV.s 			page 86


 2735      AAD9
 2736 0132 BAD155B4 		.ascii	"\272\321U\264\336A\322\207\255\322\214\245lr\221\250"
 2736      DE41D287 
 2736      ADD28CA5 
 2736      6C7291A8 
 2737 0142 27207AE4 		.ascii	"' z\344\240!\252\302\221I\242\367\303\355\014j\000\252"
 2737      A021AAC2 
 2737      9149A2F7 
 2737      C3ED0C6A 
 2737      00AA
 2738 0154 417AC951 		.ascii	"Az\311Q\307N\036\003\034\005f\036\0248&\016\344\345"
 2738      C74E1E03 
 2738      1C05661E 
 2738      1438260E 
 2738      E4E5
 2739 0166 48EBC64D 		.ascii	"H\353\306M\373\343v\353u\252\351\250b\330\003\212\226"
 2739      FBE376EB 
 2739      75AAE9A8 
 2739      62D8038A 
 2739      96
 2740 0177 A79C8934 		.ascii	"\247\234\2114pG\232[\376\336\242\351'uurH()\331\260"
 2740      70479A5B 
 2740      FEDEA2E9 
 2740      27757572 
 2740      482829D9 
 2741 018c 1357774A 		.ascii	"\023WwJ8\034\307\313Z\262e`\302/``\362\322 \364X\301"
 2741      381CC7CB 
 2741      5AB26560 
 2741      C22F6060 
 2741      F2D220F4 
 2742 01a2 8D43F31B 		.ascii	"\215C\363\033s\365\267\313\271\015~\005\362\3220x\002"
 2742      73F5B7CB 
 2742      B90D7E05 
 2742      F2D23078 
 2742      02
 2743 01b3 A16D299B 		.ascii	"\241m)\233\243Mht2\337\211N\346%\230\242,(\032\304\256"
 2743      A34D6874 
 2743      32DF894E 
 2743      E62598A2 
 2743      2C281AC4 
 2744 01c8 6AF07368 		.ascii	"j\360sh\300\313z2\306\010\270\321\214\2347\200\311 "
 2744      C0CB7A32 
 2744      C608B8D1 
 2744      8C9C3780 
 2744      C920
 2745 01da 021FAB5C 		.ascii	"\002\037\253\\t<W\306\242\302)\224\346\246\275\323h"
 2745      743C57C6 
 2745      A2C22994 
 2745      E6A6BDD3 
 2745      68
 2746 01eb 2FE58728 		.ascii	"/\345\207(\3417\035\350\323o\322\302\251\240\205\346"
 2746      E1371DE8 
 2746      D36FD2C2 
 2746      A9A085E6 
 2747 01fb E1C1D70D 		.ascii	"\341\301\327\015\177\354pfR\026\276u\231\251\0328X`"
 2747      7FEC7066 
 2747      5216BE75 
ARM GAS  /tmp/cc7A5JCV.s 			page 87


 2747      99A91A38 
 2747      5860
 2748 020d A6EAD424 		.ascii	"\246\352\324$\241/]\022\342,@\223`\213\245\354u\005"
 2748      A12F5D12 
 2748      E22C4093 
 2748      608BA5EC 
 2748      7505
 2749 021f 99395A99 		.ascii	"\2319Z\231$\231\321D\270\001\367\232\221\031-\345\233"
 2749      2499D144 
 2749      B801F79A 
 2749      91192DE5 
 2749      9B
 2750 0230 A8C72445 		.ascii	"\250\307$E\233HL\263\225\230\263\215\034Z\360\362\034"
 2750      9B484CB3 
 2750      9598B38D 
 2750      1C5AF0F2 
 2750      1C
 2751 0241 D97A120F 		.ascii	"\331z\022\017\314\312\0032\010\347q\337\012\006\005"
 2751      CCCA0332 
 2751      08E771DF 
 2751      0A0605
 2752 0250 4F510755 		.ascii	"OQ\007U\017\3339\264\031\220\201:h7\353\340\251\323"
 2752      0FDB39B4 
 2752      1990813A 
 2752      6837EBE0 
 2752      A9D3
 2753 0262 7A012F3B 		.ascii	"z\001/;\002i\275(\322\2122\\\226;r\370}\253\255N\037"
 2753      0269BD28 
 2753      D28A325C 
 2753      963B72F8 
 2753      7DABAD4E 
 2754 0277 7F54A8D7 		.ascii	"\177T\250\327m\014\257\336Z\334x_\231\2550\274\347\264"
 2754      6D0CAFDE 
 2754      5ADC785F 
 2754      99AD30BC 
 2754      E7B4
 2755 0289 A80C856C 		.ascii	"\250\014\205l\324{v\\\034\032-\016\\B\234\324/a\000"
 2755      D47B765C 
 2755      1C1A2D0E 
 2755      5C429CD4 
 2755      2F6100
 2756 029c 55E0C2A3 		.ascii	"U\340\302\243\032A\302\221\264\304\340Q\213%\265\231"
 2756      1A41C291 
 2756      B4C4E051 
 2756      8B25B599 
 2757 02ac B48BA3AF 		.ascii	"\264\213\243\257\361\2640V\310Y\357\361\352f\006z\035"
 2757      F1B43056 
 2757      C859EFF1 
 2757      EA66067A 
 2757      1D
 2758 02bd 63455C91 		.ascii	"cE\\\221\207\\<\014\200\336s\357\022\260A\310\251\351"
 2758      875C3C0C 
 2758      80DE73EF 
 2758      12B041C8 
 2758      A9E9
 2759 02cf 77F9B9D3 		.ascii	"w\371\271\323\030\014\241\"\346<Pp[\301E`_\003\032s"
 2759      180CA122 
ARM GAS  /tmp/cc7A5JCV.s 			page 88


 2759      E63C5070 
 2759      5BC14560 
 2759      5F031A73 
 2760 02e3 C265804E 		.ascii	"\302e\200N\3611\011\003\355\233^\316\303\240\013\366"
 2760      F1310903 
 2760      ED9B5ECE 
 2760      C3A00BF6 
 2761 02f3 50EFD285 		.ascii	"P\357\322\205\250\234n<\023\033\003\220\263\357U\364"
 2761      A89C6E3C 
 2761      131B0390 
 2761      B3EF55F4 
 2762 0303 16CD0AA0 		.ascii	"\026\315\012\240Q\004\242\337\007\227f\210\337G\362"
 2762      5104A2DF 
 2762      07976688 
 2762      DF47F2
 2763 0312 3C27B0F4 		.ascii	"<'\260\364\024\307O\272\330>\371\242\262S\231tS\023"
 2763      14C74FBA 
 2763      D83EF9A2 
 2763      B2539974 
 2763      5313
 2764 0324 2FBC3F10 		.ascii	"/\274?\020\343\3476\303{\016\322a\351P\270\037}\274"
 2764      E3E736C3 
 2764      7B0ED261 
 2764      E950B81F 
 2764      7DBC
 2765 0336 0AA67F1C 		.ascii	"\012\246\177\034\376@\377\024\364\017\325\206\012\332"
 2765      FE40FF14 
 2765      F40FD586 
 2765      0ADA
 2766 0344 1443490D 		.ascii	"\024CI\015*U\204\225s\"\003\256\005\264B\340O\324\302"
 2766      2A558495 
 2766      732203AE 
 2766      05B442E0 
 2766      4FD4C2
 2767 0357 301145C0 		.ascii	"0\021E\300\236\027\216\344$\340\350@\373tu{\177aQA\011"
 2767      9E178EE4 
 2767      24E0E840 
 2767      FB74757B 
 2767      7F615141 
 2768 036c E0E81002 		.ascii	"\340\350\020\002;N\343\276^\356KO\013\212\267\0274q"
 2768      3B4EE3BE 
 2768      5EEE4B4F 
 2768      0B8AB717 
 2768      3471
 2769 037e 3F8F31C9 		.ascii	"?\2171\3114\0353\310\254\230]\316\247A/\302\2504\177"
 2769      341D33C8 
 2769      AC985DCE 
 2769      A7412FC2 
 2769      A8347F
 2770 0391 F2C893BE 		.ascii	"\362\310\223\276Y\324&\327\015\243\210\326\200h1\002"
 2770      59D426D7 
 2770      0DA388D6 
 2770      80683102 
 2771 03a1 EDEE8E0B 		.ascii	"\355\356\216\013\327\256F\341\274\020\010]\327v\001"
 2771      D7AE46E1 
 2771      BC10085D 
 2771      D77601
ARM GAS  /tmp/cc7A5JCV.s 			page 89


 2772 03b0 9C94893C 		.ascii	"\234\224\211<0\303\317]FT6\010\344.\202\340\3721\242"
 2772      30C3CF5D 
 2772      46543608 
 2772      E42E82E0 
 2772      FA31A2
 2773 03c3 3C115124 		.ascii	"<\021Q$\014 \224\215I\0139C\373\013w\025l%\217i \211"
 2773      0C20948D 
 2773      490B3943 
 2773      FB0B7715 
 2773      6C258F69 
 2774 03d9 9BAFB675 		.ascii	"\233\257\266u\375\345\300F\247\351\310\372!\257\277"
 2774      FDE5C046 
 2774      A7E9C8FA 
 2774      21AFBF
 2775 03e8 7E859F78 		.ascii	"~\205\237x\211\021\217I\021\347\203c\025\213\003e\324"
 2775      89118F49 
 2775      11E78363 
 2775      158B0365 
 2775      D4
 2776 03f9 D6E9C4D6 		.ascii	"\326\351\304\326\021\333\3132%\375\323\374<\"\300\351"
 2776      11DBCB32 
 2776      25FDD3FC 
 2776      3C22C0E9 
 2777 0409 EC299CDA 		.ascii	"\354)\234\332\341\006z`7*\345\015\254a\224\027\006\256"
 2777      E1067A60 
 2777      372AE50D 
 2777      AC619417 
 2777      06AE
 2778 041b 747271F7 		.ascii	"trq\367\012V\263I\370p'\027\250jQ~\007\016\007\023v"
 2778      0A56B349 
 2778      F8702717 
 2778      A86A517E 
 2778      070E0713 
 2779 0430 B4334C32 		.ascii	"\2643L2\323\206\222\2525\017\355\226<t<&\0173-yP\247"
 2779      D38692AA 
 2779      350FED96 
 2779      3C743C26 
 2779      0F332D79 
 2780 0446 E46150E6 		.ascii	"\344aP\346\241\335\232\207\233\206QD\273\200h3\255y"
 2780      A1DD9A87 
 2780      9B865144 
 2780      BB806833 
 2780      AD79
 2781 0458 B868C9C3 		.ascii	"\270h\311\303\245`\036\342,\354\253\023\330\037\226"
 2781      A5601EE2 
 2781      2CECAB13 
 2781      D81F96
 2782 0467 EC5F9CC0 		.ascii	"\354_\234\300~\007\320\334\220\354\327_\271\353@Fi&"
 2782      7E07D0DC 
 2782      90ECD75F 
 2782      B9EB4046 
 2782      6926
 2783 0479 49F6B310 		.ascii	"I\366\263\020\022-\032\354\333\372\376\031?\252\020"
 2783      122D1AEC 
 2783      DBFAFE19 
 2783      3FAA10
 2784 0488 0F4060A3 		.ascii	"\017@`\243\017\3335?\267[\352\036\331\216\233\300\366"
ARM GAS  /tmp/cc7A5JCV.s 			page 90


 2784      0FDB353F 
 2784      B75BEA1E 
 2784      D98E9BC0 
 2784      F6
 2785 0499 6D44D444 		.ascii	"mD\324D\335\347\336\331\240`%\223\202\237KZ\355>\013"
 2785      DDE7DED9 
 2785      A0602593 
 2785      829F4B5A 
 2785      ED3E0B
 2786 04ac AD8AC885 		.ascii	"\255\212\310\205\350\264\036_\367\026\240\304\232#\""
 2786      E8B41E5F 
 2786      F716A0C4 
 2786      9A2322
 2787 04bb 3690D1E9 		.ascii	"6\220\321\351A\352\002\275u\327\350-\331\373\224\275"
 2787      41EA02BD 
 2787      75D7E82D 
 2787      D9FB94BD 
 2788 04cb 58C6C640 		.ascii	"X\306\306@A\030U%H\033\201i(\256\253\023\300\270\330"
 2788      41185525 
 2788      481B8169 
 2788      28AEAB13 
 2788      C0B8D8
 2789 04de 559B49EC 		.ascii	"U\233I\354\031z\237@)\356\245\006\006#C*\226\003\177"
 2789      197A9F40 
 2789      29EEA506 
 2789      0623432A 
 2789      96037F
 2790 04f1 D8E541BB 		.ascii	"\330\345A\273\366\317\207\327\216\001&2\202\017v}\206"
 2790      F6CF87D7 
 2790      8E012632 
 2790      820F767D 
 2790      86
 2791 0502 EEDA55B2 		.ascii	"\356\332U\262\355\030\262V\345\027\335N\303\371\222"
 2791      ED18B256 
 2791      E517DD4E 
 2791      C3F992
 2792 0511 FE67029E 		.ascii	"\376g\002\236\207?\246\026\357Iv\374<R(\036\356\226"
 2792      873FA616 
 2792      EF4976FC 
 2792      3C52281E 
 2792      EE96
 2793 0523 25B8049F 		.ascii	"%\270\004\237\241`\313\215\367\236\214\306\327E\216"
 2793      A160CB8D 
 2793      F79E8CC6 
 2793      D7458E
 2794 0532 AF5E4CF5 		.ascii	"\257^L\365\357`\204z\036\245\\\342~\333\365X\231\376"
 2794      EF60847A 
 2794      1EA55CE2 
 2794      7EDBF558 
 2794      99FE
 2795 0544 B97E1E6F 		.ascii	"\271~\036o\246\037\341\\\004g\016NQc\243\010\351\240"
 2795      A61FE15C 
 2795      04670E4E 
 2795      5163A308 
 2795      E9A0
 2796 0556 D74A94DD 		.ascii	"\327J\224\335\\\232Ac\262*ZAN\247&n\364\261\026\354"
 2796      5C9A4163 
ARM GAS  /tmp/cc7A5JCV.s 			page 91


 2796      B22A5A41 
 2796      4EA7266E 
 2796      F4B116EC 
 2797 056a E369D4C7 		.ascii	"\343i\324\307\343\322\363\0121\270\036\230J\010(k^\272"
 2797      E3D2F30A 
 2797      31B81E98 
 2797      4A08286B 
 2797      5EBA
 2798 057c 50D63FCB 		.ascii	"P\326?\313\202\037o\301\257p\021\376#+>\315r\025te\017"
 2798      821F6FC1 
 2798      AF7011FE 
 2798      232B3ECD 
 2798      72157465 
 2799 0591 0F91A662 		.ascii	"\017\221\246bd\313\240)Y\216\267\207E9\266\310\372L"
 2799      64CBA029 
 2799      598EB787 
 2799      4539B6C8 
 2799      FA4C
 2800 05a3 A087566E 		.ascii	"\240\207Vn\316\006B?\202\244M\244\272/l\312\000V!\007"
 2800      CE06423F 
 2800      82A44DA4 
 2800      BA2F6CCA 
 2800      00562107 
 2801 05b7 4142896A 		.ascii	"AB\211j\251U+\265D\2778&\026\260k\302\010\316S\304\010"
 2801      A9552BB5 
 2801      44BF3826 
 2801      16B06BC2 
 2801      08CE53C4 
 2802 05cc 96D49C50 		.ascii	"\226\324\234P\236\200\301a\203\"\012\021-\012\214c\022"
 2802      9E80C161 
 2802      83220A11 
 2802      2D0A8C63 
 2802      12
 2803 05dd A3AC7FBA 		.ascii	"\243\254\177\272Uk\012\302&\305\030\362b\242\367\264"
 2803      556B0AC2 
 2803      26C518F2 
 2803      62A2F7B4 
 2804 05ed A0D610E4 		.ascii	"\240\326\020\344\355{\215\211\2470j/\275\246\250S\316"
 2804      ED7B8D89 
 2804      A7306A2F 
 2804      BDA6A853 
 2804      CE
 2805 05fe A3A91823 		.ascii	"\243\251\030#\261l5Qt!#\015\276\330@\321u`\321\325\212"
 2805      B16C3551 
 2805      7421230D 
 2805      BED840D1 
 2805      7560D1D5 
 2806 0613 0CDEEA7B 		.ascii	"\014\336\352{2\023\233%\023\344\003\231\011\355\013"
 2806      32139B25 
 2806      13E40399 
 2806      09ED0B
 2807 0622 BCCCB720 		.ascii	"\274\314\267 \347\352\360\007\242\327\0139\310\373\234"
 2807      E7EAF007 
 2807      A2D70B39 
 2807      C8FB9C
 2808 0631 3A3ABEE4 		.ascii	"::\276\344N_\343Isg,\367dfex\323?\312\310NO\363z?u/"
 2808      4E5FE349 
ARM GAS  /tmp/cc7A5JCV.s 			page 92


 2808      73672CF7 
 2808      64666578 
 2808      D33FCAC8 
 2809 064c 7DEBDDCC 		.ascii	"}\353\335\314\345\251in\217'u\341\242\005//\363\246"
 2809      E5A9696E 
 2809      8F2775E1 
 2809      A2052F2F 
 2809      F3A6
 2810 065e 657B93D9 		.ascii	"e{\223\331s\211\356\245\351\031+2\336ywYrR\342\302\304"
 2810      7389EEA5 
 2810      E9192B32 
 2810      DE797759 
 2810      7252E2C2 
 2811 0673 24F79A6C 		.ascii	"$\367\232lw\226\327\235\235\225\352NM\367x?ILe\212'"
 2811      7796D79D 
 2811      9D95EA4E 
 2811      4DF7783F 
 2811      494C658A 
 2812 0688 33D2D827 		.ascii	"3\322\330'&\247\255\\\260h\311\212d\306Wy2y\2527s\336"
 2812      26A7AD5C 
 2812      B068C98A 
 2812      64C65779 
 2812      3279AA37 
 2813 069e 7F18C858 		.ascii	"\177\030\310X\235\272j\355\3124\303H:\343\336\0173\347"
 2813      9DBA6AED 
 2813      CA34C348 
 2813      3AE3DE0F 
 2813      33E7
 2814 06b0 FFAF6C76 		.ascii	"\377\257lvj\372J\024V\274\231\332\352\264\2171\2005"
 2814      6AFA4A14 
 2814      56BC99DA 
 2814      EAB48F31 
 2814      8035
 2815 06c2 FF0257A7 		.ascii	"\377\002W\2479\013"
 2815      390B
 2816              		.text
 2817              		.section	.gnu.lto_chMtxUnlockAllS.320.7f87b3e556a28f3e,"e",%progbits
 2818 0000 789C8555 		.ascii	"x\234\205UmlSU\030>\357=\267_+\253\266sj\014\032\242"
 2818      6D6C5355 
 2818      183EEF3D 
 2818      B75F2BAB 
 2818      B6736A0C 
 2819 0016 11F087EB 		.ascii	"\021\360\207\353\030\304`\014\211\011\306\370\317D\374"
 2819      18C4600C 
 2819      8909C6F8 
 2819      CF44FC
 2820 0025 D13F6661 		.ascii	"\321?fa\335Lk\254\324\255\032\375\305e\353\202)\312"
 2820      DD4C6BAC 
 2820      D4AD1AFD 
 2820      C565EB82 
 2820      29CA
 2821 0037 DA4D6010 		.ascii	"\332M`\020Dh\252\226?\022\302\347\030\216\3621\366\305"
 2821      4468AA96 
 2821      3F12C2E7 
 2821      188EF231 
 2821      F6C5
 2822 0049 ECDC5898 		.ascii	"\354\334X\230,0d\002+AR\207\2049\207\363}\317\271\267"
ARM GAS  /tmp/cc7A5JCV.s 			page 93


 2822      2C306402 
 2822      2B415287 
 2822      843987F3 
 2822      7DCFB9B7 
 2823 005d EDF872C9 		.ascii	"\355\370r\311\356\316=\367}\337\347y\237\3679g\337Z"
 2823      EECE3DF7 
 2823      7DDFE779 
 2823      9FF73967 
 2823      DF5A
 2824 006f 193BC518 		.ascii	"\031;\305\030k\306_(b\320\034\213(L\323\264\327-\012"
 2824      6BC65F28 
 2824      62D01C8B 
 2824      284CD3B4 
 2824      D72D0A
 2825 0082 6C6D8EFF 		.ascii	"lm\216\377y~\317\233\320\006b\203+\341\330\006\005:"
 2825      797ECF9B 
 2825      D0066283 
 2825      2BE1D806 
 2825      053A
 2826 0094 A06FD7F6 		.ascii	"\240o\327\366\347\325\306\230\343\300\305\361gU\025"
 2826      E7D5C698 
 2826      E3C0C5F1 
 2826      675515
 2827 00a3 B6C48AC4 		.ascii	"\266\304\212\304w\023\256\214d\013&\233\305\312\246"
 2827      7713AE8C 
 2827      640B269B 
 2827      C5CAA6
 2828 00b2 3450561B 		.ascii	"4PV\033\014f\247\227\253\255\321\313\360cS\243E\265"
 2828      0C66A797 
 2828      ABADD1CB 
 2828      F06353A3 
 2828      45B5
 2829 00c4 C2BA5864 		.ascii	"\302\272XdvV\0211\300\326*\\5YlVX\253\330X\376\247\205"
 2829      76561131 
 2829      C0D62A5C 
 2829      35596C56 
 2829      58ABD858 
 2830 00db BF840153 		.ascii	"\277\204\001S\215\333\322i\320\222)Hp\306v\360\334\347"
 2830      8DDBD269 
 2830      D0922948 
 2830      70C676F0 
 2830      DCE7
 2831 00ed ED1C9A79 		.ascii	"\355\034\232y\202\003\250\372J\201\005\270\342\357\322"
 2831      8203A8FA 
 2831      4A8105B8 
 2831      E2EFD2
 2832 00fc 9717539A 		.ascii	"\227\027S\232\226\035\331\263\336\021]gMp\016\207\000"
 2832      961DD9B3 
 2832      DE115D67 
 2832      4D700E87 
 2832      00
 2833 010d 33E120C0 		.ascii	"3\341 \300\001\240\\\317\341b3\203\303 \353)\230`\246"
 2833      01A05CCF 
 2833      E1623383 
 2833      C320EB29 
 2833      9860A6
 2834 0120 DA004780 		.ascii	"\332\000G\200\031/\012\264\213\027\376A\256\340hZ/\250"
ARM GAS  /tmp/cc7A5JCV.s 			page 94


 2834      192F0AB4 
 2834      8B17FE41 
 2834      AEE0685A 
 2834      2FA8
 2835 0132 C2D17B0A 		.ascii	"\302\321{\012\236.\026y\360\0230l\227y:\351}\021&M\035"
 2835      9E2E1679 
 2835      F013306C 
 2835      97793AE9 
 2835      7D11264D 
 2836 0147 59FFC577 		.ascii	"Y\377\305w\317l\327R\252\221\246\350ip\014[R=g\234z"
 2836      CF6CD752 
 2836      AA91A6E8 
 2836      69700C5B 
 2836      523D679C 
 2837 015c F9A981BF 		.ascii	"\371\251\201\277g\276\264h\335\232z/\000F\312\206I\325"
 2837      67BEB468 
 2837      DD9A7A2F 
 2837      0046CA86 
 2837      49D5
 2838 016e A99B5B38 		.ascii	"\251\233[8\244p\263\203j\351t\3418\030t7\211?\002z2"
 2838      A470B383 
 2838      6AE974E1 
 2838      38187437 
 2838      893F027A 
 2839 0183 7263EFE2 		.ascii	"rc\357\342\256\006\355\255\0047\301I\240\006\365\202"
 2839      AE06EDAD 
 2839      0437C149 
 2839      A006F582 
 2840 0193 A710DAE4 		.ascii	"\247\020\332\344\331Pb@#\311F;\222\014/0BY>4\217}\370"
 2840      D9506240 
 2840      23C9463B 
 2840      920C2F30 
 2840      42593E34 
 2841 01aa 749C4327 		.ascii	"t\234C'n\236\240b\214\200O\033\242\361\023`\010\205"
 2841      6E9EA062 
 2841      8C804F1B 
 2841      A2F11360 
 2841      0885
 2842 01bc C0C7F62D 		.ascii	"\300\307\366-;\336 {\341\320\215\321\334\250\327\203"
 2842      3BDE207B 
 2842      E1D08DD1 
 2842      DCA8D783 
 2843 01cc F53CFB5D 		.ascii	"\365<\373]R\256\036\032\001\207\336|\352@\317\277\357"
 2843      52AE1E1A 
 2843      0187DE7C 
 2843      EA40CFBF 
 2843      EF
 2844 01dd E8446462 		.ascii	"\350Ddb\241\312C\272\312}\242}\346\031,\316\267\332"
 2844      A1CA43BA 
 2844      CA7DA27D 
 2844      E6192CCE 
 2844      B7DA
 2845 01ef B1AF5CB6 		.ascii	"\261\257\\\266j\026\374sx\375\330\252\331\363\203\353"
 2845      6A16FC73 
 2845      78FDD8AA 
 2845      D9F383EB 
 2846 01ff 012A9BE7 		.ascii	"\001*\233\347v\332_\250\362_\327L\3603n\236\241Z\217"
ARM GAS  /tmp/cc7A5JCV.s 			page 95


 2846      76DA5FA8 
 2846      F25FD74C 
 2846      F0336E9E 
 2846      A15A8F
 2847 0212 6A8C1536 		.ascii	"j\214\0256\206\222\300\000\256\323@=\341\006\240\313"
 2847      8692C000 
 2847      AED3403D 
 2847      E106A0CB 
 2848 0222 F60C9A52 		.ascii	"\366\014\232R\332\314l\223\226Z_\234njB\343\227\002"
 2848      DACC6C93 
 2848      965A5F9C 
 2848      6E6A42E3 
 2848      9702
 2849 0234 C3192BF8 		.ascii	"\303\031+\370\260pz\250\370\260Z\310\221v\\\231\235"
 2849      B0707AA8 
 2849      F8B05AC8 
 2849      91765C99 
 2849      9D
 2850 0245 F8E02E7A 		.ascii	"\370\340.z0\326\304Yv:\271\034\264\024cQ\256\210u\003"
 2850      30D6C459 
 2850      763AB91C 
 2850      B4146351 
 2850      AE887503 
 2851 0259 AEAF8376 		.ascii	"\256\257\203vy\357\030\260\233P\1774\343\210s\213~\012"
 2851      79EF18B0 
 2851      9B507F34 
 2851      E388738B 
 2851      7E0A
 2852 026b 6C42CA30 		.ascii	"lB\3120(\270Lr\321\317\367\204V\004C\000\203\342c9\366"
 2852      28B84C72 
 2852      D1CFF784 
 2852      56044300 
 2852      83E26339 
 2853 0280 37519AE0 		.ascii	"7Q\232\340v8\013\337\320\001\240\015qL\206\361\235\272"
 2853      76380BDF 
 2853      D001A00D 
 2853      714C86F1 
 2853      9DBA
 2854 0292 B80EF53B 		.ascii	"\270\016\365;_C6XV\000\035\030\243\335(\347\261\306"
 2854      5F433658 
 2854      56001D18 
 2854      A3DD28E7 
 2854      B1C6
 2855 02a4 735D3C87 		.ascii	"s]<\207\177h\254\210\306@\321+\320\371q\344K\333mc\212"
 2855      7F68AC88 
 2855      C640D12B 
 2855      D0F971E4 
 2855      4BDB6D63 
 2856 02b9 A0B5FB29 		.ascii	"\240\265\373)t\213NK\005\311D\"\315\303P8\007\006\260"
 2856      748B4E4B 
 2856      05C94422 
 2856      CDC35038 
 2856      0706B0
 2857 02cc 0A2308AC 		.ascii	"\012#\010\254 \004\246e#\303\212\236\304\363I\311y\011"
 2857      2004A665 
 2857      23C38A9E 
 2857      C4F349C9 
ARM GAS  /tmp/cc7A5JCV.s 			page 96


 2857      7909
 2858 02de 5E8C74E0 		.ascii	"^\214t\340|.\313\002\243\230\205\374\021E\340\266#."
 2858      7C2ECB02 
 2858      A39885FC 
 2858      1145E0B6 
 2858      232E
 2859 02f0 725980A7 		.ascii	"rY\200\247C\247r\353\366\306hd3\340\351\020\001\233"
 2859      43A772EB 
 2859      F6C66864 
 2859      33E0E910 
 2859      019B
 2860 0302 7A717D42 		.ascii	"zq}B\256\267\366\012\355\276\216\364\3638\267\033*\031"
 2860      AEB7F60A 
 2860      EDBE8EF4 
 2860      F338B71B 
 2860      2A19
 2861 0314 C4749592 		.ascii	"\304t\225\222\317%\270\003. \214JG,LL&\346\223q.\352"
 2861      CF25B803 
 2861      2E208C4A 
 2861      472C4C4C 
 2861      26E69371 
 2862 032a 4511AD13 		.ascii	"E\021\255\023\321\354\002\355\312\246\221\361K.<\022"
 2862      D1EC02ED 
 2862      CAA691F1 
 2862      4B2E3C12 
 2863 033a 02E1C278 		.ascii	"\002\341\302x+@\227\234\320\356'\343\334\251we\202\334"
 2863      2B40979C 
 2863      D0EE27E3 
 2863      DCA97765 
 2863      82DC
 2864 034c 501E23B8 		.ascii	"P\036#\270K\330QXt\3648\374\206P&&+\324gool\215|E\214"
 2864      4BD85158 
 2864      74F438FC 
 2864      86502626 
 2864      2BD4676F 
 2865 0366 E9CC899D 		.ascii	"\351\314\211\235]C\377\\\261\242\346t\001\260\014\204"
 2865      5D43FF5C 
 2865      B1A2E674 
 2865      01B00C84 
 2866 0376 3327AB10 		.ascii	"3'\253\020\034k\213+1\312\325\251\366\241[\220\033\320"
 2866      1C6B8B2B 
 2866      31CAD5A9 
 2866      F6A15B90 
 2866      1BD0
 2867 0388 D0981D0D 		.ascii	"\320\230\035\015,\006\364\036\2729\317s\346jw\011\232"
 2867      2C06F41E 
 2867      BA39CF73 
 2867      E66A7709 
 2867      9A
 2868 0399 5404CD5E 		.ascii	"T\004\315^E\236\277\200>\364\001\240j\264\337r\355i"
 2868      459EBF80 
 2868      3EF401A0 
 2868      6AB4DF72 
 2868      ED69
 2869 03ab C97D619C 		.ascii	"\311}a\234\273\014\3068\003'\315\300\260\221\020h\034"
 2869      BB0CC638 
 2869      0327CDC0 
ARM GAS  /tmp/cc7A5JCV.s 			page 97


 2869      B0911068 
 2869      1C
 2870 03bc 599BC9F4 		.ascii	"Y\233\311\364B\263\2054\270\337e#i\220#\355\347z\363"
 2870      42B38534 
 2870      B8DF6523 
 2870      699023ED 
 2870      E77AF3
 2871 03cf E67CF30E 		.ascii	"\346|\363\016j\376\252\034gRL\373\232\221\204\200r`"
 2871      6AFEAA1C 
 2871      67524CFB 
 2871      9A918480 
 2871      7260
 2872 03e1 92C2B6CC 		.ascii	"\222\302\266\314\374\002|W\001~\322A\370\231B|r6\207"
 2872      FC027C57 
 2872      017ED241 
 2872      F899427C 
 2872      723687
 2873 03f4 EBB86591 		.ascii	"\353\270e\221\245\354r\336XJ(\330r\267\315\206\242\320"
 2873      A5EC72DE 
 2873      584A28D8 
 2873      72B7CD86 
 2873      A2D0
 2874 0406 E196F31B 		.ascii	"\341\226\363\0330\026}\271\326\207\3078\341n\316<a\370"
 2874      30167DB9 
 2874      D687C738 
 2874      E16ECE3C 
 2874      61F8
 2875 0418 6F62DE7D 		.ascii	"ob\336}\256\345p\003A\254\344?\231uNf\211a+\005n74\313"
 2875      AEE57003 
 2875      41ACE43F 
 2875      99754E66 
 2875      89612B05 
 2876 0430 F9F6A6F4 		.ascii	"\371\366\246\364\255\224\246Sy\004\206\012Yy2\260\242"
 2876      AD94A653 
 2876      7904860A 
 2876      597932B0 
 2876      A2
 2877 0441 C0F8D560 		.ascii	"\300\370\325`VZ\230u\037\302\244q2\344\211\034\305\254"
 2877      565A9875 
 2877      1FC2A471 
 2877      32E4891C 
 2877      C5AC
 2878 0453 2C8477AE 		.ascii	",\204w\256`\342bp\356@?\023\355\004\352L\2661m\355i"
 2878      60E26270 
 2878      EE403F13 
 2878      ED04EA4C 
 2878      B6316DED 
 2879 0468 389BB7CD 		.ascii	"8\233\267\315\035\264M\207\230\334\344\304\243\025\270"
 2879      1DB44D87 
 2879      98DCE4C4 
 2879      A315B8
 2880 0477 2D15206C 		.ascii	"-\025 l\252c\221\367\303\272\224t\243\015\3034\025\244"
 2880      AA6391F7 
 2880      C3BA9474 
 2880      A30DC334 
 2880      15A4
 2881 0489 CDF657D2 		.ascii	"\315\366W\322?F\343\272\342s\365\231{\256\357\350\372"
ARM GAS  /tmp/cc7A5JCV.s 			page 98


 2881      3F46E3BA 
 2881      E273F599 
 2881      7BAEEFE8 
 2881      FA
 2882 049a 0883BF8F 		.ascii	"\010\203\277\217\301\344\034\0130\335\344\3269\227\340"
 2882      C1E41C0B 
 2882      30DDE4D6 
 2882      3997E0
 2883 04a9 5DFD12DC 		.ascii	"]\375\022\334]\032\347\352\303\253\226\3004V\265\031"
 2883      5D1AE7EA 
 2883      C3AB96C0 
 2883      3456B519 
 2884 04b9 AAFF01B9 		.ascii	"\252\377\001\271\233\205? v\006c\213H\"\225MB\375\245"
 2884      9B853F20 
 2884      7606638B 
 2884      4822954D 
 2884      42FDA5
 2885 04cc D94A01DD 		.ascii	"\331J\001\335\304A@\327\213\376^v\373\326\004j\334\376"
 2885      C44140D7 
 2885      8BFE5E76 
 2885      FBD6046A 
 2885      DCFE
 2886 04de D58160AD 		.ascii	"\325\201`\255?\344\373\324_\347\253\011\205>w\257|c"
 2886      3FE4FBD4 
 2886      5FE7AB09 
 2886      853E77AF 
 2886      7C63
 2887 04f0 5570B5B7 		.ascii	"Up\265\267\306\035\010x\227.[\362Je\250\246.T\301^("
 2887      C61D0878 
 2887      972E5BF2 
 2887      4A65A8A6 
 2887      2E54C15E 
 2888 0505 73AFF4F9 		.ascii	"s\257\364\371\253\374o\257\252\254(/[ZV\356^S\347\256"
 2888      ABFC6FAF 
 2888      AAAC282F 
 2888      5B5A56EE 
 2888      5E53E7AE 
 2889 0519 0DB9EB6A 		.ascii	"\015\271\353j\275n\257/\020\372\254\314\313\2707\024"
 2889      BD6EAF2F 
 2889      10FAACCC 
 2889      CBB83714 
 2890 0529 74EA2F65 		.ascii	"t\352/e\0255\325K\226\275ZU\301\224@p\321C\222\375\037"
 2890      1535D54B 
 2890      96BD5A55 
 2890      C1944070 
 2890      D14392FD 
 2891 053e 793FFCA4 		.ascii	"y?\374\244\272F/\340c<\364qp\361\377\306\326y}\325\030"
 2891      BA462FE0 
 2891      633CF471 
 2891      70F1FFC6 
 2891      D6797DD5 
 2892 0553 AC8482FF 		.ascii	"\254\204\202\377\001=z\031b"
 2892      013D7A19 
 2892      62
 2893              		.text
 2894              		.section	.gnu.lto_chMtxUnlockAll.321.7f87b3e556a28f3e,"e",%progbits
 2895 0000 789C8D56 		.ascii	"x\234\215V]pSU\020>{\317\315oM\245\324\026F\321)(?\316"
ARM GAS  /tmp/cc7A5JCV.s 			page 99


 2895      5D705355 
 2895      103E7BCF 
 2895      CD6F4DA5 
 2895      D41646D1 
 2896 0018 60531115 		.ascii	"`S\021\025\307\027\265>\350\003\243X\037\372\306@\310"
 2896      C717B53E 
 2896      E803A358 
 2896      1FFAC640 
 2896      C8
 2897 0029 D83A86D6 		.ascii	"\330:\206\326&:\360\344\245?\250A\350\037mCI\031\311"
 2897      263AF0E4 
 2897      A53FA841 
 2897      E81F6D43 
 2897      4919C9
 2898 003c 042D338E 		.ascii	"\004-3\216Z\021\225\037i\260Z*\377\240P@\020L\2456\024"
 2898      5A11951F 
 2898      69B05A2A 
 2898      FFA05040 
 2898      104CA536 
 2899 0051 3150D08A 		.ascii	"1P\320\212E\334=\347\336\233Tk\265\0177\347\236\273"
 2899      45DC3DE7 
 2899      DE9B546B 
 2899      B50F37E7 
 2899      9EBB
 2900 0063 FB7DBBDF 		.ascii	"\373}\273\337\236\335\323\033\031\214\275\011\214}\310"
 2900      9EDDD31B 
 2900      198CBD09 
 2900      8C7DC8
 2901 0072 18830C06 		.ascii	"\030\203\014\006\015\365A\205i\232\366\230MQ\326\325"
 2901      0DF54185 
 2901      699AF698 
 2901      4D51D6D5 
 2902 0082 7D3415B6 		.ascii	"}4\025\266A\353\226\376\331j\250.\016\375\373\327e\253"
 2902      41EB96FE 
 2902      D96AA82E 
 2902      0EFDFBD7 
 2902      65AB
 2903 0094 0E68B44B 		.ascii	"\016h\264K\003\256T\327\257R`\037\354\333\030\236\246"
 2903      03AE54D7 
 2903      AF52601F 
 2903      ECDB189E 
 2903      A6
 2904 00a5 D6D4676E 		.ascii	"\326\324gn\375\276\357NU\205\346z\247\370n\301\225\001"
 2904      FDBEEF4E 
 2904      5585E67A 
 2904      A7F86EC1 
 2904      9501
 2905 00b7 66555A25 		.ascii	"fUZ%\330\321\344\365y\352\353\365\231\357\327\326\330"
 2905      D8D1E4F5 
 2905      79EAEBF5 
 2905      99EFD7D6 
 2905      D8
 2906 00c8 54273476 		.ascii	"T'4vL\220\0066\0105D@,\355\260\242>\350@[\361\006\354"
 2906      4C900636 
 2906      08354440 
 2906      2CEDB0A2 
 2906      3EE8405B 
ARM GAS  /tmp/cc7A5JCV.s 			page 100


 2907 00df 35C5C155 		.ascii	"5\305\301U\213\325\211\037^S8K\3755\362{\321d\270\246"
 2907      8BD5891F 
 2907      5E53384B 
 2907      FD35F27B 
 2907      D164B8A6 
 2908 00f3 35DC3159 		.ascii	"5\3341Yk\217A\024?nH\031\20494\360(\007P\365\225\002"
 2908      6B8F4114 
 2908      3F6E4819 
 2908      843934F0 
 2908      280750F5 
 2909 0109 79B8E2CF 		.ascii	"y\270\342\317\323\227\3511MK\266u\\=\007Z\203\206\236"
 2909      D397E931 
 2909      4D4BB675 
 2909      5C3D075A 
 2909      83869E
 2910 011c 1C3E05F4 		.ascii	"\034>\005\364\205O\000\266\002y\027\257pY\031|\006\022"
 2910      854F00B6 
 2910      027917AF 
 2910      7059197C 
 2910      0612
 2911 012e 9120AC84 		.ascii	"\221 \254\204\016\260\035\310\337\212\314\237]\014\241"
 2911      0EB01DC8 
 2911      DF8ACC9F 
 2911      5D0CA1
 2912 013d C936F453 		.ascii	"\3116\364S\214\255\360\251\252\033\026\006;p\217\323"
 2912      8CADF0A9 
 2912      AA1B1606 
 2912      3B708FD3 
 2913 014d 1E6F10D6 		.ascii	"\036o\020\3263\221m\370j\360\273C\267\207\265\230\032"
 2913      33916DF8 
 2913      6AF0BB43 
 2913      B787B598 
 2913      1A
 2914 015e E52A7C0E 		.ascii	"\345*|\016\204%\331`\027\006\240\026\037\313\326\343"
 2914      8425D960 
 2914      1706A016 
 2914      1FCBD6E3 
 2915 016e 1ABEBEE6 		.ascii	"\032\276\276\346\347\255\263\273\252\264\036\315\264"
 2915      E7ADB3BB 
 2915      AAB41ECD 
 2915      B4
 2916 017b 65295B99 		.ascii	"e)[\231\232\010`\244\325\012\235\270\271\223\320\030"
 2916      9A0860A4 
 2916      D50A9DB8 
 2916      B993D018 
 2917 018b 0608B1F4 		.ascii	"\006\010\261\364\000\303\003#_\202\214PME\330u\036#"
 2917      00C30323 
 2917      5F828C50 
 2917      4D45D875 
 2917      1E23
 2918 019d FC02F72C 		.ascii	"\374\002\367,,E\370\371\377\"\034\356GB\202\3542\011"
 2918      2C45F8F9 
 2918      FF221CEE 
 2918      474282EC 
 2918      3209
 2919 01af BF320949 		.ascii	"\2772\011I\036+\354I\275\330\240G\274\360F\305d:|$X"
 2919      1E2BEC49 
ARM GAS  /tmp/cc7A5JCV.s 			page 101


 2919      BDD8A047 
 2919      BCF046C5 
 2919      643A7C24 
 2920 01c4 E54411AA 		.ascii	"\345D\021\252\363\242\334\002_\377M\363Z\227\360\205"
 2920      F3A2DC02 
 2920      5FFF4DF3 
 2920      5A97F085 
 2921 01d4 BD226A56 		.ascii	"\275\"jV\274\306e\210w\272\341\215M\272x\322\315f\304"
 2921      BCC66588 
 2921      77BAE18D 
 2921      4DBA78D2 
 2921      CD66C4
 2922 01e7 B71FC5B3 		.ascii	"\267\037\305\263\024\357\3172\031~x\263\013\306d@\323"
 2922      14EFCF32 
 2922      197E78B3 
 2922      0BC66440 
 2922      D3
 2923 01f8 34ED8E87 		.ascii	"4\355\216\207\036\202\003\270\271\217\300\364\230\341"
 2923      1E8203B8 
 2923      B98FC0F4 
 2923      98E1
 2924 0206 201831EF 		.ascii	" \0301\357R\314\302\255m\276\3301kO\225\366T\024\363"
 2924      52CCC2AD 
 2924      6DBED831 
 2924      6B4F95F6 
 2924      5414F3
 2925 0219 3B0C94A5 		.ascii	";\014\224\245\016x\004\271\255\305\253\314\302a\224"
 2925      0E7804B9 
 2925      ADC5ABCC 
 2925      C26194
 2926 0228 35193AB7 		.ascii	"5\031:\2674e)\3234\356\356\010\207\243\270y\210\300"
 2926      346529D3 
 2926      34EEEE08 
 2926      87A3B879 
 2926      88C0
 2927 023a 848CDF80 		.ascii	"\204\214\337\200\256\034\037L\211\265\266\271s\313\334"
 2927      AE1C1F4C 
 2927      89B5B6B9 
 2927      73CBDC
 2928 0249 DD7A5938 		.ascii	"\335zY8\034Ck\273\201w\034\361\212?\236(\365:N\307\324"
 2928      1C436BBB 
 2928      81771CF1 
 2928      8A3F9E28 
 2928      F53A4EC7 
 2929 025e 0EBD90D2 		.ascii	"\016\275\220\322y\367\252>Cg\351\231\256sX\327\371\204"
 2929      79F7AA3E 
 2929      4367E999 
 2929      AE7358D7 
 2929      F984
 2930 0270 C89F15AF 		.ascii	"\310\237\025\257w\245r\335\265\245@\346j\023\011\230"
 2930      77A572DD 
 2930      B5A540E6 
 2930      6A130998 
 2931 0280 84A73057 		.ascii	"\204\2470W[\361\273\023\307\322\3316:\327S\351\271\236"
 2931      5BF1BB13 
 2931      C7D2D936 
 2931      3AD753E9 
ARM GAS  /tmp/cc7A5JCV.s 			page 102


 2931      B99E
 2932 0292 0E95C377 		.ascii	"\016\225\303w\270y\222\300\306K\215\245\247\206\242"
 2932      B87992C0 
 2932      C64B8DA5 
 2932      A786A2
 2933 02a1 C0195C9F 		.ascii	"\300\031\\\237\006\312\0127\024\354E<\027\037\034\265"
 2933      06CA0A37 
 2933      14EC453C 
 2933      171F1CB5 
 2934 02b1 C4B4919B 		.ascii	"\304\264\221\233\265Z\354uW\270\343\342\345\223\035"
 2934      B55AEC75 
 2934      57B8E3E2 
 2934      E5931D
 2935 02c0 EA1DC0A2 		.ascii	"\352\035\300\242\334\256\340\303\302i\245\322\303\202"
 2935      DCAEE0C3 
 2935      C269A5D2 
 2935      C382
 2936 02ce 0F87931A 		.ascii	"\017\207\223\0328\203\216\223\013_m9\370\340\271\364"
 2936      38838E93 
 2936      0B5F6D39 
 2936      F8E0B9F4 
 2937 02de 60AC96B3 		.ascii	"`\254\226\263\304\356\355\207\031h1\306\352\270\"_\252"
 2937      C4EEED87 
 2937      196831C6 
 2937      EAB8225F 
 2937      AA
 2938 02ef F0E50268 		.ascii	"\360\345\002h\361\035\361\311\354\022T\356LdF\270S\237"
 2938      F11DF1C9 
 2938      EC1254EE 
 2938      4C6446B8 
 2938      539F
 2939 0301 1E4E216E 		.ascii	"\036N!n5(\270l\347\"\277w\2109\003\316\001\234\025\037"
 2939      3528B86C 
 2939      E722BF77 
 2939      883903CE 
 2939      019C151F 
 2940 0315 0B30DF81 		.ascii	"\0130\337\201\234(\277\005~\2006\032\033\264a\247\374"
 2940      9C28BF05 
 2940      7E80361A 
 2940      1BB461A7 
 2940      FC
 2941 0326 E2F84E59 		.ascii	"\342\370NY]\200\312\267\037\305\240\020V\020u\"\021"
 2941      5D80CAB7 
 2941      1FC5A010 
 2941      56107522 
 2941      11
 2942 0337 FE0E25D6 		.ascii	"\376\016%\3264\2644\003v\245\330m\351u\2108\206\256"
 2942      34B43403 
 2942      76A5D86D 
 2942      E9758838 
 2942      86AE
 2943 0349 B55DBF70 		.ascii	"\265]\277p\"\033\273Ml\257\037\014\201\200\310\303\036"
 2943      221BBB4D 
 2943      6CAF1F0C 
 2943      8180C8C3 
 2943      1E
 2944 035a A49054C8 		.ascii	"\244\220T\310\223\336M\237\234m\003lE\031\374Y\007t"
ARM GAS  /tmp/cc7A5JCV.s 			page 103


 2944      93DE4D9F 
 2944      9C6D036C 
 2944      4519FC59 
 2944      0774
 2945 036c 03FB052A 		.ascii	"\003\373\005*\247\221r\227\024\214l\352Me%\006BeVi\322"
 2945      A7917297 
 2945      148C6CEA 
 2945      4D652506 
 2945      42655669 
 2946 0381 9F0786BF 		.ascii	"\237\007\206\277\320\017\360\243\210|j%\247\357\231"
 2946      D00FF0A3 
 2946      887C6A25 
 2946      A7EF99
 2947 0390 E2E38064 		.ascii	"\342\343\200dI^mk\035\2643\352w\302\275\222X\023j\231"
 2947      495E6D6B 
 2947      1DB433EA 
 2947      77C2BD92 
 2947      58136A99 
 2948 03a4 2E0369C9 		.ascii	".\003i\311\025;\033\253\232\272iP\013\2556\273\360P"
 2948      153B1BAB 
 2948      9ABA6950 
 2948      0BAD36BB 
 2948      F050
 2949 03b6 EB5A7190 		.ascii	"\353Zq\220\362\310\364o\305l\341\002\030j\330a\020\325"
 2949      F2C8F46F 
 2949      C56CE102 
 2949      186AD861 
 2949      10D5
 2950 03c8 50902901 		.ascii	"P\220)\001\325\211\256\333#\322\307\016rl\327rG\362"
 2950      D589AEDB 
 2950      23D2C70E 
 2950      726CD772 
 2950      47F2
 2951 03da 7AFB3C00 		.ascii	"z\373<\000,\013G\017M5\313\362M|\226\370=\026\307\263"
 2951      2C0B470F 
 2951      4D35CBF2 
 2951      4D7C96F8 
 2951      3D16C7B3 
 2952 03ee B04FA7BD 		.ascii	"\260O\247\275-\3023\014\262\366)c\260]\322\331H\373"
 2952      2DC2330C 
 2952      B2F62963 
