ARM GAS  /tmp/ccYLzD4W.s 			page 1


   1              		.cpu cortex-m4
   2              		.eabi_attribute 20, 1
   3              		.eabi_attribute 21, 1
   4              		.eabi_attribute 23, 3
   5              		.eabi_attribute 24, 1
   6              		.eabi_attribute 25, 1
   7              		.eabi_attribute 26, 1
   8              		.eabi_attribute 30, 2
   9              		.eabi_attribute 34, 1
  10              		.eabi_attribute 18, 4
  11              		.file	"chobjcaches.c"
  12              		.file 1 "/usr/share/gcc-arm-none-eabi-10-2020-q4-major/lib/gcc/arm-none-eabi/10.2.1/include/stddef
  13              		.file 2 "/usr/share/gcc-arm-none-eabi-10-2020-q4-major/arm-none-eabi/include/machine/_default_type
  14              		.file 3 "/usr/share/gcc-arm-none-eabi-10-2020-q4-major/arm-none-eabi/include/sys/_stdint.h"
  15              		.file 4 "./ChibiOS_20.3.0/os/common/ports/ARMCMx/compilers/GCC/chtypes.h"
  16              		.file 5 "./ChibiOS_20.3.0/os/rt/include/chsystypes.h"
  17              		.file 6 "./ChibiOS_20.3.0/os/rt/include/chschd.h"
  18              		.file 7 "./ChibiOS_20.3.0/os/common/ports/ARMCMx/chcore.h"
  19              		.file 8 "./ChibiOS_20.3.0/os/common/ports/ARMCMx/chcore_v7m.h"
  20              		.file 9 "./ChibiOS_20.3.0/os/rt/include/chsem.h"
  21              		.file 10 "./ChibiOS_20.3.0/os/rt/include/chmtx.h"
  22              		.file 11 "./ChibiOS_20.3.0/os/oslib/include/chobjcaches.h"
  23              		.file 12 "./ChibiOS_20.3.0/os/oslib/src/chobjcaches.c"
  24              		.file 13 "./ChibiOS_20.3.0/os/rt/include/chsys.h"
  25              		.file 14 "./ChibiOS_20.3.0/os/common/ext/ARM/CMSIS/Core/Include/cmsis_gcc.h"
  26              		.section	.gnu.debuglto_.debug_info,"e",%progbits
  27              	.Ldebug_info0:
  28              		.hidden	chobjcaches.c.72b0e7ab
  29              		.weak	chobjcaches.c.72b0e7ab
  30              	chobjcaches.c.72b0e7ab:
  31 0000 7F090000 		.4byte	0x97f
  32 0004 0400     		.2byte	0x4
  33 0006 00000000 		.4byte	.Ldebug_abbrev0
  34 000a 04       		.byte	0x4
  35 000b 01       		.uleb128 0x1
  36 000c 66020000 		.4byte	.LASF117
  37 0010 0C       		.byte	0xc
  38 0011 68010000 		.4byte	.LASF118
  39 0015 3B010000 		.4byte	.LASF119
  40 0019 00000000 		.4byte	.Ldebug_line0
  41 001d 02       		.uleb128 0x2
  42 001e 04       		.byte	0x4
  43 001f 05       		.byte	0x5
  44 0020 696E7400 		.ascii	"int\000"
  45 0024 03       		.uleb128 0x3
  46 0025 0A000000 		.4byte	.LASF4
  47 0029 01       		.byte	0x1
  48 002a D1       		.byte	0xd1
  49 002b 17       		.byte	0x17
  50 002c 30000000 		.4byte	0x30
  51 0030 04       		.uleb128 0x4
  52 0031 04       		.byte	0x4
  53 0032 07       		.byte	0x7
  54 0033 D0010000 		.4byte	.LASF0
  55 0037 04       		.uleb128 0x4
  56 0038 08       		.byte	0x8
  57 0039 05       		.byte	0x5
ARM GAS  /tmp/ccYLzD4W.s 			page 2


  58 003a 99000000 		.4byte	.LASF1
  59 003e 04       		.uleb128 0x4
  60 003f 08       		.byte	0x8
  61 0040 04       		.byte	0x4
  62 0041 7C030000 		.4byte	.LASF2
  63 0045 04       		.uleb128 0x4
  64 0046 01       		.byte	0x1
  65 0047 06       		.byte	0x6
  66 0048 A7000000 		.4byte	.LASF3
  67 004c 03       		.uleb128 0x3
  68 004d 26000000 		.4byte	.LASF5
  69 0051 02       		.byte	0x2
  70 0052 2B       		.byte	0x2b
  71 0053 18       		.byte	0x18
  72 0054 58000000 		.4byte	0x58
  73 0058 04       		.uleb128 0x4
  74 0059 01       		.byte	0x1
  75 005a 08       		.byte	0x8
  76 005b 34040000 		.4byte	.LASF6
  77 005f 04       		.uleb128 0x4
  78 0060 02       		.byte	0x2
  79 0061 05       		.byte	0x5
  80 0062 F5000000 		.4byte	.LASF7
  81 0066 04       		.uleb128 0x4
  82 0067 02       		.byte	0x2
  83 0068 07       		.byte	0x7
  84 0069 F5010000 		.4byte	.LASF8
  85 006d 03       		.uleb128 0x3
  86 006e 16050000 		.4byte	.LASF9
  87 0072 02       		.byte	0x2
  88 0073 4D       		.byte	0x4d
  89 0074 18       		.byte	0x18
  90 0075 79000000 		.4byte	0x79
  91 0079 04       		.uleb128 0x4
  92 007a 04       		.byte	0x4
  93 007b 05       		.byte	0x5
  94 007c E3000000 		.4byte	.LASF10
  95 0080 03       		.uleb128 0x3
  96 0081 30010000 		.4byte	.LASF11
  97 0085 02       		.byte	0x2
  98 0086 4F       		.byte	0x4f
  99 0087 19       		.byte	0x19
 100 0088 8C000000 		.4byte	0x8c
 101 008c 04       		.uleb128 0x4
 102 008d 04       		.byte	0x4
 103 008e 07       		.byte	0x7
 104 008f E9040000 		.4byte	.LASF12
 105 0093 03       		.uleb128 0x3
 106 0094 E6030000 		.4byte	.LASF13
 107 0098 02       		.byte	0x2
 108 0099 69       		.byte	0x69
 109 009a 19       		.byte	0x19
 110 009b 9F000000 		.4byte	0x9f
 111 009f 04       		.uleb128 0x4
 112 00a0 08       		.byte	0x8
 113 00a1 07       		.byte	0x7
 114 00a2 4B000000 		.4byte	.LASF14
ARM GAS  /tmp/ccYLzD4W.s 			page 3


 115 00a6 03       		.uleb128 0x3
 116 00a7 95050000 		.4byte	.LASF15
 117 00ab 03       		.byte	0x3
 118 00ac 18       		.byte	0x18
 119 00ad 13       		.byte	0x13
 120 00ae 4C000000 		.4byte	0x4c
 121 00b2 03       		.uleb128 0x3
 122 00b3 2C040000 		.4byte	.LASF16
 123 00b7 03       		.byte	0x3
 124 00b8 2C       		.byte	0x2c
 125 00b9 13       		.byte	0x13
 126 00ba 6D000000 		.4byte	0x6d
 127 00be 03       		.uleb128 0x3
 128 00bf C3040000 		.4byte	.LASF17
 129 00c3 03       		.byte	0x3
 130 00c4 30       		.byte	0x30
 131 00c5 14       		.byte	0x14
 132 00c6 80000000 		.4byte	0x80
 133 00ca 03       		.uleb128 0x3
 134 00cb 1D000000 		.4byte	.LASF18
 135 00cf 03       		.byte	0x3
 136 00d0 3C       		.byte	0x3c
 137 00d1 14       		.byte	0x14
 138 00d2 93000000 		.4byte	0x93
 139 00d6 03       		.uleb128 0x3
 140 00d7 41020000 		.4byte	.LASF19
 141 00db 04       		.byte	0x4
 142 00dc 2A       		.byte	0x2a
 143 00dd 1D       		.byte	0x1d
 144 00de A6000000 		.4byte	0xa6
 145 00e2 03       		.uleb128 0x3
 146 00e3 EC000000 		.4byte	.LASF20
 147 00e7 04       		.byte	0x4
 148 00e8 2B       		.byte	0x2b
 149 00e9 1D       		.byte	0x1d
 150 00ea A6000000 		.4byte	0xa6
 151 00ee 03       		.uleb128 0x3
 152 00ef F1030000 		.4byte	.LASF21
 153 00f3 04       		.byte	0x4
 154 00f4 2C       		.byte	0x2c
 155 00f5 1D       		.byte	0x1d
 156 00f6 A6000000 		.4byte	0xa6
 157 00fa 03       		.uleb128 0x3
 158 00fb 18040000 		.4byte	.LASF22
 159 00ff 04       		.byte	0x4
 160 0100 2E       		.byte	0x2e
 161 0101 1D       		.byte	0x1d
 162 0102 BE000000 		.4byte	0xbe
 163 0106 03       		.uleb128 0x3
 164 0107 19020000 		.4byte	.LASF23
 165 010b 04       		.byte	0x4
 166 010c 2F       		.byte	0x2f
 167 010d 1D       		.byte	0x1d
 168 010e B2000000 		.4byte	0xb2
 169 0112 03       		.uleb128 0x3
 170 0113 5A020000 		.4byte	.LASF24
 171 0117 04       		.byte	0x4
ARM GAS  /tmp/ccYLzD4W.s 			page 4


 172 0118 31       		.byte	0x31
 173 0119 1D       		.byte	0x1d
 174 011a BE000000 		.4byte	0xbe
 175 011e 03       		.uleb128 0x3
 176 011f C1010000 		.4byte	.LASF25
 177 0123 04       		.byte	0x4
 178 0124 33       		.byte	0x33
 179 0125 1D       		.byte	0x1d
 180 0126 B2000000 		.4byte	0xb2
 181 012a 03       		.uleb128 0x3
 182 012b 31020000 		.4byte	.LASF26
 183 012f 04       		.byte	0x4
 184 0130 34       		.byte	0x34
 185 0131 1D       		.byte	0x1d
 186 0132 BE000000 		.4byte	0xbe
 187 0136 03       		.uleb128 0x3
 188 0137 0D050000 		.4byte	.LASF27
 189 013b 05       		.byte	0x5
 190 013c 34       		.byte	0x34
 191 013d 1A       		.byte	0x1a
 192 013e 42010000 		.4byte	0x142
 193 0142 05       		.uleb128 0x5
 194 0143 08020000 		.4byte	.LASF45
 195 0147 44       		.byte	0x44
 196 0148 06       		.byte	0x6
 197 0149 8E       		.byte	0x8e
 198 014a 08       		.byte	0x8
 199 014b 32020000 		.4byte	0x232
 200 014f 06       		.uleb128 0x6
 201 0150 FF000000 		.4byte	.LASF28
 202 0154 06       		.byte	0x6
 203 0155 8F       		.byte	0x8f
 204 0156 19       		.byte	0x19
 205 0157 6B020000 		.4byte	0x26b
 206 015b 00       		.byte	0
 207 015c 06       		.uleb128 0x6
 208 015d B4030000 		.4byte	.LASF29
 209 0161 06       		.byte	0x6
 210 0162 90       		.byte	0x90
 211 0163 19       		.byte	0x19
 212 0164 FA000000 		.4byte	0xfa
 213 0168 08       		.byte	0x8
 214 0169 07       		.uleb128 0x7
 215 016a 63747800 		.ascii	"ctx\000"
 216 016e 06       		.byte	0x6
 217 016f 91       		.byte	0x91
 218 0170 19       		.byte	0x19
 219 0171 33030000 		.4byte	0x333
 220 0175 0C       		.byte	0xc
 221 0176 06       		.uleb128 0x6
 222 0177 41030000 		.4byte	.LASF30
 223 017b 06       		.byte	0x6
 224 017c 93       		.byte	0x93
 225 017d 1A       		.byte	0x1a
 226 017e 3E020000 		.4byte	0x23e
 227 0182 10       		.byte	0x10
 228 0183 06       		.uleb128 0x6
ARM GAS  /tmp/ccYLzD4W.s 			page 5


 229 0184 07050000 		.4byte	.LASF31
 230 0188 06       		.byte	0x6
 231 0189 94       		.byte	0x94
 232 018a 1A       		.byte	0x1a
 233 018b 3E020000 		.4byte	0x23e
 234 018f 14       		.byte	0x14
 235 0190 06       		.uleb128 0x6
 236 0191 EA010000 		.4byte	.LASF32
 237 0195 06       		.byte	0x6
 238 0196 9B       		.byte	0x9b
 239 0197 1A       		.byte	0x1a
 240 0198 2F040000 		.4byte	0x42f
 241 019c 18       		.byte	0x18
 242 019d 06       		.uleb128 0x6
 243 019e FB040000 		.4byte	.LASF33
 244 01a2 06       		.byte	0x6
 245 01a3 A4       		.byte	0xa4
 246 01a4 1A       		.byte	0x1a
 247 01a5 41040000 		.4byte	0x441
 248 01a9 1C       		.byte	0x1c
 249 01aa 06       		.uleb128 0x6
 250 01ab DD000000 		.4byte	.LASF34
 251 01af 06       		.byte	0x6
 252 01b0 A9       		.byte	0xa9
 253 01b1 19       		.byte	0x19
 254 01b2 E2000000 		.4byte	0xe2
 255 01b6 20       		.byte	0x20
 256 01b7 06       		.uleb128 0x6
 257 01b8 9D050000 		.4byte	.LASF35
 258 01bc 06       		.byte	0x6
 259 01bd AD       		.byte	0xad
 260 01be 19       		.byte	0x19
 261 01bf D6000000 		.4byte	0xd6
 262 01c3 21       		.byte	0x21
 263 01c4 06       		.uleb128 0x6
 264 01c5 F9030000 		.4byte	.LASF36
 265 01c9 06       		.byte	0x6
 266 01ca B2       		.byte	0xb2
 267 01cb 19       		.byte	0x19
 268 01cc EE000000 		.4byte	0xee
 269 01d0 22       		.byte	0x22
 270 01d1 08       		.uleb128 0x8
 271 01d2 7500     		.ascii	"u\000"
 272 01d4 06       		.byte	0x6
 273 01d5 0301     		.2byte	0x103
 274 01d7 19       		.byte	0x19
 275 01d8 55030000 		.4byte	0x355
 276 01dc 24       		.byte	0x24
 277 01dd 09       		.uleb128 0x9
 278 01de 94010000 		.4byte	.LASF37
 279 01e2 06       		.byte	0x6
 280 01e3 0801     		.2byte	0x108
 281 01e5 19       		.byte	0x19
 282 01e6 44020000 		.4byte	0x244
 283 01ea 28       		.byte	0x28
 284 01eb 09       		.uleb128 0x9
 285 01ec C7010000 		.4byte	.LASF38
ARM GAS  /tmp/ccYLzD4W.s 			page 6


 286 01f0 06       		.byte	0x6
 287 01f1 0E01     		.2byte	0x10e
 288 01f3 19       		.byte	0x19
 289 01f4 6B020000 		.4byte	0x26b
 290 01f8 2C       		.byte	0x2c
 291 01f9 09       		.uleb128 0x9
 292 01fa 38020000 		.4byte	.LASF39
 293 01fe 06       		.byte	0x6
 294 01ff 1401     		.2byte	0x114
 295 0201 19       		.byte	0x19
 296 0202 12010000 		.4byte	0x112
 297 0206 34       		.byte	0x34
 298 0207 09       		.uleb128 0x9
 299 0208 CF050000 		.4byte	.LASF40
 300 020c 06       		.byte	0x6
 301 020d 1B01     		.2byte	0x11b
 302 020f 1A       		.byte	0x1a
 303 0210 29040000 		.4byte	0x429
 304 0214 38       		.byte	0x38
 305 0215 09       		.uleb128 0x9
 306 0216 51030000 		.4byte	.LASF41
 307 021a 06       		.byte	0x6
 308 021b 1F01     		.2byte	0x11f
 309 021d 19       		.byte	0x19
 310 021e FA000000 		.4byte	0xfa
 311 0222 3C       		.byte	0x3c
 312 0223 09       		.uleb128 0x9
 313 0224 EF010000 		.4byte	.LASF42
 314 0228 06       		.byte	0x6
 315 0229 2601     		.2byte	0x126
 316 022b 1A       		.byte	0x1a
 317 022c 9F020000 		.4byte	0x29f
 318 0230 40       		.byte	0x40
 319 0231 00       		.byte	0
 320 0232 03       		.uleb128 0x3
 321 0233 69030000 		.4byte	.LASF43
 322 0237 05       		.byte	0x5
 323 0238 39       		.byte	0x39
 324 0239 14       		.byte	0x14
 325 023a 3E020000 		.4byte	0x23e
 326 023e 0A       		.uleb128 0xa
 327 023f 04       		.byte	0x4
 328 0240 36010000 		.4byte	0x136
 329 0244 03       		.uleb128 0x3
 330 0245 AA050000 		.4byte	.LASF44
 331 0249 05       		.byte	0x5
 332 024a 3E       		.byte	0x3e
 333 024b 20       		.byte	0x20
 334 024c 50020000 		.4byte	0x250
 335 0250 05       		.uleb128 0x5
 336 0251 D3040000 		.4byte	.LASF46
 337 0255 04       		.byte	0x4
 338 0256 06       		.byte	0x6
 339 0257 7C       		.byte	0x7c
 340 0258 08       		.byte	0x8
 341 0259 6B020000 		.4byte	0x26b
 342 025d 06       		.uleb128 0x6
ARM GAS  /tmp/ccYLzD4W.s 			page 7


 343 025e 11000000 		.4byte	.LASF47
 344 0262 06       		.byte	0x6
 345 0263 7D       		.byte	0x7d
 346 0264 1A       		.byte	0x1a
 347 0265 3E020000 		.4byte	0x23e
 348 0269 00       		.byte	0
 349 026a 00       		.byte	0
 350 026b 03       		.uleb128 0x3
 351 026c 71050000 		.4byte	.LASF48
 352 0270 05       		.byte	0x5
 353 0271 45       		.byte	0x45
 354 0272 21       		.byte	0x21
 355 0273 77020000 		.4byte	0x277
 356 0277 05       		.uleb128 0x5
 357 0278 88000000 		.4byte	.LASF49
 358 027c 08       		.byte	0x8
 359 027d 06       		.byte	0x6
 360 027e 83       		.byte	0x83
 361 027f 08       		.byte	0x8
 362 0280 9F020000 		.4byte	0x29f
 363 0284 06       		.uleb128 0x6
 364 0285 11000000 		.4byte	.LASF47
 365 0289 06       		.byte	0x6
 366 028a 84       		.byte	0x84
 367 028b 1A       		.byte	0x1a
 368 028c 3E020000 		.4byte	0x23e
 369 0290 00       		.byte	0
 370 0291 06       		.uleb128 0x6
 371 0292 30000000 		.4byte	.LASF50
 372 0296 06       		.byte	0x6
 373 0297 85       		.byte	0x85
 374 0298 1A       		.byte	0x1a
 375 0299 3E020000 		.4byte	0x23e
 376 029d 04       		.byte	0x4
 377 029e 00       		.byte	0
 378 029f 0B       		.uleb128 0xb
 379 02a0 04       		.byte	0x4
 380 02a1 03       		.uleb128 0x3
 381 02a2 36030000 		.4byte	.LASF51
 382 02a6 07       		.byte	0x7
 383 02a7 68       		.byte	0x68
 384 02a8 12       		.byte	0x12
 385 02a9 CA000000 		.4byte	0xca
 386 02ad 0C       		.uleb128 0xc
 387 02ae 35000000 		.4byte	.LASF52
 388 02b2 24       		.byte	0x24
 389 02b3 08       		.byte	0x8
 390 02b4 8501     		.2byte	0x185
 391 02b6 08       		.byte	0x8
 392 02b7 33030000 		.4byte	0x333
 393 02bb 08       		.uleb128 0x8
 394 02bc 723400   		.ascii	"r4\000"
 395 02bf 08       		.byte	0x8
 396 02c0 9E01     		.2byte	0x19e
 397 02c2 11       		.byte	0x11
 398 02c3 BE000000 		.4byte	0xbe
 399 02c7 00       		.byte	0
ARM GAS  /tmp/ccYLzD4W.s 			page 8


 400 02c8 08       		.uleb128 0x8
 401 02c9 723500   		.ascii	"r5\000"
 402 02cc 08       		.byte	0x8
 403 02cd 9F01     		.2byte	0x19f
 404 02cf 11       		.byte	0x11
 405 02d0 BE000000 		.4byte	0xbe
 406 02d4 04       		.byte	0x4
 407 02d5 08       		.uleb128 0x8
 408 02d6 723600   		.ascii	"r6\000"
 409 02d9 08       		.byte	0x8
 410 02da A001     		.2byte	0x1a0
 411 02dc 11       		.byte	0x11
 412 02dd BE000000 		.4byte	0xbe
 413 02e1 08       		.byte	0x8
 414 02e2 08       		.uleb128 0x8
 415 02e3 723700   		.ascii	"r7\000"
 416 02e6 08       		.byte	0x8
 417 02e7 A101     		.2byte	0x1a1
 418 02e9 11       		.byte	0x11
 419 02ea BE000000 		.4byte	0xbe
 420 02ee 0C       		.byte	0xc
 421 02ef 08       		.uleb128 0x8
 422 02f0 723800   		.ascii	"r8\000"
 423 02f3 08       		.byte	0x8
 424 02f4 A201     		.2byte	0x1a2
 425 02f6 11       		.byte	0x11
 426 02f7 BE000000 		.4byte	0xbe
 427 02fb 10       		.byte	0x10
 428 02fc 08       		.uleb128 0x8
 429 02fd 723900   		.ascii	"r9\000"
 430 0300 08       		.byte	0x8
 431 0301 A301     		.2byte	0x1a3
 432 0303 11       		.byte	0x11
 433 0304 BE000000 		.4byte	0xbe
 434 0308 14       		.byte	0x14
 435 0309 08       		.uleb128 0x8
 436 030a 72313000 		.ascii	"r10\000"
 437 030e 08       		.byte	0x8
 438 030f A401     		.2byte	0x1a4
 439 0311 11       		.byte	0x11
 440 0312 BE000000 		.4byte	0xbe
 441 0316 18       		.byte	0x18
 442 0317 08       		.uleb128 0x8
 443 0318 72313100 		.ascii	"r11\000"
 444 031c 08       		.byte	0x8
 445 031d A501     		.2byte	0x1a5
 446 031f 11       		.byte	0x11
 447 0320 BE000000 		.4byte	0xbe
 448 0324 1C       		.byte	0x1c
 449 0325 08       		.uleb128 0x8
 450 0326 6C7200   		.ascii	"lr\000"
 451 0329 08       		.byte	0x8
 452 032a A601     		.2byte	0x1a6
 453 032c 11       		.byte	0x11
 454 032d BE000000 		.4byte	0xbe
 455 0331 20       		.byte	0x20
 456 0332 00       		.byte	0
ARM GAS  /tmp/ccYLzD4W.s 			page 9


 457 0333 0C       		.uleb128 0xc
 458 0334 9E030000 		.4byte	.LASF53
 459 0338 04       		.byte	0x4
 460 0339 08       		.byte	0x8
 461 033a A901     		.2byte	0x1a9
 462 033c 08       		.byte	0x8
 463 033d 4F030000 		.4byte	0x34f
 464 0341 08       		.uleb128 0x8
 465 0342 737000   		.ascii	"sp\000"
 466 0345 08       		.byte	0x8
 467 0346 AA01     		.2byte	0x1aa
 468 0348 1A       		.byte	0x1a
 469 0349 4F030000 		.4byte	0x34f
 470 034d 00       		.byte	0
 471 034e 00       		.byte	0
 472 034f 0A       		.uleb128 0xa
 473 0350 04       		.byte	0x4
 474 0351 AD020000 		.4byte	0x2ad
 475 0355 0D       		.uleb128 0xd
 476 0356 04       		.byte	0x4
 477 0357 06       		.byte	0x6
 478 0358 C6       		.byte	0xc6
 479 0359 03       		.byte	0x3
 480 035a C0030000 		.4byte	0x3c0
 481 035e 0E       		.uleb128 0xe
 482 035f 16000000 		.4byte	.LASF54
 483 0363 06       		.byte	0x6
 484 0364 CD       		.byte	0xcd
 485 0365 19       		.byte	0x19
 486 0366 06010000 		.4byte	0x106
 487 036a 0E       		.uleb128 0xe
 488 036b 6A000000 		.4byte	.LASF55
 489 036f 06       		.byte	0x6
 490 0370 D4       		.byte	0xd4
 491 0371 19       		.byte	0x19
 492 0372 06010000 		.4byte	0x106
 493 0376 0E       		.uleb128 0xe
 494 0377 A3050000 		.4byte	.LASF56
 495 037b 06       		.byte	0x6
 496 037c DB       		.byte	0xdb
 497 037d 1A       		.byte	0x1a
 498 037e 9F020000 		.4byte	0x29f
 499 0382 0E       		.uleb128 0xe
 500 0383 E4010000 		.4byte	.LASF57
 501 0387 06       		.byte	0x6
 502 0388 E2       		.byte	0xe2
 503 0389 1A       		.byte	0x1a
 504 038a C0030000 		.4byte	0x3c0
 505 038e 0E       		.uleb128 0xe
 506 038f D7050000 		.4byte	.LASF58
 507 0393 06       		.byte	0x6
 508 0394 E7       		.byte	0xe7
 509 0395 19       		.byte	0x19
 510 0396 06010000 		.4byte	0x106
 511 039a 0E       		.uleb128 0xe
 512 039b DD010000 		.4byte	.LASF59
 513 039f 06       		.byte	0x6
ARM GAS  /tmp/ccYLzD4W.s 			page 10


 514 03a0 F0       		.byte	0xf0
 515 03a1 1A       		.byte	0x1a
 516 03a2 EE030000 		.4byte	0x3ee
 517 03a6 0E       		.uleb128 0xe
 518 03a7 CC040000 		.4byte	.LASF60
 519 03ab 06       		.byte	0x6
 520 03ac F9       		.byte	0xf9
 521 03ad 1A       		.byte	0x1a
 522 03ae 29040000 		.4byte	0x429
 523 03b2 0F       		.uleb128 0xf
 524 03b3 59040000 		.4byte	.LASF61
 525 03b7 06       		.byte	0x6
 526 03b8 0101     		.2byte	0x101
 527 03ba 19       		.byte	0x19
 528 03bb 12010000 		.4byte	0x112
 529 03bf 00       		.byte	0
 530 03c0 0A       		.uleb128 0xa
 531 03c1 04       		.byte	0x4
 532 03c2 32020000 		.4byte	0x232
 533 03c6 05       		.uleb128 0x5
 534 03c7 AE040000 		.4byte	.LASF62
 535 03cb 0C       		.byte	0xc
 536 03cc 09       		.byte	0x9
 537 03cd 34       		.byte	0x34
 538 03ce 10       		.byte	0x10
 539 03cf EE030000 		.4byte	0x3ee
 540 03d3 06       		.uleb128 0x6
 541 03d4 FF000000 		.4byte	.LASF28
 542 03d8 09       		.byte	0x9
 543 03d9 35       		.byte	0x35
 544 03da 19       		.byte	0x19
 545 03db 6B020000 		.4byte	0x26b
 546 03df 00       		.byte	0
 547 03e0 07       		.uleb128 0x7
 548 03e1 636E7400 		.ascii	"cnt\000"
 549 03e5 09       		.byte	0x9
 550 03e6 37       		.byte	0x37
 551 03e7 19       		.byte	0x19
 552 03e8 1E010000 		.4byte	0x11e
 553 03ec 08       		.byte	0x8
 554 03ed 00       		.byte	0
 555 03ee 0A       		.uleb128 0xa
 556 03ef 04       		.byte	0x4
 557 03f0 C6030000 		.4byte	0x3c6
 558 03f4 05       		.uleb128 0x5
 559 03f5 81050000 		.4byte	.LASF63
 560 03f9 10       		.byte	0x10
 561 03fa 0A       		.byte	0xa
 562 03fb 39       		.byte	0x39
 563 03fc 08       		.byte	0x8
 564 03fd 29040000 		.4byte	0x429
 565 0401 06       		.uleb128 0x6
 566 0402 FF000000 		.4byte	.LASF28
 567 0406 0A       		.byte	0xa
 568 0407 3A       		.byte	0x3a
 569 0408 19       		.byte	0x19
 570 0409 6B020000 		.4byte	0x26b
ARM GAS  /tmp/ccYLzD4W.s 			page 11


 571 040d 00       		.byte	0
 572 040e 06       		.uleb128 0x6
 573 040f E3040000 		.4byte	.LASF64
 574 0413 0A       		.byte	0xa
 575 0414 3C       		.byte	0x3c
 576 0415 1A       		.byte	0x1a
 577 0416 3E020000 		.4byte	0x23e
 578 041a 08       		.byte	0x8
 579 041b 06       		.uleb128 0x6
 580 041c 11000000 		.4byte	.LASF47
 581 0420 0A       		.byte	0xa
 582 0421 3E       		.byte	0x3e
 583 0422 1A       		.byte	0x1a
 584 0423 64040000 		.4byte	0x464
 585 0427 0C       		.byte	0xc
 586 0428 00       		.byte	0
 587 0429 0A       		.uleb128 0xa
 588 042a 04       		.byte	0x4
 589 042b F4030000 		.4byte	0x3f4
 590 042f 0A       		.uleb128 0xa
 591 0430 04       		.byte	0x4
 592 0431 3C040000 		.4byte	0x43c
 593 0435 04       		.uleb128 0x4
 594 0436 01       		.byte	0x1
 595 0437 08       		.byte	0x8
 596 0438 02050000 		.4byte	.LASF65
 597 043c 10       		.uleb128 0x10
 598 043d 35040000 		.4byte	0x435
 599 0441 0A       		.uleb128 0xa
 600 0442 04       		.byte	0x4
 601 0443 A1020000 		.4byte	0x2a1
 602 0447 03       		.uleb128 0x3
 603 0448 8F040000 		.4byte	.LASF66
 604 044c 09       		.byte	0x9
 605 044d 38       		.byte	0x38
 606 044e 03       		.byte	0x3
 607 044f C6030000 		.4byte	0x3c6
 608 0453 10       		.uleb128 0x10
 609 0454 47040000 		.4byte	0x447
 610 0458 03       		.uleb128 0x3
 611 0459 9C010000 		.4byte	.LASF67
 612 045d 0A       		.byte	0xa
 613 045e 34       		.byte	0x34
 614 045f 19       		.byte	0x19
 615 0460 F4030000 		.4byte	0x3f4
 616 0464 0A       		.uleb128 0xa
 617 0465 04       		.byte	0x4
 618 0466 58040000 		.4byte	0x458
 619 046a 04       		.uleb128 0x4
 620 046b 01       		.byte	0x1
 621 046c 02       		.byte	0x2
 622 046d 26040000 		.4byte	.LASF68
 623 0471 03       		.uleb128 0x3
 624 0472 8A050000 		.4byte	.LASF69
 625 0476 0B       		.byte	0xb
 626 0477 40       		.byte	0x40
 627 0478 12       		.byte	0x12
ARM GAS  /tmp/ccYLzD4W.s 			page 12


 628 0479 BE000000 		.4byte	0xbe
 629 047d 03       		.uleb128 0x3
 630 047e 49020000 		.4byte	.LASF70
 631 0482 0B       		.byte	0xb
 632 0483 45       		.byte	0x45
 633 0484 22       		.byte	0x22
 634 0485 89040000 		.4byte	0x489
 635 0489 05       		.uleb128 0x5
 636 048a 3F050000 		.4byte	.LASF71
 637 048e 08       		.byte	0x8
 638 048f 0B       		.byte	0xb
 639 0490 71       		.byte	0x71
 640 0491 08       		.byte	0x8
 641 0492 B1040000 		.4byte	0x4b1
 642 0496 06       		.uleb128 0x6
 643 0497 00000000 		.4byte	.LASF72
 644 049b 0B       		.byte	0xb
 645 049c 75       		.byte	0x75
 646 049d 1A       		.byte	0x1a
 647 049e 5B060000 		.4byte	0x65b
 648 04a2 00       		.byte	0
 649 04a3 06       		.uleb128 0x6
 650 04a4 C5050000 		.4byte	.LASF73
 651 04a8 0B       		.byte	0xb
 652 04a9 79       		.byte	0x79
 653 04aa 1A       		.byte	0x1a
 654 04ab 5B060000 		.4byte	0x65b
 655 04af 04       		.byte	0x4
 656 04b0 00       		.byte	0
 657 04b1 03       		.uleb128 0x3
 658 04b2 88030000 		.4byte	.LASF74
 659 04b6 0B       		.byte	0xb
 660 04b7 4A       		.byte	0x4a
 661 04b8 21       		.byte	0x21
 662 04b9 BD040000 		.4byte	0x4bd
 663 04bd 05       		.uleb128 0x5
 664 04be FE030000 		.4byte	.LASF75
 665 04c2 10       		.byte	0x10
 666 04c3 0B       		.byte	0xb
 667 04c4 7F       		.byte	0x7f
 668 04c5 08       		.byte	0x8
 669 04c6 FF040000 		.4byte	0x4ff
 670 04ca 06       		.uleb128 0x6
 671 04cb 00000000 		.4byte	.LASF72
 672 04cf 0B       		.byte	0xb
 673 04d0 83       		.byte	0x83
 674 04d1 1A       		.byte	0x1a
 675 04d2 5B060000 		.4byte	0x65b
 676 04d6 00       		.byte	0
 677 04d7 06       		.uleb128 0x6
 678 04d8 C5050000 		.4byte	.LASF73
 679 04dc 0B       		.byte	0xb
 680 04dd 87       		.byte	0x87
 681 04de 1A       		.byte	0x1a
 682 04df 5B060000 		.4byte	0x65b
 683 04e3 04       		.byte	0x4
 684 04e4 06       		.uleb128 0x6
ARM GAS  /tmp/ccYLzD4W.s 			page 13


 685 04e5 0F040000 		.4byte	.LASF76
 686 04e9 0B       		.byte	0xb
 687 04ea 8B       		.byte	0x8b
 688 04eb 1A       		.byte	0x1a
 689 04ec 5B060000 		.4byte	0x65b
 690 04f0 08       		.byte	0x8
 691 04f1 06       		.uleb128 0x6
 692 04f2 AB030000 		.4byte	.LASF77
 693 04f6 0B       		.byte	0xb
 694 04f7 8F       		.byte	0x8f
 695 04f8 1A       		.byte	0x1a
 696 04f9 5B060000 		.4byte	0x65b
 697 04fd 0C       		.byte	0xc
 698 04fe 00       		.byte	0
 699 04ff 03       		.uleb128 0x3
 700 0500 B9030000 		.4byte	.LASF78
 701 0504 0B       		.byte	0xb
 702 0505 4F       		.byte	0x4f
 703 0506 1D       		.byte	0x1d
 704 0507 0B050000 		.4byte	0x50b
 705 050b 05       		.uleb128 0x5
 706 050c 23010000 		.4byte	.LASF79
 707 0510 2C       		.byte	0x2c
 708 0511 0B       		.byte	0xb
 709 0512 95       		.byte	0x95
 710 0513 08       		.byte	0x8
 711 0514 8E050000 		.4byte	0x58e
 712 0518 06       		.uleb128 0x6
 713 0519 00000000 		.4byte	.LASF72
 714 051d 0B       		.byte	0xb
 715 051e 99       		.byte	0x99
 716 051f 1A       		.byte	0x1a
 717 0520 5B060000 		.4byte	0x65b
 718 0524 00       		.byte	0
 719 0525 06       		.uleb128 0x6
 720 0526 C5050000 		.4byte	.LASF73
 721 052a 0B       		.byte	0xb
 722 052b 9D       		.byte	0x9d
 723 052c 1A       		.byte	0x1a
 724 052d 5B060000 		.4byte	0x65b
 725 0531 04       		.byte	0x4
 726 0532 06       		.uleb128 0x6
 727 0533 0F040000 		.4byte	.LASF76
 728 0537 0B       		.byte	0xb
 729 0538 A1       		.byte	0xa1
 730 0539 1A       		.byte	0x1a
 731 053a 5B060000 		.4byte	0x65b
 732 053e 08       		.byte	0x8
 733 053f 06       		.uleb128 0x6
 734 0540 AB030000 		.4byte	.LASF77
 735 0544 0B       		.byte	0xb
 736 0545 A5       		.byte	0xa5
 737 0546 1A       		.byte	0x1a
 738 0547 5B060000 		.4byte	0x65b
 739 054b 0C       		.byte	0xc
 740 054c 06       		.uleb128 0x6
 741 054d 47030000 		.4byte	.LASF80
ARM GAS  /tmp/ccYLzD4W.s 			page 14


 742 0551 0B       		.byte	0xb
 743 0552 A9       		.byte	0xa9
 744 0553 19       		.byte	0x19
 745 0554 BE000000 		.4byte	0xbe
 746 0558 10       		.byte	0x10
 747 0559 06       		.uleb128 0x6
 748 055a BB040000 		.4byte	.LASF81
 749 055e 0B       		.byte	0xb
 750 055f AD       		.byte	0xad
 751 0560 19       		.byte	0x19
 752 0561 BE000000 		.4byte	0xbe
 753 0565 14       		.byte	0x14
 754 0566 06       		.uleb128 0x6
 755 0567 1B010000 		.4byte	.LASF82
 756 056b 0B       		.byte	0xb
 757 056c B1       		.byte	0xb1
 758 056d 19       		.byte	0x19
 759 056e 47040000 		.4byte	0x447
 760 0572 18       		.byte	0x18
 761 0573 06       		.uleb128 0x6
 762 0574 05010000 		.4byte	.LASF83
 763 0578 0B       		.byte	0xb
 764 0579 B5       		.byte	0xb5
 765 057a 19       		.byte	0x19
 766 057b 71040000 		.4byte	0x471
 767 057f 24       		.byte	0x24
 768 0580 06       		.uleb128 0x6
 769 0581 78040000 		.4byte	.LASF84
 770 0585 0B       		.byte	0xb
 771 0586 BB       		.byte	0xbb
 772 0587 1A       		.byte	0x1a
 773 0588 9F020000 		.4byte	0x29f
 774 058c 28       		.byte	0x28
 775 058d 00       		.byte	0
 776 058e 03       		.uleb128 0x3
 777 058f C7000000 		.4byte	.LASF85
 778 0593 0B       		.byte	0xb
 779 0594 54       		.byte	0x54
 780 0595 21       		.byte	0x21
 781 0596 9A050000 		.4byte	0x59a
 782 059a 05       		.uleb128 0x5
 783 059b B0010000 		.4byte	.LASF86
 784 059f 44       		.byte	0x44
 785 05a0 0B       		.byte	0xb
 786 05a1 C1       		.byte	0xc1
 787 05a2 08       		.byte	0x8
 788 05a3 2A060000 		.4byte	0x62a
 789 05a7 06       		.uleb128 0x6
 790 05a8 0F010000 		.4byte	.LASF87
 791 05ac 0B       		.byte	0xb
 792 05ad C5       		.byte	0xc5
 793 05ae 19       		.byte	0x19
 794 05af 2A010000 		.4byte	0x12a
 795 05b3 00       		.byte	0
 796 05b4 06       		.uleb128 0x6
 797 05b5 15010000 		.4byte	.LASF88
 798 05b9 0B       		.byte	0xb
ARM GAS  /tmp/ccYLzD4W.s 			page 15


 799 05ba C9       		.byte	0xc9
 800 05bb 1A       		.byte	0x1a
 801 05bc 6D060000 		.4byte	0x66d
 802 05c0 04       		.byte	0x4
 803 05c1 06       		.uleb128 0x6
 804 05c2 73040000 		.4byte	.LASF89
 805 05c6 0B       		.byte	0xb
 806 05c7 CD       		.byte	0xcd
 807 05c8 19       		.byte	0x19
 808 05c9 2A010000 		.4byte	0x12a
 809 05cd 08       		.byte	0x8
 810 05ce 06       		.uleb128 0x6
 811 05cf 20040000 		.4byte	.LASF90
 812 05d3 0B       		.byte	0xb
 813 05d4 D1       		.byte	0xd1
 814 05d5 19       		.byte	0x19
 815 05d6 24000000 		.4byte	0x24
 816 05da 0C       		.byte	0xc
 817 05db 06       		.uleb128 0x6
 818 05dc 42040000 		.4byte	.LASF91
 819 05e0 0B       		.byte	0xb
 820 05e1 D5       		.byte	0xd5
 821 05e2 1A       		.byte	0x1a
 822 05e3 9F020000 		.4byte	0x29f
 823 05e7 10       		.byte	0x10
 824 05e8 07       		.uleb128 0x7
 825 05e9 6C727500 		.ascii	"lru\000"
 826 05ed 0B       		.byte	0xb
 827 05ee D9       		.byte	0xd9
 828 05ef 19       		.byte	0x19
 829 05f0 B1040000 		.4byte	0x4b1
 830 05f4 14       		.byte	0x14
 831 05f5 06       		.uleb128 0x6
 832 05f6 79000000 		.4byte	.LASF92
 833 05fa 0B       		.byte	0xb
 834 05fb DD       		.byte	0xdd
 835 05fc 19       		.byte	0x19
 836 05fd 47040000 		.4byte	0x447
 837 0601 24       		.byte	0x24
 838 0602 06       		.uleb128 0x6
 839 0603 62000000 		.4byte	.LASF93
 840 0607 0B       		.byte	0xb
 841 0608 E1       		.byte	0xe1
 842 0609 19       		.byte	0x19
 843 060a 47040000 		.4byte	0x447
 844 060e 30       		.byte	0x30
 845 060f 06       		.uleb128 0x6
 846 0610 73000000 		.4byte	.LASF94
 847 0614 0B       		.byte	0xb
 848 0615 E5       		.byte	0xe5
 849 0616 19       		.byte	0x19
 850 0617 2A060000 		.4byte	0x62a
 851 061b 3C       		.byte	0x3c
 852 061c 06       		.uleb128 0x6
 853 061d 12020000 		.4byte	.LASF95
 854 0621 0B       		.byte	0xb
 855 0622 E9       		.byte	0xe9
ARM GAS  /tmp/ccYLzD4W.s 			page 16


 856 0623 19       		.byte	0x19
 857 0624 61060000 		.4byte	0x661
 858 0628 40       		.byte	0x40
 859 0629 00       		.byte	0
 860 062a 03       		.uleb128 0x3
 861 062b DB030000 		.4byte	.LASF96
 862 062f 0B       		.byte	0xb
 863 0630 5E       		.byte	0x5e
 864 0631 10       		.byte	0x10
 865 0632 36060000 		.4byte	0x636
 866 0636 0A       		.uleb128 0xa
 867 0637 04       		.byte	0x4
 868 0638 3C060000 		.4byte	0x63c
 869 063c 11       		.uleb128 0x11
 870 063d 6A040000 		.4byte	0x46a
 871 0641 55060000 		.4byte	0x655
 872 0645 12       		.uleb128 0x12
 873 0646 55060000 		.4byte	0x655
 874 064a 12       		.uleb128 0x12
 875 064b 5B060000 		.4byte	0x65b
 876 064f 12       		.uleb128 0x12
 877 0650 6A040000 		.4byte	0x46a
 878 0654 00       		.byte	0
 879 0655 0A       		.uleb128 0xa
 880 0656 04       		.byte	0x4
 881 0657 8E050000 		.4byte	0x58e
 882 065b 0A       		.uleb128 0xa
 883 065c 04       		.byte	0x4
 884 065d FF040000 		.4byte	0x4ff
 885 0661 03       		.uleb128 0x3
 886 0662 A4010000 		.4byte	.LASF97
 887 0666 0B       		.byte	0xb
 888 0667 6A       		.byte	0x6a
 889 0668 10       		.byte	0x10
 890 0669 36060000 		.4byte	0x636
 891 066d 0A       		.uleb128 0xa
 892 066e 04       		.byte	0x4
 893 066f 7D040000 		.4byte	0x47d
 894 0673 13       		.uleb128 0x13
 895 0674 9B040000 		.4byte	.LASF100
 896 0678 0C       		.byte	0xc
 897 0679 DE01     		.2byte	0x1de
 898 067b 06       		.byte	0x6
 899 067c 6A040000 		.4byte	0x46a
 900 0680 AC060000 		.4byte	0x6ac
 901 0684 14       		.uleb128 0x14
 902 0685 6F637000 		.ascii	"ocp\000"
 903 0689 0C       		.byte	0xc
 904 068a DE01     		.2byte	0x1de
 905 068c 2A       		.byte	0x2a
 906 068d 55060000 		.4byte	0x655
 907 0691 15       		.uleb128 0x15
 908 0692 83000000 		.4byte	.LASF98
 909 0696 0C       		.byte	0xc
 910 0697 DF01     		.2byte	0x1df
 911 0699 26       		.byte	0x26
 912 069a 5B060000 		.4byte	0x65b
ARM GAS  /tmp/ccYLzD4W.s 			page 17


 913 069e 15       		.uleb128 0x15
 914 069f 98030000 		.4byte	.LASF99
 915 06a3 0C       		.byte	0xc
 916 06a4 E001     		.2byte	0x1e0
 917 06a6 1E       		.byte	0x1e
 918 06a7 6A040000 		.4byte	0x46a
 919 06ab 00       		.byte	0
 920 06ac 13       		.uleb128 0x13
 921 06ad 1F020000 		.4byte	.LASF101
 922 06b1 0C       		.byte	0xc
 923 06b2 C101     		.2byte	0x1c1
 924 06b4 06       		.byte	0x6
 925 06b5 6A040000 		.4byte	0x46a
 926 06b9 E5060000 		.4byte	0x6e5
 927 06bd 14       		.uleb128 0x14
 928 06be 6F637000 		.ascii	"ocp\000"
 929 06c2 0C       		.byte	0xc
 930 06c3 C101     		.2byte	0x1c1
 931 06c5 29       		.byte	0x29
 932 06c6 55060000 		.4byte	0x655
 933 06ca 15       		.uleb128 0x15
 934 06cb 83000000 		.4byte	.LASF98
 935 06cf 0C       		.byte	0xc
 936 06d0 C201     		.2byte	0x1c2
 937 06d2 25       		.byte	0x25
 938 06d3 5B060000 		.4byte	0x65b
 939 06d7 15       		.uleb128 0x15
 940 06d8 98030000 		.4byte	.LASF99
 941 06dc 0C       		.byte	0xc
 942 06dd C301     		.2byte	0x1c3
 943 06df 1D       		.byte	0x1d
 944 06e0 6A040000 		.4byte	0x46a
 945 06e4 00       		.byte	0
 946 06e5 16       		.uleb128 0x16
 947 06e6 C5030000 		.4byte	.LASF105
 948 06ea 0C       		.byte	0xc
 949 06eb 7B01     		.2byte	0x17b
 950 06ed 06       		.byte	0x6
 951 06ee 16070000 		.4byte	0x716
 952 06f2 14       		.uleb128 0x14
 953 06f3 6F637000 		.ascii	"ocp\000"
 954 06f7 0C       		.byte	0xc
 955 06f8 7B01     		.2byte	0x17b
 956 06fa 2D       		.byte	0x2d
 957 06fb 55060000 		.4byte	0x655
 958 06ff 15       		.uleb128 0x15
 959 0700 83000000 		.4byte	.LASF98
 960 0704 0C       		.byte	0xc
 961 0705 7C01     		.2byte	0x17c
 962 0707 29       		.byte	0x29
 963 0708 5B060000 		.4byte	0x65b
 964 070c 17       		.uleb128 0x17
 965 070d 60040000 		.4byte	.LASF104
 966 0711 26070000 		.4byte	0x726
 967 0715 00       		.byte	0
 968 0716 18       		.uleb128 0x18
 969 0717 3C040000 		.4byte	0x43c
ARM GAS  /tmp/ccYLzD4W.s 			page 18


 970 071b 26070000 		.4byte	0x726
 971 071f 19       		.uleb128 0x19
 972 0720 30000000 		.4byte	0x30
 973 0724 15       		.byte	0x15
 974 0725 00       		.byte	0
 975 0726 10       		.uleb128 0x10
 976 0727 16070000 		.4byte	0x716
 977 072b 13       		.uleb128 0x13
 978 072c 51050000 		.4byte	.LASF102
 979 0730 0C       		.byte	0xc
 980 0731 3001     		.2byte	0x130
 981 0733 0E       		.byte	0xe
 982 0734 5B060000 		.4byte	0x65b
 983 0738 89070000 		.4byte	0x789
 984 073c 14       		.uleb128 0x14
 985 073d 6F637000 		.ascii	"ocp\000"
 986 0741 0C       		.byte	0xc
 987 0742 3001     		.2byte	0x130
 988 0744 30       		.byte	0x30
 989 0745 55060000 		.4byte	0x655
 990 0749 15       		.uleb128 0x15
 991 074a D7000000 		.4byte	.LASF103
 992 074e 0C       		.byte	0xc
 993 074f 3101     		.2byte	0x131
 994 0751 28       		.byte	0x28
 995 0752 BE000000 		.4byte	0xbe
 996 0756 14       		.uleb128 0x14
 997 0757 6B657900 		.ascii	"key\000"
 998 075b 0C       		.byte	0xc
 999 075c 3201     		.2byte	0x132
 1000 075e 28       		.byte	0x28
 1001 075f BE000000 		.4byte	0xbe
 1002 0763 1A       		.uleb128 0x1a
 1003 0764 83000000 		.4byte	.LASF98
 1004 0768 0C       		.byte	0xc
 1005 0769 3301     		.2byte	0x133
 1006 076b 10       		.byte	0x10
 1007 076c 5B060000 		.4byte	0x65b
 1008 0770 17       		.uleb128 0x17
 1009 0771 60040000 		.4byte	.LASF104
 1010 0775 99070000 		.4byte	0x799
 1011 0779 1B       		.uleb128 0x1b
 1012 077a 1C       		.uleb128 0x1c
 1013 077b 68687000 		.ascii	"hhp\000"
 1014 077f 0C       		.byte	0xc
 1015 0780 6101     		.2byte	0x161
 1016 0782 05       		.byte	0x5
 1017 0783 6D060000 		.4byte	0x66d
 1018 0787 00       		.byte	0
 1019 0788 00       		.byte	0
 1020 0789 18       		.uleb128 0x18
 1021 078a 3C040000 		.4byte	0x43c
 1022 078e 99070000 		.4byte	0x799
 1023 0792 19       		.uleb128 0x19
 1024 0793 30000000 		.4byte	0x30
 1025 0797 10       		.byte	0x10
 1026 0798 00       		.byte	0
ARM GAS  /tmp/ccYLzD4W.s 			page 19


 1027 0799 10       		.uleb128 0x10
 1028 079a 89070000 		.4byte	0x789
 1029 079e 1D       		.uleb128 0x1d
 1030 079f 7D040000 		.4byte	.LASF106
 1031 07a3 0C       		.byte	0xc
 1032 07a4 F1       		.byte	0xf1
 1033 07a5 06       		.byte	0x6
 1034 07a6 23080000 		.4byte	0x823
 1035 07aa 1E       		.uleb128 0x1e
 1036 07ab 6F637000 		.ascii	"ocp\000"
 1037 07af 0C       		.byte	0xc
 1038 07b0 F1       		.byte	0xf1
 1039 07b1 29       		.byte	0x29
 1040 07b2 55060000 		.4byte	0x655
 1041 07b6 1F       		.uleb128 0x1f
 1042 07b7 0F010000 		.4byte	.LASF87
 1043 07bb 0C       		.byte	0xc
 1044 07bc F2       		.byte	0xf2
 1045 07bd 1F       		.byte	0x1f
 1046 07be 2A010000 		.4byte	0x12a
 1047 07c2 1F       		.uleb128 0x1f
 1048 07c3 15010000 		.4byte	.LASF88
 1049 07c7 0C       		.byte	0xc
 1050 07c8 F3       		.byte	0xf3
 1051 07c9 2A       		.byte	0x2a
 1052 07ca 6D060000 		.4byte	0x66d
 1053 07ce 1F       		.uleb128 0x1f
 1054 07cf 73040000 		.4byte	.LASF89
 1055 07d3 0C       		.byte	0xc
 1056 07d4 F4       		.byte	0xf4
 1057 07d5 1F       		.byte	0x1f
 1058 07d6 2A010000 		.4byte	0x12a
 1059 07da 1F       		.uleb128 0x1f
 1060 07db 20040000 		.4byte	.LASF90
 1061 07df 0C       		.byte	0xc
 1062 07e0 F5       		.byte	0xf5
 1063 07e1 1F       		.byte	0x1f
 1064 07e2 24000000 		.4byte	0x24
 1065 07e6 1F       		.uleb128 0x1f
 1066 07e7 42040000 		.4byte	.LASF91
 1067 07eb 0C       		.byte	0xc
 1068 07ec F6       		.byte	0xf6
 1069 07ed 1E       		.byte	0x1e
 1070 07ee 9F020000 		.4byte	0x29f
 1071 07f2 1F       		.uleb128 0x1f
 1072 07f3 73000000 		.4byte	.LASF94
 1073 07f7 0C       		.byte	0xc
 1074 07f8 F7       		.byte	0xf7
 1075 07f9 23       		.byte	0x23
 1076 07fa 2A060000 		.4byte	0x62a
 1077 07fe 1F       		.uleb128 0x1f
 1078 07ff 12020000 		.4byte	.LASF95
 1079 0803 0C       		.byte	0xc
 1080 0804 F8       		.byte	0xf8
 1081 0805 24       		.byte	0x24
 1082 0806 61060000 		.4byte	0x661
 1083 080a 17       		.uleb128 0x17
ARM GAS  /tmp/ccYLzD4W.s 			page 20


 1084 080b 60040000 		.4byte	.LASF104
 1085 080f 33080000 		.4byte	0x833
 1086 0813 1B       		.uleb128 0x1b
 1087 0814 1A       		.uleb128 0x1a
 1088 0815 83000000 		.4byte	.LASF98
 1089 0819 0C       		.byte	0xc
 1090 081a 1601     		.2byte	0x116
 1091 081c 12       		.byte	0x12
 1092 081d 5B060000 		.4byte	0x65b
 1093 0821 00       		.byte	0
 1094 0822 00       		.byte	0
 1095 0823 18       		.uleb128 0x18
 1096 0824 3C040000 		.4byte	0x43c
 1097 0828 33080000 		.4byte	0x833
 1098 082c 19       		.uleb128 0x19
 1099 082d 30000000 		.4byte	0x30
 1100 0831 11       		.byte	0x11
 1101 0832 00       		.byte	0
 1102 0833 10       		.uleb128 0x10
 1103 0834 23080000 		.4byte	0x823
 1104 0838 20       		.uleb128 0x20
 1105 0839 5A030000 		.4byte	.LASF107
 1106 083d 0C       		.byte	0xc
 1107 083e A5       		.byte	0xa5
 1108 083f 15       		.byte	0x15
 1109 0840 5B060000 		.4byte	0x65b
 1110 0844 6A080000 		.4byte	0x86a
 1111 0848 1E       		.uleb128 0x1e
 1112 0849 6F637000 		.ascii	"ocp\000"
 1113 084d 0C       		.byte	0xc
 1114 084e A5       		.byte	0xa5
 1115 084f 35       		.byte	0x35
 1116 0850 55060000 		.4byte	0x655
 1117 0854 21       		.uleb128 0x21
 1118 0855 83000000 		.4byte	.LASF98
 1119 0859 0C       		.byte	0xc
 1120 085a A6       		.byte	0xa6
 1121 085b 10       		.byte	0x10
 1122 085c 5B060000 		.4byte	0x65b
 1123 0860 17       		.uleb128 0x17
 1124 0861 60040000 		.4byte	.LASF104
 1125 0865 7A080000 		.4byte	0x87a
 1126 0869 00       		.byte	0
 1127 086a 18       		.uleb128 0x18
 1128 086b 3C040000 		.4byte	0x43c
 1129 086f 7A080000 		.4byte	0x87a
 1130 0873 19       		.uleb128 0x19
 1131 0874 30000000 		.4byte	0x30
 1132 0878 0E       		.byte	0xe
 1133 0879 00       		.byte	0
 1134 087a 10       		.uleb128 0x10
 1135 087b 6A080000 		.4byte	0x86a
 1136 087f 20       		.uleb128 0x20
 1137 0880 2B030000 		.4byte	.LASF108
 1138 0884 0C       		.byte	0xc
 1139 0885 86       		.byte	0x86
 1140 0886 15       		.byte	0x15
ARM GAS  /tmp/ccYLzD4W.s 			page 21


 1141 0887 5B060000 		.4byte	0x65b
 1142 088b CC080000 		.4byte	0x8cc
 1143 088f 1E       		.uleb128 0x1e
 1144 0890 6F637000 		.ascii	"ocp\000"
 1145 0894 0C       		.byte	0xc
 1146 0895 86       		.byte	0x86
 1147 0896 31       		.byte	0x31
 1148 0897 55060000 		.4byte	0x655
 1149 089b 1F       		.uleb128 0x1f
 1150 089c D7000000 		.4byte	.LASF103
 1151 08a0 0C       		.byte	0xc
 1152 08a1 87       		.byte	0x87
 1153 08a2 29       		.byte	0x29
 1154 08a3 BE000000 		.4byte	0xbe
 1155 08a7 1E       		.uleb128 0x1e
 1156 08a8 6B657900 		.ascii	"key\000"
 1157 08ac 0C       		.byte	0xc
 1158 08ad 88       		.byte	0x88
 1159 08ae 29       		.byte	0x29
 1160 08af BE000000 		.4byte	0xbe
 1161 08b3 22       		.uleb128 0x22
 1162 08b4 68687000 		.ascii	"hhp\000"
 1163 08b8 0C       		.byte	0xc
 1164 08b9 89       		.byte	0x89
 1165 08ba 15       		.byte	0x15
 1166 08bb 6D060000 		.4byte	0x66d
 1167 08bf 21       		.uleb128 0x21
 1168 08c0 83000000 		.4byte	.LASF98
 1169 08c4 0C       		.byte	0xc
 1170 08c5 8A       		.byte	0x8a
 1171 08c6 10       		.byte	0x10
 1172 08c7 5B060000 		.4byte	0x65b
 1173 08cb 00       		.byte	0
 1174 08cc 20       		.uleb128 0x20
 1175 08cd 20050000 		.4byte	.LASF109
 1176 08d1 09       		.byte	0x9
 1177 08d2 BD       		.byte	0xbd
 1178 08d3 15       		.byte	0x15
 1179 08d4 1E010000 		.4byte	0x11e
 1180 08d8 E8080000 		.4byte	0x8e8
 1181 08dc 1E       		.uleb128 0x1e
 1182 08dd 737000   		.ascii	"sp\000"
 1183 08e0 09       		.byte	0x9
 1184 08e1 BD       		.byte	0xbd
 1185 08e2 39       		.byte	0x39
 1186 08e3 E8080000 		.4byte	0x8e8
 1187 08e7 00       		.byte	0
 1188 08e8 0A       		.uleb128 0xa
 1189 08e9 04       		.byte	0x4
 1190 08ea 53040000 		.4byte	0x453
 1191 08ee 23       		.uleb128 0x23
 1192 08ef 48040000 		.4byte	.LASF110
 1193 08f3 09       		.byte	0x9
 1194 08f4 AE       		.byte	0xae
 1195 08f5 14       		.byte	0x14
 1196 08f6 06090000 		.4byte	0x906
 1197 08fa 1E       		.uleb128 0x1e
ARM GAS  /tmp/ccYLzD4W.s 			page 22


 1198 08fb 737000   		.ascii	"sp\000"
 1199 08fe 09       		.byte	0x9
 1200 08ff AE       		.byte	0xae
 1201 0900 32       		.byte	0x32
 1202 0901 06090000 		.4byte	0x906
 1203 0905 00       		.byte	0
 1204 0906 0A       		.uleb128 0xa
 1205 0907 04       		.byte	0x4
 1206 0908 47040000 		.4byte	0x447
 1207 090c 23       		.uleb128 0x23
 1208 090d 62050000 		.4byte	.LASF111
 1209 0911 09       		.byte	0x9
 1210 0912 9E       		.byte	0x9e
 1211 0913 14       		.byte	0x14
 1212 0914 24090000 		.4byte	0x924
 1213 0918 1E       		.uleb128 0x1e
 1214 0919 737000   		.ascii	"sp\000"
 1215 091c 09       		.byte	0x9
 1216 091d 9E       		.byte	0x9e
 1217 091e 30       		.byte	0x30
 1218 091f 06090000 		.4byte	0x906
 1219 0923 00       		.byte	0
 1220 0924 24       		.uleb128 0x24
 1221 0925 B9050000 		.4byte	.LASF112
 1222 0929 0D       		.byte	0xd
 1223 092a 6D01     		.2byte	0x16d
 1224 092c 14       		.byte	0x14
 1225 092d 3B090000 		.4byte	0x93b
 1226 0931 17       		.uleb128 0x17
 1227 0932 60040000 		.4byte	.LASF104
 1228 0936 4B090000 		.4byte	0x94b
 1229 093a 00       		.byte	0
 1230 093b 18       		.uleb128 0x18
 1231 093c 3C040000 		.4byte	0x43c
 1232 0940 4B090000 		.4byte	0x94b
 1233 0944 19       		.uleb128 0x19
 1234 0945 30000000 		.4byte	0x30
 1235 0949 0B       		.byte	0xb
 1236 094a 00       		.byte	0
 1237 094b 10       		.uleb128 0x10
 1238 094c 3B090000 		.4byte	0x93b
 1239 0950 25       		.uleb128 0x25
 1240 0951 69040000 		.4byte	.LASF113
 1241 0955 0D       		.byte	0xd
 1242 0956 6101     		.2byte	0x161
 1243 0958 14       		.byte	0x14
 1244 0959 25       		.uleb128 0x25
 1245 095a BB000000 		.4byte	.LASF114
 1246 095e 08       		.byte	0x8
 1247 095f B502     		.2byte	0x2b5
 1248 0961 1B       		.byte	0x1b
 1249 0962 25       		.uleb128 0x25
 1250 0963 41000000 		.4byte	.LASF115
 1251 0967 08       		.byte	0x8
 1252 0968 9D02     		.2byte	0x29d
 1253 096a 1B       		.byte	0x1b
 1254 096b 26       		.uleb128 0x26
ARM GAS  /tmp/ccYLzD4W.s 			page 23


 1255 096c 31050000 		.4byte	.LASF120
 1256 0970 0E       		.byte	0xe
 1257 0971 EB01     		.2byte	0x1eb
 1258 0973 1B       		.byte	0x1b
 1259 0974 15       		.uleb128 0x15
 1260 0975 B3000000 		.4byte	.LASF116
 1261 0979 0E       		.byte	0xe
 1262 097a EB01     		.2byte	0x1eb
 1263 097c 32       		.byte	0x32
 1264 097d BE000000 		.4byte	0xbe
 1265 0981 00       		.byte	0
 1266 0982 00       		.byte	0
 1267              		.section	.gnu.debuglto_.debug_abbrev,"e",%progbits
 1268              	.Ldebug_abbrev0:
 1269 0000 01       		.uleb128 0x1
 1270 0001 11       		.uleb128 0x11
 1271 0002 01       		.byte	0x1
 1272 0003 25       		.uleb128 0x25
 1273 0004 0E       		.uleb128 0xe
 1274 0005 13       		.uleb128 0x13
 1275 0006 0B       		.uleb128 0xb
 1276 0007 03       		.uleb128 0x3
 1277 0008 0E       		.uleb128 0xe
 1278 0009 1B       		.uleb128 0x1b
 1279 000a 0E       		.uleb128 0xe
 1280 000b 10       		.uleb128 0x10
 1281 000c 17       		.uleb128 0x17
 1282 000d 00       		.byte	0
 1283 000e 00       		.byte	0
 1284 000f 02       		.uleb128 0x2
 1285 0010 24       		.uleb128 0x24
 1286 0011 00       		.byte	0
 1287 0012 0B       		.uleb128 0xb
 1288 0013 0B       		.uleb128 0xb
 1289 0014 3E       		.uleb128 0x3e
 1290 0015 0B       		.uleb128 0xb
 1291 0016 03       		.uleb128 0x3
 1292 0017 08       		.uleb128 0x8
 1293 0018 00       		.byte	0
 1294 0019 00       		.byte	0
 1295 001a 03       		.uleb128 0x3
 1296 001b 16       		.uleb128 0x16
 1297 001c 00       		.byte	0
 1298 001d 03       		.uleb128 0x3
 1299 001e 0E       		.uleb128 0xe
 1300 001f 3A       		.uleb128 0x3a
 1301 0020 0B       		.uleb128 0xb
 1302 0021 3B       		.uleb128 0x3b
 1303 0022 0B       		.uleb128 0xb
 1304 0023 39       		.uleb128 0x39
 1305 0024 0B       		.uleb128 0xb
 1306 0025 49       		.uleb128 0x49
 1307 0026 13       		.uleb128 0x13
 1308 0027 00       		.byte	0
 1309 0028 00       		.byte	0
 1310 0029 04       		.uleb128 0x4
 1311 002a 24       		.uleb128 0x24
ARM GAS  /tmp/ccYLzD4W.s 			page 24


 1312 002b 00       		.byte	0
 1313 002c 0B       		.uleb128 0xb
 1314 002d 0B       		.uleb128 0xb
 1315 002e 3E       		.uleb128 0x3e
 1316 002f 0B       		.uleb128 0xb
 1317 0030 03       		.uleb128 0x3
 1318 0031 0E       		.uleb128 0xe
 1319 0032 00       		.byte	0
 1320 0033 00       		.byte	0
 1321 0034 05       		.uleb128 0x5
 1322 0035 13       		.uleb128 0x13
 1323 0036 01       		.byte	0x1
 1324 0037 03       		.uleb128 0x3
 1325 0038 0E       		.uleb128 0xe
 1326 0039 0B       		.uleb128 0xb
 1327 003a 0B       		.uleb128 0xb
 1328 003b 3A       		.uleb128 0x3a
 1329 003c 0B       		.uleb128 0xb
 1330 003d 3B       		.uleb128 0x3b
 1331 003e 0B       		.uleb128 0xb
 1332 003f 39       		.uleb128 0x39
 1333 0040 0B       		.uleb128 0xb
 1334 0041 01       		.uleb128 0x1
 1335 0042 13       		.uleb128 0x13
 1336 0043 00       		.byte	0
 1337 0044 00       		.byte	0
 1338 0045 06       		.uleb128 0x6
 1339 0046 0D       		.uleb128 0xd
 1340 0047 00       		.byte	0
 1341 0048 03       		.uleb128 0x3
 1342 0049 0E       		.uleb128 0xe
 1343 004a 3A       		.uleb128 0x3a
 1344 004b 0B       		.uleb128 0xb
 1345 004c 3B       		.uleb128 0x3b
 1346 004d 0B       		.uleb128 0xb
 1347 004e 39       		.uleb128 0x39
 1348 004f 0B       		.uleb128 0xb
 1349 0050 49       		.uleb128 0x49
 1350 0051 13       		.uleb128 0x13
 1351 0052 38       		.uleb128 0x38
 1352 0053 0B       		.uleb128 0xb
 1353 0054 00       		.byte	0
 1354 0055 00       		.byte	0
 1355 0056 07       		.uleb128 0x7
 1356 0057 0D       		.uleb128 0xd
 1357 0058 00       		.byte	0
 1358 0059 03       		.uleb128 0x3
 1359 005a 08       		.uleb128 0x8
 1360 005b 3A       		.uleb128 0x3a
 1361 005c 0B       		.uleb128 0xb
 1362 005d 3B       		.uleb128 0x3b
 1363 005e 0B       		.uleb128 0xb
 1364 005f 39       		.uleb128 0x39
 1365 0060 0B       		.uleb128 0xb
 1366 0061 49       		.uleb128 0x49
 1367 0062 13       		.uleb128 0x13
 1368 0063 38       		.uleb128 0x38
ARM GAS  /tmp/ccYLzD4W.s 			page 25


 1369 0064 0B       		.uleb128 0xb
 1370 0065 00       		.byte	0
 1371 0066 00       		.byte	0
 1372 0067 08       		.uleb128 0x8
 1373 0068 0D       		.uleb128 0xd
 1374 0069 00       		.byte	0
 1375 006a 03       		.uleb128 0x3
 1376 006b 08       		.uleb128 0x8
 1377 006c 3A       		.uleb128 0x3a
 1378 006d 0B       		.uleb128 0xb
 1379 006e 3B       		.uleb128 0x3b
 1380 006f 05       		.uleb128 0x5
 1381 0070 39       		.uleb128 0x39
 1382 0071 0B       		.uleb128 0xb
 1383 0072 49       		.uleb128 0x49
 1384 0073 13       		.uleb128 0x13
 1385 0074 38       		.uleb128 0x38
 1386 0075 0B       		.uleb128 0xb
 1387 0076 00       		.byte	0
 1388 0077 00       		.byte	0
 1389 0078 09       		.uleb128 0x9
 1390 0079 0D       		.uleb128 0xd
 1391 007a 00       		.byte	0
 1392 007b 03       		.uleb128 0x3
 1393 007c 0E       		.uleb128 0xe
 1394 007d 3A       		.uleb128 0x3a
 1395 007e 0B       		.uleb128 0xb
 1396 007f 3B       		.uleb128 0x3b
 1397 0080 05       		.uleb128 0x5
 1398 0081 39       		.uleb128 0x39
 1399 0082 0B       		.uleb128 0xb
 1400 0083 49       		.uleb128 0x49
 1401 0084 13       		.uleb128 0x13
 1402 0085 38       		.uleb128 0x38
 1403 0086 0B       		.uleb128 0xb
 1404 0087 00       		.byte	0
 1405 0088 00       		.byte	0
 1406 0089 0A       		.uleb128 0xa
 1407 008a 0F       		.uleb128 0xf
 1408 008b 00       		.byte	0
 1409 008c 0B       		.uleb128 0xb
 1410 008d 0B       		.uleb128 0xb
 1411 008e 49       		.uleb128 0x49
 1412 008f 13       		.uleb128 0x13
 1413 0090 00       		.byte	0
 1414 0091 00       		.byte	0
 1415 0092 0B       		.uleb128 0xb
 1416 0093 0F       		.uleb128 0xf
 1417 0094 00       		.byte	0
 1418 0095 0B       		.uleb128 0xb
 1419 0096 0B       		.uleb128 0xb
 1420 0097 00       		.byte	0
 1421 0098 00       		.byte	0
 1422 0099 0C       		.uleb128 0xc
 1423 009a 13       		.uleb128 0x13
 1424 009b 01       		.byte	0x1
 1425 009c 03       		.uleb128 0x3
ARM GAS  /tmp/ccYLzD4W.s 			page 26


 1426 009d 0E       		.uleb128 0xe
 1427 009e 0B       		.uleb128 0xb
 1428 009f 0B       		.uleb128 0xb
 1429 00a0 3A       		.uleb128 0x3a
 1430 00a1 0B       		.uleb128 0xb
 1431 00a2 3B       		.uleb128 0x3b
 1432 00a3 05       		.uleb128 0x5
 1433 00a4 39       		.uleb128 0x39
 1434 00a5 0B       		.uleb128 0xb
 1435 00a6 01       		.uleb128 0x1
 1436 00a7 13       		.uleb128 0x13
 1437 00a8 00       		.byte	0
 1438 00a9 00       		.byte	0
 1439 00aa 0D       		.uleb128 0xd
 1440 00ab 17       		.uleb128 0x17
 1441 00ac 01       		.byte	0x1
 1442 00ad 0B       		.uleb128 0xb
 1443 00ae 0B       		.uleb128 0xb
 1444 00af 3A       		.uleb128 0x3a
 1445 00b0 0B       		.uleb128 0xb
 1446 00b1 3B       		.uleb128 0x3b
 1447 00b2 0B       		.uleb128 0xb
 1448 00b3 39       		.uleb128 0x39
 1449 00b4 0B       		.uleb128 0xb
 1450 00b5 01       		.uleb128 0x1
 1451 00b6 13       		.uleb128 0x13
 1452 00b7 00       		.byte	0
 1453 00b8 00       		.byte	0
 1454 00b9 0E       		.uleb128 0xe
 1455 00ba 0D       		.uleb128 0xd
 1456 00bb 00       		.byte	0
 1457 00bc 03       		.uleb128 0x3
 1458 00bd 0E       		.uleb128 0xe
 1459 00be 3A       		.uleb128 0x3a
 1460 00bf 0B       		.uleb128 0xb
 1461 00c0 3B       		.uleb128 0x3b
 1462 00c1 0B       		.uleb128 0xb
 1463 00c2 39       		.uleb128 0x39
 1464 00c3 0B       		.uleb128 0xb
 1465 00c4 49       		.uleb128 0x49
 1466 00c5 13       		.uleb128 0x13
 1467 00c6 00       		.byte	0
 1468 00c7 00       		.byte	0
 1469 00c8 0F       		.uleb128 0xf
 1470 00c9 0D       		.uleb128 0xd
 1471 00ca 00       		.byte	0
 1472 00cb 03       		.uleb128 0x3
 1473 00cc 0E       		.uleb128 0xe
 1474 00cd 3A       		.uleb128 0x3a
 1475 00ce 0B       		.uleb128 0xb
 1476 00cf 3B       		.uleb128 0x3b
 1477 00d0 05       		.uleb128 0x5
 1478 00d1 39       		.uleb128 0x39
 1479 00d2 0B       		.uleb128 0xb
 1480 00d3 49       		.uleb128 0x49
 1481 00d4 13       		.uleb128 0x13
 1482 00d5 00       		.byte	0
ARM GAS  /tmp/ccYLzD4W.s 			page 27


 1483 00d6 00       		.byte	0
 1484 00d7 10       		.uleb128 0x10
 1485 00d8 26       		.uleb128 0x26
 1486 00d9 00       		.byte	0
 1487 00da 49       		.uleb128 0x49
 1488 00db 13       		.uleb128 0x13
 1489 00dc 00       		.byte	0
 1490 00dd 00       		.byte	0
 1491 00de 11       		.uleb128 0x11
 1492 00df 15       		.uleb128 0x15
 1493 00e0 01       		.byte	0x1
 1494 00e1 27       		.uleb128 0x27
 1495 00e2 19       		.uleb128 0x19
 1496 00e3 49       		.uleb128 0x49
 1497 00e4 13       		.uleb128 0x13
 1498 00e5 01       		.uleb128 0x1
 1499 00e6 13       		.uleb128 0x13
 1500 00e7 00       		.byte	0
 1501 00e8 00       		.byte	0
 1502 00e9 12       		.uleb128 0x12
 1503 00ea 05       		.uleb128 0x5
 1504 00eb 00       		.byte	0
 1505 00ec 49       		.uleb128 0x49
 1506 00ed 13       		.uleb128 0x13
 1507 00ee 00       		.byte	0
 1508 00ef 00       		.byte	0
 1509 00f0 13       		.uleb128 0x13
 1510 00f1 2E       		.uleb128 0x2e
 1511 00f2 01       		.byte	0x1
 1512 00f3 3F       		.uleb128 0x3f
 1513 00f4 19       		.uleb128 0x19
 1514 00f5 03       		.uleb128 0x3
 1515 00f6 0E       		.uleb128 0xe
 1516 00f7 3A       		.uleb128 0x3a
 1517 00f8 0B       		.uleb128 0xb
 1518 00f9 3B       		.uleb128 0x3b
 1519 00fa 05       		.uleb128 0x5
 1520 00fb 39       		.uleb128 0x39
 1521 00fc 0B       		.uleb128 0xb
 1522 00fd 27       		.uleb128 0x27
 1523 00fe 19       		.uleb128 0x19
 1524 00ff 49       		.uleb128 0x49
 1525 0100 13       		.uleb128 0x13
 1526 0101 01       		.uleb128 0x1
 1527 0102 13       		.uleb128 0x13
 1528 0103 00       		.byte	0
 1529 0104 00       		.byte	0
 1530 0105 14       		.uleb128 0x14
 1531 0106 05       		.uleb128 0x5
 1532 0107 00       		.byte	0
 1533 0108 03       		.uleb128 0x3
 1534 0109 08       		.uleb128 0x8
 1535 010a 3A       		.uleb128 0x3a
 1536 010b 0B       		.uleb128 0xb
 1537 010c 3B       		.uleb128 0x3b
 1538 010d 05       		.uleb128 0x5
 1539 010e 39       		.uleb128 0x39
ARM GAS  /tmp/ccYLzD4W.s 			page 28


 1540 010f 0B       		.uleb128 0xb
 1541 0110 49       		.uleb128 0x49
 1542 0111 13       		.uleb128 0x13
 1543 0112 00       		.byte	0
 1544 0113 00       		.byte	0
 1545 0114 15       		.uleb128 0x15
 1546 0115 05       		.uleb128 0x5
 1547 0116 00       		.byte	0
 1548 0117 03       		.uleb128 0x3
 1549 0118 0E       		.uleb128 0xe
 1550 0119 3A       		.uleb128 0x3a
 1551 011a 0B       		.uleb128 0xb
 1552 011b 3B       		.uleb128 0x3b
 1553 011c 05       		.uleb128 0x5
 1554 011d 39       		.uleb128 0x39
 1555 011e 0B       		.uleb128 0xb
 1556 011f 49       		.uleb128 0x49
 1557 0120 13       		.uleb128 0x13
 1558 0121 00       		.byte	0
 1559 0122 00       		.byte	0
 1560 0123 16       		.uleb128 0x16
 1561 0124 2E       		.uleb128 0x2e
 1562 0125 01       		.byte	0x1
 1563 0126 3F       		.uleb128 0x3f
 1564 0127 19       		.uleb128 0x19
 1565 0128 03       		.uleb128 0x3
 1566 0129 0E       		.uleb128 0xe
 1567 012a 3A       		.uleb128 0x3a
 1568 012b 0B       		.uleb128 0xb
 1569 012c 3B       		.uleb128 0x3b
 1570 012d 05       		.uleb128 0x5
 1571 012e 39       		.uleb128 0x39
 1572 012f 0B       		.uleb128 0xb
 1573 0130 27       		.uleb128 0x27
 1574 0131 19       		.uleb128 0x19
 1575 0132 01       		.uleb128 0x1
 1576 0133 13       		.uleb128 0x13
 1577 0134 00       		.byte	0
 1578 0135 00       		.byte	0
 1579 0136 17       		.uleb128 0x17
 1580 0137 34       		.uleb128 0x34
 1581 0138 00       		.byte	0
 1582 0139 03       		.uleb128 0x3
 1583 013a 0E       		.uleb128 0xe
 1584 013b 49       		.uleb128 0x49
 1585 013c 13       		.uleb128 0x13
 1586 013d 34       		.uleb128 0x34
 1587 013e 19       		.uleb128 0x19
 1588 013f 00       		.byte	0
 1589 0140 00       		.byte	0
 1590 0141 18       		.uleb128 0x18
 1591 0142 01       		.uleb128 0x1
 1592 0143 01       		.byte	0x1
 1593 0144 49       		.uleb128 0x49
 1594 0145 13       		.uleb128 0x13
 1595 0146 01       		.uleb128 0x1
 1596 0147 13       		.uleb128 0x13
ARM GAS  /tmp/ccYLzD4W.s 			page 29


 1597 0148 00       		.byte	0
 1598 0149 00       		.byte	0
 1599 014a 19       		.uleb128 0x19
 1600 014b 21       		.uleb128 0x21
 1601 014c 00       		.byte	0
 1602 014d 49       		.uleb128 0x49
 1603 014e 13       		.uleb128 0x13
 1604 014f 2F       		.uleb128 0x2f
 1605 0150 0B       		.uleb128 0xb
 1606 0151 00       		.byte	0
 1607 0152 00       		.byte	0
 1608 0153 1A       		.uleb128 0x1a
 1609 0154 34       		.uleb128 0x34
 1610 0155 00       		.byte	0
 1611 0156 03       		.uleb128 0x3
 1612 0157 0E       		.uleb128 0xe
 1613 0158 3A       		.uleb128 0x3a
 1614 0159 0B       		.uleb128 0xb
 1615 015a 3B       		.uleb128 0x3b
 1616 015b 05       		.uleb128 0x5
 1617 015c 39       		.uleb128 0x39
 1618 015d 0B       		.uleb128 0xb
 1619 015e 49       		.uleb128 0x49
 1620 015f 13       		.uleb128 0x13
 1621 0160 00       		.byte	0
 1622 0161 00       		.byte	0
 1623 0162 1B       		.uleb128 0x1b
 1624 0163 0B       		.uleb128 0xb
 1625 0164 01       		.byte	0x1
 1626 0165 00       		.byte	0
 1627 0166 00       		.byte	0
 1628 0167 1C       		.uleb128 0x1c
 1629 0168 34       		.uleb128 0x34
 1630 0169 00       		.byte	0
 1631 016a 03       		.uleb128 0x3
 1632 016b 08       		.uleb128 0x8
 1633 016c 3A       		.uleb128 0x3a
 1634 016d 0B       		.uleb128 0xb
 1635 016e 3B       		.uleb128 0x3b
 1636 016f 05       		.uleb128 0x5
 1637 0170 39       		.uleb128 0x39
 1638 0171 0B       		.uleb128 0xb
 1639 0172 49       		.uleb128 0x49
 1640 0173 13       		.uleb128 0x13
 1641 0174 00       		.byte	0
 1642 0175 00       		.byte	0
 1643 0176 1D       		.uleb128 0x1d
 1644 0177 2E       		.uleb128 0x2e
 1645 0178 01       		.byte	0x1
 1646 0179 3F       		.uleb128 0x3f
 1647 017a 19       		.uleb128 0x19
 1648 017b 03       		.uleb128 0x3
 1649 017c 0E       		.uleb128 0xe
 1650 017d 3A       		.uleb128 0x3a
 1651 017e 0B       		.uleb128 0xb
 1652 017f 3B       		.uleb128 0x3b
 1653 0180 0B       		.uleb128 0xb
ARM GAS  /tmp/ccYLzD4W.s 			page 30


 1654 0181 39       		.uleb128 0x39
 1655 0182 0B       		.uleb128 0xb
 1656 0183 27       		.uleb128 0x27
 1657 0184 19       		.uleb128 0x19
 1658 0185 01       		.uleb128 0x1
 1659 0186 13       		.uleb128 0x13
 1660 0187 00       		.byte	0
 1661 0188 00       		.byte	0
 1662 0189 1E       		.uleb128 0x1e
 1663 018a 05       		.uleb128 0x5
 1664 018b 00       		.byte	0
 1665 018c 03       		.uleb128 0x3
 1666 018d 08       		.uleb128 0x8
 1667 018e 3A       		.uleb128 0x3a
 1668 018f 0B       		.uleb128 0xb
 1669 0190 3B       		.uleb128 0x3b
 1670 0191 0B       		.uleb128 0xb
 1671 0192 39       		.uleb128 0x39
 1672 0193 0B       		.uleb128 0xb
 1673 0194 49       		.uleb128 0x49
 1674 0195 13       		.uleb128 0x13
 1675 0196 00       		.byte	0
 1676 0197 00       		.byte	0
 1677 0198 1F       		.uleb128 0x1f
 1678 0199 05       		.uleb128 0x5
 1679 019a 00       		.byte	0
 1680 019b 03       		.uleb128 0x3
 1681 019c 0E       		.uleb128 0xe
 1682 019d 3A       		.uleb128 0x3a
 1683 019e 0B       		.uleb128 0xb
 1684 019f 3B       		.uleb128 0x3b
 1685 01a0 0B       		.uleb128 0xb
 1686 01a1 39       		.uleb128 0x39
 1687 01a2 0B       		.uleb128 0xb
 1688 01a3 49       		.uleb128 0x49
 1689 01a4 13       		.uleb128 0x13
 1690 01a5 00       		.byte	0
 1691 01a6 00       		.byte	0
 1692 01a7 20       		.uleb128 0x20
 1693 01a8 2E       		.uleb128 0x2e
 1694 01a9 01       		.byte	0x1
 1695 01aa 03       		.uleb128 0x3
 1696 01ab 0E       		.uleb128 0xe
 1697 01ac 3A       		.uleb128 0x3a
 1698 01ad 0B       		.uleb128 0xb
 1699 01ae 3B       		.uleb128 0x3b
 1700 01af 0B       		.uleb128 0xb
 1701 01b0 39       		.uleb128 0x39
 1702 01b1 0B       		.uleb128 0xb
 1703 01b2 27       		.uleb128 0x27
 1704 01b3 19       		.uleb128 0x19
 1705 01b4 49       		.uleb128 0x49
 1706 01b5 13       		.uleb128 0x13
 1707 01b6 01       		.uleb128 0x1
 1708 01b7 13       		.uleb128 0x13
 1709 01b8 00       		.byte	0
 1710 01b9 00       		.byte	0
ARM GAS  /tmp/ccYLzD4W.s 			page 31


 1711 01ba 21       		.uleb128 0x21
 1712 01bb 34       		.uleb128 0x34
 1713 01bc 00       		.byte	0
 1714 01bd 03       		.uleb128 0x3
 1715 01be 0E       		.uleb128 0xe
 1716 01bf 3A       		.uleb128 0x3a
 1717 01c0 0B       		.uleb128 0xb
 1718 01c1 3B       		.uleb128 0x3b
 1719 01c2 0B       		.uleb128 0xb
 1720 01c3 39       		.uleb128 0x39
 1721 01c4 0B       		.uleb128 0xb
 1722 01c5 49       		.uleb128 0x49
 1723 01c6 13       		.uleb128 0x13
 1724 01c7 00       		.byte	0
 1725 01c8 00       		.byte	0
 1726 01c9 22       		.uleb128 0x22
 1727 01ca 34       		.uleb128 0x34
 1728 01cb 00       		.byte	0
 1729 01cc 03       		.uleb128 0x3
 1730 01cd 08       		.uleb128 0x8
 1731 01ce 3A       		.uleb128 0x3a
 1732 01cf 0B       		.uleb128 0xb
 1733 01d0 3B       		.uleb128 0x3b
 1734 01d1 0B       		.uleb128 0xb
 1735 01d2 39       		.uleb128 0x39
 1736 01d3 0B       		.uleb128 0xb
 1737 01d4 49       		.uleb128 0x49
 1738 01d5 13       		.uleb128 0x13
 1739 01d6 00       		.byte	0
 1740 01d7 00       		.byte	0
 1741 01d8 23       		.uleb128 0x23
 1742 01d9 2E       		.uleb128 0x2e
 1743 01da 01       		.byte	0x1
 1744 01db 03       		.uleb128 0x3
 1745 01dc 0E       		.uleb128 0xe
 1746 01dd 3A       		.uleb128 0x3a
 1747 01de 0B       		.uleb128 0xb
 1748 01df 3B       		.uleb128 0x3b
 1749 01e0 0B       		.uleb128 0xb
 1750 01e1 39       		.uleb128 0x39
 1751 01e2 0B       		.uleb128 0xb
 1752 01e3 27       		.uleb128 0x27
 1753 01e4 19       		.uleb128 0x19
 1754 01e5 01       		.uleb128 0x1
 1755 01e6 13       		.uleb128 0x13
 1756 01e7 00       		.byte	0
 1757 01e8 00       		.byte	0
 1758 01e9 24       		.uleb128 0x24
 1759 01ea 2E       		.uleb128 0x2e
 1760 01eb 01       		.byte	0x1
 1761 01ec 03       		.uleb128 0x3
 1762 01ed 0E       		.uleb128 0xe
 1763 01ee 3A       		.uleb128 0x3a
 1764 01ef 0B       		.uleb128 0xb
 1765 01f0 3B       		.uleb128 0x3b
 1766 01f1 05       		.uleb128 0x5
 1767 01f2 39       		.uleb128 0x39
ARM GAS  /tmp/ccYLzD4W.s 			page 32


 1768 01f3 0B       		.uleb128 0xb
 1769 01f4 27       		.uleb128 0x27
 1770 01f5 19       		.uleb128 0x19
 1771 01f6 01       		.uleb128 0x1
 1772 01f7 13       		.uleb128 0x13
 1773 01f8 00       		.byte	0
 1774 01f9 00       		.byte	0
 1775 01fa 25       		.uleb128 0x25
 1776 01fb 2E       		.uleb128 0x2e
 1777 01fc 00       		.byte	0
 1778 01fd 03       		.uleb128 0x3
 1779 01fe 0E       		.uleb128 0xe
 1780 01ff 3A       		.uleb128 0x3a
 1781 0200 0B       		.uleb128 0xb
 1782 0201 3B       		.uleb128 0x3b
 1783 0202 05       		.uleb128 0x5
 1784 0203 39       		.uleb128 0x39
 1785 0204 0B       		.uleb128 0xb
 1786 0205 27       		.uleb128 0x27
 1787 0206 19       		.uleb128 0x19
 1788 0207 00       		.byte	0
 1789 0208 00       		.byte	0
 1790 0209 26       		.uleb128 0x26
 1791 020a 2E       		.uleb128 0x2e
 1792 020b 01       		.byte	0x1
 1793 020c 03       		.uleb128 0x3
 1794 020d 0E       		.uleb128 0xe
 1795 020e 3A       		.uleb128 0x3a
 1796 020f 0B       		.uleb128 0xb
 1797 0210 3B       		.uleb128 0x3b
 1798 0211 05       		.uleb128 0x5
 1799 0212 39       		.uleb128 0x39
 1800 0213 0B       		.uleb128 0xb
 1801 0214 27       		.uleb128 0x27
 1802 0215 19       		.uleb128 0x19
 1803 0216 00       		.byte	0
 1804 0217 00       		.byte	0
 1805 0218 00       		.byte	0
 1806              		.section	.gnu.debuglto_.debug_line,"e",%progbits
 1807              	.Ldebug_line0:
 1808 0000 AC020000 		.4byte	.LELT0-.LSLT0
 1809              	.LSLT0:
 1810 0004 0400     		.2byte	0x4
 1811 0006 A6020000 		.4byte	.LELTP0-.LASLTP0
 1812              	.LASLTP0:
 1813 000a 01       		.byte	0x1
 1814 000b 01       		.byte	0x1
 1815 000c 01       		.byte	0x1
 1816 000d F6       		.byte	0xf6
 1817 000e F2       		.byte	0xf2
 1818 000f 0D       		.byte	0xd
 1819 0010 00       		.byte	0
 1820 0011 01       		.byte	0x1
 1821 0012 01       		.byte	0x1
 1822 0013 01       		.byte	0x1
 1823 0014 01       		.byte	0x1
 1824 0015 00       		.byte	0
ARM GAS  /tmp/ccYLzD4W.s 			page 33


 1825 0016 00       		.byte	0
 1826 0017 00       		.byte	0
 1827 0018 01       		.byte	0x1
 1828 0019 00       		.byte	0
 1829 001a 00       		.byte	0
 1830 001b 01       		.byte	0x1
 1831 001c 43686962 		.ascii	"ChibiOS_20.3.0/os/common/ext/ARM/CMSIS/Core/Include"
 1831      694F535F 
 1831      32302E33 
 1831      2E302F6F 
 1831      732F636F 
 1832 004f 00       		.byte	0
 1833 0050 43686962 		.ascii	"ChibiOS_20.3.0/os/common/ports/ARMCMx/compilers/GCC"
 1833      694F535F 
 1833      32302E33 
 1833      2E302F6F 
 1833      732F636F 
 1834 0083 00       		.byte	0
 1835 0084 43686962 		.ascii	"ChibiOS_20.3.0/os/common/ports/ARMCMx"
 1835      694F535F 
 1835      32302E33 
 1835      2E302F6F 
 1835      732F636F 
 1836 00a9 00       		.byte	0
 1837 00aa 43686962 		.ascii	"ChibiOS_20.3.0/os/oslib/include"
 1837      694F535F 
 1837      32302E33 
 1837      2E302F6F 
 1837      732F6F73 
 1838 00c9 00       		.byte	0
 1839 00ca 43686962 		.ascii	"ChibiOS_20.3.0/os/oslib/src"
 1839      694F535F 
 1839      32302E33 
 1839      2E302F6F 
 1839      732F6F73 
 1840 00e5 00       		.byte	0
 1841 00e6 43686962 		.ascii	"ChibiOS_20.3.0/os/rt/include"
 1841      694F535F 
 1841      32302E33 
 1841      2E302F6F 
 1841      732F7274 
 1842 0102 00       		.byte	0
 1843 0103 2F757372 		.ascii	"/usr/share/gcc-arm-none-eabi-10-2020-q4-major/arm-n"
 1843      2F736861 
 1843      72652F67 
 1843      63632D61 
 1843      726D2D6E 
 1844 0136 6F6E652D 		.ascii	"one-eabi/include/machine"
 1844      65616269 
 1844      2F696E63 
 1844      6C756465 
 1844      2F6D6163 
 1845 014e 00       		.byte	0
 1846 014f 2F757372 		.ascii	"/usr/share/gcc-arm-none-eabi-10-2020-q4-major/arm-n"
 1846      2F736861 
 1846      72652F67 
 1846      63632D61 
ARM GAS  /tmp/ccYLzD4W.s 			page 34


 1846      726D2D6E 
 1847 0182 6F6E652D 		.ascii	"one-eabi/include/sys"
 1847      65616269 
 1847      2F696E63 
 1847      6C756465 
 1847      2F737973 
 1848 0196 00       		.byte	0
 1849 0197 2F757372 		.ascii	"/usr/share/gcc-arm-none-eabi-10-2020-q4-major/lib/g"
 1849      2F736861 
 1849      72652F67 
 1849      63632D61 
 1849      726D2D6E 
 1850 01ca 63632F61 		.ascii	"cc/arm-none-eabi/10.2.1/include"
 1850      726D2D6E 
 1850      6F6E652D 
 1850      65616269 
 1850      2F31302E 
 1851 01e9 00       		.byte	0
 1852 01ea 00       		.byte	0
 1853 01eb 73746464 		.ascii	"stddef.h\000"
 1853      65662E68 
 1853      00
 1854 01f4 09       		.uleb128 0x9
 1855 01f5 00       		.uleb128 0
 1856 01f6 00       		.uleb128 0
 1857 01f7 5F646566 		.ascii	"_default_types.h\000"
 1857      61756C74 
 1857      5F747970 
 1857      65732E68 
 1857      00
 1858 0208 07       		.uleb128 0x7
 1859 0209 00       		.uleb128 0
 1860 020a 00       		.uleb128 0
 1861 020b 5F737464 		.ascii	"_stdint.h\000"
 1861      696E742E 
 1861      6800
 1862 0215 08       		.uleb128 0x8
 1863 0216 00       		.uleb128 0
 1864 0217 00       		.uleb128 0
 1865 0218 63687479 		.ascii	"chtypes.h\000"
 1865      7065732E 
 1865      6800
 1866 0222 02       		.uleb128 0x2
 1867 0223 00       		.uleb128 0
 1868 0224 00       		.uleb128 0
 1869 0225 63687379 		.ascii	"chsystypes.h\000"
 1869      73747970 
 1869      65732E68 
 1869      00
 1870 0232 06       		.uleb128 0x6
 1871 0233 00       		.uleb128 0
 1872 0234 00       		.uleb128 0
 1873 0235 63687363 		.ascii	"chschd.h\000"
 1873      68642E68 
 1873      00
 1874 023e 06       		.uleb128 0x6
 1875 023f 00       		.uleb128 0
ARM GAS  /tmp/ccYLzD4W.s 			page 35


 1876 0240 00       		.uleb128 0
 1877 0241 6368636F 		.ascii	"chcore.h\000"
 1877      72652E68 
 1877      00
 1878 024a 03       		.uleb128 0x3
 1879 024b 00       		.uleb128 0
 1880 024c 00       		.uleb128 0
 1881 024d 6368636F 		.ascii	"chcore_v7m.h\000"
 1881      72655F76 
 1881      376D2E68 
 1881      00
 1882 025a 03       		.uleb128 0x3
 1883 025b 00       		.uleb128 0
 1884 025c 00       		.uleb128 0
 1885 025d 63687365 		.ascii	"chsem.h\000"
 1885      6D2E6800 
 1886 0265 06       		.uleb128 0x6
 1887 0266 00       		.uleb128 0
 1888 0267 00       		.uleb128 0
 1889 0268 63686D74 		.ascii	"chmtx.h\000"
 1889      782E6800 
 1890 0270 06       		.uleb128 0x6
 1891 0271 00       		.uleb128 0
 1892 0272 00       		.uleb128 0
 1893 0273 63686F62 		.ascii	"chobjcaches.h\000"
 1893      6A636163 
 1893      6865732E 
 1893      6800
 1894 0281 04       		.uleb128 0x4
 1895 0282 00       		.uleb128 0
 1896 0283 00       		.uleb128 0
 1897 0284 63686F62 		.ascii	"chobjcaches.c\000"
 1897      6A636163 
 1897      6865732E 
 1897      6300
 1898 0292 05       		.uleb128 0x5
 1899 0293 00       		.uleb128 0
 1900 0294 00       		.uleb128 0
 1901 0295 63687379 		.ascii	"chsys.h\000"
 1901      732E6800 
 1902 029d 06       		.uleb128 0x6
 1903 029e 00       		.uleb128 0
 1904 029f 00       		.uleb128 0
 1905 02a0 636D7369 		.ascii	"cmsis_gcc.h\000"
 1905      735F6763 
 1905      632E6800 
 1906 02ac 01       		.uleb128 0x1
 1907 02ad 00       		.uleb128 0
 1908 02ae 00       		.uleb128 0
 1909 02af 00       		.byte	0
 1910              	.LELTP0:
 1911              	.LELT0:
 1912              		.section	.gnu.debuglto_.debug_str,"eMS",%progbits,1
 1913              	.LASF72:
 1914 0000 68617368 		.ascii	"hash_next\000"
 1914      5F6E6578 
 1914      7400
ARM GAS  /tmp/ccYLzD4W.s 			page 36


 1915              	.LASF4:
 1916 000a 73697A65 		.ascii	"size_t\000"
 1916      5F7400
 1917              	.LASF47:
 1918 0011 6E657874 		.ascii	"next\000"
 1918      00
 1919              	.LASF54:
 1920 0016 7264796D 		.ascii	"rdymsg\000"
 1920      736700
 1921              	.LASF18:
 1922 001d 75696E74 		.ascii	"uint64_t\000"
 1922      36345F74 
 1922      00
 1923              	.LASF5:
 1924 0026 5F5F7569 		.ascii	"__uint8_t\000"
 1924      6E74385F 
 1924      7400
 1925              	.LASF50:
 1926 0030 70726576 		.ascii	"prev\000"
 1926      00
 1927              	.LASF52:
 1928 0035 706F7274 		.ascii	"port_intctx\000"
 1928      5F696E74 
 1928      63747800 
 1929              	.LASF115:
 1930 0041 706F7274 		.ascii	"port_lock\000"
 1930      5F6C6F63 
 1930      6B00
 1931              	.LASF14:
 1932 004b 6C6F6E67 		.ascii	"long long unsigned int\000"
 1932      206C6F6E 
 1932      6720756E 
 1932      7369676E 
 1932      65642069 
 1933              	.LASF93:
 1934 0062 6C72755F 		.ascii	"lru_sem\000"
 1934      73656D00 
 1935              	.LASF55:
 1936 006a 65786974 		.ascii	"exitcode\000"
 1936      636F6465 
 1936      00
 1937              	.LASF94:
 1938 0073 72656164 		.ascii	"readf\000"
 1938      6600
 1939              	.LASF92:
 1940 0079 63616368 		.ascii	"cache_sem\000"
 1940      655F7365 
 1940      6D00
 1941              	.LASF98:
 1942 0083 6F626A70 		.ascii	"objp\000"
 1942      00
 1943              	.LASF49:
 1944 0088 63685F74 		.ascii	"ch_threads_queue\000"
 1944      68726561 
 1944      64735F71 
 1944      75657565 
 1944      00
ARM GAS  /tmp/ccYLzD4W.s 			page 37


 1945              	.LASF1:
 1946 0099 6C6F6E67 		.ascii	"long long int\000"
 1946      206C6F6E 
 1946      6720696E 
 1946      7400
 1947              	.LASF3:
 1948 00a7 7369676E 		.ascii	"signed char\000"
 1948      65642063 
 1948      68617200 
 1949              	.LASF116:
 1950 00b3 62617365 		.ascii	"basePri\000"
 1950      50726900 
 1951              	.LASF114:
 1952 00bb 706F7274 		.ascii	"port_unlock\000"
 1952      5F756E6C 
 1952      6F636B00 
 1953              	.LASF85:
 1954 00c7 6F626A65 		.ascii	"objects_cache_t\000"
 1954      6374735F 
 1954      63616368 
 1954      655F7400 
 1955              	.LASF103:
 1956 00d7 67726F75 		.ascii	"group\000"
 1956      7000
 1957              	.LASF34:
 1958 00dd 73746174 		.ascii	"state\000"
 1958      6500
 1959              	.LASF10:
 1960 00e3 6C6F6E67 		.ascii	"long int\000"
 1960      20696E74 
 1960      00
 1961              	.LASF20:
 1962 00ec 74737461 		.ascii	"tstate_t\000"
 1962      74655F74 
 1962      00
 1963              	.LASF7:
 1964 00f5 73686F72 		.ascii	"short int\000"
 1964      7420696E 
 1964      7400
 1965              	.LASF28:
 1966 00ff 71756575 		.ascii	"queue\000"
 1966      6500
 1967              	.LASF83:
 1968 0105 6F626A5F 		.ascii	"obj_flags\000"
 1968      666C6167 
 1968      7300
 1969              	.LASF87:
 1970 010f 68617368 		.ascii	"hashn\000"
 1970      6E00
 1971              	.LASF88:
 1972 0115 68617368 		.ascii	"hashp\000"
 1972      7000
 1973              	.LASF82:
 1974 011b 6F626A5F 		.ascii	"obj_sem\000"
 1974      73656D00 
 1975              	.LASF79:
 1976 0123 63685F6F 		.ascii	"ch_oc_object\000"
ARM GAS  /tmp/ccYLzD4W.s 			page 38


 1976      635F6F62 
 1976      6A656374 
 1976      00
 1977              	.LASF11:
 1978 0130 5F5F7569 		.ascii	"__uint32_t\000"
 1978      6E743332 
 1978      5F7400
 1979              	.LASF119:
 1980 013b 2F686F6D 		.ascii	"/home/iamprithvishetty/CDSpace/mmc3416_test2\000"
 1980      652F6961 
 1980      6D707269 
 1980      74687669 
 1980      73686574 
 1981              	.LASF118:
 1982 0168 2E2F4368 		.ascii	"./ChibiOS_20.3.0/os/oslib/src/chobjcaches.c\000"
 1982      6962694F 
 1982      535F3230 
 1982      2E332E30 
 1982      2F6F732F 
 1983              	.LASF37:
 1984 0194 77616974 		.ascii	"waiting\000"
 1984      696E6700 
 1985              	.LASF67:
 1986 019c 6D757465 		.ascii	"mutex_t\000"
 1986      785F7400 
 1987              	.LASF97:
 1988 01a4 6F635F77 		.ascii	"oc_writef_t\000"
 1988      72697465 
 1988      665F7400 
 1989              	.LASF86:
 1990 01b0 63685F6F 		.ascii	"ch_objects_cache\000"
 1990      626A6563 
 1990      74735F63 
 1990      61636865 
 1990      00
 1991              	.LASF25:
 1992 01c1 636E745F 		.ascii	"cnt_t\000"
 1992      7400
 1993              	.LASF38:
 1994 01c7 6D736771 		.ascii	"msgqueue\000"
 1994      75657565 
 1994      00
 1995              	.LASF0:
 1996 01d0 756E7369 		.ascii	"unsigned int\000"
 1996      676E6564 
 1996      20696E74 
 1996      00
 1997              	.LASF59:
 1998 01dd 77747365 		.ascii	"wtsemp\000"
 1998      6D7000
 1999              	.LASF57:
 2000 01e4 77747472 		.ascii	"wttrp\000"
 2000      7000
 2001              	.LASF32:
 2002 01ea 6E616D65 		.ascii	"name\000"
 2002      00
 2003              	.LASF42:
ARM GAS  /tmp/ccYLzD4W.s 			page 39


 2004 01ef 6D706F6F 		.ascii	"mpool\000"
 2004      6C00
 2005              	.LASF8:
 2006 01f5 73686F72 		.ascii	"short unsigned int\000"
 2006      7420756E 
 2006      7369676E 
 2006      65642069 
 2006      6E7400
 2007              	.LASF45:
 2008 0208 63685F74 		.ascii	"ch_thread\000"
 2008      68726561 
 2008      6400
 2009              	.LASF95:
 2010 0212 77726974 		.ascii	"writef\000"
 2010      656600
 2011              	.LASF23:
 2012 0219 6D73675F 		.ascii	"msg_t\000"
 2012      7400
 2013              	.LASF101:
 2014 021f 63684361 		.ascii	"chCacheReadObject\000"
 2014      63686552 
 2014      6561644F 
 2014      626A6563 
 2014      7400
 2015              	.LASF26:
 2016 0231 75636E74 		.ascii	"ucnt_t\000"
 2016      5F7400
 2017              	.LASF39:
 2018 0238 6570656E 		.ascii	"epending\000"
 2018      64696E67 
 2018      00
 2019              	.LASF19:
 2020 0241 746D6F64 		.ascii	"tmode_t\000"
 2020      655F7400 
 2021              	.LASF70:
 2022 0249 6F635F68 		.ascii	"oc_hash_header_t\000"
 2022      6173685F 
 2022      68656164 
 2022      65725F74 
 2022      00
 2023              	.LASF24:
 2024 025a 6576656E 		.ascii	"eventmask_t\000"
 2024      746D6173 
 2024      6B5F7400 
 2025              	.LASF117:
 2026 0266 474E5520 		.ascii	"GNU C17 10.2.1 20201103 (release) -mcpu=cortex-m4 -"
 2026      43313720 
 2026      31302E32 
 2026      2E312032 
 2026      30323031 
 2027 0299 6D746875 		.ascii	"mthumb -mfloat-abi=soft -march=armv7e-m -ggdb -O2 -"
 2027      6D62202D 
 2027      6D666C6F 
 2027      61742D61 
 2027      62693D73 
 2028 02cc 666F6D69 		.ascii	"fomit-frame-pointer -falign-functions=16 -ffunction"
 2028      742D6672 
ARM GAS  /tmp/ccYLzD4W.s 			page 40


 2028      616D652D 
 2028      706F696E 
 2028      74657220 
 2029 02ff 2D736563 		.ascii	"-sections -fdata-sections -fno-common -flto\000"
 2029      74696F6E 
 2029      73202D66 
 2029      64617461 
 2029      2D736563 
 2030              	.LASF108:
 2031 032b 68617368 		.ascii	"hash_get_s\000"
 2031      5F676574 
 2031      5F7300
 2032              	.LASF51:
 2033 0336 73746B61 		.ascii	"stkalign_t\000"
 2033      6C69676E 
 2033      5F7400
 2034              	.LASF30:
 2035 0341 6E657765 		.ascii	"newer\000"
 2035      7200
 2036              	.LASF80:
 2037 0347 6F626A5F 		.ascii	"obj_group\000"
 2037      67726F75 
 2037      7000
 2038              	.LASF41:
 2039 0351 7265616C 		.ascii	"realprio\000"
 2039      7072696F 
 2039      00
 2040              	.LASF107:
 2041 035a 6C72755F 		.ascii	"lru_get_last_s\000"
 2041      6765745F 
 2041      6C617374 
 2041      5F7300
 2042              	.LASF43:
 2043 0369 74687265 		.ascii	"thread_reference_t\000"
 2043      61645F72 
 2043      65666572 
 2043      656E6365 
 2043      5F7400
 2044              	.LASF2:
 2045 037c 6C6F6E67 		.ascii	"long double\000"
 2045      20646F75 
 2045      626C6500 
 2046              	.LASF74:
 2047 0388 6F635F6C 		.ascii	"oc_lru_header_t\000"
 2047      72755F68 
 2047      65616465 
 2047      725F7400 
 2048              	.LASF99:
 2049 0398 6173796E 		.ascii	"async\000"
 2049      6300
 2050              	.LASF53:
 2051 039e 706F7274 		.ascii	"port_context\000"
 2051      5F636F6E 
 2051      74657874 
 2051      00
 2052              	.LASF77:
 2053 03ab 6C72755F 		.ascii	"lru_prev\000"
ARM GAS  /tmp/ccYLzD4W.s 			page 41


 2053      70726576 
 2053      00
 2054              	.LASF29:
 2055 03b4 7072696F 		.ascii	"prio\000"
 2055      00
 2056              	.LASF78:
 2057 03b9 6F635F6F 		.ascii	"oc_object_t\000"
 2057      626A6563 
 2057      745F7400 
 2058              	.LASF105:
 2059 03c5 63684361 		.ascii	"chCacheReleaseObjectI\000"
 2059      63686552 
 2059      656C6561 
 2059      73654F62 
 2059      6A656374 
 2060              	.LASF96:
 2061 03db 6F635F72 		.ascii	"oc_readf_t\000"
 2061      65616466 
 2061      5F7400
 2062              	.LASF13:
 2063 03e6 5F5F7569 		.ascii	"__uint64_t\000"
 2063      6E743634 
 2063      5F7400
 2064              	.LASF21:
 2065 03f1 74726566 		.ascii	"trefs_t\000"
 2065      735F7400 
 2066              	.LASF36:
 2067 03f9 72656673 		.ascii	"refs\000"
 2067      00
 2068              	.LASF75:
 2069 03fe 63685F6F 		.ascii	"ch_oc_lru_header\000"
 2069      635F6C72 
 2069      755F6865 
 2069      61646572 
 2069      00
 2070              	.LASF76:
 2071 040f 6C72755F 		.ascii	"lru_next\000"
 2071      6E657874 
 2071      00
 2072              	.LASF22:
 2073 0418 74707269 		.ascii	"tprio_t\000"
 2073      6F5F7400 
 2074              	.LASF90:
 2075 0420 6F626A73 		.ascii	"objsz\000"
 2075      7A00
 2076              	.LASF68:
 2077 0426 5F426F6F 		.ascii	"_Bool\000"
 2077      6C00
 2078              	.LASF16:
 2079 042c 696E7433 		.ascii	"int32_t\000"
 2079      325F7400 
 2080              	.LASF6:
 2081 0434 756E7369 		.ascii	"unsigned char\000"
 2081      676E6564 
 2081      20636861 
 2081      7200
 2082              	.LASF91:
ARM GAS  /tmp/ccYLzD4W.s 			page 42


 2083 0442 6F626A76 		.ascii	"objvp\000"
 2083      7000
 2084              	.LASF110:
 2085 0448 63685365 		.ascii	"chSemFastSignalI\000"
 2085      6D466173 
 2085      74536967 
 2085      6E616C49 
 2085      00
 2086              	.LASF61:
 2087 0459 65776D61 		.ascii	"ewmask\000"
 2087      736B00
 2088              	.LASF104:
 2089 0460 5F5F6675 		.ascii	"__func__\000"
 2089      6E635F5F 
 2089      00
 2090              	.LASF113:
 2091 0469 63685379 		.ascii	"chSysLock\000"
 2091      734C6F63 
 2091      6B00
 2092              	.LASF89:
 2093 0473 6F626A6E 		.ascii	"objn\000"
 2093      00
 2094              	.LASF84:
 2095 0478 64707472 		.ascii	"dptr\000"
 2095      00
 2096              	.LASF106:
 2097 047d 63684361 		.ascii	"chCacheObjectInit\000"
 2097      6368654F 
 2097      626A6563 
 2097      74496E69 
 2097      7400
 2098              	.LASF66:
 2099 048f 73656D61 		.ascii	"semaphore_t\000"
 2099      70686F72 
 2099      655F7400 
 2100              	.LASF100:
 2101 049b 63684361 		.ascii	"chCacheWriteObject\000"
 2101      63686557 
 2101      72697465 
 2101      4F626A65 
 2101      637400
 2102              	.LASF62:
 2103 04ae 63685F73 		.ascii	"ch_semaphore\000"
 2103      656D6170 
 2103      686F7265 
 2103      00
 2104              	.LASF81:
 2105 04bb 6F626A5F 		.ascii	"obj_key\000"
 2105      6B657900 
 2106              	.LASF17:
 2107 04c3 75696E74 		.ascii	"uint32_t\000"
 2107      33325F74 
 2107      00
 2108              	.LASF60:
 2109 04cc 77746D74 		.ascii	"wtmtxp\000"
 2109      787000
 2110              	.LASF46:
ARM GAS  /tmp/ccYLzD4W.s 			page 43


 2111 04d3 63685F74 		.ascii	"ch_threads_list\000"
 2111      68726561 
 2111      64735F6C 
 2111      69737400 
 2112              	.LASF64:
 2113 04e3 6F776E65 		.ascii	"owner\000"
 2113      7200
 2114              	.LASF12:
 2115 04e9 6C6F6E67 		.ascii	"long unsigned int\000"
 2115      20756E73 
 2115      69676E65 
 2115      6420696E 
 2115      7400
 2116              	.LASF33:
 2117 04fb 77616261 		.ascii	"wabase\000"
 2117      736500
 2118              	.LASF65:
 2119 0502 63686172 		.ascii	"char\000"
 2119      00
 2120              	.LASF31:
 2121 0507 6F6C6465 		.ascii	"older\000"
 2121      7200
 2122              	.LASF27:
 2123 050d 74687265 		.ascii	"thread_t\000"
 2123      61645F74 
 2123      00
 2124              	.LASF9:
 2125 0516 5F5F696E 		.ascii	"__int32_t\000"
 2125      7433325F 
 2125      7400
 2126              	.LASF109:
 2127 0520 63685365 		.ascii	"chSemGetCounterI\000"
 2127      6D476574 
 2127      436F756E 
 2127      74657249 
 2127      00
 2128              	.LASF120:
 2129 0531 5F5F7365 		.ascii	"__set_BASEPRI\000"
 2129      745F4241 
 2129      53455052 
 2129      4900
 2130              	.LASF71:
 2131 053f 63685F6F 		.ascii	"ch_oc_hash_header\000"
 2131      635F6861 
 2131      73685F68 
 2131      65616465 
 2131      7200
 2132              	.LASF102:
 2133 0551 63684361 		.ascii	"chCacheGetObject\000"
 2133      63686547 
 2133      65744F62 
 2133      6A656374 
 2133      00
 2134              	.LASF111:
 2135 0562 63685365 		.ascii	"chSemFastWaitI\000"
 2135      6D466173 
 2135      74576169 
ARM GAS  /tmp/ccYLzD4W.s 			page 44


 2135      744900
 2136              	.LASF48:
 2137 0571 74687265 		.ascii	"threads_queue_t\000"
 2137      6164735F 
 2137      71756575 
 2137      655F7400 
 2138              	.LASF63:
 2139 0581 63685F6D 		.ascii	"ch_mutex\000"
 2139      75746578 
 2139      00
 2140              	.LASF69:
 2141 058a 6F635F66 		.ascii	"oc_flags_t\000"
 2141      6C616773 
 2141      5F7400
 2142              	.LASF15:
 2143 0595 75696E74 		.ascii	"uint8_t\000"
 2143      385F7400 
 2144              	.LASF35:
 2145 059d 666C6167 		.ascii	"flags\000"
 2145      7300
 2146              	.LASF56:
 2147 05a3 77746F62 		.ascii	"wtobjp\000"
 2147      6A7000
 2148              	.LASF44:
 2149 05aa 74687265 		.ascii	"threads_list_t\000"
 2149      6164735F 
 2149      6C697374 
 2149      5F7400
 2150              	.LASF112:
 2151 05b9 63685379 		.ascii	"chSysUnlock\000"
 2151      73556E6C 
 2151      6F636B00 
 2152              	.LASF73:
 2153 05c5 68617368 		.ascii	"hash_prev\000"
 2153      5F707265 
 2153      7600
 2154              	.LASF40:
 2155 05cf 6D74786C 		.ascii	"mtxlist\000"
 2155      69737400 
 2156              	.LASF58:
 2157 05d7 73656E74 		.ascii	"sentmsg\000"
 2157      6D736700 
 2158              		.text
 2159              		.section	.gnu.lto_.profile.305125762047fec2,"e",%progbits
 2160 0000 789CE360 		.ascii	"x\234\343`\000\002fF\006V\0066\006\000\000\247\000\030"
 2160      00026646 
 2160      06560636 
 2160      060000A7 
 2160      0018
 2161              		.text
 2162              		.section	.gnu.lto_.icf.305125762047fec2,"e",%progbits
 2163 0000 789CD366 		.ascii	"x\234\323f@\000v\206u\023O\034\341b\234\276n\227+\323"
 2163      40007686 
 2163      75134F1C 
 2163      E1629CBE 
 2163      6E972BD3 
 2164 0014 E25367EF 		.ascii	"\342Sg\357\2620O\237\376d2'\313\204om\263\371X[\026"
ARM GAS  /tmp/ccYLzD4W.s 			page 45


 2164      B2304F9F 
 2164      FE643227 
 2164      CB846F6D 
 2164      B3F9585B 
 2165 0029 7D5CCDCA 		.ascii	"}\\\315\312\266\346\300\371u\\\014\000\262\266\023\231"
 2165      B6E6C0F9 
 2165      755C0C00 
 2165      B2B61399 
 2166              		.text
 2167              		.section	.gnu.lto_.ipa_sra.305125762047fec2,"e",%progbits
 2168 0000 789C858E 		.ascii	"x\234\205\216\301\001\200 \014\003\233\246 C\371p4\335"
 2168      C1018020 
 2168      0C039BA6 
 2168      2043F970 
 2168      34DD
 2169 0012 85F99CC1 		.ascii	"\205\371\234\301\026\004~Z\036\364\221\273\346\2265"
 2169      16047E5A 
 2169      1EF491BB 
 2169      E69635
 2170 0021 9B502BA5 		.ascii	"\233P+\245\022b\250\261\323\014\245\344\021 \320>\001"
 2170      1262A8B1 
 2170      D30CA5E4 
 2170      1120D03E 
 2170      01
 2171 0032 71DA02A1 		.ascii	"q\332\002\241E~\006\375\221\276O\322}]\363\372B\017"
 2171      457E06FD 
 2171      91BE4FD2 
 2171      7D5DF3FA 
 2171      420F
 2172 0044 8D844EAE 		.ascii	"\215\204N\256\235t2\321+Ye\332\275\222\215J.\354\344"
 2172      9D7432D1 
 2172      2B5965DA 
 2172      BD928D4A 
 2172      2EECE4
 2173 0057 651DD51C 		.ascii	"e\035\325\034\271\354\271\343;'\017p\217\013("
 2173      B9ECB9E3 
 2173      3B270F70 
 2173      8F0B28
 2174              		.text
 2175              		.section	.gnu.lto_.inline.305125762047fec2,"e",%progbits
 2176 0000 789CAD53 		.ascii	"x\234\255SKk\023Q\024\376\316\2717\223I2\224\241\012"
 2176      4B6B1351 
 2176      14FECEB9 
 2176      37934932 
 2176      94A10A
 2177 0013 BA9C950B 		.ascii	"\272\234\225\013\351\242\013\027\".\372\013\362\027"
 2177      E9A20B17 
 2177      222EFA0B 
 2177      F217
 2178 0021 8CCD98DA 		.ascii	"\214\315\230\332v\243\377`\242\202H\213\214\012\276"
 2178      76A3FF60 
 2178      A282488B 
 2178      8C0ABE
 2179 0030 502812E9 		.ascii	"P(\022\351\312nL\213X\361\261)*(>6v!H\315\306\205\273"
 2179      CA6E4C8B 
 2179      58F1B129 
 2179      2A283E36 
ARM GAS  /tmp/ccYLzD4W.s 			page 46


 2179      762148CD 
 2180 0047 2082209E 		.ascii	" \202 \236s'3cZ\334\031\222\234\357~\347u\357y,X\024"
 2180      73273363 
 2180      5ADC1992 
 2180      9CEF7EE7 
 2180      75EF792C 
 2181 005d 9F2AB0FF 		.ascii	"\237*\260\377\333\357;\267\315<YP\3170L\004\022 \012"
 2181      DBEF3BB7 
 2181      CD3C5950 
 2181      CF304C04 
 2181      12200A
 2182 0070 F048AA02 		.ascii	"\360H\252\002\220oMm\177\360<\340]L\222\204c\006\203"
 2182      906F4D6D 
 2182      7FF03CE0 
 2182      5D4C9284 
 2182      630683
 2183 0083 1285B30C 		.ascii	"\022\205\263\014[`X\260Cm\034,\365\221\004Wl\332\210"
 2183      5B6058B0 
 2183      436D1C2C 
 2183      F5910457 
 2183      6CDA88
 2184 0096 601D1BE3 		.ascii	"`\035\033\343hay\\\023\341\320\372p\347\256Y$\322\244"
 2184      6861795C 
 2184      13E1D0FA 
 2184      70E7AE59 
 2184      24D2A4
 2185 00a9 BE5EE2C8 		.ascii	"\276^\342\310\323\367K\233\274\000\370\257\327\206\037"
 2185      D3F74B9B 
 2185      BC00F8AF 
 2185      D7861F
 2186 00b8 B8A33985 		.ascii	"\270\2439\205n\220\230\247MoR\244\371XK\233B\037\026"
 2186      6E9098A7 
 2186      4D6F52A4 
 2186      F9584B9B 
 2186      421F16
 2187 00cb 8B2D5EA4 		.ascii	"\213-^\244J\356l\334\315\341^\204\321\213\324\333\212"
 2187      4AEE6CDC 
 2187      CDE15E84 
 2187      D18BD4DB 
 2187      8A
 2188 00dc ACA99C92 		.ascii	"\254\251\234\222\340\3174\370\344\375\033\217\273<\247"
 2188      E0CF34F8 
 2188      E4FD1B8F 
 2188      BB3CA7
 2189 00eb C1F9D5DA 		.ascii	"\301\371\325\332\360\036w\020\026h\032\241\217\031\230"
 2189      F01E7710 
 2189      16681AA1 
 2189      8F1998
 2190 00fa 4072B164 		.ascii	"@r\261d2\001\034H\2339\222\352L-o\366n\362i\342\335"
 2190      32011C48 
 2190      9B3992EA 
 2190      4C2D6FF6 
 2190      6EF269E2 
 2191 010f E533C71E 		.ascii	"\3453\307\036,\375|i:\362\2027\237W\257gU\343\027\333"
 2191      2CFD7C69 
 2191      3AF28237 
 2191      9F57AF67 
ARM GAS  /tmp/ccYLzD4W.s 			page 47


 2191      55E317DB 
 2192 0123 BF06DC82 		.ascii	"\277\006\334\202\372\273 \362\026nd\2622\241\244\206"
 2192      FABB20F2 
 2192      166E64B2 
 2192      32A1A486 
 2193 0133 4F9B16D3 		.ascii	"O\233\026\323\203A\277+q\033t\266g\352W\215\374\021"
 2193      8341BF2B 
 2193      711B74B6 
 2193      67EA578D 
 2193      FC11
 2194 0145 CC0A535B 		.ascii	"\314\012S[\020\262\263OgT\364\251\340i\235\366p\231"
 2194      10B2B34F 
 2194      6754F4A9 
 2194      E0699DF6 
 2194      7099
 2195 0157 6DE4E28C 		.ascii	"m\344\342\214\331n\220\336\271\241Q]\263\003iT\206\374"
 2195      D96E90DE 
 2195      B9A1515D 
 2195      B3036954 
 2195      86FC
 2196 0169 51FB85F9 		.ascii	"Q\373\205\371B\256\214A>!\201ND\006\200\003\365\355"
 2196      42AE8C41 
 2196      3E21814E 
 2196      44068003 
 2196      F5ED
 2197 017b F36FAFF0 		.ascii	"\363o\257\360)\240\376\344\\\177\303do\354\216:?\303"
 2197      29A0FEE4 
 2197      5C7FC364 
 2197      6FEC8E3A 
 2197      3FC3
 2198 018d A87FBFF4 		.ascii	"\250\177\277\364\356\226\211\245\212\365\325\345\013"
 2198      EE9689A5 
 2198      8AF5D5E5 
 2198      0B
 2199 019a 29C75250 		.ascii	")\307RP\037\364\351\332\312Cs\"\362\031\011\351\177"
 2199      1FF4E9DA 
 2199      CA437322 
 2199      F21909E9 
 2199      7F
 2200 01ab 41B833CC 		.ascii	"A\2703\314\316\345G[|R5\372\2538\327YQD\205o\250\276"
 2200      CEE5475B 
 2200      7C5235FA 
 2200      AB38D759 
 2200      5144856F 
 2201 01c1 362C7DA5 		.ascii	"6,}\245Uz\316}U\023\226\276\242\010s\337\226\320\205"
 2201      557ACE7D 
 2201      551396BE 
 2201      A20873DF 
 2201      96D085
 2202 01d4 5FCB47C1 		.ascii	"_\313G\301\313$'\276-4VO\177\353\3021]h\021|\325\\\261"
 2202      CB2427BE 
 2202      2D34564F 
 2202      7FEBC231 
 2202      5D68117C 
 2203 01eb C598198D 		.ascii	"\305\230\031\215\231\311\202y\356Jm\353vEgxW\3371!\005"
 2203      99C98279 
 2203      EE4A6DEB 
ARM GAS  /tmp/ccYLzD4W.s 			page 48


 2203      76456778 
 2203      57DF3121 
 2204 0200 4BCD5C36 		.ascii	"K\315\\6Ce?\254T\337\300\313\267\013U\221\317\367n_"
 2204      43653FAC 
 2204      54DFC0CB 
 2204      B70B5591 
 2204      CFF76E5F 
 2205 0214 BE5DB664 		.ascii	"\276]\266d\375r'\265\225\325}\345dy\377\312\346I \373"
 2205      FD7227B5 
 2205      95D57DE5 
 2205      6479FFCA 
 2205      E64920FB 
 2206 0228 BFB3E10F 		.ascii	"\277\263\341\017\343\270\3673"
 2206      E3B8F733 
 2207              		.text
 2208              		.section	.gnu.lto_.jmpfuncs.305125762047fec2,"e",%progbits
 2209 0000 789CAD51 		.ascii	"x\234\255Q\333\015\3020\014\364\331\246\011R\241\314"
 2209      DB0DC230 
 2209      0CF4D9A6 
 2209      0952A1CC 
 2210 0010 C1080CD7 		.ascii	"\301\010\014\327v\006&\340\243#\200\370\355(lR\3344"
 2210      760626E0 
 2210      A32380F8 
 2210      ED286C52 
 2210      DC34
 2211 0022 4069D21F 		.ascii	"@i\322\037\204\245\223\345G\316\027\273fz\233#\001\340"
 2211      84A593E5 
 2211      47CE17BB 
 2211      667A9B23 
 2211      01E0
 2212 0034 9A4EBC61 		.ascii	"\232N\274a\364\316b\2141\373V\254\003\275\202\014\203"
 2212      F4CE628C 
 2212      31FB56AC 
 2212      03BD820C 
 2212      83
 2213 0045 59053E4B 		.ascii	"Y\005>K';`r!Wh\275lK\342\360l\017\204t(\021\035[e\217"
 2213      273B6072 
 2213      215768BD 
 2213      6C4BE2F0 
 2213      6C0F8474 
 2214 005f 6803A204 		.ascii	"h\003\242\0042p\364[CePC\241\211\024\\\201\333\244\350"
 2214      3270F45B 
 2214      43655043 
 2214      A189145C 
 2214      81DBA4E8 
 2215 0073 F045AD59 		.ascii	"\360E\255Y\345S\373'\335X\337\205\011+\264\270\317)"
 2215      E553FB27 
 2215      DD58DF85 
 2215      092BB4B8 
 2215      CF29
 2216 0085 25591367 		.ascii	"%Y\023g\276\315+Cs+\322\032ijI@\312\200\304\261e\376"
 2216      BECD2B43 
 2216      732BD21A 
 2216      696A4940 
 2216      CA80C4B1 
 2217 009b 2251AFEF 		.ascii	"\"Q\257\357\261$|\3256s\361%\354\022\277\010\262\352"
 2217      B1247CD5 
ARM GAS  /tmp/ccYLzD4W.s 			page 49


 2217      3673F125 
 2217      EC12BF08 
 2217      B2EA
 2218 00ad E921C5DF 		.ascii	"\351!\305\337\270Z\245'\004\301\242\325"
 2218      B85AA527 
 2218      04C1A2D5 
 2219              		.text
 2220              		.section	.gnu.lto_.pureconst.305125762047fec2,"e",%progbits
 2221 0000 789C1363 		.ascii	"x\234\023c```g\330\312\302\270\213\225i\026\013\363"
 2221      60606067 
 2221      D8CAC2B8 
 2221      8B956916 
 2221      0BF3
 2222 0012 2E569659 		.ascii	".V\226Y,\254\263X\330f\261\000\0008\270\004\342"
 2222      2CACB358 
 2222      D866B100 
 2222      0038B804 
 2222      E2
 2223              		.text
 2224              		.section	.gnu.lto_.lto.305125762047fec2,"e",%progbits
 2225 0000 09000200 		.ascii	"\011\000\002\000\001\000\000\000"
 2225      01000000 
 2226              		.text
 2227              		.section	.gnu.lto_hash_get_s.313.305125762047fec2,"e",%progbits
 2228 0000 789C7D54 		.ascii	"x\234}T_lSe\024?\347;\337\275\267\355\266n\235\032_"
 2228      5F6C5365 
 2228      143FE73B 
 2228      DFBDB7ED 
 2228      B66E9D1A 
 2229 0015 79210683 		.ascii	"y!\006\203\355\030\"/>\220\314w\037x6\3306\215\267\352"
 2229      ED18222F 
 2229      3E90CC77 
 2229      1F7836D8 
 2229      368DB7EA 
 2230 0029 D2662D26 		.ascii	"\322f-&{\332\335\306\212\331\214m\247\2011'1\327\026"
 2230      7BDADDC6 
 2230      8AD98C6D 
 2230      A7813127 
 2230      31D716
 2231 003c C1444586 		.ascii	"\301DE\206q\"\203:\262\020\032\010*!$\3743\242&\014"
 2231      7122833A 
 2231      B2101A08 
 2231      2A2124FC 
 2231      33A2260C 
 2232 0050 61511313 		.ascii	"aQ\023\023c\210x\316\327?s\030\275\271\367\273\347\236"
 2232      638878CE 
 2232      D73F7318 
 2232      BDB9F7BB 
 2232      E79E
 2233 0062 EF777EBF 		.ascii	"\357w~\277\363\347\313\335\255\001\246\000\340\000?"
 2233      F3E7CBDD 
 2233      AD01A600 
 2233      E0003F
 2234 0071 18049C2E 		.ascii	"\030\004\234.O*\360<o\207\243p\177y\362\342\207\307"
 2234      4F2AF03C 
 2234      6F87A370 
 2234      7F79F2E2 
ARM GAS  /tmp/ccYLzD4W.s 			page 50


 2234      87C7
 2235 0083 347E85C6 		.ascii	"4~\205\306AjO\271\343\356\373\337?\246\013\345\360\333"
 2235      416A4FB9 
 2235      E3EEFBDF 
 2235      3FA60BE5 
 2235      F0DB
 2236 0095 D70F3EA9 		.ascii	"\327\017>\251\265\232(w\\9\273D\3429\262\260\370\254"
 2236      B59A2877 
 2236      5C39BB44 
 2236      E239B2B0 
 2236      F8AC
 2237 00a7 B67066DA 		.ascii	"\266pf\332\377\365\243e\307D\330\270\377\323\026\235"
 2237      FFF5A365 
 2237      C744D8B8 
 2237      FFD3169D 
 2238 00b7 A3C6CB53 		.ascii	"\243\306\313S\212\271\014n\246t\013M`\000G\333\212\010"
 2238      8AB90C6E 
 2238      A6740B4D 
 2238      600047DB 
 2238      8A08
 2239 00c9 238AB465 		.ascii	"#\212\264e;\001\034Q\016\254]o\321\034\3414U\010P7-"
 2239      3B011C51 
 2239      0EAC5D6F 
 2239      D11CE134 
 2239      55085037 
 2240 00de C40D9B6A 		.ascii	"\304\015\233j\236\367\307\304\354\233\325\216\271\303"
 2240      9EF7C7C4 
 2240      EC9BD58E 
 2240      B9C3
 2241 00ec 355D2105 		.ascii	"5]!\005\007\031\360\031\342q\224 \006\322\013\360\004"
 2241      0719F019 
 2241      E2719420 
 2241      06D20BF0 
 2241      04
 2242 00fd 83BE5E59 		.ascii	"\203\276^Y\360\274 T\210\360s\374\007\206\035\361bD"
 2242      F0BC2054 
 2242      88F073FC 
 2242      07861DF1 
 2242      6244
 2243 010f 70C306F7 		.ascii	"p\303\006\367K\261\272/\\\302\012i\374b=N\307\3371\270"
 2243      4BB1BA2F 
 2243      5CC20A69 
 2243      FC623D4E 
 2243      C7DF31B8 
 2244 0123 11833B3A 		.ascii	"\021\203;:3\261\327\353\321\202\373\362a\334\007\221"
 2244      33B1D7EB 
 2244      D182FBF2 
 2244      61DC0791 
 2245 0133 86F238CA 		.ascii	"\206\3628\312k\243\260\316NL\206K\243\001N\020\027q"
 2245      6BA3B0CE 
 2245      4E4C864B 
 2245      A3014E10 
 2245      1771
 2246 0145 5D8AF1D3 		.ascii	"]\212\361\323\206\365\3655\354\201\352T\003k\341\351"
 2246      86F5F535 
 2246      EC81EA54 
 2246      036BE1E9 
ARM GAS  /tmp/ccYLzD4W.s 			page 51


 2247 0155 87B0F311 		.ascii	"\207\260\363\021\033\260\206x\012\245N\031\027\200j"
 2247      1BB08678 
 2247      0AA54E19 
 2247      17806A
 2248 0164 383EF9D6 		.ascii	"8>\371\326\252y\367\037\024=\357\354\246\233\367?\016"
 2248      AA79F71F 
 2248      143DEFEC 
 2248      A69BF73F 
 2248      0E
 2249 0175 3E829C8B 		.ascii	">\202\234\213\245x\261\211\027G\213e\311b\313\342\210"
 2249      A578B189 
 2249      17478B65 
 2249      C962CBE2 
 2249      88
 2250 0186 2F200B0F 		.ascii	"/ \013\017\374\024\206\330R\235\210\013\330\205x\002"
 2250      FC1486D8 
 2250      529D880B 
 2250      D8857802 
 2251 0196 C38827B1 		.ascii	"\303\210'\261[\244zd7\"K\257,\000E\202\353\347g7\242"
 2251      5BA47A64 
 2251      37224BAF 
 2251      2C004582 
 2251      EBE76737 
 2252 01ab 57032891 		.ascii	"W\003(\2212\366(\333w\320\2735_\017\362p\215y<d^'B\260"
 2252      32F628DB 
 2252      77D0BB35 
 2252      5F0FF270 
 2252      8D793C64 
 2253 01c3 8A63278F 		.ascii	"\212c'\217t\373\204\315\251\221\251\364\220\234'\256"
 2253      74FB84CD 
 2253      A991A9F4 
 2253      909C27AE 
 2254 01d3 31E05327 		.ascii	"1\340S'.!\3645>-<\203\357\232\312Vq|\256\360\273\362"
 2254      2E21F435 
 2254      3E2D3C83 
 2254      EF9ACA56 
 2254      717CAEF0 
 2255 01e9 89EF2E9F 		.ascii	"\211\357.\237\302\206'\350\023\375wp\020\2279\030[\301"
 2255      C28627E8 
 2255      13FD7770 
 2255      10973918 
 2255      5BC1
 2256 01fb E89366BC 		.ascii	"\350\223f\274h\332\370\200\257n\361\357\333\313~\313"
 2256      68DAF880 
 2256      AF6EF1EF 
 2256      DBCB7ECB 
 2257 020b D06AF93E 		.ascii	"\320j\371>Z\270\307\246\315\276\0060 \316c\205eFI\322"
 2257      5AB8C7A6 
 2257      CDBE0630 
 2257      20CE6385 
 2257      654649D2 
 2258 021f BCC5858C 		.ascii	"\274\305\205\214m\340V\260\303\324\264X\307FQ\235>\365"
 2258      6DE056B0 
 2258      C3D4B458 
 2258      C746519D 
 2258      3EF5
 2259 0231 348BB2D6 		.ascii	"4\213\262\326\212\272\035\256P\210\261x\256\235\230"
ARM GAS  /tmp/ccYLzD4W.s 			page 52


 2259      8ABA1DAE 
 2259      5088B178 
 2259      AE9D98
 2260 0240 C23A27A6 		.ascii	"\302:'\246@\2724\366\336\026\356#G\032\256KuI\267Dt"
 2260      40BA34F6 
 2260      DE16EE23 
 2260      471AAE4B 
 2260      7549B744 
 2261 0255 6EE9E71F 		.ascii	"n\351\347\037\250\335\310\313u\325\356\233\323\224P"
 2261      A8DDC8CB 
 2261      75D5EE9B 
 2261      D39450
 2262 0264 EBFAD6E1 		.ascii	"\353\372\326\341s\271\347\333\012\032/\260\2024n\005"
 2262      73B9E7DB 
 2262      0A1A2FB0 
 2262      82346E05 
 2263 0274 F7DC3E93 		.ascii	"\367\334>\223\3400\351\031\030r\375\343\265Z\005\205"
 2263      E030E919 
 2263      1872FDE3 
 2263      B55A0585 
 2264 0284 1C0DE966 		.ascii	"\034\015\351f\237\002\377Gu\221\251t\213\312\347\356"
 2264      9F02FF47 
 2264      7591A974 
 2264      8BCAE7EE 
 2265 0294 709FBB9A 		.ascii	"p\237\273\232\\V\265X\010\266\363\274Vg\311?1\302\014"
 2265      5C56B558 
 2265      08B6F3BC 
 2265      5667C93F 
 2265      31C20C
 2266 02a7 5ACBB65D 		.ascii	"Z\313\266]\235\377\351\352Z\035\337\325Cr \214*\017"
 2266      9DFFE9EA 
 2266      5A1DDFD5 
 2266      4372208C 
 2266      2A0F
 2267 02b9 B1B7A57A 		.ascii	"\261\267\245z\370\321\177\311*\374\206e\255f\217\266"
 2267      F8D17FC9 
 2267      2AFC8665 
 2267      AD668FB6 
 2268 02c9 991EF51A 		.ascii	"\231\036\365\032I\371\217x\272\3119\266\003\314V\260"
 2268      49F98F78 
 2268      BAC939B6 
 2268      03CC56B0 
 2269 02d9 D9BE3750 		.ascii	"\331\2767P\0048\323\225\001v\312\210@2b\253G\255^z\221"
 2269      0438D395 
 2269      0176CA88 
 2269      403262AB 
 2269      47AD5E7A 
 2270 02ee 39ECBF2E 		.ascii	"9\354\277.\273\314\022\270\321:\251\277\011\211O!\003"
 2270      BBCC12B8 
 2270      D13AA9BF 
 2270      09894F21 
 2270      03
 2271 02ff E449452C 		.ascii	"\344IE,\340<\234CW\344/\307\347\033o\264\3167\300S1"
 2271      E03C9C43 
 2271      57E42FC7 
 2271      E71B6FB4 
 2271      CE37C053 
ARM GAS  /tmp/ccYLzD4W.s 			page 53


 2272 0314 3733988A 		.ascii	"73\230\212\245\343\203\331\241t\336}-\235sS\371\374"
 2272      A5E383D9 
 2272      A174DE7D 
 2272      2D9D7353 
 2272      F9FC
 2273 0326 706CE0B9 		.ascii	"pl\340\271\235\331x2\025\033\034Ln}z\3133\273\362\251"
 2273      9DD97832 
 2273      151B1C4C 
 2273      6E7D7ACB 
 2273      33BBF2A9 
 2274 033a 5CBE1F36 		.ascii	"\\\276\0376Gc\003n:\221~~\347\256\376\276\350\326h_"
 2274      4763036E 
 2274      3A917E7E 
 2274      E7AEFEBE 
 2274      E8D6685F 
 2275 034e 2C93E3FB 		.ascii	",\223\343\373\325t\"\226\033J\306\222n&\361r2\236tS"
 2275      D5742296 
 2275      1B4AC692 
 2275      6E26F172 
 2275      329E7453 
 2276 0362 B9681228 		.ascii	"\271h\022(\223\314>\276\316\025\335\336\237\350Km\217"
 2276      93CC3EBE 
 2276      CE15DDDE 
 2276      9FE84B6D 
 2276      8F
 2277 0373 27C07A69 		.ascii	"'\300zi(\263;K\257\244\2065\357g\311u\263\177\003\017"
 2277      28B33B4B 
 2277      AFA48635 
 2277      EF67C975 
 2277      B37F030F 
 2278 0387 9BA99A   		.ascii	"\233\251\232"
 2279              		.text
 2280              		.section	.gnu.lto_lru_get_last_s.314.305125762047fec2,"e",%progbits
 2281 0000 789C8D56 		.ascii	"x\234\215VoLSW\024\277\347\335\327\226Rh\253l\270,\232"
 2281      6F4C5357 
 2281      14BFE7DD 
 2281      D7965268 
 2281      AB6CB82C 
 2282 0015 543763B6 		.ascii	"T7c\2660\312tN\367a\3116\366\305dd\213\354\323\226\205"
 2282      30CA744E 
 2282      F761C936 
 2282      F6C56464 
 2282      8BECD396 
 2283 002a 94AE596B 		.ascii	"\224\256Yk\254%m5\362\311G\371\227`\026,(\030\005u\025"
 2283      AC256D35 
 2283      F2C947F9 
 2283      9760162C 
 2283      28180575 
 2284 003f 9525CB9C 		.ascii	"\225%\313\234\211n\250\2408\246\240NT\246c\376\233\013"
 2284      896EA8A0 
 2284      38A6A04E 
 2284      54A663FE 
 2284      9B0B
 2285 0051 060599D8 		.ascii	"\006\005\231\330\241.\330 \354\334{__[eDR\356\273=\357"
 2285      A12ED820 
 2285      ECDC7B5F 
 2285      5F5B6544 
ARM GAS  /tmp/ccYLzD4W.s 			page 54


 2285      52EEBB3D 
 2286 0066 777EE79C 		.ascii	"w~\347\234\337=\367\336\276\222N\210\027\010\251&\204"
 2286      DF3DF7DE 
 2286      BE924E88 
 2286      1708A926 
 2286      84
 2287 0077 401A81BA 		.ascii	"@\032\201\272p\215D\024Ey\317 A}8\235\317\250T\021\336"
 2287      708D4414 
 2287      4579CF20 
 2287      417D389D 
 2287      CFA85411 
 2288 008c 28C151F8 		.ascii	"(\301Q\370\276\266\322 W\207\315}\321\330rY\226*\303"
 2288      BEB6D220 
 2288      5787CD7D 
 2288      D1D87259 
 2288      962AC3
 2289 009f 267C6F93 		.ascii	"&|o\223\253\302f\376\324A\203\346\255\207\262pM\367"
 2289      ABC266FE 
 2289      D44183E6 
 2289      AD87B270 
 2289      4DF7
 2290 00b1 E17619DD 		.ascii	"\341v\031\335\270\301\000\365\007\316\3349\036\275\276"
 2290      B8C100F5 
 2290      07CEDC39 
 2290      1EBDBE
 2291 00c0 004E090B 		.ascii	"\000N\011\013\220\015\022\225uz\003\340\223$\376\352"
 2291      900D1295 
 2291      757A03E0 
 2291      9324FEEA 
 2292 00d0 6913853A 		.ascii	"i\023\205:\332B\011\310\352\014\300\366Z\247\242\214"
 2292      DA4209C8 
 2292      EA0CC0F6 
 2292      5AA7A28C 
 2293 00e0 576E3BB7 		.ascii	"Wn;\267\307\324\324\332)\267P\211\354@\300!\200\203"
 2293      C7D4D4DA 
 2293      29B75089 
 2293      EC40C021 
 2293      8083
 2294 00f2 C09C1048 		.ascii	"\300\234\020H\277 \213\020t\341^\233\242\030I\013\245"
 2294      BF208B10 
 2294      74E15E9B 
 2294      A218490B 
 2294      A5
 2295 0103 F0132461 		.ascii	"\360\023$a\320\340\350\261\012d)\033\027\"8\332[Yc\336"
 2295      D0E0E8B1 
 2295      0A64291B 
 2295      172238DA 
 2295      5B5963DE 
 2296 0117 5496867C 		.ascii	"T\226\206|p\030R\030\035\227\254z\002G\200\305!\204"
 2296      70185218 
 2296      1D97AC7A 
 2296      024780C5 
 2296      2184
 2297 0129 E5A42738 		.ascii	"\345\244'8\007h\007\346\255\307\032\306{\013\011\326"
 2297      076807E6 
 2297      ADC71AC6 
 2297      7B0B09D6 
ARM GAS  /tmp/ccYLzD4W.s 			page 55


 2298 0139 B7039351 		.ascii	"\267\003\223Q-\355\223\345O\226\022\350@\033\345\221"
 2298      2DED93E5 
 2298      4F9612E8 
 2298      401BE591 
 2299 0149 F67230CB 		.ascii	"\366r0\313k\274}\343\265\363/7),y\031\216\003\243\022"
 2299      6BBC7DE3 
 2299      B5F32F37 
 2299      292C7919 
 2299      8E03A312 
 2300 015d C1A013D0 		.ascii	"\301\240\023\320\344x8[Mj\274\257\366\336\241\234\256"
 2300      E478385B 
 2300      4D6ABCAF 
 2300      F6DEA19C 
 2300      AE
 2301 016e 72A547D1 		.ascii	"r\245G\321\260$\201\025\325\262hm\023\333\364p\002\215"
 2301      B0248115 
 2301      D5B2686D 
 2301      13DBF470 
 2301      028D
 2302 0180 C7181BC1 		.ascii	"\307\030\033\301\374\340g-?\226\254\014\277h\311\266"
 2302      FCE0672D 
 2302      3F96AC0C 
 2302      BF68C9B6 
 2303 0190 0FB535EB 		.ascii	"\017\2655\353D\272\262\012\200\223\220\014\230\354\032"
 2303      44BAB20A 
 2303      8093900C 
 2303      98EC1A
 2304 019f C4DC4F21 		.ascii	"\304\334O!@G\022\251t<W*\343\2671\225\0364vk\251\234"
 2304      404712A9 
 2304      743C572A 
 2304      E3B73195 
 2304      1E34766B 
 2305 01b5 4E49450F 		.ascii	"NIE\017g\371\027\272O\322\0249X\177\254RUD\007\277\002"
 2305      67F917BA 
 2305      4FD21439 
 2305      587FAC52 
 2305      554407BF 
 2306 01ca 03A9D4E7 		.ascii	"\003\251\324\347P\021\235c\253\246\310\205\341\357>"
 2306      50119D63 
 2306      ABA6C885 
 2306      E1EF3E
 2307 01d9 4360852D 		.ascii	"C`\205-\216$\011d\222\036OVB/\210\032\365<\207\363\300"
 2307      8E240964 
 2307      921E4F56 
 2307      422F881A 
 2307      F53C87F3 
 2308 01ee C2220470 		.ascii	"\302\"\004p%\367\367\351:\225\211\251ZE\271\237\023"
 2308      25F7F7E9 
 2308      3A9589A9 
 2308      5A45B99F 
 2308      13
 2309 01ff 6B1A35CE 		.ascii	"k\0325\316\007l\012\035.C\033\246\210\035``C\032\016"
 2309      076C0A1D 
 2309      2E431BA6 
 2309      881D6060 
 2309      431A0E
 2310 0212 7A235BF8 		.ascii	"z#[\370t63\261!\203\015\231l03\210\205\015V6\314\302"
ARM GAS  /tmp/ccYLzD4W.s 			page 56


 2310      743633B1 
 2310      21830D99 
 2310      6C303388 
 2310      850D5636 
 2311 0228 C190C5C0 		.ascii	"\301\220\305\300sq\2266\217\015\204\324R\022\215\265"
 2311      73719636 
 2311      8F0D84D4 
 2311      52128DB5 
 2312 0238 2E07A593 		.ascii	".\007\245\223\315%>/\303\371&J1IE\206r\374r\027\224"
 2312      CD253E2F 
 2312      C3F9264A 
 2312      31494586 
 2312      72FC7217 
 2313 024d B16F6E5D 		.ascii	"\261on]\371\010\223e\363\201\037L\374q\350\254DF!\264"
 2313      F9089365 
 2313      F3811F4C 
 2313      FC71E8AC 
 2313      444621B4 
 2314 0261 B9661022 		.ascii	"\271f\020\"\024\324\366\247\\\271\275l\333\014\315k"
 2314      14D4F6A7 
 2314      5CB9BD6C 
 2314      DB0CCD6B 
 2315 0271 A1C6085A 		.ascii	"\241\306\010Z.r[\036\232\260y\323\241\017\232Y\233V"
 2315      2E725B1E 
 2315      9AB079D3 
 2315      A10F9A59 
 2315      9B56
 2316 0283 304CAB99 		.ascii	"0L\253\231\251\364\033V\035\205\012\033\332\244\026"
 2316      A9F41B56 
 2316      1D850A1B 
 2316      DAA416
 2317 0292 6ADA410D 		.ascii	"j\332A\015\204 e\013\315\340\201:D\240\366o3#4Kc\267"
 2317      8420650B 
 2317      CDE0813A 
 2317      44A0F66F 
 2317      3323344B 
 2318 02a8 4CC79E09 		.ascii	"L\307\236\011\277#;\322\261\357\255\331l\257\364\243"
 2318      BF233BD2 
 2318      B1EFADD9 
 2318      6CAFF4A3 
 2319 02b8 4122AC8A 		.ascii	"A\"\254\212\320\256\245X>rp\326\213\310\212\317\005"
 2319      D0AEA558 
 2319      3E7270D6 
 2319      8BC88ACF 
 2319      05
 2320 02c9 DA3070C9 		.ascii	"\3320p\311\364\224\341\252\211\307\3050z\265<)Q\036"
 2320      F494E1AA 
 2320      89C7C530 
 2320      7AB53C29 
 2320      511E
 2321 02db 46332317 		.ascii	"F3#\027\\\001\242\006\227\340*\306b\265\251^\206\231"
 2321      5C01A206 
 2321      97E02AC6 
 2321      62B5A95E 
 2321      8699
 2322 02ed B0D7112B 		.ascii	"\260\327\021+\013l\264\006R\221\372\024\344\237\002"
 2322      0B6CB406 
ARM GAS  /tmp/ccYLzD4W.s 			page 57


 2322      5291FA14 
 2322      E49F02
 2323 02fc 897C22B5 		.ascii	"\211|\"\265\351<\014)\036\177\211<\220\210yD>\347\325"
 2323      E93C0C29 
 2323      1E7F893C 
 2323      90887944 
 2323      3EE7D5
 2324 030f DC50651C 		.ascii	"\334Pe\034\316\216\320\364\3512\303\226\260\300\000"
 2324      CE8ED0F4 
 2324      E932C396 
 2324      B0C000
 2325 031e BAEA785A 		.ascii	"\272\352xZ\345\015\325(\226\011\301\254r=LNMMY\246\015"
 2325      E50DD528 
 2325      9609C1AC 
 2325      723D4C4E 
 2325      4D4D59A6 
 2326 0333 9EE43E28 		.ascii	"\236\344>(\334\321\217\307|\304E\016\331^Gl\364\374"
 2326      DCD18FC7 
 2326      7CC4450E 
 2326      D95E476C 
 2326      F4FC
 2327 0345 FEA8026C 		.ascii	"\376\250\002l\267\220}\352!\032\247i{RgH0%7\313\020"
 2327      B7907DEA 
 2327      211AA769 
 2327      7B526748 
 2327      302537CB 
 2328 035a F2E9D566 		.ascii	"\362\351\325f\031\222X\263\014\203\350\303\220\0157"
 2328      199258B3 
 2328      0C83E8C3 
 2328      900D37
 2329 0369 10DCE12D 		.ascii	"\020\334\341-\371`x\357DM\003\340\036\342Q\303gq~A\314"
 2329      F96078EF 
 2329      444D03E0 
 2329      1EE251C3 
 2329      67717E41 
 2330 037e B7E0A6E2 		.ascii	"\267\340\246\342UK\021:W]E\035\274\304#c\306\351,\346"
 2330      554B113A 
 2330      575D451D 
 2330      BCC42363 
 2330      C6E92CE6 
 2331 0392 88269D15 		.ascii	"\210&\235\025\376\306\200\006\266\033\231\002MU\227"
 2331      FEC68006 
 2331      B61B9902 
 2331      4D5597
 2332 03a1 518279E8 		.ascii	"Q\202y\350\311\334\254\260!\271\374\247\274YvV\270\037"
 2332      C9DCACB0 
 2332      21B9FCA7 
 2332      BC597656 
 2332      B81F
 2333 03b3 77473796 		.ascii	"wG7\226dt\327\356\233\354ba\233\235\3473a\022\322^\246"
 2333      6474D7EE 
 2333      9BEC6261 
 2333      9B9DE733 
 2333      6112D25E 
 2334 03c8 119A8132 		.ascii	"\021\232\2012\011m\255d\030*\206\272\212\321&\014B\237"
 2334      096DAD64 
 2334      182A86BA 
ARM GAS  /tmp/ccYLzD4W.s 			page 58


 2334      8AD1260C 
 2334      429F
 2335 03da 4D54E65B 		.ascii	"MT\346[R\335\205\003\365\275Tx\017\2427\356\2064\001"
 2335      52DD8503 
 2335      F5BD5478 
 2335      0FA237EE 
 2335      863401
 2336 03ed 9698F770 		.ascii	"\226\230\367p\327*\264\301\030w\215A\032r\323\321\033"
 2336      D72AB4C1 
 2336      18778D41 
 2336      1A72D3D1 
 2336      1B
 2337 03fe 072106D8 		.ascii	"\007!\006\330\211Yt\364\232\033\351tm\035\233\347jt"
 2337      895974F4 
 2337      9A1BE974 
 2337      6D1D9BE7 
 2337      6A74
 2338 0410 5B7A33E2 		.ascii	"[z3\342\255jN]QcJ;=\304\242\322\022mm\231\011\373/b"
 2338      AD6A4E5D 
 2338      51634A3B 
 2338      3DC4A2D2 
 2338      126D6D99 
 2339 0428 8DFFD3D6 		.ascii	"\215\377\323\326\346\024\344\270@\"\237\326\326\214"
 2339      E614E4B8 
 2339      40229FD6 
 2339      D68C
 2340 0436 DD3A137B 		.ascii	"\335:\023{l\006vk\012rB\344\214A\271\216\372\270\216"
 2340      6C06766B 
 2340      0A7242E4 
 2340      8C41B98E 
 2340      FAB88E
 2341 0449 C036C45A 		.ascii	"\3006\304Z^~3W3464G;T2\237\211i\201I\321\322Lj\213\272"
 2341      5E7E3357 
 2341      33343634 
 2341      473B5432 
 2341      9F896981 
 2342 0464 8807D073 		.ascii	"\210\007\320s\014\317\223w#<\033\3447\204+\373\273\251"
 2342      0CCF9377 
 2342      233C1BE4 
 2342      37842BFB 
 2342      BBA9
 2343 0476 A6ECD15E 		.ascii	"\246\354\321^~\270<x\\{\244\021{\261C\364\342\361\306"
 2343      7EB83C78 
 2343      5C7BA411 
 2343      7BB143F4 
 2343      E2F1C6
 2344 0489 4695E062 		.ascii	"F\225\340b\377\253bO\366\303Sg\316\3039\334q\317\316"
 2344      FFAB624F 
 2344      F6C35367 
 2344      CEC339DC 
 2344      71CFCE
 2345 049c AB237F64 		.ascii	"\253#\177d\341m\311\215\377\214l\345\216\330\363'x\007"
 2345      E16DC98D 
 2345      FF8C6CE5 
 2345      8ED8F327 
 2345      7807
 2346 04ae CB82E7C1 		.ascii	"\313\202\347\301\343\206\037o6\003^\245\"\352M#t\001"
ARM GAS  /tmp/ccYLzD4W.s 			page 59


 2346      E3861F6F 
 2346      36035EA5 
 2346      22EA4D23 
 2346      7401
 2347 04c0 B90FA105 		.ascii	"\271\017\241\005\354&\351\223\260\256\371\267\244*,"
 2347      EC26E993 
 2347      B0AEF9B7 
 2347      A42A2C
 2348 04cf 63164ED9 		.ascii	"c\026N\331i\003!\211\340\023\312%(\343\267\333\374\333"
 2348      69032189 
 2348      E013CA25 
 2348      28E3B7DB 
 2348      FCDB
 2349 04e1 FCFD6CFE 		.ascii	"\374\375l\376\262R\342Q\242-;\243#\370\013\353\004\250"
 2349      B252E251 
 2349      A22D3BA3 
 2349      23F80BEB 
 2349      04A8
 2350 04f3 87FFEE47 		.ascii	"\207\377\356G\237\262M\307\305\312\326\304\312x\346"
 2350      9FB24DC7 
 2350      C5CAD6C4 
 2350      CA78E6
 2351 0502 54B340B5 		.ascii	"T\263@\265\224$\226\250\250\277W=w,\021\236F|\311\342"
 2351      942496A8 
 2351      A8BF573D 
 2351      772C119E 
 2351      467CC9E2 
 2352 0516 A7B7EA9B 		.ascii	"\247\267\352\233\0055\350\213\277\361\360*\250\332\365"
 2352      0535E88B 
 2352      BFF1F02A 
 2352      A8DAF5
 2353 0525 0EAEDC2C 		.ascii	"\016\256\334,\374\307>\317bd/\260\203\343E\241\231\246"
 2353      FCC73ECF 
 2353      62642FB0 
 2353      83E345A1 
 2353      99A6
 2354 0537 6D1DD3F6 		.ascii	"m\035\323\366\244\250\275\261\337\210\277\007T\355b"
 2354      A4A8BDB1 
 2354      DF88BF07 
 2354      54ED62
 2355 0546 7751BB6E 		.ascii	"wQ\273n\361b{B\273\036U;[\262v\247\023\332\235I\326"
 2355      F1627B42 
 2355      BB1E553B 
 2355      5BB276A7 
 2355      13DA9D49 
 2356 055b 4E55E96B 		.ascii	"NU\351k\256W\2624\333\2304=\2524\217k\2676\356\0015"
 2356      AE57B234 
 2356      DB98343D 
 2356      AA348F6B 
 2356      B736EE01 
 2357 0570 F2C0F6C6 		.ascii	"\362\300\366\306l\302.R\340\335\026\352d\275\361\206"
 2357      6CC22E52 
 2357      E0DD16EA 
 2357      64BDF186 
 2358 0580 DDEDF3BA 		.ascii	"\335\355\363\272\354\036\207\267\304\357\011\272\327"
 2358      EC1E87B7 
 2358      C4EF09BA 
ARM GAS  /tmp/ccYLzD4W.s 			page 60


 2358      D7
 2359 058d 79026E57 		.ascii	"y\002nW0Xj\317\377\260\260\304\341t\331\275^\347\222"
 2359      30586ACF 
 2359      FFB0B0C4 
 2359      E174D9BD 
 2359      5EE792
 2360 05a0 B7DE7CBB 		.ascii	"\267\336|\273(\350\012\004\027\223\234\\{\276\333S\354"
 2360      28E80A04 
 2360      17939C5C 
 2360      7BBEDB53 
 2360      EC
 2361 05b1 F9B8B068 		.ascii	"\371\270\260hq^\356\222\334<\273/\200\237\325\236b{"
 2361      715EEE92 
 2361      DC3CBB2F 
 2361      809FD59E 
 2361      627B
 2362 05c3 C0EFB43B 		.ascii	"\300\357\264;\335\276\342UN\207\323\355\012\344:\011"
 2362      DDBEE255 
 2362      4E87D3ED 
 2362      0AE43A09 
 2363 05d3 F5394BE6 		.ascii	"\3659K\346\244\230r\227-.\316s-s\024\023\031\255%\213"
 2363      A4987297 
 2363      2D2ECE73 
 2363      2D731413 
 2363      19AD258B 
 2364 05e7 A663F307 		.ascii	"\246c\363\007\355\2365\316\325k\277t!]\2404\220\353"
 2364      ED9E35CE 
 2364      D56BBF74 
 2364      215DA034 
 2364      90EB
 2365 05f9 26866247 		.ascii	"&\206bG\300\365\211\337\363\301tx\247\317\353\365\255"
 2365      C0F589DF 
 2365      F3C17478 
 2365      A7CFEBF5 
 2365      AD
 2366 060a B1BBD607 		.ascii	"\261\273\326\007\355\357\257,\260\347\027\024\256(\264"
 2366      EDEFAF2C 
 2366      B0E71714 
 2366      AE28B4
 2367 0619 E7FBFC2E 		.ascii	"\347\373\374.\373\2128\2157\340\011\024}\345t\"\325"
 2367      FB8A388D 
 2367      37E00914 
 2367      7DE57422 
 2367      D5
 2368 062a D219284A 		.ascii	"\322\031(J|\376`\200\221\344\027\254\307\330N\344(Z"
 2368      7CFE6080 
 2368      91E417AC 
 2368      C7D84EE4 
 2368      285A
 2369 063c B7CC8B5E 		.ascii	"\267\314\213^R\340yru1\250\265\240p\245\215\345\213"
 2369      52E07972 
 2369      7531A8B5 
 2369      A070A58D 
 2369      E58B
 2370 064e 72E6D816 		.ascii	"r\346\330\026\346\021\311O\014^\227\327\347/%\377\001"
 2370      E611C94F 
 2370      0C5E97D7 
ARM GAS  /tmp/ccYLzD4W.s 			page 61


 2370      E72F25FF 
 2370      01
 2371 065f 2F13BF63 		.ascii	"/\023\277c"
 2372              		.text
 2373              		.section	.gnu.lto_chCacheObjectInit.315.305125762047fec2,"e",%progbits
 2374 0000 789C8D96 		.ascii	"x\234\215\226\177lSU\024\307\357y\367\275\276\327v\353"
 2374      7F6C5355 
 2374      14C7EF79 
 2374      F7BDBED7 
 2374      76EB
 2375 0012 36C63642 		.ascii	"6\3066B0A3cL\244\257\200\021\376\223\004\377\367\017"
 2375      30413363 
 2375      4CA4AF80 
 2375      11FE9304 
 2375      FFF70F
 2376 0025 E29F86BC 		.ascii	"\342\237\206\274\325\222\3168\266\254\013\006\377\331"
 2376      D592CE38 
 2376      B6AC0B06 
 2376      FFD9
 2377 0033 DBA09B29 		.ascii	"\333\240\233)!k\267\011\212\200\2466:\375\003\001\303"
 2377      216BB709 
 2377      8A80A636 
 2377      3AFD0301 
 2377      C3
 2378 0044 0F75C81C 		.ascii	"\017u\310\034\352DE\241d!\210\213\272\010l\374\030c"
 2378      EA4445A1 
 2378      6421888B 
 2378      BA086CFC 
 2378      1863
 2379 0056 D1081356 		.ascii	"\321\010\023V\317=\267\257]g\315\332l\267\267\347~?"
 2379      CF3DB7AF 
 2379      5D67CDDA 
 2379      6CB7B7E7 
 2379      7E3F
 2380 0068 E7DC77EF 		.ascii	"\347\334w\3579\247\355\3650\366\001c\354\030\376\203"
 2380      39A7EDF5 
 2380      30F60163 
 2380      EC18FE83 
 2381 0078 9B416F22 		.ascii	"\233Ao\"\2460\333\2667\350\012\364%<4\343\312\233\361"
 2381      A630DBB6 
 2381      37E80AF4 
 2381      253C34E3 
 2381      CA9BF1
 2382 008b A38FC208 		.ascii	"\243\217\302\010\244\247g\327\253]\011\337\241\236\250"
 2382      A4A767D7 
 2382      AB5D09DF 
 2382      A19EA8
 2383 009a AE1AD077 		.ascii	"\256\032\320w\244RJ]\260\224\336U\245;\261Kq\204\321"
 2383      A4524A5D 
 2383      B094DE55 
 2383      A53BB14B 
 2383      7184D1
 2384 00ad AC50877E 		.ascii	"\254P\207~G\250AG\"\346F\001}\002\326\256p\303\245\242"
 2384      47A84147 
 2384      22E64601 
 2384      7D02D6AE 
 2384      70C3A5A2 
ARM GAS  /tmp/ccYLzD4W.s 			page 62


 2385 00c1 B99D7306 		.ascii	"\271\235s\006C*\314e2\031\310MX\366\245\322\032Z2\025"
 2385      432ACC65 
 2385      3219C84D 
 2385      58F6A5D2 
 2385      1A5A3215 
 2386 00d5 B989B3D6 		.ascii	"\271\211\263\326\307\237Dg\367\242\373&\321\353\300"
 2386      C79F4467 
 2386      F7A2FB26 
 2386      D1EBC0
 2387 00e4 10A43863 		.ascii	"\020\2448c\007yvq?\207^\236\342\000jv\246\300J\234\361"
 2387      07797671 
 2387      3F875E9E 
 2387      E2006A76 
 2387      A6C04A9C 
 2388 00f9 17D91343 		.ascii	"\027\331\023C\266}\376\362I\333v\263\024\347p\002\220"
 2388      B67DFEF2 
 2388      49DB76B3 
 2388      14E77002 
 2388      90
 2389 010a 81E300C7 		.ascii	"\201\343\000\3070(\032\254\217*\204n;\351\246o\\\357"
 2389      30281AAC 
 2389      8F2A846E 
 2389      3BE9A66F 
 2389      5CEF
 2390 011c F1C5D1B3 		.ascii	"\361\305\321\263\012\237\026\352T\3538\351\332\245\356"
 2390      0A9F16EA 
 2390      54EB38E9 
 2390      DAA5EE
 2391 012b E6C81ED2 		.ascii	"\346\310\036\322i\360y\241N\263\206I\027\005)\274\225"
 2391      69F079A1 
 2391      4EB38649 
 2391      170529BC 
 2391      95
 2392 013c 73786AA1 		.ascii	"sxj\241\303\037I\030\223\302\303\267\273\273\355J5\305"
 2392      C31F4918 
 2392      93C2C3B7 
 2392      BBBBED4A 
 2392      35C5
 2393 014e 5D70BA50 		.ascii	"]p\272P\350\262~&a<\353qjDz\324\341\313B\241n]#\341"
 2393      E8B27E26 
 2393      613CEB71 
 2393      6A447AD4 
 2393      E1CB42A1 
 2394 0166 9EACF0CE 		.ascii	"\236\254\360\316\365^\022\032p\246PhX3$\334\237\025"
 2394      F55E121A 
 2394      70A65068 
 2394      583324DC 
 2394      9F15
 2395 0178 DEEBEE23 		.ascii	"\336\353\356#\241\033\276.\024\272\2559<}W\366\230A"
 2395      A11BBE2E 
 2395      14BAAD39 
 2395      3C7D57F6 
 2395      9841
 2396 018a 30EF8138 		.ascii	"0\357\2018\352\307\005v\350l\314\027\3570R\334\003\337"
 2396      EAC70576 
 2396      E86CCC17 
 2396      EF3052DC 
ARM GAS  /tmp/ccYLzD4W.s 			page 63


 2396      03DF
 2397 019c CEE718B3 		.ascii	"\316\347\030\263\372+]\014\316\002\303\373gV_\2450~"
 2397      FA2B5D0C 
 2397      CE02C3FB 
 2397      67565FA5 
 2397      307E
 2398 01ae 9CD686EC 		.ascii	"\234\326\206\354\007\231\036\333\036y\366\227\301\243"
 2398      07991EDB 
 2398      1E79F697 
 2398      C1A3
 2399 01bc 9ED5B8FA 		.ascii	"\236\325\270\372\005(\014\206\001\321AP1\236W\023\203"
 2399      05280C86 
 2399      01D14150 
 2399      319E5713 
 2399      83
 2400 01cd 0B87321D 		.ascii	"\013\2072\035\207r\003\007\237\2706\315#\026\2748x|"
 2400      87720307 
 2400      9FB836CD 
 2400      2316BC38 
 2400      787C
 2401 01df 0027A10A 		.ascii	"\000'\241\012\220\255\006\370\014j\000\331e\200^\226"
 2401      90AD06F8 
 2401      0C6A00D9 
 2401      65805E96 
 2402 01ef 037C052B 		.ascii	"\003|\005+\000\276\201z\341\317\217\311\005\246p\037"
 2402      00BE817A 
 2402      E1CF8FC9 
 2402      05A6701F 
 2403 01ff 108118EB 		.ascii	"\020\201\030\353\341lzv`=\330C\214\305\271B\363\016"
 2403      E16C7A76 
 2403      603DD843 
 2403      8CC5B942 
 2403      F30E
 2404 0211 9CDF007B 		.ascii	"\234\337\000{\374\257\237@\274?\226\033\306\343K\330"
 2404      FCAF9F40 
 2404      BC3F961B 
 2404      C6E34BD8 
 2405 0221 1474F6C7 		.ascii	"\024t\366\307 \311\235\214\342\364\350\357\213\214\236"
 2405      20C99D8C 
 2405      E2F4E8EF 
 2405      8B8C9E
 2406 0230 A84BF18A 		.ascii	"\250K\361\212$\367\301\367d\013\240\011\317\241\022"
 2406      24F7C1F7 
 2406      640BA009 
 2406      CFA112
 2407 023f 7E8003E2 		.ascii	"~\200\003\342\244v\222\006O\324\013\3470\3624DW\242"
 2407      A4769206 
 2407      4FD40BE7 
 2407      30F23444 
 2407      57A2
 2408 0251 4D49F1AA 		.ascii	"MI\361\252\203\350\204\241K\341\257\014P\261\204\242"
 2408      83E884A1 
 2408      4BE1AF0C 
 2408      50B184A2 
 2409 0261 F5E6A369 		.ascii	"\365\346\243i\213\305\270\2001\240 F\032?\"\376\240"
 2409      8BC5B880 
 2409      31A02046 
ARM GAS  /tmp/ccYLzD4W.s 			page 64


 2409      1A3F22FE 
 2409      A0
 2410 0272 1B715792 		.ascii	"\033qW\222W\025\011\250\341\212\023\254\237\202\355"
 2410      571509A8 
 2410      E18A13AC 
 2410      9F82ED
 2411 0281 9B5CE144 		.ascii	"\233\\\341D\032\340\371H\3310*\214b\030E\240\325\004"
 2411      1AE0F948 
 2411      D9302A8C 
 2411      621845A0 
 2411      D504
 2412 0293 EDC5208B 		.ascii	"\355\305 \213R\032\\B\212\013\252\206\250\267J\241T"
 2412      521A5C42 
 2412      8A0BAA86 
 2412      A8B74AA1 
 2412      54
 2413 02a4 B88C942A 		.ascii	"\270\214\224*\250*\242\336.\205\322\341\012R\232\240"
 2413      A82AA2DE 
 2413      2E85D2E1 
 2413      0A529AA0 
 2414 02b4 961175A0 		.ascii	"\226\021u\240\024\312\2001\244\\\202ZN\324;\245Pn\370"
 2414      14CA8031 
 2414      A45C825A 
 2414      4ED43BA5 
 2414      506EF8
 2415 02c7 15295D50 		.ascii	"\025)]P+\210:\"\251\231\211\242T\376\266\252\341w\004"
 2415      2B883A22 
 2415      A99989A2 
 2415      54FEB6AA 
 2415      E17704
 2416 02da 0D468E26 		.ascii	"\015F\216&\312E\251\214\243\301\315\230H\000\017\310"
 2416      CA45A98C 
 2416      A3C1CD98 
 2416      48000FC8 
 2417 02ea ECFBA464 		.ascii	"\354\373\244doW\027z\273\206\006\354\353\360\007\345"
 2417      6F57177A 
 2417      BB8606EC 
 2417      EBF007E5 
 2418 02fa EFF831E9 		.ascii	"\357\3701\351\251?6\212\027\256\347\274\231\305\275"
 2418      A93F368A 
 2418      17AEE7BC 
 2418      99C5BD
 2419 0309 4D486F94 		.ascii	"MHo\224I\003\253\260\336`Rf\322t\354\034_l+7\027n\345"
 2419      4903ABB0 
 2419      DE605266 
 2419      D274EC1C 
 2419      5F6C2B37 
 2420 0320 161ABCE2 		.ascii	"\026\032\274\342\210t\332\312\011\271\225R\\M-tu\007"
 2420      8874DACA 
 2420      09B99552 
 2420      5C4D2D74 
 2420      7507
 2421 0332 0D65D295 		.ascii	"\015e\322\225\250U\216\013\266*\212\025n@\347\006Q\335"
 2421      A8558E0B 
 2421      B62A8A15 
 2421      6E40E706 
 2421      51DD
ARM GAS  /tmp/ccYLzD4W.s 			page 65


 2422 0344 49CC3211 		.ascii	"I\3142\021\345TZ|\307\320\364tZ\241\233\374\260.[\257"
 2422      E5545A7C 
 2422      C7D0F474 
 2422      5AA19BFC 
 2422      B02E5BAF 
 2423 0358 5ABE5E07 		.ascii	"Z\276^\007\320\355Rd\340n\356N=0\203Q\312E\024\351\352"
 2423      D0ED5264 
 2423      E06EEE4E 
 2423      3D308351 
 2423      CA4514E9 
 2424 036d C27CFEFF 		.ascii	"\302|\376\377\251?\221\362\345\251\213D\3558\3325\212"
 2424      A93F91F2 
 2424      E5A98B44 
 2424      ED38DA35 
 2424      8A
 2425 037e 7BAA47AB 		.ascii	"{\252G\253\374\0262p\261s%m\264\236t\243\351r\241;\334"
 2425      FC163270 
 2425      B173256D 
 2425      B49E74A3 
 2425      E972A13B 
 2426 0393 F59027B9 		.ascii	"\365\220'\271\201U%t*\352\010\276\252$\271\033\213\006"
 2426      81552574 
 2426      2AEA08BE 
 2426      AA24B91B 
 2426      8B06
 2427 03a5 97D824EC 		.ascii	"\227\330$\354\034;\343\243\317\365\242\231\316\002\022"
 2427      1C3BE3A3 
 2427      CFF5A299 
 2427      CE0212
 2428 03b4 358A8A21 		.ascii	"5\212\212!\353\215\203oL\032\342\201{\270\221\210^\032"
 2428      EB8D836F 
 2428      4C1AE281 
 2428      7BB89188 
 2428      5E1A
 2429 03c6 C1483875 		.ascii	"\301H8uQ/\003<)u\341I\015\343\006\024\334\200\202-0"
 2429      512F033C 
 2429      2975E149 
 2429      0DE30614 
 2429      DC80822D 
 2430 03db C9E5415D 		.ascii	"\311\345A]\311\237\331X\332\003\337\211i\347\273/`\277"
 2430      C99FD958 
 2430      DA03DF89 
 2430      69E7BB2F 
 2430      60BF
 2431 03ed 965A7BFC 		.ascii	"\226Z{\374\256<\012\352G\236\334i<\222\022\033TD\256"
 2431      AE3C0AEA 
 2431      479EDC69 
 2431      3C92121B 
 2431      5444AE
 2432 0400 CDEF47F7 		.ascii	"\315\357G\367\360@*\234~\244\210~t\277h\317\363\300"
 2432      F0402A9C 
 2432      7EA4887E 
 2432      74BF68CF 
 2432      F3C0
 2433 0412 F95CBF9B 		.ascii	"\371\\\277\233\241\0264\210\217\350u\334\033\305s\343"
 2433      A1163488 
 2433      8FE875DC 
ARM GAS  /tmp/ccYLzD4W.s 			page 66


 2433      1BC573E3 
 2434 0422 413E37E8 		.ascii	"A>7\350\370\037\312,\223\251\005\363`gk9e\006\225\225"
 2434      F81FCA2C 
 2434      93A905F3 
 2434      60676B39 
 2434      65069595 
 2435 0436 22B05776 		.ascii	"\"\260Wv\365\305\211\016\345\000v '\203\211\330\343"
 2435      F5C5890E 
 2435      E5007620 
 2435      278389D8 
 2435      E3
 2436 0447 2E04BC05 		.ascii	".\004\274\005\300\016\007P\212\003\305\036(\252\024"
 2436      C00E0750 
 2436      8A03C51E 
 2436      28AA14
 2437 0456 3E509792 		.ascii	">P\227\222-\033\362\221l\227\337G\362\002f&js\337\006"
 2437      2D1BF291 
 2437      6C97DF47 
 2437      F2026626 
 2437      6A73DF06 
 2438 046a 65FFD970 		.ascii	"e\377\331p-\274\216\354\022\331Kj\263\275\344\357\322"
 2438      2DBC8EEC 
 2438      12D94B6A 
 2438      B3BDE4EF 
 2438      D2
 2439 047b C85D4856 		.ascii	"\310]HVc\337\210\311\013\277_\012U\007\273\221Z*\343"
 2439      63DF88C9 
 2439      0BBF5F0A 
 2439      5507BB91 
 2439      5A2AE3
 2440 048e D581CCA0 		.ascii	"\325\201\314\240\177J!u\210#Y\203\361\374\004=t\212"
 2440      7F4A2175 
 2440      88235983 
 2440      F1FC043D 
 2440      748A
 2441 04a0 660C13CC 		.ascii	"f\014\023\314Dm\222\373e\301\210|5I\223\221\232\375"
 2441      446D92FB 
 2441      65C1887C 
 2441      35499391 
 2441      9AFD
 2442 04b2 5DE7D014 		.ascii	"]\347\320\024H\312\222v~\021\222Vdt\200\264\211\213"
 2442      48CA9276 
 2442      7E119256 
 2442      647480B4 
 2442      898B
 2443 04c4 BB41A434 		.ascii	"\273A\2444\226\316\244(\235\200\3242Y>(\253r\211\362"
 2443      96CEA428 
 2443      9D80D432 
 2443      593E28AB 
 2443      7289F2
 2444 04d7 09E8737B 		.ascii	"\011\350s{\257\032\230\360\263\200\021\227\221\315\324"
 2444      AF1A98F0 
 2444      B3801197 
 2444      91CDD4
 2445 04e6 A7F6DE16 		.ascii	"\247\366\336\0266\254#\335)\2518\327r?\017f\240\363"
 2445      36AC23DD 
 2445      29A938D7 
ARM GAS  /tmp/ccYLzD4W.s 			page 67


 2445      723F0F66 
 2445      A0F3
 2446 04f8 B7BE8B54 		.ascii	"\267\276\213Tt\342\325\303!\367+\202\261Uf\270\271)"
 2446      74E2D5C3 
 2446      21F72B82 
 2446      B15566B8 
 2446      B929
 2447 050a 64365A4D 		.ascii	"d6ZM-\255\215m\341m\215\221p\250\255m\273\271\361\271"
 2447      2DAD8D6D 
 2447      E16D8D91 
 2447      70A8AD6D 
 2447      BBB9F1B9 
 2448 051e 4D2D5630 		.ascii	"M-V0d65\005\327>\275\372\231\315m\241H\333\032\366\224"
 2448      64363505 
 2448      D73EBDFA 
 2448      99CD6DA1 
 2448      48DB1AF6 
 2449 0533 DFDC186E 		.ascii	"\337\334\030nlh|~\323\3465\001\377Z\177\300l\216\340"
 2449      6C687C7E 
 2449      D3E63501 
 2449      FF5A7FC0 
 2449      6C8EE0
 2450 0546 DF2B8D0D 		.ascii	"\337+\215\015f\2445h\006\303\315\015/\007\255`8\024"
 2450      66A43568 
 2450      06C3CD0D 
 2450      2F07AD60 
 2450      3814
 2451 0558 F107196F 		.ascii	"\361\007\031o\016\266\324\025\230\374\353\3264\004B"
 2451      0EB6D415 
 2451      98FCEBD6 
 2451      340442
 2452 0567 EBAC06A6 		.ascii	"\353\254\006\246\205\255Hx+\215-**\266j8D^\023\343\266"
 2452      85AD4878 
 2452      2B8D2D2A 
 2452      2AB66A38 
 2452      445E13E3 
 2453 057c 16AD3564 		.ascii	"\026\2555d\275\264\305\365*n(\264E\254\266\374\013\031"
 2453      BDB4C5F5 
 2453      2A6E28B4 
 2453      45ACB6FC 
 2453      0B19
 2454 058e C29DDF   		.ascii	"\302\235\337"
 2455              		.text
 2456              		.section	.gnu.lto_chCacheGetObject.316.305125762047fec2,"e",%progbits
 2457 0000 789C8D56 		.ascii	"x\234\215V}lTU\026\277\347\335\367\346\315\264e\372"
 2457      7D6C5455 
 2457      16BFE7DD 
 2457      F7E6CDB4 
 2457      65FA
 2458 0012 4541D82C 		.ascii	"EA\330,VXB4l\247\",\331d\377p\355\376c6\325\215\375"
 2458      56584234 
 2458      6CA7222C 
 2458      D964FF70 
 2458      EDFE6336 
 2459 0029 DB34D3D9 		.ascii	"\3334\323\331\2113\3528u\246\030\0337\341\321/\322\272"
 2459      8933EA38 
 2459      75A6181B 
ARM GAS  /tmp/ccYLzD4W.s 			page 68


 2459      37E1D12F 
 2459      D2BA
 2460 003b 9B322DB6 		.ascii	"\2332-\266\335n\231\302d\0246\331\304\262\210\" \026"
 2460      DD6E99C2 
 2460      641436D9 
 2460      C4B28822 
 2460      2016
 2461 004d 2B2A1468 		.ascii	"+*\024h\221\245\003Z\202\324\005[*:P\300\322\360\261"
 2461      91A5035A 
 2461      82D4055B 
 2461      2A3A50C0 
 2461      D2F0B1
 2462 0060 E7DCFBE6 		.ascii	"\347\334\373\346\253[\220\246\271\357\276\363~\347\234"
 2462      AB5B90A6 
 2462      B9EFBEF3 
 2462      7EE79C
 2463 006f DF39F79C 		.ascii	"\3379\367\234{\246>\207\2617\200\261\2770\306\300\312"
 2463      7BA63E87 
 2463      B13780B1 
 2463      BF30C6C0 
 2463      CA
 2464 0080 A02DD4A2 		.ascii	"\240-\324\2420\3030\236\324\025\245>\364\246\002\037"
 2464      30C3309E 
 2464      D415A53E 
 2464      F4A6021F 
 2465 0090 4377E8FB 		.ascii	"Cw\350\373\325jS\310~\361\207\366l\225+\015\241\354"
 2465      D56A53C8 
 2465      7EF187F6 
 2465      6C952B0D 
 2465      A1EC
 2466 00a2 D6C69843 		.ascii	"\326\306\230Cm\014\331\257\314\354\310SU\350\014\035"
 2466      6D0CD9AF 
 2466      CCECC853 
 2466      55E80C1D 
 2467 00b2 19D872E6 		.ascii	"\031\330r\346_\012\034\003\241\251\241$a\305\202\373"
 2467      5F0A1C03 
 2467      A1A9A124 
 2467      61C582FB 
 2468 00c2 2CB1D361 		.ascii	",\261\323aC\350\310\306c\337\275\275\014m\012\011\260"
 2468      43E8C8C6 
 2468      63DFBDBD 
 2468      0C6D0A09 
 2468      B0
 2469 00d3 F50A5735 		.ascii	"\365\012W5\213\016\353\241\235\367ph\343Q\316@5w\000"
 2469      8B0EEBA1 
 2469      9DF77068 
 2469      E351CE40 
 2469      357700
 2470 00e6 C58FF61B 		.ascii	"\305\217\366\033\306tc\367\370a\275gG\277\032\345\012"
 2470      C67463F7 
 2470      F861BD67 
 2470      47BF1AE5 
 2470      0A
 2471 00f7 0B236037 		.ascii	"\013#`7\300{H\2311\004\362\347\331\012\004\015\217\357"
 2471      C07B4899 
 2471      3104F2E7 
 2471      D90A040D 
ARM GAS  /tmp/ccYLzD4W.s 			page 69


 2471      8FEF
 2472 0109 310C1B8B 		.ascii	"1\014\033\213r\016\037@\032\006\005\316\375v\302\325"
 2472      720E1F40 
 2472      1A0605CE 
 2472      FD76C2D5 
 2473 0119 0A5C7CA2 		.ascii	"\012\\|\242\271\303\276\011\242\\\205\0173q\252\363"
 2473      B9C3BE09 
 2473      A25C850F 
 2473      3371AAF3 
 2474 0129 B0C0AD17 		.ascii	"\260\300\255\027\270\276K\315\033\215<\225p\373f\343"
 2474      B8BE4BCD 
 2474      1B8D3C95 
 2474      70FB66E3 
 2475 0139 46ECD273 		.ascii	"F\354\322s=\320c9Y\235ln\261o\332`E\202\360\021dPt~"
 2475      3DD06339 
 2475      599D6C6E 
 2475      B16FDA60 
 2475      4582F011 
 2476 0151 6BB73038 		.ascii	"k\26708\000D\2341\015\025,\014\367\000\375B\333\202"
 2476      00449C31 
 2476      0D152C0C 
 2476      F700FD42 
 2476      DB82
 2477 0163 8998BEB8 		.ascii	"\211\230\276\270\206aJ\302\030\235)\351\351j\274\255"
 2477      86614AC2 
 2477      189D29E9 
 2477      E96ABCAD 
 2478 0173 31388832 		.ascii	"18\2102.\\\365\0110\021\233\216\277\371\365\320\342"
 2478      2E5CF509 
 2478      30119B8E 
 2478      BFF9F5D0 
 2478      E2
 2479 0184 1EA35F70 		.ascii	"\036\243_p\033\0002%\235\301\247\024\226\363Z\201Ij"
 2479      1B003225 
 2479      9DC1A714 
 2479      96F35A81 
 2479      496A
 2480 0196 FA46EBE5 		.ascii	"\372F\353\345\335+\007\352\215/\214$\226\245\2602}\344"
 2480      DD2B07EA 
 2480      8D2F8C24 
 2480      96A5B032 
 2480      7DE4
 2481 01a8 6DCFAD6E 		.ascii	"m\317\255n\013\034B\341'd\215!?\370,\311\217\310\252"
 2481      0B1C42E1 
 2481      27648D21 
 2481      3FF82CC9 
 2481      8FC8AA
 2482 01bb F08578E1 		.ascii	"\360\205x\341;\225$\215\323\355\007\032M\032\032\034"
 2482      3B95248D 
 2482      D3ED071A 
 2482      4D1A1A1C 
 2483 01cb 060299A6 		.ascii	"\006\002\231\246\217 \015\315\331\225\2441|\360\370"
 2483      8F200DCD 
 2483      D995A431 
 2483      7CF0F8
 2484 01da EF10D850 		.ascii	"\357\020\330P\234@\262\0242Eb\372\370:\030\004\231\007"
 2484      9C40B214 
ARM GAS  /tmp/ccYLzD4W.s 			page 70


 2484      324562FA 
 2484      F83A1804 
 2484      9907
 2485 01ec 5570380A 		.ascii	"Up8\012\246[\301A\203\343\220\346\374\366\333K\244s"
 2485      A65BC141 
 2485      83E390E6 
 2485      FCF6DB4B 
 2485      A473
 2486 01fe 8B30A925 		.ascii	"\2130\251%L\016\241s\213s4\177\016\347\226L\347C\351"
 2486      4C0EA173 
 2486      8B73347F 
 2486      0EE7964C 
 2486      E743E9
 2487 0211 CE3F7D8B 		.ascii	"\316?}\213\303\260\351]\023\336O\200\351Pd\350\247\325"
 2487      C3B0E95D 
 2487      13DE4F80 
 2487      E95064E8 
 2487      A7D5
 2488 0223 F29B2575 		.ascii	"\362\233%uB\207.\340\011\235D\231\316R\011\377\350\201"
 2488      42872EE0 
 2488      099D4499 
 2488      CE5209FF 
 2488      E881
 2489 0235 123E7D11 		.ascii	"\022>}\021\023~\012\205\377I&|$\221p>\252$\355\015\037"
 2489      137E0A85 
 2489      FF49267C 
 2489      2491703E 
 2489      AA24ED0D 
 2490 024a 1E6DD1A5 		.ascii	"\036m\321\2455\035N\317\252\253\031\252\2533\2023s\336"
 2490      351D4ECF 
 2490      AAAB19AA 
 2490      AB338233 
 2490      73DE
 2491 025c B4A350C1 		.ascii	"\264\243P\3012C\311\273_j\375\306\255\273\255\206\021"
 2491      3243C9BB 
 2491      5F6AFDC6 
 2491      ADBBAD86 
 2491      11
 2492 026d 7BE66CCF 		.ascii	"{\346l\317\215\254\025\000\260\007\024\200\275\240b"
 2492      8DAC1500 
 2492      B0071480 
 2492      BDA062
 2493 027c FD2A1A2D 		.ascii	"\375*\032-\026\\\254:-V\252\316,\334i\331\270\3509\270"
 2493      165CAC3A 
 2493      2D56AACE 
 2493      2CDC69D9 
 2493      B8E839B8 
 2494 0290 D8E6D107 		.ascii	"\330\346\321\007;\355ri\311\243%\237\324\012\000\366"
 2494      3BED7269 
 2494      C9A3259F 
 2494      D40A00F6 
 2495 02a0 43216914 		.ascii	"C!i\024\321\262\210\030,\301\017Y\313ha\254\225\263"
 2495      D1B28818 
 2495      2CC10F59 
 2495      CB6861AC 
 2495      95B3
 2496 02b2 BBF8C7C1 		.ascii	"\273\370\307\301\350gl\023W\344K=\276\\\002c,v\022\304"
ARM GAS  /tmp/ccYLzD4W.s 			page 71


 2496      E8676C13 
 2496      57E44B3D 
 2496      BE5C0263 
 2496      2C7612C4 
 2497 02c6 73B4901E 		.ascii	"s\264\220\036S\3477\267uv\000\230\302\316\230M\240\246"
 2497      53E737B7 
 2497      75760098 
 2497      C2CE984D 
 2497      A0A6
 2498 02d8 2EF7CE5C 		.ascii	".\367\316\\:]\210\271\021\342\177Lv\001\311\353\212"
 2498      3A5D88B9 
 2498      11E27F4C 
 2498      7601C9EB 
 2498      8A
 2499 02e9 3163742B 		.ascii	"1ct+\250P,\265;\337?\267\0050q\002\266\357\234\015b"
 2499      A8502CB5 
 2499      3BDF3FB7 
 2499      05307102 
 2499      B6EF9C0D 
 2500 02fe C07E84BA 		.ascii	"\300~\204\272\245\230\022\366\215\2029|\344\212\322"
 2500      A59812F6 
 2500      8D82397C 
 2500      E48AD2
 2501 030d 842D998D 		.ascii	"\204-\231\215[\225n\267Q`\370\204\263\000_\213T?rM|"
 2501      5B956EB7 
 2501      5160F884 
 2501      B3005F8B 
 2501      543F724D 
 2502 0322 CF111FCF 		.ascii	"\317\021\037\317I/\361\357{\273'1%\247\304\253q\365"
 2502      492FF1EF 
 2502      7BBB2731 
 2502      25A7C4AB 
 2502      71F5
 2503 0334 FCE6AECE 		.ascii	"\374\346\256\316\345\222H\347\002!\331\326\336[N9\217"
 2503      E59248E7 
 2503      0221D9D6 
 2503      DE5B4E39 
 2503      8F
 2504 0345 43D3D635 		.ascii	"C\323\3265\021^\330\000J\224\317\013s+c\021\016\021"
 2504      115ED800 
 2504      4A94CF0B 
 2504      732B6311 
 2504      0E11
 2505 0357 AE447841 		.ascii	"\256DxA\224\333%\345\003(\020\301\216]\3070'\240ab`"
 2505      94DB25E5 
 2505      032810C1 
 2505      8E5DC730 
 2505      27A06162 
 2506 036c 314A280E 		.ascii	"1J(\016E\034#e\211\0175\237\177GdI#\344\315\223\012"
 2506      451C2365 
 2506      890F359F 
 2506      7F476449 
 2506      23E4CD93 
 2507 0381 692C4D2E 		.ascii	"i,M.cm\344\271n\353\272\307\260v\342C\357\306\015\240"
 2507      636DE4B9 
 2507      6EEBBAC7 
 2507      B076E243 
ARM GAS  /tmp/ccYLzD4W.s 			page 72


 2507      EFC60DA0 
 2508 0395 1663DBB9 		.ascii	"\026c\333\271\264\200\241\274\003\242\212\257\353Q\236"
 2508      B480A1BC 
 2508      03A28AAF 
 2508      EB519E
 2509 03a4 8BF6614C 		.ascii	"\213\366aL\004X\212B\0140\017\376\013[\010\333@\250"
 2509      04588A42 
 2509      0C300FFE 
 2509      0B5B08DB 
 2509      40A8
 2510 03b6 1DBFA43E 		.ascii	"\035\277\244>\274\000\024\203\3408\014\360\255H\342"
 2510      BC001483 
 2510      E0380CF0 
 2510      AD48E2
 2511 03c5 D4CEED33 		.ascii	"\324\316\3553\203x 'dJ\357\374\021\276\224\273v\354"
 2511      83782027 
 2511      644AEFFC 
 2511      11BE94BB 
 2511      76EC
 2512 03d7 841FA06E 		.ascii	"\204\037\240n\377?\355\021\276\304\274\234-\360\220"
 2512      FF3FED11 
 2512      BEC4BC9C 
 2512      2DF090
 2513 03e6 F08BE79E 		.ascii	"\360\213\347\236O\036\277\003V\332 \334\025\3008\272"
 2513      4F1EBF03 
 2513      56DA20DC 
 2513      15C038BA 
 2514 03f6 0326EDD4 		.ascii	"\003&\355\324\305\267\265\357\274`Eo\324`\224\202\263"
 2514      C5B7B5EF 
 2514      BC60456F 
 2514      D4609482 
 2514      B3
 2515 0407 03556886 		.ascii	"\003Uh\206l\024&S\240N\206g\366*\311\024\374}\204\317"
 2515      6C142653 
 2515      A04E8667 
 2515      F62AC914 
 2515      FC7D84CF 
 2516 041b 4A41DF02 		.ascii	"JA\337\002\301\300\026\341j\"\\k*V3P\005&\321\263\202"
 2516      C1C016E1 
 2516      6A225C6B 
 2516      2A563350 
 2516      0526D1B3 
 2517 0430 164DAC76 		.ascii	"\026M\254v?\354e\304r\211\215\267@&R\315@\376(\221h"
 2517      3FEC65C4 
 2517      72898DB7 
 2517      402652CD 
 2517      40FE2891 
 2518 0445 4F129A4B 		.ascii	"O\022\232KC\313\320\270\"y\240!\322\210T\212\030vaT"
 2518      43CBD0B8 
 2518      2279A021 
 2518      D288548A 
 2518      18766154 
 2519 0459 446C6261 		.ascii	"Dlba\204[\346b\206\271\234\017S\250\252\012Z\365\035"
 2519      845BE662 
 2519      86B99C0F 
 2519      53A8AA0A 
 2519      5AF51D
ARM GAS  /tmp/ccYLzD4W.s 			page 73


 2520 046c 1BB17C74 		.ascii	"\033\261|t\004S\262\254p\007\233)wN\347i\3527\244:\352"
 2520      0453B2AC 
 2520      70079B29 
 2520      774EE769 
 2520      EA37A43A 
 2521 0481 C9BE1099 		.ascii	"\311\276\020\231\254+\376\271\3229\276\373\036\245s"
 2521      AC2BFEB9 
 2521      D239BEFB 
 2521      1EA573
 2522 0490 33AD74C6 		.ascii	"3\255t\3069\225\316L\252t\006\001\246\023\245s\253\005"
 2522      3995CE4C 
 2522      AA740601 
 2522      A613A573 
 2522      AB05
 2523 04a2 4BE7A82C 		.ascii	"K\347\250,\230\020\225\3211\271\177k\220\212\247\276"
 2523      981095D1 
 2523      31B97F6B 
 2523      908AA7BE 
 2524 04b2 A7E91406 		.ascii	"\247\351\024\006\263,y\362\353S\201\264\011\263\311"
 2524      B32C79F2 
 2524      EB5381B4 
 2524      09B3C9
 2525 04c1 72CA2316 		.ascii	"r\312#\026\267e2\307\025\302\336\221\365t\224\014\210"
 2525      B76532C7 
 2525      15C2DE91 
 2525      F574940C 
 2525      88
 2526 04d2 72D12E5C 		.ascii	"r\321.\\\2728\311\022\345ru\333\256\335\317KN\351%3"
 2526      BA38C912 
 2526      E57275DB 
 2526      AEDDCF4B 
 2526      4EE92533 
 2527 04e6 2A4A6673 		.ascii	"*Jfs\313uT\313J\004\272\343\341\271\3034\224\264\016"
 2527      CB7554CB 
 2527      4A04BAE3 
 2527      E1B9C334 
 2527      94B40E
 2528 04f9 C9253E1B 		.ascii	"\311%>\033\360\374\342\320P\314D\203\027\205\271\215"
 2528      F0FCE2D0 
 2528      50CC4483 
 2528      1785B98D 
 2529 0509 B29A15E5 		.ascii	"\262\232\025\345\013\004\005K\337\215\360\031\226\274"
 2529      0B04054B 
 2529      DF8DF019 
 2529      96BC
 2530 0517 DA7E1A51 		.ascii	"\332~\032Q\010\275\365\267\021^$\024\026\206\351>\304"
 2530      08BDF5B7 
 2530      115E2414 
 2530      1686E93E 
 2530      C4
 2531 0528 1B21CA1F 		.ascii	"\033!\312\037J\335\005E\002|\033\301H\255{bA\202\326"
 2531      4ADD0545 
 2531      027C1BC1 
 2531      48AD7B62 
 2531      4182D6
 2532 053b 788EA055 		.ascii	"x\216\240U\224VD*4\"'\215l\210\373`\354\356\203imD-"
 2532      9456442A 
ARM GAS  /tmp/ccYLzD4W.s 			page 74


 2532      3422278D 
 2532      6C88FB60 
 2532      ECEE8369 
 2533 0552 0B6915C8 		.ascii	"\013i\025\310\243\210\011\255\253\343\367\323\232\017"
 2533      A38809AD 
 2533      ABE3F7D3 
 2533      9A0F
 2534 0560 CD8A281B 		.ascii	"\315\212(\033:\212\3718\015D\327\307\262\340+HV<\365"
 2534      3A8AF938 
 2534      0D44D7C7 
 2534      B2E02B48 
 2534      563CF5
 2535 0573 53B6795A 		.ascii	"S\266yZ\034XZ\001.\302(\341\257J\302\230\016\177Cc\272"
 2535      1C585A01 
 2535      2EC228E1 
 2535      AF4AC298 
 2535      0E7F4363 
 2536 0588 2CE19E26 		.ascii	",\341\236&\214:G\336\212\011+\363\356\255\273\030ZQ"
 2536      8C3A47DE 
 2536      8A092BF3 
 2536      EEADBB18 
 2536      5A51
 2537 059a D79AA68B 		.ascii	"\327\232\246\213W\316<ri\203\273f\371\313\266\310\025"
 2537      57CE3C72 
 2537      6983BB66 
 2537      F9CBB6C8 
 2537      15
 2538 05ab 66EDF4DE 		.ascii	"f\355\364\336G8\254\232\\\211\263\222\354\337$C\343"
 2538      4738AC9A 
 2538      5C89B392 
 2538      ECDF2443 
 2538      E3
 2539 05bc D9F845A6 		.ascii	"\331\370E\246\377\014\0112\242\3117\243\3213\242\371"
 2539      FF0C0932 
 2539      A2C937A3 
 2539      D133A2F9 
 2540 05cc 05C2A05D 		.ascii	"\005\302\240]I\365\362fdd\273\307=Q\224\321\365\035"
 2540      49F5F266 
 2540      6464BBC7 
 2540      3D5194D1 
 2540      F51D
 2541 05de 8814879E 		.ascii	"\210\024\207\236\237\364\323a\273\237B\027*d\223\302"
 2541      9FF4D361 
 2541      BB9F4217 
 2541      2A6493C2 
 2542 05ee A27B2AE4 		.ascii	"\242{*\344g(t'\024\212\346V\370?\362=\222<)P\325\352"
 2542      67287427 
 2542      148AE656 
 2542      F83FF23D 
 2542      923C2950 
 2543 0604 283754AA 		.ascii	"(7T\252Z\300\244|\263o$\233.\346A9\373\236d\242F\255"
 2543      5AC0A47C 
 2543      B36F249B 
 2543      2EE64139 
 2543      FB9E64A2 
 2544 061a E6E96F37 		.ascii	"\346\351o7\373\034G_\014\314\201\275\227\006\366A)\375"
 2544      FB1C475F 
ARM GAS  /tmp/ccYLzD4W.s 			page 75


 2544      0CCC81BD 
 2544      9706F641 
 2544      29FD
 2545 062c B8B3530E 		.ascii	"\270\263S\016\311\261\023\261_\211\347\331\330\354\036"
 2545      C9B113B1 
 2545      5F89E7D9 
 2545      D8EC1E
 2546 063b BCB6D01C 		.ascii	"\274\266\320\034\351_M\342H\377D*^I\215\364C\346Hg\351"
 2546      E95F4DE2 
 2546      48FF442A 
 2546      5E498DF4 
 2546      43E64867 
 2547 0650 23FDB3D4 		.ascii	"#\375\263\324H\377<}\244\233\303;\254\260Y\023;N\023"
 2547      48FF3C7D 
 2547      A49BC33B 
 2547      ACB05913 
 2547      3B4E13
 2548 0663 FB9039B1 		.ascii	"\373\2209\261\267N}\250\021\361\25381\327DD-\315\200"
 2548      B74E7DA8 
 2548      11F1AB38 
 2548      31D74444 
 2548      2DCD80
 2549 0676 155B5EEB 		.ascii	"\025[^\353\350\245\016\264\034\370\340U|S\303\275^\374"
 2549      E8A50EB4 
 2549      1CF8E055 
 2549      7C53C3BD 
 2549      5EFC
 2550 0688 B9023221 		.ascii	"\271\0022!u\375t\033\376\332\341\361\373\334\016\257"
 2550      75FD741B 
 2550      FEDAE1F1 
 2550      FBDC0EAF 
 2551 0698 D3571DF0 		.ascii	"\323W\035\360\326x^\363\006=\356\232\232ZG\331\037*"
 2551      D6785EF3 
 2551      063DEE9A 
 2551      9A5A47D9 
 2551      1F2A
 2552 06aa AA9D2EB7 		.ascii	"\252\235.\267\303\347s=\261\372\361\337T\326\270\203"
 2552      C3E7733D 
 2552      B1FAF1DF 
 2552      54D6B883 
 2553 06ba 35ABD8CA 		.ascii	"5\253\330\312\022G\231\307[\345}\266\242rUi\311\023"
 2553      124799C7 
 2553      5BE57DB6 
 2553      A2725569 
 2553      C913
 2554 06cc 25A50E7F 		.ascii	"%\245\016\177\020\377_\366V9\202\001\227\303\345\361"
 2554      10FF5FF6 
 2554      56398201 
 2554      97C3E5F1 
 2555 06dc 57BDE872 		.ascii	"W\275\350r\272<\356`\211\213q\277\253za\206\250d\355"
 2555      BA3CEE60 
 2555      898B71BF 
 2555      AB7A6186 
 2555      A864ED
 2556 06ef AAAA52F7 		.ascii	"\252\252R\367Zg\025\323^\010\370\327U\363\227\334\265"
 2556      5A6715D3 
 2556      5E08F8D7 
ARM GAS  /tmp/ccYLzD4W.s 			page 76


 2556      55F397DC 
 2556      B5
 2557 0700 2A7EAF5E 		.ascii	"*~\257^1\227\335@\215\303\373\212\353\345u\177v\243"
 2557      3197DD40 
 2557      8DC3FB8A 
 2557      EBE5757F 
 2557      76A3
 2558 0712 E1606DB0 		.ascii	"\341`m\260\304\303\364*g\320\375\247\200\367\251\271"
 2558      C4C3F42A 
 2558      67D0FDA7 
 2558      80F7A9B9 
 2559 0722 F02EBFCF 		.ascii	"\360.\277\317\347\177\305\341~\275\306\361\373\347\312"
 2559      E77FC5E1 
 2559      7EBDC6F1 
 2559      FBE7CA
 2560 0731 1D65E515 		.ascii	"\035e\345\025OW8\312\374\001\267\343\351\204\031_\320"
 2560      4F5738CA 
 2560      FC01B7E3 
 2560      E984195F 
 2560      D0
 2561 0742 1BAC7CC1 		.ascii	"\033\254|\301\345BSk\356c\242\332\037\250\011\222\221"
 2561      E542536B 
 2561      EE63A2DA 
 2561      1FA80992 
 2561      91
 2562 0753 B2F2D7D1 		.ascii	"\262\362\327\321\267\013mT\276\266\326\207ZJ\360A\270"
 2562      B70B6D54 
 2562      BEB6D687 
 2562      5A4AF041 
 2562      B8
 2563 0764 BA09CA3D 		.ascii	"\272\011\312=\236\352\274\362\212\347\212\2113&we\361"
 2563      9EEABCF2 
 2563      8AE78A89 
 2563      33267765 
 2563      F1
 2564 0775 F252A604 		.ascii	"\362R\246\004\230\356s\373\374\201Z\366?\037\312\203"
 2564      98EE73FB 
 2564      FC815AF6 
 2564      3F1FCA83 
 2565 0785 B3       		.ascii	"\263"
 2566              		.text
 2567              		.section	.gnu.lto_chCacheReleaseObjectI.317.305125762047fec2,"e",%progbits
 2568 0000 789C9556 		.ascii	"x\234\225V]lTE\024\2363s\367\177\273\333\226BI5\246"
 2568      5D6C5445 
 2568      149E3373 
 2568      F77FBBDB 
 2568      96424935 
 2569 0015 9A18A2D1 		.ascii	"\232\030\242\321\335\002\006^I\360\315\030\037x&d\273"
 2569      DD02065E 
 2569      49F0CD18 
 2569      1F782664 
 2569      BB
 2570 0026 6ED21A6A 		.ascii	"n\322\032j+\255$\274\310e\273\200\026\225v\013U\012"
 2570      2BAD24BC 
 2570      C865BB80 
 2570      1695760B 
 2570      550A
ARM GAS  /tmp/ccYLzD4W.s 			page 77


 2571 0038 36B069B1 		.ascii	"6\260i\261D\015&\250\374\264\312b\255\242E\255\222b"
 2571      440D26A8 
 2571      FCB4CA62 
 2571      ADA245AD 
 2571      9262
 2572 004a 4AC1C61A 		.ascii	"J\301\306\032\245\225\332\224\022\265 ?\2363s\357\335"
 2572      A595DA94 
 2572      12B5203F 
 2572      9E3373EF 
 2572      DD
 2573 005b BDCBD696 		.ascii	"\275\313\326\226\246\235\316\317\371\3167\347\2333w"
 2573      A69DCECF 
 2573      F9CE37E7 
 2573      9B3377
 2574 006a 4ECACF58 		.ascii	"N\312\317X7c\354\030\376\201\237A\262\245\2113]\327"
 2574      3763EC18 
 2574      FE819F41 
 2574      B2A58933 
 2574      5DD7
 2575 007c D7B8386F 		.ascii	"\327\2708ol\331\305\241\007\372o\017x\264DK\240'\376"
 2575      6CD9C5A1 
 2575      07FA6F0F 
 2575      78B4444B 
 2575      A027FE
 2576 008f D12A4DC0 		.ascii	"\321*M\300\376d\352Z\307\007 m4\276\275\305\207\275"
 2576      FE64EA5A 
 2576      C707206D 
 2576      34BEBDC5 
 2576      87BD
 2577 00a1 726D474B 		.ascii	"rmGK@\376w@{2\245\026\235|\247\261\370v\363\030\310"
 2577      40FE7740 
 2577      7B32A516 
 2577      9D7CA7B1 
 2577      F876F318 
 2578 00b6 8E0BF699 		.ascii	"\216\013\366\231\253n\352>\254\250<\031\220\227\374"
 2578      AB6EEA3E 
 2578      ACA83C19 
 2578      9097FC
 2579 00c5 DF48365D 		.ascii	"\337H6]\355\322\340\214\232\362\3016kS\300\266r\241"
 2579      EDD2E08C 
 2579      9AF2C136 
 2579      6B53C0B6 
 2579      72A1
 2580 00d7 399C2EB7 		.ascii	"9\234.\267\307\353\203\255\320*\036\303\371\331\355"
 2580      C7EB83AD 
 2580      D02A1EC3 
 2580      F9D9ED
 2581 00e6 EDFF0E80 		.ascii	"\355\377\016\200\336\235\206N\301X\007\376\311\237\003"
 2581      DE9D864E 
 2581      C15807FE 
 2581      C99F03
 2582 00f5 0292A253 		.ascii	"\002\222\242S\000hF\217C9\366\304z\266,\255\353\203"
 2582      0068468F 
 2582      4339F6C4 
 2582      7AB62CAD 
 2582      EB83
 2583 0107 974FE8BA 		.ascii	"\227O\350\272\207u\012\001\307\0011\360\011\300\307"
ARM GAS  /tmp/ccYLzD4W.s 			page 78


 2583      87750A01 
 2583      C70131F0 
 2583      09C0C7
 2584 0116 C0682232 		.ascii	"\300h\"2S@v[\244\335\364\255\367\332\002\315\350Y\203"
 2584      5340765B 
 2584      A4DDF4AD 
 2584      F7DA02CD 
 2584      E85983
 2585 0129 93763B2D 		.ascii	"\223v;-r\267\2001\247\301\310\021\"\373\000\275@\334"
 2585      72B78031 
 2585      A7C1C811 
 2585      22FB00BD 
 2585      40DC
 2586 013b E2156AC9 		.ascii	"\342\025j\311\305l\262\351\347\376\262\003zZ\353\024"
 2586      C56CB2E9 
 2586      E7FEB203 
 2586      7A5AEB14 
 2587 014b 0EF814C8 		.ascii	"\016\370\024\310Fy\201\317\320\261#r\263\010-\037%\313"
 2587      467981CF 
 2587      D0B12372 
 2587      B3082D1F 
 2587      25CB
 2588 015d C1E1D1D7 		.ascii	"\301\341\321\327]\372Y\335\262d\031K\025\222\223\002"
 2588      5DFA59DD 
 2588      B264194B 
 2588      15929302 
 2589 016d 9E5A05A7 		.ascii	"\236Z\005\247q\256\207\\\321\016 m\262\312-p\370\034"
 2589      71AE875C 
 2589      D10E206D 
 2589      B2CA2D70 
 2589      F81C
 2590 017f B2C86F77 		.ascii	"\262\310ow=\244\310\235\322%7]\366!\2713r)\037\271\323"
 2590      3DA4C89D 
 2590      D225375D 
 2590      F621B933 
 2590      72291FB9 
 2591 0194 4EDE9745 		.ascii	"N\336\227E~\342\334f\370\302 \347\222\274\037\210\217"
 2591      7EE2DC66 
 2591      F8C220E7 
 2591      92BC1F88 
 2591      8F
 2592 01a5 4C8EFEE8 		.ascii	"L\216\376\350H\353\267\356\356\326\365+\033F/\035\367"
 2592      48EBB7EE 
 2592      EED6F52B 
 2592      1B462F1D 
 2592      F7
 2593 01b6 2DE700A7 		.ascii	"-\347\000\247\300\201b\271\234\324\270\260q\270\251"
 2593      C08162B9 
 2593      9CD4B8B0 
 2593      71B8A9
 2594 01c5 47CABBBC 		.ascii	"G\312\273\274\244\242\217\032?5\005\330\270\003\264"
 2594      A4A28F1A 
 2594      3F3505D8 
 2594      B803B4
 2595 01d4 10A46121 		.ascii	"\020\244a!\015\213\250WL\275E\264PB\315b\362R\212\215"
 2595      0D8BA857 
 2595      4CBD45B4 
ARM GAS  /tmp/ccYLzD4W.s 			page 79


 2595      5042CD62 
 2595      F2528A8D 
 2596 01e8 6729C009 		.ascii	"g)\300\011\010Q/L\015c\273\005%\212\256\201\236f\254"
 2596      08512F4C 
 2596      0D63BB05 
 2596      258AAE81 
 2596      9E66AC
 2597 01fb 59703568 		.ascii	"Yp5h\304\301\037\240\317\034\272~\372Y\3347\365\037"
 2597      C4C11FA0 
 2597      CF1CBA7E 
 2597      FA59DC37 
 2597      F51F
 2598 020d B19AB1B6 		.ascii	"\261\232\261\266\262\234\211\017i\"~\360\245\307\021"
 2598      B29C890F 
 2598      69227EF0 
 2598      A5C711
 2599 021c 3CFDFDD1 		.ascii	"<\375\375\321i\035\350\224\330\273\302\226W\232\224"
 2599      691DE894 
 2599      D8BBC296 
 2599      579A94
 2600 022b F8304849 		.ascii	"\3700HI.\270:\2057\205\322\236\225\263\0258\351\356"
 2600      2EB83A85 
 2600      3785D29E 
 2600      95B31538 
 2600      E9EE
 2601 023d 143EF81A 		.ascii	"\024>\370\032\336!T\202\254\272\037\244C\375\006\324"
 2601      DE215482 
 2601      ACBA1FA4 
 2601      43FD06D4 
 2602 024d 0EE2E5A8 		.ascii	"\016\342\345\250\"|%7s\275k\317\315\2016@!%\377\235"
 2602      227C2537 
 2602      73BD6BCF 
 2602      CD813640 
 2602      2125FF9D 
 2603 0261 67E04BD5 		.ascii	"g\340K\325k\375\016\330\024\304{\217\004R\242\324\340"
 2603      6BFD0ED8 
 2603      14C47B8F 
 2603      0452A2D4 
 2603      E0
 2604 0272 75C252C9 		.ascii	"u\302R\311\213\001\373\211\361\034\260\212\204\244+"
 2604      8B01FB89 
 2604      F11CB08A 
 2604      84A42B
 2605 0281 806F910E 		.ascii	"\200o\221\016\230\362\023\237>\324x~=\222\321i\261\011"
 2605      98F2139F 
 2605      3ED4787E 
 2605      3D92D169 
 2605      B109
 2606 0293 488CF495 		.ascii	"H\214\364\225\241\027r\021\000\025I\263\020\335\223"
 2606      A1177211 
 2606      001549B3 
 2606      10DD93
 2607 02a2 A3E79829 		.ascii	"\243\347\230)\320\330\311\213\\\362M,I\011\207\031\235"
 2607      D0D8C98B 
 2607      5CF24D2C 
 2607      49098719 
 2607      9D
ARM GAS  /tmp/ccYLzD4W.s 			page 80


 2608 02b3 3B135A05 		.ascii	";\023Z\005\222\006a\020Y8\302\247\240\261m'\244\204"
 2608      92066110 
 2608      5938C2A7 
 2608      A0B16D27 
 2608      A484
 2609 02c5 138DC9AD 		.ascii	"\023\215\311\255\013\312\010=\335\004sB\317+(b$_\217"
 2609      0BCA083D 
 2609      DD047342 
 2609      CF2B2862 
 2609      245F8F
 2610 02d8 E2DBD384 		.ascii	"\342\333\323\204^\\&h\2744\277\226CYZ\216s\322\362\002"
 2610      5E5C2668 
 2610      BC34BF96 
 2610      43595A8E 
 2610      73D2F202 
 2611 02ec C6310D89 		.ascii	"\3061\015\211r\234\303qa\207\020\344\032\217\242Hz\357"
 2611      729CC371 
 2611      618710E4 
 2611      1A8FA248 
 2611      7AEF
 2612 02fe 2D93316A 		.ascii	"-\2231j\303\255\007\217\011+\306\237.f4u\347\333\250"
 2612      C3AD078F 
 2612      092BC69F 
 2612      2E663475 
 2612      E7DBA8
 2613 0311 1A066138 		.ascii	"\032\006a8;\314~\221\022\036\004\2508\335\244\347\004"
 2613      3BCC7E91 
 2613      121E04A8 
 2613      38DDA4E7 
 2613      04
 2614 0322 E9E95113 		.ascii	"\351\351Q\023\246\236\216\311\327\006\207\301\342\032"
 2614      A69E8EC9 
 2614      D70687C1 
 2614      E21A
 2615 0330 36F444A4 		.ascii	"6\364D\244wn*\015.#\225\220T\322\326\367\177\266\243"
 2615      776E2A0D 
 2615      2E239590 
 2615      54D2D6F7 
 2615      7FB6A3
 2616 0343 68AB29DB 		.ascii	"h\253)\333{\224\366\332,\177Q\226\350O\345v>\204\317"
 2616      7B94F6DA 
 2616      2C7F5196 
 2616      E84FE576 
 2616      3E84CF
 2617 0356 86F855ED 		.ascii	"\206\370U\355\003\035\021\"\265^\0061\222\011\302o\344"
 2617      031D1122 
 2617      B55E0631 
 2617      9209C26F 
 2617      E4
 2618 0367 A0C8E43E 		.ascii	"\240\310\344>\342\212Sb)\374\226}X\213\340w\364\344"
 2618      E28A5362 
 2618      29FC967D 
 2618      588BE077 
 2618      F4E4
 2619 0379 6019CF57 		.ascii	"`\031\317Wp\354\234c\327\366\370&\320\322E{\360[\273"
 2619      70EC9C63 
 2619      D7F6F826 
ARM GAS  /tmp/ccYLzD4W.s 			page 81


 2619      D0D2457B 
 2619      F05BBB
 2620 038c 96F95130 		.ascii	"\226\371Q0\017\343U\305\2300L\3340\011\013\241\233B"
 2620      0FE355C5 
 2620      98304CDC 
 2620      30090BA1 
 2620      9B42
 2621 039e 989BE80A 		.ascii	"\230\233\350\012,\272v\217\035\340\267\001\246M\000"
 2621      2CBA768F 
 2621      1DE0B701 
 2621      A64D00
 2622 03ad CF0FC8B7 		.ascii	"\317\017\310\267\267\231\0345\256+5\014\037\251\255"
 2622      B7991C35 
 2622      AE2B350C 
 2622      1FA9AD
 2623 03bc 52E7CB4A 		.ascii	"R\347\313J\347\231\361%\326M\360\337\263\341\022\370"
 2623      E799F125 
 2623      D64DF0DF 
 2623      B3E112F8 
 2624 03cc 0BB1F8A5 		.ascii	"\013\261\370\245\243c(\001\225f\243\013C\316\"\322\213"
 2624      A3632801 
 2624      9566A30B 
 2624      43CE22D2 
 2624      8B
 2625 03dd DFEB7FD4 		.ascii	"\337\353\177\324\307\345\332BPA\270\251\256\001\361"
 2625      C7E5DA42 
 2625      5041B8A9 
 2625      AE01F1
 2626 03ec 05016496 		.ascii	"\005\001d\226;\355Y~C:\302K2\204\227$`]\222r\272$\343"
 2626      3BED597E 
 2626      433AC24B 
 2626      32849724 
 2626      605D9272 
 2627 0403 7D953807 		.ascii	"}\2258\007\227\300\270 \256\277\023\343\223\231\017"
 2627      97C0B820 
 2627      AEBF13E3 
 2627      93990F
 2628 0412 CEED8BC2 		.ascii	"\316\355\213\302\314\255\340<\032\336\311\321\360.\216"
 2628      CCADE03C 
 2628      1ADEC9D1 
 2628      F02E8E
 2629 0421 7D0BCAA8 		.ascii	"}\013\312\250m\3348\261\240=\243\012\347al\3449\031"
 2629      6DDC38B1 
 2629      A03DA30A 
 2629      E7616CE4 
 2629      3919
 2630 0433 95E00BA1 		.ascii	"\225\340\013\241\333\301\215\004.\2343\243\2026\300"
 2630      DBC18D04 
 2630      2E9C33A3 
 2630      8236C0
 2631 0442 AB26E03E 		.ascii	"\253&\340>2\252\211\333\325\330\305\245\032fF\265\252"
 2631      32AA89DB 
 2631      D5D8C5A5 
 2631      1A6646B5 
 2631      AA
 2632 0453 8372DBD5 		.ascii	"\203r\333\325\336;b\251]4\217\3777r\374\277\311\027"
 2632      DE3B62A9 
ARM GAS  /tmp/ccYLzD4W.s 			page 82


 2632      5D348FFF 
 2632      3772FCBF 
 2632      C917
 2633 0465 7A7F9BCD 		.ascii	"z\177\233\315h\212\354j\027\317\303\230\314U\273uAj"
 2633      688AEC6A 
 2633      17CFC398 
 2633      CC55BB75 
 2633      416A
 2634 0477 EF350FB7 		.ascii	"\3575\017\267xN\265\213l\200\267\370\375\337\337}9j"
 2634      784EB58B 
 2634      6C80B7F8 
 2634      FDDFDF7D 
 2634      396A
 2635 0489 B473EBFE 		.ascii	"\264s\353\376\222\314\036\353>\200!>\251\275o\304\270"
 2635      92CC1EEB 
 2635      3E80213E 
 2635      A9BD6FC4 
 2635      B8
 2636 049a 167FF294 		.ascii	"\026\177\362\224Xd]\013\271\317\261\375j1)\027Kp]-\302"
 2636      58645D0B 
 2636      B9CFB1FD 
 2636      6A312917 
 2636      4B705D2D 
 2637 04af 7C0F6807 		.ascii	"|\017h\0077\036\320\022\311\354\265\277m\307F\300\322"
 2637      371ED012 
 2637      C9ECB5BF 
 2637      6DC746C0 
 2637      D2
 2638 04c0 7BB1E9A3 		.ascii	"{\261\351\243{I\276\240|p\020]\371\315\367\224*\034"
 2638      7B49BEA0 
 2638      7C70105D 
 2638      F9CDF794 
 2638      2A1C
 2639 04d2 38C4F3BD 		.ascii	"8\304\363\275\247\213\315\367\364\324\003\262n\231\273"
 2639      A78BCDF7 
 2639      F4D403B2 
 2639      6E99BB
 2640 04e1 2C9274B3 		.ascii	",\222t\263Sms\024C]<\353\001\227\204\207\271U\014\235"
 2640      536D7314 
 2640      435D3CEB 
 2640      01978487 
 2640      B9550C9D 
 2641 04f5 466FDC28 		.ascii	"Fo\334(\206zwa1\224V*\376@\205\321\031\325\037\032P"
 2641      867A7761 
 2641      3194562A 
 2641      FE4085D1 
 2641      19D51F1A 
 2642 050a 4FF7046A 		.ascii	"O\367\004j\0262\236\"G\246\034\362\021g77\217)\000G"
 2642      16329E22 
 2642      47A61CF2 
 2642      11673737 
 2642      8F290047 
 2643 051e B82C87D2 		.ascii	"\270,\207\322\204j<\260c\010U\011#R\225@6\251s\320T"
 2643      846A3CB0 
 2643      63085509 
 2643      23529540 
 2643      36A973D0 
ARM GAS  /tmp/ccYLzD4W.s 			page 83


 2644 0533 5E04E07D 		.ascii	"^\004\340}\023\2160\251\266/\273\234\304\372\352\374"
 2644      138E30A9 
 2644      B62FBB9C 
 2644      C4FAEAFC 
 2645 0543 08959354 		.ascii	"\010\225\223T\212\263\031\210\257Q:\354\026\240\314"
 2645      8AB31988 
 2645      AF513AEC 
 2645      16A0CC
 2646 0552 E2691A3E 		.ascii	"\342i\032>\031\256\252\255\211\205\253#5u\233\252\033"
 2646      19AEAAAD 
 2646      8985AB23 
 2646      35759BAA 
 2646      1B
 2647 0563 AA3657D7 		.ascii	"\2526W\327W\305\032\032\266\204\327>\275\256.\022\215"
 2647      57C51A1A 
 2647      B684D73E 
 2647      BDAE2E12 
 2647      8D
 2648 0574 856B6AA2 		.ascii	"\205kj\242+\237Z\276jCC\254\276a\005{\"\024^[U]Y\375"
 2648      2B9F5ABE 
 2648      6A4343AC 
 2648      BE61057B 
 2648      22145E5B 
 2649 058c DCBA0D2B 		.ascii	"\334\272\015+*B+C\025\341\332z\374\335X]\031\256\337"
 2649      2A422B43 
 2649      15E1DA7A 
 2649      FCDD585D 
 2649      19AEDF
 2650 059f 140D47AB 		.ascii	"\024\015G\253j+_\210F\242U\261\372P\224\211\332h]\251"
 2650      6A2B5F88 
 2650      46A255B1 
 2650      FA509489 
 2650      DA685DA9 
 2651 05b3 6D2AB47A 		.ascii	"m*\264zEeElu\244\222i8[\307\353\353\226\345s\270\251"
 2651      4565456C 
 2651      75A49269 
 2651      385BC7EB 
 2651      EB96E573 
 2652 05c9 215CFD62 		.ascii	"!\\\375bt\343\313\317\307\320c}\254&T\305\376\003\362"
 2652      74E3CBCF 
 2652      C7D0637D 
 2652      AC2654C5 
 2652      FE03F2
 2653 05dc ED18F4   		.ascii	"\355\030\364"
 2654              		.text
 2655              		.section	.gnu.lto_chCacheReadObject.318.305125762047fec2,"e",%progbits
 2656 0000 789C7550 		.ascii	"x\234uP?h\023a\024\177\277{wM\232\222n\342\332I\021"
 2656      3F681361 
 2656      147FBF7B 
 2656      774D9A92 
 2656      6EE2DA49 
 2657 0015 F4EE4CD4 		.ascii	"\364\356L\324\256B\273;t\226r9\016\356\304\230\320;"
 2657      AE42BB3B 
 2657      74967239 
 2657      0EEEC498 
 2657      D03B
 2658 0027 842CF66B 		.ascii	"\204,\366k\213\212\351\2206\335\352\037\344\010\342"
ARM GAS  /tmp/ccYLzD4W.s 			page 84


 2658      8B8AE990 
 2658      36DDEA1F 
 2658      E408E2
 2659 0036 1604AB55 		.ascii	"\026\004\253U[\015\242\213\213\342R\\\034D\007\035J"
 2659      5B0DA28B 
 2659      8BE2525C 
 2659      1C44071D 
 2659      4A
 2660 0047 745210F4 		.ascii	"tR\020\364}\227\250d\020\276\357\343{?~\177\336{_A\264"
 2660      7D97A864 
 2660      10BEEFE3 
 2660      7B3F7E7F 
 2660      DE7B5F41 
 2661 005c 424487E4 		.ascii	"BD\207\344\202\011\355\365\246AJ\251\3239\003K\353\315"
 2661      8209EDF5 
 2661      A6414AA9 
 2661      D339034B 
 2661      EBCD
 2662 006e BD1FF74D 		.ascii	"\275\037\367M\354\"\003@\213\006\026\261\301GzJ}\277"
 2662      EC220340 
 2662      8B0616B1 
 2662      C1477A4A 
 2662      7DBF
 2663 0080 BC79ED35 		.ascii	"\274y\35556\357\366\320a\242[\242,\303\025\017\272\301"
 2663      36EFF6D0 
 2663      61A25BA2 
 2663      2CC3150F 
 2663      BAC1
 2664 0092 68738701 		.ascii	"hs\207\001s\37030%?>K\207E\366\346\335\266R\343\324"
 2664      73F83330 
 2664      253F3E4B 
 2664      8745F6E6 
 2664      DDB652E3 
 2665 00a7 61C64368 		.ascii	"a\306Ch\325\003`KZ\020\300\333-j^#\343\365\233\335\215"
 2665      D503604B 
 2665      5A10C0DB 
 2665      2D6A5E23 
 2665      E3F59BDD 
 2666 00bc C935F136 		.ascii	"\3115\3616\361h\224gz\2572\336\245\001o\265\333*\272"
 2666      F1689467 
 2666      7AAF32DE 
 2666      A5016FB5 
 2666      DB2ABA
 2667 00cf D2029EE0 		.ascii	"\322\002\236\340o\023Rz{E\242\261\2541=\230\334\356"
 2667      6F13527A 
 2667      7B45A2B1 
 2667      AC313D98 
 2667      DCEE
 2668 00e1 5BABA77E 		.ascii	"[\253\247~\376j)\365\351#\256;\023\020\232e\350\207"
 2668      FE6A29F5 
 2668      E923AE3B 
 2668      13109A65 
 2668      E887
 2669 00f3 E519B380 		.ascii	"\345\031\263\200\307\310\001\333\310\003;(h\023\242"
 2669      C7C801DB 
 2669      C8033B28 
 2669      6813A2
ARM GAS  /tmp/ccYLzD4W.s 			page 85


 2670 0102 16EB5D28 		.ascii	"\026\353](\023\252G\264\306\306\240X\222\342\013\324"
 2670      13AA47B4 
 2670      C6C6A058 
 2670      92E20BD4 
 2671 0112 877BEF41 		.ascii	"\207{\357A\373X\336\371| e\014\2475\2417pGo,\337\341"
 2671      FB58DEF9 
 2671      7C20650C 
 2671      A735A137 
 2671      70476F2C 
 2672 0128 5CCA169E 		.ascii	"\\\312\026\236\202\\\261\313\343\031nf\355\354c\245"
 2672      825CB1CB 
 2672      E3196E66 
 2672      EDEC63A5 
 2673 0138 7D15291B 		.ascii	"}\025)\033\351@c!\257}\372M\374W\372| \025M\226\274"
 2673      E9406321 
 2673      AF7DFA4D 
 2673      FC57FA7C 
 2673      20154D96 
 2674 014d F5277932 		.ascii	"\365'y2e\036&\363H\362x\3129\274\020\371\240,\340\245"
 2674      651E26F3 
 2674      48F278CA 
 2674      39BC10F9 
 2674      A02CE0A5 
 2675 0161 38E83DF4 		.ascii	"8\350=\364q\345\366\311\224\013\"\024;\235\222\262\020"
 2675      71E5F6C9 
 2675      940B2214 
 2675      3B9D92B2 
 2675      10
 2676 0172 26E81B96 		.ascii	"&\350\033\226\247\004\247ll\374\033\233\350\230\023"
 2676      A704A76C 
 2676      6CFC1B9B 
 2676      E89813
 2677 0181 D6AA8113 		.ascii	"\326\252\201\023y\325\372B\224\204\027\2438\014\222"
 2677      79D5FA42 
 2677      948417A3 
 2677      380C92
 2678 0190 A4E1CCCC 		.ascii	"\244\341\314\314\316\325=?p\252U\277|\342\370\251\371"
 2678      CED53D3F 
 2678      70AA55BF 
 2678      7CE2F8A9 
 2678      F9
 2679 01a1 24889312 		.ascii	"$\210\223\022\035\265\235\2310\252Dg\346\346K\256]\266"
 2679      1DB59D99 
 2679      30AA4467 
 2679      E6E64BAE 
 2679      5DB6
 2680 01b3 5DA716CB 		.ascii	"]\247\026\3139\037U\234x\301w\374\260V9\347{~\030\304"
 2680      391F559C 
 2680      78C177FC 
 2680      B05639E7 
 2680      7B7E18C4 
 2681 01c7 B64F5CF3 		.ascii	"\266O\\\363\353\007G {\272Tq\203i\257B\246\240u\313"
 2681      EB074720 
 2681      7BBA5471 
 2681      8369AF42 
 2681      A6A075CB 
 2682 01db 8B1B17FC 		.ascii	"\213\033\027\374\337\263!\275\016"
ARM GAS  /tmp/ccYLzD4W.s 			page 86


 2682      DFB321BD 
 2682      0E
 2683              		.text
 2684              		.section	.gnu.lto_chCacheWriteObject.319.305125762047fec2,"e",%progbits
 2685 0000 789C7550 		.ascii	"x\234uPMh\023Q\020\236og\267ISRO\342\265'E\320\354\232"
 2685      4D681351 
 2685      109E6F67 
 2685      B7495352 
 2685      4FE2B527 
 2686 0018 A8BD0AF5 		.ascii	"\250\275\012\365\356\241g)\233eaW\214\011\335E\310\305"
 2686      EEA16729 
 2686      9B656157 
 2686      8C09DD45 
 2686      C8C5
 2687 002a BEFEA890 		.ascii	"\276\376\250\220K\232\026\004\213-\262\004\361\346\305"
 2687      4B9A1604 
 2687      8B2DB204 
 2687      F1E6C5
 2688 0039 9FAAB50D 		.ascii	"\237\252\265\015\242\340-\342\321\213 ^\024\254A\020"
 2688      A2E02DE2 
 2688      D18B205E 
 2688      14AC4110 
 2689 0049 3D14E2BC 		.ascii	"=\024\342\274MTr\020\336{\274\371\370~f\346\007\210"
 2689      4D547210 
 2689      DE7BBCF9 
 2689      F87E66E6 
 2689      0788
 2690 005b 9689E8A8 		.ascii	"\226\211\350\250\\0a\255\3250H)u.c`\261\325\370y\360"
 2690      5C3061AD 
 2690      D5304829 
 2690      752E6360 
 2690      B1D5F879 
 2691 0070 D0C40BA4 		.ascii	"\320\304\013\244\000h\301\300\002\326\371xG\251_\327"
 2691      0068C1C0 
 2691      02D6F978 
 2691      47A95FD7 
 2692 0080 3776BBD8 		.ascii	"7v\273\330\270\337A\233\211\266DY\202#\036t\207\261"
 2692      B8DF419B 
 2692      89B64459 
 2692      82231E74 
 2692      87B1
 2693 0092 C66D06CC 		.ascii	"\306m\006\314\341\317\300\224\374\370\"\035\023\331"
 2693      E1CFC094 
 2693      FCF8221D 
 2693      13D9
 2694 00a0 DBF7DB4A 		.ascii	"\333\367\333J\215S\233\031O\240U\217\201G\322\202\000"
 2694      8D539B19 
 2694      4FA0558F 
 2694      8147D282 
 2694      00
 2695 00b1 EE4A5EF3 		.ascii	"\356J^\363\352)\257\267\327]\237\\\025o\023OGy\246\333"
 2695      EA29AFB7 
 2695      D75D9F5C 
 2695      156F134F 
 2695      4779A6DB 
 2696 00c5 4A79D706 		.ascii	"Jy\327\006\2747\335f\336\221\026\360\034\177\233\220"
 2696      BC37DD66 
ARM GAS  /tmp/ccYLzD4W.s 			page 87


 2696      DE9116F0 
 2696      1C7F9B90 
 2697 00d5 D2DDCA13 		.ascii	"\322\335\312\023\215\245\215\351\301\344>xgu\324A\277"
 2697      8DA58DE9 
 2697      C1E43E78 
 2697      6775D441 
 2697      BF
 2698 00e6 A9D4D74F 		.ascii	"\251\324\327O\350\332\023\020\232e\350\207\345\031\263"
 2698      E8DA1310 
 2698      9A65E887 
 2698      E519B3
 2699 00f5 8067C800 		.ascii	"\200g\310\000\333\310\002;\310i\023\242&\353](\023\252"
 2699      DBC8023B 
 2699      C86913A2 
 2699      26EB5D28 
 2699      13AA
 2700 0107 43B4CAC6 		.ascii	"C\264\312\306\240X\224\342\013\324\307\333\037@\373"
 2700      A05894E2 
 2700      0BD4C7DB 
 2700      1F40FB
 2701 0116 58DAF97C 		.ascii	"X\332\371|8a\014\2475\2417pOo,\333\346L\302\026vA\216"
 2701      38610CA7 
 2701      35A13770 
 2701      4F6F2CDB 
 2701      E64CC216 
 2702 012d D865B187 		.ascii	"\330e\261\207\315\264\235},\337\272\211\204\215d\240"
 2702      CDB49D7D 
 2702      2CDFBA89 
 2702      848D64A0 
 2703 013d B1F0ADDF 		.ascii	"\261\360\255\337\357\037\322^\275\006\376+\1779\220"
 2703      EF1FD25E 
 2703      BD06FE2B 
 2703      7F3990
 2704 014c 8B2E4DDF 		.ascii	"\213.M\337\374\223>\2310\017\323y$}<\341\014^\211|P"
 2704      FC933E99 
 2704      300FD379 
 2704      247D3CE1 
 2704      0C5E897C 
 2705 0161 E6F05A1C 		.ascii	"\346\360Z\034\364.z\270q\367L\3029\021\212\235NIX\010"
 2705      F42E7AB8 
 2705      71F74CC2 
 2705      39118A9D 
 2705      4E495808 
 2706 0175 13F41D4B 		.ascii	"\023\364\035KS\202S::\376\215Nt\322\016\252\025\337"
 2706      5382533A 
 2706      3AFE8D4E 
 2706      74D20EAA 
 2706      15DF
 2707 0187 0EDD4A6D 		.ascii	"\016\335Jm>\214\203\253a\024\370q\\\267g\316\317\326"
 2707      3E8C83AB 
 2707      6114F871 
 2707      5CB767CE 
 2707      CFD6
 2708 0199 5CCFB72B 		.ascii	"\\\317\267+\025\257t\372\324\331\271\330\217\342\"\235"
 2708      15AF74FA 
 2708      D4D9B9D8 
 2708      8FE2229D 
ARM GAS  /tmp/ccYLzD4W.s 			page 88


 2709 01a9 28D83341 		.ascii	"(\3303AX\016/\314\316\025\235B\251\340\330\325H\316"
 2709      580E2FCC 
 2709      CE159D42 
 2709      A9E0D8D5 
 2709      48CE
 2710 01bb E5B06C47 		.ascii	"\345\260lG\363\236\355\005\325\362%\317\365\002?*x\304"
 2710      F39EED05 
 2710      D5F225CF 
 2710      F5023F2A 
 2710      78C4
 2711 01cd 55AF7664 		.ascii	"U\257vd\004*L\027\313\216?\355\226\311\024\264f\271"
 2711      042A4C17 
 2711      CB8E3FED 
 2711      96C914B4 
 2711      66B9
 2712 01df 51FD8AF7 		.ascii	"Q\375\212\367\033\373_\301w"
 2712      1BFB5FC1 
 2712      77
 2713              		.text
 2714              		.section	.gnu.lto_.symbol_nodes.305125762047fec2,"e",%progbits
 2715 0000 789C75CF 		.ascii	"x\234u\317\273\016\001Q\024\005\320\363\270\346\021"
 2715      BB0E0151 
 2715      1405D0F3 
 2715      B8E611
 2716 000f 9F20A1D2 		.ascii	"\237 \241\322+}\221\306G\234\031\241':\005\012\305\224"
 2716      2B7D91C6 
 2716      479C19A1 
 2716      273A050A 
 2716      C594
 2717 0021 1295B788 		.ascii	"\022\225\267\210\320\210V$\022\211\240@\241\241\320"
 2717      D0885624 
 2717      1289A040 
 2717      A1A1D0
 2718 0030 70194431 		.ascii	"p\031D1s\252\235\273vr\263k\010\000\324&\201\365\274"
 2718      73AA9DBB 
 2718      7672B36B 
 2718      0800D426 
 2718      81F5BC
 2719 0043 92C4E202 		.ascii	"\222\304\342\002@\000\332\216\353\246\340E\032;$x\271"
 2719      4000DA8E 
 2719      EBA6E045 
 2719      1A3B2478 
 2719      B9
 2720 0054 7BE940EC 		.ascii	"{\351@\354\222\320?v\034\027\277\326#\341\207>\016\302"
 2720      92D03F76 
 2720      1C17BFD6 
 2720      23E1873E 
 2720      0EC2
 2721 0066 3E8972F4 		.ascii	">\211r\364\251 \034\220DBqHb\204!\216I\314\307\347\022"
 2721      A9201C90 
 2721      44427148 
 2721      6284218E 
 2721      49CCC7E7 
 2722 007b EF0280EE 		.ascii	"\357\002\200\356\276\024G$V\230MI\354\020c4\375\357"
 2722      BE144724 
 2722      56984D49 
 2722      EC106334 
ARM GAS  /tmp/ccYLzD4W.s 			page 89


 2722      FDEF
 2723 008d 1AA8B054 		.ascii	"\032\250\260TX\316\030\257\031&\353={\202\277d\350\344"
 2723      58CE18AF 
 2723      1926EB3D 
 2723      7B82BF64 
 2723      E8E4
 2724 009f 17773166 		.ascii	"\027w1f\360\227oMfs\177<\234\000'qfl\336\252+\300\\"
 2724      F0976F4D 
 2724      66737F3C 
 2724      9C002771 
 2724      666CDEAA 
 2725 00b6 8295ED9D 		.ascii	"\202\225\355\2357s\375\032\325qU\256\267\030\363Y\365"
 2725      3773FD1A 
 2725      D57155AE 
 2725      B718F359 
 2725      F5
 2726 00c7 597D4565 		.ascii	"Y}Ee|\023<\001;\247\207'"
 2726      7C133C01 
 2726      3BA78727 
 2727              		.text
 2728              		.section	.gnu.lto_.refs.305125762047fec2,"e",%progbits
 2729 0000 789C6364 		.ascii	"x\234cd\000\002\000\000\012\000\002"
 2729      00020000 
 2729      0A0002
 2730              		.text
 2731              		.section	.gnu.lto_.decls.305125762047fec2,"e",%progbits
 2732 0000 789C9558 		.ascii	"x\234\225X{TT\327\271?\337\336\303\274\034\036\202\326"
 2732      7B5454D7 
 2732      B93FDFDE 
 2732      C3BC1C1E 
 2732      82D6
 2733 0012 76F5AE5C 		.ascii	"v\365\256\\W\257\255\364\336D\004\323\330\265z\333k"
 2733      57AFADF4 
 2733      DE4404D3 
 2733      D8B57ADB 
 2733      6B
 2734 0023 F436A9AB 		.ascii	"\3646\251\253M\314\012\253\267+\367\217;\301\231)p\313"
 2734      4DCC0AAB 
 2734      B72BF78F 
 2734      3BC19929 
 2734      70CB
 2735 0035 2BCC6862 		.ascii	"+\314hbz\377\030y\210\210(J4 \3047\342;$\276E\021Q#"
 2735      7AFF1879 
 2735      8888284A 
 2735      3420C437 
 2735      E23B24BE 
 2736 004d 0A18F005 		.ascii	"\012\030\360\005\250\210\"R\242\242\030\215A\005\271"
 2736      A8882252 
 2736      A2A2188D 
 2736      4105B9
 2737 005c DF7E9C73 		.ascii	"\337~\234sf\2301m\006\2769\347\354\363\373~\337s\357"
 2737      6698316D 
 2737      06BE39E7 
 2737      ECF3FB7E 
 2737      DF73EF
 2738 006f 7DCEDC1E 		.ascii	"}\316\334\036\247(\207\014\212b\016Q\224a\374\230\025"
 2738      A728870C 
ARM GAS  /tmp/ccYLzD4W.s 			page 90


 2738      8A620E51 
 2738      9461FC98 
 2738      15
 2739 0080 45694119 		.ascii	"EiA\031\215R\215r\010\245\021\245\011\245\023\345\032"
 2739      8D528D72 
 2739      08A511A5 
 2739      09A513E5 
 2739      1A
 2740 0091 4A174A37 		.ascii	"J\027J7J\014(\312\217P&\342y,\036_Cy\035\204~\"\212"
 2740      4A0C28CA 
 2740      8F5026E2 
 2740      792C1E5F 
 2740      43791D84 
 2741 00a8 51111F2B 		.ascii	"Q\021\037+\312,\034\217G\371\037\224wQ\\(\211(\311("
 2741      CA2C1C8F 
 2741      47F91F94 
 2741      77515C28 
 2741      8928C928 
 2742 00bc 9928EFA3 		.ascii	"\231(\357\243\374\025\224\200\317\032\242(6<F\242\214"
 2742      FC159480 
 2742      CF1AA228 
 2742      363C46A2 
 2742      8C
 2743 00cd 51840D66 		.ascii	"Q\204\015f\267[\372\365\216\"\354O\002\341o\003\312"
 2743      B75BFAF5 
 2743      8E22EC4F 
 2743      02E16F03 
 2743      CA
 2744 00de 6F41D88E 		.ascii	"oA\330\216\306\343\277\240\234\304\363W\3618\015\345"
 2744      C6E3BFA0 
 2744      9CC4F357 
 2744      F1380DE5 
 2745 00ee D72820FD 		.ascii	"\327( \375\031\371\251D[?x\216\255\327e\234\0352.f\317"
 2745      19F9A944 
 2745      5B3F788E 
 2745      ADD7659C 
 2745      1D322E66 
 2746 0103 80F27F28 		.ascii	"\200\362\177(\357\241D\201\260\313\3620\214\367\263"
 2746      EFA14481 
 2746      B0CBF230 
 2746      8CF7B3
 2747 0112 F0980722 		.ascii	"\360\230\007\"W,\037WPF\241\374\224\361\240\204\242"
 2747      572C1F57 
 2747      5046A1FC 
 2747      94F1A084 
 2747      A2
 2748 0123 FC0AE537 		.ascii	"\374\012\3457(\323Q\376\035\205\240\314\220>\276\210"
 2748      28D351FE 
 2748      1D85A0CC 
 2748      903EBE88 
 2749 0133 C26AC172 		.ascii	"\302j\301rV\210R\204R\214\262\002\245\004e\225\314\033"
 2749      56885284 
 2749      528CB202 
 2749      A5046595 
 2749      CC1B
 2750 0145 0B63DF88 		.ascii	"\013c\337\2108\016c\034?\304c\222O,12?,g\254f\211\262"
 2750      380E631C 
ARM GAS  /tmp/ccYLzD4W.s 			page 91


 2750      3FC46392 
 2750      4F2C3132 
 2750      3F2C67AC 
 2751 015c 9E5D8A5E 		.ascii	"\236]\212^7\026W\031\350\371d\361\225\243\314\225\361"
 2751      37165719 
 2751      E8F964F1 
 2751      95A3CC95 
 2751      F1
 2752 016d A9B9ED96 		.ascii	"\251\271\355\226\365f\271\372W\0201\261<\263|\377\034"
 2752      F566B9FA 
 2752      571031B1 
 2752      3CB37CFF 
 2752      1C
 2753 017e E5672813 		.ascii	"\345g(\023d\014,\3260\224\321(\3412nV\217S\212\210\371"
 2753      640C2CD6 
 2753      3094D128 
 2753      E1326E56 
 2753      8F538A88 
 2754 0193 37320FAC 		.ascii	"72\017\2546\257\312\\\374\007\313\205\"z\345\375 u:"
 2754      36AFCA5C 
 2754      FC07CB85 
 2754      227AE5FD 
 2754      20753A
 2755 01a6 8A37FFE9 		.ascii	"\2127\377\351;\352\264\032D\234\023e\177\030}\352\261"
 2755      3BEAB41A 
 2755      449C1365 
 2755      7F187DEA 
 2755      B1
 2756 01b7 06E54D59 		.ascii	"\006\345MY+\026\337'(ke\315b}\352\271\016\345m\360\357"
 2756      2B16DF27 
 2756      286B65CD 
 2756      627DEAB9 
 2756      0EE56DF0 
 2757 01cc 2B9BA2D7 		.ascii	"+\233\242\327\311\267v\252\357\276\375\366kYKV\363w"
 2757      C9B776AA 
 2757      EFBEFDF6 
 2757      6B594B56 
 2757      F377
 2758 01de 47D490D5 		.ascii	"G\324\220\325\256\322\247\226\263d-\343\237S\317\006"
 2758      AED2A796 
 2758      B3642DE3 
 2758      9F53CF06 
 2759 01ee 8C776C90 		.ascii	"\214wl\220z\252u[-kV&k\370\274\3306\243|(c\212\222\371"
 2759      7AAA755B 
 2759      2D6B5626 
 2759      6BF8BCD8 
 2759      36A37C28 
 2760 0206 0AF58969 		.ascii	"\012\365\211i\272O\377\215\354Q5\306pYo\\2\370\034\336"
 2760      BA4FFF8D 
 2760      EC5135C6 
 2760      70596F5C 
 2760      32F81CDE 
 2761 021a 2A63F9EB 		.ascii	"*c\371\353s|\377R\316\337\226 \276\253\363I\2357\314"
 2761      737CFF52 
 2761      CEDF9620 
 2761      BEABF349 
 2761      9D37CC
ARM GAS  /tmp/ccYLzD4W.s 			page 92


 2762 022d AF4E3957 		.ascii	"\257N9WX\375\247\313>b\274\211A\372\340\334\367\344"
 2762      58FDA7CB 
 2762      3E62BC89 
 2762      41FAE0DC 
 2762      F7E4
 2763 023f EE1AC1FD 		.ascii	"\356\032\301\375\242\344N\016\302\275\234\302D`\013"
 2763      A2E44E0E 
 2763      C2BD9CC2 
 2763      44600B
 2764 024e 62383F53 		.ascii	"b8?S(Qb\274\374S7N\201\275Bc\352(:\213!#\301\200\337"
 2764      285162BC 
 2764      FC53374E 
 2764      81BD4263 
 2764      EA283A8B 
 2765 0267 63607C19 		.ascii	"c`|\031%\267\274\013b\255\265^o\277\2676\307\242\300"
 2765      25B7BC0B 
 2765      62ADB55E 
 2765      6FBFB736 
 2765      C7A2C0
 2766 027a 418003A0 		.ascii	"A\200\003\240\300~@\222}\000{\000v\003\242J\016\325"
 2766      C07E4092 
 2766      7D007B00 
 2766      7603A24A 
 2766      0ED5
 2767 028c 771A6C1C 		.ascii	"w\032l\034\266\266\316\200\367\004N\201C\370E\377K\241"
 2767      B6B6CE80 
 2767      F7044E81 
 2767      43F845FF 
 2767      4BA1
 2768 029e EF2A882A 		.ascii	"\357*\210*\250\312\037\266D\011\263\265\334$\324\000"
 2768      A8CA1FB6 
 2768      4409B3B5 
 2768      DC24D400 
 2769 02ae 1C0164C2 		.ascii	"\034\001d\302s\232\3120\233\256n\314\006\177L\255\216"
 2769      739ACA30 
 2769      9BAE6ECC 
 2769      067F4CAD 
 2769      8E
 2770 02bf 61A69E9D 		.ascii	"a\246\236\235\333i\323M\035\005\315V\035\2635O\004`"
 2770      DB69D34D 
 2770      1D05CD56 
 2770      1DB3354F 
 2770      0460
 2771 02d1 E601D42A 		.ascii	"\346\001\324*\264\000P\311\370\270\367\353.:!j\002\252"
 2771      B40050C9 
 2771      F8B8F7EB 
 2771      2E3A216A 
 2771      02AA
 2772 02e3 0D5C3E7D 		.ascii	"\015\\>}b\303\257\326\345\345y\213\346S\324\201\303"
 2772      62C3AFD6 
 2772      E5E5798B 
 2772      E653D481 
 2772      C3
 2773 02f4 00F53A49 		.ascii	"\000\365:I\014J\254\202\306s\320\276A\201\023\000\307"
 2773      0C4AAC82 
 2773      C673D0BE 
 2773      41811300 
ARM GAS  /tmp/ccYLzD4W.s 			page 93


 2773      C7
 2774 0305 31E0631C 		.ascii	"1\340c\034\204\021\237\0048\305<A\246\252\307\331y\336"
 2774      84119F04 
 2774      38C53C41 
 2774      A6AAC7D9 
 2774      79DE
 2775 0317 881C1B23 		.ascii	"\210\034\033#\371\"\200\344 &\371!3Nz\332\373\207MQ"
 2775      F92280E4 
 2775      2026F921 
 2775      334E7ADA 
 2775      FB874D51 
 2776 032b 0194A747 		.ascii	"\001\224\247GR\"\364J\353\271\307\341zp\015:e#p@\336"
 2776      5222F44A 
 2776      EBB9C7E1 
 2776      7A700D3A 
 2776      65237040 
 2777 0340 9D9C32A2 		.ascii	"\235\2342\242\003\032u@\023\213>\227\260h\017.\332\275"
 2777      031A7540 
 2777      138B3E97 
 2777      B0680F2E 
 2777      DABD
 2778 0352 C1F06300 		.ascii	"\301\360c\000\374\267\020h\201,\257\327\200\007\324"
 2778      FCB71068 
 2778      812CAFD7 
 2778      8007D4
 2779 0361 EAF5E6D8 		.ascii	"\352\365\346\330\024\230\002\223\0258\0038\244\300\227"
 2779      14980293 
 2779      15380338 
 2779      A4C097
 2780 0370 00CDAC82 		.ascii	"\000\315\254\202+w\035\336ma\263\000G!\235\025\342o"
 2780      2B771DDE 
 2780      6D61B300 
 2780      47219D15 
 2780      E26F
 2781 0382 C5A7C2F9 		.ascii	"\305\247\302\371\000\206w\026h\001\243&Onli\016\365"
 2781      00867716 
 2781      6801A326 
 2781      4F6E6C69 
 2781      0EF5
 2782 0394 2FCF7980 		.ascii	"/\317y\200\013j\011\3139\350\312\262\346\263\324\037"
 2782      0B6A09CB 
 2782      39E8CAB2 
 2782      E6B3D41F 
 2783 03a4 74510721 		.ascii	"tQ\007!\240\360\362\301\242P=\212V=\2126\021\346\321"
 2783      A0F0F2C1 
 2783      A2503D8A 
 2783      563D8A36 
 2783      11E6D1
 2784 03b7 5BCFCE84 		.ascii	"[\317\316\204r\343m\000\347\200\227\224\360\222F\340"
 2784      72E36D00 
 2784      E7809794 
 2784      F09246E0 
 2785 03c7 DD8AC5AD 		.ascii	"\335\212\305\255}d\034\222\337\361z\3070\177/\003\\"
 2785      7D641C92 
 2785      DFF17AC7 
 2785      307F2F03 
 2785      5C
ARM GAS  /tmp/ccYLzD4W.s 			page 94


 2786 03d8 62DA5730 		.ascii	"b\332W0\240v\301\220]\266\251\311\254\233\270\242\233"
 2786      A076C190 
 2786      5DB6A9C9 
 2786      AC9BB8A2 
 2786      9B
 2787 03e9 E8E07ED0 		.ascii	"\350\340~\320\355\334\325\315\215+\206\303\202\300\340"
 2787      EDDCD5CD 
 2787      8D2B86C3 
 2787      82C0E0
 2788 03f8 2A48209B 		.ascii	"*H \233\003m\353\032}\334\355\320\271\256\261\244\357"
 2788      036DEB1A 
 2788      7DDCEDD0 
 2788      B9AEB1A4 
 2788      EF
 2789 0409 E34C037D 		.ascii	"\343L\003}\333\316Z\2021]W\231\3501\016\274s\342\253"
 2789      DBCE5A82 
 2789      315D5799 
 2789      E8310EBC 
 2789      73E2AB
 2790 041c C6D0C029 		.ascii	"\306\320\300)u\303wJ\361\200kE+\377\2226\022q6\231\177"
 2790      75C3774A 
 2790      F1806B45 
 2790      2BFF9236 
 2790      12713699 
 2791 0431 DB781EAE 		.ascii	"\333x\036\256)\364,Q\350%\224k(79uN^\351)\342\237\370"
 2791      29F42C51 
 2791      E825946B 
 2791      28373975 
 2791      4E5EE929 
 2792 0448 BB00F7D4 		.ascii	"\273\000\367\324\352\334\023\240o\326<\012\361\007\365"
 2792      EADC13A0 
 2792      6FD63C0A 
 2792      F107F5
 2793 0457 EB20045C 		.ascii	"\353 \004\\,-\375\324\247\307\356\353\341~\315\302\035"
 2793      2C2DFDD4 
 2793      A7C7EEEB 
 2793      E17ECDC2 
 2793      1D
 2794 0468 4073F994 		.ascii	"@s\371\224\365\331'5\013\036\201\230U\373\017\255Z\234"
 2794      F5D92735 
 2794      0B1E8198 
 2794      55FB0FAD 
 2794      5A9C
 2795 047a 6BF2D6E3 		.ascii	"k\362\326\343\\\375\032\240\017\340\321\337\235R\017"
 2795      5CFD1AA0 
 2795      0FE0D1DF 
 2795      9D520F
 2796 0489 380823FE 		.ascii	"8\010#\376\006\340[uJ\025\346\212)\205$\017\003H\330"
 2796      06E05B75 
 2796      4A15E68A 
 2796      2985240F 
 2796      0348D8
 2797 049c 94DA47F9 		.ascii	"\224\332G\371*Q\265~\263!pJ\015\214\244\244'\251B\317"
 2797      2A51B57E 
 2797      B321704A 
 2797      0D8CA4A4 
 2797      27A942CF 
ARM GAS  /tmp/ccYLzD4W.s 			page 95


 2798 04b0 53963E23 		.ascii	"S\226>#_\376L\374\214\205\376\001m\343T\273\012\266"
 2798      5FFE4CFC 
 2798      8C85FE01 
 2798      6DE354BB 
 2798      0AB6
 2799 04c2 2C3558BD 		.ascii	",5X\275#\313\361\014\020\207LC\000\2038?\214\315m\315"
 2799      23CBF10C 
 2799      10874C43 
 2799      0083383F 
 2799      8CCD6DCD 
 2800 04d6 7BCC182B 		.ascii	"{\314\030+\002\007\006W\367e\316G\264\015\036\003\334"
 2800      02070657 
 2800      F765CE47 
 2800      B40D1E03 
 2800      DC
 2801 04e7 01984FA4 		.ascii	"\001\230O\244\003\201\261\336\002\370\012\331\236p\020"
 2801      0381B1DE 
 2801      02F80AD9 
 2801      9E7010
 2802 04f6 D2790964 		.ascii	"\322y\011d\261\365\032\021U\367\366{\275\026\033\014"
 2802      B1F51A11 
 2802      55F7F67B 
 2802      BD161B0C 
 2803 0506 033CE5B7 		.ascii	"\003<\345\267\325P9Q\254B\027\030\230\177\335\305yK"
 2803      D5503951 
 2803      AC421718 
 2803      987FDDC5 
 2803      794B
 2804 0518 49540063 		.ascii	"IT\000c6\031\301\310{c<]n\020g\021\274K\274@\313\015"
 2804      3619C1C8 
 2804      7B633C5D 
 2804      6E106711 
 2804      BC4BBC40 
 2805 052e 0A5D8BB2 		.ascii	"\012]\213\262\005\345 c\264>\035,?9j\302\004\271\034"
 2805      05E52063 
 2805      B43E1D2C 
 2805      3F396AC2 
 2805      04B91C
 2806 0541 AE5CB2E6 		.ascii	"\256\\\262\346DX9\217\006'\372b\002E#<\301\254\263\312"
 2806      4458398F 
 2806      0627FA62 
 2806      0245233C 
 2806      C1ACB3CA 
 2807 0555 14E46A8B 		.ascii	"\024\344j\213\035\256\230> \0212\203\224\351\220E\201"
 2807      1DAE983E 
 2807      20113283 
 2807      94E99045 
 2807      81
 2808 0566 3CBE6959 		.ascii	"<\276iYH \217(P\300Q\030\304\022\002\313\010,%PHd#,"
 2808      48208F28 
 2808      50C05118 
 2808      C41202CB 
 2808      082C2550 
 2809 057e CDF55D5B 		.ascii	"\315\365][G\230c\215p\214g'\277\267\251\331\026\025"
 2809      4798638D 
 2809      708C6727 
 2809      BFB7A9D9 
ARM GAS  /tmp/ccYLzD4W.s 			page 96


 2809      1615
 2810 0590 40BC3C38 		.ascii	"@\274<81=\207Ih\347\031zG\333\015\337A\262NN\266\374"
 2810      313D8749 
 2810      68E7197A 
 2810      47DB0DDF 
 2810      41B24E4E 
 2811 05a6 C1B7F5C6 		.ascii	"\301\267\365\306\300\231YB\020\203\\\037\023XIh\017"
 2811      C0995942 
 2811      10835C1F 
 2811      13584968 
 2811      0F
 2812 05b7 52DCE6F0 		.ascii	"R\334\346\360=;\266\2371\370O$\334&\312\2116\221\216"
 2812      3D3BB69F 
 2812      31F84F24 
 2812      DC26CA89 
 2812      36918E
 2813 05ca 36970C5A 		.ascii	"6\227\014Z\375\001\247\375\000\245K?\277\350\263f|\242"
 2813      FD01A7FD 
 2813      00A54B3F 
 2813      BFE8B366 
 2813      7CA2
 2814 05dc 47B91ADD 		.ascii	"G\271\032\335\245\367e-\217+\274\230k\015\364[f\370"
 2814      A5F7652D 
 2814      8F2BBC98 
 2814      6B0DF45B 
 2814      66F8
 2815 05ee 07855FEF 		.ascii	"\007\205_\357\334\023:A\373D1\202\302\312%alC\253\006"
 2815      DC133A41 
 2815      FB443182 
 2815      C2CA2561 
 2815      6C43AB06 
 2816 0602 58436047 		.ascii	"XC`G\260\3624\345\211\224v\002\374\015|!=\262\314\254"
 2816      B0F234E5 
 2816      89947602 
 2816      FC0D7C21 
 2816      3DB2CCAC 
 2817 0616 294F557A 		.ascii	")OUz9(\207\300m\016\022\375\246@/\250D\375;N\012[\211"
 2817      392887C0 
 2817      6D0E12FD 
 2817      A6402FA8 
 2817      44FD3B4E 
 2818 062d F0919F29 		.ascii	"\360\221\237)\314\274,s\377\201\3127\031\242\230@>\207"
 2818      CCBC2C73 
 2818      FF81CA37 
 2818      19A29840 
 2818      3E87
 2819 063f 88BA4888 		.ascii	"\210\272H\210\350\250\376RI\263\232@Y\200\313\022\363"
 2819      E8A8FE52 
 2819      49B39A40 
 2819      5980CB12 
 2819      F3
 2820 0650 891ED62A 		.ascii	"\211\036\326*?\214\336RU\207u\227\027\020_\227sucU["
 2820      3F8CDE52 
 2820      55877597 
 2820      17105F97 
 2820      73756355 
 2821 0665 64F0A504 		.ascii	"d\360\245\004V\004\022IP\273\004u\001\254\367\003\335"
ARM GAS  /tmp/ccYLzD4W.s 			page 97


 2821      56041249 
 2821      50BB0475 
 2821      01ACF703 
 2821      DD
 2822 0676 1CD9C0EB 		.ascii	"\034\331\300\353\010\254%|\357\333\301\373l\003\201"
 2822      08AC257C 
 2822      EFDBC1FB 
 2822      6C0381
 2823 0685 CD04B610 		.ascii	"\315\004\266\020\330F`\023\201J\002[\011T\020\330H`"
 2823      D8466013 
 2823      814A025B 
 2823      095410D8 
 2823      4860
 2824 0697 3B11C53E 		.ascii	";\021\305>\226_T\004Q\001\024\027\277\007EuQS\373(\275"
 2824      965F5404 
 2824      51011417 
 2824      BF074575 
 2824      5153FB28 
 2825 06ac 5F76EA0E 		.ascii	"_v\352\016~\312\372\345\031o\313\246\365\373\372\314"
 2825      7ECAFAE5 
 2825      196FCBA6 
 2825      F5FBFACC 
 2826 06bc 815D5C45 		.ascii	"\201]\\EF\356/\3214?D4\330\017iq\210B\313P6\310\221"
 2826      46EE2FD1 
 2826      343F4434 
 2826      D80F6971 
 2826      8842CB50 
 2827 06d3 17C52643 		.ascii	"\027\305&C\350\216\020\344\034S\333\275u\233\301\277"
 2827      E88E10E4 
 2827      1C53DBBD 
 2827      759BC1BF 
 2828 06e3 E19A4E88 		.ascii	"\341\232N\210\312\210E\343x`BY\033|U\301\333\000+\263"
 2828      CA8845E3 
 2828      78604259 
 2828      1B7C55C1 
 2828      DB002BB3 
 2829 06f7 8763D4CA 		.ascii	"\207c\324\312\354&Z3\035\320yp]9\036\254qO\371\255+"
 2829      EC265A33 
 2829      1DD07970 
 2829      5D391EAC 
 2829      714FF9AD 
 2830 070c 234D09CC 		.ascii	"#M\011\314S\211I\204\203~\220\317uK\355\025\302R7n\021"
 2830      53894984 
 2830      837E90CF 
 2830      754BED15 
 2830      C252376E 
 2831 0721 7E983C0D 		.ascii	"~\230<\015S\325!i\020\2637\020#\333\244O\202>#\260\313"
 2831      53D52169 
 2831      10B33710 
 2831      23DBA44F 
 2831      823E23B0 
 2832 0736 0FE4D370 		.ascii	"\017\344\323p\375\207\365\270\276\010\210K\244G6\302"
 2832      FD87F5B8 
 2832      BE08884B 
 2832      A44736C2 
 2833 0746 0102FB09 		.ascii	"\001\002\373\011\177\024>\316\033\3410\201c\004j\010"
 2833      7F143ECE 
ARM GAS  /tmp/ccYLzD4W.s 			page 98


 2833      1BE13081 
 2833      63046A08 
 2834 0756 5413A825 		.ascii	"T\023\250%p\224\300!\002u\004\216\310.(\036j)\265F\005"
 2834      7094C021 
 2834      0275048E 
 2834      C82E281E 
 2834      6A29B546 
 2835 076b E8D7FEA3 		.ascii	"\350\327\376\243\372=%W\362}\236yN\350\256}A8\240\363"
 2835      FA3D2557 
 2835      F27D9E79 
 2835      4EE8AE7D 
 2835      4138A0F3 
 2836 077f B34D9D54 		.ascii	"\263M\235T\007\344\350\200\223\002\260\355Fu\207\015"
 2836      07E4E880 
 2836      9302B0ED 
 2836      4675870D 
 2837 078f E7042334 		.ascii	"\347\004#48\001\240\355\025\374\262*\377M\2251^\342"
 2837      3801A0ED 
 2837      15FCB22A 
 2837      FF4D9531 
 2837      5EE2
 2838 07a1 25462725 		.ascii	"%F'%Vj\245Nk=\274\020\375\220N3\223\350p\253y\3631\210"
 2838      566AA54E 
 2838      6B3DBC10 
 2838      FD904E33 
 2838      93E870AB 
 2839 07b9 B0869809 		.ascii	"\260\206\230\011\35159\255\321O\260\255\327\032\307"
 2839      E93539AD 
 2839      D14FB0AD 
 2839      D71AC7
 2840 07c8 4FF31A9C 		.ascii	"O\363\032\234\213\307\366\232"
 2840      8BC7F69A 
 2841 07d0 BCA4E8CD 		.ascii	"\274\244\350\3151S\246\341w\257\251\036\234\250\365"
 2841      3153A6E1 
 2841      77AFA91E 
 2841      9CA8F5
 2842 07df 96C11C81 		.ascii	"\226\301\034\201g\275&\353C\272\266\320\350l\"\013'"
 2842      67BD26EB 
 2842      43BAB6D0 
 2842      E86C220B 
 2842      27
 2843 07f0 E223B3D5 		.ascii	"\342#\263\325\0317\006\203\237f6\277\020^G\353\350k"
 2843      19370683 
 2843      9F6636BF 
 2843      105E47EB 
 2843      E86B
 2844 0802 8A623657 		.ascii	"\212b6W\355\034k\3555\205#E\264s|\204s|x=\2048\235\326"
 2844      ED1C6BED 
 2844      35852345 
 2844      B4737C84 
 2844      737C783D 
 2845 081a 31D10A3A 		.ascii	"1\321\012:\341\214\213\233F\254\310l0\327C\034\005["
 2845      E18C8B9B 
 2845      46ACC86C 
 2845      30D7431C 
 2845      055B
 2846 082c 9CF7FAED 		.ascii	"\234\367\372\355q\326\020\253\345\205\361\321\212\342"
ARM GAS  /tmp/ccYLzD4W.s 			page 99


 2846      71D610AB 
 2846      E585F1D1 
 2846      8AE2
 2847 083a 545E23C8 		.ascii	"T^#\310K\207\325\017\230\320\246S\277\004\210\266\222"
 2847      4B87D50F 
 2847      98D0A653 
 2847      BF0488B6 
 2847      92
 2848 084b 38427FDF 		.ascii	"8B\177\337k\302\267-2\036\267o\203\331f\303\307\010"
 2848      6BC2B72D 
 2848      321EB76F 
 2848      83D966C3 
 2848      C708
 2849 085d 83D962FF 		.ascii	"\203\331b\377\275\363\2558\253\322k\"xk\214\201\355"
 2849      BDF3AD38 
 2849      ABD26B22 
 2849      786B8C81 
 2849      ED
 2850 086e C7BAA6D5 		.ascii	"\307\272\246\325\250\000\334\372\005N?\376\307\276@"
 2850      A800DCFA 
 2850      054E3FFE 
 2850      C7BE40
 2851 087d 7E01BB04 		.ascii	"~\001\273\004\361+\225j\206\217\263m\202H4\203\210Q"
 2851      F12B956A 
 2851      868FB36D 
 2851      82483483 
 2851      8851
 2852 088f ED20CF19 		.ascii	"\355 \317\031\200H\036\"_\362@\350H#\354\333\207\\\203"
 2852      80481E22 
 2852      5FF240E8 
 2852      4823ECDB 
 2852      875C83
 2853 08a2 8084A83C 		.ascii	"\200\204\250<BG\0024]y\312lp0\361\325\341z~\216\353"
 2853      42470234 
 2853      5D79CA6C 
 2853      7030F1D5 
 2853      E17A7E8E 
 2854 08b7 948A46AB 		.ascii	"\224\212F\253\272\244\210\013\266!\026_\316\013\351"
 2854      BAA4880B 
 2854      B621165F 
 2854      CE0BE9
 2855 08c6 618F5FFB 		.ascii	"a\217_\373[\347\3377\302\330\242i\012\320\006\266\304"
 2855      5BE7DF37 
 2855      C2D8A269 
 2855      0AD006B6 
 2855      C4
 2856 08d7 90A285E7 		.ascii	"\220\242\205\347_\341O\374\335\342\375\343t]mm\230:"
 2856      5FE14FFC 
 2856      DDE2FDE3 
 2856      745D6D6D 
 2856      983A
 2857 08e9 D040D893 		.ascii	"\320@\330\223PcS\245\366R\320\310F\256f\027\264[\265"
 2857      506353A5 
 2857      F652D0C8 
 2857      46AE6617 
 2857      B45BB5
 2858 08fc 17813AFD 		.ascii	"\027\201:\375E\340\014\272\333\204i\371IQ\211w\340\312"
ARM GAS  /tmp/ccYLzD4W.s 			page 100


 2858      45E00CBA 
 2858      DB8469F9 
 2858      49518977 
 2858      E0CA
 2859 090e DD6B2D2F 		.ascii	"\335k-/\327e{7\263m\330\206\367\340\264\334\202q?F\340"
 2859      D7657B37 
 2859      B36DD886 
 2859      F7E0B4DC 
 2859      82713F46 
 2860 0923 29AC3E99 		.ascii	")\254>\231:\034A\263\215\314\221\313\237/\3702L5\303"
 2860      3A1C41B3 
 2860      8DCC91CB 
 2860      9F2FF832 
 2860      4C35C3
 2861 0936 3C29D975 		.ascii	"<)\331u\375\2421\230\025|\000\207\026i\245\252\211-"
 2861      FDA23198 
 2861      157C0087 
 2861      1669A5AA 
 2861      892D
 2862 0948 0AF8A685 		.ascii	"\012\370\246\205\257Zg\0114k\026\2325\013\373#\350r"
 2862      AF5A6709 
 2862      346B169A 
 2862      350BFB23 
 2862      E872
 2863 095a 6EE1F093 		.ascii	"n\341\360\223-\367\205\205.aaa\333\355\3536>\200{\363"
 2863      2DF78585 
 2863      2E616161 
 2863      DBEDEB36 
 2863      3E807BF3 
 2864 096e 0516D950 		.ascii	"\005\026\331P\303*\017\037H\204\213\354z\331\316\305"
 2864      C32A0F1F 
 2864      48848BEC 
 2864      7AD9CEC5 
 2865 097e 2D2276DC 		.ascii	"-\"v\334\300Zy\354K\357n\027#\2707\266\261\221g-eG\010"
 2865      C05A79EC 
 2865      4BEF6E17 
 2865      23B837B6 
 2865      B191672D 
 2866 0995 1FC11DB5 		.ascii	"\037\301\035\265\235\215\334\314;\\iV1\227\330HM\315"
 2866      9D8DDCCC 
 2866      3B5C6956 
 2866      3197D848 
 2866      4DCD
 2867 09a7 D0492DB8 		.ascii	"\320I-\270\313l${\371\221\011ZpIZl\035\350\366\0251"
 2867      CB6C247B 
 2867      F991095A 
 2867      70495A6C 
 2867      1DE8F615 
 2868 09bc DB2B1E94 		.ascii	"\333+\036\224\016\204\375\244\244\004\227\363\223\357"
 2868      0E84FDA4 
 2868      A40497F3 
 2868      93EF
 2869 09ca B1244EC3 		.ascii	"\261$N\303\273p^\213\360\274\026\341\352p\272\221GX"
 2869      BB705E8B 
 2869      F0BC16E1 
 2869      EA70BA91 
 2869      4758
ARM GAS  /tmp/ccYLzD4W.s 			page 101


 2870 09dc D6B2EEE3 		.ascii	"\326\262\356\343P\256\322{*/\254\231=\000\001K|\247"
 2870      50AED27B 
 2870      2A2FAC99 
 2870      3D00014B 
 2870      7CA7
 2871 09ee A6D4A929 		.ascii	"\246\324\251)m\013\243{\270\322G\027\366n\016S\3378"
 2871      6D0BA37B 
 2871      B8D24717 
 2871      F66E0E53 
 2871      DF38
 2872 0a00 595AF675 		.ascii	"YZ\366u\364?\266\252\316v1gw\034.\033\244A\274\355F"
 2872      F43FB6AA 
 2872      CE763167 
 2872      771C2E1B 
 2872      A441BCED 
 2873 0a15 B61BC2DB 		.ascii	"\266\033\302\333\007\267\366vZ\270\351\247\015\322\333"
 2873      07B7F676 
 2873      5AB8E9A7 
 2873      0DD2DB
 2874 0a24 6E02D735 		.ascii	"n\002\3275\303\3275\3037Ci\0037<T3|\315\304T\252\362"
 2874      C3D735C3 
 2874      37436903 
 2874      373C5433 
 2874      7CCDC454 
 2875 0a3a 976A45C4 		.ascii	"\227jE\304\027\270\036M\251GS\332\036J;\270\322\275"
 2875      17B81E4D 
 2875      A94753DA 
 2875      1E4A3BB8 
 2875      D2BD
 2876 0a4c EAD64B06 		.ascii	"\352\326K\006\256T\343\247\324\253)\365jJ\017l\264\237"
 2876      AE54E3A7 
 2876      D4AB29F5 
 2876      6A4A0F6C 
 2876      B49F
 2877 0a5e 2B1DBF79 		.ascii	"+\035\277y\256h\304\273\027\276\032\334\326\237\010"
 2877      AE68C4BB 
 2877      17BE1ADC 
 2877      D69F08
 2878 0a6d EF752DDF 		.ascii	"\357u-\337g\363\007\340\223\276\017\340x\363\331,\237"
 2878      67F307E0 
 2878      93BE0FE0 
 2878      78F3D92C 
 2878      9F
 2879 0a7e 97B33BFA 		.ascii	"\227\263;\372\332\334'\342\357\313^\324&j\336G \235"
 2879      DADC27E2 
 2879      EFCB5ED4 
 2879      266ADE47 
 2879      209D
 2880 0a90 3E15CE5E 		.ascii	">\025\316^\274Pg\014|\311\271G\374^rHM\371\312\326P"
 2880      BC50670C 
 2880      7CC9B947 
 2880      FC5E7248 
 2880      4DF9CAD6 
 2881 0aa5 2DBDFD44 		.ascii	"-\275\375D\313\357}\014\345\256\340\317\353y\274\002"
 2881      CBEF7D0C 
 2881      E5AEE0CF 
 2881      EB79BC02 
ARM GAS  /tmp/ccYLzD4W.s 			page 102


 2882 0ab5 F3CB5F83 		.ascii	"\363\313_\203\216l0\226{qg\271\217;\273\026\366-\276"
 2882      8E6C3096 
 2882      7B7167B9 
 2882      8F3BBB16 
 2882      F62DBE
 2883 0ac8 1CD1F926 		.ascii	"\034\321\371&\206^r\266\260X\374\2540,j\232\377\361"
 2883      865E72B6 
 2883      B058FCAC 
 2883      302C6A9A 
 2883      FFF1
 2884 0ada E7B735F7 		.ascii	"\347\2675\367\036\262\232~qmI\177H\220\232>B\233\337"
 2884      1EB29A7E 
 2884      716D497F 
 2884      48909A3E 
 2884      429BDF
 2885 0aed 089BFB1A 		.ascii	"\010\233\373\032\012\263\302\230\315\376\352\354\005"
 2885      0AB3C298 
 2885      CDFEEAEC 
 2885      05
 2886 0afa 4BBCF016 		.ascii	"K\274\360\026\336\204\007\232\305\007\302\3422S`\374"
 2886      DE84079A 
 2886      C507C2E2 
 2886      325360FC 
 2887 0b0a 6CBBBCBB 		.ascii	"l\273\274\273\243\313\022\204\377\011\362?\026\374u"
 2887      A3CB1284 
 2887      FF09F23F 
 2887      16FC75
 2888 0b19 BB0B6AC3 		.ascii	"\273\013j\303\031\177UCv^m\004\301{0\240\321\017\020"
 2888      197F5543 
 2888      765E6D04 
 2888      C17B30A0 
 2888      D10F10
 2889 0b2c B97C752E 		.ascii	"\271|u.]S\350\363\270~_\317\375\240\340\331sw\260*D"
 2889      5D53E8F3 
 2889      B87E5FCF 
 2889      FDA0E0D9 
 2889      7377B02A 
 2890 0b41 4B333E46 		.ascii	"K3>F\251\367\207\320V\014L\246\253\231\213\306\241\363"
 2890      A9F787D0 
 2890      560C4CA6 
 2890      AB998BC6 
 2890      A1F3
 2891 0b53 179A4D56 		.ascii	"\027\232MV\361\003\015\377Q\246n>\225\277\312<\303\335"
 2891      F1030DFF 
 2891      51A66E3E 
 2891      95BFCA3C 
 2891      C3DD
 2892 0b65 03B15E0A 		.ascii	"\003\261^\012\363);\305\266\032\374g<\"\371\205\015"
 2892      F3293BC5 
 2892      B61AFC67 
 2892      3C22F985 
 2892      0D
 2893 0b76 4F0ED148 		.ascii	"O\016\321H\261\355\277\213CZ Y\224\033\020\017nFDV\036"
 2893      B1EDBF8B 
 2893      435A2059 
 2893      941B100F 
 2893      6E464456 
ARM GAS  /tmp/ccYLzD4W.s 			page 103


 2894 0b8b 58D86009 		.ascii	"X\330`\011\346F\016endS\2164\361G\274_\"\376\334\215"
 2894      E6460E65 
 2894      6E64538E 
 2894      34F147BC 
 2894      5F22FEDC 
 2895 0ba0 9EBA705F 		.ascii	"\236\272p_\346\005\024r){\350\241\\\007\037\013M\012"
 2895      E6051472 
 2895      297BE8A1 
 2895      5C071F0B 
 2895      4D0A
 2896 0bb2 FD8CA7B7 		.ascii	"\375\214\247\267\240\356X\271\021\323\013\371T\011\266"
 2896      A0EE58B9 
 2896      11D30BF9 
 2896      5409B6
 2897 0bc1 6C5F2A2C 		.ascii	"l_*,\3157\005\311\366b\244*\240rE~\366\264\352\351K"
 2897      CD3705C9 
 2897      F662A42A 
 2897      A072457E 
 2897      F6B4EAE9 
 2898 0bd6 C7F88A5C 		.ascii	"\307\370\212\\TO\360\036,\244<\333\260\210B!\273Rg\316"
 2898      544FF01E 
 2898      2CA43CDB 
 2898      B0884221 
 2898      BB5267CE 
 2899 0bea ED489A65 		.ascii	"\355H\232e\346mW\275\244\301\032\204w)B\323%\355\241"
 2899      E66D57BD 
 2899      A4C11A84 
 2899      772942D3 
 2899      25EDA1
 2900 0bfd F52DD5B1 		.ascii	"\365-\325\261b\241/\372\035\336\201%\202U\201\"v\256"
 2900      62A12FFA 
 2900      1DDE8125 
 2900      82558122 
 2900      76AE
 2901 0c0f 726E8CA4 		.ascii	"rn\214\244{\315\001\261p\206\2176\265t\030\253\361\275"
 2901      7BCD01B1 
 2901      70868F36 
 2901      B57418AB 
 2901      F1BD
 2902 0c21 3CD7EBCD 		.ascii	"<\327\353\315\3729c\207e\3223\314V1\273RY\332#\351\200"
