ARM GAS  /tmp/cckdeSuD.s 			page 1


   1              		.cpu cortex-m4
   2              		.eabi_attribute 20, 1
   3              		.eabi_attribute 21, 1
   4              		.eabi_attribute 23, 3
   5              		.eabi_attribute 24, 1
   6              		.eabi_attribute 25, 1
   7              		.eabi_attribute 26, 1
   8              		.eabi_attribute 30, 2
   9              		.eabi_attribute 34, 1
  10              		.eabi_attribute 18, 4
  11              		.file	"chsem.c"
  12              		.file 1 "/usr/share/gcc-arm-none-eabi-10-2020-q4-major/arm-none-eabi/include/machine/_default_type
  13              		.file 2 "/usr/share/gcc-arm-none-eabi-10-2020-q4-major/arm-none-eabi/include/sys/_stdint.h"
  14              		.file 3 "./ChibiOS_20.3.0/os/common/ports/ARMCMx/compilers/GCC/chtypes.h"
  15              		.file 4 "./ChibiOS_20.3.0/os/rt/include/chsystypes.h"
  16              		.file 5 "./ChibiOS_20.3.0/os/rt/include/chschd.h"
  17              		.file 6 "./ChibiOS_20.3.0/os/rt/include/chtime.h"
  18              		.file 7 "./ChibiOS_20.3.0/os/common/ports/ARMCMx/chcore.h"
  19              		.file 8 "./ChibiOS_20.3.0/os/common/ports/ARMCMx/chcore_v7m.h"
  20              		.file 9 "./ChibiOS_20.3.0/os/rt/include/chtm.h"
  21              		.file 10 "./ChibiOS_20.3.0/os/rt/include/chsem.h"
  22              		.file 11 "./ChibiOS_20.3.0/os/rt/include/chmtx.h"
  23              		.file 12 "./ChibiOS_20.3.0/os/rt/src/chsem.c"
  24              		.file 13 "./ChibiOS_20.3.0/os/rt/include/chsys.h"
  25              		.file 14 "./ChibiOS_20.3.0/os/common/ext/ARM/CMSIS/Core/Include/cmsis_gcc.h"
  26              		.section	.gnu.debuglto_.debug_info,"e",%progbits
  27              	.Ldebug_info0:
  28              		.hidden	chsem.c.6e22b0f3
  29              		.weak	chsem.c.6e22b0f3
  30              	chsem.c.6e22b0f3:
  31 0000 1C0A0000 		.4byte	0xa1c
  32 0004 0400     		.2byte	0x4
  33 0006 00000000 		.4byte	.Ldebug_abbrev0
  34 000a 04       		.byte	0x4
  35 000b 01       		.uleb128 0x1
  36 000c D0020000 		.4byte	.LASF113
  37 0010 0C       		.byte	0xc
  38 0011 49000000 		.4byte	.LASF114
  39 0015 CB010000 		.4byte	.LASF115
  40 0019 00000000 		.4byte	.Ldebug_line0
  41 001d 02       		.uleb128 0x2
  42 001e 04       		.byte	0x4
  43 001f 05       		.byte	0x5
  44 0020 696E7400 		.ascii	"int\000"
  45 0024 03       		.uleb128 0x3
  46 0025 04       		.byte	0x4
  47 0026 07       		.byte	0x7
  48 0027 2C020000 		.4byte	.LASF0
  49 002b 03       		.uleb128 0x3
  50 002c 08       		.byte	0x8
  51 002d 05       		.byte	0x5
  52 002e 21010000 		.4byte	.LASF1
  53 0032 03       		.uleb128 0x3
  54 0033 08       		.byte	0x8
  55 0034 04       		.byte	0x4
  56 0035 15050000 		.4byte	.LASF2
  57 0039 03       		.uleb128 0x3
ARM GAS  /tmp/cckdeSuD.s 			page 2


  58 003a 01       		.byte	0x1
  59 003b 06       		.byte	0x6
  60 003c 2F010000 		.4byte	.LASF3
  61 0040 04       		.uleb128 0x4
  62 0041 75000000 		.4byte	.LASF7
  63 0045 01       		.byte	0x1
  64 0046 2B       		.byte	0x2b
  65 0047 18       		.byte	0x18
  66 0048 4C000000 		.4byte	0x4c
  67 004c 03       		.uleb128 0x3
  68 004d 01       		.byte	0x1
  69 004e 08       		.byte	0x8
  70 004f 84040000 		.4byte	.LASF4
  71 0053 03       		.uleb128 0x3
  72 0054 02       		.byte	0x2
  73 0055 05       		.byte	0x5
  74 0056 92040000 		.4byte	.LASF5
  75 005a 03       		.uleb128 0x3
  76 005b 02       		.byte	0x2
  77 005c 07       		.byte	0x7
  78 005d 76020000 		.4byte	.LASF6
  79 0061 04       		.uleb128 0x4
  80 0062 95030000 		.4byte	.LASF8
  81 0066 01       		.byte	0x1
  82 0067 4D       		.byte	0x4d
  83 0068 18       		.byte	0x18
  84 0069 6D000000 		.4byte	0x6d
  85 006d 03       		.uleb128 0x3
  86 006e 04       		.byte	0x4
  87 006f 05       		.byte	0x5
  88 0070 8C010000 		.4byte	.LASF9
  89 0074 04       		.uleb128 0x4
  90 0075 C0010000 		.4byte	.LASF10
  91 0079 01       		.byte	0x1
  92 007a 4F       		.byte	0x4f
  93 007b 19       		.byte	0x19
  94 007c 80000000 		.4byte	0x80
  95 0080 03       		.uleb128 0x3
  96 0081 04       		.byte	0x4
  97 0082 07       		.byte	0x7
  98 0083 51020000 		.4byte	.LASF11
  99 0087 04       		.uleb128 0x4
 100 0088 36040000 		.4byte	.LASF12
 101 008c 01       		.byte	0x1
 102 008d 69       		.byte	0x69
 103 008e 19       		.byte	0x19
 104 008f 93000000 		.4byte	0x93
 105 0093 03       		.uleb128 0x3
 106 0094 08       		.byte	0x8
 107 0095 07       		.byte	0x7
 108 0096 4B010000 		.4byte	.LASF13
 109 009a 04       		.uleb128 0x4
 110 009b BB050000 		.4byte	.LASF14
 111 009f 02       		.byte	0x2
 112 00a0 18       		.byte	0x18
 113 00a1 13       		.byte	0x13
 114 00a2 40000000 		.4byte	0x40
ARM GAS  /tmp/cckdeSuD.s 			page 3


 115 00a6 04       		.uleb128 0x4
 116 00a7 7C040000 		.4byte	.LASF15
 117 00ab 02       		.byte	0x2
 118 00ac 2C       		.byte	0x2c
 119 00ad 13       		.byte	0x13
 120 00ae 61000000 		.4byte	0x61
 121 00b2 04       		.uleb128 0x4
 122 00b3 EF040000 		.4byte	.LASF16
 123 00b7 02       		.byte	0x2
 124 00b8 30       		.byte	0x30
 125 00b9 14       		.byte	0x14
 126 00ba 74000000 		.4byte	0x74
 127 00be 04       		.uleb128 0x4
 128 00bf 6C000000 		.4byte	.LASF17
 129 00c3 02       		.byte	0x2
 130 00c4 3C       		.byte	0x3c
 131 00c5 14       		.byte	0x14
 132 00c6 87000000 		.4byte	0x87
 133 00ca 04       		.uleb128 0x4
 134 00cb CF030000 		.4byte	.LASF18
 135 00cf 03       		.byte	0x3
 136 00d0 27       		.byte	0x27
 137 00d1 1D       		.byte	0x1d
 138 00d2 B2000000 		.4byte	0xb2
 139 00d6 04       		.uleb128 0x4
 140 00d7 AE020000 		.4byte	.LASF19
 141 00db 03       		.byte	0x3
 142 00dc 2A       		.byte	0x2a
 143 00dd 1D       		.byte	0x1d
 144 00de 9A000000 		.4byte	0x9a
 145 00e2 04       		.uleb128 0x4
 146 00e3 95010000 		.4byte	.LASF20
 147 00e7 03       		.byte	0x3
 148 00e8 2B       		.byte	0x2b
 149 00e9 1D       		.byte	0x1d
 150 00ea 9A000000 		.4byte	0x9a
 151 00ee 04       		.uleb128 0x4
 152 00ef 41040000 		.4byte	.LASF21
 153 00f3 03       		.byte	0x3
 154 00f4 2C       		.byte	0x2c
 155 00f5 1D       		.byte	0x1d
 156 00f6 9A000000 		.4byte	0x9a
 157 00fa 04       		.uleb128 0x4
 158 00fb 5E040000 		.4byte	.LASF22
 159 00ff 03       		.byte	0x3
 160 0100 2E       		.byte	0x2e
 161 0101 1D       		.byte	0x1d
 162 0102 B2000000 		.4byte	0xb2
 163 0106 04       		.uleb128 0x4
 164 0107 93020000 		.4byte	.LASF23
 165 010b 03       		.byte	0x3
 166 010c 2F       		.byte	0x2f
 167 010d 1D       		.byte	0x1d
 168 010e A6000000 		.4byte	0xa6
 169 0112 04       		.uleb128 0x4
 170 0113 C4020000 		.4byte	.LASF24
 171 0117 03       		.byte	0x3
ARM GAS  /tmp/cckdeSuD.s 			page 4


 172 0118 31       		.byte	0x31
 173 0119 1D       		.byte	0x1d
 174 011a B2000000 		.4byte	0xb2
 175 011e 04       		.uleb128 0x4
 176 011f 26020000 		.4byte	.LASF25
 177 0123 03       		.byte	0x3
 178 0124 33       		.byte	0x33
 179 0125 1D       		.byte	0x1d
 180 0126 A6000000 		.4byte	0xa6
 181 012a 04       		.uleb128 0x4
 182 012b 45050000 		.4byte	.LASF26
 183 012f 04       		.byte	0x4
 184 0130 34       		.byte	0x34
 185 0131 1A       		.byte	0x1a
 186 0132 36010000 		.4byte	0x136
 187 0136 05       		.uleb128 0x5
 188 0137 89020000 		.4byte	.LASF44
 189 013b 44       		.byte	0x44
 190 013c 05       		.byte	0x5
 191 013d 8E       		.byte	0x8e
 192 013e 08       		.byte	0x8
 193 013f 26020000 		.4byte	0x226
 194 0143 06       		.uleb128 0x6
 195 0144 BA010000 		.4byte	.LASF27
 196 0148 05       		.byte	0x5
 197 0149 8F       		.byte	0x8f
 198 014a 19       		.byte	0x19
 199 014b 5F020000 		.4byte	0x25f
 200 014f 00       		.byte	0
 201 0150 06       		.uleb128 0x6
 202 0151 29040000 		.4byte	.LASF28
 203 0155 05       		.byte	0x5
 204 0156 90       		.byte	0x90
 205 0157 19       		.byte	0x19
 206 0158 FA000000 		.4byte	0xfa
 207 015c 08       		.byte	0x8
 208 015d 07       		.uleb128 0x7
 209 015e 63747800 		.ascii	"ctx\000"
 210 0162 05       		.byte	0x5
 211 0163 91       		.byte	0x91
 212 0164 19       		.byte	0x19
 213 0165 08050000 		.4byte	0x508
 214 0169 0C       		.byte	0xc
 215 016a 06       		.uleb128 0x6
 216 016b C0030000 		.4byte	.LASF29
 217 016f 05       		.byte	0x5
 218 0170 93       		.byte	0x93
 219 0171 1A       		.byte	0x1a
 220 0172 32020000 		.4byte	0x232
 221 0176 10       		.byte	0x10
 222 0177 06       		.uleb128 0x6
 223 0178 2D050000 		.4byte	.LASF30
 224 017c 05       		.byte	0x5
 225 017d 94       		.byte	0x94
 226 017e 1A       		.byte	0x1a
 227 017f 32020000 		.4byte	0x232
 228 0183 14       		.byte	0x14
ARM GAS  /tmp/cckdeSuD.s 			page 5


 229 0184 06       		.uleb128 0x6
 230 0185 6B020000 		.4byte	.LASF31
 231 0189 05       		.byte	0x5
 232 018a 9B       		.byte	0x9b
 233 018b 1A       		.byte	0x1a
 234 018c 27060000 		.4byte	0x627
 235 0190 18       		.byte	0x18
 236 0191 06       		.uleb128 0x6
 237 0192 21050000 		.4byte	.LASF32
 238 0196 05       		.byte	0x5
 239 0197 A4       		.byte	0xa4
 240 0198 1A       		.byte	0x1a
 241 0199 3E060000 		.4byte	0x63e
 242 019d 1C       		.byte	0x1c
 243 019e 06       		.uleb128 0x6
 244 019f 86010000 		.4byte	.LASF33
 245 01a3 05       		.byte	0x5
 246 01a4 A9       		.byte	0xa9
 247 01a5 19       		.byte	0x19
 248 01a6 E2000000 		.4byte	0xe2
 249 01aa 20       		.byte	0x20
 250 01ab 06       		.uleb128 0x6
 251 01ac C3050000 		.4byte	.LASF34
 252 01b0 05       		.byte	0x5
 253 01b1 AD       		.byte	0xad
 254 01b2 19       		.byte	0x19
 255 01b3 D6000000 		.4byte	0xd6
 256 01b7 21       		.byte	0x21
 257 01b8 06       		.uleb128 0x6
 258 01b9 49040000 		.4byte	.LASF35
 259 01bd 05       		.byte	0x5
 260 01be B2       		.byte	0xb2
 261 01bf 19       		.byte	0x19
 262 01c0 EE000000 		.4byte	0xee
 263 01c4 22       		.byte	0x22
 264 01c5 08       		.uleb128 0x8
 265 01c6 7500     		.ascii	"u\000"
 266 01c8 05       		.byte	0x5
 267 01c9 0301     		.2byte	0x103
 268 01cb 19       		.byte	0x19
 269 01cc 4D050000 		.4byte	0x54d
 270 01d0 24       		.byte	0x24
 271 01d1 09       		.uleb128 0x9
 272 01d2 F8010000 		.4byte	.LASF36
 273 01d6 05       		.byte	0x5
 274 01d7 0801     		.2byte	0x108
 275 01d9 19       		.byte	0x19
 276 01da 38020000 		.4byte	0x238
 277 01de 28       		.byte	0x28
 278 01df 09       		.uleb128 0x9
 279 01e0 7D010000 		.4byte	.LASF37
 280 01e4 05       		.byte	0x5
 281 01e5 0E01     		.2byte	0x10e
 282 01e7 19       		.byte	0x19
 283 01e8 5F020000 		.4byte	0x25f
 284 01ec 2C       		.byte	0x2c
 285 01ed 09       		.uleb128 0x9
ARM GAS  /tmp/cckdeSuD.s 			page 6


 286 01ee 99020000 		.4byte	.LASF38
 287 01f2 05       		.byte	0x5
 288 01f3 1401     		.2byte	0x114
 289 01f5 19       		.byte	0x19
 290 01f6 12010000 		.4byte	0x112
 291 01fa 34       		.byte	0x34
 292 01fb 09       		.uleb128 0x9
 293 01fc EB050000 		.4byte	.LASF39
 294 0200 05       		.byte	0x5
 295 0201 1B01     		.2byte	0x11b
 296 0203 1A       		.byte	0x1a
 297 0204 21060000 		.4byte	0x621
 298 0208 38       		.byte	0x38
 299 0209 09       		.uleb128 0x9
 300 020a C6030000 		.4byte	.LASF40
 301 020e 05       		.byte	0x5
 302 020f 1F01     		.2byte	0x11f
 303 0211 19       		.byte	0x19
 304 0212 FA000000 		.4byte	0xfa
 305 0216 3C       		.byte	0x3c
 306 0217 09       		.uleb128 0x9
 307 0218 70020000 		.4byte	.LASF41
 308 021c 05       		.byte	0x5
 309 021d 2601     		.2byte	0x126
 310 021f 1A       		.byte	0x1a
 311 0220 1F030000 		.4byte	0x31f
 312 0224 40       		.byte	0x40
 313 0225 00       		.byte	0
 314 0226 04       		.uleb128 0x4
 315 0227 D7030000 		.4byte	.LASF42
 316 022b 04       		.byte	0x4
 317 022c 39       		.byte	0x39
 318 022d 14       		.byte	0x14
 319 022e 32020000 		.4byte	0x232
 320 0232 0A       		.uleb128 0xa
 321 0233 04       		.byte	0x4
 322 0234 2A010000 		.4byte	0x12a
 323 0238 04       		.uleb128 0x4
 324 0239 D0050000 		.4byte	.LASF43
 325 023d 04       		.byte	0x4
 326 023e 3E       		.byte	0x3e
 327 023f 20       		.byte	0x20
 328 0240 44020000 		.4byte	0x244
 329 0244 05       		.uleb128 0x5
 330 0245 FF040000 		.4byte	.LASF45
 331 0249 04       		.byte	0x4
 332 024a 05       		.byte	0x5
 333 024b 7C       		.byte	0x7c
 334 024c 08       		.byte	0x8
 335 024d 5F020000 		.4byte	0x25f
 336 0251 06       		.uleb128 0x6
 337 0252 0B010000 		.4byte	.LASF46
 338 0256 05       		.byte	0x5
 339 0257 7D       		.byte	0x7d
 340 0258 1A       		.byte	0x1a
 341 0259 32020000 		.4byte	0x232
 342 025d 00       		.byte	0
ARM GAS  /tmp/cckdeSuD.s 			page 7


 343 025e 00       		.byte	0
 344 025f 04       		.uleb128 0x4
 345 0260 9C050000 		.4byte	.LASF47
 346 0264 04       		.byte	0x4
 347 0265 45       		.byte	0x45
 348 0266 21       		.byte	0x21
 349 0267 6B020000 		.4byte	0x26b
 350 026b 05       		.uleb128 0x5
 351 026c 10010000 		.4byte	.LASF48
 352 0270 08       		.byte	0x8
 353 0271 05       		.byte	0x5
 354 0272 83       		.byte	0x83
 355 0273 08       		.byte	0x8
 356 0274 93020000 		.4byte	0x293
 357 0278 06       		.uleb128 0x6
 358 0279 0B010000 		.4byte	.LASF46
 359 027d 05       		.byte	0x5
 360 027e 84       		.byte	0x84
 361 027f 1A       		.byte	0x1a
 362 0280 32020000 		.4byte	0x232
 363 0284 00       		.byte	0
 364 0285 06       		.uleb128 0x6
 365 0286 7F000000 		.4byte	.LASF49
 366 028a 05       		.byte	0x5
 367 028b 85       		.byte	0x85
 368 028c 1A       		.byte	0x1a
 369 028d 32020000 		.4byte	0x232
 370 0291 04       		.byte	0x4
 371 0292 00       		.byte	0
 372 0293 04       		.uleb128 0x4
 373 0294 00000000 		.4byte	.LASF50
 374 0298 04       		.byte	0x4
 375 0299 4C       		.byte	0x4c
 376 029a 1E       		.byte	0x1e
 377 029b 9F020000 		.4byte	0x29f
 378 029f 0B       		.uleb128 0xb
 379 02a0 B6020000 		.4byte	.LASF51
 380 02a4 1C       		.byte	0x1c
 381 02a5 05       		.byte	0x5
 382 02a6 5E01     		.2byte	0x15e
 383 02a8 08       		.byte	0x8
 384 02a9 02030000 		.4byte	0x302
 385 02ad 09       		.uleb128 0x9
 386 02ae BA010000 		.4byte	.LASF27
 387 02b2 05       		.byte	0x5
 388 02b3 5F01     		.2byte	0x15f
 389 02b5 19       		.byte	0x19
 390 02b6 5F020000 		.4byte	0x25f
 391 02ba 00       		.byte	0
 392 02bb 09       		.uleb128 0x9
 393 02bc 29040000 		.4byte	.LASF28
 394 02c0 05       		.byte	0x5
 395 02c1 6001     		.2byte	0x160
 396 02c3 19       		.byte	0x19
 397 02c4 FA000000 		.4byte	0xfa
 398 02c8 08       		.byte	0x8
 399 02c9 08       		.uleb128 0x8
ARM GAS  /tmp/cckdeSuD.s 			page 8


 400 02ca 63747800 		.ascii	"ctx\000"
 401 02ce 05       		.byte	0x5
 402 02cf 6201     		.2byte	0x162
 403 02d1 19       		.byte	0x19
 404 02d2 08050000 		.4byte	0x508
 405 02d6 0C       		.byte	0xc
 406 02d7 09       		.uleb128 0x9
 407 02d8 C0030000 		.4byte	.LASF29
 408 02dc 05       		.byte	0x5
 409 02dd 6501     		.2byte	0x165
 410 02df 1A       		.byte	0x1a
 411 02e0 32020000 		.4byte	0x232
 412 02e4 10       		.byte	0x10
 413 02e5 09       		.uleb128 0x9
 414 02e6 2D050000 		.4byte	.LASF30
 415 02ea 05       		.byte	0x5
 416 02eb 6601     		.2byte	0x166
 417 02ed 1A       		.byte	0x1a
 418 02ee 32020000 		.4byte	0x232
 419 02f2 14       		.byte	0x14
 420 02f3 09       		.uleb128 0x9
 421 02f4 2E040000 		.4byte	.LASF52
 422 02f8 05       		.byte	0x5
 423 02f9 6901     		.2byte	0x169
 424 02fb 1A       		.byte	0x1a
 425 02fc 32020000 		.4byte	0x232
 426 0300 18       		.byte	0x18
 427 0301 00       		.byte	0
 428 0302 04       		.uleb128 0x4
 429 0303 6A050000 		.4byte	.LASF53
 430 0307 04       		.byte	0x4
 431 0308 51       		.byte	0x51
 432 0309 10       		.byte	0x10
 433 030a 0E030000 		.4byte	0x30e
 434 030e 0A       		.uleb128 0xa
 435 030f 04       		.byte	0x4
 436 0310 14030000 		.4byte	0x314
 437 0314 0C       		.uleb128 0xc
 438 0315 1F030000 		.4byte	0x31f
 439 0319 0D       		.uleb128 0xd
 440 031a 1F030000 		.4byte	0x31f
 441 031e 00       		.byte	0
 442 031f 0E       		.uleb128 0xe
 443 0320 04       		.byte	0x4
 444 0321 04       		.uleb128 0x4
 445 0322 4E040000 		.4byte	.LASF54
 446 0326 04       		.byte	0x4
 447 0327 56       		.byte	0x56
 448 0328 21       		.byte	0x21
 449 0329 2D030000 		.4byte	0x32d
 450 032d 0B       		.uleb128 0xb
 451 032e D1040000 		.4byte	.LASF55
 452 0332 14       		.byte	0x14
 453 0333 05       		.byte	0x5
 454 0334 3901     		.2byte	0x139
 455 0336 08       		.byte	0x8
 456 0337 82030000 		.4byte	0x382
ARM GAS  /tmp/cckdeSuD.s 			page 9


 457 033b 09       		.uleb128 0x9
 458 033c 0B010000 		.4byte	.LASF46
 459 0340 05       		.byte	0x5
 460 0341 3A01     		.2byte	0x13a
 461 0343 1A       		.byte	0x1a
 462 0344 44060000 		.4byte	0x644
 463 0348 00       		.byte	0
 464 0349 09       		.uleb128 0x9
 465 034a 7F000000 		.4byte	.LASF49
 466 034e 05       		.byte	0x5
 467 034f 3B01     		.2byte	0x13b
 468 0351 1A       		.byte	0x1a
 469 0352 44060000 		.4byte	0x644
 470 0356 04       		.byte	0x4
 471 0357 09       		.uleb128 0x9
 472 0358 2D000000 		.4byte	.LASF56
 473 035c 05       		.byte	0x5
 474 035d 3C01     		.2byte	0x13c
 475 035f 19       		.byte	0x19
 476 0360 6A040000 		.4byte	0x46a
 477 0364 08       		.byte	0x8
 478 0365 09       		.uleb128 0x9
 479 0366 9E010000 		.4byte	.LASF57
 480 036a 05       		.byte	0x5
 481 036b 3D01     		.2byte	0x13d
 482 036d 19       		.byte	0x19
 483 036e 02030000 		.4byte	0x302
 484 0372 0C       		.byte	0xc
 485 0373 08       		.uleb128 0x8
 486 0374 70617200 		.ascii	"par\000"
 487 0378 05       		.byte	0x5
 488 0379 3F01     		.2byte	0x13f
 489 037b 1A       		.byte	0x1a
 490 037c 1F030000 		.4byte	0x31f
 491 0380 10       		.byte	0x10
 492 0381 00       		.byte	0
 493 0382 04       		.uleb128 0x4
 494 0383 9F030000 		.4byte	.LASF58
 495 0387 04       		.byte	0x4
 496 0388 5B       		.byte	0x5b
 497 0389 28       		.byte	0x28
 498 038a 8E030000 		.4byte	0x38e
 499 038e 0B       		.uleb128 0xb
 500 038f EA030000 		.4byte	.LASF59
 501 0393 10       		.byte	0x10
 502 0394 05       		.byte	0x5
 503 0395 4901     		.2byte	0x149
 504 0397 08       		.byte	0x8
 505 0398 D5030000 		.4byte	0x3d5
 506 039c 09       		.uleb128 0x9
 507 039d 0B010000 		.4byte	.LASF46
 508 03a1 05       		.byte	0x5
 509 03a2 4A01     		.2byte	0x14a
 510 03a4 1A       		.byte	0x1a
 511 03a5 44060000 		.4byte	0x644
 512 03a9 00       		.byte	0
 513 03aa 09       		.uleb128 0x9
ARM GAS  /tmp/cckdeSuD.s 			page 10


 514 03ab 7F000000 		.4byte	.LASF49
 515 03af 05       		.byte	0x5
 516 03b0 4C01     		.2byte	0x14c
 517 03b2 1A       		.byte	0x1a
 518 03b3 44060000 		.4byte	0x644
 519 03b7 04       		.byte	0x4
 520 03b8 09       		.uleb128 0x9
 521 03b9 2D000000 		.4byte	.LASF56
 522 03bd 05       		.byte	0x5
 523 03be 4E01     		.2byte	0x14e
 524 03c0 19       		.byte	0x19
 525 03c1 6A040000 		.4byte	0x46a
 526 03c5 08       		.byte	0x8
 527 03c6 09       		.uleb128 0x9
 528 03c7 9C040000 		.4byte	.LASF60
 529 03cb 05       		.byte	0x5
 530 03cc 5601     		.2byte	0x156
 531 03ce 19       		.byte	0x19
 532 03cf 5E040000 		.4byte	0x45e
 533 03d3 0C       		.byte	0xc
 534 03d4 00       		.byte	0
 535 03d5 04       		.uleb128 0x4
 536 03d6 90000000 		.4byte	.LASF61
 537 03da 04       		.byte	0x4
 538 03db 60       		.byte	0x60
 539 03dc 20       		.byte	0x20
 540 03dd E1030000 		.4byte	0x3e1
 541 03e1 0B       		.uleb128 0xb
 542 03e2 66040000 		.4byte	.LASF62
 543 03e6 04       		.byte	0x4
 544 03e7 05       		.byte	0x5
 545 03e8 7001     		.2byte	0x170
 546 03ea 08       		.byte	0x8
 547 03eb FE030000 		.4byte	0x3fe
 548 03ef 09       		.uleb128 0x9
 549 03f0 8B050000 		.4byte	.LASF63
 550 03f4 05       		.byte	0x5
 551 03f5 7801     		.2byte	0x178
 552 03f7 24       		.byte	0x24
 553 03f8 2D060000 		.4byte	0x62d
 554 03fc 00       		.byte	0
 555 03fd 00       		.byte	0
 556 03fe 04       		.uleb128 0x4
 557 03ff A2020000 		.4byte	.LASF64
 558 0403 04       		.byte	0x4
 559 0404 65       		.byte	0x65
 560 0405 1A       		.byte	0x1a
 561 0406 0A040000 		.4byte	0x40a
 562 040a 0B       		.uleb128 0xb
 563 040b AC040000 		.4byte	.LASF65
 564 040f 78       		.byte	0x78
 565 0410 05       		.byte	0x5
 566 0411 9001     		.2byte	0x190
 567 0413 08       		.byte	0x8
 568 0414 5E040000 		.4byte	0x45e
 569 0418 09       		.uleb128 0x9
 570 0419 B5050000 		.4byte	.LASF66
ARM GAS  /tmp/cckdeSuD.s 			page 11


 571 041d 05       		.byte	0x5
 572 041e 9401     		.2byte	0x194
 573 0420 19       		.byte	0x19
 574 0421 93020000 		.4byte	0x293
 575 0425 00       		.byte	0
 576 0426 09       		.uleb128 0x9
 577 0427 6A010000 		.4byte	.LASF67
 578 042b 05       		.byte	0x5
 579 042c 9801     		.2byte	0x198
 580 042e 19       		.byte	0x19
 581 042f 82030000 		.4byte	0x382
 582 0433 1C       		.byte	0x1c
 583 0434 08       		.uleb128 0x8
 584 0435 64626700 		.ascii	"dbg\000"
 585 0439 05       		.byte	0x5
 586 043a 9C01     		.2byte	0x19c
 587 043c 19       		.byte	0x19
 588 043d D5030000 		.4byte	0x3d5
 589 0441 2C       		.byte	0x2c
 590 0442 09       		.uleb128 0x9
 591 0443 E7000000 		.4byte	.LASF68
 592 0447 05       		.byte	0x5
 593 0448 A001     		.2byte	0x1a0
 594 044a 19       		.byte	0x19
 595 044b 2A010000 		.4byte	0x12a
 596 044f 30       		.byte	0x30
 597 0450 08       		.uleb128 0x8
 598 0451 746D00   		.ascii	"tm\000"
 599 0454 05       		.byte	0x5
 600 0455 A501     		.2byte	0x1a5
 601 0457 19       		.byte	0x19
 602 0458 41050000 		.4byte	0x541
 603 045c 74       		.byte	0x74
 604 045d 00       		.byte	0
 605 045e 04       		.uleb128 0x4
 606 045f 60050000 		.4byte	.LASF69
 607 0463 06       		.byte	0x6
 608 0464 6D       		.byte	0x6d
 609 0465 12       		.byte	0x12
 610 0466 B2000000 		.4byte	0xb2
 611 046a 04       		.uleb128 0x4
 612 046b 08020000 		.4byte	.LASF70
 613 046f 06       		.byte	0x6
 614 0470 79       		.byte	0x79
 615 0471 12       		.byte	0x12
 616 0472 B2000000 		.4byte	0xb2
 617 0476 04       		.uleb128 0x4
 618 0477 B5030000 		.4byte	.LASF71
 619 047b 07       		.byte	0x7
 620 047c 68       		.byte	0x68
 621 047d 12       		.byte	0x12
 622 047e BE000000 		.4byte	0xbe
 623 0482 0B       		.uleb128 0xb
 624 0483 84000000 		.4byte	.LASF72
 625 0487 24       		.byte	0x24
 626 0488 08       		.byte	0x8
 627 0489 8501     		.2byte	0x185
ARM GAS  /tmp/cckdeSuD.s 			page 12


 628 048b 08       		.byte	0x8
 629 048c 08050000 		.4byte	0x508
 630 0490 08       		.uleb128 0x8
 631 0491 723400   		.ascii	"r4\000"
 632 0494 08       		.byte	0x8
 633 0495 9E01     		.2byte	0x19e
 634 0497 11       		.byte	0x11
 635 0498 B2000000 		.4byte	0xb2
 636 049c 00       		.byte	0
 637 049d 08       		.uleb128 0x8
 638 049e 723500   		.ascii	"r5\000"
 639 04a1 08       		.byte	0x8
 640 04a2 9F01     		.2byte	0x19f
 641 04a4 11       		.byte	0x11
 642 04a5 B2000000 		.4byte	0xb2
 643 04a9 04       		.byte	0x4
 644 04aa 08       		.uleb128 0x8
 645 04ab 723600   		.ascii	"r6\000"
 646 04ae 08       		.byte	0x8
 647 04af A001     		.2byte	0x1a0
 648 04b1 11       		.byte	0x11
 649 04b2 B2000000 		.4byte	0xb2
 650 04b6 08       		.byte	0x8
 651 04b7 08       		.uleb128 0x8
 652 04b8 723700   		.ascii	"r7\000"
 653 04bb 08       		.byte	0x8
 654 04bc A101     		.2byte	0x1a1
 655 04be 11       		.byte	0x11
 656 04bf B2000000 		.4byte	0xb2
 657 04c3 0C       		.byte	0xc
 658 04c4 08       		.uleb128 0x8
 659 04c5 723800   		.ascii	"r8\000"
 660 04c8 08       		.byte	0x8
 661 04c9 A201     		.2byte	0x1a2
 662 04cb 11       		.byte	0x11
 663 04cc B2000000 		.4byte	0xb2
 664 04d0 10       		.byte	0x10
 665 04d1 08       		.uleb128 0x8
 666 04d2 723900   		.ascii	"r9\000"
 667 04d5 08       		.byte	0x8
 668 04d6 A301     		.2byte	0x1a3
 669 04d8 11       		.byte	0x11
 670 04d9 B2000000 		.4byte	0xb2
 671 04dd 14       		.byte	0x14
 672 04de 08       		.uleb128 0x8
 673 04df 72313000 		.ascii	"r10\000"
 674 04e3 08       		.byte	0x8
 675 04e4 A401     		.2byte	0x1a4
 676 04e6 11       		.byte	0x11
 677 04e7 B2000000 		.4byte	0xb2
 678 04eb 18       		.byte	0x18
 679 04ec 08       		.uleb128 0x8
 680 04ed 72313100 		.ascii	"r11\000"
 681 04f1 08       		.byte	0x8
 682 04f2 A501     		.2byte	0x1a5
 683 04f4 11       		.byte	0x11
 684 04f5 B2000000 		.4byte	0xb2
ARM GAS  /tmp/cckdeSuD.s 			page 13


 685 04f9 1C       		.byte	0x1c
 686 04fa 08       		.uleb128 0x8
 687 04fb 6C7200   		.ascii	"lr\000"
 688 04fe 08       		.byte	0x8
 689 04ff A601     		.2byte	0x1a6
 690 0501 11       		.byte	0x11
 691 0502 B2000000 		.4byte	0xb2
 692 0506 20       		.byte	0x20
 693 0507 00       		.byte	0
 694 0508 0B       		.uleb128 0xb
 695 0509 0B040000 		.4byte	.LASF73
 696 050d 04       		.byte	0x4
 697 050e 08       		.byte	0x8
 698 050f A901     		.2byte	0x1a9
 699 0511 08       		.byte	0x8
 700 0512 24050000 		.4byte	0x524
 701 0516 08       		.uleb128 0x8
 702 0517 737000   		.ascii	"sp\000"
 703 051a 08       		.byte	0x8
 704 051b AA01     		.2byte	0x1aa
 705 051d 1A       		.byte	0x1a
 706 051e 24050000 		.4byte	0x524
 707 0522 00       		.byte	0
 708 0523 00       		.byte	0
 709 0524 0A       		.uleb128 0xa
 710 0525 04       		.byte	0x4
 711 0526 82040000 		.4byte	0x482
 712 052a 0F       		.uleb128 0xf
 713 052b 04       		.byte	0x4
 714 052c 09       		.byte	0x9
 715 052d 38       		.byte	0x38
 716 052e 09       		.byte	0x9
 717 052f 41050000 		.4byte	0x541
 718 0533 06       		.uleb128 0x6
 719 0534 95050000 		.4byte	.LASF74
 720 0538 09       		.byte	0x9
 721 0539 3C       		.byte	0x3c
 722 053a 19       		.byte	0x19
 723 053b CA000000 		.4byte	0xca
 724 053f 00       		.byte	0
 725 0540 00       		.byte	0
 726 0541 04       		.uleb128 0x4
 727 0542 18040000 		.4byte	.LASF75
 728 0546 09       		.byte	0x9
 729 0547 3D       		.byte	0x3d
 730 0548 03       		.byte	0x3
 731 0549 2A050000 		.4byte	0x52a
 732 054d 10       		.uleb128 0x10
 733 054e 04       		.byte	0x4
 734 054f 05       		.byte	0x5
 735 0550 C6       		.byte	0xc6
 736 0551 03       		.byte	0x3
 737 0552 B8050000 		.4byte	0x5b8
 738 0556 11       		.uleb128 0x11
 739 0557 CA040000 		.4byte	.LASF76
 740 055b 05       		.byte	0x5
 741 055c CD       		.byte	0xcd
ARM GAS  /tmp/cckdeSuD.s 			page 14


 742 055d 19       		.byte	0x19
 743 055e 06010000 		.4byte	0x106
 744 0562 11       		.uleb128 0x11
 745 0563 DE000000 		.4byte	.LASF77
 746 0567 05       		.byte	0x5
 747 0568 D4       		.byte	0xd4
 748 0569 19       		.byte	0x19
 749 056a 06010000 		.4byte	0x106
 750 056e 11       		.uleb128 0x11
 751 056f C9050000 		.4byte	.LASF78
 752 0573 05       		.byte	0x5
 753 0574 DB       		.byte	0xdb
 754 0575 1A       		.byte	0x1a
 755 0576 1F030000 		.4byte	0x31f
 756 057a 11       		.uleb128 0x11
 757 057b 27000000 		.4byte	.LASF79
 758 057f 05       		.byte	0x5
 759 0580 E2       		.byte	0xe2
 760 0581 1A       		.byte	0x1a
 761 0582 B8050000 		.4byte	0x5b8
 762 0586 11       		.uleb128 0x11
 763 0587 F2000000 		.4byte	.LASF80
 764 058b 05       		.byte	0x5
 765 058c E7       		.byte	0xe7
 766 058d 19       		.byte	0x19
 767 058e 06010000 		.4byte	0x106
 768 0592 11       		.uleb128 0x11
 769 0593 4A020000 		.4byte	.LASF81
 770 0597 05       		.byte	0x5
 771 0598 F0       		.byte	0xf0
 772 0599 1A       		.byte	0x1a
 773 059a E6050000 		.4byte	0x5e6
 774 059e 11       		.uleb128 0x11
 775 059f F8040000 		.4byte	.LASF82
 776 05a3 05       		.byte	0x5
 777 05a4 F9       		.byte	0xf9
 778 05a5 1A       		.byte	0x1a
 779 05a6 21060000 		.4byte	0x621
 780 05aa 12       		.uleb128 0x12
 781 05ab A5040000 		.4byte	.LASF83
 782 05af 05       		.byte	0x5
 783 05b0 0101     		.2byte	0x101
 784 05b2 19       		.byte	0x19
 785 05b3 12010000 		.4byte	0x112
 786 05b7 00       		.byte	0
 787 05b8 0A       		.uleb128 0xa
 788 05b9 04       		.byte	0x4
 789 05ba 26020000 		.4byte	0x226
 790 05be 05       		.uleb128 0x5
 791 05bf E2040000 		.4byte	.LASF84
 792 05c3 0C       		.byte	0xc
 793 05c4 0A       		.byte	0xa
 794 05c5 34       		.byte	0x34
 795 05c6 10       		.byte	0x10
 796 05c7 E6050000 		.4byte	0x5e6
 797 05cb 06       		.uleb128 0x6
 798 05cc BA010000 		.4byte	.LASF27
ARM GAS  /tmp/cckdeSuD.s 			page 15


 799 05d0 0A       		.byte	0xa
 800 05d1 35       		.byte	0x35
 801 05d2 19       		.byte	0x19
 802 05d3 5F020000 		.4byte	0x25f
 803 05d7 00       		.byte	0
 804 05d8 07       		.uleb128 0x7
 805 05d9 636E7400 		.ascii	"cnt\000"
 806 05dd 0A       		.byte	0xa
 807 05de 37       		.byte	0x37
 808 05df 19       		.byte	0x19
 809 05e0 1E010000 		.4byte	0x11e
 810 05e4 08       		.byte	0x8
 811 05e5 00       		.byte	0
 812 05e6 0A       		.uleb128 0xa
 813 05e7 04       		.byte	0x4
 814 05e8 BE050000 		.4byte	0x5be
 815 05ec 05       		.uleb128 0x5
 816 05ed AC050000 		.4byte	.LASF85
 817 05f1 10       		.byte	0x10
 818 05f2 0B       		.byte	0xb
 819 05f3 39       		.byte	0x39
 820 05f4 08       		.byte	0x8
 821 05f5 21060000 		.4byte	0x621
 822 05f9 06       		.uleb128 0x6
 823 05fa BA010000 		.4byte	.LASF27
 824 05fe 0B       		.byte	0xb
 825 05ff 3A       		.byte	0x3a
 826 0600 19       		.byte	0x19
 827 0601 5F020000 		.4byte	0x25f
 828 0605 00       		.byte	0
 829 0606 06       		.uleb128 0x6
 830 0607 0F050000 		.4byte	.LASF86
 831 060b 0B       		.byte	0xb
 832 060c 3C       		.byte	0x3c
 833 060d 1A       		.byte	0x1a
 834 060e 32020000 		.4byte	0x232
 835 0612 08       		.byte	0x8
 836 0613 06       		.uleb128 0x6
 837 0614 0B010000 		.4byte	.LASF46
 838 0618 0B       		.byte	0xb
 839 0619 3E       		.byte	0x3e
 840 061a 1A       		.byte	0x1a
 841 061b 6E060000 		.4byte	0x66e
 842 061f 0C       		.byte	0xc
 843 0620 00       		.byte	0
 844 0621 0A       		.uleb128 0xa
 845 0622 04       		.byte	0x4
 846 0623 EC050000 		.4byte	0x5ec
 847 0627 0A       		.uleb128 0xa
 848 0628 04       		.byte	0x4
 849 0629 39060000 		.4byte	0x639
 850 062d 13       		.uleb128 0x13
 851 062e 27060000 		.4byte	0x627
 852 0632 03       		.uleb128 0x3
 853 0633 01       		.byte	0x1
 854 0634 08       		.byte	0x8
 855 0635 28050000 		.4byte	.LASF87
ARM GAS  /tmp/cckdeSuD.s 			page 16


 856 0639 14       		.uleb128 0x14
 857 063a 32060000 		.4byte	0x632
 858 063e 0A       		.uleb128 0xa
 859 063f 04       		.byte	0x4
 860 0640 76040000 		.4byte	0x476
 861 0644 0A       		.uleb128 0xa
 862 0645 04       		.byte	0x4
 863 0646 21030000 		.4byte	0x321
 864 064a 15       		.uleb128 0x15
 865 064b 636800   		.ascii	"ch\000"
 866 064e 05       		.byte	0x5
 867 064f C701     		.2byte	0x1c7
 868 0651 14       		.byte	0x14
 869 0652 FE030000 		.4byte	0x3fe
 870 0656 04       		.uleb128 0x4
 871 0657 D2000000 		.4byte	.LASF88
 872 065b 0A       		.byte	0xa
 873 065c 38       		.byte	0x38
 874 065d 03       		.byte	0x3
 875 065e BE050000 		.4byte	0x5be
 876 0662 04       		.uleb128 0x4
 877 0663 00020000 		.4byte	.LASF89
 878 0667 0B       		.byte	0xb
 879 0668 34       		.byte	0x34
 880 0669 19       		.byte	0x19
 881 066a EC050000 		.4byte	0x5ec
 882 066e 0A       		.uleb128 0xa
 883 066f 04       		.byte	0x4
 884 0670 62060000 		.4byte	0x662
 885 0674 03       		.uleb128 0x3
 886 0675 01       		.byte	0x1
 887 0676 02       		.byte	0x2
 888 0677 76040000 		.4byte	.LASF90
 889 067b 16       		.uleb128 0x16
 890 067c 3B010000 		.4byte	.LASF95
 891 0680 0C       		.byte	0xc
 892 0681 7A01     		.2byte	0x17a
 893 0683 07       		.byte	0x7
 894 0684 06010000 		.4byte	0x106
 895 0688 CC060000 		.4byte	0x6cc
 896 068c 17       		.uleb128 0x17
 897 068d 73707300 		.ascii	"sps\000"
 898 0691 0C       		.byte	0xc
 899 0692 7A01     		.2byte	0x17a
 900 0694 24       		.byte	0x24
 901 0695 CC060000 		.4byte	0x6cc
 902 0699 17       		.uleb128 0x17
 903 069a 73707700 		.ascii	"spw\000"
 904 069e 0C       		.byte	0xc
 905 069f 7A01     		.2byte	0x17a
 906 06a1 36       		.byte	0x36
 907 06a2 CC060000 		.4byte	0x6cc
 908 06a6 18       		.uleb128 0x18
 909 06a7 6D736700 		.ascii	"msg\000"
 910 06ab 0C       		.byte	0xc
 911 06ac 7B01     		.2byte	0x17b
 912 06ae 09       		.byte	0x9
ARM GAS  /tmp/cckdeSuD.s 			page 17


 913 06af 06010000 		.4byte	0x106
 914 06b3 19       		.uleb128 0x19
 915 06b4 B6040000 		.4byte	.LASF91
 916 06b8 E2060000 		.4byte	0x6e2
 917 06bc 1A       		.uleb128 0x1a
 918 06bd 18       		.uleb128 0x18
 919 06be 63747000 		.ascii	"ctp\000"
 920 06c2 0C       		.byte	0xc
 921 06c3 8A01     		.2byte	0x18a
 922 06c5 0F       		.byte	0xf
 923 06c6 32020000 		.4byte	0x232
 924 06ca 00       		.byte	0
 925 06cb 00       		.byte	0
 926 06cc 0A       		.uleb128 0xa
 927 06cd 04       		.byte	0x4
 928 06ce 56060000 		.4byte	0x656
 929 06d2 1B       		.uleb128 0x1b
 930 06d3 39060000 		.4byte	0x639
 931 06d7 E2060000 		.4byte	0x6e2
 932 06db 1C       		.uleb128 0x1c
 933 06dc 24000000 		.4byte	0x24
 934 06e0 0F       		.byte	0xf
 935 06e1 00       		.byte	0
 936 06e2 14       		.uleb128 0x14
 937 06e3 D2060000 		.4byte	0x6d2
 938 06e7 1D       		.uleb128 0x1d
 939 06e8 FA000000 		.4byte	.LASF92
 940 06ec 0C       		.byte	0xc
 941 06ed 5D01     		.2byte	0x15d
 942 06ef 06       		.byte	0x6
 943 06f0 15070000 		.4byte	0x715
 944 06f4 17       		.uleb128 0x17
 945 06f5 737000   		.ascii	"sp\000"
 946 06f8 0C       		.byte	0xc
 947 06f9 5D01     		.2byte	0x15d
 948 06fb 24       		.byte	0x24
 949 06fc CC060000 		.4byte	0x6cc
 950 0700 17       		.uleb128 0x17
 951 0701 6E00     		.ascii	"n\000"
 952 0703 0C       		.byte	0xc
 953 0704 5D01     		.2byte	0x15d
 954 0706 2E       		.byte	0x2e
 955 0707 1E010000 		.4byte	0x11e
 956 070b 19       		.uleb128 0x19
 957 070c B6040000 		.4byte	.LASF91
 958 0710 25070000 		.4byte	0x725
 959 0714 00       		.byte	0
 960 0715 1B       		.uleb128 0x1b
 961 0716 39060000 		.4byte	0x639
 962 071a 25070000 		.4byte	0x725
 963 071e 1C       		.uleb128 0x1c
 964 071f 24000000 		.4byte	0x24
 965 0723 10       		.byte	0x10
 966 0724 00       		.byte	0
 967 0725 14       		.uleb128 0x14
 968 0726 15070000 		.4byte	0x715
 969 072a 1D       		.uleb128 0x1d
ARM GAS  /tmp/cckdeSuD.s 			page 18


 970 072b 1A000000 		.4byte	.LASF93
 971 072f 0C       		.byte	0xc
 972 0730 3F01     		.2byte	0x13f
 973 0732 06       		.byte	0x6
 974 0733 5B070000 		.4byte	0x75b
 975 0737 17       		.uleb128 0x17
 976 0738 737000   		.ascii	"sp\000"
 977 073b 0C       		.byte	0xc
 978 073c 3F01     		.2byte	0x13f
 979 073e 20       		.byte	0x20
 980 073f CC060000 		.4byte	0x6cc
 981 0743 19       		.uleb128 0x19
 982 0744 B6040000 		.4byte	.LASF91
 983 0748 6B070000 		.4byte	0x76b
 984 074c 1A       		.uleb128 0x1a
 985 074d 18       		.uleb128 0x18
 986 074e 747000   		.ascii	"tp\000"
 987 0751 0C       		.byte	0xc
 988 0752 4A01     		.2byte	0x14a
 989 0754 0F       		.byte	0xf
 990 0755 32020000 		.4byte	0x232
 991 0759 00       		.byte	0
 992 075a 00       		.byte	0
 993 075b 1B       		.uleb128 0x1b
 994 075c 39060000 		.4byte	0x639
 995 0760 6B070000 		.4byte	0x76b
 996 0764 1C       		.uleb128 0x1c
 997 0765 24000000 		.4byte	0x24
 998 0769 0C       		.byte	0xc
 999 076a 00       		.byte	0
 1000 076b 14       		.uleb128 0x14
 1001 076c 5B070000 		.4byte	0x75b
 1002 0770 1D       		.uleb128 0x1d
 1003 0771 C6000000 		.4byte	.LASF94
 1004 0775 0C       		.byte	0xc
 1005 0776 2601     		.2byte	0x126
 1006 0778 06       		.byte	0x6
 1007 0779 93070000 		.4byte	0x793
 1008 077d 17       		.uleb128 0x17
 1009 077e 737000   		.ascii	"sp\000"
 1010 0781 0C       		.byte	0xc
 1011 0782 2601     		.2byte	0x126
 1012 0784 1F       		.byte	0x1f
 1013 0785 CC060000 		.4byte	0x6cc
 1014 0789 19       		.uleb128 0x19
 1015 078a B6040000 		.4byte	.LASF91
 1016 078e A3070000 		.4byte	0x7a3
 1017 0792 00       		.byte	0
 1018 0793 1B       		.uleb128 0x1b
 1019 0794 39060000 		.4byte	0x639
 1020 0798 A3070000 		.4byte	0x7a3
 1021 079c 1C       		.uleb128 0x1c
 1022 079d 24000000 		.4byte	0x24
 1023 07a1 0B       		.byte	0xb
 1024 07a2 00       		.byte	0
 1025 07a3 14       		.uleb128 0x14
 1026 07a4 93070000 		.4byte	0x793
ARM GAS  /tmp/cckdeSuD.s 			page 19


 1027 07a8 16       		.uleb128 0x16
 1028 07a9 33050000 		.4byte	.LASF96
 1029 07ad 0C       		.byte	0xc
 1030 07ae 0801     		.2byte	0x108
 1031 07b0 07       		.byte	0x7
 1032 07b1 06010000 		.4byte	0x106
 1033 07b5 DC070000 		.4byte	0x7dc
 1034 07b9 17       		.uleb128 0x17
 1035 07ba 737000   		.ascii	"sp\000"
 1036 07bd 0C       		.byte	0xc
 1037 07be 0801     		.2byte	0x108
 1038 07c0 26       		.byte	0x26
 1039 07c1 CC060000 		.4byte	0x6cc
 1040 07c5 1E       		.uleb128 0x1e
 1041 07c6 63020000 		.4byte	.LASF97
 1042 07ca 0C       		.byte	0xc
 1043 07cb 0801     		.2byte	0x108
 1044 07cd 38       		.byte	0x38
 1045 07ce 6A040000 		.4byte	0x46a
 1046 07d2 19       		.uleb128 0x19
 1047 07d3 B6040000 		.4byte	.LASF91
 1048 07d7 EC070000 		.4byte	0x7ec
 1049 07db 00       		.byte	0
 1050 07dc 1B       		.uleb128 0x1b
 1051 07dd 39060000 		.4byte	0x639
 1052 07e1 EC070000 		.4byte	0x7ec
 1053 07e5 1C       		.uleb128 0x1c
 1054 07e6 24000000 		.4byte	0x24
 1055 07ea 11       		.byte	0x11
 1056 07eb 00       		.byte	0
 1057 07ec 14       		.uleb128 0x14
 1058 07ed DC070000 		.4byte	0x7dc
 1059 07f1 1F       		.uleb128 0x1f
 1060 07f2 39020000 		.4byte	.LASF98
 1061 07f6 0C       		.byte	0xc
 1062 07f7 EB       		.byte	0xeb
 1063 07f8 07       		.byte	0x7
 1064 07f9 06010000 		.4byte	0x106
 1065 07fd 25080000 		.4byte	0x825
 1066 0801 20       		.uleb128 0x20
 1067 0802 737000   		.ascii	"sp\000"
 1068 0805 0C       		.byte	0xc
 1069 0806 EB       		.byte	0xeb
 1070 0807 25       		.byte	0x25
 1071 0808 CC060000 		.4byte	0x6cc
 1072 080c 21       		.uleb128 0x21
 1073 080d 63020000 		.4byte	.LASF97
 1074 0811 0C       		.byte	0xc
 1075 0812 EB       		.byte	0xeb
 1076 0813 37       		.byte	0x37
 1077 0814 6A040000 		.4byte	0x46a
 1078 0818 22       		.uleb128 0x22
 1079 0819 6D736700 		.ascii	"msg\000"
 1080 081d 0C       		.byte	0xc
 1081 081e EC       		.byte	0xec
 1082 081f 09       		.byte	0x9
 1083 0820 06010000 		.4byte	0x106
ARM GAS  /tmp/cckdeSuD.s 			page 20


 1084 0824 00       		.byte	0
 1085 0825 1F       		.uleb128 0x1f
 1086 0826 BF040000 		.4byte	.LASF99
 1087 082a 0C       		.byte	0xc
 1088 082b C5       		.byte	0xc5
 1089 082c 07       		.byte	0x7
 1090 082d 06010000 		.4byte	0x106
 1091 0831 4A080000 		.4byte	0x84a
 1092 0835 20       		.uleb128 0x20
 1093 0836 737000   		.ascii	"sp\000"
 1094 0839 0C       		.byte	0xc
 1095 083a C5       		.byte	0xc5
 1096 083b 1F       		.byte	0x1f
 1097 083c CC060000 		.4byte	0x6cc
 1098 0840 19       		.uleb128 0x19
 1099 0841 B6040000 		.4byte	.LASF91
 1100 0845 5A080000 		.4byte	0x85a
 1101 0849 00       		.byte	0
 1102 084a 1B       		.uleb128 0x1b
 1103 084b 39060000 		.4byte	0x639
 1104 084f 5A080000 		.4byte	0x85a
 1105 0853 1C       		.uleb128 0x1c
 1106 0854 24000000 		.4byte	0x24
 1107 0858 0A       		.byte	0xa
 1108 0859 00       		.byte	0
 1109 085a 14       		.uleb128 0x14
 1110 085b 4A080000 		.4byte	0x84a
 1111 085f 1F       		.uleb128 0x1f
 1112 0860 81050000 		.4byte	.LASF100
 1113 0864 0C       		.byte	0xc
 1114 0865 AF       		.byte	0xaf
 1115 0866 07       		.byte	0x7
 1116 0867 06010000 		.4byte	0x106
 1117 086b 87080000 		.4byte	0x887
 1118 086f 20       		.uleb128 0x20
 1119 0870 737000   		.ascii	"sp\000"
 1120 0873 0C       		.byte	0xc
 1121 0874 AF       		.byte	0xaf
 1122 0875 1E       		.byte	0x1e
 1123 0876 CC060000 		.4byte	0x6cc
 1124 087a 22       		.uleb128 0x22
 1125 087b 6D736700 		.ascii	"msg\000"
 1126 087f 0C       		.byte	0xc
 1127 0880 B0       		.byte	0xb0
 1128 0881 09       		.byte	0x9
 1129 0882 06010000 		.4byte	0x106
 1130 0886 00       		.byte	0
 1131 0887 23       		.uleb128 0x23
 1132 0888 A3010000 		.4byte	.LASF101
 1133 088c 0C       		.byte	0xc
 1134 088d 93       		.byte	0x93
 1135 088e 06       		.byte	0x6
 1136 088f CA080000 		.4byte	0x8ca
 1137 0893 20       		.uleb128 0x20
 1138 0894 737000   		.ascii	"sp\000"
 1139 0897 0C       		.byte	0xc
 1140 0898 93       		.byte	0x93
ARM GAS  /tmp/cckdeSuD.s 			page 21


 1141 0899 2A       		.byte	0x2a
 1142 089a CC060000 		.4byte	0x6cc
 1143 089e 20       		.uleb128 0x20
 1144 089f 6E00     		.ascii	"n\000"
 1145 08a1 0C       		.byte	0xc
 1146 08a2 93       		.byte	0x93
 1147 08a3 34       		.byte	0x34
 1148 08a4 1E010000 		.4byte	0x11e
 1149 08a8 20       		.uleb128 0x20
 1150 08a9 6D736700 		.ascii	"msg\000"
 1151 08ad 0C       		.byte	0xc
 1152 08ae 93       		.byte	0x93
 1153 08af 3D       		.byte	0x3d
 1154 08b0 06010000 		.4byte	0x106
 1155 08b4 22       		.uleb128 0x22
 1156 08b5 636E7400 		.ascii	"cnt\000"
 1157 08b9 0C       		.byte	0xc
 1158 08ba 94       		.byte	0x94
 1159 08bb 09       		.byte	0x9
 1160 08bc 1E010000 		.4byte	0x11e
 1161 08c0 19       		.uleb128 0x19
 1162 08c1 B6040000 		.4byte	.LASF91
 1163 08c5 DA080000 		.4byte	0x8da
 1164 08c9 00       		.byte	0
 1165 08ca 1B       		.uleb128 0x1b
 1166 08cb 39060000 		.4byte	0x639
 1167 08cf DA080000 		.4byte	0x8da
 1168 08d3 1C       		.uleb128 0x1c
 1169 08d4 24000000 		.4byte	0x24
 1170 08d8 16       		.byte	0x16
 1171 08d9 00       		.byte	0
 1172 08da 14       		.uleb128 0x14
 1173 08db CA080000 		.4byte	0x8ca
 1174 08df 23       		.uleb128 0x23
 1175 08e0 33000000 		.4byte	.LASF102
 1176 08e4 0C       		.byte	0xc
 1177 08e5 7A       		.byte	0x7a
 1178 08e6 06       		.byte	0x6
 1179 08e7 0D090000 		.4byte	0x90d
 1180 08eb 20       		.uleb128 0x20
 1181 08ec 737000   		.ascii	"sp\000"
 1182 08ef 0C       		.byte	0xc
 1183 08f0 7A       		.byte	0x7a
 1184 08f1 29       		.byte	0x29
 1185 08f2 CC060000 		.4byte	0x6cc
 1186 08f6 20       		.uleb128 0x20
 1187 08f7 6E00     		.ascii	"n\000"
 1188 08f9 0C       		.byte	0xc
 1189 08fa 7A       		.byte	0x7a
 1190 08fb 33       		.byte	0x33
 1191 08fc 1E010000 		.4byte	0x11e
 1192 0900 20       		.uleb128 0x20
 1193 0901 6D736700 		.ascii	"msg\000"
 1194 0905 0C       		.byte	0xc
 1195 0906 7A       		.byte	0x7a
 1196 0907 3C       		.byte	0x3c
 1197 0908 06010000 		.4byte	0x106
ARM GAS  /tmp/cckdeSuD.s 			page 22


 1198 090c 00       		.byte	0
 1199 090d 23       		.uleb128 0x23
 1200 090e 16020000 		.4byte	.LASF103
 1201 0912 0C       		.byte	0xc
 1202 0913 61       		.byte	0x61
 1203 0914 06       		.byte	0x6
 1204 0915 38090000 		.4byte	0x938
 1205 0919 20       		.uleb128 0x20
 1206 091a 737000   		.ascii	"sp\000"
 1207 091d 0C       		.byte	0xc
 1208 091e 61       		.byte	0x61
 1209 091f 23       		.byte	0x23
 1210 0920 CC060000 		.4byte	0x6cc
 1211 0924 20       		.uleb128 0x20
 1212 0925 6E00     		.ascii	"n\000"
 1213 0927 0C       		.byte	0xc
 1214 0928 61       		.byte	0x61
 1215 0929 2D       		.byte	0x2d
 1216 092a 1E010000 		.4byte	0x11e
 1217 092e 19       		.uleb128 0x19
 1218 092f B6040000 		.4byte	.LASF91
 1219 0933 E2060000 		.4byte	0x6e2
 1220 0937 00       		.byte	0
 1221 0938 24       		.uleb128 0x24
 1222 0939 DF050000 		.4byte	.LASF106
 1223 093d 0D       		.byte	0xd
 1224 093e 6D01     		.2byte	0x16d
 1225 0940 14       		.byte	0x14
 1226 0941 4F090000 		.4byte	0x94f
 1227 0945 19       		.uleb128 0x19
 1228 0946 B6040000 		.4byte	.LASF91
 1229 094a A3070000 		.4byte	0x7a3
 1230 094e 00       		.byte	0
 1231 094f 25       		.uleb128 0x25
 1232 0950 01040000 		.4byte	.LASF109
 1233 0954 0D       		.byte	0xd
 1234 0955 6101     		.2byte	0x161
 1235 0957 14       		.byte	0x14
 1236 0958 26       		.uleb128 0x26
 1237 0959 B4000000 		.4byte	.LASF104
 1238 095d 05       		.byte	0x5
 1239 095e 6702     		.2byte	0x267
 1240 0960 19       		.byte	0x19
 1241 0961 32020000 		.4byte	0x232
 1242 0965 83090000 		.4byte	0x983
 1243 0969 17       		.uleb128 0x17
 1244 096a 74717000 		.ascii	"tqp\000"
 1245 096e 05       		.byte	0x5
 1246 096f 6702     		.2byte	0x267
 1247 0971 3C       		.byte	0x3c
 1248 0972 83090000 		.4byte	0x983
 1249 0976 18       		.uleb128 0x18
 1250 0977 747000   		.ascii	"tp\000"
 1251 097a 05       		.byte	0x5
 1252 097b 6802     		.2byte	0x268
 1253 097d 0D       		.byte	0xd
 1254 097e 32020000 		.4byte	0x232
ARM GAS  /tmp/cckdeSuD.s 			page 23


 1255 0982 00       		.byte	0
 1256 0983 0A       		.uleb128 0xa
 1257 0984 04       		.byte	0x4
 1258 0985 5F020000 		.4byte	0x25f
 1259 0989 26       		.uleb128 0x26
 1260 098a 4E050000 		.4byte	.LASF105
 1261 098e 05       		.byte	0x5
 1262 098f 5E02     		.2byte	0x25e
 1263 0991 19       		.byte	0x19
 1264 0992 32020000 		.4byte	0x232
 1265 0996 B4090000 		.4byte	0x9b4
 1266 099a 17       		.uleb128 0x17
 1267 099b 74717000 		.ascii	"tqp\000"
 1268 099f 05       		.byte	0x5
 1269 09a0 5E02     		.2byte	0x25e
 1270 09a2 3C       		.byte	0x3c
 1271 09a3 83090000 		.4byte	0x983
 1272 09a7 18       		.uleb128 0x18
 1273 09a8 747000   		.ascii	"tp\000"
 1274 09ab 05       		.byte	0x5
 1275 09ac 5F02     		.2byte	0x25f
 1276 09ae 0D       		.byte	0xd
 1277 09af 32020000 		.4byte	0x232
 1278 09b3 00       		.byte	0
 1279 09b4 24       		.uleb128 0x24
 1280 09b5 0D000000 		.4byte	.LASF107
 1281 09b9 05       		.byte	0x5
 1282 09ba 5602     		.2byte	0x256
 1283 09bc 14       		.byte	0x14
 1284 09bd DB090000 		.4byte	0x9db
 1285 09c1 17       		.uleb128 0x17
 1286 09c2 747000   		.ascii	"tp\000"
 1287 09c5 05       		.byte	0x5
 1288 09c6 5602     		.2byte	0x256
 1289 09c8 2B       		.byte	0x2b
 1290 09c9 32020000 		.4byte	0x232
 1291 09cd 17       		.uleb128 0x17
 1292 09ce 74717000 		.ascii	"tqp\000"
 1293 09d2 05       		.byte	0x5
 1294 09d3 5602     		.2byte	0x256
 1295 09d5 40       		.byte	0x40
 1296 09d6 83090000 		.4byte	0x983
 1297 09da 00       		.byte	0
 1298 09db 24       		.uleb128 0x24
 1299 09dc 9F000000 		.4byte	.LASF108
 1300 09e0 05       		.byte	0x5
 1301 09e1 1902     		.2byte	0x219
 1302 09e3 14       		.byte	0x14
 1303 09e4 F6090000 		.4byte	0x9f6
 1304 09e8 17       		.uleb128 0x17
 1305 09e9 74717000 		.ascii	"tqp\000"
 1306 09ed 05       		.byte	0x5
 1307 09ee 1902     		.2byte	0x219
 1308 09f0 30       		.byte	0x30
 1309 09f1 83090000 		.4byte	0x983
 1310 09f5 00       		.byte	0
 1311 09f6 25       		.uleb128 0x25
ARM GAS  /tmp/cckdeSuD.s 			page 24


 1312 09f7 71010000 		.4byte	.LASF110
 1313 09fb 08       		.byte	0x8
 1314 09fc B502     		.2byte	0x2b5
 1315 09fe 1B       		.byte	0x1b
 1316 09ff 25       		.uleb128 0x25
 1317 0a00 AA000000 		.4byte	.LASF111
 1318 0a04 08       		.byte	0x8
 1319 0a05 9D02     		.2byte	0x29d
 1320 0a07 1B       		.byte	0x1b
 1321 0a08 27       		.uleb128 0x27
 1322 0a09 73050000 		.4byte	.LASF116
 1323 0a0d 0E       		.byte	0xe
 1324 0a0e EB01     		.2byte	0x1eb
 1325 0a10 1B       		.byte	0x1b
 1326 0a11 1E       		.uleb128 0x1e
 1327 0a12 62010000 		.4byte	.LASF112
 1328 0a16 0E       		.byte	0xe
 1329 0a17 EB01     		.2byte	0x1eb
 1330 0a19 32       		.byte	0x32
 1331 0a1a B2000000 		.4byte	0xb2
 1332 0a1e 00       		.byte	0
 1333 0a1f 00       		.byte	0
 1334              		.section	.gnu.debuglto_.debug_abbrev,"e",%progbits
 1335              	.Ldebug_abbrev0:
 1336 0000 01       		.uleb128 0x1
 1337 0001 11       		.uleb128 0x11
 1338 0002 01       		.byte	0x1
 1339 0003 25       		.uleb128 0x25
 1340 0004 0E       		.uleb128 0xe
 1341 0005 13       		.uleb128 0x13
 1342 0006 0B       		.uleb128 0xb
 1343 0007 03       		.uleb128 0x3
 1344 0008 0E       		.uleb128 0xe
 1345 0009 1B       		.uleb128 0x1b
 1346 000a 0E       		.uleb128 0xe
 1347 000b 10       		.uleb128 0x10
 1348 000c 17       		.uleb128 0x17
 1349 000d 00       		.byte	0
 1350 000e 00       		.byte	0
 1351 000f 02       		.uleb128 0x2
 1352 0010 24       		.uleb128 0x24
 1353 0011 00       		.byte	0
 1354 0012 0B       		.uleb128 0xb
 1355 0013 0B       		.uleb128 0xb
 1356 0014 3E       		.uleb128 0x3e
 1357 0015 0B       		.uleb128 0xb
 1358 0016 03       		.uleb128 0x3
 1359 0017 08       		.uleb128 0x8
 1360 0018 00       		.byte	0
 1361 0019 00       		.byte	0
 1362 001a 03       		.uleb128 0x3
 1363 001b 24       		.uleb128 0x24
 1364 001c 00       		.byte	0
 1365 001d 0B       		.uleb128 0xb
 1366 001e 0B       		.uleb128 0xb
 1367 001f 3E       		.uleb128 0x3e
 1368 0020 0B       		.uleb128 0xb
ARM GAS  /tmp/cckdeSuD.s 			page 25


 1369 0021 03       		.uleb128 0x3
 1370 0022 0E       		.uleb128 0xe
 1371 0023 00       		.byte	0
 1372 0024 00       		.byte	0
 1373 0025 04       		.uleb128 0x4
 1374 0026 16       		.uleb128 0x16
 1375 0027 00       		.byte	0
 1376 0028 03       		.uleb128 0x3
 1377 0029 0E       		.uleb128 0xe
 1378 002a 3A       		.uleb128 0x3a
 1379 002b 0B       		.uleb128 0xb
 1380 002c 3B       		.uleb128 0x3b
 1381 002d 0B       		.uleb128 0xb
 1382 002e 39       		.uleb128 0x39
 1383 002f 0B       		.uleb128 0xb
 1384 0030 49       		.uleb128 0x49
 1385 0031 13       		.uleb128 0x13
 1386 0032 00       		.byte	0
 1387 0033 00       		.byte	0
 1388 0034 05       		.uleb128 0x5
 1389 0035 13       		.uleb128 0x13
 1390 0036 01       		.byte	0x1
 1391 0037 03       		.uleb128 0x3
 1392 0038 0E       		.uleb128 0xe
 1393 0039 0B       		.uleb128 0xb
 1394 003a 0B       		.uleb128 0xb
 1395 003b 3A       		.uleb128 0x3a
 1396 003c 0B       		.uleb128 0xb
 1397 003d 3B       		.uleb128 0x3b
 1398 003e 0B       		.uleb128 0xb
 1399 003f 39       		.uleb128 0x39
 1400 0040 0B       		.uleb128 0xb
 1401 0041 01       		.uleb128 0x1
 1402 0042 13       		.uleb128 0x13
 1403 0043 00       		.byte	0
 1404 0044 00       		.byte	0
 1405 0045 06       		.uleb128 0x6
 1406 0046 0D       		.uleb128 0xd
 1407 0047 00       		.byte	0
 1408 0048 03       		.uleb128 0x3
 1409 0049 0E       		.uleb128 0xe
 1410 004a 3A       		.uleb128 0x3a
 1411 004b 0B       		.uleb128 0xb
 1412 004c 3B       		.uleb128 0x3b
 1413 004d 0B       		.uleb128 0xb
 1414 004e 39       		.uleb128 0x39
 1415 004f 0B       		.uleb128 0xb
 1416 0050 49       		.uleb128 0x49
 1417 0051 13       		.uleb128 0x13
 1418 0052 38       		.uleb128 0x38
 1419 0053 0B       		.uleb128 0xb
 1420 0054 00       		.byte	0
 1421 0055 00       		.byte	0
 1422 0056 07       		.uleb128 0x7
 1423 0057 0D       		.uleb128 0xd
 1424 0058 00       		.byte	0
 1425 0059 03       		.uleb128 0x3
ARM GAS  /tmp/cckdeSuD.s 			page 26


 1426 005a 08       		.uleb128 0x8
 1427 005b 3A       		.uleb128 0x3a
 1428 005c 0B       		.uleb128 0xb
 1429 005d 3B       		.uleb128 0x3b
 1430 005e 0B       		.uleb128 0xb
 1431 005f 39       		.uleb128 0x39
 1432 0060 0B       		.uleb128 0xb
 1433 0061 49       		.uleb128 0x49
 1434 0062 13       		.uleb128 0x13
 1435 0063 38       		.uleb128 0x38
 1436 0064 0B       		.uleb128 0xb
 1437 0065 00       		.byte	0
 1438 0066 00       		.byte	0
 1439 0067 08       		.uleb128 0x8
 1440 0068 0D       		.uleb128 0xd
 1441 0069 00       		.byte	0
 1442 006a 03       		.uleb128 0x3
 1443 006b 08       		.uleb128 0x8
 1444 006c 3A       		.uleb128 0x3a
 1445 006d 0B       		.uleb128 0xb
 1446 006e 3B       		.uleb128 0x3b
 1447 006f 05       		.uleb128 0x5
 1448 0070 39       		.uleb128 0x39
 1449 0071 0B       		.uleb128 0xb
 1450 0072 49       		.uleb128 0x49
 1451 0073 13       		.uleb128 0x13
 1452 0074 38       		.uleb128 0x38
 1453 0075 0B       		.uleb128 0xb
 1454 0076 00       		.byte	0
 1455 0077 00       		.byte	0
 1456 0078 09       		.uleb128 0x9
 1457 0079 0D       		.uleb128 0xd
 1458 007a 00       		.byte	0
 1459 007b 03       		.uleb128 0x3
 1460 007c 0E       		.uleb128 0xe
 1461 007d 3A       		.uleb128 0x3a
 1462 007e 0B       		.uleb128 0xb
 1463 007f 3B       		.uleb128 0x3b
 1464 0080 05       		.uleb128 0x5
 1465 0081 39       		.uleb128 0x39
 1466 0082 0B       		.uleb128 0xb
 1467 0083 49       		.uleb128 0x49
 1468 0084 13       		.uleb128 0x13
 1469 0085 38       		.uleb128 0x38
 1470 0086 0B       		.uleb128 0xb
 1471 0087 00       		.byte	0
 1472 0088 00       		.byte	0
 1473 0089 0A       		.uleb128 0xa
 1474 008a 0F       		.uleb128 0xf
 1475 008b 00       		.byte	0
 1476 008c 0B       		.uleb128 0xb
 1477 008d 0B       		.uleb128 0xb
 1478 008e 49       		.uleb128 0x49
 1479 008f 13       		.uleb128 0x13
 1480 0090 00       		.byte	0
 1481 0091 00       		.byte	0
 1482 0092 0B       		.uleb128 0xb
ARM GAS  /tmp/cckdeSuD.s 			page 27


 1483 0093 13       		.uleb128 0x13
 1484 0094 01       		.byte	0x1
 1485 0095 03       		.uleb128 0x3
 1486 0096 0E       		.uleb128 0xe
 1487 0097 0B       		.uleb128 0xb
 1488 0098 0B       		.uleb128 0xb
 1489 0099 3A       		.uleb128 0x3a
 1490 009a 0B       		.uleb128 0xb
 1491 009b 3B       		.uleb128 0x3b
 1492 009c 05       		.uleb128 0x5
 1493 009d 39       		.uleb128 0x39
 1494 009e 0B       		.uleb128 0xb
 1495 009f 01       		.uleb128 0x1
 1496 00a0 13       		.uleb128 0x13
 1497 00a1 00       		.byte	0
 1498 00a2 00       		.byte	0
 1499 00a3 0C       		.uleb128 0xc
 1500 00a4 15       		.uleb128 0x15
 1501 00a5 01       		.byte	0x1
 1502 00a6 27       		.uleb128 0x27
 1503 00a7 19       		.uleb128 0x19
 1504 00a8 01       		.uleb128 0x1
 1505 00a9 13       		.uleb128 0x13
 1506 00aa 00       		.byte	0
 1507 00ab 00       		.byte	0
 1508 00ac 0D       		.uleb128 0xd
 1509 00ad 05       		.uleb128 0x5
 1510 00ae 00       		.byte	0
 1511 00af 49       		.uleb128 0x49
 1512 00b0 13       		.uleb128 0x13
 1513 00b1 00       		.byte	0
 1514 00b2 00       		.byte	0
 1515 00b3 0E       		.uleb128 0xe
 1516 00b4 0F       		.uleb128 0xf
 1517 00b5 00       		.byte	0
 1518 00b6 0B       		.uleb128 0xb
 1519 00b7 0B       		.uleb128 0xb
 1520 00b8 00       		.byte	0
 1521 00b9 00       		.byte	0
 1522 00ba 0F       		.uleb128 0xf
 1523 00bb 13       		.uleb128 0x13
 1524 00bc 01       		.byte	0x1
 1525 00bd 0B       		.uleb128 0xb
 1526 00be 0B       		.uleb128 0xb
 1527 00bf 3A       		.uleb128 0x3a
 1528 00c0 0B       		.uleb128 0xb
 1529 00c1 3B       		.uleb128 0x3b
 1530 00c2 0B       		.uleb128 0xb
 1531 00c3 39       		.uleb128 0x39
 1532 00c4 0B       		.uleb128 0xb
 1533 00c5 01       		.uleb128 0x1
 1534 00c6 13       		.uleb128 0x13
 1535 00c7 00       		.byte	0
 1536 00c8 00       		.byte	0
 1537 00c9 10       		.uleb128 0x10
 1538 00ca 17       		.uleb128 0x17
 1539 00cb 01       		.byte	0x1
ARM GAS  /tmp/cckdeSuD.s 			page 28


 1540 00cc 0B       		.uleb128 0xb
 1541 00cd 0B       		.uleb128 0xb
 1542 00ce 3A       		.uleb128 0x3a
 1543 00cf 0B       		.uleb128 0xb
 1544 00d0 3B       		.uleb128 0x3b
 1545 00d1 0B       		.uleb128 0xb
 1546 00d2 39       		.uleb128 0x39
 1547 00d3 0B       		.uleb128 0xb
 1548 00d4 01       		.uleb128 0x1
 1549 00d5 13       		.uleb128 0x13
 1550 00d6 00       		.byte	0
 1551 00d7 00       		.byte	0
 1552 00d8 11       		.uleb128 0x11
 1553 00d9 0D       		.uleb128 0xd
 1554 00da 00       		.byte	0
 1555 00db 03       		.uleb128 0x3
 1556 00dc 0E       		.uleb128 0xe
 1557 00dd 3A       		.uleb128 0x3a
 1558 00de 0B       		.uleb128 0xb
 1559 00df 3B       		.uleb128 0x3b
 1560 00e0 0B       		.uleb128 0xb
 1561 00e1 39       		.uleb128 0x39
 1562 00e2 0B       		.uleb128 0xb
 1563 00e3 49       		.uleb128 0x49
 1564 00e4 13       		.uleb128 0x13
 1565 00e5 00       		.byte	0
 1566 00e6 00       		.byte	0
 1567 00e7 12       		.uleb128 0x12
 1568 00e8 0D       		.uleb128 0xd
 1569 00e9 00       		.byte	0
 1570 00ea 03       		.uleb128 0x3
 1571 00eb 0E       		.uleb128 0xe
 1572 00ec 3A       		.uleb128 0x3a
 1573 00ed 0B       		.uleb128 0xb
 1574 00ee 3B       		.uleb128 0x3b
 1575 00ef 05       		.uleb128 0x5
 1576 00f0 39       		.uleb128 0x39
 1577 00f1 0B       		.uleb128 0xb
 1578 00f2 49       		.uleb128 0x49
 1579 00f3 13       		.uleb128 0x13
 1580 00f4 00       		.byte	0
 1581 00f5 00       		.byte	0
 1582 00f6 13       		.uleb128 0x13
 1583 00f7 35       		.uleb128 0x35
 1584 00f8 00       		.byte	0
 1585 00f9 49       		.uleb128 0x49
 1586 00fa 13       		.uleb128 0x13
 1587 00fb 00       		.byte	0
 1588 00fc 00       		.byte	0
 1589 00fd 14       		.uleb128 0x14
 1590 00fe 26       		.uleb128 0x26
 1591 00ff 00       		.byte	0
 1592 0100 49       		.uleb128 0x49
 1593 0101 13       		.uleb128 0x13
 1594 0102 00       		.byte	0
 1595 0103 00       		.byte	0
 1596 0104 15       		.uleb128 0x15
ARM GAS  /tmp/cckdeSuD.s 			page 29


 1597 0105 34       		.uleb128 0x34
 1598 0106 00       		.byte	0
 1599 0107 03       		.uleb128 0x3
 1600 0108 08       		.uleb128 0x8
 1601 0109 3A       		.uleb128 0x3a
 1602 010a 0B       		.uleb128 0xb
 1603 010b 3B       		.uleb128 0x3b
 1604 010c 05       		.uleb128 0x5
 1605 010d 39       		.uleb128 0x39
 1606 010e 0B       		.uleb128 0xb
 1607 010f 49       		.uleb128 0x49
 1608 0110 13       		.uleb128 0x13
 1609 0111 3F       		.uleb128 0x3f
 1610 0112 19       		.uleb128 0x19
 1611 0113 3C       		.uleb128 0x3c
 1612 0114 19       		.uleb128 0x19
 1613 0115 00       		.byte	0
 1614 0116 00       		.byte	0
 1615 0117 16       		.uleb128 0x16
 1616 0118 2E       		.uleb128 0x2e
 1617 0119 01       		.byte	0x1
 1618 011a 3F       		.uleb128 0x3f
 1619 011b 19       		.uleb128 0x19
 1620 011c 03       		.uleb128 0x3
 1621 011d 0E       		.uleb128 0xe
 1622 011e 3A       		.uleb128 0x3a
 1623 011f 0B       		.uleb128 0xb
 1624 0120 3B       		.uleb128 0x3b
 1625 0121 05       		.uleb128 0x5
 1626 0122 39       		.uleb128 0x39
 1627 0123 0B       		.uleb128 0xb
 1628 0124 27       		.uleb128 0x27
 1629 0125 19       		.uleb128 0x19
 1630 0126 49       		.uleb128 0x49
 1631 0127 13       		.uleb128 0x13
 1632 0128 01       		.uleb128 0x1
 1633 0129 13       		.uleb128 0x13
 1634 012a 00       		.byte	0
 1635 012b 00       		.byte	0
 1636 012c 17       		.uleb128 0x17
 1637 012d 05       		.uleb128 0x5
 1638 012e 00       		.byte	0
 1639 012f 03       		.uleb128 0x3
 1640 0130 08       		.uleb128 0x8
 1641 0131 3A       		.uleb128 0x3a
 1642 0132 0B       		.uleb128 0xb
 1643 0133 3B       		.uleb128 0x3b
 1644 0134 05       		.uleb128 0x5
 1645 0135 39       		.uleb128 0x39
 1646 0136 0B       		.uleb128 0xb
 1647 0137 49       		.uleb128 0x49
 1648 0138 13       		.uleb128 0x13
 1649 0139 00       		.byte	0
 1650 013a 00       		.byte	0
 1651 013b 18       		.uleb128 0x18
 1652 013c 34       		.uleb128 0x34
 1653 013d 00       		.byte	0
ARM GAS  /tmp/cckdeSuD.s 			page 30


 1654 013e 03       		.uleb128 0x3
 1655 013f 08       		.uleb128 0x8
 1656 0140 3A       		.uleb128 0x3a
 1657 0141 0B       		.uleb128 0xb
 1658 0142 3B       		.uleb128 0x3b
 1659 0143 05       		.uleb128 0x5
 1660 0144 39       		.uleb128 0x39
 1661 0145 0B       		.uleb128 0xb
 1662 0146 49       		.uleb128 0x49
 1663 0147 13       		.uleb128 0x13
 1664 0148 00       		.byte	0
 1665 0149 00       		.byte	0
 1666 014a 19       		.uleb128 0x19
 1667 014b 34       		.uleb128 0x34
 1668 014c 00       		.byte	0
 1669 014d 03       		.uleb128 0x3
 1670 014e 0E       		.uleb128 0xe
 1671 014f 49       		.uleb128 0x49
 1672 0150 13       		.uleb128 0x13
 1673 0151 34       		.uleb128 0x34
 1674 0152 19       		.uleb128 0x19
 1675 0153 00       		.byte	0
 1676 0154 00       		.byte	0
 1677 0155 1A       		.uleb128 0x1a
 1678 0156 0B       		.uleb128 0xb
 1679 0157 01       		.byte	0x1
 1680 0158 00       		.byte	0
 1681 0159 00       		.byte	0
 1682 015a 1B       		.uleb128 0x1b
 1683 015b 01       		.uleb128 0x1
 1684 015c 01       		.byte	0x1
 1685 015d 49       		.uleb128 0x49
 1686 015e 13       		.uleb128 0x13
 1687 015f 01       		.uleb128 0x1
 1688 0160 13       		.uleb128 0x13
 1689 0161 00       		.byte	0
 1690 0162 00       		.byte	0
 1691 0163 1C       		.uleb128 0x1c
 1692 0164 21       		.uleb128 0x21
 1693 0165 00       		.byte	0
 1694 0166 49       		.uleb128 0x49
 1695 0167 13       		.uleb128 0x13
 1696 0168 2F       		.uleb128 0x2f
 1697 0169 0B       		.uleb128 0xb
 1698 016a 00       		.byte	0
 1699 016b 00       		.byte	0
 1700 016c 1D       		.uleb128 0x1d
 1701 016d 2E       		.uleb128 0x2e
 1702 016e 01       		.byte	0x1
 1703 016f 3F       		.uleb128 0x3f
 1704 0170 19       		.uleb128 0x19
 1705 0171 03       		.uleb128 0x3
 1706 0172 0E       		.uleb128 0xe
 1707 0173 3A       		.uleb128 0x3a
 1708 0174 0B       		.uleb128 0xb
 1709 0175 3B       		.uleb128 0x3b
 1710 0176 05       		.uleb128 0x5
ARM GAS  /tmp/cckdeSuD.s 			page 31


 1711 0177 39       		.uleb128 0x39
 1712 0178 0B       		.uleb128 0xb
 1713 0179 27       		.uleb128 0x27
 1714 017a 19       		.uleb128 0x19
 1715 017b 01       		.uleb128 0x1
 1716 017c 13       		.uleb128 0x13
 1717 017d 00       		.byte	0
 1718 017e 00       		.byte	0
 1719 017f 1E       		.uleb128 0x1e
 1720 0180 05       		.uleb128 0x5
 1721 0181 00       		.byte	0
 1722 0182 03       		.uleb128 0x3
 1723 0183 0E       		.uleb128 0xe
 1724 0184 3A       		.uleb128 0x3a
 1725 0185 0B       		.uleb128 0xb
 1726 0186 3B       		.uleb128 0x3b
 1727 0187 05       		.uleb128 0x5
 1728 0188 39       		.uleb128 0x39
 1729 0189 0B       		.uleb128 0xb
 1730 018a 49       		.uleb128 0x49
 1731 018b 13       		.uleb128 0x13
 1732 018c 00       		.byte	0
 1733 018d 00       		.byte	0
 1734 018e 1F       		.uleb128 0x1f
 1735 018f 2E       		.uleb128 0x2e
 1736 0190 01       		.byte	0x1
 1737 0191 3F       		.uleb128 0x3f
 1738 0192 19       		.uleb128 0x19
 1739 0193 03       		.uleb128 0x3
 1740 0194 0E       		.uleb128 0xe
 1741 0195 3A       		.uleb128 0x3a
 1742 0196 0B       		.uleb128 0xb
 1743 0197 3B       		.uleb128 0x3b
 1744 0198 0B       		.uleb128 0xb
 1745 0199 39       		.uleb128 0x39
 1746 019a 0B       		.uleb128 0xb
 1747 019b 27       		.uleb128 0x27
 1748 019c 19       		.uleb128 0x19
 1749 019d 49       		.uleb128 0x49
 1750 019e 13       		.uleb128 0x13
 1751 019f 01       		.uleb128 0x1
 1752 01a0 13       		.uleb128 0x13
 1753 01a1 00       		.byte	0
 1754 01a2 00       		.byte	0
 1755 01a3 20       		.uleb128 0x20
 1756 01a4 05       		.uleb128 0x5
 1757 01a5 00       		.byte	0
 1758 01a6 03       		.uleb128 0x3
 1759 01a7 08       		.uleb128 0x8
 1760 01a8 3A       		.uleb128 0x3a
 1761 01a9 0B       		.uleb128 0xb
 1762 01aa 3B       		.uleb128 0x3b
 1763 01ab 0B       		.uleb128 0xb
 1764 01ac 39       		.uleb128 0x39
 1765 01ad 0B       		.uleb128 0xb
 1766 01ae 49       		.uleb128 0x49
 1767 01af 13       		.uleb128 0x13
ARM GAS  /tmp/cckdeSuD.s 			page 32


 1768 01b0 00       		.byte	0
 1769 01b1 00       		.byte	0
 1770 01b2 21       		.uleb128 0x21
 1771 01b3 05       		.uleb128 0x5
 1772 01b4 00       		.byte	0
 1773 01b5 03       		.uleb128 0x3
 1774 01b6 0E       		.uleb128 0xe
 1775 01b7 3A       		.uleb128 0x3a
 1776 01b8 0B       		.uleb128 0xb
 1777 01b9 3B       		.uleb128 0x3b
 1778 01ba 0B       		.uleb128 0xb
 1779 01bb 39       		.uleb128 0x39
 1780 01bc 0B       		.uleb128 0xb
 1781 01bd 49       		.uleb128 0x49
 1782 01be 13       		.uleb128 0x13
 1783 01bf 00       		.byte	0
 1784 01c0 00       		.byte	0
 1785 01c1 22       		.uleb128 0x22
 1786 01c2 34       		.uleb128 0x34
 1787 01c3 00       		.byte	0
 1788 01c4 03       		.uleb128 0x3
 1789 01c5 08       		.uleb128 0x8
 1790 01c6 3A       		.uleb128 0x3a
 1791 01c7 0B       		.uleb128 0xb
 1792 01c8 3B       		.uleb128 0x3b
 1793 01c9 0B       		.uleb128 0xb
 1794 01ca 39       		.uleb128 0x39
 1795 01cb 0B       		.uleb128 0xb
 1796 01cc 49       		.uleb128 0x49
 1797 01cd 13       		.uleb128 0x13
 1798 01ce 00       		.byte	0
 1799 01cf 00       		.byte	0
 1800 01d0 23       		.uleb128 0x23
 1801 01d1 2E       		.uleb128 0x2e
 1802 01d2 01       		.byte	0x1
 1803 01d3 3F       		.uleb128 0x3f
 1804 01d4 19       		.uleb128 0x19
 1805 01d5 03       		.uleb128 0x3
 1806 01d6 0E       		.uleb128 0xe
 1807 01d7 3A       		.uleb128 0x3a
 1808 01d8 0B       		.uleb128 0xb
 1809 01d9 3B       		.uleb128 0x3b
 1810 01da 0B       		.uleb128 0xb
 1811 01db 39       		.uleb128 0x39
 1812 01dc 0B       		.uleb128 0xb
 1813 01dd 27       		.uleb128 0x27
 1814 01de 19       		.uleb128 0x19
 1815 01df 01       		.uleb128 0x1
 1816 01e0 13       		.uleb128 0x13
 1817 01e1 00       		.byte	0
 1818 01e2 00       		.byte	0
 1819 01e3 24       		.uleb128 0x24
 1820 01e4 2E       		.uleb128 0x2e
 1821 01e5 01       		.byte	0x1
 1822 01e6 03       		.uleb128 0x3
 1823 01e7 0E       		.uleb128 0xe
 1824 01e8 3A       		.uleb128 0x3a
ARM GAS  /tmp/cckdeSuD.s 			page 33


 1825 01e9 0B       		.uleb128 0xb
 1826 01ea 3B       		.uleb128 0x3b
 1827 01eb 05       		.uleb128 0x5
 1828 01ec 39       		.uleb128 0x39
 1829 01ed 0B       		.uleb128 0xb
 1830 01ee 27       		.uleb128 0x27
 1831 01ef 19       		.uleb128 0x19
 1832 01f0 01       		.uleb128 0x1
 1833 01f1 13       		.uleb128 0x13
 1834 01f2 00       		.byte	0
 1835 01f3 00       		.byte	0
 1836 01f4 25       		.uleb128 0x25
 1837 01f5 2E       		.uleb128 0x2e
 1838 01f6 00       		.byte	0
 1839 01f7 03       		.uleb128 0x3
 1840 01f8 0E       		.uleb128 0xe
 1841 01f9 3A       		.uleb128 0x3a
 1842 01fa 0B       		.uleb128 0xb
 1843 01fb 3B       		.uleb128 0x3b
 1844 01fc 05       		.uleb128 0x5
 1845 01fd 39       		.uleb128 0x39
 1846 01fe 0B       		.uleb128 0xb
 1847 01ff 27       		.uleb128 0x27
 1848 0200 19       		.uleb128 0x19
 1849 0201 00       		.byte	0
 1850 0202 00       		.byte	0
 1851 0203 26       		.uleb128 0x26
 1852 0204 2E       		.uleb128 0x2e
 1853 0205 01       		.byte	0x1
 1854 0206 03       		.uleb128 0x3
 1855 0207 0E       		.uleb128 0xe
 1856 0208 3A       		.uleb128 0x3a
 1857 0209 0B       		.uleb128 0xb
 1858 020a 3B       		.uleb128 0x3b
 1859 020b 05       		.uleb128 0x5
 1860 020c 39       		.uleb128 0x39
 1861 020d 0B       		.uleb128 0xb
 1862 020e 27       		.uleb128 0x27
 1863 020f 19       		.uleb128 0x19
 1864 0210 49       		.uleb128 0x49
 1865 0211 13       		.uleb128 0x13
 1866 0212 01       		.uleb128 0x1
 1867 0213 13       		.uleb128 0x13
 1868 0214 00       		.byte	0
 1869 0215 00       		.byte	0
 1870 0216 27       		.uleb128 0x27
 1871 0217 2E       		.uleb128 0x2e
 1872 0218 01       		.byte	0x1
 1873 0219 03       		.uleb128 0x3
 1874 021a 0E       		.uleb128 0xe
 1875 021b 3A       		.uleb128 0x3a
 1876 021c 0B       		.uleb128 0xb
 1877 021d 3B       		.uleb128 0x3b
 1878 021e 05       		.uleb128 0x5
 1879 021f 39       		.uleb128 0x39
 1880 0220 0B       		.uleb128 0xb
 1881 0221 27       		.uleb128 0x27
ARM GAS  /tmp/cckdeSuD.s 			page 34


 1882 0222 19       		.uleb128 0x19
 1883 0223 00       		.byte	0
 1884 0224 00       		.byte	0
 1885 0225 00       		.byte	0
 1886              		.section	.gnu.debuglto_.debug_line,"e",%progbits
 1887              	.Ldebug_line0:
 1888 0000 29020000 		.4byte	.LELT0-.LSLT0
 1889              	.LSLT0:
 1890 0004 0400     		.2byte	0x4
 1891 0006 23020000 		.4byte	.LELTP0-.LASLTP0
 1892              	.LASLTP0:
 1893 000a 01       		.byte	0x1
 1894 000b 01       		.byte	0x1
 1895 000c 01       		.byte	0x1
 1896 000d F6       		.byte	0xf6
 1897 000e F2       		.byte	0xf2
 1898 000f 0D       		.byte	0xd
 1899 0010 00       		.byte	0
 1900 0011 01       		.byte	0x1
 1901 0012 01       		.byte	0x1
 1902 0013 01       		.byte	0x1
 1903 0014 01       		.byte	0x1
 1904 0015 00       		.byte	0
 1905 0016 00       		.byte	0
 1906 0017 00       		.byte	0
 1907 0018 01       		.byte	0x1
 1908 0019 00       		.byte	0
 1909 001a 00       		.byte	0
 1910 001b 01       		.byte	0x1
 1911 001c 43686962 		.ascii	"ChibiOS_20.3.0/os/common/ext/ARM/CMSIS/Core/Include"
 1911      694F535F 
 1911      32302E33 
 1911      2E302F6F 
 1911      732F636F 
 1912 004f 00       		.byte	0
 1913 0050 43686962 		.ascii	"ChibiOS_20.3.0/os/common/ports/ARMCMx/compilers/GCC"
 1913      694F535F 
 1913      32302E33 
 1913      2E302F6F 
 1913      732F636F 
 1914 0083 00       		.byte	0
 1915 0084 43686962 		.ascii	"ChibiOS_20.3.0/os/common/ports/ARMCMx"
 1915      694F535F 
 1915      32302E33 
 1915      2E302F6F 
 1915      732F636F 
 1916 00a9 00       		.byte	0
 1917 00aa 43686962 		.ascii	"ChibiOS_20.3.0/os/rt/include"
 1917      694F535F 
 1917      32302E33 
 1917      2E302F6F 
 1917      732F7274 
 1918 00c6 00       		.byte	0
 1919 00c7 43686962 		.ascii	"ChibiOS_20.3.0/os/rt/src"
 1919      694F535F 
 1919      32302E33 
 1919      2E302F6F 
ARM GAS  /tmp/cckdeSuD.s 			page 35


 1919      732F7274 
 1920 00df 00       		.byte	0
 1921 00e0 2F757372 		.ascii	"/usr/share/gcc-arm-none-eabi-10-2020-q4-major/arm-n"
 1921      2F736861 
 1921      72652F67 
 1921      63632D61 
 1921      726D2D6E 
 1922 0113 6F6E652D 		.ascii	"one-eabi/include/machine"
 1922      65616269 
 1922      2F696E63 
 1922      6C756465 
 1922      2F6D6163 
 1923 012b 00       		.byte	0
 1924 012c 2F757372 		.ascii	"/usr/share/gcc-arm-none-eabi-10-2020-q4-major/arm-n"
 1924      2F736861 
 1924      72652F67 
 1924      63632D61 
 1924      726D2D6E 
 1925 015f 6F6E652D 		.ascii	"one-eabi/include/sys"
 1925      65616269 
 1925      2F696E63 
 1925      6C756465 
 1925      2F737973 
 1926 0173 00       		.byte	0
 1927 0174 00       		.byte	0
 1928 0175 5F646566 		.ascii	"_default_types.h\000"
 1928      61756C74 
 1928      5F747970 
 1928      65732E68 
 1928      00
 1929 0186 06       		.uleb128 0x6
 1930 0187 00       		.uleb128 0
 1931 0188 00       		.uleb128 0
 1932 0189 5F737464 		.ascii	"_stdint.h\000"
 1932      696E742E 
 1932      6800
 1933 0193 07       		.uleb128 0x7
 1934 0194 00       		.uleb128 0
 1935 0195 00       		.uleb128 0
 1936 0196 63687479 		.ascii	"chtypes.h\000"
 1936      7065732E 
 1936      6800
 1937 01a0 02       		.uleb128 0x2
 1938 01a1 00       		.uleb128 0
 1939 01a2 00       		.uleb128 0
 1940 01a3 63687379 		.ascii	"chsystypes.h\000"
 1940      73747970 
 1940      65732E68 
 1940      00
 1941 01b0 04       		.uleb128 0x4
 1942 01b1 00       		.uleb128 0
 1943 01b2 00       		.uleb128 0
 1944 01b3 63687363 		.ascii	"chschd.h\000"
 1944      68642E68 
 1944      00
 1945 01bc 04       		.uleb128 0x4
 1946 01bd 00       		.uleb128 0
ARM GAS  /tmp/cckdeSuD.s 			page 36


 1947 01be 00       		.uleb128 0
 1948 01bf 63687469 		.ascii	"chtime.h\000"
 1948      6D652E68 
 1948      00
 1949 01c8 04       		.uleb128 0x4
 1950 01c9 00       		.uleb128 0
 1951 01ca 00       		.uleb128 0
 1952 01cb 6368636F 		.ascii	"chcore.h\000"
 1952      72652E68 
 1952      00
 1953 01d4 03       		.uleb128 0x3
 1954 01d5 00       		.uleb128 0
 1955 01d6 00       		.uleb128 0
 1956 01d7 6368636F 		.ascii	"chcore_v7m.h\000"
 1956      72655F76 
 1956      376D2E68 
 1956      00
 1957 01e4 03       		.uleb128 0x3
 1958 01e5 00       		.uleb128 0
 1959 01e6 00       		.uleb128 0
 1960 01e7 6368746D 		.ascii	"chtm.h\000"
 1960      2E6800
 1961 01ee 04       		.uleb128 0x4
 1962 01ef 00       		.uleb128 0
 1963 01f0 00       		.uleb128 0
 1964 01f1 63687365 		.ascii	"chsem.h\000"
 1964      6D2E6800 
 1965 01f9 04       		.uleb128 0x4
 1966 01fa 00       		.uleb128 0
 1967 01fb 00       		.uleb128 0
 1968 01fc 63686D74 		.ascii	"chmtx.h\000"
 1968      782E6800 
 1969 0204 04       		.uleb128 0x4
 1970 0205 00       		.uleb128 0
 1971 0206 00       		.uleb128 0
 1972 0207 63687365 		.ascii	"chsem.c\000"
 1972      6D2E6300 
 1973 020f 05       		.uleb128 0x5
 1974 0210 00       		.uleb128 0
 1975 0211 00       		.uleb128 0
 1976 0212 63687379 		.ascii	"chsys.h\000"
 1976      732E6800 
 1977 021a 04       		.uleb128 0x4
 1978 021b 00       		.uleb128 0
 1979 021c 00       		.uleb128 0
 1980 021d 636D7369 		.ascii	"cmsis_gcc.h\000"
 1980      735F6763 
 1980      632E6800 
 1981 0229 01       		.uleb128 0x1
 1982 022a 00       		.uleb128 0
 1983 022b 00       		.uleb128 0
 1984 022c 00       		.byte	0
 1985              	.LELTP0:
 1986              	.LELT0:
 1987              		.section	.gnu.debuglto_.debug_str,"eMS",%progbits,1
 1988              	.LASF50:
 1989 0000 72656164 		.ascii	"ready_list_t\000"
ARM GAS  /tmp/cckdeSuD.s 			page 37


 1989      795F6C69 
 1989      73745F74 
 1989      00
 1990              	.LASF107:
 1991 000d 71756575 		.ascii	"queue_insert\000"
 1991      655F696E 
 1991      73657274 
 1991      00
 1992              	.LASF93:
 1993 001a 63685365 		.ascii	"chSemSignalI\000"
 1993      6D536967 
 1993      6E616C49 
 1993      00
 1994              	.LASF79:
 1995 0027 77747472 		.ascii	"wttrp\000"
 1995      7000
 1996              	.LASF56:
 1997 002d 64656C74 		.ascii	"delta\000"
 1997      6100
 1998              	.LASF102:
 1999 0033 63685365 		.ascii	"chSemResetWithMessage\000"
 1999      6D526573 
 1999      65745769 
 1999      74684D65 
 1999      73736167 
 2000              	.LASF114:
 2001 0049 2E2F4368 		.ascii	"./ChibiOS_20.3.0/os/rt/src/chsem.c\000"
 2001      6962694F 
 2001      535F3230 
 2001      2E332E30 
 2001      2F6F732F 
 2002              	.LASF17:
 2003 006c 75696E74 		.ascii	"uint64_t\000"
 2003      36345F74 
 2003      00
 2004              	.LASF7:
 2005 0075 5F5F7569 		.ascii	"__uint8_t\000"
 2005      6E74385F 
 2005      7400
 2006              	.LASF49:
 2007 007f 70726576 		.ascii	"prev\000"
 2007      00
 2008              	.LASF72:
 2009 0084 706F7274 		.ascii	"port_intctx\000"
 2009      5F696E74 
 2009      63747800 
 2010              	.LASF61:
 2011 0090 73797374 		.ascii	"system_debug_t\000"
 2011      656D5F64 
 2011      65627567 
 2011      5F7400
 2012              	.LASF108:
 2013 009f 71756575 		.ascii	"queue_init\000"
 2013      655F696E 
 2013      697400
 2014              	.LASF111:
 2015 00aa 706F7274 		.ascii	"port_lock\000"
ARM GAS  /tmp/cckdeSuD.s 			page 38


 2015      5F6C6F63 
 2015      6B00
 2016              	.LASF104:
 2017 00b4 71756575 		.ascii	"queue_lifo_remove\000"
 2017      655F6C69 
 2017      666F5F72 
 2017      656D6F76 
 2017      6500
 2018              	.LASF94:
 2019 00c6 63685365 		.ascii	"chSemSignal\000"
 2019      6D536967 
 2019      6E616C00 
 2020              	.LASF88:
 2021 00d2 73656D61 		.ascii	"semaphore_t\000"
 2021      70686F72 
 2021      655F7400 
 2022              	.LASF77:
 2023 00de 65786974 		.ascii	"exitcode\000"
 2023      636F6465 
 2023      00
 2024              	.LASF68:
 2025 00e7 6D61696E 		.ascii	"mainthread\000"
 2025      74687265 
 2025      616400
 2026              	.LASF80:
 2027 00f2 73656E74 		.ascii	"sentmsg\000"
 2027      6D736700 
 2028              	.LASF92:
 2029 00fa 63685365 		.ascii	"chSemAddCounterI\000"
 2029      6D416464 
 2029      436F756E 
 2029      74657249 
 2029      00
 2030              	.LASF46:
 2031 010b 6E657874 		.ascii	"next\000"
 2031      00
 2032              	.LASF48:
 2033 0110 63685F74 		.ascii	"ch_threads_queue\000"
 2033      68726561 
 2033      64735F71 
 2033      75657565 
 2033      00
 2034              	.LASF1:
 2035 0121 6C6F6E67 		.ascii	"long long int\000"
 2035      206C6F6E 
 2035      6720696E 
 2035      7400
 2036              	.LASF3:
 2037 012f 7369676E 		.ascii	"signed char\000"
 2037      65642063 
 2037      68617200 
 2038              	.LASF95:
 2039 013b 63685365 		.ascii	"chSemSignalWait\000"
 2039      6D536967 
 2039      6E616C57 
 2039      61697400 
 2040              	.LASF13:
ARM GAS  /tmp/cckdeSuD.s 			page 39


 2041 014b 6C6F6E67 		.ascii	"long long unsigned int\000"
 2041      206C6F6E 
 2041      6720756E 
 2041      7369676E 
 2041      65642069 
 2042              	.LASF112:
 2043 0162 62617365 		.ascii	"basePri\000"
 2043      50726900 
 2044              	.LASF67:
 2045 016a 76746C69 		.ascii	"vtlist\000"
 2045      737400
 2046              	.LASF110:
 2047 0171 706F7274 		.ascii	"port_unlock\000"
 2047      5F756E6C 
 2047      6F636B00 
 2048              	.LASF37:
 2049 017d 6D736771 		.ascii	"msgqueue\000"
 2049      75657565 
 2049      00
 2050              	.LASF33:
 2051 0186 73746174 		.ascii	"state\000"
 2051      6500
 2052              	.LASF9:
 2053 018c 6C6F6E67 		.ascii	"long int\000"
 2053      20696E74 
 2053      00
 2054              	.LASF20:
 2055 0195 74737461 		.ascii	"tstate_t\000"
 2055      74655F74 
 2055      00
 2056              	.LASF57:
 2057 019e 66756E63 		.ascii	"func\000"
 2057      00
 2058              	.LASF101:
 2059 01a3 63685365 		.ascii	"chSemResetWithMessageI\000"
 2059      6D526573 
 2059      65745769 
 2059      74684D65 
 2059      73736167 
 2060              	.LASF27:
 2061 01ba 71756575 		.ascii	"queue\000"
 2061      6500
 2062              	.LASF10:
 2063 01c0 5F5F7569 		.ascii	"__uint32_t\000"
 2063      6E743332 
 2063      5F7400
 2064              	.LASF115:
 2065 01cb 2F686F6D 		.ascii	"/home/iamprithvishetty/CDSpace/mmc3416_test2\000"
 2065      652F6961 
 2065      6D707269 
 2065      74687669 
 2065      73686574 
 2066              	.LASF36:
 2067 01f8 77616974 		.ascii	"waiting\000"
 2067      696E6700 
 2068              	.LASF89:
 2069 0200 6D757465 		.ascii	"mutex_t\000"
ARM GAS  /tmp/cckdeSuD.s 			page 40


 2069      785F7400 
 2070              	.LASF70:
 2071 0208 73797369 		.ascii	"sysinterval_t\000"
 2071      6E746572 
 2071      76616C5F 
 2071      7400
 2072              	.LASF103:
 2073 0216 63685365 		.ascii	"chSemObjectInit\000"
 2073      6D4F626A 
 2073      65637449 
 2073      6E697400 
 2074              	.LASF25:
 2075 0226 636E745F 		.ascii	"cnt_t\000"
 2075      7400
 2076              	.LASF0:
 2077 022c 756E7369 		.ascii	"unsigned int\000"
 2077      676E6564 
 2077      20696E74 
 2077      00
 2078              	.LASF98:
 2079 0239 63685365 		.ascii	"chSemWaitTimeout\000"
 2079      6D576169 
 2079      7454696D 
 2079      656F7574 
 2079      00
 2080              	.LASF81:
 2081 024a 77747365 		.ascii	"wtsemp\000"
 2081      6D7000
 2082              	.LASF11:
 2083 0251 6C6F6E67 		.ascii	"long unsigned int\000"
 2083      20756E73 
 2083      69676E65 
 2083      6420696E 
 2083      7400
 2084              	.LASF97:
 2085 0263 74696D65 		.ascii	"timeout\000"
 2085      6F757400 
 2086              	.LASF31:
 2087 026b 6E616D65 		.ascii	"name\000"
 2087      00
 2088              	.LASF41:
 2089 0270 6D706F6F 		.ascii	"mpool\000"
 2089      6C00
 2090              	.LASF6:
 2091 0276 73686F72 		.ascii	"short unsigned int\000"
 2091      7420756E 
 2091      7369676E 
 2091      65642069 
 2091      6E7400
 2092              	.LASF44:
 2093 0289 63685F74 		.ascii	"ch_thread\000"
 2093      68726561 
 2093      6400
 2094              	.LASF23:
 2095 0293 6D73675F 		.ascii	"msg_t\000"
 2095      7400
 2096              	.LASF38:
ARM GAS  /tmp/cckdeSuD.s 			page 41


 2097 0299 6570656E 		.ascii	"epending\000"
 2097      64696E67 
 2097      00
 2098              	.LASF64:
 2099 02a2 63685F73 		.ascii	"ch_system_t\000"
 2099      79737465 
 2099      6D5F7400 
 2100              	.LASF19:
 2101 02ae 746D6F64 		.ascii	"tmode_t\000"
 2101      655F7400 
 2102              	.LASF51:
 2103 02b6 63685F72 		.ascii	"ch_ready_list\000"
 2103      65616479 
 2103      5F6C6973 
 2103      7400
 2104              	.LASF24:
 2105 02c4 6576656E 		.ascii	"eventmask_t\000"
 2105      746D6173 
 2105      6B5F7400 
 2106              	.LASF113:
 2107 02d0 474E5520 		.ascii	"GNU C17 10.2.1 20201103 (release) -mcpu=cortex-m4 -"
 2107      43313720 
 2107      31302E32 
 2107      2E312032 
 2107      30323031 
 2108 0303 6D746875 		.ascii	"mthumb -mfloat-abi=soft -march=armv7e-m -ggdb -O2 -"
 2108      6D62202D 
 2108      6D666C6F 
 2108      61742D61 
 2108      62693D73 
 2109 0336 666F6D69 		.ascii	"fomit-frame-pointer -falign-functions=16 -ffunction"
 2109      742D6672 
 2109      616D652D 
 2109      706F696E 
 2109      74657220 
 2110 0369 2D736563 		.ascii	"-sections -fdata-sections -fno-common -flto\000"
 2110      74696F6E 
 2110      73202D66 
 2110      64617461 
 2110      2D736563 
 2111              	.LASF8:
 2112 0395 5F5F696E 		.ascii	"__int32_t\000"
 2112      7433325F 
 2112      7400
 2113              	.LASF58:
 2114 039f 76697274 		.ascii	"virtual_timers_list_t\000"
 2114      75616C5F 
 2114      74696D65 
 2114      72735F6C 
 2114      6973745F 
 2115              	.LASF71:
 2116 03b5 73746B61 		.ascii	"stkalign_t\000"
 2116      6C69676E 
 2116      5F7400
 2117              	.LASF29:
 2118 03c0 6E657765 		.ascii	"newer\000"
 2118      7200
ARM GAS  /tmp/cckdeSuD.s 			page 42


 2119              	.LASF40:
 2120 03c6 7265616C 		.ascii	"realprio\000"
 2120      7072696F 
 2120      00
 2121              	.LASF18:
 2122 03cf 7274636E 		.ascii	"rtcnt_t\000"
 2122      745F7400 
 2123              	.LASF42:
 2124 03d7 74687265 		.ascii	"thread_reference_t\000"
 2124      61645F72 
 2124      65666572 
 2124      656E6365 
 2124      5F7400
 2125              	.LASF59:
 2126 03ea 63685F76 		.ascii	"ch_virtual_timers_list\000"
 2126      69727475 
 2126      616C5F74 
 2126      696D6572 
 2126      735F6C69 
 2127              	.LASF109:
 2128 0401 63685379 		.ascii	"chSysLock\000"
 2128      734C6F63 
 2128      6B00
 2129              	.LASF73:
 2130 040b 706F7274 		.ascii	"port_context\000"
 2130      5F636F6E 
 2130      74657874 
 2130      00
 2131              	.LASF75:
 2132 0418 746D5F63 		.ascii	"tm_calibration_t\000"
 2132      616C6962 
 2132      72617469 
 2132      6F6E5F74 
 2132      00
 2133              	.LASF28:
 2134 0429 7072696F 		.ascii	"prio\000"
 2134      00
 2135              	.LASF52:
 2136 042e 63757272 		.ascii	"current\000"
 2136      656E7400 
 2137              	.LASF12:
 2138 0436 5F5F7569 		.ascii	"__uint64_t\000"
 2138      6E743634 
 2138      5F7400
 2139              	.LASF21:
 2140 0441 74726566 		.ascii	"trefs_t\000"
 2140      735F7400 
 2141              	.LASF35:
 2142 0449 72656673 		.ascii	"refs\000"
 2142      00
 2143              	.LASF54:
 2144 044e 76697274 		.ascii	"virtual_timer_t\000"
 2144      75616C5F 
 2144      74696D65 
 2144      725F7400 
 2145              	.LASF22:
 2146 045e 74707269 		.ascii	"tprio_t\000"
ARM GAS  /tmp/cckdeSuD.s 			page 43


 2146      6F5F7400 
 2147              	.LASF62:
 2148 0466 63685F73 		.ascii	"ch_system_debug\000"
 2148      79737465 
 2148      6D5F6465 
 2148      62756700 
 2149              	.LASF90:
 2150 0476 5F426F6F 		.ascii	"_Bool\000"
 2150      6C00
 2151              	.LASF15:
 2152 047c 696E7433 		.ascii	"int32_t\000"
 2152      325F7400 
 2153              	.LASF4:
 2154 0484 756E7369 		.ascii	"unsigned char\000"
 2154      676E6564 
 2154      20636861 
 2154      7200
 2155              	.LASF5:
 2156 0492 73686F72 		.ascii	"short int\000"
 2156      7420696E 
 2156      7400
 2157              	.LASF60:
 2158 049c 6C617374 		.ascii	"lasttime\000"
 2158      74696D65 
 2158      00
 2159              	.LASF83:
 2160 04a5 65776D61 		.ascii	"ewmask\000"
 2160      736B00
 2161              	.LASF65:
 2162 04ac 63685F73 		.ascii	"ch_system\000"
 2162      79737465 
 2162      6D00
 2163              	.LASF91:
 2164 04b6 5F5F6675 		.ascii	"__func__\000"
 2164      6E635F5F 
 2164      00
 2165              	.LASF99:
 2166 04bf 63685365 		.ascii	"chSemWaitS\000"
 2166      6D576169 
 2166      745300
 2167              	.LASF76:
 2168 04ca 7264796D 		.ascii	"rdymsg\000"
 2168      736700
 2169              	.LASF55:
 2170 04d1 63685F76 		.ascii	"ch_virtual_timer\000"
 2170      69727475 
 2170      616C5F74 
 2170      696D6572 
 2170      00
 2171              	.LASF84:
 2172 04e2 63685F73 		.ascii	"ch_semaphore\000"
 2172      656D6170 
 2172      686F7265 
 2172      00
 2173              	.LASF16:
 2174 04ef 75696E74 		.ascii	"uint32_t\000"
 2174      33325F74 
ARM GAS  /tmp/cckdeSuD.s 			page 44


 2174      00
 2175              	.LASF82:
 2176 04f8 77746D74 		.ascii	"wtmtxp\000"
 2176      787000
 2177              	.LASF45:
 2178 04ff 63685F74 		.ascii	"ch_threads_list\000"
 2178      68726561 
 2178      64735F6C 
 2178      69737400 
 2179              	.LASF86:
 2180 050f 6F776E65 		.ascii	"owner\000"
 2180      7200
 2181              	.LASF2:
 2182 0515 6C6F6E67 		.ascii	"long double\000"
 2182      20646F75 
 2182      626C6500 
 2183              	.LASF32:
 2184 0521 77616261 		.ascii	"wabase\000"
 2184      736500
 2185              	.LASF87:
 2186 0528 63686172 		.ascii	"char\000"
 2186      00
 2187              	.LASF30:
 2188 052d 6F6C6465 		.ascii	"older\000"
 2188      7200
 2189              	.LASF96:
 2190 0533 63685365 		.ascii	"chSemWaitTimeoutS\000"
 2190      6D576169 
 2190      7454696D 
 2190      656F7574 
 2190      5300
 2191              	.LASF26:
 2192 0545 74687265 		.ascii	"thread_t\000"
 2192      61645F74 
 2192      00
 2193              	.LASF105:
 2194 054e 71756575 		.ascii	"queue_fifo_remove\000"
 2194      655F6669 
 2194      666F5F72 
 2194      656D6F76 
 2194      6500
 2195              	.LASF69:
 2196 0560 73797374 		.ascii	"systime_t\000"
 2196      696D655F 
 2196      7400
 2197              	.LASF53:
 2198 056a 76746675 		.ascii	"vtfunc_t\000"
 2198      6E635F74 
 2198      00
 2199              	.LASF116:
 2200 0573 5F5F7365 		.ascii	"__set_BASEPRI\000"
 2200      745F4241 
 2200      53455052 
 2200      4900
 2201              	.LASF100:
 2202 0581 63685365 		.ascii	"chSemWait\000"
 2202      6D576169 
ARM GAS  /tmp/cckdeSuD.s 			page 45


 2202      7400
 2203              	.LASF63:
 2204 058b 70616E69 		.ascii	"panic_msg\000"
 2204      635F6D73 
 2204      6700
 2205              	.LASF74:
 2206 0595 6F666673 		.ascii	"offset\000"
 2206      657400
 2207              	.LASF47:
 2208 059c 74687265 		.ascii	"threads_queue_t\000"
 2208      6164735F 
 2208      71756575 
 2208      655F7400 
 2209              	.LASF85:
 2210 05ac 63685F6D 		.ascii	"ch_mutex\000"
 2210      75746578 
 2210      00
 2211              	.LASF66:
 2212 05b5 726C6973 		.ascii	"rlist\000"
 2212      7400
 2213              	.LASF14:
 2214 05bb 75696E74 		.ascii	"uint8_t\000"
 2214      385F7400 
 2215              	.LASF34:
 2216 05c3 666C6167 		.ascii	"flags\000"
 2216      7300
 2217              	.LASF78:
 2218 05c9 77746F62 		.ascii	"wtobjp\000"
 2218      6A7000
 2219              	.LASF43:
 2220 05d0 74687265 		.ascii	"threads_list_t\000"
 2220      6164735F 
 2220      6C697374 
 2220      5F7400
 2221              	.LASF106:
 2222 05df 63685379 		.ascii	"chSysUnlock\000"
 2222      73556E6C 
 2222      6F636B00 
 2223              	.LASF39:
 2224 05eb 6D74786C 		.ascii	"mtxlist\000"
 2224      69737400 
 2225              		.text
 2226              		.section	.gnu.lto_.profile.fccb243a6486cf8c,"e",%progbits
 2227 0000 789C6362 		.ascii	"x\234cb\000\001\000\000\022\000\003"
 2227      00010000 
 2227      120003
 2228              		.text
 2229              		.section	.gnu.lto_.icf.fccb243a6486cf8c,"e",%progbits
 2230 0000 789C0B63 		.ascii	"x\234\013c@\000>\206\213\013\017,gb\232\367\366y\037"
 2230      40003E86 
 2230      8B0B0F2C 
 2230      67629AF7 
 2230      F6791F
 2231 0013 2F73FB8D 		.ascii	"/s\373\215\217\273\231Y\226LY\367\206\211u\316\273\255"
 2231      8FBB9959 
 2231      964C59F7 
 2231      868975CE 
ARM GAS  /tmp/cckdeSuD.s 			page 46


 2231      BBAD
 2232 0025 97D9D8A6 		.ascii	"\227\331\330\246\356[\270\205\231}\327\277\326Y<\034"
 2232      EE5BB885 
 2232      997DD7BF 
 2232      D6593C1C 
 2233 0035 5367AFDA 		.ascii	"Sg\257\332\305\310yk\315\211\247\034\\\223\266\034m"
 2233      C5C8796B 
 2233      CD89A71C 
 2233      5C93B61C 
 2233      6D
 2234 0046 64E3FE74 		.ascii	"d\343\376to\371!>\236\375\257/\236\342\344}\377b\347"
 2234      6FF9213E 
 2234      9EFDAF2F 
 2234      9EE2E47D 
 2234      FF62E7
 2235 0059 514EBE99 		.ascii	"QN\276\231\337\267|ee\000\000/\307*\320"
 2235      DFB77C65 
 2235      6500002F 
 2235      C72AD0
 2236              		.text
 2237              		.section	.gnu.lto_.ipa_sra.fccb243a6486cf8c,"e",%progbits
 2238 0000 789C5D4F 		.ascii	"x\234]OI\022\200 \014kR\024\\\337\354\253=\013\205\002"
 2238      49128020 
 2238      0C6B5214 
 2238      5CDFECAB 
 2238      3D0B8502 
 2239 0014 231768B6 		.ascii	"#\027h\266\206W\306\271\005\345R\001\331 \250\275\220"
 2239      8657C6B9 
 2239      05E55201 
 2239      D920A8BD 
 2239      90
 2240 0025 09AAB110 		.ascii	"\011\252\261\020\004g\005\213N\376,3\311\252\222$\232"
 2240      0467058B 
 2240      4EFE2C33 
 2240      C9AA9224 
 2240      9A
 2241 0036 D6AC503C 		.ascii	"\326\254P<\241\206 [\021\353\032\030\312\204\242\366"
 2241      A186205B 
 2241      11EB1A18 
 2241      CA84A2F6 
 2242 0046 69EBD9CA 		.ascii	"i\353\331\312\356\342NO\234\321\243\026\"|\375\211\326"
 2242      EEE24E4F 
 2242      9CD1A316 
 2242      227CFD89 
 2242      D6
 2243 0057 C224177F 		.ascii	"\302$\027\177\275\356\221]\276QA\371\000\300\346\005"
 2243      BDEE915D 
 2243      BE5141F9 
 2243      00C0E605 
 2244 0067 22       		.ascii	"\""
 2245              		.text
 2246              		.section	.gnu.lto_.inline.fccb243a6486cf8c,"e",%progbits
 2247 0000 789C9D53 		.ascii	"x\234\235SAk\023a\020}3\3635\331n\322\246V\360(\305"
 2247      416B1361 
 2247      107D33F3 
 2247      35D96ED2 
 2247      A656F028 
ARM GAS  /tmp/cckdeSuD.s 			page 47


 2248 0015 A3BF2227 		.ascii	"\243\277\"'\217\371\005\236j\223\266\352\301\376\002"
 2248      8FF9059E 
 2248      6A93B6EA 
 2248      C1FE02
 2249 0024 F7A0A0E4 		.ascii	"\367\240\240\344\022\304K\024k\260A\260\242\364\240"
 2249      12C44B14 
 2249      6BB041B0 
 2249      A2F4A0
 2250 0033 A2A2504B 		.ascii	"\242\242PK! \275\244\024zm{\022\004QP\004O\316\314f"
 2250      2120BDA4 
 2250      147A6D7B 
 2250      12045150 
 2250      044FCECC 
 2251 0048 B30DD8A0 		.ascii	"\263\015\330\240f\003;\337\356\233\2317o\336\236\015"
 2251      66033BDF 
 2251      EE9B9937 
 2251      6FDE9E0D 
 2252 0058 18FEA6F5 		.ascii	"\030\376\246\365\237$\311\001/\022\203\272\342\017\365"
 2252      9F24C901 
 2252      2F1283BA 
 2252      E20FF5
 2253 0067 4E903984 		.ascii	"N\2209\204\212\275\222:P\324`\223\027\030\012\3220\341"
 2253      8ABD923A 
 2253      50D46093 
 2253      17180AD2 
 2253      30E1
 2254 0079 7946348C 		.ascii	"yF4\214\021i\022\227,S\001c\352\225\374\325\337\325"
 2254      11691297 
 2254      2C530163 
 2254      EA95FCD5 
 2254      DFD5
 2255 008b 0B535614 		.ascii	"\013SV\024\255\232 \326\247\235?TT\220\027\222\205\177"
 2255      AD9A20D6 
 2255      A79D3F54 
 2255      54901792 
 2255      857F
 2256 009d 60D8AA05 		.ascii	"`\330\252\005\024\034\\'\312\012\262\030N.\001\223i"
 2256      141C5C27 
 2256      CA0AB218 
 2256      4E2E0193 
 2256      69
 2257 00ae 41AB034C 		.ascii	"A\253\003L`\346\301\333~\237/\247\255\031RE\226\022"
 2257      60E6C1DB 
 2257      7E9F2FA7 
 2257      AD195245 
 2257      9612
 2258 00c0 2A5BFDE6 		.ascii	"*[\375\346\241,i\312\307\347\337w\2711\322:\344\255"
 2258      A12C69CA 
 2258      C7E7DF77 
 2258      B931D23A 
 2258      E4AD
 2259 00d2 835E9032 		.ascii	"\203^\2202y\357\202\017\263!\213\252Tp\200r/\244A\332"
 2259      79EF820F 
 2259      B3218BAA 
 2259      54708072 
 2259      2FA441DA 
 2260 00e6 936264D3 		.ascii	"\223bd\323K\253fW\021\245\325o\27567\224\305\225\256"
ARM GAS  /tmp/cckdeSuD.s 			page 48


 2260      4BAB6657 
 2260      11A5D56F 
 2260      BD363794 
 2260      C595AE
 2261 00f9 C81D512A 		.ascii	"\310\035Q*:~\225.\350\011\351\361\372\220`\310\032\237"
 2261      3A7E952E 
 2261      E809E9F1 
 2261      FA9060C8 
 2261      1A9F
 2262 010b A449A699 		.ascii	"\244I\246\231i\"e\355e\304\"D\0169\231\230A\0159\211"
 2262      692265ED 
 2262      65C42244 
 2262      0E399998 
 2262      410D3989 
 2263 011f 4AFBE9F6 		.ascii	"J\373\351\366\2524h\302\351\320\013\312\250\320K\242"
 2263      AA3468C2 
 2263      E9D00BCA 
 2263      A8D04BA2 
 2264 012f 6B5D0946 		.ascii	"k]\011F)\220\301W,xE\351\312\234\036i`\006,\216\245"
 2264      2990C157 
 2264      2C7845E9 
 2264      CA9C1E69 
 2264      60062C8E 
 2265 0144 3997D354 		.ascii	"9\227\323T\337ln}^\223\371\200\252RM\326\2375\371b\244"
 2265      DF6C6E7D 
 2265      5E93F980 
 2265      AA524DD6 
 2265      9F35F962 
 2266 0159 02472EF2 		.ascii	"\002G.\362\340\250\247\201l3\001l\262\305\276\313\326"
 2266      E0A8A781 
 2266      6C33016C 
 2266      B2C5BECB 
 2266      D6
 2267 016a 9889528B 		.ascii	"\230\211R\213\031\266\204S\267\367{\217t\246\334\022"
 2267      19B68453 
 2267      B7F77B8F 
 2267      74A6DC12 
 2268 017a B37B5F7F 		.ascii	"\263{_\177m\230\371\343\243\037\375\216\034WAsPF\374"
 2268      6D98F9E3 
 2268      A31FFD8E 
 2268      1C574173 
 2268      5046FC
 2269 018d 65EDF08D 		.ascii	"e\355\360\215o\345\352\250\014\351F\350\3776b.\365\215"
 2269      6FE5EAA8 
 2269      0CE946E8 
 2269      FF36622E 
 2269      F58D
 2270 019f 4CE174E7 		.ascii	"L\341t\347\361\275\207\262\234\373\236\274\242b\316"
 2270      F1BD87B2 
 2270      9CFB9EBC 
 2270      A262CE
 2271 01ae 7CB8DF6B 		.ascii	"|\270\337k\362\262r\273u\367\347\015q\357E\271\313\246"
 2271      F2B272BB 
 2271      75F7E70D 
 2271      71EF45B9 
 2271      CBA6
 2272 01c0 71EED34E 		.ascii	"q\356\323N;\341\245\321T\037\353\374\223\327\357\337"
ARM GAS  /tmp/cckdeSuD.s 			page 49


 2272      3BE1A5D1 
 2272      541FEBFC 
 2272      93D7EFDF 
 2273 01d0 4943BFFB 		.ascii	"IC\277\373\233\373\275u\256\037w\335\340\033\3166\215"
 2273      9BFBBD75 
 2273      AE1F77DD 
 2273      E01BCE36 
 2273      8D
 2274 01e1 DF9762D3 		.ascii	"\337\227b\323\355"
 2274      ED
 2275              		.text
 2276              		.section	.gnu.lto_.jmpfuncs.fccb243a6486cf8c,"e",%progbits
 2277 0000 789C8D51 		.ascii	"x\234\215Q\211\015\3020\014\274\263\235\224\037\261"
 2277      890DC230 
 2277      0CBCB39D 
 2277      941FB1
 2278 000f 70BB0333 		.ascii	"p\273\0033t\004\006`3pZ\202L\303g\351\"\331w~b\237\004"
 2278      74040660 
 2278      33705A82 
 2278      4CC367E9 
 2278      22D9777E 
 2279 0026 4F3B80E4 		.ascii	"O;\200\3440*D\316:jb\002\257\306\344\200\307H-$G5\023"
 2279      302A44CE 
 2279      3A6A6202 
 2279      AFC6E480 
 2279      C7482D24 
 2280 003d 5E1848EB 		.ascii	"^\030H\353\375).\0347\267#\264\326Z\022V\0139$\025Y"
 2280      FD292E1C 
 2280      37B723B4 
 2280      D65A1256 
 2280      0B392415 
 2281 0052 573D476E 		.ascii	"W=Gn\364y\222p\356,\216\214l=\232\262q\204\301]\211"
 2281      F4799270 
 2281      EE2C8E8C 
 2281      6C3D9AB2 
 2281      7184C15D 
 2282 0067 6E57A779 		.ascii	"nW\247y\223\271r\216\037\270u\030\326\354W\3339\264"
 2282      93B9728E 
 2282      1FB87518 
 2282      D6EC57DB 
 2282      39B4
 2283 0079 2939AC9B 		.ascii	")9\254\233\372/g\373\230\317\226\304t\011\015z`\367"
 2283      FA2F67FB 
 2283      98CF96C4 
 2283      74090D7A 
 2283      60F7
 2284 008b E52FFBB8 		.ascii	"\345/\373\270\334f\225\207\300N\027}9b#\307\035Ur{`"
 2284      DC669587 
 2284      C04E177D 
 2284      396223C7 
 2284      1D55727B 
 2285              		.text
 2286              		.section	.gnu.lto_.pureconst.fccb243a6486cf8c,"e",%progbits
 2287 0000 789C05C1 		.ascii	"x\234\005\301\201\021\200 \020\003\301\037\270\200\212"
 2287      81118020 
 2287      1003C11F 
 2287      B8808A
ARM GAS  /tmp/cckdeSuD.s 			page 50


 2288 000f D2081DA7 		.ascii	"\322\010\035\247\224T\347\356\251\252]\246\231n02#\232"
 2288      9454E7EE 
 2288      A9AA5DA6 
 2288      996E3032 
 2288      239A
 2289 0021 E68A6EF3 		.ascii	"\346\212n\363D+z\315gv\364\003\323\306\011\353"
 2289      442B7ACD 
 2289      6776F403 
 2289      D3C609EB 
 2290              		.text
 2291              		.section	.gnu.lto_.lto.fccb243a6486cf8c,"e",%progbits
 2292 0000 09000200 		.ascii	"\011\000\002\000\001\000\000\000"
 2292      01000000 
 2293              		.text
 2294              		.section	.gnu.lto_chSemObjectInit.313.fccb243a6486cf8c,"e",%progbits
 2295 0000 789C7552 		.ascii	"x\234uROH\024q\024~\337\374f\335\365P\220u\350\320A"
 2295      4F481471 
 2295      147EDFFC 
 2295      66DDF550 
 2295      9075E8D0 
 2296 0015 92B00EED 		.ascii	"\222\260\016\355\254\273\34190\250C\320\301\300\243"
 2296      ACBBE139 
 2296      30A843D0 
 2296      C1C0A3
 2297 0024 E8383143 		.ascii	"\35081C\255n\356\030t\362\327Z\004\022\231\026X\213"
 2297      AD6EEE18 
 2297      74F2D75A 
 2297      04129916 
 2297      588B
 2298 0036 FD9321BC 		.ascii	"\375\223!\274E\207J\263l\313\320\304CK\235\003\331C"
 2298      45874AB3 
 2298      6CCBD0C4 
 2298      434B9D03 
 2298      D943
 2299 0048 5887083D 		.ascii	"X\207\010=d`\324{\263\223K\007\007~3\357\275\371\336"
 2299      6460D47B 
 2299      B3934B07 
 2299      077E33EF 
 2299      BDF9DE
 2300 005b F7BDEFCD 		.ascii	"\367\275\357\315<0\210\306\211\250\211\017\024alt\330"
 2300      3C3088C6 
 2300      89A8890F 
 2300      14616C74 
 2300      D8
 2301 006c 20ADF5D1 		.ascii	" \255\365\321\270\201K\243\303\365\230E\230\201\006"
 2301      B8814BA3 
 2301      C3F59845 
 2301      988106
 2302 007b 0D0CE2A6 		.ascii	"\015\014\342\246:\304\351\306\225\342\322<\364T\011"
 2302      3AC4E9C6 
 2302      95E2D23C 
 2302      F45409
 2303 008a 8122BAC7 		.ascii	"\201\"\272\307'\274&\024\306T\240\0003\212\0144r\244"
 2303      27BC2614 
 2303      C654A000 
 2303      338A0C34 
 2303      72A4
ARM GAS  /tmp/cckdeSuD.s 			page 51


 2304 009c 4E537349 		.ascii	"NSsI\353\362\362\264\326\365\024(\205\347\340\036<\003"
 2304      EBF2F2B4 
 2304      D6F51428 
 2304      85E7E01E 
 2304      3C03
 2305 00ae 9E82A4D0 		.ascii	"\236\202\244\320q\247Ap\03653y\371s\20431\363?\316\354"
 2305      71A74170 
 2305      1E353379 
 2305      F9738433 
 2305      31F33FCE 
 2306 00c3 081A88EA 		.ascii	"\010\032\210\352\"EpK\030\003/!\332\352\254\334Ejc\356"
 2306      2245704B 
 2306      18032F21 
 2306      DAEAACDC 
 2306      456A63EE 
 2307 00d7 EACC93C6 		.ascii	"\352\314\223\306\205!}\"P1\274\202`\252,\230\343\221"
 2307      85217D22 
 2307      5031BC82 
 2307      60AA2C98 
 2307      E391
 2308 00e9 631DABBB 		.ascii	"c\035\253\273\031y@\220\345\245\211kq\375^\233\377\220"
 2308      19794090 
 2308      E5A5896B 
 2308      71FD5E9B 
 2308      FF90
 2309 00fb 5443562D 		.ascii	"TCV-\325\211\341/-x\315\265Y\241\222\011P\012U\005\362"
 2309      D589E12F 
 2309      2D78CDB5 
 2309      59A19209 
 2309      500A5505 
 2310 0110 F863ACA4 		.ascii	"\370c\254\2447\377\214h\375a\337\352\346z\"\001\036"
 2310      37FF8C68 
 2310      FD61DFEA 
 2310      E67A2201 
 2310      1E
 2311 0121 356600D3 		.ascii	"5f\000\3230\201\027\014\031Q\262QmB\227\210n(\243\232"
 2311      3081170C 
 2311      1951B251 
 2311      6D429788 
 2311      6E28A39A 
 2312 0135 0C71F20D 		.ascii	"\014q\362\015\2722\276\010y\356\337\272U\212q\372\216"
 2312      BA32BE08 
 2312      79EEDFBA 
 2312      558A71FA 
 2312      8E
 2313 0146 C2AD614C 		.ascii	"\302\255aL*D\233T\241\303G\362-V\367\004\252n\222w\373"
 2313      2A449B54 
 2313      A1C347F2 
 2313      2D56F704 
 2313      AA6E9277 
 2314 015b 36ACA5B8 		.ascii	"6\254\245\270\224\010T\034\363\270+k\271\034b\304%\336"
 2314      9408541C 
 2314      F3B82B6B 
 2314      B91C62C4 
 2314      25DE
 2315 016d 41140A8D 		.ascii	"A\024\012\215<:3\011\365\372\357\353k\225\225\006\236"
 2315      3C3A3309 
ARM GAS  /tmp/cckdeSuD.s 			page 52


 2315      F5FAEFEB 
 2315      6B959506 
 2315      9E
 2316 017e 3E14FA59 		.ascii	">\024\372Y\271\015\274\201\250\025\277\356\214\244b"
 2316      B90DBC81 
 2316      A815BFEE 
 2316      8CA462
 2317 018d 9114BB88 		.ascii	"\221\024\273\210\213\314\002H4\246\370U\002\213,\002"
 2317      8BCC0248 
 2317      34A6F855 
 2317      028B2C02 
 2318 019d 711F1156 		.ascii	"q\037\021V~U\366\326\332\267iZ\342&\243\326T\370\361"
 2318      7E55F6D6 
 2318      DAB7695A 
 2318      E226A3D6 
 2318      54F8F1
 2319 01b0 F0D3CC49 		.ascii	"\360\323\314I\336\245\2544$\231\210W9vly4j\036#\203"
 2319      DEA5AC34 
 2319      24998857 
 2319      39766C79 
 2319      346A1E23 
 2320 01c5 26969986 		.ascii	"&\226\231\206\035N*\223\326PX\271\177<\374\351F\024"
 2320      1D4E2A93 
 2320      D65058B9 
 2320      7F3CFCE9 
 2320      4614
 2321 01d7 AAFB2C94 		.ascii	"\252\373,\224$=l\271}Y\307\362\272\262\271~\317w/xy"
 2321      243D6CB9 
 2321      7D59C7F2 
 2321      BAB2B97E 
 2321      CF772F78 
 2322 01ec D7F1FD8B 		.ascii	"\327\361\375\213V\333\261\366\\\227\355X\331\254\235"
 2322      56DBB1F6 
 2322      5C97ED58 
 2322      D9AC9D
 2323 01fb 39D2D2DA 		.ascii	"9\322\322\332\351;y?MMI\253\315\365\272\275S\355\235"
 2323      E93B793F 
 2323      4D4D49AB 
 2323      CDF5BABD 
 2323      53ED9D
 2324 020e E9543293 		.ascii	"\351T2\223LY}y\253\337\267\362\375\266e\273y'\233\264"
 2324      4C597D79 
 2324      ABDFB7F2 
 2324      FDB665BB 
 2324      79279BB4 
 2325 0222 C9C8E776 		.ascii	"\311\310\347vEq\262\325I\247\273Sg2\204^\345\237\317"
 2325      4571B2D5 
 2325      49A7BB53 
 2325      6732845E 
 2325      E59FCF
 2326 0235 1DDCA6DD 		.ascii	"\035\334\246\335\353\265\317\015\3648Ba\273=I\227\376"
 2326      EBB5CF0D 
 2326      F4384261 
 2326      BB3D4997 
 2326      FE
 2327 0246 02115301 		.ascii	"\002\021S\001\244"
 2327      A4
ARM GAS  /tmp/cckdeSuD.s 			page 53


 2328              		.text
 2329              		.section	.gnu.lto_chSemResetWithMessage.314.fccb243a6486cf8c,"e",%progbits
 2330 0000 789C8D92 		.ascii	"x\234\215\222Yh\023Q\024\206\317\231\233\245q\301\025"
 2330      59681351 
 2330      1486CF99 
 2330      9BA571C1 
 2330      15
 2331 0011 059FE252 		.ascii	"\005\237\342R\212\240\231\332\272\274\252\361E\260("
 2331      8AA099DA 
 2331      BABCAAF1 
 2331      45B028
 2332 0020 46E86369 		.ascii	"F\350ci\307\321\014:M\311D\261O^\0337\372`m]Rj\015X"
 2332      C7D10C3A 
 2332      4DC944B1 
 2332      4F5E1B37 
 2332      FA606D5D 
 2333 0038 F3A020F8 		.ascii	"\363\240 \370d\255ui\264\332\305\205\272<\324\005)\004"
 2333      64AD7569 
 2333      B4DAC585 
 2333      BA3CD405 
 2333      2904
 2334 004a 14318875 		.ascii	"\0241\210uAjI\253\347\336\031\233\012*\016$\367\234"
 2334      416A49AB 
 2334      E7DE199B 
 2334      0A2A0E24 
 2334      F79C
 2335 005c 73FFB3DC 		.ascii	"s\377\263\334\357\336!\006P\212\000\213\001\000\031"
 2335      EFDE2106 
 2335      508A008B 
 2335      010019
 2336 006b 605363BD 		.ascii	"`Sc\275\002\234\363\265^\005\0174\326\373\360&J\017"
 2336      029CF3B5 
 2336      5E050F34 
 2336      D6FBF026 
 2336      4A0F
 2337 007d 61BF82FB 		.ascii	"a\277\202\373\361\004[J\356\310\241\226\321n\344\027"
 2337      F1045B4A 
 2337      EEC8A196 
 2337      D16EE417 
 2338 008d D298A2F4 		.ascii	"\322\230\242\364$\375\344\327\312\260\211\245\030\242"
 2338      24FDE4D7 
 2338      CAB089A5 
 2338      18A2
 2339 009b CBB114F4 		.ascii	"\313\261\024\364\223\305\266AQ\232\363\307/:8\367A\212"
 2339      93C5B641 
 2339      519AF3C7 
 2339      2F3A38F7 
 2339      418A
 2340 00ad 31BC8A94 		.ascii	"1\274\212\224\203\355\210W\2503\005\312\263\263\204"
 2340      83ED8857 
 2340      A83305CA 
 2340      B3B384
 2341 00bc CE80222A 		.ascii	"\316\200\"*\3768\353\350\\x\355w\235\253\374\233\324"
 2341      FE38EBE8 
 2341      5C78ED77 
 2341      9DABFC9B 
 2341      D4
ARM GAS  /tmp/cckdeSuD.s 			page 54


 2342 00cd EDB27539 		.ascii	"\355\262u9G\347\306\353\277\353\334\345|6\200\307\231"
 2342      47E7C6EB 
 2342      BFEBDCE5 
 2342      7C3680C7 
 2342      99
 2343 00de 4CA11469 		.ascii	"L\241\024i#\336B1\243\207\222;\306W\000\035-\311\224"
 2343      23DE4231 
 2343      A387923B 
 2343      C657001D 
 2343      2DC994
 2344 00f1 5F91D6A1 		.ascii	"_\221\326\241\3567n\300.\2121\021c\011)\026\223\217"
 2344      EE376EC0 
 2344      2E8A3111 
 2344      63092916 
 2344      938F
 2345 0103 8CD7BF1A 		.ascii	"\214\327\277\032X\320\312\323\256\024\363\340m\024\245"
 2345      58D0CAD3 
 2345      AE14F3E0 
 2345      6D14A5
 2346 0112 EC667887 		.ascii	"\354fx\207\010x\312\033\347\222\262P(O6\334\274\262"
 2346      0878CA1B 
 2346      E792B250 
 2346      284F36DC 
 2346      BCB2
 2347 0124 AC3BCEFB 		.ascii	"\254;\316\373\370\204\026\362Z\233\221\3506\362\266"
 2347      F88416F2 
 2347      5A9B91E8 
 2347      36F2B6
 2348 0133 C583DD14 		.ascii	"\305\203\335\024L\213jbV\274;y\276\326w\271\031\366"
 2348      4C8B6A62 
 2348      56BC3B79 
 2348      BED677B9 
 2348      19F6
 2349 0145 80AEFC80 		.ascii	"\200\256\374\200\3611\032\260\207bn\310\367\373\360"
 2349      F1311AB0 
 2349      87626EC8 
 2349      F7FBF0
 2350 0154 5FFD3A72 		.ascii	"_\375:r\324\257\217\202\275\023\375\372e?\241\271\374"
 2350      D4AF8F82 
 2350      BD13FDFA 
 2350      653FA1B9 
 2350      FC
 2351 0165 D49DE6B9 		.ascii	"\324\235\346\271\037\015<}d\372\350\371\314\360\321"
 2351      1F0D3C7D 
 2351      64FAE8F9 
 2351      CCF0D1
 2352 0174 429F82D8 		.ascii	"B\237\202\330\201t\314Nt!\336 Q\003\023\257\202\273"
 2352      8174CC4E 
 2352      7421DE20 
 2352      510313AF 
 2352      82BB
 2353 0186 90A7018E 		.ascii	"\220\247\001\2163\305v\342\344\274G\236\371\336\213"
 2353      33C576E2 
 2353      E4BC479E 
 2353      F9DE8B
 2354 0195 62FD3276 		.ascii	"b\3752v\254)q\032\011\242\214&\006}r\373\313\305\344"
 2354      AC29711A 
ARM GAS  /tmp/cckdeSuD.s 			page 55


 2354      09A28C26 
 2354      067D72FB 
 2354      CBC5E4
 2355 01a8 E8FBE773 		.ascii	"\350\373\347s\350\2542|&\333\214\"^\347'\002\342\231"
 2355      E8AC327C 
 2355      26DB8C22 
 2355      5EE72702 
 2355      E299
 2356 01ba 78D06F67 		.ascii	"x\320og\237j\037:\213\004B\312\256\017\371\360\036\302"
 2356      9F6A1F3A 
 2356      8B0442CA 
 2356      AE0FF9F0 
 2356      1EC2
 2357 01cc 47AC5B24 		.ascii	"G\254[$\306l\026\367\270\360\242r\270 \305\274d\272"
 2357      C66C16F7 
 2357      B8F0A272 
 2357      B820C5BC 
 2357      64BA
 2358 01de C4837D88 		.ascii	"\304\203}\210@+>B| \321-\274$\367\013\344\346\200\335"
 2358      402B3E42 
 2358      7C20D12D 
 2358      BC24F70B 
 2358      E4E680DD 
 2359 01f2 65F842B2 		.ascii	"e\370B\262%[\000\202\266\250\373y\354Xs\242\320\036"
 2359      255B0082 
 2359      B6A8FB79 
 2359      EC5873A2 
 2359      D01E
 2360 0204 24314F46 		.ascii	"$1OF\316=\353\332D\254a\030\017\373\341 *)\346K2B\324"
 2360      CE3DEBDA 
 2360      44AC6118 
 2360      0FFBE120 
 2360      2A29E64B 
 2361 021b C69436C6 		.ascii	"\306\2246\306\332\030\241\235\"\023r^\322\304\035\315"
 2361      DA18A19D 
 2361      2213725E 
 2361      D2C41DCD 
 2362 022b D424F38A 		.ascii	"\324$\363\212\3276Mn\215{\035\000\235\002@\217}\204"
 2362      D7364D6E 
 2362      8D7B1D00 
 2362      9D02408F 
 2362      7D84
 2363 023d AE44C26E 		.ascii	"\256D\302n\232y2\270D\256\257\007\345\316\242\211\277"
 2363      9A7932B8 
 2363      44AEAF07 
 2363      E5CEA289 
 2363      BF
 2364 024e CCD7F90E 		.ascii	"\314\327\371\016\242\227YBds\314|\312#\352s\020\301"
 2364      A2975942 
 2364      6473CC7C 
 2364      CA23EA73 
 2364      10C1
 2365 0260 6444FD79 		.ascii	"dD\375yD\367'#r`<\223X&\023\030\026\004\350\376\341"
 2365      44F72723 
 2365      72603C93 
 2365      58261318 
 2365      1604E8FE 
ARM GAS  /tmp/cckdeSuD.s 			page 56


 2366 0275 33B9E7E2 		.ascii	"3\271\347\342O6\210\363\212\257\201\241}\225ui\341."
 2366      4F3688F3 
 2366      8AAF81A1 
 2366      7D957569 
 2366      E12E
 2367 0287 57C31153 		.ascii	"W\303\021SW\215J\263&j\304\302{\015+\254\307b\265jp"
 2367      578D4AB3 
 2367      266AC4C2 
 2367      7B0D2BAC 
 2367      C762B56A 
 2368 029c 43A8A652 		.ascii	"C\250\246R\323U\323\324JW\256X]\021\323\255X\011,\016"
 2368      D355D3D4 
 2368      4A57AE58 
 2368      5D11D3AD 
 2368      58092C0E 
 2369 02b0 A8C1B051 		.ascii	"\250\301\260Qel\016U\224\024\007J\003\305j\304R\243"
 2369      656C0E55 
 2369      9414074A 
 2369      03C56AC4 
 2369      52A3
 2370 02c2 31D58A6A 		.ascii	"1\325\212j\252\026\266t3\240\201b\325\314r\354\300j"
 2370      AA16B674 
 2370      33A08162 
 2370      D5CC72EC 
 2370      C06A
 2371 02d4 BDA4A4AA 		.ascii	"\275\244\244\252xG)`53\255\235E\177I7\252\265\335{\266"
 2371      78472960 
 2371      3533AD9D 
 2371      457F4937 
 2371      AAB5DD7B 
 2372 02e9 EBA244AD 		.ascii	"\353\242D\255\025\010\203\267\252\322\322\267D\215\365"
 2372      150883B7 
 2372      AAD2D2B7 
 2372      448DF5
 2373 02f8 7FD26B11 		.ascii	"\177\322k\021\323\214T\253\372\276\230\272nk\231\032"
 2373      D38C54AB 
 2373      FABE98BA 
 2373      6E6B991A 
 2374 0308 2C0B6D0C 		.ascii	",\013m\014\251\301HTW7\376*cZ\206U\261S\323\250\324"
 2374      A9C14854 
 2374      5737FE2A 
 2374      635A8655 
 2374      B153D3A8 
 2375 031d AA7F94A8 		.ascii	"\252\177\224\250\211Dc\226(\022,\333G\2755\252Q\261"
 2375      89446396 
 2375      28122CDB 
 2375      47BD35AA 
 2375      51B1
 2376 032f 778D4959 		.ascii	"w\215IY3\313B[\375b\010\202\262\314_X\014J\024\274\246"
 2376      33CB425B 
 2376      FD620882 
 2376      B2CC5F58 
 2376      0C4A14BC 
 2377 0344 6E46A2B5 		.ascii	"nF\242\265\360\023\225\375\252M"
 2377      F01395FD 
 2377      AA4D
 2378              		.text
ARM GAS  /tmp/cckdeSuD.s 			page 57


 2379              		.section	.gnu.lto_chSemResetWithMessageI.315.fccb243a6486cf8c,"e",%progbits
 2380 0000 789C7D54 		.ascii	"x\234}T_lSU\030\377\276sno\267\272u\331\214\304\007"
 2380      5F6C5355 
 2380      18FFBE73 
 2380      6E6FB7BA 
 2380      75D98CC4 
 2381 0015 62160D4C 		.ascii	"b\026\015L\037\350\235\033\022\022cB2\337|0\021\222"
 2381      1FE89D1B 
 2381      12126342 
 2381      32DF7C30 
 2381      1192
 2382 0027 3E12E8AA 		.ascii	">\022\350\252m\264[]\257&>q\3506H*IW\266\007\263\340"
 2382      6DB45B5D 
 2382      AF263E71 
 2382      E836482A 
 2382      4957B607 
 2383 003d C4A69AE2 		.ascii	"\304\246\232\342\210\006\021\001A(\352`4\312\346\242"
 2383      88061101 
 2383      4128EA60 
 2383      34CAE6A2 
 2384 004d 0E109D99 		.ascii	"\016\020\235\231\017[\211!7\222\3502%\370}\347\336v"
 2384      0F5B8921 
 2384      3792E832 
 2384      25F87DE7 
 2384      DE76
 2385 005f C5A04D7A 		.ascii	"\305\240Mz\3579\337\371}\277\357\367\375\271G\371\000"
 2385      EF39DFF9 
 2385      7DBFEFF7 
 2385      FDB947F9 
 2385      00
 2386 0070 F20060D3 		.ascii	"\362\000`\323\037M\300\203\271\214\000\245\3246\277"
 2386      1F4DC083 
 2386      B98C00A5 
 2386      D436BF
 2387 007f C0B15CE6 		.ascii	"\300\261\\\346\317\311\217\015<\217\332 q\354X\365\320"
 2387      CFC98F0D 
 2387      3C8FDA20 
 2387      71EC58F5 
 2387      D0
 2388 0090 1083B937 		.ascii	"\020\203\2717\005\235\3149\253[\215\341\\\360\303\354"
 2388      059DCC39 
 2388      AB5B8DE1 
 2388      5CF0C3EC 
 2389 00a0 B0DFF0E1 		.ascii	"\260\337\360\341\336\\f\346\250\320\020\204=B\222i\217"
 2389      DE5C66E6 
 2389      A8D01084 
 2389      3D429269 
 2389      8F
 2390 00b1 30004B06 		.ascii	"0\000K\006s\250\206\332\002\274\337\250|\202\266+\303"
 2390      73A886DA 
 2390      02BCDFA8 
 2390      7C82B62B 
 2390      C3
 2391 00c2 E39353A8 		.ascii	"\343\223S\250\212%,H\200\011\351\035\036\222xP\026$"
 2391      8A252C48 
 2391      8009E91D 
 2391      1E927850 
ARM GAS  /tmp/cckdeSuD.s 			page 58


 2391      1624
 2392 00d4 A2E1AD04 		.ascii	"\242\341\255\004\266\323J\356\200\216\222R\263\327O"
 2392      B6D34AEE 
 2392      808E9252 
 2392      B3D74F
 2393 00e3 29D50805 		.ascii	")\325\010\005)\361$\222\017~\212x\002\201\015\341\321"
 2393      29F12492 
 2393      0F7E8A78 
 2393      02810DE1 
 2393      D1
 2394 00f4 56C6C5A1 		.ascii	"V\306\305\241\203\310g\177\363p\006\236\276\027g\204"
 2394      83C8677F 
 2394      F370069E 
 2394      BE176784 
 2395 0104 2734EE65 		.ascii	"'4\356e\027w\307\303\371\360\314\2758_\270\330\252\325"
 2395      1777C7C3 
 2395      F9F0CCBD 
 2395      385FB8D8 
 2395      AAD5
 2396 0116 C87E7E6E 		.ascii	"\310~~n \260s\364\275}\301\221\275\015\314\372y=\032"
 2396      20B073F4 
 2396      BD7DC191 
 2396      BD0DCCFA 
 2396      793D1A
 2397 0129 20FC492B 		.ascii	" \374I+\025\362\034\272y \273\245\264\033i^\271\261"
 2397      15F21CBA 
 2397      7920BBA5 
 2397      B41B695E 
 2397      B9B1
 2398 013b FFEAF1CD 		.ascii	"\377\352\361\315\027\006\325\2642\012\322\304\022\271"
 2398      1706D5B4 
 2398      320AD2C4 
 2398      12B9
 2399 0149 A2E78A17 		.ascii	"\242\347\212\027\310=\374G\033AM\275\341\243/P\307}"
 2399      C83DFC47 
 2399      1B414DBD 
 2399      E1A32F50 
 2399      C77D
 2400 015b 47BF386B 		.ascii	"G\2778kg\346\270\363+\252\266\202\364\343\227\365\336"
 2400      67E6B8F3 
 2400      2BAAB682 
 2400      F4E397F5 
 2400      DE
 2401 016c 5F51EDFC 		.ascii	"_Q\355\374\341J[5\322\354\265\017\016\370\3358.\022"
 2401      E14A5B35 
 2401      D2ECB50F 
 2401      0EF8DD38 
 2401      2E12
 2402 017e D6906E6D 		.ascii	"\326\220nmM\256\374\302\0138E\266\363L\365\177*\241"
 2402      4DAEFCC2 
 2402      0B3845B6 
 2402      F34CF57F 
 2402      2AA1
 2403 0190 5E2590C0 		.ascii	"^%\220\300K\264\276\250\005\222AP\276d\371h\316WR\177"
 2403      4BB4BEA8 
 2403      05924150 
 2403      BE64F968 
ARM GAS  /tmp/cckdeSuD.s 			page 59


 2403      CE57527F 
 2404 01a4 DFCDAAD2 		.ascii	"\337\315\252\322\376\346\311\251E\347\362\2066\344R"
 2404      FEE6C9A9 
 2404      45E7F286 
 2404      36E452
 2405 01b3 087E90D4 		.ascii	"\010~\220\324\317\320\207x\012uy\270\322\376\000=\314"
 2405      CFD08778 
 2405      0A7579B8 
 2405      D2FE003D 
 2405      CC
 2406 01c4 26C4B318 		.ascii	"&\304\263\030d\306\026\336\002d%8\253\305\255\250J\000"
 2406      64C616DE 
 2406      02642538 
 2406      ABC5ADA8 
 2406      4A00
 2407 01d6 2352E8F5 		.ascii	"#R\350\365 \255o\242Z\274VF\375\376\251\274N\277\027"
 2407      20AD6FA2 
 2407      5ABC5646 
 2407      FDFEA9BC 
 2407      4EBF17
 2408 01e9 DCFDA3B5 		.ascii	"\334\375\243\265\307\242\023\370\227a%\000\2670}\266"
 2408      C7A213F8 
 2408      97612500 
 2408      B7307DB6 
 2409 01f9 22F35278 		.ascii	"\"\363Rx\203\344\346\372>\317\342rsA6\344\251\351\227"
 2409      83E4E6FA 
 2409      3ECFE272 
 2409      734136E4 
 2409      A9E997
 2410 020c 113A7934 		.ascii	"\021:y4\271\245e|[\017\341ML\037n!\261\344\251\251\376"
 2410      B9A5657C 
 2410      5B0FE14D 
 2410      4C1F6E21 
 2410      B1E4A9A9 
 2411 0221 A268C435 		.ascii	"\242h\3045^i\256\271\213\373\270\177\355\272\347\245"
 2411      5E69AEB9 
 2411      8BFBB87F 
 2411      EDBAE7A5 
 2412 0231 D45E77CA 		.ascii	"\324^w\312\\\263\021)s\303\363\227d-\225\273e\301dc"
 2412      5CB31129 
 2412      73C3F397 
 2412      642D95BB 
 2412      65C16463 
 2413 0245 19A26FAC 		.ascii	"\031\242o\254\362\025;\326\370\310\346Q6\342\025\242"
 2413      F2153BD6 
 2413      F8C8E651 
 2413      36E215A2 
 2414 0255 2496A16A 		.ascii	"$\226\241jL?\316\240\326\327N\375#\177f\274}:;\2614"
 2414      4C3FCEA0 
 2414      D6D74EFD 
 2414      237F66BC 
 2414      7D3A3BB1 
 2415 026a FD20B545 		.ascii	"\375 \265E\363\037[z\013q\032\335\344\203y\031\364\222"
 2415      F31F5B7A 
 2415      0B711ADD 
 2415      E4837919 
 2415      F492
ARM GAS  /tmp/cckdeSuD.s 			page 60


 2416 027c F77BC953 		.ascii	"\367{\311S\261\0339\322\267\256\362\345u\334\3539\212"
 2416      B11B39D2 
 2416      B7AEF2E5 
 2416      75DCEB39 
 2416      8A
 2417 028d 23C0A548 		.ascii	"#\300\245H\037~\232\232B\216\232\356\304\322\303\232"
 2417      1F7E9A9A 
 2417      428E9AEE 
 2417      C4D2C39A 
 2418 029d EAC8C6BC 		.ascii	"\352\310\306\274l\361\250\3145\252\000\341\360\273\232"
 2418      6CF1A8CC 
 2418      35AA00E1 
 2418      F0BB9A
 2419 02ac E8E54758 		.ascii	"\350\345GX\365\367\304&\231\215M\305\215\354\360C-\000"
 2419      F5F7C426 
 2419      998D4DC5 
 2419      8DECF043 
 2419      2D00
 2420 02be 9139996F 		.ascii	"\2219\231o\344\375\264\0245\367\325*\224\002j\011']"
 2420      E4FDB414 
 2420      35F7D52A 
 2420      94026A09 
 2420      275D
 2421 02d0 09E395F5 		.ascii	"\011\343\225\365uQ[\352\242\026\203\034\365z}\324\345"
 2421      75515BEA 
 2421      A216831C 
 2421      F57A7DD4 
 2421      E5
 2422 02e1 8798EA47 		.ascii	"\207\230\352G2\031.\225.\325\342\031\242\242\014\235"
 2422      32192E95 
 2422      2ED5E219 
 2422      A2A20C9D 
 2423 02f1 776FCFEF 		.ascii	"wo\317\357\240\351\347\217\300\255&\315588\324\236\227"
 2423      A0E9E78F 
 2423      C0AD26CD 
 2423      353838D4 
 2423      9E97
 2424 0303 8121A442 		.ascii	"\201!\244B?0A\032\250\225\304\334\244\203\037y\246\326"
 2424      3F30411A 
 2424      A895C4DC 
 2424      A4831F79 
 2424      A6D6
 2425 0315 7B4B0B08 		.ascii	"{K\013\010\324\011\240^5\343\317\024\214\356U-\350)"
 2425      D409A05E 
 2425      35E3CF14 
 2425      8CEE552D 
 2425      E829
 2426 0327 BE4F16C8 		.ascii	"\276O\026\310`2I\223\236\003\203\257@\303\233\203\364"
 2426      60324993 
 2426      9E0383AF 
 2426      40C39B83 
 2426      F4
 2427 0338 36D00366 		.ascii	"6\320\003fz\243r\000I\016\005\032<\264\217\254|\300"
 2427      7AA37200 
 2427      490E051A 
 2427      3CB48FAC 
 2427      7CC0
ARM GAS  /tmp/cckdeSuD.s 			page 61


 2428 034a 8536105D 		.ascii	"\2056\020]y\014E\250\340\320\215\236\274\333\003C\337"
 2428      790C45A8 
 2428      E0D08D9E 
 2428      BCDB0343 
 2428      DF
 2429 035b 3AB08A26 		.ascii	":\260\212&M\251\2702\277\236\354\362\326|/\005\362\325"
 2429      4DA9B832 
 2429      BF9EECF2 
 2429      D67C2F05 
 2429      F2D5
 2430 036d 3E9DDF31 		.ascii	">\235\3371\375\313\350s\032\230\225\250\315\351\022"
 2430      FDCBE873 
 2430      1A9895A8 
 2430      CDE912
 2431 037c EF3659B1 		.ascii	"\3576Y\261\376D\324\212\357J$\007\342v\354\365x*\026"
 2431      FE44D48A 
 2431      EF4A2407 
 2431      E276ECF5 
 2431      782A16
 2432 038f B5ED37AC 		.ascii	"\265\3557\254\236g\267'wE\242V\"\021\351\336\374\344"
 2432      9E67B727 
 2432      7745A256 
 2432      2211E9DE 
 2432      FCE4
 2433 03a1 969D7634 		.ascii	"\226\235v4ew\301c!\253'\026\337\035\177~\373\316\256"
 2433      6577C163 
 2433      21AB2716 
 2433      DF1D7F7E 
 2433      FBCEAE
 2434 03b4 CE5077A8 		.ascii	"\316Pw\250\323\352OY\003\266\225\032\210X\221X*\232"
 2434      D3EA4F59 
 2434      03B6951A 
 2434      88589158 
 2434      2A9A
 2435 03c6 084540A4 		.ascii	"\010E@\244\222\255\336:\264%\332\325\265\273\363\305"
 2435      92ADDE3A 
 2435      B425DAD5 
 2435      B5BBF3C5 
 2436 03d6 6EC03E99 		.ascii	"n\300>\231H\275$#}\266\260\223\217\377\007K\274/\362"
 2436      48BD2423 
 2436      7DB6B093 
 2436      8FFF074B 
 2436      BC2FF2
 2437 03e9 CA6BBD51 		.ascii	"\312k\275Qf\212\304zC1\220\366\253\311\177\000\275\326"
 2437      668AC47A 
 2437      433190F6 
 2437      ABC97F00 
 2437      BDD6
 2438 03fb 0144     		.ascii	"\001D"
 2439              		.text
 2440              		.section	.gnu.lto_chSemWait.316.fccb243a6486cf8c,"e",%progbits
 2441 0000 789C8D53 		.ascii	"x\234\215S]H\024Q\024>g\356\270*Q\030EBO\253e\022\324"
 2441      5D481451 
 2441      143E67EE 
 2441      B82A5118 
 2441      45424FAB 
 2442 0017 8EAE59AF 		.ascii	"\216\256Y\257\325\366\"$\205\033\370(:M\355@\343\312"
ARM GAS  /tmp/cckdeSuD.s 			page 62


 2442      D5F62224 
 2442      851BF828 
 2442      3A4DED40 
 2442      E3CA
 2443 0029 CE26FAE4 		.ascii	"\316&\372\344\250e\340\203\177\241+\266-\026F\321\203"
 2443      A865E083 
 2443      7FA12BB6 
 2443      2D1646D1 
 2443      83
 2444 003a 0559995A 		.ascii	"\005Y\231Zm\231fE\364C`?\210P\030\242\204\366#\211\024"
 2444      6D996645 
 2444      F443603F 
 2444      885018A2 
 2444      84F62389 
 2445 004f 75EE9DCD 		.ascii	"u\356\235\315\335\240\242\227\271w\276\373\235\357|"
 2445      DDA0A297 
 2445      B977BEFB 
 2445      9DEF7C
 2446 005e E7BB3343 		.ascii	"\347\2733C\014 \027\0016\001\0002\300\266\326F\011,"
 2446      0C201701 
 2446      36010032 
 2446      C0B6D646 
 2446      092C
 2447 0070 CBDA992C 		.ascii	"\313\332\231,amk\343\327\336>\031\007Q\000\0105\022"
 2447      616D6BE3 
 2447      D7DE3E19 
 2447      07510008 
 2447      3512
 2448 0082 D6E04916 		.ascii	"\326\340I\026f\330\306z\210,\307v\210\316\315DY<\336"
 2448      66D8C67A 
 2448      882CC776 
 2448      88CECD44 
 2448      593CDE
 2449 0095 353985E1 		.ascii	"59\205\341\013Q\271\207I\020!\302U\304>\022\007 \";"
 2449      0B51B987 
 2449      491021C2 
 2449      55C43E12 
 2449      0720223B 
 2450 00a9 00D951CB 		.ascii	"\000\331Q\313zz\253\337\262R\241\2071\274\216\011\034"
 2450      7A7AABDF 
 2450      B252A187 
 2450      31BC8E09 
 2450      1C
 2451 00ba 028AE7D2 		.ascii	"\002\212\347\322l\246\316\237Y\2448?}\256aUKm\012\351"
 2451      6CA6CE9F 
 2451      59A4383F 
 2451      7DAE6155 
 2451      4B6D0AE9 
 2452 00ce E10DFC4D 		.ascii	"\341\015\374M\261x)\315\0018\200\274\017\200D\005\016"
 2452      B17829CD 
 2452      013880BC 
 2452      0F804405 
 2452      0E
 2453 00df A03DE210 		.ascii	"\240=\342\020\362j\007U\367/\270\201\314G\310L\014\011"
 2453      F26A0755 
 2453      F72FB881 
 2453      CC47C84C 
ARM GAS  /tmp/cckdeSuD.s 			page 63


 2453      0C09
 2454 00f1 4F0C4F25 		.ascii	"O\014O%\001\336$\214\211N\355\202\314}-.5\276y\262>"
 2454      01DE248C 
 2454      894EED82 
 2454      CC7D2D2E 
 2454      35BE79B2 
 2455 0106 6C71F332 		.ascii	"lq\3632\336F.e7\303(\022T\334\272\226\233\342\314\226"
 2455      DE462E65 
 2455      37C32812 
 2455      54DCBA96 
 2455      9BE2CC96 
 2456 011a E69B57B7 		.ascii	"\346\233W\267\014\327[c\3262\027\342\\{Z\336m\361}\227"
 2456      0CD75B63 
 2456      D63217E2 
 2456      5C7B5ADE 
 2456      6DF17D97 
 2457 012e 03EF1078 		.ascii	"\003\357\020x\213\253\001\371\303\273\211\376\302\323"
 2457      8BAB01F9 
 2457      C3BB89FE 
 2457      C2D3
 2458 013c 97D36D83 		.ascii	"\227\323m\203r\334`\375w2x\217\260$\210\367\373\360"
 2458      72DC60FD 
 2458      7732788F 
 2458      B02488F7 
 2458      FBF0
 2459 014e 5FFDFABF 		.ascii	"_\375\372\277Q\277Q\002G\226\373\335\027\375\210\203"
 2459      51BF5102 
 2459      4796FBDD 
 2459      17FD8883 
 2460 015e 14D5A5E7 		.ascii	"\024\325\245\347IQ\353\333\217f+zb\345\344H\333\217"
 2460      4951EBDB 
 2460      8F662B7A 
 2460      62E5E448 
 2460      DB8F
 2461 0170 5E892E19 		.ascii	"^\211.\031\373Q\0269B3\343\027o\311hE\001Z\230d\277"
 2461      FB511639 
 2461      4233E317 
 2461      6FC96845 
 2461      015A9864 
 2462 0185 D4D3CB0C 		.ascii	"\324\323\313\014Zo\237=B\261\276X\301\227\317\013Mm"
 2462      5A6F9F3D 
 2462      42B1BE58 
 2462      C197CF0B 
 2462      4D6D
 2463 0197 A10EA424 		.ascii	"\241\016\244$\005\030\032O\025\254\317g\"K3/\327\320"
 2463      05181A4F 
 2463      15ACCF67 
 2463      224B332F 
 2463      D7D0
 2464 01a9 C0023E35 		.ascii	"\300\002>5\333\211\034\257sR\014\374C\221\321iW\267"
 2464      DB891CAF 
 2464      73520CFC 
 2464      4391D169 
 2464      57B7
 2465 01bb 5F9B3C8D 		.ascii	"_\233<\215\224\206\240\015N\246\3420\302\034\326er\257"
 2465      9486A00D 
 2465      4EA6E230 
ARM GAS  /tmp/cckdeSuD.s 			page 64


 2465      C21CD665 
 2465      72AF
 2466 01cd 1DFC3233 		.ascii	"\035\37423\316K\015t\355I\264\225\371\247\371\020\201"
 2466      CE4B0D74 
 2466      ED49B495 
 2466      F9A7F910 
 2466      81
 2467 01de 567C84F8 		.ascii	"V|\204\370@\344\227qQ\234;\304\341c\273\313|w\244k6"
 2467      40E49771 
 2467      519C3BC4 
 2467      E163BBCB 
 2467      7C77A46B 
 2468 01f3 0578E45C 		.ascii	"\005x\344\\\367\323BSg(\3136\022Z'\2203W&\366R\3400"
 2468      F7D34253 
 2468      6728CB36 
 2468      125A2790 
 2468      335726F6 
 2469 020a 8FC7BAF3 		.ascii	"\217\307\272\363\3162\371\030J=,9\302(\252\263\214\266"
 2469      CE32F918 
 2469      4A3D2C39 
 2469      C228AAB3 
 2469      8CB6
 2470 021c 29B6D901 		.ascii	")\266\331\001\2443Q\370\312\236\232\306\035\340\343"
 2470      A43351F8 
 2470      CA9E9AC6 
 2470      1DE0E3
 2471 022b DEB30DDF 		.ascii	"\336\263\015\337\016\2050\226\312\370F\261N\214\213"
 2471      0E853096 
 2471      CAF846B1 
 2471      4E8C8B
 2472 023a 93CCE5C7 		.ascii	"\223\314\345\307\333/\351\261@^\317R #v\341\307x \243"
 2472      DB2FE9B1 
 2472      405ECF52 
 2472      202376E1 
 2472      C77820A3 
 2473 024e B1402031 		.ascii	"\261@ 1\220\373\361@\306\022\003\211\215\376T\204\220"
 2473      90FBF140 
 2473      C6120389 
 2473      8DFE5484 
 2473      90
 2474 025f 38EF3C9F 		.ascii	"8\357<\237w46o\367\273\011\376\263\302'\254\353\316"
 2474      7734366F 
 2474      F7BB09FE 
 2474      B3C227AC 
 2474      EBCE
 2475 0271 E71300BF 		.ascii	"\347\023\000\277T\264\357\261.\312_\267*>\277\241)z"
 2475      54B4EFB1 
 2475      2ECA5FB7 
 2475      2A3EBFA1 
 2475      297A
 2476 0283 A95111D0 		.ascii	"\251Q\021\320\203\276J\335\364i\301`\265\342\331\343"
 2476      83BE4ADD 
 2476      F469C160 
 2476      B5E2D9E3 
 2477 0293 AD285535 		.ascii	"\255(U5\3050\324\274m\271\333K\202\232\031t\303\006"
 2477      C530D4BC 
 2477      6DB9DB4B 
ARM GAS  /tmp/cckdeSuD.s 			page 65


 2477      829A1974 
 2477      C306
 2478 02a5 97E2F1E9 		.ascii	"\227\342\361\351e\372>o\211;\307\225\347\312Q\374\246"
 2478      65FA3E6F 
 2478      893BC795 
 2478      E7CA51FC 
 2478      A6
 2479 02b6 12082A66 		.ascii	"\022\010*f@UT\237\251\031.\025$\263bul\357\332\256\271"
 2479      4055549F 
 2479      A9192E15 
 2479      24B36275 
 2479      6CEFDAAE 
 2480 02cb DD653987 		.ascii	"\335e9\207\362\200\031\346\341\354\277\024\353\345\352"
 2480      F28019E6 
 2480      E1ECBF14 
 2480      EBE5EA
 2481 02da 91A30735 		.ascii	"\221\243\0075.Pm\272|\220\\Vjj\373\003\372\356?\361"
 2481      2E506DBA 
 2481      7C905C56 
 2481      6A6AFB03 
 2481      FAEE3FF1 
 2482 02ee 55BF61F8 		.ascii	"U\277a\370\313\025\255*\250\354**T<\205\336\002\257"
 2482      CB15AD2A 
 2482      A8EC2A2A 
 2482      543C85DE 
 2482      02AF
 2483 0300 E2F10734 		.ascii	"\342\361\0074\245\340\227\214a\352f\311aU%\251\374\177"
 2483      A5E0978C 
 2483      61EA66C9 
 2483      615525A9 
 2483      FC7F
 2484 0312 4854F803 		.ascii	"HT\370\003A\223\213x\012\253\250\267J\032%\225;\014"
 2484      41938B78 
 2484      0AABA8B7 
 2484      4A1A2595 
 2484      3B0C
 2485 0324 AA4A2BF4 		.ascii	"\252J+\364\0269\271\011\212d\2133+\007\244\000$\033"
 2485      1639B909 
 2485      8A648B33 
 2485      2B07A400 
 2485      241B
 2486 0336 9AE10F54 		.ascii	"\232\341\017T\303O\214\025\244z"
 2486      C34F8C15 
 2486      A47A
 2487              		.text
 2488              		.section	.gnu.lto_chSemWaitS.317.fccb243a6486cf8c,"e",%progbits
 2489 0000 789C6D90 		.ascii	"x\234m\220Ah\023Q\020\206g\336\274l\266\205\006\275"
 2489      41681351 
 2489      108667DE 
 2489      BC6CB685 
 2489      06BD
 2490 0012 7A123D14 		.ascii	"z\022=\024\017\356\306Ds\023*\365\356\241\202\307\322"
 2490      0FEEC644 
 2490      73132AF5 
 2490      EEA182C7 
 2490      D2
 2491 0023 2E2BBB87 		.ascii	".+\273\207\245!\273\010\236\362Lb\017\025IS\305\203"
ARM GAS  /tmp/cckdeSuD.s 			page 66


 2491      A521BB08 
 2491      9EF24C62 
 2491      0F154953 
 2491      C583
 2492 0035 C40A6191 		.ascii	"\304\012a\221\236\024\245\305\264\025]\020OJ\021\257"
 2492      9E14A5C5 
 2492      B4155D10 
 2492      4F4A11AF 
 2493 0045 628522D8 		.ascii	"b\205\"\330\212\224\"\010\"\212\316\333\215\026\304"
 2493      8A942208 
 2493      228ACEDB 
 2493      8D16C4
 2494 0054 076FDECC 		.ascii	"\007o\336\314\274\377\233y\3636\021\300\003\2003\274"
 2494      BCFF9B79 
 2494      F33611C0 
 2494      038033BC 
 2495 0064 3107B8D0 		.ascii	"1\007\270\320\231\023\240\224\032\313\013\321\354\\"
 2495      9913A094 
 2495      1ACB0BD1 
 2495      EC5C
 2496 0072 13B88A2F 		.ascii	"\023\270\212/~\276\034\222\255Na\275\261\\\221\2047"
 2496      7EBE1C92 
 2496      AD4E61BD 
 2496      B15C9184 
 2496      37
 2497 0083 CDEC5EE2 		.ascii	"\315\354^\342\225\316p\352!\324\005I\254\343\015\352"
 2497      95CE70EA 
 2497      21D40549 
 2497      ACE30DEA 
 2498 0093 122E504C 		.ascii	"\022.PL\200r\340!\036>\306\242oWo_\377\210\335\245D"
 2498      8072E021 
 2498      1E3EC6A2 
 2498      6F576F5F 
 2498      FF88DDA5 
 2499 00a8 C6246091 		.ascii	"\306$`\221\005+\210\313\334\033\200\205t\036F\023\245"
 2499      052B88CB 
 2499      DC1B8085 
 2499      741E4613 
 2499      A5
 2500 00b9 5E3FEB2B 		.ascii	"^?\353+5\0041\021>\306}\015\366\221S\027V\016\000\030"
 2500      35043111 
 2500      3EC67D0D 
 2500      F6915317 
 2500      560E0018 
 2501 00cd 90B2AB0C 		.ascii	"\220\262\253\014j\366\301\233\\\242~\374j+\365\356\003"
 2501      6AF6C19B 
 2501      5CA27EFC 
 2501      6A2BF5EE 
 2501      03
 2502 00de DE1F1DE6 		.ascii	"\336\037\035\346n}\224\\@\030ld^\033S\033\2006\351W"
 2502      6E7D945C 
 2502      40186C64 
 2502      5E1B531B 
 2502      8036E957 
 2503 00f2 2B892A01 		.ascii	"+\211*\001\230'\221\005M\016>\241\332\272\273q\013u"
 2503      98279105 
 2503      4D0E3EA1 
ARM GAS  /tmp/cckdeSuD.s 			page 67


 2503      DABABB71 
 2503      0B75
 2504 0104 55ED3FDC 		.ascii	"U\355?\334H\317#\177\315\326\243\302?\211\265\002\354"
 2504      48CF237F 
 2504      CDD6A3C2 
 2504      3F89B502 
 2504      EC
 2505 0115 62E3C9CE 		.ascii	"b\343\311\316H\217\214\301\234\204z\220{\310e\315\230"
 2505      488F8CC1 
 2505      9C847A90 
 2505      7BC865CD 
 2505      98
 2506 0126 723D4EAC 		.ascii	"r=N\254!\024\263\320\300u\274Cz\330]lvgO\367(\317\244"
 2506      2114B3D0 
 2506      C075BC43 
 2506      7AD85D6C 
 2506      76674FF7 
 2507 013d C60CACEB 		.ascii	"\306\014\254\353R{s\247\376\320\333#\377\301\237f8s"
 2507      527B73A7 
 2507      FED0DB23 
 2507      FFC19F66 
 2507      3873
 2508 014f B083ADB7 		.ascii	"\260\203\255\267\317\017\261\227\341\220\256y\242\245"
 2508      CF0FB197 
 2508      E190AE79 
 2508      A2A5
 2509 015d CFEF5F41 		.ascii	"\317\357_A:\320\036\312\036\231-\0241\345\027\371]\214"
 2509      3AD01ECA 
 2509      1E992D14 
 2509      31E517F9 
 2509      5D8C
 2510 016f B1D44C65 		.ascii	"\261\324Ler\177\356/\330\030\343+\376\033\370\236\022"
 2510      727FEE2F 
 2510      D818E32B 
 2510      FE1BF89E 
 2510      12
 2511 0180 04BAA440 		.ascii	"\004\272\244@\020\233_\267M\375\035m\302L\337Ht\227"
 2511      109B5FB7 
 2511      4DFD1D6D 
 2511      C24CDF48 
 2511      7497
 2512 0192 E3B63713 		.ascii	"\343\2667\023\270\266?\025Tk~\344]\362C\317\215\242"
 2512      B8B63F15 
 2512      546B7EE4 
 2512      5DF243CF 
 2512      8DA2
 2513 01a4 CBF6F8D9 		.ascii	"\313\366\370\331\211\352\224\343\332A\340\224O\236\250"
 2513      89EA94E3 
 2513      DA41E094 
 2513      4F9EA8
 2514 01b3 4C466E18 		.ascii	"LFn\030\225\340\250e\217{\376\264\177nb\262T\264\312"
 2514      95E0A865 
 2514      8F7BFEB4 
 2514      7F6E62B2 
 2514      54B4CA
 2515 01c6 56D19E09 		.ascii	"V\321\236\011\355Zd\2075\307v\274\320\015,\007DX=8\360"
 2515      ED5A6487 
ARM GAS  /tmp/cckdeSuD.s 			page 68


 2515      35C776BC 
 2515      D00D2C07 
 2515      44583D38 
 2516 01db AD8A5B2A 		.ascii	"\255\212[*M\027/\226\3417J\312\273\034"
 2516      4D172F96 
 2516      E1374ACA 
 2516      BB1C
 2517              		.text
 2518              		.section	.gnu.lto_chSemWaitTimeout.318.fccb243a6486cf8c,"e",%progbits
 2519 0000 789C8D53 		.ascii	"x\234\215S[H\024Q\030\376\3779{\321\207\312(\012zi\273"
 2519      5B481451 
 2519      18FEFF39 
 2519      7BD187CA 
 2519      280A7A69 
 2520 0015 9804B563 		.ascii	"\230\004\265cn\027z\253\266\227 )\334\300G\321ir\007"
 2520      6E177AAB 
 2520      B6972029 
 2520      DCC047D1 
 2520      697207
 2521 0028 9AD676C6 		.ascii	"\232\326v\306\310\247F\355\002\025l\032\264b\353b&\324"
 2521      C8A746ED 
 2521      02156C1A 
 2521      B462EB62 
 2521      26D4
 2522 003a 5B115ADE 		.ascii	"[\021Z\336\322-\273\330\015\253\027#\013K\350\202&n"
 2522      D22DBBD8 
 2522      0DAB1723 
 2522      0B4BE882 
 2522      266E
 2523 004c D98374A1 		.ascii	"\331\203t\241\376sfs7\250\350e\316\231\377|\377\367"
 2523      FE736673 
 2523      37A8E865 
 2523      CE99FF7C 
 2523      FFF7
 2524 005e 7DFF7766 		.ascii	"}\377wf>0\200\215\010\260\002\000\220\001\326\327\035"
 2524      3E30808D 
 2524      08B00200 
 2524      9001D6D7 
 2524      1D
 2525 006f 97C0B2AC 		.ascii	"\227\300\262\254Mn\011\253\353\216\017\365\2669\360"
 2525      4D6E09AB 
 2525      EB8E0FF5 
 2525      B639F0
 2526 007e 3A8A02C2 		.ascii	":\212\002\302!\011\017\341i\026cX\317Z\011\354H\355"
 2526      21090FE1 
 2526      69166358 
 2526      CF5A09EC 
 2526      48ED
 2527 0090 103D2B09 		.ascii	"\020=+\0112}\244q\370\035\306.&\034\255L\2028\001\332"
 2527      327DA471 
 2527      F81DC62E 
 2527      261CAD4C 
 2527      823801DA 
 2528 00a4 11DB881C 		.ascii	"\021\333\210\034\200\200l\027\344%,\353\361\243\016"
 2528      80806C17 
 2528      E4252CEB 
 2528      F1A30E
ARM GAS  /tmp/cckdeSuD.s 			page 69


 2529 00b3 CBCA8656 		.ascii	"\313\312\206V\306\360\032f`\250P\\\235\303q\232\215"
 2529      C6F01A66 
 2529      60A8505C 
 2529      9DC3719A 
 2529      8D
 2530 00c4 9B4CE11C 		.ascii	"\233L\341\034\330\371;\316Q|2\307f\334\317\237\271\244"
 2530      D8F93BCE 
 2530      517C32C7 
 2530      66DCCF9F 
 2530      B9A4
 2531 00d6 9C7C71E1 		.ascii	"\234|q\341\350\354S\325Y\244\213\335\370\233rqC\216"
 2531      E8EC53D5 
 2531      59A48BDD 
 2531      F89B7271 
 2531      438E
 2532 00e8 0BB007B9 		.ascii	"\013\260\007\271\037\000\211\032\\@{\304^\344\335.\352"
 2532      1F00891A 
 2532      5C407BC4 
 2532      5EE4DD2E 
 2532      EA
 2533 00f9 EE98F401 		.ascii	"\356\230\364\001\015\031'\323\251Jl\242\377\215\023"
 2533      0D1927D3 
 2533      A94A6CA2 
 2533      FF8D13
 2534 0108 B08F6A4C 		.ascii	"\260\217jL(5\0110\3675\335xbxpQ\314\342C:\361\006r*"
 2534      28350930 
 2534      F735DD78 
 2534      62787051 
 2534      CCE2433A 
 2535 0120 5B0C6F22 		.ascii	"[\014o\"\225\212\353\346sS\034y9r\275}U\177\2555`\315"
 2535      958AEBE6 
 2535      73531C79 
 2535      3972BD7D 
 2535      557FAD35 
 2536 0136 60218DB5 		.ascii	"`!\215\265S\341j\323o\033]\330O\305\004g\003\362\207"
 2536      53E16AD3 
 2536      6F1B5DD8 
 2536      4FC50467 
 2536      03F287
 2537 0149 B732FDC5 		.ascii	"\2672\375\305\3367/\266\015:\322\006k\277\223\301;T"
 2537      DE372FB6 
 2537      0D3AD206 
 2537      6BBF93C1 
 2537      3B54
 2538 015b 73425A6F 		.ascii	"sBZo\342\277\364:\276\221\336\000\025\357\316\350\335"
 2538      E2BFF43A 
 2538      BE91DE00 
 2538      15EFCEE8 
 2538      DD
 2539 016c 137A8441 		.ascii	"\023z\204A\212\352\322Sg\302\372\366#b%\216\315\032"
 2539      8AEAD253 
 2539      67C2FAF6 
 2539      2362258E 
 2539      CD1A
 2540 017e 3E369A1C 		.ascii	">6\232\034\317\313\222\020;\220&\355B\247\010\023\""
 2540      CFCB9210 
 2540      3B9026ED 
ARM GAS  /tmp/cckdeSuD.s 			page 70


 2540      42A70813 
 2540      22
 2541 018f 8C7F2596 		.ascii	"\214\177%\226\003\255\004\300)&\331/\265\3642\206\326"
 2541      03AD04C0 
 2541      2926D92F 
 2541      B5F43286 
 2541      D6
 2542 01a0 68E7208A 		.ascii	"h\347 \212\265g\016_\246\332#\365\3213Hq\212bt([\240"
 2542      B5670E5F 
 2542      A6DA23F5 
 2542      D1334871 
 2542      8A627428 
 2543 01b6 A65EC7BF 		.ascii	"\246^\307\277\214=\233GS\213\362\331\361\006\344\365"
 2543      8C3D9B47 
 2543      538BF2D9 
 2543      F106E4F5 
 2544 01c6 1A0F65C1 		.ascii	"\032\017e\301\277*'z\354\3563WG\232\220\"\021\260\356"
 2544      BF2A277A 
 2544      ECEE3357 
 2544      479A9022 
 2544      11B0EE
 2545 01d9 916CBC8D 		.ascii	"\221l\274\2150\2115K\271\3418\277\321%\227\244\243t"
 2545      3089354B 
 2545      B9E138BF 
 2545      D12597A4 
 2545      A374
 2546 01eb F72EDA3A 		.ascii	"\367.\332:\370w\374\020\201V|\204\370@\204\270\344\212"
 2546      F877FC10 
 2546      81567C84 
 2546      F84084B8 
 2546      E48A
 2547 01fd 38778BC3 		.ascii	"8w\213\303A[%\371*\3368\236\005<w\316\373\251=\322\020"
 2547      415B25F9 
 2547      2ADE389E 
 2547      053C77CE 
 2547      FBA93DD2 
 2548 0212 CDB58D44 		.ascii	"\315\265\215D\027\210\312\271\251\257\333)uH\342\221"
 2548      1788CAB9 
 2548      A9AFDB29 
 2548      7548E291 
 2549 0222 665F0B73 		.ascii	"f_\013s\036F\251\225e\305\031\345\325\302\244\026F\026"
 2549      1E46A995 
 2549      65C519E5 
 2549      D5C2A416 
 2549      4616
 2550 0234 B36DBF3D 		.ascii	"\263m\277=H\307\242\367\211=8M\334\305'\276c{\356\213"
 2550      48C7A2F7 
 2550      893D384D 
 2550      DCC527BE 
 2550      637BEE8B 
 2551 0248 466D95D1 		.ascii	"Fm\225\321'C\313\305\372rH\234,\235y\214~^\230\312\344"
 2551      2743CBC5 
 2551      FA72489C 
 2551      2C9D798C 
 2551      7E5E98CA 
 2552 025d F9386572 		.ascii	"\3718er\327n\374\230\316d \225\011dfr/\235\311\375\314"
 2552      D76EFC98 
ARM GAS  /tmp/cckdeSuD.s 			page 71


 2552      CE642095 
 2552      09646672 
 2552      2F9DC9FD 
 2553 0272 4C52D33F 		.ascii	"LR\323?\0259d\216\234\344#\017\244Fn>\377\235\377\334"
 2553      1539648E 
 2553      9CE4230F 
 2553      A4466E3E 
 2553      FF9DFFDC 
 2554 0286 F0096B9A 		.ascii	"\360\011k\232\327\361\011\200\337+\332WY\223\340\257"
 2554      D7F10980 
 2554      DF2BDA57 
 2554      5993E0AF 
 2555 0296 ABE56048 		.ascii	"\253\345`HWe\255T\257\010kf\360\200f\004U\323\254\222"
 2555      5765AD54 
 2555      AF086B66 
 2555      F0806604 
 2555      55D3AC92 
 2556 02aa FD5B0315 		.ascii	"\375[\003\025\245\212*\353\272\342[\273f}\211\251\032"
 2556      A58A2AEB 
 2556      BAE25BBB 
 2556      667D89A9 
 2556      1A
 2557 02bb 66012CF3 		.ascii	"f\001,\363\312\376\240V\246\355\010\224\024\344{}\336"
 2557      CAFEA056 
 2557      A6ED0894 
 2557      14E47B7D 
 2557      DE
 2558 02cc 7C3964C8 		.ascii	"|9d\310aS6\302\212\254\004\015U\367* \031\025sS{\357"
 2558      615336C2 
 2558      8AAC040D 
 2558      55F72A20 
 2558      19157353 
 2559 02e2 7AB5A0A0 		.ascii	"z\265\240\240,\177\217\017\334\246\246\253\241J\223"
 2559      2C7F8F0F 
 2559      DCA6A6AB 
 2559      A14A93
 2560 02f1 E94679DE 		.ascii	"\351Fy\336_H\264}\312\336\312\335*'\2522\274Ap\227\225"
 2560      5F48B47D 
 2560      CADECADD 
 2560      2A27AA32 
 2560      BC417097 
 2561 0306 1AEACEB0 		.ascii	"\032\352\316\260\266\345Ox%\244\353\241}\262z\320\224"
 2561      B6E54F78 
 2561      25A4EBA1 
 2561      7DB27AD0 
 2561      94
 2562 0317 371715CA 		.ascii	"7\027\025\312\376\302\300\266\200\354\017\205Uy\333"
 2562      FEC2C0B6 
 2562      80EC0F85 
 2562      5579DB
 2563 0326 2F1ADDD0 		.ascii	"/\032\335\320\214\222rE!\252u\377\240\250\010\205M\203"
 2563      8C927245 
 2563      21AA75FF 
 2563      A0A80885 
 2563      4D83
 2564 0338 93F80B0F 		.ascii	"\223\370\013\017\222\266B\034%\0076\350\324\225S\030"
 2564      92B6421C 
ARM GAS  /tmp/cckdeSuD.s 			page 72


 2564      250736E8 
 2564      D4955318 
 2565 0348 28F27013 		.ascii	"(\362p\023\024\315*On>Hap\353\252\036\012W\301O>L\264"
 2565      14CD2A4F 
 2565      6E3E4861 
 2565      70EBAA1E 
 2565      0A57C14F 
 2566 035f 98       		.ascii	"\230"
 2567              		.text
 2568              		.section	.gnu.lto_chSemWaitTimeoutS.319.fccb243a6486cf8c,"e",%progbits
 2569 0000 789C6D91 		.ascii	"x\234m\221MHTQ\024\307\317\271\347\276\017\313\017r"
 2569      4D485451 
 2569      14C7CFB9 
 2569      E7BE0FCB 
 2569      0F72
 2570 0012 15AE2289 		.ascii	"\025\256\"\211h\321\274i,W\011\202\355[\030\270\024"
 2570      68D1BC69 
 2570      2C570982 
 2570      ED5B18B8 
 2570      14
 2571 0023 6778316F 		.ascii	"gx1o18\314\274\202Vs\363ka\013}V\0321ILCH\021m\032\234"
 2571      3138CCBC 
 2571      825673F3 
 2571      6B610B7D 
 2571      561A3149 
 2572 003e 4983012B 		.ascii	"I\203\001+*Hl\242 \212@79\022\"\201 \022\324\275\357"
 2572      2A486CA2 
 2572      208A4037 
 2572      39122281 
 2572      2012D4BD 
 2573 0053 8D63840F 		.ascii	"\215c\204\017\336y\347\236\367\373\237\257{\233\001"
 2573      DE79E79E 
 2573      F7FB9FAF 
 2573      7B9B01
 2574 0062 2401202A 		.ascii	"$\001 *_4\000\247\274q\006B\210n\203\261a\357\006\303"
 2574      5F3400A7 
 2574      BC710642 
 2574      886E83B1 
 2574      61EF06C3 
 2575 0076 05BCF56D 		.ascii	"\005\274\365m\266\215\217y\315?\037\254\236\340\304"
 2575      B68D8F79 
 2575      CD3F1FAC 
 2575      9EE0C4
 2576 0085 46BCC38F 		.ascii	"F\274\303\217F_3>\3525\177\336-uq\216\323\336\370\217"
 2576      465F333E 
 2576      EA357FDE 
 2576      2D75718E 
 2576      D3DEF88F 
 2577 0099 77E77D91 		.ascii	"w\347}\221\206\323f \327\361\272w\310\367\0202\214\270"
 2577      86D36620 
 2577      D7F1BA77 
 2577      C8F71032 
 2577      8CB8
 2578 00ab A663066F 		.ascii	"\246c\006oR\226p\212\362\004\310k\036\342\261S\022\333"
 2578      5296708A 
 2578      F204C86B 
 2578      1EE2B153 
ARM GAS  /tmp/cckdeSuD.s 			page 73


 2578      12DB
 2579 00bd 19BD7BA7 		.ascii	"\031\275{\247\212\331\2712\317\023\203Y\011\024\020"
 2579      8AD9B932 
 2579      CF138359 
 2579      091410
 2580 00cc 9FA1EC0A 		.ascii	"\237\241\354\012$H\227\340dY\210\225\345\242\020\015"
 2580      244897E0 
 2580      64598895 
 2580      E5A2100D 
 2581 00dc 9027C279 		.ascii	"\220'\302y\334g\260\2102\324WjQ\244\023\220;5\222c\351"
 2581      DC67B088 
 2581      32D4576A 
 2581      51A41390 
 2581      3B359263 
 2582 00f1 5FF2B924 		.ascii	"_\362\271$y\337\253\026\000\035\374*\013\262\204\252"
 2582      79DFAB16 
 2582      001DFC2A 
 2582      0BB284AA 
 2583 0101 F2B4A295 		.ascii	"\362\264\242\225\305\357?\023B\274?\372}Fkd(Y\331\\"
 2583      C5EF3F13 
 2583      42BC3FFA 
 2583      7D466B64 
 2583      2859D95C 
 2584 0115 11B9CCC2 		.ascii	"\021\271\314\302ti4C\031S\031\200\011Rc\012\216\242"
 2584      74693443 
 2584      19531980 
 2584      0952630A 
 2584      8EA2
 2585 0127 0C30492C 		.ascii	"\0140I,8\014\313\303\006\212\265Be\032Uj\345\317W\374"
 2585      380CCBC3 
 2585      068AB542 
 2585      651A556A 
 2585      E5CF57FC 
 2586 013b EFF1BA59 		.ascii	"\357\361\272Y+\266\376\027Xi\205M\034Z\2546\345H\257"
 2586      2BB6FE17 
 2586      5869854D 
 2586      1C5AAC36 
 2586      E548AF
 2587 014e AD8550CD 		.ascii	"\255\205P\315\375\020eZ3OzN\006\026\021\302\301\321"
 2587      FD10655A 
 2587      334F7A4E 
 2587      061611C2 
 2587      C1D1
 2588 0160 C017788F 		.ascii	"\300\027x\217\324n6q8;\326\225#C*\225\314\300\214J\265"
 2588      D46E3671 
 2588      383BD695 
 2588      23432A95 
 2588      CCC08C4A 
 2589 0175 357E6E4F 		.ascii	"5~nO\275\336t\200\274\034\310\245\016\2528\362u\251"
 2589      BDDE7480 
 2589      BC1CC8A5 
 2589      0EAA38F2 
 2589      75A9
 2590 0187 4D7A811C 		.ascii	"Mz\201\034\374g\222\350\376\352\366\007\254\017\364"
 2590      FC6792E8 
 2590      FEEAF607 
 2590      AC0FF4
ARM GAS  /tmp/cckdeSuD.s 			page 74


 2591 0196 B1C214B9 		.ascii	"\261\302\024\271\276\024\315\021S$\257\223|\256\360"
 2591      BE14CD11 
 2591      5324AF93 
 2591      7CAEF0
 2592 01a5 C4AC839F 		.ascii	"\304\254\203\237*\0244\260\215\365\016\032\017\350\340"
 2592      2A1434B0 
 2592      8DF50E1A 
 2592      0FE8E0
 2593 01b4 E55E07BA 		.ascii	"\345^\007\272/\373R!?\231\266\363\370\315\333\240\354"
 2593      2FFB5221 
 2593      3F99B6F3 
 2593      F8CDDBA0 
 2593      EC
 2594 01c5 166A3932 		.ascii	"\026j92G\220\345\311\234\225\353\220,\311\342yj\360"
 2594      4790E5C9 
 2594      9C95EB90 
 2594      2CC9E279 
 2594      6AF0
 2595 01d7 497D7FE3 		.ascii	"I}\177\343\277p\250[\376\3452\276\213\\u\3070\3037\332"
 2595      BF70A85B 
 2595      FEE532BE 
 2595      8B5C75C7 
 2595      30C337DA 
 2596 01eb E50DC80C 		.ascii	"\345\015\310\014\032\207 \004ly\246j\252k\231 \014\324"
 2596      1A872004 
 2596      6C79A66A 
 2596      AA6B9920 
 2596      0CD4
 2597 01fd 436535C3 		.ascii	"Ce5\303i+>\230\260-g \221L9n\374\252\223\216\333\256"
 2597      692B3E98 
 2597      B02D6720 
 2597      914C396E 
 2597      FCAA938E 
 2598 0213 7BCDEAB9 		.ascii	"{\315\352\271\320\233\034\210\331V\"\021\3538{\246\263"
 2598      D09B1C88 
 2598      D9562211 
 2598      EB387BA6 
 2598      B3
 2599 0224 DFB5D36E 		.ascii	"\337\265\323n\004\332CVO\334\211:\027{\373#\341PG(l"
 2599      04DA4356 
 2599      4FDC893A 
 2599      177BFB23 
 2599      E1504728 
 2600 0239 0DA6AD94 		.ascii	"\015\246\255\224k\245S1+\026O\333\211P\014X:y\244\346"
 2600      6BA55331 
 2600      2B164FDB 
 2600      89500C58 
 2600      3A79A4E6 
 2601 024d 873AED48 		.ascii	"\207:\355H$\032\276\334\001\206\353$\354\301+\356_\303"
 2601      241ABEDC 
 2601      0186EB24 
 2601      ECC12BEE 
 2601      5FC3
 2602 025f C10479   		.ascii	"\301\004y"
 2603              		.text
 2604              		.section	.gnu.lto_chSemSignal.320.fccb243a6486cf8c,"e",%progbits
 2605 0000 789C8D54 		.ascii	"x\234\215ToL[U\024\277\347\335GK\331`St\232\305\030"
ARM GAS  /tmp/cckdeSuD.s 			page 75


 2605      6F4C5B55 
 2605      14BFE7DD 
 2605      474BD960 
 2605      53749AC5 
 2606 0015 36656832 		.ascii	"6eh2y\010l~0&*\032\263\017D3f\370d\010t\3256\261km\353"
 2606      79086C7E 
 2606      30262A1A 
 2606      B30F4433 
 2606      66F86408 
 2607 0030 323EED59 		.ascii	"2>\355Y`\03240\330f\221\177q\265\233\370\311\030d\342"
 2607      601A3430 
 2607      D866917F 
 2607      71B59BF8 
 2607      C91864E2 
 2608 0044 60D00D15 		.ascii	"`\320\015\025\246\033c\303PE\347\224\011\343Od\005\366"
 2608      A61B63C3 
 2608      5045E794 
 2608      09E34F64 
 2608      05F6
 2609 0056 812C2CF3 		.ascii	"\201,,\363\234{_\377\270\340\264I\337\275\367\274s~"
 2609      9C7B5FFF 
 2609      B8E0B449 
 2609      DFBDF7BC 
 2609      737E
 2610 0068 E777CEB9 		.ascii	"\347w\316\271\2777fb\3545`\354%\306\030\2440hl\250U"
 2610      BF376662 
 2610      EC3560EC 
 2610      25C618A4 
 2610      30686CA8 
 2611 007d 98AEEBCF 		.ascii	"\230\256\353\317\232\025\245\252\341}\005\276\206\205"
 2611      9A15A5AA 
 2611      E17D05BE 
 2611      8685
 2612 008b 9B1DEBD5 		.ascii	"\233\035\353\325\352\206\214\372\232\210\246r8\034\367"
 2612      EA868CFA 
 2612      9A88A672 
 2612      381CF7
 2613 009a 50E19D86 		.ascii	"P\341\235\206Z\013z\210\023\260\375\012Wa?\034\342\217"
 2613      5A0B7A88 
 2613      13B0FD0A 
 2613      57613F1C 
 2613      E28F
 2614 00ac A361B9A6 		.ascii	"\243a\271\246y\370,\350\035a\010q\306\332\361/~\255"
 2614      79F82CE8 
 2614      1D610871 
 2614      C6DAF12F 
 2614      7EAD
 2615 00be 1C1A7988 		.ascii	"\034\032y\210\003\250\306N\201,\334\361],'\254\353#"
 2615      03A8C64E 
 2615      812CDCF1 
 2615      5D2C27AC 
 2615      EB23
 2616 00d0 FDDDBA6E 		.ascii	"\375\335\272na!\316\341+\300\0308\001\320\205\354\320"
 2616      6121CEE1 
 2616      2BC01838 
 2616      01D085EC 
 2616      D0
ARM GAS  /tmp/cckdeSuD.s 			page 76


 2617 00e1 507A2B83 		.ascii	"Pz+\2031\223\201\3041D\354\001N\002a\232(\343\215B\206"
 2617      319381C4 
 2617      3144EC01 
 2617      4E02619A 
 2617      28E38D42 
 2618 00f6 64DAB912 		.ascii	"d\332\271\022\263\264\376\\u\013k\352A\033'\033o\020"
 2618      B3B4FE5C 
 2618      750B6BEA 
 2618      411B271B 
 2618      6F10
 2619 0108 CE946979 		.ascii	"\316\224iy\261\366\227\013\033[\365\260\032B\322\247"
 2619      B1F6970B 
 2619      1B5BF5B0 
 2619      1A42D2A7 
 2620 0118 80A06432 		.ascii	"\200\240d2\350C\306ji\303}\350\231M\236\313u\177um\035"
 2620      E843C66A 
 2620      69C37DE8 
 2620      994D9ECB 
 2620      757F756D 
 2621 012d A8D287F4 		.ascii	"\250\322\207\364\270/K\370\312\232([\367J\263\011\372"
 2621      B82F4BF8 
 2621      CA9A285B 
 2621      F74AB309 
 2621      FA
 2622 013e D1D84B68 		.ascii	"\321\330Kh\304\025\3021~\274Q\220\022x\343\215\375\235"
 2622      C415C231 
 2622      7EBC5190 
 2622      1278E38D 
 2622      FD9D
 2623 0150 85A70DBC 		.ascii	"\205\247\015\274\0248\203\336j\014o\000\361J?\315\024"
 2623      143883DE 
 2623      6A0C6F00 
 2623      F14A3FCD 
 2623      14
 2624 0161 E5D1815E 		.ascii	"\345\321\201^}#\021\372\224\030\367h_g\364*\350\367"
 2624      7D2311FA 
 2624      9418F768 
 2624      5F67F42A 
 2624      E8F7
 2625 0173 86B809BE 		.ascii	"\206\270\011\276M\216\376\016\231\233J\2333c\231F\026"
 2625      4D8EFE0E 
 2625      999B4A9B 
 2625      33639946 
 2625      16
 2626 0184 CE7D6096 		.ascii	"\316}`\226y\244'Kx&x/_\337\005\203 [\247\336\215%Kf"
 2626      79A4274B 
 2626      7826782F 
 2626      5FDF0583 
 2626      205BA7DE 
 2627 019c 89F5C159 		.ascii	"\211\365\301Y\334\017\201A\220\240z\247\247\217s\211"
 2627      DC0F8141 
 2627      90A07AA7 
 2627      A78F7389 
 2628 01ac 949218C2 		.ascii	"\224\222\030\302\300$\016\341\007\264\231X\242\247\247"
 2628      C0240EE1 
 2628      07B49958 
 2628      A2A7A7
ARM GAS  /tmp/cckdeSuD.s 			page 77


 2629 01bb FE574F97 		.ascii	"\376WO\227\247\260\247\347\321x.\336\323a\321S\364\001"
 2629      A7B0A7E7 
 2629      D1782EDE 
 2629      D361D153 
 2629      F401
 2630 01cd CCFFF9A5 		.ascii	"\314\377\371\245\224\260\276r\273^\017\277\233><\323"
 2630      94B0BE72 
 2630      BB5E0FBF 
 2630      9B3E3CD3 
 2631 01dd 181956D6 		.ascii	"\030\031V\326\341 \273\261{!n6\323#\025\037&\013qM\303"
 2631      E120BBB1 
 2631      7B216E36 
 2631      D323151F 
 2631      260B714D 
 2632 01f2 5D0A63F5 		.ascii	"]\012c\365\234n\257\256\202\036f\354 W\344\241\012\017"
 2632      9C6EAFAE 
 2632      821E66EC 
 2632      2057E4A1 
 2632      0A0F
 2633 0204 B3A04F7C 		.ascii	"\263\240O|1\012\264n\216?&\276\314\244ei\262\2561\360"
 2633      310AB46E 
 2633      8E3F26BE 
 2633      CCA46569 
 2633      B2AE31F0 
 2634 0218 216019C2 		.ascii	"!`\031\302\030\210X\204\377\322B\333\315\331\2372\221"
 2634      18885884 
 2634      FFD242DB 
 2634      CDD99F32 
 2634      91
 2635 0229 9E30B7CC 		.ascii	"\2360\267\3145\001\331\375YH\232n\267\012Y2\372\310"
 2635      3501D9FD 
 2635      59489A6E 
 2635      B70A5932 
 2635      FAC8
 2636 023b 892B6D80 		.ascii	"\211+m\200\334\205[\317\025\013\\\000v\035\374\233\251"
 2636      DC855BCF 
 2636      150B5C00 
 2636      761DFC9B 
 2636      A9
 2637 024c 92330A56 		.ascii	"\2223\012V\273iT9\220\032\342\251\270UI\213\027\201"
 2637      BB695439 
 2637      901AE2A9 
 2637      B855498B 
 2637      1781
 2638 025e E10A9700 		.ascii	"\341\012\227\000FD{7\215\211\367\026\361\362G\231%\032"
 2638      46447B37 
 2638      8D89F716 
 2638      F1F24799 
 2638      251A
 2639 0270 6D6B9E4B 		.ascii	"mk\236Ke\324 \302]\234\254k\012dK\"\201\015\302r\264"
 2639      65D420C2 
 2639      5D9CAC6B 
 2639      0A644B22 
 2639      810DC272 
 2640 0285 B3A518C7 		.ascii	"\263\245\030\307qGI\275\231l\036\374\2753\351An2d\310"
 2640      714749BD 
 2640      996C1EFC 
ARM GAS  /tmp/cckdeSuD.s 			page 78


 2640      BD33E941 
 2640      6E3264C8 
 2641 0299 4592E324 		.ascii	"E\222\343$e\314\222\026D\303\030\260<y\\\003\021h\023"
 2641      65CC9216 
 2641      44C318B0 
 2641      3C795C03 
 2641      116813
 2642 02ac 0A9E87AA 		.ascii	"\012\236\207\252\326\003\317\004\271\031#)l\015\000"
 2642      D603CF04 
 2642      B9192329 
 2642      6C0D00
 2643 02bb 41456BB7 		.ascii	"AEk\267\305\242\247\323W\011\037\227\341\030\307f\240"
 2643      C5A2A7D3 
 2643      57091F97 
 2643      E118C766 
 2643      A0
 2644 02cc FAD7818D 		.ascii	"\372\327\201\215\270\223\341\362\253p\220\363\367\""
 2644      B893E1F2 
 2644      AB7090F3 
 2644      F722
 2645 02da 837E888F 		.ascii	"\203~\210\217\241\177T!\334\303\265\020\024-\221\320"
 2645      A17F5421 
 2645      DCC3B510 
 2645      142D91D0 
 2646 02ea 390968B4 		.ascii	"9\011h\264\031\350k\3412\242#P\265\360Q\350\256\377"
 2646      19E86BE1 
 2646      32A22350 
 2646      B5F051E8 
 2646      AEFF
 2647 02fc 169BC220 		.ascii	"\026\233\302 \305\213\011t\035[\231\032\312\304\353"
 2647      C58B0974 
 2647      1D5B991A 
 2647      CAC4EB
 2648 030b 2AF06F4F 		.ascii	"*\360oO5\001|\017\262\015\031An1\332`2\332\200We-e\372"
 2648      35017C0F 
 2648      B20D1941 
 2648      6E31DA60 
 2648      32DA8057 
 2649 0323 5D1631BD 		.ascii	"]\0261\275\2014\360\007\346Q\230\204\360\177\3744^)"
 2649      8134F007 
 2649      E6519884 
 2649      F07FFC34 
 2649      5E29
 2650 0335 0C147087 		.ascii	"\014\024p\207\256=(\240>\333\022\344i\006TJ\002\012"
 2650      AE3D28A0 
 2650      3EDB12E4 
 2650      6906544A 
 2650      020A
 2651 0347 FB6C81AB 		.ascii	"\373l\201\253q\322\323\017\023\353?\021\215\023\032"
 2651      71D2D30F 
 2651      13EB3F11 
 2651      8D131A
 2652 0356 993AB650 		.ascii	"\231:\266P\300d<\201\350\351y\276\032\227\016\201}-"
 2652      C0643C81 
 2652      E8E979BE 
 2652      1A970E81 
 2652      7D2D
ARM GAS  /tmp/cckdeSuD.s 			page 79


 2653 0368 E68A0905 		.ascii	"\346\212\011\005\205#\222B\363\314CIY\323\222\262vd"
 2653      85239242 
 2653      F3CC4349 
 2653      59D392B2 
 2653      7664
 2654 037a 50D699E4 		.ascii	"P\326\231\344\254\323\367\023\324,\232T\011%Z5\361\021"
 2654      ACD3F713 
 2654      D42C9A54 
 2654      09255A35 
 2654      F111
 2655 038c 42D1ED3A 		.ascii	"B\321\355:\272\324\362*^\036\3728\310n\242\336Y\024"
 2655      BAD4F22A 
 2655      5E1EFA38 
 2655      C86EA2DE 
 2655      5914
 2656 039e 6AB2B0D5 		.ascii	"j\262\260\325\330\346\214v\034'\316\324B\325\232)\343"
 2656      D8E68C76 
 2656      1C27CED4 
 2656      42D59A29 
 2656      E3
 2657 03af 3A314AF5 		.ascii	":1J\365\237\212\032\225\212B\001\235$\001\365\310\001"
 2657      9F8A1A95 
 2657      8A42019D 
 2657      2401F5C8 
 2657      01
 2658 03c0 F40702F2 		.ascii	"\364\007\002\362\322N\\\214<*\326\313\221;\257\351\215"
 2658      D24E5C8C 
 2658      3C2AD6CB 
 2658      913BAFE9 
 2658      8D
 2659 03d1 070C898D 		.ascii	"\007\014\211\215\317\241\304ze\340BBb\375\206\304X\262"
 2659      CFA1C47A 
 2659      65E04242 
 2659      62FD86C4 
 2659      58B2
 2660 03e3 C4C20989 		.ascii	"\304\302\011\211\235N\226\230!\246y!\253d\005EIA\370"
 2660      9D4E9698 
 2660      21A67921 
 2660      AB640545 
 2660      4941F8
 2661 03f6 D9668B54 		.ascii	"\331f\213T\362'm/\222^\350W\317AV\342\017\323\361\011"
 2661      F2276D2F 
 2661      925EE857 
 2661      CF4156E2 
 2661      0FD3F109 
 2662 040a CDEE72DA 		.ascii	"\315\356r\3324G\271\323\355q\370\354{\035^\273\315\347"
 2662      3447B9D3 
 2662      ED71F8EC 
 2662      7B1D5EBB 
 2662      CDE7
 2663 041c ABD48A5E 		.ascii	"\253\324\212^(q\227[m\232\323i-(|r{\231\317\346\365"
 2663      2871975B 
 2663      6D9AD369 
 2663      2D287C72 
 2663      7B99CFE6 
 2664 0431 E5B34772 		.ascii	"\345\263Gr\265\"\273\243\302\361rIY~^nAn\236\346\362"
 2664      B522BBA3 
ARM GAS  /tmp/cckdeSuD.s 			page 80


 2664      C2F17249 
 2664      597E5E6E 
 2664      416E9EE6 
 2665 0446 6A1E9FE6 		.ascii	"j\036\237\346\365X5\253\335ks\346Z\231\342u\337c\354"
 2665      F55835AB 
 2665      DD6B73E6 
 2665      5A99E275 
 2665      DF63EC
 2666 0459 73B7DBF2 		.ascii	"s\267\333\362\363+\362^/`9\377\022\350\330c}\363\355"
 2666      F32BF25E 
 2666      2F6039FF 
 2666      12E8D863 
 2666      7DF3ED
 2667 046c DD360AAE 		.ascii	"\3356\012\256\364\346\332\231\271\242\334k{\305\343"
 2667      F4E6DA99 
 2667      B9A2DC6B 
 2667      7BC5E3
 2668 047b 787E357F 		.ascii	"x~5\177\253\313\351t\355\321l\373|\332s;\213\265\242"
 2668      ABCBE974 
 2668      EDD16CFB 
 2668      7CDA733B 
 2668      8BB5A2
 2669 048e E2921D25 		.ascii	"\342\222\035%Z\221\313c\323v\304`\234^\207\267\354\015"
 2669      5A91CB63 
 2669      D376C460 
 2669      9C5E87B7 
 2669      EC0D
 2670 04a0 AB15A1B6 		.ascii	"\253\025\241\266\335\005\302\355\362\370\274\004RT\274"
 2670      DD05C2ED 
 2670      F2F8BC04 
 2670      5254BC
 2671 04af 0F735B11 		.ascii	"\017s[\021\243l\357SN\214R|\356\307\376\233\253\325"
 2671      A36CEF53 
 2671      4E8C527C 
 2671      EEC7FE9B 
 2671      ABD5
 2672 04c1 BE1B7DB9 		.ascii	"\276\033}\271\357-\367\372\342\222\235YD\032\333\267"
 2672      EF2DF7FA 
 2672      E2929D59 
 2672      441ADBB7 
 2673 04d1 352B3B8F 		.ascii	"5+;\217)\036fv\332\234.O%\373\033\011\256\256\017"
 2673      291E6676 
 2673      DA9C2E4F 
 2673      25FB1B09 
 2673      AEAE0F
 2674              		.text
 2675              		.section	.gnu.lto_chSemSignalI.321.fccb243a6486cf8c,"e",%progbits
 2676 0000 789C6D50 		.ascii	"x\234mP=h\024A\024~\337\276\271\313\245H\320\346\012"
 2676      3D681441 
 2676      147EDFBE 
 2676      B9CBA548 
 2676      D0E60A
 2677 0013 2BD14244 		.ascii	"+\321BD\3349\3574\235\020\210\326\026\021-C\262\254"
 2677      DC39EF34 
 2677      9D1088D6 
 2677      16112D43 
 2677      B2AC
ARM GAS  /tmp/cckdeSuD.s 			page 81


 2678 0025 EC164B8E 		.ascii	"\354\026K\216\333E\260\312xw\021\271\024\227K\324B\342"
 2678      DB45B0CA 
 2678      787711B9 
 2678      14974BD4 
 2678      42E2
 2679 0037 15C722E9 		.ascii	"\025\307\"\351\004As\376r`\241vb\2214\026\022\024\214"
 2679      044173FE 
 2679      7260A176 
 2679      62913416 
 2679      12148C
 2680 004a 45885622 		.ascii	"E\210V\"B|\273\233(\210\0033\363\276\367\336\367\315"
 2680      427CBB9B 
 2680      28880333 
 2680      F3BEF7DE 
 2680      F7CD
 2681 005c FBE62188 		.ascii	"\373\346!\210<\":/\0339\302R\247e\2211f|\310\262\032"
 2681      3C223A2F 
 2681      1B39C252 
 2681      A7659131 
 2681      667CC8B2 
 2682 0071 9D050B4F 		.ascii	"\235\005\013O\360\355\347\352\001\325\354\214\266\347"
 2682      F0EDE7EA 
 2682      01D5EC8C 
 2682      B6E7
 2683 007f 37B462DC 		.ascii	"7\264b\334*du\205\353\235\326\260\324S\004\232\263X"
 2683      2A647585 
 2683      EB9DD6B0 
 2683      D453049A 
 2683      B358
 2684 0091 610ECB7C 		.ascii	"a\016\313|\\\022?\346\357\356\276\205Y\035 f\242\256"
 2684      5C123FE6 
 2684      EFEEBE85 
 2684      591D2066 
 2684      A2AE
 2685 00a3 EC74AD30 		.ascii	"\354t\2550\2268f@\355E\026\016K\304\027\351\330\300"
 2685      96386640 
 2685      ED45160E 
 2685      4BC417E9 
 2685      D8C0
 2686 00b5 98776FFA 		.ascii	"\230wo\372\306\014S\314\2145\010\007\217\201G \364E"
 2686      C60C53CC 
 2686      8C350807 
 2686      8F814720 
 2686      F445
 2687 00c7 842FAF8D 		.ascii	"\204/\257\215\022\345S-yS\206\025\271\007\357s\003\363"
 2687      12E5532D 
 2687      79538615 
 2687      B907EF73 
 2687      03F3
 2688 00d9 6BB76DCC 		.ascii	"k\267m\314\347O\350\236(\210p\037J\004T.9\210\332\234"
 2688      E74FE89E 
 2688      2888701F 
 2688      4A04542E 
 2688      3988DA9C 
 2689 00ed CC6A14CC 		.ascii	"\314j\024\314\200h\221\255\0144\004|\205\331\\^/\246"
 2689      806891AD 
 2689      0C34047C 
ARM GAS  /tmp/cckdeSuD.s 			page 82


 2689      85D95C5E 
 2689      2FA6
 2690 00ff F7ED7524 		.ascii	"\367\355u$\367\221?\307\346\235\342?\211n\221\266Q\177"
 2690      F7913FC7 
 2690      E69DE23F 
 2690      896E91B6 
 2690      517F
 2691 0111 BE35D2E3 		.ascii	"\2765\322\343\375\321\031\211\235\373\211\375B\314\271"
 2691      FDD11989 
 2691      9DFB89FD 
 2691      42CCB9
 2692 0120 9E249E82 		.ascii	"\236$\236\202J\031\314\343\031\356\245\256\267\321X"
 2692      4A19CCE3 
 2692      19EEA5AE 
 2692      B7D158
 2693 012f B971B697 		.ascii	"\271q\266\2274\250\204\226\007\022\251\235\326\231}"
 2693      34A88496 
 2693      0712A99D 
 2693      D6997D
 2694 013e F69791FF 		.ascii	"\366\227\221\377\320_ft\341\321\026\232\037^\035\222"
 2694      D05F6674 
 2694      E1D1169A 
 2694      1F5E1D92 
 2695 014e 28A3673F 		.ascii	"(\243g?\271\310|s\343u\035\251\231\0351\335\204\025"
 2695      B9C87C73 
 2695      E3751DA9 
 2695      991D31DD 
 2695      8415
 2696 0160 F35057A6 		.ascii	"\363PW\246\022\2224\026\322&\365\327\361w\324?\276\270"
 2696      12923416 
 2696      D226F5D7 
 2696      F177D43F 
 2696      BEB8
 2697 0172 9492DB8C 		.ascii	"\224\222\333\214,_\037$\360\244\366f\003W\373\323A\265"
 2697      2C5F1F24 
 2697      F0A4F666 
 2697      0357FBD3 
 2697      41B5
 2698 0184 E647DE55 		.ascii	"\346G\336U?\364\334(\272\246'\316MV\247\035W\007\201"
 2698      3FF4DC28 
 2698      BAA627CE 
 2698      4D56A71D 
 2698      570781
 2699 0197 53397D6A 		.ascii	"S9}jl*r\303\250LGm=\341\3713\376\205\311\251r\311\256"
 2699      6C2A72C3 
 2699      A84C476D 
 2699      3DE1F933 
 2699      FE85C9A9 
 2700 01ae D8253D1B 		.ascii	"\330%=\033\352Z\244\303\232\243\035/t\003\333!+\254"
 2700      EA5AA4C3 
 2700      9AA31D2F 
 2700      7403DB21 
 2700      2BAC
 2701 01c0 1EDC8BED 		.ascii	"\036\334\213\3551\267\\\236)]\251\320o\0127\260\367"
 2701      31B75C9E 
 2701      295DA9D0 
 2701      6F0A37B0 
ARM GAS  /tmp/cckdeSuD.s 			page 83


 2701      F7
 2702              		.text
 2703              		.section	.gnu.lto_chSemAddCounterI.322.fccb243a6486cf8c,"e",%progbits
 2704 0000 789C7D54 		.ascii	"x\234}Toh[U\024?\347\335\367'm\354k\2658\375 R\0247"
 2704      6F685B55 
 2704      143FE7DD 
 2704      F7276DEC 
 2704      6BB538FD 
 2705 0018 079A57DB 		.ascii	"\007\232W\333Z\006\202\014\352\367}\230\020\374 c\315"
 2705      5A06820C 
 2705      EAF77D98 
 2705      10FC2063 
 2705      CD
 2706 0029 3212345B 		.ascii	"2\0224[l2\301O}\246\211\205:M\323\271\351\342V5\004"
 2706      6C32C14F 
 2706      7DA68985 
 2706      3A4DD3B9 
 2706      E9E25635 
 2707 003e 8D088A16 		.ascii	"\215\010\212\026\335\237\266[\3466\235l\325ReQ\\U*l"
 2707      DD9FB65B 
 2707      E6369D6C 
 2707      D5526551 
 2707      5C552A6C 
 2708 0052 AD1F46DC 		.ascii	"\255\037F\334\366a\226A=\347\336\327\327\014\246\017"
 2708      F6619641 
 2708      3DE7DED7 
 2708      D70CA60F 
 2709 0062 F2DEB9E7 		.ascii	"\362\336\271\347\236\337\357w\3569\347f\213\001P\004"
 2709      9EDFEF77 
 2709      EE39E766 
 2709      8B015004 
 2710 0072 8037E887 		.ascii	"\2007\350\207\001\300\261\302\210\006\256\353n\2664"
 2710      01C0B1C2 
 2710      8806AEEB 
 2710      6EB634
 2711 0081 3C40364E 		.ascii	"<@6N\242\\\011-[\010\376\275\\i\323s\005;\237\2539\272"
 2711      A25C092D 
 2711      5B08FEBD 
 2711      5C69D373 
 2711      053B9FAB 
 2712 0097 8EFBFD58 		.ascii	"\216\373\375X\003\017|\336,-S\033*\274\316\250\271\372"
 2712      030F7CDE 
 2712      2C2D531B 
 2712      2ABCCEA8 
 2712      B9FA
 2713 00a9 F2267DB8 		.ascii	"\362&}\270`\177\232\317Y\272\205\257\026F\024\021\302"
 2713      607F9ACF 
 2713      59BA85AF 
 2713      16461411 
 2713      C2
 2714 00ba A02674C3 		.ascii	"\240&t\303\264pP3\001\253:\256\320c\371\006x\317>\261"
 2714      B4705033 
 2714      01AB3AAE 
 2714      D063F906 
 2714      78CF3EB1 
 2715 00ce 91E26FE6 		.ascii	"\221\342o\346\212\323\347\321\255T\261,\000\306\205"
 2715      8AD3E7D1 
ARM GAS  /tmp/cckdeSuD.s 			page 84


 2715      AD54B12C 
 2715      00C685
 2716 00dd B77948E0 		.ascii	"\267yH\340\230(\013D\335\2634\354 K<\013\033\252\256"
 2716      98280B44 
 2716      DDB334EC 
 2716      204B3C0B 
 2716      1BAAAE
 2717 00f0 3B7BE1A8 		.ascii	";{\341\250\3536AY\010<\202\204\301\257\020\277D`G\370"
 2717      EB364159 
 2717      083C8284 
 2717      C1AF10BF 
 2717      446047F8 
 2718 0104 460BC7C5 		.ascii	"F\013\307\305a\003\221\317\376\346\305\351x\354\366"
 2718      610391CF 
 2718      FEE6C5E9 
 2718      78ECF6
 2719 0113 383DECDA 		.ascii	"8=\354\332\000\246\247\210\014y\201E\037!\366\233S\303"
 2719      00A6A788 
 2719      0C798145 
 2719      1F21F69B 
 2719      53C3
 2720 0125 27277A4E 		.ascii	"''zN\015\271\347\\\275,\014\234\"(zP\234&x\370\243v"
 2720      0DB9E75C 
 2720      BD2C0C9C 
 2720      22287A50 
 2720      9C2678F8 
 2721 013b 0A35E582 		.ascii	"\0125\345\202\267N C\305\333\362\303\371\325OL\324\377"
 2721      B74E2043 
 2721      C5DBF2C3 
 2721      F9D54F4C 
 2721      D4FF
 2722 014d 44F79EB2 		.ascii	"D\367\236\2620\361d#\232Oi\206\213\355\253J\263K\277"
 2722      30F16423 
 2722      9A4F6986 
 2722      8BEDAB4A 
 2722      B34BBF
 2723 0160 EEB5948E 		.ascii	"\356\265\224\216\212\204\265HU\005\223kte\017\236\""
 2723      8A84B548 
 2723      5505936B 
 2723      74650F9E 
 2723      22
 2724 0171 DF2453FD 		.ascii	"\337$S\375_\226\320\230%\235\016O\223\375\265L\220\034"
 2724      5F96D098 
 2724      259D0E4F 
 2724      93FDB54C 
 2724      901C
 2725 0183 48CBCFE6 		.ascii	"H\313\317\346\214\252{k%\357V\207[\246?)\376>\257\265"
 2725      8CAA7B6B 
 2725      25EF5687 
 2725      5BA63F29 
 2725      FE3EAFB5 
 2726 0197 6B884751 		.ascii	"k\210GQG<\216\006\320+@\325\261\270fV3\275\314 \275"
 2726      473C8E06 
 2726      D02B40D5 
 2726      B1B86656 
 2726      33BDCC20 
 2727 01ac 0C9B375A 		.ascii	"\014\2337Z\231\256\215\227\000y\001\365\345\312&t\253"
ARM GAS  /tmp/cckdeSuD.s 			page 85


 2727      99AE8D97 
 2727      007901F5 
 2727      E5CA2674 
 2727      AB
 2728 01bd 00A34293 		.ascii	"\000\243B\223\366\020\331\177\241\273\260rq\235\374"
 2728      F610D97F 
 2728      A1BBB072 
 2728      719DFC
 2729 01cc 166AC8DF 		.ascii	"\026j\310\337\207\374\327\302\330}\312f\214(\344j\337"
 2729      87FCD7C2 
 2729      D87DCA66 
 2729      8C28E46A 
 2729      DF
 2730 01dd 0A1F74B8 		.ascii	"\012\037t\270\246\301U\314L-\331%\021\360Z\256\316\372"
 2730      A6C155CC 
 2730      4C2DD925 
 2730      11F05AAE 
 2730      CEFA
 2731 01ef 214F55A0 		.ascii	"!OU\240,\002%\232\201\263\010\235j\251\3437xXN\313U"
 2731      2C02259A 
 2731      81B3089D 
 2731      6AA9E337 
 2731      78584ECB 
 2732 0204 1C3AF4DA 		.ascii	"\034:\364\332\014\226D\023A\031Gga\256\372\310Y\\\305"
 2732      0C964413 
 2732      41194767 
 2732      61AEFAC8 
 2732      595CC5
 2733 0217 2FDA7720 		.ascii	"/\332w \370N\021\020\020\2260{\351t?Y\012\257fpT\350"
 2733      F84E1110 
 2733      1096307B 
 2733      E9743F59 
 2733      0AAF6670 
 2734 022d DF7F71F0 		.ascii	"\337\177q\360\006\370I\276W\023L\374\326\010\2115\257"
 2734      06F849BE 
 2734      57134CFC 
 2734      D6088935 
 2734      AF
 2735 023e 52571E5B 		.ascii	"RW\036[\243&\237\307\336\204\027\210\235\210\262R^p"
 2735      A3269FC7 
 2735      DE841788 
 2735      9D88B252 
 2735      5E70
 2736 0250 7F679069 		.ascii	"\177g\220i2\035\324K\3023\343\365\177\336\274u\371\\"
 2736      321DD44B 
 2736      C233E3F5 
 2736      7FDEBC75 
 2736      F95C
 2737 0262 3BB54855 		.ascii	";\265HU\356\362;\210g\320/D\253W\010\323+\004\325\276"
 2737      EEF23B88 
 2737      67D02F44 
 2737      AB5708D3 
 2737      2B04D5BE 
 2738 0276 89957E50 		.ascii	"\211\225~P\207X\\\307}\237%\035\015\024E\346\375\247"
 2738      87585CC7 
 2738      7D9F251D 
 2738      0D1445E6 
ARM GAS  /tmp/cckdeSuD.s 			page 86


 2738      FDA7
 2739 0288 A8470494 		.ascii	"\250G\004\224t\373\256\334/\251>^_\022m\036\225\261"
 2739      74FBAEDC 
 2739      2FA93E5E 
 2739      5F126D1E 
 2739      95B1
 2740 029a 46D54C71 		.ascii	"F\325Lq8\347'\275\370 g\375#\261\011fcWe=\003~\362\005"
 2740      38E727BD 
 2740      F82067FD 
 2740      23B10966 
 2740      6357653D 
 2741 02b2 645167C4 		.ascii	"dQg\304\235r\251H\356\213\253\241$(S\330\257R(.=\320"
 2741      9D72A948 
 2741      EE8BABA1 
 2741      242853D8 
 2741      AF52282E 
 2742 02c8 A0DAD6A0 		.ascii	"\240\332\326\240Z\261Y\365\347F\325\305{\231\352\027"
 2742      5AB159F5 
 2742      E746D5C5 
 2742      7B99EA17 
 2743 02d8 72E98A4A 		.ascii	"r\351\212J\226j\341 Q\321\011\353\037\\?\366<\335\004"
 2743      966AE120 
 2743      51D109EB 
 2743      1F5C3FF6 
 2743      3CDD04
 2744 02eb BE10AA9A 		.ascii	"\276\020\252\2324\343P\307lGI\004\263\250\225Ep\234"
 2744      34E350C7 
 2744      6C474904 
 2744      B3A89545 
 2744      709C
 2745 02fd 72A0AEB6 		.ascii	"r\240\256\266\226\305],~\255\362\264?\006=2\201`C\002"
 2745      96C55D2C 
 2745      7EADF2B4 
 2745      3F063D32 
 2745      81604302 
 2746 0311 D4AB16BC 		.ascii	"\324\253\026\274Db4\3252\241\336\262\260q\236\034\364"
 2746      446234D5 
 2746      32A1DEB2 
 2746      B0719E1C 
 2746      F4
 2747 0322 E7C015B3 		.ascii	"\347\300\025\263P\315\202q\373\300N\310\201\245\311"
 2747      50CD8271 
 2747      FBC04EC8 
 2747      81A5C9
 2748 0331 7BB224A8 		.ascii	"{\262$\250U\206\032\234A\225\322q\312\332\226(\276\276"
 2748      55861A9C 
 2748      4195D271 
 2748      CADA9628 
 2748      BEBE
 2749 0343 AEEEA132 		.ascii	"\256\356\2412\233An\031\222\341\335\332^\244\203\360"
 2749      9B416E19 
 2749      92E1DDDA 
 2749      5EA483F0 
 2750 0353 ECCDF791 		.ascii	"\354\315\367\221\023\317K\245e4JB\327t:\201m\214O>\307"
 2750      13CF4BA5 
 2750      65344A42 
 2750      D7743A81 
ARM GAS  /tmp/cckdeSuD.s 			page 87


 2750      6D8C4F3E 
 2751 0368 21A3C2F2 		.ascii	"!\243\302\362\257\3305\314\374q$,\0074/P\2723U^=\356"
 2751      AFD835CC 
 2751      FC71242C 
 2751      07342F50 
 2751      BA33555E 
 2752 037e C47627A2 		.ascii	"\304v'\242N|{\"9\020O\307^\216\247b\321t\372\025\247"
 2752      4E7C7B22 
 2752      39104FC7 
 2752      5E8EA762 
 2752      D174FA15 
 2753 0393 EF99ADC9 		.ascii	"\357\231\255\311\355\221\250\223HD\272{\236\350\335"
 2753      ED91A893 
 2753      4844BA7B 
 2753      9EE8DD
 2754 03a2 968EA6D2 		.ascii	"\226\216\246\322]\360p\310\351\213\305\373\343[\266"
 2754      5DF070C8 
 2754      E98BC5FB 
 2754      E35BB6
 2755 03b1 6EEBEA0C 		.ascii	"n\353\352\014u\207:\235\335)g \355\244\006\"N$\226\212"
 2755      75873A9D 
 2755      DD296720 
 2755      EDA40622 
 2755      4E24968A 
 2756 03c5 264211D0 		.ascii	"&B\021\320R\311\273=;\324\033\355\352\352\357\334\331"
 2756      52C9BB3D 
 2756      3BD41BED 
 2756      EAEAEFDC 
 2756      D9
 2757 03d6 0DB84B4B 		.ascii	"\015\270KK'\037\375\017t|W\344\305=;\242\314\020\211"
 2757      271FFD0F 
 2757      747C57E4 
 2757      C53D3BA2 
 2757      CC1089
 2758 03e9 ED08C540 		.ascii	"\355\010\305@\244_J\376\013\245\015\365\204"
 2758      A45F4AFE 
 2758      0BA50DF5 
 2758      84
 2759              		.text
 2760              		.section	.gnu.lto_chSemSignalWait.323.fccb243a6486cf8c,"e",%progbits
 2761 0000 789C8D56 		.ascii	"x\234\215V[PUe\024\376\327\376\367\331\007\220\203\\"
 2761      5B505565 
 2761      14FED7FE 
 2761      F7D90790 
 2761      835C
 2762 0012 1490690A 		.ascii	"\024\220i\012-\262f\214C\336zh\272\322C=05\222\015o"
 2762      2DB2668C 
 2762      43DE7A68 
 2762      BAD2433D 
 2762      3035920D 
 2763 0027 8C1E4F81 		.ascii	"\214\036O\201\323\021\342\234.>\271\003\244\242\013"
 2763      D311E29C 
 2763      2E3EB903 
 2763      A4A20B
 2764 0036 42247AC2 		.ascii	"B$z\302\243\236\310p\234\321\007\264,Q1,-5\305\033\212"
 2764      A39EC870 
 2764      9CD107B4 
ARM GAS  /tmp/cckdeSuD.s 			page 88


 2764      2C51312C 
 2764      2D35C51B 
 2765 004b 988A495C 		.ascii	"\230\212I\\\312Pr$$m\255\377\337{\237\015\222\305\303"
 2765      CA507224 
 2765      246DADFF 
 2765      DF7B9F0D 
 2765      92C5C3
 2766 005e 3EFB5F7B 		.ascii	">\373_{\255o\335\276\365/\216\3072\266\030\030[\312"
 2766      AD6FDDBE 
 2766      F52F8EC7 
 2766      32B61818 
 2766      5BCA
 2767 0070 18832806 		.ascii	"\030\203(\0065\325\225\012\323u\375I\247\242\224U\277"
 2767      35D5950A 
 2767      D375FD49 
 2767      A7A29455 
 2767      BF
 2768 0081 AFC04EB8 		.ascii	"\257\300N\2702\334\030\257\226W\307U-ow\253\034j-\015"
 2768      32DC18AF 
 2768      9657C755 
 2768      2D6F77AB 
 2768      1C6A2D0D 
 2769 0095 55592E35 		.ascii	"UY.5j;CijEu\334o\237]\310P\035PW\035#\276k\370f\352"
 2769      6A3B4369 
 2769      6A4575DC 
 2769      6F9F5DC8 
 2769      501D5057 
 2770 00b0 3AE1EDEA 		.ascii	":\341\355\352\312\353}[UT\027\002`\313\024\256:4',\203"
 2770      CAEB7D5B 
 2770      55541702 
 2770      60CB14AE 
 2770      3A34272C 
 2771 00c5 8F793D87 		.ascii	"\217y=\207\032\336\300\031\250\306\033@\372\203\250"
 2771      1ADEC019 
 2771      A8C61B40 
 2771      FA83A8
 2772 00d4 37B43C38 		.ascii	"7\264<8\334\017\365\215-j\003WX\010\025\266\001l\305"
 2772      DC0FF58D 
 2772      2D6A0357 
 2772      580815B6 
 2772      016CC5
 2773 00e7 78194345 		.ascii	"x\031CE\376\"\233\336\242\353G\016n\327\365h\326\300"
 2773      FE229BDE 
 2773      A2EB470E 
 2773      6ED7F568 
 2773      D6C0
 2774 00f9 397C0536 		.ascii	"9|\0056\035\024\344}\340\"\275\305R\357\262\245\367"
 2774      1D14E47D 
 2774      E022BDC5 
 2774      52EFB2A5 
 2774      F7
 2775 010a F558BDD5 		.ascii	"\365X\275\325.\211\270\204\236\031\350y\340\306\246"
 2775      2E89B884 
 2775      9E19E879 
 2775      E0C6A6
 2776 0119 8AB8156F 		.ascii	"\212\270\025oG\241_\330\001\243<\347mpi\014\232\201"
 2776      47A15FD8 
ARM GAS  /tmp/cckdeSuD.s 			page 89


 2776      01A33CE7 
 2776      6D70690C 
 2776      9A81
 2777 012b E2618C22 		.ascii	"\342a\214\"\326\030\276\003\354\002\262\326\320z\373"
 2777      D618BE03 
 2777      EC02B2D6 
 2777      D07AFB
 2778 013a C9B90C33 		.ascii	"\311\271\0143\015a\320\206\244\276\257\354o\007\203"
 2778      0D61D086 
 2778      A4BEAFEC 
 2778      6F0783
 2779 0149 DD28E3C2 		.ascii	"\335(\343\302SP(S\\C\265\357\2379\234V\257S\222*\354"
 2779      53502853 
 2779      5C43B5EF 
 2779      9F399C56 
 2779      AF53922A 
 2780 015e 018292CE 		.ascii	"\001\202\222\316\340[@Q^\365$\012\2124\203U\277o\233"
 2780      E05B4051 
 2780      5EF5240A 
 2780      8A348355 
 2780      BF6F9B
 2781 0171 D15AA6EF 		.ascii	"\321Z\246\357\327-]\026\321\225U\021\376G\202\032\264"
 2781      D72D5D16 
 2781      D1955511 
 2781      FE47821A 
 2781      B4
 2782 0182 A2B085D0 		.ascii	"\242\260\205\320\030\306\007{\315\370\370\247\"(\201"
 2782      18C6077B 
 2782      CDF8F8A7 
 2782      222881
 2783 0191 3752B3BB 		.ascii	"7R\263\273i\366\036\003\317\001\337\243\266j\342\355"
 2783      69F61E03 
 2783      CF01DFA3 
 2783      B66AE2ED 
 2784 01a1 43BCBC2F 		.ascii	"C\274\274/\222Dzt\240O\373%\302>\305\214}`W\323\300"
 2784      92447A74 
 2784      A04FFB25 
 2784      C23EC58C 
 2784      7D6057D3 
 2785 01b6 45D0131B 		.ascii	"E\320\023\033\270\006?\330\255\177\304\310\265\274`"
 2785      B8063FD8 
 2785      AD7FC4C8 
 2785      B5BC60
 2786 01c5 92E9E948 		.ascii	"\222\351\351H\333\271\217\234\322\217\324d\021\315H"
 2786      DBB98F9C 
 2786      D28FD464 
 2786      11CD48
 2787 01d4 DC43FB5E 		.ascii	"\334C\373^\202\003 K\247\336)Jf\217\022\363\203C\370"
 2787      8203204B 
 2787      A7DE294A 
 2787      668F12F3 
 2787      8343F8
 2788 01e7 7E108C00 		.ascii	"~\020\214\000\011\252\271gd\013\227H\216H\023Z/a\023"
 2788      09AAB967 
 2788      640B9748 
 2788      8E48135A 
 2788      2F6113
ARM GAS  /tmp/cckdeSuD.s 			page 90


 2789 01fa 0EA34C63 		.ascii	"\016\243Lc\221\232\356\374_5\035\352\306\232\266\241"
 2789      919AEEFC 
 2789      5F351DEA 
 2789      C69AB6A1 
 2790 020a F08855D3 		.ascii	"\360\210U\323\243V\317\211\000N8.\313s R\340#m\275\217"
 2790      A356CF89 
 2790      004E382E 
 2790      CB732052 
 2790      E0236DBD 
 2791 021f 6367CBD3 		.ascii	"cg\313\323)\360\023cx\264\323%\213{Rd\314\362\232]&"
 2791      29F01363 
 2791      78B4D325 
 2791      8B7B5264 
 2791      CCF29A5D 
 2792 0234 23466A36 		.ascii	"#Fj67\315\370\256L\177\326\314\327iFt\012\353\352\310"
 2792      37CDF8AE 
 2792      4C7FD6CC 
 2792      D7694674 
 2792      0AEBEAC8 
 2793 0248 DB335E5D 		.ascii	"\3333^]\307T\346\224\021\273\005\230\276\212\370o\326"
 2793      C754E694 
 2793      11BB0598 
 2793      BE8AF86F 
 2793      D6
 2794 0259 DF42EC10 		.ascii	"\337B\354\020\235:\364?:\325a\257\306\241\227\340\014"
 2794      9D3AF43F 
 2794      3AD561AF 
 2794      C6A197E0 
 2794      0C
 2795 026a C06914B7 		.ascii	"\300i\024\267\023\232\250G'P\011P\213\343x`Z\330\225"
 2795      139AA847 
 2795      27500950 
 2795      8BE37860 
 2795      5AD895
 2796 027d 2D471D2D 		.ascii	"-G\035-\372\310\255*]o\317\2771\262i\3024\205\362\325"
 2796      FAC8AD2A 
 2796      5D6FCFBF 
 2796      31B269C2 
 2796      3485F2D5 
 2797 0291 00BE0127 		.ascii	"\000\276\001'\300v\210\241Ir\341\014:\343\3501\021\037"
 2797      C07688A1 
 2797      4972E10C 
 2797      3AE3E831 
 2797      111F
 2798 02a3 5A3C3E1C 		.ascii	"Z<>\034\011tL\244G\022\311\222I/\205\372\234J_\247\320"
 2798      09744CA4 
 2798      4712C992 
 2798      492F85FA 
 2798      9C4A5FA7 
 2799 02b8 83B12A4E 		.ascii	"\203\261*N\327\213\256\202\336\302\330\012\256\310C"
 2799      D78BAE82 
 2799      DEC2D80A 
 2799      AEC843
 2800 02c7 191EFA40 		.ascii	"\031\036\372@\357\272\336\016\342w8\205~\246Y\217\256"
 2800      EFBADE0E 
 2800      E2773885 
 2800      7EA6598F 
ARM GAS  /tmp/cckdeSuD.s 			page 91


 2800      AE
 2801 02d8 9B4230B8 		.ascii	"\233B0\270\261\252\246n% \035\204\260\256=Z\230\015"
 2801      B1AAA66E 
 2801      25201D84 
 2801      B0AE3D5A 
 2801      980D
 2802 02ea 6E0B0DF7 		.ascii	"n\013\015\367\235J\3026\013\361\247\375\253\200\344"
 2802      9D4AC236 
 2802      0BF1A7FD 
 2802      AB80E4
 2803 02f9 A5E9D87C 		.ascii	"\245\351\330|\272\232TH\227\326+\277<\267\006\220\003"
 2803      BA9A5448 
 2803      97D62BBF 
 2803      3CB70690 
 2803      03
 2804 030a 426DC7B9 		.ascii	"Bm\307\271h8\006\354\017(\235F\0258\254`\235\246\236"
 2804      683806EC 
 2804      0F289D46 
 2804      1538AC60 
 2804      9DA69E
 2805 031d 572AF002 		.ascii	"W*\360\002\211\302W\225\356\327s\300\360\027\316\003"
 2805      89C25795 
 2805      EED773C0 
 2805      F017CE03 
 2806 032d FC2C8832 		.ascii	"\374,\2102\365\242\370\036->vI/\003[C\301~\274\210\333"
 2806      F5A2F81E 
 2806      2D3E7649 
 2806      2F035B43 
 2806      C17EBC88 
 2807 0342 C451BFBA 		.ascii	"\304Q\277\272\261jU]\206\014\244.YH\326\227\265\345"
 2807      B16A555D 
 2807      860CA42E 
 2807      5948D697 
 2807      B5E5
 2808 0354 105D46A7 		.ascii	"\020]F\247\2642m\214\240>\215]\206\322\346\215qa\356"
 2808      B4326D8C 
 2808      A03E8D5D 
 2808      86D2E68D 
 2808      7161EE
 2809 0367 322E552E 		.ascii	"2.U.\274n\240\013\030\335\306\204\221\003\277\000\313"
 2809      BC6EA00B 
 2809      18DDC684 
 2809      9103BF00 
 2809      CB
 2810 0378 92C70970 		.ascii	"\222\307\011p\011\326\320\205\206fe\365\025\217\205"
 2810      09D6D085 
 2810      866665F5 
 2810      158F85
 2811 0387 395992D9 		.ascii	"9Y\222\331\004\000\202\032\250\234cZ7\306\215c\336#"
 2811      0400821A 
 2811      A89C635A 
 2811      37C68D63 
 2811      DE23
 2812 0399 CDD18EF5 		.ascii	"\315\321\216\365Bygk\032\276Is&\376Vp\376n\373\276R"
 2812      4279676B 
 2812      1ABE4973 
 2812      26FE5670 
ARM GAS  /tmp/cckdeSuD.s 			page 92


 2812      FE6EFBBE 
 2813 03ae B0DAB3B6 		.ascii	"\260\332\263\266C!\334\332J\010\363\211&t\317\364\010"
 2813      4321DCDA 
 2813      4A08F389 
 2813      2674CFF4 
 2813      08
 2814 03bf 34CA0CF4 		.ascii	"4\312\014\364X\350Gt\004*\027:\012Q\3637\263-\007\310"
 2814      58E84774 
 2814      042A173A 
 2814      0A51F337 
 2814      B32D07C8 
 2815 03d3 5EB4E4AF 		.ascii	"^\264\344\257\317G\272\367'\341= \360ou\257\002\370"
 2815      CF47BAF7 
 2815      27E13D20 
 2815      F06F75AF 
 2815      02F8
 2816 03e5 49C4DEDC 		.ascii	"I\304\336\334\213\311\244\030e\320\2142 \205b\311\323"
 2816      8BC9A418 
 2816      65D08C32 
 2816      208562C9 
 2816      D3
 2817 03f6 6599444F 		.ascii	"e\231DO2\215\320\037\350Ga\022\242t\335\243\31074\024"
 2817      328DD01F 
 2817      E8476112 
 2817      A274DDA3 
 2817      C8373414 
 2818 040a 701FFF9A 		.ascii	"p\037\377\232*+z\177\230\247\032P\216\010\224\013\365"
 2818      2A2B7A7F 
 2818      98A71A50 
 2818      8E08940B 
 2818      F5
 2819 041b E08A1574 		.ascii	"\340\212\025t\317\335\024\365UD\343\204F\242\306\373"
 2819      CFDD14F5 
 2819      5544E384 
 2819      46A2C6FB 
 2820 042b C960D072 		.ascii	"\311`\320r jz\210\217\027K\243\300\276f\252\242C\021"
 2820      206A7A88 
 2820      8F174BA3 
 2820      C0BE66AA 
 2820      A24311
 2821 043e C2273284 		.ascii	"\302'2\204`\357]6\257\2516\257\324\230X\270n\367\332"
 2821      60EF5D36 
 2821      AFA936AF 
 2821      D49858B8 
 2821      6EF7DA
 2822 0451 3399A086 		.ascii	"3\231\240\206P\244J(Q\252\256\325\277\246\012\272\255"
 2822      50A44A28 
 2822      51AAAED5 
 2822      BFA60ABA 
 2822      AD
 2823 0462 1F6C9B8F 		.ascii	"\037l\233\217l\242[WV\023/R6\000\345\351a\036_\016X"
 2823      6CA25B57 
 2823      56132F52 
 2823      3600E5E9 
 2823      611E5F0E 
 2824 0477 E8B8108F 		.ascii	"\350\270\020\217\242\256\2464\240%:\277\332\363\230"
 2824      A2AEA634 
ARM GAS  /tmp/cckdeSuD.s 			page 93


 2824      A0253ABF 
 2824      DAF398
 2825 0486 4583D922 		.ascii	"E\203\331\"\200x[\000\330\253x\270\201\316p8\205\367"
 2825      80785B00 
 2825      D8AB78B8 
 2825      81CE7038 
 2825      85F7
 2826 0498 39B44047 		.ascii	"9\264@GP\200\367\003U\314\011\222\013\352\350Qm\352"
 2826      5080F703 
 2826      55CC0992 
 2826      0BEAE851 
 2826      6DEA
 2827 04aa 008BAE09 		.ascii	"\000\213\256\011\243I\252\215b\331\2551$MD}\311\262"
 2827      A349AA8D 
 2827      62D9AD31 
 2827      244D447D 
 2827      C9B2
 2828 04bc 65E39374 		.ascii	"e\343\223t\264y\251b\2204\221Hz\206H\232\010}`\020\324"
 2828      B479A962 
 2828      90349148 
 2828      7A86489A 
 2828      087D6010 
 2829 04d1 B1EEC2B5 		.ascii	"\261\356\302\265\266\010A\267u\304\340\345&\37131\314"
 2829      B60841B7 
 2829      75C4E0E5 
 2829      26F93331 
 2829      CC
 2830 04e2 15A3E909 		.ascii	"\025\243\351\011\"[Q\234\204F\316,\006$\302r\005\312"
 2830      225B519C 
 2830      8446CE2C 
 2830      0624C272 
 2830      05CA
 2831 04f4 158B01C8 		.ascii	"\025\213\001\310\247$\250@\207Nf\006\340\200w\360\214"
 2831      A724A840 
 2831      874E6606 
 2831      E08077F0 
 2831      8C
 2832 0505 F514EC7A 		.ascii	"\365\024\354z\002oB\204\025\276\276\262\015C\3228\005"
 2832      026F4284 
 2832      15BEBEB2 
 2832      0D43D238 
 2832      05
 2833 0516 B0CFC27B 		.ascii	"\260\317\302{Jd\026\242\210\317\370_\226l\336i\003\017"
 2833      4A6416A2 
 2833      88CFF85F 
 2833      966CDE69 
 2833      030F
 2834 0528 5FCF1090 		.ascii	"_\317\020\2201\025\235\335\347\023\361r\026\216\256"
 2834      31159DDD 
 2834      E713F172 
 2834      168EAE
 2835 0537 D0549C15 		.ascii	"\320T\234\025Y\0057\336c\343\221bg\257B~>P\004\217:"
 2835      590537DE 
 2835      63E39162 
 2835      67AF427E 
 2835      3E50048F 
 2836 054c 2D6A39E0 		.ascii	"-j9\340CEP\262\323\004\357\032\354\226S\321\233\021"
ARM GAS  /tmp/cckdeSuD.s 			page 94


 2836      434550B2 
 2836      D304EF1A 
 2836      EC9653D1 
 2836      9B11
 2837 055e E6536C54 		.ascii	"\346SlT\326L*\213\254\253\024A\277N\203\364\327\370"
 2837      D64C2A8B 
 2837      ACAB1441 
 2837      BF4E83F4 
 2837      D7F8
 2838 0570 1DFD56DF 		.ascii	"\035\375V\337\356\267\306\004@/\302\3575\351wt\012S"
 2838      EEB7C604 
 2838      402FC2EF 
 2838      35E97774 
 2838      0A53
 2839 0582 EC509308 		.ascii	"\354P\223\010\252v\024\324]\004\365I$\005Y\372\353\267"
 2839      AA7614D4 
 2839      5D04F549 
 2839      240559FA 
 2839      EBB7
 2840 0594 41D9E397 		.ascii	"A\331\343\227\243X\027\361\257\310\271i:6\037\311A\013"
 2840      A35817F1 
 2840      AFC8B969 
 2840      3A361FC9 
 2840      410B
 2841 05a6 D0ACB724 		.ascii	"\320\254\267$\315\36649\242\223-\036\306\336\226\246"
 2841      CDF63439 
 2841      A2932D1E 
 2841      C6DE96A6 
 2842 05b6 9892D54A 		.ascii	"\230\222\325JdJ\\\015|\022\004Q\020M\334\324\344FAF"
 2842      644A5C0D 
 2842      7C120451 
 2842      104DDCD4 
 2842      E4464146 
 2843 05ca D02032C1 		.ascii	"\320 2\301\264\311!\372F\364K\006G\203q%5\313;\276\027"
 2843      B4C921FA 
 2843      46F44B06 
 2843      47837125 
 2843      35CB3BBE 
 2844 05df E34DB6DC 		.ascii	"\343M\266\334M\034\337]\310\346n\022\015\345ZE\014\245"
 2844      4D1CDF5D 
 2844      C8E66E12 
 2844      0DE55A45 
 2844      0CA5
 2845 05f1 60E22C5C 		.ascii	"`\342,\\\256\210!\206@\273\020\252\334\254XCp\014\207"
 2845      AE882186 
 2845      40BB10AA 
 2845      DCAC5843 
 2845      700C87
 2846 0604 00B7CD00 		.ascii	"\000\267\315\000\224\031\221\244\206x\014\375\323,\373"
 2846      941991A4 
 2846      86780CFD 
 2846      D32CFB
 2847 0613 703CCD02 		.ascii	"p<\315\002\200\233 \000\234\366\321.}\222\011\354\030"
 2847      809B2000 
 2847      9CF6D12E 
 2847      7D9209EC 
 2847      18
ARM GAS  /tmp/cckdeSuD.s 			page 95


 2848 0624 A17DBA23 		.ascii	"\241}\272#\332X]\270|\277\241\345\273[\262rw]\235Q\277"
 2848      DA585DB8 
 2848      7CBFA1E5 
 2848      BB5BB272 
 2848      775D9D51 
 2849 0639 B6F6FBC4 		.ascii	"\266\366\373\304\357\331\366\261+\356\317\024c=w\364"
 2849      EFD9F6B1 
 2849      2BEECF14 
 2849      633D77F4 
 2850 0649 E37A6E31 		.ascii	"\343zn1\350\034Y\317\255\306zf\366\365\2747\262\236"
 2850      E81C59CF 
 2850      ADC67A66 
 2850      F6F5BC37 
 2850      B29E
 2851 065b BFB3AF67 		.ascii	"\277\263\257gc\021\207\0256f\373\016\320\366m5\266\357"
 2851      63118715 
 2851      3666FB0E 
 2851      D0F66D35 
 2851      B6EF
 2852 066d BA8B271C 		.ascii	"\272\213'\034\024\360ULq\016%\301\3300\340H&;.\037\273"
 2852      14F0554C 
 2852      710E25C1 
 2852      D830E048 
 2852      263B2E1F 
 2853 0682 1445FDBF 		.ascii	"\024E\375\277\011\332\006\251S\305A&^\332B\267\311C"
 2853      09DA06A9 
 2853      53C54126 
 2853      5EDA42B7 
 2853      C943
 2854 0694 EE82229F 		.ascii	"\356\202\"\237\327]\270\300W\\R\030(x\243\320_\340\015"
 2854      D75DB8C0 
 2854      575C5218 
 2854      2878A3D0 
 2854      5FE00D
 2855 06a7 0496BAB3 		.ascii	"\004\226\272\263\237\311-^\340\361\272}>\317\254\331"
 2855      9FC92D5E 
 2855      E0F1BA7D 
 2855      3ECFACD9 
 2856 06b7 0FCFCD0F 		.ascii	"\017\317\315\017x\375\201\231\354\336LwvA\341\302\302"
 2856      78FD8199 
 2856      ECDE4C77 
 2856      7641E1C2 
 2856      C2
 2857 06c8 E773F367 		.ascii	"\347s\363gfe\316\312\314r\027\371\335%\001\267\277\304"
 2857      6665CECA 
 2857      CC7217F9 
 2857      DD2501B7 
 2857      BFC4
 2858 06da E3F614F8 		.ascii	"\343\366\024\370\275\276L\017\343\376b\177\202q\310"
 2858      BDBE4C0F 
 2858      E3FE627F 
 2858      8271C8
 2859 06e9 9CEB9D39 		.ascii	"\234\353\2359sa\326\313\263H\372&\367\371_\231\376/"
 2859      7361D6CB 
 2859      B348FA26 
 2859      F7F95F99 
 2859      FE2F
ARM GAS  /tmp/cckdeSuD.s 			page 96


 2860 06fb 08854B3C 		.ascii	"\010\205K<\257\276\276\310K(K\375\231\005\314\271p\201"
 2860      AFBEBEC8 
 2860      4B284BFD 
 2860      9905CCB9 
 2860      7081
 2861 070d DFFB4249 		.ascii	"\337\373BI\341\323\343\351{\212|\276\242%n\357[\001"
 2861      E1D3E3E9 
 2861      7B8A7CBE 
 2861      A2256EEF 
 2861      5B01
 2862 071f F753F372 		.ascii	"\367S\363r\334\3319\271\317\345\272\263\213J\274\356"
 2862      DCD939B9 
 2862      CFE5BAB3 
 2862      8B4ABCEE 
 2863 072f E74C189F 		.ascii	"\347L\030\237\277\320\237\377\212\307\203Ps\356\000"
 2863      BFD09FFF 
 2863      8AC78350 
 2863      73EE00
 2864 073e 515C5412 		.ascii	"Q\\T\022\360\023Hv\316[\350\333\203\030\371o<\342C+"
 2864      F0134876 
 2864      CE5BE8DB 
 2864      8318F96F 
 2864      3CE2432B 
 2865 0752 2550FCC0 		.ascii	"%P\374\300\177\307\352)X\204\272<\360Z1\367\004\212"
 2865      7FC7EA29 
 2865      5884BA3C 
 2865      F05A31F7 
 2865      048A
 2866 0764 E37372E7 		.ascii	"\343sr\347\245S\340X\313\031\351\031YL)aN\237\327WT"
 2866      A553E058 
 2866      CB19E919 
 2866      594C2961 
 2866      4E9FD757 
 2867 0779 B294FD03 		.ascii	"\262\224\375\003\026\216\221?"
 2867      168E913F 
 2868              		.text
 2869              		.section	.gnu.lto_chSemWaitS.part.0.343.fccb243a6486cf8c,"e",%progbits
 2870 0000 789C7D94 		.ascii	"x\234}\224MhTW\024\307\357\377\335\373f&jF\215\022\\"
 2870      4D685457 
 2870      14C7EFFF 
 2870      DDFB6626 
 2870      6A468D12 
 2871 0015 080D48B0 		.ascii	"\010\015H\260\242\316K\223\342\302U@\027\335\271\210"
 2871      A2CE4B93 
 2871      E2C25540 
 2871      17DDB988 
 2872 0025 904517A2 		.ascii	"\220E\027\242\343\310\0148:fF\241\253\\cD\010\324$U"
 2872      E3C80C38 
 2872      3A6646A1 
 2872      AB5C6344 
 2872      08D42455 
 2873 0039 21845470 		.ascii	"!\204Tpx\224\311\246]\264\226\250\261Ijm#~\305\017\324"
 2873      7894C9A6 
 2873      5DB496A8 
 2873      B1496A6D 
 2873      237EC50F 
 2874 004e 96484BAC 		.ascii	"\226HK\2541qQ\242A\024)\3509\367\275\347\233$M\027s"
ARM GAS  /tmp/cckdeSuD.s 			page 97


 2874      317151A2 
 2874      411429E8 
 2874      39F7BDE7 
 2874      9B244D17 
 2875 0063 DF79E7FE 		.ascii	"\337y\347\376\357\357|\334\363\346s[\210\036!\304V\372"
 2875      EFEF7CDC 
 2875      F3E6735B 
 2875      881E21C4 
 2875      56FA
 2876 0075 C116381D 		.ascii	"\301\0268\035\023Z\353\306\250B\225yZ8\325\335\361\360"
 2876      135AEBC6 
 2876      A8429579 
 2876      5A38D5DD 
 2876      F1F0
 2877 0087 E2238541 		.ascii	"\342#\205A\030\207\304\321\356\016\313\023A\264*K\242"
 2877      1887C4D1 
 2877      EE0ECB13 
 2877      41B42A4B 
 2877      A2
 2878 0098 15A7649F 		.ascii	"\025\247d\237\304W\322\225\002\312\267\200\032\2626"
 2878      C457D295 
 2878      02CAB780 
 2878      1AB236
 2879 00a7 90EECDF1 		.ascii	"\220\356\315\361\336/\237\241\2574\254\\i\211\263\244"
 2879      DE2F9FA1 
 2879      AF34AC5C 
 2879      6989B3A4 
 2880 00b7 390FFC00 		.ascii	"9\017\374\000\012(x\273+\334\201\277\203\037i\227N\313"
 2880      0A2878BB 
 2880      2BDC81BF 
 2880      831F6997 
 2880      4ECB
 2881 00c9 9DBCAE1F 		.ascii	"\235\274\256\037\326zlh@\353\012\341J\211\001\204\010"
 2881      D67A6C68 
 2881      40EB0AE1 
 2881      4A890184 
 2881      08
 2882 00da 5C00B99A 		.ascii	"\\\000\271\232\317\257`MW\237f\220\247\300\034\2050"
 2882      CFAF604D 
 2882      579F6690 
 2882      A7C01C85 
 2882      30
 2883 00eb B88830D1 		.ascii	"\270\2100\321/A\030\013l!\360[\270\014\0233\023\304"
 2883      2F41180B 
 2883      6C21F05B 
 2883      B80C1333 
 2883      13C4
 2884 00fd 7C3370E2 		.ascii	"|3p\342\333\3577]=\246?s\245\302O`\215\017\035\"\250"
 2884      DBEF375D 
 2884      3DA63F73 
 2884      A5C24F60 
 2884      8D0F1D22 
 2885 0112 6A1E5945 		.ascii	"j\036YE\312ZV\216M\017\234\214\352Q\255\002%B\245\027"
 2885      CA5A568E 
 2885      4D0F9C8C 
 2885      EA51AD02 
 2885      2542A517 
ARM GAS  /tmp/cckdeSuD.s 			page 98


 2886 0126 5B9EC11C 		.ascii	"[\236\301\034nM\017\027\344J\033#\345\340\237\011l7"
 2886      6E4D0F17 
 2886      E44A1B23 
 2886      E5E09F09 
 2886      6C37
 2887 0138 DFFC2FB0 		.ascii	"\337\374/\260\247D\250\364\213\342\016\337n\302\025"
 2887      A744A8F4 
 2887      8BE20EDF 
 2887      6EC215
 2888 0147 6098DC83 		.ascii	"`\230\334\203L\343\372\360\013\270\"V}w\327\326\372"
 2888      4CE3FAF0 
 2888      0BB82256 
 2888      7D77D7D6 
 2888      FA
 2889 0158 DF779D5A 		.ascii	"\337w\235Z\217o\\\265\034\324Ee\001\027!\311\262\025"
 2889      8F6F5CB5 
 2889      1CD44565 
 2889      011721C9 
 2889      B215
 2890 016a BFDABC44 		.ascii	"\277\332\274Dh\211Dy\021\242S\362\015k\0056\225gJ\321"
 2890      68894479 
 2890      11A253F2 
 2890      0D6B0536 
 2890      95674AD1 
 2891 017e 25ADC07C 		.ascii	"%\255\300|\016=q\371\326\022\212'\376A\333`EQ\302\277"
 2891      0E3D71F9 
 2891      D6128A27 
 2891      FE41DB60 
 2891      4551C2BF 
 2892 0192 F8A829B4 		.ascii	"\370\250)\264\035\026\231%ir\374\206c\306\360\033\360"
 2892      1D169925 
 2892      6972FC86 
 2892      63C6F01B 
 2892      F0
 2893 01a3 ABD9AC23 		.ascii	"\253\331\254#H\314\225\025\030\305\327|7\376\273\302"
 2893      48CC9515 
 2893      18C5D77C 
 2893      37FEBBC2 
 2894 01b3 357AE78C 		.ascii	"5z\347\214\011\331;]\355\003\025>0\226P\030\\\377\300"
 2894      09D93B5D 
 2894      ED03153E 
 2894      30965018 
 2894      5CFFC0
 2895 01c6 2855BA72 		.ascii	"(U\272r)n\320!\313\203L\305]\271\0147\311A\330\"y9\315"
 2895      296ED021 
 2895      CB834CC5 
 2895      5DB90C37 
 2895      C941D822 
 2896 01dd A15B1603 		.ascii	"\241[\026\003Ow\240(\2039\225!\263\222t\270]\236W\034"
 2896      4F77A028 
 2896      83399521 
 2896      B39274B8 
 2896      5D9E571C 
 2897 01f1 63445042 		.ascii	"cDPB\264\303s\330\270CY=G[\015\365\230R\360\314+\314"
 2897      B4C373D8 
 2897      B843593D 
 2897      475B0DF5 
ARM GAS  /tmp/cckdeSuD.s 			page 99


 2897      9852F0CC 
 2898 0207 E308B32F 		.ascii	"\343\010\263/N\216O\376UE\0357\361^L\366\000WM_z\373"
 2898      4E8E4FFE 
 2898      55451D37 
 2898      F15E4CF6 
 2898      00574D5F 
 2899 021d 3F5A24F5 		.ascii	"?Z$\365)\213\343\334\24386_\225\251&\316\265\336'W\204"
 2899      298BE3DC 
 2899      A338365F 
 2899      95A926CE 
 2899      B5DE2757 
 2900 0232 5D3E7C62 		.ascii	"]>|bvr\215i\361tmQ\006\037\227\035\246\037\347\364\037"
 2900      76728D69 
 2900      F1746D51 
 2900      061F971D 
 2900      A61FE7F4 
 2901 0247 20ECE143 		.ascii	" \354\341C\002D\031\300\247f:^\311\377\315\340\367\205"
 2901      024419C0 
 2901      A7663A5E 
 2901      C9FFCDE0 
 2901      F785
 2902 0259 19FC1100 		.ascii	"\031\374\021\000(\236\311\340\225\227\301\334bT9j5\243"
 2902      289EC9E0 
 2902      9597C1DC 
 2902      6254396A 
 2902      35A3
 2903 026b C6E7A0D6 		.ascii	"\306\347\240\3262\352qX\214\327\233\327\013P\345\371"
 2903      32EA7158 
 2903      8CD79BD7 
 2903      0B50E5F9 
 2904 027b 97CC6DFF 		.ascii	"\227\314m\377\031\3067\235\23697;\273\223\006\215\347"
 2904      19C6379D 
 2904      9E39373B 
 2904      BB93068D 
 2904      E7
 2905 028c 3BE8BC30 		.ascii	";\350\2740\264\261\270\230A{\2150\303\266\374,_:wg\005"
 2905      B4B1B898 
 2905      417B8D30 
 2905      C3B6FC2C 
 2905      5F3A7767 
 2906 02a1 6C57AE34 		.ascii	"lW\2564\212\373q\323\273~\212b/2\225O\026L\345\337\363"
 2906      8AFB71D3 
 2906      BB7E8A62 
 2906      2F32954F 
 2906      164CE5DF 
 2907 02b6 A6F26938 		.ascii	"\246\362i8\225\203\375\325E\031)k\203=\257\015K\361"
 2907      9583FDD5 
 2907      4519296B 
 2907      833DAF0D 
 2907      4BF1
 2908 02c8 2C1CC752 		.ascii	",\034\307R5\375\257a\212\0341:\336e\351Q\305O)\203\257"
 2908      35FDAF61 
 2908      8A1C313A 
 2908      DE65E951 
 2908      C54F2983 
 2909 02dd E825DA1A 		.ascii	"\350%\332\032iN\243\344}\213(\221\255*\376\242:%<\005"
 2909      694EA3E4 
ARM GAS  /tmp/cckdeSuD.s 			page 100


 2909      7D8B2891 
 2909      AD2AFEA2 
 2909      3A253C05 
 2910 02f1 71C46627 		.ascii	"q\304f'}0\233r2\273\263\271\226L!}$\223O\247\012\205"
 2910      7D309B72 
 2910      32BBB3B9 
 2910      964C217D 
 2910      24934FA7 
 2911 0307 2F9C6DDB 		.ascii	"/\234m\333\233r\273\223)'\233M6|\372\311\226]\205T\276"
 2911      9B72BB93 
 2911      29279B4D 
 2911      367CFAC9 
 2911      965D8554 
 2912 031c 502FD625 		.ascii	"P/\326%\234m\351\314\236\314\216\246]\365u\211\206D"
 2912      9C6DE9CC 
 2912      9ECC8EA6 
 2912      5DF57589 
 2912      8644
 2913 032e 9D7330EF 		.ascii	"\235s0\357\264\024\234|K\322I\246\363\251l\")\254|n"
 2913      B4149C7C 
 2913      4BD249A6 
 2913      F3A96C22 
 2913      29AC7C6E 
 2914 0342 A56F27B6 		.ascii	"\245o'\266\244\352\353\367\324\355k\020V!\367\361\""
 2914      A4EAEBF7 
 2914      D4ED6B10 
 2914      5621F7F1 
 2914      22
 2915 0353 67330792 		.ascii	"g3\007\222\373\017\357M\361\371dzo\"-d\341P\356=\030"
 2915      FB0FEF4D 
 2915      F1F9647A 
 2915      6F222D64 
 2915      E150EE3D 
 2916 0368 74BDBF   		.ascii	"t\275\277"
 2917              		.text
 2918              		.section	.gnu.lto_chSemWaitTimeoutS.part.0.347.fccb243a6486cf8c,"e",%progbits
 2919 0000 789C7D93 		.ascii	"x\234}\223]h\024g\024\206\277w\316\314nbkRW)\275(m@"
 2919      5D681467 
 2919      1486BF77 
 2919      CECC6E62 
 2919      6B525729 
 2920 0018 4405DD49 		.ascii	"D\005\335I\023\021\364J\260\027\275\353\205\226\\\212"
 2920      1311F44A 
 2920      B017BDEB 
 2920      85965C8A 
 2921 0028 AE2BBBE0 		.ascii	"\256+\273\340\2325;\026z\345\327\250\010\2710\353\037"
 2921      9A353B16 
 2921      7AE5D7A8 
 2921      08B930EB 
 2921      1F
 2922 0039 8410C52E 		.ascii	"\204\020\305.\203\304\233\226\322\037b\033kR\033M\374"
 2922      83C49B96 
 2922      D21F621B 
 2922      6B521B4D 
 2922      FC
 2923 004a 0D51FC29 		.ascii	"\015Q\374)\212\222\213`\274\220h\020\203\010\366\234"
 2923      8A928B60 
ARM GAS  /tmp/cckdeSuD.s 			page 101


 2923      BC906810 
 2923      8308F69C 
 2924 005a 6F6632BB 		.ascii	"of2\273X\275\330\3313\347{\3479\3579s\3463G\251SJ\251"
 2924      58BDD8D9 
 2924      33E77BE7 
 2924      39EF3973 
 2924      E63347A9 
 2925 0071 F5FC83A3 		.ascii	"\365\374\203\243p\254Ni\2557$m\244\314\277\205\243\207"
 2925      70AC4E69 
 2925      AD37246D 
 2925      A4CCBF85 
 2925      A387
 2926 0083 BB6E5C19 		.ascii	"\273n\\\031\260q\036&A\370\376p\227\025\210\240\366"
 2926      B0711E26 
 2926      41F8FE70 
 2926      971588A0 
 2926      F6
 2927 0094 DA16612F 		.ascii	"\332\026a/\216R\037\341\010\371\244`\207\021\320\304"
 2927      8E521FE1 
 2927      08F9A460 
 2927      8711D0C4 
 2928 00a4 D14AD6CD 		.ascii	"\321J\326\315\035\350\355\231F_\377\220\355\223\245"
 2928      1DE8ED99 
 2928      465FFF90 
 2928      ED93A5
 2929 00b3 4EB2E637 		.ascii	"N\262\3467\340WpA%\307\345\370\004\341\011~\347S~\232"
 2929      E0577041 
 2929      25C7E5F8 
 2929      04E1097E 
 2929      E7537E9A 
 2930 00c7 36CB75F9 		.ascii	"6\313u\371\220\326\343\327\007\264\256W>\021\006\020"
 2930      90D6E3D7 
 2930      07B4AE57 
 2930      3E110610 
 2931 00d7 2370169C 		.ascii	"#p\026\234j;\333(\232r\237\026P\240@\215\302\300\362"
 2931      6A3BDB28 
 2931      9A729F16 
 2931      50A0408D 
 2931      C2C0F2
 2932 00ea F3B0B910 		.ascii	"\363\260\271\020f\343\317j\330 K\355\266\221jX\240@"
 2932      66E3CF6A 
 2932      D8204BED 
 2932      B6916A58 
 2932      A040
 2933 00fc 8D42196F 		.ascii	"\215B\031o\011eZ\371\013\312D\220\010Q\336\302\020L"
 2933      09655AF9 
 2933      0BCA4490 
 2933      0851DEC2 
 2933      104C
 2934 010e CDDD51CD 		.ascii	"\315\335Q\315\271\273\007\177\374e\325\310>\375\225"
 2934      B9BB077F 
 2934      FC65D5C8 
 2934      3EFD95
 2935 011d 4F0E8621 		.ascii	"O\016\206!\232\020\3727C\235\266\341\305\254\\&\312"
 2935      9A10FA37 
 2935      439DB6E1 
 2935      C5AC5C26 
ARM GAS  /tmp/cckdeSuD.s 			page 102


 2935      CA
 2936 012e F1E1B143 		.ascii	"\361\341\261CI=\252\355H\211X\031\324\246\023\250\341"
 2936      493DAAED 
 2936      48895819 
 2936      D4A613A8 
 2936      E1
 2937 013f 36F54843 		.ascii	"6\365HC>%\360O5x\204\301\211\266k\377\007\016\224\210"
 2937      3E25F04F 
 2937      357884C1 
 2937      89B66BFF 
 2937      070E9488 
 2938 0153 956153F2 		.ascii	"\225aS\362\272\356l\306E\340\002\247\317\013M\372\303"
 2938      BAEE6CC6 
 2938      45E002A7 
 2938      CF0B4DFA 
 2938      C3
 2939 0164 254847A2 		.ascii	"%HG\242\372i\302\321\372\365\233n\255\007\335%\215\340"
 2939      FA69C2D1 
 2939      FAF59B6E 
 2939      AD07DD25 
 2939      8DE0
 2940 0176 293A16F0 		.ascii	"):\026\360\007\210\243\204-\267\016p\216\307\340S2)"
 2940      0788A384 
 2940      2DB70E70 
 2940      8EC7E053 
 2940      3229
 2941 0188 17A5BA49 		.ascii	"\027\245\272I\326E\333\220\320\016BRe\262\242\360\011"
 2941      D645DB90 
 2941      D00E4252 
 2941      65B2A2F0 
 2941      09
 2942 0199 F4E48389 		.ascii	"\364\344\203\211\005\\O=E\347`}\205\020nQ\235it?,\016"
 2942      055C4F3D 
 2942      45E7607D 
 2942      85106E51 
 2942      9D69743F 
 2943 01af FBC9783C 		.ascii	"\373\311x<-5\353q\031\0303\207\315\014\251\363i\001"
 2943      2D35EB71 
 2943      19183387 
 2943      CD0CA9F3 
 2943      6901
 2944 01c1 AEE0042B 		.ascii	"\256\340\004+Tx\357\340*\337\213cF\366N\177\034\002"
 2944      5478EFE0 
 2944      2ADF8B63 
 2944      46F64E7F 
 2944      1C02
 2945 01d3 1DCC333E 		.ascii	"\035\3143>\3402\270>\317\350_\350\323\207\270\301\017"
 2945      E032B83E 
 2945      CFE85FE8 
 2945      D387B8C1 
 2945      0F
 2946 01e4 5901E471 		.ascii	"Y\001\344q\203O\0131\316\011\306V8+6\037NX\002<\326"
 2946      834F0B31 
 2946      CE09C656 
 2946      382B361F 
 2946      4E58023C 
 2947 01f9 850A454B 		.ascii	"\205\012EKO1\263\201u\230\250\366\325\210\233L\340\245"
ARM GAS  /tmp/cckdeSuD.s 			page 103


 2947      4F31B381 
 2947      7598A8F6 
 2947      D5889B4C 
 2947      E0A5
 2948 020b D98F2091 		.ascii	"\331\217 \221\300-v\365\004\235M<c\266\020\204\027\205"
 2948      C02D76F5 
 2948      049D4D3C 
 2948      63B61084 
 2948      1785
 2949 021d 2715667F 		.ascii	"'\025f\177\356\276?\365(\305\0237\365\236M\365\000\243"
 2949      EEBE3FF5 
 2949      28C51337 
 2949      F59E4DF5 
 2949      00A3
 2950 022f 662EBD67 		.ascii	"f.\275g>\177\207\365\307\226\324\271\315u\034yU\246"
 2950      3E7F87F5 
 2950      C796D4B9 
 2950      CD751C79 
 2950      55A6
 2951 0241 9B06E9F5 		.ascii	"\233\006\351\365\016\247\022\222\012\341\223\263S\237"
 2951      0EA71292 
 2951      0AE193B3 
 2951      539F
 2952 024f 98114F2F 		.ascii	"\230\021O/\253P\364\245&b\373\215b\377\036\342\031\376"
 2952      AB50F4A5 
 2952      2662FB8D 
 2952      62FF1EE2 
 2952      19FE
 2953 0261 CB80A400 		.ascii	"\313\200\244\000\344\251\231\256\027\364^\007\367\337"
 2953      E4A999AE 
 2953      17F45E07 
 2953      F7DF
 2954 026f 76F02002 		.ascii	"v\360 \002p=\343\340E\340\240\266\031\273\032\265DP"
 2954      703DE3E0 
 2954      45E0A0B6 
 2954      19BB1AB5 
 2954      4450
 2955 0281 0F6B509F 		.ascii	"\017kP\237\012\352Q\334L0\233\227o\241\252\375\367\233"
 2955      0AEA51DC 
 2955      4C309B97 
 2955      6FA1AAFD 
 2955      F79B
 2956 0293 B73D19D7 		.ascii	"\267=\031\3277\223\236\371a\366\3707\274h\262\337\321"
 2956      37939EF9 
 2956      61F6F837 
 2956      BC68B2DF 
 2956      D1
 2957 02a4 E495A13D 		.ascii	"\344\225\241=O\251\031\0348\265\256B\011\263o\037\235"
 2957      4FA9191C 
