ARM GAS  /tmp/ccmpYJuH.s 			page 1


   1              		.cpu cortex-m4
   2              		.eabi_attribute 20, 1
   3              		.eabi_attribute 21, 1
   4              		.eabi_attribute 23, 3
   5              		.eabi_attribute 24, 1
   6              		.eabi_attribute 25, 1
   7              		.eabi_attribute 26, 1
   8              		.eabi_attribute 30, 2
   9              		.eabi_attribute 34, 1
  10              		.eabi_attribute 18, 4
  11              		.file	"chthreads.c"
  12              		.file 1 "/usr/share/gcc-arm-none-eabi-10-2020-q4-major/lib/gcc/arm-none-eabi/10.2.1/include/stddef
  13              		.file 2 "/usr/share/gcc-arm-none-eabi-10-2020-q4-major/arm-none-eabi/include/machine/_default_type
  14              		.file 3 "/usr/share/gcc-arm-none-eabi-10-2020-q4-major/arm-none-eabi/include/sys/_stdint.h"
  15              		.file 4 "./ChibiOS_20.3.0/os/common/ports/ARMCMx/compilers/GCC/chtypes.h"
  16              		.file 5 "./ChibiOS_20.3.0/os/rt/include/chsystypes.h"
  17              		.file 6 "./ChibiOS_20.3.0/os/rt/include/chschd.h"
  18              		.file 7 "./ChibiOS_20.3.0/os/rt/include/chtime.h"
  19              		.file 8 "./ChibiOS_20.3.0/os/common/ports/ARMCMx/chcore.h"
  20              		.file 9 "./ChibiOS_20.3.0/os/common/ports/ARMCMx/chcore_v7m.h"
  21              		.file 10 "./ChibiOS_20.3.0/os/rt/include/chtm.h"
  22              		.file 11 "./ChibiOS_20.3.0/os/rt/include/chsem.h"
  23              		.file 12 "./ChibiOS_20.3.0/os/rt/include/chmtx.h"
  24              		.file 13 "./ChibiOS_20.3.0/os/rt/include/chthreads.h"
  25              		.file 14 "./ChibiOS_20.3.0/os/rt/src/chthreads.c"
  26              		.file 15 "./ChibiOS_20.3.0/os/rt/include/chvt.h"
  27              		.file 16 "./ChibiOS_20.3.0/os/rt/include/chsys.h"
  28              		.file 17 "./ChibiOS_20.3.0/os/common/ports/ARMCMx/chcore_timer.h"
  29              		.file 18 "./ChibiOS_20.3.0/os/common/ext/ARM/CMSIS/Core/Include/cmsis_gcc.h"
  30              		.section	.gnu.debuglto_.debug_info,"e",%progbits
  31              	.Ldebug_info0:
  32              		.hidden	chthreads.c.f6a23389
  33              		.weak	chthreads.c.f6a23389
  34              	chthreads.c.f6a23389:
  35 0000 070F0000 		.4byte	0xf07
  36 0004 0400     		.2byte	0x4
  37 0006 00000000 		.4byte	.Ldebug_abbrev0
  38 000a 04       		.byte	0x4
  39 000b 01       		.uleb128 0x1
  40 000c 85020000 		.4byte	.LASF154
  41 0010 0C       		.byte	0xc
  42 0011 B7030000 		.4byte	.LASF155
  43 0015 4B020000 		.4byte	.LASF156
  44 0019 00000000 		.4byte	.Ldebug_line0
  45 001d 02       		.uleb128 0x2
  46 001e 04       		.byte	0x4
  47 001f 05       		.byte	0x5
  48 0020 696E7400 		.ascii	"int\000"
  49 0024 03       		.uleb128 0x3
  50 0025 2A000000 		.4byte	.LASF4
  51 0029 01       		.byte	0x1
  52 002a D1       		.byte	0xd1
  53 002b 17       		.byte	0x17
  54 002c 30000000 		.4byte	0x30
  55 0030 04       		.uleb128 0x4
  56 0031 04       		.byte	0x4
  57 0032 07       		.byte	0x7
ARM GAS  /tmp/ccmpYJuH.s 			page 2


  58 0033 7C030000 		.4byte	.LASF0
  59 0037 04       		.uleb128 0x4
  60 0038 08       		.byte	0x8
  61 0039 05       		.byte	0x5
  62 003a 44010000 		.4byte	.LASF1
  63 003e 04       		.uleb128 0x4
  64 003f 08       		.byte	0x8
  65 0040 04       		.byte	0x4
  66 0041 FB040000 		.4byte	.LASF2
  67 0045 04       		.uleb128 0x4
  68 0046 01       		.byte	0x1
  69 0047 06       		.byte	0x6
  70 0048 52010000 		.4byte	.LASF3
  71 004c 03       		.uleb128 0x3
  72 004d 5E000000 		.4byte	.LASF5
  73 0051 02       		.byte	0x2
  74 0052 2B       		.byte	0x2b
  75 0053 18       		.byte	0x18
  76 0054 58000000 		.4byte	0x58
  77 0058 04       		.uleb128 0x4
  78 0059 01       		.byte	0x1
  79 005a 08       		.byte	0x8
  80 005b BF050000 		.4byte	.LASF6
  81 005f 04       		.uleb128 0x4
  82 0060 02       		.byte	0x2
  83 0061 05       		.byte	0x5
  84 0062 CD050000 		.4byte	.LASF7
  85 0066 04       		.uleb128 0x4
  86 0067 02       		.byte	0x2
  87 0068 07       		.byte	0x7
  88 0069 E9030000 		.4byte	.LASF8
  89 006d 03       		.uleb128 0x3
  90 006e 5A040000 		.4byte	.LASF9
  91 0072 02       		.byte	0x2
  92 0073 4D       		.byte	0x4d
  93 0074 18       		.byte	0x18
  94 0075 79000000 		.4byte	0x79
  95 0079 04       		.uleb128 0x4
  96 007a 04       		.byte	0x4
  97 007b 05       		.byte	0x5
  98 007c D1010000 		.4byte	.LASF10
  99 0080 03       		.uleb128 0x3
 100 0081 22070000 		.4byte	.LASF11
 101 0085 02       		.byte	0x2
 102 0086 4F       		.byte	0x4f
 103 0087 19       		.byte	0x19
 104 0088 8C000000 		.4byte	0x8c
 105 008c 04       		.uleb128 0x4
 106 008d 04       		.byte	0x4
 107 008e 07       		.byte	0x7
 108 008f 89060000 		.4byte	.LASF12
 109 0093 03       		.uleb128 0x3
 110 0094 65050000 		.4byte	.LASF13
 111 0098 02       		.byte	0x2
 112 0099 69       		.byte	0x69
 113 009a 19       		.byte	0x19
 114 009b 9F000000 		.4byte	0x9f
ARM GAS  /tmp/ccmpYJuH.s 			page 3


 115 009f 04       		.uleb128 0x4
 116 00a0 08       		.byte	0x8
 117 00a1 07       		.byte	0x7
 118 00a2 DB000000 		.4byte	.LASF14
 119 00a6 03       		.uleb128 0x3
 120 00a7 7F070000 		.4byte	.LASF15
 121 00ab 03       		.byte	0x3
 122 00ac 18       		.byte	0x18
 123 00ad 13       		.byte	0x13
 124 00ae 4C000000 		.4byte	0x4c
 125 00b2 03       		.uleb128 0x3
 126 00b3 B7050000 		.4byte	.LASF16
 127 00b7 03       		.byte	0x3
 128 00b8 2C       		.byte	0x2c
 129 00b9 13       		.byte	0x13
 130 00ba 6D000000 		.4byte	0x6d
 131 00be 03       		.uleb128 0x3
 132 00bf 57060000 		.4byte	.LASF17
 133 00c3 03       		.byte	0x3
 134 00c4 30       		.byte	0x30
 135 00c5 14       		.byte	0x14
 136 00c6 80000000 		.4byte	0x80
 137 00ca 03       		.uleb128 0x3
 138 00cb 44000000 		.4byte	.LASF18
 139 00cf 03       		.byte	0x3
 140 00d0 3C       		.byte	0x3c
 141 00d1 14       		.byte	0x14
 142 00d2 93000000 		.4byte	0x93
 143 00d6 03       		.uleb128 0x3
 144 00d7 C3040000 		.4byte	.LASF19
 145 00db 04       		.byte	0x4
 146 00dc 27       		.byte	0x27
 147 00dd 1D       		.byte	0x1d
 148 00de BE000000 		.4byte	0xbe
 149 00e2 03       		.uleb128 0x3
 150 00e3 29040000 		.4byte	.LASF20
 151 00e7 04       		.byte	0x4
 152 00e8 2A       		.byte	0x2a
 153 00e9 1D       		.byte	0x1d
 154 00ea A6000000 		.4byte	0xa6
 155 00ee 03       		.uleb128 0x3
 156 00ef DA010000 		.4byte	.LASF21
 157 00f3 04       		.byte	0x4
 158 00f4 2B       		.byte	0x2b
 159 00f5 1D       		.byte	0x1d
 160 00f6 A6000000 		.4byte	0xa6
 161 00fa 03       		.uleb128 0x3
 162 00fb 70050000 		.4byte	.LASF22
 163 00ff 04       		.byte	0x4
 164 0100 2C       		.byte	0x2c
 165 0101 1D       		.byte	0x1d
 166 0102 A6000000 		.4byte	0xa6
 167 0106 03       		.uleb128 0x3
 168 0107 99050000 		.4byte	.LASF23
 169 010b 04       		.byte	0x4
 170 010c 2E       		.byte	0x2e
 171 010d 1D       		.byte	0x1d
ARM GAS  /tmp/ccmpYJuH.s 			page 4


 172 010e BE000000 		.4byte	0xbe
 173 0112 03       		.uleb128 0x3
 174 0113 06040000 		.4byte	.LASF24
 175 0117 04       		.byte	0x4
 176 0118 2F       		.byte	0x2f
 177 0119 1D       		.byte	0x1d
 178 011a B2000000 		.4byte	0xb2
 179 011e 03       		.uleb128 0x3
 180 011f 4E040000 		.4byte	.LASF25
 181 0123 04       		.byte	0x4
 182 0124 31       		.byte	0x31
 183 0125 1D       		.byte	0x1d
 184 0126 BE000000 		.4byte	0xbe
 185 012a 03       		.uleb128 0x3
 186 012b 63030000 		.4byte	.LASF26
 187 012f 04       		.byte	0x4
 188 0130 33       		.byte	0x33
 189 0131 1D       		.byte	0x1d
 190 0132 B2000000 		.4byte	0xb2
 191 0136 03       		.uleb128 0x3
 192 0137 AD060000 		.4byte	.LASF27
 193 013b 05       		.byte	0x5
 194 013c 34       		.byte	0x34
 195 013d 1A       		.byte	0x1a
 196 013e 42010000 		.4byte	0x142
 197 0142 05       		.uleb128 0x5
 198 0143 FC030000 		.4byte	.LASF45
 199 0147 44       		.byte	0x44
 200 0148 06       		.byte	0x6
 201 0149 8E       		.byte	0x8e
 202 014a 08       		.byte	0x8
 203 014b 32020000 		.4byte	0x232
 204 014f 06       		.uleb128 0x6
 205 0150 05020000 		.4byte	.LASF28
 206 0154 06       		.byte	0x6
 207 0155 8F       		.byte	0x8f
 208 0156 19       		.byte	0x19
 209 0157 6B020000 		.4byte	0x26b
 210 015b 00       		.byte	0
 211 015c 06       		.uleb128 0x6
 212 015d 2F050000 		.4byte	.LASF29
 213 0161 06       		.byte	0x6
 214 0162 90       		.byte	0x90
 215 0163 19       		.byte	0x19
 216 0164 06010000 		.4byte	0x106
 217 0168 08       		.byte	0x8
 218 0169 07       		.uleb128 0x7
 219 016a 63747800 		.ascii	"ctx\000"
 220 016e 06       		.byte	0x6
 221 016f 91       		.byte	0x91
 222 0170 19       		.byte	0x19
 223 0171 19050000 		.4byte	0x519
 224 0175 0C       		.byte	0xc
 225 0176 06       		.uleb128 0x6
 226 0177 2D070000 		.4byte	.LASF30
 227 017b 06       		.byte	0x6
 228 017c 93       		.byte	0x93
ARM GAS  /tmp/ccmpYJuH.s 			page 5


 229 017d 1A       		.byte	0x1a
 230 017e 3E020000 		.4byte	0x23e
 231 0182 10       		.byte	0x10
 232 0183 06       		.uleb128 0x6
 233 0184 A7060000 		.4byte	.LASF31
 234 0188 06       		.byte	0x6
 235 0189 94       		.byte	0x94
 236 018a 1A       		.byte	0x1a
 237 018b 3E020000 		.4byte	0x23e
 238 018f 14       		.byte	0x14
 239 0190 06       		.uleb128 0x6
 240 0191 DE030000 		.4byte	.LASF32
 241 0195 06       		.byte	0x6
 242 0196 9B       		.byte	0x9b
 243 0197 1A       		.byte	0x1a
 244 0198 38060000 		.4byte	0x638
 245 019c 18       		.byte	0x18
 246 019d 06       		.uleb128 0x6
 247 019e 9B060000 		.4byte	.LASF33
 248 01a2 06       		.byte	0x6
 249 01a3 A4       		.byte	0xa4
 250 01a4 1A       		.byte	0x1a
 251 01a5 4F060000 		.4byte	0x64f
 252 01a9 1C       		.byte	0x1c
 253 01aa 06       		.uleb128 0x6
 254 01ab CB010000 		.4byte	.LASF34
 255 01af 06       		.byte	0x6
 256 01b0 A9       		.byte	0xa9
 257 01b1 19       		.byte	0x19
 258 01b2 EE000000 		.4byte	0xee
 259 01b6 20       		.byte	0x20
 260 01b7 06       		.uleb128 0x6
 261 01b8 87070000 		.4byte	.LASF35
 262 01bc 06       		.byte	0x6
 263 01bd AD       		.byte	0xad
 264 01be 19       		.byte	0x19
 265 01bf E2000000 		.4byte	0xe2
 266 01c3 21       		.byte	0x21
 267 01c4 06       		.uleb128 0x6
 268 01c5 78050000 		.4byte	.LASF36
 269 01c9 06       		.byte	0x6
 270 01ca B2       		.byte	0xb2
 271 01cb 19       		.byte	0x19
 272 01cc FA000000 		.4byte	0xfa
 273 01d0 22       		.byte	0x22
 274 01d1 08       		.uleb128 0x8
 275 01d2 7500     		.ascii	"u\000"
 276 01d4 06       		.byte	0x6
 277 01d5 0301     		.2byte	0x103
 278 01d7 19       		.byte	0x19
 279 01d8 5E050000 		.4byte	0x55e
 280 01dc 24       		.byte	0x24
 281 01dd 09       		.uleb128 0x9
 282 01de F5050000 		.4byte	.LASF37
 283 01e2 06       		.byte	0x6
 284 01e3 0801     		.2byte	0x108
 285 01e5 19       		.byte	0x19
ARM GAS  /tmp/ccmpYJuH.s 			page 6


 286 01e6 44020000 		.4byte	0x244
 287 01ea 28       		.byte	0x28
 288 01eb 09       		.uleb128 0x9
 289 01ec 70040000 		.4byte	.LASF38
 290 01f0 06       		.byte	0x6
 291 01f1 0E01     		.2byte	0x10e
 292 01f3 19       		.byte	0x19
 293 01f4 6B020000 		.4byte	0x26b
 294 01f8 2C       		.byte	0x2c
 295 01f9 09       		.uleb128 0x9
 296 01fa 0C040000 		.4byte	.LASF39
 297 01fe 06       		.byte	0x6
 298 01ff 1401     		.2byte	0x114
 299 0201 19       		.byte	0x19
 300 0202 1E010000 		.4byte	0x11e
 301 0206 34       		.byte	0x34
 302 0207 09       		.uleb128 0x9
 303 0208 CD070000 		.4byte	.LASF40
 304 020c 06       		.byte	0x6
 305 020d 1B01     		.2byte	0x11b
 306 020f 1A       		.byte	0x1a
 307 0210 32060000 		.4byte	0x632
 308 0214 38       		.byte	0x38
 309 0215 09       		.uleb128 0x9
 310 0216 A5040000 		.4byte	.LASF41
 311 021a 06       		.byte	0x6
 312 021b 1F01     		.2byte	0x11f
 313 021d 19       		.byte	0x19
 314 021e 06010000 		.4byte	0x106
 315 0222 3C       		.byte	0x3c
 316 0223 09       		.uleb128 0x9
 317 0224 E3030000 		.4byte	.LASF42
 318 0228 06       		.byte	0x6
 319 0229 2601     		.2byte	0x126
 320 022b 1A       		.byte	0x1a
 321 022c 30030000 		.4byte	0x330
 322 0230 40       		.byte	0x40
 323 0231 00       		.byte	0
 324 0232 03       		.uleb128 0x3
 325 0233 CB040000 		.4byte	.LASF43
 326 0237 05       		.byte	0x5
 327 0238 39       		.byte	0x39
 328 0239 14       		.byte	0x14
 329 023a 3E020000 		.4byte	0x23e
 330 023e 0A       		.uleb128 0xa
 331 023f 04       		.byte	0x4
 332 0240 36010000 		.4byte	0x136
 333 0244 03       		.uleb128 0x3
 334 0245 96040000 		.4byte	.LASF44
 335 0249 05       		.byte	0x5
 336 024a 3E       		.byte	0x3e
 337 024b 20       		.byte	0x20
 338 024c 50020000 		.4byte	0x250
 339 0250 05       		.uleb128 0x5
 340 0251 73060000 		.4byte	.LASF46
 341 0255 04       		.byte	0x4
 342 0256 06       		.byte	0x6
ARM GAS  /tmp/ccmpYJuH.s 			page 7


 343 0257 7C       		.byte	0x7c
 344 0258 08       		.byte	0x8
 345 0259 6B020000 		.4byte	0x26b
 346 025d 06       		.uleb128 0x6
 347 025e 24010000 		.4byte	.LASF47
 348 0262 06       		.byte	0x6
 349 0263 7D       		.byte	0x7d
 350 0264 1A       		.byte	0x1a
 351 0265 3E020000 		.4byte	0x23e
 352 0269 00       		.byte	0
 353 026a 00       		.byte	0
 354 026b 03       		.uleb128 0x3
 355 026c 52070000 		.4byte	.LASF48
 356 0270 05       		.byte	0x5
 357 0271 45       		.byte	0x45
 358 0272 21       		.byte	0x21
 359 0273 7C020000 		.4byte	0x27c
 360 0277 0B       		.uleb128 0xb
 361 0278 6B020000 		.4byte	0x26b
 362 027c 05       		.uleb128 0x5
 363 027d 29010000 		.4byte	.LASF49
 364 0281 08       		.byte	0x8
 365 0282 06       		.byte	0x6
 366 0283 83       		.byte	0x83
 367 0284 08       		.byte	0x8
 368 0285 A4020000 		.4byte	0x2a4
 369 0289 06       		.uleb128 0x6
 370 028a 24010000 		.4byte	.LASF47
 371 028e 06       		.byte	0x6
 372 028f 84       		.byte	0x84
 373 0290 1A       		.byte	0x1a
 374 0291 3E020000 		.4byte	0x23e
 375 0295 00       		.byte	0
 376 0296 06       		.uleb128 0x6
 377 0297 68000000 		.4byte	.LASF50
 378 029b 06       		.byte	0x6
 379 029c 85       		.byte	0x85
 380 029d 1A       		.byte	0x1a
 381 029e 3E020000 		.4byte	0x23e
 382 02a2 04       		.byte	0x4
 383 02a3 00       		.byte	0
 384 02a4 03       		.uleb128 0x3
 385 02a5 10000000 		.4byte	.LASF51
 386 02a9 05       		.byte	0x5
 387 02aa 4C       		.byte	0x4c
 388 02ab 1E       		.byte	0x1e
 389 02ac B0020000 		.4byte	0x2b0
 390 02b0 0C       		.uleb128 0xc
 391 02b1 40040000 		.4byte	.LASF52
 392 02b5 1C       		.byte	0x1c
 393 02b6 06       		.byte	0x6
 394 02b7 5E01     		.2byte	0x15e
 395 02b9 08       		.byte	0x8
 396 02ba 13030000 		.4byte	0x313
 397 02be 09       		.uleb128 0x9
 398 02bf 05020000 		.4byte	.LASF28
 399 02c3 06       		.byte	0x6
ARM GAS  /tmp/ccmpYJuH.s 			page 8


 400 02c4 5F01     		.2byte	0x15f
 401 02c6 19       		.byte	0x19
 402 02c7 6B020000 		.4byte	0x26b
 403 02cb 00       		.byte	0
 404 02cc 09       		.uleb128 0x9
 405 02cd 2F050000 		.4byte	.LASF29
 406 02d1 06       		.byte	0x6
 407 02d2 6001     		.2byte	0x160
 408 02d4 19       		.byte	0x19
 409 02d5 06010000 		.4byte	0x106
 410 02d9 08       		.byte	0x8
 411 02da 08       		.uleb128 0x8
 412 02db 63747800 		.ascii	"ctx\000"
 413 02df 06       		.byte	0x6
 414 02e0 6201     		.2byte	0x162
 415 02e2 19       		.byte	0x19
 416 02e3 19050000 		.4byte	0x519
 417 02e7 0C       		.byte	0xc
 418 02e8 09       		.uleb128 0x9
 419 02e9 2D070000 		.4byte	.LASF30
 420 02ed 06       		.byte	0x6
 421 02ee 6501     		.2byte	0x165
 422 02f0 1A       		.byte	0x1a
 423 02f1 3E020000 		.4byte	0x23e
 424 02f5 10       		.byte	0x10
 425 02f6 09       		.uleb128 0x9
 426 02f7 A7060000 		.4byte	.LASF31
 427 02fb 06       		.byte	0x6
 428 02fc 6601     		.2byte	0x166
 429 02fe 1A       		.byte	0x1a
 430 02ff 3E020000 		.4byte	0x23e
 431 0303 14       		.byte	0x14
 432 0304 09       		.uleb128 0x9
 433 0305 4F050000 		.4byte	.LASF53
 434 0309 06       		.byte	0x6
 435 030a 6901     		.2byte	0x169
 436 030c 1A       		.byte	0x1a
 437 030d 3E020000 		.4byte	0x23e
 438 0311 18       		.byte	0x18
 439 0312 00       		.byte	0
 440 0313 03       		.uleb128 0x3
 441 0314 E6060000 		.4byte	.LASF54
 442 0318 05       		.byte	0x5
 443 0319 51       		.byte	0x51
 444 031a 10       		.byte	0x10
 445 031b 1F030000 		.4byte	0x31f
 446 031f 0A       		.uleb128 0xa
 447 0320 04       		.byte	0x4
 448 0321 25030000 		.4byte	0x325
 449 0325 0D       		.uleb128 0xd
 450 0326 30030000 		.4byte	0x330
 451 032a 0E       		.uleb128 0xe
 452 032b 30030000 		.4byte	0x330
 453 032f 00       		.byte	0
 454 0330 0F       		.uleb128 0xf
 455 0331 04       		.byte	0x4
 456 0332 03       		.uleb128 0x3
ARM GAS  /tmp/ccmpYJuH.s 			page 9


 457 0333 7D050000 		.4byte	.LASF55
 458 0337 05       		.byte	0x5
 459 0338 56       		.byte	0x56
 460 0339 21       		.byte	0x21
 461 033a 3E030000 		.4byte	0x33e
 462 033e 0C       		.uleb128 0xc
 463 033f 2E060000 		.4byte	.LASF56
 464 0343 14       		.byte	0x14
 465 0344 06       		.byte	0x6
 466 0345 3901     		.2byte	0x139
 467 0347 08       		.byte	0x8
 468 0348 93030000 		.4byte	0x393
 469 034c 09       		.uleb128 0x9
 470 034d 24010000 		.4byte	.LASF47
 471 0351 06       		.byte	0x6
 472 0352 3A01     		.2byte	0x13a
 473 0354 1A       		.byte	0x1a
 474 0355 55060000 		.4byte	0x655
 475 0359 00       		.byte	0
 476 035a 09       		.uleb128 0x9
 477 035b 68000000 		.4byte	.LASF50
 478 035f 06       		.byte	0x6
 479 0360 3B01     		.2byte	0x13b
 480 0362 1A       		.byte	0x1a
 481 0363 55060000 		.4byte	0x655
 482 0367 04       		.byte	0x4
 483 0368 09       		.uleb128 0x9
 484 0369 31000000 		.4byte	.LASF57
 485 036d 06       		.byte	0x6
 486 036e 3C01     		.2byte	0x13c
 487 0370 19       		.byte	0x19
 488 0371 7B040000 		.4byte	0x47b
 489 0375 08       		.byte	0x8
 490 0376 09       		.uleb128 0x9
 491 0377 F2010000 		.4byte	.LASF58
 492 037b 06       		.byte	0x6
 493 037c 3D01     		.2byte	0x13d
 494 037e 19       		.byte	0x19
 495 037f 13030000 		.4byte	0x313
 496 0383 0C       		.byte	0xc
 497 0384 08       		.uleb128 0x8
 498 0385 70617200 		.ascii	"par\000"
 499 0389 06       		.byte	0x6
 500 038a 3F01     		.2byte	0x13f
 501 038c 1A       		.byte	0x1a
 502 038d 30030000 		.4byte	0x330
 503 0391 10       		.byte	0x10
 504 0392 00       		.byte	0
 505 0393 03       		.uleb128 0x3
 506 0394 0E010000 		.4byte	.LASF59
 507 0398 05       		.byte	0x5
 508 0399 5B       		.byte	0x5b
 509 039a 28       		.byte	0x28
 510 039b 9F030000 		.4byte	0x39f
 511 039f 0C       		.uleb128 0xc
 512 03a0 DE040000 		.4byte	.LASF60
 513 03a4 10       		.byte	0x10
ARM GAS  /tmp/ccmpYJuH.s 			page 10


 514 03a5 06       		.byte	0x6
 515 03a6 4901     		.2byte	0x149
 516 03a8 08       		.byte	0x8
 517 03a9 E6030000 		.4byte	0x3e6
 518 03ad 09       		.uleb128 0x9
 519 03ae 24010000 		.4byte	.LASF47
 520 03b2 06       		.byte	0x6
 521 03b3 4A01     		.2byte	0x14a
 522 03b5 1A       		.byte	0x1a
 523 03b6 55060000 		.4byte	0x655
 524 03ba 00       		.byte	0
 525 03bb 09       		.uleb128 0x9
 526 03bc 68000000 		.4byte	.LASF50
 527 03c0 06       		.byte	0x6
 528 03c1 4C01     		.2byte	0x14c
 529 03c3 1A       		.byte	0x1a
 530 03c4 55060000 		.4byte	0x655
 531 03c8 04       		.byte	0x4
 532 03c9 09       		.uleb128 0x9
 533 03ca 31000000 		.4byte	.LASF57
 534 03ce 06       		.byte	0x6
 535 03cf 4E01     		.2byte	0x14e
 536 03d1 19       		.byte	0x19
 537 03d2 7B040000 		.4byte	0x47b
 538 03d6 08       		.byte	0x8
 539 03d7 09       		.uleb128 0x9
 540 03d8 D7050000 		.4byte	.LASF61
 541 03dc 06       		.byte	0x6
 542 03dd 5601     		.2byte	0x156
 543 03df 19       		.byte	0x19
 544 03e0 6F040000 		.4byte	0x46f
 545 03e4 0C       		.byte	0xc
 546 03e5 00       		.byte	0
 547 03e6 03       		.uleb128 0x3
 548 03e7 79000000 		.4byte	.LASF62
 549 03eb 05       		.byte	0x5
 550 03ec 60       		.byte	0x60
 551 03ed 20       		.byte	0x20
 552 03ee F2030000 		.4byte	0x3f2
 553 03f2 0C       		.uleb128 0xc
 554 03f3 A1050000 		.4byte	.LASF63
 555 03f7 04       		.byte	0x4
 556 03f8 06       		.byte	0x6
 557 03f9 7001     		.2byte	0x170
 558 03fb 08       		.byte	0x8
 559 03fc 0F040000 		.4byte	0x40f
 560 0400 09       		.uleb128 0x9
 561 0401 FD060000 		.4byte	.LASF64
 562 0405 06       		.byte	0x6
 563 0406 7801     		.2byte	0x178
 564 0408 24       		.byte	0x24
 565 0409 3E060000 		.4byte	0x63e
 566 040d 00       		.byte	0
 567 040e 00       		.byte	0
 568 040f 03       		.uleb128 0x3
 569 0410 15040000 		.4byte	.LASF65
 570 0414 05       		.byte	0x5
ARM GAS  /tmp/ccmpYJuH.s 			page 11


 571 0415 65       		.byte	0x65
 572 0416 1A       		.byte	0x1a
 573 0417 1B040000 		.4byte	0x41b
 574 041b 0C       		.uleb128 0xc
 575 041c 04060000 		.4byte	.LASF66
 576 0420 78       		.byte	0x78
 577 0421 06       		.byte	0x6
 578 0422 9001     		.2byte	0x190
 579 0424 08       		.byte	0x8
 580 0425 6F040000 		.4byte	0x46f
 581 0429 09       		.uleb128 0x9
 582 042a 6B070000 		.4byte	.LASF67
 583 042e 06       		.byte	0x6
 584 042f 9401     		.2byte	0x194
 585 0431 19       		.byte	0x19
 586 0432 A4020000 		.4byte	0x2a4
 587 0436 00       		.byte	0
 588 0437 09       		.uleb128 0x9
 589 0438 AB010000 		.4byte	.LASF68
 590 043c 06       		.byte	0x6
 591 043d 9801     		.2byte	0x198
 592 043f 19       		.byte	0x19
 593 0440 93030000 		.4byte	0x393
 594 0444 1C       		.byte	0x1c
 595 0445 08       		.uleb128 0x8
 596 0446 64626700 		.ascii	"dbg\000"
 597 044a 06       		.byte	0x6
 598 044b 9C01     		.2byte	0x19c
 599 044d 19       		.byte	0x19
 600 044e E6030000 		.4byte	0x3e6
 601 0452 2C       		.byte	0x2c
 602 0453 09       		.uleb128 0x9
 603 0454 FB000000 		.4byte	.LASF69
 604 0458 06       		.byte	0x6
 605 0459 A001     		.2byte	0x1a0
 606 045b 19       		.byte	0x19
 607 045c 36010000 		.4byte	0x136
 608 0460 30       		.byte	0x30
 609 0461 08       		.uleb128 0x8
 610 0462 746D00   		.ascii	"tm\000"
 611 0465 06       		.byte	0x6
 612 0466 A501     		.2byte	0x1a5
 613 0468 19       		.byte	0x19
 614 0469 52050000 		.4byte	0x552
 615 046d 74       		.byte	0x74
 616 046e 00       		.byte	0
 617 046f 03       		.uleb128 0x3
 618 0470 DC060000 		.4byte	.LASF70
 619 0474 07       		.byte	0x7
 620 0475 6D       		.byte	0x6d
 621 0476 12       		.byte	0x12
 622 0477 BE000000 		.4byte	0xbe
 623 047b 03       		.uleb128 0x3
 624 047c F7010000 		.4byte	.LASF71
 625 0480 07       		.byte	0x7
 626 0481 79       		.byte	0x79
 627 0482 12       		.byte	0x12
ARM GAS  /tmp/ccmpYJuH.s 			page 12


 628 0483 BE000000 		.4byte	0xbe
 629 0487 03       		.uleb128 0x3
 630 0488 79040000 		.4byte	.LASF72
 631 048c 08       		.byte	0x8
 632 048d 68       		.byte	0x68
 633 048e 12       		.byte	0x12
 634 048f CA000000 		.4byte	0xca
 635 0493 0C       		.uleb128 0xc
 636 0494 6D000000 		.4byte	.LASF73
 637 0498 24       		.byte	0x24
 638 0499 09       		.byte	0x9
 639 049a 8501     		.2byte	0x185
 640 049c 08       		.byte	0x8
 641 049d 19050000 		.4byte	0x519
 642 04a1 08       		.uleb128 0x8
 643 04a2 723400   		.ascii	"r4\000"
 644 04a5 09       		.byte	0x9
 645 04a6 9E01     		.2byte	0x19e
 646 04a8 11       		.byte	0x11
 647 04a9 BE000000 		.4byte	0xbe
 648 04ad 00       		.byte	0
 649 04ae 08       		.uleb128 0x8
 650 04af 723500   		.ascii	"r5\000"
 651 04b2 09       		.byte	0x9
 652 04b3 9F01     		.2byte	0x19f
 653 04b5 11       		.byte	0x11
 654 04b6 BE000000 		.4byte	0xbe
 655 04ba 04       		.byte	0x4
 656 04bb 08       		.uleb128 0x8
 657 04bc 723600   		.ascii	"r6\000"
 658 04bf 09       		.byte	0x9
 659 04c0 A001     		.2byte	0x1a0
 660 04c2 11       		.byte	0x11
 661 04c3 BE000000 		.4byte	0xbe
 662 04c7 08       		.byte	0x8
 663 04c8 08       		.uleb128 0x8
 664 04c9 723700   		.ascii	"r7\000"
 665 04cc 09       		.byte	0x9
 666 04cd A101     		.2byte	0x1a1
 667 04cf 11       		.byte	0x11
 668 04d0 BE000000 		.4byte	0xbe
 669 04d4 0C       		.byte	0xc
 670 04d5 08       		.uleb128 0x8
 671 04d6 723800   		.ascii	"r8\000"
 672 04d9 09       		.byte	0x9
 673 04da A201     		.2byte	0x1a2
 674 04dc 11       		.byte	0x11
 675 04dd BE000000 		.4byte	0xbe
 676 04e1 10       		.byte	0x10
 677 04e2 08       		.uleb128 0x8
 678 04e3 723900   		.ascii	"r9\000"
 679 04e6 09       		.byte	0x9
 680 04e7 A301     		.2byte	0x1a3
 681 04e9 11       		.byte	0x11
 682 04ea BE000000 		.4byte	0xbe
 683 04ee 14       		.byte	0x14
 684 04ef 08       		.uleb128 0x8
ARM GAS  /tmp/ccmpYJuH.s 			page 13


 685 04f0 72313000 		.ascii	"r10\000"
 686 04f4 09       		.byte	0x9
 687 04f5 A401     		.2byte	0x1a4
 688 04f7 11       		.byte	0x11
 689 04f8 BE000000 		.4byte	0xbe
 690 04fc 18       		.byte	0x18
 691 04fd 08       		.uleb128 0x8
 692 04fe 72313100 		.ascii	"r11\000"
 693 0502 09       		.byte	0x9
 694 0503 A501     		.2byte	0x1a5
 695 0505 11       		.byte	0x11
 696 0506 BE000000 		.4byte	0xbe
 697 050a 1C       		.byte	0x1c
 698 050b 08       		.uleb128 0x8
 699 050c 6C7200   		.ascii	"lr\000"
 700 050f 09       		.byte	0x9
 701 0510 A601     		.2byte	0x1a6
 702 0512 11       		.byte	0x11
 703 0513 BE000000 		.4byte	0xbe
 704 0517 20       		.byte	0x20
 705 0518 00       		.byte	0
 706 0519 0C       		.uleb128 0xc
 707 051a C9000000 		.4byte	.LASF74
 708 051e 04       		.byte	0x4
 709 051f 09       		.byte	0x9
 710 0520 A901     		.2byte	0x1a9
 711 0522 08       		.byte	0x8
 712 0523 35050000 		.4byte	0x535
 713 0527 08       		.uleb128 0x8
 714 0528 737000   		.ascii	"sp\000"
 715 052b 09       		.byte	0x9
 716 052c AA01     		.2byte	0x1aa
 717 052e 1A       		.byte	0x1a
 718 052f 35050000 		.4byte	0x535
 719 0533 00       		.byte	0
 720 0534 00       		.byte	0
 721 0535 0A       		.uleb128 0xa
 722 0536 04       		.byte	0x4
 723 0537 93040000 		.4byte	0x493
 724 053b 10       		.uleb128 0x10
 725 053c 04       		.byte	0x4
 726 053d 0A       		.byte	0xa
 727 053e 38       		.byte	0x38
 728 053f 09       		.byte	0x9
 729 0540 52050000 		.4byte	0x552
 730 0544 06       		.uleb128 0x6
 731 0545 07070000 		.4byte	.LASF75
 732 0549 0A       		.byte	0xa
 733 054a 3C       		.byte	0x3c
 734 054b 19       		.byte	0x19
 735 054c D6000000 		.4byte	0xd6
 736 0550 00       		.byte	0
 737 0551 00       		.byte	0
 738 0552 03       		.uleb128 0x3
 739 0553 0D050000 		.4byte	.LASF76
 740 0557 0A       		.byte	0xa
 741 0558 3D       		.byte	0x3d
ARM GAS  /tmp/ccmpYJuH.s 			page 14


 742 0559 03       		.byte	0x3
 743 055a 3B050000 		.4byte	0x53b
 744 055e 11       		.uleb128 0x11
 745 055f 04       		.byte	0x4
 746 0560 06       		.byte	0x6
 747 0561 C6       		.byte	0xc6
 748 0562 03       		.byte	0x3
 749 0563 C9050000 		.4byte	0x5c9
 750 0567 12       		.uleb128 0x12
 751 0568 37000000 		.4byte	.LASF77
 752 056c 06       		.byte	0x6
 753 056d CD       		.byte	0xcd
 754 056e 19       		.byte	0x19
 755 056f 12010000 		.4byte	0x112
 756 0573 12       		.uleb128 0x12
 757 0574 F2000000 		.4byte	.LASF78
 758 0578 06       		.byte	0x6
 759 0579 D4       		.byte	0xd4
 760 057a 19       		.byte	0x19
 761 057b 12010000 		.4byte	0x112
 762 057f 12       		.uleb128 0x12
 763 0580 98070000 		.4byte	.LASF79
 764 0584 06       		.byte	0x6
 765 0585 DB       		.byte	0xdb
 766 0586 1A       		.byte	0x1a
 767 0587 30030000 		.4byte	0x330
 768 058b 12       		.uleb128 0x12
 769 058c 9D030000 		.4byte	.LASF80
 770 0590 06       		.byte	0x6
 771 0591 E2       		.byte	0xe2
 772 0592 1A       		.byte	0x1a
 773 0593 C9050000 		.4byte	0x5c9
 774 0597 12       		.uleb128 0x12
 775 0598 06010000 		.4byte	.LASF81
 776 059c 06       		.byte	0x6
 777 059d E7       		.byte	0xe7
 778 059e 19       		.byte	0x19
 779 059f 12010000 		.4byte	0x112
 780 05a3 12       		.uleb128 0x12
 781 05a4 96030000 		.4byte	.LASF82
 782 05a8 06       		.byte	0x6
 783 05a9 F0       		.byte	0xf0
 784 05aa 1A       		.byte	0x1a
 785 05ab F7050000 		.4byte	0x5f7
 786 05af 12       		.uleb128 0x12
 787 05b0 60060000 		.4byte	.LASF83
 788 05b4 06       		.byte	0x6
 789 05b5 F9       		.byte	0xf9
 790 05b6 1A       		.byte	0x1a
 791 05b7 32060000 		.4byte	0x632
 792 05bb 13       		.uleb128 0x13
 793 05bc FD050000 		.4byte	.LASF84
 794 05c0 06       		.byte	0x6
 795 05c1 0101     		.2byte	0x101
 796 05c3 19       		.byte	0x19
 797 05c4 1E010000 		.4byte	0x11e
 798 05c8 00       		.byte	0
ARM GAS  /tmp/ccmpYJuH.s 			page 15


 799 05c9 0A       		.uleb128 0xa
 800 05ca 04       		.byte	0x4
 801 05cb 32020000 		.4byte	0x232
 802 05cf 05       		.uleb128 0x5
 803 05d0 3F060000 		.4byte	.LASF85
 804 05d4 0C       		.byte	0xc
 805 05d5 0B       		.byte	0xb
 806 05d6 34       		.byte	0x34
 807 05d7 10       		.byte	0x10
 808 05d8 F7050000 		.4byte	0x5f7
 809 05dc 06       		.uleb128 0x6
 810 05dd 05020000 		.4byte	.LASF28
 811 05e1 0B       		.byte	0xb
 812 05e2 35       		.byte	0x35
 813 05e3 19       		.byte	0x19
 814 05e4 6B020000 		.4byte	0x26b
 815 05e8 00       		.byte	0
 816 05e9 07       		.uleb128 0x7
 817 05ea 636E7400 		.ascii	"cnt\000"
 818 05ee 0B       		.byte	0xb
 819 05ef 37       		.byte	0x37
 820 05f0 19       		.byte	0x19
 821 05f1 2A010000 		.4byte	0x12a
 822 05f5 08       		.byte	0x8
 823 05f6 00       		.byte	0
 824 05f7 0A       		.uleb128 0xa
 825 05f8 04       		.byte	0x4
 826 05f9 CF050000 		.4byte	0x5cf
 827 05fd 05       		.uleb128 0x5
 828 05fe 62070000 		.4byte	.LASF86
 829 0602 10       		.byte	0x10
 830 0603 0C       		.byte	0xc
 831 0604 39       		.byte	0x39
 832 0605 08       		.byte	0x8
 833 0606 32060000 		.4byte	0x632
 834 060a 06       		.uleb128 0x6
 835 060b 05020000 		.4byte	.LASF28
 836 060f 0C       		.byte	0xc
 837 0610 3A       		.byte	0x3a
 838 0611 19       		.byte	0x19
 839 0612 6B020000 		.4byte	0x26b
 840 0616 00       		.byte	0
 841 0617 06       		.uleb128 0x6
 842 0618 83060000 		.4byte	.LASF87
 843 061c 0C       		.byte	0xc
 844 061d 3C       		.byte	0x3c
 845 061e 1A       		.byte	0x1a
 846 061f 3E020000 		.4byte	0x23e
 847 0623 08       		.byte	0x8
 848 0624 06       		.uleb128 0x6
 849 0625 24010000 		.4byte	.LASF47
 850 0629 0C       		.byte	0xc
 851 062a 3E       		.byte	0x3e
 852 062b 1A       		.byte	0x1a
 853 062c E8060000 		.4byte	0x6e8
 854 0630 0C       		.byte	0xc
 855 0631 00       		.byte	0
ARM GAS  /tmp/ccmpYJuH.s 			page 16


 856 0632 0A       		.uleb128 0xa
 857 0633 04       		.byte	0x4
 858 0634 FD050000 		.4byte	0x5fd
 859 0638 0A       		.uleb128 0xa
 860 0639 04       		.byte	0x4
 861 063a 4A060000 		.4byte	0x64a
 862 063e 14       		.uleb128 0x14
 863 063f 38060000 		.4byte	0x638
 864 0643 04       		.uleb128 0x4
 865 0644 01       		.byte	0x1
 866 0645 08       		.byte	0x8
 867 0646 A2060000 		.4byte	.LASF88
 868 064a 0B       		.uleb128 0xb
 869 064b 43060000 		.4byte	0x643
 870 064f 0A       		.uleb128 0xa
 871 0650 04       		.byte	0x4
 872 0651 87040000 		.4byte	0x487
 873 0655 0A       		.uleb128 0xa
 874 0656 04       		.byte	0x4
 875 0657 32030000 		.4byte	0x332
 876 065b 15       		.uleb128 0x15
 877 065c 636800   		.ascii	"ch\000"
 878 065f 06       		.byte	0x6
 879 0660 C701     		.2byte	0x1c7
 880 0662 14       		.byte	0x14
 881 0663 0F040000 		.4byte	0x40f
 882 0667 03       		.uleb128 0x3
 883 0668 00000000 		.4byte	.LASF89
 884 066c 0D       		.byte	0xd
 885 066d 34       		.byte	0x34
 886 066e 10       		.byte	0x10
 887 066f 1F030000 		.4byte	0x31f
 888 0673 10       		.uleb128 0x10
 889 0674 18       		.byte	0x18
 890 0675 0D       		.byte	0xd
 891 0676 39       		.byte	0x39
 892 0677 09       		.byte	0x9
 893 0678 CB060000 		.4byte	0x6cb
 894 067c 06       		.uleb128 0x6
 895 067d DE030000 		.4byte	.LASF32
 896 0681 0D       		.byte	0xd
 897 0682 3D       		.byte	0x3d
 898 0683 16       		.byte	0x16
 899 0684 38060000 		.4byte	0x638
 900 0688 00       		.byte	0
 901 0689 06       		.uleb128 0x6
 902 068a 07050000 		.4byte	.LASF90
 903 068e 0D       		.byte	0xd
 904 068f 41       		.byte	0x41
 905 0690 16       		.byte	0x16
 906 0691 4F060000 		.4byte	0x64f
 907 0695 04       		.byte	0x4
 908 0696 06       		.uleb128 0x6
 909 0697 D6000000 		.4byte	.LASF91
 910 069b 0D       		.byte	0xd
 911 069c 45       		.byte	0x45
 912 069d 16       		.byte	0x16
ARM GAS  /tmp/ccmpYJuH.s 			page 17


 913 069e 4F060000 		.4byte	0x64f
 914 06a2 08       		.byte	0x8
 915 06a3 06       		.uleb128 0x6
 916 06a4 2F050000 		.4byte	.LASF29
 917 06a8 0D       		.byte	0xd
 918 06a9 49       		.byte	0x49
 919 06aa 15       		.byte	0x15
 920 06ab 06010000 		.4byte	0x106
 921 06af 0C       		.byte	0xc
 922 06b0 06       		.uleb128 0x6
 923 06b1 3E000000 		.4byte	.LASF92
 924 06b5 0D       		.byte	0xd
 925 06b6 4D       		.byte	0x4d
 926 06b7 15       		.byte	0x15
 927 06b8 67060000 		.4byte	0x667
 928 06bc 10       		.byte	0x10
 929 06bd 07       		.uleb128 0x7
 930 06be 61726700 		.ascii	"arg\000"
 931 06c2 0D       		.byte	0xd
 932 06c3 51       		.byte	0x51
 933 06c4 16       		.byte	0x16
 934 06c5 30030000 		.4byte	0x330
 935 06c9 14       		.byte	0x14
 936 06ca 00       		.byte	0
 937 06cb 03       		.uleb128 0x3
 938 06cc AB000000 		.4byte	.LASF93
 939 06d0 0D       		.byte	0xd
 940 06d1 52       		.byte	0x52
 941 06d2 03       		.byte	0x3
 942 06d3 73060000 		.4byte	0x673
 943 06d7 0B       		.uleb128 0xb
 944 06d8 CB060000 		.4byte	0x6cb
 945 06dc 03       		.uleb128 0x3
 946 06dd 4A030000 		.4byte	.LASF94
 947 06e1 0C       		.byte	0xc
 948 06e2 34       		.byte	0x34
 949 06e3 19       		.byte	0x19
 950 06e4 FD050000 		.4byte	0x5fd
 951 06e8 0A       		.uleb128 0xa
 952 06e9 04       		.byte	0x4
 953 06ea DC060000 		.4byte	0x6dc
 954 06ee 04       		.uleb128 0x4
 955 06ef 01       		.byte	0x1
 956 06f0 02       		.byte	0x2
 957 06f1 B1050000 		.4byte	.LASF95
 958 06f5 16       		.uleb128 0x16
 959 06f6 4D000000 		.4byte	.LASF96
 960 06fa 0E       		.byte	0xe
 961 06fb 8303     		.2byte	0x383
 962 06fd 06       		.byte	0x6
 963 06fe 1D070000 		.4byte	0x71d
 964 0702 17       		.uleb128 0x17
 965 0703 74717000 		.ascii	"tqp\000"
 966 0707 0E       		.byte	0xe
 967 0708 8303     		.2byte	0x383
 968 070a 28       		.byte	0x28
 969 070b 1D070000 		.4byte	0x71d
ARM GAS  /tmp/ccmpYJuH.s 			page 18


 970 070f 17       		.uleb128 0x17
 971 0710 6D736700 		.ascii	"msg\000"
 972 0714 0E       		.byte	0xe
 973 0715 8303     		.2byte	0x383
 974 0717 33       		.byte	0x33
 975 0718 12010000 		.4byte	0x112
 976 071c 00       		.byte	0
 977 071d 0A       		.uleb128 0xa
 978 071e 04       		.byte	0x4
 979 071f 6B020000 		.4byte	0x26b
 980 0723 16       		.uleb128 0x16
 981 0724 0B020000 		.4byte	.LASF97
 982 0728 0E       		.byte	0xe
 983 0729 7403     		.2byte	0x374
 984 072b 06       		.byte	0x6
 985 072c 4B070000 		.4byte	0x74b
 986 0730 17       		.uleb128 0x17
 987 0731 74717000 		.ascii	"tqp\000"
 988 0735 0E       		.byte	0xe
 989 0736 7403     		.2byte	0x374
 990 0738 29       		.byte	0x29
 991 0739 1D070000 		.4byte	0x71d
 992 073d 17       		.uleb128 0x17
 993 073e 6D736700 		.ascii	"msg\000"
 994 0742 0E       		.byte	0xe
 995 0743 7403     		.2byte	0x374
 996 0745 34       		.byte	0x34
 997 0746 12010000 		.4byte	0x112
 998 074a 00       		.byte	0
 999 074b 18       		.uleb128 0x18
 1000 074c D5070000 		.4byte	.LASF103
 1001 0750 0E       		.byte	0xe
 1002 0751 6003     		.2byte	0x360
 1003 0753 07       		.byte	0x7
 1004 0754 12010000 		.4byte	0x112
 1005 0758 77070000 		.4byte	0x777
 1006 075c 17       		.uleb128 0x17
 1007 075d 74717000 		.ascii	"tqp\000"
 1008 0761 0E       		.byte	0xe
 1009 0762 6003     		.2byte	0x360
 1010 0764 2D       		.byte	0x2d
 1011 0765 1D070000 		.4byte	0x71d
 1012 0769 19       		.uleb128 0x19
 1013 076a AF030000 		.4byte	.LASF98
 1014 076e 0E       		.byte	0xe
 1015 076f 6003     		.2byte	0x360
 1016 0771 40       		.byte	0x40
 1017 0772 7B040000 		.4byte	0x47b
 1018 0776 00       		.byte	0
 1019 0777 16       		.uleb128 0x16
 1020 0778 67060000 		.4byte	.LASF99
 1021 077c 0E       		.byte	0xe
 1022 077d 4203     		.2byte	0x342
 1023 077f 06       		.byte	0x6
 1024 0780 9F070000 		.4byte	0x79f
 1025 0784 17       		.uleb128 0x17
 1026 0785 74727000 		.ascii	"trp\000"
ARM GAS  /tmp/ccmpYJuH.s 			page 19


 1027 0789 0E       		.byte	0xe
 1028 078a 4203     		.2byte	0x342
 1029 078c 26       		.byte	0x26
 1030 078d C9050000 		.4byte	0x5c9
 1031 0791 17       		.uleb128 0x17
 1032 0792 6D736700 		.ascii	"msg\000"
 1033 0796 0E       		.byte	0xe
 1034 0797 4203     		.2byte	0x342
 1035 0799 31       		.byte	0x31
 1036 079a 12010000 		.4byte	0x112
 1037 079e 00       		.byte	0
 1038 079f 16       		.uleb128 0x16
 1039 07a0 78020000 		.4byte	.LASF100
 1040 07a4 0E       		.byte	0xe
 1041 07a5 2C03     		.2byte	0x32c
 1042 07a7 06       		.byte	0x6
 1043 07a8 DE070000 		.4byte	0x7de
 1044 07ac 17       		.uleb128 0x17
 1045 07ad 74727000 		.ascii	"trp\000"
 1046 07b1 0E       		.byte	0xe
 1047 07b2 2C03     		.2byte	0x32c
 1048 07b4 27       		.byte	0x27
 1049 07b5 C9050000 		.4byte	0x5c9
 1050 07b9 17       		.uleb128 0x17
 1051 07ba 6D736700 		.ascii	"msg\000"
 1052 07be 0E       		.byte	0xe
 1053 07bf 2C03     		.2byte	0x32c
 1054 07c1 32       		.byte	0x32
 1055 07c2 12010000 		.4byte	0x112
 1056 07c6 1A       		.uleb128 0x1a
 1057 07c7 0E060000 		.4byte	.LASF102
 1058 07cb EE070000 		.4byte	0x7ee
 1059 07cf 1B       		.uleb128 0x1b
 1060 07d0 1C       		.uleb128 0x1c
 1061 07d1 747000   		.ascii	"tp\000"
 1062 07d4 0E       		.byte	0xe
 1063 07d5 2F03     		.2byte	0x32f
 1064 07d7 0F       		.byte	0xf
 1065 07d8 3E020000 		.4byte	0x23e
 1066 07dc 00       		.byte	0
 1067 07dd 00       		.byte	0
 1068 07de 1D       		.uleb128 0x1d
 1069 07df 4A060000 		.4byte	0x64a
 1070 07e3 EE070000 		.4byte	0x7ee
 1071 07e7 1E       		.uleb128 0x1e
 1072 07e8 30000000 		.4byte	0x30
 1073 07ec 0C       		.byte	0xc
 1074 07ed 00       		.byte	0
 1075 07ee 0B       		.uleb128 0xb
 1076 07ef DE070000 		.4byte	0x7de
 1077 07f3 16       		.uleb128 0x16
 1078 07f4 3E020000 		.4byte	.LASF101
 1079 07f8 0E       		.byte	0xe
 1080 07f9 1503     		.2byte	0x315
 1081 07fb 06       		.byte	0x6
 1082 07fc 32080000 		.4byte	0x832
 1083 0800 17       		.uleb128 0x17
ARM GAS  /tmp/ccmpYJuH.s 			page 20


 1084 0801 74727000 		.ascii	"trp\000"
 1085 0805 0E       		.byte	0xe
 1086 0806 1503     		.2byte	0x315
 1087 0808 27       		.byte	0x27
 1088 0809 C9050000 		.4byte	0x5c9
 1089 080d 17       		.uleb128 0x17
 1090 080e 6D736700 		.ascii	"msg\000"
 1091 0812 0E       		.byte	0xe
 1092 0813 1503     		.2byte	0x315
 1093 0815 32       		.byte	0x32
 1094 0816 12010000 		.4byte	0x112
 1095 081a 1A       		.uleb128 0x1a
 1096 081b 0E060000 		.4byte	.LASF102
 1097 081f EE070000 		.4byte	0x7ee
 1098 0823 1B       		.uleb128 0x1b
 1099 0824 1C       		.uleb128 0x1c
 1100 0825 747000   		.ascii	"tp\000"
 1101 0828 0E       		.byte	0xe
 1102 0829 1803     		.2byte	0x318
 1103 082b 0F       		.byte	0xf
 1104 082c 3E020000 		.4byte	0x23e
 1105 0830 00       		.byte	0
 1106 0831 00       		.byte	0
 1107 0832 18       		.uleb128 0x18
 1108 0833 AE040000 		.4byte	.LASF104
 1109 0837 0E       		.byte	0xe
 1110 0838 FC02     		.2byte	0x2fc
 1111 083a 07       		.byte	0x7
 1112 083b 12010000 		.4byte	0x112
 1113 083f 73080000 		.4byte	0x873
 1114 0843 17       		.uleb128 0x17
 1115 0844 74727000 		.ascii	"trp\000"
 1116 0848 0E       		.byte	0xe
 1117 0849 FC02     		.2byte	0x2fc
 1118 084b 30       		.byte	0x30
 1119 084c C9050000 		.4byte	0x5c9
 1120 0850 19       		.uleb128 0x19
 1121 0851 AF030000 		.4byte	.LASF98
 1122 0855 0E       		.byte	0xe
 1123 0856 FC02     		.2byte	0x2fc
 1124 0858 43       		.byte	0x43
 1125 0859 7B040000 		.4byte	0x47b
 1126 085d 1C       		.uleb128 0x1c
 1127 085e 747000   		.ascii	"tp\000"
 1128 0861 0E       		.byte	0xe
 1129 0862 FD02     		.2byte	0x2fd
 1130 0864 0D       		.byte	0xd
 1131 0865 3E020000 		.4byte	0x23e
 1132 0869 1A       		.uleb128 0x1a
 1133 086a 0E060000 		.4byte	.LASF102
 1134 086e 83080000 		.4byte	0x883
 1135 0872 00       		.byte	0
 1136 0873 1D       		.uleb128 0x1d
 1137 0874 4A060000 		.4byte	0x64a
 1138 0878 83080000 		.4byte	0x883
 1139 087c 1E       		.uleb128 0x1e
 1140 087d 30000000 		.4byte	0x30
ARM GAS  /tmp/ccmpYJuH.s 			page 21


 1141 0881 14       		.byte	0x14
 1142 0882 00       		.byte	0
 1143 0883 0B       		.uleb128 0xb
 1144 0884 73080000 		.4byte	0x873
 1145 0888 18       		.uleb128 0x18
 1146 0889 57050000 		.4byte	.LASF105
 1147 088d 0E       		.byte	0xe
 1148 088e DD02     		.2byte	0x2dd
 1149 0890 07       		.byte	0x7
 1150 0891 12010000 		.4byte	0x112
 1151 0895 BC080000 		.4byte	0x8bc
 1152 0899 17       		.uleb128 0x17
 1153 089a 74727000 		.ascii	"trp\000"
 1154 089e 0E       		.byte	0xe
 1155 089f DD02     		.2byte	0x2dd
 1156 08a1 29       		.byte	0x29
 1157 08a2 C9050000 		.4byte	0x5c9
 1158 08a6 1C       		.uleb128 0x1c
 1159 08a7 747000   		.ascii	"tp\000"
 1160 08aa 0E       		.byte	0xe
 1161 08ab DE02     		.2byte	0x2de
 1162 08ad 0D       		.byte	0xd
 1163 08ae 3E020000 		.4byte	0x23e
 1164 08b2 1A       		.uleb128 0x1a
 1165 08b3 0E060000 		.4byte	.LASF102
 1166 08b7 CC080000 		.4byte	0x8cc
 1167 08bb 00       		.byte	0
 1168 08bc 1D       		.uleb128 0x1d
 1169 08bd 4A060000 		.4byte	0x64a
 1170 08c1 CC080000 		.4byte	0x8cc
 1171 08c5 1E       		.uleb128 0x1e
 1172 08c6 30000000 		.4byte	0x30
 1173 08ca 0D       		.byte	0xd
 1174 08cb 00       		.byte	0
 1175 08cc 0B       		.uleb128 0xb
 1176 08cd BC080000 		.4byte	0x8bc
 1177 08d1 1F       		.uleb128 0x1f
 1178 08d2 8D070000 		.4byte	.LASF157
 1179 08d6 0E       		.byte	0xe
 1180 08d7 CC02     		.2byte	0x2cc
 1181 08d9 06       		.byte	0x6
 1182 08da 18       		.uleb128 0x18
 1183 08db 88000000 		.4byte	.LASF106
 1184 08df 0E       		.byte	0xe
 1185 08e0 B802     		.2byte	0x2b8
 1186 08e2 0B       		.byte	0xb
 1187 08e3 6F040000 		.4byte	0x46f
 1188 08e7 13090000 		.4byte	0x913
 1189 08eb 19       		.uleb128 0x19
 1190 08ec 68000000 		.4byte	.LASF50
 1191 08f0 0E       		.byte	0xe
 1192 08f1 B802     		.2byte	0x2b8
 1193 08f3 2D       		.byte	0x2d
 1194 08f4 6F040000 		.4byte	0x46f
 1195 08f8 19       		.uleb128 0x19
 1196 08f9 24010000 		.4byte	.LASF47
 1197 08fd 0E       		.byte	0xe
ARM GAS  /tmp/ccmpYJuH.s 			page 22


 1198 08fe B802     		.2byte	0x2b8
 1199 0900 3D       		.byte	0x3d
 1200 0901 6F040000 		.4byte	0x46f
 1201 0905 20       		.uleb128 0x20
 1202 0906 1E050000 		.4byte	.LASF107
 1203 090a 0E       		.byte	0xe
 1204 090b B902     		.2byte	0x2b9
 1205 090d 0D       		.byte	0xd
 1206 090e 6F040000 		.4byte	0x46f
 1207 0912 00       		.byte	0
 1208 0913 16       		.uleb128 0x16
 1209 0914 34050000 		.4byte	.LASF108
 1210 0918 0E       		.byte	0xe
 1211 0919 9F02     		.2byte	0x29f
 1212 091b 06       		.byte	0x6
 1213 091c 3B090000 		.4byte	0x93b
 1214 0920 19       		.uleb128 0x19
 1215 0921 1E050000 		.4byte	.LASF107
 1216 0925 0E       		.byte	0xe
 1217 0926 9F02     		.2byte	0x29f
 1218 0928 20       		.byte	0x20
 1219 0929 6F040000 		.4byte	0x46f
 1220 092d 20       		.uleb128 0x20
 1221 092e 29020000 		.4byte	.LASF109
 1222 0932 0E       		.byte	0xe
 1223 0933 A002     		.2byte	0x2a0
 1224 0935 11       		.byte	0x11
 1225 0936 7B040000 		.4byte	0x47b
 1226 093a 00       		.byte	0
 1227 093b 16       		.uleb128 0x16
 1228 093c 4C060000 		.4byte	.LASF110
 1229 0940 0E       		.byte	0xe
 1230 0941 8B02     		.2byte	0x28b
 1231 0943 06       		.byte	0x6
 1232 0944 56090000 		.4byte	0x956
 1233 0948 19       		.uleb128 0x19
 1234 0949 1E050000 		.4byte	.LASF107
 1235 094d 0E       		.byte	0xe
 1236 094e 8B02     		.2byte	0x28b
 1237 0950 1F       		.byte	0x1f
 1238 0951 7B040000 		.4byte	0x47b
 1239 0955 00       		.byte	0
 1240 0956 16       		.uleb128 0x16
 1241 0957 31040000 		.4byte	.LASF111
 1242 095b 0E       		.byte	0xe
 1243 095c 7802     		.2byte	0x278
 1244 095e 06       		.byte	0x6
 1245 095f 70090000 		.4byte	0x970
 1246 0963 17       		.uleb128 0x17
 1247 0964 747000   		.ascii	"tp\000"
 1248 0967 0E       		.byte	0xe
 1249 0968 7802     		.2byte	0x278
 1250 096a 1F       		.byte	0x1f
 1251 096b 3E020000 		.4byte	0x23e
 1252 096f 00       		.byte	0
 1253 0970 18       		.uleb128 0x18
 1254 0971 52030000 		.4byte	.LASF112
ARM GAS  /tmp/ccmpYJuH.s 			page 23


 1255 0975 0E       		.byte	0xe
 1256 0976 5602     		.2byte	0x256
 1257 0978 09       		.byte	0x9
 1258 0979 06010000 		.4byte	0x106
 1259 097d A5090000 		.4byte	0x9a5
 1260 0981 19       		.uleb128 0x19
 1261 0982 21040000 		.4byte	.LASF113
 1262 0986 0E       		.byte	0xe
 1263 0987 5602     		.2byte	0x256
 1264 0989 22       		.byte	0x22
 1265 098a 06010000 		.4byte	0x106
 1266 098e 20       		.uleb128 0x20
 1267 098f 08000000 		.4byte	.LASF114
 1268 0993 0E       		.byte	0xe
 1269 0994 5702     		.2byte	0x257
 1270 0996 0B       		.byte	0xb
 1271 0997 06010000 		.4byte	0x106
 1272 099b 1A       		.uleb128 0x1a
 1273 099c 0E060000 		.4byte	.LASF102
 1274 09a0 B5090000 		.4byte	0x9b5
 1275 09a4 00       		.byte	0
 1276 09a5 1D       		.uleb128 0x1d
 1277 09a6 4A060000 		.4byte	0x64a
 1278 09aa B5090000 		.4byte	0x9b5
 1279 09ae 1E       		.uleb128 0x1e
 1280 09af 30000000 		.4byte	0x30
 1281 09b3 10       		.byte	0x10
 1282 09b4 00       		.byte	0
 1283 09b5 0B       		.uleb128 0xb
 1284 09b6 A5090000 		.4byte	0x9a5
 1285 09ba 18       		.uleb128 0x18
 1286 09bb 33070000 		.4byte	.LASF115
 1287 09bf 0E       		.byte	0xe
 1288 09c0 2F02     		.2byte	0x22f
 1289 09c2 07       		.byte	0x7
 1290 09c3 12010000 		.4byte	0x112
 1291 09c7 EE090000 		.4byte	0x9ee
 1292 09cb 17       		.uleb128 0x17
 1293 09cc 747000   		.ascii	"tp\000"
 1294 09cf 0E       		.byte	0xe
 1295 09d0 2F02     		.2byte	0x22f
 1296 09d2 1B       		.byte	0x1b
 1297 09d3 3E020000 		.4byte	0x23e
 1298 09d7 1C       		.uleb128 0x1c
 1299 09d8 6D736700 		.ascii	"msg\000"
 1300 09dc 0E       		.byte	0xe
 1301 09dd 3002     		.2byte	0x230
 1302 09df 09       		.byte	0x9
 1303 09e0 12010000 		.4byte	0x112
 1304 09e4 1A       		.uleb128 0x1a
 1305 09e5 0E060000 		.4byte	.LASF102
 1306 09e9 FE090000 		.4byte	0x9fe
 1307 09ed 00       		.byte	0
 1308 09ee 1D       		.uleb128 0x1d
 1309 09ef 4A060000 		.4byte	0x64a
 1310 09f3 FE090000 		.4byte	0x9fe
 1311 09f7 1E       		.uleb128 0x1e
ARM GAS  /tmp/ccmpYJuH.s 			page 24


 1312 09f8 30000000 		.4byte	0x30
 1313 09fc 09       		.byte	0x9
 1314 09fd 00       		.byte	0
 1315 09fe 0B       		.uleb128 0xb
 1316 09ff EE090000 		.4byte	0x9ee
 1317 0a03 16       		.uleb128 0x16
 1318 0a04 EA070000 		.4byte	.LASF116
 1319 0a08 0E       		.byte	0xe
 1320 0a09 F501     		.2byte	0x1f5
 1321 0a0b 06       		.byte	0x6
 1322 0a0c 330A0000 		.4byte	0xa33
 1323 0a10 17       		.uleb128 0x17
 1324 0a11 6D736700 		.ascii	"msg\000"
 1325 0a15 0E       		.byte	0xe
 1326 0a16 F501     		.2byte	0x1f5
 1327 0a18 17       		.byte	0x17
 1328 0a19 12010000 		.4byte	0x112
 1329 0a1d 1C       		.uleb128 0x1c
 1330 0a1e 747000   		.ascii	"tp\000"
 1331 0a21 0E       		.byte	0xe
 1332 0a22 F601     		.2byte	0x1f6
 1333 0a24 0D       		.byte	0xd
 1334 0a25 3E020000 		.4byte	0x23e
 1335 0a29 1A       		.uleb128 0x1a
 1336 0a2a 0E060000 		.4byte	.LASF102
 1337 0a2e 430A0000 		.4byte	0xa43
 1338 0a32 00       		.byte	0
 1339 0a33 1D       		.uleb128 0x1d
 1340 0a34 4A060000 		.4byte	0x64a
 1341 0a38 430A0000 		.4byte	0xa43
 1342 0a3c 1E       		.uleb128 0x1e
 1343 0a3d 30000000 		.4byte	0x30
 1344 0a41 0A       		.byte	0xa
 1345 0a42 00       		.byte	0
 1346 0a43 0B       		.uleb128 0xb
 1347 0a44 330A0000 		.4byte	0xa33
 1348 0a48 16       		.uleb128 0x16
 1349 0a49 6F010000 		.4byte	.LASF117
 1350 0a4d 0E       		.byte	0xe
 1351 0a4e DD01     		.2byte	0x1dd
 1352 0a50 06       		.byte	0x6
 1353 0a51 630A0000 		.4byte	0xa63
 1354 0a55 17       		.uleb128 0x17
 1355 0a56 6D736700 		.ascii	"msg\000"
 1356 0a5a 0E       		.byte	0xe
 1357 0a5b DD01     		.2byte	0x1dd
 1358 0a5d 16       		.byte	0x16
 1359 0a5e 12010000 		.4byte	0x112
 1360 0a62 00       		.byte	0
 1361 0a63 16       		.uleb128 0x16
 1362 0a64 21060000 		.4byte	.LASF118
 1363 0a68 0E       		.byte	0xe
 1364 0a69 AB01     		.2byte	0x1ab
 1365 0a6b 06       		.byte	0x6
 1366 0a6c 860A0000 		.4byte	0xa86
 1367 0a70 17       		.uleb128 0x17
 1368 0a71 747000   		.ascii	"tp\000"
ARM GAS  /tmp/ccmpYJuH.s 			page 25


 1369 0a74 0E       		.byte	0xe
 1370 0a75 AB01     		.2byte	0x1ab
 1371 0a77 1D       		.byte	0x1d
 1372 0a78 3E020000 		.4byte	0x23e
 1373 0a7c 1A       		.uleb128 0x1a
 1374 0a7d 0E060000 		.4byte	.LASF102
 1375 0a81 EE070000 		.4byte	0x7ee
 1376 0a85 00       		.byte	0
 1377 0a86 18       		.uleb128 0x18
 1378 0a87 64040000 		.4byte	.LASF119
 1379 0a8b 0E       		.byte	0xe
 1380 0a8c 9101     		.2byte	0x191
 1381 0a8e 0B       		.byte	0xb
 1382 0a8f 3E020000 		.4byte	0x23e
 1383 0a93 AD0A0000 		.4byte	0xaad
 1384 0a97 17       		.uleb128 0x17
 1385 0a98 747000   		.ascii	"tp\000"
 1386 0a9b 0E       		.byte	0xe
 1387 0a9c 9101     		.2byte	0x191
 1388 0a9e 21       		.byte	0x21
 1389 0a9f 3E020000 		.4byte	0x23e
 1390 0aa3 1A       		.uleb128 0x1a
 1391 0aa4 0E060000 		.4byte	.LASF102
 1392 0aa8 BD0A0000 		.4byte	0xabd
 1393 0aac 00       		.byte	0
 1394 0aad 1D       		.uleb128 0x1d
 1395 0aae 4A060000 		.4byte	0x64a
 1396 0ab2 BD0A0000 		.4byte	0xabd
 1397 0ab6 1E       		.uleb128 0x1e
 1398 0ab7 30000000 		.4byte	0x30
 1399 0abb 0B       		.byte	0xb
 1400 0abc 00       		.byte	0
 1401 0abd 0B       		.uleb128 0xb
 1402 0abe AD0A0000 		.4byte	0xaad
 1403 0ac2 18       		.uleb128 0x18
 1404 0ac3 44050000 		.4byte	.LASF120
 1405 0ac7 0E       		.byte	0xe
 1406 0ac8 7B01     		.2byte	0x17b
 1407 0aca 0B       		.byte	0xb
 1408 0acb 3E020000 		.4byte	0x23e
 1409 0acf E90A0000 		.4byte	0xae9
 1410 0ad3 17       		.uleb128 0x17
 1411 0ad4 747000   		.ascii	"tp\000"
 1412 0ad7 0E       		.byte	0xe
 1413 0ad8 7B01     		.2byte	0x17b
 1414 0ada 20       		.byte	0x20
 1415 0adb 3E020000 		.4byte	0x23e
 1416 0adf 1A       		.uleb128 0x1a
 1417 0ae0 0E060000 		.4byte	.LASF102
 1418 0ae4 430A0000 		.4byte	0xa43
 1419 0ae8 00       		.byte	0
 1420 0ae9 18       		.uleb128 0x18
 1421 0aea 84040000 		.4byte	.LASF121
 1422 0aee 0E       		.byte	0xe
 1423 0aef 4301     		.2byte	0x143
 1424 0af1 0B       		.byte	0xb
 1425 0af2 3E020000 		.4byte	0x23e
ARM GAS  /tmp/ccmpYJuH.s 			page 26


 1426 0af6 500B0000 		.4byte	0xb50
 1427 0afa 17       		.uleb128 0x17
 1428 0afb 77737000 		.ascii	"wsp\000"
 1429 0aff 0E       		.byte	0xe
 1430 0b00 4301     		.2byte	0x143
 1431 0b02 23       		.byte	0x23
 1432 0b03 30030000 		.4byte	0x330
 1433 0b07 19       		.uleb128 0x19
 1434 0b08 88010000 		.4byte	.LASF122
 1435 0b0c 0E       		.byte	0xe
 1436 0b0d 4301     		.2byte	0x143
 1437 0b0f 2F       		.byte	0x2f
 1438 0b10 24000000 		.4byte	0x24
 1439 0b14 19       		.uleb128 0x19
 1440 0b15 2F050000 		.4byte	.LASF29
 1441 0b19 0E       		.byte	0xe
 1442 0b1a 4401     		.2byte	0x144
 1443 0b1c 25       		.byte	0x25
 1444 0b1d 06010000 		.4byte	0x106
 1445 0b21 17       		.uleb128 0x17
 1446 0b22 706600   		.ascii	"pf\000"
 1447 0b25 0E       		.byte	0xe
 1448 0b26 4401     		.2byte	0x144
 1449 0b28 33       		.byte	0x33
 1450 0b29 67060000 		.4byte	0x667
 1451 0b2d 17       		.uleb128 0x17
 1452 0b2e 61726700 		.ascii	"arg\000"
 1453 0b32 0E       		.byte	0xe
 1454 0b33 4401     		.2byte	0x144
 1455 0b35 3D       		.byte	0x3d
 1456 0b36 30030000 		.4byte	0x330
 1457 0b3a 1C       		.uleb128 0x1c
 1458 0b3b 747000   		.ascii	"tp\000"
 1459 0b3e 0E       		.byte	0xe
 1460 0b3f 4501     		.2byte	0x145
 1461 0b41 0D       		.byte	0xd
 1462 0b42 3E020000 		.4byte	0x23e
 1463 0b46 1A       		.uleb128 0x1a
 1464 0b47 0E060000 		.4byte	.LASF102
 1465 0b4b 600B0000 		.4byte	0xb60
 1466 0b4f 00       		.byte	0
 1467 0b50 1D       		.uleb128 0x1d
 1468 0b51 4A060000 		.4byte	0x64a
 1469 0b55 600B0000 		.4byte	0xb60
 1470 0b59 1E       		.uleb128 0x1e
 1471 0b5a 30000000 		.4byte	0x30
 1472 0b5e 11       		.byte	0x11
 1473 0b5f 00       		.byte	0
 1474 0b60 0B       		.uleb128 0xb
 1475 0b61 500B0000 		.4byte	0xb50
 1476 0b65 18       		.uleb128 0x18
 1477 0b66 32020000 		.4byte	.LASF123
 1478 0b6a 0E       		.byte	0xe
 1479 0b6b 1801     		.2byte	0x118
 1480 0b6d 0B       		.byte	0xb
 1481 0b6e 3E020000 		.4byte	0x23e
 1482 0b72 990B0000 		.4byte	0xb99
ARM GAS  /tmp/ccmpYJuH.s 			page 27


 1483 0b76 17       		.uleb128 0x17
 1484 0b77 74647000 		.ascii	"tdp\000"
 1485 0b7b 0E       		.byte	0xe
 1486 0b7c 1801     		.2byte	0x118
 1487 0b7e 32       		.byte	0x32
 1488 0b7f 990B0000 		.4byte	0xb99
 1489 0b83 1C       		.uleb128 0x1c
 1490 0b84 747000   		.ascii	"tp\000"
 1491 0b87 0E       		.byte	0xe
 1492 0b88 1901     		.2byte	0x119
 1493 0b8a 0D       		.byte	0xd
 1494 0b8b 3E020000 		.4byte	0x23e
 1495 0b8f 1A       		.uleb128 0x1a
 1496 0b90 0E060000 		.4byte	.LASF102
 1497 0b94 BD0A0000 		.4byte	0xabd
 1498 0b98 00       		.byte	0
 1499 0b99 0A       		.uleb128 0xa
 1500 0b9a 04       		.byte	0x4
 1501 0b9b D7060000 		.4byte	0x6d7
 1502 0b9f 18       		.uleb128 0x18
 1503 0ba0 BE010000 		.4byte	.LASF124
 1504 0ba4 0E       		.byte	0xe
 1505 0ba5 0301     		.2byte	0x103
 1506 0ba7 0B       		.byte	0xb
 1507 0ba8 3E020000 		.4byte	0x23e
 1508 0bac BE0B0000 		.4byte	0xbbe
 1509 0bb0 17       		.uleb128 0x17
 1510 0bb1 74647000 		.ascii	"tdp\000"
 1511 0bb5 0E       		.byte	0xe
 1512 0bb6 0301     		.2byte	0x103
 1513 0bb8 33       		.byte	0x33
 1514 0bb9 990B0000 		.4byte	0xb99
 1515 0bbd 00       		.byte	0
 1516 0bbe 21       		.uleb128 0x21
 1517 0bbf 3D070000 		.4byte	.LASF125
 1518 0bc3 0E       		.byte	0xe
 1519 0bc4 D8       		.byte	0xd8
 1520 0bc5 0B       		.byte	0xb
 1521 0bc6 3E020000 		.4byte	0x23e
 1522 0bca EF0B0000 		.4byte	0xbef
 1523 0bce 22       		.uleb128 0x22
 1524 0bcf 74647000 		.ascii	"tdp\000"
 1525 0bd3 0E       		.byte	0xe
 1526 0bd4 D8       		.byte	0xd8
 1527 0bd5 3B       		.byte	0x3b
 1528 0bd6 990B0000 		.4byte	0xb99
 1529 0bda 23       		.uleb128 0x23
 1530 0bdb 747000   		.ascii	"tp\000"
 1531 0bde 0E       		.byte	0xe
 1532 0bdf D9       		.byte	0xd9
 1533 0be0 0D       		.byte	0xd
 1534 0be1 3E020000 		.4byte	0x23e
 1535 0be5 1A       		.uleb128 0x1a
 1536 0be6 0E060000 		.4byte	.LASF102
 1537 0bea 83080000 		.4byte	0x883
 1538 0bee 00       		.byte	0
 1539 0bef 21       		.uleb128 0x21
ARM GAS  /tmp/ccmpYJuH.s 			page 28


 1540 0bf0 8D010000 		.4byte	.LASF126
 1541 0bf4 0E       		.byte	0xe
 1542 0bf5 A7       		.byte	0xa7
 1543 0bf6 0B       		.byte	0xb
 1544 0bf7 3E020000 		.4byte	0x23e
 1545 0bfb 200C0000 		.4byte	0xc20
 1546 0bff 22       		.uleb128 0x22
 1547 0c00 74647000 		.ascii	"tdp\000"
 1548 0c04 0E       		.byte	0xe
 1549 0c05 A7       		.byte	0xa7
 1550 0c06 3C       		.byte	0x3c
 1551 0c07 990B0000 		.4byte	0xb99
 1552 0c0b 23       		.uleb128 0x23
 1553 0c0c 747000   		.ascii	"tp\000"
 1554 0c0f 0E       		.byte	0xe
 1555 0c10 A8       		.byte	0xa8
 1556 0c11 0D       		.byte	0xd
 1557 0c12 3E020000 		.4byte	0x23e
 1558 0c16 1A       		.uleb128 0x1a
 1559 0c17 0E060000 		.4byte	.LASF102
 1560 0c1b 300C0000 		.4byte	0xc30
 1561 0c1f 00       		.byte	0
 1562 0c20 1D       		.uleb128 0x1d
 1563 0c21 4A060000 		.4byte	0x64a
 1564 0c25 300C0000 		.4byte	0xc30
 1565 0c29 1E       		.uleb128 0x1e
 1566 0c2a 30000000 		.4byte	0x30
 1567 0c2e 15       		.byte	0x15
 1568 0c2f 00       		.byte	0
 1569 0c30 0B       		.uleb128 0xb
 1570 0c31 200C0000 		.4byte	0xc20
 1571 0c35 21       		.uleb128 0x21
 1572 0c36 89030000 		.4byte	.LASF127
 1573 0c3a 0E       		.byte	0xe
 1574 0c3b 58       		.byte	0x58
 1575 0c3c 0B       		.byte	0xb
 1576 0c3d 3E020000 		.4byte	0x23e
 1577 0c41 690C0000 		.4byte	0xc69
 1578 0c45 22       		.uleb128 0x22
 1579 0c46 747000   		.ascii	"tp\000"
 1580 0c49 0E       		.byte	0xe
 1581 0c4a 58       		.byte	0x58
 1582 0c4b 22       		.byte	0x22
 1583 0c4c 3E020000 		.4byte	0x23e
 1584 0c50 24       		.uleb128 0x24
 1585 0c51 DE030000 		.4byte	.LASF32
 1586 0c55 0E       		.byte	0xe
 1587 0c56 58       		.byte	0x58
 1588 0c57 32       		.byte	0x32
 1589 0c58 38060000 		.4byte	0x638
 1590 0c5c 24       		.uleb128 0x24
 1591 0c5d 2F050000 		.4byte	.LASF29
 1592 0c61 0E       		.byte	0xe
 1593 0c62 58       		.byte	0x58
 1594 0c63 40       		.byte	0x40
 1595 0c64 06010000 		.4byte	0x106
 1596 0c68 00       		.byte	0
ARM GAS  /tmp/ccmpYJuH.s 			page 29


 1597 0c69 25       		.uleb128 0x25
 1598 0c6a B6060000 		.4byte	.LASF128
 1599 0c6e 0D       		.byte	0xd
 1600 0c6f A901     		.2byte	0x1a9
 1601 0c71 14       		.byte	0x14
 1602 0c72 A60C0000 		.4byte	0xca6
 1603 0c76 17       		.uleb128 0x17
 1604 0c77 74717000 		.ascii	"tqp\000"
 1605 0c7b 0D       		.byte	0xd
 1606 0c7c A901     		.2byte	0x1a9
 1607 0c7e 39       		.byte	0x39
 1608 0c7f 1D070000 		.4byte	0x71d
 1609 0c83 17       		.uleb128 0x17
 1610 0c84 6D736700 		.ascii	"msg\000"
 1611 0c88 0D       		.byte	0xd
 1612 0c89 A901     		.2byte	0x1a9
 1613 0c8b 44       		.byte	0x44
 1614 0c8c 12010000 		.4byte	0x112
 1615 0c90 1C       		.uleb128 0x1c
 1616 0c91 747000   		.ascii	"tp\000"
 1617 0c94 0D       		.byte	0xd
 1618 0c95 AA01     		.2byte	0x1aa
 1619 0c97 0D       		.byte	0xd
 1620 0c98 3E020000 		.4byte	0x23e
 1621 0c9c 1A       		.uleb128 0x1a
 1622 0c9d 0E060000 		.4byte	.LASF102
 1623 0ca1 B60C0000 		.4byte	0xcb6
 1624 0ca5 00       		.byte	0
 1625 0ca6 1D       		.uleb128 0x1d
 1626 0ca7 4A060000 		.4byte	0x64a
 1627 0cab B60C0000 		.4byte	0xcb6
 1628 0caf 1E       		.uleb128 0x1e
 1629 0cb0 30000000 		.4byte	0x30
 1630 0cb4 13       		.byte	0x13
 1631 0cb5 00       		.byte	0
 1632 0cb6 0B       		.uleb128 0xb
 1633 0cb7 A60C0000 		.4byte	0xca6
 1634 0cbb 25       		.uleb128 0x25
 1635 0cbc A3030000 		.4byte	.LASF129
 1636 0cc0 0D       		.byte	0xd
 1637 0cc1 7A01     		.2byte	0x17a
 1638 0cc3 14       		.byte	0x14
 1639 0cc4 DF0C0000 		.4byte	0xcdf
 1640 0cc8 19       		.uleb128 0x19
 1641 0cc9 F5040000 		.4byte	.LASF130
 1642 0ccd 0D       		.byte	0xd
 1643 0cce 7A01     		.2byte	0x17a
 1644 0cd0 2E       		.byte	0x2e
 1645 0cd1 7B040000 		.4byte	0x47b
 1646 0cd5 1A       		.uleb128 0x1a
 1647 0cd6 0E060000 		.4byte	.LASF102
 1648 0cda BD0A0000 		.4byte	0xabd
 1649 0cde 00       		.byte	0
 1650 0cdf 26       		.uleb128 0x26
 1651 0ce0 E0050000 		.4byte	.LASF137
 1652 0ce4 0D       		.byte	0xd
 1653 0ce5 3D01     		.2byte	0x13d
ARM GAS  /tmp/ccmpYJuH.s 			page 30


 1654 0ce7 1B       		.byte	0x1b
 1655 0ce8 4F060000 		.4byte	0x64f
 1656 0cec FD0C0000 		.4byte	0xcfd
 1657 0cf0 17       		.uleb128 0x17
 1658 0cf1 747000   		.ascii	"tp\000"
 1659 0cf4 0D       		.byte	0xd
 1660 0cf5 3D01     		.2byte	0x13d
 1661 0cf7 3A       		.byte	0x3a
 1662 0cf8 3E020000 		.4byte	0x23e
 1663 0cfc 00       		.byte	0
 1664 0cfd 27       		.uleb128 0x27
 1665 0cfe 71070000 		.4byte	.LASF131
 1666 0d02 0D       		.byte	0xd
 1667 0d03 1001     		.2byte	0x110
 1668 0d05 19       		.byte	0x19
 1669 0d06 3E020000 		.4byte	0x23e
 1670 0d0a 28       		.uleb128 0x28
 1671 0d0b 69030000 		.4byte	.LASF132
 1672 0d0f 0F       		.byte	0xf
 1673 0d10 73       		.byte	0x73
 1674 0d11 19       		.byte	0x19
 1675 0d12 6F040000 		.4byte	0x46f
 1676 0d16 25       		.uleb128 0x25
 1677 0d17 BB070000 		.4byte	.LASF133
 1678 0d1b 10       		.byte	0x10
 1679 0d1c 6D01     		.2byte	0x16d
 1680 0d1e 14       		.byte	0x14
 1681 0d1f 2D0D0000 		.4byte	0xd2d
 1682 0d23 1A       		.uleb128 0x1a
 1683 0d24 0E060000 		.4byte	.LASF102
 1684 0d28 BD0A0000 		.4byte	0xabd
 1685 0d2c 00       		.byte	0
 1686 0d2d 29       		.uleb128 0x29
 1687 0d2e 17060000 		.4byte	.LASF134
 1688 0d32 10       		.byte	0x10
 1689 0d33 6101     		.2byte	0x161
 1690 0d35 14       		.byte	0x14
 1691 0d36 29       		.uleb128 0x29
 1692 0d37 9F070000 		.4byte	.LASF135
 1693 0d3b 06       		.byte	0x6
 1694 0d3c A402     		.2byte	0x2a4
 1695 0d3e 14       		.byte	0x14
 1696 0d3f 27       		.uleb128 0x27
 1697 0d40 79010000 		.4byte	.LASF136
 1698 0d44 06       		.byte	0x6
 1699 0d45 9602     		.2byte	0x296
 1700 0d47 14       		.byte	0x14
 1701 0d48 EE060000 		.4byte	0x6ee
 1702 0d4c 26       		.uleb128 0x26
 1703 0d4d CA060000 		.4byte	.LASF138
 1704 0d51 06       		.byte	0x6
 1705 0d52 5E02     		.2byte	0x25e
 1706 0d54 19       		.byte	0x19
 1707 0d55 3E020000 		.4byte	0x23e
 1708 0d59 770D0000 		.4byte	0xd77
 1709 0d5d 17       		.uleb128 0x17
 1710 0d5e 74717000 		.ascii	"tqp\000"
ARM GAS  /tmp/ccmpYJuH.s 			page 31


 1711 0d62 06       		.byte	0x6
 1712 0d63 5E02     		.2byte	0x25e
 1713 0d65 3C       		.byte	0x3c
 1714 0d66 1D070000 		.4byte	0x71d
 1715 0d6a 1C       		.uleb128 0x1c
 1716 0d6b 747000   		.ascii	"tp\000"
 1717 0d6e 06       		.byte	0x6
 1718 0d6f 5F02     		.2byte	0x25f
 1719 0d71 0D       		.byte	0xd
 1720 0d72 3E020000 		.4byte	0x23e
 1721 0d76 00       		.byte	0
 1722 0d77 25       		.uleb128 0x25
 1723 0d78 1D000000 		.4byte	.LASF139
 1724 0d7c 06       		.byte	0x6
 1725 0d7d 5602     		.2byte	0x256
 1726 0d7f 14       		.byte	0x14
 1727 0d80 9E0D0000 		.4byte	0xd9e
 1728 0d84 17       		.uleb128 0x17
 1729 0d85 747000   		.ascii	"tp\000"
 1730 0d88 06       		.byte	0x6
 1731 0d89 5602     		.2byte	0x256
 1732 0d8b 2B       		.byte	0x2b
 1733 0d8c 3E020000 		.4byte	0x23e
 1734 0d90 17       		.uleb128 0x17
 1735 0d91 74717000 		.ascii	"tqp\000"
 1736 0d95 06       		.byte	0x6
 1737 0d96 5602     		.2byte	0x256
 1738 0d98 40       		.byte	0x40
 1739 0d99 1D070000 		.4byte	0x71d
 1740 0d9d 00       		.byte	0
 1741 0d9e 26       		.uleb128 0x26
 1742 0d9f 1D020000 		.4byte	.LASF140
 1743 0da3 06       		.byte	0x6
 1744 0da4 4202     		.2byte	0x242
 1745 0da6 19       		.byte	0x19
 1746 0da7 3E020000 		.4byte	0x23e
 1747 0dab C90D0000 		.4byte	0xdc9
 1748 0daf 17       		.uleb128 0x17
 1749 0db0 746C7000 		.ascii	"tlp\000"
 1750 0db4 06       		.byte	0x6
 1751 0db5 4202     		.2byte	0x242
 1752 0db7 35       		.byte	0x35
 1753 0db8 C90D0000 		.4byte	0xdc9
 1754 0dbc 1C       		.uleb128 0x1c
 1755 0dbd 747000   		.ascii	"tp\000"
 1756 0dc0 06       		.byte	0x6
 1757 0dc1 4402     		.2byte	0x244
 1758 0dc3 0D       		.byte	0xd
 1759 0dc4 3E020000 		.4byte	0x23e
 1760 0dc8 00       		.byte	0
 1761 0dc9 0A       		.uleb128 0xa
 1762 0dca 04       		.byte	0x4
 1763 0dcb 44020000 		.4byte	0x244
 1764 0dcf 25       		.uleb128 0x25
 1765 0dd0 23050000 		.4byte	.LASF141
 1766 0dd4 06       		.byte	0x6
 1767 0dd5 3C02     		.2byte	0x23c
ARM GAS  /tmp/ccmpYJuH.s 			page 32


 1768 0dd7 14       		.byte	0x14
 1769 0dd8 F60D0000 		.4byte	0xdf6
 1770 0ddc 17       		.uleb128 0x17
 1771 0ddd 747000   		.ascii	"tp\000"
 1772 0de0 06       		.byte	0x6
 1773 0de1 3C02     		.2byte	0x23c
 1774 0de3 2A       		.byte	0x2a
 1775 0de4 3E020000 		.4byte	0x23e
 1776 0de8 17       		.uleb128 0x17
 1777 0de9 746C7000 		.ascii	"tlp\000"
 1778 0ded 06       		.byte	0x6
 1779 0dee 3C02     		.2byte	0x23c
 1780 0df0 3E       		.byte	0x3e
 1781 0df1 C90D0000 		.4byte	0xdc9
 1782 0df5 00       		.byte	0
 1783 0df6 26       		.uleb128 0x26
 1784 0df7 E3010000 		.4byte	.LASF142
 1785 0dfb 06       		.byte	0x6
 1786 0dfc 3402     		.2byte	0x234
 1787 0dfe 14       		.byte	0x14
 1788 0dff EE060000 		.4byte	0x6ee
 1789 0e03 150E0000 		.4byte	0xe15
 1790 0e07 17       		.uleb128 0x17
 1791 0e08 74717000 		.ascii	"tqp\000"
 1792 0e0c 06       		.byte	0x6
 1793 0e0d 3402     		.2byte	0x234
 1794 0e0f 3A       		.byte	0x3a
 1795 0e10 150E0000 		.4byte	0xe15
 1796 0e14 00       		.byte	0
 1797 0e15 0A       		.uleb128 0xa
 1798 0e16 04       		.byte	0x4
 1799 0e17 77020000 		.4byte	0x277
 1800 0e1b 25       		.uleb128 0x25
 1801 0e1c A0000000 		.4byte	.LASF143
 1802 0e20 06       		.byte	0x6
 1803 0e21 1902     		.2byte	0x219
 1804 0e23 14       		.byte	0x14
 1805 0e24 360E0000 		.4byte	0xe36
 1806 0e28 17       		.uleb128 0x17
 1807 0e29 74717000 		.ascii	"tqp\000"
 1808 0e2d 06       		.byte	0x6
 1809 0e2e 1902     		.2byte	0x219
 1810 0e30 30       		.byte	0x30
 1811 0e31 1D070000 		.4byte	0x71d
 1812 0e35 00       		.byte	0
 1813 0e36 26       		.uleb128 0x26
 1814 0e37 AD070000 		.4byte	.LASF144
 1815 0e3b 06       		.byte	0x6
 1816 0e3c 0D02     		.2byte	0x20d
 1817 0e3e 14       		.byte	0x14
 1818 0e3f EE060000 		.4byte	0x6ee
 1819 0e43 550E0000 		.4byte	0xe55
 1820 0e47 17       		.uleb128 0x17
 1821 0e48 746C7000 		.ascii	"tlp\000"
 1822 0e4c 06       		.byte	0x6
 1823 0e4d 0D02     		.2byte	0x20d
 1824 0e4f 32       		.byte	0x32
ARM GAS  /tmp/ccmpYJuH.s 			page 33


 1825 0e50 C90D0000 		.4byte	0xdc9
 1826 0e54 00       		.byte	0
 1827 0e55 25       		.uleb128 0x25
 1828 0e56 3A010000 		.4byte	.LASF145
 1829 0e5a 06       		.byte	0x6
 1830 0e5b F301     		.2byte	0x1f3
 1831 0e5d 14       		.byte	0x14
 1832 0e5e 700E0000 		.4byte	0xe70
 1833 0e62 17       		.uleb128 0x17
 1834 0e63 746C7000 		.ascii	"tlp\000"
 1835 0e67 06       		.byte	0x6
 1836 0e68 F301     		.2byte	0x1f3
 1837 0e6a 2E       		.byte	0x2e
 1838 0e6b C90D0000 		.4byte	0xdc9
 1839 0e6f 00       		.byte	0
 1840 0e70 28       		.uleb128 0x28
 1841 0e71 0E070000 		.4byte	.LASF146
 1842 0e75 11       		.byte	0x11
 1843 0e76 72       		.byte	0x72
 1844 0e77 19       		.byte	0x19
 1845 0e78 6F040000 		.4byte	0x46f
 1846 0e7c 29       		.uleb128 0x29
 1847 0e7d B2010000 		.4byte	.LASF147
 1848 0e81 09       		.byte	0x9
 1849 0e82 B502     		.2byte	0x2b5
 1850 0e84 1B       		.byte	0x1b
 1851 0e85 29       		.uleb128 0x29
 1852 0e86 BF000000 		.4byte	.LASF148
 1853 0e8a 09       		.byte	0x9
 1854 0e8b 9D02     		.2byte	0x29d
 1855 0e8d 1B       		.byte	0x1b
 1856 0e8e 25       		.uleb128 0x25
 1857 0e8f EF060000 		.4byte	.LASF149
 1858 0e93 12       		.byte	0x12
 1859 0e94 EB01     		.2byte	0x1eb
 1860 0e96 1B       		.byte	0x1b
 1861 0e97 A90E0000 		.4byte	0xea9
 1862 0e9b 19       		.uleb128 0x19
 1863 0e9c A3010000 		.4byte	.LASF150
 1864 0ea0 12       		.byte	0x12
 1865 0ea1 EB01     		.2byte	0x1eb
 1866 0ea3 32       		.byte	0x32
 1867 0ea4 BE000000 		.4byte	0xbe
 1868 0ea8 00       		.byte	0
 1869 0ea9 26       		.uleb128 0x26
 1870 0eaa 5E010000 		.4byte	.LASF151
 1871 0eae 07       		.byte	0x7
 1872 0eaf E001     		.2byte	0x1e0
 1873 0eb1 14       		.byte	0x14
 1874 0eb2 EE060000 		.4byte	0x6ee
 1875 0eb6 E20E0000 		.4byte	0xee2
 1876 0eba 19       		.uleb128 0x19
 1877 0ebb 1E050000 		.4byte	.LASF107
 1878 0ebf 07       		.byte	0x7
 1879 0ec0 E001     		.2byte	0x1e0
 1880 0ec2 2F       		.byte	0x2f
 1881 0ec3 6F040000 		.4byte	0x46f
ARM GAS  /tmp/ccmpYJuH.s 			page 34


 1882 0ec7 19       		.uleb128 0x19
 1883 0ec8 C7070000 		.4byte	.LASF152
 1884 0ecc 07       		.byte	0x7
 1885 0ecd E101     		.2byte	0x1e1
 1886 0ecf 2F       		.byte	0x2f
 1887 0ed0 6F040000 		.4byte	0x46f
 1888 0ed4 17       		.uleb128 0x17
 1889 0ed5 656E6400 		.ascii	"end\000"
 1890 0ed9 07       		.byte	0x7
 1891 0eda E201     		.2byte	0x1e2
 1892 0edc 2F       		.byte	0x2f
 1893 0edd 6F040000 		.4byte	0x46f
 1894 0ee1 00       		.byte	0
 1895 0ee2 2A       		.uleb128 0x2a
 1896 0ee3 8D050000 		.4byte	.LASF153
 1897 0ee7 07       		.byte	0x7
 1898 0ee8 CB01     		.2byte	0x1cb
 1899 0eea 1D       		.byte	0x1d
 1900 0eeb 7B040000 		.4byte	0x47b
 1901 0eef 19       		.uleb128 0x19
 1902 0ef0 C7070000 		.4byte	.LASF152
 1903 0ef4 07       		.byte	0x7
 1904 0ef5 CB01     		.2byte	0x1cb
 1905 0ef7 33       		.byte	0x33
 1906 0ef8 6F040000 		.4byte	0x46f
 1907 0efc 17       		.uleb128 0x17
 1908 0efd 656E6400 		.ascii	"end\000"
 1909 0f01 07       		.byte	0x7
 1910 0f02 CB01     		.2byte	0x1cb
 1911 0f04 44       		.byte	0x44
 1912 0f05 6F040000 		.4byte	0x46f
 1913 0f09 00       		.byte	0
 1914 0f0a 00       		.byte	0
 1915              		.section	.gnu.debuglto_.debug_abbrev,"e",%progbits
 1916              	.Ldebug_abbrev0:
 1917 0000 01       		.uleb128 0x1
 1918 0001 11       		.uleb128 0x11
 1919 0002 01       		.byte	0x1
 1920 0003 25       		.uleb128 0x25
 1921 0004 0E       		.uleb128 0xe
 1922 0005 13       		.uleb128 0x13
 1923 0006 0B       		.uleb128 0xb
 1924 0007 03       		.uleb128 0x3
 1925 0008 0E       		.uleb128 0xe
 1926 0009 1B       		.uleb128 0x1b
 1927 000a 0E       		.uleb128 0xe
 1928 000b 10       		.uleb128 0x10
 1929 000c 17       		.uleb128 0x17
 1930 000d 00       		.byte	0
 1931 000e 00       		.byte	0
 1932 000f 02       		.uleb128 0x2
 1933 0010 24       		.uleb128 0x24
 1934 0011 00       		.byte	0
 1935 0012 0B       		.uleb128 0xb
 1936 0013 0B       		.uleb128 0xb
 1937 0014 3E       		.uleb128 0x3e
 1938 0015 0B       		.uleb128 0xb
ARM GAS  /tmp/ccmpYJuH.s 			page 35


 1939 0016 03       		.uleb128 0x3
 1940 0017 08       		.uleb128 0x8
 1941 0018 00       		.byte	0
 1942 0019 00       		.byte	0
 1943 001a 03       		.uleb128 0x3
 1944 001b 16       		.uleb128 0x16
 1945 001c 00       		.byte	0
 1946 001d 03       		.uleb128 0x3
 1947 001e 0E       		.uleb128 0xe
 1948 001f 3A       		.uleb128 0x3a
 1949 0020 0B       		.uleb128 0xb
 1950 0021 3B       		.uleb128 0x3b
 1951 0022 0B       		.uleb128 0xb
 1952 0023 39       		.uleb128 0x39
 1953 0024 0B       		.uleb128 0xb
 1954 0025 49       		.uleb128 0x49
 1955 0026 13       		.uleb128 0x13
 1956 0027 00       		.byte	0
 1957 0028 00       		.byte	0
 1958 0029 04       		.uleb128 0x4
 1959 002a 24       		.uleb128 0x24
 1960 002b 00       		.byte	0
 1961 002c 0B       		.uleb128 0xb
 1962 002d 0B       		.uleb128 0xb
 1963 002e 3E       		.uleb128 0x3e
 1964 002f 0B       		.uleb128 0xb
 1965 0030 03       		.uleb128 0x3
 1966 0031 0E       		.uleb128 0xe
 1967 0032 00       		.byte	0
 1968 0033 00       		.byte	0
 1969 0034 05       		.uleb128 0x5
 1970 0035 13       		.uleb128 0x13
 1971 0036 01       		.byte	0x1
 1972 0037 03       		.uleb128 0x3
 1973 0038 0E       		.uleb128 0xe
 1974 0039 0B       		.uleb128 0xb
 1975 003a 0B       		.uleb128 0xb
 1976 003b 3A       		.uleb128 0x3a
 1977 003c 0B       		.uleb128 0xb
 1978 003d 3B       		.uleb128 0x3b
 1979 003e 0B       		.uleb128 0xb
 1980 003f 39       		.uleb128 0x39
 1981 0040 0B       		.uleb128 0xb
 1982 0041 01       		.uleb128 0x1
 1983 0042 13       		.uleb128 0x13
 1984 0043 00       		.byte	0
 1985 0044 00       		.byte	0
 1986 0045 06       		.uleb128 0x6
 1987 0046 0D       		.uleb128 0xd
 1988 0047 00       		.byte	0
 1989 0048 03       		.uleb128 0x3
 1990 0049 0E       		.uleb128 0xe
 1991 004a 3A       		.uleb128 0x3a
 1992 004b 0B       		.uleb128 0xb
 1993 004c 3B       		.uleb128 0x3b
 1994 004d 0B       		.uleb128 0xb
 1995 004e 39       		.uleb128 0x39
ARM GAS  /tmp/ccmpYJuH.s 			page 36


 1996 004f 0B       		.uleb128 0xb
 1997 0050 49       		.uleb128 0x49
 1998 0051 13       		.uleb128 0x13
 1999 0052 38       		.uleb128 0x38
 2000 0053 0B       		.uleb128 0xb
 2001 0054 00       		.byte	0
 2002 0055 00       		.byte	0
 2003 0056 07       		.uleb128 0x7
 2004 0057 0D       		.uleb128 0xd
 2005 0058 00       		.byte	0
 2006 0059 03       		.uleb128 0x3
 2007 005a 08       		.uleb128 0x8
 2008 005b 3A       		.uleb128 0x3a
 2009 005c 0B       		.uleb128 0xb
 2010 005d 3B       		.uleb128 0x3b
 2011 005e 0B       		.uleb128 0xb
 2012 005f 39       		.uleb128 0x39
 2013 0060 0B       		.uleb128 0xb
 2014 0061 49       		.uleb128 0x49
 2015 0062 13       		.uleb128 0x13
 2016 0063 38       		.uleb128 0x38
 2017 0064 0B       		.uleb128 0xb
 2018 0065 00       		.byte	0
 2019 0066 00       		.byte	0
 2020 0067 08       		.uleb128 0x8
 2021 0068 0D       		.uleb128 0xd
 2022 0069 00       		.byte	0
 2023 006a 03       		.uleb128 0x3
 2024 006b 08       		.uleb128 0x8
 2025 006c 3A       		.uleb128 0x3a
 2026 006d 0B       		.uleb128 0xb
 2027 006e 3B       		.uleb128 0x3b
 2028 006f 05       		.uleb128 0x5
 2029 0070 39       		.uleb128 0x39
 2030 0071 0B       		.uleb128 0xb
 2031 0072 49       		.uleb128 0x49
 2032 0073 13       		.uleb128 0x13
 2033 0074 38       		.uleb128 0x38
 2034 0075 0B       		.uleb128 0xb
 2035 0076 00       		.byte	0
 2036 0077 00       		.byte	0
 2037 0078 09       		.uleb128 0x9
 2038 0079 0D       		.uleb128 0xd
 2039 007a 00       		.byte	0
 2040 007b 03       		.uleb128 0x3
 2041 007c 0E       		.uleb128 0xe
 2042 007d 3A       		.uleb128 0x3a
 2043 007e 0B       		.uleb128 0xb
 2044 007f 3B       		.uleb128 0x3b
 2045 0080 05       		.uleb128 0x5
 2046 0081 39       		.uleb128 0x39
 2047 0082 0B       		.uleb128 0xb
 2048 0083 49       		.uleb128 0x49
 2049 0084 13       		.uleb128 0x13
 2050 0085 38       		.uleb128 0x38
 2051 0086 0B       		.uleb128 0xb
 2052 0087 00       		.byte	0
ARM GAS  /tmp/ccmpYJuH.s 			page 37


 2053 0088 00       		.byte	0
 2054 0089 0A       		.uleb128 0xa
 2055 008a 0F       		.uleb128 0xf
 2056 008b 00       		.byte	0
 2057 008c 0B       		.uleb128 0xb
 2058 008d 0B       		.uleb128 0xb
 2059 008e 49       		.uleb128 0x49
 2060 008f 13       		.uleb128 0x13
 2061 0090 00       		.byte	0
 2062 0091 00       		.byte	0
 2063 0092 0B       		.uleb128 0xb
 2064 0093 26       		.uleb128 0x26
 2065 0094 00       		.byte	0
 2066 0095 49       		.uleb128 0x49
 2067 0096 13       		.uleb128 0x13
 2068 0097 00       		.byte	0
 2069 0098 00       		.byte	0
 2070 0099 0C       		.uleb128 0xc
 2071 009a 13       		.uleb128 0x13
 2072 009b 01       		.byte	0x1
 2073 009c 03       		.uleb128 0x3
 2074 009d 0E       		.uleb128 0xe
 2075 009e 0B       		.uleb128 0xb
 2076 009f 0B       		.uleb128 0xb
 2077 00a0 3A       		.uleb128 0x3a
 2078 00a1 0B       		.uleb128 0xb
 2079 00a2 3B       		.uleb128 0x3b
 2080 00a3 05       		.uleb128 0x5
 2081 00a4 39       		.uleb128 0x39
 2082 00a5 0B       		.uleb128 0xb
 2083 00a6 01       		.uleb128 0x1
 2084 00a7 13       		.uleb128 0x13
 2085 00a8 00       		.byte	0
 2086 00a9 00       		.byte	0
 2087 00aa 0D       		.uleb128 0xd
 2088 00ab 15       		.uleb128 0x15
 2089 00ac 01       		.byte	0x1
 2090 00ad 27       		.uleb128 0x27
 2091 00ae 19       		.uleb128 0x19
 2092 00af 01       		.uleb128 0x1
 2093 00b0 13       		.uleb128 0x13
 2094 00b1 00       		.byte	0
 2095 00b2 00       		.byte	0
 2096 00b3 0E       		.uleb128 0xe
 2097 00b4 05       		.uleb128 0x5
 2098 00b5 00       		.byte	0
 2099 00b6 49       		.uleb128 0x49
 2100 00b7 13       		.uleb128 0x13
 2101 00b8 00       		.byte	0
 2102 00b9 00       		.byte	0
 2103 00ba 0F       		.uleb128 0xf
 2104 00bb 0F       		.uleb128 0xf
 2105 00bc 00       		.byte	0
 2106 00bd 0B       		.uleb128 0xb
 2107 00be 0B       		.uleb128 0xb
 2108 00bf 00       		.byte	0
 2109 00c0 00       		.byte	0
ARM GAS  /tmp/ccmpYJuH.s 			page 38


 2110 00c1 10       		.uleb128 0x10
 2111 00c2 13       		.uleb128 0x13
 2112 00c3 01       		.byte	0x1
 2113 00c4 0B       		.uleb128 0xb
 2114 00c5 0B       		.uleb128 0xb
 2115 00c6 3A       		.uleb128 0x3a
 2116 00c7 0B       		.uleb128 0xb
 2117 00c8 3B       		.uleb128 0x3b
 2118 00c9 0B       		.uleb128 0xb
 2119 00ca 39       		.uleb128 0x39
 2120 00cb 0B       		.uleb128 0xb
 2121 00cc 01       		.uleb128 0x1
 2122 00cd 13       		.uleb128 0x13
 2123 00ce 00       		.byte	0
 2124 00cf 00       		.byte	0
 2125 00d0 11       		.uleb128 0x11
 2126 00d1 17       		.uleb128 0x17
 2127 00d2 01       		.byte	0x1
 2128 00d3 0B       		.uleb128 0xb
 2129 00d4 0B       		.uleb128 0xb
 2130 00d5 3A       		.uleb128 0x3a
 2131 00d6 0B       		.uleb128 0xb
 2132 00d7 3B       		.uleb128 0x3b
 2133 00d8 0B       		.uleb128 0xb
 2134 00d9 39       		.uleb128 0x39
 2135 00da 0B       		.uleb128 0xb
 2136 00db 01       		.uleb128 0x1
 2137 00dc 13       		.uleb128 0x13
 2138 00dd 00       		.byte	0
 2139 00de 00       		.byte	0
 2140 00df 12       		.uleb128 0x12
 2141 00e0 0D       		.uleb128 0xd
 2142 00e1 00       		.byte	0
 2143 00e2 03       		.uleb128 0x3
 2144 00e3 0E       		.uleb128 0xe
 2145 00e4 3A       		.uleb128 0x3a
 2146 00e5 0B       		.uleb128 0xb
 2147 00e6 3B       		.uleb128 0x3b
 2148 00e7 0B       		.uleb128 0xb
 2149 00e8 39       		.uleb128 0x39
 2150 00e9 0B       		.uleb128 0xb
 2151 00ea 49       		.uleb128 0x49
 2152 00eb 13       		.uleb128 0x13
 2153 00ec 00       		.byte	0
 2154 00ed 00       		.byte	0
 2155 00ee 13       		.uleb128 0x13
 2156 00ef 0D       		.uleb128 0xd
 2157 00f0 00       		.byte	0
 2158 00f1 03       		.uleb128 0x3
 2159 00f2 0E       		.uleb128 0xe
 2160 00f3 3A       		.uleb128 0x3a
 2161 00f4 0B       		.uleb128 0xb
 2162 00f5 3B       		.uleb128 0x3b
 2163 00f6 05       		.uleb128 0x5
 2164 00f7 39       		.uleb128 0x39
 2165 00f8 0B       		.uleb128 0xb
 2166 00f9 49       		.uleb128 0x49
ARM GAS  /tmp/ccmpYJuH.s 			page 39


 2167 00fa 13       		.uleb128 0x13
 2168 00fb 00       		.byte	0
 2169 00fc 00       		.byte	0
 2170 00fd 14       		.uleb128 0x14
 2171 00fe 35       		.uleb128 0x35
 2172 00ff 00       		.byte	0
 2173 0100 49       		.uleb128 0x49
 2174 0101 13       		.uleb128 0x13
 2175 0102 00       		.byte	0
 2176 0103 00       		.byte	0
 2177 0104 15       		.uleb128 0x15
 2178 0105 34       		.uleb128 0x34
 2179 0106 00       		.byte	0
 2180 0107 03       		.uleb128 0x3
 2181 0108 08       		.uleb128 0x8
 2182 0109 3A       		.uleb128 0x3a
 2183 010a 0B       		.uleb128 0xb
 2184 010b 3B       		.uleb128 0x3b
 2185 010c 05       		.uleb128 0x5
 2186 010d 39       		.uleb128 0x39
 2187 010e 0B       		.uleb128 0xb
 2188 010f 49       		.uleb128 0x49
 2189 0110 13       		.uleb128 0x13
 2190 0111 3F       		.uleb128 0x3f
 2191 0112 19       		.uleb128 0x19
 2192 0113 3C       		.uleb128 0x3c
 2193 0114 19       		.uleb128 0x19
 2194 0115 00       		.byte	0
 2195 0116 00       		.byte	0
 2196 0117 16       		.uleb128 0x16
 2197 0118 2E       		.uleb128 0x2e
 2198 0119 01       		.byte	0x1
 2199 011a 3F       		.uleb128 0x3f
 2200 011b 19       		.uleb128 0x19
 2201 011c 03       		.uleb128 0x3
 2202 011d 0E       		.uleb128 0xe
 2203 011e 3A       		.uleb128 0x3a
 2204 011f 0B       		.uleb128 0xb
 2205 0120 3B       		.uleb128 0x3b
 2206 0121 05       		.uleb128 0x5
 2207 0122 39       		.uleb128 0x39
 2208 0123 0B       		.uleb128 0xb
 2209 0124 27       		.uleb128 0x27
 2210 0125 19       		.uleb128 0x19
 2211 0126 01       		.uleb128 0x1
 2212 0127 13       		.uleb128 0x13
 2213 0128 00       		.byte	0
 2214 0129 00       		.byte	0
 2215 012a 17       		.uleb128 0x17
 2216 012b 05       		.uleb128 0x5
 2217 012c 00       		.byte	0
 2218 012d 03       		.uleb128 0x3
 2219 012e 08       		.uleb128 0x8
 2220 012f 3A       		.uleb128 0x3a
 2221 0130 0B       		.uleb128 0xb
 2222 0131 3B       		.uleb128 0x3b
 2223 0132 05       		.uleb128 0x5
ARM GAS  /tmp/ccmpYJuH.s 			page 40


 2224 0133 39       		.uleb128 0x39
 2225 0134 0B       		.uleb128 0xb
 2226 0135 49       		.uleb128 0x49
 2227 0136 13       		.uleb128 0x13
 2228 0137 00       		.byte	0
 2229 0138 00       		.byte	0
 2230 0139 18       		.uleb128 0x18
 2231 013a 2E       		.uleb128 0x2e
 2232 013b 01       		.byte	0x1
 2233 013c 3F       		.uleb128 0x3f
 2234 013d 19       		.uleb128 0x19
 2235 013e 03       		.uleb128 0x3
 2236 013f 0E       		.uleb128 0xe
 2237 0140 3A       		.uleb128 0x3a
 2238 0141 0B       		.uleb128 0xb
 2239 0142 3B       		.uleb128 0x3b
 2240 0143 05       		.uleb128 0x5
 2241 0144 39       		.uleb128 0x39
 2242 0145 0B       		.uleb128 0xb
 2243 0146 27       		.uleb128 0x27
 2244 0147 19       		.uleb128 0x19
 2245 0148 49       		.uleb128 0x49
 2246 0149 13       		.uleb128 0x13
 2247 014a 01       		.uleb128 0x1
 2248 014b 13       		.uleb128 0x13
 2249 014c 00       		.byte	0
 2250 014d 00       		.byte	0
 2251 014e 19       		.uleb128 0x19
 2252 014f 05       		.uleb128 0x5
 2253 0150 00       		.byte	0
 2254 0151 03       		.uleb128 0x3
 2255 0152 0E       		.uleb128 0xe
 2256 0153 3A       		.uleb128 0x3a
 2257 0154 0B       		.uleb128 0xb
 2258 0155 3B       		.uleb128 0x3b
 2259 0156 05       		.uleb128 0x5
 2260 0157 39       		.uleb128 0x39
 2261 0158 0B       		.uleb128 0xb
 2262 0159 49       		.uleb128 0x49
 2263 015a 13       		.uleb128 0x13
 2264 015b 00       		.byte	0
 2265 015c 00       		.byte	0
 2266 015d 1A       		.uleb128 0x1a
 2267 015e 34       		.uleb128 0x34
 2268 015f 00       		.byte	0
 2269 0160 03       		.uleb128 0x3
 2270 0161 0E       		.uleb128 0xe
 2271 0162 49       		.uleb128 0x49
 2272 0163 13       		.uleb128 0x13
 2273 0164 34       		.uleb128 0x34
 2274 0165 19       		.uleb128 0x19
 2275 0166 00       		.byte	0
 2276 0167 00       		.byte	0
 2277 0168 1B       		.uleb128 0x1b
 2278 0169 0B       		.uleb128 0xb
 2279 016a 01       		.byte	0x1
 2280 016b 00       		.byte	0
ARM GAS  /tmp/ccmpYJuH.s 			page 41


 2281 016c 00       		.byte	0
 2282 016d 1C       		.uleb128 0x1c
 2283 016e 34       		.uleb128 0x34
 2284 016f 00       		.byte	0
 2285 0170 03       		.uleb128 0x3
 2286 0171 08       		.uleb128 0x8
 2287 0172 3A       		.uleb128 0x3a
 2288 0173 0B       		.uleb128 0xb
 2289 0174 3B       		.uleb128 0x3b
 2290 0175 05       		.uleb128 0x5
 2291 0176 39       		.uleb128 0x39
 2292 0177 0B       		.uleb128 0xb
 2293 0178 49       		.uleb128 0x49
 2294 0179 13       		.uleb128 0x13
 2295 017a 00       		.byte	0
 2296 017b 00       		.byte	0
 2297 017c 1D       		.uleb128 0x1d
 2298 017d 01       		.uleb128 0x1
 2299 017e 01       		.byte	0x1
 2300 017f 49       		.uleb128 0x49
 2301 0180 13       		.uleb128 0x13
 2302 0181 01       		.uleb128 0x1
 2303 0182 13       		.uleb128 0x13
 2304 0183 00       		.byte	0
 2305 0184 00       		.byte	0
 2306 0185 1E       		.uleb128 0x1e
 2307 0186 21       		.uleb128 0x21
 2308 0187 00       		.byte	0
 2309 0188 49       		.uleb128 0x49
 2310 0189 13       		.uleb128 0x13
 2311 018a 2F       		.uleb128 0x2f
 2312 018b 0B       		.uleb128 0xb
 2313 018c 00       		.byte	0
 2314 018d 00       		.byte	0
 2315 018e 1F       		.uleb128 0x1f
 2316 018f 2E       		.uleb128 0x2e
 2317 0190 00       		.byte	0
 2318 0191 3F       		.uleb128 0x3f
 2319 0192 19       		.uleb128 0x19
 2320 0193 03       		.uleb128 0x3
 2321 0194 0E       		.uleb128 0xe
 2322 0195 3A       		.uleb128 0x3a
 2323 0196 0B       		.uleb128 0xb
 2324 0197 3B       		.uleb128 0x3b
 2325 0198 05       		.uleb128 0x5
 2326 0199 39       		.uleb128 0x39
 2327 019a 0B       		.uleb128 0xb
 2328 019b 27       		.uleb128 0x27
 2329 019c 19       		.uleb128 0x19
 2330 019d 00       		.byte	0
 2331 019e 00       		.byte	0
 2332 019f 20       		.uleb128 0x20
 2333 01a0 34       		.uleb128 0x34
 2334 01a1 00       		.byte	0
 2335 01a2 03       		.uleb128 0x3
 2336 01a3 0E       		.uleb128 0xe
 2337 01a4 3A       		.uleb128 0x3a
ARM GAS  /tmp/ccmpYJuH.s 			page 42


 2338 01a5 0B       		.uleb128 0xb
 2339 01a6 3B       		.uleb128 0x3b
 2340 01a7 05       		.uleb128 0x5
 2341 01a8 39       		.uleb128 0x39
 2342 01a9 0B       		.uleb128 0xb
 2343 01aa 49       		.uleb128 0x49
 2344 01ab 13       		.uleb128 0x13
 2345 01ac 00       		.byte	0
 2346 01ad 00       		.byte	0
 2347 01ae 21       		.uleb128 0x21
 2348 01af 2E       		.uleb128 0x2e
 2349 01b0 01       		.byte	0x1
 2350 01b1 3F       		.uleb128 0x3f
 2351 01b2 19       		.uleb128 0x19
 2352 01b3 03       		.uleb128 0x3
 2353 01b4 0E       		.uleb128 0xe
 2354 01b5 3A       		.uleb128 0x3a
 2355 01b6 0B       		.uleb128 0xb
 2356 01b7 3B       		.uleb128 0x3b
 2357 01b8 0B       		.uleb128 0xb
 2358 01b9 39       		.uleb128 0x39
 2359 01ba 0B       		.uleb128 0xb
 2360 01bb 27       		.uleb128 0x27
 2361 01bc 19       		.uleb128 0x19
 2362 01bd 49       		.uleb128 0x49
 2363 01be 13       		.uleb128 0x13
 2364 01bf 01       		.uleb128 0x1
 2365 01c0 13       		.uleb128 0x13
 2366 01c1 00       		.byte	0
 2367 01c2 00       		.byte	0
 2368 01c3 22       		.uleb128 0x22
 2369 01c4 05       		.uleb128 0x5
 2370 01c5 00       		.byte	0
 2371 01c6 03       		.uleb128 0x3
 2372 01c7 08       		.uleb128 0x8
 2373 01c8 3A       		.uleb128 0x3a
 2374 01c9 0B       		.uleb128 0xb
 2375 01ca 3B       		.uleb128 0x3b
 2376 01cb 0B       		.uleb128 0xb
 2377 01cc 39       		.uleb128 0x39
 2378 01cd 0B       		.uleb128 0xb
 2379 01ce 49       		.uleb128 0x49
 2380 01cf 13       		.uleb128 0x13
 2381 01d0 00       		.byte	0
 2382 01d1 00       		.byte	0
 2383 01d2 23       		.uleb128 0x23
 2384 01d3 34       		.uleb128 0x34
 2385 01d4 00       		.byte	0
 2386 01d5 03       		.uleb128 0x3
 2387 01d6 08       		.uleb128 0x8
 2388 01d7 3A       		.uleb128 0x3a
 2389 01d8 0B       		.uleb128 0xb
 2390 01d9 3B       		.uleb128 0x3b
 2391 01da 0B       		.uleb128 0xb
 2392 01db 39       		.uleb128 0x39
 2393 01dc 0B       		.uleb128 0xb
 2394 01dd 49       		.uleb128 0x49
ARM GAS  /tmp/ccmpYJuH.s 			page 43


 2395 01de 13       		.uleb128 0x13
 2396 01df 00       		.byte	0
 2397 01e0 00       		.byte	0
 2398 01e1 24       		.uleb128 0x24
 2399 01e2 05       		.uleb128 0x5
 2400 01e3 00       		.byte	0
 2401 01e4 03       		.uleb128 0x3
 2402 01e5 0E       		.uleb128 0xe
 2403 01e6 3A       		.uleb128 0x3a
 2404 01e7 0B       		.uleb128 0xb
 2405 01e8 3B       		.uleb128 0x3b
 2406 01e9 0B       		.uleb128 0xb
 2407 01ea 39       		.uleb128 0x39
 2408 01eb 0B       		.uleb128 0xb
 2409 01ec 49       		.uleb128 0x49
 2410 01ed 13       		.uleb128 0x13
 2411 01ee 00       		.byte	0
 2412 01ef 00       		.byte	0
 2413 01f0 25       		.uleb128 0x25
 2414 01f1 2E       		.uleb128 0x2e
 2415 01f2 01       		.byte	0x1
 2416 01f3 03       		.uleb128 0x3
 2417 01f4 0E       		.uleb128 0xe
 2418 01f5 3A       		.uleb128 0x3a
 2419 01f6 0B       		.uleb128 0xb
 2420 01f7 3B       		.uleb128 0x3b
 2421 01f8 05       		.uleb128 0x5
 2422 01f9 39       		.uleb128 0x39
 2423 01fa 0B       		.uleb128 0xb
 2424 01fb 27       		.uleb128 0x27
 2425 01fc 19       		.uleb128 0x19
 2426 01fd 01       		.uleb128 0x1
 2427 01fe 13       		.uleb128 0x13
 2428 01ff 00       		.byte	0
 2429 0200 00       		.byte	0
 2430 0201 26       		.uleb128 0x26
 2431 0202 2E       		.uleb128 0x2e
 2432 0203 01       		.byte	0x1
 2433 0204 03       		.uleb128 0x3
 2434 0205 0E       		.uleb128 0xe
 2435 0206 3A       		.uleb128 0x3a
 2436 0207 0B       		.uleb128 0xb
 2437 0208 3B       		.uleb128 0x3b
 2438 0209 05       		.uleb128 0x5
 2439 020a 39       		.uleb128 0x39
 2440 020b 0B       		.uleb128 0xb
 2441 020c 27       		.uleb128 0x27
 2442 020d 19       		.uleb128 0x19
 2443 020e 49       		.uleb128 0x49
 2444 020f 13       		.uleb128 0x13
 2445 0210 01       		.uleb128 0x1
 2446 0211 13       		.uleb128 0x13
 2447 0212 00       		.byte	0
 2448 0213 00       		.byte	0
 2449 0214 27       		.uleb128 0x27
 2450 0215 2E       		.uleb128 0x2e
 2451 0216 00       		.byte	0
ARM GAS  /tmp/ccmpYJuH.s 			page 44


 2452 0217 03       		.uleb128 0x3
 2453 0218 0E       		.uleb128 0xe
 2454 0219 3A       		.uleb128 0x3a
 2455 021a 0B       		.uleb128 0xb
 2456 021b 3B       		.uleb128 0x3b
 2457 021c 05       		.uleb128 0x5
 2458 021d 39       		.uleb128 0x39
 2459 021e 0B       		.uleb128 0xb
 2460 021f 27       		.uleb128 0x27
 2461 0220 19       		.uleb128 0x19
 2462 0221 49       		.uleb128 0x49
 2463 0222 13       		.uleb128 0x13
 2464 0223 00       		.byte	0
 2465 0224 00       		.byte	0
 2466 0225 28       		.uleb128 0x28
 2467 0226 2E       		.uleb128 0x2e
 2468 0227 00       		.byte	0
 2469 0228 03       		.uleb128 0x3
 2470 0229 0E       		.uleb128 0xe
 2471 022a 3A       		.uleb128 0x3a
 2472 022b 0B       		.uleb128 0xb
 2473 022c 3B       		.uleb128 0x3b
 2474 022d 0B       		.uleb128 0xb
 2475 022e 39       		.uleb128 0x39
 2476 022f 0B       		.uleb128 0xb
 2477 0230 27       		.uleb128 0x27
 2478 0231 19       		.uleb128 0x19
 2479 0232 49       		.uleb128 0x49
 2480 0233 13       		.uleb128 0x13
 2481 0234 00       		.byte	0
 2482 0235 00       		.byte	0
 2483 0236 29       		.uleb128 0x29
 2484 0237 2E       		.uleb128 0x2e
 2485 0238 00       		.byte	0
 2486 0239 03       		.uleb128 0x3
 2487 023a 0E       		.uleb128 0xe
 2488 023b 3A       		.uleb128 0x3a
 2489 023c 0B       		.uleb128 0xb
 2490 023d 3B       		.uleb128 0x3b
 2491 023e 05       		.uleb128 0x5
 2492 023f 39       		.uleb128 0x39
 2493 0240 0B       		.uleb128 0xb
 2494 0241 27       		.uleb128 0x27
 2495 0242 19       		.uleb128 0x19
 2496 0243 00       		.byte	0
 2497 0244 00       		.byte	0
 2498 0245 2A       		.uleb128 0x2a
 2499 0246 2E       		.uleb128 0x2e
 2500 0247 01       		.byte	0x1
 2501 0248 03       		.uleb128 0x3
 2502 0249 0E       		.uleb128 0xe
 2503 024a 3A       		.uleb128 0x3a
 2504 024b 0B       		.uleb128 0xb
 2505 024c 3B       		.uleb128 0x3b
 2506 024d 05       		.uleb128 0x5
 2507 024e 39       		.uleb128 0x39
 2508 024f 0B       		.uleb128 0xb
ARM GAS  /tmp/ccmpYJuH.s 			page 45


 2509 0250 27       		.uleb128 0x27
 2510 0251 19       		.uleb128 0x19
 2511 0252 49       		.uleb128 0x49
 2512 0253 13       		.uleb128 0x13
 2513 0254 00       		.byte	0
 2514 0255 00       		.byte	0
 2515 0256 00       		.byte	0
 2516              		.section	.gnu.debuglto_.debug_line,"e",%progbits
 2517              	.Ldebug_line0:
 2518 0000 B7020000 		.4byte	.LELT0-.LSLT0
 2519              	.LSLT0:
 2520 0004 0400     		.2byte	0x4
 2521 0006 B1020000 		.4byte	.LELTP0-.LASLTP0
 2522              	.LASLTP0:
 2523 000a 01       		.byte	0x1
 2524 000b 01       		.byte	0x1
 2525 000c 01       		.byte	0x1
 2526 000d F6       		.byte	0xf6
 2527 000e F2       		.byte	0xf2
 2528 000f 0D       		.byte	0xd
 2529 0010 00       		.byte	0
 2530 0011 01       		.byte	0x1
 2531 0012 01       		.byte	0x1
 2532 0013 01       		.byte	0x1
 2533 0014 01       		.byte	0x1
 2534 0015 00       		.byte	0
 2535 0016 00       		.byte	0
 2536 0017 00       		.byte	0
 2537 0018 01       		.byte	0x1
 2538 0019 00       		.byte	0
 2539 001a 00       		.byte	0
 2540 001b 01       		.byte	0x1
 2541 001c 43686962 		.ascii	"ChibiOS_20.3.0/os/common/ext/ARM/CMSIS/Core/Include"
 2541      694F535F 
 2541      32302E33 
 2541      2E302F6F 
 2541      732F636F 
 2542 004f 00       		.byte	0
 2543 0050 43686962 		.ascii	"ChibiOS_20.3.0/os/common/ports/ARMCMx/compilers/GCC"
 2543      694F535F 
 2543      32302E33 
 2543      2E302F6F 
 2543      732F636F 
 2544 0083 00       		.byte	0
 2545 0084 43686962 		.ascii	"ChibiOS_20.3.0/os/common/ports/ARMCMx"
 2545      694F535F 
 2545      32302E33 
 2545      2E302F6F 
 2545      732F636F 
 2546 00a9 00       		.byte	0
 2547 00aa 43686962 		.ascii	"ChibiOS_20.3.0/os/rt/include"
 2547      694F535F 
 2547      32302E33 
 2547      2E302F6F 
 2547      732F7274 
 2548 00c6 00       		.byte	0
 2549 00c7 43686962 		.ascii	"ChibiOS_20.3.0/os/rt/src"
ARM GAS  /tmp/ccmpYJuH.s 			page 46


 2549      694F535F 
 2549      32302E33 
 2549      2E302F6F 
 2549      732F7274 
 2550 00df 00       		.byte	0
 2551 00e0 2F757372 		.ascii	"/usr/share/gcc-arm-none-eabi-10-2020-q4-major/arm-n"
 2551      2F736861 
 2551      72652F67 
 2551      63632D61 
 2551      726D2D6E 
 2552 0113 6F6E652D 		.ascii	"one-eabi/include/machine"
 2552      65616269 
 2552      2F696E63 
 2552      6C756465 
 2552      2F6D6163 
 2553 012b 00       		.byte	0
 2554 012c 2F757372 		.ascii	"/usr/share/gcc-arm-none-eabi-10-2020-q4-major/arm-n"
 2554      2F736861 
 2554      72652F67 
 2554      63632D61 
 2554      726D2D6E 
 2555 015f 6F6E652D 		.ascii	"one-eabi/include/sys"
 2555      65616269 
 2555      2F696E63 
 2555      6C756465 
 2555      2F737973 
 2556 0173 00       		.byte	0
 2557 0174 2F757372 		.ascii	"/usr/share/gcc-arm-none-eabi-10-2020-q4-major/lib/g"
 2557      2F736861 
 2557      72652F67 
 2557      63632D61 
 2557      726D2D6E 
 2558 01a7 63632F61 		.ascii	"cc/arm-none-eabi/10.2.1/include"
 2558      726D2D6E 
 2558      6F6E652D 
 2558      65616269 
 2558      2F31302E 
 2559 01c6 00       		.byte	0
 2560 01c7 00       		.byte	0
 2561 01c8 73746464 		.ascii	"stddef.h\000"
 2561      65662E68 
 2561      00
 2562 01d1 08       		.uleb128 0x8
 2563 01d2 00       		.uleb128 0
 2564 01d3 00       		.uleb128 0
 2565 01d4 5F646566 		.ascii	"_default_types.h\000"
 2565      61756C74 
 2565      5F747970 
 2565      65732E68 
 2565      00
 2566 01e5 06       		.uleb128 0x6
 2567 01e6 00       		.uleb128 0
 2568 01e7 00       		.uleb128 0
 2569 01e8 5F737464 		.ascii	"_stdint.h\000"
 2569      696E742E 
 2569      6800
 2570 01f2 07       		.uleb128 0x7
ARM GAS  /tmp/ccmpYJuH.s 			page 47


 2571 01f3 00       		.uleb128 0
 2572 01f4 00       		.uleb128 0
 2573 01f5 63687479 		.ascii	"chtypes.h\000"
 2573      7065732E 
 2573      6800
 2574 01ff 02       		.uleb128 0x2
 2575 0200 00       		.uleb128 0
 2576 0201 00       		.uleb128 0
 2577 0202 63687379 		.ascii	"chsystypes.h\000"
 2577      73747970 
 2577      65732E68 
 2577      00
 2578 020f 04       		.uleb128 0x4
 2579 0210 00       		.uleb128 0
 2580 0211 00       		.uleb128 0
 2581 0212 63687363 		.ascii	"chschd.h\000"
 2581      68642E68 
 2581      00
 2582 021b 04       		.uleb128 0x4
 2583 021c 00       		.uleb128 0
 2584 021d 00       		.uleb128 0
 2585 021e 63687469 		.ascii	"chtime.h\000"
 2585      6D652E68 
 2585      00
 2586 0227 04       		.uleb128 0x4
 2587 0228 00       		.uleb128 0
 2588 0229 00       		.uleb128 0
 2589 022a 6368636F 		.ascii	"chcore.h\000"
 2589      72652E68 
 2589      00
 2590 0233 03       		.uleb128 0x3
 2591 0234 00       		.uleb128 0
 2592 0235 00       		.uleb128 0
 2593 0236 6368636F 		.ascii	"chcore_v7m.h\000"
 2593      72655F76 
 2593      376D2E68 
 2593      00
 2594 0243 03       		.uleb128 0x3
 2595 0244 00       		.uleb128 0
 2596 0245 00       		.uleb128 0
 2597 0246 6368746D 		.ascii	"chtm.h\000"
 2597      2E6800
 2598 024d 04       		.uleb128 0x4
 2599 024e 00       		.uleb128 0
 2600 024f 00       		.uleb128 0
 2601 0250 63687365 		.ascii	"chsem.h\000"
 2601      6D2E6800 
 2602 0258 04       		.uleb128 0x4
 2603 0259 00       		.uleb128 0
 2604 025a 00       		.uleb128 0
 2605 025b 63686D74 		.ascii	"chmtx.h\000"
 2605      782E6800 
 2606 0263 04       		.uleb128 0x4
 2607 0264 00       		.uleb128 0
 2608 0265 00       		.uleb128 0
 2609 0266 63687468 		.ascii	"chthreads.h\000"
 2609      72656164 
ARM GAS  /tmp/ccmpYJuH.s 			page 48


 2609      732E6800 
 2610 0272 04       		.uleb128 0x4
 2611 0273 00       		.uleb128 0
 2612 0274 00       		.uleb128 0
 2613 0275 63687468 		.ascii	"chthreads.c\000"
 2613      72656164 
 2613      732E6300 
 2614 0281 05       		.uleb128 0x5
 2615 0282 00       		.uleb128 0
 2616 0283 00       		.uleb128 0
 2617 0284 63687674 		.ascii	"chvt.h\000"
 2617      2E6800
 2618 028b 04       		.uleb128 0x4
 2619 028c 00       		.uleb128 0
 2620 028d 00       		.uleb128 0
 2621 028e 63687379 		.ascii	"chsys.h\000"
 2621      732E6800 
 2622 0296 04       		.uleb128 0x4
 2623 0297 00       		.uleb128 0
 2624 0298 00       		.uleb128 0
 2625 0299 6368636F 		.ascii	"chcore_timer.h\000"
 2625      72655F74 
 2625      696D6572 
 2625      2E6800
 2626 02a8 03       		.uleb128 0x3
 2627 02a9 00       		.uleb128 0
 2628 02aa 00       		.uleb128 0
 2629 02ab 636D7369 		.ascii	"cmsis_gcc.h\000"
 2629      735F6763 
 2629      632E6800 
 2630 02b7 01       		.uleb128 0x1
 2631 02b8 00       		.uleb128 0
 2632 02b9 00       		.uleb128 0
 2633 02ba 00       		.byte	0
 2634              	.LELTP0:
 2635              	.LELT0:
 2636              		.section	.gnu.debuglto_.debug_str,"eMS",%progbits,1
 2637              	.LASF89:
 2638 0000 7466756E 		.ascii	"tfunc_t\000"
 2638      635F7400 
 2639              	.LASF114:
 2640 0008 6F6C6470 		.ascii	"oldprio\000"
 2640      72696F00 
 2641              	.LASF51:
 2642 0010 72656164 		.ascii	"ready_list_t\000"
 2642      795F6C69 
 2642      73745F74 
 2642      00
 2643              	.LASF139:
 2644 001d 71756575 		.ascii	"queue_insert\000"
 2644      655F696E 
 2644      73657274 
 2644      00
 2645              	.LASF4:
 2646 002a 73697A65 		.ascii	"size_t\000"
 2646      5F7400
 2647              	.LASF57:
ARM GAS  /tmp/ccmpYJuH.s 			page 49


 2648 0031 64656C74 		.ascii	"delta\000"
 2648      6100
 2649              	.LASF77:
 2650 0037 7264796D 		.ascii	"rdymsg\000"
 2650      736700
 2651              	.LASF92:
 2652 003e 66756E63 		.ascii	"funcp\000"
 2652      7000
 2653              	.LASF18:
 2654 0044 75696E74 		.ascii	"uint64_t\000"
 2654      36345F74 
 2654      00
 2655              	.LASF96:
 2656 004d 63685468 		.ascii	"chThdDequeueAllI\000"
 2656      64446571 
 2656      75657565 
 2656      416C6C49 
 2656      00
 2657              	.LASF5:
 2658 005e 5F5F7569 		.ascii	"__uint8_t\000"
 2658      6E74385F 
 2658      7400
 2659              	.LASF50:
 2660 0068 70726576 		.ascii	"prev\000"
 2660      00
 2661              	.LASF73:
 2662 006d 706F7274 		.ascii	"port_intctx\000"
 2662      5F696E74 
 2662      63747800 
 2663              	.LASF62:
 2664 0079 73797374 		.ascii	"system_debug_t\000"
 2664      656D5F64 
 2664      65627567 
 2664      5F7400
 2665              	.LASF106:
 2666 0088 63685468 		.ascii	"chThdSleepUntilWindowed\000"
 2666      64536C65 
 2666      6570556E 
 2666      74696C57 
 2666      696E646F 
 2667              	.LASF143:
 2668 00a0 71756575 		.ascii	"queue_init\000"
 2668      655F696E 
 2668      697400
 2669              	.LASF93:
 2670 00ab 74687265 		.ascii	"thread_descriptor_t\000"
 2670      61645F64 
 2670      65736372 
 2670      6970746F 
 2670      725F7400 
 2671              	.LASF148:
 2672 00bf 706F7274 		.ascii	"port_lock\000"
 2672      5F6C6F63 
 2672      6B00
 2673              	.LASF74:
 2674 00c9 706F7274 		.ascii	"port_context\000"
 2674      5F636F6E 
ARM GAS  /tmp/ccmpYJuH.s 			page 50


 2674      74657874 
 2674      00
 2675              	.LASF91:
 2676 00d6 77656E64 		.ascii	"wend\000"
 2676      00
 2677              	.LASF14:
 2678 00db 6C6F6E67 		.ascii	"long long unsigned int\000"
 2678      206C6F6E 
 2678      6720756E 
 2678      7369676E 
 2678      65642069 
 2679              	.LASF78:
 2680 00f2 65786974 		.ascii	"exitcode\000"
 2680      636F6465 
 2680      00
 2681              	.LASF69:
 2682 00fb 6D61696E 		.ascii	"mainthread\000"
 2682      74687265 
 2682      616400
 2683              	.LASF81:
 2684 0106 73656E74 		.ascii	"sentmsg\000"
 2684      6D736700 
 2685              	.LASF59:
 2686 010e 76697274 		.ascii	"virtual_timers_list_t\000"
 2686      75616C5F 
 2686      74696D65 
 2686      72735F6C 
 2686      6973745F 
 2687              	.LASF47:
 2688 0124 6E657874 		.ascii	"next\000"
 2688      00
 2689              	.LASF49:
 2690 0129 63685F74 		.ascii	"ch_threads_queue\000"
 2690      68726561 
 2690      64735F71 
 2690      75657565 
 2690      00
 2691              	.LASF145:
 2692 013a 6C697374 		.ascii	"list_init\000"
 2692      5F696E69 
 2692      7400
 2693              	.LASF1:
 2694 0144 6C6F6E67 		.ascii	"long long int\000"
 2694      206C6F6E 
 2694      6720696E 
 2694      7400
 2695              	.LASF3:
 2696 0152 7369676E 		.ascii	"signed char\000"
 2696      65642063 
 2696      68617200 
 2697              	.LASF151:
 2698 015e 63685469 		.ascii	"chTimeIsInRangeX\000"
 2698      6D654973 
 2698      496E5261 
 2698      6E676558 
 2698      00
 2699              	.LASF117:
ARM GAS  /tmp/ccmpYJuH.s 			page 51


 2700 016f 63685468 		.ascii	"chThdExit\000"
 2700      64457869 
 2700      7400
 2701              	.LASF136:
 2702 0179 63685363 		.ascii	"chSchCanYieldS\000"
 2702      6843616E 
 2702      5969656C 
 2702      645300
 2703              	.LASF122:
 2704 0188 73697A65 		.ascii	"size\000"
 2704      00
 2705              	.LASF126:
 2706 018d 63685468 		.ascii	"chThdCreateSuspendedI\000"
 2706      64437265 
 2706      61746553 
 2706      75737065 
 2706      6E646564 
 2707              	.LASF150:
 2708 01a3 62617365 		.ascii	"basePri\000"
 2708      50726900 
 2709              	.LASF68:
 2710 01ab 76746C69 		.ascii	"vtlist\000"
 2710      737400
 2711              	.LASF147:
 2712 01b2 706F7274 		.ascii	"port_unlock\000"
 2712      5F756E6C 
 2712      6F636B00 
 2713              	.LASF124:
 2714 01be 63685468 		.ascii	"chThdCreateI\000"
 2714      64437265 
 2714      61746549 
 2714      00
 2715              	.LASF34:
 2716 01cb 73746174 		.ascii	"state\000"
 2716      6500
 2717              	.LASF10:
 2718 01d1 6C6F6E67 		.ascii	"long int\000"
 2718      20696E74 
 2718      00
 2719              	.LASF21:
 2720 01da 74737461 		.ascii	"tstate_t\000"
 2720      74655F74 
 2720      00
 2721              	.LASF142:
 2722 01e3 71756575 		.ascii	"queue_notempty\000"
 2722      655F6E6F 
 2722      74656D70 
 2722      747900
 2723              	.LASF58:
 2724 01f2 66756E63 		.ascii	"func\000"
 2724      00
 2725              	.LASF71:
 2726 01f7 73797369 		.ascii	"sysinterval_t\000"
 2726      6E746572 
 2726      76616C5F 
 2726      7400
 2727              	.LASF28:
ARM GAS  /tmp/ccmpYJuH.s 			page 52


 2728 0205 71756575 		.ascii	"queue\000"
 2728      6500
 2729              	.LASF97:
 2730 020b 63685468 		.ascii	"chThdDequeueNextI\000"
 2730      64446571 
 2730      75657565 
 2730      4E657874 
 2730      4900
 2731              	.LASF140:
 2732 021d 6C697374 		.ascii	"list_remove\000"
 2732      5F72656D 
 2732      6F766500 
 2733              	.LASF109:
 2734 0229 696E7465 		.ascii	"interval\000"
 2734      7276616C 
 2734      00
 2735              	.LASF123:
 2736 0232 63685468 		.ascii	"chThdCreate\000"
 2736      64437265 
 2736      61746500 
 2737              	.LASF101:
 2738 023e 63685468 		.ascii	"chThdResumeI\000"
 2738      64526573 
 2738      756D6549 
 2738      00
 2739              	.LASF156:
 2740 024b 2F686F6D 		.ascii	"/home/iamprithvishetty/CDSpace/mmc3416_test2\000"
 2740      652F6961 
 2740      6D707269 
 2740      74687669 
 2740      73686574 
 2741              	.LASF100:
 2742 0278 63685468 		.ascii	"chThdResumeS\000"
 2742      64526573 
 2742      756D6553 
 2742      00
 2743              	.LASF154:
 2744 0285 474E5520 		.ascii	"GNU C17 10.2.1 20201103 (release) -mcpu=cortex-m4 -"
 2744      43313720 
 2744      31302E32 
 2744      2E312032 
 2744      30323031 
 2745 02b8 6D746875 		.ascii	"mthumb -mfloat-abi=soft -march=armv7e-m -ggdb -O2 -"
 2745      6D62202D 
 2745      6D666C6F 
 2745      61742D61 
 2745      62693D73 
 2746 02eb 666F6D69 		.ascii	"fomit-frame-pointer -falign-functions=16 -ffunction"
 2746      742D6672 
 2746      616D652D 
 2746      706F696E 
 2746      74657220 
 2747 031e 2D736563 		.ascii	"-sections -fdata-sections -fno-common -flto\000"
 2747      74696F6E 
 2747      73202D66 
 2747      64617461 
 2747      2D736563 
ARM GAS  /tmp/ccmpYJuH.s 			page 53


 2748              	.LASF94:
 2749 034a 6D757465 		.ascii	"mutex_t\000"
 2749      785F7400 
 2750              	.LASF112:
 2751 0352 63685468 		.ascii	"chThdSetPriority\000"
 2751      64536574 
 2751      5072696F 
 2751      72697479 
 2751      00
 2752              	.LASF26:
 2753 0363 636E745F 		.ascii	"cnt_t\000"
 2753      7400
 2754              	.LASF132:
 2755 0369 63685654 		.ascii	"chVTGetSystemTimeX\000"
 2755      47657453 
 2755      79737465 
 2755      6D54696D 
 2755      655800
 2756              	.LASF0:
 2757 037c 756E7369 		.ascii	"unsigned int\000"
 2757      676E6564 
 2757      20696E74 
 2757      00
 2758              	.LASF127:
 2759 0389 5F746872 		.ascii	"_thread_init\000"
 2759      6561645F 
 2759      696E6974 
 2759      00
 2760              	.LASF82:
 2761 0396 77747365 		.ascii	"wtsemp\000"
 2761      6D7000
 2762              	.LASF80:
 2763 039d 77747472 		.ascii	"wttrp\000"
 2763      7000
 2764              	.LASF129:
 2765 03a3 63685468 		.ascii	"chThdSleepS\000"
 2765      64536C65 
 2765      65705300 
 2766              	.LASF98:
 2767 03af 74696D65 		.ascii	"timeout\000"
 2767      6F757400 
 2768              	.LASF155:
 2769 03b7 2E2F4368 		.ascii	"./ChibiOS_20.3.0/os/rt/src/chthreads.c\000"
 2769      6962694F 
 2769      535F3230 
 2769      2E332E30 
 2769      2F6F732F 
 2770              	.LASF32:
 2771 03de 6E616D65 		.ascii	"name\000"
 2771      00
 2772              	.LASF42:
 2773 03e3 6D706F6F 		.ascii	"mpool\000"
 2773      6C00
 2774              	.LASF8:
 2775 03e9 73686F72 		.ascii	"short unsigned int\000"
 2775      7420756E 
 2775      7369676E 
ARM GAS  /tmp/ccmpYJuH.s 			page 54


 2775      65642069 
 2775      6E7400
 2776              	.LASF45:
 2777 03fc 63685F74 		.ascii	"ch_thread\000"
 2777      68726561 
 2777      6400
 2778              	.LASF24:
 2779 0406 6D73675F 		.ascii	"msg_t\000"
 2779      7400
 2780              	.LASF39:
 2781 040c 6570656E 		.ascii	"epending\000"
 2781      64696E67 
 2781      00
 2782              	.LASF65:
 2783 0415 63685F73 		.ascii	"ch_system_t\000"
 2783      79737465 
 2783      6D5F7400 
 2784              	.LASF113:
 2785 0421 6E657770 		.ascii	"newprio\000"
 2785      72696F00 
 2786              	.LASF20:
 2787 0429 746D6F64 		.ascii	"tmode_t\000"
 2787      655F7400 
 2788              	.LASF111:
 2789 0431 63685468 		.ascii	"chThdTerminate\000"
 2789      64546572 
 2789      6D696E61 
 2789      746500
 2790              	.LASF52:
 2791 0440 63685F72 		.ascii	"ch_ready_list\000"
 2791      65616479 
 2791      5F6C6973 
 2791      7400
 2792              	.LASF25:
 2793 044e 6576656E 		.ascii	"eventmask_t\000"
 2793      746D6173 
 2793      6B5F7400 
 2794              	.LASF9:
 2795 045a 5F5F696E 		.ascii	"__int32_t\000"
 2795      7433325F 
 2795      7400
 2796              	.LASF119:
 2797 0464 63685468 		.ascii	"chThdAddRef\000"
 2797      64416464 
 2797      52656600 
 2798              	.LASF38:
 2799 0470 6D736771 		.ascii	"msgqueue\000"
 2799      75657565 
 2799      00
 2800              	.LASF72:
 2801 0479 73746B61 		.ascii	"stkalign_t\000"
 2801      6C69676E 
 2801      5F7400
 2802              	.LASF121:
 2803 0484 63685468 		.ascii	"chThdCreateStatic\000"
 2803      64437265 
 2803      61746553 
ARM GAS  /tmp/ccmpYJuH.s 			page 55


 2803      74617469 
 2803      6300
 2804              	.LASF44:
 2805 0496 74687265 		.ascii	"threads_list_t\000"
 2805      6164735F 
 2805      6C697374 
 2805      5F7400
 2806              	.LASF41:
 2807 04a5 7265616C 		.ascii	"realprio\000"
 2807      7072696F 
 2807      00
 2808              	.LASF104:
 2809 04ae 63685468 		.ascii	"chThdSuspendTimeoutS\000"
 2809      64537573 
 2809      70656E64 
 2809      54696D65 
 2809      6F757453 
 2810              	.LASF19:
 2811 04c3 7274636E 		.ascii	"rtcnt_t\000"
 2811      745F7400 
 2812              	.LASF43:
 2813 04cb 74687265 		.ascii	"thread_reference_t\000"
 2813      61645F72 
 2813      65666572 
 2813      656E6365 
 2813      5F7400
 2814              	.LASF60:
 2815 04de 63685F76 		.ascii	"ch_virtual_timers_list\000"
 2815      69727475 
 2815      616C5F74 
 2815      696D6572 
 2815      735F6C69 
 2816              	.LASF130:
 2817 04f5 7469636B 		.ascii	"ticks\000"
 2817      7300
 2818              	.LASF2:
 2819 04fb 6C6F6E67 		.ascii	"long double\000"
 2819      20646F75 
 2819      626C6500 
 2820              	.LASF90:
 2821 0507 77626173 		.ascii	"wbase\000"
 2821      6500
 2822              	.LASF76:
 2823 050d 746D5F63 		.ascii	"tm_calibration_t\000"
 2823      616C6962 
 2823      72617469 
 2823      6F6E5F74 
 2823      00
 2824              	.LASF107:
 2825 051e 74696D65 		.ascii	"time\000"
 2825      00
 2826              	.LASF141:
 2827 0523 6C697374 		.ascii	"list_insert\000"
 2827      5F696E73 
 2827      65727400 
 2828              	.LASF29:
 2829 052f 7072696F 		.ascii	"prio\000"
ARM GAS  /tmp/ccmpYJuH.s 			page 56


 2829      00
 2830              	.LASF108:
 2831 0534 63685468 		.ascii	"chThdSleepUntil\000"
 2831      64536C65 
 2831      6570556E 
 2831      74696C00 
 2832              	.LASF120:
 2833 0544 63685468 		.ascii	"chThdStart\000"
 2833      64537461 
 2833      727400
 2834              	.LASF53:
 2835 054f 63757272 		.ascii	"current\000"
 2835      656E7400 
 2836              	.LASF105:
 2837 0557 63685468 		.ascii	"chThdSuspendS\000"
 2837      64537573 
 2837      70656E64 
 2837      5300
 2838              	.LASF13:
 2839 0565 5F5F7569 		.ascii	"__uint64_t\000"
 2839      6E743634 
 2839      5F7400
 2840              	.LASF22:
 2841 0570 74726566 		.ascii	"trefs_t\000"
 2841      735F7400 
 2842              	.LASF36:
 2843 0578 72656673 		.ascii	"refs\000"
 2843      00
 2844              	.LASF55:
 2845 057d 76697274 		.ascii	"virtual_timer_t\000"
 2845      75616C5F 
 2845      74696D65 
 2845      725F7400 
 2846              	.LASF153:
 2847 058d 63685469 		.ascii	"chTimeDiffX\000"
 2847      6D654469 
 2847      66665800 
 2848              	.LASF23:
 2849 0599 74707269 		.ascii	"tprio_t\000"
 2849      6F5F7400 
 2850              	.LASF63:
 2851 05a1 63685F73 		.ascii	"ch_system_debug\000"
 2851      79737465 
 2851      6D5F6465 
 2851      62756700 
 2852              	.LASF95:
 2853 05b1 5F426F6F 		.ascii	"_Bool\000"
 2853      6C00
 2854              	.LASF16:
 2855 05b7 696E7433 		.ascii	"int32_t\000"
 2855      325F7400 
 2856              	.LASF6:
 2857 05bf 756E7369 		.ascii	"unsigned char\000"
 2857      676E6564 
 2857      20636861 
 2857      7200
 2858              	.LASF7:
ARM GAS  /tmp/ccmpYJuH.s 			page 57


 2859 05cd 73686F72 		.ascii	"short int\000"
 2859      7420696E 
 2859      7400
 2860              	.LASF61:
 2861 05d7 6C617374 		.ascii	"lasttime\000"
 2861      74696D65 
 2861      00
 2862              	.LASF137:
 2863 05e0 63685468 		.ascii	"chThdGetWorkingAreaX\000"
 2863      64476574 
 2863      576F726B 
 2863      696E6741 
 2863      72656158 
 2864              	.LASF37:
 2865 05f5 77616974 		.ascii	"waiting\000"
 2865      696E6700 
 2866              	.LASF84:
 2867 05fd 65776D61 		.ascii	"ewmask\000"
 2867      736B00
 2868              	.LASF66:
 2869 0604 63685F73 		.ascii	"ch_system\000"
 2869      79737465 
 2869      6D00
 2870              	.LASF102:
 2871 060e 5F5F6675 		.ascii	"__func__\000"
 2871      6E635F5F 
 2871      00
 2872              	.LASF134:
 2873 0617 63685379 		.ascii	"chSysLock\000"
 2873      734C6F63 
 2873      6B00
 2874              	.LASF118:
 2875 0621 63685468 		.ascii	"chThdRelease\000"
 2875      6452656C 
 2875      65617365 
 2875      00
 2876              	.LASF56:
 2877 062e 63685F76 		.ascii	"ch_virtual_timer\000"
 2877      69727475 
 2877      616C5F74 
 2877      696D6572 
 2877      00
 2878              	.LASF85:
 2879 063f 63685F73 		.ascii	"ch_semaphore\000"
 2879      656D6170 
 2879      686F7265 
 2879      00
 2880              	.LASF110:
 2881 064c 63685468 		.ascii	"chThdSleep\000"
 2881      64536C65 
 2881      657000
 2882              	.LASF17:
 2883 0657 75696E74 		.ascii	"uint32_t\000"
 2883      33325F74 
 2883      00
 2884              	.LASF83:
 2885 0660 77746D74 		.ascii	"wtmtxp\000"
ARM GAS  /tmp/ccmpYJuH.s 			page 58


 2885      787000
 2886              	.LASF99:
 2887 0667 63685468 		.ascii	"chThdResume\000"
 2887      64526573 
 2887      756D6500 
 2888              	.LASF46:
 2889 0673 63685F74 		.ascii	"ch_threads_list\000"
 2889      68726561 
 2889      64735F6C 
 2889      69737400 
 2890              	.LASF87:
 2891 0683 6F776E65 		.ascii	"owner\000"
 2891      7200
 2892              	.LASF12:
 2893 0689 6C6F6E67 		.ascii	"long unsigned int\000"
 2893      20756E73 
 2893      69676E65 
 2893      6420696E 
 2893      7400
 2894              	.LASF33:
 2895 069b 77616261 		.ascii	"wabase\000"
 2895      736500
 2896              	.LASF88:
 2897 06a2 63686172 		.ascii	"char\000"
 2897      00
 2898              	.LASF31:
 2899 06a7 6F6C6465 		.ascii	"older\000"
 2899      7200
 2900              	.LASF27:
 2901 06ad 74687265 		.ascii	"thread_t\000"
 2901      61645F74 
 2901      00
 2902              	.LASF128:
 2903 06b6 63685468 		.ascii	"chThdDoDequeueNextI\000"
 2903      64446F44 
 2903      65717565 
 2903      75654E65 
 2903      78744900 
 2904              	.LASF138:
 2905 06ca 71756575 		.ascii	"queue_fifo_remove\000"
 2905      655F6669 
 2905      666F5F72 
 2905      656D6F76 
 2905      6500
 2906              	.LASF70:
 2907 06dc 73797374 		.ascii	"systime_t\000"
 2907      696D655F 
 2907      7400
 2908              	.LASF54:
 2909 06e6 76746675 		.ascii	"vtfunc_t\000"
 2909      6E635F74 
 2909      00
 2910              	.LASF149:
 2911 06ef 5F5F7365 		.ascii	"__set_BASEPRI\000"
 2911      745F4241 
 2911      53455052 
 2911      4900
ARM GAS  /tmp/ccmpYJuH.s 			page 59


 2912              	.LASF64:
 2913 06fd 70616E69 		.ascii	"panic_msg\000"
 2913      635F6D73 
 2913      6700
 2914              	.LASF75:
 2915 0707 6F666673 		.ascii	"offset\000"
 2915      657400
 2916              	.LASF146:
 2917 070e 706F7274 		.ascii	"port_timer_get_time\000"
 2917      5F74696D 
 2917      65725F67 
 2917      65745F74 
 2917      696D6500 
 2918              	.LASF11:
 2919 0722 5F5F7569 		.ascii	"__uint32_t\000"
 2919      6E743332 
 2919      5F7400
 2920              	.LASF30:
 2921 072d 6E657765 		.ascii	"newer\000"
 2921      7200
 2922              	.LASF115:
 2923 0733 63685468 		.ascii	"chThdWait\000"
 2923      64576169 
 2923      7400
 2924              	.LASF125:
 2925 073d 63685468 		.ascii	"chThdCreateSuspended\000"
 2925      64437265 
 2925      61746553 
 2925      75737065 
 2925      6E646564 
 2926              	.LASF48:
 2927 0752 74687265 		.ascii	"threads_queue_t\000"
 2927      6164735F 
 2927      71756575 
 2927      655F7400 
 2928              	.LASF86:
 2929 0762 63685F6D 		.ascii	"ch_mutex\000"
 2929      75746578 
 2929      00
 2930              	.LASF67:
 2931 076b 726C6973 		.ascii	"rlist\000"
 2931      7400
 2932              	.LASF131:
 2933 0771 63685468 		.ascii	"chThdGetSelfX\000"
 2933      64476574 
 2933      53656C66 
 2933      5800
 2934              	.LASF15:
 2935 077f 75696E74 		.ascii	"uint8_t\000"
 2935      385F7400 
 2936              	.LASF35:
 2937 0787 666C6167 		.ascii	"flags\000"
 2937      7300
 2938              	.LASF157:
 2939 078d 63685468 		.ascii	"chThdYield\000"
 2939      64596965 
 2939      6C6400
ARM GAS  /tmp/ccmpYJuH.s 			page 60


 2940              	.LASF79:
 2941 0798 77746F62 		.ascii	"wtobjp\000"
 2941      6A7000
 2942              	.LASF135:
 2943 079f 63685363 		.ascii	"chSchDoYieldS\000"
 2943      68446F59 
 2943      69656C64 
 2943      5300
 2944              	.LASF144:
 2945 07ad 6C697374 		.ascii	"list_notempty\000"
 2945      5F6E6F74 
 2945      656D7074 
 2945      7900
 2946              	.LASF133:
 2947 07bb 63685379 		.ascii	"chSysUnlock\000"
 2947      73556E6C 
 2947      6F636B00 
 2948              	.LASF152:
 2949 07c7 73746172 		.ascii	"start\000"
 2949      7400
 2950              	.LASF40:
 2951 07cd 6D74786C 		.ascii	"mtxlist\000"
 2951      69737400 
 2952              	.LASF103:
 2953 07d5 63685468 		.ascii	"chThdEnqueueTimeoutS\000"
 2953      64456E71 
 2953      75657565 
 2953      54696D65 
 2953      6F757453 
 2954              	.LASF116:
 2955 07ea 63685468 		.ascii	"chThdExitS\000"
 2955      64457869 
 2955      745300
 2956              		.text
 2957              		.section	.gnu.lto_.profile.b3c7f88f2e9c83e9,"e",%progbits
 2958 0000 789C6362 		.ascii	"x\234cb\000\001\000\000\022\000\003"
 2958      00010000 
 2958      120003
 2959              		.text
 2960              		.section	.gnu.lto_.icf.b3c7f88f2e9c83e9,"e",%progbits
 2961 0000 789C01B5 		.ascii	"x\234\001\265\000J\377\251\000\000\000\000\000\000\000"
 2961      004AFFA9 
 2961      00000000 
 2961      000000
 2962 000f 00000000 		.ascii	"\000\000\000\000\034\000\230\327\302\353\011\002\247"
 2962      1C0098D7 
 2962      C2EB0902 
 2962      A7
 2963 001c D88D8807 		.ascii	"\330\215\210\007\003\370\211\241\305\003\004\367\321"
 2963      03F889A1 
 2963      C50304F7 
 2963      D1
 2964 0029 BFF70C06 		.ascii	"\277\367\014\006\225\233\252\272\001\007\244\371\315"
 2964      959BAABA 
 2964      0107A4F9 
 2964      CD
 2965 0036 BD0608F4 		.ascii	"\275\006\010\364\322\244\303\005\011\274\223\302\325"
ARM GAS  /tmp/ccmpYJuH.s 			page 61


 2965      D2A4C305 
 2965      09BC93C2 
 2965      D5
 2966 0043 0A0AE28F 		.ascii	"\012\012\342\217\306\344\004\013\224\205\301\241\014"
 2966      C6E4040B 
 2966      9485C1A1 
 2966      0C
 2967 0050 0CEB89F1 		.ascii	"\014\353\211\361\316\016\015\227\233\246\317\002\016"
 2967      CE0E0D97 
 2967      9BA6CF02 
 2967      0E
 2968 005d D9848A94 		.ascii	"\331\204\212\224\017\017\332\206\271\272\015\020\336"
 2968      0F0FDA86 
 2968      B9BA0D10 
 2968      DE
 2969 006a E4FFD706 		.ascii	"\344\377\327\006\021\327\211\246\224\013\022\200\377"
 2969      11D789A6 
 2969      940B1280 
 2969      FF
 2970 0077 E3B00513 		.ascii	"\343\260\005\023\361\315\342\202\004\024\341\233\353"
 2970      F1CDE282 
 2970      0414E19B 
 2970      EB
 2971 0084 CC0C15C0 		.ascii	"\314\014\025\300\374\244\305\001\026\242\224\276\374"
 2971      FCA4C501 
 2971      16A294BE 
 2971      FC
 2972 0091 0817B1F8 		.ascii	"\010\027\261\370\370\350\003\030\337\237\236\364\010"
 2972      F8E80318 
 2972      DF9F9EF4 
 2972      08
 2973 009e 19A6D8FE 		.ascii	"\031\246\330\376\030\032\252\311\227\210\005\033\271"
 2973      181AAAC9 
 2973      9788051B 
 2973      B9
 2974 00ab B4A9CD0B 		.ascii	"\264\251\315\013\034\343\226\341\337\011\035\374\215"
 2974      1CE396E1 
 2974      DF091DFC 
 2974      8D
 2975 00b8 BECF0200 		.ascii	"\276\317\002\000\236QVy"
 2975      9E515679 
 2976              		.text
 2977              		.section	.gnu.lto_.ipa_sra.b3c7f88f2e9c83e9,"e",%progbits
 2978 0000 789C6D50 		.ascii	"x\234mPk\032\2020\014K\326\361FE\3057\336\325\303\354"
 2978      6B1A8230 
 2978      0C4BD6F1 
 2978      4645C537 
 2978      DED5C3EC 
 2979 0014 581EC695 		.ascii	"X\036\306\2252\331\017\272\017\226\246I6\370\022\377"
 2979      32D90FBA 
 2979      0F96A649 
 2979      36F812FF 
 2980 0024 9A00828E 		.ascii	"\232\000\202\216.\010\202p\36040\372(\362\244J\343X"
 2980      2E088270 
 2980      F03430FA 
 2980      28F2A44A 
 2980      E358
ARM GAS  /tmp/ccmpYJuH.s 			page 62


 2981 0036 DFFA8820 		.ascii	"\337\372\210 +\361,\203D\253@}>H\341\023\250\025\304"
 2981      2BF12C83 
 2981      44AB407D 
 2981      3E48E113 
 2981      A815C4
 2982 0049 69D52BA8 		.ascii	"i\325+\250\2034sv\033\244\263l)\211\032\225\220\037"
 2982      83347376 
 2982      1BA4B36C 
 2982      29891A95 
 2982      901F
 2983 005b 0FB86AE9 		.ascii	"\017\270j\3514\327E\256\217{m\234K\347\321\264h\012"
 2983      34D745AE 
 2983      8F7B6D9C 
 2983      4BE7D1B4 
 2983      680A
 2984 006d 6C94802D 		.ascii	"l\224\200-\027\320\031\350\231\331\270\263N\327\236"
 2984      17D019E8 
 2984      99D9B8B3 
 2984      4ED79E
 2985 007c C6CFDB21 		.ascii	"\306\317\333!\271\300!\301\243iO\246sH?\340l\374J\000"
 2985      B9C021C1 
 2985      A3694FA6 
 2985      73483FE0 
 2985      6CFC4A00 
 2986 0090 A3CB6E00 		.ascii	"\243\313n\000\\4\347\232rn\353\320<q\340\356\353\027"
 2986      5C34E79A 
 2986      726EEBD0 
 2986      3C71E0EE 
 2986      EB17
 2987 00a2 818FD4A4 		.ascii	"\201\217\324\244c\242\202\317-\362\265\2255\345Y\357"
 2987      63A282CF 
 2987      2DF2B595 
 2987      35E559EF 
 2988 00b2 BCC10F0A 		.ascii	"\274\301\017\012b\020\354"
 2988      6210EC
 2989              		.text
 2990              		.section	.gnu.lto_.inline.b3c7f88f2e9c83e9,"e",%progbits
 2991 0000 789CAD55 		.ascii	"x\234\255U\315N\024A\020\256\356\036\366g\230\335\231"
 2991      CD4E1441 
 2991      10AEEE1E 
 2991      F66798DD 
 2991      99
 2992 0011 65154530 		.ascii	"e\025E0\356\301\223\007\237\201'\330gP`Y\342\315\027"
 2992      EEC19307 
 2992      9F8127D8 
 2992      67506059 
 2992      E2CD17
 2993 0024 30438C26 		.ascii	"0C\214&\342\017\003^\374\303 \"D\0237J &\034\200\230"
 2993      E20F035E 
 2993      FCC32022 
 2993      4413374A 
 2993      20261C80 
 2994 0039 1009A811 		.ascii	"\020\011\250\021\010\032\211\021\345\200!bB\314\022"
 2994      081A8911 
 2994      E5802162 
 2994      42CC12
 2995 0048 62106355 		.ascii	"b\020cU\367\364\316\356\260*\007\347\260S]\363U\177"
ARM GAS  /tmp/ccmpYJuH.s 			page 63


 2995      F7F4CEEE 
 2995      B02A07E7 
 2995      B0535DF3 
 2995      557F
 2996 005a D55F55D7 		.ascii	"\325_U\327\246\243Pz\232\000\314\221\265\227\353\274"
 2996      A6A3507A 
 2996      9A00CC91 
 2996      B597EBBC 
 2997 006a 9D01B75C 		.ascii	"\235\001\267\\|D\016 B\006o\343\300\021\302L\002rhX"
 2997      7C440E20 
 2997      42066FE3 
 2997      C011C24C 
 2997      02726858 
 2998 007e 7EB434CB 		.ascii	"~\2644\313\363\210k\354t]\217\267\003$\316\273n?\317"
 2998      F3886BEC 
 2998      745D8FB7 
 2998      0324CEBB 
 2998      6E3FCF
 2999 0091 291CAF25 		.ascii	")\034\257%\260\227\025\026-\274,Z\220v\011\220g\014"
 2999      B0971516 
 2999      2DBC2C5A 
 2999      90760990 
 2999      670C
 3000 00a3 D8A090DB 		.ascii	"\330\240\220\333\220\347\011\305\222\201\233\250X\003"
 3000      90E709C5 
 3000      92819BA8 
 3000      5803
 3001 00b1 8EE1F293 		.ascii	"\216\341\362\223\310\263\010!\015\020\315\340\033\031"
 3001      C8B30821 
 3001      0D10CDE0 
 3001      1B19
 3002 00bf 69C440B8 		.ascii	"i\304@\270LZ&\210~eq\240-\321\210\2008\005\311\023\270"
 3002      4C5A2688 
 3002      7E6571A0 
 3002      2DD18880 
 3002      3805C913 
 3003 00d4 C31B9EAF 		.ascii	"\303\033\236\257\310\236I\263\205\203\201`y\272V\344"
 3003      C89E49B3 
 3003      85838160 
 3003      79BA56E4 
 3004 00e4 2A796325 		.ascii	"*yc%\004\304\002\257\023x\235\300\233\011\274\231\300"
 3004      04C402AF 
 3004      13789DC0 
 3004      9B09BC99 
 3004      C0
 3005 00f5 DB1C789B 		.ascii	"\333\034x\233\003\257\313\0027\245\015\021\210\311%"
 3005      03AFCB02 
 3005      37A50D11 
 3005      88C925
 3006 0104 A967A8F4 		.ascii	"\251g\250\364B*\243j\214\324\213B\2344\023\204\004@"
 3006      422AA36A 
 3006      8CD48B42 
 3006      9C341384 
 3006      0440
 3007 0116 A1DD737F 		.ascii	"\241\335s\177@J\235\361\035\203Z\374:%\376\272\267\254"
 3007      404A9DF1 
 3007      1D835AFC 
ARM GAS  /tmp/ccmpYJuH.s 			page 64


 3007      3A25FEBA 
 3007      B7AC
 3008 0128 08E89038 		.ascii	"\010\350\2208d(\204w0\203\241~\344%\035\023\204\305"
 3008      64288477 
 3008      3083A17E 
 3008      E4251D13 
 3008      84C5
 3009 013a 77922AE2 		.ascii	"w\222*\342\257\215\223\210\334\014\311\312\245IRjB\253"
 3009      AF8D9388 
 3009      DC0CC9CA 
 3009      A549526A 
 3009      42AB
 3010 014c 9CC6DCCF 		.ascii	"\234\306\334\317i\025\264VB\247D\016\241*\010\333O\032"
 3010      6915B456 
 3010      42A7440E 
 3010      A12A08DB 
 3010      4F1A
 3011 015e C2875A90 		.ascii	"\302\207Z\220\334\031\276z_P\203\332\257{f\027\250A"
 3011      DC19BE7A 
 3011      5F5083DA 
 3011      AF7B6617 
 3011      A841
 3012 0170 E39D14D4 		.ascii	"\343\235\024\324V\331x\011h\230+\024G\370\031D\036\357"
 3012      56D97809 
 3012      68982B14 
 3012      47F81944 
 3012      1EEF
 3013 0182 1B9FBF2D 		.ascii	"\033\237\277-:B\264\012\211/&\003\222\362\353\224\334"
 3013      3A42B40A 
 3013      892F2603 
 3013      92F2EB94 
 3013      DC
 3014 0193 5A1FA95A 		.ascii	"Z\037\251Z\200\227\265!\365e{\370\201\324\330\331X\331"
 3014      8097B521 
 3014      F5657BF8 
 3014      81D4D8D9 
 3014      58D9
 3015 01a5 E8A324CC 		.ascii	"\350\243$\314\357\2233\023\341$|\012\007\354\231\347"
 3015      EF933313 
 3015      E1247C0A 
 3015      07EC99E7 
 3016 01b5 5F57A404 		.ascii	"_W\244\004\365\335\027\336MR\313W\271V\251\177\236\277"
 3016      F5DD17DE 
 3016      4D52CB57 
 3016      B956A97F 
 3016      9EBF
 3017 01c7 6E9F6282 		.ascii	"n\237b\202\227MC\342nWA\221\232\262\300\341\273\\\202"
 3017      974D43E2 
 3017      6E574191 
 3017      9AB2C0E1 
 3017      BB5C82
 3018 01da CA34E100 		.ascii	"\3124\341\000\330\237\267\346\213\030\300\251\017l\277"
 3018      D89FB7E6 
 3018      8B18C0A9 
 3018      0F6CBF
 3019 01e9 0F6C89EC 		.ascii	"\017l\211\354*t/\2056\320\"Y{\267:X\246e\3654\325\201"
 3019      2A742F85 
ARM GAS  /tmp/ccmpYJuH.s 			page 65


 3019      36D02259 
 3019      7BB73A58 
 3019      A665F534 
 3020 01ff EBC1F467 		.ascii	"\353\301\364g\002p\331\351D\021\225\311V\026\351\020"
 3020      0270D9E9 
 3020      441195C9 
 3020      5616E910 
 3021 020f 58DF7EEC 		.ascii	"X\337~\354\216\313\334\316\016\012\247W\340\017\335"
 3021      8ECBDCCE 
 3021      0E0AA757 
 3021      E00FDD
 3022 021e 25CAD4C1 		.ascii	"%\312\324\301wM\265\222ij\274\316\227\206\206\266\304"
 3022      774DB592 
 3022      696ABCCE 
 3022      978686B6 
 3022      C4
 3023 022f 6943DDFD 		.ascii	"iC\335\375\027\037~n\363V\354Wj\351\004\015\034J\375"
 3023      171F7E6E 
 3023      F356EC57 
 3023      6AE9040D 
 3023      1C4AFD
 3024 0242 30980F97 		.ascii	"0\230\017\227\237\375\302\341\307\0019\2008RL\217\225"
 3024      9FFDC2E1 
 3024      C7013980 
 3024      38524C8F 
 3024      95
 3025 0253 1419916A 		.ascii	"\024\031\221j\227\260|\200\324\250\334\211\361\375\225"
 3025      97B07C80 
 3025      D4A8DC89 
 3025      F1FD95
 3026 0262 D51EAE19 		.ascii	"\325\036\256\031/^_\274%Z\024#\035\311\240\356h\010"
 3026      2F5E5FBC 
 3026      255A1423 
 3026      1DC9A0EE 
 3026      6808
 3027 0274 11B231F6 		.ascii	"\021\2621\366?\310\364B\222Qa\0145\200\217\200\205t"
 3027      3FC8F442 
 3027      9251610C 
 3027      35808F80 
 3027      8574
 3028 0286 13B228E6 		.ascii	"\023\262(\346\232w\355\251\354\256\271{wV\303\027\321"
 3028      9A77EDA9 
 3028      ECAEB97B 
 3028      7756C317 
 3028      D1
 3029 0297 CB3682FD 		.ascii	"\3136\202\375\352\343\302:\352-\244\336l\224\005Z\253"
 3029      EAE3C23A 
 3029      EA2DA4DE 
 3029      6C94055A 
 3029      AB
 3030 02a8 F18DB338 		.ascii	"\361\215\2638Z-\303@\364\370\330\364\356M\236\243D\002"
 3030      5A2DC340 
 3030      F4F8D8F4 
 3030      EE4D9EA3 
 3030      4402
 3031 02ba FD1DCAD0 		.ascii	"\375\035\312\320_\341\242\2622\345\345h\002\253\270"
 3031      5FE1A2B2 
ARM GAS  /tmp/ccmpYJuH.s 			page 66


 3031      32E5E568 
 3031      02ABB8
 3032 02c9 B3D82F48 		.ascii	"\263\330/H\035$\254\323\205HS\265\243}o/\257\340\370"
 3032      1D24ACD3 
 3032      854853B5 
 3032      A37D6F2F 
 3032      AFE0F8
 3033 02dc 8628E63F 		.ascii	"\206(\346?\260w\274\353y[9\223\364\265<\012\326hq\340"
 3033      B077BCEB 
 3033      795B3993 
 3033      F4B53C0A 
 3033      D66871E0 
 3034 02f0 B19C0DD6 		.ascii	"\261\234\015\326\346t\341\006\315\206\330l\241\270\240"
 3034      E674E106 
 3034      CD86D86C 
 3034      A1B8A0
 3035 02ff FF82F450 		.ascii	"\377\202\364P\200\337{\255\201G"
 3035      80DF7BAD 
 3035      8147
 3036              		.text
 3037              		.section	.gnu.lto_.jmpfuncs.b3c7f88f2e9c83e9,"e",%progbits
 3038 0000 789C9592 		.ascii	"x\234\225\222\361R\3020\014\306\223&\312\246@Q\030\214"
 3038      F152C230 
 3038      0CC69326 
 3038      CAA64051 
 3038      188C
 3039 0012 89E79BD2 		.ascii	"\211\347\233\322w\360\031x\002\317;\370\3237\2034m\265"
 3039      77F01978 
 3039      02CF3BF8 
 3039      D3378334 
 3039      6DB5
 3040 0024 B493D3DD 		.ascii	"\264\223\323\335e\275&\277|\375\226\365\203\340\373"
 3040      65BD26BF 
 3040      7CFD96F5 
 3040      83E0FB
 3041 0033 D9F99741 		.ascii	"\331\371\227ADw 0\000\370\305\010\022gy,p\231(\367D"
 3041      44772030 
 3041      00F8C508 
 3041      1267792C 
 3041      709928F7 
 3042 0048 D23AF1BD 		.ascii	"\322:\361\275\022+\211\216\203\326\372^V\224\325\360"
 3042      122B898E 
 3042      83D6FA5E 
 3042      5694D5F0 
 3043 0058 BEEA9AA4 		.ascii	"\276\352\232\244ZY\3600\026\271&\302\225\027\363N\007"
 3043      5A59F030 
 3043      16B926C2 
 3043      9517F34E 
 3043      07
 3044 0069 DAE04F1A 		.ascii	"\332\340O\032`\354\260\366\316\013\340\233\230\232I"
 3044      60ECB0F6 
 3044      CE0BE09B 
 3044      989A49
 3045 0078 4CBD4989 		.ascii	"L\275I\211\271\337\327\232\370\211\231\336C\034\014"
 3045      B9DFD79A 
 3045      F88999DE 
 3045      431C0C
ARM GAS  /tmp/ccmpYJuH.s 			page 67


 3046 0087 8FE816E8 		.ascii	"\217\350\026\350cD\247i\226#-\263P\353\215Z\337\242"
 3046      6344A769 
 3046      96232DB3 
 3046      50EB8D5A 
 3046      DFA2
 3047 0099 D5BA0DD6 		.ascii	"\325\272\015\326Kx\036\276\273\277\026r`o\034\220\204"
 3047      4B781EBE 
 3047      BBBF1672 
 3047      606F1C90 
 3047      84
 3048 00aa 5BCDB72A 		.ascii	"[\315\267*\274\010|\007O\261\3619\010/8\302\215\302"
 3048      BC087C07 
 3048      4FB1F139 
 3048      082F38C2 
 3048      8DC2
 3049 00bc 8DC2239A 		.ascii	"\215\302#\232\313\320f\331\340\0213\264\272\032+\271"
 3049      CBD066D9 
 3049      E01133B4 
 3049      BA1A2BB9 
 3050 00cc 46E4C93F 		.ascii	"F\344\311?\321\235\244\326AzH\266I!\322\206MT\033\234"
 3050      D19DA4D6 
 3050      417A48B6 
 3050      4921D286 
 3050      4D541B9C 
 3051 00e0 5AC51366 		.ascii	"Z\305\023fE\336c)\330g|_\015s\233\252~\242\325_\277"
 3051      45DE6329 
 3051      D8677C5F 
 3051      0D739BAA 
 3051      7EA2D55F 
 3052 00f5 927330FC 		.ascii	"\222s0\374\007~\211\360\322e#e\005\3707\257\273\254"
 3052      077E89F0 
 3052      D2652365 
 3052      05F837AF 
 3052      BBAC
 3053 0107 A7F6FA7A 		.ascii	"\247\366\372z\263\012\027\353$\332C"
 3053      B30A17EB 
 3053      24DA43
 3054              		.text
 3055              		.section	.gnu.lto_.pureconst.b3c7f88f2e9c83e9,"e",%progbits
 3056 0000 789C05C1 		.ascii	"x\234\005\301\007\001\200@\000\002\300W\301\275\367"
 3056      07018040 
 3056      0002C057 
 3056      C1BDF7
 3057 000f 6C653989 		.ascii	"le9\211B:\357\336\020\302\035>\304f\"@H\035e{n\026f"
 3057      423AEFDE 
 3057      10C21D3E 
 3057      C4662240 
 3057      481D657B 
 3058 0026 6956666D 		.ascii	"iVfm6Bkvfo\016\346hN\346l.\346*l\302.\034\302i^\302"
 3058      36426B76 
 3058      666F0EE6 
 3058      684EE66C 
 3058      2EE62A6C 
 3059 0041 2D3CC20F 		.ascii	"-<\302\017oZ\024\353"
 3059      6F5A14EB 
 3060              		.text
 3061              		.section	.gnu.lto_.lto.b3c7f88f2e9c83e9,"e",%progbits
ARM GAS  /tmp/ccmpYJuH.s 			page 68


 3062 0000 09000200 		.ascii	"\011\000\002\000\001\000\000\000"
 3062      01000000 
 3063              		.text
 3064              		.section	.gnu.lto_chSchDoYieldS.171.b3c7f88f2e9c83e9,"e",%progbits
 3065 0000 789C7552 		.ascii	"x\234uRKh\023Q\024\275\347\335\311O\260`A\310\322e\025"
 3065      4B681351 
 3065      14BDE7DD 
 3065      C94FB060 
 3065      41C8D265 
 3066 0015 CDC4565C 		.ascii	"\315\304V\\\013-\270\354\242\033w\245\246\201\0310\266"
 3066      0B2DB8EC 
 3066      A21B77A5 
 3066      A6811930 
 3066      B6
 3067 0026 34A3E0AA 		.ascii	"4\243\340\252\323$\335\304E\232\352\252\330.\302 -\210"
 3067      D324DDC4 
 3067      459AEAAA 
 3067      D82EC220 
 3067      2D88
 3068 0038 22525BB5 		.ascii	"\"R[\265b\260\342F\027\352\242;\245\332\205m\"\032\005"
 3068      62B0E246 
 3068      17EAA23B 
 3068      A5DA856D 
 3068      221A05
 3069 004b 4544D0FB 		.ascii	"ED\320\373^\342\324\"\016<\346\236s?\347\274\2713\250"
 3069      5EE2D422 
 3069      0E3CE69E 
 3069      733FE7BC 
 3069      B933A8
 3070 005e 88CE10D1 		.ascii	"\210\316\020\321i9\210\020f\253eE\276\357\237\212)U"
 3070      69398810 
 3070      66AB6545 
 3070      BEEF9F8A 
 3070      2955
 3071 0070 AC5E5658 		.ascii	"\254^VXF\371f\345\240U\252v}{\331:b1\256\206\025\026"
 3071      46F966E5 
 3071      A055AA76 
 3071      7D7BD93A 
 3071      6231AE86 
 3072 0086 A6AAE584 		.ascii	"\246\252\345\204T\030\004\232Tla\022W\370\260\020\337"
 3072      5418049A 
 3072      546C6112 
 3072      57F8B010 
 3072      DF
 3073 0097 A7E79E2F 		.ascii	"\247\347\236/\247\013\376t2`\242\0059\235'\332A\270"
 3073      A70BFE74 
 3073      3260A205 
 3073      399D27DA 
 3073      41B8
 3074 00a9 C6303170 		.ascii	"\30601p\027\244\201t\255~\230\353\"\231(\254.\304\212"
 3074      17A48174 
 3074      AD7E98EB 
 3074      229928AC 
 3074      2EC48A
 3075 00bc 4942CA6F 		.ascii	"IB\312o\275\212\324\375\237\277*\276\377\376\006\246"
 3075      BD8AD4FD 
 3075      9FBF2ABE 
ARM GAS  /tmp/ccmpYJuH.s 			page 69


 3075      FFFE06A6 
 3076 00cc 9E7DDA38 		.ascii	"\236}\3328\020g\012X<\007\254\242:\212\351\210\250\302"
 3076      10670A58 
 3076      3C07ACA2 
 3076      3A8AE988 
 3076      A8C2
 3077 00de DA9D6FC1 		.ascii	"\332\235o\301\257\023\315\260j\203\242\200\006\374w"
 3077      AF13CDB0 
 3077      6A83A280 
 3077      06FC77
 3078 00ed F3CD6D65 		.ascii	"\363\315me\202\333\315\244~o\275nlv\213\214\341>7\266"
 3078      82DBCDA4 
 3078      7E6FBD6E 
 3078      6C768B8C 
 3078      E13E37B6 
 3079 0101 BBB1DA8E 		.ascii	"\273\261\332\216\2776\222\364\021\205\265\245\3755f"
 3079      BF3692F4 
 3079      1185B5A5 
 3079      FD3566
 3080 0110 7137CB01 		.ascii	"q7\313\001\263\361Y\202\222pQ\356 \340:D\325\302}\340"
 3080      B3F15982 
 3080      927051EE 
 3080      20E03A44 
 3080      D5C27DE0 
 3081 0124 9E49A645 		.ascii	"\236I\246E-\036p\004\0170\317\346\002\273d\024kBB\223"
 3081      2D1E7004 
 3081      0F30CFE6 
 3081      02BB6414 
 3081      6B424293 
 3082 0138 1D067828 		.ascii	"\035\006x(\214\322\214\021K\3248\322\321\002\302\361"
 3082      8CD28C11 
 3082      4BD438D2 
 3082      D102C2F1 
 3083 0148 31718047 		.ascii	"1q\200G\240NS\034ui\342\260i\351h\215\243\377\361\365"
 3083      A04E531C 
 3083      7569E2B0 
 3083      69E9688D 
 3083      A3FFF1F5 
 3084 015c F81F5FEB 		.ascii	"\370\037_\353\177|\205\026\236\010c\205\323vR5\216\375"
 3084      7F7C8516 
 3084      9E086385 
 3084      D3765235 
 3084      8EFD
 3085 016e A51CDDA3 		.ascii	"\245\034\335\243\3744T\336A\351\315\372\326\306[\375"
 3085      FC3454DE 
 3085      41E9CDFA 
 3085      D6C65BFD 
 3086 017e 87886B69 		.ascii	"\207\210ki2\333\235a~\321\372\261\210\360\203\337i\366"
 3086      32DB9D61 
 3086      7ED1FAB1 
 3086      88F083DF 
 3086      69F6
 3087 0190 500BC543 		.ascii	"P\013\305Cd\354%\026\364\212\002\336gJ\255\335\335|"
 3087      64EC2516 
 3087      F48A02DE 
 3087      674AADDD 
 3087      DD7C
ARM GAS  /tmp/ccmpYJuH.s 			page 70


 3088 01a2 416173A5 		.ascii	"Aas\245\03173*\214v\242P\327\360\230\355\214\345\262"
 3088      1937332A 
 3088      8C76A250 
 3088      D7F098ED 
 3088      8CE5B2
 3089 01b5 B63B921B 		.ascii	"\266;\222\033\237p=\347\242\233w\262\236w\311\356\037"
 3089      9F703DE7 
 3089      A29B77B2 
 3089      9E77C9EE 
 3089      1F
 3090 01c6 181A1FC9 		.ascii	"\030\032\037\311d\355\\.\323w\342\370\311a/\233\367"
 3090      64ED5C2E 
 3090      D377E2F8 
 3090      C9612F9B 
 3090      F7
 3091 01d7 7AA92765 		.ascii	"z\251'e\367;\356Ywph\2707\235\352K\245\355\261\274="
 3091      F73BEE59 
 3091      777068B8 
 3091      379DEA4B 
 3091      A5EDB1BC 
 3092 01ec E1D9EEF9 		.ascii	"\341\331\356\371\314\271\013\243Y;\343\3443\316h\312"
 3092      CCB90BA3 
 3092      593BE3E4 
 3092      33CE68CA 
 3093 01fc A1DFA50C 		.ascii	"\241\337\245\014\332\036"
 3093      DA1E
 3094              		.text
 3095              		.section	.gnu.lto__thread_init.313.b3c7f88f2e9c83e9,"e",%progbits
 3096 0000 789C8D94 		.ascii	"x\234\215\224_hSW\034\307\317\367\236\233\233\306j\332"
 3096      5F685357 
 3096      1CC7CFF7 
 3096      9E9B9BC6 
 3096      6ADA
 3097 0012 698685ED 		.ascii	"i\206\205\355\241\010S\007[n\377\2702\337\006\372\340"
 3097      A1085307 
 3097      5B6EFFB8 
 3097      32DF06FA 
 3097      E0
 3098 0023 C3600F7D 		.ascii	"\303`\017}\031\344A\2624#\001ccs'\014\031\336\245\025"
 3098      19E441B2 
 3098      34230163 
 3098      6373270C 
 3098      19DEA515 
 3099 0037 471FACFF 		.ascii	"G\037\254\3776F\355\346\226\025\011\3700\006\212\255"
 3099      3646EDE6 
 3099      961509F8 
 3099      30068AAD 
 3100 0047 5A17E734 		.ascii	"Z\027\3474\352\030+\023\307\230\242\022'\253\212\256"
 3100      EA182B13 
 3100      C798A212 
 3100      27AB8AAE 
 3101 0057 B6FE6945 		.ascii	"\266\376iE\347~\347\234{sS\333J\036r\311\271\371~\277"
 3101      E77EE79C 
 3101      7B7353DB 
 3101      4A1E72C9 
 3101      B9F97EBF 
 3102 006b BFCFEF9C 		.ascii	"\277\317\357\234\223\337r?c\007\031c\313\351\003\316"
ARM GAS  /tmp/ccmpYJuH.s 			page 71


 3102      93DF723F 
 3102      63071963 
 3102      CBE903CE 
 3103 007b B07B57AF 		.ascii	"\260{W\257\306l\333~\307\257\341\323]\275W\367\037\322"
 3103      C66CDB7E 
 3103      C7AFE1D3 
 3103      5DBD57F7 
 3103      1FD2
 3104 008d 3102F902 		.ascii	"1\002\371\002l\253\206\255\330\303\0078v\363A\022\353"
 3104      6CAB86AD 
 3104      D8C30738 
 3104      76F34112 
 3104      EB
 3105 009e CE37A0F1 		.ascii	"\3167\240\361\365\202mOm\353\037\272n\014\344\013\372"
 3105      F5826D4F 
 3105      6DEB1FBA 
 3105      6E0CE40B 
 3105      FA
 3106 00af 20D7D8D7 		.ascii	" \327\330\327$8\014\034\002%3\022\362\367\331\012\022"
 3106      24380C1C 
 3106      02253312 
 3106      F2F7D90A 
 3106      12
 3107 00c0 8D9E1FB2 		.ascii	"\215\236\037\262\355\000#\005\216\300\323`\010\364*"
 3107      ED002305 
 3107      8EC0D360 
 3107      08F42A
 3108 00cf 72BA4128 		.ascii	"r\272A(7)\345-G\3111\\\251<JJ\036\031\225\312\315J\371"
 3108      3729E52D 
 3108      47C9315C 
 3108      A93C4A4A 
 3108      1E1995CA 
 3109 00e6 59F776BB 		.ascii	"Y\367v\273\236\252\3528V\251<NJ=r\271\2011\203I\236"
 3109      9EAAEA38 
 3109      56A93C4E 
 3109      4A3D72B9 
 3109      81318349 
 3110 00fb 11308D6C 		.ascii	"\0210\215lr\005\234\200\344\332\"\236\"f\352\277\355"
 3110      72059C80 
 3110      E4DA229E 
 3110      2266EABF 
 3110      ED
 3111 010c B77F5B3A 		.ascii	"\267\177[:`\013~\037~\204\3208I\005J\362EJ\257\222\362"
 3111      600B7E1F 
 3111      7E84D038 
 3111      49054AF2 
 3111      454AAF92 
 3112 0121 35A11C3D 		.ascii	"5\241\034=\271\257\215\204=\215\256\222yJ\325\256A{"
 3112      B9AF8D84 
 3112      3D8DAE92 
 3112      794AD5AE 
 3112      417B
 3113 0133 36F4A019 		.ascii	"6\364\240\031'!\312R\224`\300OnU\211\240\341g\205\220"
 3113      2721CA52 
 3113      9460C04F 
 3113      6E5589A0 
 3113      E1678590 
ARM GAS  /tmp/ccmpYJuH.s 			page 72


 3114 0147 4705C3F0 		.ascii	"G\005\303\360\017\215g\272\355u\203\334\300i\010\221"
 3114      0F8D67BA 
 3114      ED7583DC 
 3114      C0690891 
 3115 0157 937C8618 		.ascii	"\223|\206\030\214H~.\006\245d\236\322c\230z\330\214"
 3115      8C487E2E 
 3115      06A5649E 
 3115      D263987A 
 3115      D88C
 3116 0169 A2C3A049 		.ascii	"\242\303\240I\206\263\020e\205\344\373\337}\005\373"
 3116      86B31065 
 3116      85E4FBDF 
 3116      7D05FB
 3117 0178 C9B33EDB 		.ascii	"\311\263>\333.\276\262\343\324d\037\226B\034\214F\017"
 3117      2EBEB2E3 
 3117      D4641F96 
 3117      421C8C46 
 3117      0F
 3118 0189 1FA787E1 		.ascii	"\037\247\207\341\003\235\213\001\332\310 h\337\031\353"
 3118      039D8B01 
 3118      DAC82068 
 3118      DF19EB
 3119 0198 E3E272D8 		.ascii	"\343\342r\330:\354\002c;\271\246\026\335\264\270\005"
 3119      3AEC0263 
 3119      3BB9A616 
 3119      DDB4B805 
 3120 01a8 BBF4800A 		.ascii	"\273\364\200\012\337E\266\377f\310\271\030\232\354\353"
 3120      DF45B6FF 
 3120      66C8B918 
 3120      9AECEB
 3121 01b7 80B83F63 		.ascii	"\200\270?c\332 \367\347h\267\316\2035\321\272F\234\326"
 3121      DA20F7E7 
 3121      68B7CE83 
 3121      35D1BA46 
 3121      9CD6
 3122 01c9 2FF88A13 		.ascii	"/\370\212\023G\216\033\322\377H\371'\306B/p\325\340"
 3122      478E1BD2 
 3122      FF48F927 
 3122      C6422F70 
 3122      D5E0
 3123 01db 5772118B 		.ascii	"Wr\021\213(\020\200&\235\323\3258\027`\224\234\232\353"
 3123      28108026 
 3123      9DD3D538 
 3123      1760949C 
 3123      9AEB
 3124 01ed 54CC7B8A 		.ascii	"T\314{\212\025\314\363\223^ '\367H?/VQ\257\026\027\311"
 3124      15CCF393 
 3124      5E2027F7 
 3124      483F2F56 
 3124      51AF1617 
 3125 0202 A5AB7AB5 		.ascii	"\245\253z\265N\275}\3258\027\342Or\372\224s\221\343"
 3125      4EBD7DD5 
 3125      3817E24F 
 3125      72FA9473 
 3125      91E3
 3126 0214 3C528D33 		.ascii	"<R\2153\210K\3444\334\036!\235\303\325\364\310q\205"
 3126      884BE434 
ARM GAS  /tmp/ccmpYJuH.s 			page 73


 3126      DC1E219D 
 3126      C3D5F4C8 
 3126      7185
 3127 0226 9C7ED163 		.ascii	"\234~\321cP\272\216)\327\336^\270\256\232Y&\015\327"
 3127      50BA8E29 
 3127      D7DE5EB8 
 3127      AE9A5926 
 3127      0DD7
 3128 0238 C854236F 		.ascii	"\310T#o\233\250X'\017\274\007\024_\227\347L\235>\335"
 3128      9BA85827 
 3128      0FBC0714 
 3128      5F97E74C 
 3128      9D3EDD
 3129 024b A47A5C07 		.ascii	"\244z\\\007J\362G\307\371\022\376&g\200\261\036d\345"
 3129      4AF247C7 
 3129      F912FE26 
 3129      6780B11E 
 3129      64E5
 3130 025d 8BC5B8A1 		.ascii	"\213\305\270\241\032]&\252\036\017\3448\346\211\372"
 3130      1A5D26AA 
 3130      1E0FE438 
 3130      E689FA
 3131 026c 6756D498 		.ascii	"gV\324\230\212*C\335\244\365\002\272X\0244\376b\374"
 3131      8A2A43DD 
 3131      A4F502BA 
 3131      581434FE 
 3131      62FC
 3132 027e DBA4AC15 		.ascii	"\333\244\254\025=\243\\\272?0\323\200\031\206;\252_"
 3132      3DA35CBA 
 3132      3F30D380 
 3132      19863BAA 
 3132      5F
 3133 028f CA996998 		.ascii	"\312\231i\230\013\364\337Y\240\343\317\201\336S\240"
 3133      0BF4DF59 
 3133      A0E3CF81 
 3133      DE53A0
 3134 029e 4E5AAE5D 		.ascii	"NZ\256]n\374\305\362\306\347\270\346\262\344C\036\275"
 3134      6EFCC5F2 
 3134      C6E7B8E6 
 3134      B2E4431E 
 3134      BD
 3135 02af 97B80493 		.ascii	"\227\270\004\223\224\260P\354\2428U1\245p_nc\266\221"
 3135      94B050EC 
 3135      A2385531 
 3135      A5705F6E 
 3135      63B691
 3136 02c2 460FF945 		.ascii	"F\017\371E\342\344\323\276?\366\177\001\232>2\377\322"
 3136      E2E4D3BE 
 3136      3FF67F01 
 3136      9A3E32FF 
 3136      D2
 3137 02d3 D5004E39 		.ascii	"\325\000N97\"\350\034\234\017+]\356%\242\312C\325r^"
 3137      3722E81C 
 3137      9C0F2B5D 
 3137      EE25A2CA 
 3137      43D5725E 
 3138 02e7 FE891F51 		.ascii	"\376\211\037Q\215Ebx\251\274\354\370\267\337\215\274"
ARM GAS  /tmp/ccmpYJuH.s 			page 74


 3138      8D456278 
 3138      A9BCECF8 
 3138      B7DF8DBC 
 3139 02f7 4B13450C 		.ascii	"K\023E\0147\231\370\227\277\014\314\313WlN\340\020\246"
 3139      3799F897 
 3139      BF0CCCCB 
 3139      576C4EE0 
 3139      10A6
 3140 0309 292C5801 		.ascii	"),X\001l\340\261\013\\\024~\007x\242tm1\215*5\027J_"
 3140      6CE0B10B 
 3140      5C147E07 
 3140      78A2746D 
 3140      318D2A35 
 3141 0320 02E79E23 		.ascii	"\002\347\236#6\360\206K\034\022e\236T\022?\245\"ub\324"
 3141      36F0864B 
 3141      1C12659E 
 3141      54123FA5 
 3141      227562D4 
 3142 0334 3981A5E9 		.ascii	"9\201\245\351R\203g\237\307\364\214L\365\236\211\332"
 3142      5283679F 
 3142      C7F48C4C 
 3142      F59E89DA 
 3143 0344 BCA0DA2C 		.ascii	"\274\240\332,:m\336\367\313S\372DA\321\333\011d\277"
 3143      3A6DDEF7 
 3143      CB53FA44 
 3143      41D1DB09 
 3143      64BF
 3144 0356 794B1C1E 		.ascii	"yK\034\036\023\243\021j\032f\013b\371\246\231\350L\305"
 3144      13A3116A 
 3144      1A660B62 
 3144      F9A699E8 
 3144      4CC5
 3145 0368 CD643495 		.ascii	"\315d4\225\356JZ\211\315\311L\"nY\037\233k\326\266\247"
 3145      EE4A5A89 
 3145      CDC94C22 
 3145      6E591F9B 
 3145      6BD6B6A7 
 3146 037c A3B1B899 		.ascii	"\243\261\270\231J\305ZW5\267\255\267\342\031\253\205"
 3146      4AC55A57 
 3146      35B7ADB7 
 3146      E219AB85 
 3147 038c AD089B6B 		.ascii	"\255\010\233k\022\311\017\222\357\265\257oi\012\267"
 3147      12C90F92 
 3147      EFB5AF6F 
 3147      690AB7
 3148 039b 869BCCCE 		.ascii	"\206\233\314\316\214\331e\231\231\256\230\031KX\211"
 3148      8CD96599 
 3148      99AE9819 
 3148      4B5889
 3149 03aa AE78B423 		.ascii	"\256x\264#\023\2161\315J\277\\\261\016\177\330\026m"
 3149      138E31CD 
 3149      4ABF5CB1 
 3149      0E7FD816 
 3149      6D
 3150 03bb 696D7D7B 		.ascii	"im}{5\3237FSq\235JurkCz\345<q\311\215\261\015\037u\304"
 3150      35D33746 
 3150      53719D4A 
ARM GAS  /tmp/ccmpYJuH.s 			page 75


 3150      75726B43 
 3150      7AE53C71 
 3151 03d6 2932134B 		.ascii	")2\023Kt\204\023\214[\233\322\377\003\\Me "
 3151      7484138C 
 3151      5B9BD2FF 
 3151      035C4D65 
 3151      20
 3152              		.text
 3153              		.section	.gnu.lto_chThdCreateSuspendedI.314.b3c7f88f2e9c83e9,"e",%progbits
 3154 0000 789C8D56 		.ascii	"x\234\215V[lTE\030\236\357\234\263\273]Zz\335\355\226"
 3154      5B6C5445 
 3154      189EEF9C 
 3154      B3BB5D5A 
 3154      7ADDED96 
 3155 0014 8B502188 		.ascii	"\213P!\210&\330\005\252D\337L\360\301\007\023\037x\361"
 3155      26D805AA 
 3155      44DF4CF0 
 3155      C107131F 
 3155      78F1
 3156 0026 A109A9DB 		.ascii	"\241\011\251\3335\333\204Bm\027\023M\014\207m\201P\024"
 3156      35DB8442 
 3156      6D17134D 
 3156      0C876D81 
 3156      5014
 3157 0038 4A5B104B 		.ascii	"J[\020K\201\260,\272F\015\301@X,H\271\265\012JW\360"
 3157      81B02CBA 
 3157      460DC140 
 3157      582C48B9 
 3157      B50A4A57 
 3158 004d 8A189A15 		.ascii	"\212\030\232\025\"\250!\265\202\024S\263\376sf\316\236"
 3158      22A821B5 
 3158      821453B3 
 3158      FE7366CE 
 3158      9E
 3159 005e B3DDD6FA 		.ascii	"\263\335\326\372\320\351\314\354\377]\376\231\177\346"
 3159      D0E9CCEC 
 3159      FF5DFE99 
 3159      7FE6
 3160 006c CCF57CC6 		.ascii	"\314\365|\306\0161\306\036\241?\250\014\035\333\333"
 3160      0E31C61E 
 3160      A13FA80C 
 3160      1DDBDB
 3161 007b 14A6EBFA 		.ascii	"\024\246\353\3723.\005\353\267\267\015&\216h\350\205"
 3161      332E05EB 
 3161      B7B70D26 
 3161      8E68E885 
 3162 008b 3101B64E 		.ascii	"1\001\266N\301:t\252=*:\324\030\005k\262\007T>\326\247"
 3162      C13A74AA 
 3162      3D2A3AD4 
 3162      18056BB2 
 3162      07543ED6 
 3163 00a0 EBA31BBA 		.ascii	"\353\243\033\272\007o:{\342}ZLU\330^\0128\012\034\001"
 3163      076F3A7B 
 3163      E27D5A4C 
 3163      55D85E0A 
 3163      380A1C01 
 3164 00b4 31330A54 		.ascii	"13\012T_d\013)(9\226\320u7\213\251*\216\301\026C\023"
ARM GAS  /tmp/ccmpYJuH.s 			page 76


 3164      5F640B29 
 3164      283996D0 
 3164      75378BA9 
 3164      2A8EC116 
 3165 00ca 35699F88 		.ascii	"5i\237\210l\342\355\002\012\036\376\376\340\246\302"
 3165      6CE2ED02 
 3165      0A1EFEFE 
 3165      E0A6C2
 3166 00d9 F6F579C4 		.ascii	"\366\365y\304\207\343\310b\254\331R\341d\370\004\\\207"
 3166      87E3C862 
 3166      ACD952E1 
 3166      64F8045C 
 3166      87
 3167 00ea 3185004E 		.ascii	"1\205\000NF}\340\004\2309Pp\322\030p\335\341\304\331"
 3167      467DE004 
 3167      98395070 
 3167      D21870DD 
 3167      E1C4D9
 3168 00fd 8EC27698 		.ascii	"\216\302v\230L\212d\302\247|\252\346|\205\2518xs\343"
 3168      4C8A64C2 
 3168      A77CAAE6 
 3168      7C85A938 
 3168      7873E3
 3169 0110 448A1427 		.ascii	"D\212\024'\323Xkc\3546\0305\364\331\031O\363\251\232"
 3169      D3586B63 
 3169      EC361835 
 3169      F4D9194F 
 3169      F3A99A
 3170 0123 642EA388 		.ascii	"d.\243\210cV\234d|\335blI\015A/\215\251\016\234\265"
 3170      63569C64 
 3170      7CDD626C 
 3170      490D412F 
 3170      8DA90E9C 
 3171 0138 539E234A 		.ascii	"S\236#JG\315\265\\J\021\307\2548A\351\244\015\033=w"
 3171      47CDB55C 
 3171      4A11C7AC 
 3171      3841E9A4 
 3171      0D1B3D77 
 3172 014c 40C579E0 		.ascii	"@\305y\340\014p\212~\352\345|re\320\017\2712\352:S{"
 3172      0C708A7E 
 3172      EAE57C72 
 3172      65D00FB9 
 3172      32EA3A53 
 3173 0161 7467DB6F 		.ascii	"tg\333o\203\276\036\235o\236\023\237\201/\245d\375\234"
 3173      83BE1E9D 
 3173      6F9E139F 
 3173      812FA564 
 3173      FD9C
 3174 0173 D49D35A9 		.ascii	"\324\2355\251\331R}4yz\3672\012l\2554#\231\025i\351"
 3174      D9527D34 
 3174      797AF732 
 3174      0A6CAD34 
 3174      23991569 
 3175 0188 27EE2DC1 		.ascii	"'\356-\301\005\232\033\340T\214\253^\314\332\034\025"
 3175      059A1BE0 
 3175      548CAB5E 
 3175      CCDA1C15 
ARM GAS  /tmp/ccmpYJuH.s 			page 77


 3176 0198 5F0A0B1F 		.ascii	"_\012\013\037\302\346\341\370\341\312\376\026\375\271"
 3176      C2E6E1F8 
 3176      E1CAFE16 
 3176      FDB9
 3177 01a6 98EAC225 		.ascii	"\230\352\302%\360 \311<H\036\\5\361\211<\210HfE\332"
 3177      F020C93C 
 3177      481E5C35 
 3177      F1893C88 
 3177      486645DA 
 3178 01ba D6E0AF25 		.ascii	"\326\340\257%HJ\017\252\341\341+pY\012\001\325\316\241"
 3178      484A0FAA 
 3178      E1E12B70 
 3178      590A01D5 
 3178      CEA1
 3179 01cc CB8E3E7D 		.ascii	"\313\216>},\275M\327\323\2136\237\375\240\007\013@u"
 3179      2CBD4DD7 
 3179      D38B369F 
 3179      FDA0070B 
 3179      4075
 3180 01de E8D2A851 		.ascii	"\350\322\250Q\034\3248]\274\302\012\200\004\012i\230"
 3180      1CD4385D 
 3180      BCC20A80 
 3180      040A6998 
 3181 01ee 57C49B62 		.ascii	"W\304\233bj\334%\324L+\245&\277\214\232\002\017\357"
 3181      6ADC25D4 
 3181      4C2BA526 
 3181      BF8C9A02 
 3181      0FEF
 3182 0200 7979534E 		.ascii	"yySN\215\346\343=\306\266\251\374$\351\032\364>\306"
 3182      8DE6E33D 
 3182      C6B6A9FC 
 3182      24E91AF4 
 3182      3EC6
 3183 0212 DA55450C 		.ascii	"\332UE\014Zh\360+\364\324\341\2130\376\037\275Xn\374"
 3183      5A68F02B 
 3183      F4D4E18B 
 3183      30FE1FBD 
 3183      586EFC
 3184 0225 3F26C6F3 		.ascii	"?&\306\3632M*\221?n\"9~\342j>\273\203\310\211\333\013"
 3184      324D2A91 
 3184      3F6E2239 
 3184      7EE26A3E 
 3184      BB83C889 
 3185 023b A26AA13C 		.ascii	"\242j\241<\213\252\261\232\357\362#K\3651=\252\026\340"
 3185      8BAAB19A 
 3185      EFF2234B 
 3185      F5313DAA 
 3185      16E0
 3186 024d 0AD8E256 		.ascii	"\012\330\342VcX\210\257\261\207\237\027\202\265|\274"
 3186      635888AF 
 3186      B1879F17 
 3186      82B57CBC 
 3187 025d F1C9A8EA 		.ascii	"\361\311\250\352\"\2448\314\211t:]D\254\221J\312\231"
 3187      22A438CC 
 3187      89743A5D 
 3187      44AC914A 
 3187      CA99
ARM GAS  /tmp/ccmpYJuH.s 			page 78


 3188 026f 7E3004EE 		.ascii	"~0\004\356\221)C\301\033U\213\376\213\367;\342\205\301"
 3188      912943C1 
 3188      1B558BFE 
 3188      8BF73BE2 
 3188      85C1
 3189 0281 1B196EBB 		.ascii	"\033\031n\273\007iF\021\254&\360\226\022S\213H\020?"
 3189      07694611 
 3189      AC26F096 
 3189      12538B48 
 3189      103F
 3190 0293 105210E5 		.ascii	"\020R\020\345\341*!\025\306\210\337P\374G(v\265\221"
 3190      E12A2115 
 3190      C688DF50 
 3190      FC472876 
 3190      B591
 3191 02a5 87624953 		.ascii	"\207bIS\200\256\014\015\223\024\327\300Z\371@\301O\220"
 3191      80AE0C0D 
 3191      9314D7C0 
 3191      5AF940C1 
 3191      4F90
 3192 02b7 B2B01934 		.ascii	"\262\260\0314ehJ*\025\343:)Q\362r\354\306\020\2155\256"
 3192      65684A2A 
 3192      15E33A29 
 3192      51F272EC 
 3192      C6108D35 
 3193 02cc 5C2C5694 		.ascii	"\\,V\224'\352\216\252%\223\347Y\202\024a\034\"\317\261"
 3193      27EA8EAA 
 3193      2593E759 
 3193      8214611C 
 3193      22CFB1
 3194 02df 4D64B194 		.ascii	"Md\261\224\342-un\326\235\265\001\364{1nd\322-\303M"
 3194      E22D756E 
 3194      D69DB501 
 3194      F47B316E 
 3194      64D22DC3 
 3195 02f4 227072D1 		.ascii	"\"pr\321\322,\321\262\311E=\370\2050.\233\250\207\342"
 3195      D22CD1B2 
 3195      C9453DF8 
 3195      85302E9B 
 3195      A887E2
 3196 0307 7353CE91 		.ascii	"sS\316\221\272M\260<.\345\311H\031po+\"F\210w/\317\177"
 3196      BA4DB03C 
 3196      2EE5C948 
 3196      19706F2B 
 3196      22468877 
 3197 031e 6AA2DF89 		.ascii	"j\242\337\211\310\315\211\274\331\365\027M\213\022\356"
 3197      C8CD89BC 
 3197      D9F5174D 
 3197      8B12EE
 3198 032d BC24AAE4 		.ascii	"\274$\252\344}r^n\022\305\347fg\022\237\036S\313q\207"
 3198      7D725E6E 
 3198      12C5E766 
 3198      67129F1E 
 3198      53CB7187 
 3199 0341 A8A68954 		.ascii	"\250\246\211Tx\332\276Li,\312\215\366a\230\242\351 "
 3199      78DABE4C 
 3199      692CCA8D 
ARM GAS  /tmp/ccmpYJuH.s 			page 79


 3199      F66198A2 
 3199      E920
 3200 0353 89AA3C25 		.ascii	"\211\252<%\253\222\272g\250[.\272\347\251\353\343.~"
 3200      AB92BA67 
 3200      A85B2EBA 
 3200      E7A9EBE3 
 3200      2E7E
 3201 0365 FEA3FF2D 		.ascii	"\376\243\377-\320\315&\352\266\337M\207\236\253t\337"
 3201      D0CD26EA 
 3201      B6DF4D87 
 3201      9EAB74DF 
 3202 0375 F664D58D 		.ascii	"\366d\325\215,=^\212\016\214\020\177\001\277\016%G\352"
 3202      2C3D5E8A 
 3202      0E8C107F 
 3202      01BF0E25 
 3202      47EA
 3203 0387 7EBF011A 		.ascii	"~\277\001\032\2715)\250\002w\0114\235\203\370n\317\200"
 3203      B93529A8 
 3203      02770934 
 3203      9D83F86E 
 3203      CF80
 3204 0399 62001F4C 		.ascii	"b\000\037L\011\234\211\373\004,\264\200\342\032\350"
 3204      099C89FB 
 3204      042CB480 
 3204      E21AE8
 3205 03a8 FC1F36FF 		.ascii	"\374\0376\377&`\221\335\346\216\201\251\324fa\214@\305"
 3205      266091DD 
 3205      E68E81A9 
 3205      D466618C 
 3205      40C5
 3206 03ba A6DA2CA9 		.ascii	"\246\332,\251\266{J\340l\244\011Xb\002\363%\360\330"
 3206      B67B4AE0 
 3206      6CA40958 
 3206      6202F325 
 3206      F0D8
 3207 03cc 94C08710 		.ascii	"\224\300\207\020Q\366PUg\362\023;q|\312\3744l `\231"
 3207      51F65055 
 3207      67F2133B 
 3207      717CCAFC 
 3207      346C2060 
 3208 03e1 C84FDC85 		.ascii	"\310O\334\205\275\003\346%0\021\310\3708o\"\214\207"
 3208      BD03E625 
 3208      3011C8F8 
 3208      386F228C 
 3208      87
 3209 03f2 63E4B19B 		.ascii	"c\344\261\233c\034\273V\020\341\234\270\312\230\011"
 3209      631CBB56 
 3209      10E19CB8 
 3209      CA9809
 3210 0401 9C8B3605 		.ascii	"\234\2136\005\233\025\333EP\211-\204\365r\254y\020\036"
 3210      9B15DB45 
 3210      50892D84 
 3210      F572AC79 
 3210      101E
 3211 0413 C69B8A2C 		.ascii	"\306\233\212,\235\314\211\324&\241\333\232C\267\315"
 3211      9DCC89D4 
 3211      26A1DB9A 
ARM GAS  /tmp/ccmpYJuH.s 			page 80


 3211      43B7CD
 3212 0422 A4CB986B 		.ascii	"\244\313\230k\247\231r>c?\\\023e\321A\201>\221\271\226"
 3212      A799723E 
 3212      633F5C13 
 3212      65D14181 
 3212      3E91B996 
 3213 0436 51EF7667 		.ascii	"Q\357vg\256OfCj\350R,\344\0163\177yU[\310\211L\277\235"
 3213      AE4F6643 
 3213      6AE8522C 
 3213      E40E337F 
 3213      79555BC8 
 3214 044e 637A578E 		.ascii	"czW\216\351wL\323\2221\272\302\330\213o\006\254\013"
 3214      E9774CD3 
 3214      9231BAC2 
 3214      D88B6F06 
 3214      AC0B
 3215 0460 D9313E11 		.ascii	"\3311>\021\311\030\367\304\324y\330M\004\025bY\371\326"
 3215      C918F7C4 
 3215      D479D84D 
 3215      04156259 
 3215      F9D6
 3216 0472 F257037A 		.ascii	"\362W\003z\344\272\322I\275\300\0118\345\237\037u}\273"
 3216      E4BAD249 
 3216      BDC00938 
 3216      E59F1F75 
 3216      7DBB
 3217 0484 6F27203F 		.ascii	"o' ?\200?^w\343\013Y$\346W\314\211!\373\215?\217\313"
 3217      803F5E77 
 3217      E30B5924 
 3217      E657CC89 
 3217      21FB8D3F 
 3218 049a ED15D9C7 		.ascii	"\355\025\331\307\215\205\331GZ3\370\223BpF\206\367\037"
 3218      8D85D947 
 3218      5A33F893 
 3218      42704686 
 3218      F71F
 3219 04ac 38F93C1D 		.ascii	"8\371<\035y\376\344\020\237FW\306u\316\362K\327\267"
 3219      79FEE410 
 3219      9F4657C6 
 3219      75CEF24B 
 3219      D7B7
 3220 04be C8F57CEC 		.ascii	"\310\365|\354'\246\231Y\256]\210Z\256\223\234@\272\036"
 3220      27A69959 
 3220      AE5D885A 
 3220      AE939C40 
 3220      BA1E
 3221 04d0 490D95D2 		.ascii	"I\015\225\322\013B\334\024\251]\300\345q\266]\270a\267"
 3221      0B42DC14 
 3221      A95DC0E5 
 3221      71B65DB8 
 3221      61B7
 3222 04e2 3D9FEBC5 		.ascii	"=\237\353\305\354\266\017\222\330,\376\012\221\244\251"
 3222      ECB60F92 
 3222      D82CFE0A 
 3222      91A4A9
 3223 04f1 07A90A8B 		.ascii	"\007\251\012\213b\022\320{\004\232m\201(\327+\"\327"
 3223      6212D07B 
ARM GAS  /tmp/ccmpYJuH.s 			page 81


 3223      049A6D81 
 3223      28D72B22 
 3223      D7
 3224 0502 A4CCF5AE 		.ascii	"\244\314\365\256\330\2577\204\261\001#h\250s+]\207\275"
 3224      D8AF3784 
 3224      B1012368 
 3224      A8732B5D 
 3224      87BD
 3225 0514 C6E3CFBC 		.ascii	"\306\343\317\2744\231ye26B\235\250\361Q\241g\012\304"
 3225      34997965 
 3225      3236429D 
 3225      A8F151A1 
 3225      670AC4
 3226 0527 CB24D2C7 		.ascii	"\313$\322\307\207\217\373Ck\032\202\376\372\332\206"
 3226      878FFB43 
 3226      6B1A82FE 
 3226      FADA86
 3227 0536 C6A6FA70 		.ascii	"\306\246\372p\350\325\372\346P0\034~\315\277\374\331"
 3227      E8D5FAE6 
 3227      50301C7E 
 3227      CDBFFCD9 
 3228 0546 158DB581 		.ascii	"\025\215\265\201\240\277\241!P\375\304\222e+\303\301"
 3228      A0BFA121 
 3228      50FDC492 
 3228      652BC3C1 
 3229 0556 E6F052B6 		.ascii	"\346\360R\266\260\312\277<T\377R\375\013+V.]\\U]\265"
 3229      B0CABF3C 
 3229      54FF52FD 
 3229      0B2B562E 
 3229      5D5C555D 
 3230 056b D8BFA6D9 		.ascii	"\330\277\246\331\337\024\36677\005\374\201P8\324\024"
 3230      DF14F637 
 3230      3705FC81 
 3230      5038D414 
 3231 057b ACAD6BAE 		.ascii	"\254\255k\256\01205\\\327\350\265MT\275\274\254viu\365"
 3231      0A30355C 
 3231      D7E8B54D 
 3231      54BDBCAC 
 3231      766975F5 
 3232 058f 534F3325 		.ascii	"SO3%\334\250\255\256m\010j$\267F\015\257j|t\022\312"
 3232      DCA8ADAE 
 3232      6D086A24 
 3232      B7460DAF 
 3232      6A7C7412 
 3233 05a4 FAD58155 		.ascii	"\372\325\201Uk\353\202D\333\034\010\325U\205\210\363"
 3233      6BEB8244 
 3233      DB1C08D5 
 3233      558588F3 
 3234 05b4 95C67F01 		.ascii	"\225\306\177\001\302\011\314\201"
 3234      C209CC81 
 3235              		.text
 3236              		.section	.gnu.lto_chThdCreateSuspended.315.b3c7f88f2e9c83e9,"e",%progbits
 3237 0000 789C8D53 		.ascii	"x\234\215S[l\014a\024>g\376\351\266}pI\204&\022\262"
 3237      5B6C0C61 
 3237      143E67FE 
 3237      E9B67D70 
 3237      49842612 
ARM GAS  /tmp/ccmpYJuH.s 			page 82


 3238 0015 44351276 		.ascii	"D5\022v\332\256\272\274a\275H4\304\276xh\322\254\351"
 3238      DAAEBABC 
 3238      61BD4834 
 3238      C4BE7868 
 3238      D2ACE9
 3239 0028 B09B98EE 		.ascii	"\260\233\230\356ffH\373d\264h\302\303R\211\225Z\233"
 3239      666648FB 
 3239      64B468C2 
 3239      C3528995 
 3239      5A9B
 3240 003a A2096F2E 		.ascii	"\242\011o.QV)K\253n\251\226\227JE\320\204J\033\261\324"
 3240      5156294B 
 3240      AB6EA996 
 3240      974A45D0 
 3240      844A1BB1 
 3241 004f C3BA85F3 		.ascii	"\303\272\205\363\377\263\272K\020/\373\377\363\315w"
 3241      FFB3BA4B 
 3241      102FFBFF 
 3241      F3CD77
 3242 005e BEF39DEF 		.ascii	"\276\363\235\357\314\3663\200\225\010\260\020\000\220"
 3242      CCF63380 
 3242      9508B010 
 3242      0090
 3243 006c 01B61EDA 		.ascii	"\001\266\036\332/\201m\333\253\012%\334}h\377P\367E"
 3243      2F816DDB 
 3243      AB0A25DC 
 3243      7D68FF50 
 3243      F745
 3244 007e 19AFA200 		.ascii	"\031\257\242\000\020vI\270\013\017\2638\303V\326Ad9"
 3244      107649B8 
 3244      0B0FB338 
 3244      C356D641 
 3244      6439
 3245 0090 7B43742F 		.ascii	"{Ct/J\331vfo[r\324\025?\223\222;\230\004\011\"t\"^$"
 3245      4AD97666 
 3245      6F5B72D4 
 3245      153F9392 
 3245      3B980409 
 3246 00a9 710022B2 		.ascii	"q\000\"\262\315PF\244\301/I\333.\206\016\306\3602\346"
 3246      CD5046A4 
 3246      C12F49DB 
 3246      2E860EC6 
 3246      F032E6
 3247 00bc 7108A879 		.ascii	"q\010\250yX\3420\015\376[J\344\364\225\323-S\017\356"
 3247      58E2300D 
 3247      FE5B4AE4 
 3247      F495D32D 
 3247      530FEE
 3248 00cf 2E223DBC 		.ascii	".\"=\274\202\277(\326\014\227\270\000\273\220\367\001"
 3248      82BF28D6 
 3248      0C97B800 
 3248      BB90F701 
 3249 00df 90A8C005 		.ascii	"\220\250\300\005tG\274\206\274\332E\226\223\243^ \363"
 3249      7447BC86 
 3249      BCDA4596 
 3249      93A35E20 
 3249      F3
ARM GAS  /tmp/ccmpYJuH.s 			page 83


 3250 00f0 09329345 		.ascii	"\0112\223E\342o{^\025\000v\023\306D\247\343\202\314"
 3250      E26F7B5E 
 3250      15007613 
 3250      C644A7E3 
 3250      82CC
 3251 0102 7D65DA0E 		.ascii	"}e\332\016<\035\230\035\267\271y\031o \227r\232a\012"
 3251      3C1D981D 
 3251      B7B97919 
 3251      6F209772 
 3251      9A610A
 3252 0115 09AA3936 		.ascii	"\011\25296'k*s.\332\335\271\270\247\331\276kOr!\307"
 3252      276B2A73 
 3252      2EDADDB9 
 3252      B8A7D9BE 
 3252      6B4F7221 
 3253 012a 75A6E5DD 		.ascii	"u\246\345\3352\257\333\\x\223\300\353\\\015\310\037"
 3253      32AFDB5C 
 3253      7893C0EB 
 3253      5C0DC81F 
 3254 013a DECAF717 		.ascii	"\336\312\367\027\177\363b\256cP\316\031l\376F\006{\011"
 3254      7FF362AE 
 3254      6350CE19 
 3254      6CFE4606 
 3254      7B09
 3255 014c 2B805CBF 		.ascii	"+\200\\\277\267\377\325/\371\225\372\365\021x{\262\337"
 3255      B7FFD52F 
 3255      F995FAF5 
 3255      11787BB2 
 3255      DF
 3256 015d 1DD18F38 		.ascii	"\035\321\2178HQ\235}\\\220\262\277~\217\332\251\226"
 3256      48519D7D 
 3256      5C90B2BF 
 3256      7E8FDAA9 
 3256      96
 3257 016e 29C99691 		.ascii	")\311\226\221\364\3232Z2&Q\0269B\224\361\305\3332\332"
 3257      F4D3325A 
 3257      32265116 
 3257      394294F1 
 3257      C5DB32DA 
 3258 0182 2980834C 		.ascii	")\200\203Lr\036\232\351a\014\355\221\211\207(\316\314"
 3258      721E9AE9 
 3258      610CED91 
 3258      898728CE 
 3258      CC
 3259 0193 547ECC9F 		.ascii	"T~\314\237\374\031\211O\343\307Dg\2645v\004)Z\001\306"
 3259      FC19894F 
 3259      E3C74467 
 3259      B4357604 
 3259      295A01C6 
 3260 01a7 868A45D9 		.ascii	"\206\212E\331\304\313\304\347\261'3(\001\001\037\033"
 3260      C4CBC4E7 
 3260      B1273328 
 3260      01011F1B 
 3261 01b7 3F8A1C6F 		.ascii	"?\212\034orS.\374\313\221\321\355T\037\271\364\3748"
 3261      72532EFC 
 3261      CB91D1ED 
 3261      541FB9F4 
ARM GAS  /tmp/ccmpYJuH.s 			page 84


 3261      FC38
 3262 01c9 523C8276 		.ascii	"R<\202v\365y1\366 \274\303\246\371\334|\202ow\336Yi"
 3262      F57931F6 
 3262      20BCC3A6 
 3262      F9DC7C82 
 3262      6F77DE59 
 3263 01de 1F7D0705 		.ascii	"\037}\007\005t\225\371\267z\037\201N|\200xO\004:\357"
 3263      7495F9B7 
 3263      7A1F814E 
 3263      7C80784F 
 3263      043AEF
 3264 01f1 8278EF12 		.ascii	"\202x\357\022/\373\235.\351\027\211\266\361\"\340;\340"
 3264      2FFB9D2E 
 3264      E91789B6 
 3264      F122E03B 
 3264      E0
 3265 0202 BA1F3AA3 		.ascii	"\272\037:\243Gc\245\216\221\330,\201\234\230\370\264"
 3265      4763A58E 
 3265      91D82C81 
 3265      9C98F8B4 
 3266 0212 9E360069 		.ascii	"\2366\000i\334\323^q\222\311{P\352`\205\011F\331\235"
 3266      DCD35E71 
 3266      92C97B50 
 3266      EA608509 
 3266      46D99D
 3267 0225 64742D72 		.ascii	"dt-r\314v!\275\023\205\347\0070;n\027\037\267\3271|"
 3267      CC7621BD 
 3267      1385E707 
 3267      303B6E17 
 3267      1FB7D731 
 3268 023a 2316735A 		.ascii	"#\026sZ\214<\032Z \316gC\370[N\037K\262\201\014\217"
 3268      8C3C1A5A 
 3268      20CE6743 
 3268      F85B4E1F 
 3268      4BB2810C 
 3269 024f 5320B79D 		.ascii	"S \267\235\302\367\271@\372\262\201@~ wr\201\334\315"
 3269      C2F7B940 
 3269      FAB28140 
 3269      7E207772 
 3269      81DCCD
 3270 0262 0F243BFA 		.ascii	"\017$;\372\240\010!\177\3364\237\267/;o\373\251/\374"
 3270      A008217F 
 3270      DE349FB7 
 3270      2F3B6FFB 
 3270      A92FFC
 3271 0275 DF0B1FB0 		.ascii	"\337\013\037\260\251\275\212O\000|\313\350,\266)\305"
 3271      A9BD8A4F 
 3271      007CCBE8 
 3271      2CB629C5 
 3272 0285 1F9728C1 		.ascii	"\037\227(\301\260\256)\241\200\0361BVpg\310\014j\226"
 3272      B0AE29A1 
 3272      801E3142 
 3272      567067C8 
 3272      0C6A96
 3273 0298 D5A8F8D6 		.ascii	"\325\250\370\326\372#\001USt]\365.\255XVki\246U\011"
 3273      FA230155 
 3273      53745DF5 
ARM GAS  /tmp/ccmpYJuH.s 			page 85


 3273      2EAD5856 
 3273      6B69A655 
 3274 02ad 651EC517 		.ascii	"e\036\305\027\014m\011m\360\327V\226{\274\236r%l*\206"
 3274      0C6D096D 
 3274      F0D75696 
 3274      7BBC9E72 
 3274      256C2A86 
 3275 02c1 A59886AA 		.ascii	"\245\230\206\252\250A+hh\201:\323\243\002\263\352\""
 3275      A8412B68 
 3275      68813AD3 
 3275      A302B3EA 
 3275      22
 3276 02d2 33F300CF 		.ascii	"3\363\000\317\326e\201J\257w\305J\220\254\310\337DB"
 3276      D665814A 
 3276      AF77C54A 
 3276      90ACC8DF 
 3276      4442
 3277 02e4 F5EAF61D 		.ascii	"\365\352\366\035u\032\011\231\215\246'\010\205[\002"
 3277      751A0999 
 3277      8DA62708 
 3277      855B02
 3278 02f3 A6B6D108 		.ascii	"\246\266\321\010\255\371\023_\015\353z\270^\321\032"
 3278      ADF9135F 
 3278      0DEB7AB8 
 3278      5ED11A
 3279 0302 2C65F5A6 		.ascii	",e\365\246j\305W\355_\347W|aCS\326\375\224\321\315\220"
 3279      6AC557ED 
 3279      5FE7577C 
 3279      614353D6 
 3279      FD94D1CD 
 3280 0317 59BB4D55 		.ascii	"Y\273MUI\252\352\037\022\221\260a\231\\\304W\335@\275"
 3280      49AAEA1F 
 3280      1291B061 
 3280      995CC457 
 3280      DD40BD
 3281 032a 55D2A8DD 		.ascii	"U\322\250\335\271\\\247\252\351\325\376Mnn\202\242Y"
 3281      B95CA7AA 
 3281      E9D5FE4D 
 3281      6E6E82A2 
 3281      59
 3282 033b EC2E2D07 		.ascii	"\354.-\007\311\200B]\323\303F#\374\000\245\311\256\331"
 3282      C980425D 
 3282      D3C34623 
 3282      FC00A5C9 
 3282      AED9
 3283              		.text
 3284              		.section	.gnu.lto_chThdCreateI.316.b3c7f88f2e9c83e9,"e",%progbits
 3285 0000 789C4D8E 		.ascii	"x\234M\2161K\303P\024\205\357\315MS\374\001\342\332"
 3285      314BC350 
 3285      1485EFCD 
 3285      4D53FC01 
 3285      E2DA
 3286 0012 C9E2605E 		.ascii	"\311\342`^m\264\350&\324\335\241\213\203Pj\032I\206"
 3286      6DB4E826 
 3286      D4DDA18B 
 3286      83506A1A 
 3286      4986
ARM GAS  /tmp/ccmpYJuH.s 			page 86


 3287 0024 D09A3C04 		.ascii	"\320\232<\004\247\276J]*X[7)EB\0067\035*\326-\213\340"
 3287      A7BE4A5D 
 3287      2A585B37 
 3287      29454206 
 3287      371D2AD6 
 3288 003b 28FE0951 		.ascii	"(\376\011Q\007\305IA\320\367\252`\207\013\367\236\363"
 3288      07C54941 
 3288      D0F7AA60 
 3288      870BF79E 
 3288      F3
 3289 004c BDF3CE27 		.ascii	"\275\363\316'\000\354\310\231\225\203\004\330\353\266"
 3289      00ECC899 
 3289      958304D8 
 3289      EBB6
 3290 005a 351042AC 		.ascii	"5\020B\254\2465lv\333\257wC\035op, 44l\340\011\365\011"
 3290      A6356C76 
 3290      DBAF7743 
 3290      1D6F702C 
 3290      2034346C 
 3291 0072 7B144B58 		.ascii	"{\024KX\377\333\0203s\211\020\037\007\247\207OF\377"
 3291      FFDB1033 
 3291      7389101F 
 3291      07A7874F 
 3291      46FF
 3292 0084 3CD163D2 		.ascii	"<\321c\322` \201+\304!\312d\220 m@VB\367/#!\246 &\302"
 3292      6020812B 
 3292      C421CA64 
 3292      90206D40 
 3292      5642F72F 
 3293 009e 6B9C60A4 		.ascii	"k\234`\244\260y9\003`\200z\251\332\310\271xH%\342\353"
 3293      B0793903 
 3293      60807AA9 
 3293      DAC8B978 
 3293      4825E2EB 
 3294 00b2 BB23C4ED 		.ascii	"\273#\304\355#\036\315\311\0122Y~7BCm\000\035Re\205"
 3294      231ECDC9 
 3294      0A32597E 
 3294      3742436D 
 3294      001D5265 
 3295 00c7 8E220138 		.ascii	"\216\"\0018&\355\367h\312\343\031E\224\2067l\235-E\204"
 3295      26EDF768 
 3295      CAE31945 
 3295      9486376C 
 3295      9D2D4584 
 3296 00db 2DD462D2 		.ascii	"-\324b\322\007$C#\222\215S\312\311Dd\214\015c\240\262"
 3296      07244323 
 3296      928D53CA 
 3296      C944648C 
 3296      0D63A0B2 
 3297 00ef 2416531A 		.ascii	"$\026S\032\336q_\031\252B\207\360?\035`\236\2715\337"
 3297      DE715F19 
 3297      AA4287F0 
 3297      3F1D609E 
 3297      B935DF
 3298 0102 615EC5AF 		.ascii	"a^\305\257\007\036ww\275\320u8\337c\305\265R\275b;\314"
 3298      071E7777 
 3298      BDD07538 
ARM GAS  /tmp/ccmpYJuH.s 			page 87


 3298      DF63C5B5 
 3298      52BD623B 
 3299 0117 F76D6B71 		.ascii	"\367mkq\241P\346N\310\363\2205Y\321\365\266\274\365"
 3299      A150E64E 
 3299      C8F39035 
 3299      59D1F5B6 
 3299      BCF5
 3300 0129 52399F33 		.ascii	"R9\2373-3\307j!\0138\013\003\233\331.w\003\247R\015"
 3300      2D33C76A 
 3300      210B380B 
 3300      039BD92E 
 3300      7703A752 
 3301 013e 4D1B8857 		.ascii	"M\033\210W\353\323\023\202\271]\250\344-ky\005~\000"
 3301      EBD31382 
 3301      B95DA8E4 
 3301      2D6B7905 
 3301      7E00
 3302 0150 67BE7276 		.ascii	"g\276rv"
 3303              		.text
 3304              		.section	.gnu.lto_chThdCreate.317.b3c7f88f2e9c83e9,"e",%progbits
 3305 0000 789C8D52 		.ascii	"x\234\215R]l\014Q\030\375\276\271\263\273-!B\220H$K"
 3305      5D6C0C51 
 3305      18FDBEB9 
 3305      B3BB2D21 
 3305      42904824 
 3306 0015 9448D8A9 		.ascii	"\224H\330\251\326\357\033\326\213\207\015\261/\036\232"
 3306      D6EF1BD6 
 3306      8B870DB1 
 3306      2F1E9A
 3307 0024 346B3AEC 		.ascii	"4k:\354&\306nf\206\350\223\321\365\223\360\260Z\211"
 3307      26C66E66 
 3307      86E893D1 
 3307      F593F0B0 
 3307      5A89
 3308 0036 95EEDA94 		.ascii	"\225\356\332\224\364\201'B\313\266\376\226\322\026i"
 3308      F4812742 
 3308      CBB6FE96 
 3308      D21669
 3309 0045 500F1522 		.ascii	"P\017\025\"hB\253\215\250V\244\021\302w\357\254\356"
 3309      6842AB8D 
 3309      A856A411 
 3309      C277EFAC 
 3309      EE
 3310 0056 12C4CBFD 		.ascii	"\022\304\313\3759\367|\347;\367\334;\312\000\326 \300"
 3310      39F77CE7 
 3310      3BF7DC3B 
 3310      CA00D620 
 3310      C0
 3311 0067 42004006 		.ascii	"B\000@\006\330P\177D\002\333\266\327z$\334_\177d\240"
 3311      D8507F44 
 3311      02DBB6D7 
 3311      7A24DC5F 
 3311      7F64A0
 3312 007a A745C6AB 		.ascii	"\247E\306\253(\000\204}\022\356\303\343,\315\260\201"
 3312      2800847D 
 3312      12EEC3E3 
 3312      2CCDB081 
ARM GAS  /tmp/ccmpYJuH.s 			page 88


 3313 008a 351359CE 		.ascii	"5\023Y\316\257\020\275\213s\266=~\2601\373\316\235>"
 3313      AF10BD8B 
 3313      73B63D7E 
 3313      B031FBCE 
 3313      9D3E
 3314 009c 9B939B99 		.ascii	"\233\223\233\231\004\031\"\264\"\266\2208\000\021\331"
 3314      041922B4 
 3314      22B69038 
 3314      0011D9
 3315 00ab 565844A4 		.ascii	"VXD\244GCY\333.\205f\306\360\012\026q\010\250\372<\313"
 3315      474359DB 
 3315      2E8566C6 
 3315      F00A1671 
 3315      08A8FA3C 
 3316 00c0 611A7C2C 		.ascii	"a\032|,#\362H\333\271\303S\217\355/!=l\303_\024\253"
 3316      23F248DB 
 3316      B9C3538F 
 3316      ED2F213D 
 3316      6CC35F14 
 3317 00d5 E2B3DD80 		.ascii	"\342\263\335\200\355\310\373\000HT\340\006Z#^C^\355"
 3317      EDC8FB00 
 3317      4854E006 
 3317      5A235E43 
 3317      5EED
 3318 00e7 26CBE303 		.ascii	"&\313\343\003\313\201\314g\310L\036I\277\357x\343\002"
 3318      CB81CC67 
 3318      C84C1E49 
 3318      BFEF78E3 
 3318      02
 3319 00f8 BC4E1813 		.ascii	"\274N\030\023\235N\0112\3675\336x\364\371\3039i\233"
 3319      9D4E0932 
 3319      F735DE78 
 3319      F4F9C339 
 3319      699B
 3320 010a 9B97F126 		.ascii	"\233\227\361&r)\247\031\346\220\240\252\324\334\274"
 3320      7229A719 
 3320      E690A0AA 
 3320      D4DCBC
 3321 0119 A9F10B89 		.ascii	"\251\361\013\211\353\255K:\342v\267=\301\205\002\327"
 3321      EBAD4B3A 
 3321      E276B73D 
 3321      C18502D7 
 3322 0129 B9ADE8FF 		.ascii	"\271\255\350\377\266\321\215\267\010\274\301\325\200"
 3322      B6D18DB7 
 3322      08BCC1D5 
 3322      80
 3323 0136 FCE1ED62 		.ascii	"\374\341\355b\177\351\301\301\205\216A\271`0\376\215"
 3323      7FE9C1C1 
 3323      858E41B9 
 3323      6030FE8D 
 3324 0146 0CDE21CC 		.ascii	"\014\336!\314\005\205~\357\377\253_\366+\365\353$\360"
 3324      05857EEF 
 3324      FFAB5FF6 
 3324      2BF5EB24 
 3324      F0
 3325 0157 EE44BF2E 		.ascii	"\356D\277.\321\2178HQ\235\357u\345\354\257\337\023v"
 3325      D18F3848 
ARM GAS  /tmp/ccmpYJuH.s 			page 89


 3325      519DEF75 
 3325      E5ECAFDF 
 3325      1376
 3326 0169 EEF094EC 		.ascii	"\356\360\224\354\273\324\207\036\251DB\314\242,r\204"
 3326      BBD4871E 
 3326      A94442CC 
 3326      A22C7284 
 3327 0179 04E30F6F 		.ascii	"\004\343\017o\313h\347\000\2161\311\331\304i3\204v\377"
 3327      CB68E700 
 3327      8E31C9D9 
 3327      C4693384 
 3327      76FF
 3328 018b 582F8AF9 		.ascii	"X/\212\371\313t>\315\237\030\37233\3704\326\232hH\236"
 3328      CB743ECD 
 3328      9F18FA33 
 3328      33F834D6 
 3328      9A68489E 
 3329 019f 408A5680 		.ascii	"@\212V\200\311\276RQ6\366:\363e\350\351\014J@\300\251"
 3329      C9BE5251 
 3329      36F63AF3 
 3329      65E8E90C 
 3329      4A40C0A9 
 3330 01b3 E193C8F1 		.ascii	"\341\223\310\361:/\345\302\177\216\214^\247\372\304"
 3330      3A2FE5C2 
 3330      7F8E8C5E 
 3330      A7FAC4
 3331 01c2 E597A790 		.ascii	"\345\227\247\220\342\021\264\253/K\261\003\341\003\326"
 3331      E211B4AB 
 3331      2F4BB103 
 3331      E103D6
 3332 01d1 CDE7E633 		.ascii	"\315\347\3463\374u\347\235\227\016\321?p\321R\346\177"
 3332      FC75E79D 
 3332      970ED13F 
 3332      70D152E6 
 3332      7F
 3333 01e2 F53E02CD 		.ascii	"\365>\002\315\370\000\361\236\010t\336Eq\356\026\207"
 3333      F800F19E 
 3333      0874DE45 
 3333      71EE1687 
 3334 01f2 3D4E9791 		.ascii	"=N\227\221W\231\306\341\022\340o\300uG[\023'\223e\216"
 3334      5799C6E1 
 3334      12E06FC0 
 3334      75475B13 
 3334      2793658E 
 3335 0206 91E42C81 		.ascii	"\221\344,\201\234\216\247\002\364\0020\202\007\232\226"
 3335      9C8EA702 
 3335      F4023082 
 3335      079A96
 3336 0215 9D61F201 		.ascii	"\235a\362\001\224\232\231'\303(\2733\214\226%\216\331"
 3336      949A9927 
 3336      C328BB33 
 3336      8C96258E 
 3336      D9
 3337 0226 76A43351 		.ascii	"v\2443Qx\351\011'\037\364\202`\226f\230\2073e~\227I"
 3337      78E90927 
 3337      1FF48260 
 3337      96669887 
ARM GAS  /tmp/ccmpYJuH.s 			page 90


 3337      33657E97 
 3338 023b 489F78B2 		.ascii	"H\237x\262`\265\374\314\244\235gr\307\271\325\315d\322"
 3338      60B5FCCC 
 3338      A49D6772 
 3338      C7B9D5CD 
 3338      64D2
 3339 024d F1D1FFB8 		.ascii	"\361\321\377\270o\201\230_\364\341oa~\232\235O\355\331"
 3339      6F81985F 
 3339      F4E16F61 
 3339      7E9A9D4F 
 3339      EDD9
 3340 025f 30A576D7 		.ascii	"0\245v\327)\374XH\2553\237\032\024\247\326UH\255\273"
 3340      29FC5848 
 3340      AD339F1A 
 3340      14A7D655 
 3340      48ADBB
 3341 0272 38B57C3E 		.ascii	"8\265|>\275\"\251\342PFx(\235\371P\232:R.\036\301(\326"
 3341      BD22A9E2 
 3341      50467828 
 3341      9DF9509A 
 3341      3A522E1E 
 3342 0289 35ADE0D7 		.ascii	"5\255\340\327\004\376\025\320y\375\272\034\337.U\302"
 3342      04FE15D0 
 3342      79FDBA1C 
 3342      DF2E55C2 
 3343 0299 515D5322 		.ascii	"Q]S\"!=fD\254\360\236\210\031\326,\253V\361o\010\306"
 3343      213D6644 
 3343      ACF09E88 
 3343      19D62CAB 
 3343      56F16F08 
 3344 02ae 42AAA6E8 		.ascii	"B\252\246\350\272Z\271|\331\312jK3\255\012X\344S\374"
 3344      BA5AB97C 
 3344      D9CA6A4B 
 3344      33AD0A58 
 3344      E453FC
 3345 02c1 E1C8B6C8 		.ascii	"\341\310\266\310\246`uE\271\257\322W\256DM\305\260\024"
 3345      A6607545 
 3345      B9AFD257 
 3345      AE444DC5 
 3345      B014
 3346 02d3 D3501535 		.ascii	"\323P\0255l\205\015-Tc\372T`VMlf\021\340\333\2762TQ"
 3346      6C850D2D 
 3346      5463FA54 
 3346      60564D6C 
 3346      6611E0DB 
 3347 02eb 59B97A0D 		.ascii	"Y\271z\015HV\354o\"\221]\352\316\3355\032\011\231\265"
 3347      4856EC6F 
 3347      22915DEA 
 3347      CEDD351A 
 3347      0999B5
 3348 02fe A62F0C9E 		.ascii	"\246/\014\236m!S\333lD\326\377\211\257Fu=\272K\321\366"
 3348      6D2153DB 
 3348      6C44D6FF 
 3348      89AF4675 
 3348      3DBA4BD1 
 3349 0313 5ACABA2D 		.ascii	"Z\312\272-\001\305\037\010n\014*\376\250\241)\033\177"
 3349      01C51F08 
ARM GAS  /tmp/ccmpYJuH.s 			page 91


 3349      6E0C2AFE 
 3349      A8A1291B 
 3349      7F
 3350 0324 CAE866C4 		.ascii	"\312\350f\304\254\336\241\252$\265\342\037\022\261\250"
 3350      ACDEA1AA 
 3350      24B5E21F 
 3350      12B1A8
 3351 0333 61995CC4 		.ascii	"a\231\\\304\037\330K\275U\322\250\336\263J\247\252i"
 3351      1FD84BBD 
 3351      55D2A8DE 
 3351      B34AA7AA 
 3351      69
 3352 0344 81E0162F 		.ascii	"\201\340\026/7A\321,\361\226\225\203d\200G\327\364\250"
 3352      3741D12C 
 3352      F1969583 
 3352      648047D7 
 3352      F4A8
 3353 0356 510B3F00 		.ascii	"Q\013?\000 m\267Q"
 3353      206DB751 
 3354              		.text
 3355              		.section	.gnu.lto_chThdCreateStatic.318.b3c7f88f2e9c83e9,"e",%progbits
 3356 0000 789C8D57 		.ascii	"x\234\215WkpTU\022>}\317<C\010\217<@A\035\330E\264\026"
 3356      6B705455 
 3356      123E7DCF 
 3356      3C43088F 
 3356      3C40411D 
 3357 0018 333C845D 		.ascii	"3<\204]\377\271\033\177h\225)\267\314\237\3751UT\034"
 3357      FFB91B7F 
 3357      689529B7 
 3357      CC9FFD31 
 3357      55541C
 3358 002b 4633550C 		.ascii	"F3U\014\223\235\031\037X\273\305%\011\311\012\270\341"
 3358      939D191F 
 3358      58BBC525 
 3358      09C90AB8 
 3358      E1
 3359 003c 11763084 		.ascii	"\021v0\204\000\263\243\206b\027J\301%\001\321\010\022"
 3359      00B3A386 
 3359      62174AC1 
 3359      2501D108 
 3359      12
 3360 004d 54DCE5A5 		.ascii	"T\334\345\245\004!\030\030\210F\2438\206\307\006\204"
 3360      04211818 
 3360      8846A338 
 3360      86C70684 
 3361 005d CA769F73 		.ascii	"\312v\237s\356\334\231L\262\361\317\275s\373~\375\365"
 3361      EEDC994C 
 3361      B2F1CFBD 
 3361      73FB7EFD 
 3361      F5
 3362 006e 77BAFB9C 		.ascii	"w\272\373\234\333S\224\307\330_\200\261\373\031c\300"
 3362      DB5394C7 
 3362      D85F80B1 
 3362      FB1963C0 
 3363 007e 19AC5BBB 		.ascii	"\031\254[\273Rc\272\256?j\327`\371\332\225\203\347\367"
 3363      5263BAAE 
 3363      3F6AD760 
ARM GAS  /tmp/ccmpYJuH.s 			page 92


 3363      F9DA9583 
 3363      E7F7
 3364 0090 58E01008 		.ascii	"X\340\020\010\003\260e\032,\203\365\274\211\303:\036"
 3364      03B0651A 
 3364      2C83F5BC 
 3364      89C33A1E 
 3365 00a0 47B045FD 		.ascii	"G\260E\375\002p=\330\256\353\003+\032W\365\331\232Z"
 3365      02703DD8 
 3365      AEEB032B 
 3365      1A57F5D9 
 3365      9A5A
 3366 00b2 DA2D71AE 		.ascii	"\332-q\256\261f\004\274\003\260\007\311\031C \377\003"
 3366      B16604BC 
 3366      03B007C9 
 3366      194320FF 
 3366      03
 3367 00c3 9B89A0E3 		.ascii	"\233\211\240\343G[u\335\311\342\234\303^H\303\240\301"
 3367      475B75DD 
 3367      C9E29CC3 
 3367      5E48C3A0 
 3367      C1
 3368 00d4 73AB9070 		.ascii	"s\253\220p!\211\353V8\013\264e\342,\236\272\"\302\275"
 3368      2189EB56 
 3368      380BB465 
 3368      E22C9EBA 
 3368      22C2BD
 3369 00e7 2870C9D5 		.ascii	"(p\311\325;\326\347\255\2018\267\302\376L\234\325\323"
 3369      3BD6E7AD 
 3369      8138B7C2 
 3369      FE4C9CD5 
 3369      D3
 3370 00f8 20707F92 		.ascii	" p\177\222|}\212\317\006\0072q6\3176\201[&qwR\372\336"
 3370      7C7D8ACF 
 3370      06073271 
 3370      36CF3681 
 3370      5B267177 
 3371 010f 1FAAEF9F 		.ascii	"\037\252\357\237Er%\325@\267\031\024\375\325\035uyk"
 3371      457225D5 
 3371      40B71914 
 3371      FDD51D75 
 3371      796B
 3372 0121 963B70C1 		.ascii	"\226;p\301\360\001d,\331\263\257\310\306\340 P\"\030"
 3372      F001642C 
 3372      D9B3AFC8 
 3372      C6E02050 
 3372      2218
 3373 0133 A354D918 		.ascii	"\243T\331\030\376\006\370Px\3330\247\003]\363\031f\267"
 3373      FE06F850 
 3373      78DB30A7 
 3373      035DF319 
 3373      66B7
 3374 0145 19B3A52C 		.ascii	"\031\263\245,M\177=\334cep\030m\\\204\332)\300$l\240"
 3374      4D7F3DDC 
 3374      63657018 
 3374      6D5C84DA 
 3374      29C0246C 
 3375 015a 6BD5B963 		.ascii	"k\325\271cw7\351\224];\034\001\242\222\301\340#\\\276"
ARM GAS  /tmp/ccmpYJuH.s 			page 93


 3375      7737E994 
 3375      5D3B1C01 
 3375      A292C1E0 
 3375      235CBE
 3376 016d DDB3E91E 		.ascii	"\335\263\351\036%j\240\277\376\300;\263\016U\353\037"
 3376      256AA0BF 
 3376      FEC03BB3 
 3376      0E55EB1F 
 3377 017d E9292C33 		.ascii	"\351),3\261\262\034\"\376W\2156\370\030\215\035\304"
 3377      B1B21C22 
 3377      FE578D36 
 3377      F8188D1D 
 3377      C4
 3378 018e C6501F7C 		.ascii	"\306P\037|\222\322Gb-\360\251\371`\205\177\233b\216"
 3378      92D24762 
 3378      2DF0A9F9 
 3378      60857F9B 
 3378      628E
 3379 01a0 7FB0A901 		.ascii	"\177\260\251\001\244\030\271r\253\021\340?(F\363\034"
 3379      A418B972 
 3379      AB11E03F 
 3379      2846F31C 
 3380 01b0 9E6C6468 		.ascii	"\236ldhU_\355p\031B\234\352\213]\232\301\232l=\324("
 3380      555FED70 
 3380      19429CEA 
 3380      8B5D9AC1 
 3380      9A6C3DD4 
 3381 01c5 6AE980E3 		.ascii	"j\351\200\343\351\224'\310\3449\236M)q\314\304IJ\311"
 3381      E99427C8 
 3381      E4399E4D 
 3381      2971CCC4 
 3381      494AC9
 3382 01d8 559DB800 		.ascii	"U\235\270\000\372D\2431Rd\247\250W<]\331d\231\015\204"
 3382      FA44A331 
 3382      5264A7A8 
 3382      573C5DD9 
 3382      64990D84 
 3383 01ec B8B4447D 		.ascii	"\270\264D}\267\202\303g\000'\001\216\201,\231U\345\005"
 3383      B782C367 
 3383      0027018E 
 3383      812C9955 
 3383      E505
 3384 01fe 3E079517 		.ascii	">\007\225\027\276'\265\220\201\344\372\276c\223dz\234"
 3384      BE27B590 
 3384      81E4FABE 
 3384      6393647A 
 3384      9C
 3385 020f D0099449 		.ascii	"\320\011\224IE{\006\303;=\211\251F\2550\221\013\020"
 3385      457B06C3 
 3385      3B3D89A9 
 3385      46AD3091 
 3385      0B10
 3386 0221 58E33290 		.ascii	"X\3432\220\314D\232\002Z\257\317\201/\320v\232\250D"
 3386      CC449A02 
 3386      5AAFCF81 
 3386      2FD0769A 
 3386      A844
ARM GAS  /tmp/ccmpYJuH.s 			page 94


 3387 0233 A1CE427A 		.ascii	"\241\316Bzml\320%5\\L\327\320\366\226\253\243Z\177<"
 3387      6D6CD025 
 3387      355C4CD7 
 3387      D0F696AB 
 3387      A35A7F3C 
 3388 0247 CE73E03C 		.ascii	"\316s\340<\020H1\177\211\032r<-\303i\220Hf\"\323\222"
 3388      1048317F 
 3388      891A723C 
 3388      2DC36990 
 3388      486622D3 
 3389 025c 70630E74 		.ascii	"pc\016t+\0156\241\341\002\250\260\364\372\314\025\253"
 3389      2B0D36A1 
 3389      E102A8B0 
 3389      F4FACC15 
 3389      AB
 3390 026d CC8CDD6C 		.ascii	"\314\214\335l\346\025w\320\226@\233\203\231\275\371"
 3390      E61577D0 
 3390      96409B83 
 3390      99BDF9
 3391 027c FDCFEACD 		.ascii	"\375\317\352\315\326\333\330\233\227\321x)\325\233="
 3391      D6DBD89B 
 3391      97D17829 
 3391      D59B3D
 3392 028b A2371103 		.ascii	"\2427\021\003\270\255v\235\264\266\353\267\007\353\365"
 3392      B8AD769D 
 3392      B4B6EBB7 
 3392      07EBF5
 3393 029a F6BAB1AB 		.ascii	"\366\272\261\253\217&\222\275\277\232\011\000\373@\003"
 3393      8F2692BD 
 3393      BF9A0900 
 3393      FB4003
 3394 02a9 68050B6E 		.ascii	"h\005\013nWf\305\313\030\033^r\355tq\320\305I;2\027"
 3394      5766C5CB 
 3394      181B5E72 
 3394      ED7471D0 
 3394      C5493B32 
 3395 02be E03DC803 		.ascii	"\340=\310\003h\207\011\000\357B>\276\320\012\360\342"
 3395      68870900 
 3395      EF423EBE 
 3395      D00AF0E2 
 3396 02ce 2CC44B0E 		.ascii	",\304K\016c\365\234N@\335\002z;ck\270&\037\252\361\341"
 3396      63F59C4E 
 3396      40DD027A 
 3396      3B636BB8 
 3396      261FAAF1 
 3397 02e3 5BD0139B 		.ascii	"[\320\023\233N\203\2707\027\321mz\352\222xo\250\241"
 3397      4E83B837 
 3397      17D16D7A 
 3397      EA92786F 
 3397      A8A1
 3398 02f5 5F18AEB6 		.ascii	"_\030\256\2665\254\213\376\015pO\013c\264\323)x\256"
 3398      35AC8BFE 
 3398      0D704F0B 
 3398      63B4D329 
 3398      78AE
 3399 0307 F66CB9F5 		.ascii	"\366l\271\365\355\231|\334z\222\265o#\220\275\312\205"
 3399      ED997CDC 
ARM GAS  /tmp/ccmpYJuH.s 			page 95


 3399      7A92B56F 
 3399      2390BDCA 
 3399      85
 3400 0318 1B92CE54 		.ascii	"\033\222\316T;\270\244w\364_\335\233\001\367\245\200"
 3400      3BB8A477 
 3400      F45FDD9B 
 3400      01F7A580 
 3401 0328 EDEF76C2 		.ascii	"\355\357v\302Q`?@\325t\312D\217\206\331\232vC\253\305"
 3401      51603F40 
 3401      D574CA44 
 3401      8F86D99A 
 3401      7643ABC5 
 3402 033c F61D8B3F 		.ascii	"\366\035\213?-t\212\367\002\303;|\003\360\265(\316\264"
 3402      2D748AF7 
 3402      02C33B7C 
 3402      03F0B528 
 3402      CEB4
 3403 034e 9BE27D9E 		.ascii	"\233\342}\236x\331'\243$/oi\354s0\332\374\304\333\337"
 3403      78D927A3 
 3403      242F6F69 
 3403      EC7330DA 
 3403      FCC4DBDF 
 3404 0362 D6B0313A 		.ascii	"\326\2601:C\012\211\012\325\375\333.\355-\305r\262+"
 3404      430A890A 
 3404      D5FDDB2E 
 3404      ED2DC572 
 3404      B22B
 3405 0374 50DD547B 		.ascii	"P\335T{\336\032\343\226\230q\354\267\016\016\016\216"
 3405      DE1AE396 
 3405      9871ECB7 
 3405      0E0E0E8E 
 3406 0384 A3176FD7 		.ascii	"\243\027o\327\316\217qg\214k\370Vj?\010hP\353$\337\252"
 3406      CE8F7167 
 3406      8C6BF856 
 3406      6A3F0868 
 3406      50EB24DF 
 3407 0399 C6EDE3D4 		.ascii	"\306\355\343\324GB\023b\336\240oI\257\026\347\343\020"
 3407      47421362 
 3407      DEA06F49 
 3407      AF16E7E3 
 3407      10
 3408 03aa 085780CD 		.ascii	"\010W\200\315\306gT7\036~\200\315tP\"\233\360\337\""
 3408      C6675437 
 3408      1E7E80CD 
 3408      7450229B 
 3408      F0DF22
 3409 03bd FC310432 		.ascii	"\3741\0042bt\247\014\335\245BW%W\202\301\3460\311\320"
 3409      6274A70C 
 3409      DDA54257 
 3409      255782C1 
 3409      E630C9D0 
 3410 03d1 A4F82640 		.ascii	"\244\370&@?\362\341\352\324\363\030\270\212\317\032"
 3410      3FF2E1EA 
 3410      D4F318B8 
 3410      8ACF1A
 3411 03e0 F15B6585 		.ascii	"\361[e\205\220\344v\035\222\333b<\327d\2440cL\245\350"
 3411      90E4761D 
ARM GAS  /tmp/ccmpYJuH.s 			page 96


 3411      92DB623C 
 3411      D764A430 
 3411      634CA5E8 
 3412 03f4 39113DE0 		.ascii	"9\021=\340zJ\250\035n \021'\"[&\221=\306\363\262\245"
 3412      7A4AA81D 
 3412      6E201127 
 3412      225B2691 
 3412      3DC6F3B2 
 3413 0409 65B90FA0 		.ascii	"e\271\017\240\273\205\334\355\231\356\216\032\250\022"
 3413      BB85DCED 
 3413      99EE8E1A 
 3413      A812
 3414 0417 90FC664C 		.ascii	"\220\374fL\341\317 \372\011\211\254D\344\310\354\273"
 3414      E1CF20FA 
 3414      0989AC44 
 3414      E4C8ECBB 
 3415 0427 D85ED92B 		.ascii	"\330^\331+\273;A\026\345\230*\012\376<I\214\323\226"
 3415      BB3B4116 
 3415      E5982A0A 
 3415      FE3C498C 
 3415      D396
 3416 0439 73D11035 		.ascii	"s\321\0205P\213\265\230\032\347\005p\007\250\326\010"
 3416      508BB598 
 3416      1AE70570 
 3416      07A8D608 
 3417 0449 D96AC773 		.ascii	"\331j\307s.\306'\020\303\245\037;^\005<\337\004\333"
 3417      2EC62710 
 3417      C3A51F3B 
 3417      5E053CDF 
 3417      04DB
 3418 045b F50E27EE 		.ascii	"\365\016'\356|Q\322o\012\204,\226YD*\252\025\006Q\224"
 3418      7C51D26F 
 3418      0A842C96 
 3418      59442AAA 
 3418      15065194 
 3419 046f 8D0E45C5 		.ascii	"\215\016E\305\221\370o\207p\352\357\035\321\251\020"
 3419      91F86F87 
 3419      70EAEF1D 
 3419      D1A910
 3420 047e 966B9B31 		.ascii	"\226k\2331\033\350D\331/\002\331\0007Gu\234\0045\350"
 3420      1BE844D9 
 3420      2F02D900 
 3420      3747759C 
 3420      0435E8
 3421 0491 E8301DE5 		.ascii	"\3500\035\345\006]\177dt\231u\350\350L\227\271\341\310"
 3421      065D7F64 
 3421      749975E8 
 3421      E84C97B9 
 3421      E1C8
 3422 04a3 68D126C3 		.ascii	"h\321&\303+\350\224cD\233\254\242m\032\325\361.X\215"
 3422      2BE89463 
 3422      449BACA2 
 3422      6D1AD5F1 
 3422      2E588D
 3423 04b6 8E630CC7 		.ascii	"\216c\014\307\\\345\270wT\307\273\241\036\035s\315\365"
 3423      5CE5B877 
 3423      54C7BBA1 
ARM GAS  /tmp/ccmpYJuH.s 			page 97


 3423      1E1D73CD 
 3423      F5
 3424 04c7 C94AB48D 		.ascii	"\311J\264\215\272>\007\254C\307\261\344(j<\360\335\006"
 3424      BA3E07AC 
 3424      43C7B1E4 
 3424      286A3CF0 
 3424      DD06
 3425 04d9 7B7A95F1 		.ascii	"{z\225\361\034\221\034\015\252\303X\326~\324`\003R\344"
 3425      1C911C0D 
 3425      AAC358D6 
 3425      7ED46003 
 3425      52E4
 3426 04eb 1185DA15 		.ascii	"\021\205\332\025S\304\256\250\001\344\237\322\302\031"
 3426      53C4AEA8 
 3426      01E49FD2 
 3426      C219
 3427 04f9 331CA7C2 		.ascii	"3\034\247\302F\015\242Z\332\336\273\007^C\337q2\274"
 3427      460DA25A 
 3427      DADEBB07 
 3427      5E43DF71 
 3427      32BC
 3428 050b ECE97BA1 		.ascii	"\354\351{\241QS\235$:\376]<5\362G\240k\312\242\333l"
 3428      51539D24 
 3428      3AFE5D3C 
 3428      35F247A0 
 3428      6BCAA2DB 
 3429 0520 D0A5C435 		.ascii	"\320\245\3045\243e<Y\322\367\311p\253\330\212\300\011"
 3429      A3653C59 
 3429      D2F7C970 
 3429      ABD88AC0 
 3429      09
 3430 0531 B2D0F9A9 		.ascii	"\262\320\371\251\350\215\3164|~\006>f\254Z\235c&~8\251"
 3430      E88DCE34 
 3430      7C7E063E 
 3430      66AC5A9D 
 3430      63267E38 
 3431 0546 F12CA9AF 		.ascii	"\361,\251\257gI}\303\220\252\030ce\242\002\237\247*"
 3431      67497DC3 
 3431      90AA1863 
 3431      65A2029F 
 3431      A72A
 3432 0558 10E35985 		.ascii	"\020\343Y\205T\214-\005q~\037\264 \301D\231L\252/\315"
 3432      548C2D05 
 3432      717E1FB4 
 3432      20C14499 
 3432      4CAA2FCD 
 3433 056c 0FB05D65 		.ascii	"\017\260]e\023\267\364\027D >\025\027\337<\275\005?"
 3433      13B7F417 
 3433      44203E15 
 3433      17DF3CBD 
 3433      053F
 3434 057e 34676589 		.ascii	"4ge\211\317\341\247\342\234\352\224<UC'<`\204\272\217"
 3434      CFE1A7E2 
 3434      9CEA943C 
 3434      5543273C 
 3434      6084BA8F 
 3435 0592 42EDD0C4 		.ascii	"B\355\320\304\312[\304\361\374\017\214\223O\203\205"
ARM GAS  /tmp/ccmpYJuH.s 			page 98


 3435      CA5BC4F1 
 3435      FC0F8C93 
 3435      4F8385
 3436 05a1 E4AB4A6E 		.ascii	"\344\253Jn\373\373\201'q\317\323\340!\030\317\332S\212"
 3436      FBFB8127 
 3436      71CFD3E0 
 3436      2118CFDA 
 3436      538A
 3437 05b3 0B4750DC 		.ascii	"\013GP\334\213\212]\260\023\231\0122\024\347\300.Sq"
 3437      8B8A5DB0 
 3437      13990A32 
 3437      14E7C02E 
 3437      5371
 3438 05c5 371128C5 		.ascii	"7\021(\305\375\211\013\023q\216\220GEb#\300\305!\222"
 3438      FD890B13 
 3438      718E9047 
 3438      456223C0 
 3438      C52192
 3439 05d8 73609611 		.ascii	"s`\226\021\313E\261\336J\227\3746\006*\2449D\021&n&"
 3439      CB45B1DE 
 3439      4A97FC36 
 3439      062AA439 
 3439      4411266E 
 3440 05ed 269BEE23 		.ascii	"&\233\356#8\355A\247\"\323\011\327yJ\256\263[\255\363"
 3440      38ED41A7 
 3440      22D309D7 
 3440      794AAEB3 
 3440      5BADF3
 3441 0600 9A389963 		.ascii	"\2328\231c\177\226\242\216\010\325\027vGW\323\356\241"
 3441      7F96A28E 
 3441      08D51776 
 3441      4757D3EE 
 3441      A1
 3442 0611 F9CF384A 		.ascii	"\371\3178J\325\217\317\214\037\346\307\257\015\217\336"
 3442      D58FCF8C 
 3442      1FE6C7AF 
 3442      0D8FDE
 3443 0620 24AC7031 		.ascii	"$\254p1\3214\323\232i\252P\337\260\351$\352\027\002"
 3443      D134D39A 
 3443      69AA50DF 
 3443      B0E924EA 
 3443      1702
 3444 0632 B56F12DD 		.ascii	"\265o\022\335v\2675\234\261\340\220$L\357G\243J\304"
 3444      76B7359C 
 3444      B1E09024 
 3444      4CEF47A3 
 3444      4AC4
 3445 0644 89CE5F8A 		.ascii	"\211\316_\212\373\371N\0302V\\\233\244\346\207\263}"
 3445      FBF94E18 
 3445      32565C9B 
 3445      A4E687B3 
 3445      7D
 3446 0655 383F5C92 		.ascii	"8?\\\222\216?\232\363\303e5?\260\364\371\241\307\234"
 3446      8E3F9AF3 
 3446      C365353F 
 3446      B0F4F9A1 
 3446      C79C
ARM GAS  /tmp/ccmpYJuH.s 			page 99


 3447 0667 1FBE4A9F 		.ascii	"\037\276J\237\037\324\244\320\252\261!\343A\222\306"
 3447      1FD4A4D0 
 3447      AAB121E3 
 3447      4192C6
 3448 0676 83CB6A3C 		.ascii	"\203\313j<\330zu\277\225\216\216~\374@\320'\237\376"
 3448      D87A75BF 
 3448      958E8E7E 
 3448      FC40D027 
 3448      9FFE
 3449 0688 DFD47390 		.ascii	"\337\324s\220\203QU;=>\344\256\010\006|n\177y\2402\344"
 3449      8351553B 
 3449      3D3EE4AE 
 3449      08067C6E 
 3449      7F79A032 
 3450 069d 8F54BCE0 		.ascii	"\217T\274\340\017W\370\"\221\245\356\222\307\312*\313"
 3450      0F57F822 
 3450      91A5EE92 
 3450      C7CA2ACB 
 3451 06ad BD3E7720 		.ascii	"\275>w \340\235\367\360\234\005\013#\276pd.\233Y\354"
 3451      E09DF7F0 
 3451      9C050B23 
 3451      BE70642E 
 3451      9B59EC
 3452 06c0 2EA9F03F 		.ascii	".\251\360?\343\177\252l\341\334\331\305\363\212g\273"
 3452      E37FAA6C 
 3452      E1DCD9C5 
 3452      F38A67BB 
 3453 06d0 83617728 		.ascii	"\203aw(\342\016\207\274noE\244\"\344+_\024.\3662\376"
 3453      E20E87BC 
 3453      6E6F45A4 
 3453      22E42B5F 
 3453      142EF632 
 3454 06e5 62B8B230 		.ascii	"b\270\2620\315P\374\354\202\362\271\363\346\375\346"
 3454      CD50FCEC 
 3454      82F2B9F3 
 3454      E6FDE6
 3455 06f4 116609FB 		.ascii	"\021f\011\373_\366Y0VP\253|\226\227\207\236\323\"\225"
 3455      5FF65930 
 3455      5650AB7C 
 3455      9697879E 
 3455      D32295
 3456 0707 23B1FA97 		.ascii	"#\261\372\227x\027?\277\310\207\314\341\245\341\342"
 3456      78173FBF 
 3456      C887CCE1 
 3456      A5E1E2
 3457 0716 0A667FA6 		.ascii	"\012f\177\246<\354\373}\310\377\273\341\360\336` \020"
 3457      3CECFB7D 
 3457      C8FFBBE1 
 3457      F0DE6020 
 3457      10
 3458 0727 5CE2F6BD 		.ascii	"\\\342\366\275\024q\377\366\351RwIi\331\023e\356\222"
 3458      1471FFF6 
 3458      E9527749 
 3458      69D91365 
 3458      EE92
 3459 0739 60C8E77E 		.ascii	"`\310\347~\302\240\011\204\375\341\205\317y\275H5\377"
 3459      C2A00984 
ARM GAS  /tmp/ccmpYJuH.s 			page 100


 3459      FDE185CF 
 3459      79BD4835 
 3459      FF
 3460 074a FF505406 		.ascii	"\377PT\006C\2210\221\224\224\276\204\261\275\310\261"
 3460      43913091 
 3460      9494BE84 
 3460      B1BDC8B1 
 3461 075a F0855F07 		.ascii	"\360\205_\007\320\313\262\244<\340\343\221\305\225\017"
 3461      D0CBB2A4 
 3461      3CE0E391 
 3461      C5950F
 3462 0769 8CAED85B 		.ascii	"\214\256\330[\261\010=x\344\217\225\343K\313\236v\221"
 3462      B1083D78 
 3462      E48F95E3 
 3462      4BCB9E76 
 3462      91
 3463 077a 745CF52C 		.ascii	"t\\\365,\327\214\331L\0131{\300\027\010\206\2262\373"
 3463      D78CD94C 
 3463      0B317BC0 
 3463      17088696 
 3463      32FB
 3464 078c 922071B2 		.ascii	"\222 q\262\377\001<\332\3372"
 3464      FF013CDA 
 3464      DF32
 3465              		.text
 3466              		.section	.gnu.lto_chThdStart.319.b3c7f88f2e9c83e9,"e",%progbits
 3467 0000 789C8D53 		.ascii	"x\234\215SMHTQ\024>\347\335\231Q\027A\020\026\010\301"
 3467      4D485451 
 3467      143EE7DD 
 3467      99511741 
 3467      101608C1 
 3468 0014 14590436 		.ascii	"\024Y\0046\317\374\253v\325\264i1\024\316&p!\323\363"
 3468      CFFCAB76 
 3468      D5B46931 
 3468      14CE2670 
 3468      21D3F3
 3469 0027 D50CF41A 		.ascii	"\325\014\364\032y\357%\272\362\245Ya\2131\203\306t\032"
 3469      79EF25BA 
 3469      F2A55961 
 3469      8B3183C6 
 3469      741A
 3470 0039 AC260882 		.ascii	"\254&\010\202~\240\037\323\312)\255\214\026f-&\212\020"
 3470      7EA01FD3 
 3470      CA29AD8C 
 3470      16662D26 
 3470      8A10
 3471 004b 8CC294C8 		.ascii	"\214\302\224\310\264\205\244Y\347\33679CT\264\231\373"
 3471      B485A459 
 3471      E7DE3739 
 3471      4354B499 
 3471      FB
 3472 005c EE77BFF3 		.ascii	"\356w\277\363\235\357|\367\316q\006P\216\000k\001\000"
 3472      9DEF7CF7 
 3472      CE710650 
 3472      8E006B01 
 3472      00
 3473 006d 1960FBC9 		.ascii	"\031`\373\311V\011,\313\332\232#\341\341\223\255\251"
ARM GAS  /tmp/ccmpYJuH.s 			page 101


 3473      56092CCB 
 3473      DA9A23E1 
 3473      E193ADA9 
 3474 007d F11B0EBC 		.ascii	"\361\033\016\274\203\002@h\224\260\021O\261\030\303"
 3474      83024068 
 3474      94B0114F 
 3474      B118C3
 3475 008c 769620B2 		.ascii	"v\226 \262#\375\205\350^\237\264\254\331\226\316\271"
 3475      23FD85E8 
 3475      5E9FB4AC 
 3475      D996CEB9 
 3476 009c 4957EC52 		.ascii	"IW\354R\322\221`\022\304\211p\023\361\006\211\003\020"
 3476      D2916012 
 3476      C4897013 
 3476      F1068903 
 3476      10
 3477 00ad 91ED8175 		.ascii	"\221\355\201uDz>\324cYy@\014\274\215Y\034\002\252^\346"
 3477      447A3ED4 
 3477      63597940 
 3477      0CBC8D59 
 3477      1C02AA5E 
 3478 00c2 03B88057 		.ascii	"\003\270\200W\002HT\"\276\021{\221\327\273\310\304\354"
 3478      02485422 
 3478      BE117B91 
 3478      D7BBC8C4 
 3478      EC
 3479 00d3 4239909D 		.ascii	"B9\220\2358\311\247\221\330\307\201\367N\300>\302\230"
 3479      38C9A791 
 3479      D8C781F7 
 3479      4EC03EC2 
 3479      98
 3480 00e4 E8724690 		.ascii	"\350rF\220y\247\331\366\023o\206\013b\026\267\303\360"
 3480      79A7D9F6 
 3480      136F860B 
 3480      6216B7C3 
 3480      F0
 3481 00f5 1E7229BB 		.ascii	"\036r)\273\031\336G\202\252\272V\022\263\2203;\"\367"
 3481      19DE4782 
 3481      AABA5612 
 3481      B390333B 
 3481      22F7
 3482 0107 6E160D34 		.ascii	"n\026\0154[C\326\"\0272\\\333\277\350\377\241\323\205"
 3482      5B43D622 
 3482      17325CDB 
 3482      BFE8FFA1 
 3482      D385
 3483 0119 FD04DEE5 		.ascii	"\375\004\336\345j\334+&\263\375\305\306\273\313l\203"
 3483      6ADC2B26 
 3483      B3FDC5C6 
 3483      BBCB6C83 
 3484 0129 8E8CC1E6 		.ascii	"\216\214\301\346\357d\360!aN\310\364\373\364_\375z\346"
 3484      EF64F021 
 3484      614EC8F4 
 3484      FBF45FFD 
 3484      7AE6
 3485 013b A9DF2081 		.ascii	"\251\337 \201\003\213\375\036\211~\234s\365\2053i\315"
 3485      038BFD1E 
ARM GAS  /tmp/ccmpYJuH.s 			page 102


 3485      897E9C73 
 3485      F5853369 
 3485      CD
 3486 014c FF8858C9 		.ascii	"\377\210X\311cK\346N\234\032\035\227\\\022b\017\035"
 3486      634BE64E 
 3486      9C1A1D97 
 3486      5C12620F 
 3486      1D
 3487 015d 4518BF42 		.ascii	"E\030\277B\313\201V\022\240\215I\366\246\2316\023h\215"
 3487      CB815612 
 3487      A08D49F6 
 3487      A6993613 
 3487      688D
 3488 016f CDA590AF 		.ascii	"\315\245\220\2573\027#\355\321\323H\321\0114\232\312"
 3488      331723ED 
 3488      D1D348D1 
 3488      09349ACA 
 3489 017f 13C733D7 		.ascii	"\023\3073\327\343\337&^-\243\011\005\3345\331\201\034"
 3489      E3DF265E 
 3489      2DA30905 
 3489      DC35D981 
 3489      1C
 3490 0190 6F72D3DC 		.ascii	"or\323\334\374\256\031\272\355\352\323\267F\317\"\215"
 3490      FCAE19BA 
 3490      EDEAD3B7 
 3490      46CF228D 
 3491 01a0 2F687DA3 		.ascii	"/h}\243y\370\000\34136\255\346\346:\371\355\255\272"
 3491      79F800E1 
 3491      3336ADE6 
 3491      E63AF9ED 
 3491      ADBA
 3492 01b2 2C1DCD4D 		.ascii	",\035\315M0\376H\034\374u\015!\320\212O\021\237\210"
 3492      30FE481C 
 3492      FC750D21 
 3492      D08A4F11 
 3492      9F88
 3493 01c4 C0565D11 		.ascii	"\300V]\021\347Nq\370\314\3562u-\3369\231\013<c\256;"
 3493      E74E71F8 
 3493      CCEE3275 
 3493      2DDE3999 
 3493      0B3C63AE 
 3494 01d9 7D31D211 		.ascii	"}1\322\021-\264\215D\227\013\344\334\273~\037%\314\277"
 3494      2DB48D44 
 3494      970BE4DC 
 3494      BB7E1F25 
 3494      CCBF
 3495 01eb 572FFE8C 		.ascii	"W/\376\214-\254\200)lq\303\021\224\022\314\025g\224"
 3495      2DAC8029 
 3495      6C71C311 
 3495      9412CC15 
 3495      6794
 3496 01fd D4792671 		.ascii	"\324y&q\277\364l\023,W\220\332\012\322s\367\362\271"
 3496      BFF46C13 
 3496      2C5790DA 
 3496      0AD273F7 
 3496      F2B9
 3497 020f 1FDACEFB 		.ascii	"\037\332\316\373\243Q\273\327\330Hj\215X\337\246~W\377"
ARM GAS  /tmp/ccmpYJuH.s 			page 103


 3497      A351BBD7 
 3497      D8486A8D 
 3497      58DFA67E 
 3497      57FF
 3498 0221 BA229DCC 		.ascii	"\272\"\235\314\353IJf\300.\374\222If0\235\014d'\363"
 3498      EB494A66 
 3498      C02EFC92 
 3498      4966309D 
 3498      0C6427F3 
 3499 0235 2893CCE3 		.ascii	"(\223\314\343\354d\322\031\014\2134\262\007\237\342"
 3499      EC64D219 
 3499      0C8B34B2 
 3499      079FE2
 3500 0244 830FA607 		.ascii	"\203\017\246\007\357\2760\342\344cNcSw9\215\302\377"
 3500      EFBE30E2 
 3500      E4634E63 
 3500      5377398D 
 3500      C2FF
 3501 0256 441186F6 		.ascii	"D\021\206\366M6%\371v\203\034\014k\252\034\012h\265"
 3501      4D3625F9 
 3501      76831C0C 
 3501      6BAA1C0A 
 3501      68B5
 3502 0268 7AC80CD6 		.ascii	"z\310\014\326\205\214\240j\232\015\262w\207\2776\240"
 3502      858CA06A 
 3502      9A0DB277 
 3502      87BF36A0 
 3503 0278 A8B2A629 		.ascii	"\250\262\246)\245e\033+\252M\3250K`\235G\366\006C{C"
 3503      A5651B2B 
 3503      AA4DD530 
 3503      4B609D47 
 3503      F606437B 
 3504 028d BBFCD525 		.ascii	"\273\374\325%\305\236RO\261\0346d\335\224\015]\221\225"
 3504      C59E524F 
 3504      B11C3664 
 3504      DD940D5D 
 3504      9195
 3505 029f A019D4D5 		.ascii	"\240\031\324\325@\215\341Q@2k\363\263\366\236}\025\201"
 3505      408DE151 
 3505      40326BF3 
 3505      B3F69E7D 
 3505      1581
 3506 02b1 92D2D2CD 		.ascii	"\222\322\322\315[\376*\020:\250\0348T\243\222\210\321"
 3506      5BFE2A10 
 3506      3AA81C38 
 3506      54A39288 
 3506      D1
 3507 02c2 60788290 		.ascii	"`x\202\220\2637`\250\273\365\320\366?\361\225\260\246"
 3507      B33760A8 
 3507      BBF5D0F6 
