ARM GAS  /tmp/ccveU0Ai.s 			page 1


   1              		.cpu cortex-m4
   2              		.eabi_attribute 20, 1
   3              		.eabi_attribute 21, 1
   4              		.eabi_attribute 23, 3
   5              		.eabi_attribute 24, 1
   6              		.eabi_attribute 25, 1
   7              		.eabi_attribute 26, 1
   8              		.eabi_attribute 30, 2
   9              		.eabi_attribute 34, 1
  10              		.eabi_attribute 18, 4
  11              		.file	"hal_st.c"
  12              		.file 1 "/usr/share/gcc-arm-none-eabi-10-2020-q4-major/arm-none-eabi/include/machine/_default_type
  13              		.file 2 "/usr/share/gcc-arm-none-eabi-10-2020-q4-major/arm-none-eabi/include/sys/_stdint.h"
  14              		.file 3 "./ChibiOS_20.3.0/os/rt/include/chtime.h"
  15              		.file 4 "./ChibiOS_20.3.0/os/hal/ports/STM32/LLD/TIMv1/stm32_tim.h"
  16              		.file 5 "./ChibiOS_20.3.0/os/hal/src/hal_st.c"
  17              		.file 6 "./ChibiOS_20.3.0/os/hal/ports/STM32/LLD/TIMv1/hal_st_lld.h"
  18              		.section	.gnu.debuglto_.debug_info,"e",%progbits
  19              	.Ldebug_info0:
  20              		.hidden	hal_st.c.a9e171fe
  21              		.weak	hal_st.c.a9e171fe
  22              	hal_st.c.a9e171fe:
  23 0000 11030000 		.4byte	0x311
  24 0004 0400     		.2byte	0x4
  25 0006 00000000 		.4byte	.Ldebug_abbrev0
  26 000a 04       		.byte	0x4
  27 000b 01       		.uleb128 0x1
  28 000c 2C000000 		.4byte	.LASF38
  29 0010 0C       		.byte	0xc
  30 0011 65020000 		.4byte	.LASF39
  31 0015 9D010000 		.4byte	.LASF40
  32 0019 00000000 		.4byte	.Ldebug_line0
  33 001d 02       		.uleb128 0x2
  34 001e 04       		.byte	0x4
  35 001f 05       		.byte	0x5
  36 0020 696E7400 		.ascii	"int\000"
  37 0024 03       		.uleb128 0x3
  38 0025 04       		.byte	0x4
  39 0026 07       		.byte	0x7
  40 0027 F9010000 		.4byte	.LASF0
  41 002b 03       		.uleb128 0x3
  42 002c 08       		.byte	0x8
  43 002d 05       		.byte	0x5
  44 002e 2A020000 		.4byte	.LASF1
  45 0032 03       		.uleb128 0x3
  46 0033 08       		.byte	0x8
  47 0034 04       		.byte	0x4
  48 0035 9C020000 		.4byte	.LASF2
  49 0039 03       		.uleb128 0x3
  50 003a 01       		.byte	0x1
  51 003b 06       		.byte	0x6
  52 003c A8020000 		.4byte	.LASF3
  53 0040 03       		.uleb128 0x3
  54 0041 01       		.byte	0x1
  55 0042 08       		.byte	0x8
  56 0043 6C010000 		.4byte	.LASF4
  57 0047 03       		.uleb128 0x3
ARM GAS  /tmp/ccveU0Ai.s 			page 2


  58 0048 02       		.byte	0x2
  59 0049 05       		.byte	0x5
  60 004a 04010000 		.4byte	.LASF5
  61 004e 03       		.uleb128 0x3
  62 004f 02       		.byte	0x2
  63 0050 07       		.byte	0x7
  64 0051 F1000000 		.4byte	.LASF6
  65 0055 03       		.uleb128 0x3
  66 0056 04       		.byte	0x4
  67 0057 05       		.byte	0x5
  68 0058 93020000 		.4byte	.LASF7
  69 005c 04       		.uleb128 0x4
  70 005d CA010000 		.4byte	.LASF10
  71 0061 01       		.byte	0x1
  72 0062 4F       		.byte	0x4f
  73 0063 19       		.byte	0x19
  74 0064 68000000 		.4byte	0x68
  75 0068 03       		.uleb128 0x3
  76 0069 04       		.byte	0x4
  77 006a 07       		.byte	0x7
  78 006b 7A010000 		.4byte	.LASF8
  79 006f 03       		.uleb128 0x3
  80 0070 08       		.byte	0x8
  81 0071 07       		.byte	0x7
  82 0072 BA020000 		.4byte	.LASF9
  83 0076 04       		.uleb128 0x4
  84 0077 8A020000 		.4byte	.LASF11
  85 007b 02       		.byte	0x2
  86 007c 30       		.byte	0x30
  87 007d 14       		.byte	0x14
  88 007e 5C000000 		.4byte	0x5c
  89 0082 05       		.uleb128 0x5
  90 0083 76000000 		.4byte	0x76
  91 0087 04       		.uleb128 0x4
  92 0088 22000000 		.4byte	.LASF12
  93 008c 03       		.byte	0x3
  94 008d 6D       		.byte	0x6d
  95 008e 12       		.byte	0x12
  96 008f 76000000 		.4byte	0x76
  97 0093 06       		.uleb128 0x6
  98 0094 82000000 		.4byte	0x82
  99 0098 A3000000 		.4byte	0xa3
 100 009c 07       		.uleb128 0x7
 101 009d 24000000 		.4byte	0x24
 102 00a1 01       		.byte	0x1
 103 00a2 00       		.byte	0
 104 00a3 05       		.uleb128 0x5
 105 00a4 93000000 		.4byte	0x93
 106 00a8 06       		.uleb128 0x6
 107 00a9 82000000 		.4byte	0x82
 108 00ad B8000000 		.4byte	0xb8
 109 00b1 07       		.uleb128 0x7
 110 00b2 24000000 		.4byte	0x24
 111 00b6 03       		.byte	0x3
 112 00b7 00       		.byte	0
 113 00b8 05       		.uleb128 0x5
 114 00b9 A8000000 		.4byte	0xa8
ARM GAS  /tmp/ccveU0Ai.s 			page 3


 115 00bd 03       		.uleb128 0x3
 116 00be 01       		.byte	0x1
 117 00bf 08       		.byte	0x8
 118 00c0 06020000 		.4byte	.LASF13
 119 00c4 08       		.uleb128 0x8
 120 00c5 BD000000 		.4byte	0xbd
 121 00c9 03       		.uleb128 0x3
 122 00ca 01       		.byte	0x1
 123 00cb 02       		.byte	0x2
 124 00cc B4020000 		.4byte	.LASF14
 125 00d0 09       		.uleb128 0x9
 126 00d1 60       		.byte	0x60
 127 00d2 04       		.byte	0x4
 128 00d3 F601     		.2byte	0x1f6
 129 00d5 09       		.byte	0x9
 130 00d6 F1010000 		.4byte	0x1f1
 131 00da 0A       		.uleb128 0xa
 132 00db 43523100 		.ascii	"CR1\000"
 133 00df 04       		.byte	0x4
 134 00e0 F701     		.2byte	0x1f7
 135 00e2 19       		.byte	0x19
 136 00e3 82000000 		.4byte	0x82
 137 00e7 00       		.byte	0
 138 00e8 0A       		.uleb128 0xa
 139 00e9 43523200 		.ascii	"CR2\000"
 140 00ed 04       		.byte	0x4
 141 00ee F801     		.2byte	0x1f8
 142 00f0 19       		.byte	0x19
 143 00f1 82000000 		.4byte	0x82
 144 00f5 04       		.byte	0x4
 145 00f6 0B       		.uleb128 0xb
 146 00f7 4E020000 		.4byte	.LASF15
 147 00fb 04       		.byte	0x4
 148 00fc F901     		.2byte	0x1f9
 149 00fe 19       		.byte	0x19
 150 00ff 82000000 		.4byte	0x82
 151 0103 08       		.byte	0x8
 152 0104 0B       		.uleb128 0xb
 153 0105 43010000 		.4byte	.LASF16
 154 0109 04       		.byte	0x4
 155 010a FA01     		.2byte	0x1fa
 156 010c 19       		.byte	0x19
 157 010d 82000000 		.4byte	0x82
 158 0111 0C       		.byte	0xc
 159 0112 0A       		.uleb128 0xa
 160 0113 535200   		.ascii	"SR\000"
 161 0116 04       		.byte	0x4
 162 0117 FB01     		.2byte	0x1fb
 163 0119 19       		.byte	0x19
 164 011a 82000000 		.4byte	0x82
 165 011e 10       		.byte	0x10
 166 011f 0A       		.uleb128 0xa
 167 0120 45475200 		.ascii	"EGR\000"
 168 0124 04       		.byte	0x4
 169 0125 FC01     		.2byte	0x1fc
 170 0127 19       		.byte	0x19
 171 0128 82000000 		.4byte	0x82
ARM GAS  /tmp/ccveU0Ai.s 			page 4


 172 012c 14       		.byte	0x14
 173 012d 0B       		.uleb128 0xb
 174 012e 53020000 		.4byte	.LASF17
 175 0132 04       		.byte	0x4
 176 0133 FD01     		.2byte	0x1fd
 177 0135 19       		.byte	0x19
 178 0136 82000000 		.4byte	0x82
 179 013a 18       		.byte	0x18
 180 013b 0B       		.uleb128 0xb
 181 013c 59020000 		.4byte	.LASF18
 182 0140 04       		.byte	0x4
 183 0141 FE01     		.2byte	0x1fe
 184 0143 19       		.byte	0x19
 185 0144 82000000 		.4byte	0x82
 186 0148 1C       		.byte	0x1c
 187 0149 0B       		.uleb128 0xb
 188 014a 49020000 		.4byte	.LASF19
 189 014e 04       		.byte	0x4
 190 014f FF01     		.2byte	0x1ff
 191 0151 19       		.byte	0x19
 192 0152 82000000 		.4byte	0x82
 193 0156 20       		.byte	0x20
 194 0157 0A       		.uleb128 0xa
 195 0158 434E5400 		.ascii	"CNT\000"
 196 015c 04       		.byte	0x4
 197 015d 0002     		.2byte	0x200
 198 015f 19       		.byte	0x19
 199 0160 82000000 		.4byte	0x82
 200 0164 24       		.byte	0x24
 201 0165 0A       		.uleb128 0xa
 202 0166 50534300 		.ascii	"PSC\000"
 203 016a 04       		.byte	0x4
 204 016b 0102     		.2byte	0x201
 205 016d 19       		.byte	0x19
 206 016e 82000000 		.4byte	0x82
 207 0172 28       		.byte	0x28
 208 0173 0A       		.uleb128 0xa
 209 0174 41525200 		.ascii	"ARR\000"
 210 0178 04       		.byte	0x4
 211 0179 0202     		.2byte	0x202
 212 017b 19       		.byte	0x19
 213 017c 82000000 		.4byte	0x82
 214 0180 2C       		.byte	0x2c
 215 0181 0A       		.uleb128 0xa
 216 0182 52435200 		.ascii	"RCR\000"
 217 0186 04       		.byte	0x4
 218 0187 0302     		.2byte	0x203
 219 0189 19       		.byte	0x19
 220 018a 82000000 		.4byte	0x82
 221 018e 30       		.byte	0x30
 222 018f 0A       		.uleb128 0xa
 223 0190 43435200 		.ascii	"CCR\000"
 224 0194 04       		.byte	0x4
 225 0195 0402     		.2byte	0x204
 226 0197 19       		.byte	0x19
 227 0198 B8000000 		.4byte	0xb8
 228 019c 34       		.byte	0x34
ARM GAS  /tmp/ccveU0Ai.s 			page 5


 229 019d 0B       		.uleb128 0xb
 230 019e 00000000 		.4byte	.LASF20
 231 01a2 04       		.byte	0x4
 232 01a3 0502     		.2byte	0x205
 233 01a5 19       		.byte	0x19
 234 01a6 82000000 		.4byte	0x82
 235 01aa 44       		.byte	0x44
 236 01ab 0A       		.uleb128 0xa
 237 01ac 44435200 		.ascii	"DCR\000"
 238 01b0 04       		.byte	0x4
 239 01b1 0602     		.2byte	0x206
 240 01b3 19       		.byte	0x19
 241 01b4 82000000 		.4byte	0x82
 242 01b8 48       		.byte	0x48
 243 01b9 0B       		.uleb128 0xb
 244 01ba D5010000 		.4byte	.LASF21
 245 01be 04       		.byte	0x4
 246 01bf 0702     		.2byte	0x207
 247 01c1 19       		.byte	0x19
 248 01c2 82000000 		.4byte	0x82
 249 01c6 4C       		.byte	0x4c
 250 01c7 0A       		.uleb128 0xa
 251 01c8 4F5200   		.ascii	"OR\000"
 252 01cb 04       		.byte	0x4
 253 01cc 0802     		.2byte	0x208
 254 01ce 19       		.byte	0x19
 255 01cf 82000000 		.4byte	0x82
 256 01d3 50       		.byte	0x50
 257 01d4 0B       		.uleb128 0xb
 258 01d5 5F020000 		.4byte	.LASF22
 259 01d9 04       		.byte	0x4
 260 01da 0902     		.2byte	0x209
 261 01dc 19       		.byte	0x19
 262 01dd 82000000 		.4byte	0x82
 263 01e1 54       		.byte	0x54
 264 01e2 0B       		.uleb128 0xb
 265 01e3 D1020000 		.4byte	.LASF23
 266 01e7 04       		.byte	0x4
 267 01e8 0A02     		.2byte	0x20a
 268 01ea 19       		.byte	0x19
 269 01eb A3000000 		.4byte	0xa3
 270 01ef 58       		.byte	0x58
 271 01f0 00       		.byte	0
 272 01f1 0C       		.uleb128 0xc
 273 01f2 37010000 		.4byte	.LASF24
 274 01f6 04       		.byte	0x4
 275 01f7 0B02     		.2byte	0x20b
 276 01f9 03       		.byte	0x3
 277 01fa D0000000 		.4byte	0xd0
 278 01fe 0D       		.uleb128 0xd
 279 01ff 05000000 		.4byte	.LASF25
 280 0203 05       		.byte	0x5
 281 0204 A1       		.byte	0xa1
 282 0205 06       		.byte	0x6
 283 0206 C9000000 		.4byte	0xc9
 284 020a 0D       		.uleb128 0xd
 285 020b 15000000 		.4byte	.LASF26
ARM GAS  /tmp/ccveU0Ai.s 			page 6


 286 020f 05       		.byte	0x5
 287 0210 93       		.byte	0x93
 288 0211 0B       		.byte	0xb
 289 0212 87000000 		.4byte	0x87
 290 0216 0E       		.uleb128 0xe
 291 0217 D6020000 		.4byte	.LASF41
 292 021b 05       		.byte	0x5
 293 021c 83       		.byte	0x83
 294 021d 0B       		.byte	0xb
 295 021e 87000000 		.4byte	0x87
 296 0222 30020000 		.4byte	0x230
 297 0226 0F       		.uleb128 0xf
 298 0227 48010000 		.4byte	.LASF27
 299 022b 40020000 		.4byte	0x240
 300 022f 00       		.byte	0
 301 0230 06       		.uleb128 0x6
 302 0231 C4000000 		.4byte	0xc4
 303 0235 40020000 		.4byte	0x240
 304 0239 07       		.uleb128 0x7
 305 023a 24000000 		.4byte	0x24
 306 023e 0A       		.byte	0xa
 307 023f 00       		.byte	0
 308 0240 08       		.uleb128 0x8
 309 0241 30020000 		.4byte	0x230
 310 0245 10       		.uleb128 0x10
 311 0246 18020000 		.4byte	.LASF28
 312 024a 05       		.byte	0x5
 313 024b 73       		.byte	0x73
 314 024c 06       		.byte	0x6
 315 024d 67020000 		.4byte	0x267
 316 0251 11       		.uleb128 0x11
 317 0252 64010000 		.4byte	.LASF30
 318 0256 05       		.byte	0x5
 319 0257 73       		.byte	0x73
 320 0258 1B       		.byte	0x1b
 321 0259 87000000 		.4byte	0x87
 322 025d 0F       		.uleb128 0xf
 323 025e 48010000 		.4byte	.LASF27
 324 0262 40020000 		.4byte	0x240
 325 0266 00       		.byte	0
 326 0267 12       		.uleb128 0x12
 327 0268 DA010000 		.4byte	.LASF31
 328 026c 05       		.byte	0x5
 329 026d 65       		.byte	0x65
 330 026e 06       		.byte	0x6
 331 026f 10       		.uleb128 0x10
 332 0270 0B020000 		.4byte	.LASF29
 333 0274 05       		.byte	0x5
 334 0275 57       		.byte	0x57
 335 0276 06       		.byte	0x6
 336 0277 91020000 		.4byte	0x291
 337 027b 11       		.uleb128 0x11
 338 027c 64010000 		.4byte	.LASF30
 339 0280 05       		.byte	0x5
 340 0281 57       		.byte	0x57
 341 0282 1D       		.byte	0x1d
 342 0283 87000000 		.4byte	0x87
ARM GAS  /tmp/ccveU0Ai.s 			page 7


 343 0287 0F       		.uleb128 0xf
 344 0288 48010000 		.4byte	.LASF27
 345 028c A1020000 		.4byte	0x2a1
 346 0290 00       		.byte	0
 347 0291 06       		.uleb128 0x6
 348 0292 C4000000 		.4byte	0xc4
 349 0296 A1020000 		.4byte	0x2a1
 350 029a 07       		.uleb128 0x7
 351 029b 24000000 		.4byte	0x24
 352 029f 0C       		.byte	0xc
 353 02a0 00       		.byte	0
 354 02a1 08       		.uleb128 0x8
 355 02a2 91020000 		.4byte	0x291
 356 02a6 12       		.uleb128 0x12
 357 02a7 23020000 		.4byte	.LASF32
 358 02ab 05       		.byte	0x5
 359 02ac 40       		.byte	0x40
 360 02ad 06       		.byte	0x6
 361 02ae 13       		.uleb128 0x13
 362 02af 20010000 		.4byte	.LASF33
 363 02b3 06       		.byte	0x6
 364 02b4 6302     		.2byte	0x263
 365 02b6 14       		.byte	0x14
 366 02b7 C9000000 		.4byte	0xc9
 367 02bb 13       		.uleb128 0x13
 368 02bc 38020000 		.4byte	.LASF34
 369 02c0 06       		.byte	0x6
 370 02c1 5502     		.2byte	0x255
 371 02c3 19       		.byte	0x19
 372 02c4 87000000 		.4byte	0x87
 373 02c8 14       		.uleb128 0x14
 374 02c9 8C010000 		.4byte	.LASF35
 375 02cd 06       		.byte	0x6
 376 02ce 4902     		.2byte	0x249
 377 02d0 14       		.byte	0x14
 378 02d1 E3020000 		.4byte	0x2e3
 379 02d5 15       		.uleb128 0x15
 380 02d6 64010000 		.4byte	.LASF30
 381 02da 06       		.byte	0x6
 382 02db 4902     		.2byte	0x249
 383 02dd 2F       		.byte	0x2f
 384 02de 87000000 		.4byte	0x87
 385 02e2 00       		.byte	0
 386 02e3 16       		.uleb128 0x16
 387 02e4 0E010000 		.4byte	.LASF42
 388 02e8 06       		.byte	0x6
 389 02e9 3902     		.2byte	0x239
 390 02eb 14       		.byte	0x14
 391 02ec 14       		.uleb128 0x14
 392 02ed 51010000 		.4byte	.LASF36
 393 02f1 06       		.byte	0x6
 394 02f2 2902     		.2byte	0x229
 395 02f4 14       		.byte	0x14
 396 02f5 07030000 		.4byte	0x307
 397 02f9 15       		.uleb128 0x15
 398 02fa 64010000 		.4byte	.LASF30
 399 02fe 06       		.byte	0x6
ARM GAS  /tmp/ccveU0Ai.s 			page 8


 400 02ff 2902     		.2byte	0x229
 401 0301 31       		.byte	0x31
 402 0302 87000000 		.4byte	0x87
 403 0306 00       		.byte	0
 404 0307 13       		.uleb128 0x13
 405 0308 E6010000 		.4byte	.LASF37
 406 030c 06       		.byte	0x6
 407 030d 1B02     		.2byte	0x21b
 408 030f 19       		.byte	0x19
 409 0310 87000000 		.4byte	0x87
 410 0314 00       		.byte	0
 411              		.section	.gnu.debuglto_.debug_abbrev,"e",%progbits
 412              	.Ldebug_abbrev0:
 413 0000 01       		.uleb128 0x1
 414 0001 11       		.uleb128 0x11
 415 0002 01       		.byte	0x1
 416 0003 25       		.uleb128 0x25
 417 0004 0E       		.uleb128 0xe
 418 0005 13       		.uleb128 0x13
 419 0006 0B       		.uleb128 0xb
 420 0007 03       		.uleb128 0x3
 421 0008 0E       		.uleb128 0xe
 422 0009 1B       		.uleb128 0x1b
 423 000a 0E       		.uleb128 0xe
 424 000b 10       		.uleb128 0x10
 425 000c 17       		.uleb128 0x17
 426 000d 00       		.byte	0
 427 000e 00       		.byte	0
 428 000f 02       		.uleb128 0x2
 429 0010 24       		.uleb128 0x24
 430 0011 00       		.byte	0
 431 0012 0B       		.uleb128 0xb
 432 0013 0B       		.uleb128 0xb
 433 0014 3E       		.uleb128 0x3e
 434 0015 0B       		.uleb128 0xb
 435 0016 03       		.uleb128 0x3
 436 0017 08       		.uleb128 0x8
 437 0018 00       		.byte	0
 438 0019 00       		.byte	0
 439 001a 03       		.uleb128 0x3
 440 001b 24       		.uleb128 0x24
 441 001c 00       		.byte	0
 442 001d 0B       		.uleb128 0xb
 443 001e 0B       		.uleb128 0xb
 444 001f 3E       		.uleb128 0x3e
 445 0020 0B       		.uleb128 0xb
 446 0021 03       		.uleb128 0x3
 447 0022 0E       		.uleb128 0xe
 448 0023 00       		.byte	0
 449 0024 00       		.byte	0
 450 0025 04       		.uleb128 0x4
 451 0026 16       		.uleb128 0x16
 452 0027 00       		.byte	0
 453 0028 03       		.uleb128 0x3
 454 0029 0E       		.uleb128 0xe
 455 002a 3A       		.uleb128 0x3a
 456 002b 0B       		.uleb128 0xb
ARM GAS  /tmp/ccveU0Ai.s 			page 9


 457 002c 3B       		.uleb128 0x3b
 458 002d 0B       		.uleb128 0xb
 459 002e 39       		.uleb128 0x39
 460 002f 0B       		.uleb128 0xb
 461 0030 49       		.uleb128 0x49
 462 0031 13       		.uleb128 0x13
 463 0032 00       		.byte	0
 464 0033 00       		.byte	0
 465 0034 05       		.uleb128 0x5
 466 0035 35       		.uleb128 0x35
 467 0036 00       		.byte	0
 468 0037 49       		.uleb128 0x49
 469 0038 13       		.uleb128 0x13
 470 0039 00       		.byte	0
 471 003a 00       		.byte	0
 472 003b 06       		.uleb128 0x6
 473 003c 01       		.uleb128 0x1
 474 003d 01       		.byte	0x1
 475 003e 49       		.uleb128 0x49
 476 003f 13       		.uleb128 0x13
 477 0040 01       		.uleb128 0x1
 478 0041 13       		.uleb128 0x13
 479 0042 00       		.byte	0
 480 0043 00       		.byte	0
 481 0044 07       		.uleb128 0x7
 482 0045 21       		.uleb128 0x21
 483 0046 00       		.byte	0
 484 0047 49       		.uleb128 0x49
 485 0048 13       		.uleb128 0x13
 486 0049 2F       		.uleb128 0x2f
 487 004a 0B       		.uleb128 0xb
 488 004b 00       		.byte	0
 489 004c 00       		.byte	0
 490 004d 08       		.uleb128 0x8
 491 004e 26       		.uleb128 0x26
 492 004f 00       		.byte	0
 493 0050 49       		.uleb128 0x49
 494 0051 13       		.uleb128 0x13
 495 0052 00       		.byte	0
 496 0053 00       		.byte	0
 497 0054 09       		.uleb128 0x9
 498 0055 13       		.uleb128 0x13
 499 0056 01       		.byte	0x1
 500 0057 0B       		.uleb128 0xb
 501 0058 0B       		.uleb128 0xb
 502 0059 3A       		.uleb128 0x3a
 503 005a 0B       		.uleb128 0xb
 504 005b 3B       		.uleb128 0x3b
 505 005c 05       		.uleb128 0x5
 506 005d 39       		.uleb128 0x39
 507 005e 0B       		.uleb128 0xb
 508 005f 01       		.uleb128 0x1
 509 0060 13       		.uleb128 0x13
 510 0061 00       		.byte	0
 511 0062 00       		.byte	0
 512 0063 0A       		.uleb128 0xa
 513 0064 0D       		.uleb128 0xd
ARM GAS  /tmp/ccveU0Ai.s 			page 10


 514 0065 00       		.byte	0
 515 0066 03       		.uleb128 0x3
 516 0067 08       		.uleb128 0x8
 517 0068 3A       		.uleb128 0x3a
 518 0069 0B       		.uleb128 0xb
 519 006a 3B       		.uleb128 0x3b
 520 006b 05       		.uleb128 0x5
 521 006c 39       		.uleb128 0x39
 522 006d 0B       		.uleb128 0xb
 523 006e 49       		.uleb128 0x49
 524 006f 13       		.uleb128 0x13
 525 0070 38       		.uleb128 0x38
 526 0071 0B       		.uleb128 0xb
 527 0072 00       		.byte	0
 528 0073 00       		.byte	0
 529 0074 0B       		.uleb128 0xb
 530 0075 0D       		.uleb128 0xd
 531 0076 00       		.byte	0
 532 0077 03       		.uleb128 0x3
 533 0078 0E       		.uleb128 0xe
 534 0079 3A       		.uleb128 0x3a
 535 007a 0B       		.uleb128 0xb
 536 007b 3B       		.uleb128 0x3b
 537 007c 05       		.uleb128 0x5
 538 007d 39       		.uleb128 0x39
 539 007e 0B       		.uleb128 0xb
 540 007f 49       		.uleb128 0x49
 541 0080 13       		.uleb128 0x13
 542 0081 38       		.uleb128 0x38
 543 0082 0B       		.uleb128 0xb
 544 0083 00       		.byte	0
 545 0084 00       		.byte	0
 546 0085 0C       		.uleb128 0xc
 547 0086 16       		.uleb128 0x16
 548 0087 00       		.byte	0
 549 0088 03       		.uleb128 0x3
 550 0089 0E       		.uleb128 0xe
 551 008a 3A       		.uleb128 0x3a
 552 008b 0B       		.uleb128 0xb
 553 008c 3B       		.uleb128 0x3b
 554 008d 05       		.uleb128 0x5
 555 008e 39       		.uleb128 0x39
 556 008f 0B       		.uleb128 0xb
 557 0090 49       		.uleb128 0x49
 558 0091 13       		.uleb128 0x13
 559 0092 00       		.byte	0
 560 0093 00       		.byte	0
 561 0094 0D       		.uleb128 0xd
 562 0095 2E       		.uleb128 0x2e
 563 0096 00       		.byte	0
 564 0097 3F       		.uleb128 0x3f
 565 0098 19       		.uleb128 0x19
 566 0099 03       		.uleb128 0x3
 567 009a 0E       		.uleb128 0xe
 568 009b 3A       		.uleb128 0x3a
 569 009c 0B       		.uleb128 0xb
 570 009d 3B       		.uleb128 0x3b
ARM GAS  /tmp/ccveU0Ai.s 			page 11


 571 009e 0B       		.uleb128 0xb
 572 009f 39       		.uleb128 0x39
 573 00a0 0B       		.uleb128 0xb
 574 00a1 27       		.uleb128 0x27
 575 00a2 19       		.uleb128 0x19
 576 00a3 49       		.uleb128 0x49
 577 00a4 13       		.uleb128 0x13
 578 00a5 00       		.byte	0
 579 00a6 00       		.byte	0
 580 00a7 0E       		.uleb128 0xe
 581 00a8 2E       		.uleb128 0x2e
 582 00a9 01       		.byte	0x1
 583 00aa 3F       		.uleb128 0x3f
 584 00ab 19       		.uleb128 0x19
 585 00ac 03       		.uleb128 0x3
 586 00ad 0E       		.uleb128 0xe
 587 00ae 3A       		.uleb128 0x3a
 588 00af 0B       		.uleb128 0xb
 589 00b0 3B       		.uleb128 0x3b
 590 00b1 0B       		.uleb128 0xb
 591 00b2 39       		.uleb128 0x39
 592 00b3 0B       		.uleb128 0xb
 593 00b4 27       		.uleb128 0x27
 594 00b5 19       		.uleb128 0x19
 595 00b6 49       		.uleb128 0x49
 596 00b7 13       		.uleb128 0x13
 597 00b8 01       		.uleb128 0x1
 598 00b9 13       		.uleb128 0x13
 599 00ba 00       		.byte	0
 600 00bb 00       		.byte	0
 601 00bc 0F       		.uleb128 0xf
 602 00bd 34       		.uleb128 0x34
 603 00be 00       		.byte	0
 604 00bf 03       		.uleb128 0x3
 605 00c0 0E       		.uleb128 0xe
 606 00c1 49       		.uleb128 0x49
 607 00c2 13       		.uleb128 0x13
 608 00c3 34       		.uleb128 0x34
 609 00c4 19       		.uleb128 0x19
 610 00c5 00       		.byte	0
 611 00c6 00       		.byte	0
 612 00c7 10       		.uleb128 0x10
 613 00c8 2E       		.uleb128 0x2e
 614 00c9 01       		.byte	0x1
 615 00ca 3F       		.uleb128 0x3f
 616 00cb 19       		.uleb128 0x19
 617 00cc 03       		.uleb128 0x3
 618 00cd 0E       		.uleb128 0xe
 619 00ce 3A       		.uleb128 0x3a
 620 00cf 0B       		.uleb128 0xb
 621 00d0 3B       		.uleb128 0x3b
 622 00d1 0B       		.uleb128 0xb
 623 00d2 39       		.uleb128 0x39
 624 00d3 0B       		.uleb128 0xb
 625 00d4 27       		.uleb128 0x27
 626 00d5 19       		.uleb128 0x19
 627 00d6 01       		.uleb128 0x1
ARM GAS  /tmp/ccveU0Ai.s 			page 12


 628 00d7 13       		.uleb128 0x13
 629 00d8 00       		.byte	0
 630 00d9 00       		.byte	0
 631 00da 11       		.uleb128 0x11
 632 00db 05       		.uleb128 0x5
 633 00dc 00       		.byte	0
 634 00dd 03       		.uleb128 0x3
 635 00de 0E       		.uleb128 0xe
 636 00df 3A       		.uleb128 0x3a
 637 00e0 0B       		.uleb128 0xb
 638 00e1 3B       		.uleb128 0x3b
 639 00e2 0B       		.uleb128 0xb
 640 00e3 39       		.uleb128 0x39
 641 00e4 0B       		.uleb128 0xb
 642 00e5 49       		.uleb128 0x49
 643 00e6 13       		.uleb128 0x13
 644 00e7 00       		.byte	0
 645 00e8 00       		.byte	0
 646 00e9 12       		.uleb128 0x12
 647 00ea 2E       		.uleb128 0x2e
 648 00eb 00       		.byte	0
 649 00ec 3F       		.uleb128 0x3f
 650 00ed 19       		.uleb128 0x19
 651 00ee 03       		.uleb128 0x3
 652 00ef 0E       		.uleb128 0xe
 653 00f0 3A       		.uleb128 0x3a
 654 00f1 0B       		.uleb128 0xb
 655 00f2 3B       		.uleb128 0x3b
 656 00f3 0B       		.uleb128 0xb
 657 00f4 39       		.uleb128 0x39
 658 00f5 0B       		.uleb128 0xb
 659 00f6 27       		.uleb128 0x27
 660 00f7 19       		.uleb128 0x19
 661 00f8 00       		.byte	0
 662 00f9 00       		.byte	0
 663 00fa 13       		.uleb128 0x13
 664 00fb 2E       		.uleb128 0x2e
 665 00fc 00       		.byte	0
 666 00fd 03       		.uleb128 0x3
 667 00fe 0E       		.uleb128 0xe
 668 00ff 3A       		.uleb128 0x3a
 669 0100 0B       		.uleb128 0xb
 670 0101 3B       		.uleb128 0x3b
 671 0102 05       		.uleb128 0x5
 672 0103 39       		.uleb128 0x39
 673 0104 0B       		.uleb128 0xb
 674 0105 27       		.uleb128 0x27
 675 0106 19       		.uleb128 0x19
 676 0107 49       		.uleb128 0x49
 677 0108 13       		.uleb128 0x13
 678 0109 00       		.byte	0
 679 010a 00       		.byte	0
 680 010b 14       		.uleb128 0x14
 681 010c 2E       		.uleb128 0x2e
 682 010d 01       		.byte	0x1
 683 010e 03       		.uleb128 0x3
 684 010f 0E       		.uleb128 0xe
ARM GAS  /tmp/ccveU0Ai.s 			page 13


 685 0110 3A       		.uleb128 0x3a
 686 0111 0B       		.uleb128 0xb
 687 0112 3B       		.uleb128 0x3b
 688 0113 05       		.uleb128 0x5
 689 0114 39       		.uleb128 0x39
 690 0115 0B       		.uleb128 0xb
 691 0116 27       		.uleb128 0x27
 692 0117 19       		.uleb128 0x19
 693 0118 01       		.uleb128 0x1
 694 0119 13       		.uleb128 0x13
 695 011a 00       		.byte	0
 696 011b 00       		.byte	0
 697 011c 15       		.uleb128 0x15
 698 011d 05       		.uleb128 0x5
 699 011e 00       		.byte	0
 700 011f 03       		.uleb128 0x3
 701 0120 0E       		.uleb128 0xe
 702 0121 3A       		.uleb128 0x3a
 703 0122 0B       		.uleb128 0xb
 704 0123 3B       		.uleb128 0x3b
 705 0124 05       		.uleb128 0x5
 706 0125 39       		.uleb128 0x39
 707 0126 0B       		.uleb128 0xb
 708 0127 49       		.uleb128 0x49
 709 0128 13       		.uleb128 0x13
 710 0129 00       		.byte	0
 711 012a 00       		.byte	0
 712 012b 16       		.uleb128 0x16
 713 012c 2E       		.uleb128 0x2e
 714 012d 00       		.byte	0
 715 012e 03       		.uleb128 0x3
 716 012f 0E       		.uleb128 0xe
 717 0130 3A       		.uleb128 0x3a
 718 0131 0B       		.uleb128 0xb
 719 0132 3B       		.uleb128 0x3b
 720 0133 05       		.uleb128 0x5
 721 0134 39       		.uleb128 0x39
 722 0135 0B       		.uleb128 0xb
 723 0136 27       		.uleb128 0x27
 724 0137 19       		.uleb128 0x19
 725 0138 00       		.byte	0
 726 0139 00       		.byte	0
 727 013a 00       		.byte	0
 728              		.section	.gnu.debuglto_.debug_line,"e",%progbits
 729              	.Ldebug_line0:
 730 0000 69010000 		.4byte	.LELT0-.LSLT0
 731              	.LSLT0:
 732 0004 0400     		.2byte	0x4
 733 0006 63010000 		.4byte	.LELTP0-.LASLTP0
 734              	.LASLTP0:
 735 000a 01       		.byte	0x1
 736 000b 01       		.byte	0x1
 737 000c 01       		.byte	0x1
 738 000d F6       		.byte	0xf6
 739 000e F2       		.byte	0xf2
 740 000f 0D       		.byte	0xd
 741 0010 00       		.byte	0
ARM GAS  /tmp/ccveU0Ai.s 			page 14


 742 0011 01       		.byte	0x1
 743 0012 01       		.byte	0x1
 744 0013 01       		.byte	0x1
 745 0014 01       		.byte	0x1
 746 0015 00       		.byte	0
 747 0016 00       		.byte	0
 748 0017 00       		.byte	0
 749 0018 01       		.byte	0x1
 750 0019 00       		.byte	0
 751 001a 00       		.byte	0
 752 001b 01       		.byte	0x1
 753 001c 43686962 		.ascii	"ChibiOS_20.3.0/os/hal/ports/STM32/LLD/TIMv1"
 753      694F535F 
 753      32302E33 
 753      2E302F6F 
 753      732F6861 
 754 0047 00       		.byte	0
 755 0048 43686962 		.ascii	"ChibiOS_20.3.0/os/hal/src"
 755      694F535F 
 755      32302E33 
 755      2E302F6F 
 755      732F6861 
 756 0061 00       		.byte	0
 757 0062 43686962 		.ascii	"ChibiOS_20.3.0/os/rt/include"
 757      694F535F 
 757      32302E33 
 757      2E302F6F 
 757      732F7274 
 758 007e 00       		.byte	0
 759 007f 2F757372 		.ascii	"/usr/share/gcc-arm-none-eabi-10-2020-q4-major/arm-n"
 759      2F736861 
 759      72652F67 
 759      63632D61 
 759      726D2D6E 
 760 00b2 6F6E652D 		.ascii	"one-eabi/include/machine"
 760      65616269 
 760      2F696E63 
 760      6C756465 
 760      2F6D6163 
 761 00ca 00       		.byte	0
 762 00cb 2F757372 		.ascii	"/usr/share/gcc-arm-none-eabi-10-2020-q4-major/arm-n"
 762      2F736861 
 762      72652F67 
 762      63632D61 
 762      726D2D6E 
 763 00fe 6F6E652D 		.ascii	"one-eabi/include/sys"
 763      65616269 
 763      2F696E63 
 763      6C756465 
 763      2F737973 
 764 0112 00       		.byte	0
 765 0113 00       		.byte	0
 766 0114 5F646566 		.ascii	"_default_types.h\000"
 766      61756C74 
 766      5F747970 
 766      65732E68 
 766      00
ARM GAS  /tmp/ccveU0Ai.s 			page 15


 767 0125 04       		.uleb128 0x4
 768 0126 00       		.uleb128 0
 769 0127 00       		.uleb128 0
 770 0128 5F737464 		.ascii	"_stdint.h\000"
 770      696E742E 
 770      6800
 771 0132 05       		.uleb128 0x5
 772 0133 00       		.uleb128 0
 773 0134 00       		.uleb128 0
 774 0135 63687469 		.ascii	"chtime.h\000"
 774      6D652E68 
 774      00
 775 013e 03       		.uleb128 0x3
 776 013f 00       		.uleb128 0
 777 0140 00       		.uleb128 0
 778 0141 73746D33 		.ascii	"stm32_tim.h\000"
 778      325F7469 
 778      6D2E6800 
 779 014d 01       		.uleb128 0x1
 780 014e 00       		.uleb128 0
 781 014f 00       		.uleb128 0
 782 0150 68616C5F 		.ascii	"hal_st.c\000"
 782      73742E63 
 782      00
 783 0159 02       		.uleb128 0x2
 784 015a 00       		.uleb128 0
 785 015b 00       		.uleb128 0
 786 015c 68616C5F 		.ascii	"hal_st_lld.h\000"
 786      73745F6C 
 786      6C642E68 
 786      00
 787 0169 01       		.uleb128 0x1
 788 016a 00       		.uleb128 0
 789 016b 00       		.uleb128 0
 790 016c 00       		.byte	0
 791              	.LELTP0:
 792              	.LELT0:
 793              		.section	.gnu.debuglto_.debug_str,"eMS",%progbits,1
 794              	.LASF20:
 795 0000 42445452 		.ascii	"BDTR\000"
 795      00
 796              	.LASF25:
 797 0005 73744973 		.ascii	"stIsAlarmActive\000"
 797      416C6172 
 797      6D416374 
 797      69766500 
 798              	.LASF26:
 799 0015 73744765 		.ascii	"stGetCounter\000"
 799      74436F75 
 799      6E746572 
 799      00
 800              	.LASF12:
 801 0022 73797374 		.ascii	"systime_t\000"
 801      696D655F 
 801      7400
 802              	.LASF38:
 803 002c 474E5520 		.ascii	"GNU C17 10.2.1 20201103 (release) -mcpu=cortex-m4 -"
ARM GAS  /tmp/ccveU0Ai.s 			page 16


 803      43313720 
 803      31302E32 
 803      2E312032 
 803      30323031 
 804 005f 6D746875 		.ascii	"mthumb -mfloat-abi=soft -march=armv7e-m -ggdb -O2 -"
 804      6D62202D 
 804      6D666C6F 
 804      61742D61 
 804      62693D73 
 805 0092 666F6D69 		.ascii	"fomit-frame-pointer -falign-functions=16 -ffunction"
 805      742D6672 
 805      616D652D 
 805      706F696E 
 805      74657220 
 806 00c5 2D736563 		.ascii	"-sections -fdata-sections -fno-common -flto\000"
 806      74696F6E 
 806      73202D66 
 806      64617461 
 806      2D736563 
 807              	.LASF6:
 808 00f1 73686F72 		.ascii	"short unsigned int\000"
 808      7420756E 
 808      7369676E 
 808      65642069 
 808      6E7400
 809              	.LASF5:
 810 0104 73686F72 		.ascii	"short int\000"
 810      7420696E 
 810      7400
 811              	.LASF42:
 812 010e 73745F6C 		.ascii	"st_lld_stop_alarm\000"
 812      6C645F73 
 812      746F705F 
 812      616C6172 
 812      6D00
 813              	.LASF33:
 814 0120 73745F6C 		.ascii	"st_lld_is_alarm_active\000"
 814      6C645F69 
 814      735F616C 
 814      61726D5F 
 814      61637469 
 815              	.LASF24:
 816 0137 73746D33 		.ascii	"stm32_tim_t\000"
 816      325F7469 
 816      6D5F7400 
 817              	.LASF16:
 818 0143 44494552 		.ascii	"DIER\000"
 818      00
 819              	.LASF27:
 820 0148 5F5F6675 		.ascii	"__func__\000"
 820      6E635F5F 
 820      00
 821              	.LASF36:
 822 0151 73745F6C 		.ascii	"st_lld_start_alarm\000"
 822      6C645F73 
 822      74617274 
 822      5F616C61 
ARM GAS  /tmp/ccveU0Ai.s 			page 17


 822      726D00
 823              	.LASF30:
 824 0164 61627374 		.ascii	"abstime\000"
 824      696D6500 
 825              	.LASF4:
 826 016c 756E7369 		.ascii	"unsigned char\000"
 826      676E6564 
 826      20636861 
 826      7200
 827              	.LASF8:
 828 017a 6C6F6E67 		.ascii	"long unsigned int\000"
 828      20756E73 
 828      69676E65 
 828      6420696E 
 828      7400
 829              	.LASF35:
 830 018c 73745F6C 		.ascii	"st_lld_set_alarm\000"
 830      6C645F73 
 830      65745F61 
 830      6C61726D 
 830      00
 831              	.LASF40:
 832 019d 2F686F6D 		.ascii	"/home/iamprithvishetty/CDSpace/mmc3416_test2\000"
 832      652F6961 
 832      6D707269 
 832      74687669 
 832      73686574 
 833              	.LASF10:
 834 01ca 5F5F7569 		.ascii	"__uint32_t\000"
 834      6E743332 
 834      5F7400
 835              	.LASF21:
 836 01d5 444D4152 		.ascii	"DMAR\000"
 836      00
 837              	.LASF31:
 838 01da 73745374 		.ascii	"stStopAlarm\000"
 838      6F70416C 
 838      61726D00 
 839              	.LASF37:
 840 01e6 73745F6C 		.ascii	"st_lld_get_counter\000"
 840      6C645F67 
 840      65745F63 
 840      6F756E74 
 840      657200
 841              	.LASF0:
 842 01f9 756E7369 		.ascii	"unsigned int\000"
 842      676E6564 
 842      20696E74 
 842      00
 843              	.LASF13:
 844 0206 63686172 		.ascii	"char\000"
 844      00
 845              	.LASF29:
 846 020b 73745374 		.ascii	"stStartAlarm\000"
 846      61727441 
 846      6C61726D 
 846      00
ARM GAS  /tmp/ccveU0Ai.s 			page 18


 847              	.LASF28:
 848 0218 73745365 		.ascii	"stSetAlarm\000"
 848      74416C61 
 848      726D00
 849              	.LASF32:
 850 0223 7374496E 		.ascii	"stInit\000"
 850      697400
 851              	.LASF1:
 852 022a 6C6F6E67 		.ascii	"long long int\000"
 852      206C6F6E 
 852      6720696E 
 852      7400
 853              	.LASF34:
 854 0238 73745F6C 		.ascii	"st_lld_get_alarm\000"
 854      6C645F67 
 854      65745F61 
 854      6C61726D 
 854      00
 855              	.LASF19:
 856 0249 43434552 		.ascii	"CCER\000"
 856      00
 857              	.LASF15:
 858 024e 534D4352 		.ascii	"SMCR\000"
 858      00
 859              	.LASF17:
 860 0253 43434D52 		.ascii	"CCMR1\000"
 860      3100
 861              	.LASF18:
 862 0259 43434D52 		.ascii	"CCMR2\000"
 862      3200
 863              	.LASF22:
 864 025f 43434D52 		.ascii	"CCMR3\000"
 864      3300
 865              	.LASF39:
 866 0265 2E2F4368 		.ascii	"./ChibiOS_20.3.0/os/hal/src/hal_st.c\000"
 866      6962694F 
 866      535F3230 
 866      2E332E30 
 866      2F6F732F 
 867              	.LASF11:
 868 028a 75696E74 		.ascii	"uint32_t\000"
 868      33325F74 
 868      00
 869              	.LASF7:
 870 0293 6C6F6E67 		.ascii	"long int\000"
 870      20696E74 
 870      00
 871              	.LASF2:
 872 029c 6C6F6E67 		.ascii	"long double\000"
 872      20646F75 
 872      626C6500 
 873              	.LASF3:
 874 02a8 7369676E 		.ascii	"signed char\000"
 874      65642063 
 874      68617200 
 875              	.LASF14:
 876 02b4 5F426F6F 		.ascii	"_Bool\000"
ARM GAS  /tmp/ccveU0Ai.s 			page 19


 876      6C00
 877              	.LASF9:
 878 02ba 6C6F6E67 		.ascii	"long long unsigned int\000"
 878      206C6F6E 
 878      6720756E 
 878      7369676E 
 878      65642069 
 879              	.LASF23:
 880 02d1 43435852 		.ascii	"CCXR\000"
 880      00
 881              	.LASF41:
 882 02d6 73744765 		.ascii	"stGetAlarm\000"
 882      74416C61 
 882      726D00
 883              		.text
 884              		.section	.gnu.lto_.profile.16e55e500e04383e,"e",%progbits
 885 0000 789C6362 		.ascii	"x\234cb\000\001\000\000\022\000\003"
 885      00010000 
 885      120003
 886              		.text
 887              		.section	.gnu.lto_.icf.16e55e500e04383e,"e",%progbits
 888 0000 789CD361 		.ascii	"x\234\323a@\000v\206#\315\373~\3630^:\270b1\037\323"
 888      40007686 
 888      23CDFB7E 
 888      F3305E3A 
 888      B862311F 
 889 0015 C2F7D7EF 		.ascii	"\302\367\327\357\3611?]\362\375\001?\313\302E\263~p"
 889      F1313F5D 
 889      F2FD013F 
 889      CBC245B3 
 889      7E70
 890 0027 B1CE3BB4 		.ascii	"\261\316;\264k\005\017\333\335\265{\017\2601\000\000"
 890      6B050FDB 
 890      DDB57B0F 
 890      B0310000 
 891 0037 F17C15BD 		.ascii	"\361|\025\275"
 892              		.text
 893              		.section	.gnu.lto_.ipa_sra.16e55e500e04383e,"e",%progbits
 894 0000 789C5364 		.ascii	"x\234Sd@\000v\006\006F\006FFF\020\233\221\211\201\221"
 894      40007606 
 894      06460646 
 894      4646109B 
 894      91898191 
 895 0014 19C26261 		.ascii	"\031\302ba`fe`fc`f\000\000\010}\000N"
 895      60666560 
 895      66636066 
 895      0000087D 
 895      004E
 896              		.text
 897              		.section	.gnu.lto_.inline.16e55e500e04383e,"e",%progbits
 898 0000 789C85CE 		.ascii	"x\234\205\316Q\012\200@\010\004\320q\3346\350\232Y\307"
 898      510A8040 
 898      0804D071 
 898      DC36E89A 
 898      59C7
 899 0012 88BA59A7 		.ascii	"\210\272Y\247\352;\225 \330\037\375\222\231\207\370"
 899      EA3B9520 
ARM GAS  /tmp/ccveU0Ai.s 			page 20


 899      D81FFD92 
 899      9987F8
 900 0021 E09F1968 		.ascii	"\340\237\031h\247\217\356\002\002\227\257\007\320#\242"
 900      A78FEE02 
 900      0297AF07 
 900      D023A2
 901 0030 3122C812 		.ascii	"1\"\310\022P2\274\271\271\313Zmp\374.\231\013f\261\016"
 901      5032BCB9 
 901      B9CB5A6D 
 901      70FC2E99 
 901      0B66B10E 
 902 0044 424BD14A 		.ascii	"BK\321J1\225\242\227\237\342\005\336\3724\253"
 902      3195A297 
 902      9FE205DE 
 902      FA34AB
 903              		.text
 904              		.section	.gnu.lto_.jmpfuncs.16e55e500e04383e,"e",%progbits
 905 0000 789C5362 		.ascii	"x\234Sb@\000v\020\301\010\004\365K\230\031\230\030\030"
 905      40007610 
 905      C10804F5 
 905      4B981998 
 905      1818
 906 0012 98A14C16 		.ascii	"\230\241L\026\006\006V\006\0066\240$\0004\017\002\221"
 906      06065606 
 906      0636A024 
 906      00340F02 
 906      91
 907              		.text
 908              		.section	.gnu.lto_.pureconst.16e55e500e04383e,"e",%progbits
 909 0000 789C05C1 		.ascii	"x\234\005\301\001\021\000 \014\304\260\037\024\346\000"
 909      01110020 
 909      0CC4B01F 
 909      14E600
 910 000f EDBBAA25 		.ascii	"\355\273\252%yI:C\311\222-\310\221+\0372\332\004\203"
 910      79493A43 
 910      C9922DC8 
 910      912B1F32 
 910      DA0483
 911              		.text
 912              		.section	.gnu.lto_.lto.16e55e500e04383e,"e",%progbits
 913 0000 09000200 		.ascii	"\011\000\002\000\001\000\000\000"
 913      01000000 
 914              		.text
 915              		.section	.gnu.lto_stInit.352.16e55e500e04383e,"e",%progbits
 916 0000 789CEB65 		.ascii	"x\234\353e``\010\005be fdf`\2344\261\213\211\241\241"
 916      60600805 
 916      62652066 
 916      6466609C 
 916      34B18B89 
 917 0016 A1C1819D 		.ascii	"\241\301\201\235\211\261qb\027'\343VF0\217\221\241\236"
 917      89B17162 
 917      1727E356 
 917      46308F91 
 917      A19E
 918 0028 89B19E71 		.ascii	"\211\261\236q2\263&\220\373\243uV\307a\306\206\025\007"
 918      32B32690 
 918      FBA37556 
ARM GAS  /tmp/ccveU0Ai.s 			page 21


 918      C761C686 
 918      1507
 919 003a 18973033 		.ascii	"\030\227030\314\003b(`\203\361\030\201x\375%\326\003"
 919      30CC0362 
 919      286083F1 
 919      188178FD 
 919      25D603
 920 004d 0D7FFEF7 		.ascii	"\015\177\376\36774\334}\3048S\031(\336\317\0142\272"
 920      3734DC7D 
 920      C4385319 
 920      28DECF0C 
 920      32BA
 921 005f 8185B1E1 		.ascii	"\201\205\261\341\000\003\303\004f&\010\247\021\310y"
 921      0003C304 
 921      662608A7 
 921      11C879
 922 006e C5D8F068 		.ascii	"\305\330\360h\3431F\206\017\214\315\012\014-\214LK\230"
 922      E3314686 
 922      0F8CCD0A 
 922      0C2D8C4C 
 922      4B98
 923 0080 19E73103 		.ascii	"\031\3471\003\015Y\302\314\304\360\211\261\351\301f"
 923      0D59C2CC 
 923      C4F089B1 
 923      E9C166
 924 008f 37B0F9FD 		.ascii	"7\260\371\375\314\214\010\003\030\030t\3653\362sS\365"
 924      CC8C0803 
 924      181874F5 
 924      33F27353 
 924      F5
 925 00a0 3313730B 		.ascii	"3\023s\013\2122K2\3122\2133RKJ*\365\235]\202\013\022"
 925      8A324B32 
 925      CA328B33 
 925      524B4A2A 
 925      F59D5D82 
 926 00b6 9353F573 		.ascii	"\223S\365ss\223\215M\014\315\342KR\213K\214\030T\365"
 926      73938D4D 
 926      0CCDE24B 
 926      528B4B8C 
 926      1854F5
 927 00c9 F49D3332 		.ascii	"\364\23532\2232\375\203\343\215\014\364\214\365\014"
 927      9332FD83 
 927      E38D0CF4 
 927      8CF50C
 928 00d8 F4F38BF5 		.ascii	"\364\363\213\3653\022s\364\213\213\222At|q\211^2\003"
 928      331273F4 
 928      8B8B9241 
 928      747C7189 
 928      5E3203
 929 00eb 0075F04E 		.ascii	"\000u\360N\210"
 929      88
 930              		.text
 931              		.section	.gnu.lto_stStartAlarm.353.16e55e500e04383e,"e",%progbits
 932 0000 789C8D52 		.ascii	"x\234\215RMh\023A\024~\337N~\354I\350ADz(j\021\005w"
 932      4D681341 
 932      147EDF4E 
 932      7EEC49E8 
ARM GAS  /tmp/ccveU0Ai.s 			page 22


 932      41447A28 
 933 0018 935414F1 		.ascii	"\223T\024\361\"\264\210b\212\207\024\217\2064\256\354"
 933      22B48862 
 933      8A87148F 
 933      8634AEEC 
 934 0028 42424276 		.ascii	"BBBv)x\352\230\"B\021b\353EB\025*Q\"\010EE\323\250\321"
 934      2978EA98 
 934      22421162 
 934      EB454215 
 934      2A512208 
 935 0041 B54AF524 		.ascii	"\265J\365$\2457\017BI.\342A\245\005iP\2503\223M\205"
 935      A5370F42 
 935      492EE241 
 935      A5056950 
 935      A833934D 
 936 0056 82E0C2EC 		.ascii	"\202\340\302\354{\337\233\367}\337\314\333=\253\021"
 936      7BDF9BF7 
 936      7DDFCCDB 
 936      3DAB11
 937 0065 3D24A27D 		.ascii	"=$\242}b\201\021f\246\2474\342\234\237\014k\2702=\325"
 937      62811166 
 937      A6A734E2 
 937      9C9F0C6B 
 937      B8323DD5 
 938 0079 833A1402 		.ascii	"\203:\024\002Mh\230\300MvP\300\215\253\345\371\267\340"
 938      4D6898C0 
 938      4D7650C0 
 938      8DABE5F9 
 938      B7E0
 939 008b 550F1546 		.ascii	"U\017\025FtG,\365\3142\314\260\012\003\002~\246\241"
 939      74472CF5 
 939      CC32CCB0 
 939      0A03027E 
 939      A6A1
 940 009d 5F64EC3C 		.ascii	"_d\354<\035\3608_n,p\336C\025\306P\203\340\340\031\360"
 940      1DF0385F 
 940      6E2C70DE 
 940      4315C650 
 940      83E0E019 
 941 00b2 14240B17 		.ascii	"\024$\013\027~\005\210B\276\022\004E\345\300sHMI\336"
 941      7E058842 
 941      BE120445 
 941      E5C07348 
 941      4D49DE
 942 00c5 58B9F6E9 		.ascii	"X\271\366\351\321\376\245I~\272\313\207\317\307\013"
 942      D1FEA549 
 942      7EBACB87 
 942      CFC70B
 943 00d4 48857650 		.ascii	"H\205vPt\016\310\316\345v\371z\230\177\340\201\355N"
 943      740EC8CE 
 943      E576F97A 
 943      987FE081 
 943      ED4E
 944 00e6 A2B373C8 		.ascii	"\242\263s\310\220\274\302\347(^\212Z]JIo4\224\237l\231"
 944      90BCC2E7 
 944      285E8A5A 
 944      5D4A496F 
ARM GAS  /tmp/ccveU0Ai.s 			page 23


 944      34949F6C 
 945 00fb 5F097AFC 		.ascii	"_\011z\374\367f\211\363\315=\037g\277\357\010i\300\202"
 945      F76689F3 
 945      CD3D1F67 
 945      BFEF0869 
 945      C082
 946 010d D8283139 		.ascii	"\330(19\031\036\000\367\210n0\255\003&\005\370\012\336"
 946      191E00F7 
 946      886E30AD 
 946      032605F8 
 946      0ADE
 947 011f 5C5F828C 		.ascii	"\\_\202\214{\267^\315\237!\021\212\375\302\347.\323"
 947      7BB75ECD 
 947      9F21118A 
 947      FDC2E72E 
 947      D3
 948 0130 6465FD5E 		.ascii	"de\375^\351qk\265WX\251\375Z\353\026\360\012\364\015"
 948      E9716BB5 
 948      5758A9FD 
 948      5AEB16F0 
 948      0AF40D
 949 0143 8BE5077D 		.ascii	"\213\345\007}\376\314\002\240\255L\031\010t\037bJAx"
 949      FECC02A0 
 949      AD4C1908 
 949      741F624A 
 949      4178
 950 0155 C06BB51B 		.ascii	"\300k\265\033\231\343\374\313\316\012\013\341\015n3"
 950      99E3FCCB 
 950      CE0A0BE1 
 950      0D6E33
 951 0164 75F69828 		.ascii	"u\366\230(UwUX\030\213\300!U\362M\233\365\326ni\261"
 951      55775558 
 951      188BC021 
 951      55F24D9B 
 951      F5D66E69 
 952 0179 56EDDB2E 		.ascii	"V\355\333.\325\325\011\343\235\320\201$Ic\361\261\025"
 952      D5D509E3 
 952      9DD08124 
 952      4963F1B1 
 952      15
 953 018a B1F11FC4 		.ascii	"\261\361\037\304\367\202\250\375%J\307\342\217\271'"
 953      F782A8FD 
 953      254AC7E2 
 953      8FB927
 954 0199 B5B898AC 		.ascii	"\265\270\230\254\0340\255\241\270\332>\245\376\217\022"
 954      1C30ADA1 
 954      B8DA3EA5 
 954      FE8F12
 955 01a8 EBDC0845 		.ascii	"\353\334\010EO\302\303\206\225\313\232\206\235\312\346"
 955      4FC2C386 
 955      95CB9A86 
 955      9DCAE6
 956 01b7 0BB66B8D 		.ascii	"\013\266k\215\333\216e\272\356ech8\221O\245M#\233M\017"
 956      DB8E65BA 
 956      EE656368 
 956      38914FA5 
 956      4D239B4D 
ARM GAS  /tmp/ccveU0Ai.s 			page 24


 957 01cc 1E891E4D 		.ascii	"\036\211\036M\272\246\343\306h@7\206,{\314>\227H\306"
 957      BAA6E3C6 
 957      68403786 
 957      2C7BCC3E 
 957      9748C6
 958 01df 22FAA01E 		.ascii	"\"\372\240\0361r\216a\2452\206SH\313\230t\\=M\341\324"
 958      31728E61 
 958      A5328653 
 958      48CB9874 
 958      5C3D4DE1 
 959 01f4 98E3DA59 		.ascii	"\230\343\332Y\263\267[\321S\307\315\350\261\350%\223"
 959      B3B75BD1 
 959      53C7CDE8 
 959      B1E82593 
 960 0204 4EFC4B20 		.ascii	"N\374K \237+\270\216\221\030\035\031\214\031\361\370"
 960      9F2BB88E 
 960      91181D19 
 960      8C19F1F8 
 961 0214 B0317A66 		.ascii	"\2601zfd<\352K&3\231\213\272E\177\000\224v\364\016"
 961      643CEA4B 
 961      2633998B 
 961      BA457F00 
 961      9476F40E 
 962              		.text
 963              		.section	.gnu.lto_stStopAlarm.354.16e55e500e04383e,"e",%progbits
 964 0000 789C758F 		.ascii	"x\234u\217\277KBQ\024\307\317\367\335~\322\020\264\264"
 964      BF4B4251 
 964      14C7CFF7 
 964      DD7ED210 
 964      B4B4
 965 0012 B4454343 		.ascii	"\264ECC\357\372#ZZ\002]\002\245A\367\207\231\360\036"
 965      EFFA235A 
 965      5A025D02 
 965      A541F787 
 965      99F01E
 966 0025 288AEF21 		.ascii	"(\212\357!4ySZ\2040m\211\260B\220pk\2524\227G\015M-"
 966      3479535A 
 966      84306D89 
 966      B0429070 
 966      6BAA3497 
 967 003d FD059143 		.ascii	"\375\005\221C\321Pa\020\005A\335\367\224\266.\034\356"
 967      D1506110 
 967      0541DDF7 
 967      94B62E1C 
 967      EE
 968 004e F99C7BCE 		.ascii	"\371\234{\316\367|\357\004\210*D4+\003\214P\255\224"
 968      F77CEF04 
 968      882A4434 
 968      2B038C50 
 968      AD94
 969 0060 141242AC 		.ascii	"\024\022B\254\214*\330\252\224\306q\006\227@y\005y\354"
 969      8C2AD8AA 
 969      94C67106 
 969      97407905 
 969      79EC
 970 0072 B179899F 		.ascii	"\261y\211\237\333\007\267\327\020M\033\015Ft$cpF\006"
 970      DB07B7D7 
ARM GAS  /tmp/ccveU0Ai.s 			page 25


 970      104D1B0D 
 970      46742463 
 970      704606
 971 0085 841A839B 		.ascii	"\204\032\203\233\003\347 \007\234\251G/I9Yt\372p\341"
 971      03E72007 
 971      9CA9472F 
 971      49395974 
 971      FA70E1
 972 0098 BEC9F574 		.ascii	"\276\311\365tz7l\213\357\237\262\020\2573\255\332\307"
 972      7A376C8B 
 972      EF9FB210 
 972      AF33ADDA 
 972      C7
 973 00a9 98542833 		.ascii	"\230T(3\307\204\030\202\260\211v\231\322\207\242\204"
 973      C7841882 
 973      B0897699 
 973      D287A284 
 974 00b9 678887E3 		.ascii	"g\210\207\343\0338\367{{\247\327\275\237\222Jn\365\253"
 974      1B38F77B 
 974      7BA7D7BD 
 974      9F924A6E 
 974      F5AB
 975 00cb BB0FB440 		.ascii	"\273\017\264@/\270\3525\247\345\322*kH\003\364\227\271"
 975      2FB8EA35 
 975      A7E5D22A 
 975      6B4803F4 
 975      97B9
 976 00dd 22924E40 		.ascii	"\"\222N@\015\246\340\022h\203<u!\236&\033\214\241\203"
 976      0DA6E012 
 976      68833C75 
 976      219E261B 
 976      8CA183
 977 00f0 43E6FA72 		.ascii	"C\346\372r\272\245I\352\241\360V/v\202\322\264\373\273"
 977      BAA549EA 
 977      A1F0562F 
 977      7682D2B4 
 977      FBBB
 978 0102 32EB4BA0 		.ascii	"2\353K\240`;\270\300\365t*\301\215X*\2235,=g\230z\302"
 978      603BB8C0 
 978      F5742AC1 
 978      8D582A93 
 978      352C3D67 
 979 0119 B2367920 		.ascii	"\2626y \030\311\304\342\011\236J\305\375\213\336%\315"
 979      18C9C4E2 
 979      099E4AC5 
 979      FD8BDE25 
 979      CD
 980 012a 4A98968F 		.ascii	"J\230\226\217\346T\036\320\215uc-\242\371<\252_\365"
 980      E6541ED0 
 980      8D75632D 
 980      A2F93CAA 
 980      5FF5
 981 013c F0B4C9F5 		.ascii	"\360\264\311\365X\222\233\331\270sk\246\245\306i\371"
 981      58929BD9 
 981      B8736BA6 
 981      A5C669F9 
 982 014c BFAE4C3A 		.ascii	"\277\256L:k\231<\022\015\373}<\024\012\362\350j8\347"
ARM GAS  /tmp/ccveU0Ai.s 			page 26


 982      6B993C12 
 982      0DFB7D3C 
 982      140AF2E8 
 982      6A38E7
 983 015f 1DCC69C9 		.ascii	"\035\314i\311\344\206\252\323/D@\210\332"
 983      E486AAD3 
 983      2F444088 
 983      DA
 984              		.text
 985              		.section	.gnu.lto_stSetAlarm.355.16e55e500e04383e,"e",%progbits
 986 0000 789C7551 		.ascii	"x\234uQAh\324P\020\235\227\237\335\330\223\320\203'"
 986      4168D450 
 986      109D979F 
 986      DDD893D0 
 986      8327
 987 0012 91A21451 		.ascii	"\221\242\024Q0\177\263+\212\350AhA\205-\036\266xtI\327"
 987      307FB32B 
 987      8AE84168 
 987      41852D1E 
 987      B6787449 
 988 0027 48021B76 		.ascii	"H\002\033v\331\204\202\247~\267\210P\204\265\365\242"
 988      D98482A7 
 988      7EB78850 
 988      84B5F5A2 
 989 0037 A5162A51 		.ascii	"\245\026*Q*\010\202\242m\255\325X\021=x\250\005\017"
 989      2A0882A2 
 989      6DADD558 
 989      113D78A8 
 989      050F
 990 0049 45D0D243 		.ascii	"E\320\322C\221\012\242\366`\017\242\376\237\335\366"
 990      910AA2F6 
 990      600FA2FE 
 990      9FDDF6
 991 0058 2018F899 		.ascii	" \030\370\231\23173\357\375\231\277\004\242{D\264G\036"
 991      993733EF 
 991      FD99BF04 
 991      A27B44B4 
 991      471E
 992 006a 30C2C8F0 		.ascii	"0\302\310\360\220FB\210\343\206\206\213\303Cm\230A\022"
 992      90464288 
 992      E386868B 
 992      C3436D98 
 992      4112
 993 007c 8106340C 		.ascii	"\201\0064\014\340\032\333'\303\215K\243_^BL\306\210"
 993      E01ADB27 
 993      C38D4BA3 
 993      5F5E424C 
 993      C688
 994 008e 18D1B83C 		.ascii	"\030\321\270<\3117\3060\302\"\006\350-OC\207\364\330"
 994      C937C630 
 994      C22206E8 
 994      2D4F4387 
 994      F4D8
 995 00a0 19DA1B0B 		.ascii	"\031\332\033\013\2610;-D\033E\214a\012\262\007\217\201"
 995      B1303B2D 
 995      441B458C 
 995      610AB207 
ARM GAS  /tmp/ccveU0Ai.s 			page 27


 995      8F81
 996 00b2 47525D02 		.ascii	"GR]\002g\337\351D\351\026\023dK\342\003O\2408U\363\306"
 996      67DFE944 
 996      E9161364 
 996      4BE2034F 
 996      A03855F3 
 997 00c7 E2E51B0F 		.ascii	"\342\345\033\017\217\275\032\024'7\373\321\352\307,"
 997      8FBD1A14 
 997      2737FBD1 
 997      EAC72C
 998 00d6 14C3FB94 		.ascii	"\024\303\373\224\254\354T\225\013K\343W\014\361F\350"
 998      ACEC5495 
 998      0B4BE357 
 998      0CF146E8 
 999 00e6 FF2AC9CA 		.ascii	"\377*\311\312\346%\323j\204\237\026\236JlFQ)m\314%z"
 999      E625D36A 
 999      849F169E 
 999      4A6C4651 
 999      296DCC25 
 1000 00fb AAE4FE62 		.ascii	"\252\344\376b*\026\277\3764\204\370\264\353\355\330"
 1000      2A16BFFE 
 1000      3484F8B4 
 1000      EBEDD8
 1001 010a EF6DBA06 		.ascii	"\357m\272\006L\313D\203\251\315\010\035\"&\272\312\264"
 1001      4CCB4483 
 1001      A9CD081D 
 1001      2226BACA 
 1001      B4
 1002 011b 66302883 		.ascii	"f0(\2035\210\225\017\257\241\354\356\255\337\312GC\232"
 1002      3588950F 
 1002      AFA1ECEE 
 1002      ADDFCA47 
 1002      439A
 1003 012d 7A87D4B9 		.ascii	"z\207\324\271\3054\205\254\337n<X]n\227RI~j\365:\360"
 1003      C53485AC 
 1003      DF6E3C58 
 1003      5D6E9752 
 1003      497E6AF5 
 1004 0143 0CF415F3 		.ascii	"\014\364\025\363\243ww\266v\246\203\266\274D@Fw \267"
 1004      A37777B6 
 1004      76A683B6 
 1004      BC444046 
 1004      7720B7
 1005 0156 94420C3C 		.ascii	"\224B\014<O\262\231\011!>o\217X\032/p\223%w\317JhrG"
 1005      4FB29909 
 1005      213E6F8F 
 1005      581A2F70 
 1005      932577CF 
 1006 016e C40CCC03 		.ascii	"\304\014\314\003\373\023\250)Z\3776\261>\227\227s\252"
 1006      FB13A829 
 1006      5AFF36B1 
 1006      3E979773 
 1006      AA
 1007 017f 71E907EA 		.ascii	"q\351\007\352\313\337O$\257\325`M~\324c\025\036\340"
 1007      CBDF4F24 
 1007      AFD5604D 
 1007      7ED46315 
ARM GAS  /tmp/ccveU0Ai.s 			page 28


 1007      1EE0
 1008 0191 6EC577B8 		.ascii	"n\305w\270g\373\325\232\027\272\375^\340:ax\201wu\027"
 1008      67FBD59A 
 1008      17BAFD5E 
 1008      E03A6178 
 1008      81777517 
 1009 01a5 AA76C9E1 		.ascii	"\252v\311\341\276_\312\035\264\016\025C'\010\263\324"
 1009      BE5FCA1D 
 1009      B40E1543 
 1009      2708B3D4 
 1010 01b5 69F22ED7 		.ascii	"i\362.\327\353\363N\027\212\331\214\23133\274\022p\327"
 1010      EBF34E17 
 1010      8AD98C99 
 1010      3333BC12 
 1010      70D7
 1011 01c7 2EF3A056 		.ascii	".\363\240VR\266\030\204f\211\014\273/\010=\337i\337"
 1011      52B61884 
 1011      66890CBB 
 1011      2F083DDF 
 1011      69DF
 1012 01d9 444CFB88 		.ascii	"DL\373\210c\035\266\316;t\364\177\004\325J-\014x\241"
 1012      631DB6CE 
 1012      3B74F47F 
 1012      04D54A2D 
 1012      0C78A1
 1013 01ec B72797E5 		.ascii	"\267'\227\345\371|7\357=\325\323o\265(\213\345\3629"
 1013      F97C37EF 
 1013      3DD5D36F 
 1013      B5288BE5 
 1013      F239
 1014 01fe D3A5BFE7 		.ascii	"\323\245\277\347 \320\336"
 1014      20D0DE
 1015              		.text
 1016              		.section	.gnu.lto_stGetAlarm.356.16e55e500e04383e,"e",%progbits
 1017 0000 789C7550 		.ascii	"x\234uP\317K\033A\024~\337\316\232X\241'\377\001)\376"
 1017      CF4B1B41 
 1017      147EDFCE 
 1017      9A58A127 
 1017      FF0129FE 
 1018 0014 6AC19D98 		.ascii	"j\301\235\230\224^z\021\364R0x\210\367\220\246\201]"
 1018      945E7A11 
 1018      F4523078 
 1018      88F790A6 
 1018      815D
 1019 0026 4848C82E 		.ascii	"HH\310.\202'G\213\027\213\304\304K\321\030P\026\211"
 1019      8227478B 
 1019      178BC4C4 
 1019      4BD11850 
 1019      1689
 1020 0038 A75E2CD6 		.ascii	"\247^,\326\326\226\305\213\245\247\266\307^\004\241"
 1020      D696C58B 
 1020      A5A7B6C7 
 1020      5E04A1
 1021 0047 223D14D1 		.ascii	"\"=\024\321\213\007A\337LBo\035\230y\357\373\346{\337"
 1021      8B0741DF 
 1021      4C426F1D 
 1021      9879EFFB 
ARM GAS  /tmp/ccveU0Ai.s 			page 29


 1021      E67BDF
 1022 005a 7B333320 		.ascii	"{33 \252\023\3210o\010B\243\276b\221Rj\"na\261\276r"
 1022      AA13D130 
 1022      6F0842A3 
 1022      BE629152 
 1022      6A226E61 
 1023 0071 D7DEB771 		.ascii	"\327\336\267q\000C\200\026,,`]4\005\032\"d\261\335\315"
 1023      00438016 
 1023      2C2C605D 
 1023      34051A22 
 1023      64B1DDCD 
 1024 0085 8081C791 		.ascii	"\200\201\307\221R7\313\033o~\307\232\355\310\016\205"
 1024      5237CB1B 
 1024      6F7EC79A 
 1024      EDC80E85 
 1025 0095 452D16BC 		.ascii	"E-\026\274\007\366\271\201^1\322\0147\341\032\223\003"
 1025      07F6B981 
 1025      5E31D20C 
 1025      37E11A93 
 1025      03
 1026 00a6 1F401AB0 		.ascii	"\037@\032\260\371\315\311\016\253\017\300\254\026\342"
 1026      F9CDC90E 
 1026      AB0FC0AC 
 1026      16E2
 1027 00b4 D05CEACA 		.ascii	"\320\\\352\312w?{\"u{WS\352t\364\250\271\373\200\215"
 1027      773F7B22 
 1027      757B5753 
 1027      EA74F4A8 
 1027      B9FB808D 
 1028 00c8 43C13E35 		.ascii	"C\301>5\241\247T6TD\264&\254\016x\315\340\017\324\331"
 1028      A1A75436 
 1028      5444B426 
 1028      AC0E78CD 
 1028      E00FD4D9 
 1029 00dc E637E8F8 		.ascii	"\3467\350\370\350\337q\326\352\323\341\372p\365\327"
 1029      E8DF71D6 
 1029      EAD3E1FA 
 1029      70F5D7
 1030 00eb F9D77EF6 		.ascii	"\371\327~\3667\344\351\371[\340#\350/\216\277\357=\334"
 1030      37E4E9F9 
 1030      5BE023E8 
 1030      2F8EBFEF 
 1030      3DDC
 1031 00fd 1156F73D 		.ascii	"\021V\367=\266\031\254\223\031cF\273\340\306=8\002>"
 1031      B619AC93 
 1031      196346BB 
 1031      E0C63D38 
 1031      023E
 1032 010f 99DBC4B6 		.ascii	"\231\333\304\266R\027\203\241\210\3413\266\204\2319"
 1032      521783A1 
 1032      88E133B6 
 1032      849939
 1033 011e C9547B24 		.ascii	"\311T{$\024q|\001\236\030\212\256\260t\271}\375\343"
 1033      14717C01 
 1033      9E188AAE 
 1033      B074B97D 
 1033      FDE3
ARM GAS  /tmp/ccveU0Ai.s 			page 30


 1034 0130 A2975FC7 		.ascii	"\242\227_\307\015\364O\324D\307\024K\221\206c\322-\227"
 1034      0DF44FD4 
 1034      44C7144B 
 1034      918663D2 
 1034      2D97
 1035 0142 0AD2CB95 		.ascii	"\012\322\313\225*U/p\347<\337-\004\301\274\234\234\312"
 1035      2A552F70 
 1035      E73CDF2D 
 1035      04C1BC9C 
 1035      9CCA
 1036 0154 5472F982 		.ascii	"Tr\371\202,\225\362\251\247\343\317\262A\301\017\222"
 1036      2C95F2A9 
 1036      A7E3CFB2 
 1036      41C10F92 
 1037 0164 34E4C849 		.ascii	"4\344\310I\327{\351\315d\262\311\204\223r\022\262\354"
 1037      D77BE9CD 
 1037      64B2C984 
 1037      937212B2 
 1037      EC
 1038 0175 4B375794 		.ascii	"K7W\224~5\257c\326\017\234<=\377\237\252R\256\006\276"
 1038      7E35AF63 
 1038      D60F9C3C 
 1038      3DFF9FAA 
 1038      52AE06BE 
 1039 0189 CCCCA653 		.ascii	"\314\314\246SI9==%g_\244\347\306\273u\331b\361\225\343"
 1039      49393D3D 
 1039      25675FA4 
 1039      E7C6BB75 
 1039      D962F195 
 1040 019e D23D3C99 		.ascii	"\322=<\231\236i"
 1040      9E69
 1041              		.text
 1042              		.section	.gnu.lto_stGetCounter.357.16e55e500e04383e,"e",%progbits
 1043 0000 789C754F 		.ascii	"x\234uOAK\033A\030\375\336\316\232\264\207\236\374\003"
 1043      414B1B41 
 1043      18FDDECE 
 1043      9AB4879E 
 1043      FC03
 1044 0012 1E54A8E0 		.ascii	"\036T\250\340NL\244\027/\202^\004\305Cr\017i\032\330"
 1044      4E4CA417 
 1044      2F825E04 
 1044      C543720F 
 1044      691AD8
 1045 0025 858484EC 		.ascii	"\205\204\204\354\"x\312\250x\021$F/\"\261\220\020\244"
 1045      2278CAA8 
 1045      78112446 
 1045      2F22B190 
 1045      10A4
 1046 0037 35875E52 		.ascii	"5\207^R\322\264\266,=\365\334\242'A\010\010\342AE\241"
 1046      D2B4B62C 
 1046      3DF5DCA2 
 1046      27410808 
 1046      E24145A1 
 1047 004b 042CD46F 		.ascii	"\004,\324o6\271:03\337\373\346\275\367\275\031\007Q"
 1047      36B93A30 
 1047      33DFFBE6 
 1047      BDF7BD19 
ARM GAS  /tmp/ccveU0Ai.s 			page 31


 1047      0751
 1048 005d 8588C679 		.ascii	"\205\210\306yC\020v+[\006)\245f\303\006\326*[\267\307"
 1048      4310762B 
 1048      5B0629A5 
 1048      66C306D6 
 1048      2A5BB7C7 
 1049 0071 2D136D04 		.ascii	"-\023m\004\015P\311@\011{\242*\260+\032L6\007\0250\362"
 1049      0D50C940 
 1049      097BA22A 
 1049      B02B1A4C 
 1049      36071530 
 1050 0086 DA57AAB7 		.ascii	"\332W\252\267y\320\274\014U?\370fC\030\364\236\011\237"
 1050      79D0BC0C 
 1050      553FF866 
 1050      4318F49E 
 1050      099F
 1051 0098 81160FD0 		.ascii	"\201\026\017\320+D\272\303CX\023\324\300\027\220\006"
 1051      2B44BAC3 
 1051      435813D4 
 1051      C0179006 
 1052 00a8 6CDE3BAB 		.ascii	"l\336;\2533\273\015\356j\":\301\243V~\372=\344\253\177"
 1052      33BB0DEE 
 1052      6A223AC1 
 1052      A3567EFA 
 1052      3DE4AB7F 
 1053 00bc FFCB4A5D 		.ascii	"\377\313J]L\3748o\276d\343\206`\237\262\320)\225\011"
 1053      4CFC386F 
 1053      BE64E386 
 1053      609FB2D0 
 1053      299509
 1054 00cf E513ED08 		.ascii	"\345\023\355\010\243\0176\030\\C\325\303\372|\350l\377"
 1054      A30F3618 
 1054      5C43D5C3 
 1054      FA7CE86C 
 1054      FF
 1055 00e0 EDFE1A66 		.ascii	"\355\376\032f3\215\272\217\335}\340+\350\006?O>\276"
 1055      338DBA8F 
 1055      DD7DE02B 
 1055      E8063F4F 
 1055      3EBE
 1056 00f2 AA0B6310 		.ascii	"\252\013c\020\336\014R\364\253\300\205\321\021x\312"
 1056      DE0C52F4 
 1056      ABC085D1 
 1056      1178CA
 1057 0101 104E806F 		.ascii	"\020N\200o\240HM\251\253\321\206\010\341;\016E\220\216"
 1057      A0484DA9 
 1057      ABD18608 
 1057      E13B0E45 
 1057      908E
 1058 0113 EEB17E57 		.ascii	"\356\261~W\373sz\365\202C\263\225\376`Y\364\345X\367"
 1058      FB737AF5 
 1058      8243B395 
 1058      FE6059F4 
 1058      E558F7
 1059 0126 359C9476 		.ascii	"5\234\224v>\227\221N*W(:\236\275\342\270v\306\363V\345"
 1059      3E97914E 
 1059      2A57283A 
ARM GAS  /tmp/ccveU0Ai.s 			page 32


 1059      9EBDE2B8 
 1059      76C6F356 
 1060 013b DC7CBC90 		.ascii	"\334|\274\220Jgd.\227\216MO\275Iz\031\327\213\322\230"
 1060      4A67642E 
 1060      978E4D4F 
 1060      BD497A19 
 1060      D78BD298 
 1061 014f 25E76CE7 		.ascii	"%\347l\347\255\263\034OF#V\314\212\310\274+\355TV\272"
 1061      ADB31C4F 
 1061      462356CC 
 1061      8AC8BC2B 
 1061      ED5456BA 
 1062 0163 C5B4BE93 		.ascii	"\305\264\276\223\256g\245i\3469V!_\364\\\031O,\305\242"
 1062      AE67A569 
 1062      E6395621 
 1062      5FF45C19 
 1062      4F2CC5A2 
 1063 0177 7271715E 		.ascii	"rqq^&\026\226V\246\006\272d6\373\316\262\351\011d\177"
 1063      26169656 
 1063      A606BA64 
 1063      36FBCEB2 
 1063      E909647F 
 1064 018b 9166     		.ascii	"\221f"
 1065              		.text
 1066              		.section	.gnu.lto_stIsAlarmActive.358.16e55e500e04383e,"e",%progbits
 1067 0000 789C7550 		.ascii	"x\234uP\317K\033A\024~\337\316\306\037\327\376\003="
 1067      CF4B1B41 
 1067      147EDFCE 
 1067      C61FD7FE 
 1067      033D
 1068 0012 B520B43B 		.ascii	"\265 \264;1\021/\275\224&\027!\342!\336CL\003\273\220"
 1068      31112FBD 
 1068      94261721 
 1068      E221DE43 
 1068      4C03BB90 
 1069 0026 90905D84 		.ascii	"\220\220]\204\2362*E\010H\214\005\021\253\322.A\024"
 1069      9E322A45 
 1069      08488C05 
 1069      11ABD22E 
 1069      4114
 1070 0038 841EFC55 		.ascii	"\204\036\374U\253\207E\350\301\223 x\350\251R(\201\202"
 1070      AB8745E8 
 1070      C1932078 
 1070      E8A95228 
 1070      8182
 1071 004a 52EA2507 		.ascii	"R\352%\007\301\276\231xu`\336\274\357{\357}\357c\336"
 1071      C1BE9978 
 1071      7560DEBC 
 1071      EF7BEF7D 
 1071      EF63DE
 1072 005d 80A84544 		.ascii	"\200\250ED\317\371B\020\226Z\015\213\224R\257\373-\314"
 1072      CFF94210 
 1072      965A0D8B 
 1072      9452AFFB 
 1072      2DCC
 1073 006f B41A3F77 		.ascii	"\264\032?w\366l\354\303\020\240\272\205:>\210\241H\251"
 1073      F66CECC3 
ARM GAS  /tmp/ccveU0Ai.s 			page 33


 1073      10A0BA85 
 1073      3A3E88A1 
 1073      48A9
 1074 0081 EEFBD5B3 		.ascii	"\356\373\325\263\357X\335\212\320\026D\033<\231D\234"
 1074      EF58DD8A 
 1074      D016441B 
 1074      3C99449C 
 1075 0091 CCE93398 		.ascii	"\314\3513\230\345\326\004L\016\034\2004`\231\356\357"
 1075      E5D6044C 
 1075      0E1C8034 
 1075      6099EEEF 
 1076 00a1 907BF7C1 		.ascii	"\220{\367\301\254n\304\241)\262\011\372r\021\213\324"
 1076      AC6EC4A1 
 1076      29B209FA 
 1076      72118BD4 
 1077 00b1 DD7D53A9 		.ascii	"\335}S\251\363\027'k\273\2031\213\332\202-q\260I/\241"
 1077      F317276B 
 1077      BB83318B 
 1077      DA822D71 
 1077      B0492FA1 
 1078 00c5 A6D0CE94 		.ascii	"\246\320\316\224\015\025\021-\012\253\007\346\030\374"
 1078      0D15112D 
 1078      0AAB07E6 
 1078      18FC
 1079 00d3 810AFB75 		.ascii	"\201\012\373u\274=ZX\356\\=aY\215~}\354\254\000_A78"
 1079      BC3D5A58 
 1079      EE5C3D61 
 1079      598D7E7D 
 1079      ECAC005F 
 1080 00ea 3DD97E1A 		.ascii	"=\331~\032\012\213],\211\266\260\214\237^fT\030m\202"
 1080      0A8B5D2C 
 1080      89B6B08C 
 1080      9F5E6654 
 1080      186D82
 1081 00fd B7087C03 		.ascii	"\267\010|\003\216@\361\317J\015\264\205\215c\254\013"
 1081      8E40F1CF 
 1081      4A0DB485 
 1081      8D63AC0B 
 1082 010d 639335E6 		.ascii	"c\2235\346\226\347\257\355P\010\326\321\243\200\245"
 1082      96E7AFED 
 1082      5008D6D1 
 1082      A380A5
 1083 011c C98BF94B 		.ascii	"\311\213\371K\204B\363=\222\350\037f\377~\332\375\241"
 1083      8442F33D 
 1083      92E81F66 
 1083      FF7EDAFD 
 1083      A1
 1084 012d 3F8E0B64 		.ascii	"?\216\013d\234\367\326`6\322\360\245t+\345\242\364\362"
 1084      9CF7D660 
 1084      36D2F0A5 
 1084      742BE5A2 
 1084      F4F2
 1085 013f E56ACD0B 		.ascii	"\345j\315\013\334i\317w\213A\360N\246\322\331j\276P"
 1085      DC69CF77 
 1085      8B41F04E 
 1085      A6D2D96A 
 1085      BE50
ARM GAS  /tmp/ccveU0Ai.s 			page 34


 1086 0151 94E57221 		.ascii	"\224\345r!92<\232\013\212~\220\240g\216L\271\336\224"
 1086      39323C9A 
 1086      0B8A7E90 
 1086      A0678E4C 
 1086      B9DE94
 1087 0164 3791CD25 		.ascii	"7\221\315%\342N\322\211\313\212/\335|I\372\265\202~"
 1087      E24ED289 
 1087      CB8A2FDD 
 1087      7C49FAB5 
 1087      827E
 1088 0176 737EE014 		.ascii	"s~\340\024\350\325c]\325J-\360evr<\231\220\231LZN\216"
 1088      E8D5635D 
 1088      D54A2DF0 
 1088      6576723C 
 1088      9990994C 
 1089 018d 8D4F0F3F 		.ascii	"\215O\017?\314\345J\245\267\216K\377\001\236 \227#"
 1089      CCE54AA5 
 1089      B78E4BFF 
 1089      019E2097 
 1089      23
 1090              		.text
 1091              		.section	.gnu.lto_.symbol_nodes.16e55e500e04383e,"e",%progbits
 1092 0000 789C75CF 		.ascii	"x\234u\317I\001\2000\014D\321\311\264P\031\230\301\327"
 1092      49018030 
 1092      0C44D1C9 
 1092      B4501998 
 1092      C1D7
 1093 0012 1407E841 		.ascii	"\024\007\350A\004\032\330\021\200\000\366k\376\365e"
 1093      041AD811 
 1093      8000F66B 
 1093      FEF565
 1094 0021 0E3970C7 		.ascii	"\0169p\307\201B\276\213\326\366\200\200.7\006\303\213"
 1094      8142BE8B 
 1094      D6F68080 
 1094      2E3706C3 
 1094      8B
 1095 0032 23652E4E 		.ascii	"#e.N\024]\234\251\340\342BE\027W\252pq\243J\017m\247"
 1095      145D9CA9 
 1095      E0E24245 
 1095      1757AA70 
 1095      71A34A0F 
 1096 0048 D2F957BD 		.ascii	"\322\371W\275\007x^{4 }\263\032\0271\004@\346"
 1096      07785E7B 
 1096      34207DB3 
 1096      1A173104 
 1096      40E6
 1097              		.text
 1098              		.section	.gnu.lto_.refs.16e55e500e04383e,"e",%progbits
 1099 0000 789C6364 		.ascii	"x\234cd\000\002\000\000\012\000\002"
 1099      00020000 
 1099      0A0002
 1100              		.text
 1101              		.section	.gnu.lto_.decls.16e55e500e04383e,"e",%progbits
 1102 0000 789CAD56 		.ascii	"x\234\255V}PT\327\025\277\347\336\267\313\362\330\010"
 1102      7D5054D7 
 1102      15BFE7DE 
 1102      B7CBF2D8 
ARM GAS  /tmp/ccveU0Ai.s 			page 35


 1102      08
 1103 0011 454C3AFD 		.ascii	"EL:\375\260[\223\214\333Nd\331%\243\323\366\037\314"
 1103      B05B938C 
 1103      DB4E64D9 
 1103      25A3D3F6 
 1103      1FCC
 1104 0023 628C9360 		.ascii	"b\214\223`\234\305\314t\372\317\016e7egX\227\262O\247"
 1104      9CC5CC74 
 1104      FACF0E65 
 1104      37656758 
 1104      97B24FA7 
 1105 0037 F9EF950F 		.ascii	"\371\357\225\017Q\024!\022,J\022Ic\225\346Ca\324\306"
 1105      51142112 
 1105      2C4A1249 
 1105      6395E643 
 1105      61D4C6
 1106 004a B8AD418C 		.ascii	"\270\255A\214q\015j0!UB\254 *\033\305H\022MTTz\356\373"
 1106      710D6A30 
 1106      215542AC 
 1106      202A1BC5 
 1106      48124D54 
 1107 0062 645DD2A6 		.ascii	"d]\322\2463}p\356\273\367\274\337\357w\316\271\367\276"
 1107      337D70EE 
 1107      BBF7BCDF 
 1107      EF77CEB9 
 1107      F7BE
 1108 0074 FB36CB4E 		.ascii	"\3736\313N\310JJ\310#h\223x\331\010!'\321\000-F\324"
 1108      C84A4AC8 
 1108      23689378 
 1108      D9082127 
 1108      D1002D46 
 1109 0089 8BFB7AD0 		.ascii	"\213\373z\320\336C\213\243\275\217v\034\355\003\264"
 1109      DE438BA3 
 1109      BD8F761C 
 1109      ED03B4
 1110 0098 7FA29D26 		.ascii	"\177\242\235&\251W-\0120\274\227\241\015\240\035\324"
 1110      A9572D0A 
 1110      30BC97A1 
 1110      0DA01DD4 
 1111 00a8 FC54D39A 		.ascii	"\374T\323\232\216\323\000j,\316\311F\313\321r\3701\372"
 1111      8ED3006A 
 1111      2CCEC946 
 1111      CBD172F8 
 1111      31FA
 1112 00ba 7F847615 		.ascii	"\177\204v\025\373CD\325\0259\026\355~P5yn?\201T\315"
 1112      FB4344D5 
 1112      153916ED 
 1112      7E503579 
 1112      6E3F8154 
 1113 00cf E7D12768 		.ascii	"\347\321'h\232\272\316\220V\237\316\3455\375t\032n\313"
 1113      9ABACE90 
 1113      569FCEE5 
 1113      35FD741A 
 1113      6ECB
 1114 00e1 77CC07B4 		.ascii	"w\314\007\264|\25067\017N\243\325\246iM\325\231\373"
 1114      7CA83637 
 1114      0F4EA3D5 
ARM GAS  /tmp/ccveU0Ai.s 			page 36


 1114      A6694DD5 
 1114      99FB
 1115 00f3 5FB4F81C 		.ascii	"_\264\370\034?<\215\326V\364\245\375\007-]\347\007\232"
 1115      3F3C8DD6 
 1115      56F4A5FD 
 1115      072D5DE7 
 1115      079A
 1116 0105 0E5FA7B9 		.ascii	"\016_\247\271\323\350\274\211>\013\336\373\277\205\257"
 1116      D3E8BC89 
 1116      3E0BDEFB 
 1116      BF85AF
 1117 0114 CF0F5FE3 		.ascii	"\317\017_\343\237M\303\337\310`.\360M\223\251\364\010"
 1117      9F4DC3DF 
 1117      C8602EF0 
 1117      4D93A9F4 
 1117      08
 1118 0125 A3C4252B 		.ascii	"\243\304%+\327\271\231\004\376\2462\3622\230\227#\263"
 1118      D7B99904 
 1118      FEA632F2 
 1118      32989723 
 1118      B3
 1119 0136 41C03607 		.ascii	"A\3006\007\034m\214\356\256~\271\331.v\313\362\270\334"
 1119      1C6D8CEE 
 1119      AE7EB9D9 
 1119      2E76CBF2 
 1119      B8DC
 1120 0148 5D934E60 		.ascii	"]\223N`?\300\333@`\037\240\312[\000{\001\366\000\302"
 1120      3FC0DB40 
 1120      601FA0CA 
 1120      5B007B01 
 1120      F600C2
 1121 015b 5E1F899D 		.ascii	"^\037\211\235\261_\000%\007!\000\000\247\347c#\222\337"
 1121      B15F0025 
 1121      07210000 
 1121      A7E76323 
 1121      92DF
 1122 016d 30922353 		.ascii	"0\222#S\231Z\003\214\212Ld\0011\016\263\235\327X\201"
 1122      995A038C 
 1122      8A4C6401 
 1122      310EB39D 
 1122      D75881
 1123 0180 8D3A3345 		.ascii	"\215:3E[\307!\310\022-6J\023i\001\321y\013\336\240\355"
 1123      5BC721C8 
 1123      122D364A 
 1123      136901D1 
 1123      790BDEA0 
 1124 0195 5647812C 		.ascii	"VG\201,\004\326\317J\244\311\264iiN~\001\266\211\264"
 1124      04D6CF4A 
 1124      A4C9B469 
 1124      694E7E01 
 1124      B689B4
 1125 01a8 380490B5 		.ascii	"8\004\220\265L\260ea/\221&^c\355\015\326\300q\272f."
 1125      4CB06561 
 1125      2F91265E 
 1125      63ED0DD6 
 1125      C071BA66 
 1126 01bd C4410C78 		.ascii	"\304A\014xr\260\222\002\233mvf\017\353a\217\343\372"
ARM GAS  /tmp/ccveU0Ai.s 			page 37


 1126      72B09202 
 1126      9B6D7666 
 1126      0FEB618F 
 1126      E3FA
 1127 01cf D93A77CE 		.ascii	"\331:w\316\022\023i\231(\341\0148\262\002\216\3148X"
 1127      12136999 
 1127      28E10C38 
 1127      B2028ECC 
 1127      3858
 1128 01e1 020131C7 		.ascii	"\002\0011\307I0\211\200\307S@ET\026lq\3600\260{\344"
 1128      49308980 
 1128      C7534045 
 1128      54166C71 
 1128      F030B07B 
 1129 01f6 E1CB0F88 		.ascii	"\341\313\017\210\0261}\266\303IH\200<NQ\227M\352\027"
 1129      16317DB6 
 1129      C3494880 
 1129      3C4E5197 
 1129      4DEA17
 1130 0209 A461CC80 		.ascii	"\244a\314\2009\004p\212\324C\331\223\011\\\\J\035\204"
 1130      3904708A 
 1130      D443D993 
 1130      095C5C4A 
 1130      1D84
 1131 021b C882CD6E 		.ascii	"\310\202\315n\007\031o\351\376'\003\313<\"I\244Q|\224"
 1131      07196FE9 
 1131      FE2703CB 
 1131      3C2249A4 
 1131      517C94
 1132 022e 23804CC1 		.ascii	"#\200L\301d\212V\002\360\022\303)T\376x\003Z\003|\010"
 1132      648A5602 
 1132      F012C329 
 1132      54FE7803 
 1132      5A037C08 
 1133 0242 EABBAD87 		.ascii	"\352\273\255\207Q\374|\215\251\206\346\020\325k\334"
 1133      51FC7C8D 
 1133      A986E610 
 1133      D56BDC
 1134 0251 B43E0750 		.ascii	"\264>\007PM\207j\313\016*G\013\302\333)\342\006\004"
 1134      4D876ACB 
 1134      0E2A470B 
 1134      C2DB29E2 
 1134      0604
 1135 0263 3488AEA3 		.ascii	"4\210\256\243r4\200\301\325\272<\206\002\246S9\012/"
 1135      723480C1 
 1135      D5BA3C86 
 1135      02A65339 
 1135      0A2F
 1136 0275 29715392 		.ascii	")qS\222\030\262zJD\035\340\2769\330<Xg\271\210\363&"
 1136      18B27A4A 
 1136      441DE0BE 
 1136      39D83C58 
 1136      67B988F3 
 1137 028a 6F6B8831 		.ascii	"ok\2101\230\325T@\200=\253nB\252l\302,D\325\3056\364"
 1137      98D55440 
 1137      803DAB6E 
 1137      42AA6CC2 
ARM GAS  /tmp/ccveU0Ai.s 			page 38


 1137      2C44D5C5 
 1138 02a0 8A0F2068 		.ascii	"\212\017 hL\226s\240\014\272\001\336\341\001\016\242"
 1138      4C9673A0 
 1138      0CBA01DE 
 1138      E1010EA2 
 1139 02b0 7644D1D9 		.ascii	"vD\321\331\261\267\341Z\346\234\326V\371F\354\310\231"
 1139      B1B7E15A 
 1139      E69CD656 
 1139      F946ECC8 
 1139      99
 1140 02c1 AA39C3FB 		.ascii	"\2529\303\373d\271\026\3616\216\201\003\200[U\211}\000"
 1140      64B916F1 
 1140      368E8103 
 1140      805B5589 
 1140      7D00
 1141 02d3 09FF00F8 		.ascii	"\011\377\000\370;\344m\2670d#\363\253\226o\2560~\354"
 1141      3BE46DB7 
 1141      306423F3 
 1141      AB966FAE 
 1141      307EEC
 1142 02e6 400C2082 		.ascii	"@\014 \202\216MUG\257gL\023\3540r\337\005%\332\027\347"
 1142      8E4D5547 
 1142      AF674C13 
 1142      EC3072DF 
 1142      0525DA17 
 1143 02fb 0E9C041E 		.ascii	"\016\234\004\036\255sWu\235\234U\205`\001\237\303!#"
 1143      AD735775 
 1143      9D9C5585 
 1143      60019FC3 
 1143      2123
 1144 030d D02123D0 		.ascii	"\320!#\320U\201\235P\002m\335>\264\232*\244\343&\011"
 1144      55819D50 
 1144      026DDD3E 
 1144      B49A2AA4 
 1144      E32609
 1145 0320 B33B6290 		.ascii	"\263;b\220\216\030\244Q\201}\242\220N6\\\2778C!]N\212"
 1145      8E18A451 
 1145      817DA290 
 1145      4E365CBF 
 1145      3843215D 
 1146 0336 74D4201D 		.ascii	"t\324 \0355H\207\005vA!\335\032\250\231H3*\300\262\364"
 1146      35488705 
 1146      764121DD 
 1146      1AA89948 
 1146      332AC0B2 
 1147 034b 128E19F3 		.ascii	"\022\216\031\363u6\366\332\250\235\353\216\257\273\260"
 1147      7536F6DA 
 1147      A89DEB8E 
 1147      AFBBB0
 1148 035a 7A461F3F 		.ascii	"zF\037?\010\000\037C\257\241\333k\350n\022\330\270\242"
 1148      08001F43 
 1148      AFA1DB6B 
 1148      E86E12D8 
 1148      B8A2
 1149 036c BB7EE4DD 		.ascii	"\273~\344\335\267\356S\222y\275\326H\006I'\014\322\011"
 1149      B7EE5392 
 1149      79BDD648 
ARM GAS  /tmp/ccveU0Ai.s 			page 39


 1149      0649270C 
 1149      D209
 1150 037e 83542FB0 		.ascii	"\203T/\260;x\3144P$Z\367\327\357yU\370!\000\376\247"
 1150      3B78CC34 
 1150      50245AF7 
 1150      D7EF7955 
 1150      F82100FE 
 1151 0393 53E8872A 		.ascii	"S\350\207*N\354\007<U\022r\215\235@>\344\0218\011\350"
 1151      4EEC073C 
 1151      5512728D 
 1151      9D403EE4 
 1151      113809E8 
 1152 03a7 22F021C0 		.ascii	"\"\360!\300G\374D\331\336\3356\004F\021\375f\021\037"
 1152      47FC44D9 
 1152      DEDD3604 
 1152      4611FD66 
 1152      111F
 1153 03b9 1B45BC37 		.ascii	"\033E\2747\262\2576])\342\350\341\337w\360\023\000\037"
 1153      B2AF365D 
 1153      29E2E8E1 
 1153      DF77F013 
 1153      001F
 1154 03cb 429F914D 		.ascii	"B\237\221M\237\221\315]\306\232y&t\303X\313;X\267,\337"
 1154      9F91CD5D 
 1154      C69A7926 
 1154      74C358CB 
 1154      3B58B72C 
 1155 03e0 B8BBB1B1 		.ascii	"\270\273\261\261\313q\260\272\335\311\327\340\224\301"
 1155      CB71B0BA 
 1155      DDC9D7E0 
 1155      94C1
 1156 03ee 3905DACE 		.ascii	"9\005\332\316|\377\323\316\011\233]9\370\332{\224\205"
 1156      7CFFD3CE 
 1156      099B5D39 
 1156      F8DA7B94 
 1156      85
 1157 03ff 528F3E02 		.ascii	"R\217>\002\003@\324\015zZ\275\331\224}\332\255\016\372"
 1157      0340D40D 
 1157      7A5ABDD9 
 1157      947DDAAD 
 1157      0EFA
 1158 0411 081BA484 		.ascii	"\010\033\244\204\015+\321Vw\217\366\331\304\241{\017"
 1158      0D2BD156 
 1158      778FF6D9 
 1158      C4A17B0F 
 1159 0421 CFB3530F 		.ascii	"\317\263S\017Ov\211\252\3148aW\220\371\2456\354&\354"
 1159      4F7689AA 
 1159      CC386157 
 1159      90F9A536 
 1159      EC26EC
 1160 0434 6BAD9BA7 		.ascii	"k\255\233\247\264YJ\030\031\330\204\346f\030\241\371"
 1160      B4594A18 
 1160      19D884E6 
 1160      6618A1F9 
 1161 0444 D2C42EBB 		.ascii	"\322\304.\273(k\021\320\251'9\206q\\p\231\317\344\330"
 1161      286B11D0 
 1161      A9273986 
ARM GAS  /tmp/ccveU0Ai.s 			page 40


 1161      715C7099 
 1161      CFE4D8
 1162 0457 E1CF8EDD 		.ascii	"\341\317\216\335\227z\204\237\275\347\010\337\271ep"
 1162      977A849F 
 1162      BDE708DF 
 1162      B96570
 1163 0466 2D64A354 		.ascii	"-d\243T\215,\267S\270\002\360\031@\202k}\016\212\036"
 1163      8D2CB753 
 1163      B802F019 
 1163      40826B7D 
 1163      0E8A1E
 1164 0479 AFA8BD7F 		.ascii	"\257\250\275\177M,\303\004\015\245\202\330\244\226\236"
 1164      4D2CC304 
 1164      0DA582D8 
 1164      A4969E
 1165 0488 935533C2 		.ascii	"\223U3\302\352\230:r\260u8j\324F\337g/\340h\013Z;\332"
 1165      EA983A72 
 1165      B075386A 
 1165      D446DF67 
 1165      2FE0680B 
 1166 049f 36B41D68 		.ascii	"6\264\035ho\240u\241\355\325PCD-\331\312\336f<\370\336"
 1166      6FA075A1 
 1166      EDD55043 
 1166      442DD9CA 
 1166      DE663CF8 
 1167 04b4 CF6F775A 		.ascii	"\317owZ\246+\266\232\362b\363\020\262'\326\333A\223"
 1167      A62BB69A 
 1167      F262F310 
 1167      B227D6DB 
 1167      4193
 1168 04c6 8AF81460 		.ascii	"\212\370\024`\220cj\250\202\343:\035\333.\227&\325\220"
 1168      90636AA8 
 1168      82E33A1D 
 1168      DB2E9726 
 1168      D590
 1169 04d8 8AF9F958 		.ascii	"\212\371\371X\177\323\371\214\207\356\275f\242\015\343"
 1169      7FD3F98C 
 1169      87EEBD66 
 1169      A20DE3
 1170 04e7 E6B9DD36 		.ascii	"\346\271\3356\271k\306\213\230\205\235\323\277\006\370"
 1170      B96BC68B 
 1170      98859DD3 
 1170      BF06F8
 1171 04f6 133592B9 		.ascii	"\0235\222\271\306\0337AXgcWE\034\267-BF\222 \347x\263"
 1171      C61B3741 
 1171      58676357 
 1171      451CB72D 
 1171      42469220 
 1172 050d 1F14CC44 		.ascii	"\037\024\314D#\276J\252\316D\022(a\352\33461\267R1("
 1172      23BE4AAA 
 1172      CE441228 
 1172      61EADC36 
 1172      31B75231 
 1173 0522 F40A82D6 		.ascii	"\364\012\202\326w\011<\330U\200K\012F_\230\321)\301"
 1173      77093CD8 
 1173      55804B0A 
 1173      465F98D1 
ARM GAS  /tmp/ccveU0Ai.s 			page 41


 1173      29C1
 1174 0534 6E9A4277 		.ascii	"n\232Bw\222\204\006\315`\255F\322\303I\2203&\244\301"
 1174      928406CD 
 1174      60AD46D2 
 1174      C3499033 
 1174      26A4C1
 1175 0547 805C4C82 		.ascii	"\200\\L\202\\\230\022\352\256\031\352F\022\350\233)"
 1175      5C9812EA 
 1175      AE19EA46 
 1175      12E89B29 
 1176 0557 A0B586D0 		.ascii	"\240\265\206\320WI\230/\314XWM\235\311$\214\313\200"
 1176      5749982F 
 1176      CC58574D 
 1176      9DC9248C 
 1176      CB80
 1177 0569 6C3054CE 		.ascii	"l0T\316\247N\263\012\271a\252\334MQ\321&p\213:\201\265"
 1177      A74EB30A 
 1177      B961AADC 
 1177      4D51D126 
 1177      708B3A81 
 1178 057e 14AA2887 		.ascii	"\024\252(\207\350\273\342\023S\346\216)s3\265(\025\263"
 1178      E8BBE213 
 1178      53E68E29 
 1178      7333B528 
 1178      15B3
 1179 0590 CEC8663C 		.ascii	"\316\310f<\0112jBn\2312\267S\227\001\323Q7g\267@\340"
 1179      09326A42 
 1179      6E9932B7 
 1179      539701D3 
 1179      513767B7 
 1180 05a6 8F147F3F 		.ascii	"\217\024\177?\240\023A\370\2566Q\330Ha\035\205M\024"
 1180      A01341F8 
 1180      AE3651D8 
 1180      48611D85 
 1180      4D14
 1181 05b8 D650584B 		.ascii	"\326PXK\341\005\012\033(\254\246\260\205B#\205V\012"
 1181      E1050A1B 
 1181      28ACA6B0 
 1181      85422385 
 1181      560A
 1182 05ca 2D14EA29 		.ascii	"-\024\352)4Px\236B\035\205\365\0246Sh\346\277\010x\350"
 1182      3450789E 
 1182      421D85F5 
 1182      14365368 
 1182      E6BF0878 
 1183 05df 7A23BB2F 		.ascii	"z#\273/Sg\\[\225\315\006\346_\251;@\303\25410\327Sw"
 1183      53675C5B 
 1183      95CD06E6 
 1183      5FA93B40 
 1183      C3AC3130 
 1184 05f6 3F62D84D 		.ascii	"?b\330M\345\225\215\017\304'\2543\357-\007\332\350\377"
 1184      E5958D0F 
 1184      C427AC33 
 1184      EF2D07DA 
 1184      E8FF
 1185 0608 A5200C30 		.ascii	"\245 \0140|\352\243\026\213yL\277hf\362\022\"X\255@"
 1185      7CEAA316 
ARM GAS  /tmp/ccveU0Ai.s 			page 42


 1185      8B794CBF 
 1185      6866F212 
 1185      2258AD40 
 1186 061c E634B5F2 		.ascii	"\3464\265\362\323~\240+\257\247Z\306\257D\323\023\374"
 1186      D37EA02B 
 1186      AFA75AC6 
 1186      AF44D313 
 1186      FC
 1187 062d 03FA3255 		.ascii	"\003\3722UO|\330J\261\257\177'\306,\254Uet\336\354\252"
 1187      4F7CD84A 
 1187      B1AF7F27 
 1187      C62CAC55 
 1187      6574DEEC 
 1188 0642 50C178F2 		.ascii	"P\301x\362\267\353\340W(\366u\360\210\205\275\246\201"
 1188      B7EBE057 
 1188      28F675F0 
 1188      8885BDA6 
 1188      81
 1189 0653 37EFAE30 		.ascii	"7\357\2560\224\377\254\203_\245\330\327\301q\013\213"
 1189      94FFAC83 
 1189      5FA5D8D7 
 1189      C1710B8B 
 1190 0663 A9E0F137 		.ascii	"\251\340\3617w\237\037\006\271\036\347$\233\177=\267"
 1190      779F1F06 
 1190      B91EE724 
 1190      9B7F3DB7 
 1191 0673 E9F8BF50 		.ascii	"\351\370\277P\354\353\370\230\205\035\323\304cz&\010"
 1191      ECEBF898 
 1191      851DD3C4 
 1191      637A2608 
 1192 0683 DEAE8377 		.ascii	"\336\256\203wP\354\353\340:+;\253\211\367\356\3564\304"
 1192      50ECEBE0 
 1192      3A2B3BAB 
 1192      89F7EEEE 
 1192      34C4
 1193 0695 F163D8A1 		.ascii	"\361c\330\241\343\377J\261\257\343wZ\310C\271.oY\350"
 1193      E3FF4AB1 
 1193      AFE3775A 
 1193      C843B92E 
 1193      6F59E8
 1194 06a8 B7A1A78B 		.ascii	"\267\241\247\213\375\236\274\334\374\334<W$\352*+)w"
 1194      FD9EBCDC 
 1194      FCDC3C57 
 1194      24EA2A2B 
 1194      2977
 1195 06ba 452B4BF9 		.ascii	"E+K\371\335\037\225rKm\213\227>\343\360\272\027\220"
 1195      DD1F9572 
 1195      4B6D8B97 
 1195      3EE3F0BA 
 1195      1790
 1196 06cc 6CDD935B 		.ascii	"l\335\223[\362\213\240{\201\373\331 I\217>\027\225B"
 1196      F28BA07B 
 1196      81FBD920 
 1196      498F3E17 
 1196      9542
 1197 06de E1A05F62 		.ascii	"\341\240_b\356\371$\275\2442\274jAp^\230\210\245\221"
 1197      EEF924BD 
ARM GAS  /tmp/ccveU0Ai.s 			page 43


 1197      A432BC6A 
 1197      41705E98 
 1197      88A591
 1198 06f1 4A29F887 		.ascii	"J)\370\207y\341G\2115*-Y\021\222\346\271\312\"\341\240"
 1198      79E14789 
 1198      352A2D59 
 1198      1192E6B9 
 1198      CA22E1A0 
 1199 0705 2B5412AE 		.ascii	"+T\022\256\250\014Ie\253B\321\262\240$=\347\362\026"
 1199      A80C4965 
 1199      AB42D1B2 
 1199      A0243DE7 
 1199      F216
 1200 0717 16579494 		.ascii	"\026W\224\224\006]\341pi\376\243\356\371~)\030\225<"
 1200      065DE170 
 1200      69FEA3EE 
 1200      F97E2918 
 1200      953C
 1201 0729 E4E1EF92 		.ascii	"\344\341\357\222\030\261G\245b\251\244RZX\216\2013\370"
 1201      18B147A5 
 1201      62A9A452 
 1201      5A588E81 
 1201      33F8
 1202 073b 2052A1F4 		.ascii	" R\241\364E\354\007%\275\273X\353\332\225\2567\262r"
 1202      45EC0725 
 1202      BDBB58EB 
 1202      DA95AE37 
 1202      B272
 1203 074d 8514ACCC 		.ascii	"\205\024\254\314\304\264\242\212{a\251\024Z\025\264"
 1203      C4B4A28A 
 1203      7B61A914 
 1203      5A15B4
 1204 075c F81F8B44 		.ascii	"\370\037\213D\312Q\304_^\036\360\2070\343_}[\016\025"
 1204      CA51C45F 
 1204      5E1EF087 
 1204      30E35F7D 
 1204      5B0E15
 1205 076f 585BD455 		.ascii	"X[\324U\274\274(\337\343z\352\251B\327\362%E\253\334"
 1205      BCBC28DF 
 1205      E37AEAA9 
 1205      42D7F225 
 1205      45ABDC
 1206 0782 5A569C9D 		.ascii	"ZV\234\235[F,^o\221/\337\2662\264B\312\367\370%\372"
 1206      5B462C5E 
 1206      6F912FDF 
 1206      B632B442 
 1206      CAF7F825 
 1207 0797 B44F282C 		.ascii	"\264O(,Z\350c\205^\237\360X\341r\037\363z}\314\207\266"
 1207      5AE86385 
 1207      5E9FF058 
 1207      E1721FF3 
 1207      7A7DCC87 
 1208 07ac D0E763CB 		.ascii	"\320\347c\313\212\275\314\273t\271\340\365.\362)D\217"
 1208      8ABDCCBB 
 1208      74B9E0F5 
 1208      2EF22944 
 1208      8F
ARM GAS  /tmp/ccveU0Ai.s 			page 44


 1209 07bd D2BAD9A2 		.ascii	"\322\272\331\242\305>Z\214\314%\213|Bq\021\242\275>"
 1209      C53E5A8C 
 1209      CC258B7C 
 1209      427111A2 
 1209      BD3E
 1210 07cf 0F       		.ascii	"\017"
 1211 07d0 9A1B91BF 		.ascii	"\232\033\221\277\366\375\362\177K/*\205y&\2410f\227"
 1211      F6FDF27F 
 1211      4B2F2A85 
 1211      7926A130 
 1211      6697
 1212 07e2 610CFC52 		.ascii	"a\014\374R\266Vq\224O\244\277\204O\310\367\014W\244"
 1212      B6567194 
 1212      4FA4BF84 
 1212      4FC8F70C 
 1212      57A4
 1213 07f4 42F564E9 		.ascii	"B\365d\351\236\240\224\354\370\235\356\310\236\342("
 1213      9EA094EC 
 1213      F89DEEC8 
 1213      9EE228
 1214 0803 5567F87E 		.ascii	"Ug\370~}.\243*\304_\242L\364\277\001\237\274M\312"
 1214      7D2EA32A 
 1214      C45FA24C 
 1214      F4BF019F 
 1214      BC4DCA
 1215              		.text
 1216              		.section	.gnu.lto_.symtab.16e55e500e04383e,"e",%progbits
 1217 0000 7374496E 		.ascii	"stInit\000"
 1217      697400
 1218 0007 00       		.ascii	"\000"
 1219 0008 00       		.ascii	"\000"
 1220 0009 00       		.ascii	"\000"
 1221 000a 00000000 		.ascii	"\000\000\000\000\000\000\000\000"
 1221      00000000 
 1222 0012 C2000000 		.ascii	"\302\000\000\000"
 1223 0016 73745374 		.ascii	"stStartAlarm\000"
 1223      61727441 
 1223      6C61726D 
 1223      00
 1224 0023 00       		.ascii	"\000"
 1225 0024 00       		.ascii	"\000"
 1226 0025 00       		.ascii	"\000"
 1227 0026 00000000 		.ascii	"\000\000\000\000\000\000\000\000"
 1227      00000000 
 1228 002e C6000000 		.ascii	"\306\000\000\000"
 1229 0032 73745374 		.ascii	"stStopAlarm\000"
 1229      6F70416C 
 1229      61726D00 
 1230 003e 00       		.ascii	"\000"
 1231 003f 00       		.ascii	"\000"
 1232 0040 00       		.ascii	"\000"
 1233 0041 00000000 		.ascii	"\000\000\000\000\000\000\000\000"
 1233      00000000 
 1234 0049 C8000000 		.ascii	"\310\000\000\000"
 1235 004d 73745365 		.ascii	"stSetAlarm\000"
 1235      74416C61 
 1235      726D00
ARM GAS  /tmp/ccveU0Ai.s 			page 45


 1236 0058 00       		.ascii	"\000"
 1237 0059 00       		.ascii	"\000"
 1238 005a 00       		.ascii	"\000"
 1239 005b 00000000 		.ascii	"\000\000\000\000\000\000\000\000"
 1239      00000000 
 1240 0063 CA000000 		.ascii	"\312\000\000\000"
 1241 0067 73744765 		.ascii	"stGetAlarm\000"
 1241      74416C61 
 1241      726D00
 1242 0072 00       		.ascii	"\000"
 1243 0073 00       		.ascii	"\000"
 1244 0074 00       		.ascii	"\000"
 1245 0075 00000000 		.ascii	"\000\000\000\000\000\000\000\000"
 1245      00000000 
 1246 007d CD000000 		.ascii	"\315\000\000\000"
 1247 0081 73744765 		.ascii	"stGetCounter\000"
 1247      74436F75 
 1247      6E746572 
 1247      00
 1248 008e 00       		.ascii	"\000"
 1249 008f 00       		.ascii	"\000"
 1250 0090 00       		.ascii	"\000"
 1251 0091 00000000 		.ascii	"\000\000\000\000\000\000\000\000"
 1251      00000000 
 1252 0099 CF000000 		.ascii	"\317\000\000\000"
 1253 009d 73744973 		.ascii	"stIsAlarmActive\000"
 1253      416C6172 
 1253      6D416374 
 1253      69766500 
 1254 00ad 00       		.ascii	"\000"
 1255 00ae 00       		.ascii	"\000"
 1256 00af 00       		.ascii	"\000"
 1257 00b0 00000000 		.ascii	"\000\000\000\000\000\000\000\000"
 1257      00000000 
 1258 00b8 D6000000 		.ascii	"\326\000\000\000"
 1259 00bc 73745F6C 		.ascii	"st_lld_init\000"
 1259      6C645F69 
 1259      6E697400 
 1260 00c8 00       		.ascii	"\000"
 1261 00c9 02       		.ascii	"\002"
 1262 00ca 00       		.ascii	"\000"
 1263 00cb 00000000 		.ascii	"\000\000\000\000\000\000\000\000"
 1263      00000000 
 1264 00d3 D8000000 		.ascii	"\330\000\000\000"
 1265              		.text
 1266              		.section	.gnu.lto_.ext_symtab.16e55e500e04383e,"e",%progbits
 1267 0000 01       		.ascii	"\001"
 1268 0001 01       		.ascii	"\001"
 1269 0002 00       		.ascii	"\000"
 1270 0003 01       		.ascii	"\001"
 1271 0004 00       		.ascii	"\000"
 1272 0005 01       		.ascii	"\001"
 1273 0006 00       		.ascii	"\000"
 1274 0007 01       		.ascii	"\001"
 1275 0008 00       		.ascii	"\000"
 1276 0009 01       		.ascii	"\001"
 1277 000a 00       		.ascii	"\000"
ARM GAS  /tmp/ccveU0Ai.s 			page 46


 1278 000b 01       		.ascii	"\001"
 1279 000c 00       		.ascii	"\000"
 1280 000d 01       		.ascii	"\001"
 1281 000e 00       		.ascii	"\000"
 1282 000f 01       		.ascii	"\001"
 1283 0010 00       		.ascii	"\000"
 1284              		.text
 1285              		.section	.gnu.lto_.opts,"e",%progbits
 1286 0000 272D666E 		.ascii	"'-fno-openmp' '-fno-openacc' '-fno-pie' '-fcf-prote"
 1286      6F2D6F70 
 1286      656E6D70 
 1286      2720272D 
 1286      666E6F2D 
 1287 0033 6374696F 		.ascii	"ction=none' '-g' '-mcpu=cortex-m4' '-mthumb' '-mflo"
 1287      6E3D6E6F 
 1287      6E652720 
 1287      272D6727 
 1287      20272D6D 
 1288 0066 61742D61 		.ascii	"at-abi=soft' '-march=armv7e-m' '-O2' '-fomit-frame-"
 1288      62693D73 
 1288      6F667427 
 1288      20272D6D 
 1288      61726368 
 1289 0099 706F696E 		.ascii	"pointer' '-falign-functions=16' '-ffunction-section"
 1289      74657227 
 1289      20272D66 
 1289      616C6967 
 1289      6E2D6675 
 1290 00cc 73272027 		.ascii	"s' '-fdata-sections' '-fno-common' '-flto' '-Xassem"
 1290      2D666461 
 1290      74612D73 
 1290      65637469 
 1290      6F6E7327 
 1291 00ff 626C6572 		.ascii	"bler' '-alms=./build/lst/hal_st.lst'\000"
 1291      2720272D 
 1291      616C6D73 
 1291      3D2E2F62 
 1291      75696C64 
 1292              		.text
 1293              		.comm	__gnu_lto_slim,1,1
 1294              		.ident	"GCC: (GNU Arm Embedded Toolchain 10-2020-q4-major) 10.2.1 20201103 (release)"
ARM GAS  /tmp/ccveU0Ai.s 			page 47


DEFINED SYMBOLS
                            *ABS*:0000000000000000 hal_st.c
     /tmp/ccveU0Ai.s:22     .gnu.debuglto_.debug_info:0000000000000000 hal_st.c.a9e171fe
                            *COM*:0000000000000001 __gnu_lto_slim

NO UNDEFINED SYMBOLS
