ARM GAS  /tmp/ccdCD3ac.s 			page 1


   1              		.cpu cortex-m4
   2              		.eabi_attribute 20, 1
   3              		.eabi_attribute 21, 1
   4              		.eabi_attribute 23, 3
   5              		.eabi_attribute 24, 1
   6              		.eabi_attribute 25, 1
   7              		.eabi_attribute 26, 1
   8              		.eabi_attribute 30, 2
   9              		.eabi_attribute 34, 1
  10              		.eabi_attribute 18, 4
  11              		.file	"hal_flash.c"
  12              		.file 1 "/usr/share/gcc-arm-none-eabi-10-2020-q4-major/lib/gcc/arm-none-eabi/10.2.1/include/stddef
  13              		.file 2 "/usr/share/gcc-arm-none-eabi-10-2020-q4-major/arm-none-eabi/include/machine/_default_type
  14              		.file 3 "/usr/share/gcc-arm-none-eabi-10-2020-q4-major/arm-none-eabi/include/sys/_stdint.h"
  15              		.file 4 "./ChibiOS_20.3.0/os/rt/include/chtime.h"
  16              		.file 5 "./ChibiOS_20.3.0/os/hal/include/hal_flash.h"
  17              		.file 6 "./ChibiOS_20.3.0/os/hal/src/hal_flash.c"
  18              		.file 7 "./ChibiOS_20.3.0/os/hal/osal/rt-nil/osal.h"
  19              		.section	.gnu.debuglto_.debug_info,"e",%progbits
  20              	.Ldebug_info0:
  21              		.hidden	hal_flash.c.cbf963ee
  22              		.weak	hal_flash.c.cbf963ee
  23              	hal_flash.c.cbf963ee:
  24 0000 C1040000 		.4byte	0x4c1
  25 0004 0400     		.2byte	0x4
  26 0006 00000000 		.4byte	.Ldebug_abbrev0
  27 000a 04       		.byte	0x4
  28 000b 01       		.uleb128 0x1
  29 000c 2A020000 		.4byte	.LASF68
  30 0010 0C       		.byte	0xc
  31 0011 09000000 		.4byte	.LASF69
  32 0015 64030000 		.4byte	.LASF70
  33 0019 00000000 		.4byte	.Ldebug_line0
  34 001d 02       		.uleb128 0x2
  35 001e 04       		.byte	0x4
  36 001f 05       		.byte	0x5
  37 0020 696E7400 		.ascii	"int\000"
  38 0024 03       		.uleb128 0x3
  39 0025 A1000000 		.4byte	.LASF4
  40 0029 01       		.byte	0x1
  41 002a D1       		.byte	0xd1
  42 002b 17       		.byte	0x17
  43 002c 30000000 		.4byte	0x30
  44 0030 04       		.uleb128 0x4
  45 0031 04       		.byte	0x4
  46 0032 07       		.byte	0x7
  47 0033 0A020000 		.4byte	.LASF0
  48 0037 04       		.uleb128 0x4
  49 0038 08       		.byte	0x8
  50 0039 05       		.byte	0x5
  51 003a 48010000 		.4byte	.LASF1
  52 003e 04       		.uleb128 0x4
  53 003f 08       		.byte	0x8
  54 0040 04       		.byte	0x4
  55 0041 1D010000 		.4byte	.LASF2
  56 0045 04       		.uleb128 0x4
  57 0046 01       		.byte	0x1
ARM GAS  /tmp/ccdCD3ac.s 			page 2


  58 0047 06       		.byte	0x6
  59 0048 E1010000 		.4byte	.LASF3
  60 004c 03       		.uleb128 0x3
  61 004d 99010000 		.4byte	.LASF5
  62 0051 02       		.byte	0x2
  63 0052 2B       		.byte	0x2b
  64 0053 18       		.byte	0x18
  65 0054 58000000 		.4byte	0x58
  66 0058 04       		.uleb128 0x4
  67 0059 01       		.byte	0x1
  68 005a 08       		.byte	0x8
  69 005b BD010000 		.4byte	.LASF6
  70 005f 04       		.uleb128 0x4
  71 0060 02       		.byte	0x2
  72 0061 05       		.byte	0x5
  73 0062 97000000 		.4byte	.LASF7
  74 0066 04       		.uleb128 0x4
  75 0067 02       		.byte	0x2
  76 0068 07       		.byte	0x7
  77 0069 13030000 		.4byte	.LASF8
  78 006d 04       		.uleb128 0x4
  79 006e 04       		.byte	0x4
  80 006f 05       		.byte	0x5
  81 0070 89010000 		.4byte	.LASF9
  82 0074 03       		.uleb128 0x3
  83 0075 BB000000 		.4byte	.LASF10
  84 0079 02       		.byte	0x2
  85 007a 4F       		.byte	0x4f
  86 007b 19       		.byte	0x19
  87 007c 80000000 		.4byte	0x80
  88 0080 04       		.uleb128 0x4
  89 0081 04       		.byte	0x4
  90 0082 07       		.byte	0x7
  91 0083 BD030000 		.4byte	.LASF11
  92 0087 03       		.uleb128 0x3
  93 0088 A5030000 		.4byte	.LASF12
  94 008c 02       		.byte	0x2
  95 008d 69       		.byte	0x69
  96 008e 19       		.byte	0x19
  97 008f 93000000 		.4byte	0x93
  98 0093 04       		.uleb128 0x4
  99 0094 08       		.byte	0x8
 100 0095 07       		.byte	0x7
 101 0096 56010000 		.4byte	.LASF13
 102 009a 03       		.uleb128 0x3
 103 009b F7000000 		.4byte	.LASF14
 104 009f 03       		.byte	0x3
 105 00a0 18       		.byte	0x18
 106 00a1 13       		.byte	0x13
 107 00a2 4C000000 		.4byte	0x4c
 108 00a6 05       		.uleb128 0x5
 109 00a7 9A000000 		.4byte	0x9a
 110 00ab 03       		.uleb128 0x3
 111 00ac 00000000 		.4byte	.LASF15
 112 00b0 03       		.byte	0x3
 113 00b1 30       		.byte	0x30
 114 00b2 14       		.byte	0x14
ARM GAS  /tmp/ccdCD3ac.s 			page 3


 115 00b3 74000000 		.4byte	0x74
 116 00b7 03       		.uleb128 0x3
 117 00b8 7F000000 		.4byte	.LASF16
 118 00bc 03       		.byte	0x3
 119 00bd 3C       		.byte	0x3c
 120 00be 14       		.byte	0x14
 121 00bf 87000000 		.4byte	0x87
 122 00c3 06       		.uleb128 0x6
 123 00c4 04       		.byte	0x4
 124 00c5 03       		.uleb128 0x3
 125 00c6 97030000 		.4byte	.LASF17
 126 00ca 04       		.byte	0x4
 127 00cb 79       		.byte	0x79
 128 00cc 12       		.byte	0x12
 129 00cd AB000000 		.4byte	0xab
 130 00d1 03       		.uleb128 0x3
 131 00d2 11040000 		.4byte	.LASF18
 132 00d6 04       		.byte	0x4
 133 00d7 96       		.byte	0x96
 134 00d8 12       		.byte	0x12
 135 00d9 B7000000 		.4byte	0xb7
 136 00dd 04       		.uleb128 0x4
 137 00de 01       		.byte	0x1
 138 00df 08       		.byte	0x8
 139 00e0 45030000 		.4byte	.LASF19
 140 00e4 05       		.uleb128 0x5
 141 00e5 DD000000 		.4byte	0xdd
 142 00e9 04       		.uleb128 0x4
 143 00ea 01       		.byte	0x1
 144 00eb 02       		.byte	0x2
 145 00ec 91030000 		.4byte	.LASF20
 146 00f0 07       		.uleb128 0x7
 147 00f1 04       		.byte	0x4
 148 00f2 9A000000 		.4byte	0x9a
 149 00f6 07       		.uleb128 0x7
 150 00f7 04       		.byte	0x4
 151 00f8 A6000000 		.4byte	0xa6
 152 00fc 08       		.uleb128 0x8
 153 00fd 07       		.byte	0x7
 154 00fe 01       		.byte	0x1
 155 00ff 58000000 		.4byte	0x58
 156 0103 05       		.byte	0x5
 157 0104 57       		.byte	0x57
 158 0105 0E       		.byte	0xe
 159 0106 2F010000 		.4byte	0x12f
 160 010a 09       		.uleb128 0x9
 161 010b B0030000 		.4byte	.LASF21
 162 010f 00       		.byte	0
 163 0110 09       		.uleb128 0x9
 164 0111 78040000 		.4byte	.LASF22
 165 0115 01       		.byte	0x1
 166 0116 09       		.uleb128 0x9
 167 0117 F6030000 		.4byte	.LASF23
 168 011b 02       		.byte	0x2
 169 011c 09       		.uleb128 0x9
 170 011d 59030000 		.4byte	.LASF24
 171 0121 03       		.byte	0x3
ARM GAS  /tmp/ccdCD3ac.s 			page 4


 172 0122 09       		.uleb128 0x9
 173 0123 02040000 		.4byte	.LASF25
 174 0127 04       		.byte	0x4
 175 0128 09       		.uleb128 0x9
 176 0129 EB000000 		.4byte	.LASF26
 177 012d 05       		.byte	0x5
 178 012e 00       		.byte	0
 179 012f 03       		.uleb128 0x3
 180 0130 4F000000 		.4byte	.LASF27
 181 0134 05       		.byte	0x5
 182 0135 5E       		.byte	0x5e
 183 0136 03       		.byte	0x3
 184 0137 FC000000 		.4byte	0xfc
 185 013b 08       		.uleb128 0x8
 186 013c 07       		.byte	0x7
 187 013d 01       		.byte	0x1
 188 013e 58000000 		.4byte	0x58
 189 0142 05       		.byte	0x5
 190 0143 63       		.byte	0x63
 191 0144 0E       		.byte	0xe
 192 0145 7A010000 		.4byte	0x17a
 193 0149 09       		.uleb128 0x9
 194 014a 26030000 		.4byte	.LASF28
 195 014e 00       		.byte	0
 196 014f 09       		.uleb128 0x9
 197 0150 EF020000 		.4byte	.LASF29
 198 0154 01       		.byte	0x1
 199 0155 09       		.uleb128 0x9
 200 0156 02030000 		.4byte	.LASF30
 201 015a 02       		.byte	0x2
 202 015b 09       		.uleb128 0x9
 203 015c 1D040000 		.4byte	.LASF31
 204 0160 03       		.byte	0x3
 205 0161 09       		.uleb128 0x9
 206 0162 67000000 		.4byte	.LASF32
 207 0166 04       		.byte	0x4
 208 0167 09       		.uleb128 0x9
 209 0168 3F040000 		.4byte	.LASF33
 210 016c 05       		.byte	0x5
 211 016d 09       		.uleb128 0x9
 212 016e 5C040000 		.4byte	.LASF34
 213 0172 06       		.byte	0x6
 214 0173 09       		.uleb128 0x9
 215 0174 29010000 		.4byte	.LASF35
 216 0178 07       		.byte	0x7
 217 0179 00       		.byte	0
 218 017a 03       		.uleb128 0x3
 219 017b 31040000 		.4byte	.LASF36
 220 017f 05       		.byte	0x5
 221 0180 6C       		.byte	0x6c
 222 0181 03       		.byte	0x3
 223 0182 3B010000 		.4byte	0x13b
 224 0186 03       		.uleb128 0x3
 225 0187 4A030000 		.4byte	.LASF37
 226 018b 05       		.byte	0x5
 227 018c 71       		.byte	0x71
 228 018d 12       		.byte	0x12
ARM GAS  /tmp/ccdCD3ac.s 			page 5


 229 018e AB000000 		.4byte	0xab
 230 0192 03       		.uleb128 0x3
 231 0193 DC000000 		.4byte	.LASF38
 232 0197 05       		.byte	0x5
 233 0198 76       		.byte	0x76
 234 0199 12       		.byte	0x12
 235 019a AB000000 		.4byte	0xab
 236 019e 0A       		.uleb128 0xa
 237 019f 08       		.byte	0x8
 238 01a0 05       		.byte	0x5
 239 01a1 7B       		.byte	0x7b
 240 01a2 09       		.byte	0x9
 241 01a3 C2010000 		.4byte	0x1c2
 242 01a7 0B       		.uleb128 0xb
 243 01a8 92010000 		.4byte	.LASF39
 244 01ac 05       		.byte	0x5
 245 01ad 7F       		.byte	0x7f
 246 01ae 19       		.byte	0x19
 247 01af 86010000 		.4byte	0x186
 248 01b3 00       		.byte	0
 249 01b4 0B       		.uleb128 0xb
 250 01b5 F1030000 		.4byte	.LASF40
 251 01b9 05       		.byte	0x5
 252 01ba 83       		.byte	0x83
 253 01bb 19       		.byte	0x19
 254 01bc AB000000 		.4byte	0xab
 255 01c0 04       		.byte	0x4
 256 01c1 00       		.byte	0
 257 01c2 03       		.uleb128 0x3
 258 01c3 A3010000 		.4byte	.LASF41
 259 01c7 05       		.byte	0x5
 260 01c8 84       		.byte	0x84
 261 01c9 03       		.byte	0x3
 262 01ca 9E010000 		.4byte	0x19e
 263 01ce 05       		.uleb128 0x5
 264 01cf C2010000 		.4byte	0x1c2
 265 01d3 0A       		.uleb128 0xa
 266 01d4 1C       		.byte	0x1c
 267 01d5 05       		.byte	0x5
 268 01d6 89       		.byte	0x89
 269 01d7 09       		.byte	0x9
 270 01d8 38020000 		.4byte	0x238
 271 01dc 0B       		.uleb128 0xb
 272 01dd 44000000 		.4byte	.LASF42
 273 01e1 05       		.byte	0x5
 274 01e2 8D       		.byte	0x8d
 275 01e3 19       		.byte	0x19
 276 01e4 AB000000 		.4byte	0xab
 277 01e8 00       		.byte	0
 278 01e9 0B       		.uleb128 0xb
 279 01ea 5D000000 		.4byte	.LASF43
 280 01ee 05       		.byte	0x5
 281 01ef 91       		.byte	0x91
 282 01f0 19       		.byte	0x19
 283 01f1 AB000000 		.4byte	0xab
 284 01f5 04       		.byte	0x4
 285 01f6 0B       		.uleb128 0xb
ARM GAS  /tmp/ccdCD3ac.s 			page 6


 286 01f7 83040000 		.4byte	.LASF44
 287 01fb 05       		.byte	0x5
 288 01fc 95       		.byte	0x95
 289 01fd 19       		.byte	0x19
 290 01fe 92010000 		.4byte	0x192
 291 0202 08       		.byte	0x8
 292 0203 0B       		.uleb128 0xb
 293 0204 02020000 		.4byte	.LASF45
 294 0208 05       		.byte	0x5
 295 0209 9B       		.byte	0x9b
 296 020a 24       		.byte	0x24
 297 020b 38020000 		.4byte	0x238
 298 020f 0C       		.byte	0xc
 299 0210 0B       		.uleb128 0xb
 300 0211 F5010000 		.4byte	.LASF46
 301 0215 05       		.byte	0x5
 302 0216 A1       		.byte	0xa1
 303 0217 19       		.byte	0x19
 304 0218 AB000000 		.4byte	0xab
 305 021c 10       		.byte	0x10
 306 021d 0B       		.uleb128 0xb
 307 021e ED010000 		.4byte	.LASF47
 308 0222 05       		.byte	0x5
 309 0223 A6       		.byte	0xa6
 310 0224 1A       		.byte	0x1a
 311 0225 F0000000 		.4byte	0xf0
 312 0229 14       		.byte	0x14
 313 022a 0B       		.uleb128 0xb
 314 022b F1030000 		.4byte	.LASF40
 315 022f 05       		.byte	0x5
 316 0230 AA       		.byte	0xaa
 317 0231 19       		.byte	0x19
 318 0232 AB000000 		.4byte	0xab
 319 0236 18       		.byte	0x18
 320 0237 00       		.byte	0
 321 0238 07       		.uleb128 0x7
 322 0239 04       		.byte	0x4
 323 023a CE010000 		.4byte	0x1ce
 324 023e 03       		.uleb128 0x3
 325 023f 17020000 		.4byte	.LASF48
 326 0243 05       		.byte	0x5
 327 0244 AB       		.byte	0xab
 328 0245 03       		.byte	0x3
 329 0246 D3010000 		.4byte	0x1d3
 330 024a 05       		.uleb128 0x5
 331 024b 3E020000 		.4byte	0x23e
 332 024f 0C       		.uleb128 0xc
 333 0250 E4030000 		.4byte	.LASF71
 334 0254 20       		.byte	0x20
 335 0255 05       		.byte	0x5
 336 0256 CC       		.byte	0xcc
 337 0257 08       		.byte	0x8
 338 0258 C5020000 		.4byte	0x2c5
 339 025c 0B       		.uleb128 0xb
 340 025d 6D010000 		.4byte	.LASF49
 341 0261 05       		.byte	0x5
 342 0262 CD       		.byte	0xcd
ARM GAS  /tmp/ccdCD3ac.s 			page 7


 343 0263 03       		.byte	0x3
 344 0264 24000000 		.4byte	0x24
 345 0268 00       		.byte	0
 346 0269 0B       		.uleb128 0xb
 347 026a 88000000 		.4byte	.LASF50
 348 026e 05       		.byte	0x5
 349 026f CD       		.byte	0xcd
 350 0270 03       		.byte	0x3
 351 0271 DF020000 		.4byte	0x2df
 352 0275 04       		.byte	0x4
 353 0276 0B       		.uleb128 0xb
 354 0277 43010000 		.4byte	.LASF51
 355 027b 05       		.byte	0x5
 356 027c CD       		.byte	0xcd
 357 027d 03       		.byte	0x3
 358 027e 03030000 		.4byte	0x303
 359 0282 08       		.byte	0x8
 360 0283 0B       		.uleb128 0xb
 361 0284 FF000000 		.4byte	.LASF52
 362 0288 05       		.byte	0x5
 363 0289 CD       		.byte	0xcd
 364 028a 03       		.byte	0x3
 365 028b 27030000 		.4byte	0x327
 366 028f 0C       		.byte	0xc
 367 0290 0B       		.uleb128 0xb
 368 0291 CC000000 		.4byte	.LASF53
 369 0295 05       		.byte	0x5
 370 0296 CD       		.byte	0xcd
 371 0297 03       		.byte	0x3
 372 0298 3C030000 		.4byte	0x33c
 373 029c 10       		.byte	0x10
 374 029d 0B       		.uleb128 0xb
 375 029e A8000000 		.4byte	.LASF54
 376 02a2 05       		.byte	0x5
 377 02a3 CD       		.byte	0xcd
 378 02a4 03       		.byte	0x3
 379 02a5 56030000 		.4byte	0x356
 380 02a9 14       		.byte	0x14
 381 02aa 0B       		.uleb128 0xb
 382 02ab 7D010000 		.4byte	.LASF55
 383 02af 05       		.byte	0x5
 384 02b0 CD       		.byte	0xcd
 385 02b1 03       		.byte	0x3
 386 02b2 76030000 		.4byte	0x376
 387 02b6 18       		.byte	0x18
 388 02b7 0B       		.uleb128 0xb
 389 02b8 D4010000 		.4byte	.LASF56
 390 02bc 05       		.byte	0x5
 391 02bd CD       		.byte	0xcd
 392 02be 03       		.byte	0x3
 393 02bf 56030000 		.4byte	0x356
 394 02c3 1C       		.byte	0x1c
 395 02c4 00       		.byte	0
 396 02c5 05       		.uleb128 0x5
 397 02c6 4F020000 		.4byte	0x24f
 398 02ca 0D       		.uleb128 0xd
 399 02cb D9020000 		.4byte	0x2d9
ARM GAS  /tmp/ccdCD3ac.s 			page 8


 400 02cf D9020000 		.4byte	0x2d9
 401 02d3 0E       		.uleb128 0xe
 402 02d4 C3000000 		.4byte	0xc3
 403 02d8 00       		.byte	0
 404 02d9 07       		.uleb128 0x7
 405 02da 04       		.byte	0x4
 406 02db 4A020000 		.4byte	0x24a
 407 02df 07       		.uleb128 0x7
 408 02e0 04       		.byte	0x4
 409 02e1 CA020000 		.4byte	0x2ca
 410 02e5 0D       		.uleb128 0xd
 411 02e6 7A010000 		.4byte	0x17a
 412 02ea 03030000 		.4byte	0x303
 413 02ee 0E       		.uleb128 0xe
 414 02ef C3000000 		.4byte	0xc3
 415 02f3 0E       		.uleb128 0xe
 416 02f4 86010000 		.4byte	0x186
 417 02f8 0E       		.uleb128 0xe
 418 02f9 24000000 		.4byte	0x24
 419 02fd 0E       		.uleb128 0xe
 420 02fe F0000000 		.4byte	0xf0
 421 0302 00       		.byte	0
 422 0303 07       		.uleb128 0x7
 423 0304 04       		.byte	0x4
 424 0305 E5020000 		.4byte	0x2e5
 425 0309 0D       		.uleb128 0xd
 426 030a 7A010000 		.4byte	0x17a
 427 030e 27030000 		.4byte	0x327
 428 0312 0E       		.uleb128 0xe
 429 0313 C3000000 		.4byte	0xc3
 430 0317 0E       		.uleb128 0xe
 431 0318 86010000 		.4byte	0x186
 432 031c 0E       		.uleb128 0xe
 433 031d 24000000 		.4byte	0x24
 434 0321 0E       		.uleb128 0xe
 435 0322 F6000000 		.4byte	0xf6
 436 0326 00       		.byte	0
 437 0327 07       		.uleb128 0x7
 438 0328 04       		.byte	0x4
 439 0329 09030000 		.4byte	0x309
 440 032d 0D       		.uleb128 0xd
 441 032e 7A010000 		.4byte	0x17a
 442 0332 3C030000 		.4byte	0x33c
 443 0336 0E       		.uleb128 0xe
 444 0337 C3000000 		.4byte	0xc3
 445 033b 00       		.byte	0
 446 033c 07       		.uleb128 0x7
 447 033d 04       		.byte	0x4
 448 033e 2D030000 		.4byte	0x32d
 449 0342 0D       		.uleb128 0xd
 450 0343 7A010000 		.4byte	0x17a
 451 0347 56030000 		.4byte	0x356
 452 034b 0E       		.uleb128 0xe
 453 034c C3000000 		.4byte	0xc3
 454 0350 0E       		.uleb128 0xe
 455 0351 92010000 		.4byte	0x192
 456 0355 00       		.byte	0
ARM GAS  /tmp/ccdCD3ac.s 			page 9


 457 0356 07       		.uleb128 0x7
 458 0357 04       		.byte	0x4
 459 0358 42030000 		.4byte	0x342
 460 035c 0D       		.uleb128 0xd
 461 035d 7A010000 		.4byte	0x17a
 462 0361 70030000 		.4byte	0x370
 463 0365 0E       		.uleb128 0xe
 464 0366 C3000000 		.4byte	0xc3
 465 036a 0E       		.uleb128 0xe
 466 036b 70030000 		.4byte	0x370
 467 036f 00       		.byte	0
 468 0370 07       		.uleb128 0x7
 469 0371 04       		.byte	0x4
 470 0372 AB000000 		.4byte	0xab
 471 0376 07       		.uleb128 0x7
 472 0377 04       		.byte	0x4
 473 0378 5C030000 		.4byte	0x35c
 474 037c 0A       		.uleb128 0xa
 475 037d 08       		.byte	0x8
 476 037e 05       		.byte	0x5
 477 037f DD       		.byte	0xdd
 478 0380 09       		.byte	0x9
 479 0381 A0030000 		.4byte	0x3a0
 480 0385 0F       		.uleb128 0xf
 481 0386 766D7400 		.ascii	"vmt\000"
 482 038a 05       		.byte	0x5
 483 038b DF       		.byte	0xdf
 484 038c 1E       		.byte	0x1e
 485 038d A0030000 		.4byte	0x3a0
 486 0391 00       		.byte	0
 487 0392 0B       		.uleb128 0xb
 488 0393 79000000 		.4byte	.LASF57
 489 0397 05       		.byte	0x5
 490 0398 E0       		.byte	0xe0
 491 0399 03       		.byte	0x3
 492 039a 2F010000 		.4byte	0x12f
 493 039e 04       		.byte	0x4
 494 039f 00       		.byte	0
 495 03a0 07       		.uleb128 0x7
 496 03a1 04       		.byte	0x4
 497 03a2 C5020000 		.4byte	0x2c5
 498 03a6 03       		.uleb128 0x3
 499 03a7 52040000 		.4byte	.LASF58
 500 03ab 05       		.byte	0x5
 501 03ac E1       		.byte	0xe1
 502 03ad 03       		.byte	0x3
 503 03ae 7C030000 		.4byte	0x37c
 504 03b2 10       		.uleb128 0x10
 505 03b3 31000000 		.4byte	.LASF62
 506 03b7 06       		.byte	0x6
 507 03b8 6D       		.byte	0x6d
 508 03b9 0A       		.byte	0xa
 509 03ba AB000000 		.4byte	0xab
 510 03be FC030000 		.4byte	0x3fc
 511 03c2 11       		.uleb128 0x11
 512 03c3 0C040000 		.4byte	.LASF59
 513 03c7 06       		.byte	0x6
ARM GAS  /tmp/ccdCD3ac.s 			page 10


 514 03c8 6D       		.byte	0x6d
 515 03c9 28       		.byte	0x28
 516 03ca FC030000 		.4byte	0x3fc
 517 03ce 11       		.uleb128 0x11
 518 03cf 07010000 		.4byte	.LASF60
 519 03d3 06       		.byte	0x6
 520 03d4 6E       		.byte	0x6e
 521 03d5 2C       		.byte	0x2c
 522 03d6 92010000 		.4byte	0x192
 523 03da 12       		.uleb128 0x12
 524 03db F1030000 		.4byte	.LASF40
 525 03df 06       		.byte	0x6
 526 03e0 6F       		.byte	0x6f
 527 03e1 0C       		.byte	0xc
 528 03e2 AB000000 		.4byte	0xab
 529 03e6 12       		.uleb128 0x12
 530 03e7 91040000 		.4byte	.LASF61
 531 03eb 06       		.byte	0x6
 532 03ec 70       		.byte	0x70
 533 03ed 1D       		.byte	0x1d
 534 03ee D9020000 		.4byte	0x2d9
 535 03f2 13       		.uleb128 0x13
 536 03f3 CB010000 		.4byte	.LASF64
 537 03f7 12040000 		.4byte	0x412
 538 03fb 00       		.byte	0
 539 03fc 07       		.uleb128 0x7
 540 03fd 04       		.byte	0x4
 541 03fe A6030000 		.4byte	0x3a6
 542 0402 14       		.uleb128 0x14
 543 0403 E4000000 		.4byte	0xe4
 544 0407 12040000 		.4byte	0x412
 545 040b 15       		.uleb128 0x15
 546 040c 30000000 		.4byte	0x30
 547 0410 12       		.byte	0x12
 548 0411 00       		.byte	0
 549 0412 05       		.uleb128 0x5
 550 0413 02040000 		.4byte	0x402
 551 0417 10       		.uleb128 0x10
 552 0418 CF030000 		.4byte	.LASF63
 553 041c 06       		.byte	0x6
 554 041d 54       		.byte	0x54
 555 041e 10       		.byte	0x10
 556 041f 86010000 		.4byte	0x186
 557 0423 61040000 		.4byte	0x461
 558 0427 11       		.uleb128 0x11
 559 0428 0C040000 		.4byte	.LASF59
 560 042c 06       		.byte	0x6
 561 042d 54       		.byte	0x54
 562 042e 30       		.byte	0x30
 563 042f FC030000 		.4byte	0x3fc
 564 0433 11       		.uleb128 0x11
 565 0434 07010000 		.4byte	.LASF60
 566 0438 06       		.byte	0x6
 567 0439 55       		.byte	0x55
 568 043a 34       		.byte	0x34
 569 043b 92010000 		.4byte	0x192
 570 043f 12       		.uleb128 0x12
ARM GAS  /tmp/ccdCD3ac.s 			page 11


 571 0440 92010000 		.4byte	.LASF39
 572 0444 06       		.byte	0x6
 573 0445 56       		.byte	0x56
 574 0446 12       		.byte	0x12
 575 0447 86010000 		.4byte	0x186
 576 044b 12       		.uleb128 0x12
 577 044c 91040000 		.4byte	.LASF61
 578 0450 06       		.byte	0x6
 579 0451 57       		.byte	0x57
 580 0452 1D       		.byte	0x1d
 581 0453 D9020000 		.4byte	0x2d9
 582 0457 13       		.uleb128 0x13
 583 0458 CB010000 		.4byte	.LASF64
 584 045c 71040000 		.4byte	0x471
 585 0460 00       		.byte	0
 586 0461 14       		.uleb128 0x14
 587 0462 E4000000 		.4byte	0xe4
 588 0466 71040000 		.4byte	0x471
 589 046a 15       		.uleb128 0x15
 590 046b 30000000 		.4byte	0x30
 591 046f 14       		.byte	0x14
 592 0470 00       		.byte	0
 593 0471 05       		.uleb128 0x5
 594 0472 61040000 		.4byte	0x461
 595 0476 10       		.uleb128 0x10
 596 0477 0E010000 		.4byte	.LASF65
 597 047b 06       		.byte	0x6
 598 047c 3B       		.byte	0x3b
 599 047d 0F       		.byte	0xf
 600 047e 7A010000 		.4byte	0x17a
 601 0482 AD040000 		.4byte	0x4ad
 602 0486 11       		.uleb128 0x11
 603 0487 0C040000 		.4byte	.LASF59
 604 048b 06       		.byte	0x6
 605 048c 3B       		.byte	0x3b
 606 048d 29       		.byte	0x29
 607 048e FC030000 		.4byte	0x3fc
 608 0492 16       		.uleb128 0x16
 609 0493 17       		.uleb128 0x17
 610 0494 65727200 		.ascii	"err\000"
 611 0498 06       		.byte	0x6
 612 0499 3E       		.byte	0x3e
 613 049a 13       		.byte	0x13
 614 049b 7A010000 		.4byte	0x17a
 615 049f 12       		.uleb128 0x12
 616 04a0 73040000 		.4byte	.LASF66
 617 04a4 06       		.byte	0x6
 618 04a5 3F       		.byte	0x3f
 619 04a6 0E       		.byte	0xe
 620 04a7 AB000000 		.4byte	0xab
 621 04ab 00       		.byte	0
 622 04ac 00       		.byte	0
 623 04ad 18       		.uleb128 0x18
 624 04ae 35030000 		.4byte	.LASF72
 625 04b2 07       		.byte	0x7
 626 04b3 CE02     		.2byte	0x2ce
 627 04b5 14       		.byte	0x14
ARM GAS  /tmp/ccdCD3ac.s 			page 12


 628 04b6 19       		.uleb128 0x19
 629 04b7 C6000000 		.4byte	.LASF67
 630 04bb 07       		.byte	0x7
 631 04bc CE02     		.2byte	0x2ce
 632 04be 32       		.byte	0x32
 633 04bf C5000000 		.4byte	0xc5
 634 04c3 00       		.byte	0
 635 04c4 00       		.byte	0
 636              		.section	.gnu.debuglto_.debug_abbrev,"e",%progbits
 637              	.Ldebug_abbrev0:
 638 0000 01       		.uleb128 0x1
 639 0001 11       		.uleb128 0x11
 640 0002 01       		.byte	0x1
 641 0003 25       		.uleb128 0x25
 642 0004 0E       		.uleb128 0xe
 643 0005 13       		.uleb128 0x13
 644 0006 0B       		.uleb128 0xb
 645 0007 03       		.uleb128 0x3
 646 0008 0E       		.uleb128 0xe
 647 0009 1B       		.uleb128 0x1b
 648 000a 0E       		.uleb128 0xe
 649 000b 10       		.uleb128 0x10
 650 000c 17       		.uleb128 0x17
 651 000d 00       		.byte	0
 652 000e 00       		.byte	0
 653 000f 02       		.uleb128 0x2
 654 0010 24       		.uleb128 0x24
 655 0011 00       		.byte	0
 656 0012 0B       		.uleb128 0xb
 657 0013 0B       		.uleb128 0xb
 658 0014 3E       		.uleb128 0x3e
 659 0015 0B       		.uleb128 0xb
 660 0016 03       		.uleb128 0x3
 661 0017 08       		.uleb128 0x8
 662 0018 00       		.byte	0
 663 0019 00       		.byte	0
 664 001a 03       		.uleb128 0x3
 665 001b 16       		.uleb128 0x16
 666 001c 00       		.byte	0
 667 001d 03       		.uleb128 0x3
 668 001e 0E       		.uleb128 0xe
 669 001f 3A       		.uleb128 0x3a
 670 0020 0B       		.uleb128 0xb
 671 0021 3B       		.uleb128 0x3b
 672 0022 0B       		.uleb128 0xb
 673 0023 39       		.uleb128 0x39
 674 0024 0B       		.uleb128 0xb
 675 0025 49       		.uleb128 0x49
 676 0026 13       		.uleb128 0x13
 677 0027 00       		.byte	0
 678 0028 00       		.byte	0
 679 0029 04       		.uleb128 0x4
 680 002a 24       		.uleb128 0x24
 681 002b 00       		.byte	0
 682 002c 0B       		.uleb128 0xb
 683 002d 0B       		.uleb128 0xb
 684 002e 3E       		.uleb128 0x3e
ARM GAS  /tmp/ccdCD3ac.s 			page 13


 685 002f 0B       		.uleb128 0xb
 686 0030 03       		.uleb128 0x3
 687 0031 0E       		.uleb128 0xe
 688 0032 00       		.byte	0
 689 0033 00       		.byte	0
 690 0034 05       		.uleb128 0x5
 691 0035 26       		.uleb128 0x26
 692 0036 00       		.byte	0
 693 0037 49       		.uleb128 0x49
 694 0038 13       		.uleb128 0x13
 695 0039 00       		.byte	0
 696 003a 00       		.byte	0
 697 003b 06       		.uleb128 0x6
 698 003c 0F       		.uleb128 0xf
 699 003d 00       		.byte	0
 700 003e 0B       		.uleb128 0xb
 701 003f 0B       		.uleb128 0xb
 702 0040 00       		.byte	0
 703 0041 00       		.byte	0
 704 0042 07       		.uleb128 0x7
 705 0043 0F       		.uleb128 0xf
 706 0044 00       		.byte	0
 707 0045 0B       		.uleb128 0xb
 708 0046 0B       		.uleb128 0xb
 709 0047 49       		.uleb128 0x49
 710 0048 13       		.uleb128 0x13
 711 0049 00       		.byte	0
 712 004a 00       		.byte	0
 713 004b 08       		.uleb128 0x8
 714 004c 04       		.uleb128 0x4
 715 004d 01       		.byte	0x1
 716 004e 3E       		.uleb128 0x3e
 717 004f 0B       		.uleb128 0xb
 718 0050 0B       		.uleb128 0xb
 719 0051 0B       		.uleb128 0xb
 720 0052 49       		.uleb128 0x49
 721 0053 13       		.uleb128 0x13
 722 0054 3A       		.uleb128 0x3a
 723 0055 0B       		.uleb128 0xb
 724 0056 3B       		.uleb128 0x3b
 725 0057 0B       		.uleb128 0xb
 726 0058 39       		.uleb128 0x39
 727 0059 0B       		.uleb128 0xb
 728 005a 01       		.uleb128 0x1
 729 005b 13       		.uleb128 0x13
 730 005c 00       		.byte	0
 731 005d 00       		.byte	0
 732 005e 09       		.uleb128 0x9
 733 005f 28       		.uleb128 0x28
 734 0060 00       		.byte	0
 735 0061 03       		.uleb128 0x3
 736 0062 0E       		.uleb128 0xe
 737 0063 1C       		.uleb128 0x1c
 738 0064 0B       		.uleb128 0xb
 739 0065 00       		.byte	0
 740 0066 00       		.byte	0
 741 0067 0A       		.uleb128 0xa
ARM GAS  /tmp/ccdCD3ac.s 			page 14


 742 0068 13       		.uleb128 0x13
 743 0069 01       		.byte	0x1
 744 006a 0B       		.uleb128 0xb
 745 006b 0B       		.uleb128 0xb
 746 006c 3A       		.uleb128 0x3a
 747 006d 0B       		.uleb128 0xb
 748 006e 3B       		.uleb128 0x3b
 749 006f 0B       		.uleb128 0xb
 750 0070 39       		.uleb128 0x39
 751 0071 0B       		.uleb128 0xb
 752 0072 01       		.uleb128 0x1
 753 0073 13       		.uleb128 0x13
 754 0074 00       		.byte	0
 755 0075 00       		.byte	0
 756 0076 0B       		.uleb128 0xb
 757 0077 0D       		.uleb128 0xd
 758 0078 00       		.byte	0
 759 0079 03       		.uleb128 0x3
 760 007a 0E       		.uleb128 0xe
 761 007b 3A       		.uleb128 0x3a
 762 007c 0B       		.uleb128 0xb
 763 007d 3B       		.uleb128 0x3b
 764 007e 0B       		.uleb128 0xb
 765 007f 39       		.uleb128 0x39
 766 0080 0B       		.uleb128 0xb
 767 0081 49       		.uleb128 0x49
 768 0082 13       		.uleb128 0x13
 769 0083 38       		.uleb128 0x38
 770 0084 0B       		.uleb128 0xb
 771 0085 00       		.byte	0
 772 0086 00       		.byte	0
 773 0087 0C       		.uleb128 0xc
 774 0088 13       		.uleb128 0x13
 775 0089 01       		.byte	0x1
 776 008a 03       		.uleb128 0x3
 777 008b 0E       		.uleb128 0xe
 778 008c 0B       		.uleb128 0xb
 779 008d 0B       		.uleb128 0xb
 780 008e 3A       		.uleb128 0x3a
 781 008f 0B       		.uleb128 0xb
 782 0090 3B       		.uleb128 0x3b
 783 0091 0B       		.uleb128 0xb
 784 0092 39       		.uleb128 0x39
 785 0093 0B       		.uleb128 0xb
 786 0094 01       		.uleb128 0x1
 787 0095 13       		.uleb128 0x13
 788 0096 00       		.byte	0
 789 0097 00       		.byte	0
 790 0098 0D       		.uleb128 0xd
 791 0099 15       		.uleb128 0x15
 792 009a 01       		.byte	0x1
 793 009b 27       		.uleb128 0x27
 794 009c 19       		.uleb128 0x19
 795 009d 49       		.uleb128 0x49
 796 009e 13       		.uleb128 0x13
 797 009f 01       		.uleb128 0x1
 798 00a0 13       		.uleb128 0x13
ARM GAS  /tmp/ccdCD3ac.s 			page 15


 799 00a1 00       		.byte	0
 800 00a2 00       		.byte	0
 801 00a3 0E       		.uleb128 0xe
 802 00a4 05       		.uleb128 0x5
 803 00a5 00       		.byte	0
 804 00a6 49       		.uleb128 0x49
 805 00a7 13       		.uleb128 0x13
 806 00a8 00       		.byte	0
 807 00a9 00       		.byte	0
 808 00aa 0F       		.uleb128 0xf
 809 00ab 0D       		.uleb128 0xd
 810 00ac 00       		.byte	0
 811 00ad 03       		.uleb128 0x3
 812 00ae 08       		.uleb128 0x8
 813 00af 3A       		.uleb128 0x3a
 814 00b0 0B       		.uleb128 0xb
 815 00b1 3B       		.uleb128 0x3b
 816 00b2 0B       		.uleb128 0xb
 817 00b3 39       		.uleb128 0x39
 818 00b4 0B       		.uleb128 0xb
 819 00b5 49       		.uleb128 0x49
 820 00b6 13       		.uleb128 0x13
 821 00b7 38       		.uleb128 0x38
 822 00b8 0B       		.uleb128 0xb
 823 00b9 00       		.byte	0
 824 00ba 00       		.byte	0
 825 00bb 10       		.uleb128 0x10
 826 00bc 2E       		.uleb128 0x2e
 827 00bd 01       		.byte	0x1
 828 00be 3F       		.uleb128 0x3f
 829 00bf 19       		.uleb128 0x19
 830 00c0 03       		.uleb128 0x3
 831 00c1 0E       		.uleb128 0xe
 832 00c2 3A       		.uleb128 0x3a
 833 00c3 0B       		.uleb128 0xb
 834 00c4 3B       		.uleb128 0x3b
 835 00c5 0B       		.uleb128 0xb
 836 00c6 39       		.uleb128 0x39
 837 00c7 0B       		.uleb128 0xb
 838 00c8 27       		.uleb128 0x27
 839 00c9 19       		.uleb128 0x19
 840 00ca 49       		.uleb128 0x49
 841 00cb 13       		.uleb128 0x13
 842 00cc 01       		.uleb128 0x1
 843 00cd 13       		.uleb128 0x13
 844 00ce 00       		.byte	0
 845 00cf 00       		.byte	0
 846 00d0 11       		.uleb128 0x11
 847 00d1 05       		.uleb128 0x5
 848 00d2 00       		.byte	0
 849 00d3 03       		.uleb128 0x3
 850 00d4 0E       		.uleb128 0xe
 851 00d5 3A       		.uleb128 0x3a
 852 00d6 0B       		.uleb128 0xb
 853 00d7 3B       		.uleb128 0x3b
 854 00d8 0B       		.uleb128 0xb
 855 00d9 39       		.uleb128 0x39
ARM GAS  /tmp/ccdCD3ac.s 			page 16


 856 00da 0B       		.uleb128 0xb
 857 00db 49       		.uleb128 0x49
 858 00dc 13       		.uleb128 0x13
 859 00dd 00       		.byte	0
 860 00de 00       		.byte	0
 861 00df 12       		.uleb128 0x12
 862 00e0 34       		.uleb128 0x34
 863 00e1 00       		.byte	0
 864 00e2 03       		.uleb128 0x3
 865 00e3 0E       		.uleb128 0xe
 866 00e4 3A       		.uleb128 0x3a
 867 00e5 0B       		.uleb128 0xb
 868 00e6 3B       		.uleb128 0x3b
 869 00e7 0B       		.uleb128 0xb
 870 00e8 39       		.uleb128 0x39
 871 00e9 0B       		.uleb128 0xb
 872 00ea 49       		.uleb128 0x49
 873 00eb 13       		.uleb128 0x13
 874 00ec 00       		.byte	0
 875 00ed 00       		.byte	0
 876 00ee 13       		.uleb128 0x13
 877 00ef 34       		.uleb128 0x34
 878 00f0 00       		.byte	0
 879 00f1 03       		.uleb128 0x3
 880 00f2 0E       		.uleb128 0xe
 881 00f3 49       		.uleb128 0x49
 882 00f4 13       		.uleb128 0x13
 883 00f5 34       		.uleb128 0x34
 884 00f6 19       		.uleb128 0x19
 885 00f7 00       		.byte	0
 886 00f8 00       		.byte	0
 887 00f9 14       		.uleb128 0x14
 888 00fa 01       		.uleb128 0x1
 889 00fb 01       		.byte	0x1
 890 00fc 49       		.uleb128 0x49
 891 00fd 13       		.uleb128 0x13
 892 00fe 01       		.uleb128 0x1
 893 00ff 13       		.uleb128 0x13
 894 0100 00       		.byte	0
 895 0101 00       		.byte	0
 896 0102 15       		.uleb128 0x15
 897 0103 21       		.uleb128 0x21
 898 0104 00       		.byte	0
 899 0105 49       		.uleb128 0x49
 900 0106 13       		.uleb128 0x13
 901 0107 2F       		.uleb128 0x2f
 902 0108 0B       		.uleb128 0xb
 903 0109 00       		.byte	0
 904 010a 00       		.byte	0
 905 010b 16       		.uleb128 0x16
 906 010c 0B       		.uleb128 0xb
 907 010d 01       		.byte	0x1
 908 010e 00       		.byte	0
 909 010f 00       		.byte	0
 910 0110 17       		.uleb128 0x17
 911 0111 34       		.uleb128 0x34
 912 0112 00       		.byte	0
ARM GAS  /tmp/ccdCD3ac.s 			page 17


 913 0113 03       		.uleb128 0x3
 914 0114 08       		.uleb128 0x8
 915 0115 3A       		.uleb128 0x3a
 916 0116 0B       		.uleb128 0xb
 917 0117 3B       		.uleb128 0x3b
 918 0118 0B       		.uleb128 0xb
 919 0119 39       		.uleb128 0x39
 920 011a 0B       		.uleb128 0xb
 921 011b 49       		.uleb128 0x49
 922 011c 13       		.uleb128 0x13
 923 011d 00       		.byte	0
 924 011e 00       		.byte	0
 925 011f 18       		.uleb128 0x18
 926 0120 2E       		.uleb128 0x2e
 927 0121 01       		.byte	0x1
 928 0122 03       		.uleb128 0x3
 929 0123 0E       		.uleb128 0xe
 930 0124 3A       		.uleb128 0x3a
 931 0125 0B       		.uleb128 0xb
 932 0126 3B       		.uleb128 0x3b
 933 0127 05       		.uleb128 0x5
 934 0128 39       		.uleb128 0x39
 935 0129 0B       		.uleb128 0xb
 936 012a 27       		.uleb128 0x27
 937 012b 19       		.uleb128 0x19
 938 012c 00       		.byte	0
 939 012d 00       		.byte	0
 940 012e 19       		.uleb128 0x19
 941 012f 05       		.uleb128 0x5
 942 0130 00       		.byte	0
 943 0131 03       		.uleb128 0x3
 944 0132 0E       		.uleb128 0xe
 945 0133 3A       		.uleb128 0x3a
 946 0134 0B       		.uleb128 0xb
 947 0135 3B       		.uleb128 0x3b
 948 0136 05       		.uleb128 0x5
 949 0137 39       		.uleb128 0x39
 950 0138 0B       		.uleb128 0xb
 951 0139 49       		.uleb128 0x49
 952 013a 13       		.uleb128 0x13
 953 013b 00       		.byte	0
 954 013c 00       		.byte	0
 955 013d 00       		.byte	0
 956              		.section	.gnu.debuglto_.debug_line,"e",%progbits
 957              	.Ldebug_line0:
 958 0000 D9010000 		.4byte	.LELT0-.LSLT0
 959              	.LSLT0:
 960 0004 0400     		.2byte	0x4
 961 0006 D3010000 		.4byte	.LELTP0-.LASLTP0
 962              	.LASLTP0:
 963 000a 01       		.byte	0x1
 964 000b 01       		.byte	0x1
 965 000c 01       		.byte	0x1
 966 000d F6       		.byte	0xf6
 967 000e F2       		.byte	0xf2
 968 000f 0D       		.byte	0xd
 969 0010 00       		.byte	0
ARM GAS  /tmp/ccdCD3ac.s 			page 18


 970 0011 01       		.byte	0x1
 971 0012 01       		.byte	0x1
 972 0013 01       		.byte	0x1
 973 0014 01       		.byte	0x1
 974 0015 00       		.byte	0
 975 0016 00       		.byte	0
 976 0017 00       		.byte	0
 977 0018 01       		.byte	0x1
 978 0019 00       		.byte	0
 979 001a 00       		.byte	0
 980 001b 01       		.byte	0x1
 981 001c 43686962 		.ascii	"ChibiOS_20.3.0/os/hal/include"
 981      694F535F 
 981      32302E33 
 981      2E302F6F 
 981      732F6861 
 982 0039 00       		.byte	0
 983 003a 43686962 		.ascii	"ChibiOS_20.3.0/os/hal/osal/rt-nil"
 983      694F535F 
 983      32302E33 
 983      2E302F6F 
 983      732F6861 
 984 005b 00       		.byte	0
 985 005c 43686962 		.ascii	"ChibiOS_20.3.0/os/hal/src"
 985      694F535F 
 985      32302E33 
 985      2E302F6F 
 985      732F6861 
 986 0075 00       		.byte	0
 987 0076 43686962 		.ascii	"ChibiOS_20.3.0/os/rt/include"
 987      694F535F 
 987      32302E33 
 987      2E302F6F 
 987      732F7274 
 988 0092 00       		.byte	0
 989 0093 2F757372 		.ascii	"/usr/share/gcc-arm-none-eabi-10-2020-q4-major/arm-n"
 989      2F736861 
 989      72652F67 
 989      63632D61 
 989      726D2D6E 
 990 00c6 6F6E652D 		.ascii	"one-eabi/include/machine"
 990      65616269 
 990      2F696E63 
 990      6C756465 
 990      2F6D6163 
 991 00de 00       		.byte	0
 992 00df 2F757372 		.ascii	"/usr/share/gcc-arm-none-eabi-10-2020-q4-major/arm-n"
 992      2F736861 
 992      72652F67 
 992      63632D61 
 992      726D2D6E 
 993 0112 6F6E652D 		.ascii	"one-eabi/include/sys"
 993      65616269 
 993      2F696E63 
 993      6C756465 
 993      2F737973 
 994 0126 00       		.byte	0
ARM GAS  /tmp/ccdCD3ac.s 			page 19


 995 0127 2F757372 		.ascii	"/usr/share/gcc-arm-none-eabi-10-2020-q4-major/lib/g"
 995      2F736861 
 995      72652F67 
 995      63632D61 
 995      726D2D6E 
 996 015a 63632F61 		.ascii	"cc/arm-none-eabi/10.2.1/include"
 996      726D2D6E 
 996      6F6E652D 
 996      65616269 
 996      2F31302E 
 997 0179 00       		.byte	0
 998 017a 00       		.byte	0
 999 017b 73746464 		.ascii	"stddef.h\000"
 999      65662E68 
 999      00
 1000 0184 07       		.uleb128 0x7
 1001 0185 00       		.uleb128 0
 1002 0186 00       		.uleb128 0
 1003 0187 5F646566 		.ascii	"_default_types.h\000"
 1003      61756C74 
 1003      5F747970 
 1003      65732E68 
 1003      00
 1004 0198 05       		.uleb128 0x5
 1005 0199 00       		.uleb128 0
 1006 019a 00       		.uleb128 0
 1007 019b 5F737464 		.ascii	"_stdint.h\000"
 1007      696E742E 
 1007      6800
 1008 01a5 06       		.uleb128 0x6
 1009 01a6 00       		.uleb128 0
 1010 01a7 00       		.uleb128 0
 1011 01a8 63687469 		.ascii	"chtime.h\000"
 1011      6D652E68 
 1011      00
 1012 01b1 04       		.uleb128 0x4
 1013 01b2 00       		.uleb128 0
 1014 01b3 00       		.uleb128 0
 1015 01b4 68616C5F 		.ascii	"hal_flash.h\000"
 1015      666C6173 
 1015      682E6800 
 1016 01c0 01       		.uleb128 0x1
 1017 01c1 00       		.uleb128 0
 1018 01c2 00       		.uleb128 0
 1019 01c3 68616C5F 		.ascii	"hal_flash.c\000"
 1019      666C6173 
 1019      682E6300 
 1020 01cf 03       		.uleb128 0x3
 1021 01d0 00       		.uleb128 0
 1022 01d1 00       		.uleb128 0
 1023 01d2 6F73616C 		.ascii	"osal.h\000"
 1023      2E6800
 1024 01d9 02       		.uleb128 0x2
 1025 01da 00       		.uleb128 0
 1026 01db 00       		.uleb128 0
 1027 01dc 00       		.byte	0
 1028              	.LELTP0:
ARM GAS  /tmp/ccdCD3ac.s 			page 20


 1029              	.LELT0:
 1030              		.section	.gnu.debuglto_.debug_str,"eMS",%progbits,1
 1031              	.LASF15:
 1032 0000 75696E74 		.ascii	"uint32_t\000"
 1032      33325F74 
 1032      00
 1033              	.LASF69:
 1034 0009 2E2F4368 		.ascii	"./ChibiOS_20.3.0/os/hal/src/hal_flash.c\000"
 1034      6962694F 
 1034      535F3230 
 1034      2E332E30 
 1034      2F6F732F 
 1035              	.LASF62:
 1036 0031 666C6173 		.ascii	"flashGetSectorSize\000"
 1036      68476574 
 1036      53656374 
 1036      6F725369 
 1036      7A6500
 1037              	.LASF42:
 1038 0044 61747472 		.ascii	"attributes\000"
 1038      69627574 
 1038      657300
 1039              	.LASF27:
 1040 004f 666C6173 		.ascii	"flash_state_t\000"
 1040      685F7374 
 1040      6174655F 
 1040      7400
 1041              	.LASF43:
 1042 005d 70616765 		.ascii	"page_size\000"
 1042      5F73697A 
 1042      6500
 1043              	.LASF32:
 1044 0067 464C4153 		.ascii	"FLASH_ERROR_ERASE\000"
 1044      485F4552 
 1044      524F525F 
 1044      45524153 
 1044      4500
 1045              	.LASF57:
 1046 0079 73746174 		.ascii	"state\000"
 1046      6500
 1047              	.LASF16:
 1048 007f 75696E74 		.ascii	"uint64_t\000"
 1048      36345F74 
 1048      00
 1049              	.LASF50:
 1050 0088 6765745F 		.ascii	"get_descriptor\000"
 1050      64657363 
 1050      72697074 
 1050      6F7200
 1051              	.LASF7:
 1052 0097 73686F72 		.ascii	"short int\000"
 1052      7420696E 
 1052      7400
 1053              	.LASF4:
 1054 00a1 73697A65 		.ascii	"size_t\000"
 1054      5F7400
 1055              	.LASF54:
ARM GAS  /tmp/ccdCD3ac.s 			page 21


 1056 00a8 73746172 		.ascii	"start_erase_sector\000"
 1056      745F6572 
 1056      6173655F 
 1056      73656374 
 1056      6F7200
 1057              	.LASF10:
 1058 00bb 5F5F7569 		.ascii	"__uint32_t\000"
 1058      6E743332 
 1058      5F7400
 1059              	.LASF67:
 1060 00c6 64656C61 		.ascii	"delay\000"
 1060      7900
 1061              	.LASF53:
 1062 00cc 73746172 		.ascii	"start_erase_all\000"
 1062      745F6572 
 1062      6173655F 
 1062      616C6C00 
 1063              	.LASF38:
 1064 00dc 666C6173 		.ascii	"flash_sector_t\000"
 1064      685F7365 
 1064      63746F72 
 1064      5F7400
 1065              	.LASF26:
 1066 00eb 464C4153 		.ascii	"FLASH_ERASE\000"
 1066      485F4552 
 1066      41534500 
 1067              	.LASF14:
 1068 00f7 75696E74 		.ascii	"uint8_t\000"
 1068      385F7400 
 1069              	.LASF52:
 1070 00ff 70726F67 		.ascii	"program\000"
 1070      72616D00 
 1071              	.LASF60:
 1072 0107 73656374 		.ascii	"sector\000"
 1072      6F7200
 1073              	.LASF65:
 1074 010e 666C6173 		.ascii	"flashWaitErase\000"
 1074      68576169 
 1074      74457261 
 1074      736500
 1075              	.LASF2:
 1076 011d 6C6F6E67 		.ascii	"long double\000"
 1076      20646F75 
 1076      626C6500 
 1077              	.LASF35:
 1078 0129 464C4153 		.ascii	"FLASH_ERROR_UNIMPLEMENTED\000"
 1078      485F4552 
 1078      524F525F 
 1078      554E494D 
 1078      504C454D 
 1079              	.LASF51:
 1080 0143 72656164 		.ascii	"read\000"
 1080      00
 1081              	.LASF1:
 1082 0148 6C6F6E67 		.ascii	"long long int\000"
 1082      206C6F6E 
 1082      6720696E 
ARM GAS  /tmp/ccdCD3ac.s 			page 22


 1082      7400
 1083              	.LASF13:
 1084 0156 6C6F6E67 		.ascii	"long long unsigned int\000"
 1084      206C6F6E 
 1084      6720756E 
 1084      7369676E 
 1084      65642069 
 1085              	.LASF49:
 1086 016d 696E7374 		.ascii	"instance_offset\000"
 1086      616E6365 
 1086      5F6F6666 
 1086      73657400 
 1087              	.LASF55:
 1088 017d 71756572 		.ascii	"query_erase\000"
 1088      795F6572 
 1088      61736500 
 1089              	.LASF9:
 1090 0189 6C6F6E67 		.ascii	"long int\000"
 1090      20696E74 
 1090      00
 1091              	.LASF39:
 1092 0192 6F666673 		.ascii	"offset\000"
 1092      657400
 1093              	.LASF5:
 1094 0199 5F5F7569 		.ascii	"__uint8_t\000"
 1094      6E74385F 
 1094      7400
 1095              	.LASF41:
 1096 01a3 666C6173 		.ascii	"flash_sector_descriptor_t\000"
 1096      685F7365 
 1096      63746F72 
 1096      5F646573 
 1096      63726970 
 1097              	.LASF6:
 1098 01bd 756E7369 		.ascii	"unsigned char\000"
 1098      676E6564 
 1098      20636861 
 1098      7200
 1099              	.LASF64:
 1100 01cb 5F5F6675 		.ascii	"__func__\000"
 1100      6E635F5F 
 1100      00
 1101              	.LASF56:
 1102 01d4 76657269 		.ascii	"verify_erase\000"
 1102      66795F65 
 1102      72617365 
 1102      00
 1103              	.LASF3:
 1104 01e1 7369676E 		.ascii	"signed char\000"
 1104      65642063 
 1104      68617200 
 1105              	.LASF47:
 1106 01ed 61646472 		.ascii	"address\000"
 1106      65737300 
 1107              	.LASF46:
 1108 01f5 73656374 		.ascii	"sectors_size\000"
 1108      6F72735F 
ARM GAS  /tmp/ccdCD3ac.s 			page 23


 1108      73697A65 
 1108      00
 1109              	.LASF45:
 1110 0202 73656374 		.ascii	"sectors\000"
 1110      6F727300 
 1111              	.LASF0:
 1112 020a 756E7369 		.ascii	"unsigned int\000"
 1112      676E6564 
 1112      20696E74 
 1112      00
 1113              	.LASF48:
 1114 0217 666C6173 		.ascii	"flash_descriptor_t\000"
 1114      685F6465 
 1114      73637269 
 1114      70746F72 
 1114      5F7400
 1115              	.LASF68:
 1116 022a 474E5520 		.ascii	"GNU C17 10.2.1 20201103 (release) -mcpu=cortex-m4 -"
 1116      43313720 
 1116      31302E32 
 1116      2E312032 
 1116      30323031 
 1117 025d 6D746875 		.ascii	"mthumb -mfloat-abi=soft -march=armv7e-m -ggdb -O2 -"
 1117      6D62202D 
 1117      6D666C6F 
 1117      61742D61 
 1117      62693D73 
 1118 0290 666F6D69 		.ascii	"fomit-frame-pointer -falign-functions=16 -ffunction"
 1118      742D6672 
 1118      616D652D 
 1118      706F696E 
 1118      74657220 
 1119 02c3 2D736563 		.ascii	"-sections -fdata-sections -fno-common -flto\000"
 1119      74696F6E 
 1119      73202D66 
 1119      64617461 
 1119      2D736563 
 1120              	.LASF29:
 1121 02ef 464C4153 		.ascii	"FLASH_BUSY_ERASING\000"
 1121      485F4255 
 1121      53595F45 
 1121      52415349 
 1121      4E4700
 1122              	.LASF30:
 1123 0302 464C4153 		.ascii	"FLASH_ERROR_READ\000"
 1123      485F4552 
 1123      524F525F 
 1123      52454144 
 1123      00
 1124              	.LASF8:
 1125 0313 73686F72 		.ascii	"short unsigned int\000"
 1125      7420756E 
 1125      7369676E 
 1125      65642069 
 1125      6E7400
 1126              	.LASF28:
 1127 0326 464C4153 		.ascii	"FLASH_NO_ERROR\000"
ARM GAS  /tmp/ccdCD3ac.s 			page 24


 1127      485F4E4F 
 1127      5F455252 
 1127      4F5200
 1128              	.LASF72:
 1129 0335 6F73616C 		.ascii	"osalThreadSleep\000"
 1129      54687265 
 1129      6164536C 
 1129      65657000 
 1130              	.LASF19:
 1131 0345 63686172 		.ascii	"char\000"
 1131      00
 1132              	.LASF37:
 1133 034a 666C6173 		.ascii	"flash_offset_t\000"
 1133      685F6F66 
 1133      66736574 
 1133      5F7400
 1134              	.LASF24:
 1135 0359 464C4153 		.ascii	"FLASH_READ\000"
 1135      485F5245 
 1135      414400
 1136              	.LASF70:
 1137 0364 2F686F6D 		.ascii	"/home/iamprithvishetty/CDSpace/mmc3416_test2\000"
 1137      652F6961 
 1137      6D707269 
 1137      74687669 
 1137      73686574 
 1138              	.LASF20:
 1139 0391 5F426F6F 		.ascii	"_Bool\000"
 1139      6C00
 1140              	.LASF17:
 1141 0397 73797369 		.ascii	"sysinterval_t\000"
 1141      6E746572 
 1141      76616C5F 
 1141      7400
 1142              	.LASF12:
 1143 03a5 5F5F7569 		.ascii	"__uint64_t\000"
 1143      6E743634 
 1143      5F7400
 1144              	.LASF21:
 1145 03b0 464C4153 		.ascii	"FLASH_UNINIT\000"
 1145      485F554E 
 1145      494E4954 
 1145      00
 1146              	.LASF11:
 1147 03bd 6C6F6E67 		.ascii	"long unsigned int\000"
 1147      20756E73 
 1147      69676E65 
 1147      6420696E 
 1147      7400
 1148              	.LASF63:
 1149 03cf 666C6173 		.ascii	"flashGetSectorOffset\000"
 1149      68476574 
 1149      53656374 
 1149      6F724F66 
 1149      66736574 
 1150              	.LASF71:
 1151 03e4 42617365 		.ascii	"BaseFlashVMT\000"
ARM GAS  /tmp/ccdCD3ac.s 			page 25


 1151      466C6173 
 1151      68564D54 
 1151      00
 1152              	.LASF40:
 1153 03f1 73697A65 		.ascii	"size\000"
 1153      00
 1154              	.LASF23:
 1155 03f6 464C4153 		.ascii	"FLASH_READY\000"
 1155      485F5245 
 1155      41445900 
 1156              	.LASF25:
 1157 0402 464C4153 		.ascii	"FLASH_PGM\000"
 1157      485F5047 
 1157      4D00
 1158              	.LASF59:
 1159 040c 64657670 		.ascii	"devp\000"
 1159      00
 1160              	.LASF18:
 1161 0411 74696D65 		.ascii	"time_conv_t\000"
 1161      5F636F6E 
 1161      765F7400 
 1162              	.LASF31:
 1163 041d 464C4153 		.ascii	"FLASH_ERROR_PROGRAM\000"
 1163      485F4552 
 1163      524F525F 
 1163      50524F47 
 1163      52414D00 
 1164              	.LASF36:
 1165 0431 666C6173 		.ascii	"flash_error_t\000"
 1165      685F6572 
 1165      726F725F 
 1165      7400
 1166              	.LASF33:
 1167 043f 464C4153 		.ascii	"FLASH_ERROR_VERIFY\000"
 1167      485F4552 
 1167      524F525F 
 1167      56455249 
 1167      465900
 1168              	.LASF58:
 1169 0452 42617365 		.ascii	"BaseFlash\000"
 1169      466C6173 
 1169      6800
 1170              	.LASF34:
 1171 045c 464C4153 		.ascii	"FLASH_ERROR_HW_FAILURE\000"
 1171      485F4552 
 1171      524F525F 
 1171      48575F46 
 1171      41494C55 
 1172              	.LASF66:
 1173 0473 6D736563 		.ascii	"msec\000"
 1173      00
 1174              	.LASF22:
 1175 0478 464C4153 		.ascii	"FLASH_STOP\000"
 1175      485F5354 
 1175      4F5000
 1176              	.LASF44:
 1177 0483 73656374 		.ascii	"sectors_count\000"
ARM GAS  /tmp/ccdCD3ac.s 			page 26


 1177      6F72735F 
 1177      636F756E 
 1177      7400
 1178              	.LASF61:
 1179 0491 64657363 		.ascii	"descriptor\000"
 1179      72697074 
 1179      6F7200
 1180              		.text
 1181              		.section	.gnu.lto_.profile.8c6fe6c4decf47f1,"e",%progbits
 1182 0000 789CE360 		.ascii	"x\234\343`\000\002f\006\006F\006&\006\000\000\211\000"
 1182      00026606 
 1182      06460626 
 1182      06000089 
 1182      00
 1183 0011 0F       		.ascii	"\017"
 1184              		.text
 1185              		.section	.gnu.lto_.icf.8c6fe6c4decf47f1,"e",%progbits
 1186 0000 789C1366 		.ascii	"x\234\023f@\000f\206\027\223\257=\343`<qi\373w.\246"
 1186      40006686 
 1186      1793AF3D 
 1186      E3603C71 
 1186      69FB772E 
 1187 0015 65BBD6E7 		.ascii	"e\273\326\3471\000\000]#\011("
 1187      3100005D 
 1187      230928
 1188              		.text
 1189              		.section	.gnu.lto_.ipa_sra.8c6fe6c4decf47f1,"e",%progbits
 1190 0000 789CF361 		.ascii	"x\234\363a@\000f\006F \311\002\244\230\030\033X\240"
 1190      40006606 
 1190      4620C902 
 1190      A498181B 
 1190      58A0
 1191 0012 8240F612 		.ascii	"\202@\366\022f\206%\314\214\014,\214\034,l`u\214\020"
 1191      668625CC 
 1191      8C0C2C8C 
 1191      1C2C6C60 
 1191      758C10
 1192 0025 6926DC52 		.ascii	"i&\334R\014\000\273\342\004\307"
 1192      0C00BBE2 
 1192      04C7
 1193              		.text
 1194              		.section	.gnu.lto_.inline.8c6fe6c4decf47f1,"e",%progbits
 1195 0000 789C7BCD 		.ascii	"x\234{\315\200\000\314\014,\302\357\216\256;\314\224"
 1195      8000CC0C 
 1195      2CC2EF8E 
 1195      AE3BCC94 
 1196 0010 CDC8C0C4 		.ascii	"\315\310\300\304\177\255\373n\003S&\003\003\373\311"
 1196      7FADFB6E 
 1196      03532603 
 1196      03FBC9
 1197 001f 755F1631 		.ascii	"u_\0261\247210\001\2250q3200N\360c\023\002\322L\247"
 1197      A7323130 
 1197      01953071 
 1197      33323030 
 1197      4EF06313 
 1198 0037 39181819 		.ascii	"9\030\030\031\204\236\237\231\271\2329\235\221\211\201"
 1198      849E9F99 
ARM GAS  /tmp/ccdCD3ac.s 			page 27


 1198      B99A399D 
 1198      918981
 1199 0046 710933C8 		.ascii	"q\0113\310\020\006F \003\244\230U\240\001\010\230S\031"
 1199      10064620 
 1199      03A49855 
 1199      A0010898 
 1199      5319
 1200 0058 18D8400C 		.ascii	"\030\330@\014\246\024\220\031\214`f\022\023\003\013"
 1200      A6149019 
 1200      8C606612 
 1200      13030B
 1201 0067 9CCDC0C2 		.ascii	"\234\315\300\302\300tq\346\346g@\026\007H\233 \003\330"
 1201      C07471E6 
 1201      E6674016 
 1201      07489B20 
 1201      03D8
 1202 0079 0E2606C1 		.ascii	"\016&\006\301\26337/\303n4\337\254\315\317\3360\221"
 1202      B333372F 
 1202      C36E34DF 
 1202      ACCDCFDE 
 1202      3091
 1203 008b 6B340300 		.ascii	"k4\003\000/\2413\375"
 1203      2FA133FD 
 1204              		.text
 1205              		.section	.gnu.lto_.jmpfuncs.8c6fe6c4decf47f1,"e",%progbits
 1206 0000 789C858C 		.ascii	"x\234\205\214\315\011\2000\024\203\363\363\356\256\320"
 1206      CD098030 
 1206      1483F3F3 
 1206      EEAED0
 1207 000f 49ED0E1E 		.ascii	"I\355\016\036=w\020\007\023\354\253\036\012\275\030"
 1207      3D771007 
 1207      13ECAB1E 
 1207      0ABD18
 1208 001e 0821217C 		.ascii	"\010!!|'\246\014\222\265\331\002x\005\221~R\033\"v\254"
 1208      27A60C92 
 1208      B5D90278 
 1208      05917E52 
 1208      1B2276AC 
 1209 0032 DBECF7E8 		.ascii	"\333\354\367\350\324\341\346 \277x?\265P\244\0072-%"
 1209      D4E1E620 
 1209      BF783FB5 
 1209      50A40732 
 1209      2D25
 1210 0044 850BA516 		.ascii	"\205\013\245\026\375_\320\001h\307,h"
 1210      FD5FD001 
 1210      68C72C68 
 1211              		.text
 1212              		.section	.gnu.lto_.pureconst.8c6fe6c4decf47f1,"e",%progbits
 1213 0000 789CE362 		.ascii	"x\234\343b```f\330\311\3028\223\205i&\013\000\012\353"
 1213      60606066 
 1213      D8C9C238 
 1213      93856926 
 1213      0B000AEB 
 1214 0014 0208     		.ascii	"\002\010"
 1215              		.text
 1216              		.section	.gnu.lto_.lto.8c6fe6c4decf47f1,"e",%progbits
 1217 0000 09000200 		.ascii	"\011\000\002\000\001\000\000\000"
ARM GAS  /tmp/ccdCD3ac.s 			page 28


 1217      01000000 
 1218              		.text
 1219              		.section	.gnu.lto_flashWaitErase.352.8c6fe6c4decf47f1,"e",%progbits
 1220 0000 789C7553 		.ascii	"x\234uSOh\\e\020\237\337\233\367g\2671])x\017B\261\""
 1220      4F685C65 
 1220      109FDF9B 
 1220      F767B731 
 1220      5D29780F 
 1221 0017 DD8D8D94 		.ascii	"\335\215\215\224\026D\204\212x\023\251\036\274l\330"
 1221      1644848A 
 1221      7813A91E 
 1221      BC6CD8
 1222 0026 6C5FD985 		.ascii	"l_\331\205\254\011\273K!\007\351\327\354n\013\361\220"
 1222      AC09BB4B 
 1222      2107E9D7 
 1222      EC6E0BF1 
 1222      90
 1223 0037 6E526A2C 		.ascii	"nRj,5\342\362\220z0\032\244m\324h\327Dc\005\221\330"
 1223      35E2F290 
 1223      7A301AA4 
 1223      6DD468D7 
 1223      44630591 
 1224 004c 83D28B4A 		.ascii	"\203\322\213J\241\324\364\020\027=4\244\265u\346{K\032"
 1224      A1D4F410 
 1224      173D34A4 
 1224      B575E67B 
 1224      4B1A
 1225 005e 0F3E78F3 		.ascii	"\017>x\363f\346\233\337\314\374\346\233\267\314DsD\224"
 1225      66E69BDF 
 1225      CCFCE69B 
 1225      B7CC4473 
 1225      4494
 1226 0070 93173E61 		.ascii	"\223\027>a\2529\341\2201\346\371\300\301ts\207\325\330"
 1226      AA39E190 
 1226      31E6F9C0 
 1226      C1747387 
 1226      D5D8
 1227 0082 A937DF72 		.ascii	"\2517\337rp\005s\223\215\300m4w^\353l\036p]\234hN\334"
 1227      70057393 
 1227      8DC06D34 
 1227      775EEB6C 
 1227      1E705D9C 
 1228 0099 9A79D686 		.ascii	"\232y\326\206x\230\236\237\370\363\324n|\006k\203\216"
 1228      78989E9F 
 1228      F8F3D46E 
 1228      7C066B83 
 1228      8E
 1229 00aa 3BEC7A10 		.ascii	";\354z\020I\017\237i~\262m\314F\343\334\335\347\316"
 1229      490F9F69 
 1229      7EB26DCC 
 1229      46E3DCDD 
 1229      E7CE
 1230 00bc 5D682392 		.ascii	"]h#\222\263Y&\014\240_O\3173\2468b\300\355j\016\372"
 1230      B359260C 
 1230      A05F4FCF 
 1230      33A63862 
 1230      C0ED6A0E 
ARM GAS  /tmp/ccdCD3ac.s 			page 29


 1231 00d1 44E3D7E9 		.ascii	"D\343\327\351\011A\255^_0&I\0213.CQ\227\200\213 udO"
 1231      0941AD5E 
 1231      5F302649 
 1231      11332E43 
 1231      5197808B 
 1232 00e9 26897C9B 		.ascii	"&\211|\233KH\010\304\352\300\347\320\234\\U\271{\325"
 1232      4B4808C4 
 1232      EAC0E7D0 
 1232      9C5C55B9 
 1232      7BD5
 1233 00fb 98CE83C5 		.ascii	"\230\316\203\305\321\253\306\215\330\305\027\333S\020"
 1233      D1ABC68D 
 1233      D8C517DB 
 1233      5310
 1234 0109 65DF4B6A 		.ascii	"e\337Kj\344\230\215\224b\235\373?\027f4\222\360%\266"
 1234      E4988D94 
 1234      629DFB3F 
 1234      17663492 
 1234      F025B6
 1235 011c B5989D4E 		.ascii	"\265\230\235N\332\364\370\012X\004\011[\312NY\350\233"
 1235      DAF4F80A 
 1235      5804095B 
 1235      CA4E59E8 
 1235      9B
 1236 012d 0AD53E37 		.ascii	"\012\325>7\316N\314^\336\263R3/E\354\241\015m$\256\203"
 1236      CE4ECC5E 
 1236      DEB35233 
 1236      2F45ECA1 
 1236      0D6D24AE 
 1237 0142 AF85B197 		.ascii	"\257\205\261\227\275\224\354\026\331X\275~\247\026\030"
 1237      BD94EC16 
 1237      D958BD7E 
 1237      A71618
 1238 0151 DB511C49 		.ascii	"\333Q\034I\017#\343y\3702\314\205\037^\301\222\370\256"
 1238      0F23E379 
 1238      F832CC85 
 1238      1F5EC192 
 1238      F8AE
 1239 0163 682AA589 		.ascii	"h*\245\211eKMB\234\270\217\217\257yms\357\301\2441\277"
 1239      654B4D42 
 1239      9CB88F8F 
 1239      AF796D73 
 1239      EFC1A431 
 1240 0178 DDC1CD8B 		.ascii	"\335\301\315\213/\356\202L\305wD\004,\"\341\212Hz*|"
 1240      2FEE824C 
 1240      C5774404 
 1240      2C22E18A 
 1240      487A2A7C 
 1241 018c 15818A84 		.ascii	"\025\201\212\204\036\364\000\013\350U6)\025D\223L\235"
 1241      1EF4000B 
 1241      E8553629 
 1241      1544934C 
 1241      9D
 1242 019d CD0B0760 		.ascii	"\315\013\007`\332\252;V?!\372if\351\304\270\250\211"
 1242      DAAA3B56 
 1242      3F21FA69 
 1242      66E9C4B8 
ARM GAS  /tmp/ccdCD3ac.s 			page 30


 1242      A889
 1243 01af 711BA615 		.ascii	"q\033\246\025\250\274\361\317k\322\225\325\356\307\237"
 1243      A8BCF1CF 
 1243      6BD295D5 
 1243      EEC79F
 1244 01be 333EAD63 		.ascii	"3>\255c|q\255\267\305\350^\"\333K\370@\327\"\021\361"
 1244      7C71ADB7 
 1244      C5E85E22 
 1244      DB4BF840 
 1244      D72211F1 
 1245 01d2 8E16F7E0 		.ascii	"\216\026\367\340[P\177l\372X\301\273vC\024\226l\261"
 1245      5B507F6C 
 1245      FA58C1BB 
 1245      76431496 
 1245      6CB1
 1246 01e4 D345F9FF 		.ascii	"\323E\371\377A\365H:\\\025T\335\232\217\340{A\351\210"
 1246      41F5483A 
 1246      5C1554DD 
 1246      9A8FE07B 
 1246      41E988
 1247 01f7 3A68F4B5 		.ascii	":h\364\265X\2529$\211\353\335\360^\231\2114\026\361"
 1247      58AA3924 
 1247      89EBDDF0 
 1247      5E998934 
 1247      16F1
 1248 0209 4E696ABC 		.ascii	"Nij\274O\230I\214\355\357\355\025\207\326P_[\036\022"
 1248      4F98498C 
 1248      EDEFED15 
 1248      87D6505F 
 1248      5B1E12
 1249 021c 8FD621D8 		.ascii	"\217\326!\330\373\027\202\256%\333\345w\343\235\025"
 1249      FB1782AE 
 1249      25DBE577 
 1249      E39D15
 1250 022b 9696967E 		.ascii	"\226\226\226~\3750%\271\016>.+C\177I\252\026\247$x\023"
 1250      FD3025B9 
 1250      0E3E2E2B 
 1250      437F49AA 
 1250      16A72478 
 1251 0240 2981F3DC 		.ascii	")\201\363\334\374\260\340\274f\343\227\357x\0138/\025"
 1251      FCB0E0BC 
 1251      66E397EF 
 1251      780B382F 
 1251      15
 1252 0251 84CB59E1 		.ascii	"\204\313Y\341\302\272\"\242\337;%\365]\261\305\250}"
 1252      C2BA22A2 
 1252      DF3B25F5 
 1252      5DB1C5A8 
 1252      7D
 1253 0262 72520C4F 		.ascii	"rR\014Ol\255\236\304\351\037\225z\355\274z}9\210\275"
 1253      6CAD9EC4 
 1253      E91F957A 
 1253      EDBC7A7D 
 1253      3988BD
 1254 0275 B702752E 		.ascii	"\267\002u.\2503\020\177\354\374#\330J\226\020\177Lm"
 1254      A833107F 
 1254      ECFC23D8 
ARM GAS  /tmp/ccdCD3ac.s 			page 31


 1254      4A96107F 
 1254      4C6D
 1255 0287 492D2DFC 		.ascii	"I--\374\367Gg\026\327\177\337%\273a\333\370i}\006\370"
 1255      F7476716 
 1255      D77FDF25 
 1255      BB61DBF8 
 1255      697D06F8 
 1256 029b 0632A07A 		.ascii	"\0062\240z\037\325\341D\234\232\225\377IN%>\342G\025"
 1256      1FD5E144 
 1256      9C9A95FF 
 1256      494E253E 
 1256      E24715
 1257 02ae DD79BFF6 		.ascii	"\335y\277\366\351\2532'\335.K\026[\\5\305\335\233\011"
 1257      E9AB3227 
 1257      DD2E4B16 
 1257      5B5C35C5 
 1257      DD9B09
 1258 02c1 DD6F5D04 		.ascii	"\335o]\004\330\331\214\267uR{3\205\221R\230)\346J\243"
 1258      D8D98CB7 
 1258      75527B33 
 1258      85915298 
 1258      29E64AA3 
 1259 02d5 E562B570 		.ascii	"\345b\265p\254X)\204\325\352X\346\320\013\207Gs\371"
 1259      AC582984 
 1259      D5EA58E6 
 1259      D00B8747 
 1259      73F9
 1260 02e7 30532AE5 		.ascii	"0S*\345\007\236yz\377`5\254T\367\321\236t\346P\2418"
 1260      079E797A 
 1260      FF6035AC 
 1260      54F7D19E 
 1260      74E650A1 
 1261 02fc 547CF9F0 		.ascii	"T|\371\360\340\276\376\364@\272?3R\311\024r\303\231"
 1261      E0BEFEF4 
 1261      40BA3F33 
 1261      52C91472 
 1261      C399
 1262 030e 4A39AFDF 		.ascii	"J9\257\337\301\243\303\271J!\235'\367Hxl\364\261m\236"
 1262      C1A3C3B9 
 1262      4A219D27 
 1262      F748786C 
 1262      F4B16D9E 
 1263 0322 747EE8E8 		.ascii	"t~\350\350\301\375\003aHn\251\022\3469,\227\275#\341"
 1263      C1FD0361 
 1263      486EA912 
 1263      E6392C97 
 1263      BD23E1
 1264 0335 706EECA9 		.ascii	"pn\354\251\377K9R\021Q\256\356}\243\030\353\351\002"
 1264      FF4B3952 
 1264      1151AEEE 
 1264      7DA318EB 
 1264      E902
 1265 0347 FD0B8C59 		.ascii	"\375\013\214Yq\336"
 1265      71DE
 1266              		.text
 1267              		.section	.gnu.lto_flashGetSectorOffset.353.8c6fe6c4decf47f1,"e",%progbits
 1268 0000 789C7553 		.ascii	"x\234uSMHTQ\024\276\347\336\373\336\374\350\214\375"
ARM GAS  /tmp/ccdCD3ac.s 			page 32


 1268      4D485451 
 1268      14BEE7DE 
 1268      FBDEFCE8 
 1268      8CFD
 1269 0012 6E5C4914 		.ascii	"n\\I\024\025\344<\3232\334\011\266o!-\332(\343\370\206"
 1269      15E43CD3 
 1269      32DC09B6 
 1269      6F212DDA 
 1269      28E3F886 
 1270 0026 19709861 		.ascii	"\031p\230a\336C\210\026>\235\311\205\005:\206\013\315"
 1270      DE438816 
 1270      3E9DC985 
 1270      053A860B 
 1270      CD
 1271 0037 225E8F7E 		.ascii	"\"^\217~\240R\322\320\312rBQ\302\214j\323\252\026B\242"
 1271      A052D2D0 
 1271      CA724251 
 1271      C28C6AD3 
 1271      AA1642A2 
 1272 004b 2D4A0CA4 		.ascii	"-J\014\244B\260s\357\323\311\011Z\274\373\316=\367\373"
 1272      42B073EF 
 1272      D3C9095A 
 1272      BCFBCE3D 
 1272      F7FB
 1273 005d CEF7DD73 		.ascii	"\316\367\335s\357\3152B\256\022B\316\343\007*\201\376"
 1273      EFCD3242 
 1273      AE1242CE 
 1273      E3072A81 
 1273      FE
 1274 006e 5C0F2596 		.ascii	"\\\017%\226e\325{(\315\344\256P\230\206\241\261\345"
 1274      65D57B28 
 1274      CDE4AE50 
 1274      9886A1B1 
 1274      E5
 1275 007f 133C9B0B 		.ascii	"\023<\233\013.\277\031\334\317\031\014\344\374r\235"
 1275      2EBF19DC 
 1275      CF190CE4 
 1275      FC729D
 1276 008e 63B48355 		.ascii	"c\264\203U\2403\327\363qx\234#\\&\200tP\306\025\350"
 1276      A033D7F3 
 1276      71789C23 
 1276      5C268074 
 1276      50C615E8 
 1277 00a2 806B6C98 		.ascii	"\200kl\230A?s\030\001\276\035\001T\034\317[\326\317"
 1277      413F7318 
 1277      01BE1D01 
 1277      541CCF5B 
 1277      D6CF
 1278 00b4 CB430F32 		.ascii	"\313C\0172\376\341{y\3560Jn\"\340\011\3008\240\021\202"
 1278      FEE17B79 
 1278      EE304A6E 
 1278      22E009C0 
 1278      38A01182 
 1279 00c8 4076811C 		.ascii	"@v\201\034E\320\273\225I\313\362\021\2071\230\200]\030"
 1279      45D0BB95 
 1279      49CBF211 
 1279      87319880 
ARM GAS  /tmp/ccdCD3ac.s 			page 33


 1279      5D18
 1280 00da 4C34DDF5 		.ascii	"L4\335\365\012\234)qk\0173\327\203}\3400\016O\213q\274"
 1280      0A9C2971 
 1280      6B0F33D7 
 1280      837DE030 
 1280      0E4F8B71 
 1281 00ef 69CCEB56 		.ascii	"i\314\353V\274$\306#\002<r\2737\330\327\351u\230\002"
 1281      BC24C623 
 1281      023C72BB 
 1281      37D8D7E9 
 1281      759802
 1282 0102 CFA148B9 		.ascii	"\317\241H\271iA\026\355\206\002\366\321L\217\213\245"
 1282      694116ED 
 1282      8602F6D1 
 1282      4C8F8BA5 
 1283 0112 F0E21FEC 		.ascii	"\360\342\037\354\264\027;\366\022`\012\204}\321AB\250"
 1283      B4173BF6 
 1283      12600A84 
 1283      7DD14142 
 1283      A8
 1284 0123 9B18F9A0 		.ascii	"\233\030\371\240\344\255\315\255^\313\372^\276\271\271"
 1284      E4ADCDAD 
 1284      5ECBFA5E 
 1284      BEB9B9
 1285 0132 EE2D03B4 		.ascii	"\356-\003\264\242R\034<Lp8F^\005\007\237*\"\217\210"
 1285      A2521C3C 
 1285      4C703846 
 1285      5E05079F 
 1285      2A228F88 
 1286 0146 7C009350 		.ascii	"|\000\223PB\220]\012\360\014\002\002\027\024\003!\275"
 1286      42905D0A 
 1286      F00C0202 
 1286      17140321 
 1286      BD
 1287 0157 4C34DAE2 		.ascii	"L4\332\342`\345\011\351c\324\235t\342\344+XK\237\346"
 1287      60E509E9 
 1287      63D49D74 
 1287      E2E42B58 
 1287      4B9FE6
 1288 016a 40FE3FAB 		.ascii	"@\376?\253\344\033tM\335\257\264\031l\367\232\311\215"
 1288      E41B744D 
 1288      DDAFB419 
 1288      6CF79AC9 
 1288      8D
 1289 017b DC11A782 		.ascii	"\334\021\247\202[\360\333\314\007y U\356T\205WpC\032"
 1289      5BF0DBCC 
 1289      07792055 
 1289      EE548557 
 1289      70431A
 1290 018e 17349FCD 		.ascii	"\0274\237\315\3506K-b\225`9\230AVVNKa\026Y\242\003k"
 1290      E8364B2D 
 1290      62956039 
 1290      98415656 
 1290      4E4B6116 
 1291 01a6 90ADB0C5 		.ascii	"\220\255\260\3052%X\330a\001t\321U\201\3761)\015\375"
 1291      322558D8 
 1291      610174D1 
ARM GAS  /tmp/ccdCD3ac.s 			page 34


 1291      5581FE31 
 1291      290DFD
 1292 01b9 708D1D2A 		.ascii	"p\215\035*\014K\033\256\305\325\0036\333\271\016J\221"
 1292      0C4B1BAE 
 1292      C5D50336 
 1292      DBB90E4A 
 1292      91
 1293 01ca 5810B930 		.ascii	"X\020\2710W\020+\203y\024\243(\266\012\331\325\231r"
 1293      57102B83 
 1293      7914A328 
 1293      B60AD9D5 
 1293      9972
 1294 01dc A4094E99 		.ascii	"\244\011N\231<\000\321\012\366~pl\231\026Z\361k\216"
 1294      3C00D10A 
 1294      F67E706C 
 1294      99165AF1 
 1294      6B8E
 1295 01ee A24066B4 		.ascii	"\242@f\264{\221\333L\261Y\251@s\360\212\344\343n4\246"
 1295      7B91DB4C 
 1295      B159A940 
 1295      73F08AE4 
 1295      E36E34A6 
 1296 0202 62055C71 		.ascii	"b\005\\q\033\205b\301\035\355\225\303\016\333\203\353"
 1296      1B8562C1 
 1296      1DED95C3 
 1296      0EDB83EB 
 1297 0212 F0DA155F 		.ascii	"\360\332\025_9\341\260\275\260\200\352\242C\270\261"
 1297      39E1B0BD 
 1297      B080EAA2 
 1297      43B8B1
 1298 0221 5B757814 		.ascii	"[ux\024H\220\262|\024\237\003\024d\267\244,\356k\026"
 1298      4890B27C 
 1298      149F0314 
 1298      64B7A42C 
 1298      EE6B16
 1299 0234 119EFF6F 		.ascii	"\021\236\377og\037,bA.;\216&\277 :\200\004\364\351\266"
 1299      671F2C62 
 1299      412E3B8E 
 1299      26BF203A 
 1299      8004F4E9 
 1300 0249 4E0804A4 		.ascii	"N\010\004\244\200\262\373\210\273\352\211\\bRl`\336"
 1300      80B2FB88 
 1300      BBEA895C 
 1300      62526C60 
 1300      DE
 1301 025a 87EF8CAC 		.ascii	"\207\357\214\254\243\245\323\266t\367\033\030\032co"
 1301      A3A5D3B6 
 1301      74F71B18 
 1301      1A636F
 1302 0269 275248E7 		.ascii	"'RH\347\033g\360\276\300\337\373BH\245\026K&t-\036N"
 1302      1B67F0BE 
 1302      C0DFFB42 
 1302      48A5164B 
 1302      26742D1E 
 1303 027e A4D27133 		.ascii	"\244\322q3\326\0367b\272i^\324\032\3166\246\302\021"
 1303      D61E3762 
 1303      BA695ED4 
ARM GAS  /tmp/ccdCD3ac.s 			page 35


 1303      1ACE36A6 
 1303      C211
 1304 0290 5D4B2422 		.ascii	"]K$\"5\247N\3266\233\272aV\223c!\255!\026o\211\237k"
 1304      35A74ED6 
 1304      369BBA61 
 1304      56936321 
 1304      AD21166F 
 1305 02a7 6CAEAE0A 		.ascii	"l\256\256\012\325\204\252\264\244\241\305\302m\232\221"
 1305      D584AAB4 
 1305      A4A1C5C2 
 1305      6D9A91
 1306 02b6 8E887F73 		.ascii	"\216\210\177s\264-l\304B\021\302[\365\366\324\301]\231"
 1306      B42D6CC4 
 1306      4211C25B 
 1306      F5F6D4C1 
 1306      5D99
 1307 02c8 50A4255A 		.ascii	"P\244%ZW[\243\353D5\364\210\231L\373[u#\222\216\247"
 1307      575BA3EB 
 1307      4435F488 
 1307      994CFB5B 
 1307      7523928E 
 1308 02dd 305493D1 		.ascii	"0T\223\321\250\241\233\177\000\315:L\004"
 1308      A8A19B7F 
 1308      00CD3A4C 
 1308      04
 1309              		.text
 1310              		.section	.gnu.lto_flashGetSectorSize.354.8c6fe6c4decf47f1,"e",%progbits
 1311 0000 789C6553 		.ascii	"x\234eS]H\024A\034\237\377\314\354\336\227w&\025A\020"
 1311      5D481441 
 1311      1C9FFFCC 
 1311      ECDE9777 
 1311      26154110 
 1312 0014 491016E4 		.ascii	"I\020\026\344\255i\005=D\202\275\367 =\364\242\234\347"
 1312      AD69053D 
 1312      4482BDF7 
 1312      203DF4A2 
 1312      9CE7
 1313 0026 CA1D7879 		.ascii	"\312\035xy\334\036B\365\340\352]\027\330\203\236\021"
 1313      DC1E42F5 
 1313      E0EA5D17 
 1313      D8839E11 
 1314 0036 A1D807DB 		.ascii	"\241\330\007\333\022\366\224\244\221\225\345\225\221"
 1314      12F694A4 
 1314      9195E595 
 1314      91
 1315 0043 441F5850 		.ascii	"D\037XPHQ\202\017\207F\204\365bDa\377\231\365.\257\036"
 1315      4851820F 
 1315      874684F5 
 1315      624461FF 
 1315      99F52EAF 
 1316 0058 7676E63F 		.ascii	"vv\346?\277\257\371\357\354\011FH/!\344\030>\240\022"
 1316      BFAFF9EF 
 1316      EC094648 
 1316      2F21E418 
 1316      3EA012
 1317 006b 18C8F652 		.ascii	"\030\310\366Rb\232f\275\213\322T\366\034\205)\030\032"
 1317      629A66BD 
ARM GAS  /tmp/ccdCD3ac.s 			page 36


 1317      8BD254F6 
 1317      1C852918 
 1317      1A
 1318 007c CBEFE1E9 		.ascii	"\313\357\341\351l \377bp#gp!\353\225\373\034g\005\254"
 1318      6C20FF62 
 1318      70236770 
 1318      21EB95FB 
 1318      1C6705AC 
 1319 0090 02DDD9DE 		.ascii	"\002\335\331\336\371+\343\034\341\262\000\244\2132\256"
 1319      F92BE31C 
 1319      E1B200A4 
 1319      8B32AE
 1320 009f 40179C67 		.ascii	"@\027\234g\303\014\006\230\315\010\360\265\031@\345"
 1320      C30C0698 
 1320      CD08F0B5 
 1320      1940E5
 1321 00ae EE9C69FE 		.ascii	"\356\234i\37683\364qZ\035\036\311q\233Qr\031\001\267"
 1321      3833F471 
 1321      5A1D1EC9 
 1321      719B5172 
 1321      1901B7
 1322 00c1 01C60183 		.ascii	"\001\306\001\203\020\004\262\343\244\012A\263s\023\246"
 1322      1004B2E3 
 1322      A40A41B3 
 1322      7313A6
 1323 00d0 E9213663 		.ascii	"\351!6cp\007\326a\260\320\364\330%pI\211[\376\224\272"
 1323      7007D661 
 1323      B0D0F4D8 
 1323      25704989 
 1323      5BFE94BA 
 1324 00e4 18E8079B 		.ascii	"\030\350\007\233q\270[\212\343M\257\\\216\342i1\356"
 1324      71B85B8A 
 1324      E34DAF5C 
 1324      8EE26931 
 1324      EE
 1325 00f5 14E0C56B 		.ascii	"\024\340\305k}\201\376n\267\315\024\270\017%\316My)"
 1325      7D81FE6E 
 1325      B7CD14B8 
 1325      0F25CE4D 
 1325      7929
 1326 0107 9A812276 		.ascii	"\232\201\"v>u\326\301Rx\360\017\366\275\013;\366\020"
 1326      3E75D6C1 
 1326      5278F00F 
 1326      F6BD0B3B 
 1326      F610
 1327 0119 6012447C 		.ascii	"`\022D|\321AB\250S\270\371F\311\231\277V\373Lse\333"
 1327      D14142A8 
 1327      53B8F946 
 1327      C999BF56 
 1327      FB4C7365 
 1328 012e 97E15577 		.ascii	"\227\341Uw\0000\212Jqp1\301\3418s+8xT1s\003L\200\227"
 1328      00308A4A 
 1328      717031C1 
 1328      E138732B 
 1328      38785431 
 1329 0147 20D12776 		.ascii	" \321'v\313\000\356\201_\314\010\351c\242\307&\0073"
 1329      CB00EE81 
ARM GAS  /tmp/ccdCD3ac.s 			page 37


 1329      5FCC08E9 
 1329      63A2C726 
 1329      0733
 1330 0159 47483FA3 		.ascii	"GH?\243\316\242\033\027\237\301\\\230\232\001\371\236"
 1330      CEA21B17 
 1330      9FC15C98 
 1330      9A01F99E 
 1331 0169 7591AFD0 		.ascii	"u\221\257\3203y\243\332b\260\326f&\317p]|\020L\357\265"
 1331      3379A3DA 
 1331      62B0D666 
 1331      26CF705D 
 1331      7C104CEF 
 1332 017e 981B7240 		.ascii	"\230\033r@j\234\245\012\217\340\222\314,h\036\213\321"
 1332      6A9CA50A 
 1332      8FE092CC 
 1332      2C681E8B 
 1332      D1
 1333 018f 35965AC2 		.ascii	"5\226Z\302\362\241\034L#+-\227e\360\004Y\342\360\313"
 1333      F2A11C4C 
 1333      232B2D97 
 1333      65F00459 
 1333      E2F0CB
 1334 01a2 90AEB484 		.ascii	"\220\256\264\204(%(l3?\246\350\251\304\374X\224\201"
 1334      2825286C 
 1334      333FA6E8 
 1334      A9C4FC58 
 1334      9481
 1335 01b4 DE3AC176 		.ascii	"\336:\301v\024\207\2059'\342\322&\213\025n\202Rb\026"
 1335      14878539 
 1335      27E2D226 
 1335      8B156E82 
 1335      526216
 1336 01c7 402E3C2D 		.ascii	"@.<-\232\225\303\014\232Q4[\202\364\322\364V\244\011"
 1336      9A95C30C 
 1336      9A51345B 
 1336      82F4D2F4 
 1336      56A409
 1337 01da 4EB9ECBD 		.ascii	"N\271\354\275h\005{=8\226\247\305V|\230\241h\220\032"
 1337      68057B3D 
 1337      3896A7C5 
 1337      567C98A1 
 1337      68901A
 1338 01ed CDFC6616 		.ascii	"\315\374f\026S,V&\320\034\334\242x+\203\301TT\300\035"
 1338      532C5626 
 1338      D01CDCA2 
 1338      782B83C1 
 1338      5454C01D 
 1339 0201 A7517E8B 		.ascii	"\247Q~\213\371\013\336\213\333m\266\001\367\341\231"
 1339      F90BDE8B 
 1339      DB6DB601 
 1339      F7E199
 1340 0210 63BE5865 		.ascii	"c\276Xe\263\012x\216\356\242Cx\260\253\373\361S A\332"
 1340      B30A788E 
 1340      EEA24378 
 1340      B0ABFBF1 
 1340      532041DA 
 1341 0224 F251FC13 		.ascii	"\362Q\374\023\240h\373M\332:\212\276\202\342\310\226"
ARM GAS  /tmp/ccdCD3ac.s 			page 38


 1341      A068FB4D 
 1341      DA3A8ABE 
 1341      82E2C896 
 1342 0234 FF8E5301 		.ascii	"\377\216S\001/Q\220\227\010\372\244\240\262\376\223"
 1342      2F519097 
 1342      08FAA4A0 
 1342      B2FE93
 1343 0243 F6D413B9 		.ascii	"\366\324\023\271\305\244\370\312\214\007\177)\362]0"
 1343      C5A4F8CA 
 1343      8C077F29 
 1343      F25D30
 1344 0252 2C99E627 		.ascii	",\231\346'\340\351\374\354\335!d\363\314a\274\036\360"
 1344      E0E9FCEC 
 1344      DD2164F3 
 1344      CC61BC1E 
 1344      F0
 1345 0263 F77A1052 		.ascii	"\367z\020R\255E:b\272\026\015\305\342\211h2\322\031"
 1345      AD453A62 
 1345      BA160DC5 
 1345      E2896832 
 1345      D219
 1346 0275 35227A32 		.ascii	"5\"z2yRk8\322\030\017\205u-\026\013\327\355\333{\240"
 1346      79526B38 
 1346      D2180F85 
 1346      752D160B 
 1346      D7EDDB7B 
 1347 028a 39A91BC9 		.ascii	"9\251\033\311Z\262+\2505D\242-\321\243\215\315\2655"
 1347      5AB22BA8 
 1347      3544A22D 
 1347      D1A38DCD 
 1347      B535
 1348 029c C1BA608D 		.ascii	"\301\272`\215\326ah\221P\273f$\302\342\335\334\326\036"
 1348      D6616891 
 1348      50BB6624 
 1348      C2E2DDDC 
 1348      D61E
 1349 02ae 3222C130 		.ascii	"2\"\3010\341\255zg|\363\272J0\334\322v\360@\235\256"
 1349      E1AD7A67 
 1349      7CF3BA4A 
 1349      30DCD276 
 1349      F0409DAE 
 1350 02c2 13D5D0C3 		.ascii	"\023\325\320\303\311\216\204\267U7\302\211h\034\247"
 1350      C98E84B7 
 1350      5537C289 
 1350      681CA7
 1351 02d1 DC889ED2 		.ascii	"\334\210\236\322\377\000s\374D\244"
 1351      FF0073FC 
 1351      44A4
 1352              		.text
 1353              		.section	.gnu.lto_.symbol_nodes.8c6fe6c4decf47f1,"e",%progbits
 1354 0000 789C9BCB 		.ascii	"x\234\233\313\000\004L\017\230\352\031>\374Za\3018\341"
 1354      00044C0F 
 1354      98EA193E 
 1354      FC5A61C1 
 1354      38E1
 1355 0012 1C03433D 		.ascii	"\034\003C=\003\303\256\206FF\006F\006\260\334C\246z"
 1355      03C3AE86 
ARM GAS  /tmp/ccdCD3ac.s 			page 39


 1355      46460646 
 1355      06B0DC43 
 1355      A67A
 1356 0024 C6062060 		.ascii	"\306\006 `\301&\371\210\251\236\011\227$\343c\246z\346"
 1356      C126F988 
 1356      A99E0997 
 1356      24E363A6 
 1356      7AE6
 1357 0036 FF50200F 		.ascii	"\377P \017V\300\300\000T\013\222ef`\236\330z\37583\343"
 1357      56C0C000 
 1357      540B9265 
 1357      66609ED8 
 1357      7AFD3833 
 1358 004b 123E1606 		.ascii	"\022>\026\006\210\001_\031Y\240\366leda\202\261\030"
 1358      88015F19 
 1358      59A0F66C 
 1358      65646182 
 1358      B118
 1359 005d 0071B12E 		.ascii	"\000q\261.\277"
 1359      BF
 1360              		.text
 1361              		.section	.gnu.lto_.refs.8c6fe6c4decf47f1,"e",%progbits
 1362 0000 789C6364 		.ascii	"x\234cd\000\002\000\000\012\000\002"
 1362      00020000 
 1362      0A0002
 1363              		.text
 1364              		.section	.gnu.lto_.decls.8c6fe6c4decf47f1,"e",%progbits
 1365 0000 789CA558 		.ascii	"x\234\245XyP\024\331\035~\277\327\303\314\320\016G\024"
 1365      795014D9 
 1365      1D7EBFD7 
 1365      C3CCD00E 
 1365      4714
 1366 0012 E3A6B265 		.ascii	"\343\246\262e(k\267\2446Q\024-7\371'k\342\256[\025k"
 1366      286BB7A4 
 1366      3651142D 
 1366      37F9276B 
 1366      E2AE5B15 
 1367 0027 5D13345B 		.ascii	"]\0234[\233?25\316\2642U f\246\265b\376I\253\340\001"
 1367      9B3F3235 
 1367      CEB43255 
 1367      2066A6B5 
 1367      62FE49AB 
 1368 003d 8A78B178 		.ascii	"\212x\261x\240x@\304\003O\326\203E\307\001t\274QY\243"
 1368      A07840C4 
 1368      034FD683 
 1368      45C70174 
 1368      BC5159A3 
 1369 0051 A2ABABD1 		.ascii	"\242\253\253\321\305\305\203K@\274\362{\257{\246{\230"
 1369      C5C5834B 
 1369      40BCF27B 
 1369      AF7BA67B 
 1369      98
 1370 0062 31D954DA 		.ascii	"1\331T\332z\335\257\337|\357\373~W\277\367\360g?\"\244"
 1370      7ADDAFDF 
 1370      7CEFFB7E 
 1370      57BFF7F0 
 1370      673F22A4 
ARM GAS  /tmp/ccdCD3ac.s 			page 40


 1371 0076 8D125207 		.ascii	"\215\022R\007\204\274\306\313D\010\271\210-\006\233"
 1371      84BCC6CB 
 1371      4408B988 
 1371      2D069B
 1372 0085 05C7ACD8 		.ascii	"\005\307\254\330\316a\177\020>\217\022\365b\230d|\177"
 1372      CE617F10 
 1372      3E8F12F5 
 1372      6298647C 
 1372      7F
 1373 0096 17DB7BD8 		.ascii	"\027\333{\330F\000\211\270~\203\234HMNb\353\217-I\343"
 1373      460089B8 
 1373      7E839C48 
 1373      4D4E62EB 
 1373      8F2D49E3 
 1374 00aa A8C1E730 		.ascii	"\250\301\3470P\271Oa\177(\266\024l?\306w3\266\221\232"
 1374      50B94F61 
 1374      7F28B614 
 1374      6C3FC677 
 1374      33B6919A 
 1375 00be 4E005B1A 		.ascii	"N\000[\032\366S\261!\025\031\200\317W\370\0244\355\321"
 1375      F653B121 
 1375      151980CF 
 1375      57F81434 
 1375      EDD1
 1376 00d0 6FD09D80 		.ascii	"o\320\235\200\340\001\006\315;\232.\363a\202\246\333"
 1376      E00106CD 
 1376      3B9A2EF3 
 1376      6182A6DB 
 1377 00e0 8DFDDF83 		.ascii	"\215\375\337\203\252\035\324\375\003\266.|\377\035>"
 1377      AA1DD4FD 
 1377      03B62E7C 
 1377      FF1D3E
 1378 00ef D3B14DC2 		.ascii	"\323\261M\3026\031\333\024Pc\301\364M\330>\3046\021"
 1378      3619DB14 
 1378      5063C1F4 
 1378      4DD83EC4 
 1378      3611
 1379 0101 DB47D898 		.ascii	"\333G\330\230\374\273Ql\230BU\375\240\0155\377\207\015"
 1379      FCBB516C 
 1379      984255FD 
 1379      A00D35FF 
 1379      870D
 1380 0113 D1F43F31 		.ascii	"\321\364?1\350\277\027E\177\205\000\375\301\204\367"
 1380      E8BF1745 
 1380      7F8500FD 
 1380      C184F7
 1381 0122 2448E6FD 		.ascii	"$H\346\375\267\004\312\006\207\002\313p\002\357\021"
 1381      B704CA06 
 1381      8702CB70 
 1381      02EF11
 1382 0131 219EA42A 		.ascii	"!\236\244*\374\362\377\224\300\021\225\346\203~\302"
 1382      FCF2FF94 
 1382      C01195E6 
 1382      837EC2
 1383 0140 14B24EA0 		.ascii	"\024\262N\240\017\353\037\234\215\023}\212\322\252\370"
 1383      0FEB1F9C 
 1383      8D137D8A 
ARM GAS  /tmp/ccdCD3ac.s 			page 41


 1383      D2AAF8
 1384 014f 72620954 		.ascii	"rb\011T\001\034\000\002_\001\316\254\0068\014p\010\020"
 1384      011C0002 
 1384      5F01CEAC 
 1384      06380C70 
 1384      0810
 1385 0161 76E4C585 		.ascii	"v\344\305\205v\263\215\303J\375&\250\001\015H\340(\336"
 1385      76B38DC3 
 1385      4AFD26A8 
 1385      010D48E0 
 1385      28DE
 1386 0173 1050D85E 		.ascii	"\020P\330^\275\217\262r\301\001\310\306\201\222\345"
 1386      BD8FB272 
 1386      C101C8C6 
 1386      8192E5
 1387 0182 DD79221F 		.ascii	"\335y\"\037\230\016\307\200\033G\271\241\211x\177\033"
 1387      980EC780 
 1387      1B47B9A1 
 1387      89787F1B 
 1388 0192 5E037FB0 		.ascii	"^\003\177\260\251\0077??!Z\221\273y\321m\037j\217\202"
 1388      A907373F 
 1388      3F215A91 
 1388      BB79D16D 
 1388      1F6A8F82 
 1389 01a6 1138AB1E 		.ascii	"\0218\253\036\230~\035@-\010\177f\260\355{\253r\343"
 1389      987E1D40 
 1389      2D087F66 
 1389      B0ED7BAB 
 1389      72E3
 1390 01b8 FBC0E004 		.ascii	"\373\300\340\004\030\201\210:\236\177x.\014B_\037*J"
 1390      1881883A 
 1390      9E7F782E 
 1390      0C425F1F 
 1390      2A4A
 1391 01ca 129C04F0 		.ascii	"\022\234\004\360\003\034gv\006p\212O\265\365\305\355"
 1391      031C6776 
 1391      06708A4F 
 1391      B5F5C5ED 
 1392 01da 47DB45DD 		.ascii	"G\333E\335\231\200\356\314)\320b\232(d\022\341\357\014"
 1392      9980EECC 
 1392      29D0629A 
 1392      286412E1 
 1392      EF0C
 1393 01ec BCBA7461 		.ascii	"\274\272ta\007D\006\350l\237\000\335+Z\335f\341\356"
 1393      074406E8 
 1393      6C9F00DD 
 1393      2B5ADD66 
 1393      E1EE
 1394 01fe 9E53FDF7 		.ascii	"\236S\375\367\255\310\277\021\257\371\177\236!\026\257"
 1394      ADC8BF11 
 1394      AFF97F9E 
 1394      2116AF
 1395 020d BC57161B 		.ascii	"\274W\026\033\315\262\006\244\273\240Z\266-w\355\206"
 1395      CDB206A4 
 1395      BBA05AB6 
 1395      2D77ED86 
 1396 021d 78DDB206 		.ascii	"x\335\262\006\335\262\213x\023\012x\274\036\364\344"
ARM GAS  /tmp/ccdCD3ac.s 			page 42


 1396      DDB28B78 
 1396      130A78BC 
 1396      1EF4E4
 1397 022c B42468CC 		.ascii	"\264$h\314Li\363\231\225[\343\242\0217\"\361e\225xc"
 1397      4C69F399 
 1397      955BE3A2 
 1397      113722F1 
 1397      65957863 
 1398 0240 D99AED31 		.ascii	"\331\232\3551:q\243N\374u\320e\253\260\001k\245\234"
 1398      3A71A34E 
 1398      FC75D065 
 1398      ABB0016B 
 1398      A59C
 1399 0252 4BDC2DD8 		.ascii	"K\334-\330}7\2019\335\354\363\317\025\264X_\005L\230"
 1399      7D378139 
 1399      DDECF3CF 
 1399      15B4585F 
 1399      054C98
 1400 0265 21D4B70A 		.ascii	"!\324\267\012\352\214a\274\246s^WE\367<>Va\345\206^"
 1400      EA8C61BC 
 1400      A6735E57 
 1400      45F73C3E 
 1400      5661E586 
 1401 027a C798A0C8 		.ascii	"\307\230\240\310\347\241\262\374\034\245*\271\324\212"
 1401      E7A1B2FC 
 1401      1CA52AB9 
 1401      D48A
 1402 0288 8EEE8039 		.ascii	"\216\356\20092\276\337\000bP\354&\300\015&\326V\266"
 1402      32BEDF00 
 1402      6250EC26 
 1402      C00D26D6 
 1402      56B6
 1403 029a BF52E05C 		.ascii	"\277R\340\\\267\000\232@\250\342\223\257\036^\333\026"
 1403      B7009A40 
 1403      A8E293AF 
 1403      1E5EDB16 
 1404 02aa 2539DFF6 		.ascii	"%9\337\366IN\321\235\306\3428>\371\016\300m6\322u\276"
 1404      494ED19D 
 1404      C6E2383E 
 1404      F90EC06D 
 1404      36D275BE 
 1405 02be 7749B03A 		.ascii	"wI\260:\357\262\201\225\013\316\366\232\243\005\361"
 1405      EFB28195 
 1405      0BCEF69A 
 1405      A305F1
 1406 02cd 1EF2FD4B 		.ascii	"\036\362\375K\365\347Uc\335\223~\272\303\367t\207\357"
 1406      F5E75563 
 1406      DD937EBA 
 1406      C3F77487 
 1406      EF
 1407 02de B3ECD471 		.ascii	"\263\354\324q\223\316\236X\032\340&5+o\016]g\335\326"
 1407      93CE9E58 
 1407      1AE02635 
 1407      2B6F0E5D 
 1407      67DDD6
 1408 02f1 AD06A666 		.ascii	"\255\006\246f\235\351\201*\265pW\311*\265\234\036\250"
 1408      9DE9812A 
ARM GAS  /tmp/ccdCD3ac.s 			page 43


 1408      B57057C9 
 1408      2AB59C1E 
 1408      A8
 1409 0302 E574CDB7 		.ascii	"\345t\315\267~KB\320\377\357\031\307\376\336\312s!\247"
 1409      7E4B42D0 
 1409      FFEF19C7 
 1409      FEDECA73 
 1409      21A7
 1410 0314 5AD848FB 		.ascii	"Z\330H\373\323\233W\203N=d\003=\007^T\331\2429\365\030"
 1410      D39B5783 
 1410      4E3D6403 
 1410      3D075E54 
 1410      D9A239F5 
 1411 0329 9D7AA42A 		.ascii	"\235z\244*\275,;\2721V7\345\261n\312\023\346\324\251"
 1411      BD2C3BBA 
 1411      315637E5 
 1411      B16ECA13 
 1411      E6D4A9
 1412 033c A825D794 		.ascii	"\250%\327\224\273\267\000\006\250\213\212O]P\240\235"
 1412      BBB70006 
 1412      A88B8A4F 
 1412      5D50A09D 
 1413 034c 7D876CDD 		.ascii	"}\207l\335\276\312\247\370\273\033\233\005\016\361i"
 1413      BECAA7F8 
 1413      BB1B9B05 
 1413      0EF169
 1414 035b 10E88010 		.ascii	"\020\350\200\020\010\001\265\317V\347\011\272p\247."
 1414      0801B5CF 
 1414      56E709BA 
 1414      70A72E
 1415 036a FC548B41 		.ascii	"\374T\213A\373\023)d\374S\335\370.4\276M\205\234j\337"
 1415      FB132964 
 1415      FC53DDF8 
 1415      2E34BE4D 
 1415      859C6ADF 
 1416 037e 3B5CA7E8 		.ascii	";\\\247\350\322)\272\231\355-Xd\317A\255\356d\276\366"
 1416      D229BA99 
 1416      ED2D5864 
 1416      CF41ADEE 
 1416      64BEF6
 1417 0391 28545844 		.ascii	"(TXDqb\3776\177\343\015\313;\354\032\200\015\031z\232"
 1417      7162FF36 
 1417      7FE30DCB 
 1417      3BEC1A80 
 1417      0D197A9A 
 1418 03a5 2ED5970D 		.ascii	".\325\227\015\335\177HQ\026\277\205\037\033\274\000"
 1418      DD7F4851 
 1418      16BF851F 
 1418      1BBC00
 1419 03b4 98474374 		.ascii	"\230GCt_\262\033\226\034\002\013\327+>\223\031W\012"
 1419      5FB21B96 
 1419      1C020BD7 
 1419      2B3E9319 
 1419      570A
 1420 03c6 38180919 		.ascii	"8\030\011\031i@|\015p)\014q\272/\0023\331\023\206H\355"
 1420      69407C0D 
 1420      70290C71 
ARM GAS  /tmp/ccdCD3ac.s 			page 44


 1420      BA2F0233 
 1420      D9138648 
 1421 03db 03B80FF0 		.ascii	"\003\270\017\360\3170\300\025\315\016\214J\016\006\326"
 1421      CF30C015 
 1421      CD0E8C4A 
 1421      0E06D6
 1422 03ea 44E03940 		.ascii	"D\3409@/\306\343\031\207a\205)\024r(\344R\230Kq\215"
 1422      2FC6E319 
 1422      87618529 
 1422      147228E4 
 1422      52984B71 
 1423 03ff 85F9145E 		.ascii	"\205\371\024^\001\274d!\327i\321\2753\221\226\205\271"
 1423      01BC6421 
 1423      D769D1BD 
 1423      33919685 
 1423      B9
 1424 0410 D70DD01A 		.ascii	"\327\015\320\032aZ\030\342\011\300w\221\266\215dY\311"
 1424      615A18E2 
 1424      09C07791 
 1424      B68D6459 
 1424      C9
 1425 0421 BBE6CFEF 		.ascii	"\273\346\317\357\307R\237\343\373\037md\253J\240\243"
 1425      C7529FE3 
 1425      FB1F6D64 
 1425      AB4AA0A3 
 1426 0431 9EEA395D 		.ascii	"\236\3529]\240\013,\244\034P\371\252\375\214\001\260"
 1426      A00B2CA4 
 1426      1C50F9AA 
 1426      FD8C01B0 
 1427 0441 5007606A 		.ascii	"P\007`j\211\320\312\362K\327m\363w\305\207\025(\223"
 1427      89D0CAF2 
 1427      4BD76DF3 
 1427      77C58715 
 1427      2893
 1428 0453 CFA3A1EA 		.ascii	"\317\243\241\352[]z$\237\206\227g8\240\370\351\243i"
 1428      5B5D7A24 
 1428      9F869767 
 1428      38A0F8E9 
 1428      A369
 1429 0465 BA4ABEAE 		.ascii	"\272J\276\256\262\204\362\0053\011|D\350\244o\336\300"
 1429      B284F205 
 1429      33097C44 
 1429      E8A46FDE 
 1429      C0
 1430 0476 96517D03 		.ascii	"\226Q}\003\353\345\270\226s\273kl}w\260BjD\256\023\314"
 1430      EBE5B896 
 1430      73BB6B6C 
 1430      7D77B042 
 1430      6A44AE13 
 1431 048b E5450515 		.ascii	"\345E\005\025\200u\211\270=\201\223\013\224\304\271"
 1431      807589B8 
 1431      3D81930B 
 1431      94C4B9
 1432 049a 36584EA1 		.ascii	"6XN\241\200\302*\252Q\353\311h=vrY|\341\\\001\255\202"
 1432      80C22AAA 
 1432      51EBC968 
 1432      3D767259 
ARM GAS  /tmp/ccdCD3ac.s 			page 45


 1432      7CE15C01 
 1433 04b0 C51C115E 		.ascii	"\305\034\021^Kz\241,\245j\206Vq\261\225\024V\260\303"
 1433      4B7AA12C 
 1433      A56A8656 
 1433      71B19514 
 1433      56B0C3
 1434 04c3 96B04860 		.ascii	"\226\260H`\226U\225/n\020\007\364\005\303j\332\007\216"
 1434      9655952F 
 1434      6E1007F4 
 1434      05C36ADA 
 1434      078E
 1435 04d5 D0E5E56B 		.ascii	"\320\345\345k\036\032N\002E\272\342\027j~v\334\255\276"
 1435      1E1A4E02 
 1435      45BAE217 
 1435      6A7E76DC 
 1435      ADBE
 1436 04e7 69C35593 		.ascii	"i\303U\223\341M.\000\270:\006o\"\371\223@\222\024\252"
 1436      E14D2E00 
 1436      B83A066F 
 1436      22F99340 
 1436      9214AA
 1437 04fa 50B34BA0 		.ascii	"P\263K\240\242 \012.1\000\203S:\205\261V\232\222 Z\267"
 1437      A2200A2E 
 1437      31008353 
 1437      3A85B156 
 1437      9A92205A 
 1438 050f D542A218 		.ascii	"\325B\242\030c\245\264\331\342\022Sza'-5'\217UL\256"
 1438      63A5B4D9 
 1438      E212537A 
 1438      61272D35 
 1438      278F554C 
 1439 0524 25039B2D 		.ascii	"%\003\233-\012-\234\2304j,\336\233-\001p\341\254I&k"
 1439      0A2D9C98 
 1439      346A2CDE 
 1439      9B2D0170 
 1439      E1AC4926 
 1440 0539 22F69A2D 		.ascii	"\"\366\232-b\247P\272\324\354:G\027\015\305\235\\t\245"
 1440      62A750BA 
 1440      D4EC3A47 
 1440      170DC59D 
 1440      5C74A5
 1441 054c 25A11B63 		.ascii	"%\241\033c\255\326\301\011~\301/\214\307s\255uO\345"
 1441      ADD6C109 
 1441      7EC12F8C 
 1441      C773AD75 
 1441      4FE5
 1442 055e 40B1D992 		.ascii	"@\261\331\222\200\024)\256\344DWrB\000b\\.1)\205\240"
 1442      801429AE 
 1442      E4445772 
 1442      4200625C 
 1442      2E312985 
 1443 0573 11AEB4B4 		.ascii	"\021\256\264\264\261TDf\2235\000i\002\330\322\224o["
 1443      B1544466 
 1443      93350069 
 1443      02D8D294 
 1443      6F5B
 1444 0585 06893162 		.ascii	"\006\2111b\354\340d<\256\272\310x\212\274\302\353\340"
ARM GAS  /tmp/ccdCD3ac.s 			page 46


 1444      ECE0643C 
 1444      AEBAC878 
 1444      8ABCC2EB 
 1444      E0
 1445 0596 0516D474 		.ascii	"\005\026\324t\351\257\000)\"M\243\302\204f\013\236_"
 1445      E9AF0029 
 1445      224DA3C2 
 1445      84660B9E 
 1445      5F
 1446 05a7 6932218A 		.ascii	"i2!\212\311j\263\201\202\217X\373\004\327\2444\2214"
 1446      C96AB381 
 1446      828F58FB 
 1446      04D7A434 
 1446      9134
 1447 05b9 5B28FE94 		.ascii	"[(\376\224db\225\257\317\024\315\004`{\034\306\231\377"
 1447      646295AF 
 1447      CF14CD04 
 1447      607B1CC6 
 1447      99FF
 1448 05cb 6337D06E 		.ascii	"c7\320n\300^\265szP\206\217\263:\245\032\232A\324\321"
 1448      C05EB573 
 1448      7A50868F 
 1448      B33AA51A 
 1448      9A41D4D1 
 1449 05df D043EB33 		.ascii	"\320C\3533\000\325x\250vT\004u\216&\302\356\006\362"
 1449      00D578A8 
 1449      76540475 
 1449      8E26C2EE 
 1449      06F2
 1450 05f1 10043448 		.ascii	"\020\0044H\220G\235\243\001Bs\265.\323\340`j\234\303"
 1450      90479DA3 
 1450      014273B5 
 1450      2ED3E060 
 1450      6A9CC3
 1451 0604 E78519AE 		.ascii	"\347\205\031\256S\222\020m\320$\242\276\260\223\333"
 1451      5392106D 
 1451      D024A2BE 
 1451      B093DB
 1452 0613 CAA68531 		.ascii	"\312\246\2051\3671n\312\241\252@\034\014,\034K@\330"
 1452      F7316ECA 
 1452      A1AA401C 
 1452      0C2C1C4B 
 1452      40D8
 1453 0625 C1CB33DA 		.ascii	"\301\3133\332v\263N\377T\253[\226\267\322\360\217\035"
 1453      76B34EFF 
 1453      54AB5B96 
 1453      B7D2F08F 
 1453      1D
 1454 0636 2BD700B8 		.ascii	"+\327\000\270r\274\267\323p\372Y\257\327l\211Z\263\367"
 1454      72BCB7D3 
 1454      70FA59AF 
 1454      D76C895A 
 1454      B3F7
 1455 0648 2E97B4F5 		.ascii	".\227\264\365\343\373[\011\345\033\334\213\362g;L\321"
 1455      E3FB5B09 
 1455      E51BDC8B 
 1455      F2673B4C 
ARM GAS  /tmp/ccdCD3ac.s 			page 47


 1455      D1
 1456 0659 76CE8DE8 		.ascii	"v\316\215\350\353\006u\322\246\363G\312\343\207\024"
 1456      EB0675D2 
 1456      A6F347CA 
 1456      E38714
 1457 0668 172B3D9D 		.ascii	"\027+=\235\353\236\377\032W\305y\2107!\002\326j\322"
 1457      EB9EFF1A 
 1457      57C57988 
 1457      372102D6 
 1457      6AD2
 1458 067a 047B04D6 		.ascii	"\004{\004\326P(\246\037tY\205\273\334\231\210\223\342"
 1458      5028A61F 
 1458      745985BB 
 1458      DC998893 
 1458      E2
 1459 068b DEBD158D 		.ascii	"\336\275\025\215bP|3e;\337\201[\356\220\370\035]|+\262"
 1459      62507C33 
 1459      653BDF81 
 1459      5BEE90F8 
 1459      1D5D7C2B 
 1460 06a0 6D51C56F 		.ascii	"mQ\305o\275^\235\027\313\304[w\316\317\213o`\256\003"
 1460      BD5E9D17 
 1460      CBC45B77 
 1460      CECF8B6F 
 1460      60AE03
 1461 06b3 FE0E9B42 		.ascii	"\376\016\233B\322\233B\322_X\205\236\037 \375\017&\375"
 1461      D29B42D2 
 1461      5F58859E 
 1461      1F20FD0F 
 1461      26FD
 1462 06c5 F2C9B1D3 		.ascii	"\362\311\261\323\326\220v\215\256]\201t\333T\355k]y"
 1462      D690768D 
 1462      AE5D8174 
 1462      DB54ED6B 
 1462      5D79
 1463 06d7 05DCF1D6 		.ascii	"\005\334\361\326\233\265\013\202\332\025\024\312C\332"
 1463      9BB50B82 
 1463      DA1514CA 
 1463      43DA
 1464 06e5 E521ED7D 		.ascii	"\345!\355}\026!\337D\204\"\023\233x>\340\353\212\217"
 1464      1621DF44 
 1464      8422139B 
 1464      783EE0EB 
 1464      8A8F
 1465 06f7 3CAEEDA4 		.ascii	"<\256\355\244\341\307\265\313\273\273\256\251\347\306"
 1465      E1C7B5CB 
 1465      BBBBAEA9 
 1465      E7C6
 1466 0705 5D6A366E 		.ascii	"]j6n5u\256\351\0272*#d\323n\224\251Tm\332\322\270\254"
 1466      3575AEE9 
 1466      17322A23 
 1466      64D36E94 
 1466      A9546DDA 
 1467 071c D134A418 		.ascii	"\3214\244\0307\362\342\273\015\257\223\217\317/M\301"
 1467      37F2E2BB 
 1467      0DAF938F 
 1467      CF2F4DC1 
ARM GAS  /tmp/ccdCD3ac.s 			page 48


 1468 072c 9F6147C8 		.ascii	"\237aG\310\244\035T\253\263\272\322\313v^\013\276(\207"
 1468      A41D54AB 
 1468      B3BAD2CB 
 1468      765E0BBE 
 1468      2887
 1469 073e 7F6664ED 		.ascii	"\177fd\3557\217\014\347\222\335z\261\354c\373K\203\211"
 1469      378F0CE7 
 1469      92DD7AB1 
 1469      EC63FB4B 
 1469      8389
 1470 0750 0C29C49C 		.ascii	"\014)\304\234\027~w\273\303\274\023\317\013\271\212"
 1470      177E77BB 
 1470      C3BC13CF 
 1470      0BB98A
 1471 075f 322F96D9 		.ascii	"2/\226\331\002\373518\300\372\301\010\354\212\025\226"
 1471      02FB3531 
 1471      38C0FAC1 
 1471      08EC8A15 
 1471      96
 1472 0770 C4106115 		.ascii	"\304\020a\025\266M1o\252\346C\332T\241\202Cvm\012\370"
 1472      B64D316F 
 1472      AAE643DA 
 1472      54A18243 
 1472      766D0AF8 
 1473 0784 217C773A 		.ascii	"!|w:LC \004,\353\271\350\217\323\215<\242\033Y\315\214"
 1473      4C432004 
 1473      2CEBB9E8 
 1473      8FD38D3C 
 1473      A21B59CD 
 1474 0799 AC45B18B 		.ascii	"\254E\261\213\330\232b\324\323\317\333|\303\272\015"
 1474      D89A62D4 
 1474      D3CFDB7C 
 1474      C3BA0D
 1475 07a8 C27D469F 		.ascii	"\302}F\237\330\276\2543\317\374\216z\261}\246\247\250"
 1475      D8BEAC33 
 1475      CFFC8E7A 
 1475      B17DA6A7 
 1475      A8
 1476 07b9 E87C7D3C 		.ascii	"\350|}<Vp\216\215\2357\253(\234\212z8h\275^V\300w\033"
 1476      56708E8D 
 1476      9D37AB28 
 1476      9C8A7A38 
 1476      68BD5E56 
 1477 07d0 AC8BE361 		.ascii	"\254\213\343a \375\364\323Z\235\273\222c\252)\034\014"
 1477      20FDF4D3 
 1477      5A9DBB92 
 1477      63AA291C 
 1477      0C
 1478 07e1 C35C3110 		.ascii	"\303\\1\020\235\322\211\276\214T\343D{*r\027*\211h\021"
 1478      9DD289BE 
 1478      8C54E344 
 1478      7B2A7217 
 1478      2A896811 
 1479 07f5 626AC230 		.ascii	"bj\3020\372\366\267g\227\206\301z\376*RL\345)\321y\216"
 1479      FAF6B767 
 1479      9786C17A 
 1479      FE2A524C 
ARM GAS  /tmp/ccdCD3ac.s 			page 49


 1479      E529D179 
 1480 080a 46F018B7 		.ascii	"F\360\030\267H\037\205c\224\025\002\337\363\002\024"
 1480      481F8563 
 1480      941502DF 
 1480      F30214
 1481 0819 4E503849 		.ascii	"NP8I\241\216B=\005?\205Zm\013\254\251+\353\000\303\371"
 1481      A18E423D 
 1481      053F855A 
 1481      6D0BACA9 
 1481      2BEB00C3 
 1482 082e 469DC78E 		.ascii	"F\235\307\216\267\377m\346\301\227\225\355\026=m\247"
 1482      B7FF6DE6 
 1482      C19795ED 
 1482      163D6DA7 
 1483 083e 755BCEB0 		.ascii	"u[\316\260\264\265\260\354\230\313\353\313\256\330\264"
 1483      B4B5B0EC 
 1483      98CBEBCB 
 1483      AED8B4
 1484 084d 0340BE6E 		.ascii	"\003@\276n;\006\374B\324\030\274\236\257bp\2418\033"
 1484      3B06FC42 
 1484      D418BC9E 
 1484      AF6270A1 
 1484      381B
 1485 085f 81897604 		.ascii	"\201\211v\004\270\300\255<O\341\234f\326\265\366\300"
 1485      B8C0AD3C 
 1485      4FE19C66 
 1485      D6B5F6C0 
 1486 086f 67067FB4 		.ascii	"g\006\177\264\335\3770\215D\356\256\337\230k\3708\032"
 1486      DDFF308D 
 1486      44EEAEDF 
 1486      986BF838 
 1486      1A
 1487 0880 74B18BEA 		.ascii	"t\261\213\352wx\242;w\261I\377\274\372\034\311\021\260"
 1487      7778A23B 
 1487      77B149FF 
 1487      BCFA1CC9 
 1487      11B0
 1488 0892 2A6FD37D 		.ascii	"*o\323}\003 \222a\347\367O\347S\276H\370\376\323\337"
 1488      03209261 
 1488      E7F74FE7 
 1488      53BE48F8 
 1488      FED3DF
 1489 08a5 749D2F2E 		.ascii	"t\235/.\355\023\"aa\377qA\372\375e\226\344\231c\227"
 1489      ED132261 
 1489      61FF7141 
 1489      FAFD6596 
 1489      E4996397 
 1490 08b9 3C0EAF34 		.ascii	"<\016\2574tx\352\270\014\367T\367\247\351\366\264\021"
 1490      7478EAB8 
 1490      0CF754F7 
 1490      A7E9F6B4 
 1490      11
 1491 08ca C3470D1F 		.ascii	"\303G\015\037\221\232\355M\315pd\246z=N\366\264O\313"
 1491      919AED4D 
 1491      CD7064A6 
 1491      7A3D4EF6 
 1491      B44FCB
ARM GAS  /tmp/ccdCD3ac.s 			page 50


 1492 08dd 74783386 		.ascii	"tx3\206;\255\037O\234\222<n\344\373d\240ap\270s\352"
 1492      3BAD1F4F 
 1492      9C923C6E 
 1492      E4FB64A0 
 1492      6170B873 
 1493 08f2 B45F8D19 		.ascii	"\264_\215\031%I\304:\313=C\036\225f\227\343\370O\310"
 1493      2549C43A 
 1493      CB3D431E 
 1493      956697E3 
 1493      F84FC8
 1494 0905 EDC9F6D8 		.ascii	"\355\311\366\330\345\376^\331\341\221U%\273Wr\312\331"
 1494      E5FE5ED9 
 1494      E1915525 
 1494      BB5772CA 
 1494      D9
 1495 0916 9E7815A0 		.ascii	"\236x\025\240\276\330\345\004#\302\221\231i\231\351"
 1495      BED8E504 
 1495      23C29199 
 1495      6999E9
 1496 0925 C99EEE71 		.ascii	"\311\236\356qdY\030\341/\355\262\331\353\376\233d\227"
 1496      645918E1 
 1496      2FEDB2D9 
 1496      EBFE9B64 
 1496      97
 1497 0936 B559D9D3 		.ascii	"\265Y\331\323\246y%\331.\233<\222\303\025?\035\273."
 1497      A67925D9 
 1497      2E9B3C92 
 1497      C3153F1D 
 1497      BB2E
 1498 0948 C9EBF4B8 		.ascii	"\311\353\364\270g\"W\177\025\242\017 \271{\006\322\317"
 1498      6722577F 
 1498      15A20F20 
 1498      B97B06D2 
 1498      CF
 1499 0959 704ADA44 		.ascii	"pJ\332D\333oQe<\203\375\361\223\311\266\331\222\307"
 1499      DB6F5165 
 1499      3C83FDF1 
 1499      93C9B6D9 
 1499      92C7
 1500 096b 3D4D0BC3 		.ascii	"=M\013\303\260\324\214\354,)\325\355\310\232\351q\313"
 1500      B0D48CEC 
 1500      2C29D5ED 
 1500      C89AE971 
 1500      CB
 1501 097c 19B3DDDE 		.ascii	"\031\263\335\336\014I\226\347\244\216\3730}\246\303"
 1501      0C4996E7 
 1501      A48EFB30 
 1501      7DA6C3
 1502 098b 29A56665 		.ascii	")\245fe9G\215\0369\306.K^9\215\374\342MAs\317pf\316"
 1502      39478D1E 
 1502      39C62E4B 
 1502      5E398DFC 
 1502      E24D4173 
 1503 09a3 724986C0 		.ascii	"rI\206\300e\020av\226\034\203f\310\222\026\033\336\267"
 1503      65106176 
 1503      961C8366 
 1503      C892161B 
ARM GAS  /tmp/ccdCD3ac.s 			page 51


 1503      DEB7
 1504 09b5 CBB12163 		.ascii	"\313\261!c\204\221cH\254\303\2235\373}iX\026\021\235"
 1504      84916348 
 1504      ACC39335 
 1504      FB7D6958 
 1504      16119D
 1505 09c8 D91E59FA 		.ascii	"\331\036Y\372\353\260\254\321D\365\3723\207[\376\210"
 1505      EBB0ACD1 
 1505      44F5FA33 
 1505      875BFE88 
 1506 09d8 1999F203 		.ascii	"\031\231\362\003sE\222x\347cIN\347Q\376\224;\337?|0"
 1506      73459278 
 1506      E763494E 
 1506      E751FE94 
 1506      3BDF3F7C 
 1507 09ed 1DE32A3A 		.ascii	"\035\343*:3&g\270\3223%if\234w\216\027#.yf#\217\374"
 1507      332667B8 
 1507      D2332569 
 1507      669C778E 
 1507      17232E79 
 1508 0a05 F3684A1E 		.ascii	"\363hJ\0369\344\2373C\316`)\360\242\177\011\331^G\346"
 1508      39E49F33 
 1508      43CE6029 
 1508      F0A27F09 
 1508      D95E47E6 
 1509 0a19 64FECA99 		.ascii	"d\376\312\231\242\316eV2\034\222\014\233\341V\3738\327"
 1509      A2CE6556 
 1509      321C920C 
 1509      9BE156FB 
 1509      38D7
 1510 0a2b E270B93C 		.ascii	"\342p\271<\222\327kS\313\301kg\331\266h/?\011\253\024"
 1510      92D76B53 
 1510      CBC16B67 
 1510      D9B6682F 
 1510      3F09AB14 
 1511 0a3f 635EE382 		.ascii	"c^\343\202pg\366\254\031r\354L\307t\211\317\024\035"
 1511      7067F6AC 
 1511      1972EC4C 
 1511      C77489CF 
 1511      141D
 1512 0a51 B2EC714F 		.ascii	"\262\354qO\235\205Y2\261w\263\232\366\177\003\023\326"
 1512      9D855932 
 1512      B177B39A 
 1512      F67F0313 
 1512      D6
 1513 0a62 1D69     		.ascii	"\035i"
 1514              		.text
 1515              		.section	.gnu.lto_.symtab.8c6fe6c4decf47f1,"e",%progbits
 1516 0000 666C6173 		.ascii	"flashWaitErase\000"
 1516      68576169 
 1516      74457261 
 1516      736500
 1517 000f 00       		.ascii	"\000"
 1518 0010 00       		.ascii	"\000"
 1519 0011 00       		.ascii	"\000"
 1520 0012 00000000 		.ascii	"\000\000\000\000\000\000\000\000"
 1520      00000000 
ARM GAS  /tmp/ccdCD3ac.s 			page 52


 1521 001a 20010000 		.ascii	" \001\000\000"
 1522 001e 666C6173 		.ascii	"flashGetSectorOffset\000"
 1522      68476574 
 1522      53656374 
 1522      6F724F66 
 1522      66736574 
 1523 0033 00       		.ascii	"\000"
 1524 0034 00       		.ascii	"\000"
 1525 0035 00       		.ascii	"\000"
 1526 0036 00000000 		.ascii	"\000\000\000\000\000\000\000\000"
 1526      00000000 
 1527 003e 25010000 		.ascii	"%\001\000\000"
 1528 0042 666C6173 		.ascii	"flashGetSectorSize\000"
 1528      68476574 
 1528      53656374 
 1528      6F725369 
 1528      7A6500
 1529 0055 00       		.ascii	"\000"
 1530 0056 00       		.ascii	"\000"
 1531 0057 00       		.ascii	"\000"
 1532 0058 00000000 		.ascii	"\000\000\000\000\000\000\000\000"
 1532      00000000 
 1533 0060 2A010000 		.ascii	"*\001\000\000"
 1534 0064 63685468 		.ascii	"chThdSleep\000"
 1534      64536C65 
 1534      657000
 1535 006f 00       		.ascii	"\000"
 1536 0070 02       		.ascii	"\002"
 1537 0071 00       		.ascii	"\000"
 1538 0072 00000000 		.ascii	"\000\000\000\000\000\000\000\000"
 1538      00000000 
 1539 007a 30010000 		.ascii	"0\001\000\000"
 1540              		.text
 1541              		.section	.gnu.lto_.ext_symtab.8c6fe6c4decf47f1,"e",%progbits
 1542 0000 01       		.ascii	"\001"
 1543 0001 01       		.ascii	"\001"
 1544 0002 00       		.ascii	"\000"
 1545 0003 01       		.ascii	"\001"
 1546 0004 00       		.ascii	"\000"
 1547 0005 01       		.ascii	"\001"
 1548 0006 00       		.ascii	"\000"
 1549 0007 01       		.ascii	"\001"
 1550 0008 00       		.ascii	"\000"
 1551              		.text
 1552              		.section	.gnu.lto_.opts,"e",%progbits
 1553 0000 272D666E 		.ascii	"'-fno-openmp' '-fno-openacc' '-fno-pie' '-fcf-prote"
 1553      6F2D6F70 
 1553      656E6D70 
 1553      2720272D 
 1553      666E6F2D 
 1554 0033 6374696F 		.ascii	"ction=none' '-g' '-mcpu=cortex-m4' '-mthumb' '-mflo"
 1554      6E3D6E6F 
 1554      6E652720 
 1554      272D6727 
 1554      20272D6D 
 1555 0066 61742D61 		.ascii	"at-abi=soft' '-march=armv7e-m' '-O2' '-fomit-frame-"
 1555      62693D73 
ARM GAS  /tmp/ccdCD3ac.s 			page 53


 1555      6F667427 
 1555      20272D6D 
 1555      61726368 
 1556 0099 706F696E 		.ascii	"pointer' '-falign-functions=16' '-ffunction-section"
 1556      74657227 
 1556      20272D66 
 1556      616C6967 
 1556      6E2D6675 
 1557 00cc 73272027 		.ascii	"s' '-fdata-sections' '-fno-common' '-flto' '-Xassem"
 1557      2D666461 
 1557      74612D73 
 1557      65637469 
 1557      6F6E7327 
 1558 00ff 626C6572 		.ascii	"bler' '-alms=./build/lst/hal_flash.lst'\000"
 1558      2720272D 
 1558      616C6D73 
 1558      3D2E2F62 
 1558      75696C64 
 1559              		.text
 1560              		.comm	__gnu_lto_slim,1,1
 1561              		.ident	"GCC: (GNU Arm Embedded Toolchain 10-2020-q4-major) 10.2.1 20201103 (release)"
ARM GAS  /tmp/ccdCD3ac.s 			page 54


DEFINED SYMBOLS
                            *ABS*:0000000000000000 hal_flash.c
     /tmp/ccdCD3ac.s:23     .gnu.debuglto_.debug_info:0000000000000000 hal_flash.c.cbf963ee
                            *COM*:0000000000000001 __gnu_lto_slim

NO UNDEFINED SYMBOLS
