ARM GAS  /tmp/ccA6iVVD.s 			page 1


   1              		.cpu cortex-m4
   2              		.eabi_attribute 20, 1
   3              		.eabi_attribute 21, 1
   4              		.eabi_attribute 23, 3
   5              		.eabi_attribute 24, 1
   6              		.eabi_attribute 25, 1
   7              		.eabi_attribute 26, 1
   8              		.eabi_attribute 30, 2
   9              		.eabi_attribute 34, 1
  10              		.eabi_attribute 18, 4
  11              		.file	"hal_mmcsd.c"
  12              		.section	.gnu.debuglto_.debug_info,"e",%progbits
  13              	.Ldebug_info0:
  14              		.hidden	hal_mmcsd.c.a6a49352
  15              		.weak	hal_mmcsd.c.a6a49352
  16              	hal_mmcsd.c.a6a49352:
  17 0000 75000000 		.4byte	0x75
  18 0004 0400     		.2byte	0x4
  19 0006 00000000 		.4byte	.Ldebug_abbrev0
  20 000a 04       		.byte	0x4
  21 000b 01       		.uleb128 0x1
  22 000c 8D000000 		.4byte	.LASF12
  23 0010 0C       		.byte	0xc
  24 0011 77010000 		.4byte	.LASF13
  25 0015 0E000000 		.4byte	.LASF14
  26 0019 00000000 		.4byte	.Ldebug_line0
  27 001d 02       		.uleb128 0x2
  28 001e 04       		.byte	0x4
  29 001f 05       		.byte	0x5
  30 0020 696E7400 		.ascii	"int\000"
  31 0024 03       		.uleb128 0x3
  32 0025 04       		.byte	0x4
  33 0026 07       		.byte	0x7
  34 0027 3B000000 		.4byte	.LASF0
  35 002b 03       		.uleb128 0x3
  36 002c 08       		.byte	0x8
  37 002d 05       		.byte	0x5
  38 002e 00000000 		.4byte	.LASF1
  39 0032 03       		.uleb128 0x3
  40 0033 08       		.byte	0x8
  41 0034 04       		.byte	0x4
  42 0035 9F010000 		.4byte	.LASF2
  43 0039 03       		.uleb128 0x3
  44 003a 01       		.byte	0x1
  45 003b 06       		.byte	0x6
  46 003c 6B010000 		.4byte	.LASF3
  47 0040 03       		.uleb128 0x3
  48 0041 01       		.byte	0x1
  49 0042 08       		.byte	0x8
  50 0043 71000000 		.4byte	.LASF4
  51 0047 03       		.uleb128 0x3
  52 0048 02       		.byte	0x2
  53 0049 05       		.byte	0x5
  54 004a AB010000 		.4byte	.LASF5
  55 004e 03       		.uleb128 0x3
  56 004f 02       		.byte	0x2
  57 0050 07       		.byte	0x7
ARM GAS  /tmp/ccA6iVVD.s 			page 2


  58 0051 58010000 		.4byte	.LASF6
  59 0055 03       		.uleb128 0x3
  60 0056 04       		.byte	0x4
  61 0057 05       		.byte	0x5
  62 0058 84000000 		.4byte	.LASF7
  63 005c 03       		.uleb128 0x3
  64 005d 04       		.byte	0x4
  65 005e 07       		.byte	0x7
  66 005f 48000000 		.4byte	.LASF8
  67 0063 03       		.uleb128 0x3
  68 0064 08       		.byte	0x8
  69 0065 07       		.byte	0x7
  70 0066 5A000000 		.4byte	.LASF9
  71 006a 03       		.uleb128 0x3
  72 006b 01       		.byte	0x1
  73 006c 08       		.byte	0x8
  74 006d 7F000000 		.4byte	.LASF10
  75 0071 03       		.uleb128 0x3
  76 0072 01       		.byte	0x1
  77 0073 02       		.byte	0x2
  78 0074 52010000 		.4byte	.LASF11
  79 0078 00       		.byte	0
  80              		.section	.gnu.debuglto_.debug_abbrev,"e",%progbits
  81              	.Ldebug_abbrev0:
  82 0000 01       		.uleb128 0x1
  83 0001 11       		.uleb128 0x11
  84 0002 01       		.byte	0x1
  85 0003 25       		.uleb128 0x25
  86 0004 0E       		.uleb128 0xe
  87 0005 13       		.uleb128 0x13
  88 0006 0B       		.uleb128 0xb
  89 0007 03       		.uleb128 0x3
  90 0008 0E       		.uleb128 0xe
  91 0009 1B       		.uleb128 0x1b
  92 000a 0E       		.uleb128 0xe
  93 000b 10       		.uleb128 0x10
  94 000c 17       		.uleb128 0x17
  95 000d 00       		.byte	0
  96 000e 00       		.byte	0
  97 000f 02       		.uleb128 0x2
  98 0010 24       		.uleb128 0x24
  99 0011 00       		.byte	0
 100 0012 0B       		.uleb128 0xb
 101 0013 0B       		.uleb128 0xb
 102 0014 3E       		.uleb128 0x3e
 103 0015 0B       		.uleb128 0xb
 104 0016 03       		.uleb128 0x3
 105 0017 08       		.uleb128 0x8
 106 0018 00       		.byte	0
 107 0019 00       		.byte	0
 108 001a 03       		.uleb128 0x3
 109 001b 24       		.uleb128 0x24
 110 001c 00       		.byte	0
 111 001d 0B       		.uleb128 0xb
 112 001e 0B       		.uleb128 0xb
 113 001f 3E       		.uleb128 0x3e
 114 0020 0B       		.uleb128 0xb
ARM GAS  /tmp/ccA6iVVD.s 			page 3


 115 0021 03       		.uleb128 0x3
 116 0022 0E       		.uleb128 0xe
 117 0023 00       		.byte	0
 118 0024 00       		.byte	0
 119 0025 00       		.byte	0
 120              		.section	.gnu.debuglto_.debug_line,"e",%progbits
 121              	.Ldebug_line0:
 122 0000 1A000000 		.4byte	.LELT0-.LSLT0
 123              	.LSLT0:
 124 0004 0400     		.2byte	0x4
 125 0006 14000000 		.4byte	.LELTP0-.LASLTP0
 126              	.LASLTP0:
 127 000a 01       		.byte	0x1
 128 000b 01       		.byte	0x1
 129 000c 01       		.byte	0x1
 130 000d F6       		.byte	0xf6
 131 000e F2       		.byte	0xf2
 132 000f 0D       		.byte	0xd
 133 0010 00       		.byte	0
 134 0011 01       		.byte	0x1
 135 0012 01       		.byte	0x1
 136 0013 01       		.byte	0x1
 137 0014 01       		.byte	0x1
 138 0015 00       		.byte	0
 139 0016 00       		.byte	0
 140 0017 00       		.byte	0
 141 0018 01       		.byte	0x1
 142 0019 00       		.byte	0
 143 001a 00       		.byte	0
 144 001b 01       		.byte	0x1
 145 001c 00       		.byte	0
 146 001d 00       		.byte	0
 147              	.LELTP0:
 148              	.LELT0:
 149              		.section	.gnu.debuglto_.debug_str,"eMS",%progbits,1
 150              	.LASF1:
 151 0000 6C6F6E67 		.ascii	"long long int\000"
 151      206C6F6E 
 151      6720696E 
 151      7400
 152              	.LASF14:
 153 000e 2F686F6D 		.ascii	"/home/iamprithvishetty/CDSpace/mmc3416_test2\000"
 153      652F6961 
 153      6D707269 
 153      74687669 
 153      73686574 
 154              	.LASF0:
 155 003b 756E7369 		.ascii	"unsigned int\000"
 155      676E6564 
 155      20696E74 
 155      00
 156              	.LASF8:
 157 0048 6C6F6E67 		.ascii	"long unsigned int\000"
 157      20756E73 
 157      69676E65 
 157      6420696E 
 157      7400
ARM GAS  /tmp/ccA6iVVD.s 			page 4


 158              	.LASF9:
 159 005a 6C6F6E67 		.ascii	"long long unsigned int\000"
 159      206C6F6E 
 159      6720756E 
 159      7369676E 
 159      65642069 
 160              	.LASF4:
 161 0071 756E7369 		.ascii	"unsigned char\000"
 161      676E6564 
 161      20636861 
 161      7200
 162              	.LASF10:
 163 007f 63686172 		.ascii	"char\000"
 163      00
 164              	.LASF7:
 165 0084 6C6F6E67 		.ascii	"long int\000"
 165      20696E74 
 165      00
 166              	.LASF12:
 167 008d 474E5520 		.ascii	"GNU C17 10.2.1 20201103 (release) -mcpu=cortex-m4 -"
 167      43313720 
 167      31302E32 
 167      2E312032 
 167      30323031 
 168 00c0 6D746875 		.ascii	"mthumb -mfloat-abi=soft -march=armv7e-m -ggdb -O2 -"
 168      6D62202D 
 168      6D666C6F 
 168      61742D61 
 168      62693D73 
 169 00f3 666F6D69 		.ascii	"fomit-frame-pointer -falign-functions=16 -ffunction"
 169      742D6672 
 169      616D652D 
 169      706F696E 
 169      74657220 
 170 0126 2D736563 		.ascii	"-sections -fdata-sections -fno-common -flto\000"
 170      74696F6E 
 170      73202D66 
 170      64617461 
 170      2D736563 
 171              	.LASF11:
 172 0152 5F426F6F 		.ascii	"_Bool\000"
 172      6C00
 173              	.LASF6:
 174 0158 73686F72 		.ascii	"short unsigned int\000"
 174      7420756E 
 174      7369676E 
 174      65642069 
 174      6E7400
 175              	.LASF3:
 176 016b 7369676E 		.ascii	"signed char\000"
 176      65642063 
 176      68617200 
 177              	.LASF13:
 178 0177 2E2F4368 		.ascii	"./ChibiOS_20.3.0/os/hal/src/hal_mmcsd.c\000"
 178      6962694F 
 178      535F3230 
 178      2E332E30 
ARM GAS  /tmp/ccA6iVVD.s 			page 5


 178      2F6F732F 
 179              	.LASF2:
 180 019f 6C6F6E67 		.ascii	"long double\000"
 180      20646F75 
 180      626C6500 
 181              	.LASF5:
 182 01ab 73686F72 		.ascii	"short int\000"
 182      7420696E 
 182      7400
 183              		.text
 184              		.section	.gnu.lto_.profile.f2a7e029cb24d759,"e",%progbits
 185 0000 789C6362 		.ascii	"x\234cb\000\001\000\000\022\000\003"
 185      00010000 
 185      120003
 186              		.text
 187              		.section	.gnu.lto_.icf.f2a7e029cb24d759,"e",%progbits
 188 0000 789C6362 		.ascii	"x\234cb@\006\000\000*\000\003"
 188      40060000 
 188      2A0003
 189              		.text
 190              		.section	.gnu.lto_.ipa_sra.f2a7e029cb24d759,"e",%progbits
 191 0000 789C6362 		.ascii	"x\234cb@\006\000\000*\000\003"
 191      40060000 
 191      2A0003
 192              		.text
 193              		.section	.gnu.lto_.inline.f2a7e029cb24d759,"e",%progbits
 194 0000 789C6362 		.ascii	"x\234cb@\006\000\000*\000\003"
 194      40060000 
 194      2A0003
 195              		.text
 196              		.section	.gnu.lto_.jmpfuncs.f2a7e029cb24d759,"e",%progbits
 197 0000 789C6362 		.ascii	"x\234cb@\006\000\000*\000\003"
 197      40060000 
 197      2A0003
 198              		.text
 199              		.section	.gnu.lto_.pureconst.f2a7e029cb24d759,"e",%progbits
 200 0000 789C6364 		.ascii	"x\234cd\000\002\000\000\012\000\002"
 200      00020000 
 200      0A0002
 201              		.text
 202              		.section	.gnu.lto_.lto.f2a7e029cb24d759,"e",%progbits
 203 0000 09000200 		.ascii	"\011\000\002\000\001\000\000\000"
 203      01000000 
 204              		.text
 205              		.section	.gnu.lto_.symbol_nodes.f2a7e029cb24d759,"e",%progbits
 206 0000 789C6362 		.ascii	"x\234cb\000\001\000\000\022\000\003"
 206      00010000 
 206      120003
 207              		.text
 208              		.section	.gnu.lto_.refs.f2a7e029cb24d759,"e",%progbits
 209 0000 789C6364 		.ascii	"x\234cd\000\002\000\000\012\000\002"
 209      00020000 
 209      0A0002
 210              		.text
 211              		.section	.gnu.lto_.decls.f2a7e029cb24d759,"e",%progbits
 212 0000 789C6360 		.ascii	"x\234c````\004b\025 \376\017\004 \366E\006\002\000\000"
 212      60606004 
ARM GAS  /tmp/ccA6iVVD.s 			page 6


 212      621520FE 
 212      0F0420F6 
 212      45060200 
 213 0015 BF3204F4 		.ascii	"\2772\004\364"
 214              		.text
 215              		.section	.gnu.lto_.symtab.f2a7e029cb24d759,"e",%progbits
 216              		.text
 217              		.section	.gnu.lto_.ext_symtab.f2a7e029cb24d759,"e",%progbits
 218 0000 01       		.ascii	"\001"
 219              		.text
 220              		.section	.gnu.lto_.opts,"e",%progbits
 221 0000 272D666E 		.ascii	"'-fno-openmp' '-fno-openacc' '-fno-pie' '-fcf-prote"
 221      6F2D6F70 
 221      656E6D70 
 221      2720272D 
 221      666E6F2D 
 222 0033 6374696F 		.ascii	"ction=none' '-g' '-mcpu=cortex-m4' '-mthumb' '-mflo"
 222      6E3D6E6F 
 222      6E652720 
 222      272D6727 
 222      20272D6D 
 223 0066 61742D61 		.ascii	"at-abi=soft' '-march=armv7e-m' '-O2' '-fomit-frame-"
 223      62693D73 
 223      6F667427 
 223      20272D6D 
 223      61726368 
 224 0099 706F696E 		.ascii	"pointer' '-falign-functions=16' '-ffunction-section"
 224      74657227 
 224      20272D66 
 224      616C6967 
 224      6E2D6675 
 225 00cc 73272027 		.ascii	"s' '-fdata-sections' '-fno-common' '-flto' '-Xassem"
 225      2D666461 
 225      74612D73 
 225      65637469 
 225      6F6E7327 
 226 00ff 626C6572 		.ascii	"bler' '-alms=./build/lst/hal_mmcsd.lst'\000"
 226      2720272D 
 226      616C6D73 
 226      3D2E2F62 
 226      75696C64 
 227              		.text
 228              		.comm	__gnu_lto_slim,1,1
 229              		.ident	"GCC: (GNU Arm Embedded Toolchain 10-2020-q4-major) 10.2.1 20201103 (release)"
ARM GAS  /tmp/ccA6iVVD.s 			page 7


DEFINED SYMBOLS
                            *ABS*:0000000000000000 hal_mmcsd.c
     /tmp/ccA6iVVD.s:16     .gnu.debuglto_.debug_info:0000000000000000 hal_mmcsd.c.a6a49352
                            *COM*:0000000000000001 __gnu_lto_slim

NO UNDEFINED SYMBOLS
