ARM GAS  /tmp/ccpeSJ8z.s 			page 1


   1              		.cpu cortex-m4
   2              		.eabi_attribute 20, 1
   3              		.eabi_attribute 21, 1
   4              		.eabi_attribute 23, 3
   5              		.eabi_attribute 24, 1
   6              		.eabi_attribute 25, 1
   7              		.eabi_attribute 26, 1
   8              		.eabi_attribute 30, 2
   9              		.eabi_attribute 34, 1
  10              		.eabi_attribute 18, 4
  11              		.file	"hal_buffers.c"
  12              		.file 1 "/usr/share/gcc-arm-none-eabi-10-2020-q4-major/lib/gcc/arm-none-eabi/10.2.1/include/stddef
  13              		.file 2 "/usr/share/gcc-arm-none-eabi-10-2020-q4-major/arm-none-eabi/include/machine/_default_type
  14              		.file 3 "/usr/share/gcc-arm-none-eabi-10-2020-q4-major/arm-none-eabi/include/sys/_stdint.h"
  15              		.file 4 "./ChibiOS_20.3.0/os/common/ports/ARMCMx/compilers/GCC/chtypes.h"
  16              		.file 5 "./ChibiOS_20.3.0/os/rt/include/chsystypes.h"
  17              		.file 6 "./ChibiOS_20.3.0/os/rt/include/chschd.h"
  18              		.file 7 "./ChibiOS_20.3.0/os/rt/include/chtime.h"
  19              		.file 8 "./ChibiOS_20.3.0/os/common/ports/ARMCMx/chcore.h"
  20              		.file 9 "./ChibiOS_20.3.0/os/common/ports/ARMCMx/chcore_v7m.h"
  21              		.file 10 "./ChibiOS_20.3.0/os/rt/include/chsem.h"
  22              		.file 11 "./ChibiOS_20.3.0/os/rt/include/chmtx.h"
  23              		.file 12 "./ChibiOS_20.3.0/os/hal/include/hal_buffers.h"
  24              		.file 13 "./ChibiOS_20.3.0/os/hal/src/hal_buffers.c"
  25              		.file 14 "./ChibiOS_20.3.0/os/hal/osal/rt-nil/osal.h"
  26              		.file 15 "./ChibiOS_20.3.0/os/rt/include/chthreads.h"
  27              		.file 16 "./ChibiOS_20.3.0/os/rt/include/chsys.h"
  28              		.file 17 "./ChibiOS_20.3.0/os/common/ext/ARM/CMSIS/Core/Include/cmsis_gcc.h"
  29              		.section	.gnu.debuglto_.debug_info,"e",%progbits
  30              	.Ldebug_info0:
  31              		.hidden	hal_buffers.c.17c0c9b9
  32              		.weak	hal_buffers.c.17c0c9b9
  33              	hal_buffers.c.17c0c9b9:
  34 0000 440C0000 		.4byte	0xc44
  35 0004 0400     		.2byte	0x4
  36 0006 00000000 		.4byte	.Ldebug_abbrev0
  37 000a 04       		.byte	0x4
  38 000b 01       		.uleb128 0x1
  39 000c F6020000 		.4byte	.LASF124
  40 0010 0C       		.byte	0xc
  41 0011 44060000 		.4byte	.LASF125
  42 0015 D5010000 		.4byte	.LASF126
  43 0019 00000000 		.4byte	.Ldebug_line0
  44 001d 02       		.uleb128 0x2
  45 001e 04       		.byte	0x4
  46 001f 05       		.byte	0x5
  47 0020 696E7400 		.ascii	"int\000"
  48 0024 03       		.uleb128 0x3
  49 0025 18000000 		.4byte	.LASF4
  50 0029 01       		.byte	0x1
  51 002a D1       		.byte	0xd1
  52 002b 17       		.byte	0x17
  53 002c 35000000 		.4byte	0x35
  54 0030 04       		.uleb128 0x4
  55 0031 24000000 		.4byte	0x24
  56 0035 05       		.uleb128 0x5
  57 0036 04       		.byte	0x4
ARM GAS  /tmp/ccpeSJ8z.s 			page 2


  58 0037 07       		.byte	0x7
  59 0038 55020000 		.4byte	.LASF0
  60 003c 05       		.uleb128 0x5
  61 003d 08       		.byte	0x8
  62 003e 05       		.byte	0x5
  63 003f E8000000 		.4byte	.LASF1
  64 0043 05       		.uleb128 0x5
  65 0044 08       		.byte	0x8
  66 0045 04       		.byte	0x4
  67 0046 FD030000 		.4byte	.LASF2
  68 004a 05       		.uleb128 0x5
  69 004b 01       		.byte	0x1
  70 004c 06       		.byte	0x6
  71 004d F6000000 		.4byte	.LASF3
  72 0051 03       		.uleb128 0x3
  73 0052 2F000000 		.4byte	.LASF5
  74 0056 02       		.byte	0x2
  75 0057 2B       		.byte	0x2b
  76 0058 18       		.byte	0x18
  77 0059 5D000000 		.4byte	0x5d
  78 005d 05       		.uleb128 0x5
  79 005e 01       		.byte	0x1
  80 005f 08       		.byte	0x8
  81 0060 93040000 		.4byte	.LASF6
  82 0064 05       		.uleb128 0x5
  83 0065 02       		.byte	0x2
  84 0066 05       		.byte	0x5
  85 0067 C9040000 		.4byte	.LASF7
  86 006b 05       		.uleb128 0x5
  87 006c 02       		.byte	0x2
  88 006d 07       		.byte	0x7
  89 006e 8F020000 		.4byte	.LASF8
  90 0072 03       		.uleb128 0x3
  91 0073 96050000 		.4byte	.LASF9
  92 0077 02       		.byte	0x2
  93 0078 4D       		.byte	0x4d
  94 0079 18       		.byte	0x18
  95 007a 7E000000 		.4byte	0x7e
  96 007e 05       		.uleb128 0x5
  97 007f 04       		.byte	0x4
  98 0080 05       		.byte	0x5
  99 0081 7E010000 		.4byte	.LASF10
 100 0085 03       		.uleb128 0x3
 101 0086 AF010000 		.4byte	.LASF11
 102 008a 02       		.byte	0x2
 103 008b 4F       		.byte	0x4f
 104 008c 19       		.byte	0x19
 105 008d 91000000 		.4byte	0x91
 106 0091 05       		.uleb128 0x5
 107 0092 04       		.byte	0x4
 108 0093 07       		.byte	0x7
 109 0094 50050000 		.4byte	.LASF12
 110 0098 03       		.uleb128 0x3
 111 0099 3A040000 		.4byte	.LASF13
 112 009d 02       		.byte	0x2
 113 009e 69       		.byte	0x69
 114 009f 19       		.byte	0x19
ARM GAS  /tmp/ccpeSJ8z.s 			page 3


 115 00a0 A4000000 		.4byte	0xa4
 116 00a4 05       		.uleb128 0x5
 117 00a5 08       		.byte	0x8
 118 00a6 07       		.byte	0x7
 119 00a7 7D000000 		.4byte	.LASF14
 120 00ab 06       		.uleb128 0x6
 121 00ac 04       		.byte	0x4
 122 00ad 05       		.uleb128 0x5
 123 00ae 01       		.byte	0x1
 124 00af 08       		.byte	0x8
 125 00b0 70050000 		.4byte	.LASF15
 126 00b4 07       		.uleb128 0x7
 127 00b5 AD000000 		.4byte	0xad
 128 00b9 08       		.uleb128 0x8
 129 00ba 04       		.byte	0x4
 130 00bb B4000000 		.4byte	0xb4
 131 00bf 03       		.uleb128 0x3
 132 00c0 16060000 		.4byte	.LASF16
 133 00c4 03       		.byte	0x3
 134 00c5 18       		.byte	0x18
 135 00c6 13       		.byte	0x13
 136 00c7 51000000 		.4byte	0x51
 137 00cb 07       		.uleb128 0x7
 138 00cc BF000000 		.4byte	0xbf
 139 00d0 03       		.uleb128 0x3
 140 00d1 8B040000 		.4byte	.LASF17
 141 00d5 03       		.byte	0x3
 142 00d6 2C       		.byte	0x2c
 143 00d7 13       		.byte	0x13
 144 00d8 72000000 		.4byte	0x72
 145 00dc 03       		.uleb128 0x3
 146 00dd 2A050000 		.4byte	.LASF18
 147 00e1 03       		.byte	0x3
 148 00e2 30       		.byte	0x30
 149 00e3 14       		.byte	0x14
 150 00e4 85000000 		.4byte	0x85
 151 00e8 03       		.uleb128 0x3
 152 00e9 26000000 		.4byte	.LASF19
 153 00ed 03       		.byte	0x3
 154 00ee 3C       		.byte	0x3c
 155 00ef 14       		.byte	0x14
 156 00f0 98000000 		.4byte	0x98
 157 00f4 03       		.uleb128 0x3
 158 00f5 C8020000 		.4byte	.LASF20
 159 00f9 04       		.byte	0x4
 160 00fa 2A       		.byte	0x2a
 161 00fb 1D       		.byte	0x1d
 162 00fc BF000000 		.4byte	0xbf
 163 0100 03       		.uleb128 0x3
 164 0101 87010000 		.4byte	.LASF21
 165 0105 04       		.byte	0x4
 166 0106 2B       		.byte	0x2b
 167 0107 1D       		.byte	0x1d
 168 0108 BF000000 		.4byte	0xbf
 169 010c 03       		.uleb128 0x3
 170 010d 53040000 		.4byte	.LASF22
 171 0111 04       		.byte	0x4
ARM GAS  /tmp/ccpeSJ8z.s 			page 4


 172 0112 2C       		.byte	0x2c
 173 0113 1D       		.byte	0x1d
 174 0114 BF000000 		.4byte	0xbf
 175 0118 03       		.uleb128 0x3
 176 0119 66040000 		.4byte	.LASF23
 177 011d 04       		.byte	0x4
 178 011e 2E       		.byte	0x2e
 179 011f 1D       		.byte	0x1d
 180 0120 DC000000 		.4byte	0xdc
 181 0124 03       		.uleb128 0x3
 182 0125 60040000 		.4byte	.LASF24
 183 0129 04       		.byte	0x4
 184 012a 2F       		.byte	0x2f
 185 012b 1D       		.byte	0x1d
 186 012c D0000000 		.4byte	0xd0
 187 0130 03       		.uleb128 0x3
 188 0131 EA020000 		.4byte	.LASF25
 189 0135 04       		.byte	0x4
 190 0136 31       		.byte	0x31
 191 0137 1D       		.byte	0x1d
 192 0138 DC000000 		.4byte	0xdc
 193 013c 03       		.uleb128 0x3
 194 013d 4F020000 		.4byte	.LASF26
 195 0141 04       		.byte	0x4
 196 0142 33       		.byte	0x33
 197 0143 1D       		.byte	0x1d
 198 0144 D0000000 		.4byte	0xd0
 199 0148 03       		.uleb128 0x3
 200 0149 8D050000 		.4byte	.LASF27
 201 014d 05       		.byte	0x5
 202 014e 34       		.byte	0x34
 203 014f 1A       		.byte	0x1a
 204 0150 54010000 		.4byte	0x154
 205 0154 09       		.uleb128 0x9
 206 0155 A2020000 		.4byte	.LASF45
 207 0159 44       		.byte	0x44
 208 015a 06       		.byte	0x6
 209 015b 8E       		.byte	0x8e
 210 015c 08       		.byte	0x8
 211 015d 44020000 		.4byte	0x244
 212 0161 0A       		.uleb128 0xa
 213 0162 90010000 		.4byte	.LASF28
 214 0166 06       		.byte	0x6
 215 0167 8F       		.byte	0x8f
 216 0168 19       		.byte	0x19
 217 0169 7D020000 		.4byte	0x27d
 218 016d 00       		.byte	0
 219 016e 0A       		.uleb128 0xa
 220 016f 35040000 		.4byte	.LASF29
 221 0173 06       		.byte	0x6
 222 0174 90       		.byte	0x90
 223 0175 19       		.byte	0x19
 224 0176 18010000 		.4byte	0x118
 225 017a 08       		.byte	0x8
 226 017b 0B       		.uleb128 0xb
 227 017c 63747800 		.ascii	"ctx\000"
 228 0180 06       		.byte	0x6
ARM GAS  /tmp/ccpeSJ8z.s 			page 5


 229 0181 91       		.byte	0x91
 230 0182 19       		.byte	0x19
 231 0183 4F030000 		.4byte	0x34f
 232 0187 0C       		.byte	0xc
 233 0188 0A       		.uleb128 0xa
 234 0189 C6030000 		.4byte	.LASF30
 235 018d 06       		.byte	0x6
 236 018e 93       		.byte	0x93
 237 018f 1A       		.byte	0x1a
 238 0190 50020000 		.4byte	0x250
 239 0194 10       		.byte	0x10
 240 0195 0A       		.uleb128 0xa
 241 0196 75050000 		.4byte	.LASF31
 242 019a 06       		.byte	0x6
 243 019b 94       		.byte	0x94
 244 019c 1A       		.byte	0x1a
 245 019d 50020000 		.4byte	0x250
 246 01a1 14       		.byte	0x14
 247 01a2 0A       		.uleb128 0xa
 248 01a3 7F020000 		.4byte	.LASF32
 249 01a7 06       		.byte	0x6
 250 01a8 9B       		.byte	0x9b
 251 01a9 1A       		.byte	0x1a
 252 01aa B9000000 		.4byte	0xb9
 253 01ae 18       		.byte	0x18
 254 01af 0A       		.uleb128 0xa
 255 01b0 62050000 		.4byte	.LASF33
 256 01b4 06       		.byte	0x6
 257 01b5 A4       		.byte	0xa4
 258 01b6 1A       		.byte	0x1a
 259 01b7 4B040000 		.4byte	0x44b
 260 01bb 1C       		.byte	0x1c
 261 01bc 0A       		.uleb128 0xa
 262 01bd 78010000 		.4byte	.LASF34
 263 01c1 06       		.byte	0x6
 264 01c2 A9       		.byte	0xa9
 265 01c3 19       		.byte	0x19
 266 01c4 00010000 		.4byte	0x100
 267 01c8 20       		.byte	0x20
 268 01c9 0A       		.uleb128 0xa
 269 01ca 1E060000 		.4byte	.LASF35
 270 01ce 06       		.byte	0x6
 271 01cf AD       		.byte	0xad
 272 01d0 19       		.byte	0x19
 273 01d1 F4000000 		.4byte	0xf4
 274 01d5 21       		.byte	0x21
 275 01d6 0A       		.uleb128 0xa
 276 01d7 5B040000 		.4byte	.LASF36
 277 01db 06       		.byte	0x6
 278 01dc B2       		.byte	0xb2
 279 01dd 19       		.byte	0x19
 280 01de 0C010000 		.4byte	0x10c
 281 01e2 22       		.byte	0x22
 282 01e3 0C       		.uleb128 0xc
 283 01e4 7500     		.ascii	"u\000"
 284 01e6 06       		.byte	0x6
 285 01e7 0301     		.2byte	0x103
ARM GAS  /tmp/ccpeSJ8z.s 			page 6


 286 01e9 19       		.byte	0x19
 287 01ea 71030000 		.4byte	0x371
 288 01ee 24       		.byte	0x24
 289 01ef 0D       		.uleb128 0xd
 290 01f0 09020000 		.4byte	.LASF37
 291 01f4 06       		.byte	0x6
 292 01f5 0801     		.2byte	0x108
 293 01f7 19       		.byte	0x19
 294 01f8 56020000 		.4byte	0x256
 295 01fc 28       		.byte	0x28
 296 01fd 0D       		.uleb128 0xd
 297 01fe 61010000 		.4byte	.LASF38
 298 0202 06       		.byte	0x6
 299 0203 0E01     		.2byte	0x10e
 300 0205 19       		.byte	0x19
 301 0206 7D020000 		.4byte	0x27d
 302 020a 2C       		.byte	0x2c
 303 020b 0D       		.uleb128 0xd
 304 020c BF020000 		.4byte	.LASF39
 305 0210 06       		.byte	0x6
 306 0211 1401     		.2byte	0x114
 307 0213 19       		.byte	0x19
 308 0214 30010000 		.4byte	0x130
 309 0218 34       		.byte	0x34
 310 0219 0D       		.uleb128 0xd
 311 021a B5060000 		.4byte	.LASF40
 312 021e 06       		.byte	0x6
 313 021f 1B01     		.2byte	0x11b
 314 0221 1A       		.byte	0x1a
 315 0222 45040000 		.4byte	0x445
 316 0226 38       		.byte	0x38
 317 0227 0D       		.uleb128 0xd
 318 0228 E1030000 		.4byte	.LASF41
 319 022c 06       		.byte	0x6
 320 022d 1F01     		.2byte	0x11f
 321 022f 19       		.byte	0x19
 322 0230 18010000 		.4byte	0x118
 323 0234 3C       		.byte	0x3c
 324 0235 0D       		.uleb128 0xd
 325 0236 84020000 		.4byte	.LASF42
 326 023a 06       		.byte	0x6
 327 023b 2601     		.2byte	0x126
 328 023d 1A       		.byte	0x1a
 329 023e AB000000 		.4byte	0xab
 330 0242 40       		.byte	0x40
 331 0243 00       		.byte	0
 332 0244 03       		.uleb128 0x3
 333 0245 EA030000 		.4byte	.LASF43
 334 0249 05       		.byte	0x5
 335 024a 39       		.byte	0x39
 336 024b 14       		.byte	0x14
 337 024c 50020000 		.4byte	0x250
 338 0250 08       		.uleb128 0x8
 339 0251 04       		.byte	0x4
 340 0252 48010000 		.4byte	0x148
 341 0256 03       		.uleb128 0x3
 342 0257 9A060000 		.4byte	.LASF44
ARM GAS  /tmp/ccpeSJ8z.s 			page 7


 343 025b 05       		.byte	0x5
 344 025c 3E       		.byte	0x3e
 345 025d 20       		.byte	0x20
 346 025e 62020000 		.4byte	0x262
 347 0262 09       		.uleb128 0x9
 348 0263 3A050000 		.4byte	.LASF46
 349 0267 04       		.byte	0x4
 350 0268 06       		.byte	0x6
 351 0269 7C       		.byte	0x7c
 352 026a 08       		.byte	0x8
 353 026b 7D020000 		.4byte	0x27d
 354 026f 0A       		.uleb128 0xa
 355 0270 CA000000 		.4byte	.LASF47
 356 0274 06       		.byte	0x6
 357 0275 7D       		.byte	0x7d
 358 0276 1A       		.byte	0x1a
 359 0277 50020000 		.4byte	0x250
 360 027b 00       		.byte	0
 361 027c 00       		.byte	0
 362 027d 03       		.uleb128 0x3
 363 027e D9050000 		.4byte	.LASF48
 364 0282 05       		.byte	0x5
 365 0283 45       		.byte	0x45
 366 0284 21       		.byte	0x21
 367 0285 89020000 		.4byte	0x289
 368 0289 09       		.uleb128 0x9
 369 028a 4A000000 		.4byte	.LASF49
 370 028e 08       		.byte	0x8
 371 028f 06       		.byte	0x6
 372 0290 83       		.byte	0x83
 373 0291 08       		.byte	0x8
 374 0292 B1020000 		.4byte	0x2b1
 375 0296 0A       		.uleb128 0xa
 376 0297 CA000000 		.4byte	.LASF47
 377 029b 06       		.byte	0x6
 378 029c 84       		.byte	0x84
 379 029d 1A       		.byte	0x1a
 380 029e 50020000 		.4byte	0x250
 381 02a2 00       		.byte	0
 382 02a3 0A       		.uleb128 0xa
 383 02a4 39000000 		.4byte	.LASF50
 384 02a8 06       		.byte	0x6
 385 02a9 85       		.byte	0x85
 386 02aa 1A       		.byte	0x1a
 387 02ab 50020000 		.4byte	0x250
 388 02af 04       		.byte	0x4
 389 02b0 00       		.byte	0
 390 02b1 03       		.uleb128 0x3
 391 02b2 38020000 		.4byte	.LASF51
 392 02b6 07       		.byte	0x7
 393 02b7 79       		.byte	0x79
 394 02b8 12       		.byte	0x12
 395 02b9 DC000000 		.4byte	0xdc
 396 02bd 03       		.uleb128 0x3
 397 02be BB030000 		.4byte	.LASF52
 398 02c2 08       		.byte	0x8
 399 02c3 68       		.byte	0x68
ARM GAS  /tmp/ccpeSJ8z.s 			page 8


 400 02c4 12       		.byte	0x12
 401 02c5 E8000000 		.4byte	0xe8
 402 02c9 0E       		.uleb128 0xe
 403 02ca 3E000000 		.4byte	.LASF53
 404 02ce 24       		.byte	0x24
 405 02cf 09       		.byte	0x9
 406 02d0 8501     		.2byte	0x185
 407 02d2 08       		.byte	0x8
 408 02d3 4F030000 		.4byte	0x34f
 409 02d7 0C       		.uleb128 0xc
 410 02d8 723400   		.ascii	"r4\000"
 411 02db 09       		.byte	0x9
 412 02dc 9E01     		.2byte	0x19e
 413 02de 11       		.byte	0x11
 414 02df DC000000 		.4byte	0xdc
 415 02e3 00       		.byte	0
 416 02e4 0C       		.uleb128 0xc
 417 02e5 723500   		.ascii	"r5\000"
 418 02e8 09       		.byte	0x9
 419 02e9 9F01     		.2byte	0x19f
 420 02eb 11       		.byte	0x11
 421 02ec DC000000 		.4byte	0xdc
 422 02f0 04       		.byte	0x4
 423 02f1 0C       		.uleb128 0xc
 424 02f2 723600   		.ascii	"r6\000"
 425 02f5 09       		.byte	0x9
 426 02f6 A001     		.2byte	0x1a0
 427 02f8 11       		.byte	0x11
 428 02f9 DC000000 		.4byte	0xdc
 429 02fd 08       		.byte	0x8
 430 02fe 0C       		.uleb128 0xc
 431 02ff 723700   		.ascii	"r7\000"
 432 0302 09       		.byte	0x9
 433 0303 A101     		.2byte	0x1a1
 434 0305 11       		.byte	0x11
 435 0306 DC000000 		.4byte	0xdc
 436 030a 0C       		.byte	0xc
 437 030b 0C       		.uleb128 0xc
 438 030c 723800   		.ascii	"r8\000"
 439 030f 09       		.byte	0x9
 440 0310 A201     		.2byte	0x1a2
 441 0312 11       		.byte	0x11
 442 0313 DC000000 		.4byte	0xdc
 443 0317 10       		.byte	0x10
 444 0318 0C       		.uleb128 0xc
 445 0319 723900   		.ascii	"r9\000"
 446 031c 09       		.byte	0x9
 447 031d A301     		.2byte	0x1a3
 448 031f 11       		.byte	0x11
 449 0320 DC000000 		.4byte	0xdc
 450 0324 14       		.byte	0x14
 451 0325 0C       		.uleb128 0xc
 452 0326 72313000 		.ascii	"r10\000"
 453 032a 09       		.byte	0x9
 454 032b A401     		.2byte	0x1a4
 455 032d 11       		.byte	0x11
 456 032e DC000000 		.4byte	0xdc
ARM GAS  /tmp/ccpeSJ8z.s 			page 9


 457 0332 18       		.byte	0x18
 458 0333 0C       		.uleb128 0xc
 459 0334 72313100 		.ascii	"r11\000"
 460 0338 09       		.byte	0x9
 461 0339 A501     		.2byte	0x1a5
 462 033b 11       		.byte	0x11
 463 033c DC000000 		.4byte	0xdc
 464 0340 1C       		.byte	0x1c
 465 0341 0C       		.uleb128 0xc
 466 0342 6C7200   		.ascii	"lr\000"
 467 0345 09       		.byte	0x9
 468 0346 A601     		.2byte	0x1a6
 469 0348 11       		.byte	0x11
 470 0349 DC000000 		.4byte	0xdc
 471 034d 20       		.byte	0x20
 472 034e 00       		.byte	0
 473 034f 0E       		.uleb128 0xe
 474 0350 70000000 		.4byte	.LASF54
 475 0354 04       		.byte	0x4
 476 0355 09       		.byte	0x9
 477 0356 A901     		.2byte	0x1a9
 478 0358 08       		.byte	0x8
 479 0359 6B030000 		.4byte	0x36b
 480 035d 0C       		.uleb128 0xc
 481 035e 737000   		.ascii	"sp\000"
 482 0361 09       		.byte	0x9
 483 0362 AA01     		.2byte	0x1aa
 484 0364 1A       		.byte	0x1a
 485 0365 6B030000 		.4byte	0x36b
 486 0369 00       		.byte	0
 487 036a 00       		.byte	0
 488 036b 08       		.uleb128 0x8
 489 036c 04       		.byte	0x4
 490 036d C9020000 		.4byte	0x2c9
 491 0371 0F       		.uleb128 0xf
 492 0372 04       		.byte	0x4
 493 0373 06       		.byte	0x6
 494 0374 C6       		.byte	0xc6
 495 0375 03       		.byte	0x3
 496 0376 DC030000 		.4byte	0x3dc
 497 037a 10       		.uleb128 0x10
 498 037b 1F000000 		.4byte	.LASF55
 499 037f 06       		.byte	0x6
 500 0380 CD       		.byte	0xcd
 501 0381 19       		.byte	0x19
 502 0382 24010000 		.4byte	0x124
 503 0386 10       		.uleb128 0x10
 504 0387 94000000 		.4byte	.LASF56
 505 038b 06       		.byte	0x6
 506 038c D4       		.byte	0xd4
 507 038d 19       		.byte	0x19
 508 038e 24010000 		.4byte	0x124
 509 0392 10       		.uleb128 0x10
 510 0393 3D060000 		.4byte	.LASF57
 511 0397 06       		.byte	0x6
 512 0398 DB       		.byte	0xdb
 513 0399 1A       		.byte	0x1a
ARM GAS  /tmp/ccpeSJ8z.s 			page 10


 514 039a AB000000 		.4byte	0xab
 515 039e 10       		.uleb128 0x10
 516 039f 69020000 		.4byte	.LASF58
 517 03a3 06       		.byte	0x6
 518 03a4 E2       		.byte	0xe2
 519 03a5 1A       		.byte	0x1a
 520 03a6 DC030000 		.4byte	0x3dc
 521 03aa 10       		.uleb128 0x10
 522 03ab B4000000 		.4byte	.LASF59
 523 03af 06       		.byte	0x6
 524 03b0 E7       		.byte	0xe7
 525 03b1 19       		.byte	0x19
 526 03b2 24010000 		.4byte	0x124
 527 03b6 10       		.uleb128 0x10
 528 03b7 62020000 		.4byte	.LASF60
 529 03bb 06       		.byte	0x6
 530 03bc F0       		.byte	0xf0
 531 03bd 1A       		.byte	0x1a
 532 03be 0A040000 		.4byte	0x40a
 533 03c2 10       		.uleb128 0x10
 534 03c3 33050000 		.4byte	.LASF61
 535 03c7 06       		.byte	0x6
 536 03c8 F9       		.byte	0xf9
 537 03c9 1A       		.byte	0x1a
 538 03ca 45040000 		.4byte	0x445
 539 03ce 11       		.uleb128 0x11
 540 03cf D3040000 		.4byte	.LASF62
 541 03d3 06       		.byte	0x6
 542 03d4 0101     		.2byte	0x101
 543 03d6 19       		.byte	0x19
 544 03d7 30010000 		.4byte	0x130
 545 03db 00       		.byte	0
 546 03dc 08       		.uleb128 0x8
 547 03dd 04       		.byte	0x4
 548 03de 44020000 		.4byte	0x244
 549 03e2 09       		.uleb128 0x9
 550 03e3 10050000 		.4byte	.LASF63
 551 03e7 0C       		.byte	0xc
 552 03e8 0A       		.byte	0xa
 553 03e9 34       		.byte	0x34
 554 03ea 10       		.byte	0x10
 555 03eb 0A040000 		.4byte	0x40a
 556 03ef 0A       		.uleb128 0xa
 557 03f0 90010000 		.4byte	.LASF28
 558 03f4 0A       		.byte	0xa
 559 03f5 35       		.byte	0x35
 560 03f6 19       		.byte	0x19
 561 03f7 7D020000 		.4byte	0x27d
 562 03fb 00       		.byte	0
 563 03fc 0B       		.uleb128 0xb
 564 03fd 636E7400 		.ascii	"cnt\000"
 565 0401 0A       		.byte	0xa
 566 0402 37       		.byte	0x37
 567 0403 19       		.byte	0x19
 568 0404 3C010000 		.4byte	0x13c
 569 0408 08       		.byte	0x8
 570 0409 00       		.byte	0
ARM GAS  /tmp/ccpeSJ8z.s 			page 11


 571 040a 08       		.uleb128 0x8
 572 040b 04       		.byte	0x4
 573 040c E2030000 		.4byte	0x3e2
 574 0410 09       		.uleb128 0x9
 575 0411 E9050000 		.4byte	.LASF64
 576 0415 10       		.byte	0x10
 577 0416 0B       		.byte	0xb
 578 0417 39       		.byte	0x39
 579 0418 08       		.byte	0x8
 580 0419 45040000 		.4byte	0x445
 581 041d 0A       		.uleb128 0xa
 582 041e 90010000 		.4byte	.LASF28
 583 0422 0B       		.byte	0xb
 584 0423 3A       		.byte	0x3a
 585 0424 19       		.byte	0x19
 586 0425 7D020000 		.4byte	0x27d
 587 0429 00       		.byte	0
 588 042a 0A       		.uleb128 0xa
 589 042b 4A050000 		.4byte	.LASF65
 590 042f 0B       		.byte	0xb
 591 0430 3C       		.byte	0x3c
 592 0431 1A       		.byte	0x1a
 593 0432 50020000 		.4byte	0x250
 594 0436 08       		.byte	0x8
 595 0437 0A       		.uleb128 0xa
 596 0438 CA000000 		.4byte	.LASF47
 597 043c 0B       		.byte	0xb
 598 043d 3E       		.byte	0x3e
 599 043e 1A       		.byte	0x1a
 600 043f 5D040000 		.4byte	0x45d
 601 0443 0C       		.byte	0xc
 602 0444 00       		.byte	0
 603 0445 08       		.uleb128 0x8
 604 0446 04       		.byte	0x4
 605 0447 10040000 		.4byte	0x410
 606 044b 08       		.uleb128 0x8
 607 044c 04       		.byte	0x4
 608 044d BD020000 		.4byte	0x2bd
 609 0451 03       		.uleb128 0x3
 610 0452 30020000 		.4byte	.LASF66
 611 0456 0B       		.byte	0xb
 612 0457 34       		.byte	0x34
 613 0458 19       		.byte	0x19
 614 0459 10040000 		.4byte	0x410
 615 045d 08       		.uleb128 0x8
 616 045e 04       		.byte	0x4
 617 045f 51040000 		.4byte	0x451
 618 0463 05       		.uleb128 0x5
 619 0464 01       		.byte	0x1
 620 0465 02       		.byte	0x2
 621 0466 85040000 		.4byte	.LASF67
 622 046a 08       		.uleb128 0x8
 623 046b 04       		.byte	0x4
 624 046c BF000000 		.4byte	0xbf
 625 0470 08       		.uleb128 0x8
 626 0471 04       		.byte	0x4
 627 0472 CB000000 		.4byte	0xcb
ARM GAS  /tmp/ccpeSJ8z.s 			page 12


 628 0476 03       		.uleb128 0x3
 629 0477 1D020000 		.4byte	.LASF68
 630 047b 0C       		.byte	0xc
 631 047c 3F       		.byte	0x3f
 632 047d 21       		.byte	0x21
 633 047e 82040000 		.4byte	0x482
 634 0482 09       		.uleb128 0x9
 635 0483 27010000 		.4byte	.LASF69
 636 0487 38       		.byte	0x38
 637 0488 0C       		.byte	0xc
 638 0489 4B       		.byte	0x4b
 639 048a 08       		.byte	0x8
 640 048b 38050000 		.4byte	0x538
 641 048f 0A       		.uleb128 0xa
 642 0490 09020000 		.4byte	.LASF37
 643 0494 0C       		.byte	0xc
 644 0495 4F       		.byte	0x4f
 645 0496 19       		.byte	0x19
 646 0497 7D020000 		.4byte	0x27d
 647 049b 00       		.byte	0
 648 049c 0A       		.uleb128 0xa
 649 049d 1C040000 		.4byte	.LASF70
 650 04a1 0C       		.byte	0xc
 651 04a2 53       		.byte	0x53
 652 04a3 19       		.byte	0x19
 653 04a4 63040000 		.4byte	0x463
 654 04a8 08       		.byte	0x8
 655 04a9 0A       		.uleb128 0xa
 656 04aa 4A040000 		.4byte	.LASF71
 657 04ae 0C       		.byte	0xc
 658 04af 57       		.byte	0x57
 659 04b0 19       		.byte	0x19
 660 04b1 30000000 		.4byte	0x30
 661 04b5 0C       		.byte	0xc
 662 04b6 0A       		.uleb128 0xa
 663 04b7 CF000000 		.4byte	.LASF72
 664 04bb 0C       		.byte	0xc
 665 04bc 5B       		.byte	0x5b
 666 04bd 1A       		.byte	0x1a
 667 04be 6A040000 		.4byte	0x46a
 668 04c2 10       		.byte	0x10
 669 04c3 0A       		.uleb128 0xa
 670 04c4 02020000 		.4byte	.LASF73
 671 04c8 0C       		.byte	0xc
 672 04c9 5F       		.byte	0x5f
 673 04ca 1A       		.byte	0x1a
 674 04cb 6A040000 		.4byte	0x46a
 675 04cf 14       		.byte	0x14
 676 04d0 0A       		.uleb128 0xa
 677 04d1 26040000 		.4byte	.LASF74
 678 04d5 0C       		.byte	0xc
 679 04d6 63       		.byte	0x63
 680 04d7 1A       		.byte	0x1a
 681 04d8 6A040000 		.4byte	0x46a
 682 04dc 18       		.byte	0x18
 683 04dd 0A       		.uleb128 0xa
 684 04de A1040000 		.4byte	.LASF75
ARM GAS  /tmp/ccpeSJ8z.s 			page 13


 685 04e2 0C       		.byte	0xc
 686 04e3 6A       		.byte	0x6a
 687 04e4 19       		.byte	0x19
 688 04e5 24000000 		.4byte	0x24
 689 04e9 1C       		.byte	0x1c
 690 04ea 0B       		.uleb128 0xb
 691 04eb 626E00   		.ascii	"bn\000"
 692 04ee 0C       		.byte	0xc
 693 04ef 6E       		.byte	0x6e
 694 04f0 19       		.byte	0x19
 695 04f1 24000000 		.4byte	0x24
 696 04f5 20       		.byte	0x20
 697 04f6 0A       		.uleb128 0xa
 698 04f7 77020000 		.4byte	.LASF76
 699 04fb 0C       		.byte	0xc
 700 04fc 72       		.byte	0x72
 701 04fd 1A       		.byte	0x1a
 702 04fe 6A040000 		.4byte	0x46a
 703 0502 24       		.byte	0x24
 704 0503 0B       		.uleb128 0xb
 705 0504 70747200 		.ascii	"ptr\000"
 706 0508 0C       		.byte	0xc
 707 0509 77       		.byte	0x77
 708 050a 1A       		.byte	0x1a
 709 050b 6A040000 		.4byte	0x46a
 710 050f 28       		.byte	0x28
 711 0510 0B       		.uleb128 0xb
 712 0511 746F7000 		.ascii	"top\000"
 713 0515 0C       		.byte	0xc
 714 0516 7B       		.byte	0x7b
 715 0517 1A       		.byte	0x1a
 716 0518 6A040000 		.4byte	0x46a
 717 051c 2C       		.byte	0x2c
 718 051d 0A       		.uleb128 0xa
 719 051e 69050000 		.4byte	.LASF77
 720 0522 0C       		.byte	0xc
 721 0523 7F       		.byte	0x7f
 722 0524 19       		.byte	0x19
 723 0525 38050000 		.4byte	0x538
 724 0529 30       		.byte	0x30
 725 052a 0A       		.uleb128 0xa
 726 052b BA010000 		.4byte	.LASF78
 727 052f 0C       		.byte	0xc
 728 0530 83       		.byte	0x83
 729 0531 1A       		.byte	0x1a
 730 0532 AB000000 		.4byte	0xab
 731 0536 34       		.byte	0x34
 732 0537 00       		.byte	0
 733 0538 03       		.uleb128 0x3
 734 0539 C8050000 		.4byte	.LASF79
 735 053d 0C       		.byte	0xc
 736 053e 46       		.byte	0x46
 737 053f 10       		.byte	0x10
 738 0540 44050000 		.4byte	0x544
 739 0544 08       		.uleb128 0x8
 740 0545 04       		.byte	0x4
 741 0546 4A050000 		.4byte	0x54a
ARM GAS  /tmp/ccpeSJ8z.s 			page 14


 742 054a 12       		.uleb128 0x12
 743 054b 55050000 		.4byte	0x555
 744 054f 13       		.uleb128 0x13
 745 0550 55050000 		.4byte	0x555
 746 0554 00       		.byte	0
 747 0555 08       		.uleb128 0x8
 748 0556 04       		.byte	0x4
 749 0557 76040000 		.4byte	0x476
 750 055b 03       		.uleb128 0x3
 751 055c BF010000 		.4byte	.LASF80
 752 0560 0C       		.byte	0xc
 753 0561 89       		.byte	0x89
 754 0562 1C       		.byte	0x1c
 755 0563 76040000 		.4byte	0x476
 756 0567 03       		.uleb128 0x3
 757 0568 6E040000 		.4byte	.LASF81
 758 056c 0C       		.byte	0xc
 759 056d 8E       		.byte	0x8e
 760 056e 1C       		.byte	0x1c
 761 056f 76040000 		.4byte	0x476
 762 0573 14       		.uleb128 0x14
 763 0574 46020000 		.4byte	.LASF88
 764 0578 0D       		.byte	0xd
 765 0579 4003     		.2byte	0x340
 766 057b 06       		.byte	0x6
 767 057c 9D050000 		.4byte	0x59d
 768 0580 15       		.uleb128 0x15
 769 0581 11060000 		.4byte	.LASF82
 770 0585 0D       		.byte	0xd
 771 0586 4003     		.2byte	0x340
 772 0588 27       		.byte	0x27
 773 0589 9D050000 		.4byte	0x59d
 774 058d 16       		.uleb128 0x16
 775 058e 17       		.uleb128 0x17
 776 058f 8A020000 		.4byte	.LASF83
 777 0593 0D       		.byte	0xd
 778 0594 4603     		.2byte	0x346
 779 0596 0C       		.byte	0xc
 780 0597 24000000 		.4byte	0x24
 781 059b 00       		.byte	0
 782 059c 00       		.byte	0
 783 059d 08       		.uleb128 0x8
 784 059e 04       		.byte	0x4
 785 059f 67050000 		.4byte	0x567
 786 05a3 18       		.uleb128 0x18
 787 05a4 1D050000 		.4byte	.LASF84
 788 05a8 0D       		.byte	0xd
 789 05a9 1B03     		.2byte	0x31b
 790 05ab 06       		.byte	0x6
 791 05ac 63040000 		.4byte	0x463
 792 05b0 D1050000 		.4byte	0x5d1
 793 05b4 15       		.uleb128 0x15
 794 05b5 11060000 		.4byte	.LASF82
 795 05b9 0D       		.byte	0xd
 796 05ba 1B03     		.2byte	0x31b
 797 05bc 2B       		.byte	0x2b
 798 05bd 9D050000 		.4byte	0x59d
ARM GAS  /tmp/ccpeSJ8z.s 			page 15


 799 05c1 16       		.uleb128 0x16
 800 05c2 17       		.uleb128 0x17
 801 05c3 8A020000 		.4byte	.LASF83
 802 05c7 0D       		.byte	0xd
 803 05c8 2203     		.2byte	0x322
 804 05ca 0C       		.byte	0xc
 805 05cb 24000000 		.4byte	0x24
 806 05cf 00       		.byte	0
 807 05d0 00       		.byte	0
 808 05d1 18       		.uleb128 0x18
 809 05d2 F2040000 		.4byte	.LASF85
 810 05d6 0D       		.byte	0xd
 811 05d7 D102     		.2byte	0x2d1
 812 05d9 08       		.byte	0x8
 813 05da 24000000 		.4byte	0x24
 814 05de 46060000 		.4byte	0x646
 815 05e2 15       		.uleb128 0x15
 816 05e3 11060000 		.4byte	.LASF82
 817 05e7 0D       		.byte	0xd
 818 05e8 D102     		.2byte	0x2d1
 819 05ea 30       		.byte	0x30
 820 05eb 9D050000 		.4byte	0x59d
 821 05ef 19       		.uleb128 0x19
 822 05f0 627000   		.ascii	"bp\000"
 823 05f3 0D       		.byte	0xd
 824 05f4 D102     		.2byte	0x2d1
 825 05f6 45       		.byte	0x45
 826 05f7 70040000 		.4byte	0x470
 827 05fb 19       		.uleb128 0x19
 828 05fc 6E00     		.ascii	"n\000"
 829 05fe 0D       		.byte	0xd
 830 05ff D202     		.2byte	0x2d2
 831 0601 1F       		.byte	0x1f
 832 0602 24000000 		.4byte	0x24
 833 0606 15       		.uleb128 0x15
 834 0607 6F020000 		.4byte	.LASF86
 835 060b 0D       		.byte	0xd
 836 060c D202     		.2byte	0x2d2
 837 060e 30       		.byte	0x30
 838 060f B1020000 		.4byte	0x2b1
 839 0613 1A       		.uleb128 0x1a
 840 0614 7700     		.ascii	"w\000"
 841 0616 0D       		.byte	0xd
 842 0617 D302     		.2byte	0x2d3
 843 0619 0A       		.byte	0xa
 844 061a 24000000 		.4byte	0x24
 845 061e 1B       		.uleb128 0x1b
 846 061f DF040000 		.4byte	.LASF90
 847 0623 56060000 		.4byte	0x656
 848 0627 16       		.uleb128 0x16
 849 0628 17       		.uleb128 0x17
 850 0629 8A020000 		.4byte	.LASF83
 851 062d 0D       		.byte	0xd
 852 062e DA02     		.2byte	0x2da
 853 0630 0C       		.byte	0xc
 854 0631 24000000 		.4byte	0x24
 855 0635 16       		.uleb128 0x16
ARM GAS  /tmp/ccpeSJ8z.s 			page 16


 856 0636 1A       		.uleb128 0x1a
 857 0637 6D736700 		.ascii	"msg\000"
 858 063b 0D       		.byte	0xd
 859 063c DE02     		.2byte	0x2de
 860 063e 0D       		.byte	0xd
 861 063f 24010000 		.4byte	0x124
 862 0643 00       		.byte	0
 863 0644 00       		.byte	0
 864 0645 00       		.byte	0
 865 0646 1C       		.uleb128 0x1c
 866 0647 B4000000 		.4byte	0xb4
 867 064b 56060000 		.4byte	0x656
 868 064f 1D       		.uleb128 0x1d
 869 0650 35000000 		.4byte	0x35
 870 0654 0F       		.byte	0xf
 871 0655 00       		.byte	0
 872 0656 07       		.uleb128 0x7
 873 0657 46060000 		.4byte	0x646
 874 065b 18       		.uleb128 0x18
 875 065c 6A010000 		.4byte	.LASF87
 876 0660 0D       		.byte	0xd
 877 0661 9F02     		.2byte	0x29f
 878 0663 07       		.byte	0x7
 879 0664 24010000 		.4byte	0x124
 880 0668 9F060000 		.4byte	0x69f
 881 066c 15       		.uleb128 0x15
 882 066d 11060000 		.4byte	.LASF82
 883 0671 0D       		.byte	0xd
 884 0672 9F02     		.2byte	0x29f
 885 0674 2D       		.byte	0x2d
 886 0675 9D050000 		.4byte	0x59d
 887 0679 19       		.uleb128 0x19
 888 067a 6200     		.ascii	"b\000"
 889 067c 0D       		.byte	0xd
 890 067d 9F02     		.2byte	0x29f
 891 067f 3B       		.byte	0x3b
 892 0680 BF000000 		.4byte	0xbf
 893 0684 15       		.uleb128 0x15
 894 0685 6F020000 		.4byte	.LASF86
 895 0689 0D       		.byte	0xd
 896 068a A002     		.2byte	0x2a0
 897 068c 23       		.byte	0x23
 898 068d B1020000 		.4byte	0x2b1
 899 0691 1A       		.uleb128 0x1a
 900 0692 6D736700 		.ascii	"msg\000"
 901 0696 0D       		.byte	0xd
 902 0697 A102     		.2byte	0x2a1
 903 0699 09       		.byte	0x9
 904 069a 24010000 		.4byte	0x124
 905 069e 00       		.byte	0
 906 069f 14       		.uleb128 0x14
 907 06a0 AC020000 		.4byte	.LASF89
 908 06a4 0D       		.byte	0xd
 909 06a5 7202     		.2byte	0x272
 910 06a7 06       		.byte	0x6
 911 06a8 D0060000 		.4byte	0x6d0
 912 06ac 15       		.uleb128 0x15
ARM GAS  /tmp/ccpeSJ8z.s 			page 17


 913 06ad 11060000 		.4byte	.LASF82
 914 06b1 0D       		.byte	0xd
 915 06b2 7202     		.2byte	0x272
 916 06b4 31       		.byte	0x31
 917 06b5 9D050000 		.4byte	0x59d
 918 06b9 15       		.uleb128 0x15
 919 06ba 8A020000 		.4byte	.LASF83
 920 06be 0D       		.byte	0xd
 921 06bf 7202     		.2byte	0x272
 922 06c1 3E       		.byte	0x3e
 923 06c2 24000000 		.4byte	0x24
 924 06c6 1B       		.uleb128 0x1b
 925 06c7 DF040000 		.4byte	.LASF90
 926 06cb E0060000 		.4byte	0x6e0
 927 06cf 00       		.byte	0
 928 06d0 1C       		.uleb128 0x1c
 929 06d1 B4000000 		.4byte	0xb4
 930 06d5 E0060000 		.4byte	0x6e0
 931 06d9 1D       		.uleb128 0x1d
 932 06da 35000000 		.4byte	0x35
 933 06de 12       		.byte	0x12
 934 06df 00       		.byte	0
 935 06e0 07       		.uleb128 0x7
 936 06e1 D0060000 		.4byte	0x6d0
 937 06e5 14       		.uleb128 0x14
 938 06e6 7B050000 		.4byte	.LASF91
 939 06ea 0D       		.byte	0xd
 940 06eb 6202     		.2byte	0x262
 941 06ed 06       		.byte	0x6
 942 06ee 0D070000 		.4byte	0x70d
 943 06f2 15       		.uleb128 0x15
 944 06f3 11060000 		.4byte	.LASF82
 945 06f7 0D       		.byte	0xd
 946 06f8 6202     		.2byte	0x262
 947 06fa 30       		.byte	0x30
 948 06fb 9D050000 		.4byte	0x59d
 949 06ff 15       		.uleb128 0x15
 950 0700 8A020000 		.4byte	.LASF83
 951 0704 0D       		.byte	0xd
 952 0705 6202     		.2byte	0x262
 953 0707 3D       		.byte	0x3d
 954 0708 24000000 		.4byte	0x24
 955 070c 00       		.byte	0
 956 070d 18       		.uleb128 0x18
 957 070e BD060000 		.4byte	.LASF92
 958 0712 0D       		.byte	0xd
 959 0713 4102     		.2byte	0x241
 960 0715 07       		.byte	0x7
 961 0716 24010000 		.4byte	0x124
 962 071a 51070000 		.4byte	0x751
 963 071e 15       		.uleb128 0x15
 964 071f 11060000 		.4byte	.LASF82
 965 0723 0D       		.byte	0xd
 966 0724 4102     		.2byte	0x241
 967 0726 39       		.byte	0x39
 968 0727 9D050000 		.4byte	0x59d
 969 072b 15       		.uleb128 0x15
ARM GAS  /tmp/ccpeSJ8z.s 			page 18


 970 072c 6F020000 		.4byte	.LASF86
 971 0730 0D       		.byte	0xd
 972 0731 4202     		.2byte	0x242
 973 0733 2F       		.byte	0x2f
 974 0734 B1020000 		.4byte	0x2b1
 975 0738 1B       		.uleb128 0x1b
 976 0739 DF040000 		.4byte	.LASF90
 977 073d 61070000 		.4byte	0x761
 978 0741 16       		.uleb128 0x16
 979 0742 1A       		.uleb128 0x1a
 980 0743 6D736700 		.ascii	"msg\000"
 981 0747 0D       		.byte	0xd
 982 0748 4A02     		.2byte	0x24a
 983 074a 0B       		.byte	0xb
 984 074b 24010000 		.4byte	0x124
 985 074f 00       		.byte	0
 986 0750 00       		.byte	0
 987 0751 1C       		.uleb128 0x1c
 988 0752 B4000000 		.4byte	0xb4
 989 0756 61070000 		.4byte	0x761
 990 075a 1D       		.uleb128 0x1d
 991 075b 35000000 		.4byte	0x35
 992 075f 19       		.byte	0x19
 993 0760 00       		.byte	0
 994 0761 07       		.uleb128 0x7
 995 0762 51070000 		.4byte	0x751
 996 0766 18       		.uleb128 0x18
 997 0767 24060000 		.4byte	.LASF93
 998 076b 0D       		.byte	0xd
 999 076c 2102     		.2byte	0x221
 1000 076e 07       		.byte	0x7
 1001 076f 24010000 		.4byte	0x124
 1002 0773 9F070000 		.4byte	0x79f
 1003 0777 15       		.uleb128 0x15
 1004 0778 11060000 		.4byte	.LASF82
 1005 077c 0D       		.byte	0xd
 1006 077d 2102     		.2byte	0x221
 1007 077f 38       		.byte	0x38
 1008 0780 9D050000 		.4byte	0x59d
 1009 0784 15       		.uleb128 0x15
 1010 0785 6F020000 		.4byte	.LASF86
 1011 0789 0D       		.byte	0xd
 1012 078a 2202     		.2byte	0x222
 1013 078c 2E       		.byte	0x2e
 1014 078d B1020000 		.4byte	0x2b1
 1015 0791 1A       		.uleb128 0x1a
 1016 0792 6D736700 		.ascii	"msg\000"
 1017 0796 0D       		.byte	0xd
 1018 0797 2302     		.2byte	0x223
 1019 0799 09       		.byte	0x9
 1020 079a 24010000 		.4byte	0x124
 1021 079e 00       		.byte	0
 1022 079f 14       		.uleb128 0x14
 1023 07a0 F2050000 		.4byte	.LASF94
 1024 07a4 0D       		.byte	0xd
 1025 07a5 FC01     		.2byte	0x1fc
 1026 07a7 06       		.byte	0x6
ARM GAS  /tmp/ccpeSJ8z.s 			page 19


 1027 07a8 C3070000 		.4byte	0x7c3
 1028 07ac 15       		.uleb128 0x15
 1029 07ad 11060000 		.4byte	.LASF82
 1030 07b1 0D       		.byte	0xd
 1031 07b2 FC01     		.2byte	0x1fc
 1032 07b4 35       		.byte	0x35
 1033 07b5 9D050000 		.4byte	0x59d
 1034 07b9 1B       		.uleb128 0x1b
 1035 07ba DF040000 		.4byte	.LASF90
 1036 07be D3070000 		.4byte	0x7d3
 1037 07c2 00       		.byte	0
 1038 07c3 1C       		.uleb128 0x1c
 1039 07c4 B4000000 		.4byte	0xb4
 1040 07c8 D3070000 		.4byte	0x7d3
 1041 07cc 1D       		.uleb128 0x1d
 1042 07cd 35000000 		.4byte	0x35
 1043 07d1 16       		.byte	0x16
 1044 07d2 00       		.byte	0
 1045 07d3 07       		.uleb128 0x7
 1046 07d4 C3070000 		.4byte	0x7c3
 1047 07d8 18       		.uleb128 0x18
 1048 07d9 D6000000 		.4byte	.LASF95
 1049 07dd 0D       		.byte	0xd
 1050 07de E601     		.2byte	0x1e6
 1051 07e0 0A       		.byte	0xa
 1052 07e1 6A040000 		.4byte	0x46a
 1053 07e5 04080000 		.4byte	0x804
 1054 07e9 15       		.uleb128 0x15
 1055 07ea 11060000 		.4byte	.LASF82
 1056 07ee 0D       		.byte	0xd
 1057 07ef E601     		.2byte	0x1e6
 1058 07f1 34       		.byte	0x34
 1059 07f2 9D050000 		.4byte	0x59d
 1060 07f6 15       		.uleb128 0x15
 1061 07f7 D3050000 		.4byte	.LASF96
 1062 07fb 0D       		.byte	0xd
 1063 07fc E701     		.2byte	0x1e7
 1064 07fe 24       		.byte	0x24
 1065 07ff 04080000 		.4byte	0x804
 1066 0803 00       		.byte	0
 1067 0804 08       		.uleb128 0x8
 1068 0805 04       		.byte	0x4
 1069 0806 24000000 		.4byte	0x24
 1070 080a 14       		.uleb128 0x14
 1071 080b 2B040000 		.4byte	.LASF97
 1072 080f 0D       		.byte	0xd
 1073 0810 CF01     		.2byte	0x1cf
 1074 0812 06       		.byte	0x6
 1075 0813 25080000 		.4byte	0x825
 1076 0817 15       		.uleb128 0x15
 1077 0818 11060000 		.4byte	.LASF82
 1078 081c 0D       		.byte	0xd
 1079 081d CF01     		.2byte	0x1cf
 1080 081f 28       		.byte	0x28
 1081 0820 9D050000 		.4byte	0x59d
 1082 0824 00       		.byte	0
 1083 0825 14       		.uleb128 0x14
ARM GAS  /tmp/ccpeSJ8z.s 			page 20


 1084 0826 02010000 		.4byte	.LASF98
 1085 082a 0D       		.byte	0xd
 1086 082b B001     		.2byte	0x1b0
 1087 082d 06       		.byte	0x6
 1088 082e 94080000 		.4byte	0x894
 1089 0832 15       		.uleb128 0x15
 1090 0833 11060000 		.4byte	.LASF82
 1091 0837 0D       		.byte	0xd
 1092 0838 B001     		.2byte	0x1b0
 1093 083a 2C       		.byte	0x2c
 1094 083b 9D050000 		.4byte	0x59d
 1095 083f 15       		.uleb128 0x15
 1096 0840 1C040000 		.4byte	.LASF70
 1097 0844 0D       		.byte	0xd
 1098 0845 B001     		.2byte	0x1b0
 1099 0847 37       		.byte	0x37
 1100 0848 63040000 		.4byte	0x463
 1101 084c 19       		.uleb128 0x19
 1102 084d 627000   		.ascii	"bp\000"
 1103 0850 0D       		.byte	0xd
 1104 0851 B001     		.2byte	0x1b0
 1105 0853 4B       		.byte	0x4b
 1106 0854 6A040000 		.4byte	0x46a
 1107 0858 15       		.uleb128 0x15
 1108 0859 8A020000 		.4byte	.LASF83
 1109 085d 0D       		.byte	0xd
 1110 085e B101     		.2byte	0x1b1
 1111 0860 1B       		.byte	0x1b
 1112 0861 24000000 		.4byte	0x24
 1113 0865 19       		.uleb128 0x19
 1114 0866 6E00     		.ascii	"n\000"
 1115 0868 0D       		.byte	0xd
 1116 0869 B101     		.2byte	0x1b1
 1117 086b 28       		.byte	0x28
 1118 086c 24000000 		.4byte	0x24
 1119 0870 15       		.uleb128 0x15
 1120 0871 13000000 		.4byte	.LASF99
 1121 0875 0D       		.byte	0xd
 1122 0876 B101     		.2byte	0x1b1
 1123 0878 36       		.byte	0x36
 1124 0879 38050000 		.4byte	0x538
 1125 087d 15       		.uleb128 0x15
 1126 087e BA010000 		.4byte	.LASF78
 1127 0882 0D       		.byte	0xd
 1128 0883 B101     		.2byte	0x1b1
 1129 0885 42       		.byte	0x42
 1130 0886 AB000000 		.4byte	0xab
 1131 088a 1B       		.uleb128 0x1b
 1132 088b DF040000 		.4byte	.LASF90
 1133 088f A4080000 		.4byte	0x8a4
 1134 0893 00       		.byte	0
 1135 0894 1C       		.uleb128 0x1c
 1136 0895 B4000000 		.4byte	0xb4
 1137 0899 A4080000 		.4byte	0x8a4
 1138 089d 1D       		.uleb128 0x1d
 1139 089e 35000000 		.4byte	0x35
 1140 08a2 0D       		.byte	0xd
ARM GAS  /tmp/ccpeSJ8z.s 			page 21


 1141 08a3 00       		.byte	0
 1142 08a4 07       		.uleb128 0x7
 1143 08a5 94080000 		.4byte	0x894
 1144 08a9 18       		.uleb128 0x18
 1145 08aa 46010000 		.4byte	.LASF100
 1146 08ae 0D       		.byte	0xd
 1147 08af 6601     		.2byte	0x166
 1148 08b1 08       		.byte	0x8
 1149 08b2 24000000 		.4byte	0x24
 1150 08b6 1E090000 		.4byte	0x91e
 1151 08ba 15       		.uleb128 0x15
 1152 08bb 45040000 		.4byte	.LASF101
 1153 08bf 0D       		.byte	0xd
 1154 08c0 6601     		.2byte	0x166
 1155 08c2 2E       		.byte	0x2e
 1156 08c3 1E090000 		.4byte	0x91e
 1157 08c7 19       		.uleb128 0x19
 1158 08c8 627000   		.ascii	"bp\000"
 1159 08cb 0D       		.byte	0xd
 1160 08cc 6601     		.2byte	0x166
 1161 08ce 3D       		.byte	0x3d
 1162 08cf 6A040000 		.4byte	0x46a
 1163 08d3 19       		.uleb128 0x19
 1164 08d4 6E00     		.ascii	"n\000"
 1165 08d6 0D       		.byte	0xd
 1166 08d7 6701     		.2byte	0x167
 1167 08d9 1E       		.byte	0x1e
 1168 08da 24000000 		.4byte	0x24
 1169 08de 15       		.uleb128 0x15
 1170 08df 6F020000 		.4byte	.LASF86
 1171 08e3 0D       		.byte	0xd
 1172 08e4 6701     		.2byte	0x167
 1173 08e6 2F       		.byte	0x2f
 1174 08e7 B1020000 		.4byte	0x2b1
 1175 08eb 1A       		.uleb128 0x1a
 1176 08ec 7200     		.ascii	"r\000"
 1177 08ee 0D       		.byte	0xd
 1178 08ef 6801     		.2byte	0x168
 1179 08f1 0A       		.byte	0xa
 1180 08f2 24000000 		.4byte	0x24
 1181 08f6 1B       		.uleb128 0x1b
 1182 08f7 DF040000 		.4byte	.LASF90
 1183 08fb 34090000 		.4byte	0x934
 1184 08ff 16       		.uleb128 0x16
 1185 0900 17       		.uleb128 0x17
 1186 0901 8A020000 		.4byte	.LASF83
 1187 0905 0D       		.byte	0xd
 1188 0906 6F01     		.2byte	0x16f
 1189 0908 0C       		.byte	0xc
 1190 0909 24000000 		.4byte	0x24
 1191 090d 16       		.uleb128 0x16
 1192 090e 1A       		.uleb128 0x1a
 1193 090f 6D736700 		.ascii	"msg\000"
 1194 0913 0D       		.byte	0xd
 1195 0914 7301     		.2byte	0x173
 1196 0916 0D       		.byte	0xd
 1197 0917 24010000 		.4byte	0x124
ARM GAS  /tmp/ccpeSJ8z.s 			page 22


 1198 091b 00       		.byte	0
 1199 091c 00       		.byte	0
 1200 091d 00       		.byte	0
 1201 091e 08       		.uleb128 0x8
 1202 091f 04       		.byte	0x4
 1203 0920 5B050000 		.4byte	0x55b
 1204 0924 1C       		.uleb128 0x1c
 1205 0925 B4000000 		.4byte	0xb4
 1206 0929 34090000 		.4byte	0x934
 1207 092d 1D       		.uleb128 0x1d
 1208 092e 35000000 		.4byte	0x35
 1209 0932 0E       		.byte	0xe
 1210 0933 00       		.byte	0
 1211 0934 07       		.uleb128 0x7
 1212 0935 24090000 		.4byte	0x924
 1213 0939 18       		.uleb128 0x18
 1214 093a 38010000 		.4byte	.LASF102
 1215 093e 0D       		.byte	0xd
 1216 093f 3501     		.2byte	0x135
 1217 0941 07       		.byte	0x7
 1218 0942 24010000 		.4byte	0x124
 1219 0946 72090000 		.4byte	0x972
 1220 094a 15       		.uleb128 0x15
 1221 094b 45040000 		.4byte	.LASF101
 1222 094f 0D       		.byte	0xd
 1223 0950 3501     		.2byte	0x135
 1224 0952 2C       		.byte	0x2c
 1225 0953 1E090000 		.4byte	0x91e
 1226 0957 15       		.uleb128 0x15
 1227 0958 6F020000 		.4byte	.LASF86
 1228 095c 0D       		.byte	0xd
 1229 095d 3501     		.2byte	0x135
 1230 095f 40       		.byte	0x40
 1231 0960 B1020000 		.4byte	0x2b1
 1232 0964 1A       		.uleb128 0x1a
 1233 0965 6D736700 		.ascii	"msg\000"
 1234 0969 0D       		.byte	0xd
 1235 096a 3601     		.2byte	0x136
 1236 096c 09       		.byte	0x9
 1237 096d 24010000 		.4byte	0x124
 1238 0971 00       		.byte	0
 1239 0972 14       		.uleb128 0x14
 1240 0973 9D000000 		.4byte	.LASF103
 1241 0977 0D       		.byte	0xd
 1242 0978 0D01     		.2byte	0x10d
 1243 097a 08       		.byte	0x8
 1244 097b 96090000 		.4byte	0x996
 1245 097f 15       		.uleb128 0x15
 1246 0980 45040000 		.4byte	.LASF101
 1247 0984 0D       		.byte	0xd
 1248 0985 0D01     		.2byte	0x10d
 1249 0987 36       		.byte	0x36
 1250 0988 1E090000 		.4byte	0x91e
 1251 098c 1B       		.uleb128 0x1b
 1252 098d DF040000 		.4byte	.LASF90
 1253 0991 D3070000 		.4byte	0x7d3
 1254 0995 00       		.byte	0
ARM GAS  /tmp/ccpeSJ8z.s 			page 23


 1255 0996 1E       		.uleb128 0x1e
 1256 0997 6E060000 		.4byte	.LASF104
 1257 099b 0D       		.byte	0xd
 1258 099c FE       		.byte	0xfe
 1259 099d 06       		.byte	0x6
 1260 099e AF090000 		.4byte	0x9af
 1261 09a2 1F       		.uleb128 0x1f
 1262 09a3 45040000 		.4byte	.LASF101
 1263 09a7 0D       		.byte	0xd
 1264 09a8 FE       		.byte	0xfe
 1265 09a9 33       		.byte	0x33
 1266 09aa 1E090000 		.4byte	0x91e
 1267 09ae 00       		.byte	0
 1268 09af 20       		.uleb128 0x20
 1269 09b0 96010000 		.4byte	.LASF105
 1270 09b4 0D       		.byte	0xd
 1271 09b5 DE       		.byte	0xde
 1272 09b6 09       		.byte	0x9
 1273 09b7 24010000 		.4byte	0x124
 1274 09bb EF090000 		.4byte	0x9ef
 1275 09bf 1F       		.uleb128 0x1f
 1276 09c0 45040000 		.4byte	.LASF101
 1277 09c4 0D       		.byte	0xd
 1278 09c5 DE       		.byte	0xde
 1279 09c6 39       		.byte	0x39
 1280 09c7 1E090000 		.4byte	0x91e
 1281 09cb 1F       		.uleb128 0x1f
 1282 09cc 6F020000 		.4byte	.LASF86
 1283 09d0 0D       		.byte	0xd
 1284 09d1 DF       		.byte	0xdf
 1285 09d2 30       		.byte	0x30
 1286 09d3 B1020000 		.4byte	0x2b1
 1287 09d7 1B       		.uleb128 0x1b
 1288 09d8 DF040000 		.4byte	.LASF90
 1289 09dc FF090000 		.4byte	0x9ff
 1290 09e0 16       		.uleb128 0x16
 1291 09e1 21       		.uleb128 0x21
 1292 09e2 6D736700 		.ascii	"msg\000"
 1293 09e6 0D       		.byte	0xd
 1294 09e7 E7       		.byte	0xe7
 1295 09e8 0B       		.byte	0xb
 1296 09e9 24010000 		.4byte	0x124
 1297 09ed 00       		.byte	0
 1298 09ee 00       		.byte	0
 1299 09ef 1C       		.uleb128 0x1c
 1300 09f0 B4000000 		.4byte	0xb4
 1301 09f4 FF090000 		.4byte	0x9ff
 1302 09f8 1D       		.uleb128 0x1d
 1303 09f9 35000000 		.4byte	0x35
 1304 09fd 18       		.byte	0x18
 1305 09fe 00       		.byte	0
 1306 09ff 07       		.uleb128 0x7
 1307 0a00 EF090000 		.4byte	0x9ef
 1308 0a04 20       		.uleb128 0x20
 1309 0a05 B1040000 		.4byte	.LASF106
 1310 0a09 0D       		.byte	0xd
 1311 0a0a BE       		.byte	0xbe
ARM GAS  /tmp/ccpeSJ8z.s 			page 24


 1312 0a0b 07       		.byte	0x7
 1313 0a0c 24010000 		.4byte	0x124
 1314 0a10 390A0000 		.4byte	0xa39
 1315 0a14 1F       		.uleb128 0x1f
 1316 0a15 45040000 		.4byte	.LASF101
 1317 0a19 0D       		.byte	0xd
 1318 0a1a BE       		.byte	0xbe
 1319 0a1b 36       		.byte	0x36
 1320 0a1c 1E090000 		.4byte	0x91e
 1321 0a20 1F       		.uleb128 0x1f
 1322 0a21 6F020000 		.4byte	.LASF86
 1323 0a25 0D       		.byte	0xd
 1324 0a26 BF       		.byte	0xbf
 1325 0a27 2D       		.byte	0x2d
 1326 0a28 B1020000 		.4byte	0x2b1
 1327 0a2c 21       		.uleb128 0x21
 1328 0a2d 6D736700 		.ascii	"msg\000"
 1329 0a31 0D       		.byte	0xd
 1330 0a32 C0       		.byte	0xc0
 1331 0a33 09       		.byte	0x9
 1332 0a34 24010000 		.4byte	0x124
 1333 0a38 00       		.byte	0
 1334 0a39 1E       		.uleb128 0x1e
 1335 0a3a 09040000 		.4byte	.LASF107
 1336 0a3e 0D       		.byte	0xd
 1337 0a3f 94       		.byte	0x94
 1338 0a40 06       		.byte	0x6
 1339 0a41 670A0000 		.4byte	0xa67
 1340 0a45 1F       		.uleb128 0x1f
 1341 0a46 45040000 		.4byte	.LASF101
 1342 0a4a 0D       		.byte	0xd
 1343 0a4b 94       		.byte	0x94
 1344 0a4c 30       		.byte	0x30
 1345 0a4d 1E090000 		.4byte	0x91e
 1346 0a51 1F       		.uleb128 0x1f
 1347 0a52 8A020000 		.4byte	.LASF83
 1348 0a56 0D       		.byte	0xd
 1349 0a57 94       		.byte	0x94
 1350 0a58 3D       		.byte	0x3d
 1351 0a59 24000000 		.4byte	0x24
 1352 0a5d 1B       		.uleb128 0x1b
 1353 0a5e DF040000 		.4byte	.LASF90
 1354 0a62 E0060000 		.4byte	0x6e0
 1355 0a66 00       		.byte	0
 1356 0a67 20       		.uleb128 0x20
 1357 0a68 00000000 		.4byte	.LASF108
 1358 0a6c 0D       		.byte	0xd
 1359 0a6d 81       		.byte	0x81
 1360 0a6e 0A       		.byte	0xa
 1361 0a6f 6A040000 		.4byte	0x46a
 1362 0a73 840A0000 		.4byte	0xa84
 1363 0a77 1F       		.uleb128 0x1f
 1364 0a78 45040000 		.4byte	.LASF101
 1365 0a7c 0D       		.byte	0xd
 1366 0a7d 81       		.byte	0x81
 1367 0a7e 34       		.byte	0x34
 1368 0a7f 1E090000 		.4byte	0x91e
ARM GAS  /tmp/ccpeSJ8z.s 			page 25


 1369 0a83 00       		.byte	0
 1370 0a84 1E       		.uleb128 0x1e
 1371 0a85 A7040000 		.4byte	.LASF109
 1372 0a89 0D       		.byte	0xd
 1373 0a8a 6B       		.byte	0x6b
 1374 0a8b 06       		.byte	0x6
 1375 0a8c 9D0A0000 		.4byte	0xa9d
 1376 0a90 1F       		.uleb128 0x1f
 1377 0a91 45040000 		.4byte	.LASF101
 1378 0a95 0D       		.byte	0xd
 1379 0a96 6B       		.byte	0x6b
 1380 0a97 27       		.byte	0x27
 1381 0a98 1E090000 		.4byte	0x91e
 1382 0a9c 00       		.byte	0
 1383 0a9d 1E       		.uleb128 0x1e
 1384 0a9e BC000000 		.4byte	.LASF110
 1385 0aa2 0D       		.byte	0xd
 1386 0aa3 4C       		.byte	0x4c
 1387 0aa4 06       		.byte	0x6
 1388 0aa5 040B0000 		.4byte	0xb04
 1389 0aa9 1F       		.uleb128 0x1f
 1390 0aaa 45040000 		.4byte	.LASF101
 1391 0aae 0D       		.byte	0xd
 1392 0aaf 4C       		.byte	0x4c
 1393 0ab0 2B       		.byte	0x2b
 1394 0ab1 1E090000 		.4byte	0x91e
 1395 0ab5 1F       		.uleb128 0x1f
 1396 0ab6 1C040000 		.4byte	.LASF70
 1397 0aba 0D       		.byte	0xd
 1398 0abb 4C       		.byte	0x4c
 1399 0abc 36       		.byte	0x36
 1400 0abd 63040000 		.4byte	0x463
 1401 0ac1 22       		.uleb128 0x22
 1402 0ac2 627000   		.ascii	"bp\000"
 1403 0ac5 0D       		.byte	0xd
 1404 0ac6 4C       		.byte	0x4c
 1405 0ac7 4A       		.byte	0x4a
 1406 0ac8 6A040000 		.4byte	0x46a
 1407 0acc 1F       		.uleb128 0x1f
 1408 0acd 8A020000 		.4byte	.LASF83
 1409 0ad1 0D       		.byte	0xd
 1410 0ad2 4D       		.byte	0x4d
 1411 0ad3 1B       		.byte	0x1b
 1412 0ad4 24000000 		.4byte	0x24
 1413 0ad8 22       		.uleb128 0x22
 1414 0ad9 6E00     		.ascii	"n\000"
 1415 0adb 0D       		.byte	0xd
 1416 0adc 4D       		.byte	0x4d
 1417 0add 28       		.byte	0x28
 1418 0ade 24000000 		.4byte	0x24
 1419 0ae2 1F       		.uleb128 0x1f
 1420 0ae3 DA040000 		.4byte	.LASF111
 1421 0ae7 0D       		.byte	0xd
 1422 0ae8 4D       		.byte	0x4d
 1423 0ae9 36       		.byte	0x36
 1424 0aea 38050000 		.4byte	0x538
 1425 0aee 1F       		.uleb128 0x1f
ARM GAS  /tmp/ccpeSJ8z.s 			page 26


 1426 0aef BA010000 		.4byte	.LASF78
 1427 0af3 0D       		.byte	0xd
 1428 0af4 4D       		.byte	0x4d
 1429 0af5 42       		.byte	0x42
 1430 0af6 AB000000 		.4byte	0xab
 1431 0afa 1B       		.uleb128 0x1b
 1432 0afb DF040000 		.4byte	.LASF90
 1433 0aff A4080000 		.4byte	0x8a4
 1434 0b03 00       		.byte	0
 1435 0b04 23       		.uleb128 0x23
 1436 0b05 84060000 		.4byte	.LASF112
 1437 0b09 0E       		.byte	0xe
 1438 0b0a 5703     		.2byte	0x357
 1439 0b0c 14       		.byte	0x14
 1440 0b0d 2C0B0000 		.4byte	0xb2c
 1441 0b11 19       		.uleb128 0x19
 1442 0b12 74717000 		.ascii	"tqp\000"
 1443 0b16 0E       		.byte	0xe
 1444 0b17 5703     		.2byte	0x357
 1445 0b19 3B       		.byte	0x3b
 1446 0b1a 2C0B0000 		.4byte	0xb2c
 1447 0b1e 19       		.uleb128 0x19
 1448 0b1f 6D736700 		.ascii	"msg\000"
 1449 0b23 0E       		.byte	0xe
 1450 0b24 5703     		.2byte	0x357
 1451 0b26 46       		.byte	0x46
 1452 0b27 24010000 		.4byte	0x124
 1453 0b2b 00       		.byte	0
 1454 0b2c 08       		.uleb128 0x8
 1455 0b2d 04       		.byte	0x4
 1456 0b2e 7D020000 		.4byte	0x27d
 1457 0b32 23       		.uleb128 0x23
 1458 0b33 10010000 		.4byte	.LASF113
 1459 0b37 0E       		.byte	0xe
 1460 0b38 4A03     		.2byte	0x34a
 1461 0b3a 14       		.byte	0x14
 1462 0b3b 5A0B0000 		.4byte	0xb5a
 1463 0b3f 19       		.uleb128 0x19
 1464 0b40 74717000 		.ascii	"tqp\000"
 1465 0b44 0E       		.byte	0xe
 1466 0b45 4A03     		.2byte	0x34a
 1467 0b47 3C       		.byte	0x3c
 1468 0b48 2C0B0000 		.4byte	0xb2c
 1469 0b4c 19       		.uleb128 0x19
 1470 0b4d 6D736700 		.ascii	"msg\000"
 1471 0b51 0E       		.byte	0xe
 1472 0b52 4A03     		.2byte	0x34a
 1473 0b54 47       		.byte	0x47
 1474 0b55 24010000 		.4byte	0x124
 1475 0b59 00       		.byte	0
 1476 0b5a 24       		.uleb128 0x24
 1477 0b5b D0020000 		.4byte	.LASF127
 1478 0b5f 0E       		.byte	0xe
 1479 0b60 3C03     		.2byte	0x33c
 1480 0b62 15       		.byte	0x15
 1481 0b63 24010000 		.4byte	0x124
 1482 0b67 860B0000 		.4byte	0xb86
ARM GAS  /tmp/ccpeSJ8z.s 			page 27


 1483 0b6b 19       		.uleb128 0x19
 1484 0b6c 74717000 		.ascii	"tqp\000"
 1485 0b70 0E       		.byte	0xe
 1486 0b71 3C03     		.2byte	0x33c
 1487 0b73 40       		.byte	0x40
 1488 0b74 2C0B0000 		.4byte	0xb2c
 1489 0b78 15       		.uleb128 0x15
 1490 0b79 6F020000 		.4byte	.LASF86
 1491 0b7d 0E       		.byte	0xe
 1492 0b7e 3D03     		.2byte	0x33d
 1493 0b80 3D       		.byte	0x3d
 1494 0b81 B1020000 		.4byte	0x2b1
 1495 0b85 00       		.byte	0
 1496 0b86 23       		.uleb128 0x23
 1497 0b87 AE050000 		.4byte	.LASF114
 1498 0b8b 0E       		.byte	0xe
 1499 0b8c 2003     		.2byte	0x320
 1500 0b8e 14       		.byte	0x14
 1501 0b8f A10B0000 		.4byte	0xba1
 1502 0b93 19       		.uleb128 0x19
 1503 0b94 74717000 		.ascii	"tqp\000"
 1504 0b98 0E       		.byte	0xe
 1505 0b99 2003     		.2byte	0x320
 1506 0b9b 3F       		.byte	0x3f
 1507 0b9c 2C0B0000 		.4byte	0xb2c
 1508 0ba0 00       		.byte	0
 1509 0ba1 25       		.uleb128 0x25
 1510 0ba2 02050000 		.4byte	.LASF115
 1511 0ba6 0E       		.byte	0xe
 1512 0ba7 0802     		.2byte	0x208
 1513 0ba9 14       		.byte	0x14
 1514 0baa 25       		.uleb128 0x25
 1515 0bab 11020000 		.4byte	.LASF116
 1516 0baf 0E       		.byte	0xe
 1517 0bb0 FD01     		.2byte	0x1fd
 1518 0bb2 14       		.byte	0x14
 1519 0bb3 23       		.uleb128 0x23
 1520 0bb4 CC030000 		.4byte	.LASF117
 1521 0bb8 0F       		.byte	0xf
 1522 0bb9 8801     		.2byte	0x188
 1523 0bbb 14       		.byte	0x14
 1524 0bbc CE0B0000 		.4byte	0xbce
 1525 0bc0 19       		.uleb128 0x19
 1526 0bc1 74717000 		.ascii	"tqp\000"
 1527 0bc5 0F       		.byte	0xf
 1528 0bc6 8801     		.2byte	0x188
 1529 0bc8 3A       		.byte	0x3a
 1530 0bc9 2C0B0000 		.4byte	0xb2c
 1531 0bcd 00       		.byte	0
 1532 0bce 23       		.uleb128 0x23
 1533 0bcf A9060000 		.4byte	.LASF118
 1534 0bd3 10       		.byte	0x10
 1535 0bd4 6D01     		.2byte	0x16d
 1536 0bd6 14       		.byte	0x14
 1537 0bd7 E50B0000 		.4byte	0xbe5
 1538 0bdb 1B       		.uleb128 0x1b
 1539 0bdc DF040000 		.4byte	.LASF90
ARM GAS  /tmp/ccpeSJ8z.s 			page 28


 1540 0be0 F50B0000 		.4byte	0xbf5
 1541 0be4 00       		.byte	0
 1542 0be5 1C       		.uleb128 0x1c
 1543 0be6 B4000000 		.4byte	0xb4
 1544 0bea F50B0000 		.4byte	0xbf5
 1545 0bee 1D       		.uleb128 0x1d
 1546 0bef 35000000 		.4byte	0x35
 1547 0bf3 0B       		.byte	0xb
 1548 0bf4 00       		.byte	0
 1549 0bf5 07       		.uleb128 0x7
 1550 0bf6 E50B0000 		.4byte	0xbe5
 1551 0bfa 25       		.uleb128 0x25
 1552 0bfb E8040000 		.4byte	.LASF119
 1553 0bff 10       		.byte	0x10
 1554 0c00 6101     		.2byte	0x161
 1555 0c02 14       		.byte	0x14
 1556 0c03 23       		.uleb128 0x23
 1557 0c04 5B000000 		.4byte	.LASF120
 1558 0c08 06       		.byte	0x6
 1559 0c09 1902     		.2byte	0x219
 1560 0c0b 14       		.byte	0x14
 1561 0c0c 1E0C0000 		.4byte	0xc1e
 1562 0c10 19       		.uleb128 0x19
 1563 0c11 74717000 		.ascii	"tqp\000"
 1564 0c15 06       		.byte	0x6
 1565 0c16 1902     		.2byte	0x219
 1566 0c18 30       		.byte	0x30
 1567 0c19 2C0B0000 		.4byte	0xb2c
 1568 0c1d 00       		.byte	0
 1569 0c1e 25       		.uleb128 0x25
 1570 0c1f 55010000 		.4byte	.LASF121
 1571 0c23 09       		.byte	0x9
 1572 0c24 B502     		.2byte	0x2b5
 1573 0c26 1B       		.byte	0x1b
 1574 0c27 25       		.uleb128 0x25
 1575 0c28 66000000 		.4byte	.LASF122
 1576 0c2c 09       		.byte	0x9
 1577 0c2d 9D02     		.2byte	0x29d
 1578 0c2f 1B       		.byte	0x1b
 1579 0c30 26       		.uleb128 0x26
 1580 0c31 A0050000 		.4byte	.LASF128
 1581 0c35 11       		.byte	0x11
 1582 0c36 EB01     		.2byte	0x1eb
 1583 0c38 1B       		.byte	0x1b
 1584 0c39 15       		.uleb128 0x15
 1585 0c3a 09060000 		.4byte	.LASF123
 1586 0c3e 11       		.byte	0x11
 1587 0c3f EB01     		.2byte	0x1eb
 1588 0c41 32       		.byte	0x32
 1589 0c42 DC000000 		.4byte	0xdc
 1590 0c46 00       		.byte	0
 1591 0c47 00       		.byte	0
 1592              		.section	.gnu.debuglto_.debug_abbrev,"e",%progbits
 1593              	.Ldebug_abbrev0:
 1594 0000 01       		.uleb128 0x1
 1595 0001 11       		.uleb128 0x11
 1596 0002 01       		.byte	0x1
ARM GAS  /tmp/ccpeSJ8z.s 			page 29


 1597 0003 25       		.uleb128 0x25
 1598 0004 0E       		.uleb128 0xe
 1599 0005 13       		.uleb128 0x13
 1600 0006 0B       		.uleb128 0xb
 1601 0007 03       		.uleb128 0x3
 1602 0008 0E       		.uleb128 0xe
 1603 0009 1B       		.uleb128 0x1b
 1604 000a 0E       		.uleb128 0xe
 1605 000b 10       		.uleb128 0x10
 1606 000c 17       		.uleb128 0x17
 1607 000d 00       		.byte	0
 1608 000e 00       		.byte	0
 1609 000f 02       		.uleb128 0x2
 1610 0010 24       		.uleb128 0x24
 1611 0011 00       		.byte	0
 1612 0012 0B       		.uleb128 0xb
 1613 0013 0B       		.uleb128 0xb
 1614 0014 3E       		.uleb128 0x3e
 1615 0015 0B       		.uleb128 0xb
 1616 0016 03       		.uleb128 0x3
 1617 0017 08       		.uleb128 0x8
 1618 0018 00       		.byte	0
 1619 0019 00       		.byte	0
 1620 001a 03       		.uleb128 0x3
 1621 001b 16       		.uleb128 0x16
 1622 001c 00       		.byte	0
 1623 001d 03       		.uleb128 0x3
 1624 001e 0E       		.uleb128 0xe
 1625 001f 3A       		.uleb128 0x3a
 1626 0020 0B       		.uleb128 0xb
 1627 0021 3B       		.uleb128 0x3b
 1628 0022 0B       		.uleb128 0xb
 1629 0023 39       		.uleb128 0x39
 1630 0024 0B       		.uleb128 0xb
 1631 0025 49       		.uleb128 0x49
 1632 0026 13       		.uleb128 0x13
 1633 0027 00       		.byte	0
 1634 0028 00       		.byte	0
 1635 0029 04       		.uleb128 0x4
 1636 002a 35       		.uleb128 0x35
 1637 002b 00       		.byte	0
 1638 002c 49       		.uleb128 0x49
 1639 002d 13       		.uleb128 0x13
 1640 002e 00       		.byte	0
 1641 002f 00       		.byte	0
 1642 0030 05       		.uleb128 0x5
 1643 0031 24       		.uleb128 0x24
 1644 0032 00       		.byte	0
 1645 0033 0B       		.uleb128 0xb
 1646 0034 0B       		.uleb128 0xb
 1647 0035 3E       		.uleb128 0x3e
 1648 0036 0B       		.uleb128 0xb
 1649 0037 03       		.uleb128 0x3
 1650 0038 0E       		.uleb128 0xe
 1651 0039 00       		.byte	0
 1652 003a 00       		.byte	0
 1653 003b 06       		.uleb128 0x6
ARM GAS  /tmp/ccpeSJ8z.s 			page 30


 1654 003c 0F       		.uleb128 0xf
 1655 003d 00       		.byte	0
 1656 003e 0B       		.uleb128 0xb
 1657 003f 0B       		.uleb128 0xb
 1658 0040 00       		.byte	0
 1659 0041 00       		.byte	0
 1660 0042 07       		.uleb128 0x7
 1661 0043 26       		.uleb128 0x26
 1662 0044 00       		.byte	0
 1663 0045 49       		.uleb128 0x49
 1664 0046 13       		.uleb128 0x13
 1665 0047 00       		.byte	0
 1666 0048 00       		.byte	0
 1667 0049 08       		.uleb128 0x8
 1668 004a 0F       		.uleb128 0xf
 1669 004b 00       		.byte	0
 1670 004c 0B       		.uleb128 0xb
 1671 004d 0B       		.uleb128 0xb
 1672 004e 49       		.uleb128 0x49
 1673 004f 13       		.uleb128 0x13
 1674 0050 00       		.byte	0
 1675 0051 00       		.byte	0
 1676 0052 09       		.uleb128 0x9
 1677 0053 13       		.uleb128 0x13
 1678 0054 01       		.byte	0x1
 1679 0055 03       		.uleb128 0x3
 1680 0056 0E       		.uleb128 0xe
 1681 0057 0B       		.uleb128 0xb
 1682 0058 0B       		.uleb128 0xb
 1683 0059 3A       		.uleb128 0x3a
 1684 005a 0B       		.uleb128 0xb
 1685 005b 3B       		.uleb128 0x3b
 1686 005c 0B       		.uleb128 0xb
 1687 005d 39       		.uleb128 0x39
 1688 005e 0B       		.uleb128 0xb
 1689 005f 01       		.uleb128 0x1
 1690 0060 13       		.uleb128 0x13
 1691 0061 00       		.byte	0
 1692 0062 00       		.byte	0
 1693 0063 0A       		.uleb128 0xa
 1694 0064 0D       		.uleb128 0xd
 1695 0065 00       		.byte	0
 1696 0066 03       		.uleb128 0x3
 1697 0067 0E       		.uleb128 0xe
 1698 0068 3A       		.uleb128 0x3a
 1699 0069 0B       		.uleb128 0xb
 1700 006a 3B       		.uleb128 0x3b
 1701 006b 0B       		.uleb128 0xb
 1702 006c 39       		.uleb128 0x39
 1703 006d 0B       		.uleb128 0xb
 1704 006e 49       		.uleb128 0x49
 1705 006f 13       		.uleb128 0x13
 1706 0070 38       		.uleb128 0x38
 1707 0071 0B       		.uleb128 0xb
 1708 0072 00       		.byte	0
 1709 0073 00       		.byte	0
 1710 0074 0B       		.uleb128 0xb
ARM GAS  /tmp/ccpeSJ8z.s 			page 31


 1711 0075 0D       		.uleb128 0xd
 1712 0076 00       		.byte	0
 1713 0077 03       		.uleb128 0x3
 1714 0078 08       		.uleb128 0x8
 1715 0079 3A       		.uleb128 0x3a
 1716 007a 0B       		.uleb128 0xb
 1717 007b 3B       		.uleb128 0x3b
 1718 007c 0B       		.uleb128 0xb
 1719 007d 39       		.uleb128 0x39
 1720 007e 0B       		.uleb128 0xb
 1721 007f 49       		.uleb128 0x49
 1722 0080 13       		.uleb128 0x13
 1723 0081 38       		.uleb128 0x38
 1724 0082 0B       		.uleb128 0xb
 1725 0083 00       		.byte	0
 1726 0084 00       		.byte	0
 1727 0085 0C       		.uleb128 0xc
 1728 0086 0D       		.uleb128 0xd
 1729 0087 00       		.byte	0
 1730 0088 03       		.uleb128 0x3
 1731 0089 08       		.uleb128 0x8
 1732 008a 3A       		.uleb128 0x3a
 1733 008b 0B       		.uleb128 0xb
 1734 008c 3B       		.uleb128 0x3b
 1735 008d 05       		.uleb128 0x5
 1736 008e 39       		.uleb128 0x39
 1737 008f 0B       		.uleb128 0xb
 1738 0090 49       		.uleb128 0x49
 1739 0091 13       		.uleb128 0x13
 1740 0092 38       		.uleb128 0x38
 1741 0093 0B       		.uleb128 0xb
 1742 0094 00       		.byte	0
 1743 0095 00       		.byte	0
 1744 0096 0D       		.uleb128 0xd
 1745 0097 0D       		.uleb128 0xd
 1746 0098 00       		.byte	0
 1747 0099 03       		.uleb128 0x3
 1748 009a 0E       		.uleb128 0xe
 1749 009b 3A       		.uleb128 0x3a
 1750 009c 0B       		.uleb128 0xb
 1751 009d 3B       		.uleb128 0x3b
 1752 009e 05       		.uleb128 0x5
 1753 009f 39       		.uleb128 0x39
 1754 00a0 0B       		.uleb128 0xb
 1755 00a1 49       		.uleb128 0x49
 1756 00a2 13       		.uleb128 0x13
 1757 00a3 38       		.uleb128 0x38
 1758 00a4 0B       		.uleb128 0xb
 1759 00a5 00       		.byte	0
 1760 00a6 00       		.byte	0
 1761 00a7 0E       		.uleb128 0xe
 1762 00a8 13       		.uleb128 0x13
 1763 00a9 01       		.byte	0x1
 1764 00aa 03       		.uleb128 0x3
 1765 00ab 0E       		.uleb128 0xe
 1766 00ac 0B       		.uleb128 0xb
 1767 00ad 0B       		.uleb128 0xb
ARM GAS  /tmp/ccpeSJ8z.s 			page 32


 1768 00ae 3A       		.uleb128 0x3a
 1769 00af 0B       		.uleb128 0xb
 1770 00b0 3B       		.uleb128 0x3b
 1771 00b1 05       		.uleb128 0x5
 1772 00b2 39       		.uleb128 0x39
 1773 00b3 0B       		.uleb128 0xb
 1774 00b4 01       		.uleb128 0x1
 1775 00b5 13       		.uleb128 0x13
 1776 00b6 00       		.byte	0
 1777 00b7 00       		.byte	0
 1778 00b8 0F       		.uleb128 0xf
 1779 00b9 17       		.uleb128 0x17
 1780 00ba 01       		.byte	0x1
 1781 00bb 0B       		.uleb128 0xb
 1782 00bc 0B       		.uleb128 0xb
 1783 00bd 3A       		.uleb128 0x3a
 1784 00be 0B       		.uleb128 0xb
 1785 00bf 3B       		.uleb128 0x3b
 1786 00c0 0B       		.uleb128 0xb
 1787 00c1 39       		.uleb128 0x39
 1788 00c2 0B       		.uleb128 0xb
 1789 00c3 01       		.uleb128 0x1
 1790 00c4 13       		.uleb128 0x13
 1791 00c5 00       		.byte	0
 1792 00c6 00       		.byte	0
 1793 00c7 10       		.uleb128 0x10
 1794 00c8 0D       		.uleb128 0xd
 1795 00c9 00       		.byte	0
 1796 00ca 03       		.uleb128 0x3
 1797 00cb 0E       		.uleb128 0xe
 1798 00cc 3A       		.uleb128 0x3a
 1799 00cd 0B       		.uleb128 0xb
 1800 00ce 3B       		.uleb128 0x3b
 1801 00cf 0B       		.uleb128 0xb
 1802 00d0 39       		.uleb128 0x39
 1803 00d1 0B       		.uleb128 0xb
 1804 00d2 49       		.uleb128 0x49
 1805 00d3 13       		.uleb128 0x13
 1806 00d4 00       		.byte	0
 1807 00d5 00       		.byte	0
 1808 00d6 11       		.uleb128 0x11
 1809 00d7 0D       		.uleb128 0xd
 1810 00d8 00       		.byte	0
 1811 00d9 03       		.uleb128 0x3
 1812 00da 0E       		.uleb128 0xe
 1813 00db 3A       		.uleb128 0x3a
 1814 00dc 0B       		.uleb128 0xb
 1815 00dd 3B       		.uleb128 0x3b
 1816 00de 05       		.uleb128 0x5
 1817 00df 39       		.uleb128 0x39
 1818 00e0 0B       		.uleb128 0xb
 1819 00e1 49       		.uleb128 0x49
 1820 00e2 13       		.uleb128 0x13
 1821 00e3 00       		.byte	0
 1822 00e4 00       		.byte	0
 1823 00e5 12       		.uleb128 0x12
 1824 00e6 15       		.uleb128 0x15
ARM GAS  /tmp/ccpeSJ8z.s 			page 33


 1825 00e7 01       		.byte	0x1
 1826 00e8 27       		.uleb128 0x27
 1827 00e9 19       		.uleb128 0x19
 1828 00ea 01       		.uleb128 0x1
 1829 00eb 13       		.uleb128 0x13
 1830 00ec 00       		.byte	0
 1831 00ed 00       		.byte	0
 1832 00ee 13       		.uleb128 0x13
 1833 00ef 05       		.uleb128 0x5
 1834 00f0 00       		.byte	0
 1835 00f1 49       		.uleb128 0x49
 1836 00f2 13       		.uleb128 0x13
 1837 00f3 00       		.byte	0
 1838 00f4 00       		.byte	0
 1839 00f5 14       		.uleb128 0x14
 1840 00f6 2E       		.uleb128 0x2e
 1841 00f7 01       		.byte	0x1
 1842 00f8 3F       		.uleb128 0x3f
 1843 00f9 19       		.uleb128 0x19
 1844 00fa 03       		.uleb128 0x3
 1845 00fb 0E       		.uleb128 0xe
 1846 00fc 3A       		.uleb128 0x3a
 1847 00fd 0B       		.uleb128 0xb
 1848 00fe 3B       		.uleb128 0x3b
 1849 00ff 05       		.uleb128 0x5
 1850 0100 39       		.uleb128 0x39
 1851 0101 0B       		.uleb128 0xb
 1852 0102 27       		.uleb128 0x27
 1853 0103 19       		.uleb128 0x19
 1854 0104 01       		.uleb128 0x1
 1855 0105 13       		.uleb128 0x13
 1856 0106 00       		.byte	0
 1857 0107 00       		.byte	0
 1858 0108 15       		.uleb128 0x15
 1859 0109 05       		.uleb128 0x5
 1860 010a 00       		.byte	0
 1861 010b 03       		.uleb128 0x3
 1862 010c 0E       		.uleb128 0xe
 1863 010d 3A       		.uleb128 0x3a
 1864 010e 0B       		.uleb128 0xb
 1865 010f 3B       		.uleb128 0x3b
 1866 0110 05       		.uleb128 0x5
 1867 0111 39       		.uleb128 0x39
 1868 0112 0B       		.uleb128 0xb
 1869 0113 49       		.uleb128 0x49
 1870 0114 13       		.uleb128 0x13
 1871 0115 00       		.byte	0
 1872 0116 00       		.byte	0
 1873 0117 16       		.uleb128 0x16
 1874 0118 0B       		.uleb128 0xb
 1875 0119 01       		.byte	0x1
 1876 011a 00       		.byte	0
 1877 011b 00       		.byte	0
 1878 011c 17       		.uleb128 0x17
 1879 011d 34       		.uleb128 0x34
 1880 011e 00       		.byte	0
 1881 011f 03       		.uleb128 0x3
ARM GAS  /tmp/ccpeSJ8z.s 			page 34


 1882 0120 0E       		.uleb128 0xe
 1883 0121 3A       		.uleb128 0x3a
 1884 0122 0B       		.uleb128 0xb
 1885 0123 3B       		.uleb128 0x3b
 1886 0124 05       		.uleb128 0x5
 1887 0125 39       		.uleb128 0x39
 1888 0126 0B       		.uleb128 0xb
 1889 0127 49       		.uleb128 0x49
 1890 0128 13       		.uleb128 0x13
 1891 0129 00       		.byte	0
 1892 012a 00       		.byte	0
 1893 012b 18       		.uleb128 0x18
 1894 012c 2E       		.uleb128 0x2e
 1895 012d 01       		.byte	0x1
 1896 012e 3F       		.uleb128 0x3f
 1897 012f 19       		.uleb128 0x19
 1898 0130 03       		.uleb128 0x3
 1899 0131 0E       		.uleb128 0xe
 1900 0132 3A       		.uleb128 0x3a
 1901 0133 0B       		.uleb128 0xb
 1902 0134 3B       		.uleb128 0x3b
 1903 0135 05       		.uleb128 0x5
 1904 0136 39       		.uleb128 0x39
 1905 0137 0B       		.uleb128 0xb
 1906 0138 27       		.uleb128 0x27
 1907 0139 19       		.uleb128 0x19
 1908 013a 49       		.uleb128 0x49
 1909 013b 13       		.uleb128 0x13
 1910 013c 01       		.uleb128 0x1
 1911 013d 13       		.uleb128 0x13
 1912 013e 00       		.byte	0
 1913 013f 00       		.byte	0
 1914 0140 19       		.uleb128 0x19
 1915 0141 05       		.uleb128 0x5
 1916 0142 00       		.byte	0
 1917 0143 03       		.uleb128 0x3
 1918 0144 08       		.uleb128 0x8
 1919 0145 3A       		.uleb128 0x3a
 1920 0146 0B       		.uleb128 0xb
 1921 0147 3B       		.uleb128 0x3b
 1922 0148 05       		.uleb128 0x5
 1923 0149 39       		.uleb128 0x39
 1924 014a 0B       		.uleb128 0xb
 1925 014b 49       		.uleb128 0x49
 1926 014c 13       		.uleb128 0x13
 1927 014d 00       		.byte	0
 1928 014e 00       		.byte	0
 1929 014f 1A       		.uleb128 0x1a
 1930 0150 34       		.uleb128 0x34
 1931 0151 00       		.byte	0
 1932 0152 03       		.uleb128 0x3
 1933 0153 08       		.uleb128 0x8
 1934 0154 3A       		.uleb128 0x3a
 1935 0155 0B       		.uleb128 0xb
 1936 0156 3B       		.uleb128 0x3b
 1937 0157 05       		.uleb128 0x5
 1938 0158 39       		.uleb128 0x39
ARM GAS  /tmp/ccpeSJ8z.s 			page 35


 1939 0159 0B       		.uleb128 0xb
 1940 015a 49       		.uleb128 0x49
 1941 015b 13       		.uleb128 0x13
 1942 015c 00       		.byte	0
 1943 015d 00       		.byte	0
 1944 015e 1B       		.uleb128 0x1b
 1945 015f 34       		.uleb128 0x34
 1946 0160 00       		.byte	0
 1947 0161 03       		.uleb128 0x3
 1948 0162 0E       		.uleb128 0xe
 1949 0163 49       		.uleb128 0x49
 1950 0164 13       		.uleb128 0x13
 1951 0165 34       		.uleb128 0x34
 1952 0166 19       		.uleb128 0x19
 1953 0167 00       		.byte	0
 1954 0168 00       		.byte	0
 1955 0169 1C       		.uleb128 0x1c
 1956 016a 01       		.uleb128 0x1
 1957 016b 01       		.byte	0x1
 1958 016c 49       		.uleb128 0x49
 1959 016d 13       		.uleb128 0x13
 1960 016e 01       		.uleb128 0x1
 1961 016f 13       		.uleb128 0x13
 1962 0170 00       		.byte	0
 1963 0171 00       		.byte	0
 1964 0172 1D       		.uleb128 0x1d
 1965 0173 21       		.uleb128 0x21
 1966 0174 00       		.byte	0
 1967 0175 49       		.uleb128 0x49
 1968 0176 13       		.uleb128 0x13
 1969 0177 2F       		.uleb128 0x2f
 1970 0178 0B       		.uleb128 0xb
 1971 0179 00       		.byte	0
 1972 017a 00       		.byte	0
 1973 017b 1E       		.uleb128 0x1e
 1974 017c 2E       		.uleb128 0x2e
 1975 017d 01       		.byte	0x1
 1976 017e 3F       		.uleb128 0x3f
 1977 017f 19       		.uleb128 0x19
 1978 0180 03       		.uleb128 0x3
 1979 0181 0E       		.uleb128 0xe
 1980 0182 3A       		.uleb128 0x3a
 1981 0183 0B       		.uleb128 0xb
 1982 0184 3B       		.uleb128 0x3b
 1983 0185 0B       		.uleb128 0xb
 1984 0186 39       		.uleb128 0x39
 1985 0187 0B       		.uleb128 0xb
 1986 0188 27       		.uleb128 0x27
 1987 0189 19       		.uleb128 0x19
 1988 018a 01       		.uleb128 0x1
 1989 018b 13       		.uleb128 0x13
 1990 018c 00       		.byte	0
 1991 018d 00       		.byte	0
 1992 018e 1F       		.uleb128 0x1f
 1993 018f 05       		.uleb128 0x5
 1994 0190 00       		.byte	0
 1995 0191 03       		.uleb128 0x3
ARM GAS  /tmp/ccpeSJ8z.s 			page 36


 1996 0192 0E       		.uleb128 0xe
 1997 0193 3A       		.uleb128 0x3a
 1998 0194 0B       		.uleb128 0xb
 1999 0195 3B       		.uleb128 0x3b
 2000 0196 0B       		.uleb128 0xb
 2001 0197 39       		.uleb128 0x39
 2002 0198 0B       		.uleb128 0xb
 2003 0199 49       		.uleb128 0x49
 2004 019a 13       		.uleb128 0x13
 2005 019b 00       		.byte	0
 2006 019c 00       		.byte	0
 2007 019d 20       		.uleb128 0x20
 2008 019e 2E       		.uleb128 0x2e
 2009 019f 01       		.byte	0x1
 2010 01a0 3F       		.uleb128 0x3f
 2011 01a1 19       		.uleb128 0x19
 2012 01a2 03       		.uleb128 0x3
 2013 01a3 0E       		.uleb128 0xe
 2014 01a4 3A       		.uleb128 0x3a
 2015 01a5 0B       		.uleb128 0xb
 2016 01a6 3B       		.uleb128 0x3b
 2017 01a7 0B       		.uleb128 0xb
 2018 01a8 39       		.uleb128 0x39
 2019 01a9 0B       		.uleb128 0xb
 2020 01aa 27       		.uleb128 0x27
 2021 01ab 19       		.uleb128 0x19
 2022 01ac 49       		.uleb128 0x49
 2023 01ad 13       		.uleb128 0x13
 2024 01ae 01       		.uleb128 0x1
 2025 01af 13       		.uleb128 0x13
 2026 01b0 00       		.byte	0
 2027 01b1 00       		.byte	0
 2028 01b2 21       		.uleb128 0x21
 2029 01b3 34       		.uleb128 0x34
 2030 01b4 00       		.byte	0
 2031 01b5 03       		.uleb128 0x3
 2032 01b6 08       		.uleb128 0x8
 2033 01b7 3A       		.uleb128 0x3a
 2034 01b8 0B       		.uleb128 0xb
 2035 01b9 3B       		.uleb128 0x3b
 2036 01ba 0B       		.uleb128 0xb
 2037 01bb 39       		.uleb128 0x39
 2038 01bc 0B       		.uleb128 0xb
 2039 01bd 49       		.uleb128 0x49
 2040 01be 13       		.uleb128 0x13
 2041 01bf 00       		.byte	0
 2042 01c0 00       		.byte	0
 2043 01c1 22       		.uleb128 0x22
 2044 01c2 05       		.uleb128 0x5
 2045 01c3 00       		.byte	0
 2046 01c4 03       		.uleb128 0x3
 2047 01c5 08       		.uleb128 0x8
 2048 01c6 3A       		.uleb128 0x3a
 2049 01c7 0B       		.uleb128 0xb
 2050 01c8 3B       		.uleb128 0x3b
 2051 01c9 0B       		.uleb128 0xb
 2052 01ca 39       		.uleb128 0x39
ARM GAS  /tmp/ccpeSJ8z.s 			page 37


 2053 01cb 0B       		.uleb128 0xb
 2054 01cc 49       		.uleb128 0x49
 2055 01cd 13       		.uleb128 0x13
 2056 01ce 00       		.byte	0
 2057 01cf 00       		.byte	0
 2058 01d0 23       		.uleb128 0x23
 2059 01d1 2E       		.uleb128 0x2e
 2060 01d2 01       		.byte	0x1
 2061 01d3 03       		.uleb128 0x3
 2062 01d4 0E       		.uleb128 0xe
 2063 01d5 3A       		.uleb128 0x3a
 2064 01d6 0B       		.uleb128 0xb
 2065 01d7 3B       		.uleb128 0x3b
 2066 01d8 05       		.uleb128 0x5
 2067 01d9 39       		.uleb128 0x39
 2068 01da 0B       		.uleb128 0xb
 2069 01db 27       		.uleb128 0x27
 2070 01dc 19       		.uleb128 0x19
 2071 01dd 01       		.uleb128 0x1
 2072 01de 13       		.uleb128 0x13
 2073 01df 00       		.byte	0
 2074 01e0 00       		.byte	0
 2075 01e1 24       		.uleb128 0x24
 2076 01e2 2E       		.uleb128 0x2e
 2077 01e3 01       		.byte	0x1
 2078 01e4 03       		.uleb128 0x3
 2079 01e5 0E       		.uleb128 0xe
 2080 01e6 3A       		.uleb128 0x3a
 2081 01e7 0B       		.uleb128 0xb
 2082 01e8 3B       		.uleb128 0x3b
 2083 01e9 05       		.uleb128 0x5
 2084 01ea 39       		.uleb128 0x39
 2085 01eb 0B       		.uleb128 0xb
 2086 01ec 27       		.uleb128 0x27
 2087 01ed 19       		.uleb128 0x19
 2088 01ee 49       		.uleb128 0x49
 2089 01ef 13       		.uleb128 0x13
 2090 01f0 01       		.uleb128 0x1
 2091 01f1 13       		.uleb128 0x13
 2092 01f2 00       		.byte	0
 2093 01f3 00       		.byte	0
 2094 01f4 25       		.uleb128 0x25
 2095 01f5 2E       		.uleb128 0x2e
 2096 01f6 00       		.byte	0
 2097 01f7 03       		.uleb128 0x3
 2098 01f8 0E       		.uleb128 0xe
 2099 01f9 3A       		.uleb128 0x3a
 2100 01fa 0B       		.uleb128 0xb
 2101 01fb 3B       		.uleb128 0x3b
 2102 01fc 05       		.uleb128 0x5
 2103 01fd 39       		.uleb128 0x39
 2104 01fe 0B       		.uleb128 0xb
 2105 01ff 27       		.uleb128 0x27
 2106 0200 19       		.uleb128 0x19
 2107 0201 00       		.byte	0
 2108 0202 00       		.byte	0
 2109 0203 26       		.uleb128 0x26
ARM GAS  /tmp/ccpeSJ8z.s 			page 38


 2110 0204 2E       		.uleb128 0x2e
 2111 0205 01       		.byte	0x1
 2112 0206 03       		.uleb128 0x3
 2113 0207 0E       		.uleb128 0xe
 2114 0208 3A       		.uleb128 0x3a
 2115 0209 0B       		.uleb128 0xb
 2116 020a 3B       		.uleb128 0x3b
 2117 020b 05       		.uleb128 0x5
 2118 020c 39       		.uleb128 0x39
 2119 020d 0B       		.uleb128 0xb
 2120 020e 27       		.uleb128 0x27
 2121 020f 19       		.uleb128 0x19
 2122 0210 00       		.byte	0
 2123 0211 00       		.byte	0
 2124 0212 00       		.byte	0
 2125              		.section	.gnu.debuglto_.debug_line,"e",%progbits
 2126              	.Ldebug_line0:
 2127 0000 EF020000 		.4byte	.LELT0-.LSLT0
 2128              	.LSLT0:
 2129 0004 0400     		.2byte	0x4
 2130 0006 E9020000 		.4byte	.LELTP0-.LASLTP0
 2131              	.LASLTP0:
 2132 000a 01       		.byte	0x1
 2133 000b 01       		.byte	0x1
 2134 000c 01       		.byte	0x1
 2135 000d F6       		.byte	0xf6
 2136 000e F2       		.byte	0xf2
 2137 000f 0D       		.byte	0xd
 2138 0010 00       		.byte	0
 2139 0011 01       		.byte	0x1
 2140 0012 01       		.byte	0x1
 2141 0013 01       		.byte	0x1
 2142 0014 01       		.byte	0x1
 2143 0015 00       		.byte	0
 2144 0016 00       		.byte	0
 2145 0017 00       		.byte	0
 2146 0018 01       		.byte	0x1
 2147 0019 00       		.byte	0
 2148 001a 00       		.byte	0
 2149 001b 01       		.byte	0x1
 2150 001c 43686962 		.ascii	"ChibiOS_20.3.0/os/common/ext/ARM/CMSIS/Core/Include"
 2150      694F535F 
 2150      32302E33 
 2150      2E302F6F 
 2150      732F636F 
 2151 004f 00       		.byte	0
 2152 0050 43686962 		.ascii	"ChibiOS_20.3.0/os/common/ports/ARMCMx/compilers/GCC"
 2152      694F535F 
 2152      32302E33 
 2152      2E302F6F 
 2152      732F636F 
 2153 0083 00       		.byte	0
 2154 0084 43686962 		.ascii	"ChibiOS_20.3.0/os/common/ports/ARMCMx"
 2154      694F535F 
 2154      32302E33 
 2154      2E302F6F 
 2154      732F636F 
ARM GAS  /tmp/ccpeSJ8z.s 			page 39


 2155 00a9 00       		.byte	0
 2156 00aa 43686962 		.ascii	"ChibiOS_20.3.0/os/hal/include"
 2156      694F535F 
 2156      32302E33 
 2156      2E302F6F 
 2156      732F6861 
 2157 00c7 00       		.byte	0
 2158 00c8 43686962 		.ascii	"ChibiOS_20.3.0/os/hal/osal/rt-nil"
 2158      694F535F 
 2158      32302E33 
 2158      2E302F6F 
 2158      732F6861 
 2159 00e9 00       		.byte	0
 2160 00ea 43686962 		.ascii	"ChibiOS_20.3.0/os/hal/src"
 2160      694F535F 
 2160      32302E33 
 2160      2E302F6F 
 2160      732F6861 
 2161 0103 00       		.byte	0
 2162 0104 43686962 		.ascii	"ChibiOS_20.3.0/os/rt/include"
 2162      694F535F 
 2162      32302E33 
 2162      2E302F6F 
 2162      732F7274 
 2163 0120 00       		.byte	0
 2164 0121 2F757372 		.ascii	"/usr/share/gcc-arm-none-eabi-10-2020-q4-major/arm-n"
 2164      2F736861 
 2164      72652F67 
 2164      63632D61 
 2164      726D2D6E 
 2165 0154 6F6E652D 		.ascii	"one-eabi/include/machine"
 2165      65616269 
 2165      2F696E63 
 2165      6C756465 
 2165      2F6D6163 
 2166 016c 00       		.byte	0
 2167 016d 2F757372 		.ascii	"/usr/share/gcc-arm-none-eabi-10-2020-q4-major/arm-n"
 2167      2F736861 
 2167      72652F67 
 2167      63632D61 
 2167      726D2D6E 
 2168 01a0 6F6E652D 		.ascii	"one-eabi/include/sys"
 2168      65616269 
 2168      2F696E63 
 2168      6C756465 
 2168      2F737973 
 2169 01b4 00       		.byte	0
 2170 01b5 2F757372 		.ascii	"/usr/share/gcc-arm-none-eabi-10-2020-q4-major/lib/g"
 2170      2F736861 
 2170      72652F67 
 2170      63632D61 
 2170      726D2D6E 
 2171 01e8 63632F61 		.ascii	"cc/arm-none-eabi/10.2.1/include"
 2171      726D2D6E 
 2171      6F6E652D 
 2171      65616269 
 2171      2F31302E 
ARM GAS  /tmp/ccpeSJ8z.s 			page 40


 2172 0207 00       		.byte	0
 2173 0208 00       		.byte	0
 2174 0209 73746464 		.ascii	"stddef.h\000"
 2174      65662E68 
 2174      00
 2175 0212 0A       		.uleb128 0xa
 2176 0213 00       		.uleb128 0
 2177 0214 00       		.uleb128 0
 2178 0215 5F646566 		.ascii	"_default_types.h\000"
 2178      61756C74 
 2178      5F747970 
 2178      65732E68 
 2178      00
 2179 0226 08       		.uleb128 0x8
 2180 0227 00       		.uleb128 0
 2181 0228 00       		.uleb128 0
 2182 0229 5F737464 		.ascii	"_stdint.h\000"
 2182      696E742E 
 2182      6800
 2183 0233 09       		.uleb128 0x9
 2184 0234 00       		.uleb128 0
 2185 0235 00       		.uleb128 0
 2186 0236 63687479 		.ascii	"chtypes.h\000"
 2186      7065732E 
 2186      6800
 2187 0240 02       		.uleb128 0x2
 2188 0241 00       		.uleb128 0
 2189 0242 00       		.uleb128 0
 2190 0243 63687379 		.ascii	"chsystypes.h\000"
 2190      73747970 
 2190      65732E68 
 2190      00
 2191 0250 07       		.uleb128 0x7
 2192 0251 00       		.uleb128 0
 2193 0252 00       		.uleb128 0
 2194 0253 63687363 		.ascii	"chschd.h\000"
 2194      68642E68 
 2194      00
 2195 025c 07       		.uleb128 0x7
 2196 025d 00       		.uleb128 0
 2197 025e 00       		.uleb128 0
 2198 025f 63687469 		.ascii	"chtime.h\000"
 2198      6D652E68 
 2198      00
 2199 0268 07       		.uleb128 0x7
 2200 0269 00       		.uleb128 0
 2201 026a 00       		.uleb128 0
 2202 026b 6368636F 		.ascii	"chcore.h\000"
 2202      72652E68 
 2202      00
 2203 0274 03       		.uleb128 0x3
 2204 0275 00       		.uleb128 0
 2205 0276 00       		.uleb128 0
 2206 0277 6368636F 		.ascii	"chcore_v7m.h\000"
 2206      72655F76 
 2206      376D2E68 
 2206      00
ARM GAS  /tmp/ccpeSJ8z.s 			page 41


 2207 0284 03       		.uleb128 0x3
 2208 0285 00       		.uleb128 0
 2209 0286 00       		.uleb128 0
 2210 0287 63687365 		.ascii	"chsem.h\000"
 2210      6D2E6800 
 2211 028f 07       		.uleb128 0x7
 2212 0290 00       		.uleb128 0
 2213 0291 00       		.uleb128 0
 2214 0292 63686D74 		.ascii	"chmtx.h\000"
 2214      782E6800 
 2215 029a 07       		.uleb128 0x7
 2216 029b 00       		.uleb128 0
 2217 029c 00       		.uleb128 0
 2218 029d 68616C5F 		.ascii	"hal_buffers.h\000"
 2218      62756666 
 2218      6572732E 
 2218      6800
 2219 02ab 04       		.uleb128 0x4
 2220 02ac 00       		.uleb128 0
 2221 02ad 00       		.uleb128 0
 2222 02ae 68616C5F 		.ascii	"hal_buffers.c\000"
 2222      62756666 
 2222      6572732E 
 2222      6300
 2223 02bc 06       		.uleb128 0x6
 2224 02bd 00       		.uleb128 0
 2225 02be 00       		.uleb128 0
 2226 02bf 6F73616C 		.ascii	"osal.h\000"
 2226      2E6800
 2227 02c6 05       		.uleb128 0x5
 2228 02c7 00       		.uleb128 0
 2229 02c8 00       		.uleb128 0
 2230 02c9 63687468 		.ascii	"chthreads.h\000"
 2230      72656164 
 2230      732E6800 
 2231 02d5 07       		.uleb128 0x7
 2232 02d6 00       		.uleb128 0
 2233 02d7 00       		.uleb128 0
 2234 02d8 63687379 		.ascii	"chsys.h\000"
 2234      732E6800 
 2235 02e0 07       		.uleb128 0x7
 2236 02e1 00       		.uleb128 0
 2237 02e2 00       		.uleb128 0
 2238 02e3 636D7369 		.ascii	"cmsis_gcc.h\000"
 2238      735F6763 
 2238      632E6800 
 2239 02ef 01       		.uleb128 0x1
 2240 02f0 00       		.uleb128 0
 2241 02f1 00       		.uleb128 0
 2242 02f2 00       		.byte	0
 2243              	.LELTP0:
 2244              	.LELT0:
 2245              		.section	.gnu.debuglto_.debug_str,"eMS",%progbits,1
 2246              	.LASF108:
 2247 0000 69627147 		.ascii	"ibqGetEmptyBufferI\000"
 2247      6574456D 
 2247      70747942 
ARM GAS  /tmp/ccpeSJ8z.s 			page 42


 2247      75666665 
 2247      724900
 2248              	.LASF99:
 2249 0013 6F6E6679 		.ascii	"onfy\000"
 2249      00
 2250              	.LASF4:
 2251 0018 73697A65 		.ascii	"size_t\000"
 2251      5F7400
 2252              	.LASF55:
 2253 001f 7264796D 		.ascii	"rdymsg\000"
 2253      736700
 2254              	.LASF19:
 2255 0026 75696E74 		.ascii	"uint64_t\000"
 2255      36345F74 
 2255      00
 2256              	.LASF5:
 2257 002f 5F5F7569 		.ascii	"__uint8_t\000"
 2257      6E74385F 
 2257      7400
 2258              	.LASF50:
 2259 0039 70726576 		.ascii	"prev\000"
 2259      00
 2260              	.LASF53:
 2261 003e 706F7274 		.ascii	"port_intctx\000"
 2261      5F696E74 
 2261      63747800 
 2262              	.LASF49:
 2263 004a 63685F74 		.ascii	"ch_threads_queue\000"
 2263      68726561 
 2263      64735F71 
 2263      75657565 
 2263      00
 2264              	.LASF120:
 2265 005b 71756575 		.ascii	"queue_init\000"
 2265      655F696E 
 2265      697400
 2266              	.LASF122:
 2267 0066 706F7274 		.ascii	"port_lock\000"
 2267      5F6C6F63 
 2267      6B00
 2268              	.LASF54:
 2269 0070 706F7274 		.ascii	"port_context\000"
 2269      5F636F6E 
 2269      74657874 
 2269      00
 2270              	.LASF14:
 2271 007d 6C6F6E67 		.ascii	"long long unsigned int\000"
 2271      206C6F6E 
 2271      6720756E 
 2271      7369676E 
 2271      65642069 
 2272              	.LASF56:
 2273 0094 65786974 		.ascii	"exitcode\000"
 2273      636F6465 
 2273      00
 2274              	.LASF103:
 2275 009d 69627152 		.ascii	"ibqReleaseEmptyBufferS\000"
ARM GAS  /tmp/ccpeSJ8z.s 			page 43


 2275      656C6561 
 2275      7365456D 
 2275      70747942 
 2275      75666665 
 2276              	.LASF59:
 2277 00b4 73656E74 		.ascii	"sentmsg\000"
 2277      6D736700 
 2278              	.LASF110:
 2279 00bc 6962714F 		.ascii	"ibqObjectInit\000"
 2279      626A6563 
 2279      74496E69 
 2279      7400
 2280              	.LASF47:
 2281 00ca 6E657874 		.ascii	"next\000"
 2281      00
 2282              	.LASF72:
 2283 00cf 62777270 		.ascii	"bwrptr\000"
 2283      747200
 2284              	.LASF95:
 2285 00d6 6F627147 		.ascii	"obqGetFullBufferI\000"
 2285      65744675 
 2285      6C6C4275 
 2285      66666572 
 2285      4900
 2286              	.LASF1:
 2287 00e8 6C6F6E67 		.ascii	"long long int\000"
 2287      206C6F6E 
 2287      6720696E 
 2287      7400
 2288              	.LASF3:
 2289 00f6 7369676E 		.ascii	"signed char\000"
 2289      65642063 
 2289      68617200 
 2290              	.LASF98:
 2291 0102 6F62714F 		.ascii	"obqObjectInit\000"
 2291      626A6563 
 2291      74496E69 
 2291      7400
 2292              	.LASF113:
 2293 0110 6F73616C 		.ascii	"osalThreadDequeueNextI\000"
 2293      54687265 
 2293      61644465 
 2293      71756575 
 2293      654E6578 
 2294              	.LASF69:
 2295 0127 696F5F62 		.ascii	"io_buffers_queue\000"
 2295      75666665 
 2295      72735F71 
 2295      75657565 
 2295      00
 2296              	.LASF102:
 2297 0138 69627147 		.ascii	"ibqGetTimeout\000"
 2297      65745469 
 2297      6D656F75 
 2297      7400
 2298              	.LASF100:
 2299 0146 69627152 		.ascii	"ibqReadTimeout\000"
ARM GAS  /tmp/ccpeSJ8z.s 			page 44


 2299      65616454 
 2299      696D656F 
 2299      757400
 2300              	.LASF121:
 2301 0155 706F7274 		.ascii	"port_unlock\000"
 2301      5F756E6C 
 2301      6F636B00 
 2302              	.LASF38:
 2303 0161 6D736771 		.ascii	"msgqueue\000"
 2303      75657565 
 2303      00
 2304              	.LASF87:
 2305 016a 6F627150 		.ascii	"obqPutTimeout\000"
 2305      75745469 
 2305      6D656F75 
 2305      7400
 2306              	.LASF34:
 2307 0178 73746174 		.ascii	"state\000"
 2307      6500
 2308              	.LASF10:
 2309 017e 6C6F6E67 		.ascii	"long int\000"
 2309      20696E74 
 2309      00
 2310              	.LASF21:
 2311 0187 74737461 		.ascii	"tstate_t\000"
 2311      74655F74 
 2311      00
 2312              	.LASF28:
 2313 0190 71756575 		.ascii	"queue\000"
 2313      6500
 2314              	.LASF105:
 2315 0196 69627147 		.ascii	"ibqGetFullBufferTimeoutS\000"
 2315      65744675 
 2315      6C6C4275 
 2315      66666572 
 2315      54696D65 
 2316              	.LASF11:
 2317 01af 5F5F7569 		.ascii	"__uint32_t\000"
 2317      6E743332 
 2317      5F7400
 2318              	.LASF78:
 2319 01ba 6C696E6B 		.ascii	"link\000"
 2319      00
 2320              	.LASF80:
 2321 01bf 696E7075 		.ascii	"input_buffers_queue_t\000"
 2321      745F6275 
 2321      66666572 
 2321      735F7175 
 2321      6575655F 
 2322              	.LASF126:
 2323 01d5 2F686F6D 		.ascii	"/home/iamprithvishetty/CDSpace/mmc3416_test2\000"
 2323      652F6961 
 2323      6D707269 
 2323      74687669 
 2323      73686574 
 2324              	.LASF73:
 2325 0202 62726470 		.ascii	"brdptr\000"
ARM GAS  /tmp/ccpeSJ8z.s 			page 45


 2325      747200
 2326              	.LASF37:
 2327 0209 77616974 		.ascii	"waiting\000"
 2327      696E6700 
 2328              	.LASF116:
 2329 0211 6F73616C 		.ascii	"osalSysLock\000"
 2329      5379734C 
 2329      6F636B00 
 2330              	.LASF68:
 2331 021d 696F5F62 		.ascii	"io_buffers_queue_t\000"
 2331      75666665 
 2331      72735F71 
 2331      75657565 
 2331      5F7400
 2332              	.LASF66:
 2333 0230 6D757465 		.ascii	"mutex_t\000"
 2333      785F7400 
 2334              	.LASF51:
 2335 0238 73797369 		.ascii	"sysinterval_t\000"
 2335      6E746572 
 2335      76616C5F 
 2335      7400
 2336              	.LASF88:
 2337 0246 6F627146 		.ascii	"obqFlush\000"
 2337      6C757368 
 2337      00
 2338              	.LASF26:
 2339 024f 636E745F 		.ascii	"cnt_t\000"
 2339      7400
 2340              	.LASF0:
 2341 0255 756E7369 		.ascii	"unsigned int\000"
 2341      676E6564 
 2341      20696E74 
 2341      00
 2342              	.LASF60:
 2343 0262 77747365 		.ascii	"wtsemp\000"
 2343      6D7000
 2344              	.LASF58:
 2345 0269 77747472 		.ascii	"wttrp\000"
 2345      7000
 2346              	.LASF86:
 2347 026f 74696D65 		.ascii	"timeout\000"
 2347      6F757400 
 2348              	.LASF76:
 2349 0277 62756666 		.ascii	"buffers\000"
 2349      65727300 
 2350              	.LASF32:
 2351 027f 6E616D65 		.ascii	"name\000"
 2351      00
 2352              	.LASF42:
 2353 0284 6D706F6F 		.ascii	"mpool\000"
 2353      6C00
 2354              	.LASF83:
 2355 028a 73697A65 		.ascii	"size\000"
 2355      00
 2356              	.LASF8:
 2357 028f 73686F72 		.ascii	"short unsigned int\000"
ARM GAS  /tmp/ccpeSJ8z.s 			page 46


 2357      7420756E 
 2357      7369676E 
 2357      65642069 
 2357      6E7400
 2358              	.LASF45:
 2359 02a2 63685F74 		.ascii	"ch_thread\000"
 2359      68726561 
 2359      6400
 2360              	.LASF89:
 2361 02ac 6F627150 		.ascii	"obqPostFullBufferS\000"
 2361      6F737446 
 2361      756C6C42 
 2361      75666665 
 2361      725300
 2362              	.LASF39:
 2363 02bf 6570656E 		.ascii	"epending\000"
 2363      64696E67 
 2363      00
 2364              	.LASF20:
 2365 02c8 746D6F64 		.ascii	"tmode_t\000"
 2365      655F7400 
 2366              	.LASF127:
 2367 02d0 6F73616C 		.ascii	"osalThreadEnqueueTimeoutS\000"
 2367      54687265 
 2367      6164456E 
 2367      71756575 
 2367      6554696D 
 2368              	.LASF25:
 2369 02ea 6576656E 		.ascii	"eventmask_t\000"
 2369      746D6173 
 2369      6B5F7400 
 2370              	.LASF124:
 2371 02f6 474E5520 		.ascii	"GNU C17 10.2.1 20201103 (release) -mcpu=cortex-m4 -"
 2371      43313720 
 2371      31302E32 
 2371      2E312032 
 2371      30323031 
 2372 0329 6D746875 		.ascii	"mthumb -mfloat-abi=soft -march=armv7e-m -ggdb -O2 -"
 2372      6D62202D 
 2372      6D666C6F 
 2372      61742D61 
 2372      62693D73 
 2373 035c 666F6D69 		.ascii	"fomit-frame-pointer -falign-functions=16 -ffunction"
 2373      742D6672 
 2373      616D652D 
 2373      706F696E 
 2373      74657220 
 2374 038f 2D736563 		.ascii	"-sections -fdata-sections -fno-common -flto\000"
 2374      74696F6E 
 2374      73202D66 
 2374      64617461 
 2374      2D736563 
 2375              	.LASF52:
 2376 03bb 73746B61 		.ascii	"stkalign_t\000"
 2376      6C69676E 
 2376      5F7400
 2377              	.LASF30:
ARM GAS  /tmp/ccpeSJ8z.s 			page 47


 2378 03c6 6E657765 		.ascii	"newer\000"
 2378      7200
 2379              	.LASF117:
 2380 03cc 63685468 		.ascii	"chThdQueueObjectInit\000"
 2380      64517565 
 2380      75654F62 
 2380      6A656374 
 2380      496E6974 
 2381              	.LASF41:
 2382 03e1 7265616C 		.ascii	"realprio\000"
 2382      7072696F 
 2382      00
 2383              	.LASF43:
 2384 03ea 74687265 		.ascii	"thread_reference_t\000"
 2384      61645F72 
 2384      65666572 
 2384      656E6365 
 2384      5F7400
 2385              	.LASF2:
 2386 03fd 6C6F6E67 		.ascii	"long double\000"
 2386      20646F75 
 2386      626C6500 
 2387              	.LASF107:
 2388 0409 69627150 		.ascii	"ibqPostFullBufferI\000"
 2388      6F737446 
 2388      756C6C42 
 2388      75666665 
 2388      724900
 2389              	.LASF70:
 2390 041c 73757370 		.ascii	"suspended\000"
 2390      656E6465 
 2390      6400
 2391              	.LASF74:
 2392 0426 62746F70 		.ascii	"btop\000"
 2392      00
 2393              	.LASF97:
 2394 042b 6F627152 		.ascii	"obqResetI\000"
 2394      65736574 
 2394      4900
 2395              	.LASF29:
 2396 0435 7072696F 		.ascii	"prio\000"
 2396      00
 2397              	.LASF13:
 2398 043a 5F5F7569 		.ascii	"__uint64_t\000"
 2398      6E743634 
 2398      5F7400
 2399              	.LASF101:
 2400 0445 69627170 		.ascii	"ibqp\000"
 2400      00
 2401              	.LASF71:
 2402 044a 62636F75 		.ascii	"bcounter\000"
 2402      6E746572 
 2402      00
 2403              	.LASF22:
 2404 0453 74726566 		.ascii	"trefs_t\000"
 2404      735F7400 
 2405              	.LASF36:
ARM GAS  /tmp/ccpeSJ8z.s 			page 48


 2406 045b 72656673 		.ascii	"refs\000"
 2406      00
 2407              	.LASF24:
 2408 0460 6D73675F 		.ascii	"msg_t\000"
 2408      7400
 2409              	.LASF23:
 2410 0466 74707269 		.ascii	"tprio_t\000"
 2410      6F5F7400 
 2411              	.LASF81:
 2412 046e 6F757470 		.ascii	"output_buffers_queue_t\000"
 2412      75745F62 
 2412      75666665 
 2412      72735F71 
 2412      75657565 
 2413              	.LASF67:
 2414 0485 5F426F6F 		.ascii	"_Bool\000"
 2414      6C00
 2415              	.LASF17:
 2416 048b 696E7433 		.ascii	"int32_t\000"
 2416      325F7400 
 2417              	.LASF6:
 2418 0493 756E7369 		.ascii	"unsigned char\000"
 2418      676E6564 
 2418      20636861 
 2418      7200
 2419              	.LASF75:
 2420 04a1 6273697A 		.ascii	"bsize\000"
 2420      6500
 2421              	.LASF109:
 2422 04a7 69627152 		.ascii	"ibqResetI\000"
 2422      65736574 
 2422      4900
 2423              	.LASF106:
 2424 04b1 69627147 		.ascii	"ibqGetFullBufferTimeout\000"
 2424      65744675 
 2424      6C6C4275 
 2424      66666572 
 2424      54696D65 
 2425              	.LASF7:
 2426 04c9 73686F72 		.ascii	"short int\000"
 2426      7420696E 
 2426      7400
 2427              	.LASF62:
 2428 04d3 65776D61 		.ascii	"ewmask\000"
 2428      736B00
 2429              	.LASF111:
 2430 04da 696E6679 		.ascii	"infy\000"
 2430      00
 2431              	.LASF90:
 2432 04df 5F5F6675 		.ascii	"__func__\000"
 2432      6E635F5F 
 2432      00
 2433              	.LASF119:
 2434 04e8 63685379 		.ascii	"chSysLock\000"
 2434      734C6F63 
 2434      6B00
 2435              	.LASF85:
ARM GAS  /tmp/ccpeSJ8z.s 			page 49


 2436 04f2 6F627157 		.ascii	"obqWriteTimeout\000"
 2436      72697465 
 2436      54696D65 
 2436      6F757400 
 2437              	.LASF115:
 2438 0502 6F73616C 		.ascii	"osalSysUnlock\000"
 2438      53797355 
 2438      6E6C6F63 
 2438      6B00
 2439              	.LASF63:
 2440 0510 63685F73 		.ascii	"ch_semaphore\000"
 2440      656D6170 
 2440      686F7265 
 2440      00
 2441              	.LASF84:
 2442 051d 6F627154 		.ascii	"obqTryFlushI\000"
 2442      7279466C 
 2442      75736849 
 2442      00
 2443              	.LASF18:
 2444 052a 75696E74 		.ascii	"uint32_t\000"
 2444      33325F74 
 2444      00
 2445              	.LASF61:
 2446 0533 77746D74 		.ascii	"wtmtxp\000"
 2446      787000
 2447              	.LASF46:
 2448 053a 63685F74 		.ascii	"ch_threads_list\000"
 2448      68726561 
 2448      64735F6C 
 2448      69737400 
 2449              	.LASF65:
 2450 054a 6F776E65 		.ascii	"owner\000"
 2450      7200
 2451              	.LASF12:
 2452 0550 6C6F6E67 		.ascii	"long unsigned int\000"
 2452      20756E73 
 2452      69676E65 
 2452      6420696E 
 2452      7400
 2453              	.LASF33:
 2454 0562 77616261 		.ascii	"wabase\000"
 2454      736500
 2455              	.LASF77:
 2456 0569 6E6F7469 		.ascii	"notify\000"
 2456      667900
 2457              	.LASF15:
 2458 0570 63686172 		.ascii	"char\000"
 2458      00
 2459              	.LASF31:
 2460 0575 6F6C6465 		.ascii	"older\000"
 2460      7200
 2461              	.LASF91:
 2462 057b 6F627150 		.ascii	"obqPostFullBuffer\000"
 2462      6F737446 
 2462      756C6C42 
 2462      75666665 
ARM GAS  /tmp/ccpeSJ8z.s 			page 50


 2462      7200
 2463              	.LASF27:
 2464 058d 74687265 		.ascii	"thread_t\000"
 2464      61645F74 
 2464      00
 2465              	.LASF9:
 2466 0596 5F5F696E 		.ascii	"__int32_t\000"
 2466      7433325F 
 2466      7400
 2467              	.LASF128:
 2468 05a0 5F5F7365 		.ascii	"__set_BASEPRI\000"
 2468      745F4241 
 2468      53455052 
 2468      4900
 2469              	.LASF114:
 2470 05ae 6F73616C 		.ascii	"osalThreadQueueObjectInit\000"
 2470      54687265 
 2470      61645175 
 2470      6575654F 
 2470      626A6563 
 2471              	.LASF79:
 2472 05c8 62716E6F 		.ascii	"bqnotify_t\000"
 2472      74696679 
 2472      5F7400
 2473              	.LASF96:
 2474 05d3 73697A65 		.ascii	"sizep\000"
 2474      7000
 2475              	.LASF48:
 2476 05d9 74687265 		.ascii	"threads_queue_t\000"
 2476      6164735F 
 2476      71756575 
 2476      655F7400 
 2477              	.LASF64:
 2478 05e9 63685F6D 		.ascii	"ch_mutex\000"
 2478      75746578 
 2478      00
 2479              	.LASF94:
 2480 05f2 6F627152 		.ascii	"obqReleaseEmptyBufferI\000"
 2480      656C6561 
 2480      7365456D 
 2480      70747942 
 2480      75666665 
 2481              	.LASF123:
 2482 0609 62617365 		.ascii	"basePri\000"
 2482      50726900 
 2483              	.LASF82:
 2484 0611 6F627170 		.ascii	"obqp\000"
 2484      00
 2485              	.LASF16:
 2486 0616 75696E74 		.ascii	"uint8_t\000"
 2486      385F7400 
 2487              	.LASF35:
 2488 061e 666C6167 		.ascii	"flags\000"
 2488      7300
 2489              	.LASF93:
 2490 0624 6F627147 		.ascii	"obqGetEmptyBufferTimeout\000"
 2490      6574456D 
ARM GAS  /tmp/ccpeSJ8z.s 			page 51


 2490      70747942 
 2490      75666665 
 2490      7254696D 
 2491              	.LASF57:
 2492 063d 77746F62 		.ascii	"wtobjp\000"
 2492      6A7000
 2493              	.LASF125:
 2494 0644 2E2F4368 		.ascii	"./ChibiOS_20.3.0/os/hal/src/hal_buffers.c\000"
 2494      6962694F 
 2494      535F3230 
 2494      2E332E30 
 2494      2F6F732F 
 2495              	.LASF104:
 2496 066e 69627152 		.ascii	"ibqReleaseEmptyBuffer\000"
 2496      656C6561 
 2496      7365456D 
 2496      70747942 
 2496      75666665 
 2497              	.LASF112:
 2498 0684 6F73616C 		.ascii	"osalThreadDequeueAllI\000"
 2498      54687265 
 2498      61644465 
 2498      71756575 
 2498      65416C6C 
 2499              	.LASF44:
 2500 069a 74687265 		.ascii	"threads_list_t\000"
 2500      6164735F 
 2500      6C697374 
 2500      5F7400
 2501              	.LASF118:
 2502 06a9 63685379 		.ascii	"chSysUnlock\000"
 2502      73556E6C 
 2502      6F636B00 
 2503              	.LASF40:
 2504 06b5 6D74786C 		.ascii	"mtxlist\000"
 2504      69737400 
 2505              	.LASF92:
 2506 06bd 6F627147 		.ascii	"obqGetEmptyBufferTimeoutS\000"
 2506      6574456D 
 2506      70747942 
 2506      75666665 
 2506      7254696D 
 2507              		.text
 2508              		.section	.gnu.lto_.profile.6e40379315ec3b91,"e",%progbits
 2509 0000 789C6363 		.ascii	"x\234cc\000\002&\016\006!\006\000\000\224\000#"
 2509      0002260E 
 2509      06210600 
 2509      00940023 
 2510              		.text
 2511              		.section	.gnu.lto_.icf.6e40379315ec3b91,"e",%progbits
 2512 0000 789C9BC8 		.ascii	"x\234\233\310\200\000\022\014\357?\275\335\302\3048"
 2512      8000120C 
 2512      EF3FBDDD 
 2512      C2C438
 2513 000f BF67DF0A 		.ascii	"\277g\337\012~\246\3033{\336\2631\367-z\372\220\237"
 2513      7EA6C333 
 2513      7BDEB331 
ARM GAS  /tmp/ccpeSJ8z.s 			page 52


 2513      F72D7AFA 
 2513      909F
 2514 0021 E5F9E34D 		.ascii	"\345\371\343M\223\271Y\257\274>\266\211\225m\333\327"
 2514      93B959AF 
 2514      BC3EB689 
 2514      956DDBD7 
 2515 0031 AF5F38D9 		.ascii	"\257_8\331'm9\332\310\306\261\252a\325*n\316\227\367"
 2515      276D39DA 
 2515      C8C6B1AA 
 2515      61D52A6E 
 2515      CE97F7
 2516 0044 6EEF64E3 		.ascii	"n\357d\343\352\353|\376\225\237{[\333\211\327\314<'"
 2516      EAEB7CFE 
 2516      959F7B5B 
 2516      DB89D7CC 
 2516      3C27
 2517 0056 6EDC6AE4 		.ascii	"n\334j\344\342\235x\376\241\013\337\244\035w~\362\361"
 2517      E29D78FE 
 2517      A10BDFA4 
 2517      1D777EF2 
 2517      F1
 2518 0067 2F9C7A7C 		.ascii	"/\234z|\017\217\000X\253 X\253\320\304\327}\323Y\204"
 2518      0F8F0058 
 2518      AB2058AB 
 2518      D0C4D77D 
 2518      D35984
 2519 007a BB367474 		.ascii	"\2736tt\362\211\\\233w\243\237Qt\345\363c'\370\305\316"
 2519      F2895C9B 
 2519      77A39F51 
 2519      74E5F363 
 2519      27F8C5CE 
 2520 008e 3CDCF39F 		.ascii	"<\334\363\237E|\355\377\217s\270\031\000%\211I\211"
 2520      457CEDFF 
 2520      8F73B819 
 2520      00258949 
 2520      89
 2521              		.text
 2522              		.section	.gnu.lto_.ipa_sra.6e40379315ec3b91,"e",%progbits
 2523 0000 789C7D51 		.ascii	"x\234}Q\333\026\302 \014kZp\336\247\363\372\271~\272"
 2523      DB16C220 
 2523      0C6B5A70 
 2523      DEA7F3FA 
 2523      B97EBA
 2524 0013 B6503A77 		.ascii	"\266P:wv\340\001(\011\011)`j\343M\320EP\026\036\250"
 2524      76E00128 
 2524      09092960 
 2524      6AE34DD0 
 2524      4550161E 
 2525 0028 3320C602 		.ascii	"3 \306\002!\351&InJ`\370n\303A\307'\021\261a\3460(\226"
 2525      21E92649 
 2525      6E4A60F8 
 2525      6EC341C7 
 2525      2711B161 
 2526 0040 0D63C3F4 		.ascii	"\015c\303\364\224\267E\266\260\261\323*{\265\017\265"
 2526      94B745B6 
 2526      B0B1D32A 
 2526      7BB50FB5 
ARM GAS  /tmp/ccpeSJ8z.s 			page 53


 2527 0050 9F09B9D0 		.ascii	"\237\011\271\320!\371\361\014\256)\302}Vq%\021\035\373"
 2527      21F9F10C 
 2527      AE29C27D 
 2527      56712511 
 2527      1DFB
 2528 0062 194F9EF1 		.ascii	"\031O\236\361\254W\314FF,2^:\031\257\253\031\247hUM"
 2528      AC57CC46 
 2528      462C325E 
 2528      3A19AFAB 
 2528      19A76855 
 2529 0077 766B3C04 		.ascii	"vk<\004\017w\371k\270?\\\347\307j\346\326\022\317\027"
 2529      0F77F96B 
 2529      B83F5CE7 
 2529      C76AE6D6 
 2529      12CF17
 2530 008a 55647E96 		.ascii	"Ud~\226\357}\331\267\271\235)}\001c\263\006\325"
 2530      EF7DD9B7 
 2530      B99D297D 
 2530      0163B306 
 2530      D5
 2531              		.text
 2532              		.section	.gnu.lto_.inline.6e40379315ec3b91,"e",%progbits
 2533 0000 789CAD56 		.ascii	"x\234\255V\355KSQ\030\177\3169w\367\336\351^\256\323"
 2533      ED4B5351 
 2533      187FCE39 
 2533      77F7DEE9 
 2533      5EAED3
 2534 0013 7284C4FE 		.ascii	"r\204\304\376\004\203 \351\323\376\202\375\015\332\362"
 2534      048320E9 
 2534      D3FE82FD 
 2534      0DDAF2
 2535 0022 A5970FF6 		.ascii	"\245\227\017\366\037L\277\365EV\004\241\240\214Z\030"
 2535      1F4CBFF5 
 2535      455604A1 
 2535      A08C5A18 
 2536 0032 21254C09 		.ascii	"!%L\011\221t\322\227\264\205\0031#\243f\224\346\013"
 2536      9174D297 
 2536      B4850331 
 2536      23A36694 
 2536      E60B
 2537 0044 BD808208 		.ascii	"\275\200\202\010\261\316s\316\275\367ls\263\031m\037"
 2537      B1CE73CE 
 2537      BDF76C73 
 2537      B3196D1F 
 2538 0054 76EE39E7 		.ascii	"v\3569\347y\373\375\236\337sw\315\013\356'\014\340M"
 2538      79FBFD9E 
 2538      DF7377CD 
 2538      0BEE270C 
 2538      E04D
 2539 0066 F00FED21 		.ascii	"\360\017\355!\004H\232\001\260\024\001M\307=v\025\300"
 2539      04489A01 
 2539      B014014D 
 2539      C73D7615 
 2539      C0
 2540 0077 940B0A14 		.ascii	"\224\013\012\024\210\270w\205\202F\201\211\3558h\334"
 2540      88B87785 
 2540      82468189 
ARM GAS  /tmp/ccpeSJ8z.s 			page 54


 2540      ED3868DC 
 2541 0087 05713D50 		.ascii	"\005q=P\333C\202\000\256\010\260\002\001\203\212\323"
 2541      DB438200 
 2541      AE08B002 
 2541      01838AD3 
 2542 0097 781DBEDC 		.ascii	"x\035\276\334]\323\275\001&8\366>\036\213B\013\177\230"
 2542      5DD3BD01 
 2542      2638F63E 
 2542      1E8B420B 
 2542      7F98
 2543 00a9 A4BD44C3 		.ascii	"\244\275D\303\010\224o1\021\011@\263\177\251\310\001"
 2543      08946F31 
 2543      110940B3 
 2543      7FA9C801 
 2544 00b9 C013E037 		.ascii	"\300\023\3407\263\254\033\204I\212\366`\\\307\227\362"
 2544      B3AC1B84 
 2544      498AF660 
 2544      5CC797F2 
 2545 00c9 1A76571D 		.ascii	"\032vW\035\350\014|h\305\375;\265\244(8\2214\2178\343"
 2545      E80C7C68 
 2545      C5FD3BB5 
 2545      A4283891 
 2545      348F38E3 
 2546 00dd A8340A8F 		.ascii	"\2504\012\217\335\225\22589#*L\244\233\214\361\007\377"
 2546      DD959538 
 2546      39232A4C 
 2546      A49B8CF1 
 2546      07FF
 2547 00ef D1C2D873 		.ascii	"\321\302\330s\016\217\006\375i\306\356\2624\32384\235"
 2547      0E8F06FD 
 2547      69C6EEB2 
 2547      34D33834 
 2547      9D
 2548 0100 508E9644 		.ascii	"P\216\226D\036W\032\036z5\341\214\007\323\345\242,\030"
 2548      1E571A1E 
 2548      7A35E18C 
 2548      07D3E5A2 
 2548      2C18
 2549 0112 0788FD3E 		.ascii	"\007\210\375>\310\256\210R\334]K\245`\201c\037\006R"
 2549      C8AE8852 
 2549      DC5D4BA5 
 2549      6081631F 
 2549      0652
 2550 0124 C80D6768 		.ascii	"\310\015gh'\205\010\005\317a\261X\344\347\021D\010\232"
 2550      27850805 
 2550      CF61B158 
 2550      E4E71144 
 2550      089A
 2551 0136 B10ED65B 		.ascii	"\261\016\326[I\234(\266I\222\012\340\027U\327W\254\016"
 2551      499C28B6 
 2551      49920AE0 
 2551      1755D757 
 2551      AC0E
 2552 0148 A1CFABEB 		.ascii	"\241\317\253\353\203\354\272\354&tD\003\007\267\237"
 2552      83ECBAEC 
 2552      26744403 
 2552      07B79F
ARM GAS  /tmp/ccpeSJ8z.s 			page 55


 2553 0157 15591FF2 		.ascii	"\025Y\037\362\177\177\367\233\344\3016!\311\230\346"
 2553      7F7FF79B 
 2553      E4C13621 
 2553      C998E6
 2554 0166 27C274DF 		.ascii	"'\302t\3374D\037%9\366@\253\025\317s\362\3130\311\230"
 2554      34441F25 
 2554      39F640AB 
 2554      15CF73F2 
 2554      CB30C998 
 2555 017a 09ADDBB9 		.ascii	"\011\255\333\271\341\227<u\003n\245\231\007A\3259\250"
 2555      E1973C75 
 2555      036EA599 
 2555      0741D539 
 2555      A8
 2556 018b 09A6102C 		.ascii	"\011\246\020,\007U6\243\275\227U\220Kzuaji\242ex\253"
 2556      075536A3 
 2556      BD975590 
 2556      4B7A7561 
 2556      6A69A265 
 2557 01a1 36F04581 		.ascii	"6\360E\201\035\307\334n\325Z\230\273\273\021\265\033"
 2557      1DC7DC6E 
 2557      D55A98BB 
 2557      BB11B51B 
 2558 01b1 711BAC5D 		.ascii	"q\033\254]\235G\325y\324e\252\037\310\000\256\272($"
 2558      9D47D579 
 2558      D465AA1F 
 2558      C800AEBA 
 2558      2824
 2559 01c3 9012F9C0 		.ascii	"\220\022\371\300\327\312.A9\205v\027&\004$\026\240p"
 2559      D7CA2E41 
 2559      39857617 
 2559      26042416 
 2559      A070
 2560 01d5 92312F18 		.ascii	"\2221/\030\"\347\236\232\350\321F\211x\003\204\037\276"
 2560      22E79E9A 
 2560      E8D14689 
 2560      7803841F 
 2560      BE
 2561 01e6 DE991138 		.ascii	"\336\231\0218\237\373\276\365!\213$7\374X\\\336g\025"
 2561      9FFBBEF5 
 2561      218B2437 
 2561      FC585CDE 
 2561      6715
 2562 01f8 3715DE8D 		.ascii	"7\025\336\215pal\343\316+z\223\333\\\232\275\367&Co"
 2562      70616CE3 
 2562      CE2B7A93 
 2562      DB5C9ABD 
 2562      F726436F 
 2563 020c 000447E6 		.ascii	"\000\004G\346\262\013\254\317\261AL\307\203\202O\206"
 2563      B20BACCF 
 2563      B1414CC7 
 2563      83824F86 
 2564 021c 3636B762 		.ascii	"66\267b\015\222\346\365\266\3656_\271\204\215\377-a"
 2564      0D92E6F5 
 2564      B6F5365F 
 2564      B9848DFF 
 2564      2D61
ARM GAS  /tmp/ccpeSJ8z.s 			page 56


 2565 022e BF68D83C 		.ascii	"\277h\330<\367\317l\336\023\264\202m\214\251\327/\346"
 2565      F7CF6CDE 
 2565      13B4826D 
 2565      8CA9D72F 
 2565      E6
 2566 023f EA63A9A4 		.ascii	"\352c\251\244\353\003\020\234\3714\264\347J\234L\221"
 2566      EB03109C 
 2566      F934B4E7 
 2566      4A9C4C91 
 2567 024f BFCADB78 		.ascii	"\277\312\333x\361.?\206\023\326\230\037\3759u\\\336"
 2567      F12E3F86 
 2567      13D6981F 
 2567      FD39755C 
 2567      DE
 2568 0260 2A5069AB 		.ascii	"*Pi\2539\242\257G\336A\010\241\236\270F\364\177\322"
 2568      39A2AF47 
 2568      DE4108A1 
 2568      9EB846F4 
 2568      7FD2
 2569 0272 04A21460 		.ascii	"\004\242\024`\002\245\270|K\244N?\274\253\353D1W]1N"
 2569      02A5B87C 
 2569      4BA44E3F 
 2569      BCABEB44 
 2569      31575D31 
 2570 0287 711D4A11 		.ascii	"q\035J\021Q%\210h)\366V\371\3041N3q\232N1qB\020\346"
 2570      51258868 
 2570      29F656F9 
 2570      C4314E33 
 2570      719A4E31 
 2571 029f 13678561 		.ascii	"\023g\205a[\341\304!\323\304\2316\212d9Ft\201;\252\012"
 2571      5BE1C421 
 2571      D3C49936 
 2571      8A643946 
 2571      74813BAA 
 2572 02b4 FBB750D1 		.ascii	"\373\267P\321Z5\341q\032\322*\225u\263|k\236\220\242"
 2572      5A35E171 
 2572      1AD22A95 
 2572      75B37C6B 
 2572      9E90A2
 2573 02c7 834432D6 		.ascii	"\203D2\326\002m\273K_\326\304\335\363\323[o?b\012\276"
 2573      026DBB4B 
 2573      5FD6C4DD 
 2573      F3D35B6F 
 2573      3F620ABE 
 2574 02db 4C7EE281 		.ascii	"L~\342\201L\241\364\256*\354\014\\\234|\372uYH\373r"
 2574      4CA1F4AE 
 2574      2AEC0C5C 
 2574      9C7CFA75 
 2574      5948FB72 
 2575 02ef 6E23358B 		.ascii	"n#5\213\322\266F7\366W\035i3\037\0026\036,\025t\015"
 2575      D2B64637 
 2575      F6571D69 
 2575      331F0236 
 2575      1E2C1574 
 2576 0304 719F85C8 		.ascii	"q\237\205\310\332\257G\343|\012\351\245J\340\200\001"
 2576      DAAF47E3 
 2576      7C0AE9A5 
ARM GAS  /tmp/ccpeSJ8z.s 			page 57


 2576      4AE08001 
 2577 0314 8E68FE5F 		.ascii	"\216h\376_\201e\351\311\312p\332\221B\340\304W`\035"
 2577      8165E9C9 
 2577      CA70DA91 
 2577      42E0C457 
 2577      601D
 2578 0326 83D7B16F 		.ascii	"\203\327\261oW\032\211*\215D\313\307\255g@v:\317\312"
 2578      571A892A 
 2578      8D44CBC7 
 2578      AD674076 
 2578      3ACFCA
 2579 0339 CC0F6736 		.ascii	"\314\017g6i\334\204$1!\264\270s8\210\017\374\27347\377"
 2579      69DC8424 
 2579      3121B4B8 
 2579      7338880F 
 2579      FCBB3437 
 2580 034e 84759982 		.ascii	"\204u\231\202D\200V\260&\206\336?\026#74\275\231\333"
 2580      448056B0 
 2580      2686DE3F 
 2580      16233734 
 2580      BD99DB
 2581 0361 C649658E 		.ascii	"\306Ie\216d6\367\216s\003\177\000\325\314\022n"
 2581      6436F78E 
 2581      73037F00 
 2581      D5CC126E 
 2582              		.text
 2583              		.section	.gnu.lto_.jmpfuncs.6e40379315ec3b91,"e",%progbits
 2584 0000 789CB593 		.ascii	"x\234\265\223\355Q\3030\014\206\365Zn\234~\206\362="
 2584      ED51C330 
 2584      0C86F55A 
 2584      6E9C7E86 
 2584      F23D
 2585 0012 0B233054 		.ascii	"\013#0T\312\014\314\220\021\200\376\315f`\331J\361\245"
 2585      CA0CCC90 
 2585      1180FECD 
 2585      6660D94A 
 2585      F1A5
 2586 0024 716338D0 		.ascii	"qc8\320\235\316\027\331z%\313O\236\027t\262G\002p\350"
 2586      9DCE17D9 
 2586      7A25CB4F 
 2586      9E1774B2 
 2586      470270E8 
 2587 0038 D820AECE 		.ascii	"\330 \256\3168D;H\324{\355\235\274C\275\362\276d\315"
 2587      38443B48 
 2587      D47BED9D 
 2587      BC43BDF2 
 2587      BE64CD
 2588 004b B2B588A0 		.ascii	"\262\265\210\240\267 \357\237\336\032\230W\356x\005"
 2588      B720EF9F 
 2588      DE1A9857 
 2588      EE7805
 2589 005a C425C442 		.ascii	"\304%\304Bh\2156\234l\3454YUX\370\312\254\2450)\207"
 2589      688D369C 
 2589      6CE53459 
 2589      5558F8CA 
 2589      ACA53029 
 2590 006f 37E01D2A 		.ascii	"7\340\035*\361\275KT\015\251\350xcl;N\245\013r\266\305"
ARM GAS  /tmp/ccpeSJ8z.s 			page 58


 2590      F1BD4B54 
 2590      0DA9E878 
 2590      636C3B4E 
 2590      A50B72B6 
 2591 0084 F8B41339 		.ascii	"\370\264\0239\250\234\235\222;\317\251\365\026S\325"
 2591      A89C9D92 
 2591      3BCFA9F5 
 2591      1653D5
 2592 0093 E9E98597 		.ascii	"\351\351\205\2272\311\314\376j\266\375\262\036\3262"
 2592      32C9CCFE 
 2592      6AB6FDB2 
 2592      1ED632
 2593 00a2 4A343AC3 		.ascii	"J4:\303\360T9\305\352\254\307\231\357\331\204\360,@"
 2593      F05439C5 
 2593      EAACC799 
 2593      EFD984F0 
 2593      2C40
 2594 00b4 1FE37D7C 		.ascii	"\037\343}|\230\351\306y\034\332\244\250\271\034j[\005"
 2594      98E9C679 
 2594      1CDAA4A8 
 2594      B91C6A5B 
 2594      05
 2595 00c5 F3121BF8 		.ascii	"\363\022\033\370@\202\326N\007+\222\333\246$\375\210"
 2595      4082D64E 
 2595      072B92DB 
 2595      A624FD88 
 2596 00d5 04ABAB21 		.ascii	"\004\253\253!\375o\260\332+V\356\007X]'7@\216\255\233"
 2596      FD6FB0DA 
 2596      2B56EE07 
 2596      585D2737 
 2596      408EAD9B 
 2597 00e9 441885C2 		.ascii	"D\030\205\302\267\362\343:U\336\345:*\003\321\214Cw"
 2597      B7F2E33A 
 2597      55DEE53A 
 2597      2A03D18C 
 2597      4377
 2598 00fb 271045BD 		.ascii	"'\020E\275\031@,\251\360O`\362\357\300\274Wf\036\006"
 2598      19402CA9 
 2598      F04F60F2 
 2598      EFC0BC57 
 2598      661E06
 2599 010e 760A6E40 		.ascii	"v\012n@_\3144g\253"
 2599      5FCC3467 
 2599      AB
 2600              		.text
 2601              		.section	.gnu.lto_.pureconst.6e40379315ec3b91,"e",%progbits
 2602 0000 789C05C1 		.ascii	"x\234\005\301\211\001CP\000D\301O\336\"n\022GKZ\334"
 2602      89014350 
 2602      0044C14F 
 2602      DE226E12 
 2602      474B5ADC 
 2603 0014 52B63A33 		.ascii	"R\266:3O)\345.\2462\265\371\030\214Lc\332\2503\337\250"
 2603      4F29E52E 
 2603      A632B5F9 
 2603      188C4C63 
 2603      DAA833DF 
 2604 0029 8F866834 		.ascii	"\217\206h4\223\231\315bV\263E\273\371E\377\350\210N"
ARM GAS  /tmp/ccpeSJ8z.s 			page 59


 2604      9399CD62 
 2604      56B345BB 
 2604      F945FFE8 
 2604      884E
 2605 003b 73452F71 		.ascii	"sE/q\317\021o"
 2605      CF116F
 2606              		.text
 2607              		.section	.gnu.lto_.lto.6e40379315ec3b91,"e",%progbits
 2608 0000 09000200 		.ascii	"\011\000\002\000\001\000\000\000"
 2608      01000000 
 2609              		.text
 2610              		.section	.gnu.lto_ibqObjectInit.352.6e40379315ec3b91,"e",%progbits
 2611 0000 789C8D95 		.ascii	"x\234\215\225mL[U\030\307\317\377\236\333[Z\2401&\204"
 2611      6D4C5B55 
 2611      18C7CFFF 
 2611      9EDB5B5A 
 2611      A0312684 
 2612 0014 4513435C 		.ascii	"E\023C\\\026\337\262\266\0143\263\304\017&3\306o~\330"
 2612      16DFB2B6 
 2612      0C33B3C4 
 2612      0F2633C6 
 2612      6F7ED8
 2613 0027 37FD40A1 		.ascii	"7\375@\241\224\264\031\224\256\267\030\347\227]\333"
 2613      94B41994 
 2613      AEB718E7 
 2613      975DDB
 2614 0036 8D25CD1C 		.ascii	"\215%\315\0340\306\202\244\370\3224\206}r\232\241\340"
 2614      30C682A4 
 2614      F8D23486 
 2614      7D729AA1 
 2614      E0
 2615 0047 CBD63161 		.ascii	"\313\3261a\350`C$n\223\020\261\006\005\215\2100\263"
 2615      E8604324 
 2615      6E9310B1 
 2615      06058D88 
 2615      30B3
 2616 0059 1935FA9C 		.ascii	"\0315\372\234so[P\020\232\364\336s\236\376\177\317\377"
 2616      736F5B50 
 2616      109AF4DE 
 2616      739EFE7F 
 2616      CFFF
 2617 006b 39CF39F7 		.ascii	"9\3179\367\366y;c\367\201\261\235\2141p\206S\235I\205"
 2617      F6793B63 
 2617      F781B19D 
 2617      8C317086 
 2617      539D4985 
 2618 007f 1986F194 		.ascii	"\031\206\361\224]\301+\235I\007F g`G\024\034A\027\177"
 2618      5DC12B9D 
 2618      49074620 
 2618      67604714 
 2618      1C41177F 
 2619 0093 84A6778F 		.ascii	"\204\246w\217\365\246.\303\350\317\"\303\031{\235\276"
 2619      F5A62EC3 
 2619      E8CF22C3 
 2619      197B9DBE 
 2620 00a3 F293E238 		.ascii	"\362\223\3428\3053\034P\255\221\202*\032\361\027\330"
 2620      C5331C50 
ARM GAS  /tmp/ccpeSJ8z.s 			page 60


 2620      AD91822A 
 2620      1AF117D8 
 2621 00b3 4359C398 		.ascii	"CY\303\230\234\0314\014\007\313p\216\017@\014\336\007"
 2621      9C19340C 
 2621      07CB708E 
 2621      0F400CDE 
 2621      07
 2622 00c4 06C89902 		.ascii	"\006\310\231\002\276\263\025B\367\222\251[:o\030\234"
 2622      BEB31542 
 2622      F792A95B 
 2622      3A6F189C 
 2623 00d4 C22A86A4 		.ascii	"\302*\206\244\256\006^\241R}\003R\025\207)\353M\034"
 2623      AE065EA1 
 2623      527D0352 
 2623      158729EB 
 2623      4D1C
 2624 00e6 37EE5133 		.ascii	"7\356Q3\334\206\217\326\247\263\371.I\3411S\270\334"
 2624      DC868FD6 
 2624      A7B3F92E 
 2624      49E13153 
 2624      B8DC
 2625 00f8 F7DD4957 		.ascii	"\367\335IW\007U\252\341\223\365B\3157.\205I+\343M\253"
 2625      0755AAE1 
 2625      93F542CD 
 2625      372E8549 
 2625      2BE34DAB 
 2626 010c 400D17FF 		.ascii	"@\015\027\377-\274)\205',\341\222%\264\343\322z\241"
 2626      2DBC2985 
 2626      272CE192 
 2626      25B4E3D2 
 2626      7AA1
 2627 011e DD9793C2 		.ascii	"\335\227\223\302NK\230\264j,\301\345\365\302\022\337"
 2627      4E4B98B4 
 2627      6A2CC1E5 
 2627      F5C212DF 
 2628 012e 5205639A 		.ascii	"R\005c\232\325<\020#\307\300(D\033\371\031y\0239\356"
 2628      D53C1023 
 2628      C7C02844 
 2628      1BF91979 
 2628      1339EE
 2629 0141 DE4E8E0D 		.ascii	"\336N\216\015=y%a<\233\341\016\\\2414\212\225\006c\264"
 2629      3D792561 
 2629      3C9BE10E 
 2629      5CA1348A 
 2629      950663B4 
 2630 0155 2887AFAB 		.ascii	"(\207\257\253\222\224\273\204r\362\333\327N\330\215"
 2630      9294BB84 
 2630      72F2DBD7 
 2630      4ED88D
 2631 0164 3143CD2B 		.ascii	"1C\315+YQin\217&6o\272\032\237QlD\244*\270\244N\366"
 2631      5951696E 
 2631      8F26366F 
 2631      BA1A9F51 
 2631      6C44A42A 
 2632 017c 4C3C9032 		.ascii	"L<\2202\262\005\226\347\331\253\322%[p\021\365x\207"
 2632      B20596E7 
 2632      D9ABD225 
ARM GAS  /tmp/ccpeSJ8z.s 			page 61


 2632      5B7011F5 
 2632      7887
 2633 018e 131BFA5C 		.ascii	"\023\033\372\\]\34338\237\3220N\301\317E\266\202\321"
 2633      5DE33338 
 2633      9FD2304E 
 2633      C1CF45B6 
 2633      82D1
 2634 01a0 74FBD0BB 		.ascii	"t\373\320\273U\243k\226\203<|M\032u\354\310\033QI\257"
 2634      55A36B96 
 2634      833C7C4D 
 2634      1A75ECC8 
 2634      1B5149AF 
 2635 01b4 96524947 		.ascii	"\226RIG\253\376\343sm\255\317\304^\\\247\330\204\310"
 2635      ABFEE373 
 2635      6DADCFC4 
 2635      5E5CA7D8 
 2635      84C8
 2636 01c6 255A8A49 		.ascii	"%Z\212I\331F!yg\312\2265\376\374\273\335\310\036/\357"
 2636      D9462179 
 2636      67CA9635 
 2636      FEFCBBDD 
 2636      C81E2FEF 
 2637 01da 4B7CBF7C 		.ascii	"K|\277|a\347\375\240\356;\024\2728\305\031s\252\342"
 2637      61E7FDA0 
 2637      EE3B14BA 
 2637      38C51973 
 2637      AAE2
 2638 01ec C0D88041 		.ascii	"\300\330\200A\330\201\017\341\004>F9p\001. \213\012"
 2638      D8810FE1 
 2638      043E4639 
 2638      70012E20 
 2638      8B0A
 2639 01fe 601895C0 		.ascii	"`\030\225\300\247\224\254\235\213\347\302Pad\031\353"
 2639      A794AC9D 
 2639      8BE7C250 
 2639      616419EB 
 2640 020e E08A3949 		.ascii	"\340\2129I\320\344G\030\271\213\344H\367\007\013\227"
 2640      D0E44718 
 2640      B98BE448 
 2640      F7070B97 
 2641 021e DC94C696 		.ascii	"\334\224\306\226\020?\235D\232\303z\036\270\334\325"
 2641      103F9D44 
 2641      9AC37A1E 
 2641      B8DCD5
 2642 022d B7C513D5 		.ascii	"\267\305\023\325\277+\303K\323tx\247d\314K\241\222\014"
 2642      BF2BC34B 
 2642      D37478A7 
 2642      64CC4BA1 
 2642      920C
 2643 023f 2FC397E8 		.ascii	"/\303\227\350\023'\342\250\320,\210\206`\032\302!^E"
 2643      1327E2A8 
 2643      D02C8886 
 2643      601AC221 
 2643      5E45
 2644 0251 9B469944 		.ascii	"\233F\231D\352\325\305\356\216\325\271{\251\261\322"
 2644      EAD5C5EE 
 2644      8ED5B97B 
ARM GAS  /tmp/ccpeSJ8z.s 			page 62


 2644      A9B1D2
 2645 0260 A87BB527 		.ascii	"\250{\265'/\031/H\206R\347z\317\200\232\"%\003_;,\305"
 2645      2F192F48 
 2645      8652E77A 
 2645      CF809A22 
 2645      25035F3B 
 2646 0276 F582E2EC 		.ascii	"\365\202\342\354\033+9J2i*\356\344z\200/ J\356]tY\365"
 2646      1B2B394A 
 2646      32692AEE 
 2646      E47A802F 
 2646      204AEE5D 
 2647 028d 3AAC7AA9 		.ascii	":\254z\251Ge\242\326\257\300D\241\375\364S9nP\245\020"
 2647      4765A2D6 
 2647      AFC044A1 
 2647      FDF45339 
 2647      6E50A510 
 2648 02a1 CDB612E6 		.ascii	"\315\266\022\346~\317\355(\342\233@\267\010R\212P|y"
 2648      7ECFED28 
 2648      E29B40B7 
 2648      08528A50 
 2648      7C79
 2649 02b3 28759E6A 		.ascii	"(u\236j\023\033(\247\013\335\247uqh\344\344\315\256"
 2649      131B28A7 
 2649      0BDDA775 
 2649      7168E4E4 
 2649      CDAE
 2650 02c5 01958EA9 		.ascii	"\001\225\216\2518\255\322`Z3\363W\344\233\270\300\213"
 2650      38ADD260 
 2650      5A33F357 
 2650      E49BB8C0 
 2650      8B
 2651 02d6 4DB43AA8 		.ascii	"M\264:\250b\206,\250\205in\227\320\215Q\261\250\341"
 2651      62862CA8 
 2651      85696E97 
 2651      D08D51B1 
 2651      A8E1
 2652 02e8 95858DA9 		.ascii	"\225\205\215\251\267$\345\302,Q*cb\325.\313\356\326"
 2652      B724E5C2 
 2652      2C512A63 
 2652      62D52ECB 
 2652      EED6
 2653 02fa 28B6F6B3 		.ascii	"(\266\366\263a\216H\233\360sJjf{T\216(\255H\315J*\221"
 2653      618E489B 
 2653      F0734A6A 
 2653      667B548E 
 2653      28AD48CD 
 2654 0311 6A9B50D3 		.ascii	"j\233P\323\\I\363rQ\210\006U\004\317\265\315ki\316e"
 2654      5C49F372 
 2654      51880655 
 2654      04CFB5CD 
 2654      6B69CE65 
 2655 0325 DC2502EF 		.ascii	"\334%\002\357\265\215\320\214\204N\012\013\263\345\344"
 2655      B58DD08C 
 2655      844E0A0B 
 2655      B3E5E4
 2656 0334 ACF2BF6E 		.ascii	"\254\362\277n\363\344f\027n\252t\373\306\254q\013L\303"
 2656      F3E46617 
ARM GAS  /tmp/ccpeSJ8z.s 			page 63


 2656      6EAA74FB 
 2656      C6AC710B 
 2656      4CC3
 2657 0346 0F849508 		.ascii	"\017\204\225\010L\221\330\257\333Y\232\206E\242\034"
 2657      4C91D8AF 
 2657      DB599A86 
 2657      45A21C
 2658 0355 8272496A 		.ascii	"\202rIju{\015\371\211(g\261!\277\231\324f\333\226\247"
 2658      757B0DF9 
 2658      892867B1 
 2658      21BF99D4 
 2658      66DB96A7 
 2659 0369 7E26AAD4 		.ascii	"~&\252\324\3346\233\265mw\266G.\023YF/\213_\254\303"
 2659      DC369BB5 
 2659      6D77B647 
 2659      2E135946 
 2659      2F8B5FAC 
 2660 037e BB9D2AED 		.ascii	"\273\235*\355X!\252\\TY!\251?\266C\225\3406Q.AU\262"
 2660      5821AA5C 
 2660      545921A9 
 2660      3FB64395 
 2660      E036512E 
 2661 0395 15C4E7FE 		.ascii	"\025\304\347\376zF\376]\266s\230\357\220xVLw{\202-\315"
 2661      7A46FE5D 
 2661      B67398EF 
 2661      9078564C 
 2661      777B822D 
 2662 03aa 014FA8AE 		.ascii	"\001O\250\2569\022\015\305\202/\206\364` \026;\354\331"
 2662      39120DC5 
 2662      822F86F4 
 2662      6020163B 
 2662      ECD9
 2663 03bc FFF48148 		.ascii	"\377\364\201H\235?\340in\366\327<^\275\2676\026\320"
 2663      9D3FE069 
 2663      6EF6D73C 
 2663      5EBDB736 
 2663      16D0
 2664 03ce 637BD8A3 		.ascii	"c{\330\243n\317\376`\250>\364\334\201\332=^w\215\333"
 2664      6ECFFE60 
 2664      A83EF4DC 
 2664      81DA3D5E 
 2664      778DDB
 2665 03e1 EB69D13D 		.ascii	"\353i\321=\301\272&\217\036\365\213{m}kcc \252\273\375"
 2665      C1BA268F 
 2665      1EF58B7B 
 2665      6D7D6B63 
 2665      6320AABB 
 2666 03f6 4C0DD51F 		.ascii	"L\015\325\037\212T\256\213\271\253\237\360{\375\373"
 2666      8A54AE8B 
 2666      B9AB9FF0 
 2666      7BFDFB
 2667 0405 EAF73187 		.ascii	"\352\3671\207\336\252G\002\341\206@\203R\037Q\365\320"
 2667      DEAA4702 
 2667      E1864083 
 2667      521F51F5 
 2667      D0
 2668 0416 CB0184D5 		.ascii	"\313\001\204\325P\270\361\260\332\024\012\037\344\261"
ARM GAS  /tmp/ccpeSJ8z.s 			page 64


 2668      50B8F1B0 
 2668      DA140A1F 
 2668      E4B1
 2669 0424 4391C736 		.ascii	"C\221\3076sj\321\351\022\215\355\016\207\314\261;\310"
 2669      736AD1E9 
 2669      128DED0E 
 2669      87CCB13B 
 2669      C8
 2670 0435 36D44663 		.ascii	"6\324Fc\236P\330\337\324\332\020\360\370\203\261`4P"
 2670      9E50D8DF 
 2670      D4DA10F0 
 2670      F883B160 
 2670      3450
 2671 0447 D7A093F6 		.ascii	"\327\240\223\366\341-\265\272?\330@\302\177\000\300"
 2671      E12DB5BA 
 2671      3FD840C2 
 2671      7F00C0
 2672 0456 BCB377   		.ascii	"\274\263w"
 2673              		.text
 2674              		.section	.gnu.lto_ibqResetI.353.6e40379315ec3b91,"e",%progbits
 2675 0000 789C8D93 		.ascii	"x\234\215\223OHTA\034\307\347\373\346\355\272f\247\300"
 2675      4F485441 
 2675      1CC7E7FB 
 2675      E6EDBA66 
 2675      A7C0
 2676 0012 BC140911 		.ascii	"\274\024\011\021\322\037\367\255\032\225\267\300\240"
 2676      D21FF7AD 
 2676      1A95B7C0 
 2676      A0
 2677 001f 6E1D3C76 		.ascii	"n\035<vPwY\333\007m\256\373\266\250KNk\022,\301\252"
 2677      507759DB 
 2677      076DAEFB 
 2677      B6A84B4E 
 2677      6B122CC1 
 2678 0034 75904829 		.ascii	"u\220H)[B\350\340\251\322\324|i\260E\204\246H\210X\322"
 2678      5B42E8E0 
 2678      A9D2D47C 
 2678      69B04584 
 2678      A6488858 
 2679 0049 C93A8429 		.ascii	"\311:\204)\210PP\277\231\331m\025\222Zx\363\3467\373"
 2679      885050BF 
 2679      99D96D15 
 2679      925A78F3 
 2679      E637FB
 2680 005c FD7E7EF3 		.ascii	"\375~~\363\233\337\274\207\234\261\307\214\261\375\364"
 2680      9BDFBC87 
 2680      9CB1C78C 
 2680      B1FDF4
 2681 006b 80337477 		.ascii	"\2003tw\245\014&\2048Yd\340zW\252\030\303P\021X\233"
 2681      A50C2684 
 2681      385964E0 
 2681      7A57AA18 
 2681      C3501158 
 2682 0080 8136DCE6 		.ascii	"\2016\334\346\007)\334\350\270\2730\0111\340\"C\366"
 2682      0729DCE8 
 2682      B8BB3009 
 2682      31E02243 
ARM GAS  /tmp/ccpeSJ8z.s 			page 65


 2682      F6
 2683 0091 3E7AD4EF 		.ascii	">z\324\357\036G7\317p\300\314\315\014\224\323\214\237"
 2683      1E4737CF 
 2683      70C0CCCD 
 2683      0C94D38C 
 2683      9F
 2684 00a2 6315AE10 		.ascii	"c\025\256\020\323SCB\024\263\014\347x\006\362\340)\360"
 2684      D3534342 
 2684      14B30CE7 
 2684      7806F2E0 
 2684      29F0
 2685 00b4 044C2E34 		.ascii	"\004L.4v\2262\346\315\221@\0265\007\236C2\371\0259J"
 2685      769632E6 
 2685      CD914016 
 2685      35079E43 
 2685      32F91539 
 2686 00c9 C4C6C6CD 		.ascii	"\304\306\306\315\301\221#\331vq&\303M\214@j4\005\243"
 2686      C19123D9 
 2686      767126C3 
 2686      4D8C406A 
 2686      3405A3
 2687 00dc B415B3B1 		.ascii	"\264\025\263\261k7)\017H\345\364|\357\255\"\361Z\230"
 2687      6B37290F 
 2687      48E5F47C 
 2687      EFAD22F1 
 2687      5A98
 2688 00ee 79252B28 		.ascii	"y%+(\365V\371\200\242W\210\034\367D\217\334_\206{\360"
 2688      F556F980 
 2688      A257881C 
 2688      F7448FDC 
 2688      5F867BF0 
 2689 0102 6233789C 		.ascii	"b3x\234\300\236\306>\005\026[\301Z\311\012J\015\366"
 2689      C09EC63E 
 2689      05165BC1 
 2689      5AC90A4A 
 2689      0DF6
 2690 0114 926C68BD 		.ascii	"\222lh\275\012.0F\313\303\222&\253\303KU\221T\015\316"
 2690      0A2E3046 
 2690      CBC39226 
 2690      ABC34B55 
 2690      91540DCE 
 2691 0128 785CF1F3 		.ascii	"x\\\361\363WZ\210O{\027G\177\370J@\307\3405h0M`\210"
 2691      575A884F 
 2691      7B17477F 
 2691      F84A40C7 
 2691      E0356830 
 2692 013f 24692EBB 		.ascii	"$i.\273 L\010\227\261Nn\350\240\235\202\257\020\237"
 2692      204C0897 
 2692      B14E6EE8 
 2692      A09D82AF 
 2692      109F
 2693 0151 47B265EA 		.ascii	"G\262e\352=\236\005\373\206\211\325\345\322\334\211"
 2693      3D9E05FB 
 2693      8689D5E5 
 2693      D2DC89
 2694 0160 7355D323 		.ascii	"sU\323#\331\263e\012\213\372\251\372I\260\300\003!|"
 2694      D9B3650A 
ARM GAS  /tmp/ccpeSJ8z.s 			page 66


 2694      8BFAA9FA 
 2694      49B0C003 
 2694      217C
 2695 0172 19EEC32B 		.ascii	"\031\356\303+\364\3123\226R\0374\353\275b$G\277\354"
 2695      F4CA3396 
 2695      521F34EB 
 2695      BD622447 
 2695      BFEC
 2696 0184 E9E7C89B 		.ascii	"\351\347\310\233}\233\274:\364\"K^\271y\022\257\244"
 2696      7D9BBC3A 
 2696      F4224B5E 
 2696      B97912AF 
 2696      A4
 2697 0195 168DBFE6 		.ascii	"\026\215\277\346\311k\337\220\326`\214\210*\307\254"
 2697      C96BDF90 
 2697      D6608C88 
 2697      2AC7AC
 2698 01a4 CEF14FDB 		.ascii	"\316\361O\333[\262\361\202mN\333ty\333\273\336\221\313"
 2698      5BB2F182 
 2698      6D4EDB74 
 2698      79DBBBDE 
 2698      91CB
 2699 01b6 D4457973 		.ascii	"\324EysE}\370?\34749=\324\231)\235o^\273\356\244\320"
 2699      457DF83F 
 2699      E734393D 
 2699      D499299D 
 2699      6F5EBBEE 
 2700 01cc CFFF6C74 		.ascii	"\317\377lt`_\301Hk9o1f\310K]\275\241\340\362\366aV%"
 2700      605FC148 
 2700      6B396F31 
 2700      66C84B5D 
 2700      BDA1E0F2 
 2701 01e4 4F9653DB 		.ascii	"O\226S\333\311\257\247\256j\313\016\\\223\011\326\276"
 2701      C9AFA7AE 
 2701      6ACB0E5C 
 2701      9309D6BE 
 2702 01f4 A73FAE2F 		.ascii	"\247?\256/\355\242\213\240\322\255\255\367\000\023`"
 2702      EDA28BA0 
 2702      D2ADADF7 
 2702      001360
 2703 0203 2BE82827 		.ascii	"+\350('\216\221\341%}\364\315\320\277d\307\0341wJ\310"
 2703      8E91E125 
 2703      7DF4CDD0 
 2703      BF64C71C 
 2703      31774AC8 
 2704 0217 CAFDC931 		.ascii	"\312\375\3111\223\256\221\274My(c\253H.-\234V\337]\232"
 2704      93AE91BC 
 2704      4D792863 
 2704      AB482E2D 
 2704      9C56DF5D 
 2705 022c 435F8FA4 		.ascii	"C_\217\244+\303J+\322\022\015[vS4\026\267\023\221\313"
 2705      2BC34A2B 
 2705      D2120D5B 
 2705      76533416 
 2705      B71391CB 
 2706 0240 B6130927 		.ascii	"\266\023\011'\022W\255\272S\365\261\246P\330\212FC5"
 2706      1257ADBA 
ARM GAS  /tmp/ccpeSJ8z.s 			page 67


 2706      53F5B1A6 
 2706      50D88A46 
 2706      4335
 2707 0252 47AB8E35 		.ascii	"G\253\2165$\302N\242\232\035\362[u\021;h\237\255o\250"
 2707      24C24EA2 
 2707      9A1DF25B 
 2707      75113B68 
 2707      9FAD6FA8 
 2708 0266 0EF86BFC 		.ascii	"\016\370k\374\001\253\305\261\"M\027,'\036\222\357\206"
 2708      01ABC5B1 
 2708      224D172C 
 2708      271E92EF 
 2708      86
 2709 0277 E0A5E6E6 		.ascii	"\340\245\346\346p\334\361\207\230i\007[ce[\326\374U"
 2709      70DCF187 
 2709      9869075B 
 2709      63655BD6 
 2709      FC55
 2710 0289 C7438150 		.ascii	"\307C\201Pm\260\226\361Dk\354\360v\254\026\207\206x"
 2710      6DB096F1 
 2710      446BECF0 
 2710      76AC1687 
 2710      8678
 2711 029b A2F2A2AD 		.ascii	"\242\362\242\255\347\376\010\343Q\347\374o\346O]\261"
 2711      E7FE08E3 
 2711      51E7FC6F 
 2711      E64F5DB1 
 2712              		.text
 2713              		.section	.gnu.lto_ibqGetEmptyBufferI.354.6e40379315ec3b91,"e",%progbits
 2714 0000 789C7D51 		.ascii	"x\234}QKkSA\024>g\316\334\233[\013\335(\010\256\272"
 2714      4B6B5341 
 2714      143E67CE 
 2714      DC9B5B0B 
 2714      DD2808AE 
 2715 0015 11B16A6E 		.ascii	"\021\261jn\372@\351\256\030Wn\\t)\030\223KJ.\030\032"
 2715      FA40E9AE 
 2715      18576E5C 
 2715      74291893 
 2715      4B4A2E18 
 2716 002a 93A82848 		.ascii	"\223\250(H'}b]$\251\2504\266\005/\301\307J1\212U+\215"
 2716      277D625D 
 2716      24A9A834 
 2716      B6052FC1 
 2716      C74A318A 
 2717 0041 8A1B29F8 		.ascii	"\212\033)\370\302?\320E5*\241\270\361AE\317\334\224"
 2717      C23FD045 
 2717      352AA1B8 
 2717      F14145CF 
 2717      DC94
 2718 0053 54415CCC 		.ascii	"TA\\\314\2319g\276\357\233\357\234\331/\000N\001\300"
 2718      993967BE 
 2718      EF9BEF9C 
 2718      D92F004E 
 2718      01C0
 2719 0065 595E6801 		.ascii	"Y^h\001N\025'\005(\245\372\002B\214\024\317\013|\200"
 2719      4E152705 
 2719      28A5FA02 
ARM GAS  /tmp/ccpeSJ8z.s 			page 68


 2719      428C14CF 
 2719      0B7C80
 2720 0078 2B4BD39B 		.ascii	"+K\323\233\345h\261\255TY\331-I\214\025[\371\276]W\374"
 2720      E568B1AD 
 2720      5459D92D 
 2720      498C155B 
 2720      F9BE5D57 
 2721 008d 5DE2C526 		.ascii	"]\342\305&\307\020\023\015\316\223\345|\253\034/\266"
 2721      C710130D 
 2721      CE93E57C 
 2721      AB1C2FB6 
 2722 009d 2DCEAEF6 		.ascii	"-\316\256\366H\023/\027'_\336<\342C\002\230k\302\021"
 2722      48132F17 
 2722      275FDE3C 
 2722      E2430298 
 2722      6BC211
 2723 00b0 860449C3 		.ascii	"\206\004I\303\014\340\020^\240\031\302)*\023\240\\?"
 2723      0CE0105E 
 2723      A019C229 
 2723      2A13A05C 
 2723      3F
 2724 00c1 21B6EFAC 		.ascii	"!\266\357\254*\365m\254t\356\2719s\243*\313$`\216\001"
 2724      2AF56DAC 
 2724      74EEB939 
 2724      73A32ACB 
 2724      24608E01 
 2725 00d5 F710EF22 		.ascii	"\367\020\357\"\033\006\006\322a\330\301\240W\237\347"
 2725      1B0606D2 
 2725      61D8C1A0 
 2725      579FE7
 2726 00e4 956A8132 		.ascii	"\225j\2012\021\336\307?0\\8\372u\013\200\011\232\251"
 2726      11DEC73F 
 2726      305C38FA 
 2726      750B8009 
 2726      9AA9
 2727 00f6 9BE475EB 		.ascii	"\233\344u\353\215QUk\277\362J\275{\217\245\355\233\220"
 2727      8D51556B 
 2727      BFF24ABD 
 2727      7B8FA5ED 
 2727      9B90
 2728 0108 6142E840 		.ascii	"aB\350@\034\244\344`\030\034LS\327,\304y\324\322<\252"
 2728      1CA4E460 
 2728      181C4C53 
 2728      D72CC479 
 2728      D4D23CAA 
 2729 011c 3C69E74A 		.ascii	"<i\347J\242\252\002\024H4\222\034'\037Q-_:\310\255\373"
 2729      A2AA0214 
 2729      4834921C 
 2729      271F512D 
 2729      5F3AC8AD 
 2730 0131 A72B2F10 		.ascii	"\247+/\020\3528\274P#\217p\275\035B\355\367\0322\305"
 2730      EA38BC50 
 2730      238F70BD 
 2730      1D42EDF7 
 2730      1A32C5
 2731 0144 2A53C023 		.ascii	"*S\300#\013\037\"\204\032\251\300G8\353\033\324\264"
 2731      0B1F2284 
ARM GAS  /tmp/ccpeSJ8z.s 			page 69


 2731      1AA9C047 
 2731      38EB1BD4 
 2731      B4
 2732 0155 168FC4FF 		.ascii	"\026\217\304\377\260\217\031\253\033\251\341\350\207"
 2732      B08F19AB 
 2732      1BA9E1E8 
 2732      87
 2733 0162 30BFE069 		.ascii	"0\277\340io\240\035\321m\376.\324\216\260\216O\265\020"
 2733      6FA01DD1 
 2733      6DFE2ED4 
 2733      8EB08E4F 
 2733      B510
 2734 0174 FD4BE8AA 		.ascii	"\375K\350\252\237Z\270\310B\242!Tc!\322>-\177\264\272"
 2734      9F5AB8C8 
 2734      42A22154 
 2734      6321D23E 
 2734      2D7FB4BA 
 2735 0188 57595B9A 		.ascii	"WY[\232\256\220\026\223\0052\232\275\232lqm\202\037"
 2735      AE901693 
 2735      05329ABD 
 2735      9A6C716D 
 2735      821F
 2736 019a 951E193E 		.ascii	"\225\036\031>\365\3316N4\327hp\177\240\201\273\350\014"
 2736      F5D9364E 
 2736      34D76870 
 2736      7FA081BB 
 2736      E80C
 2737 01ac 7648C19E 		.ascii	"vH\301\236\314\357\237r\327\2519\245\212?\233\221;\343"
 2737      CCEF9F72 
 2737      D7A939A5 
 2737      8A3F9B91 
 2737      3BE3
 2738 01be 3F85476C 		.ascii	"?\205Glp\3753\013\024\330\230\346\027\034\356\003\217"
 2738      70FD330B 
 2738      14D898E6 
 2738      171CEE03 
 2738      8F
 2739 01cf 4C5FCBD4 		.ascii	"L_\313\324\312\002\301\250\277^\265x\302\3142\347\336"
 2739      CA02C1A8 
 2739      BF5EB578 
 2739      C2CC32E7 
 2739      DE
 2740 01e0 2E203BC4 		.ascii	". ;\304\215\337\000\330c'\006\223q\333\215&Si7\2338"
 2740      8DDF00D8 
 2740      63270693 
 2740      71DB8D26 
 2740      5369379B 
 2741 01f5 E96612F1 		.ascii	"\351f\022\361l\366\264\035>\320\237\212:q;\231t\272"
 2741      6CF6B41D 
 2741      3ED09F8A 
 2741      3A713B99 
 2741      74BA
 2742 0207 7B3AF746 		.ascii	"{:\367F\262\361L\266\013:\202v8\341\306\334C\375\221"
 2742      B2F14CB6 
 2742      0B3A8276 
 2742      38E1C6DC 
 2742      43FD91
ARM GAS  /tmp/ccpeSJ8z.s 			page 70


 2743 021a AE50B03B 		.ascii	"\256P\260;\030\262\0073v\"z\314\316\244\035\275Gb'\006"
 2743      18B20733 
 2743      76227ACC 
 2743      CEA41DBD 
 2743      47622706 
 2744 022e 06E2E94C 		.ascii	"\006\342\351L\320\001\351\306\216\247\266\376U\013v"
 2744      D001E9C6 
 2744      8EA7B6FE 
 2744      550B76
 2745 023d EE73424E 		.ascii	"\356sBNo\254\027~\003.\212\360G"
 2745      6FAC177E 
 2745      032E8AF0 
 2745      47
 2746              		.text
 2747              		.section	.gnu.lto_ibqPostFullBufferI.355.6e40379315ec3b91,"e",%progbits
 2748 0000 789C7D54 		.ascii	"x\234}T]h\223W\030>\317\367\2364i\232F\020]a\314Y\004"
 2748      5D689357 
 2748      183ECFF7 
 2748      9E34699A 
 2748      46105D61 
 2749 0017 91294D62 		.ascii	"\221)Mb\035\212\260\013\301\201\202\027\273\360\322"
 2749      1D8AB00B 
 2749      C1818217 
 2749      BBF0D2
 2750 0026 8BFE84B8 		.ascii	"\213\376\204\270\004\026[\233(\233 =\266\325\213(\324"
 2750      04165B9B 
 2750      289B203D 
 2750      B6D58B28 
 2750      D4
 2751 0037 D46E4851 		.ascii	"\324nHQ7?\242\270\2418\206?\325V\233\265v\223v2\177"
 2751      373FA2B8 
 2751      A138863F 
 2751      D5569BB5 
 2751      76937632 
 2752 004c 10716C43 		.ascii	"\020qlC\353\205\255\027R\025\244\027\352\366\236s\222"
 2752      EB85AD17 
 2752      5215A417 
 2752      EAF69E73 
 2752      92
 2753 005d B4956AE0 		.ascii	"\264\225j\340{\3179\357\367\374|\357{\316\311\035)\304"
 2753      7BCF39EF 
 2753      F7FC7CEF 
 2753      7BCEC91D 
 2753      29C4
 2754 006f CF42880D 		.ascii	"\317B\210\015\374\300#\320\225\3158B)\265\316\3538\355"
 2754      FCC023D0 
 2754      95CD3842 
 2754      29B5CEEB 
 2754      38ED
 2755 0081 D9FD0EFA 		.ascii	"\331\375\016\372\300\253j\331\221\015\232\221\320]B"
 2755      C0AB6AD9 
 2755      910D9A91 
 2755      D05D42
 2756 0090 48ECC966 		.ascii	"H\354\311f\312-b\235\027\242\325!\211V\034\242O81\265"
 2756      CA2D629D 
 2756      17A2D521 
 2756      89561CA2 
ARM GAS  /tmp/ccpeSJ8z.s 			page 71


 2756      4F3831B5 
 2757 00a4 B7E7F430 		.ascii	"\267\347\3640\324\251<r$\3041~\314\357\010\241\213r"
 2757      D4A93C72 
 2757      24C4317E 
 2757      CCEF08A1 
 2757      8B72
 2758 00b6 04C8C2CC 		.ascii	"\004\310\302\314A5\317h\213X\226W\352\346x\257R\345"
 2758      4135CF68 
 2758      8B589657 
 2758      EAE678AF 
 2758      52E5
 2759 00c8 2247848B 		.ascii	"\"G\204\213`\016.\000\347!t\242~x\201\306}mq\257\013"
 2759      600E2E00 
 2759      E72174A2 
 2759      7E7881C6 
 2759      7D6D71AF 
 2760 00dd 38894BB3 		.ascii	"8\211K\263q\262\376\326\002!\312\012\216`\212\231\003"
 2760      71B2FED6 
 2760      0221CA0A 
 2760      8E608A99 
 2760      03
 2761 00ee FDD0DEB4 		.ascii	"\375\320\336\264[G-1\325\225\351\351\213\374\336\256"
 2761      5B472D31 
 2761      D595E9E9 
 2761      8BFCDEAE 
 2762 00fe 36E6C883 		.ascii	"6\346\310\203+\320\030\253\202\253\374\311\236\372\201"
 2762      2BD018AB 
 2762      82ABFCC9 
 2762      9EFA81
 2763 010d 0F18B954 		.ascii	"\017\030\271T#o>\374\351\200W]W\262\210\024\323H[\022"
 2763      236F3EFC 
 2763      E980575D 
 2763      57B28814 
 2763      D3485B12 
 2764 0121 9D31EACB 		.ascii	"\2351\352\313TA\367\263\303\372\373rT\206\374L\341_"
 2764      5441F7B3 
 2764      C3FAFB72 
 2764      5486FC4C 
 2764      E15F
 2765 0133 59B8ACFE 		.ascii	"Y\270\254\376\017#\254f\013[\244\230FZ\3412\206\365"
 2765      0F23AC66 
 2765      0B5BA498 
 2765      465AE132 
 2765      86F5
 2766 0145 3EAEC520 		.ascii	">\256\305 0\300\351>\255\246\253\303\220\251H\243\316"
 2766      30C0E93E 
 2766      ADA6ABC3 
 2766      90A948A3 
 2766      CE
 2767 0156 DEF6E4D5 		.ascii	"\336\366\344\325\253\377:\225z\274|\377\320\300w\230"
 2767      ABFF3A95 
 2767      7ABC7CFF 
 2767      D0C07798 
 2768 0166 CF86BD90 		.ascii	"\317\206\275\220\300ex\271#^\037\007\237n\226\317\257"
 2768      C06578B9 
 2768      235E1F07 
 2768      9F6E96CF 
ARM GAS  /tmp/ccpeSJ8z.s 			page 72


 2768      AF
 2769 0177 4385CE05 		.ascii	"C\205\316\005t\250\324!\310\301#D'\351=U\022*/\304A"
 2769      74A8D421 
 2769      C8C12344 
 2769      27E93D55 
 2769      122A2FC4 
 2770 018c 72ECA29D 		.ascii	"r\354\242\235\027O\240\306\376\031\2512\343\263\021"
 2770      174FA0C6 
 2770      FE19A932 
 2770      E3B311
 2771 019b E8714929 		.ascii	"\350qI)\214=\367\277\225\230\362\213\247h\353\237X\350"
 2771      8C3DF7BF 
 2771      9598F28B 
 2771      A768EB9F 
 2771      58E8
 2772 01ad 92B7B0C5 		.ascii	"\222\267\260\305d\232sR\037\023_\216\312]N\014CD\354"
 2772      649A7352 
 2772      1F135F8E 
 2772      CA5D4E0C 
 2772      4344EC
 2773 01c0 D28BDF70 		.ascii	"\322\213\337p\324\234\016\246\365L|\\\340\370!\014a"
 2773      D49C0EA6 
 2773      F54C7C5C 
 2773      E0F8210C 
 2773      61
 2774 01d1 9C5B2659 		.ascii	"\234[&Y\012\327!\\\222\306\342\215\266\030\354\237 "
 2774      0AD7215C 
 2774      92C6E28D 
 2774      B618EC9F 
 2774      20
 2775 01e2 977C7309 		.ascii	"\227|s\011\0377\313\012\214\2600\214p\373\221}7\034"
 2775      1F37CB0A 
 2775      8CB0308C 
 2775      70FB917D 
 2775      371C
 2776 01f4 57237C5A 		.ascii	"W#|Z\274\002\320\012\223\031\024\351\3434\007\377\206"
 2776      BC02D00A 
 2776      931914E9 
 2776      E33407FF 
 2776      86
 2777 0205 E533CFD8 		.ascii	"\3453\317\330fGaK\253r\311\377\356\202$\376d\236c}\177"
 2777      6647614B 
 2777      AB72C9FF 
 2777      EE8224FE 
 2777      649E637D 
 2778 021a D937CCBE 		.ascii	"\3317\314\276\025\\\000s4{\206\347L\252\336\011\334"
 2778      155C0073 
 2778      347B86E7 
 2778      4CAADE09 
 2778      DC
 2779 022b B28D60BC 		.ascii	"\262\215`\274\361;T\364[\344R\340}\015\274\303<M\234"
 2779      F13B54F4 
 2779      5BE452E0 
 2779      7D0DBCC3 
 2779      3C4D9C
 2780 023e 40C7BF43 		.ascii	"@\307\277C\037\032\273\200\271l\007\211\3660\310)\355"
 2780      1F1ABB80 
ARM GAS  /tmp/ccpeSJ8z.s 			page 73


 2780      B96C0789 
 2780      F630C829 
 2780      ED
 2781 024f E3B7A38E 		.ascii	"\343\267\243\216\221\374\361#\227*\337'y\227%\245\335"
 2781      91FCF123 
 2781      972ADF27 
 2781      799725A5 
 2781      DD
 2782 0260 93C9CC5D 		.ascii	"\223\311\314]\247\324\246\300\034\330{\305\317\2564"
 2782      A7D4A6C0 
 2782      1CD87BC5 
 2782      CFAE34
 2783 026f 9672F6D1 		.ascii	"\226r\366\3219j\253\350\316\300\245`Ig\361\264\016\347"
 2783      396AABE8 
 2783      CEC0A560 
 2783      4967F1B4 
 2783      0EE7
 2784 0281 0A5201DC 		.ascii	"\012R\001\334g)>\214\035\305\235\367\340/h\231\266j"
 2784      67293E8C 
 2784      1DC59DF7 
 2784      E02F6899 
 2784      B66A
 2785 0293 3EFECCB7 		.ascii	">\376\314\267\323AsB*\315\033\365\342D\367\271\227\017"
 2785      D3417342 
 2785      2ACD1BF5 
 2785      E244F7B9 
 2785      970F
 2786 02a5 E6F38530 		.ascii	"\346\363\2050v\227^\036\006\256ALbo5\35389\012\036\343"
 2786      76975E1E 
 2786      06AE414C 
 2786      626F35EB 
 2786      38390A1E 
 2787 02ba FF98217D 		.ascii	"\377\230!}z\202\370\2335\347i\221\311\037\036\335\227"
 2787      7A82F89B 
 2787      35E76991 
 2787      C91F1EDD 
 2787      97
 2788 02cb 7C9DF4AD 		.ascii	"|\235\364\255*\212\012\361\034m\017\276\337dZ\327I\260"
 2788      2A8A0AF1 
 2788      1C6D0FBE 
 2788      DF645AD7 
 2788      49B0
 2789 02dd 75B4E5F5 		.ascii	"u\264\345\365\262&\034oJ\306\302\211\206dsK\"\035\337"
 2789      B2261C6F 
 2789      4AC6C289 
 2789      8664734B 
 2789      221DDF
 2790 02f0 9948C563 		.ascii	"\231H\305c\351\3647\341\365\237onn\210\306\302\311d"
 2790      E9F437E1 
 2790      F59F6F6E 
 2790      6E88C6C2 
 2790      C964
 2791 0302 74D5A72B 		.ascii	"t\325\247+W\327\245c\251t\255X\036\012\257\217'\032"
 2791      57D7A563 
 2791      A974AD58 
 2791      1E0AAF8F 
 2791      271A
ARM GAS  /tmp/ccpeSJ8z.s 			page 74


 2792 0314 135F6CAE 		.ascii	"\023_l\256\253\215\204V\205\"\341\246T8\336\360U8\325"
 2792      AB8D8456 
 2792      8522E1A6 
 2792      5438DEF0 
 2792      5538D5
 2793 0327 12D5635D 		.ascii	"\022\325c]\343\216\255[c-\251PT\310D\343\366\346\252"
 2793      E38EAD5B 
 2793      632DA950 
 2793      54C844E3 
 2793      F6E6AA
 2794 033a 59B9D0CA 		.ascii	"Y\271\320\3125\321Htm\343Z!S\211]1Joo^\361.\301\246"
 2794      35D14874 
 2794      6DE35A21 
 2794      53895D31 
 2794      4A6F6F5E 
 2795 0352 14879674 		.ascii	"\024\207\226t\315\266\204\235\207\342\202\222\251/\377"
 2795      CDB6849D 
 2795      87E28292 
 2795      A92FFF
 2796 0361 075AD3BB 		.ascii	"\007Z\323\273i"
 2796      69
 2797              		.text
 2798              		.section	.gnu.lto_ibqGetFullBufferTimeout.356.6e40379315ec3b91,"e",%progbits
 2799 0000 789C8D54 		.ascii	"x\234\215T]l\024U\024>g\356\354O\037l\2146B\214\017"
 2799      5D6C1455 
 2799      143E67EE 
 2799      EC4F1F6C 
 2799      8C36428C 
 2800 0015 0BB11215 		.ascii	"\013\261\022\025v\012\025\011o\352\362Bb\243a\037}\330"
 2800      760A1509 
 2800      6FEAF242 
 2800      62A3611F 
 2800      7DD8
 2801 0027 76C7819D 		.ascii	"v\307\201\235\204\351\324\231)i\237\030\212ECL\372C"
 2801      84E9D499 
 2801      29699F18 
 2801      8A45434C 
 2801      FA43
 2802 0039 C360596B 		.ascii	"\303`YkiV\364\001#F\252\313\237\254\342j)\"bL\212\032"
 2802      6956F401 
 2802      2346AACB 
 2802      9FACE26A 
 2802      2922624C 
 2803 004f 53B30643 		.ascii	"S\263\006C\332\240[0\261!\350z\356\275kw\233\240\361"
 2803      DAA05B30 
 2803      B121E87A 
 2803      EEBD6B77 
 2803      9BA0F1
 2804 0062 65CEBDDF 		.ascii	"e\316\275\337\375\3169\337\371\356\335\335\242\002x"
 2804      FDCE39DF 
 2804      F9EEDDDD 
 2804      A20278
 2805 0071 08F00800 		.ascii	"\010\360\010\000 \003\034\036\332\257\200\357\373OE"
 2805      20031C1E 
 2805      DAAF80EF 
 2805      FB4F45
 2806 0080 14DC33B4 		.ascii	"\024\3343\264\377\217\374\011\025\317\242\000\020v+"
ARM GAS  /tmp/ccpeSJ8z.s 			page 75


 2806      FF8FFC09 
 2806      15CFA200 
 2806      10762B
 2807 008f B81B0FB0 		.ascii	"\270\033\017\260,\303a\226#\262Z]!\306\036%\312b\377"
 2807      2CC36196 
 2807      23B25A5D 
 2807      21C61E25 
 2807      CA62FF
 2808 00a2 E85FD730 		.ascii	"\350_\3270\373NA\3151\005\306\2100\211x\202\212\003"
 2808      FB4E41CD 
 2808      3105C688 
 2808      30897882 
 2808      8A03
 2809 00b4 1091BD00 		.ascii	"\020\221\275\000k\012\276\377\365\257y\337o\200\034"
 2809      6B0ABEFF 
 2809      F5AF79DF 
 2809      6F801C
 2810 00c3 63F811D6 		.ascii	"c\370\021\326q\010h\037i\342\274\036\301+W\336\012\032"
 2810      7108681F 
 2810      69E2BC1E 
 2810      C12B57DE 
 2810      0A1A
 2811 00d5 0731C754 		.ascii	"\0071\307T<\271\234\247\266\2177\311\212>\362\320L\255"
 2811      3CB99CA7 
 2811      B68F37C9 
 2811      8A3EF2D0 
 2811      4CAD
 2812 00e7 CBAFBEBD 		.ascii	"\313\257\276\275\257qpO\224\032\343i\\\326\272\375X"
 2812      AF71704F 
 2812      941AE369 
 2812      5CD6BAFD 
 2812      58
 2813 00f8 5318F00C 		.ascii	"S\030\360\014rA\000\012%\204\201\326\210\037\213\354"
 2813      7241000A 
 2813      258481D6 
 2813      881F8BEC 
 2814 0108 3065E78B 		.ascii	"0e\347\213\255@S\216\221\352*\222}\255X\211\000\236"
 2814      AD40538E 
 2814      91EA2A92 
 2814      7DAD5889 
 2814      009E
 2815 011a 238C2D61 		.ascii	"#\214-a\327\213\327B\200\005\302T\321\376\252(\300\305"
 2815      D78BD742 
 2815      8005C254 
 2815      D1FEAA28 
 2815      C0C5
 2816 012c 2E0E0EFC 		.ascii	".\016\016\374p\371\301\254\317'\017\341\247\310\313"
 2816      70F9C1AC 
 2816      CF270FE1 
 2816      A7C8CB
 2817 013b 4B01789E 		.ascii	"K\001x\236F\010\265\237\\\311\205r\346\301\003g'\327"
 2817      4608B59F 
 2817      5CC98572 
 2817      E6C10367 
 2817      27D7
 2818 014d 9EDFEB4F 		.ascii	"\236\337\353O\371K\\\250q\245U\274\333\342/\243a\374"
 2818      F94B5CA8 
ARM GAS  /tmp/ccpeSJ8z.s 			page 76


 2818      71A555BC 
 2818      DBE22FA3 
 2818      61FC
 2819 015f 8CC04F78 		.ascii	"\214\300Ox5 \315X\254\327\234\275~\374!):T\023\335\177"
 2819      3520CD58 
 2819      ACD79CBD 
 2819      7EFC2129 
 2819      3A5413DD 
 2820 0174 6925E017 		.ascii	"i%\340\027\204\205k\264\376?I\364\024a\021\250i\270"
 2820      84856BB4 
 2820      FE3F49F4 
 2820      146111A8 
 2820      69B8
 2821 0186 F1BF34E4 		.ascii	"\361\2774\344\357\220\206i\002/,i\270(4\020\007\311"
 2821      EF908669 
 2821      022F2C69 
 2821      B8283410 
 2821      07C9
 2822 0198 D2F7BE09 		.ascii	"\322\367\276\011\025\374;\225\001\277\360\312=\225\342"
 2822      15FC3B95 
 2822      01BFF0CA 
 2822      3D95E2
 2823 01a7 E14A5E89 		.ascii	"\341J^\211*\210y\244\351OaH\230\016\003\214?'_E\277"
 2823      2A8879A4 
 2823      E94F6148 
 2823      980E038C 
 2823      3F275F45 
 2824 01bc 0030C814 		.ascii	"\0000\310\024\271\331K\2339\364KC_\241\210#\215<\334"
 2824      B9D94B9B 
 2824      39F44B43 
 2824      5FA18823 
 2824      8D3CDC
 2825 01cf 7A7FE4F6 		.ascii	"z\177\344\366\233\007\221l\027`e\266A\260n\035\011\206"
 2825      9B07916C 
 2825      176065B6 
 2825      41B06E1D 
 2825      0986
 2826 01e1 03820B12 		.ascii	"\003\202\013\022\016f\252\360\273Go\317]\275\237\014"
 2826      0E66AAF0 
 2826      BB476FCF 
 2826      5DBD9F0C 
 2827 01f1 12F0E1F9 		.ascii	"\022\360\341\371C\310\361\276\030\331\306_e\010c2{\354"
 2827      43C8F1BE 
 2827      18D9C65F 
 2827      65086332 
 2827      7BEC
 2828 0203 C3D93790 		.ascii	"\303\3317\220\334\023\264\323\263\015\3709\302o\330"
 2828      DC13B4D3 
 2828      B30DF839 
 2828      C26FD8
 2829 0212 B79ACFF1 		.ascii	"\267\232\317\361\035\177\020\253\346\224}\364t\302\264"
 2829      1D7F10AB 
 2829      E6947DF4 
 2829      74C2B4
 2830 0221 54F9EF80 		.ascii	"T\371\357\200DQ\304\313\210\227\204\337\253n\210\363"
 2830      4451C4CB 
 2830      889784DF 
ARM GAS  /tmp/ccpeSJ8z.s 			page 77


 2830      AB6E88F3 
 2831 0231 8838BC22 		.ascii	"\2108\274\"\273\224\217\035\035\235\217\002\277\"^\367"
 2831      BB948F1D 
 2831      1D9D8F02 
 2831      BF225EF7 
 2832 0241 E691E050 		.ascii	"\346\221\340P\320,\205\004\017H\344\203\205g\351\202"
 2832      D02C8504 
 2832      0F48E483 
 2832      8567E982 
 2833 0251 A08CFDE3 		.ascii	"\240\214\375\343\255\023,\3642*9\026\035cQ\200\011\246"
 2833      AD132CF4 
 2833      322A3916 
 2833      1D635180 
 2833      09A6
 2834 0263 4C3092D8 		.ascii	"L0\222\330 \365\236A:\026\271\257K?\310\210\343\245"
 2834      20F59E41 
 2834      3A16B9AF 
 2834      4B3FC888 
 2834      E3A5
 2835 0275 9FEEA3AB 		.ascii	"\237\356\243\253\024\350dI\216\306\2358\305\235\230"
 2835      14E86449 
 2835      8EC69D38 
 2835      C59D98
 2836 0284 92F8B920 		.ascii	"\222\370\271 \220x\351\312\314\303\"\3768#NV/}J\277"
 2836      9078E9CA 
 2836      CCC322FE 
 2836      38234E56 
 2836      2F7D4ABF 
 2837 0298 AFA87AF5 		.ascii	"\257\250z\365\375<yuA&.\324\274\232\256z\005\365^]\254"
 2837      FD3C7975 
 2837      41262ED4 
 2837      BC9AAE7A 
 2837      05F55E5D 
 2838 02ad 79F565BD 		.ascii	"y\365e\275WUW\276\025\376\324[Q\346VLW\255\030\377y"
 2838      575557BE 
 2838      15FED45B 
 2838      51E6564C 
 2838      57AD18FF 
 2839 02c2 81FF69C0 		.ascii	"\201\377i\300M\354\033\337\310'\003\376\014P\336|_\201"
 2839      4DEC1BDF 
 2839      C82703FE 
 2839      0C50DE7C 
 2839      5F81
 2840 02d4 6FD76919 		.ascii	"o\327i\031\33324\263\303\352rL/\263\313t3\206\347\365"
 2840      DB3234B3 
 2840      C3EA724C 
 2840      2FB3CB74 
 2840      3386E7F5 
 2841 02e8 6A892DC9 		.ascii	"j\211-\311\256\016\335\320,Ko}b\375\223)\317p\275\015"
 2841      AE0EDDD0 
 2841      2C4B6F7D 
 2841      62FD9329 
 2841      CF70BD0D 
 2842 02fc F0585C4B 		.ascii	"\360X\\Kd\314\264\371\\2\265\241%\336\032o\321lW\313"
 2842      64CCB4F9 
 2842      5C32B5A1 
 2842      25DE1A6F 
ARM GAS  /tmp/ccpeSJ8z.s 			page 78


 2842      D16C57CB 
 2843 0310 74ECD45C 		.ascii	"t\354\324\\G\3471\225\356\336\276\335p\334\270\016\252"
 2843      47E73195 
 2843      EEDEBEDD 
 2843      70DCB80E 
 2843      AA
 2844 0321 997EA96B 		.ascii	"\231~\251k\3052,\276~\223\336\242oNo\206\210gZ\206\335"
 2844      C5322CBE 
 2844      7E93DEA2 
 2844      6F4E6F86 
 2844      88675A86 
 2845 0336 ED31CBDD 		.ascii	"\3551\313\335\361\370\277\325\264]\3728\336\272NS\256"
 2845      F1F8BFD5 
 2845      B45DFA38 
 2845      DEBA4E53 
 2845      AE
 2846 0347 E3195873 		.ascii	"\343\031Xs7\256\343if\247\276\263\373EC\3233n\257K\274"
 2846      37AEE369 
 2846      66A7BEB3 
 2846      FB4543D3 
 2846      336EAF4B 
 2847 035c 48BAC335 		.ascii	"H\272\3035\236w\314g\356\306\327m\313\262;5\243\307"
 2847      9E77CC67 
 2847      EEC6D76D 
 2847      CBB23B35 
 2847      A3C7
 2848 036e D39EDED6 		.ascii	"\323\236\336\326\246%\332\222[\223Z\302v\014m\353?e"
 2848      A625DA92 
 2848      5B935AC2 
 2848      760C6DEB 
 2848      3F65
 2849 0380 2CD77453 		.ascii	",\327tS;t\235Jm\374\217\022]\266\343\271\274H\242\255"
 2849      3B749D4A 
 2849      6DFC8F12 
 2849      5DB6E3B9 
 2849      BC48A2AD 
 2850 0394 877AEB54 		.ascii	"\207z\353T#\265k\223EY\367\266%\267\305\270\010rum\254"
 2850      23B56B93 
 2850      4559F7B6 
 2850      25B7C5B8 
 2850      0872756D 
 2851 03a9 B9051407 		.ascii	"\271\005\024\007\"\226a\331N/\374\015\232\356\353K"
 2851      229661D9 
 2851      4E2FFC0D 
 2851      9AEEEB4B 
 2852              		.text
 2853              		.section	.gnu.lto_ibqGetFullBufferTimeoutS.357.6e40379315ec3b91,"e",%progbits
 2854 0000 789C7554 		.ascii	"x\234uT_L[e\024\377\316w\356\275m\241\0247\214\276\342"
 2854      5F4C5B65 
 2854      14FFCE77 
 2854      EEBD6DA1 
 2854      14378CBE 
 2855 0015 8331CEAC 		.ascii	"\2031\316\254e\014g\026c\262d>\370\346\303\036}\240"
 2855      650C6716 
 2855      63B2643E 
 2855      F8E6C31E 
 2855      7DA0
ARM GAS  /tmp/ccpeSJ8z.s 			page 79


 2856 0027 B429B689 		.ascii	"\264)\266\211\025F\357\214\276lw\245\310\202\321\266"
 2856      1546EF8C 
 2856      BE6C77A5 
 2856      C882D1B6 
 2857 0037 B0404790 		.ascii	"\260@G\220AS\331\324\007'\3238\204A\035\373\233\315"
 2857      4153D9D4 
 2857      0727D338 
 2857      84411DFB 
 2857      9BCD
 2858 0049 941863B2 		.ascii	"\224\030c\262,\231n1\001f\\\312HL\2533x\316w\373g\232"
 2858      2C996E31 
 2858      01665CCA 
 2858      484CAB33 
 2858      78CE77FB 
 2859 005f D9A4DF3D 		.ascii	"\331\244\337=\337\351\357\374\3169\277sn\217iB\234\025"
 2859      DFE9EFFC 
 2859      CE39BF73 
 2859      6E8F6942 
 2859      9C15
 2860 0071 427C425F 		.ascii	"B|B_h\0200\234\036\222\302\262\254}\016\011\243\351"
 2860      6810309C 
 2860      1E92C2B2 
 2860      AC7D0E09 
 2860      A3E9
 2861 0083 A19F1766 		.ascii	"\241\237\027f5\230\007\345@\231I\315>\003K\260\261\376"
 2861      359807E5 
 2861      409949CD 
 2861      3E034BB0 
 2861      B1FE
 2862 0095 B9D41269 		.ascii	"\271\324\022iOr\364\307W4M\016\244\033\225\347D\352"
 2862      4F72F4C7 
 2862      57344D0E 
 2862      A41B95E7 
 2862      44EA
 2863 00a7 2E28970E 		.ascii	".(\227\016\231\341\354\306\315U\207\012s\301\250\323"
 2863      99E1ECC6 
 2863      CD55870A 
 2863      73C1A8D3 
 2864 00b7 6634647F 		.ascii	"f4d\177\372\003It\0125\230\366\2500\007d\342`\003\234"
 2864      FA034974 
 2864      0A3598F6 
 2864      A8300764 
 2864      E260039C 
 2865 00cb 7034DDA0 		.ascii	"p4\335\240,\020G$j\272\313 \337\021i\210\372g\004'\020"
 2865      2C104724 
 2865      6ABACB20 
 2865      DF116988 
 2865      FA670427 
 2866 00e0 86318702 		.ascii	"\2061\207\002\264\212\005\320\372<E\225\006\306\027"
 2866      B48A05D0 
 2866      FA3C4595 
 2866      06C617
 2867 00ef 4F1913A7 		.ascii	"O\031\023\247\363Z\016\245\230$\300\327\000_\001\007"
 2867      F35A0EA5 
 2867      9824C0D7 
 2867      005F0107 
 2868 00ff 1110DF10 		.ascii	"\021\020\337\020\317\345-k\245|\316\262\\\"\207\010"
ARM GAS  /tmp/ccpeSJ8z.s 			page 80


 2868      CFE52D6B 
 2868      A57CCEB2 
 2868      5C228708 
 2869 010f DF401D03 		.ascii	"\337@\035\003\347\200\\\376\245\026F\276\253\220\305"
 2869      E7805CFE 
 2869      A51646BE 
 2869      AB90C5
 2870 011e A5C1714F 		.ascii	"\245\301qO\212\334\032\314=\212\374\226]\376\353-BP"
 2870      8ADC1ACC 
 2870      3D8AFC96 
 2870      5DFEEB2D 
 2870      4250
 2871 0130 59EC9F27 		.ascii	"Y\354\237''\205\251\033\300\002\250l\226z<Ke\025\013"
 2871      2785A91B 
 2871      C002A86C 
 2871      967A3C4B 
 2871      65150B
 2872 0143 ABEF7B52 		.ascii	"\253\357{RG\235T\024\234\177\224h\221J\363\337iQ\241"
 2872      479D5414 
 2872      9C7F9468 
 2872      914AF3DF 
 2872      6951A1
 2873 0156 7C212212 		.ascii	"|!\"\022\327\377\213\252!\241\342\271\216\322\231\241"
 2873      D7FF8BAA 
 2873      21A1E2B9 
 2873      8ED299A1 
 2874 0166 8773AD19 		.ascii	"\207s\255\031.;\207:\344\201\263T(\276\243Zt\377oOq"
 2874      2E3B873A 
 2874      E481B354 
 2874      28BEA35A 
 2874      74FF6F4F 
 2875 017b 2A86AE6C 		.ascii	"*\206\256l\314\267OX\371Dk\025)\352H[\206\012\343\337"
 2875      CCB74F58 
 2875      F9446B15 
 2875      29EA485B 
 2875      860AE3DF 
 2876 018f 731D57FA 		.ascii	"s\035W\372\255\327\252\315\325\010\227Us\245\307\021"
 2876      ADD7AACD 
 2876      D5089755 
 2876      73A5C711 
 2877 019f FE4786E5 		.ascii	"\376G\206\345\012\241\301\312\257\216\350p\021\340\002"
 2877      0AA1C1CA 
 2877      AF8EE870 
 2877      11E002
 2878 01ae F997988E 		.ascii	"\371\227\230\216\245\201KJ\014\206}\361\203\236\267"
 2878      A5814B4A 
 2878      0C867DF1 
 2878      839EB7
 2879 01bd 1E6E252D 		.ascii	"\036n%-k\353\345\362\304_\256f\240\001\030\222\016\035"
 2879      6BEBE5F2 
 2879      C45FAE66 
 2879      A0011892 
 2879      0E1D
 2880 01cf E9706874 		.ascii	"\351phtH\235\016\247\301\207\013h\034\215@J\273\371"
 2880      489D0EA7 
 2880      C1870B68 
 2880      1C8D404A 
ARM GAS  /tmp/ccpeSJ8z.s 			page 81


 2880      BBF9
 2881 01e1 2A4412C5 		.ascii	"*D\022\305g7\307\366\200\225\027\"\205R\331\375d\337"
 2881      6737C7F6 
 2881      80951722 
 2881      8552D9FD 
 2881      64DF
 2882 01f3 03EBEE48 		.ascii	"\003\353\356Ha\014x\004l\217\0258[\012\261tf\372w\254"
 2882      610C7804 
 2882      6C8F1538 
 2882      5B0AB174 
 2882      66FA77AC 
 2883 0207 414E141A 		.ascii	"AN\024\032\250,q\037\342\013\353\236,BemPI<\303\313"
 2883      A82C711F 
 2883      E20BEB9E 
 2883      2C42656D 
 2883      50493CC3 
 2884 021c 4DC37165 		.ascii	"M\303qe\321\005W@\264\331W\003\256\302\307\310\273\263"
 2884      D1055740 
 2884      B4D95703 
 2884      AEC2C7C8 
 2884      BBB3
 2885 022e 0E89F5E5 		.ascii	"\016\211\365\345@\326\2161\300\336\302\024j\177\\\036"
 2885      40D68E31 
 2885      C0DEC214 
 2885      6A7F5C1E 
 2886 023e BF55CF71 		.ascii	"\277U\317q\262 9\301\361\241\357e\026e\225\367tG\235"
 2886      B22039C1 
 2886      F1A1EF65 
 2886      166595F7 
 2886      74479D
 2887 0251 987C15EE 		.ascii	"\230|\025\356\006\270N\334\304\224`\314\332\223<\254"
 2887      06B84EDC 
 2887      C49460CC 
 2887      DA933CAC 
 2888 0261 1BC03CF1 		.ascii	"\033\300<\361V\322\220\342m\363\"\231\215\314\276y\347"
 2888      56D290E2 
 2888      6DF32299 
 2888      8DCCBE79 
 2888      E7
 2889 0272 7869736D 		.ascii	"xism;)\252rmmf\000.\203(\302\300\324\213Yt'@\346\260"
 2889      3B29AA72 
 2889      6D6D6600 
 2889      2E8328C2 
 2889      C0D48B59 
 2890 028b 7192F68B 		.ascii	"q\222\366\213\000\024MQ9t3Gqz\263\234sQ\363<\232*i\305"
 2890      00144D51 
 2890      39743347 
 2890      717AB39C 
 2890      7351F33C 
 2891 02a3 582476B7 		.ascii	"X$v\267\342\373\222j\247.oq\227n\356R\326\272\324\247"
 2891      E2FB926A 
 2891      A72E6F71 
 2891      976EEE52 
 2891      D6BAD4A7 
 2892 02b7 A666B7D5 		.ascii	"\246f\267\325\232\234m\026\342O\320\011\245%g6N\016"
 2892      9A9C6D16 
 2892      E24FD009 
ARM GAS  /tmp/ccpeSJ8z.s 			page 82


 2892      A5256736 
 2892      4E0E
 2893 02c9 7EA8CA48 		.ascii	"~\250\312H\242\353\247\231\265k\264D\024\300\353`i\325"
 2893      A2EBA799 
 2893      B56BB444 
 2893      14C0EB60 
 2893      69D5
 2894 02db 8807D367 		.ascii	"\210\007\323g\313\277:y<\367\341\302\302\247MY\304\307"
 2894      CBBF3A79 
 2894      3CF7E1C2 
 2894      C2A74D59 
 2894      C4C7
 2895 02ed 493EADAE 		.ascii	"I>\255\256M\260B\262H[\362\265\345n\002s1M\265b\034"
 2895      4DB042B2 
 2895      485BF2B5 
 2895      E56E0273 
 2895      314DB562 
 2896 0302 C70AB7B7 		.ascii	"\307\012\267\2673\265~\017\344\016~\265&\347\023\037"
 2896      33B57E0F 
 2896      E40E7EB5 
 2896      26E7131F 
 2897 0312 3D41CD6B 		.ascii	"=A\315k\342\024\332(V\254\010Z\026\015\245\212g\022"
 2897      E214DA28 
 2897      56AC085A 
 2897      160DA58A 
 2897      6712
 2898 0324 919DF4EA 		.ascii	"\221\235\364\3524+\016gmy\036@|\037\375B\377\177\324"
 2898      342B0E67 
 2898      6D791E40 
 2898      7C1FFD42 
 2898      FF7FD4
 2899 0337 9366B77D 		.ascii	"\223f\267}\030o\227KN\322+\213\272^o\221\330hG\251Q"
 2899      186F974B 
 2899      4ED22B8B 
 2899      BA5E6F91 
 2899      D86847A9 
 2900 034c 50D1F13C 		.ascii	"P\321\361<g\332\351\013\367DC\276HW\264\267/b\206\337"
 2900      67DAE90B 
 2900      F74443BE 
 2900      4857B4B7 
 2900      2F6286DF 
 2901 0360 89C4C221 		.ascii	"\211\304\302!\323|\317\267\377\325\003\275]\301\220"
 2901      D37CCFB7 
 2901      FFD503BD 
 2901      5DC190
 2902 036f 2F1A0DEE 		.ascii	"/\032\015\356\356\330\265\247\323\014\305\314v\261\303"
 2902      EED8B5A7 
 2902      D30CC5CC 
 2902      76B1C3
 2903 037e EBDB1F8E 		.ascii	"\353\333\037\216\004\"\257\037\350lo\363\356\366\266"
 2903      0422AF1F 
 2903      E86C6FF3 
 2903      EEF6B6
 2904 038d F97A62BE 		.ascii	"\371zb\276p\327[\276X_\220\237\235\201C\335\335\241"
 2904      70D75BBE 
 2904      585F909F 
 2904      9D8143DD 
ARM GAS  /tmp/ccpeSJ8z.s 			page 83


 2904      DDA1
 2905 039f BE983728 		.ascii	"\276\2307(\264H\340`\357\323\377\362yw\275\024l\013"
 2905      B448E060 
 2905      EFD3FFF2 
 2905      7977BD14 
 2905      6C0B
 2906 03b1 EE0DEC15 		.ascii	"\356\015\354\025\0163\022\015\365\03421\032{\023\315"
 2906      0E33120D 
 2906      F51C3231 
 2906      1A7B13CD 
 2907 03c1 83BD2FFC 		.ascii	"\203\275/\374\037oO\214\216>s\347\333\021\333\366\206"
 2907      1F6F4F8C 
 2907      8E3E73E7 
 2907      DB11DBF6 
 2907      86
 2908 03d2 C53F8F52 		.ascii	"\305?\217R\316\215"
 2908      CE8D
 2909              		.text
 2910              		.section	.gnu.lto_ibqReleaseEmptyBuffer.358.6e40379315ec3b91,"e",%progbits
 2911 0000 789C8D52 		.ascii	"x\234\215R[l\014a\024>g\376\351n\373 \021\022m<\255"
 2911      5B6C0C61 
 2911      143E67FE 
 2911      E96EFB20 
 2911      11126D3C 
 2912 0015 4B236E3B 		.ascii	"K#n;\275\240\361\206\345\301\303\206\330G\017\253;\206"
 2912      BDA0F186 
 2912      E5C1C386 
 2912      D8470FAB 
 2912      3B86
 2913 0027 9DC4746B 		.ascii	"\235\304tkf\210>u\264.\211\007\265%]\251\252\220\025"
 2913      66883E75 
 2913      B42E8907 
 2913      B5255DA9 
 2913      AA9015
 2914 003a DE1029A5 		.ascii	"\336\020)\245-K[\255K\203\276\264!Z\335\204H\033Q\255"
 2914      2D4B5BAD 
 2914      4B83BEB4 
 2914      215ADD84 
 2914      481B51AD 
 2915 004e 874650E7 		.ascii	"\207FP\347\377gu+AL2\363\237\363\375\347\362\235\357"
 2915      FF67752B 
 2915      414C32F3 
 2915      9FF3FDE7 
 2915      F29DEF
 2916 0061 4C1B0388 		.ascii	"L\033\003\210\"\300\022\000@\006X\037?!\201\3438\033"
 2916      22C01200 
 2916      4006581F 
 2916      3F2181E3 
 2916      381B
 2917 0073 BC121E8E 		.ascii	"\274\022\036\216\237\310\303;(<\204j\011\253\3614[N"
 2917      9FC8C33B 
 2917      283C846A 
 2917      09ABF134 
 2917      5B4E
 2918 0085 EED4D1C6 		.ascii	"\356\324\321\306\037=\350\\Ma\222\322\233\351\025O\023"
 2918      1F3DE85C 
 2918      4D6192D2 
ARM GAS  /tmp/ccpeSJ8z.s 			page 84


 2918      9BE9154F 
 2918      13
 2919 0096 C37A9664 		.ascii	"\303z\226d\210r\306\222\320G\026\333\011\313R\216\363"
 2919      8872C692 
 2919      D04716DB 
 2919      09CB528E 
 2919      F3
 2920 00a7 62ACD571 		.ascii	"b\254\325q\362 \311\030\336F\312\301[\210-\324\231\200"
 2920      F220C918 
 2920      DE46CAC1 
 2920      5B882DD4 
 2920      9980
 2921 00b9 5D97E603 		.ascii	"]\227\346\003x2\225$J\0216\342]\3445=\324\261\265k\015"
 2921      78329524 
 2921      4A1136E2 
 2921      5DE4353D 
 2921      D4B1B56B 
 2922 00ce 10956626 		.ascii	"\020\225f&\375B\232\246:\247\275\200m\204\261\031\354"
 2922      FD429AA6 
 2922      3AA7BD80 
 2922      6D84B119 
 2922      EC
 2923 00df 59F7BB1C 		.ascii	"Y\367\273\034\300v\302d\216\261g\242\000\357>5x\362"
 2923      C076C264 
 2923      8EB167A2 
 2923      00EF3E35 
 2923      78F2
 2924 00f1 F5F3854D 		.ascii	"\365\363\205MNJN2\031\357!/\357\022\300\3734\205\274"
 2924      4E4A4E32 
 2924      19EF212F 
 2924      EF12C0FB 
 2924      3485BC
 2925 0104 EB4E0145 		.ascii	"\353N\001E\026\362\310\241\372\216\226U\235\265N\257"
 2925      16F2C8A1 
 2925      FA8E9655 
 2925      9DB54EAF 
 2926 0114 33130BD9 		.ascii	"3\023\013\331XwN\336m\352}\243\007S\004v\360j\234?>"
 2926      58774EDE 
 2926      6DEA7DA3 
 2926      07530476 
 2926      F06A9C3F 
 2927 0129 98CDB9E9 		.ascii	"\230\315\271\351\303\325\245.\351\234,\351\332\276\002"
 2927      C3D5A52E 
 2927      E99C2CE9 
 2927      DABE02
 2928 0138 C04EC23C 		.ascii	"\300N\302<Y\322G\277\023\351.\302\274\220\345\360\361"
 2928      59D247BF 
 2928      13E92EC2 
 2928      BC90E5F0 
 2928      F1
 2929 0149 BF38B47E 		.ascii	"\2778\264~#\016\217\010\354\236\341\320#8\360\230k\375"
 2929      230E8F08 
 2929      EC9EE1D0 
 2929      2338F098 
 2929      6BFD
 2930 015b 3929E7DB 		.ascii	"9)\347\333t\235\223:>\347\307\225\346\341^\311#!\266"
 2930      749D933A 
ARM GAS  /tmp/ccpeSJ8z.s 			page 85


 2930      3EE7C795 
 2930      E6E15EC9 
 2930      2321B6
 2931 016e D2551DE3 		.ascii	"\322U\035\343;vdtR\000\247\230\344:\265\344\214\242"
 2931      3B766474 
 2931      5200A798 
 2931      E43AB5E4 
 2931      8CA2
 2932 0180 938EF723 		.ascii	"\223\216\367#?'G\352\276^h@\222X\240\323\303y\342z\362"
 2932      3F2747EA 
 2932      BE5E6840 
 2932      9258A0D3 
 2932      C379E27A 
 2933 0195 46437D82 		.ascii	"FC}\202\340v\027N\014d\340\216\313_G\007\347\223\030"
 2933      E076174E 
 2933      0C64E08E 
 2933      CB5F4707 
 2933      E79318
 2934 01a8 023E3776 		.ascii	"\002>7v\0269^\343#\211\370\277 \243\317\315>\177k\370"
 2934      16395EE3 
 2934      2389F8BF 
 2934      20A3CFCD 
 2934      3E7F6BF8 
 2935 01bc 3C925222 		.ascii	"<\222R\"\254m8\017\037\"|\302\232\305\234s\037_\376"
 2935      AC6D380F 
 2935      1F227CC2 
 2935      9AC59C73 
 2935      1F5FFE
 2936 01cf A221E958 		.ascii	"\242!\351Xn\222\345\220)\363\277\362\011\002\235\370"
 2936      6E92E590 
 2936      29F3BFF2 
 2936      09029DF8 
 2937 01df 14F1B1D0 		.ascii	"\024\361\261\320v\321\210\270\367\210\313>\267\313x"
 2937      76D188B8 
 2937      F788CB3E 
 2937      B7CB78
 2938 01ee FBE5C6B1 		.ascii	"\373\345\306\261\\\340\353\340u'n4\234M\024\272D\022"
 2938      5CE0EBE0 
 2938      75276E34 
 2938      9C4D14BA 
 2938      4412
 2939 0200 0B0472F1 		.ascii	"\013\004r\361t<H\313\200q<\342\203#(%\231\267\231\345"
 2939      743C48CB 
 2939      80713CE2 
 2939      83232825 
 2939      99B799E5 
 2940 0214 025C6264 		.ascii	"\002\\bd\346\212\3203\3632c_O\277\235GK\022`K\332\035"
 2940      E68AD033 
 2940      F332635F 
 2940      4FBF9D47 
 2940      4B12604B 
 2941 022a 84CF7D97 		.ascii	"\204\317}\227\317\335\345\342\367\023\011\027O\277\034"
 2941      CFDDE5E2 
 2941      F7130917 
 2941      4FBF1C
 2942 0239 582ACE37 		.ascii	"X*\3167\003\342f\361\314'\375%?\243\314\2531R\246\333"
 2942      03E266F1 
ARM GAS  /tmp/ccpeSJ8z.s 			page 86


 2942      CC27FD25 
 2942      3FA3CCAB 
 2942      3152A6DB 
 2943 024d 4DFC9C55 		.ascii	"M\374\234U\346QF\031\230\255LOV\231\336\331\312d4x!"
 2943      E6514619 
 2943      98AD4C4F 
 2943      5699DED9 
 2943      CA643478 
 2944 0262 D4983DF8 		.ascii	"\324\230=\3708\037\234\376\001\230 \367\342\315\370"
 2944      381F9CFE 
 2944      019820F7 
 2944      E2CDF8
 2945 0271 163E267F 		.ascii	"\026>&\177\352\030\272\213\255Iqw\265\022\215\031\232"
 2945      EA18BA8B 
 2945      AD497177 
 2945      B5128D19 
 2945      9A
 2946 0282 A2971B95 		.ascii	"\242\227\033\225\246nG\017\352VT\263\355*%\2609TY\256"
 2946      A66E470F 
 2946      EA5654B3 
 2946      ED2A25B0 
 2946      395459AE 
 2947 0296 6A8A61A8 		.ascii	"j\212a\250\245k\212\327\205m\315\262K`\205_\011D\365"
 2947      A56B8AD7 
 2947      856DCDB2 
 2947      4B60855F 
 2947      0944F5
 2948 02a9 88BE2D14 		.ascii	"\210\276-\024.)\362\227\372\213\224\230\245D\313\367"
 2948      2E29F297 
 2948      FA8B9498 
 2948      A544CBF7 
 2949 02b9 2996A9F2 		.ascii	")\226\251\3623\0349\260g\217fZ~\025d=\262\2772\3777"
 2949      331C39B0 
 2949      678F665A 
 2949      7E15643D 
 2949      B2BF32FF 
 2950 02ce CC5F5CA6 		.ascii	"\314_\\\246\026\251\353#\353a\345\337\352\304,\372\230"
 2950      16A9EB23 
 2950      EB61E5DF 
 2950      EAC42CFA 
 2950      98
 2951 02df F6EA0ADD 		.ascii	"\366\352\012\335\265\375QX\366\247X\323V\364\012u\337"
 2951      B5FD5158 
 2951      F6A758D3 
 2951      56F40A75 
 2951      DF
 2952 02f0 81DD9AA2 		.ascii	"\201\335\232\242F\255*\213\342\274\221rK\333n\352\233"
 2952      46AD2A8B 
 2952      E2BC9172 
 2952      4BDB6EEA 
 2952      9B
 2953 0301 FE14AFC6 		.ascii	"\376\024\257\306\014#V\241h\207le\343\216\240\022\010"
 2953      0C2356A1 
 2953      68876C65 
 2953      E38EA012 
 2953      08
 2954 0312 86B68694 		.ascii	"\206\266\206\224@\314\324\224\255\277\312\030\226n\205"
ARM GAS  /tmp/ccpeSJ8z.s 			page 87


 2954      40CCD494 
 2954      ADBFCA18 
 2954      966E85
 2955 0321 F7AA2A95 		.ascii	"\367\252*\225Z\373\217\022\2251\323\266x\221@\360\020"
 2955      5AFB8F12 
 2955      9531D3B6 
 2955      789140F0 
 2955      10
 2956 0332 F556A946 		.ascii	"\365V\251F\370`\231AYs\203\241\035>N\202\224\\\345+"
 2956      F8609941 
 2956      597383A1 
 2956      1D3E4E82 
 2956      945CE52B 
 2957 0346 2C02C904 		.ascii	",\002\311\004\257\241\0311\263\012~\002(\330\275a"
 2957      AFA11931 
 2957      B30A7E02 
 2957      28D8BD61 
 2958              		.text
 2959              		.section	.gnu.lto_ibqReleaseEmptyBufferS.359.6e40379315ec3b91,"e",%progbits
 2960 0000 789C7D52 		.ascii	"x\234}R]HTA\024\2363g\356\275\273f\006\026\010Q \275"
 2960      5D485441 
 2960      149E3367 
 2960      EEBDBB66 
 2960      06160851 
 2961 0016 84517B57 		.ascii	"\204Q{W\215\3027\301\336{\360\261\007s\227\225]j\321"
 2961      8DC237C1 
 2961      DE7BF0B1 
 2961      07739795 
 2961      5D6AD1
 2962 0029 DCADE8C9 		.ascii	"\334\255\350\311\361\027\332\036\364Z\004\212\006]\226"
 2962      F117DA1E 
 2962      F45A048A 
 2962      065D96
 2963 0038 A8A720A9 		.ascii	"\250\247 \251\254\244\026\373A\302(\027\012\"\212\020"
 2963      ACA416FB 
 2963      41C22817 
 2963      0A228A10 
 2964 0048 32B78745 		.ascii	"2\267\207E\204 \250\2603s\367'i\355\302\234\2313\234"
 2964      8420A8B0 
 2964      3373F727 
 2964      69EDC29C 
 2964      99339C
 2965 005b EF3BDF77 		.ascii	"\357;\337w\346:\310\330y\306\330)Z`1\030wR\234I)[-\316"
 2965      E63AC8D8 
 2965      79C6D829 
 2965      5A603118 
 2965      77529C49 
 2966 0073 079D4B1C 		.ascii	"\007\235K\034\036\000e\365b\310\251\321;\302\225R\205"
 2966      1E0065F5 
 2966      62C8A9D1 
 2966      3BC29552 
 2966      85
 2967 0084 E0C35EC5 		.ascii	"\340\303^\305\344\314\312A1\342\324\254,N\354\024\006"
 2967      E4CCCA41 
 2967      31E2D4AC 
 2967      2C4EEC14 
 2967      06
ARM GAS  /tmp/ccpeSJ8z.s 			page 88


 2968 0095 5C2D5598 		.ascii	"\\-U\230\320\357\244\374\036G\253\005\254\217\2430L"
 2968      D0EFA4FC 
 2968      1E47AB05 
 2968      AC8FA330 
 2968      4C
 2969 00a6 E883CBD8 		.ascii	"\350\203\313\330@W?\206'\247/\232\362f\006\322$\343"
 2969      40573F86 
 2969      27A72F9A 
 2969      F26606D2 
 2969      24E3
 2970 00b8 1A2DFD4D 		.ascii	"\032-\375M!\214c\032\001D\341\304\241\236Nx\202\355"
 2970      218C631A 
 2970      0144E1C4 
 2970      A19E4E78 
 2970      82ED
 2971 00ca CF48F926 		.ascii	"\317H\371&?+\245\237\245\021\341>\020\006\356\001\334"
 2971      3F2BA59F 
 2971      A511E13E 
 2971      1006EE01 
 2971      DC
 2972 00db 05A62E4E 		.ascii	"\005\246.Nn\3242f\026\231\350\216\335\316\032\031\371"
 2972      6ED43266 
 2972      1699E88E 
 2972      DDCE1A19 
 2972      F9
 2973 00ec 6B6354CA 		.ascii	"kcT\312/_a\241\241\226S\231@\025\004\005\303P'S\235"
 2973      2F5F61A1 
 2973      A1965399 
 2973      40150405 
 2973      C3502753 
 2974 0101 2C157C2A 		.ascii	",\025|*(j\263\032`\226\360\243\250|H\0012\303\330\030"
 2974      286AB31A 
 2974      6096F0A3 
 2974      A87C4801 
 2974      32C3D818 
 2975 0115 722FE9A7 		.ascii	"r/\351\247\344\033\310\345'\331:\275/eA\355\373Ja\371"
 2975      E41BC8E5 
 2975      27D93ABD 
 2975      2F6541ED 
 2975      FB4A61F9 
 2976 0129 5D2DCBC3 		.ascii	"]-\313\303\374\\\016]\344\005\017\010\312\327\0155\011"
 2976      FC5C0E5D 
 2976      E4050F08 
 2976      CAD70D35 
 2976      09
 2977 013a 5F1A2D17 		.ascii	"_\032-\027\253\341!\260\340u\235\372\340\021Lk\321y"
 2977      ABE121B0 
 2977      E0759DFA 
 2977      E0114C6B 
 2977      D179
 2978 014c 189C1A79 		.ascii	"\030\234\032y\305]TP\205\363\301\006};\024\337Z\012"
 2978      C55D5450 
 2978      85F3C106 
 2978      7D3B14DF 
 2978      5A0A
 2979 015e 8A14AB58 		.ascii	"\212\024\253X\201\343\261\307AX-\342=\311\312\303\300"
 2979      81E3B1C7 
ARM GAS  /tmp/ccpeSJ8z.s 			page 89


 2979      41582DE2 
 2979      3DC9CAC3 
 2979      C0
 2980 016f DCAD5D2E 		.ascii	"\334\255].\212J\275\225[\310\020\010t\343\201\271\\"
 2980      8A4ABD95 
 2980      5BC81008 
 2980      74E381B9 
 2980      5C
 2981 0180 9D8B46A5 		.ascii	"\235\213F\245J/\365\303<\025sO\345\235\221\347\244\322"
 2981      4A2FF5C3 
 2981      3C15734F 
 2981      E59D91E7 
 2981      A4D2
 2982 0192 246AC228 		.ascii	"$j\302(\364_\352\376i\362\314kB\365Z\331\207\202\262"
 2982      F45FEAFE 
 2982      69F2CC6B 
 2982      42F55AD9 
 2982      8782B2
 2983 01a5 DC5E17AD 		.ascii	"\334^\027\255\255\373\031\360\202p\312R\016\206>=\335"
 2983      ADFB19F0 
 2983      8270CA52 
 2983      0E863E3D 
 2983      DD
 2984 01b6 ADDB59FA 		.ascii	"\255\333Y\372\027\031C\354\247\"^z\213\217Y\356\231"
 2984      171943EC 
 2984      A7225E7A 
 2984      8B8F59EE 
 2984      99
 2985 01c7 DDE3A2EF 		.ascii	"\335\343\242\357\177\224\013D)<\277k\251\267\2744\320"
 2985      7F940B44 
 2985      293CBF6B 
 2985      A9B7BC34 
 2985      D0
 2986 01d8 EA0AB52F 		.ascii	"\352\012\265/\213\262}\272\245\330\374\374\337=\027"
 2986      8BB27DBA 
 2986      A5D8FCFC 
 2986      DF3D17
 2987 01e7 EBAB3515 		.ascii	"\353\2535\025_\245H\262H$\006c\352-\015\360\220?\213"
 2987      5FA548B2 
 2987      48240663 
 2987      EA2D0DF0 
 2987      903F8B
 2988 01fa FEB7BBE8 		.ascii	"\376\267\273\350\337Zl\025\274&\254\351\371\317)\377"
 2988      DF5A6C15 
 2988      BC26ACE9 
 2988      F9CF29FF 
 2989 020a 7EC55205 		.ascii	"~\305R\005\2540\003cibf\245<\203\3374\2035\030\252'"
 2989      AC300363 
 2989      696266A5 
 2989      3C83DF34 
 2989      833518AA 
 2990 021f C17E5AE4 		.ascii	"\301~Z\344h\233.3\313\272\327a\340\263\323\256\341\243"
 2990      689B2E33 
 2990      CBBAD761 
 2990      E0B3D3AE 
 2990      E1A3
 2991 0231 08E57F9B 		.ascii	"\010\345\177\233\261Cv\264;\036\261c\235\361\236\336"
ARM GAS  /tmp/ccpeSJ8z.s 			page 90


 2991      B14376B4 
 2991      3B1EB163 
 2991      9DF19EDE 
 2992 0241 58327A2E 		.ascii	"X2z.\226\210F\222\311\013v\333\261\366\236\316p\304"
 2992      96884692 
 2992      C90B76DB 
 2992      B1F69ECE 
 2992      70C4
 2993 0253 8EC7C3CD 		.ascii	"\216\307\303\315\207\033\217t$#\211d\023;\020\260\333"
 2993      871B8F74 
 2993      24238964 
 2993      133B10B0 
 2993      DB
 2994 0264 A2B150EC 		.ascii	"\242\261P\354x{GS0\320\034\010\332\335\011;\332y\332"
 2994      787B4753 
 2994      30D01C08 
 2994      DADD093B 
 2994      DA79DA
 2995 0277 4EF486D5 		.ascii	"N\364\206\325\336\021:\333\325\025\351M\004\302L\304"
 2995      DE113ADB 
 2995      D515E94D 
 2995      04C24CC4 
 2996 0287 42677AEA 		.ascii	"Bgz\3526\335\005\032\217\206\203\341\226P\013\373\003"
 2996      36DD051A 
 2996      8F8683E1 
 2996      96500BFB 
 2996      03
 2997 0298 4E4552C1 		.ascii	"NER\301"
 2998              		.text
 2999              		.section	.gnu.lto_ibqGetTimeout.360.6e40379315ec3b91,"e",%progbits
 3000 0000 789C9D54 		.ascii	"x\234\235TkL\024W\024\276g\356\354\354nA0\030\324\230"
 3000      6B4C1457 
 3000      14BE67EE 
 3000      ECEC6E41 
 3000      3018D498 
 3001 0014 A6415342 		.ascii	"\246ASB\352\203\301W\215?\232\330\3224\361\007i#?\233"
 3001      EA83C157 
 3001      8D3F9AD8 
 3001      D234F107 
 3001      69233F9B 
 3002 0028 06D8EDEA 		.ascii	"\006\330\355\352n\342\262tg5\360\313\221g\243&\260`"
 3002      6EE2B274 
 3002      6735F0CB 
 3002      9167A326 
 3002      B060
 3003 003a 5C4A71D1 		.ascii	"\\Jq\321-\241\222\326\326\226\322\372\300\272\026i\021"
 3003      2DA192D6 
 3003      D696D2FA 
 3003      C0BA1669 
 3003      11
 3004 004b 2B3EB020 		.ascii	"+>\260 \226\026\245\205\002\012]\2651h\261\364\334;"
 3004      9616A585 
 3004      020A5DB5 
 3004      3168B1F4 
 3004      DC3B
 3005 005d C3EED222 		.ascii	"\303\356\322\"\261\375s\347\316w\277{\316w\316wf\032"
 3005      B1FD73E7 
ARM GAS  /tmp/ccpeSJ8z.s 			page 91


 3005      CE77BF7B 
 3005      CE77CE77 
 3005      661A
 3006 006f 8D847880 		.ascii	"\215\204x\200\220}\204\0200\023\250\364\356\021\210"
 3006      907D8410 
 3006      3013A8F4 
 3006      EE1188
 3007 007e AAAA9B8C 		.ascii	"\252\252\233\214\202P\344\335+\300i\030\032\257\212"
 3007      8250E4DD 
 3007      2BC06918 
 3007      1AAF8A
 3008 008d 114BBC71 		.ascii	"\021K\274q5\336;\353D*\024{c\356|p+\221!\373\373\374"
 3008      35DE3BEB 
 3008      442A147B 
 3008      63EE7C70 
 3008      2B9121FB 
 3009 00a3 CB4511AA 		.ascii	"\313E\021\252+\003w\247\316\033\371-\203P\352\215\331"
 3009      2B0377A7 
 3009      CE1BF92D 
 3009      8350EA8D 
 3009      D9
 3010 00b4 F34979A2 		.ascii	"\363Iy\242X\346\215{p%\264\\\224\300\027\216i\344\\"
 3010      58E68D7B 
 3010      7025B45C 
 3010      94C0178E 
 3010      69E45C
 3011 00c7 FF85D730 		.ascii	"\377\205\3270,\007L\260;|\010d\227@E\203\204\340.\250"
 3011      2C074CB0 
 3011      3B7C0864 
 3011      97404583 
 3011      84E02EA8 
 3012 00db A2B5142A 		.ascii	"\242\265\024*i=% \352;\200\244\027\2208QR36\002\265"
 3012      693D2520 
 3012      EA3B80A4 
 3012      17903851 
 3012      52333602 
 3013 00f0 4782623D 		.ascii	"G\202b=\025\210\037\011\315\000_`\011\204 \221\276I"
 3013      15881F09 
 3013      CD005F60 
 3013      09842091 
 3013      BE49
 3014 0102 5282AA7A 		.ascii	"R\202\252z\271\357\270\252\232I=\245\360\025Dq\020\310"
 3014      B9EFB8AA 
 3014      9A493DA5 
 3014      F0154471 
 3014      10C8
 3015 0114 EE4860BC 		.ascii	"\356H`\274|\215\367nQ\231:\037#\211pb&O\314\356I\320"
 3015      7C8DF76E 
 3015      51993A1F 
 3015      23897062 
 3015      264FCCEE 
 3016 012a 22AAC01E 		.ascii	"\"\252\300\036\311\230:4\336X\032W\261\333\204\211\341"
 3016      C9983A34 
 3016      DE581A57 
 3016      B1DB8489 
 3016      E1
 3017 013b 14CC489D 		.ascii	"\024\314H\235\375k\202D\240\005\230 B\230x\211\340\036"
ARM GAS  /tmp/ccpeSJ8z.s 			page 92


 3017      FD6B8244 
 3017      A0059820 
 3017      42987889 
 3017      E01E
 3018 014d E06B7E5B 		.ascii	"\340k~[b\302;\327\023\254\333\217\252u\244v_\311\305"
 3018      62C23BD7 
 3018      13ACDB8F 
 3018      AA75A476 
 3018      5FC9C5
 3019 0160 C504CE20 		.ascii	"\305\004\316 F\303\330p\311c\003\201 b\"O\177\235\007"
 3019      46C3D870 
 3019      C9630381 
 3019      2062224F 
 3019      7F9D07
 3020 0173 6062272A 		.ascii	"`b'*\312\177\274\264\244Ve\225\033\340\033`\3415\001"
 3020      CA7FBCB4 
 3020      A4566595 
 3020      1BE01B60 
 3020      E13501
 3021 0186 D00A0865 		.ascii	"\320\012\010e\237X\314\2042\346\201\252\261\346\225"
 3021      9F58CC84 
 3021      32E681AA 
 3021      B1E695
 3022 0195 AD456ABB 		.ascii	"\255Ej\273\032\346\222\010Wk\025\313v|\262F\202s\010"
 3022      1AE69208 
 3022      576B15CB 
 3022      767CB246 
 3022      827308
 3023 01a8 9E65D108 		.ascii	"\236e\321\010j\206\266h\315-\303\023\037\032\377\241"
 3023      6A86B668 
 3023      CD2DC313 
 3023      1F1AFFA1 
 3024 01b8 BA055557 		.ascii	"\272\005UWc\261\337\315\"\273}Z\366\177W\321\201\340"
 3024      63B1DFCD 
 3024      22BB7D5A 
 3024      F67F57D1 
 3024      81E0
 3025 01ca F9B08A0B 		.ascii	"\371\260\212\013\321*j\207o\246h\"\014\221\326\265M"
 3025      D12A6A87 
 3025      6FA66822 
 3025      0C91D6B5 
 3025      4D
 3026 01db A1B08B88 		.ascii	"\241\260\213\210I\021Z\333 j\350D\314\030\245\341\364"
 3026      49115ADB 
 3026      206AE844 
 3026      CC18A5E1 
 3026      F4
 3027 01ec 53699818 		.ascii	"Si\230\030B\015\227\021\274\024\326p\205k@\016\240\261"
 3027      420D9711 
 3027      BC14D670 
 3027      856B400E 
 3027      A0B1
 3028 01fe 9F5E3504 		.ascii	"\237^5\004\325\311\251r5X6o\254q(T\267\"\021pL$\201"
 3028      D5C9A972 
 3028      3558366F 
 3028      AC712854 
 3028      B7221170 
ARM GAS  /tmp/ccpeSJ8z.s 			page 93


 3029 0215 2D1417A3 		.ascii	"-\024\027\243\310v\006\266H\270\0101\000\307!\026\340"
 3029      C87606B6 
 3029      48B80831 
 3029      00C72116 
 3029      E0
 3030 0226 24C4B1C1 		.ascii	"$\304\261\301\210\347\323A\312)\033vU\0045HH\005\025"
 3030      88E7D341 
 3030      CA291B76 
 3030      55043548 
 3030      480515
 3031 0239 B497227C 		.ascii	"\264\227\"|\031\005u\340\247.3\226\311\267\241\005\354"
 3031      190575E0 
 3031      A72E3396 
 3031      C9B7A105 
 3031      EC
 3032 024a 71FFB3FD 		.ascii	"q\377\263\375\217\352\016\000\326\311\301\251~3'\336"
 3032      8FEA0E00 
 3032      D6C9C1A9 
 3032      7E3327DE 
 3033 025a 3FECABF4 		.ascii	"?\354\253\364!\334\251\301\276\036\035>\332\360h\364"
 3033      21DCA9C1 
 3033      BE1E1D3E 
 3033      DAF068F4 
 3034 026a FA022C81 		.ascii	"\372\002,\201\303\357\337\256\006\206\027&aa\354\013"
 3034      C3EFDFAE 
 3034      06861726 
 3034      6161EC0B 
 3035 027a 32409276 		.ascii	"2@\222v\333\377e\377A\300\3728\355T\277\031\256\002"
 3035      DBFF65FF 
 3035      41C0FA38 
 3035      ED54BF19 
 3035      AE02
 3036 028c F91D0A97 		.ascii	"\371\035\012\227\261j{\005\354\310\322Q\241\024\307"
 3036      B16A7B05 
 3036      ECC8D251 
 3036      A114C7
 3037 029b DC845B91 		.ascii	"\334\204[\221\375\031\256\001\301'\374\000\320\305]"
 3037      FD19AE01 
 3037      C127FC00 
 3037      D0C55D
 3038 02aa 593AC6CF 		.ascii	"Y:\306\317\315\374\260G\313\022\372\270\241\346\266"
 3038      CDFCB047 
 3038      CB12FAB8 
 3038      A1E6B6
 3039 02b9 89B026B2 		.ascii	"\211\260&\262\270\367\016\373\252}\311\232\020\337B"
 3039      B8F70EFB 
 3039      AA7DC99A 
 3039      10DF42
 3040 02c8 0D69AACB 		.ascii	"\015i\252\313`\365\215Ca\313\310\274\000\005\375\313"
 3040      60F58D43 
 3040      61CBC8BC 
 3040      0005FDCB 
 3041 02d8 A63C6603 		.ascii	"\246<f\003\373%`\320g\0024\006z\201\244i\257\022\334"
 3041      FB2560D0 
 3041      67023406 
 3041      7A81A469 
 3041      AF12DC
ARM GAS  /tmp/ccpeSJ8z.s 			page 94


 3042 02eb 8083ECA3 		.ascii	"\200\203\354\243\"#P<\334\272$\240\335\221\370g\307"
 3042      2223503C 
 3042      DCBA24A0 
 3042      DD91F867 
 3042      C7
 3043 02fc 7A488F3D 		.ascii	"zH\217=\360\367\222p\017\037v\011$\004%\2076\004h\\"
 3043      F0F79270 
 3043      0F1F7609 
 3043      24042587 
 3043      3604685C 
 3044 0310 3108F534 		.ascii	"1\010\3654\306OM\204`\320\000\215\255\247\261ZCZ\000"
 3044      C64F4D84 
 3044      60D0008D 
 3044      ADA7B15A 
 3044      435A00
 3045 0323 8F39FF4F 		.ascii	"\2179\377O\344c\344\221V\013\",\262\020\216,\366\016"
 3045      E463E491 
 3045      560B222C 
 3045      B2108E2C 
 3045      F60E
 3046 0335 7EF45C38 		.ascii	"~\364\\8\360\343.\252[rl\340f\002\216?G\233\007\264"
 3046      F0E32EAA 
 3046      5B726CE0 
 3046      66028E3F 
 3046      479B07B4 
 3047 0349 26334F4E 		.ascii	"&3ON2O\3325\374\214\317\247\341\003Wz\236\327\314\355"
 3047      324FDA35 
 3047      FC8CCFA7 
 3047      E103577A 
 3047      9ED7CCED 
 3048 035d E127CBC2 		.ascii	"\341'\313\302\313\300\037\213t\327n\334F\327\316k\027"
 3048      CBC01F8B 
 3048      74D76EDC 
 3048      46D7CE6B 
 3048      17
 3049 036e EF465CEB 		.ascii	"\357F\\\353\320]#\321\256]\210\270\366}\264k\272?\375"
 3049      D05D23D1 
 3049      AE5D88B8 
 3049      F67DB46B 
 3049      BA3FFD
 3050 0381 DCA96853 		.ascii	"\334\251hSB\314\224\216iS\356\327\275\305,`\345\031"
 3050      42CC948E 
 3050      6953EED7 
 3050      BDC52C60 
 3050      E519
 3051 0393 8ED45CBB 		.ascii	"\216\324\\\273E\303\365\275\327\255;\2630@\205\271\374"
 3051      45C3F5BD 
 3051      D7AD3BB3 
 3051      304085B9 
 3051      FC
 3052 03a4 18D0FD40 		.ascii	"\030\320\375@r\365\3366!@\3514\025=\025\240\017\370"
 3052      72F5DE36 
 3052      2140E934 
 3052      153D15A0 
 3052      0FF8
 3053 03b6 D164D94B 		.ascii	"\321d\331K\001\032\217\207\221\206\307k\323\300\363"
 3053      011A8F87 
ARM GAS  /tmp/ccpeSJ8z.s 			page 95


 3053      9186C76B 
 3053      D3C0F3
 3054 03c5 147D5E3A 		.ascii	"\024}^:\210\220\310n\2441~h\017L'\035\246\263d\035\324"
 3054      8890C86E 
 3054      A4317E68 
 3054      0F4C271D 
 3054      A6B3641D 
 3055 03da B2E2151E 		.ascii	"\262\342\025\036\245IW\333\370l\200\032\346R\373\033"
 3055      A54957DB 
 3055      F86C801A 
 3055      E652FB1B 
 3056 03ea DE036D7A 		.ascii	"\336\003mz~f\323\203\031\015\272\277R\325\301\207~\010"
 3056      7E66D383 
 3056      190DBABF 
 3056      52D5C187 
 3056      7E08
 3057 03fc 37A0B99B 		.ascii	"7\240\271\233MNq\022\341c\023\347\247f>6\365\250\233"
 3057      4D4E7112 
 3057      E16313E7 
 3057      A7663E36 
 3057      F5A89B
 3058 040f B18D33DB 		.ascii	"\261\2153\333u\252\033\242\307\341\314\023\306!\370"
 3058      75AA1BA2 
 3058      C7E1CC13 
 3058      C621F8
 3059 041e 7FC7E1EC 		.ascii	"\177\307\341\354\277\306\341\034w7j\024\332\"\243\360"
 3059      BFC6E11C 
 3059      77376A14 
 3059      DA22A3F0 
 3060 042e EDD38FC2 		.ascii	"\355\323\217\3029}\024\016\375\322d\230\036\005S\344"
 3060      397D140E 
 3060      FDD26498 
 3060      1E0553E4 
 3061 043e 3F740F0A 		.ascii	"?t\017\0127a\331\370\003$\217@\302oB\374\253\356\241"
 3061      3761D9F8 
 3061      03248F40 
 3061      C26F42FC 
 3061      ABEEA1
 3062 0451 0989E89F 		.ascii	"\011\211\350\237q\274\311\201\2770\320\330\205A\326"
 3062      71BCC981 
 3062      BF30D0D8 
 3062      8541D6
 3063 0460 C655B2DD 		.ascii	"\306U\262\335\345\264\311\216\034g\236\333\341\261\357"
 3063      E5B4C98E 
 3063      1C679EDB 
 3063      E1B1EF
 3064 046f 7428769B 		.ascii	"t(v\233\307S \247\277\232\231\227c\265\311N\247u\355"
 3064      C75320A7 
 3064      BF9A9997 
 3064      63B5C94E 
 3064      A775ED
 3065 0482 BAD52F66 		.ascii	"\272\325/fyl\212g\015Y\236*\247\333\035\026\307\353"
 3065      796C8A67 
 3065      0D599E2A 
 3065      A7DB1D16 
 3065      C7EB
 3066 0494 99596BD2 		.ascii	"\231Yk\322R\327\246\246\311.E\266\347l\227\025\267\225"
ARM GAS  /tmp/ccpeSJ8z.s 			page 96


 3066      52D7A6A6 
 3066      C92E45B6 
 3066      E76C9715 
 3066      B795
 3067 04a6 3DB32C3B 		.ascii	"=\263,;\266n\265\271\225T+\021\035\226w\362\026\315"
 3067      B66EB5B9 
 3067      95542B11 
 3067      1D9677F2 
 3067      16CD
 3068 04b8 C052576F 		.ascii	"\300RWo\260\246Y7Z6\022\243\307\341\264\271vx\250S\331"
 3068      B0A65937 
 3068      5A3612A3 
 3068      C7E1B4B9 
 3068      7678A853 
 3069 04cd B6E24931 		.ascii	"\266\342I1]\012.n\317\252\\\207\266O\265\223\224\331"
 3069      5D0A2E6E 
 3069      CFAA5C87 
 3069      B64FB593 
 3069      94D9
 3070 04df B86E8FEC 		.ascii	"\270n\217\354\310\265n\337\361\266M\266\332\225\002"
 3070      C8B56EDF 
 3070      F1B64DB6 
 3070      DA9502
 3071 04ee 0579464B 		.ascii	"\005yFK\216b{\303\355xe6\276\325\345t\272re[\276G~y"
 3071      8E627BC3 
 3071      ED786536 
 3071      BED5E574 
 3071      BA72655B 
 3072 0506 4B869C9E 		.ascii	"K\206\234\236\221\2719SNw\271m\362\346\3510N\305\241"
 3072      91B93953 
 3072      4E77B96D 
 3072      F2E6E930 
 3072      4EC5A1
 3073 0519 646DB35A 		.ascii	"dm\263Z1\324\3729B\344\271\334\036\205\005I\317\310"
 3073      31D4FA39 
 3073      42E4B9DC 
 3073      1E850549 
 3073      CFC8
 3074 052b C7DC568C 		.ascii	"\307\334V\214\221\265s\203\023o\315\317\310\334\222"
 3074      91B57383 
 3074      136FCDCF 
 3074      C8DC92
 3075 053a C4446057 		.ascii	"\304D`WW&%\247\021\301M\214N\233\323\345. \177\003\371"
 3075      572625A7 
 3075      11C14D8C 
 3075      4E9BD3E5 
 3075      2E207F03 
 3076 054f F02F19   		.ascii	"\360/\031"
 3077              		.text
 3078              		.section	.gnu.lto_ibqReadTimeout.361.6e40379315ec3b91,"e",%progbits
 3079 0000 789C9D56 		.ascii	"x\234\235V{PT\327\031?\337=w\367.,\273\002\266\245\243"
 3079      7B5054D7 
 3079      193FDF3D 
 3079      77F72E2C 
 3079      BB02B6A5 
 3080 0015 56975886 		.ascii	"V\227X\2061MX\362\2606m\377HK\377\311\037L2a\332\177"
 3080      314D58F2 
ARM GAS  /tmp/ccpeSJ8z.s 			page 97


 3080      B0366DFF 
 3080      484BFFC9 
 3080      1F4C3261 
 3081 002b FA07C876 		.ascii	"\372\007\310v\023\266\223\025\272\273f\264\235N7\274"
 3081      13B69315 
 3081      BABB66B4 
 3081      9D4E37BC 
 3082 003b CCC8545E 		.ascii	"\314\310T^m0\210\233xKM3\235\244\251\211\015>\2104\024"
 3082      6D30889B 
 3082      784B4D33 
 3082      9DA4A989 
 3082      0D3E8834 
 3083 0050 4DB50A88 		.ascii	"M\265\012\210t\005\005\342\032\214\210!()A\"C\277\357"
 3083      740505E2 
 3083      1A8C8821 
 3083      28294122 
 3083      43BFEF
 3084 0063 9CBB0FC2 		.ascii	"\234\273\017\302\243i\230\341\336s\277\363\373\036\277"
 3084      A36998E1 
 3084      DE73BFF3 
 3084      FB1EBF
 3085 0072 EF71CED6 		.ascii	"\357q\316\326\330\030\013\002c\253\360\037V1h\250\337"
 3085      D8180B02 
 3085      63ABF01F 
 3085      563168A8 
 3085      DF
 3086 0083 ADB06030 		.ascii	"\255\260`0\370\250\246@c\375\351\251\336\216\3477B\027"
 3086      F8A8A640 
 3086      63FDE9A9 
 3086      DE8EE737 
 3086      4217
 3087 0095 0809572A 		.ascii	"\010\011W*\353k\024\350\206k\023\215V\265\272~\217\002"
 3087      EB6B14E8 
 3087      866B138D 
 3087      56B5BA7E 
 3087      8F02
 3088 00a7 23D05C7F 		.ascii	"#\320\\\177\363aUU\252\352\255\341S\357r\224\332_mk"
 3088      F3615555 
 3088      AAEAADE1 
 3088      53EF7294 
 3088      DA5F6D6B 
 3089 00bb FFBE6A82 		.ascii	"\377\276j\202P\203~\247g`\344\011\241jVvIU\374r\250"
 3089      50837EA7 
 3089      6760E409 
 3089      A16A5676 
 3089      4955FC72 
 3090 00d0 7BEB2272 		.ascii	"{\353\"r\241\301\213\015\2724n\241e\246t\235\2444\327"
 3090      A1C18B0D 
 3090      BA346EA1 
 3090      65A6749D 
 3090      A434D7
 3091 00e3 1DCA44F4 		.ascii	"\035\312D\364\356\327k\277\252\356C\364t\357\344\275"
 3091      EED76BBF 
 3091      AAEE43F4 
 3091      74EFE4BD 
 3092 00f3 6A32EC8B 		.ascii	"j2\354\213A\254J\213\204\010\257\373\021\"\334\246\220"
 3092      41AC4A8B 
ARM GAS  /tmp/ccpeSJ8z.s 			page 98


 3092      8408AFFB 
 3092      1122DCA6 
 3092      90
 3093 0104 DB5BED67 		.ascii	"\333[\355g5\001\262A\343_O\177\212\024\376\240B\257"
 3093      3501B241 
 3093      E35F4F7F 
 3093      8A14FEA0 
 3093      42AF
 3094 0116 746387E7 		.ascii	"tc\207\347b\014\201\375F\341\252\311\254Y\222\222\255"
 3094      620C81FD 
 3094      46E1AAC9 
 3094      AC599292 
 3094      AD
 3095 0127 29363BE0 		.ascii	")6;\340'\213\3775\362\026\016\015\274\2253P\215\025"
 3095      278BFF35 
 3095      F2160E0D 
 3095      BC953350 
 3095      8D15
 3096 0139 80635347 		.ascii	"\200cSG08S\325|\256\306\334\362\247\016\265\225+,\204"
 3096      303853D5 
 3096      7CAEC6DC 
 3096      F2A70EB5 
 3096      952B2C84 
 3097 014d 80C3006F 		.ascii	"\200\303\000o\001)!\220\377\224e#\250g\270-\030Lb\255"
 3097      01292190 
 3097      FF946523 
 3097      A867B82D 
 3097      184C62AD 
 3098 0161 9CC3DB90 		.ascii	"\234\303\333\220\200AA\321\3214\302\355\220\2709\003"
 3098      804141D1 
 3098      D134C2ED 
 3098      90B83903 
 3099 0171 A7C29185 		.ascii	"\247\302\221\2058\265\350\224\300\375J\340&\273\317"
 3099      38B5E894 
 3099      C0FD4AE0 
 3099      26BBCF
 3100 0180 D4DAEB00 		.ascii	"\324\332\353\000=\302\261\2058\245\250O\340~-\355\215"
 3100      3DC2B185 
 3100      38A5A84F 
 3100      E07E2DED 
 3100      8D
 3101 0191 18F64CD0 		.ascii	"\030\366L\320\276\020g*\032N\223\021V\001\275\262\310"
 3101      BE10672A 
 3101      1A4E9311 
 3101      5601BDB2 
 3101      C8
 3102 01a2 EAC533D5 		.ascii	"\352\3053\325\366\272\347,d\366\004,\240R4\236ff\320"
 3102      F6BAE72C 
 3102      64F6042C 
 3102      A052349E 
 3102      6666D0
 3103 01b5 01449031 		.ascii	"\001D\2201J\201\231\341\032\340]\241->\024\350\224\037"
 3103      4A8199E1 
 3103      1AE05DA1 
 3103      2D3E14E8 
 3103      941F
 3104 01c7 98D0B689 		.ascii	"\230\320\266\211\315\014\376\2166\024c\033\376\001\011"
ARM GAS  /tmp/ccpeSJ8z.s 			page 99


 3104      CD0CFE8E 
 3104      3614631B 
 3104      FE0109
 3105 01d6 DB2DB55D 		.ascii	"\333-\265]\363\032\303^\012q\036\223\215w\215\232\030"
 3105      F31AC35E 
 3105      0A711E93 
 3105      8D778D9A 
 3105      18
 3106 01e7 9C44992A 		.ascii	"\234D\231*\002\273$\340Dc\346\205\332K\335kZ\202\224"
 3106      02BB24E0 
 3106      4463E685 
 3106      DA4BDD6B 
 3106      5A8294
 3107 01fa 6333BC07 		.ascii	"c3\274\007\344X\206\006\377\304$\230\213\216|\335\240"
 3107      E4588606 
 3107      FFC42498 
 3107      8B8E7CDD 
 3107      A0
 3108 020b 30D3D2D8 		.ascii	"0\323\322\330~\370\276\316\212\340{\301\030\226\305"
 3108      7EF8BECE 
 3108      8AE07BC1 
 3108      1896C5
 3109 021a B1B228E4 		.ascii	"\261\262(\344m\346Z\263\031N\243\360\024Yc\024\341\231"
 3109      6DE65AB3 
 3109      194EA3F0 
 3109      14596314 
 3109      E199
 3110 022c 281B7E59 		.ascii	"(\033~Y\211\246d\246\347\316\320w\320q\245\203\222r"
 3110      89A664A6 
 3110      E7CED077 
 3110      D071A583 
 3110      9272
 3111 023e F6734909 		.ascii	"\366sI\011\246\013rp\016\210,+\232O\213Z\037\371\011"
 3111      A60B7270 
 3111      0E882C2B 
 3111      9A4F8B5A 
 3111      1FF909
 3112 0251 C37E4CA0 		.ascii	"\303~L\240\337\223H\3778\322\337\302\260\015\027\323"
 3112      DF9348FF 
 3112      38D2DFC2 
 3112      B00D17D3 
 3113 0261 3F1FA5FF 		.ascii	"?\037\245\377\377\263\271\200\302\276\030\233\376Xm"
 3113      FFB3B980 
 3113      C2BE189B 
 3113      FE586D
 3114 0270 C8E1F59B 		.ascii	"\310\341\365\233\207M2\"S<\210\252\263{1\3700\012\315"
 3114      874D3222 
 3114      533C88AA 
 3114      B37B31F8 
 3114      300ACD
 3115 0283 F128AAE6 		.ascii	"\361(\252\346\020x\021eZB\024\037}\241(\332\356b\024"
 3115      10781165 
 3115      5A42141F 
 3115      7DA128DA 
 3115      EE6214
 3116 0296 83281C88 		.ascii	"\203(\034\210Eq)\226\323+2\247\024l\317\300\360w\215"
 3116      45712996 
ARM GAS  /tmp/ccpeSJ8z.s 			page 100


 3116      D32B32A7 
 3116      146CCFC0 
 3116      F0778D
 3117 02a9 9C6A30F4 		.ascii	"\234j0\364\271\234\3561r:\014\024/+\372mz\324\372\334"
 3117      B99CEE31 
 3117      723A0C14 
 3117      2F2BFA6D 
 3117      7AD4FADC 
 3118 02bd EF1138B2 		.ascii	"\357\0218\262\024\205\367\227\240p\345\313S\270\212"
 3118      1485F797 
 3118      A070E5CB 
 3118      53B88A
 3119 02cc C2488CC2 		.ascii	"\302H\214\302\007\202\002b8\366?\226\032#\373\313yS"
 3119      07820262 
 3119      38F63F96 
 3119      1A23FBCB 
 3119      7953
 3120 02de 47F0EE7C 		.ascii	"G\360\356|m\260c\227\255\273&\324}Sq\002\315\250B\017"
 3120      6DB06397 
 3120      ADBB26D4 
 3120      7D537102 
 3120      CDA8420F 
 3121 02f2 8E0F8B4A 		.ascii	"\216\017\213J+\023\255\314\364\320\250G,$\023\303\235"
 3121      2B13ADCC 
 3121      F4D0A847 
 3121      2C2413C3 
 3121      9D
 3122 0303 4CA364A5 		.ascii	"L\243d\245U\012=l\364\260\323\003\017\335\243\220J\217"
 3122      550A3D6C 
 3122      F4B0D303 
 3122      0FDDA390 
 3122      4A8F
 3123 0315 3482A4D3 		.ascii	"4\202\244\323c5M\365\032@\331Z\2006X\007\360\016\254"
 3123      63354DF5 
 3123      1A40D95A 
 3123      80365807 
 3123      F00EAC
 3124 0328 A7FC6C20 		.ascii	"\247\374l \243\016\200\343\220I\270\215\244\226E\253"
 3124      A30E80E3 
 3124      9049B88D 
 3124      A49645AB 
 3125 0338 6C5A6D12 		.ascii	"lZm\022\343\312j9\233h\272\346\200`\007cu\\\021\353"
 3125      E3CA6A39 
 3125      9B68BAE6 
 3125      80600763 
 3125      755C11EB 
 3126 034c 0A5CDF80 		.ascii	"\012\\\337\200\340\355\003\025\307\362\251oo@\371\313"
 3126      E0ED0315 
 3126      C7F2A96F 
 3126      6F40F9CB 
 3127 035c 9B114DA7 		.ascii	"\233\021M\247\232\002b/r8L\362\340=\261G\244-\203^S"
 3127      9A02622F 
 3127      72384CF2 
 3127      E03DB147 
 3127      A42D835E 
 3128 0371 EDBF9B7D 		.ascii	"\355\277\233}\351\005\300q\026\302\371\221$\234b\261"
 3128      E905C071 
ARM GAS  /tmp/ccpeSJ8z.s 			page 101


 3128      16C2F991 
 3128      249C62B1 
 3129 0381 F15A5343 		.ascii	"\361ZSC\023n\234\224\033M\341$ah\352\310\301\331\033"
 3129      136E9C94 
 3129      1B4DE124 
 3129      6168EAC8 
 3129      C1D91B
 3130 0394 1757E398 		.ascii	"\027W\343\230\011\361\276\361\275\302A\271\003\207\217"
 3130      09F1BEF1 
 3130      BDC241B9 
 3130      03878F
 3131 03a3 FC99C121 		.ascii	"\374\231\301!\265C\177\033\331\0178\203\002v\014\315"
 3131      B5437F1B 
 3131      D90F3883 
 3131      02760CCD 
 3132 03b3 FE0BD8C7 		.ascii	"\376\013\330\307P~\017\245~T\301\362dN+\325x4%\341R"
 3132      507E0FA5 
 3132      7E54C1F2 
 3132      644E2BD5 
 3132      783425E1 
 3133 03c8 C582C175 		.ascii	"\305\202\301u`\370\2061\200\017E\207e\336\021\373\311"
 3133      60F88631 
 3133      800F4587 
 3133      65DE11FB 
 3133      C9
 3134 03d9 62735C7A 		.ascii	"bs\\z\231l;\330<na4\350\202\361kM{\233\262d M_c\224"
 3134      996C3BD8 
 3134      3C6E6134 
 3134      E882F16B 
 3134      4D7B9BB2 
 3135 03f3 118E450F 		.ascii	"\021\216E\017\252FJ\024L\202\316\323\304\352(\256V\311"
 3135      AA464A14 
 3135      4C82CED3 
 3135      C4EA28AE 
 3135      56C9
 3136 0405 345D8DA6 		.ascii	"4]\215\246)\0309\021N\246\256\244\345\205\0146\001\345"
 3136      29183911 
 3136      4EA6AEA4 
 3136      E5850C36 
 3136      01E5
 3137 0417 C7C7EC3A 		.ascii	"\307\307\354:\007\343J\340\"\220\203t\273`$V\235\257"
 3137      07E34AE0 
 3137      22908374 
 3137      BB602456 
 3137      9DAF
 3138 0429 858F80E5 		.ascii	"\205\217\200\345\312O\025&`\277\270S\306\240\362zg\261"
 3138      CA4F1526 
 3138      60BFB853 
 3138      C6A0F27A 
 3138      67B1
 3139 043b 2E7554D1 		.ascii	".uT\321\366l\026V\351|\215\2422\235\247\332\360+\015"
 3139      F66C1656 
 3139      E97C8DA2 
 3139      329DA7DA 
 3139      F02B0D
 3140 044e AE81B2E7 		.ascii	"\256\201\262\347\330\230\005=\353<\335\246R\260\352"
 3140      D898053D 
ARM GAS  /tmp/ccpeSJ8z.s 			page 102


 3140      EB3CDDA6 
 3140      52B0EA
 3141 045d 1BD3A101 		.ascii	"\033\323\241\001\026\255_$\034\266\342<\210\345\345"
 3141      16AD5F24 
 3141      1CB6E23C 
 3141      88E5E5
 3142 046c 0C360955 		.ascii	"\0146\011U/\177O\347\353+Ai\345)!nahk\255\316\327\265"
 3142      2F7F4FE7 
 3142      EB2B4169 
 3142      E529216E 
 3142      61686BAD 
 3143 0483 729BCCF8 		.ascii	"r\233\314\3700ZZ/\340SaNQ\214u\376\034%\024\205&\243"
 3143      305A5A2F 
 3143      E053614E 
 3143      518C75FE 
 3143      1C251485 
 3144 0499 401FA643 		.ascii	"@\037\246C\007>Qc.\376\023N1\252\376F\344\375t\0344"
 3144      073E5163 
 3144      2EFE134E 
 3144      31AAFE46 
 3144      E4FD741C 
 3145 04ae D91C1159 		.ascii	"\331\034\021YE*\372Q*\372\025#;MMF\373\364\206\277)"
 3145      452AFA51 
 3145      2AFA1523 
 3145      3B4D4D46 
 3145      FBF486BF 
 3146 04c3 DE438BDA 		.ascii	"\336C\213\332\350\223\014\243-\006\307\261-\"R\361V"
 3146      E8930CA3 
 3146      2D06C7B1 
 3146      2D2252F1 
 3146      56
 3147 04d4 BC2DAE1A 		.ascii	"\274-\256\032m\301\022\333\342\203x[\214&\266\205\321"
 3147      6DC112DB 
 3147      E283785B 
 3147      8C26B685 
 3147      D1
 3148 04e5 0053A215 		.ascii	"\000S\242\025\022\253>IU\277jT\375\300\233'F-\224)\314"
 3148      12AB3E49 
 3148      55BF6A54 
 3148      FDC09B27 
 3148      462D9429 
 3149 04fa 6B26D657 		.ascii	"k&\326W\025\3114w\017\327|\306cL\353\007Ee\251\244\257"
 3149      15C93477 
 3149      0FD77CC6 
 3149      634CEB07 
 3149      4565A9A4 
 3150 050f AED3B9B2 		.ascii	"\256\323\271\262R!\247\261\220\2240\004\337\3355\212"
 3150      5221A7B1 
 3150      90943004 
 3150      DFDD358A 
 3151 051f 59E5A820 		.ascii	"Y\345\250 Ust\256\256\244:c\364\200P\355RunB\005\374"
 3151      557374AE 
 3151      AEA43A63 
 3151      F48050ED 
 3151      52756E42 
 3152 0535 AA0855F7 		.ascii	"\252\010U\367\243\241\015\302\226I\246\342\034\011D"
 3152      A3A10DC2 
ARM GAS  /tmp/ccpeSJ8z.s 			page 103


 3152      9649A6E2 
 3152      1C0944
 3153 0544 708D838A 		.ascii	"p\215\203\212\304\014):7\353\334A]\212\202\333\325\012"
 3153      C40C293A 
 3153      37EBDC41 
 3153      5D8A82DB 
 3153      D50A
 3154 0556 165913B2 		.ascii	"\026Y\023\262\015\242mIG\023:/IBX\346!j6MNwG\264\316"
 3154      0DA26D49 
 3154      47133A2F 
 3154      494258E6 
 3154      216A364D 
 3155 056f DA2B1F77 		.ascii	"\332+\037w\315A\214\376\233\203\034;\250\332\301D\373"
 3155      CD418CFE 
 3155      9B831C3B 
 3155      A8DAC144 
 3155      FB
 3156 0580 D8433C89 		.ascii	"\330C<\211\332\007{R\205Y\274b\305$D\336ZCN\017U\237"
 3156      DA077B52 
 3156      8559BC62 
 3156      C52444DE 
 3156      5A434E0F 
 3157 0596 C528B271 		.ascii	"\305(\262qW\376 \3520*G\023\223-po\24311\033_\321\271"
 3157      57FE20EA 
 3157      302A4713 
 3157      932D706F 
 3157      A331311B 
 3158 05ad 65A96C88 		.ascii	"e\251l\210_8s\261T\240I\324MB0\334\025%\230\334\015"
 3158      5F3873B1 
 3158      54A049D4 
 3158      4D4230DC 
 3158      152598DC 
 3159 05c2 CBAACD4B 		.ascii	"\313\252\315K5\304\013_G\204\257\212\026\021\324&\314"
 3159      35C40B5F 
 3159      4784AF8A 
 3159      1611D426 
 3159      CC
 3160 05d3 0BC62BE3 		.ascii	"\013\306+\343\241Y\336$\270Z\026r=\261,WLS\224kO\002"
 3160      A159DE24 
 3160      B85A1672 
 3160      3DB12C57 
 3160      4C53946B 
 3161 05e9 D78D6257 		.ascii	"\327\215bW\213\323\334( }\0114\255\313\306[\256,\244"
 3161      8BD3DC28 
 3161      207D0934 
 3161      ADCBC65B 
 3161      AE2CA4
