ARM GAS  /tmp/ccqzpcMt.s 			page 1


   1              		.cpu cortex-m4
   2              		.eabi_attribute 20, 1
   3              		.eabi_attribute 21, 1
   4              		.eabi_attribute 23, 3
   5              		.eabi_attribute 24, 1
   6              		.eabi_attribute 25, 1
   7              		.eabi_attribute 26, 1
   8              		.eabi_attribute 30, 2
   9              		.eabi_attribute 34, 1
  10              		.eabi_attribute 18, 4
  11              		.file	"oslib_test_sequence_007.c"
  12              		.file 1 "/usr/share/gcc-arm-none-eabi-10-2020-q4-major/lib/gcc/arm-none-eabi/10.2.1/include/stddef
  13              		.file 2 "/usr/share/gcc-arm-none-eabi-10-2020-q4-major/arm-none-eabi/include/machine/_default_type
  14              		.file 3 "/usr/share/gcc-arm-none-eabi-10-2020-q4-major/arm-none-eabi/include/sys/_stdint.h"
  15              		.file 4 "./ChibiOS_20.3.0/os/common/ports/ARMCMx/compilers/GCC/chtypes.h"
  16              		.file 5 "./ChibiOS_20.3.0/os/rt/include/chsystypes.h"
  17              		.file 6 "./ChibiOS_20.3.0/os/rt/include/chschd.h"
  18              		.file 7 "./ChibiOS_20.3.0/os/rt/include/chtime.h"
  19              		.file 8 "./ChibiOS_20.3.0/os/common/ports/ARMCMx/chcore.h"
  20              		.file 9 "./ChibiOS_20.3.0/os/common/ports/ARMCMx/chcore_v7m.h"
  21              		.file 10 "./ChibiOS_20.3.0/os/rt/include/chsem.h"
  22              		.file 11 "./ChibiOS_20.3.0/os/rt/include/chmtx.h"
  23              		.file 12 "./ChibiOS_20.3.0/os/oslib/include/chmemcore.h"
  24              		.file 13 "./ChibiOS_20.3.0/os/oslib/include/chmempools.h"
  25              		.file 14 "./ChibiOS_20.3.0/test/lib/ch_test.h"
  26              		.file 15 "./ChibiOS_20.3.0/test/oslib/source/test/oslib_test_sequence_007.h"
  27              		.file 16 "./ChibiOS_20.3.0/test/oslib/source/test/oslib_test_sequence_007.c"
  28              		.section	.gnu.debuglto_.debug_info,"e",%progbits
  29              	.Ldebug_info0:
  30              		.hidden	oslib_test_sequence_007.c.c6b0f4d8
  31              		.weak	oslib_test_sequence_007.c.c6b0f4d8
  32              	oslib_test_sequence_007.c.c6b0f4d8:
  33 0000 48070000 		.4byte	0x748
  34 0004 0400     		.2byte	0x4
  35 0006 00000000 		.4byte	.Ldebug_abbrev0
  36 000a 04       		.byte	0x4
  37 000b 01       		.uleb128 0x1
  38 000c FF000000 		.4byte	.LASF100
  39 0010 0C       		.byte	0xc
  40 0011 37050000 		.4byte	.LASF101
  41 0015 B1030000 		.4byte	.LASF102
  42 0019 00000000 		.4byte	.Ldebug_line0
  43 001d 02       		.uleb128 0x2
  44 001e 04       		.byte	0x4
  45 001f 05       		.byte	0x5
  46 0020 696E7400 		.ascii	"int\000"
  47 0024 03       		.uleb128 0x3
  48 0025 45000000 		.4byte	.LASF4
  49 0029 01       		.byte	0x1
  50 002a D1       		.byte	0xd1
  51 002b 17       		.byte	0x17
  52 002c 30000000 		.4byte	0x30
  53 0030 04       		.uleb128 0x4
  54 0031 04       		.byte	0x4
  55 0032 07       		.byte	0x7
  56 0033 88050000 		.4byte	.LASF0
  57 0037 04       		.uleb128 0x4
ARM GAS  /tmp/ccqzpcMt.s 			page 2


  58 0038 08       		.byte	0x8
  59 0039 05       		.byte	0x5
  60 003a 02020000 		.4byte	.LASF1
  61 003e 04       		.uleb128 0x4
  62 003f 08       		.byte	0x8
  63 0040 04       		.byte	0x4
  64 0041 95020000 		.4byte	.LASF2
  65 0045 04       		.uleb128 0x4
  66 0046 01       		.byte	0x1
  67 0047 06       		.byte	0x6
  68 0048 F0010000 		.4byte	.LASF3
  69 004c 03       		.uleb128 0x3
  70 004d 5B020000 		.4byte	.LASF5
  71 0051 02       		.byte	0x2
  72 0052 2B       		.byte	0x2b
  73 0053 18       		.byte	0x18
  74 0054 58000000 		.4byte	0x58
  75 0058 04       		.uleb128 0x4
  76 0059 01       		.byte	0x1
  77 005a 08       		.byte	0x8
  78 005b A1020000 		.4byte	.LASF6
  79 005f 04       		.uleb128 0x4
  80 0060 02       		.byte	0x2
  81 0061 05       		.byte	0x5
  82 0062 DC000000 		.4byte	.LASF7
  83 0066 04       		.uleb128 0x4
  84 0067 02       		.byte	0x2
  85 0068 07       		.byte	0x7
  86 0069 37030000 		.4byte	.LASF8
  87 006d 03       		.uleb128 0x3
  88 006e 5F040000 		.4byte	.LASF9
  89 0072 02       		.byte	0x2
  90 0073 4D       		.byte	0x4d
  91 0074 18       		.byte	0x18
  92 0075 79000000 		.4byte	0x79
  93 0079 04       		.uleb128 0x4
  94 007a 04       		.byte	0x4
  95 007b 05       		.byte	0x5
  96 007c 45020000 		.4byte	.LASF10
  97 0080 03       		.uleb128 0x3
  98 0081 8A000000 		.4byte	.LASF11
  99 0085 02       		.byte	0x2
 100 0086 4F       		.byte	0x4f
 101 0087 19       		.byte	0x19
 102 0088 8C000000 		.4byte	0x8c
 103 008c 04       		.uleb128 0x4
 104 008d 04       		.byte	0x4
 105 008e 07       		.byte	0x7
 106 008f 2E040000 		.4byte	.LASF12
 107 0093 03       		.uleb128 0x3
 108 0094 03040000 		.4byte	.LASF13
 109 0098 02       		.byte	0x2
 110 0099 69       		.byte	0x69
 111 009a 19       		.byte	0x19
 112 009b 9F000000 		.4byte	0x9f
 113 009f 04       		.uleb128 0x4
 114 00a0 08       		.byte	0x8
ARM GAS  /tmp/ccqzpcMt.s 			page 3


 115 00a1 07       		.byte	0x7
 116 00a2 5D000000 		.4byte	.LASF14
 117 00a6 03       		.uleb128 0x3
 118 00a7 EF000000 		.4byte	.LASF15
 119 00ab 03       		.byte	0x3
 120 00ac 18       		.byte	0x18
 121 00ad 13       		.byte	0x13
 122 00ae 4C000000 		.4byte	0x4c
 123 00b2 03       		.uleb128 0x3
 124 00b3 88030000 		.4byte	.LASF16
 125 00b7 03       		.byte	0x3
 126 00b8 2C       		.byte	0x2c
 127 00b9 13       		.byte	0x13
 128 00ba 6D000000 		.4byte	0x6d
 129 00be 03       		.uleb128 0x3
 130 00bf C4010000 		.4byte	.LASF17
 131 00c3 03       		.byte	0x3
 132 00c4 30       		.byte	0x30
 133 00c5 14       		.byte	0x14
 134 00c6 80000000 		.4byte	0x80
 135 00ca 03       		.uleb128 0x3
 136 00cb 23000000 		.4byte	.LASF18
 137 00cf 03       		.byte	0x3
 138 00d0 3C       		.byte	0x3c
 139 00d1 14       		.byte	0x14
 140 00d2 93000000 		.4byte	0x93
 141 00d6 03       		.uleb128 0x3
 142 00d7 A1000000 		.4byte	.LASF19
 143 00db 04       		.byte	0x4
 144 00dc 2A       		.byte	0x2a
 145 00dd 1D       		.byte	0x1d
 146 00de A6000000 		.4byte	0xa6
 147 00e2 03       		.uleb128 0x3
 148 00e3 AA040000 		.4byte	.LASF20
 149 00e7 04       		.byte	0x4
 150 00e8 2B       		.byte	0x2b
 151 00e9 1D       		.byte	0x1d
 152 00ea A6000000 		.4byte	0xa6
 153 00ee 03       		.uleb128 0x3
 154 00ef B3050000 		.4byte	.LASF21
 155 00f3 04       		.byte	0x4
 156 00f4 2C       		.byte	0x2c
 157 00f5 1D       		.byte	0x1d
 158 00f6 A6000000 		.4byte	0xa6
 159 00fa 03       		.uleb128 0x3
 160 00fb 17020000 		.4byte	.LASF22
 161 00ff 04       		.byte	0x4
 162 0100 2E       		.byte	0x2e
 163 0101 1D       		.byte	0x1d
 164 0102 BE000000 		.4byte	0xbe
 165 0106 03       		.uleb128 0x3
 166 0107 9C050000 		.4byte	.LASF23
 167 010b 04       		.byte	0x4
 168 010c 2F       		.byte	0x2f
 169 010d 1D       		.byte	0x1d
 170 010e B2000000 		.4byte	0xb2
 171 0112 03       		.uleb128 0x3
ARM GAS  /tmp/ccqzpcMt.s 			page 4


 172 0113 95000000 		.4byte	.LASF24
 173 0117 04       		.byte	0x4
 174 0118 31       		.byte	0x31
 175 0119 1D       		.byte	0x1d
 176 011a BE000000 		.4byte	0xbe
 177 011e 03       		.uleb128 0x3
 178 011f 9C030000 		.4byte	.LASF25
 179 0123 04       		.byte	0x4
 180 0124 33       		.byte	0x33
 181 0125 1D       		.byte	0x1d
 182 0126 B2000000 		.4byte	0xb2
 183 012a 03       		.uleb128 0x3
 184 012b 00000000 		.4byte	.LASF26
 185 012f 05       		.byte	0x5
 186 0130 34       		.byte	0x34
 187 0131 1A       		.byte	0x1a
 188 0132 36010000 		.4byte	0x136
 189 0136 05       		.uleb128 0x5
 190 0137 D9010000 		.4byte	.LASF44
 191 013b 44       		.byte	0x44
 192 013c 06       		.byte	0x6
 193 013d 8E       		.byte	0x8e
 194 013e 08       		.byte	0x8
 195 013f 26020000 		.4byte	0x226
 196 0143 06       		.uleb128 0x6
 197 0144 76020000 		.4byte	.LASF27
 198 0148 06       		.byte	0x6
 199 0149 8F       		.byte	0x8f
 200 014a 19       		.byte	0x19
 201 014b 5F020000 		.4byte	0x25f
 202 014f 00       		.byte	0
 203 0150 06       		.uleb128 0x6
 204 0151 A2050000 		.4byte	.LASF28
 205 0155 06       		.byte	0x6
 206 0156 90       		.byte	0x90
 207 0157 19       		.byte	0x19
 208 0158 FA000000 		.4byte	0xfa
 209 015c 08       		.byte	0x8
 210 015d 07       		.uleb128 0x7
 211 015e 63747800 		.ascii	"ctx\000"
 212 0162 06       		.byte	0x6
 213 0163 91       		.byte	0x91
 214 0164 19       		.byte	0x19
 215 0165 4F030000 		.4byte	0x34f
 216 0169 0C       		.byte	0xc
 217 016a 06       		.uleb128 0x6
 218 016b 6F040000 		.4byte	.LASF29
 219 016f 06       		.byte	0x6
 220 0170 93       		.byte	0x93
 221 0171 1A       		.byte	0x1a
 222 0172 32020000 		.4byte	0x232
 223 0176 10       		.byte	0x10
 224 0177 06       		.uleb128 0x6
 225 0178 E3010000 		.4byte	.LASF30
 226 017c 06       		.byte	0x6
 227 017d 94       		.byte	0x94
 228 017e 1A       		.byte	0x1a
ARM GAS  /tmp/ccqzpcMt.s 			page 5


 229 017f 32020000 		.4byte	0x232
 230 0183 14       		.byte	0x14
 231 0184 06       		.uleb128 0x6
 232 0185 4C000000 		.4byte	.LASF31
 233 0189 06       		.byte	0x6
 234 018a 9B       		.byte	0x9b
 235 018b 1A       		.byte	0x1a
 236 018c 4B040000 		.4byte	0x44b
 237 0190 18       		.byte	0x18
 238 0191 06       		.uleb128 0x6
 239 0192 E9010000 		.4byte	.LASF32
 240 0196 06       		.byte	0x6
 241 0197 A4       		.byte	0xa4
 242 0198 1A       		.byte	0x1a
 243 0199 5D040000 		.4byte	0x45d
 244 019d 1C       		.byte	0x1c
 245 019e 06       		.uleb128 0x6
 246 019f 1D000000 		.4byte	.LASF33
 247 01a3 06       		.byte	0x6
 248 01a4 A9       		.byte	0xa9
 249 01a5 19       		.byte	0x19
 250 01a6 E2000000 		.4byte	0xe2
 251 01aa 20       		.byte	0x20
 252 01ab 06       		.uleb128 0x6
 253 01ac D2020000 		.4byte	.LASF34
 254 01b0 06       		.byte	0x6
 255 01b1 AD       		.byte	0xad
 256 01b2 19       		.byte	0x19
 257 01b3 D6000000 		.4byte	0xd6
 258 01b7 21       		.byte	0x21
 259 01b8 06       		.uleb128 0x6
 260 01b9 13040000 		.4byte	.LASF35
 261 01bd 06       		.byte	0x6
 262 01be B2       		.byte	0xb2
 263 01bf 19       		.byte	0x19
 264 01c0 EE000000 		.4byte	0xee
 265 01c4 22       		.byte	0x22
 266 01c5 08       		.uleb128 0x8
 267 01c6 7500     		.ascii	"u\000"
 268 01c8 06       		.byte	0x6
 269 01c9 0301     		.2byte	0x103
 270 01cb 19       		.byte	0x19
 271 01cc 71030000 		.4byte	0x371
 272 01d0 24       		.byte	0x24
 273 01d1 09       		.uleb128 0x9
 274 01d2 2F050000 		.4byte	.LASF36
 275 01d6 06       		.byte	0x6
 276 01d7 0801     		.2byte	0x108
 277 01d9 19       		.byte	0x19
 278 01da 38020000 		.4byte	0x238
 279 01de 28       		.byte	0x28
 280 01df 09       		.uleb128 0x9
 281 01e0 E6000000 		.4byte	.LASF37
 282 01e4 06       		.byte	0x6
 283 01e5 0E01     		.2byte	0x10e
 284 01e7 19       		.byte	0x19
 285 01e8 5F020000 		.4byte	0x25f
ARM GAS  /tmp/ccqzpcMt.s 			page 6


 286 01ec 2C       		.byte	0x2c
 287 01ed 09       		.uleb128 0x9
 288 01ee 14000000 		.4byte	.LASF38
 289 01f2 06       		.byte	0x6
 290 01f3 1401     		.2byte	0x114
 291 01f5 19       		.byte	0x19
 292 01f6 12010000 		.4byte	0x112
 293 01fa 34       		.byte	0x34
 294 01fb 09       		.uleb128 0x9
 295 01fc F7000000 		.4byte	.LASF39
 296 0200 06       		.byte	0x6
 297 0201 1B01     		.2byte	0x11b
 298 0203 1A       		.byte	0x1a
 299 0204 45040000 		.4byte	0x445
 300 0208 38       		.byte	0x38
 301 0209 09       		.uleb128 0x9
 302 020a A2030000 		.4byte	.LASF40
 303 020e 06       		.byte	0x6
 304 020f 1F01     		.2byte	0x11f
 305 0211 19       		.byte	0x19
 306 0212 FA000000 		.4byte	0xfa
 307 0216 3C       		.byte	0x3c
 308 0217 09       		.uleb128 0x9
 309 0218 C7040000 		.4byte	.LASF41
 310 021c 06       		.byte	0x6
 311 021d 2601     		.2byte	0x126
 312 021f 1A       		.byte	0x1a
 313 0220 93020000 		.4byte	0x293
 314 0224 40       		.byte	0x40
 315 0225 00       		.byte	0
 316 0226 03       		.uleb128 0x3
 317 0227 90040000 		.4byte	.LASF42
 318 022b 05       		.byte	0x5
 319 022c 39       		.byte	0x39
 320 022d 14       		.byte	0x14
 321 022e 32020000 		.4byte	0x232
 322 0232 0A       		.uleb128 0xa
 323 0233 04       		.byte	0x4
 324 0234 2A010000 		.4byte	0x12a
 325 0238 03       		.uleb128 0x3
 326 0239 BB050000 		.4byte	.LASF43
 327 023d 05       		.byte	0x5
 328 023e 3E       		.byte	0x3e
 329 023f 20       		.byte	0x20
 330 0240 44020000 		.4byte	0x244
 331 0244 05       		.uleb128 0x5
 332 0245 C7000000 		.4byte	.LASF45
 333 0249 04       		.byte	0x4
 334 024a 06       		.byte	0x6
 335 024b 7C       		.byte	0x7c
 336 024c 08       		.byte	0x8
 337 024d 5F020000 		.4byte	0x25f
 338 0251 06       		.uleb128 0x6
 339 0252 A7050000 		.4byte	.LASF46
 340 0256 06       		.byte	0x6
 341 0257 7D       		.byte	0x7d
 342 0258 1A       		.byte	0x1a
ARM GAS  /tmp/ccqzpcMt.s 			page 7


 343 0259 32020000 		.4byte	0x232
 344 025d 00       		.byte	0
 345 025e 00       		.byte	0
 346 025f 03       		.uleb128 0x3
 347 0260 27030000 		.4byte	.LASF47
 348 0264 05       		.byte	0x5
 349 0265 45       		.byte	0x45
 350 0266 21       		.byte	0x21
 351 0267 6B020000 		.4byte	0x26b
 352 026b 05       		.uleb128 0x5
 353 026c CD040000 		.4byte	.LASF48
 354 0270 08       		.byte	0x8
 355 0271 06       		.byte	0x6
 356 0272 83       		.byte	0x83
 357 0273 08       		.byte	0x8
 358 0274 93020000 		.4byte	0x293
 359 0278 06       		.uleb128 0x6
 360 0279 A7050000 		.4byte	.LASF46
 361 027d 06       		.byte	0x6
 362 027e 84       		.byte	0x84
 363 027f 1A       		.byte	0x1a
 364 0280 32020000 		.4byte	0x232
 365 0284 00       		.byte	0
 366 0285 06       		.uleb128 0x6
 367 0286 BC020000 		.4byte	.LASF49
 368 028a 06       		.byte	0x6
 369 028b 85       		.byte	0x85
 370 028c 1A       		.byte	0x1a
 371 028d 32020000 		.4byte	0x232
 372 0291 04       		.byte	0x4
 373 0292 00       		.byte	0
 374 0293 0B       		.uleb128 0xb
 375 0294 04       		.byte	0x4
 376 0295 03       		.uleb128 0x3
 377 0296 E7030000 		.4byte	.LASF50
 378 029a 07       		.byte	0x7
 379 029b 79       		.byte	0x79
 380 029c 12       		.byte	0x12
 381 029d BE000000 		.4byte	0xbe
 382 02a1 03       		.uleb128 0x3
 383 02a2 51000000 		.4byte	.LASF51
 384 02a6 07       		.byte	0x7
 385 02a7 96       		.byte	0x96
 386 02a8 12       		.byte	0x12
 387 02a9 CA000000 		.4byte	0xca
 388 02ad 0C       		.uleb128 0xc
 389 02ae BE000000 		.4byte	0xbe
 390 02b2 BD020000 		.4byte	0x2bd
 391 02b6 0D       		.uleb128 0xd
 392 02b7 30000000 		.4byte	0x30
 393 02bb 03       		.byte	0x3
 394 02bc 00       		.byte	0
 395 02bd 03       		.uleb128 0x3
 396 02be B3040000 		.4byte	.LASF52
 397 02c2 08       		.byte	0x8
 398 02c3 68       		.byte	0x68
 399 02c4 12       		.byte	0x12
ARM GAS  /tmp/ccqzpcMt.s 			page 8


 400 02c5 CA000000 		.4byte	0xca
 401 02c9 0E       		.uleb128 0xe
 402 02ca 53040000 		.4byte	.LASF53
 403 02ce 24       		.byte	0x24
 404 02cf 09       		.byte	0x9
 405 02d0 8501     		.2byte	0x185
 406 02d2 08       		.byte	0x8
 407 02d3 4F030000 		.4byte	0x34f
 408 02d7 08       		.uleb128 0x8
 409 02d8 723400   		.ascii	"r4\000"
 410 02db 09       		.byte	0x9
 411 02dc 9E01     		.2byte	0x19e
 412 02de 11       		.byte	0x11
 413 02df BE000000 		.4byte	0xbe
 414 02e3 00       		.byte	0
 415 02e4 08       		.uleb128 0x8
 416 02e5 723500   		.ascii	"r5\000"
 417 02e8 09       		.byte	0x9
 418 02e9 9F01     		.2byte	0x19f
 419 02eb 11       		.byte	0x11
 420 02ec BE000000 		.4byte	0xbe
 421 02f0 04       		.byte	0x4
 422 02f1 08       		.uleb128 0x8
 423 02f2 723600   		.ascii	"r6\000"
 424 02f5 09       		.byte	0x9
 425 02f6 A001     		.2byte	0x1a0
 426 02f8 11       		.byte	0x11
 427 02f9 BE000000 		.4byte	0xbe
 428 02fd 08       		.byte	0x8
 429 02fe 08       		.uleb128 0x8
 430 02ff 723700   		.ascii	"r7\000"
 431 0302 09       		.byte	0x9
 432 0303 A101     		.2byte	0x1a1
 433 0305 11       		.byte	0x11
 434 0306 BE000000 		.4byte	0xbe
 435 030a 0C       		.byte	0xc
 436 030b 08       		.uleb128 0x8
 437 030c 723800   		.ascii	"r8\000"
 438 030f 09       		.byte	0x9
 439 0310 A201     		.2byte	0x1a2
 440 0312 11       		.byte	0x11
 441 0313 BE000000 		.4byte	0xbe
 442 0317 10       		.byte	0x10
 443 0318 08       		.uleb128 0x8
 444 0319 723900   		.ascii	"r9\000"
 445 031c 09       		.byte	0x9
 446 031d A301     		.2byte	0x1a3
 447 031f 11       		.byte	0x11
 448 0320 BE000000 		.4byte	0xbe
 449 0324 14       		.byte	0x14
 450 0325 08       		.uleb128 0x8
 451 0326 72313000 		.ascii	"r10\000"
 452 032a 09       		.byte	0x9
 453 032b A401     		.2byte	0x1a4
 454 032d 11       		.byte	0x11
 455 032e BE000000 		.4byte	0xbe
 456 0332 18       		.byte	0x18
ARM GAS  /tmp/ccqzpcMt.s 			page 9


 457 0333 08       		.uleb128 0x8
 458 0334 72313100 		.ascii	"r11\000"
 459 0338 09       		.byte	0x9
 460 0339 A501     		.2byte	0x1a5
 461 033b 11       		.byte	0x11
 462 033c BE000000 		.4byte	0xbe
 463 0340 1C       		.byte	0x1c
 464 0341 08       		.uleb128 0x8
 465 0342 6C7200   		.ascii	"lr\000"
 466 0345 09       		.byte	0x9
 467 0346 A601     		.2byte	0x1a6
 468 0348 11       		.byte	0x11
 469 0349 BE000000 		.4byte	0xbe
 470 034d 20       		.byte	0x20
 471 034e 00       		.byte	0
 472 034f 0E       		.uleb128 0xe
 473 0350 4E020000 		.4byte	.LASF54
 474 0354 04       		.byte	0x4
 475 0355 09       		.byte	0x9
 476 0356 A901     		.2byte	0x1a9
 477 0358 08       		.byte	0x8
 478 0359 6B030000 		.4byte	0x36b
 479 035d 08       		.uleb128 0x8
 480 035e 737000   		.ascii	"sp\000"
 481 0361 09       		.byte	0x9
 482 0362 AA01     		.2byte	0x1aa
 483 0364 1A       		.byte	0x1a
 484 0365 6B030000 		.4byte	0x36b
 485 0369 00       		.byte	0
 486 036a 00       		.byte	0
 487 036b 0A       		.uleb128 0xa
 488 036c 04       		.byte	0x4
 489 036d C9020000 		.4byte	0x2c9
 490 0371 0F       		.uleb128 0xf
 491 0372 04       		.byte	0x4
 492 0373 06       		.byte	0x6
 493 0374 C6       		.byte	0xc6
 494 0375 03       		.byte	0x3
 495 0376 DC030000 		.4byte	0x3dc
 496 037a 10       		.uleb128 0x10
 497 037b 95050000 		.4byte	.LASF55
 498 037f 06       		.byte	0x6
 499 0380 CD       		.byte	0xcd
 500 0381 19       		.byte	0x19
 501 0382 06010000 		.4byte	0x106
 502 0386 10       		.uleb128 0x10
 503 0387 BE040000 		.4byte	.LASF56
 504 038b 06       		.byte	0x6
 505 038c D4       		.byte	0xd4
 506 038d 19       		.byte	0x19
 507 038e 06010000 		.4byte	0x106
 508 0392 10       		.uleb128 0x10
 509 0393 A3040000 		.4byte	.LASF57
 510 0397 06       		.byte	0x6
 511 0398 DB       		.byte	0xdb
 512 0399 1A       		.byte	0x1a
 513 039a 93020000 		.4byte	0x293
ARM GAS  /tmp/ccqzpcMt.s 			page 10


 514 039e 10       		.uleb128 0x10
 515 039f 40040000 		.4byte	.LASF58
 516 03a3 06       		.byte	0x6
 517 03a4 E2       		.byte	0xe2
 518 03a5 1A       		.byte	0x1a
 519 03a6 DC030000 		.4byte	0x3dc
 520 03aa 10       		.uleb128 0x10
 521 03ab 65020000 		.4byte	.LASF59
 522 03af 06       		.byte	0x6
 523 03b0 E7       		.byte	0xe7
 524 03b1 19       		.byte	0x19
 525 03b2 06010000 		.4byte	0x106
 526 03b6 10       		.uleb128 0x10
 527 03b7 10020000 		.4byte	.LASF60
 528 03bb 06       		.byte	0x6
 529 03bc F0       		.byte	0xf0
 530 03bd 1A       		.byte	0x1a
 531 03be 0A040000 		.4byte	0x40a
 532 03c2 10       		.uleb128 0x10
 533 03c3 AC050000 		.4byte	.LASF61
 534 03c7 06       		.byte	0x6
 535 03c8 F9       		.byte	0xf9
 536 03c9 1A       		.byte	0x1a
 537 03ca 45040000 		.4byte	0x445
 538 03ce 11       		.uleb128 0x11
 539 03cf B5020000 		.4byte	.LASF62
 540 03d3 06       		.byte	0x6
 541 03d4 0101     		.2byte	0x101
 542 03d6 19       		.byte	0x19
 543 03d7 12010000 		.4byte	0x112
 544 03db 00       		.byte	0
 545 03dc 0A       		.uleb128 0xa
 546 03dd 04       		.byte	0x4
 547 03de 26020000 		.4byte	0x226
 548 03e2 05       		.uleb128 0x5
 549 03e3 46040000 		.4byte	.LASF63
 550 03e7 0C       		.byte	0xc
 551 03e8 0A       		.byte	0xa
 552 03e9 34       		.byte	0x34
 553 03ea 10       		.byte	0x10
 554 03eb 0A040000 		.4byte	0x40a
 555 03ef 06       		.uleb128 0x6
 556 03f0 76020000 		.4byte	.LASF27
 557 03f4 0A       		.byte	0xa
 558 03f5 35       		.byte	0x35
 559 03f6 19       		.byte	0x19
 560 03f7 5F020000 		.4byte	0x25f
 561 03fb 00       		.byte	0
 562 03fc 07       		.uleb128 0x7
 563 03fd 636E7400 		.ascii	"cnt\000"
 564 0401 0A       		.byte	0xa
 565 0402 37       		.byte	0x37
 566 0403 19       		.byte	0x19
 567 0404 1E010000 		.4byte	0x11e
 568 0408 08       		.byte	0x8
 569 0409 00       		.byte	0
 570 040a 0A       		.uleb128 0xa
ARM GAS  /tmp/ccqzpcMt.s 			page 11


 571 040b 04       		.byte	0x4
 572 040c E2030000 		.4byte	0x3e2
 573 0410 05       		.uleb128 0x5
 574 0411 D8020000 		.4byte	.LASF64
 575 0415 10       		.byte	0x10
 576 0416 0B       		.byte	0xb
 577 0417 39       		.byte	0x39
 578 0418 08       		.byte	0x8
 579 0419 45040000 		.4byte	0x445
 580 041d 06       		.uleb128 0x6
 581 041e 76020000 		.4byte	.LASF27
 582 0422 0B       		.byte	0xb
 583 0423 3A       		.byte	0x3a
 584 0424 19       		.byte	0x19
 585 0425 5F020000 		.4byte	0x25f
 586 0429 00       		.byte	0
 587 042a 06       		.uleb128 0x6
 588 042b AF020000 		.4byte	.LASF65
 589 042f 0B       		.byte	0xb
 590 0430 3C       		.byte	0x3c
 591 0431 1A       		.byte	0x1a
 592 0432 32020000 		.4byte	0x232
 593 0436 08       		.byte	0x8
 594 0437 06       		.uleb128 0x6
 595 0438 A7050000 		.4byte	.LASF46
 596 043c 0B       		.byte	0xb
 597 043d 3E       		.byte	0x3e
 598 043e 1A       		.byte	0x1a
 599 043f 7B040000 		.4byte	0x47b
 600 0443 0C       		.byte	0xc
 601 0444 00       		.byte	0
 602 0445 0A       		.uleb128 0xa
 603 0446 04       		.byte	0x4
 604 0447 10040000 		.4byte	0x410
 605 044b 0A       		.uleb128 0xa
 606 044c 04       		.byte	0x4
 607 044d 58040000 		.4byte	0x458
 608 0451 04       		.uleb128 0x4
 609 0452 01       		.byte	0x1
 610 0453 08       		.byte	0x8
 611 0454 4A030000 		.4byte	.LASF66
 612 0458 12       		.uleb128 0x12
 613 0459 51040000 		.4byte	0x451
 614 045d 0A       		.uleb128 0xa
 615 045e 04       		.byte	0x4
 616 045f BD020000 		.4byte	0x2bd
 617 0463 03       		.uleb128 0x3
 618 0464 CD010000 		.4byte	.LASF67
 619 0468 0A       		.byte	0xa
 620 0469 38       		.byte	0x38
 621 046a 03       		.byte	0x3
 622 046b E2030000 		.4byte	0x3e2
 623 046f 03       		.uleb128 0x3
 624 0470 FA020000 		.4byte	.LASF68
 625 0474 0B       		.byte	0xb
 626 0475 34       		.byte	0x34
 627 0476 19       		.byte	0x19
ARM GAS  /tmp/ccqzpcMt.s 			page 12


 628 0477 10040000 		.4byte	0x410
 629 047b 0A       		.uleb128 0xa
 630 047c 04       		.byte	0x4
 631 047d 6F040000 		.4byte	0x46f
 632 0481 04       		.uleb128 0x4
 633 0482 01       		.byte	0x1
 634 0483 02       		.byte	0x2
 635 0484 AB030000 		.4byte	.LASF69
 636 0488 03       		.uleb128 0x3
 637 0489 1A030000 		.4byte	.LASF70
 638 048d 0C       		.byte	0xc
 639 048e 47       		.byte	0x47
 640 048f 11       		.byte	0x11
 641 0490 94040000 		.4byte	0x494
 642 0494 0A       		.uleb128 0xa
 643 0495 04       		.byte	0x4
 644 0496 9A040000 		.4byte	0x49a
 645 049a 13       		.uleb128 0x13
 646 049b 93020000 		.4byte	0x293
 647 049f AE040000 		.4byte	0x4ae
 648 04a3 14       		.uleb128 0x14
 649 04a4 24000000 		.4byte	0x24
 650 04a8 14       		.uleb128 0x14
 651 04a9 30000000 		.4byte	0x30
 652 04ad 00       		.byte	0
 653 04ae 05       		.uleb128 0x5
 654 04af 22040000 		.4byte	.LASF71
 655 04b3 04       		.byte	0x4
 656 04b4 0D       		.byte	0xd
 657 04b5 38       		.byte	0x38
 658 04b6 08       		.byte	0x8
 659 04b7 C9040000 		.4byte	0x4c9
 660 04bb 06       		.uleb128 0x6
 661 04bc A7050000 		.4byte	.LASF46
 662 04c0 0D       		.byte	0xd
 663 04c1 39       		.byte	0x39
 664 04c2 1A       		.byte	0x1a
 665 04c3 C9040000 		.4byte	0x4c9
 666 04c7 00       		.byte	0
 667 04c8 00       		.byte	0
 668 04c9 0A       		.uleb128 0xa
 669 04ca 04       		.byte	0x4
 670 04cb AE040000 		.4byte	0x4ae
 671 04cf 15       		.uleb128 0x15
 672 04d0 10       		.byte	0x10
 673 04d1 0D       		.byte	0xd
 674 04d2 40       		.byte	0x40
 675 04d3 09       		.byte	0x9
 676 04d4 0D050000 		.4byte	0x50d
 677 04d8 06       		.uleb128 0x6
 678 04d9 A7050000 		.4byte	.LASF46
 679 04dd 0D       		.byte	0xd
 680 04de 41       		.byte	0x41
 681 04df 1A       		.byte	0x1a
 682 04e0 C9040000 		.4byte	0x4c9
 683 04e4 00       		.byte	0
 684 04e5 06       		.uleb128 0x6
ARM GAS  /tmp/ccqzpcMt.s 			page 13


 685 04e6 90030000 		.4byte	.LASF72
 686 04ea 0D       		.byte	0xd
 687 04eb 42       		.byte	0x42
 688 04ec 19       		.byte	0x19
 689 04ed 24000000 		.4byte	0x24
 690 04f1 04       		.byte	0x4
 691 04f2 06       		.uleb128 0x6
 692 04f3 69040000 		.4byte	.LASF73
 693 04f7 0D       		.byte	0xd
 694 04f8 44       		.byte	0x44
 695 04f9 19       		.byte	0x19
 696 04fa 30000000 		.4byte	0x30
 697 04fe 08       		.byte	0x8
 698 04ff 06       		.uleb128 0x6
 699 0500 DE030000 		.4byte	.LASF74
 700 0504 0D       		.byte	0xd
 701 0505 45       		.byte	0x45
 702 0506 19       		.byte	0x19
 703 0507 88040000 		.4byte	0x488
 704 050b 0C       		.byte	0xc
 705 050c 00       		.byte	0
 706 050d 03       		.uleb128 0x3
 707 050e F5030000 		.4byte	.LASF75
 708 0512 0D       		.byte	0xd
 709 0513 47       		.byte	0x47
 710 0514 03       		.byte	0x3
 711 0515 CF040000 		.4byte	0x4cf
 712 0519 15       		.uleb128 0x15
 713 051a 1C       		.byte	0x1c
 714 051b 0D       		.byte	0xd
 715 051c 4D       		.byte	0x4d
 716 051d 09       		.byte	0x9
 717 051e 3D050000 		.4byte	0x53d
 718 0522 07       		.uleb128 0x7
 719 0523 73656D00 		.ascii	"sem\000"
 720 0527 0D       		.byte	0xd
 721 0528 4E       		.byte	0x4e
 722 0529 19       		.byte	0x19
 723 052a 63040000 		.4byte	0x463
 724 052e 00       		.byte	0
 725 052f 06       		.uleb128 0x6
 726 0530 0F000000 		.4byte	.LASF76
 727 0534 0D       		.byte	0xd
 728 0535 50       		.byte	0x50
 729 0536 19       		.byte	0x19
 730 0537 0D050000 		.4byte	0x50d
 731 053b 0C       		.byte	0xc
 732 053c 00       		.byte	0
 733 053d 03       		.uleb128 0x3
 734 053e 74000000 		.4byte	.LASF77
 735 0542 0D       		.byte	0xd
 736 0543 51       		.byte	0x51
 737 0544 03       		.byte	0x3
 738 0545 19050000 		.4byte	0x519
 739 0549 15       		.uleb128 0x15
 740 054a 10       		.byte	0x10
 741 054b 0E       		.byte	0xe
ARM GAS  /tmp/ccqzpcMt.s 			page 14


 742 054c 4C       		.byte	0x4c
 743 054d 09       		.byte	0x9
 744 054e 87050000 		.4byte	0x587
 745 0552 06       		.uleb128 0x6
 746 0553 4C000000 		.4byte	.LASF31
 747 0557 0E       		.byte	0xe
 748 0558 4D       		.byte	0x4d
 749 0559 0F       		.byte	0xf
 750 055a 4B040000 		.4byte	0x44b
 751 055e 00       		.byte	0
 752 055f 06       		.uleb128 0x6
 753 0560 FC010000 		.4byte	.LASF78
 754 0564 0E       		.byte	0xe
 755 0565 4E       		.byte	0x4e
 756 0566 0A       		.byte	0xa
 757 0567 88050000 		.4byte	0x588
 758 056b 04       		.byte	0x4
 759 056c 06       		.uleb128 0x6
 760 056d 6D020000 		.4byte	.LASF79
 761 0571 0E       		.byte	0xe
 762 0572 4F       		.byte	0x4f
 763 0573 0A       		.byte	0xa
 764 0574 88050000 		.4byte	0x588
 765 0578 08       		.byte	0x8
 766 0579 06       		.uleb128 0x6
 767 057a 0C050000 		.4byte	.LASF80
 768 057e 0E       		.byte	0xe
 769 057f 50       		.byte	0x50
 770 0580 0A       		.byte	0xa
 771 0581 88050000 		.4byte	0x588
 772 0585 0C       		.byte	0xc
 773 0586 00       		.byte	0
 774 0587 16       		.uleb128 0x16
 775 0588 0A       		.uleb128 0xa
 776 0589 04       		.byte	0x4
 777 058a 87050000 		.4byte	0x587
 778 058e 03       		.uleb128 0x3
 779 058f 01050000 		.4byte	.LASF81
 780 0593 0E       		.byte	0xe
 781 0594 51       		.byte	0x51
 782 0595 03       		.byte	0x3
 783 0596 49050000 		.4byte	0x549
 784 059a 12       		.uleb128 0x12
 785 059b 8E050000 		.4byte	0x58e
 786 059f 15       		.uleb128 0x15
 787 05a0 08       		.byte	0x8
 788 05a1 0E       		.byte	0xe
 789 05a2 56       		.byte	0x56
 790 05a3 09       		.byte	0x9
 791 05a4 C3050000 		.4byte	0x5c3
 792 05a8 06       		.uleb128 0x6
 793 05a9 4C000000 		.4byte	.LASF31
 794 05ad 0E       		.byte	0xe
 795 05ae 57       		.byte	0x57
 796 05af 16       		.byte	0x16
 797 05b0 4B040000 		.4byte	0x44b
 798 05b4 00       		.byte	0
ARM GAS  /tmp/ccqzpcMt.s 			page 15


 799 05b5 06       		.uleb128 0x6
 800 05b6 09000000 		.4byte	.LASF82
 801 05ba 0E       		.byte	0xe
 802 05bb 58       		.byte	0x58
 803 05bc 1E       		.byte	0x1e
 804 05bd C3050000 		.4byte	0x5c3
 805 05c1 04       		.byte	0x4
 806 05c2 00       		.byte	0
 807 05c3 0A       		.uleb128 0xa
 808 05c4 04       		.byte	0x4
 809 05c5 CF050000 		.4byte	0x5cf
 810 05c9 0A       		.uleb128 0xa
 811 05ca 04       		.byte	0x4
 812 05cb 9A050000 		.4byte	0x59a
 813 05cf 12       		.uleb128 0x12
 814 05d0 C9050000 		.4byte	0x5c9
 815 05d4 03       		.uleb128 0x3
 816 05d5 79050000 		.4byte	.LASF83
 817 05d9 0E       		.byte	0xe
 818 05da 59       		.byte	0x59
 819 05db 03       		.byte	0x3
 820 05dc 9F050000 		.4byte	0x59f
 821 05e0 12       		.uleb128 0x12
 822 05e1 D4050000 		.4byte	0x5d4
 823 05e5 17       		.uleb128 0x17
 824 05e6 18040000 		.4byte	.LASF84
 825 05ea 0E       		.byte	0xe
 826 05eb C9       		.byte	0xc9
 827 05ec 11       		.byte	0x11
 828 05ed 30000000 		.4byte	0x30
 829 05f1 17       		.uleb128 0x17
 830 05f2 02030000 		.4byte	.LASF85
 831 05f6 0F       		.byte	0xf
 832 05f7 19       		.byte	0x19
 833 05f8 1D       		.byte	0x1d
 834 05f9 E0050000 		.4byte	0x5e0
 835 05fd 18       		.uleb128 0x18
 836 05fe F9040000 		.4byte	.LASF86
 837 0602 10       		.byte	0x10
 838 0603 35       		.byte	0x35
 839 0604 11       		.byte	0x11
 840 0605 AD020000 		.4byte	0x2ad
 841 0609 19       		.uleb128 0x19
 842 060a 6D703100 		.ascii	"mp1\000"
 843 060e 10       		.byte	0x10
 844 060f 36       		.byte	0x36
 845 0610 08       		.byte	0x8
 846 0611 0D050000 		.4byte	0x50d
 847 0615 18       		.uleb128 0x18
 848 0616 D7000000 		.4byte	.LASF87
 849 061a 10       		.byte	0x10
 850 061b 39       		.byte	0x39
 851 061c 08       		.byte	0x8
 852 061d 3D050000 		.4byte	0x53d
 853 0621 18       		.uleb128 0x18
 854 0622 4F030000 		.4byte	.LASF88
 855 0626 10       		.byte	0x10
ARM GAS  /tmp/ccqzpcMt.s 			page 16


 856 0627 99       		.byte	0x99
 857 0628 19       		.byte	0x19
 858 0629 9A050000 		.4byte	0x59a
 859 062d 18       		.uleb128 0x18
 860 062e 62030000 		.4byte	.LASF89
 861 0632 10       		.byte	0x10
 862 0633 F1       		.byte	0xf1
 863 0634 19       		.byte	0x19
 864 0635 9A050000 		.4byte	0x59a
 865 0639 1A       		.uleb128 0x1a
 866 063a 75030000 		.4byte	.LASF90
 867 063e 10       		.byte	0x10
 868 063f 1B01     		.2byte	0x11b
 869 0641 19       		.byte	0x19
 870 0642 9A050000 		.4byte	0x59a
 871 0646 0C       		.uleb128 0xc
 872 0647 CF050000 		.4byte	0x5cf
 873 064b 56060000 		.4byte	0x656
 874 064f 0D       		.uleb128 0xd
 875 0650 30000000 		.4byte	0x30
 876 0654 03       		.byte	0x3
 877 0655 00       		.byte	0
 878 0656 12       		.uleb128 0x12
 879 0657 46060000 		.4byte	0x646
 880 065b 1B       		.uleb128 0x1b
 881 065c A9000000 		.4byte	.LASF103
 882 0660 10       		.byte	0x10
 883 0661 2A01     		.2byte	0x12a
 884 0663 1A       		.byte	0x1a
 885 0664 56060000 		.4byte	0x656
 886 0668 1C       		.uleb128 0x1c
 887 0669 F1050000 		.4byte	0x5f1
 888 066d 10       		.byte	0x10
 889 066e 3801     		.2byte	0x138
 890 0670 16       		.byte	0x16
 891 0671 1D       		.uleb128 0x1d
 892 0672 14050000 		.4byte	.LASF91
 893 0676 10       		.byte	0x10
 894 0677 1001     		.2byte	0x110
 895 0679 0D       		.byte	0xd
 896 067a 1D       		.uleb128 0x1d
 897 067b 7C020000 		.4byte	.LASF92
 898 067f 10       		.byte	0x10
 899 0680 0C01     		.2byte	0x10c
 900 0682 0D       		.byte	0xd
 901 0683 1E       		.uleb128 0x1e
 902 0684 DE040000 		.4byte	.LASF94
 903 0688 10       		.byte	0x10
 904 0689 BD       		.byte	0xbd
 905 068a 0D       		.byte	0xd
 906 068b 9A060000 		.4byte	0x69a
 907 068f 19       		.uleb128 0x19
 908 0690 6900     		.ascii	"i\000"
 909 0692 10       		.byte	0x10
 910 0693 BE       		.byte	0xbe
 911 0694 0C       		.byte	0xc
 912 0695 30000000 		.4byte	0x30
ARM GAS  /tmp/ccqzpcMt.s 			page 17


 913 0699 00       		.byte	0
 914 069a 1F       		.uleb128 0x1f
 915 069b 2C000000 		.4byte	.LASF93
 916 069f 10       		.byte	0x10
 917 06a0 B9       		.byte	0xb9
 918 06a1 0D       		.byte	0xd
 919 06a2 1E       		.uleb128 0x1e
 920 06a3 75040000 		.4byte	.LASF95
 921 06a7 10       		.byte	0x10
 922 06a8 5F       		.byte	0x5f
 923 06a9 0D       		.byte	0xd
 924 06aa B9060000 		.4byte	0x6b9
 925 06ae 19       		.uleb128 0x19
 926 06af 6900     		.ascii	"i\000"
 927 06b1 10       		.byte	0x10
 928 06b2 60       		.byte	0x60
 929 06b3 0C       		.byte	0xc
 930 06b4 30000000 		.4byte	0x30
 931 06b8 00       		.byte	0
 932 06b9 1F       		.uleb128 0x1f
 933 06ba E1020000 		.4byte	.LASF96
 934 06be 10       		.byte	0x10
 935 06bf 5B       		.byte	0x5b
 936 06c0 0D       		.byte	0xd
 937 06c1 20       		.uleb128 0x20
 938 06c2 37020000 		.4byte	.LASF104
 939 06c6 10       		.byte	0x10
 940 06c7 3C       		.byte	0x3c
 941 06c8 0E       		.byte	0xe
 942 06c9 93020000 		.4byte	0x293
 943 06cd EA060000 		.4byte	0x6ea
 944 06d1 21       		.uleb128 0x21
 945 06d2 0E040000 		.4byte	.LASF97
 946 06d6 10       		.byte	0x10
 947 06d7 3C       		.byte	0x3c
 948 06d8 23       		.byte	0x23
 949 06d9 24000000 		.4byte	0x24
 950 06dd 21       		.uleb128 0x21
 951 06de 69040000 		.4byte	.LASF73
 952 06e2 10       		.byte	0x10
 953 06e3 3C       		.byte	0x3c
 954 06e4 32       		.byte	0x32
 955 06e5 30000000 		.4byte	0x30
 956 06e9 00       		.byte	0
 957 06ea 1E       		.uleb128 0x1e
 958 06eb 1F020000 		.4byte	.LASF98
 959 06ef 0D       		.byte	0xd
 960 06f0 F5       		.byte	0xf5
 961 06f1 14       		.byte	0x14
 962 06f2 0F070000 		.4byte	0x70f
 963 06f6 22       		.uleb128 0x22
 964 06f7 676D7000 		.ascii	"gmp\000"
 965 06fb 0D       		.byte	0xd
 966 06fc F5       		.byte	0xf5
 967 06fd 43       		.byte	0x43
 968 06fe 0F070000 		.4byte	0x70f
 969 0702 21       		.uleb128 0x21
ARM GAS  /tmp/ccqzpcMt.s 			page 18


 970 0703 0E040000 		.4byte	.LASF97
 971 0707 0D       		.byte	0xd
 972 0708 F6       		.byte	0xf6
 973 0709 33       		.byte	0x33
 974 070a 24000000 		.4byte	0x24
 975 070e 00       		.byte	0
 976 070f 0A       		.uleb128 0xa
 977 0710 04       		.byte	0x4
 978 0711 3D050000 		.4byte	0x53d
 979 0715 1E       		.uleb128 0x1e
 980 0716 C1020000 		.4byte	.LASF99
 981 071a 0D       		.byte	0xd
 982 071b BD       		.byte	0xbd
 983 071c 14       		.byte	0x14
 984 071d 45070000 		.4byte	0x745
 985 0721 22       		.uleb128 0x22
 986 0722 6D7000   		.ascii	"mp\000"
 987 0725 0D       		.byte	0xd
 988 0726 BD       		.byte	0xbd
 989 0727 34       		.byte	0x34
 990 0728 45070000 		.4byte	0x745
 991 072c 21       		.uleb128 0x21
 992 072d 0E040000 		.4byte	.LASF97
 993 0731 0D       		.byte	0xd
 994 0732 BE       		.byte	0xbe
 995 0733 2C       		.byte	0x2c
 996 0734 24000000 		.4byte	0x24
 997 0738 21       		.uleb128 0x21
 998 0739 DE030000 		.4byte	.LASF74
 999 073d 0D       		.byte	0xd
 1000 073e BF       		.byte	0xbf
 1001 073f 32       		.byte	0x32
 1002 0740 88040000 		.4byte	0x488
 1003 0744 00       		.byte	0
 1004 0745 0A       		.uleb128 0xa
 1005 0746 04       		.byte	0x4
 1006 0747 0D050000 		.4byte	0x50d
 1007 074b 00       		.byte	0
 1008              		.section	.gnu.debuglto_.debug_abbrev,"e",%progbits
 1009              	.Ldebug_abbrev0:
 1010 0000 01       		.uleb128 0x1
 1011 0001 11       		.uleb128 0x11
 1012 0002 01       		.byte	0x1
 1013 0003 25       		.uleb128 0x25
 1014 0004 0E       		.uleb128 0xe
 1015 0005 13       		.uleb128 0x13
 1016 0006 0B       		.uleb128 0xb
 1017 0007 03       		.uleb128 0x3
 1018 0008 0E       		.uleb128 0xe
 1019 0009 1B       		.uleb128 0x1b
 1020 000a 0E       		.uleb128 0xe
 1021 000b 10       		.uleb128 0x10
 1022 000c 17       		.uleb128 0x17
 1023 000d 00       		.byte	0
 1024 000e 00       		.byte	0
 1025 000f 02       		.uleb128 0x2
 1026 0010 24       		.uleb128 0x24
ARM GAS  /tmp/ccqzpcMt.s 			page 19


 1027 0011 00       		.byte	0
 1028 0012 0B       		.uleb128 0xb
 1029 0013 0B       		.uleb128 0xb
 1030 0014 3E       		.uleb128 0x3e
 1031 0015 0B       		.uleb128 0xb
 1032 0016 03       		.uleb128 0x3
 1033 0017 08       		.uleb128 0x8
 1034 0018 00       		.byte	0
 1035 0019 00       		.byte	0
 1036 001a 03       		.uleb128 0x3
 1037 001b 16       		.uleb128 0x16
 1038 001c 00       		.byte	0
 1039 001d 03       		.uleb128 0x3
 1040 001e 0E       		.uleb128 0xe
 1041 001f 3A       		.uleb128 0x3a
 1042 0020 0B       		.uleb128 0xb
 1043 0021 3B       		.uleb128 0x3b
 1044 0022 0B       		.uleb128 0xb
 1045 0023 39       		.uleb128 0x39
 1046 0024 0B       		.uleb128 0xb
 1047 0025 49       		.uleb128 0x49
 1048 0026 13       		.uleb128 0x13
 1049 0027 00       		.byte	0
 1050 0028 00       		.byte	0
 1051 0029 04       		.uleb128 0x4
 1052 002a 24       		.uleb128 0x24
 1053 002b 00       		.byte	0
 1054 002c 0B       		.uleb128 0xb
 1055 002d 0B       		.uleb128 0xb
 1056 002e 3E       		.uleb128 0x3e
 1057 002f 0B       		.uleb128 0xb
 1058 0030 03       		.uleb128 0x3
 1059 0031 0E       		.uleb128 0xe
 1060 0032 00       		.byte	0
 1061 0033 00       		.byte	0
 1062 0034 05       		.uleb128 0x5
 1063 0035 13       		.uleb128 0x13
 1064 0036 01       		.byte	0x1
 1065 0037 03       		.uleb128 0x3
 1066 0038 0E       		.uleb128 0xe
 1067 0039 0B       		.uleb128 0xb
 1068 003a 0B       		.uleb128 0xb
 1069 003b 3A       		.uleb128 0x3a
 1070 003c 0B       		.uleb128 0xb
 1071 003d 3B       		.uleb128 0x3b
 1072 003e 0B       		.uleb128 0xb
 1073 003f 39       		.uleb128 0x39
 1074 0040 0B       		.uleb128 0xb
 1075 0041 01       		.uleb128 0x1
 1076 0042 13       		.uleb128 0x13
 1077 0043 00       		.byte	0
 1078 0044 00       		.byte	0
 1079 0045 06       		.uleb128 0x6
 1080 0046 0D       		.uleb128 0xd
 1081 0047 00       		.byte	0
 1082 0048 03       		.uleb128 0x3
 1083 0049 0E       		.uleb128 0xe
ARM GAS  /tmp/ccqzpcMt.s 			page 20


 1084 004a 3A       		.uleb128 0x3a
 1085 004b 0B       		.uleb128 0xb
 1086 004c 3B       		.uleb128 0x3b
 1087 004d 0B       		.uleb128 0xb
 1088 004e 39       		.uleb128 0x39
 1089 004f 0B       		.uleb128 0xb
 1090 0050 49       		.uleb128 0x49
 1091 0051 13       		.uleb128 0x13
 1092 0052 38       		.uleb128 0x38
 1093 0053 0B       		.uleb128 0xb
 1094 0054 00       		.byte	0
 1095 0055 00       		.byte	0
 1096 0056 07       		.uleb128 0x7
 1097 0057 0D       		.uleb128 0xd
 1098 0058 00       		.byte	0
 1099 0059 03       		.uleb128 0x3
 1100 005a 08       		.uleb128 0x8
 1101 005b 3A       		.uleb128 0x3a
 1102 005c 0B       		.uleb128 0xb
 1103 005d 3B       		.uleb128 0x3b
 1104 005e 0B       		.uleb128 0xb
 1105 005f 39       		.uleb128 0x39
 1106 0060 0B       		.uleb128 0xb
 1107 0061 49       		.uleb128 0x49
 1108 0062 13       		.uleb128 0x13
 1109 0063 38       		.uleb128 0x38
 1110 0064 0B       		.uleb128 0xb
 1111 0065 00       		.byte	0
 1112 0066 00       		.byte	0
 1113 0067 08       		.uleb128 0x8
 1114 0068 0D       		.uleb128 0xd
 1115 0069 00       		.byte	0
 1116 006a 03       		.uleb128 0x3
 1117 006b 08       		.uleb128 0x8
 1118 006c 3A       		.uleb128 0x3a
 1119 006d 0B       		.uleb128 0xb
 1120 006e 3B       		.uleb128 0x3b
 1121 006f 05       		.uleb128 0x5
 1122 0070 39       		.uleb128 0x39
 1123 0071 0B       		.uleb128 0xb
 1124 0072 49       		.uleb128 0x49
 1125 0073 13       		.uleb128 0x13
 1126 0074 38       		.uleb128 0x38
 1127 0075 0B       		.uleb128 0xb
 1128 0076 00       		.byte	0
 1129 0077 00       		.byte	0
 1130 0078 09       		.uleb128 0x9
 1131 0079 0D       		.uleb128 0xd
 1132 007a 00       		.byte	0
 1133 007b 03       		.uleb128 0x3
 1134 007c 0E       		.uleb128 0xe
 1135 007d 3A       		.uleb128 0x3a
 1136 007e 0B       		.uleb128 0xb
 1137 007f 3B       		.uleb128 0x3b
 1138 0080 05       		.uleb128 0x5
 1139 0081 39       		.uleb128 0x39
 1140 0082 0B       		.uleb128 0xb
ARM GAS  /tmp/ccqzpcMt.s 			page 21


 1141 0083 49       		.uleb128 0x49
 1142 0084 13       		.uleb128 0x13
 1143 0085 38       		.uleb128 0x38
 1144 0086 0B       		.uleb128 0xb
 1145 0087 00       		.byte	0
 1146 0088 00       		.byte	0
 1147 0089 0A       		.uleb128 0xa
 1148 008a 0F       		.uleb128 0xf
 1149 008b 00       		.byte	0
 1150 008c 0B       		.uleb128 0xb
 1151 008d 0B       		.uleb128 0xb
 1152 008e 49       		.uleb128 0x49
 1153 008f 13       		.uleb128 0x13
 1154 0090 00       		.byte	0
 1155 0091 00       		.byte	0
 1156 0092 0B       		.uleb128 0xb
 1157 0093 0F       		.uleb128 0xf
 1158 0094 00       		.byte	0
 1159 0095 0B       		.uleb128 0xb
 1160 0096 0B       		.uleb128 0xb
 1161 0097 00       		.byte	0
 1162 0098 00       		.byte	0
 1163 0099 0C       		.uleb128 0xc
 1164 009a 01       		.uleb128 0x1
 1165 009b 01       		.byte	0x1
 1166 009c 49       		.uleb128 0x49
 1167 009d 13       		.uleb128 0x13
 1168 009e 01       		.uleb128 0x1
 1169 009f 13       		.uleb128 0x13
 1170 00a0 00       		.byte	0
 1171 00a1 00       		.byte	0
 1172 00a2 0D       		.uleb128 0xd
 1173 00a3 21       		.uleb128 0x21
 1174 00a4 00       		.byte	0
 1175 00a5 49       		.uleb128 0x49
 1176 00a6 13       		.uleb128 0x13
 1177 00a7 2F       		.uleb128 0x2f
 1178 00a8 0B       		.uleb128 0xb
 1179 00a9 00       		.byte	0
 1180 00aa 00       		.byte	0
 1181 00ab 0E       		.uleb128 0xe
 1182 00ac 13       		.uleb128 0x13
 1183 00ad 01       		.byte	0x1
 1184 00ae 03       		.uleb128 0x3
 1185 00af 0E       		.uleb128 0xe
 1186 00b0 0B       		.uleb128 0xb
 1187 00b1 0B       		.uleb128 0xb
 1188 00b2 3A       		.uleb128 0x3a
 1189 00b3 0B       		.uleb128 0xb
 1190 00b4 3B       		.uleb128 0x3b
 1191 00b5 05       		.uleb128 0x5
 1192 00b6 39       		.uleb128 0x39
 1193 00b7 0B       		.uleb128 0xb
 1194 00b8 01       		.uleb128 0x1
 1195 00b9 13       		.uleb128 0x13
 1196 00ba 00       		.byte	0
 1197 00bb 00       		.byte	0
ARM GAS  /tmp/ccqzpcMt.s 			page 22


 1198 00bc 0F       		.uleb128 0xf
 1199 00bd 17       		.uleb128 0x17
 1200 00be 01       		.byte	0x1
 1201 00bf 0B       		.uleb128 0xb
 1202 00c0 0B       		.uleb128 0xb
 1203 00c1 3A       		.uleb128 0x3a
 1204 00c2 0B       		.uleb128 0xb
 1205 00c3 3B       		.uleb128 0x3b
 1206 00c4 0B       		.uleb128 0xb
 1207 00c5 39       		.uleb128 0x39
 1208 00c6 0B       		.uleb128 0xb
 1209 00c7 01       		.uleb128 0x1
 1210 00c8 13       		.uleb128 0x13
 1211 00c9 00       		.byte	0
 1212 00ca 00       		.byte	0
 1213 00cb 10       		.uleb128 0x10
 1214 00cc 0D       		.uleb128 0xd
 1215 00cd 00       		.byte	0
 1216 00ce 03       		.uleb128 0x3
 1217 00cf 0E       		.uleb128 0xe
 1218 00d0 3A       		.uleb128 0x3a
 1219 00d1 0B       		.uleb128 0xb
 1220 00d2 3B       		.uleb128 0x3b
 1221 00d3 0B       		.uleb128 0xb
 1222 00d4 39       		.uleb128 0x39
 1223 00d5 0B       		.uleb128 0xb
 1224 00d6 49       		.uleb128 0x49
 1225 00d7 13       		.uleb128 0x13
 1226 00d8 00       		.byte	0
 1227 00d9 00       		.byte	0
 1228 00da 11       		.uleb128 0x11
 1229 00db 0D       		.uleb128 0xd
 1230 00dc 00       		.byte	0
 1231 00dd 03       		.uleb128 0x3
 1232 00de 0E       		.uleb128 0xe
 1233 00df 3A       		.uleb128 0x3a
 1234 00e0 0B       		.uleb128 0xb
 1235 00e1 3B       		.uleb128 0x3b
 1236 00e2 05       		.uleb128 0x5
 1237 00e3 39       		.uleb128 0x39
 1238 00e4 0B       		.uleb128 0xb
 1239 00e5 49       		.uleb128 0x49
 1240 00e6 13       		.uleb128 0x13
 1241 00e7 00       		.byte	0
 1242 00e8 00       		.byte	0
 1243 00e9 12       		.uleb128 0x12
 1244 00ea 26       		.uleb128 0x26
 1245 00eb 00       		.byte	0
 1246 00ec 49       		.uleb128 0x49
 1247 00ed 13       		.uleb128 0x13
 1248 00ee 00       		.byte	0
 1249 00ef 00       		.byte	0
 1250 00f0 13       		.uleb128 0x13
 1251 00f1 15       		.uleb128 0x15
 1252 00f2 01       		.byte	0x1
 1253 00f3 27       		.uleb128 0x27
 1254 00f4 19       		.uleb128 0x19
ARM GAS  /tmp/ccqzpcMt.s 			page 23


 1255 00f5 49       		.uleb128 0x49
 1256 00f6 13       		.uleb128 0x13
 1257 00f7 01       		.uleb128 0x1
 1258 00f8 13       		.uleb128 0x13
 1259 00f9 00       		.byte	0
 1260 00fa 00       		.byte	0
 1261 00fb 14       		.uleb128 0x14
 1262 00fc 05       		.uleb128 0x5
 1263 00fd 00       		.byte	0
 1264 00fe 49       		.uleb128 0x49
 1265 00ff 13       		.uleb128 0x13
 1266 0100 00       		.byte	0
 1267 0101 00       		.byte	0
 1268 0102 15       		.uleb128 0x15
 1269 0103 13       		.uleb128 0x13
 1270 0104 01       		.byte	0x1
 1271 0105 0B       		.uleb128 0xb
 1272 0106 0B       		.uleb128 0xb
 1273 0107 3A       		.uleb128 0x3a
 1274 0108 0B       		.uleb128 0xb
 1275 0109 3B       		.uleb128 0x3b
 1276 010a 0B       		.uleb128 0xb
 1277 010b 39       		.uleb128 0x39
 1278 010c 0B       		.uleb128 0xb
 1279 010d 01       		.uleb128 0x1
 1280 010e 13       		.uleb128 0x13
 1281 010f 00       		.byte	0
 1282 0110 00       		.byte	0
 1283 0111 16       		.uleb128 0x16
 1284 0112 15       		.uleb128 0x15
 1285 0113 00       		.byte	0
 1286 0114 27       		.uleb128 0x27
 1287 0115 19       		.uleb128 0x19
 1288 0116 00       		.byte	0
 1289 0117 00       		.byte	0
 1290 0118 17       		.uleb128 0x17
 1291 0119 34       		.uleb128 0x34
 1292 011a 00       		.byte	0
 1293 011b 03       		.uleb128 0x3
 1294 011c 0E       		.uleb128 0xe
 1295 011d 3A       		.uleb128 0x3a
 1296 011e 0B       		.uleb128 0xb
 1297 011f 3B       		.uleb128 0x3b
 1298 0120 0B       		.uleb128 0xb
 1299 0121 39       		.uleb128 0x39
 1300 0122 0B       		.uleb128 0xb
 1301 0123 49       		.uleb128 0x49
 1302 0124 13       		.uleb128 0x13
 1303 0125 3F       		.uleb128 0x3f
 1304 0126 19       		.uleb128 0x19
 1305 0127 3C       		.uleb128 0x3c
 1306 0128 19       		.uleb128 0x19
 1307 0129 00       		.byte	0
 1308 012a 00       		.byte	0
 1309 012b 18       		.uleb128 0x18
 1310 012c 34       		.uleb128 0x34
 1311 012d 00       		.byte	0
ARM GAS  /tmp/ccqzpcMt.s 			page 24


 1312 012e 03       		.uleb128 0x3
 1313 012f 0E       		.uleb128 0xe
 1314 0130 3A       		.uleb128 0x3a
 1315 0131 0B       		.uleb128 0xb
 1316 0132 3B       		.uleb128 0x3b
 1317 0133 0B       		.uleb128 0xb
 1318 0134 39       		.uleb128 0x39
 1319 0135 0B       		.uleb128 0xb
 1320 0136 49       		.uleb128 0x49
 1321 0137 13       		.uleb128 0x13
 1322 0138 00       		.byte	0
 1323 0139 00       		.byte	0
 1324 013a 19       		.uleb128 0x19
 1325 013b 34       		.uleb128 0x34
 1326 013c 00       		.byte	0
 1327 013d 03       		.uleb128 0x3
 1328 013e 08       		.uleb128 0x8
 1329 013f 3A       		.uleb128 0x3a
 1330 0140 0B       		.uleb128 0xb
 1331 0141 3B       		.uleb128 0x3b
 1332 0142 0B       		.uleb128 0xb
 1333 0143 39       		.uleb128 0x39
 1334 0144 0B       		.uleb128 0xb
 1335 0145 49       		.uleb128 0x49
 1336 0146 13       		.uleb128 0x13
 1337 0147 00       		.byte	0
 1338 0148 00       		.byte	0
 1339 0149 1A       		.uleb128 0x1a
 1340 014a 34       		.uleb128 0x34
 1341 014b 00       		.byte	0
 1342 014c 03       		.uleb128 0x3
 1343 014d 0E       		.uleb128 0xe
 1344 014e 3A       		.uleb128 0x3a
 1345 014f 0B       		.uleb128 0xb
 1346 0150 3B       		.uleb128 0x3b
 1347 0151 05       		.uleb128 0x5
 1348 0152 39       		.uleb128 0x39
 1349 0153 0B       		.uleb128 0xb
 1350 0154 49       		.uleb128 0x49
 1351 0155 13       		.uleb128 0x13
 1352 0156 00       		.byte	0
 1353 0157 00       		.byte	0
 1354 0158 1B       		.uleb128 0x1b
 1355 0159 34       		.uleb128 0x34
 1356 015a 00       		.byte	0
 1357 015b 03       		.uleb128 0x3
 1358 015c 0E       		.uleb128 0xe
 1359 015d 3A       		.uleb128 0x3a
 1360 015e 0B       		.uleb128 0xb
 1361 015f 3B       		.uleb128 0x3b
 1362 0160 05       		.uleb128 0x5
 1363 0161 39       		.uleb128 0x39
 1364 0162 0B       		.uleb128 0xb
 1365 0163 49       		.uleb128 0x49
 1366 0164 13       		.uleb128 0x13
 1367 0165 3F       		.uleb128 0x3f
 1368 0166 19       		.uleb128 0x19
ARM GAS  /tmp/ccqzpcMt.s 			page 25


 1369 0167 00       		.byte	0
 1370 0168 00       		.byte	0
 1371 0169 1C       		.uleb128 0x1c
 1372 016a 34       		.uleb128 0x34
 1373 016b 00       		.byte	0
 1374 016c 47       		.uleb128 0x47
 1375 016d 13       		.uleb128 0x13
 1376 016e 3A       		.uleb128 0x3a
 1377 016f 0B       		.uleb128 0xb
 1378 0170 3B       		.uleb128 0x3b
 1379 0171 05       		.uleb128 0x5
 1380 0172 39       		.uleb128 0x39
 1381 0173 0B       		.uleb128 0xb
 1382 0174 00       		.byte	0
 1383 0175 00       		.byte	0
 1384 0176 1D       		.uleb128 0x1d
 1385 0177 2E       		.uleb128 0x2e
 1386 0178 00       		.byte	0
 1387 0179 03       		.uleb128 0x3
 1388 017a 0E       		.uleb128 0xe
 1389 017b 3A       		.uleb128 0x3a
 1390 017c 0B       		.uleb128 0xb
 1391 017d 3B       		.uleb128 0x3b
 1392 017e 05       		.uleb128 0x5
 1393 017f 39       		.uleb128 0x39
 1394 0180 0B       		.uleb128 0xb
 1395 0181 27       		.uleb128 0x27
 1396 0182 19       		.uleb128 0x19
 1397 0183 00       		.byte	0
 1398 0184 00       		.byte	0
 1399 0185 1E       		.uleb128 0x1e
 1400 0186 2E       		.uleb128 0x2e
 1401 0187 01       		.byte	0x1
 1402 0188 03       		.uleb128 0x3
 1403 0189 0E       		.uleb128 0xe
 1404 018a 3A       		.uleb128 0x3a
 1405 018b 0B       		.uleb128 0xb
 1406 018c 3B       		.uleb128 0x3b
 1407 018d 0B       		.uleb128 0xb
 1408 018e 39       		.uleb128 0x39
 1409 018f 0B       		.uleb128 0xb
 1410 0190 27       		.uleb128 0x27
 1411 0191 19       		.uleb128 0x19
 1412 0192 01       		.uleb128 0x1
 1413 0193 13       		.uleb128 0x13
 1414 0194 00       		.byte	0
 1415 0195 00       		.byte	0
 1416 0196 1F       		.uleb128 0x1f
 1417 0197 2E       		.uleb128 0x2e
 1418 0198 00       		.byte	0
 1419 0199 03       		.uleb128 0x3
 1420 019a 0E       		.uleb128 0xe
 1421 019b 3A       		.uleb128 0x3a
 1422 019c 0B       		.uleb128 0xb
 1423 019d 3B       		.uleb128 0x3b
 1424 019e 0B       		.uleb128 0xb
 1425 019f 39       		.uleb128 0x39
ARM GAS  /tmp/ccqzpcMt.s 			page 26


 1426 01a0 0B       		.uleb128 0xb
 1427 01a1 27       		.uleb128 0x27
 1428 01a2 19       		.uleb128 0x19
 1429 01a3 00       		.byte	0
 1430 01a4 00       		.byte	0
 1431 01a5 20       		.uleb128 0x20
 1432 01a6 2E       		.uleb128 0x2e
 1433 01a7 01       		.byte	0x1
 1434 01a8 03       		.uleb128 0x3
 1435 01a9 0E       		.uleb128 0xe
 1436 01aa 3A       		.uleb128 0x3a
 1437 01ab 0B       		.uleb128 0xb
 1438 01ac 3B       		.uleb128 0x3b
 1439 01ad 0B       		.uleb128 0xb
 1440 01ae 39       		.uleb128 0x39
 1441 01af 0B       		.uleb128 0xb
 1442 01b0 27       		.uleb128 0x27
 1443 01b1 19       		.uleb128 0x19
 1444 01b2 49       		.uleb128 0x49
 1445 01b3 13       		.uleb128 0x13
 1446 01b4 01       		.uleb128 0x1
 1447 01b5 13       		.uleb128 0x13
 1448 01b6 00       		.byte	0
 1449 01b7 00       		.byte	0
 1450 01b8 21       		.uleb128 0x21
 1451 01b9 05       		.uleb128 0x5
 1452 01ba 00       		.byte	0
 1453 01bb 03       		.uleb128 0x3
 1454 01bc 0E       		.uleb128 0xe
 1455 01bd 3A       		.uleb128 0x3a
 1456 01be 0B       		.uleb128 0xb
 1457 01bf 3B       		.uleb128 0x3b
 1458 01c0 0B       		.uleb128 0xb
 1459 01c1 39       		.uleb128 0x39
 1460 01c2 0B       		.uleb128 0xb
 1461 01c3 49       		.uleb128 0x49
 1462 01c4 13       		.uleb128 0x13
 1463 01c5 00       		.byte	0
 1464 01c6 00       		.byte	0
 1465 01c7 22       		.uleb128 0x22
 1466 01c8 05       		.uleb128 0x5
 1467 01c9 00       		.byte	0
 1468 01ca 03       		.uleb128 0x3
 1469 01cb 08       		.uleb128 0x8
 1470 01cc 3A       		.uleb128 0x3a
 1471 01cd 0B       		.uleb128 0xb
 1472 01ce 3B       		.uleb128 0x3b
 1473 01cf 0B       		.uleb128 0xb
 1474 01d0 39       		.uleb128 0x39
 1475 01d1 0B       		.uleb128 0xb
 1476 01d2 49       		.uleb128 0x49
 1477 01d3 13       		.uleb128 0x13
 1478 01d4 00       		.byte	0
 1479 01d5 00       		.byte	0
 1480 01d6 00       		.byte	0
 1481              		.section	.gnu.debuglto_.debug_line,"e",%progbits
 1482              	.Ldebug_line0:
ARM GAS  /tmp/ccqzpcMt.s 			page 27


 1483 0000 D0020000 		.4byte	.LELT0-.LSLT0
 1484              	.LSLT0:
 1485 0004 0400     		.2byte	0x4
 1486 0006 CA020000 		.4byte	.LELTP0-.LASLTP0
 1487              	.LASLTP0:
 1488 000a 01       		.byte	0x1
 1489 000b 01       		.byte	0x1
 1490 000c 01       		.byte	0x1
 1491 000d F6       		.byte	0xf6
 1492 000e F2       		.byte	0xf2
 1493 000f 0D       		.byte	0xd
 1494 0010 00       		.byte	0
 1495 0011 01       		.byte	0x1
 1496 0012 01       		.byte	0x1
 1497 0013 01       		.byte	0x1
 1498 0014 01       		.byte	0x1
 1499 0015 00       		.byte	0
 1500 0016 00       		.byte	0
 1501 0017 00       		.byte	0
 1502 0018 01       		.byte	0x1
 1503 0019 00       		.byte	0
 1504 001a 00       		.byte	0
 1505 001b 01       		.byte	0x1
 1506 001c 43686962 		.ascii	"ChibiOS_20.3.0/os/common/ports/ARMCMx/compilers/GCC"
 1506      694F535F 
 1506      32302E33 
 1506      2E302F6F 
 1506      732F636F 
 1507 004f 00       		.byte	0
 1508 0050 43686962 		.ascii	"ChibiOS_20.3.0/os/common/ports/ARMCMx"
 1508      694F535F 
 1508      32302E33 
 1508      2E302F6F 
 1508      732F636F 
 1509 0075 00       		.byte	0
 1510 0076 43686962 		.ascii	"ChibiOS_20.3.0/os/oslib/include"
 1510      694F535F 
 1510      32302E33 
 1510      2E302F6F 
 1510      732F6F73 
 1511 0095 00       		.byte	0
 1512 0096 43686962 		.ascii	"ChibiOS_20.3.0/os/rt/include"
 1512      694F535F 
 1512      32302E33 
 1512      2E302F6F 
 1512      732F7274 
 1513 00b2 00       		.byte	0
 1514 00b3 43686962 		.ascii	"ChibiOS_20.3.0/test/lib"
 1514      694F535F 
 1514      32302E33 
 1514      2E302F74 
 1514      6573742F 
 1515 00ca 00       		.byte	0
 1516 00cb 43686962 		.ascii	"ChibiOS_20.3.0/test/oslib/source/test"
 1516      694F535F 
 1516      32302E33 
 1516      2E302F74 
ARM GAS  /tmp/ccqzpcMt.s 			page 28


 1516      6573742F 
 1517 00f0 00       		.byte	0
 1518 00f1 2F757372 		.ascii	"/usr/share/gcc-arm-none-eabi-10-2020-q4-major/arm-n"
 1518      2F736861 
 1518      72652F67 
 1518      63632D61 
 1518      726D2D6E 
 1519 0124 6F6E652D 		.ascii	"one-eabi/include/machine"
 1519      65616269 
 1519      2F696E63 
 1519      6C756465 
 1519      2F6D6163 
 1520 013c 00       		.byte	0
 1521 013d 2F757372 		.ascii	"/usr/share/gcc-arm-none-eabi-10-2020-q4-major/arm-n"
 1521      2F736861 
 1521      72652F67 
 1521      63632D61 
 1521      726D2D6E 
 1522 0170 6F6E652D 		.ascii	"one-eabi/include/sys"
 1522      65616269 
 1522      2F696E63 
 1522      6C756465 
 1522      2F737973 
 1523 0184 00       		.byte	0
 1524 0185 2F757372 		.ascii	"/usr/share/gcc-arm-none-eabi-10-2020-q4-major/lib/g"
 1524      2F736861 
 1524      72652F67 
 1524      63632D61 
 1524      726D2D6E 
 1525 01b8 63632F61 		.ascii	"cc/arm-none-eabi/10.2.1/include"
 1525      726D2D6E 
 1525      6F6E652D 
 1525      65616269 
 1525      2F31302E 
 1526 01d7 00       		.byte	0
 1527 01d8 00       		.byte	0
 1528 01d9 73746464 		.ascii	"stddef.h\000"
 1528      65662E68 
 1528      00
 1529 01e2 09       		.uleb128 0x9
 1530 01e3 00       		.uleb128 0
 1531 01e4 00       		.uleb128 0
 1532 01e5 5F646566 		.ascii	"_default_types.h\000"
 1532      61756C74 
 1532      5F747970 
 1532      65732E68 
 1532      00
 1533 01f6 07       		.uleb128 0x7
 1534 01f7 00       		.uleb128 0
 1535 01f8 00       		.uleb128 0
 1536 01f9 5F737464 		.ascii	"_stdint.h\000"
 1536      696E742E 
 1536      6800
 1537 0203 08       		.uleb128 0x8
 1538 0204 00       		.uleb128 0
 1539 0205 00       		.uleb128 0
 1540 0206 63687479 		.ascii	"chtypes.h\000"
ARM GAS  /tmp/ccqzpcMt.s 			page 29


 1540      7065732E 
 1540      6800
 1541 0210 01       		.uleb128 0x1
 1542 0211 00       		.uleb128 0
 1543 0212 00       		.uleb128 0
 1544 0213 63687379 		.ascii	"chsystypes.h\000"
 1544      73747970 
 1544      65732E68 
 1544      00
 1545 0220 04       		.uleb128 0x4
 1546 0221 00       		.uleb128 0
 1547 0222 00       		.uleb128 0
 1548 0223 63687363 		.ascii	"chschd.h\000"
 1548      68642E68 
 1548      00
 1549 022c 04       		.uleb128 0x4
 1550 022d 00       		.uleb128 0
 1551 022e 00       		.uleb128 0
 1552 022f 63687469 		.ascii	"chtime.h\000"
 1552      6D652E68 
 1552      00
 1553 0238 04       		.uleb128 0x4
 1554 0239 00       		.uleb128 0
 1555 023a 00       		.uleb128 0
 1556 023b 6368636F 		.ascii	"chcore.h\000"
 1556      72652E68 
 1556      00
 1557 0244 02       		.uleb128 0x2
 1558 0245 00       		.uleb128 0
 1559 0246 00       		.uleb128 0
 1560 0247 6368636F 		.ascii	"chcore_v7m.h\000"
 1560      72655F76 
 1560      376D2E68 
 1560      00
 1561 0254 02       		.uleb128 0x2
 1562 0255 00       		.uleb128 0
 1563 0256 00       		.uleb128 0
 1564 0257 63687365 		.ascii	"chsem.h\000"
 1564      6D2E6800 
 1565 025f 04       		.uleb128 0x4
 1566 0260 00       		.uleb128 0
 1567 0261 00       		.uleb128 0
 1568 0262 63686D74 		.ascii	"chmtx.h\000"
 1568      782E6800 
 1569 026a 04       		.uleb128 0x4
 1570 026b 00       		.uleb128 0
 1571 026c 00       		.uleb128 0
 1572 026d 63686D65 		.ascii	"chmemcore.h\000"
 1572      6D636F72 
 1572      652E6800 
 1573 0279 03       		.uleb128 0x3
 1574 027a 00       		.uleb128 0
 1575 027b 00       		.uleb128 0
 1576 027c 63686D65 		.ascii	"chmempools.h\000"
 1576      6D706F6F 
 1576      6C732E68 
 1576      00
ARM GAS  /tmp/ccqzpcMt.s 			page 30


 1577 0289 03       		.uleb128 0x3
 1578 028a 00       		.uleb128 0
 1579 028b 00       		.uleb128 0
 1580 028c 63685F74 		.ascii	"ch_test.h\000"
 1580      6573742E 
 1580      6800
 1581 0296 05       		.uleb128 0x5
 1582 0297 00       		.uleb128 0
 1583 0298 00       		.uleb128 0
 1584 0299 6F736C69 		.ascii	"oslib_test_sequence_007.h\000"
 1584      625F7465 
 1584      73745F73 
 1584      65717565 
 1584      6E63655F 
 1585 02b3 06       		.uleb128 0x6
 1586 02b4 00       		.uleb128 0
 1587 02b5 00       		.uleb128 0
 1588 02b6 6F736C69 		.ascii	"oslib_test_sequence_007.c\000"
 1588      625F7465 
 1588      73745F73 
 1588      65717565 
 1588      6E63655F 
 1589 02d0 06       		.uleb128 0x6
 1590 02d1 00       		.uleb128 0
 1591 02d2 00       		.uleb128 0
 1592 02d3 00       		.byte	0
 1593              	.LELTP0:
 1594              	.LELT0:
 1595              		.section	.gnu.debuglto_.debug_str,"eMS",%progbits,1
 1596              	.LASF26:
 1597 0000 74687265 		.ascii	"thread_t\000"
 1597      61645F74 
 1597      00
 1598              	.LASF82:
 1599 0009 63617365 		.ascii	"cases\000"
 1599      7300
 1600              	.LASF76:
 1601 000f 706F6F6C 		.ascii	"pool\000"
 1601      00
 1602              	.LASF38:
 1603 0014 6570656E 		.ascii	"epending\000"
 1603      64696E67 
 1603      00
 1604              	.LASF33:
 1605 001d 73746174 		.ascii	"state\000"
 1605      6500
 1606              	.LASF18:
 1607 0023 75696E74 		.ascii	"uint64_t\000"
 1607      36345F74 
 1607      00
 1608              	.LASF93:
 1609 002c 6F736C69 		.ascii	"oslib_test_007_002_setup\000"
 1609      625F7465 
 1609      73745F30 
 1609      30375F30 
 1609      30325F73 
 1610              	.LASF4:
ARM GAS  /tmp/ccqzpcMt.s 			page 31


 1611 0045 73697A65 		.ascii	"size_t\000"
 1611      5F7400
 1612              	.LASF31:
 1613 004c 6E616D65 		.ascii	"name\000"
 1613      00
 1614              	.LASF51:
 1615 0051 74696D65 		.ascii	"time_conv_t\000"
 1615      5F636F6E 
 1615      765F7400 
 1616              	.LASF14:
 1617 005d 6C6F6E67 		.ascii	"long long unsigned int\000"
 1617      206C6F6E 
 1617      6720756E 
 1617      7369676E 
 1617      65642069 
 1618              	.LASF77:
 1619 0074 67756172 		.ascii	"guarded_memory_pool_t\000"
 1619      6465645F 
 1619      6D656D6F 
 1619      72795F70 
 1619      6F6F6C5F 
 1620              	.LASF11:
 1621 008a 5F5F7569 		.ascii	"__uint32_t\000"
 1621      6E743332 
 1621      5F7400
 1622              	.LASF24:
 1623 0095 6576656E 		.ascii	"eventmask_t\000"
 1623      746D6173 
 1623      6B5F7400 
 1624              	.LASF19:
 1625 00a1 746D6F64 		.ascii	"tmode_t\000"
 1625      655F7400 
 1626              	.LASF103:
 1627 00a9 6F736C69 		.ascii	"oslib_test_sequence_007_array\000"
 1627      625F7465 
 1627      73745F73 
 1627      65717565 
 1627      6E63655F 
 1628              	.LASF45:
 1629 00c7 63685F74 		.ascii	"ch_threads_list\000"
 1629      68726561 
 1629      64735F6C 
 1629      69737400 
 1630              	.LASF87:
 1631 00d7 676D7031 		.ascii	"gmp1\000"
 1631      00
 1632              	.LASF7:
 1633 00dc 73686F72 		.ascii	"short int\000"
 1633      7420696E 
 1633      7400
 1634              	.LASF37:
 1635 00e6 6D736771 		.ascii	"msgqueue\000"
 1635      75657565 
 1635      00
 1636              	.LASF15:
 1637 00ef 75696E74 		.ascii	"uint8_t\000"
 1637      385F7400 
ARM GAS  /tmp/ccqzpcMt.s 			page 32


 1638              	.LASF39:
 1639 00f7 6D74786C 		.ascii	"mtxlist\000"
 1639      69737400 
 1640              	.LASF100:
 1641 00ff 474E5520 		.ascii	"GNU C17 10.2.1 20201103 (release) -mcpu=cortex-m4 -"
 1641      43313720 
 1641      31302E32 
 1641      2E312032 
 1641      30323031 
 1642 0132 6D746875 		.ascii	"mthumb -mfloat-abi=soft -march=armv7e-m -ggdb -O2 -"
 1642      6D62202D 
 1642      6D666C6F 
 1642      61742D61 
 1642      62693D73 
 1643 0165 666F6D69 		.ascii	"fomit-frame-pointer -falign-functions=16 -ffunction"
 1643      742D6672 
 1643      616D652D 
 1643      706F696E 
 1643      74657220 
 1644 0198 2D736563 		.ascii	"-sections -fdata-sections -fno-common -flto\000"
 1644      74696F6E 
 1644      73202D66 
 1644      64617461 
 1644      2D736563 
 1645              	.LASF17:
 1646 01c4 75696E74 		.ascii	"uint32_t\000"
 1646      33325F74 
 1646      00
 1647              	.LASF67:
 1648 01cd 73656D61 		.ascii	"semaphore_t\000"
 1648      70686F72 
 1648      655F7400 
 1649              	.LASF44:
 1650 01d9 63685F74 		.ascii	"ch_thread\000"
 1650      68726561 
 1650      6400
 1651              	.LASF30:
 1652 01e3 6F6C6465 		.ascii	"older\000"
 1652      7200
 1653              	.LASF32:
 1654 01e9 77616261 		.ascii	"wabase\000"
 1654      736500
 1655              	.LASF3:
 1656 01f0 7369676E 		.ascii	"signed char\000"
 1656      65642063 
 1656      68617200 
 1657              	.LASF78:
 1658 01fc 73657475 		.ascii	"setup\000"
 1658      7000
 1659              	.LASF1:
 1660 0202 6C6F6E67 		.ascii	"long long int\000"
 1660      206C6F6E 
 1660      6720696E 
 1660      7400
 1661              	.LASF60:
 1662 0210 77747365 		.ascii	"wtsemp\000"
 1662      6D7000
ARM GAS  /tmp/ccqzpcMt.s 			page 33


 1663              	.LASF22:
 1664 0217 74707269 		.ascii	"tprio_t\000"
 1664      6F5F7400 
 1665              	.LASF98:
 1666 021f 63684775 		.ascii	"chGuardedPoolObjectInit\000"
 1666      61726465 
 1666      64506F6F 
 1666      6C4F626A 
 1666      65637449 
 1667              	.LASF104:
 1668 0237 6E756C6C 		.ascii	"null_provider\000"
 1668      5F70726F 
 1668      76696465 
 1668      7200
 1669              	.LASF10:
 1670 0245 6C6F6E67 		.ascii	"long int\000"
 1670      20696E74 
 1670      00
 1671              	.LASF54:
 1672 024e 706F7274 		.ascii	"port_context\000"
 1672      5F636F6E 
 1672      74657874 
 1672      00
 1673              	.LASF5:
 1674 025b 5F5F7569 		.ascii	"__uint8_t\000"
 1674      6E74385F 
 1674      7400
 1675              	.LASF59:
 1676 0265 73656E74 		.ascii	"sentmsg\000"
 1676      6D736700 
 1677              	.LASF79:
 1678 026d 74656172 		.ascii	"teardown\000"
 1678      646F776E 
 1678      00
 1679              	.LASF27:
 1680 0276 71756575 		.ascii	"queue\000"
 1680      6500
 1681              	.LASF92:
 1682 027c 6F736C69 		.ascii	"oslib_test_007_003_setup\000"
 1682      625F7465 
 1682      73745F30 
 1682      30375F30 
 1682      30335F73 
 1683              	.LASF2:
 1684 0295 6C6F6E67 		.ascii	"long double\000"
 1684      20646F75 
 1684      626C6500 
 1685              	.LASF6:
 1686 02a1 756E7369 		.ascii	"unsigned char\000"
 1686      676E6564 
 1686      20636861 
 1686      7200
 1687              	.LASF65:
 1688 02af 6F776E65 		.ascii	"owner\000"
 1688      7200
 1689              	.LASF62:
 1690 02b5 65776D61 		.ascii	"ewmask\000"
ARM GAS  /tmp/ccqzpcMt.s 			page 34


 1690      736B00
 1691              	.LASF49:
 1692 02bc 70726576 		.ascii	"prev\000"
 1692      00
 1693              	.LASF99:
 1694 02c1 6368506F 		.ascii	"chPoolObjectInit\000"
 1694      6F6C4F62 
 1694      6A656374 
 1694      496E6974 
 1694      00
 1695              	.LASF34:
 1696 02d2 666C6167 		.ascii	"flags\000"
 1696      7300
 1697              	.LASF64:
 1698 02d8 63685F6D 		.ascii	"ch_mutex\000"
 1698      75746578 
 1698      00
 1699              	.LASF96:
 1700 02e1 6F736C69 		.ascii	"oslib_test_007_001_setup\000"
 1700      625F7465 
 1700      73745F30 
 1700      30375F30 
 1700      30315F73 
 1701              	.LASF68:
 1702 02fa 6D757465 		.ascii	"mutex_t\000"
 1702      785F7400 
 1703              	.LASF85:
 1704 0302 6F736C69 		.ascii	"oslib_test_sequence_007\000"
 1704      625F7465 
 1704      73745F73 
 1704      65717565 
 1704      6E63655F 
 1705              	.LASF70:
 1706 031a 6D656D67 		.ascii	"memgetfunc_t\000"
 1706      65746675 
 1706      6E635F74 
 1706      00
 1707              	.LASF47:
 1708 0327 74687265 		.ascii	"threads_queue_t\000"
 1708      6164735F 
 1708      71756575 
 1708      655F7400 
 1709              	.LASF8:
 1710 0337 73686F72 		.ascii	"short unsigned int\000"
 1710      7420756E 
 1710      7369676E 
 1710      65642069 
 1710      6E7400
 1711              	.LASF66:
 1712 034a 63686172 		.ascii	"char\000"
 1712      00
 1713              	.LASF88:
 1714 034f 6F736C69 		.ascii	"oslib_test_007_001\000"
 1714      625F7465 
 1714      73745F30 
 1714      30375F30 
 1714      303100
ARM GAS  /tmp/ccqzpcMt.s 			page 35


 1715              	.LASF89:
 1716 0362 6F736C69 		.ascii	"oslib_test_007_002\000"
 1716      625F7465 
 1716      73745F30 
 1716      30375F30 
 1716      303200
 1717              	.LASF90:
 1718 0375 6F736C69 		.ascii	"oslib_test_007_003\000"
 1718      625F7465 
 1718      73745F30 
 1718      30375F30 
 1718      303300
 1719              	.LASF16:
 1720 0388 696E7433 		.ascii	"int32_t\000"
 1720      325F7400 
 1721              	.LASF72:
 1722 0390 6F626A65 		.ascii	"object_size\000"
 1722      63745F73 
 1722      697A6500 
 1723              	.LASF25:
 1724 039c 636E745F 		.ascii	"cnt_t\000"
 1724      7400
 1725              	.LASF40:
 1726 03a2 7265616C 		.ascii	"realprio\000"
 1726      7072696F 
 1726      00
 1727              	.LASF69:
 1728 03ab 5F426F6F 		.ascii	"_Bool\000"
 1728      6C00
 1729              	.LASF102:
 1730 03b1 2F686F6D 		.ascii	"/home/iamprithvishetty/CDSpace/mmc3416_test2\000"
 1730      652F6961 
 1730      6D707269 
 1730      74687669 
 1730      73686574 
 1731              	.LASF74:
 1732 03de 70726F76 		.ascii	"provider\000"
 1732      69646572 
 1732      00
 1733              	.LASF50:
 1734 03e7 73797369 		.ascii	"sysinterval_t\000"
 1734      6E746572 
 1734      76616C5F 
 1734      7400
 1735              	.LASF75:
 1736 03f5 6D656D6F 		.ascii	"memory_pool_t\000"
 1736      72795F70 
 1736      6F6F6C5F 
 1736      7400
 1737              	.LASF13:
 1738 0403 5F5F7569 		.ascii	"__uint64_t\000"
 1738      6E743634 
 1738      5F7400
 1739              	.LASF97:
 1740 040e 73697A65 		.ascii	"size\000"
 1740      00
 1741              	.LASF35:
ARM GAS  /tmp/ccqzpcMt.s 			page 36


 1742 0413 72656673 		.ascii	"refs\000"
 1742      00
 1743              	.LASF84:
 1744 0418 74657374 		.ascii	"test_step\000"
 1744      5F737465 
 1744      7000
 1745              	.LASF71:
 1746 0422 706F6F6C 		.ascii	"pool_header\000"
 1746      5F686561 
 1746      64657200 
 1747              	.LASF12:
 1748 042e 6C6F6E67 		.ascii	"long unsigned int\000"
 1748      20756E73 
 1748      69676E65 
 1748      6420696E 
 1748      7400
 1749              	.LASF58:
 1750 0440 77747472 		.ascii	"wttrp\000"
 1750      7000
 1751              	.LASF63:
 1752 0446 63685F73 		.ascii	"ch_semaphore\000"
 1752      656D6170 
 1752      686F7265 
 1752      00
 1753              	.LASF53:
 1754 0453 706F7274 		.ascii	"port_intctx\000"
 1754      5F696E74 
 1754      63747800 
 1755              	.LASF9:
 1756 045f 5F5F696E 		.ascii	"__int32_t\000"
 1756      7433325F 
 1756      7400
 1757              	.LASF73:
 1758 0469 616C6967 		.ascii	"align\000"
 1758      6E00
 1759              	.LASF29:
 1760 046f 6E657765 		.ascii	"newer\000"
 1760      7200
 1761              	.LASF95:
 1762 0475 6F736C69 		.ascii	"oslib_test_007_001_execute\000"
 1762      625F7465 
 1762      73745F30 
 1762      30375F30 
 1762      30315F65 
 1763              	.LASF42:
 1764 0490 74687265 		.ascii	"thread_reference_t\000"
 1764      61645F72 
 1764      65666572 
 1764      656E6365 
 1764      5F7400
 1765              	.LASF57:
 1766 04a3 77746F62 		.ascii	"wtobjp\000"
 1766      6A7000
 1767              	.LASF20:
 1768 04aa 74737461 		.ascii	"tstate_t\000"
 1768      74655F74 
 1768      00
ARM GAS  /tmp/ccqzpcMt.s 			page 37


 1769              	.LASF52:
 1770 04b3 73746B61 		.ascii	"stkalign_t\000"
 1770      6C69676E 
 1770      5F7400
 1771              	.LASF56:
 1772 04be 65786974 		.ascii	"exitcode\000"
 1772      636F6465 
 1772      00
 1773              	.LASF41:
 1774 04c7 6D706F6F 		.ascii	"mpool\000"
 1774      6C00
 1775              	.LASF48:
 1776 04cd 63685F74 		.ascii	"ch_threads_queue\000"
 1776      68726561 
 1776      64735F71 
 1776      75657565 
 1776      00
 1777              	.LASF94:
 1778 04de 6F736C69 		.ascii	"oslib_test_007_002_execute\000"
 1778      625F7465 
 1778      73745F30 
 1778      30375F30 
 1778      30325F65 
 1779              	.LASF86:
 1780 04f9 6F626A65 		.ascii	"objects\000"
 1780      63747300 
 1781              	.LASF81:
 1782 0501 74657374 		.ascii	"testcase_t\000"
 1782      63617365 
 1782      5F7400
 1783              	.LASF80:
 1784 050c 65786563 		.ascii	"execute\000"
 1784      75746500 
 1785              	.LASF91:
 1786 0514 6F736C69 		.ascii	"oslib_test_007_003_execute\000"
 1786      625F7465 
 1786      73745F30 
 1786      30375F30 
 1786      30335F65 
 1787              	.LASF36:
 1788 052f 77616974 		.ascii	"waiting\000"
 1788      696E6700 
 1789              	.LASF101:
 1790 0537 2E2F4368 		.ascii	"./ChibiOS_20.3.0/test/oslib/source/test/oslib_test_"
 1790      6962694F 
 1790      535F3230 
 1790      2E332E30 
 1790      2F746573 
 1791 056a 73657175 		.ascii	"sequence_007.c\000"
 1791      656E6365 
 1791      5F303037 
 1791      2E6300
 1792              	.LASF83:
 1793 0579 74657374 		.ascii	"testsequence_t\000"
 1793      73657175 
 1793      656E6365 
 1793      5F7400
ARM GAS  /tmp/ccqzpcMt.s 			page 38


 1794              	.LASF0:
 1795 0588 756E7369 		.ascii	"unsigned int\000"
 1795      676E6564 
 1795      20696E74 
 1795      00
 1796              	.LASF55:
 1797 0595 7264796D 		.ascii	"rdymsg\000"
 1797      736700
 1798              	.LASF23:
 1799 059c 6D73675F 		.ascii	"msg_t\000"
 1799      7400
 1800              	.LASF28:
 1801 05a2 7072696F 		.ascii	"prio\000"
 1801      00
 1802              	.LASF46:
 1803 05a7 6E657874 		.ascii	"next\000"
 1803      00
 1804              	.LASF61:
 1805 05ac 77746D74 		.ascii	"wtmtxp\000"
 1805      787000
 1806              	.LASF21:
 1807 05b3 74726566 		.ascii	"trefs_t\000"
 1807      735F7400 
 1808              	.LASF43:
 1809 05bb 74687265 		.ascii	"threads_list_t\000"
 1809      6164735F 
 1809      6C697374 
 1809      5F7400
 1810              		.text
 1811              		.section	.gnu.lto_.profile.5c7148a491b7e67c,"e",%progbits
 1812 0000 789C6362 		.ascii	"x\234cb\000\001\000\000\022\000\003"
 1812      00010000 
 1812      120003
 1813              		.text
 1814              		.section	.gnu.lto_.icf.5c7148a491b7e67c,"e",%progbits
 1815 0000 789C8B61 		.ascii	"x\234\213a@\000~\206i\323\367/ea\274\367\347\363\006"
 1815      40007E86 
 1815      69D3F72F 
 1815      6561BCF7 
 1815      E7F306
 1816 0013 16E6675B 		.ascii	"\026\346g[v\337bbYp\370D\0033+\230d[\273\375\3134^\366"
 1816      76DF6262 
 1816      5970F844 
 1816      03332B98 
 1816      645BBBFD 
 1817 002b 058FE674 		.ascii	"\005\217\346tqq\334[0q\003/\347\215\367\307\3563q\335"
 1817      7171DC5B 
 1817      3071032F 
 1817      E78DF7C7 
 1817      EE3371DD 
 1818 003f B9386923 		.ascii	"\2718i#\037\367\336\333K\347q\362\334\236;\345\0323"
 1818      1FF7DEDB 
 1818      4BE771F2 
 1818      DC9E3BE5 
 1818      1A33
 1819 0051 EF9AEF1F 		.ascii	"\357\232\357\037:X\370:w\237\332\300\310\377r\315\302"
 1819      3A58F83A 
ARM GAS  /tmp/ccqzpcMt.s 			page 39


 1819      779FDAC0 
 1819      C8FF72CD 
 1819      C2
 1820 0062 AB4C0C00 		.ascii	"\253L\014\000A\224-\036"
 1820      41942D1E 
 1821              		.text
 1822              		.section	.gnu.lto_.ipa_sra.5c7148a491b7e67c,"e",%progbits
 1823 0000 789C0B67 		.ascii	"x\234\013g@\000v\006& \311\010\302\314\214\014 \310"
 1823      40007606 
 1823      2620C908 
 1823      C2CC8C0C 
 1823      20C8
 1824 0012 C002A258 		.ascii	"\300\002\242XA\004\033D\000\014\030\341Z\0309\240\302"
 1824      41041B44 
 1824      000C18E1 
 1824      5A1839A0 
 1824      C2
 1825 0023 48420816 		.ascii	"HB\010\026\027X\022\000.\236\000\231"
 1825      17581200 
 1825      2E9E0099 
 1826              		.text
 1827              		.section	.gnu.lto_.inline.5c7148a491b7e67c,"e",%progbits
 1828 0000 789C7BC8 		.ascii	"x\234{\310\310\000\007\354\014\014\314\015@\300\224"
 1828      C80007EC 
 1828      0C0CCC0D 
 1828      40C094
 1829 000f C2C8C0C4 		.ascii	"\302\310\300\304\300\320\010d\32610\260A\204\230@B\014"
 1829      C0D00864 
 1829      D63130B0 
 1829      41849840 
 1829      420C
 1830 0021 8C0C3C40 		.ascii	"\214\014<@\336\005\346t\240\012\026\210\004\232\012"
 1830      DE05E674 
 1830      A00A1688 
 1830      049A0A
 1831 0030 661E20C1 		.ascii	"f\036 \3014\301\217\201\205\027\304```a`\007J?`N\303"
 1831      34C18F81 
 1831      8517C460 
 1831      60606160 
 1831      074A3F60 
 1832 0046 69285825 		.ascii	"i(X%3\020\263\022\257\224\215\341\020\303\247-s~0g\001"
 1832      3310B312 
 1832      AF948DE1 
 1832      10C3A72D 
 1832      737E3067 
 1833 005b D51A6D5C 		.ascii	"\325\032m\\\320\371\233)\203\240Kx\031a\002\214`\001"
 1833      D0F99B29 
 1833      83A04B78 
 1833      1961028C 
 1833      6001
 1834 006d 661E303D 		.ascii	"f\0360=\301\017\242\002\237R\270\305\034\014\347\030"
 1834      C10FA202 
 1834      9F52B8C5 
 1834      1C0CE718 
 1835 007d B6DD3CFD 		.ascii	"\266\335<\375\037l\261\325\327\245\027[\231qZ\014f0"
 1835      1F6CB1D5 
 1835      D7A5175B 
ARM GAS  /tmp/ccqzpcMt.s 			page 40


 1835      99715A0C 
 1835      6630
 1836 008f 32B0F281 		.ascii	"2\260\362\201\\\316\000s>\222\014\334\032\260K\030\261"
 1836      5CCE0073 
 1836      3E920CDC 
 1836      1AB04B18 
 1836      B1
 1837 00a0 38088742 		.ascii	"8\010\207B\270s\270\0308\300V\247\343\0142\204\355\014"
 1837      B873B818 
 1837      38C056A7 
 1837      E30C3284 
 1837      ED0C
 1838 00b2 00C85B48 		.ascii	"\000\310[HS"
 1838      53
 1839              		.text
 1840              		.section	.gnu.lto_.jmpfuncs.5c7148a491b7e67c,"e",%progbits
 1841 0000 789CB553 		.ascii	"x\234\265SKN\3030\020\235\027;q\004\213\212%\013\244"
 1841      4B4EC330 
 1841      109D173B 
 1841      71048B8A 
 1841      250BA4
 1842 0013 70895E84 		.ascii	"p\211^\204+\324\213J\244\251L@\352\005z\000\016\320"
 1842      2BD48B4A 
 1842      A4A94C40 
 1842      EA057A00 
 1842      0ED0
 1843 0025 55165C00 		.ascii	"U\026\\\000\204X\240\036\247G\350\002\311\370\203\250"
 1843      8458A01E 
 1843      A747E802 
 1843      C9F883A8 
 1844 0035 9BCA6E4B 		.ascii	"\233\312nKi$+\236y3\317\363\275\313\211\206\344?A\031"
 1844      69242B9E 
 1844      7933CFF3 
 1844      BDCB8986 
 1844      E43F4119 
 1845 0049 40D4317B 		.ascii	"@\3241{\354\215\023a\311A\346\200\330-\346e\307\262"
 1845      EC8D1361 
 1845      C941E680 
 1845      D82DE665 
 1845      C7B2
 1846 005b 5FD597D6 		.ascii	"_\325\227\326z\200\354\231u\314X\373\237\266:\316^\030"
 1846      7A80EC99 
 1846      75CC58FB 
 1846      9FB63ACE 
 1846      5E18
 1847 006d F5CDF00A 		.ascii	"\365\315\360\012\274yk\216\225p\360JX\033\373L\261\307"
 1847      BC796B8E 
 1847      9570F04A 
 1847      581BFB4C 
 1847      B1C7
 1848 007f 05E00EE5 		.ascii	"\005\340\016\345\316!\303;\0021O\373o\033\367\304\342"
 1848      CE21C33B 
 1848      02314FFB 
 1848      6F1BF7C4 
 1848      E2
 1849 0090 C02C3DD7 		.ascii	"\300,=\327\376\3146\350\016\361\225%\316\217'\306\007"
 1849      FECC36E8 
ARM GAS  /tmp/ccqzpcMt.s 			page 41


 1849      0EF19525 
 1849      CE8F27C6 
 1849      07
 1850 00a1 42D2B865 		.ascii	"B\322\270eD\375O\371\365\3028Gn\211.\032\004\211\302"
 1850      44FD4FF9 
 1850      F5C23847 
 1850      6E892E1A 
 1850      0489C2
 1851 00b4 D3D67C94 		.ascii	"\323\326|\224;\361\335\330\370\212\010\201\341\216\324"
 1851      3BF1DDD8 
 1851      F88A0881 
 1851      E18ED4
 1852 00c3 A38C43E9 		.ascii	"\243\214C\351\261b\213 \021\275Y\024\341\027E\374,\312"
 1852      B1628B20 
 1852      11BD5914 
 1852      E11745FC 
 1852      2CCA
 1853 00d5 E19D4904 		.ascii	"\341\235I\004yD+R,q\350\364\271:{\364E\034JL\016>\303"
 1853      79442B52 
 1853      2C71E8F4 
 1853      B93A7BF4 
 1853      451C4A4C 
 1854 00ec 9E5D98C1 		.ascii	"\236]\230\301\371k\277]s\313\240Rk\353K4\270\037?\264"
 1854      F96BBF5D 
 1854      73CBA052 
 1854      6BEB4B34 
 1854      B81F3FB4 
 1855 0100 D5A4692B 		.ascii	"\325\244i+YO\333\031]:\331\337\257\247\252y\032\217"
 1855      594FDB19 
 1855      5D3AD9DF 
 1855      AFA7AA79 
 1855      1A8F
 1856 0112 A4AA946C 		.ascii	"\244\252\224l\037\325D\216\252Z\326\215\232\3217\274"
 1856      1FD5448E 
 1856      AA5AD68D 
 1856      9AD137BC 
 1857 0122 6060DB   		.ascii	"``\333"
 1858              		.text
 1859              		.section	.gnu.lto_.pureconst.5c7148a491b7e67c,"e",%progbits
 1860 0000 789C1363 		.ascii	"x\234\023c```gh`a\234\301\3022\203\205u\006\013\333"
 1860      60606067 
 1860      6860619C 
 1860      C1C23283 
 1860      8575060B 
 1861 0015 0C168E19 		.ascii	"\014\026\216\031,\\3X\0000\356\004l"
 1861      2C5C3358 
 1861      0030EE04 
 1861      6C
 1862              		.text
 1863              		.section	.gnu.lto_.lto.5c7148a491b7e67c,"e",%progbits
 1864 0000 09000200 		.ascii	"\011\000\002\000\001\000\000\000"
 1864      01000000 
 1865              		.text
 1866              		.section	.gnu.lto_mp1.353.5c7148a491b7e67c,"e",%progbits
 1867 0000 789CB363 		.ascii	"x\234\263c```d\200\2009\314\214\223\230\2270\003\371"
 1867      60606064 
 1867      808039CC 
ARM GAS  /tmp/ccqzpcMt.s 			page 42


 1867      8C939897 
 1867      3003F9
 1868 0013 50162323 		.ascii	"P\026##\013\224\305\304\310`\331\324\321 \260\204\231"
 1868      0B94C5C4 
 1868      C860D9D4 
 1868      D120B084 
 1868      99
 1869 0024 792E50C1 		.ascii	"y.P\3016\306\271@\311\255@\222\011L23nad\000\000\302"
 1869      36C6B940 
 1869      C9AD4092 
 1869      094C3233 
 1869      6E616400 
 1870 003a F10DBD   		.ascii	"\361\015\275"
 1871              		.text
 1872              		.section	.gnu.lto_gmp1.354.5c7148a491b7e67c,"e",%progbits
 1873 0000 789C6D8E 		.ascii	"x\234m\216\275N\3030\020\200\357z\011\015\033#/AlZ\004"
 1873      BD4EC330 
 1873      1080EF7A 
 1873      090D1B23 
 1873      2F416C5A 
 1874 0015 62A5EC0C 		.ascii	"b\245\354\014}\200\250\215,\305\022iJ\354\"\261E\021"
 1874      7D80A88D 
 1874      2CC51269 
 1874      4AEC22B1 
 1874      4511
 1875 0027 033333D9 		.ascii	"\00333\3312\360\000\374S\332\276\000o\004\022W\323P"
 1875      32F000FC 
 1875      53DABE00 
 1875      6F041257 
 1875      D350
 1876 0039 867A389D 		.ascii	"\206z8\235>\177\237\345o\000\310\341\367\334\021\336"
 1876      3E7F9FE5 
 1876      6F00C8E1 
 1876      F7DC11DE 
 1877 0049 524D80CD 		.ascii	"RM\200\315\206\350\255\266\226c\307\345M\261S\023U\354"
 1877      86E8ADB6 
 1877      9663C7E5 
 1877      4DB15313 
 1877      55EC
 1878 005b 3C61C5F7 		.ascii	"<a\305\367\217<[n\022>\340J\366\234,\213\242\370*?\247"
 1878      8F3C5B6E 
 1878      123EE04A 
 1878      F69C2C8B 
 1878      A2F82A3F 
 1879 0070 BB35F9F7 		.ascii	"\2735\371\367\004\025y\320\340\240\246-|\345\310w\350"
 1879      041579D0 
 1879      E0A0A62D 
 1879      7CE5C877 
 1879      E8
 1880 0081 1A4BC7DA 		.ascii	"\032K\307\332\370\206\377\224\215\325tC\365\361\367"
 1880      F886FF94 
 1880      8DD57443 
 1880      F5F1F7
 1881 0090 B9A552B1 		.ascii	"\271\245R\2615c\253\215\357\270\306>g8g\034\340K\303"
 1881      3563AB8D 
 1881      EFB8C63E 
 1881      6738671C 
ARM GAS  /tmp/ccqzpcMt.s 			page 43


 1881      E04BC3
 1882 00a3 027E1D17 		.ascii	"\002~\035\027\314\266\361\031aO$Y\252\204\036\244\343"
 1882      CCB6F119 
 1882      614F2459 
 1882      AA841EA4 
 1882      E3
 1883 00b4 5CDBE452 		.ascii	"\\\333\344R\233DY{%z\247\375\361 V\"M\343\356\301\376"
 1883      9B44597B 
 1883      257AA7FD 
 1883      F1205622 
 1883      4DE3EEC1 
 1884 00c9 616495B1 		.ascii	"ad\225\261\0358\011E/\321C}\326\217:2\354\206R,\271"
 1884      1D380945 
 1884      2FD1437D 
 1884      D68F3A32 
 1884      EC86522C 
 1885 00de C8CCB91E 		.ascii	"\310\314\271\036\012\223Mr.\326\304E\221Q\027\0235\212"
 1885      0A934D72 
 1885      2ED6C445 
 1885      91511713 
 1885      358A
 1886 00f0 5524E551 		.ascii	"U$\345Q\030\303\017z\177f\233"
 1886      18C30F7A 
 1886      7F669B
 1887              		.text
 1888              		.section	.gnu.lto_null_provider.355.5c7148a491b7e67c,"e",%progbits
 1889 0000 789C758F 		.ascii	"x\234u\217=O\002A\020\206gn\017\214\005\377\301\204"
 1889      3D4F0241 
 1889      1086676E 
 1889      0F8C05FF 
 1889      C184
 1890 0012 4463E1ED 		.ascii	"Dc\341\355\011\210\026\026F\354-\370\001\0278Wo\023"
 1890      09881616 
 1890      46EC2DF8 
 1890      01173857 
 1890      6F13
 1891 0024 0E903B0C 		.ascii	"\016\220;\014\332\260\230\330\320 \330\030C\214&\024"
 1891      DAB098D8 
 1891      D020D818 
 1891      438C2614 
 1892 0034 76361835 		.ascii	"v6\03056\327\033\343GoccBaae\201\037{\007\011ZX\274"
 1892      36D71BE3 
 1892      476F6363 
 1892      42616165 
 1892      811F7B07 
 1893 004c 999D779E 		.ascii	"\231\235w\236wv\367\015\000N\245&\245\220\000\266\232"
 1893      7776F70D 
 1893      004EA526 
 1893      A59000B6 
 1893      9A
 1894 005d 75058410 		.ascii	"u\005\204\020Kc\012\326\232\365\373\303\256\2127\030"
 1894      4B630AD6 
 1894      9AF5FBC3 
 1894      AE8A3718 
 1895 006d 18085505 		.ascii	"\030\010U\005\253x@\332\004[\244#auxB\234\230\366\204"
 1895      AB7840DA 
 1895      045BA423 
ARM GAS  /tmp/ccqzpcMt.s 			page 44


 1895      61757842 
 1895      9C98F684 
 1896 0081 F8D83BEA 		.ascii	"\370\330;\352/\266\317<\265C\0248\226\363\013\304.\312"
 1896      2FB6CF3C 
 1896      B5431438 
 1896      96F30BC4 
 1896      2ECA
 1897 0093 C52039E2 		.ascii	"\305 9\342\300\224d\036n\257\204\030\207\016!x\211\277"
 1897      C094641E 
 1897      6EAF8418 
 1897      870E2178 
 1897      89BF
 1898 00a5 1869541E 		.ascii	"\030iT\036#>\327\306\001\330\033\202*^\377\005\325\312"
 1898      233ED7C6 
 1898      01D81B82 
 1898      2A5EFF05 
 1898      D5CA
 1899 00b7 7304200C 		.ascii	"s\004 \014\376\025\376\253\245\316\237B\236\350\177"
 1899      FE15FEAB 
 1899      A5CE9F42 
 1899      9EE87F
 1900 00c6 3784B87B 		.ascii	"7\204\270{\305zT\001h\020\377\027BE\341\001\354\023"
 1900      C57A5401 
 1900      6810FF17 
 1900      4245E101 
 1900      EC13
 1901 00d8 65D0D464 		.ascii	"e\320\324d\323C\361\362\031\011\312\027\006\245\025"
 1901      D343F1F2 
 1901      1909CA17 
 1901      06A515
 1902 00e7 8677DC3D 		.ascii	"\206w\334=\231C\315\337\327 8J\002\314P\253`3\3123v"
 1902      9943CDDF 
 1902      D720384A 
 1902      02CC50AB 
 1902      6033CA33 
 1903 00fc B1C45D6B 		.ascii	"\261\304]k\213;\026s\335m\232ZI\0273&\243\266m\306\023"
 1903      8B3B1673 
 1903      DD6D9A5A 
 1903      49173326 
 1903      A3B66DC6 
 1904 0111 B349C365 		.ascii	"\263I\303e\216\033\203e\215\246,\236\345\253i#\246k"
 1904      8E1B8365 
 1904      8DA62C9E 
 1904      E5AB6923 
 1904      A66B
 1905 0123 714DA7BE 		.ascii	"qM\247\276O\013N\216g\251S(\227db\344\004!\303a\233"
 1905      4F0B4E8E 
 1905      67A95328 
 1905      976462E4 
 1905      0421C361 
 1906 0138 65963799 		.ascii	"e\2267\231\241\353\363\232\011\252\303wX\364\337\271"
 1906      A1EBF39A 
 1906      09AAC377 
 1906      58F4DFB9 
 1907 0148 6626B3FA 		.ascii	"f&\263\372zbm\001B\231\034\337\310\377\000v\342\213"
 1907      7A626D01 
 1907      42991CDF 
ARM GAS  /tmp/ccqzpcMt.s 			page 45


 1907      C8FF0076 
 1907      E28B
 1908 015a 19       		.ascii	"\031"
 1909              		.text
 1910              		.section	.gnu.lto_oslib_test_007_001_setup.356.5c7148a491b7e67c,"e",%progbits
 1911 0000 789C7592 		.ascii	"x\234u\222\313k\023Q\024\306\3177w\362Z\350V\260\233"
 1911      CB6B1351 
 1911      14C6CF37 
 1911      77F25AE8 
 1911      56B09B
 1912 0013 40117161 		.ascii	"@\021qa&}P\305\225Xq\353\242\177@h&#\031\310tb&)\350"
 1912      267D50C5 
 1912      955871EB 
 1912      A27F4068 
 1912      262319C8 
 1913 002c A6B7B1A1 		.ascii	"\246\267\261\241P\027\261-\270\320P\024C\350\242\340"
 1913      5017B12D 
 1913      B8D05014 
 1913      43E8A2E0 
 1914 003c AA9A9A5A 		.ascii	"\252\232\232Z\323j\213/T\334\210PT\\\211\033\213n|\327"
 1914      D36A8B2F 
 1914      54DC8850 
 1914      545C891B 
 1914      8B6E7CD7 
 1915 0050 7BEFA424 		.ascii	"{\357\244$`;\3140\347\273\363\235\337w\347\314,hDo\210"
 1915      603BCC30 
 1915      E7BBF39D 
 1915      DF77E7CC 
 1915      2C68446F 
 1916 0065 A85B5C60 		.ascii	"\250[\\`\204\231\351)\2158\347'C\032\306\247\247\"X"
 1916      8499E929 
 1916      8D38E727 
 1916      431AC6A7 
 1916      A72258
 1917 0078 8452A031 		.ascii	"\204R\2401\015c\230eG\204\374^\272\326\270\025\342\363"
 1917      0D639865 
 1917      4784FC5E 
 1917      BAD6B815 
 1917      E2F3
 1918 008a 4D5419D1 		.ascii	"MT\031\321\234\270ZG\260\245PaP5p\007$\304\014\253\212"
 1918      9CB85A47 
 1918      B0A55061 
 1918      50357007 
 1918      24C40CAB 
 1919 009f 5A6F551A 		.ascii	"ZoU\032\242\242b\236|r\270)x\233\223\177J]\025\336\324"
 1919      A2A2629E 
 1919      7C72B829 
 1919      789B937F 
 1919      4A5D15DE 
 1920 00b4 AB8C6109 		.ascii	"\253\214a\011\262\257\016\334\005\341\236\210`5\334"
 1920      B2AF0EDC 
 1920      05E19E88 
 1920      6035DC
 1921 00c3 DC2FAC87 		.ascii	"\334/\254\207\244\365\325\333\353'\204s\"\272c\245\266"
 1921      A4F5D5DB 
 1921      EB278473 
 1921      22BA63A5 
ARM GAS  /tmp/ccqzpcMt.s 			page 46


 1921      B6
 1922 00d4 55244BEE 		.ascii	"U$K\356St\200\377\226\016\370`\035\313\235\340\373\002"
 1922      537480FF 
 1922      960EF860 
 1922      1DCB9DE0 
 1922      FB02
 1923 00e6 ACD7B0B0 		.ascii	"\254\327\260\260\033\330\267R\333\332\002\277\354\004"
 1923      1BD8B752 
 1923      DBDA02BF 
 1923      EC04
 1924 00f4 6FAF1FF4 		.ascii	"o\257\037\364\301\001<\350\004\313\241\004j\250\357"
 1924      C1013CE8 
 1924      04CBA104 
 1924      6AA8EF
 1925 0103 06F6ADD4 		.ascii	"\006\366\255\324\266\372\340\240\230i\375]\017V\201"
 1925      B6FAE0A0 
 1925      9869FD5D 
 1925      0F5681
 1926 0112 15A0219E 		.ascii	"\025\240!\236,J\242\034'\326\324\010\245\361\366\353"
 1926      2C4AA21C 
 1926      27D6D408 
 1926      A5F1F6EB 
 1927 0122 4093FFDE 		.ascii	"@\223\377\336.s\376\276ks\371KX\014\272\314\344\267"
 1927      2E73FEBE 
 1927      6B73F94B 
 1927      580CBACC 
 1927      E4B7
 1928 0134 E23A7893 		.ascii	"\342:x\223\350\012\323|qI\210\317\340\037\177l@\334"
 1928      E80AD37C 
 1928      714988CF 
 1928      E01F7F6C 
 1928      40DC
 1929 0146 8B51416C 		.ascii	"\213QAl\015\236\251\027\230\200&\312y\246\262k\240*"
 1929      0D9EA917 
 1929      988026CA 
 1929      79A6B26B 
 1929      A02A
 1930 0158 0B621D78 		.ascii	"\013b\035x\004\232@\221\363\260\364m@\354\301\357^Q"
 1930      049A4091 
 1930      F3B0F46D 
 1930      40ECC1EF 
 1930      5E51
 1931 016a AD21E8BE 		.ascii	"\255!\350\276\\U2\000\225\361m\251\374\363\362U\210"
 1931      5C553200 
 1931      95F16DA9 
 1931      FCF3F255 
 1931      88
 1932 017b 5DAAC4D9 		.ascii	"]\252\304\331\027\021<\004ma2J*%<'>\366\332\236\251"
 1932      17113C04 
 1932      6D61324A 
 1932      2A253C27 
 1932      3EF6DA9E 
 1933 0190 CFDAA995 		.ascii	"\317\332\251\225O[\373d\360s\031\214\307\352|\"F\031"
 1933      4F5BFB64 
 1933      F073198C 
 1933      C7EA7C22 
 1933      4619
ARM GAS  /tmp/ccqzpcMt.s 			page 47


 1934 01a2 91A93734 		.ascii	"\221\25174\271\330P\231jG\264\263\027\242\257(~\370"
 1934      B9D85099 
 1934      6A47B4B3 
 1934      17A2AF28 
 1934      7EF8
 1935 01b4 7546FD7E 		.ascii	"uF\375~e\006\177\002\305\246\224G\215\264\353X\206="
 1935      65067F02 
 1935      C5A69447 
 1935      8DB4EB58 
 1935      863D
 1936 01c6 EC647376 		.ascii	"\354dsv>=j{i+\237\277`\014\236\036\312\016\233\226\341"
 1936      3E3D6A7B 
 1936      692B9FBF 
 1936      600C9E1E 
 1936      CA0E9B96 
 1937 01db 38665F7F 		.ascii	"8f_\177\317@\"oy\371^:\0253\006\323v\322>;\224\350\215"
 1937      CF40226F 
 1937      79F95E3A 
 1937      153306D3 
 1937      76D23E3B 
 1938 01f2 C7FA6271 		.ascii	"\307\372bqC\256\033\256\227\261\223\206\347\026r\242"
 1938      43AE1BAE 
 1938      97B19386 
 1938      E71672A2 
 1939 0202 A3BDA29A 		.ascii	"\243\275\242\232\022\236u\276`\215\230V\"\036?\0263"
 1939      129E75BE 
 1939      608D9856 
 1939      221E3F16 
 1939      33
 1940 0213 4973B2C6 		.ascii	"Is\262\306\177\024\327k1\354\0213SHY\206\231v,'\353"
 1940      7F14D76B 
 1940      31EC1133 
 1940      53485986 
 1940      99762C27 
 1941 0228 BA192F96 		.ascii	"\272\031/\226\246\356=i1s \031?\327\237:N\272g_\264"
 1941      A6EE3D69 
 1941      31732019 
 1941      3FD79F3A 
 1941      4EBA675F 
 1942 023d C2D99C3B 		.ascii	"\302\331\234;j\247\254\334?\276\275\034z"
 1942      6AA7ACDC 
 1942      3FBEBD1C 
 1942      7A
 1943              		.text
 1944              		.section	.gnu.lto_oslib_test_007_001_execute.357.5c7148a491b7e67c,"e",%progbits
 1945 0000 789C8556 		.ascii	"x\234\205V}lSU\024\277\347\335\327\357\317M\001a %j"
 1945      7D6C5355 
 1945      14BFE7DD 
 1945      D7EFCF4D 
 1945      01612025 
 1946 0015 984B5827 		.ascii	"\230KX'\020P\243\011\021\3777\221?L\374ga[\315\232l"
 1946      1050A309 
 1946      11FF3791 
 1946      3F4CFC67 
 1946      615BCD9A 
 1947 002a EB5C5B12 		.ascii	"\353\\[\022\374\207\307\326ma\250k\007\003\367A\007"
 1947      FC87C7D6 
ARM GAS  /tmp/ccqzpcMt.s 			page 48


 1947      6D61A86B 
 1947      0703F741 
 1947      07
 1948 003b A5213510 		.ascii	"\245!5\020\025&\002\002R\230sZ@7\220 (:P'\370\201\270"
 1948      15260202 
 1948      5298735A 
 1948      40379020 
 1948      283A5027 
 1949 0052 05DC6073 		.ascii	"\005\334`s\236{__\373Z\366\321l\267\367\334{\316\357"
 1949      9E7B5F5F 
 1949      FB5AF6D1 
 1949      6CB7F7DC 
 1949      7BCEEF
 1950 0065 9CF33BE7 		.ascii	"\234\363;\347\274\276\022\023!6 \344u\374\207\034\002"
 1950      BCBE1213 
 1950      213620E4 
 1950      75FC871C 
 1950      02
 1951 0076 2DA12681 		.ascii	"-\241&\201H\222\264F'@k\250\351\267]\005p\014\270L\205"
 1951      4892B446 
 1951      27406BA8 
 1951      E9B75D05 
 1951      700CB84C 
 1952 008b 58F0105C 		.ascii	"X\360\020\\\356;C\305@\310\372\376\321\223/\210\"\264"
 1952      EE3B43C5 
 1952      40C8FAFE 
 1952      D1932F88 
 1952      22B4
 1953 009d 1E54D435 		.ascii	"\036T\3245B]h\253\200\312C\347\332V\210\015!k{\367\220"
 1953      425D68AB 
 1953      80CA43E7 
 1953      DA56880D 
 1953      216B7BF7 
 1954 00b2 59D472A3 		.ascii	"Y\324r\243?\367^\237#6\206\254\333\177\010\027\210:"
 1954      3FF75E9F 
 1954      233686AC 
 1954      DB7F0817 
 1954      883A
 1955 00c4 686B891C 		.ascii	"hk\211\034|@\271\225\036\205}Kd\004\203\360^\360\320"
 1955      7C40B995 
 1955      1E857D4B 
 1955      640483F0 
 1955      5EF0D0
 1956 00d7 1205A13D 		.ascii	"\022\005\241=x\0038\204\021v\241\376V\015\3271\245\203"
 1956      78033884 
 1956      1176A1FE 
 1956      560DD731 
 1956      A583
 1957 00e9 E844051E 		.ascii	"\350D\005\036\205\031\025\024\014\213\320\241\302\010"
 1957      85191514 
 1957      0C8BD0A1 
 1957      C208
 1958 00f7 2B18566E 		.ascii	"+\030Vn\3268\370\275C\354\302\263\261\256\350b\321\006"
 1958      D638F8BD 
 1958      43ECC2B3 
 1958      B1AEE862 
 1958      D106
ARM GAS  /tmp/ccqzpcMt.s 			page 49


 1959 0109 B196889C 		.ascii	"\261\226\210\234\232\0356\247\322\006\262I\240\242F"
 1959      9A1D36A7 
 1959      D206B249 
 1959      A0A246
 1960 0118 ABD31B8C 		.ascii	"\253\323\033\214&\263\305j\263\303&QC .\202\310\027"
 1960      26B3C56A 
 1960      B3C32651 
 1960      43202E82 
 1960      C817
 1961 012a 92FC1854 		.ascii	"\222\374\030Tg\352\013\313\024\272\333\350\323\010>"
 1961      67EA0BCB 
 1961      14BADBE8 
 1961      D3083E
 1962 0139 5ADF7E6A 		.ascii	"Z\337~j\257N\212\305!J\011\011S\345\226tRh\241Q\012"
 1962      AF4E8AC5 
 1962      214A0909 
 1962      53E59674 
 1962      5268A151 
 1963 014e 20267702 		.ascii	" &w\0028pG\275\354\346\251\270$\335\371\262\256\321"
 1963      387047BD 
 1963      ECE6A9B8 
 1963      24DDF9B2 
 1963      AED1
 1964 0160 1ADCAC8F 		.ascii	"\032\334\254\217R\012G\000-\341\023\200\303\300l\375"
 1964      520A4700 
 1964      2DE11380 
 1964      C3C06CFD 
 1965 0170 1F58B404 		.ascii	"\037X\264\004\216\202\214\007h\240e\330\000\237\002"
 1965      8E828C07 
 1965      68A065D8 
 1965      009F02
 1966 017f B3A66DFC 		.ascii	"\263\246m\374k)\202\214\2166M\324\347uJq1JE8\016LI\206"
 1966      6B29828C 
 1966      8E364DD4 
 1966      E7754A71 
 1966      314A4538 
 1967 0197 81131891 		.ascii	"\201\023\030\221\350\337cM\272\033\355\037\353x\036"
 1967      E8DF634D 
 1967      BA1BED1F 
 1967      EB781E
 1968 01a6 15030E45 		.ascii	"\025\003\016E\223\2445\345x\35195\356\177\365\363d\\"
 1968      93A435E5 
 1968      78E93935 
 1968      EE7FF5F3 
 1968      645C
 1969 01b8 0D7CA6C6 		.ascii	"\015|\246\306=\205\270\032\377\201\251peM\222\326L\342"
 1969      3D85B81A 
 1969      FF81A970 
 1969      654D92D6 
 1969      4CE2
 1970 01ca 0EA87127 		.ascii	"\016\250q'{\027\310\270Z8\255\306=\203\270Z\377\321"
 1970      7B17C8B8 
 1970      5A38ADC6 
 1970      3D83B85A 
 1970      FFD1
 1971 01dc A970654D 		.ascii	"\251peM\222\326\224q\265\214\377K\257B\017@\034\340"
 1971      92D69471 
ARM GAS  /tmp/ccqzpcMt.s 			page 50


 1971      B58CFF4B 
 1971      AF420F40 
 1971      1CE0
 1972 01ee 24DE1C63 		.ascii	"$\336\034c\200\004\311\202\3179Yl\000\220\307\017/h"
 1972      8004C982 
 1972      CF39596C 
 1972      0090C70F 
 1972      2F68
 1973 0200 E2D2F864 		.ascii	"\342\322\370d\263$M\346\3758\276\337\340\004\022\245"
 1973      B3244DE6 
 1973      FD38BEDF 
 1973      E00412A5 
 1974 0210 3A01173D 		.ascii	":\001\027=e\213\310D\015\333i\331\242\303\305\240gg"
 1974      658BC844 
 1974      0DDB69D9 
 1974      A2C3C5A0 
 1974      6767
 1975 0222 06261AD9 		.ascii	"\006&\032\331bb\242\231\355,l\2612\321\306vvV\250\034"
 1975      6262A299 
 1975      ED2C6CB1 
 1975      32D1C676 
 1975      7656A81C 
 1976 0236 B6E4B225 		.ascii	"\266\344\262%\237-\005lY\306+H\232)\371\350\227{\343"
 1976      9F2D056C 
 1976      59C62B48 
 1976      9A29F9E8 
 1976      977BE3
 1977 0249 04A43821 		.ascii	"\004\2448!A*\310B\035\012\277\203t#\324g\300\240\371"
 1977      412AC842 
 1977      1D0ABF83 
 1977      7423D467 
 1977      C0A0F9
 1978 025c 76878EDC 		.ascii	"v\207\216\334\206\332a}\262]\214\234\263\000\010\270"
 1978      86DA617D 
 1978      B25D8C9C 
 1978      B30008B8 
 1979 026c 8D611BEC 		.ascii	"\215a\033\354c1S\350\003\370\002\010S@\346\270]G\237"
 1979      633153E8 
 1979      03F80208 
 1979      5340E6B8 
 1979      5D479F
 1980 027f 40EE4083 		.ascii	"@\356@\203\203p]S\230\012\251\346\023\323\030b\214r"
 1980      83705D53 
 1980      980AA9E6 
 1980      13D31862 
 1980      8C72
 1981 0291 81C398E1 		.ascii	"\201\303\230\341\034\300Y@\213ZI\3223\275\363\200a$"
 1981      1CC05940 
 1981      8B5A49D2 
 1981      33BDF380 
 1981      6124
 1982 02a3 AD2C692B 		.ascii	"\255,i+K\014\321\024++\364\003|\223\264\272\271\210"
 1982      4B0CD114 
 1982      2B2BF403 
 1982      7C93B4BA 
 1982      B988
 1983 02b5 290E3033 		.ascii	")\01603f\243\001,\250\215\307\323\325\307\343\212\274"
ARM GAS  /tmp/ccqzpcMt.s 			page 51


 1983      66A3012C 
 1983      A88DC7D3 
 1983      D5C7E38A 
 1983      BC
 1984 02c6 C6A5C328 		.ascii	"\306\245\303()i=\224\314\267\252d\004\256~\254\217}"
 1984      29693D94 
 1984      CCB7AA64 
 1984      04AE7EAC 
 1984      8F7D
 1985 02d8 D7EE7E0E 		.ascii	"\327\356~\016\271\223\317\331<\004)=\210\303OS\264\035"
 1985      B993CFD9 
 1985      3C04293D 
 1985      88C34F53 
 1985      B41D
 1986 02ea EFA39873 		.ascii	"\357\243\230s\300\021I\202\332\303\224\222\351r\275"
 1986      C0114982 
 1986      DAC39492 
 1986      E972BD
 1987 02f9 9295EB55 		.ascii	"\222\225\353U\026t\224\346`\\u\027\032!B\005\204\201"
 1987      167494E6 
 1987      605C7517 
 1987      1A214205 
 1987      8481
 1988 030b 4204AC47 		.ascii	"B\004\254G@\312!r\303\024\007\035\257\020f\311Uh@\303"
 1988      40CA2172 
 1988      C314071D 
 1988      AF1066C9 
 1988      556840C3 
 1989 031f 4702D0C0 		.ascii	"G\002\320\300\021\036\205k2\302\034r\013\002\267\326"
 1989      111E856B 
 1989      32C21C72 
 1989      0B02B7D6 
 1990 032f A20D0B55 		.ascii	"\242\015\013U\017\362\340\007\2518\320\261\245\216\007"
 1990      0FF2E007 
 1990      A938D0B1 
 1990      A58E07
 1991 033e 2BC8392D 		.ascii	"+\3109-e\256:\033z5\021\272,B\355\360\025c\250\326\201"
 1991      65AE3A1B 
 1991      7A3511BA 
 1991      2C42EDF0 
 1991      1563A8D6 
 1992 0353 39E20137 		.ascii	"9\342\0017aOBId&\2007k\010\277\262s\036/\212\254C\230"
 1992      614F4249 
 1992      64268037 
 1992      6B08BFB2 
 1992      731E2F8A 
 1993 036a A79EB978 		.ascii	"\247\236\271x&\263\302\237B\367\301\016\227AHPD\021"
 1993      26B3C29F 
 1993      42F7C10E 
 1993      97414850 
 1993      4411
 1994 037c 9B4C08A3 		.ascii	"\233L\010\243\355o\353\036\"*\232^\344\337\2472Jri\246"
 1994      ED6FEB1E 
 1994      222A9A5E 
 1994      E4DFA732 
 1994      4A7269A6 
 1995 0390 925C5795 		.ascii	"\222\\W\225\204r\365+\274\277\030\327\342\354\\\377"
ARM GAS  /tmp/ccqzpcMt.s 			page 52


 1995      8472F52B 
 1995      BCBF18D7 
 1995      E2EC5CFF 
 1996 03a0 9AC5F590 		.ascii	"\232\305\365\220\212\353~\3065R \246\270\326fp\255a"
 1996      8AEB7EC6 
 1996      355220A6 
 1996      B8D66670 
 1996      AD61
 1997 03b2 5C0F71AE 		.ascii	"\\\017q\256\347*\\\317\203[Y\\k\341'H\362\254\213\014"
 1997      E72A5CCF 
 1997      835B595C 
 1997      6BE12748 
 1997      F2AC8B0C 
 1998 03c6 267A88C2 		.ascii	"&z\210\302s\344\201<\017\3272\222\035\231)\331?x\262"
 1998      73E4813C 
 1998      0FD73292 
 1998      1D9929D9 
 1998      3F78B2
 1999 03d9 30281BFE 		.ascii	"0(\033\376\253\352=\344\225\273\320OJ\373\337\025\230"
 1999      ABEA3DE4 
 1999      95BBD04F 
 1999      4AFBDF15 
 1999      98
 2000 03ea 0BCA54C6 		.ascii	"\013\312T\306\260\357\020m{S/r\256\233fJ\376\342S\202"
 2000      B0EF106D 
 2000      7B532F72 
 2000      AE9B664A 
 2000      FEE25382 
 2001 03fe F272AC69 		.ascii	"\362r\254i\354\311(}\014nc\3469\010\030`\277M\261\205"
 2001      ECC9287D 
 2001      0C6E63E6 
 2001      39081860 
 2001      BF4DB185 
 2002 0412 F87881BF 		.ascii	"\370x\201\277\321\001\262\260\333&\317\355\3740\325"
 2002      D101B2B0 
 2002      DB26CFED 
 2002      FC30D5
 2003 0421 4CCBEA70 		.ascii	"L\313\352p\026\253#\214\023\014 J\027$#WuX\001\272\312"
 2003      16AB238C 
 2003      130C204A 
 2003      17242357 
 2003      755801BA 
 2004 0436 E8B0029E 		.ascii	"\350\260\002\236\211a\317\365\273\003BV\207\345L\321"
 2004      8961CFF5 
 2004      BB034256 
 2004      87E54CD1 
 2005 0446 61398C0F 		.ascii	"a9\214\017\336]9\310\202\216uW\201\236w\2271\3057\367"
 2005      DE5D39C8 
 2005      828E7557 
 2005      819E7797 
 2005      31C537F7 
 2006 045a 3A9141F4 		.ascii	":\221A\364\266\304\014D\337Uu\225\206\253\357L<L\266"
 2006      B6C40C44 
 2006      DF557595 
 2006      86ABEF4C 
 2006      3C4CB6
 2007 046d E974F359 		.ascii	"\351t\363Y\034-\005\277-\241\014\271~\366\306\033\313"
ARM GAS  /tmp/ccqzpcMt.s 			page 53


 2007      1C2D05BF 
 2007      2DA10CB9 
 2007      7EF6C61B 
 2007      CB
 2008 047e A2E87EF6 		.ascii	"\242\350~\366\220\033\020&\325x\306\214\3063L9\344\023"
 2008      901B1026 
 2008      D578C68C 
 2008      C6334C39 
 2008      E413
 2009 0490 598D674C 		.ascii	"Y\215gL7\2369\264\255{\000R\003\2763\241\242??Bs3\350"
 2009      379E39B4 
 2009      AD7B0052 
 2009      03BE33A1 
 2009      A23F3F42 
 2010 04a7 CFE72696 		.ascii	"\317\347&\226\217G&\266g\323\237;\005\375\271)\372s"
 2010      8F4726B6 
 2010      67D39F3B 
 2010      05FDB929 
 2010      FA73
 2011 04b9 911723A3 		.ascii	"\221\027#\243?\337\314\351\267\016\377|h\265\212\035"
 2011      3FDFCCE9 
 2011      B70EFF7C 
 2011      68B58A1D 
 2012 04c9 79B67725 		.ascii	"y\266w%\324U\350\236\251\012\223\252*h\271\372\221\204"
 2012      D455E89E 
 2012      A90A93AA 
 2012      2A68B9FA 
 2012      9184
 2013 04db 32DBA6D9 		.ascii	"2\333\246\331)\256\0232)\016\010Y\263mF\230\024\305"
 2013      29AE1332 
 2013      290E0859 
 2013      B36D4698 
 2013      14C5
 2014 04ed 960C8ACD 		.ascii	"\226\014\212\315S\316v\243\220I\261%M\261\355\374\370"
 2014      53CE76A3 
 2014      9049B125 
 2014      4DB1EDFC 
 2014      F8
 2015 04fe 96BCECD1 		.ascii	"\226\274\354\321>\236\221\353\305\231r\335\"\244s\325"
 2015      3E9E91EB 
 2015      C59972DD 
 2015      22A473D5 
 2016 050e 71F5CB72 		.ascii	"q\365\313r\3079\360Ea\232\004\337\316J\360\035A\376"
 2016      C739F045 
 2016      619A04DF 
 2016      CE4AF01D 
 2016      41FE
 2017 0520 6D461B7C 		.ascii	"mF\033|\277\030Ln{@\321\310\013\343\323H\376\365\036"
 2017      BF184C6E 
 2017      7B40D1C8 
 2017      0BE3D348 
 2017      FEF51E
 2018 0533 F9A7F5FE 		.ascii	"\371\247\365\376\326\035\200\257\035\3620|m\200^@&\032"
 2018      D61D80AF 
 2018      1DF2307C 
 2018      6D805E40 
 2018      261A
ARM GAS  /tmp/ccqzpcMt.s 			page 54


 2019 0545 933FCB0B 		.ascii	"\223?\313\013\303T\307.\247\361\034J{>q\363@\253\206"
 2019      C354C72E 
 2019      A7F11C4A 
 2019      7B3E71F3 
 2019      40AB86
 2020 0558 796F61DE 		.ascii	"yoa\336\321+\376e9\214\322E|v\270\002\276\366(!\022"
 2020      D12BFE65 
 2020      398CD245 
 2020      7C76B802 
 2020      BEF62821 
 2021 056d 2540B943 		.ascii	"%@\271C\2763&kk\235\275\266;\262R\337\231][\033\302"
 2021      BE33266B 
 2021      6B9DBDB6 
 2021      3BB252DF 
 2021      995D5B1B 
 2022 0582 246B4B32 		.ascii	"$kK2*kc\225\275\307+\373\270R\331\305\320\256T\226\325"
 2022      2A6B6395 
 2022      BDC72BFB 
 2022      B852D9C5 
 2022      D0AE5496 
 2023 0597 D29E7AE7 		.ascii	"\322\236z\347a\017\321H\227\334{\327R\305\034f\003\301"
 2023      610FD148 
 2023      97DC7BD7 
 2023      52C51C66 
 2023      03C1
 2024 05a9 3FCD1464 		.ascii	"?\315\024d\335\3328\023\2279\313=\225.\247{}eu\215\333"
 2024      DDDA3813 
 2024      9739CB3D 
 2024      952EA77B 
 2024      7D65758D 
 2025 05be 57BEC1ED 		.ascii	"W\276\301\355-w\371|\033\235k_^W\275\276\324\345\254"
 2025      2D77F97C 
 2025      1B9D6B5F 
 2025      5E57BDBE 
 2025      D4E5AC
 2026 05d1 AC2C5DB1 		.ascii	"\254,]\261\362\231U\305>\227\327\267\234\274T\350\\"
 2026      F29955C5 
 2026      3E97D7B7 
 2026      9CBC54E8 
 2026      5C
 2027 05e2 5BEE2E71 		.ascii	"[\356.q\277\262\256xyQ\341\212\302\"';wz\274\025\356"
 2027      BFB2AE78 
 2027      7951E18A 
 2027      C222273B 
 2027      777ABC15 
 2028 05f7 12A7D7E3 		.ascii	"\022\247\327\343\257A\213\364\0117*\366\272\336\364"
 2028      AF418BF4 
 2028      09372AF6 
 2028      BADEF4
 2029 0606 BBAA4A5D 		.ascii	"\273\252J]\305EE\253\013K\011\270\237\230\366\262\260"
 2029      C54545AB 
 2029      0B4B09B8 
 2029      9F98F6B2 
 2029      B0
 2030 0617 745549D1 		.ascii	"tUI\321\033+\313\236%Be\265\363!_\036o\322\223\273\252"
 2030      1B2BCB9E 
 2030      254265B5 
ARM GAS  /tmp/ccqzpcMt.s 			page 55


 2030      F3215F1E 
 2030      6FD293BB 
 2031 062c B4C25FE6 		.ascii	"\264\302_\346r\226\226W\272*\253=\236\012oa9\021\275"
 2031      72969657 
 2031      BA2AAB3D 
 2031      9E0A6F61 
 2031      3911BD
 2032 063f EEB75CFA 		.ascii	"\356\267\\\372\352\032\317\006w\231\253\306T\341\366"
 2032      EA1ACF06 
 2032      7799ABC6 
 2032      54E1F6
 2033 064e FA1C78EB 		.ascii	"\372\034x\353\333Hl|_\345Q\344\371\212\222\243\306\345"
 2033      DB486C7C 
 2033      5FE551E4 
 2033      F98A92A3 
 2033      C6E5
 2034 0660 F3D754B9 		.ascii	"\363\327T\271\312\034\210\343\251\331H\376\007a>\021"
 2034      CA1C88E3 
 2034      A9D948FE 
 2034      07613E11 
 2035 0670 F5       		.ascii	"\365"
 2036              		.text
 2037              		.section	.gnu.lto_oslib_test_007_001.358.5c7148a491b7e67c,"e",%progbits
 2038 0000 789CCB61 		.ascii	"x\234\313a``\230\306\000\001s\230\031[\030\233\032\032"
 2038      606098C6 
 2038      00017398 
 2038      195B189B 
 2038      1A1A
 2039 0012 FE349DBD 		.ascii	"\3764\235\275g\264\204\231a\0363Xl\0223\220\315\010"
 2039      67B48499 
 2039      611E3358 
 2039      6C123390 
 2039      CD08
 2040 0024 97BD7197 		.ascii	"\227\275q\227\011,\007\026Q,n\343X\302\314\010\226k"
 2040      092C0716 
 2040      512C6EE3 
 2040      58C2CC08 
 2040      966B
 2041 0036 6B689801 		.ascii	"kh\230\001\222cb\334\316\310`\331\324\321 \260\204\231"
 2041      926362DC 
 2041      CEC860D9 
 2041      D4D120B0 
 2041      8499
 2042 0048 792E50EB 		.ascii	"y.P\353\016\306\271\314\214\214\333\200$\023\343V \311"
 2042      0EC6B9CC 
 2042      8C8CDB80 
 2042      2413E356 
 2042      20C9
 2043 005a CCB88591 		.ascii	"\314\270\205\221AW?#?7U?31\267\240(\263$\243,\2638#"
 2043      41573F23 
 2043      3F37553F 
 2043      3331B7A0 
 2043      28B324A3 
 2044 0072 B5A4A452 		.ascii	"\265\244\244R\337\331%\270 19U?77\331\330\304\320,\276"
 2044      DFD925B8 
 2044      20313955 
 2044      3F3737D9 
ARM GAS  /tmp/ccqzpcMt.s 			page 56


 2044      D8C4D02C 
 2045 0087 24B5B8C4 		.ascii	"$\265\270\304\210\301IO\3379#3)\323?8\336\310@\317X"
 2045      88C1494F 
 2045      DF392333 
 2045      29D33F38 
 2045      DEC840CF 
 2046 009c CF401F24 		.ascii	"\317@\037$\256\237_\234\223\231\244_\234_Z\004\324\201"
 2046      AE9F5F9C 
 2046      9399A45F 
 2046      9C5F5A04 
 2046      D481
 2047 00ae 10016B8A 		.ascii	"\020\001k\212/N-,M\315KN\215700\327KfP\366\311OL\311"
 2047      2F4E2D2C 
 2047      4DCD4B4E 
 2047      8D373030 
 2047      D74B6650 
 2048 00c7 CC4B5748 		.ascii	"\314KWH\314KQH\315-(\251\004s\024rSs\363\213*\025\012"
 2048      CC4B5148 
 2048      CD2D28A9 
 2048      04731472 
 2048      5373F38B 
 2049 00de F2F37318 		.ascii	"\362\363s\030\000J\270S\341"
 2049      004AB853 
 2049      E1
 2050              		.text
 2051              		.section	.gnu.lto_oslib_test_007_002_setup.359.5c7148a491b7e67c,"e",%progbits
 2052 0000 789C7552 		.ascii	"x\234uRMk\023Q\024\275g\3364i\026\272\025\\\005\213"
 2052      4D6B1351 
 2052      14BD67DE 
 2052      346916BA 
 2052      155C058B 
 2053 0014 880B6762 		.ascii	"\210\013gbZ\253\270\022\353Bp\341\242? 4\323\321\031"
 2053      5AABB812 
 2053      EB4270E1 
 2053      A23F2034 
 2053      D3D119
 2054 0027 C8746227 		.ascii	"\310tb'\021\354\246\3174*t\023[\301\205\204\342b\264"
 2054      11ECA6CF 
 2054      342A7413 
 2054      5BC18584 
 2054      E262B4
 2055 003a DD7555AD 		.ascii	"\335uU\255\037M\247\212\250\270\210\270\024\021q\323"
 2055      1F4DA78A 
 2055      A8B888B8 
 2055      141171D3 
 2056 004a 5250FCC0 		.ascii	"RP\374\300/\250\350}\223\224\024\264\303<\270\347\316"
 2056      2FA8E87D 
 2056      939414B4 
 2056      C33CB8E7 
 2056      CE
 2057 005b B9E7DC7B 		.ascii	"\271\347\334{\347\035\322\210\232D\324\303\007\2020"
 2057      E71DD288 
 2057      9A44D4C3 
 2057      078230
 2058 006a 3D35A991 		.ascii	"=5\251\221\224\362XR\303\305\251\311\024\026\020#\320"
 2058      94F25852 
 2058      C3C5A9C9 
ARM GAS  /tmp/ccqzpcMt.s 			page 57


 2058      14161023 
 2058      D0
 2059 007b B886715C 		.ascii	"\270\206q\\\023\373\031\376\274t\343\327\255\244\234"
 2059      13FB19FE 
 2059      BC74E3D7 
 2059      ADA49C
 2060 008a 8B100AA2 		.ascii	"\213\020\012\242\031>\355'\321F\250\013\3041p\007\304"
 2060      193EED27 
 2060      D146A80B 
 2060      C4317007 
 2060      C4
 2061 009b 605A841C 		.ascii	"`Z\204\034\353\355HC\232#\021\250/\373\"\326{{\345\303"
 2061      EBED4843 
 2061      9A2311A8 
 2061      2FFB22D6 
 2061      7B7BE5C3 
 2062 00af EA9E9509 		.ascii	"\352\236\225\011y2\024\002\367\240\352\026\201\273 "
 2062      79321402 
 2062      F7A0EA16 
 2062      81BB20
 2063 00be DC670B31 		.ascii	"\334g\0131\213\357;\230\272WQ_>\237?Z\227Q5\275I\245"
 2063      8BEF3B98 
 2063      BA57515F 
 2063      3E9F3F5A 
 2063      975135BD 
 2064 00d4 0E959D95 		.ascii	"\016\225\235\225\356\013l\021\376\270\272\233\351z("
 2064      EE0B6C11 
 2064      FEB8BA9B 
 2064      E97A28
 2065 00e3 743CDC2A 		.ascii	"t<\334*\274\304\302\372,*;\377#\334\242R\207\332\022"
 2065      BCC4C2FA 
 2065      2C2A3BFF 
 2065      23DCA252 
 2065      87DA12
 2066 00f6 4EF0E88B 		.ascii	"N\360\350\213\277\263h\000\0178\275\240\344\324\310"
 2066      BFB36800 
 2066      0F38BDA0 
 2066      E4D4C8
 2067 0105 588EC754 		.ascii	"X\216\307T\254\371W]\221\334\370S\223\262i\276\331h"
 2067      ACF9575D 
 2067      91DCF853 
 2067      93B269BE 
 2067      D968
 2068 0117 A4781935 		.ascii	"\244x\0315\241\366)u\310\210\350\252\320Z`\202\301:"
 2068      A1F62975 
 2068      C888E8AA 
 2068      D05A6082 
 2068      C13A
 2069 0129 E4FB6FDC 		.ascii	"\344\373o\334\354:*iVl/G\304\335W\241q8'b\343\333\240"
 2069      EC3A2A69 
 2069      566C2F47 
 2069      C4DD57A1 
 2069      71382762 
 2070 0140 5074E111 		.ascii	"Pt\341\021\260\002\252\242\"e\267\342=\006\367\320\252"
 2070      B002AAA2 
 2070      2265B7E2 
 2070      3D06F7D0 
ARM GAS  /tmp/ccqzpcMt.s 			page 58


 2070      AA
 2071 0151 6EC4A509 		.ascii	"n\304\245\011\350J\364\353R\355u\355:\270\255\330\342"
 2071      E84AF4EB 
 2071      52ED75ED 
 2071      3AB8ADD8 
 2071      E2
 2072 0162 73338508 		.ascii	"s3\205\010\364\011\227\323\024\313&g\370\017,ok\363"
 2072      F40997D3 
 2072      14CB2667 
 2072      F80F2C6F 
 2072      6BF3
 2073 0174 B463535F 		.ascii	"\264cS_[\333\245\234\236)'<Qo(\272\225\345MMex\015\233"
 2073      5BDBA59C 
 2073      9E29273C 
 2073      516F28BA 
 2073      95E54D4D 
 2074 018c FE445F50 		.ascii	"\376D_Py\367\343T|\017j\002\2551+\221\202\007L\307\367"
 2074      79F7E354 
 2074      7C0F6A02 
 2074      AD312B91 
 2074      82074CC7 
 2075 01a1 6CD31DF2 		.ascii	"l\323\035\362\212\243n\3119\357\006\216]*]0\007N\014"
 2075      8AA36EC9 
 2075      39EF068E 
 2075      5D2A5D30 
 2075      074E0C
 2076 01b4 16872CDB 		.ascii	"\026\207,\333\364<\253\267\357`\177\256d\007\245,\035"
 2076      F43CABB7 
 2076      EF607FAE 
 2076      6407A52C 
 2076      1D
 2077 01c5 37CC01C7 		.ascii	"7\314\001\307\315\273\247\007s\331\214\321kdL\2257\375"
 2077      CDBBA707 
 2077      73D98CD1 
 2077      6B644C95 
 2077      37FD
 2078 01d7 A0E0E6CD 		.ascii	"\240\340\346\315\300/\217rE'\023\027\345\002\373\\\331"
 2078      C02F8F72 
 2078      45271317 
 2078      E502FB5C 
 2078      D9
 2079 01e8 1EB1EC5C 		.ascii	"\036\261\354\\&s\330\260H\234\365\212\346?2~\320\026"
 2079      2673D8B0 
 2079      489CF58A 
 2079      E63F327E 
 2079      D016
 2080 01fa 7147AC42 		.ascii	"qG\254By\3306-\307\263\275\242\357\027\002\303\241\236"
 2080      79D8362D 
 2080      C7B3BDA2 
 2080      EF1702C3 
 2080      A19E
 2081 020c 6DE50CAB 		.ascii	"m\345\014\253?\2379\3237|\204\364\300\035\263\377\002"
 2081      3F9F39D3 
 2081      377C84F4 
 2081      C01DB3FF 
 2081      02
 2082 021d DDF7F5E9 		.ascii	"\335\367\365\351"
ARM GAS  /tmp/ccqzpcMt.s 			page 59


 2083              		.text
 2084              		.section	.gnu.lto_oslib_test_007_002_execute.360.5c7148a491b7e67c,"e",%progbits
 2085 0000 789C8555 		.ascii	"x\234\205U]lTU\020>s\317\335\377\335\273\370\003\376"
 2085      5D6C5455 
 2085      103E73CF 
 2085      DDFFDDBB 
 2085      F803FE
 2086 0013 3CB5B5A4 		.ascii	"<\265\265\244Jt\267\266\0044\361\201X}\346\201\007\037"
 2086      4A74B7B6 
 2086      0434F181 
 2086      587DE681 
 2086      071F
 2087 0025 1B5AD774 		.ascii	"\033Z\327t\023J+\2735\341\211K\177cM\330\335\322&n["
 2087      134A2BBB 
 2087      35E1894B 
 2087      7F634DD8 
 2087      DDD2266E 
 2088 003a B6B82E64 		.ascii	"\266\270.d\215\017\332\026\204J\032\027k\243\241\330"
 2088      8D0FDA16 
 2088      844A1A17 
 2088      6BA3A1D8 
 2089 004a 6D8B4A22 		.ascii	"m\213J\"\202PH\005b\200\024\025jZq\346\334{\367\217"
 2089      82504805 
 2089      62801415 
 2089      6A5A71E6 
 2089      DC7BF78F 
 2090 005e 6DBB0FA7 		.ascii	"m\273\017\247g\316\231\371\316\3147\337\334\356\264"
 2090      67CE99F9 
 2090      CECC37DF 
 2090      DCEEB4
 2091 006d 32768231 		.ascii	"2v\2021\36660\006\033\030\364D\272%\246\252\352\016"
 2091      F6363006 
 2091      1B18F444 
 2091      BA25A6AA 
 2091      EA0E
 2092 007f 8B047D91 		.ascii	"\213\004}\221\356\337\307\266\300\030\010\233KC\341"
 2092      EEDFC7B6 
 2092      C018089B 
 2092      4B43E1
 2093 008e 11B8F8FD 		.ascii	"\021\270\370\375\267\\n\217(\237\235\036\177C\226\241"
 2093      B75C6E8F 
 2093      289F9D1E 
 2093      7F4396A1 
 2094 009e 6FD87037 		.ascii	"o\330p7Im\221\217$t^8\037\255\226;#J\377\350\202S6\213"
 2094      496D918F 
 2094      24745E38 
 2094      1FAD963B 
 2094      234AFFE8 
 2095 00b6 A03F3FBD 		.ascii	"\240??\275\266Q\356\212(\275\277\305\266\310\026\210"
 2095      B651EE8A 
 2095      28BDBFC5 
 2095      B6C81688 
 2096 00c6 F6C487CF 		.ascii	"\366\304\207\317XD\224\025\215\343\245\032\202M\372"
 2096      58449415 
 2096      8DE3A51A 
 2096      824DFA
 2097 00d5 383C526A 		.ascii	"8<Rj \364\207\347A@\330\341\010\372\237\327\374\035"
ARM GAS  /tmp/ccqzpcMt.s 			page 60


 2097      20F487E7 
 2097      4140D8E1 
 2097      08FA9FD7 
 2097      FC1D
 2098 00e7 D92406D1 		.ascii	"\331$\006\321Ad\341D\007\003\303%\015\344`\304\014\014"
 2098      4164E144 
 2098      0703C325 
 2098      0DE460C4 
 2098      0C0C
 2099 00f9 05867AE2 		.ascii	"\005\206z\342Z\031n8\230)\021\330\001\211\313&\263\305"
 2099      5A196E38 
 2099      982911D8 
 2099      0189CB26 
 2099      B3C5
 2100 010b 6AB33B9C 		.ascii	"j\263;\234.\305\015\007d\023\203\224\014\262X\230\376"
 2100      2EC50D07 
 2100      64138394 
 2100      0CB25898 
 2100      FE
 2101 011c B3E59CE5 		.ascii	"\263\345\234\345^\270\212\370\036\346/!\366\303\216"
 2101      5EB88AF8 
 2101      1EE62F21 
 2101      F6C38E
 2102 012b FE956316 		.ascii	"\376\225c\0265\231\202\004g,\306\215[6\310\241\207'"
 2102      35998204 
 2102      672CC68D 
 2102      5B36C8A1 
 2102      8727
 2103 013d 3880ACEF 		.ascii	"8\200\254\357$(\301\035\017\320\315\346\224\252\336"
 2103      2428C11D 
 2103      0FD0CDE6 
 2103      94AADE
 2104 014c FBAFA34B 		.ascii	"\373\257\243K\011\037\264&8\207S\200\221\360\025\300"
 2104      091FB426 
 2104      38875380 
 2104      91F015C0 
 2105 015c 49A0D896 		.ascii	"I\240\330\226\220\313\314\3404\350x\3241\264\276\230"
 2105      90CBCCE0 
 2105      34E878D4 
 2105      31B4BE98 
 2106 016c 33A5D4E5 		.ascii	"3\245\324\345G!U\275\353\275\262\374\300\366\"\260\004"
 2106      472155BD 
 2106      EBBDB2FC 
 2106      C0F622B0 
 2106      04
 2107 017d 97255C4C 		.ascii	"\227%\\L\234\026\231L\023\355\314\264Xp1[\351\314F\246"
 2107      9C16994C 
 2107      13EDCCB4 
 2107      5870315B 
 2107      E9CC46A6 
 2108 0191 9D160799 		.ascii	"\235\026\007\231N\332\271\010_\241\305MK\031-\345\264"
 2108      4EDAB908 
 2108      5FA1C54D 
 2108      4B192DE5 
 2108      B4
 2109 01a2 54888759 		.ascii	"T\210\207Y\210\263/o\374\263\314@M1\026\346\222f\264"
 2109      88B32F6F 
ARM GAS  /tmp/ccqzpcMt.s 			page 61


 2109      FCB3CC40 
 2109      4D3116E6 
 2109      9266B4
 2110 01b5 A1711BD4 		.ascii	"\241q\033\324\371\225)\033R/\266\275\012\273\003\255"
 2110      F995291B 
 2110      522FB6BD 
 2110      0ABB03AD 
 2111 01c5 8B56BD4A 		.ascii	"\213V\275J\244\032w\355 \3416\211\331\037\247$9\234"
 2111      A41A77ED 
 2111      20E13689 
 2111      D91FA724 
 2111      399C
 2112 01d7 01F81A18 		.ascii	"\001\370\032\0309 #\".:-\261{\320Y\302\204\2575\306"
 2112      39202322 
 2112      2E3A2DB1 
 2112      7BD059C2 
 2112      84AF35C6 
 2113 01eb 21C3992D 		.ascii	"!\303\231-\213aKra\010\030;\244\000\276\001\214hUU+"
 2113      8B614B72 
 2113      6108183B 
 2113      A400BE01 
 2113      8C685555 
 2114 0200 F99D054C 		.ascii	"\371\235\005LC\217rd\243\034I.e\242\234\360\035\300"
 2114      438F7264 
 2114      A31C492E 
 2114      65A29CF0 
 2114      1DC0
 2115 0212 841E7573 		.ascii	"\204\036us39NR\030\305\270@NpE\344sdZ\344\025\177GX"
 2115      33394E52 
 2115      18C5B840 
 2115      4E7045E4 
 2115      73645AE4 
 2116 022a A3681965 		.ascii	"\243h\031e=V\314\0179\305H\302\375\3244\375m=\372:r"
 2116      3D56CC0F 
 2116      39C548C2 
 2116      FDD434FD 
 2116      6D3DFA3A 
 2117 023f A79D53DF 		.ascii	"\247\235S\337\302\234\017\243<y\206\266\261i\2165w\224"
 2117      C29C0FA3 
 2117      3C7986B6 
 2117      B1698E35 
 2117      7794
 2118 0251 C4755077 		.ascii	"\304uPw\014\363\\\255\326\037\013j\2356\222\336@\367"
 2118      0CF35CAD 
 2118      D61F0B6A 
 2118      9D3692DE 
 2118      40F7
 2119 0263 4F607A6D 		.ascii	"O`zms]\020\347\022\242\201G\307\345\002\351\311\030"
 2119      735D10E7 
 2119      12A28147 
 2119      C7E502E9 
 2119      C918
 2120 0275 C76CF10A 		.ascii	"\307l\361\012\321J\243\320\211\361O\265C\247\000z\032"
 2120      D14AA3D0 
 2120      89F14FB5 
 2120      43A7007A 
 2120      1A
ARM GAS  /tmp/ccqzpcMt.s 			page 62


 2121 0286 E60828C1 		.ascii	"\346\010(\3017\262[\320~\253\006c\010\324\004\232l\303"
 2121      37B25BD0 
 2121      7EAB0663 
 2121      08D4049A 
 2121      6CC3
 2122 0298 5C9E1DF8 		.ascii	"\\\236\035\370\260M\344,i\245U\320S\203\235\223\246"
 2122      B04DE42C 
 2122      69A555D0 
 2122      53839D93 
 2122      A6
 2123 02a9 38AF8823 		.ascii	"8\257\210#e\343DTk\011\226\212\007\"\304\204\203\240"
 2123      65E34454 
 2123      6B09968A 
 2123      0722C484 
 2123      83A0
 2124 02bb CA140278 		.ascii	"\312\024\002x\263\203\211+\227\240\363\202LB\241\227"
 2124      B383892B 
 2124      97A0F382 
 2124      4C42A197 
 2125 02cb 2636E199 		.ascii	"&6\341\231F\216\230\241\177\301\005S \235\343\210\""
 2125      468E98A1 
 2125      7FC10553 
 2125      209DE388 
 2125      22
 2126 02dc 773B10C6 		.ascii	"w;\020\306<\023\035]\310\212l\354\320eM*\343y\255\271"
 2126      3C131D5D 
 2126      C88A6CEC 
 2126      D0654D2A 
 2126      E379ADB9 
 2127 02f0 B0566B7E 		.ascii	"\260Vk~\311i\015\027\356\027\205\316\210\033y}\316\177"
 2127      C9690D17 
 2127      EE1785CE 
 2127      881B797D 
 2127      CE7F
 2128 0302 2DE0FC12 		.ascii	"-\340\374\022Q\0053\240\363=C|#\015r\206os\036\337&"
 2128      510533A0 
 2128      F33D437C 
 2128      230D7286 
 2128      6F731EDF 
 2129 0317 E2FB98E0 		.ascii	"\342\373\230\340{\223\301\3673p\245\200o3\374\004:\327"
 2129      7B93C1F7 
 2129      3370A580 
 2129      6F33FC04 
 2129      3AD7
 2130 0329 96F8D573 		.ascii	"\226\370\325s\023\314\340:\276d\026)_\312\253\367\376"
 2130      13CCE03A 
 2130      BE641629 
 2130      5FCAABF7 
 2130      FE
 2131 033a 5AF55E15 		.ascii	"Z\365^\025\365\302\317\032Q\017rd\210\334\212'\254\217"
 2131      F5C2CF1A 
 2131      510F7264 
 2131      88DC8A27 
 2131      AC8F
 2132 034c D4CF0F49 		.ascii	"\324\317\017I\364\004'\227%\224 \242\365vO\312qnYe`"
 2132      F4042797 
 2132      259420A2 
ARM GAS  /tmp/ccqzpcMt.s 			page 63


 2132      F5764FCA 
 2132      716E5965 
 2133 0361 E6C5C0A0 		.ascii	"\346\305\300\240]\205}M\276\234\340\317\302u\254\\A"
 2133      5D857D4D 
 2133      BE9CE0CF 
 2133      C275AC5C 
 2133      41
 2134 0372 C076FAB8 		.ascii	"\300v\372\270&\313\361\323\0027\360\001d\341\250[\033"
 2134      26CBF1D3 
 2134      0237F001 
 2134      64E1A85B 
 2134      1B
 2135 0383 E1E7625C 		.ascii	"\341\347b\\^\225\330?\012\210\275I\234`\002\011\376"
 2135      5E95D83F 
 2135      0A88BD49 
 2135      9C600209 
 2135      FE
 2136 0394 BC9E798E 		.ascii	"\274\236y\216\312\312\361\251<\225\225\213Jl\237\\\373"
 2136      CACAF1A9 
 2136      3C95958B 
 2136      4A6C9F5C 
 2136      FB
 2137 03a5 7B562A50 		.ascii	"{V*P\231RDe\012\361!\024\246 \013\026RX\271U(\314\236"
 2137      99524465 
 2137      0AF12114 
 2137      A6200B16 
 2137      5258B955 
 2138 03bc E15BFB8C 		.ascii	"\341[\373\214\345\021\335\227^\203\350\3339\3022i\037"
 2138      E511DD97 
 2138      5E83E8DB 
 2138      39C23269 
 2138      1F
 2139 03cd B0F4E364 		.ascii	"\260\364\343d;\316\206\246.C\006\177 m\314\273u}\355"
 2139      3BCE86A6 
 2139      2E43067F 
 2139      206DCCBB 
 2139      757DED
 2140 03e0 DD29A0E8 		.ascii	"\335)\240\350n\276\366\304\254\333\020)\243={\236\366"
 2140      6EBEF6C4 
 2140      ACDB1029 
 2140      A33D7B9E 
 2140      F6
 2141 03f1 6C45677D 		.ascii	"lEg}\261@{\366\254\366\234\221\303\243\263\220\231\363"
 2141      B1407BF6 
 2141      ACF69C91 
 2141      C3A3B390 
 2141      99F3
 2142 0403 683AA703 		.ascii	"h:\247\003eq\356\316\353@\231\010q\235\270\277\322["
 2142      6571EECE 
 2142      EB409908 
 2142      719DB8BF 
 2142      D25B
 2143 0415 D8017791 		.ascii	"\330\001w\221\016\2703\035p#5v\352@\231St@Y\274>\262"
 2143      0EB8331D 
 2143      70233576 
 2143      EA409953 
 2143      744059BC 
ARM GAS  /tmp/ccqzpcMt.s 			page 64


 2144 042b 3D4B5048 		.ascii	"=KPH\037\361\241tn'N\256\325\211\277r:\241\315\313X"
 2144      1FF1A174 
 2144      6E274EAE 
 2144      D589BF72 
 2144      3AA1CDCB 
 2145 0440 DA1871C7 		.ascii	"\332\030q\307\3724?,\240y\251\310\210;\021I\247\231"
 2145      FA343F2C 
 2145      A079A9C8 
 2145      883B1149 
 2145      A799
 2146 0452 E591EC2C 		.ascii	"\345\221\354,:\340\313\006\311\304\221;\363\237\222"
 2146      3AE0CB06 
 2146      C9C4913B 
 2146      F39F92
 2147 0461 E78CF478 		.ascii	"\347\214\364x\246\276E\"N\374B\0344\337\326\024\231"
 2147      A6BE4522 
 2147      4EFC421C 
 2147      34DFD614 
 2147      99
 2148 0472 AF781B9A 		.ascii	"\257x\033\232\032}^\377\356\306\346}\376`\303\007\376"
 2148      1A7D5EFF 
 2148      EEC6E67D 
 2148      FE60C307 
 2148      FE
 2149 0483 40832F18 		.ascii	"@\203/\030\334\357\255ykW\363\356z\237\267\261\261\276"
 2149      DCEFAD79 
 2149      6B57F3EE 
 2149      7A9FB7B1 
 2149      B1BE
 2150 0495 7AEBABDB 		.ascii	"z\353\253\333j\203\276@\260\212\275\351\361\3264\370"
 2150      6A83BE40 
 2150      B08ABDE9 
 2150      F1D634F8 
 2151 04a5 EBFC3B77 		.ascii	"\353\374;w\325VUz\252=\225^:\3676\005\366\370\353\274"
 2151      D556557A 
 2151      AA3D955E 
 2151      3AF73605 
 2151      F6F8EBBC 
 2152 04b9 81A6967D 		.ascii	"\201\246\226}\030\221=\021A\265\001\337\373-\276\275"
 2152      18913D11 
 2152      41B501DF 
 2152      FB2DBEBD 
 2153 04c9 F5BEDACA 		.ascii	"\365\276\332\312\312\355\236z\006\376\027V\275\364\324"
 2153      CAED9E7A 
 2153      06FE1756 
 2153      BDF4D4
 2154 04d8 6FABAB7C 		.ascii	"o\253\253|o\353\273\2571\307\036\177 X\342kl\016\356"
 2154      6FEBBBAF 
 2154      31C71E7F 
 2154      2058E26B 
 2154      6C0EEE
 2155 04eb 676EB1DF 		.ascii	"gn\261\337\333d\330\377\003FR\002\202"
 2155      DB64D8FF 
 2155      03465202 
 2155      82
 2156              		.text
 2157              		.section	.gnu.lto_oslib_test_007_002.361.5c7148a491b7e67c,"e",%progbits
ARM GAS  /tmp/ccqzpcMt.s 			page 65


 2158 0000 789C458E 		.ascii	"x\234E\216\277N\3030\020\207}\275\205\221Gp\037\200"
 2158      BF4EC330 
 2158      10877DBD 
 2158      85914770 
 2158      1F80
 2159 0012 3834A808 		.ascii	"84\250\010\261QF$\206>@\344&Vc)\216C\354Pe\263\"T13"
 2159      B1514624 
 2159      863E40E4 
 2159      26566329 
 2159      8E43EC50 
 2160 002c 3150A6CC 		.ascii	"1P\246\314L\374\351K\260\363\"01\340\032\011n8\335}"
 2160      4CFCE94B 
 2160      B0F32230 
 2160      31E01A09 
 2160      6E38DD7D 
 2161 0040 DFFDA42B 		.ascii	"\337\375\244+\011!O\344\267\036\020n\240w\356\273\177"
 2161      09214FE4 
 2161      B71E106E 
 2161      A077EEBB 
 2161      7F
 2162 0051 FF4A0624 		.ascii	"\377J\006$\217\030\330\035\372\031\376\354\307'\006"
 2162      8F18D81D 
 2162      FA19FEEC 
 2162      C72706
 2163 0060 17C8D8AC 		.ascii	"\027\310\330\254\367\006\204\340\326\316\335\357\334"
 2163      F70684E0 
 2163      D6CEDDEF 
 2163      DC
 2164 006d 08DE809C 		.ascii	"\010\336\200\234\364\267n\177@\334\370\350\0266\010"
 2164      F4B76E7F 
 2164      40DCF8E8 
 2164      163608
 2165 007c F0EAFB08 		.ascii	"\360\352\373\010^|Gx\006r\300\012\255\004\223\\\325"
 2165      5E7C4778 
 2165      0672C00A 
 2165      AD04935C 
 2165      D5
 2166 008d 8DB4C5B5 		.ascii	"\215\264\305\2654\205\260\266c\263\363y\3153\301\224"
 2166      3485B0B6 
 2166      63B3F379 
 2166      CD33C194 
 2167 009d CA92A3C3 		.ascii	"\312\222\243\303ij\205\261\023r\026\261Y!\027\362r\236"
 2167      696A85B1 
 2167      137216B1 
 2167      592117F2 
 2167      729E
 2168 00af 4EE22889 		.ascii	"N\342(\211b\266\343L\233R.\230\321m\343\023\377$\204"
 2168      62B6E34C 
 2168      9B522E98 
 2168      D16DE313 
 2168      FF2484
 2169 00c2 5223AE5A 		.ascii	"R#\256ZQe\"\215\343\343(#\247\027\232\347\262ZR^\345"
 2169      5165228D 
 2169      E3E32823 
 2169      A7179AE7 
 2169      B25A525E 
 2170 00d7 54A8DA76 		.ascii	"T\250\332va\241\313\2267\271\310\251\022J7\035\255\265"
ARM GAS  /tmp/ccqzpcMt.s 			page 66


 2170      61A1CB96 
 2170      37B9C8A9 
 2170      124A371D 
 2170      ADB5
 2171 00e9 2EE9CA7F 		.ascii	".\351\312\177\244[KW\\Z\177E~\000\010\356]\237"
 2171      A45B4B57 
 2171      5C5A7F45 
 2171      7E0008EE 
 2171      5D9F
 2172              		.text
 2173              		.section	.gnu.lto_oslib_test_007_003_setup.362.5c7148a491b7e67c,"e",%progbits
 2174 0000 789C7552 		.ascii	"x\234uRMk\023Q\024\275g\3364i\005\375\001\256B\253\210"
 2174      4D6B1351 
 2174      14BD67DE 
 2174      346905FD 
 2174      01AE42AB 
 2175 0015 0B67621B 		.ascii	"\013gb\033\253\270\022\353BW\202\375\001\241\231\216"
 2175      ABB812EB 
 2175      425782FD 
 2175      01A1998E 
 2176 0025 CE40A613 		.ascii	"\316@\246\023;\211\240\233>\323\250\320Ml\005\027\022"
 2176      3B89A09B 
 2176      3ED3A8D0 
 2176      4D6C0517 
 2176      12
 2177 0036 8A8BC1D4 		.ascii	"\212\213\301\324\225\253\372U\323N\025Q\021\254t)E\324"
 2177      95ABFA55 
 2177      D34E1551 
 2177      11AC7429 
 2177      45D4
 2178 0048 4D4450FC 		.ascii	"MDP\374B\\\010\366\276IJ\012\332a\036s\317\235s\317"
 2178      425C08F6 
 2178      BE494A0A 
 2178      DA611E73 
 2178      CF9D73CF 
 2179 005c B9F7CE1C 		.ascii	"\271\367\316\034\320\210V\210\250\217\017\004afzJ#)"
 2179      D0885688 
 2179      A88F0F04 
 2179      61667A4A 
 2179      2329
 2180 006e E591A486 		.ascii	"\345\221\244\206\213\323S=\230G\214@\023\032&pM\354"
 2180      8BD3533D 
 2180      98478C40 
 2180      131A2670 
 2180      4DEC
 2181 0080 65F8FBD2 		.ascii	"e\370\373\322\215\332\355\244\234\213\020\012\242Y>"
 2181      8DDAEDA4 
 2181      9C8B100A 
 2181      A2593E
 2182 008f ED2BD146 		.ascii	"\355+\321F\250\011\3041p\027\304`F\204\034\353\355H"
 2182      A809C431 
 2182      7017C460 
 2182      46841CEB 
 2182      ED48
 2183 00a1 438A2311 		.ascii	"C\212#\021\2507{\"\326{{\345s\263wyR\036\017\205\300"
 2183      A8377B22 
 2183      D67B7BE5 
ARM GAS  /tmp/ccqzpcMt.s 			page 67


 2183      73B37779 
 2183      521E0F85 
 2184 00b6 03A8BAFB 		.ascii	"\003\250\272\373\300=\020\036\262\205\250\343\327v\246"
 2184      C03D101E 
 2184      B285A8E3 
 2184      D776A6
 2185 00c5 EE56D4D7 		.ascii	"\356V\324\327\357_\034\256\311\250\222\332\240R\207"
 2185      EF5F1CAE 
 2185      C9A892DA 
 2185      A05287
 2186 00d4 CACE4AF7 		.ascii	"\312\316J\367%6\011\177i\356d\272\036\012\035\2176\013"
 2186      2536097F 
 2186      69EE64BA 
 2186      1E0A1D8F 
 2186      360B
 2187 00e6 375858AF 		.ascii	"7XX\257\243\274\343?\302-*u\250-\341\204\032\375U\006"
 2187      A3BCE33F 
 2187      C22D2A75 
 2187      A82DE184 
 2187      1AFD5506 
 2188 00fa 8BC002A7 		.ascii	"\213\300\002\247\347\225\234\032\031K\361\230\212ug"
 2188      E7959C1A 
 2188      194BF198 
 2188      8A7567
 2189 0109 B52B927F 		.ascii	"\265+\222\177\376V\245l\236X[\253o\343eT\205\332\247"
 2189      FE56A56C 
 2189      9E585BAB 
 2189      6FE36554 
 2189      85DAA7
 2190 011c D42123A2 		.ascii	"\324!#\242\253Bk\201I\006\237 ?,\254\202\237\345\024"
 2190      AB426B81 
 2190      49069F20 
 2190      3F2CAC82 
 2190      9FE514
 2191 012f 2BB69723 		.ascii	"+\266\227#\342\356+\3208\234\023\261\361-P(\272\360"
 2191      E2EE2BD0 
 2191      389C13B1 
 2191      F12D5028 
 2191      BAF0
 2192 0141 18580655 		.ascii	"\030X\006UP\226\262[\361\236\200{hU/\306\245\011\350"
 2192      5096B25B 
 2192      F19E807B 
 2192      68552FC6 
 2192      A509E8
 2193 0154 4AF447A3 		.ascii	"J\364G\243\372\246z\035\334Vl\361m\245\007\021\350+"
 2193      FAA67A1D 
 2193      DC566CF1 
 2193      6DA50711 
 2193      E82B
 2194 0166 2EA72896 		.ascii	".\247(\226M\316\362\027X\332\322\346Y\307\246\366\361"
 2194      4DCEF217 
 2194      58DAD2E6 
 2194      59C7A6F6 
 2194      F1
 2195 0177 E72EE5F4 		.ascii	"\347.\345\364\\9\341\251\272C\321\255,oj*\303k\330\360"
 2195      5C39E1A9 
 2195      BA43D1AD 
ARM GAS  /tmp/ccqzpcMt.s 			page 68


 2195      2C6F6A2A 
 2195      C36BD8F0 
 2196 018b 27FA8EF2 		.ascii	"'\372\216\362\273\306\251\370?\250\012\264\306,G\012"
 2196      BBC6A9F8 
 2196      3FA80AB4 
 2196      C62C470A 
 2197 019b EE331DDF 		.ascii	"\3563\035\337\263Mw\304+\214\273E\347\234\0338v\261"
 2197      B34D77C4 
 2197      2B8CBB45 
 2197      E79C1B38 
 2197      76B1
 2198 01ad 78DE1C3A 		.ascii	"x\336\034:6\\\030\261l\323\363\254\201\314\376\301l"
 2198      365C18B1 
 2198      6CD3F3AC 
 2198      81CCFEC1 
 2198      6C
 2199 01be D10E8AFD 		.ascii	"\321\016\212\375t\3240\207\0347\347\236\034\316\366"
 2199      74D43087 
 2199      1C37E79E 
 2199      1CCEF6
 2200 01cd A78D0123 		.ascii	"\247\215\001#m\252\274\351\007y7g\006~i\234+:\231\270"
 2200      6DAABCE9 
 2200      07793767 
 2200      067E699C 
 2200      2B3A99B8 
 2201 01e1 281BD867 		.ascii	"(\033\330gK\366\230eg\323\351\203\206E\342\214W0\377"
 2201      4BF69865 
 2201      67D3E983 
 2201      8645E28C 
 2201      5730FF
 2202 01f4 91F183B6 		.ascii	"\221\361\203\266\210;f\345K\243\266i9\236\355\025|?"
 2202      883B66E5 
 2202      4BA3B669 
 2202      399EED15 
 2202      7C3F
 2203 0206 1F180EF5 		.ascii	"\037\030\016\365m)gX\203\271\364\351\314\350!\322\003"
 2203      6D296758 
 2203      83B9F4E9 
 2203      CCE821D2 
 2203      03
 2204 0217 F782BD0E 		.ascii	"\367\202\275\016s\302\365\266"
 2204      73C2F5B6 
 2205              		.text
 2206              		.section	.gnu.lto_oslib_test_007_003_execute.363.5c7148a491b7e67c,"e",%progbits
 2207 0000 789C4590 		.ascii	"x\234E\220\277K#A\024\307\337w&&1*\376\011\346J\213"
 2207      BF4B2341 
 2207      14C7DF77 
 2207      2626312A 
 2207      FE09E64A 
 2208 0015 DB8D3FD0 		.ascii	"\333\215?\320V\364z\213\024W\206$\254d\30159w\025\254"
 2208      56F47A8B 
 2208      14578624 
 2208      AC64C135 
 2208      397715AC 
 2209 0029 1CD718E1 		.ascii	"\034\327\030\341\232h\354\216#EX$VV\336q\250\020\377"
 2209      9A68EC8E 
 2209      23455824 
ARM GAS  /tmp/ccqzpcMt.s 			page 69


 2209      5656DE71 
 2209      A810FF
 2210 003c 034977C5 		.ascii	"\003Iw\3055\202 \026\242\201\003\017\016\364\315$\342"
 2210      35822016 
 2210      A281030F 
 2210      0EF4CD24 
 2210      E2
 2211 004d C22CEF3B 		.ascii	"\302,\357;\363\276\237\367\235Y\001QHD\023\274 \011"
 2211      F3BE9FF7 
 2211      9D590151 
 2211      484413BC 
 2211      2009
 2212 005f 8DC3AF82 		.ascii	"\215\303\257\202\224R\013\011\201\235\303\224\251@\333"
 2212      94520B09 
 2212      819DC394 
 2212      A940DB
 2213 006e 02DB3892 		.ascii	"\002\3338\222\223,\237\367\276\265O\022\252\335A$\211"
 2213      932C9FF7 
 2213      BEB54F12 
 2213      AADD4124 
 2213      89
 2214 007f 9ABC065F 		.ascii	"\232\274\006_\374M1\221N\273C\035\365\377\245\256\324"
 2214      FC4D3191 
 2214      4EBB431D 
 2214      F5FFA5AE 
 2214      D4
 2215 0090 DF5BFC9A 		.ascii	"\337[\374\232dD$!\370'\210\352R\017P1\250\016\321\201"
 2215      64442421 
 2215      F82788EA 
 2215      520F5031 
 2215      A80ED181 
 2216 00a4 147DB1CB 		.ascii	"\024}\261\313\342\036\352\346ww\030g\240\007\204\275"
 2216      E21EEAE6 
 2216      77771867 
 2216      A00784BD 
 2217 00b4 E4778986 		.ascii	"\344w\211\206\214\244\004qU\205\340\262\315#\2165-\206"
 2217      8CA40471 
 2217      5585E0B2 
 2217      CD238E35 
 2217      2D86
 2218 00c6 9FC00F90 		.ascii	"\237\300\017\220n\210\001\306\373\247+\350\021{\351"
 2218      6E8801C6 
 2218      FBA72BE8 
 2218      117BE9
 2219 00d5 D6A07BA8 		.ascii	"\326\240{\250\311V\032P\342\357\224x\273\2174\240\004"
 2219      C9561A50 
 2219      E2EF9478 
 2219      BB8F34A0 
 2219      04
 2220 00e6 2E807350 		.ascii	".\200sP\025\241RI\335w\011N\240-I\334%\"9\314av\257"
 2220      15A15249 
 2220      DD77094E 
 2220      A02D49DC 
 2220      252239CC 
 2221 00fd F7D19282 		.ascii	"\367\321\222\202\301\260\314\0102\240TS_\210\017\030"
 2221      C1B0CC08 
 2221      32A05453 
ARM GAS  /tmp/ccqzpcMt.s 			page 70


 2221      5F880F18 
 2222 010d F6C1AFB1 		.ascii	"\366\301\257\261{\244\212\232\301\214\342Jc\"9\246\243"
 2222      7BA48A9A 
 2222      C18CE24A 
 2222      632239A6 
 2222      A3
 2223 011e B5FEC54D 		.ascii	"\265\376\305M\302\247\256I\332\372L=\204\013\375\207"
 2223      C2A7AE49 
 2223      DAFA4C3D 
 2223      840BFD87 
 2224 012e AB4BF49F 		.ascii	"\253K\364\237 \354h\371\321.\225=\307v\363^e\335\015"
 2224      20EC68F9 
 2224      D12E953D 
 2224      C776F35E 
 2224      65DD0D
 2225 0141 4A9BAE5F 		.ascii	"J\233\256_r\202`\313^\372\224\255\344\213\216\355y\305"
 2225      728260CB 
 2225      5EFA94AD 
 2225      E48B8EED 
 2225      79C5
 2226 0153 99D9A9B9 		.ascii	"\231\331\251\271\\\340\370\3014-Z\366R\311-\270\313"
 2226      5CE0F8C1 
 2226      342D5AF6 
 2226      52C92DB8 
 2226      CB
 2227 0164 D9DC74C6 		.ascii	"\331\334t\306\232\2612\266\336\267\313\376\252[\260"
 2227      9AB132B6 
 2227      DEB7CBFE 
 2227      AA5BB0
 2228 0173 FDF2C63A 		.ascii	"\375\362\306:;\336w\214)\347;_6\234\265\242\223\313"
 2228      3BDE778C 
 2228      29E73B5F 
 2228      369CB5A2 
 2228      93CB
 2229 0185 64E6AD22 		.ascii	"d\346\255\"\215\257\272~\220^+\007i\307\253\004[\364"
 2229      8DAFBA7E 
 2229      905E2B07 
 2229      69C7AB04 
 2229      5BF4
 2230 0197 0A17A796 		.ascii	"\012\027\247\226X"
 2230      58
 2231              		.text
 2232              		.section	.gnu.lto_oslib_test_007_003.364.5c7148a491b7e67c,"e",%progbits
 2233 0000 789CCB61 		.ascii	"x\234\313a``\230\300\000\001s\230\031[\030\233\032\032"
 2233      606098C0 
 2233      00017398 
 2233      195B189B 
 2233      1A1A
 2234 0012 FE349DBD 		.ascii	"\3764\235\275o\262\204\231a\0363Xl\0223\220\315\010"
 2234      6FB28499 
 2234      611E3358 
 2234      6C123390 
 2234      CD08
 2235 0024 97BD718F 		.ascii	"\227\275q\217\005,\007\026Q,n\343X\302\314\010\226k"
 2235      052C0716 
 2235      512C6EE3 
 2235      58C2CC08 
ARM GAS  /tmp/ccqzpcMt.s 			page 71


 2235      966B
 2236 0036 6B689801 		.ascii	"kh\230\001\222cb\334\316\310`\331\324\321 \260\204\231"
 2236      926362DC 
 2236      CEC860D9 
 2236      D4D120B0 
 2236      8499
 2237 0048 792E50EB 		.ascii	"y.P\353\016\306\271\314\214\214\333\200$\023\343V \311"
 2237      0EC6B9CC 
 2237      8C8CDB80 
 2237      2413E356 
 2237      20C9
 2238 005a CCB88591 		.ascii	"\314\270\205\221AW?#?7U?31\267\240(\263$\243,\2638#"
 2238      41573F23 
 2238      3F37553F 
 2238      3331B7A0 
 2238      28B324A3 
 2239 0072 B5A4A452 		.ascii	"\265\244\244R\337\331%\270 19U?77\331\330\304\320,\276"
 2239      DFD925B8 
 2239      20313955 
 2239      3F3737D9 
 2239      D8C4D02C 
 2240 0087 24B5B8C4 		.ascii	"$\265\270\304\210\301IO\3379#3)\323?8\336\310@\317X"
 2240      88C1494F 
 2240      DF392333 
 2240      29D33F38 
 2240      DEC840CF 
 2241 009c CF401F24 		.ascii	"\317@\037$\256\237_\234\223\231\244_\234_Z\004\324\201"
 2241      AE9F5F9C 
 2241      9399A45F 
 2241      9C5F5A04 
 2241      D481
 2242 00ae 10016B8A 		.ascii	"\020\001k\212/N-,M\315KN\215700\327Kf\220u/M,JIMQ\360"
 2242      2F4E2D2C 
 2242      4DCD4B4E 
 2242      8D373030 
 2242      D74B6690 
 2243 00cb 4DCDCD2F 		.ascii	"M\315\315/\252T\010\310\317\317)V(\311\314M\315/-a\000"
 2243      AA5408C8 
 2243      CFCF2956 
 2243      28C9CC4D 
 2243      CD2F2D61 
 2244 00e0 00596D51 		.ascii	"\000YmQ\325"
 2244      D5
 2245              		.text
 2246              		.section	.gnu.lto_oslib_test_sequence_007_array.365.5c7148a491b7e67c,"e",%progbits
 2247 0000 789C458B 		.ascii	"x\234E\213;\012\302@\024E\337\315\270\0007b&?\024[\265"
 2247      3B0AC240 
 2247      1445DFCD 
 2247      B8003762 
 2247      263F145B 
 2248 0015 B7700121 		.ascii	"\267p\001!\206\201\014\030\0233\243`\027D\304\306\306"
 2248      86810C18 
 2248      1333A360 
 2248      1744C4C6 
 2248      C6
 2249 0026 DAD2C205 		.ascii	"\332\322\302\005\370\335\211\233\320\312\322\302\230"
 2249      F8DD899B 
ARM GAS  /tmp/ccqzpcMt.s 			page 72


 2249      D0CAD2C2 
 2249      98
 2250 0033 20DEEA72 		.ascii	" \336\352r\016G\023QF\325v\014[\266g\204\337\003X\361"
 2250      0E471351 
 2250      46D5760C 
 2250      5BB66784 
 2250      DF0358F1 
 2251 0047 9658E5F9 		.ascii	"\226X\345\371{\261yy\205;0\372[\343g\357\317Z\351\312"
 2251      7BB17979 
 2251      853B30FA 
 2251      5BE367EF 
 2251      CF5AE9CA 
 2252 005b B2228F8A 		.ascii	"\262\"\217\212\030\324^\254\363\372\236\031\260q\003"
 2252      18D45EAC 
 2252      F3FA9E19 
 2252      B07103
 2253 006a 1C5C810B 		.ascii	"\034\\\201\013p\006N\300\021\324\340Q\022\013.\2038"
 2253      70064EC0 
 2253      11D4E051 
 2253      120B2E83 
 2253      38
 2254 007b CDA48E66 		.ascii	"\315\244\216fREB\3539\357\366\006i\020\012\036\307\241"
 2254      524542EB 
 2254      39EFF606 
 2254      69100A1E 
 2254      C7A1
 2255 008d EBD94D5F 		.ascii	"\353\331M_\013\245\035\352\230\274\033\311\241\354\017"
 2255      0BA51DEA 
 2255      98BC1BC9 
 2255      A1EC0F
 2256 009c 7CC7325D 		.ascii	"|\3072]\323\342_\316\0235\222C\256\222iV\024\177RF\276"
 2256      D3E25FCE 
 2256      13359243 
 2256      AE926956 
 2256      147F5246 
 2257 00b1 1293A918 		.ascii	"\022\223\251\030\207\302\267\254\226\031\322\007\375"
 2257      87C2B7AC 
 2257      9619D207 
 2257      FD
 2258 00be 9A47E4   		.ascii	"\232G\344"
 2259              		.text
 2260              		.section	.gnu.lto_oslib_test_sequence_007.366.5c7148a491b7e67c,"e",%progbits
 2261 0000 789C7361 		.ascii	"x\234sa``h`\200\2009\314\214-\214m\015\015\177\232z"
 2261      60606860 
 2261      808039CC 
 2261      8C2D8C6D 
 2261      0D0D7F9A 
 2262 0015 FF9A2C61 		.ascii	"\377\232,afX\301\014\026S,n\343X\302\314\010\223\275"
 2262      6658C10C 
 2262      16532C6E 
 2262      E358C2CC 
 2262      0893BD
 2263 0028 F1876509 		.ascii	"\361\207e\0113\023\343VF\006\313\246\216\006\240\014"
 2263      3313E356 
 2263      4606CBA6 
 2263      8E06A00C 
 2264 0038 F35C6606 		.ascii	"\363\\f\006\306m\214s\231\031\031\26702\350\352g\344"
ARM GAS  /tmp/ccqzpcMt.s 			page 73


 2264      C66D8C73 
 2264      991919B7 
 2264      3032E8EA 
 2264      67E4
 2265 004a E7A6EA67 		.ascii	"\347\246\352g&\346\026\024e\226d\224e\026g\244\226\224"
 2265      26E61614 
 2265      65966494 
 2265      651667A4 
 2265      9694
 2266 005c 54EA3BBB 		.ascii	"T\352;\273\004\027$&\247\352\347\346&\033\233\030\232"
 2266      04172426 
 2266      A7EAE7E6 
 2266      261B9B18 
 2266      9A
 2267 006d C597A416 		.ascii	"\305\227\244\026\227\03018\351\351;gd&e\372\007\307"
 2267      97183138 
 2267      E9E93B67 
 2267      642665FA 
 2267      07C7
 2268 007f 1B19E819 		.ascii	"\033\031\350\031\353\031\350\203\304\365\363\213s2\223"
 2268      EB19E883 
 2268      C4F5F38B 
 2268      733293
 2269 008e F48BF34B 		.ascii	"\364\213\363K\213\200:\020\"`M\361\305\251\205\245\251"
 2269      8B803A10 
 2269      22604DF1 
 2269      C5A985A5 
 2269      A9
 2270 009f 79C9A9F1 		.ascii	"y\311\251\361\006\006\346z\311\014\274\276\251\271\371"
 2270      0606E67A 
 2270      C90CBCBE 
 2270      A9B9F9
 2271 00ae 45950A01 		.ascii	"E\225\012\001\371\3719\305\014\000\024\267A\215"
 2271      F9F939C5 
 2271      0C0014B7 
 2271      418D
 2272              		.text
 2273              		.section	.gnu.lto_.symbol_nodes.5c7148a491b7e67c,"e",%progbits
 2274 0000 789C7591 		.ascii	"x\234u\221\271N\303@\020\206g\376\215\235%\0349 \001"
 2274      B94EC340 
 2274      108667FE 
 2274      8D9D251C 
 2274      392001
 2275 0013 0989F008 		.ascii	"\011\211\360\010t\364\351y\015\350@\342\005&\221\322"
 2275      74F4E979 
 2275      0DE840E2 
 2275      052691D2 
 2276 0023 D0006D3A 		.ascii	"\320\000m:\212t4\034\015-R:\016\361\002H@L\270\257\000"
 2276      8A74341C 
 2276      0D2D523A 
 2276      0EF10248 
 2276      404CB8AF 
 2277 0038 81225258 		.ascii	"\201\"RX{\301n\330i\374i\376\361|\326xA\021\021\332"
 2277      7BC16ED8 
 2277      69FC69FE 
 2277      F17CD678 
 2277      411111DA 
ARM GAS  /tmp/ccqzpcMt.s 			page 74


 2278 004c 10AA9A4A 		.ascii	"\020\252\232J\361\346)\221\020\035l\325js\304\024\026"
 2278      F1E62991 
 2278      101D6CD5 
 2278      6A73C414 
 2278      16
 2279 005d 1E20EC4C 		.ascii	"\036 \354L\275\027\250\331\360y\005\252V\210\024\356"
 2279      BD17A8D9 
 2279      F07905AA 
 2279      568814EE 
 2280 006d 21702FBB 		.ascii	"!p/\273\201(wz\013I\355\004\275>\375\253\272\000[\305"
 2280      8128777A 
 2280      0B49ED04 
 2280      BD3EFDAB 
 2280      BA005BC5 
 2281 0081 35C4738F 		.ascii	"5\304s\217]\002v,\200\370\356\017\177F\252V\011\341"
 2281      5D02762C 
 2281      80F8EE0F 
 2281      7F46AA56 
 2281      09E1
 2282 0093 099E850E 		.ascii	"\011\236\205\016\374\350E\357\016i\013\217\320\021\360"
 2282      FCE845EF 
 2282      0E690B8F 
 2282      D011F0
 2283 00a2 1B243DF8 		.ascii	"\033$=\370\255r\264\216\302\213\205\253\370\025\242"
 2283      AD72B48E 
 2283      C28B85AB 
 2283      F815A2
 2284 00b1 5D591732 		.ascii	"]Y\0272\344\312> \031W\366\016\031ve=\310\210+\373\206"
 2284      E4CA3E20 
 2284      1957F60E 
 2284      1976653D 
 2284      C8882BFB 
 2285 00c6 8CBAB22F 		.ascii	"\214\272\262/\310\230+\373\204d\035\231\342\274=b\235"
 2285      C8982BFB 
 2285      84641D99 
 2285      E2BC3D62 
 2285      9D
 2286 00d7 15E72CB6 		.ascii	"\025\347,\266X\245\0121z\011\372\023\366\2774\015\346"
 2286      58A50A31 
 2286      7A09FA13 
 2286      F6BF340D 
 2286      E6
 2287 00e8 773BC70D 		.ascii	"w;\307\015\305\315\264\362s\026\003\203\371\263\306"
 2287      C5CDB4F2 
 2287      73160383 
 2287      F9B3C6
 2288 00f7 7E87B895 		.ascii	"~\207\270\2255]\213\365\202\362\307\007\325\355upP2"
 2288      355D8BF5 
 2288      82F2C707 
 2288      D5ED7570 
 2288      5032
 2289 0109 03871B47 		.ascii	"\003\207\033G\347\314\255\0313`\261^6\335n{o\236\203"
 2289      E7CCAD19 
 2289      3360B15E 
 2289      36DD6E7B 
 2289      6F9E83
 2290 011c 45D38CA8 		.ascii	"E\323\214\250\271\244\364T\354\322\305\330\245\023\227"
ARM GAS  /tmp/ccqzpcMt.s 			page 75


 2290      B9A4F454 
 2290      ECD2C5D8 
 2290      A51397
 2291 012b 2EC62E9D 		.ascii	".\306.\235\270\364d\354\322\305\330\245\023\227.\376"
 2291      B8F464EC 
 2291      D2C5D8A5 
 2291      13972EFE 
 2292 013b B974E22A 		.ascii	"\271t\342*\235\364\327\246\271\265l\322\210\202\025"
 2292      9DF4D7A6 
 2292      B9B56CD2 
 2292      888215
 2293 014a 9346D45C 		.ascii	"\223F\324\\U\231\222=@\300\364\003\202!!\214"
 2293      5599923D 
 2293      40C0F403 
 2293      8221218C 
 2294              		.text
 2295              		.section	.gnu.lto_.refs.5c7148a491b7e67c,"e",%progbits
 2296 0000 789C4D8C 		.ascii	"x\234M\214\273\016\3020\024C}}\223\264\267O\211\031"
 2296      BB0EC230 
 2296      14437D7D 
 2296      93B4B74F 
 2296      8919
 2297 0012 3132B43B 		.ascii	"12\264;\003\377\277T\210\211\215\205_\301AE\252\242"
 2297      03FFBF54 
 2297      88898D85 
 2297      5FC14145 
 2297      AAA2
 2298 0024 F838964E 		.ascii	"\3708\226N\236\000hF\202\236t\353\261D/\260\\s*F\327"
 2298      9E006846 
 2298      829E74EB 
 2298      B1442FB0 
 2298      5C732A46 
 2299 0039 9EC126C3 		.ascii	"\236\301&\303\030\352\243x\026/\342U\373\242\276\252"
 2299      18EAA378 
 2299      162FE255 
 2299      FBA2BEAA 
 2300 0049 DFC4BBB8 		.ascii	"\337\304\273\270\351K\177\000\247\366\347\306\301\215"
 2300      E94B7F00 
 2300      A7F6E7C6 
 2300      C18D
 2301 0057 DD8D831B 		.ascii	"\335\215\203\033\273\033\1777\344\032_\265\275\025\250"
 2301      BB1B7F37 
 2301      E41A5FB5 
 2301      BD15A8
 2302 0066 111F6D1D 		.ascii	"\021\037m\035\243\201\365\034|\340\310\211\263\262c"
 2302      A381F51C 
 2302      7CE0C889 
 2302      B3B263
 2303 0075 AB9659F4 		.ascii	"\253\226Y\364J4|\0013\347\013\362"
 2303      4A347C01 
 2303      33E70BF2 
 2304              		.text
 2305              		.section	.gnu.lto_.decls.5c7148a491b7e67c,"e",%progbits
 2306 0000 789CA559 		.ascii	"x\234\245Y\013PTW\232\276\3779Mw\3234\217\211\272\216"
 2306      0B505457 
 2306      9ABEFF39 
 2306      4D77D334 
ARM GAS  /tmp/ccqzpcMt.s 			page 76


 2306      8F89BA8E 
 2307 0014 934DC649 		.ascii	"\223M\306I\264dk+\"h%\2733U;f2\223\311Vb&\265\231\251"
 2307      B4646B2B 
 2307      226825BB 
 2307      33553B66 
 2307      3293C956 
 2308 002d 59A76AB7 		.ascii	"Y\247j\267\207tw\204\215\200\003\215\243S5U-\210\010"
 2308      87747784 
 2308      8D80038D 
 2308      A3533555 
 2308      2D8808
 2309 0040 8A80F840 		.ascii	"\212\200\370@\001A\020\225(\202\017\224\207H\003J0\240"
 2309      01411095 
 2309      28820F94 
 2309      8748034A 
 2309      30A0
 2310 0052 E21BDFF8 		.ascii	"\342\033\337\370\014**\276x\010\310\376\347\234\333"
 2310      0C2A2ABE 
 2310      7808C8FE 
 2310      E79CDB
 2311 0061 F7DE6EDA 		.ascii	"\367\336n\332\262j\367\232\237{\373\234\357\374\377"
 2311      B26AF79A 
 2311      9F7BFB9C 
 2311      EFFCFF
 2312 0070 F73FCEB9 		.ascii	"\367?\316\271\347\334l\376\211$u\352$\351\260\237$\215"
 2312      E7DC6CFE 
 2312      892475EA 
 2312      24E9B09F 
 2312      248D
 2313 0082 E2152C49 		.ascii	"\342\025,I\322I\024\177\224:\224\271(\207Q\010H\322"
 2313      D249147F 
 2313      943A94B9 
 2313      28875108 
 2313      48D2
 2314 0094 34BC1BF0 		.ascii	"4\274\033\360nFy\212\317\317%q\2050\301\266q(\023P&"
 2314      6E46798A 
 2314      CFCF2571 
 2314      8530C1B6 
 2314      71281350 
 2315 00a9 A24C4279 		.ascii	"\242LBy\023\345-\224P\224Y(?G\371%\312oP>C\371\022\345"
 2315      13E52D94 
 2315      50945928 
 2315      3F47F925 
 2315      CA6F503E 
 2316 00c1 3F51FE1B 		.ascii	"?Q\376\033\204\275?\343}\036J4\3127(\177CIGY\211\262"
 2316      84BD3FE3 
 2316      7D1E4A34 
 2316      CA37287F 
 2316      43494759 
 2317 00d7 0A250B24 		.ascii	"\012%\013$\217\3534\221$\244\316\2710\2369\330?,\211"
 2317      8FEB3491 
 2317      24A4CEB9 
 2317      309E39D8 
 2317      3F2C89
 2318 00ea B6172883 		.ascii	"\266\027(\203(\003(\375\222\357\253\221\010\273\336"
 2318      280328FD 
 2318      92EFAB91 
ARM GAS  /tmp/ccqzpcMt.s 			page 77


 2318      08BBDE
 2319 00f9 E3F528B7 		.ascii	"\343\365(\267P.\240\254\3016@1\371\3209\212\322\205"
 2319      502EA0AC 
 2319      C1364031 
 2319      F9D0398A 
 2319      D285
 2320 010b 7216E53C 		.ascii	"r\026\345<\312\015\224\227\262n\220\375\321^?C{\030"
 2320      CA0D9497 
 2320      B26E90FD 
 2320      D15E3F43 
 2320      7B18
 2321 011d 66E90D94 		.ascii	"f\351\015\224\361(\36341v\217\011\361\032\303\256_\020"
 2321      F128F334 
 2321      31768F09 
 2321      F11AC3AE 
 2321      5F10
 2322 012f 613F4A33 		.ascii	"a?J3v-\210\261,\007\303\262\216u\330\366\037\362x*\211"
 2322      762D88B1 
 2322      2C07C3B2 
 2322      8E75D8F6 
 2322      1FF2782A 
 2323 0144 D8E7CB71 		.ascii	"\330\347\313qf\315\321^\272?@\275\223\275\364\316\365"
 2323      66CDD15E 
 2323      BA3F40BD 
 2323      93BDF4CE 
 2323      F5
 2324 0155 D2CD384E 		.ascii	"\322\3158N\305\337\005(\233P\012\345\030\025\341\375"
 2324      C5DF0528 
 2324      9B500AE5 
 2324      1815E1FD 
 2325 0165 6B94FF42 		.ascii	"k\224\377B\331\214\362)J1\210\372(a\265\002\242n\266"
 2325      D98CF229 
 2325      4A3188FA 
 2325      2861B502 
 2325      A26EB6
 2326 0178 E0DD8E52 		.ascii	"\340\335\216R\212\362G\271n\334<Y\035m\2259\031%Q/\371"
 2326      8AF247B9 
 2326      6EDC3C59 
 2326      1D6D9539 
 2326      1925512F 
 2327 018d 723D7C26 		.ascii	"r=|&\327\015\253\217\020\331\007\346\3237r}\314\363"
 2327      D70DAB8F 
 2327      10D907E6 
 2327      D337727D 
 2327      CCF3
 2328 019f F2651215 		.ascii	"\362e\022\025y\377;\266\357@\331\211\222\002\242m)\336"
 2328      79FF3BB6 
 2328      EF40D989 
 2328      9202A26D 
 2328      29DE
 2329 01b1 97A024A1 		.ascii	"\227\240$\241$\243\020I\255M\357+L\256\011mL\210\034"
 2329      24A31049 
 2329      AD4DEF2B 
 2329      4CAE096D 
 2329      4C881C
 2330 01c4 0F56072C 		.ascii	"\017V\007,>\345x\377WM\234Y\275\357\221\353\333W\336"
 2330      3EE578FF 
ARM GAS  /tmp/ccqzpcMt.s 			page 78


 2330      574D9C59 
 2330      BDEF91EB 
 2330      DB57DE
 2331 01d7 67A2CE37 		.ascii	"g\242\3167}\304\331;\266{A\330bv\334\361ev\177\215\367"
 2331      7DC4D93B 
 2331      B67B41D8 
 2331      6276DCF1 
 2331      65767F8D 
 2332 01ec 7DF2FC9B 		.ascii	"}\362\374\233\371\2328W\241\374\233l\237\325\332$y\276"
 2332      F99A3857 
 2332      A1FC9B6C 
 2332      9FD5DA24 
 2332      79BE
 2333 01fe CD92E3F9 		.ascii	"\315\222\343\371KM\034\335\363M{\275\245\211c-\263\377"
 2333      4B4D1CDD 
 2333      F34D7BBD 
 2333      A589632D 
 2333      B3FF
 2334 0210 9A384E92 		.ascii	"\2328N\222\347\273\367\365\317\377\2078NxM\034\247\241"
 2334      E7BBF7F5 
 2334      CFFF8738 
 2334      4E784D1C 
 2334      A7A1
 2335 0222 CE2059A7 		.ascii	"\316 Y\247;v\233d]\3734\261\323\306\311\035\233i\032"
 2335      3B769B64 
 2335      5DFB34B1 
 2335      D3C6C91D 
 2335      9B691A
 2336 0235 3BE334F1 		.ascii	";\3434\361 \232Xh\257\237i\342\320\200\342zM\034\334"
 2336      209A5868 
 2336      AF9F69E2 
 2336      D080E27A 
 2336      4D1CDC
 2337 0248 6B9FF735 		.ascii	"k\237\3675\201\012\233\313@\304 M\203a\355lMck\333J"
 2337      810A9BCB 
 2337      40C4204D 
 2337      8361ED6C 
 2337      4D636BDB 
 2338 025d AFB1CFE5 		.ascii	"\257\261\317\345\265\255\021\333\217\240\264\240,\226"
 2338      B5AD11DB 
 2338      8FA0B4A0 
 2338      2C96
 2339 026b 6DFD15EF 		.ascii	"m\375\025\357\2112\236\335\322\275\306\256\2460\027"
 2339      89329EDD 
 2339      D2BDC6AE 
 2339      A63017
 2340 027a F862CE9F 		.ascii	"\370b\316\237$J\2440'\277\222\254\022\354\027\3509\001"
 2340      244AA430 
 2340      27BF92AC 
 2340      12EC17E8 
 2340      3901
 2341 028c F42F0CF9 		.ascii	"\364/\014\371\006\350\360\357x\230\234G\311\352\247"
 2341      06E8F0EF 
 2341      78989C47 
 2341      C9EAA7
 2342 029b FDAD7A93 		.ascii	"\375\255z\223\313\351\354u\272\226\372KP\013P\003\022"
 2342      CBE9EC75 
ARM GAS  /tmp/ccqzpcMt.s 			page 79


 2342      BA96FA4B 
 2342      500B5003 
 2342      12
 2343 02ac 54036A39 		.ascii	"T\003j9\000P\005\260\017\370\220 \004\037kwm\01069e"
 2343      005005B0 
 2343      0FF89020 
 2343      041F6B77 
 2343      6D083639 
 2344 02c1 30360AB4 		.ascii	"06\012\264\004\3658$\014\016\012d0W> \321ER\036\325"
 2344      04F53824 
 2344      0C0E0A64 
 2344      30573E20 
 2344      D145521E 
 2345 02d6 8F9C39DB 		.ascii	"\217\2349\333a0\275\011\200\377\241\231ng\323\022*\301"
 2345      6130BD09 
 2345      80FFA199 
 2345      6E67D312 
 2345      2AC1
 2346 02e8 4C982181 		.ascii	"L\230!\201\013\000}\205&\200f \370\230\344t\016\377"
 2346      0B007D85 
 2346      26806620 
 2346      F898E474 
 2346      0EFF
 2347 02fa 14EF68A9 		.ascii	"\024\357h\251\365nW[\300\033hi\251\323\371gl\202\006"
 2347      F56E575B 
 2347      C01B6869 
 2347      A9D3F967 
 2347      6C8206
 2348 030d 8043CCD2 		.ascii	"\200C\314\322a\340\326\204\033F\3767\204\333s\012\343"
 2348      61E0D684 
 2348      1B46FE37 
 2348      84DB730A 
 2348      E3
 2349 031e 66FEA34B 		.ascii	"f\376\243K\242\177\227\370\223K\242\2307\232\212\202"
 2349      A27F97F8 
 2349      934BA298 
 2349      379A8A82 
 2350 032e F146CD4B 		.ascii	"\361F\315KS7\034%\343Dl\\<.p\034\340\004\240\267,?\353"
 2350      53371C25 
 2350      E3446C5C 
 2350      3C2E701C 
 2350      E004A0B7 
 2351 0345 04E87961 		.ascii	"\004\350ya\237\237'\250C\005!\340\334\206\015\025\304"
 2351      9F9F27A8 
 2351      430521E0 
 2351      DC860D15 
 2351      C4
 2352 0356 CCC356D4 		.ascii	"\314\303V\324\244\203\223\240\204\342\024\233m\270d"
 2352      A48393A0 
 2352      84E2149B 
 2352      6DB864
 2353 0365 D24AA649 		.ascii	"\322J\246I_phY\037L\0317\005\241\003\227\332n'\277["
 2353      5F706859 
 2353      1F4C1937 
 2353      05A10397 
 2353      DA6E27BF 
 2354 037a 9C9AEACC 		.ascii	"\234\232\352\314ZB\021\007\307\000\316\251\003\303P"
ARM GAS  /tmp/ccqzpcMt.s 			page 80


 2354      5A421107 
 2354      C700CEA9 
 2354      03C350
 2355 0389 C225E1B2 		.ascii	"\302%\341\262K'A\033\000V\001\234\346 L\305Y\200\363"
 2355      4B27411B 
 2355      0056019C 
 2355      E6204CC5 
 2355      5980F3
 2356 039c CC3A6AAA 		.ascii	"\314:j\252\314HIu\206,53%g\306(\251e\276\022\306rke"
 2356      CC484975 
 2356      862C3533 
 2356      2567C628 
 2356      A965BE12 
 2357 03b4 F176DDB8 		.ascii	"\361v\335\2701*;\275U\322|\"\3212\302\"\246\347Ud\340"
 2357      312A3BBD 
 2357      55D27C22 
 2357      D132C222 
 2357      A6E75564 
 2358 03c9 4FCCFB45 		.ascii	"O\314\373E\264\234\253\332\273\242,S\247\244^\251\223"
 2358      B49CABDA 
 2358      BBA22C53 
 2358      A7A45EA9 
 2358      93
 2359 03da AB8038D4 		.ascii	"\253\2008\324t\005\3402\346M\337\321\331QeDw\0218p."
 2359      7405E032 
 2359      E64DDFD1 
 2359      D9516544 
 2359      77113870 
 2360 03ef E741FC12 		.ascii	"\347A\374\022D\233\341\002@;\300u\220\011\214\365\365"
 2360      449BE102 
 2360      403BC075 
 2360      90098CF5 
 2360      F5
 2361 0400 28402B6A 		.ascii	"(@+j\273\310A\250\256\013\340\006#\206\210\312G\325"
 2361      BBC841A8 
 2361      AE0BE006 
 2361      238688CA 
 2361      47D5
 2362 0412 4EA7BF19 		.ascii	"N\247\277\031\256\001\\\342\335nW\271\242p\211^\342"
 2362      AE015CE2 
 2362      DD6E57B9 
 2362      A270895E 
 2362      E2
 2363 0423 FC6EE5A4 		.ascii	"\374n\345\244f\222qc4\336\364\326\310\213\344\037E\221"
 2363      66927163 
 2363      34DEF4D6 
 2363      C88BE41F 
 2363      4591
 2364 0435 00FD01FD 		.ascii	"\000\375\001\375\356Ay\202\362\222\353\351\332]_\244"
 2364      EE417982 
 2364      F292EBE9 
 2364      DA5D5FA4 
 2365 0445 F7CCFC3D 		.ascii	"\367\314\374=\200\373j\346\217\326\237\356\0045\363"
 2365      80FB6AE6 
 2365      8FD69FEE 
 2365      0435F3
 2366 0454 F755423D 		.ascii	"\367UB=,\363\351\224\201\236\024ml\365cs\031gQ\034\376"
ARM GAS  /tmp/ccqzpcMt.s 			page 81


 2366      2CF3E994 
 2366      819E146D 
 2366      6CF56373 
 2366      1967511C 
 2367 0469 2E39B73C 		.ascii	".9\267<%\230\377\256\003x(*\225p\022!\254\332\272.V"
 2367      2598FFAE 
 2367      0378282A 
 2367      95701221 
 2367      ACDABA2E 
 2368 047e 044F4483 		.ascii	"\004OD\203=N\347x\230\007\217\001z\231\302'\350\300"
 2368      3D4EE778 
 2368      98078F01 
 2368      7A99C227 
 2368      E8C0
 2369 0490 23E056DB 		.ascii	"#\340V\333\207k\323\002T\253OT\253O95\232\303\355>>"
 2369      876BD302 
 2369      54AB4F54 
 2369      AB4F3935 
 2369      9AC3ED3E 
 2370 04a5 D65F10EC 		.ascii	"\326_\020\354\003\006\317@\006\346QS]\331\225\233\372"
 2370      0306CF40 
 2370      06E65153 
 2370      5DD9959B 
 2370      FA
 2371 04b6 7153F052 		.ascii	"qS\360R\303\365\035\000[n\240\217\007\353\005\300 \300"
 2371      C3F51D00 
 2371      5B6EA08F 
 2371      07EB05C0 
 2371      20C0
 2372 04c8 0040BF5C 		.ascii	"\000@\277\\p\325Yy\031\311\006g+\316\330\347\000\017"
 2372      70D55979 
 2372      19C90667 
 2372      2BCED8E7 
 2372      000F
 2373 04da 80E13CF2 		.ascii	"\200\341<\362\2005\307\352re\262\250\313\271\320=\026"
 2373      8035C7EA 
 2373      7265B2A8 
 2373      CBB9D03D 
 2373      16
 2374 04eb 13CE21E9 		.ascii	"\023\316!\3512\004\003q\327\003\023\246\250\351Mk^\025"
 2374      32040371 
 2374      D70313A6 
 2374      A8E94D6B 
 2374      5E15
 2375 04fd C4E6480F 		.ascii	"\304\346H\017\237#}\336s\204vpg\263\357/)\017\034\347"
 2375      9F237DDE 
 2375      73847670 
 2375      67B3EF2F 
 2375      290F1CE7 
 2376 0511 ED030C81 		.ascii	"\355\003\014\201O/\2608\263\212\316\0377\216\323\272"
 2376      4F2FB038 
 2376      B38ACE1F 
 2376      378ED3BA 
 2377 0521 7D07E036 		.ascii	"}\007\3406\323;\302\007\214\002\274\224\253\256w{\311"
 2377      D33BC207 
 2377      8C02BC94 
 2377      ABAE777B 
ARM GAS  /tmp/ccqzpcMt.s 			page 82


 2377      C9
 2378 0532 E78CC130 		.ascii	"\347\214\3010\300\017\300\272\335\001r{\313*sS\211\223"
 2378      C00FC0BA 
 2378      DD01727B 
 2378      CB2A7353 
 2378      8993
 2379 0544 BB720BE0 		.ascii	"\273r\013\340{\016\022E\247\320\274\312iv\326\227\366"
 2379      7B0E1245 
 2379      A7D0BCCA 
 2379      6976D697 
 2379      F6
 2380 0555 6B690A9B 		.ascii	"ki\012\233\340$^V\021:\2341|]\223\276%Dq<\211\310\245"
 2380      E0245E56 
 2380      113A9C31 
 2380      7C5D93BE 
 2380      2544713C 
 2381 056c 6B4258FD 		.ascii	"kBX\375\326\266\254@_\313\360R\302\226\341d\302\221"
 2381      D6B6AC40 
 2381      5FCBF052 
 2381      C296E164 
 2381      C291
 2382 057e 01BCBE3A 		.ascii	"\001\274\276:\231\336%\273\036\256%\332\325t\031\201"
 2382      99DE25BB 
 2382      1EAE25DA 
 2382      D5741981 
 2383 058e 14D408A9 		.ascii	"\024\324\010\251\204\017\022\252\177\314^\007{\322s"
 2383      840F12AA 
 2383      7FCC5E07 
 2383      7BD273
 2384 059d 7DAA4EE3 		.ascii	"}\252N\343\252\227\013\325\223\270\352V\266P\217\256"
 2384      AA970BD5 
 2384      93B8EA56 
 2384      B6508FAE 
 2385 05ad D9D3A1D7 		.ascii	"\331\323\241\327\252^A \235\251\306\025\210\015b\346"
 2385      AA5E4120 
 2385      9DA9C615 
 2385      880D62E6 
 2386 05bd 77DCACBB 		.ascii	"w\334\254\273bF\237\331\213Lg\003\200\316\367\361\217"
 2386      62469FD9 
 2386      8B4C6703 
 2386      80CEF7F1 
 2386      8F
 2387 05ce 49FA1395 		.ascii	"I\372\023\225\306;\211\223\350m\224\230\250\211\332"
 2387      C63B8993 
 2387      E86D9498 
 2387      A889DA
 2388 05dd 4CADF076 		.ascii	"L\255\360v\3503:\333HB\203M\306\355\315\020b\3623\022"
 2388      E8333ADB 
 2388      4842834D 
 2388      C6EDCD10 
 2388      62F23312 
 2389 05f1 D26DB099 		.ascii	"\322m\260\231B_\300NR\244\237<\333\251\263\255\234\320"
 2389      425FC04E 
 2389      52A49F3C 
 2389      DBA9B3AD 
 2389      9CD0
 2390 0603 6D7092AC 		.ascii	"mp\222\254\317\307\317\234\215\177\273\015\255`\303"
ARM GAS  /tmp/ccqzpcMt.s 			page 83


 2390      CFC7CF9C 
 2390      8D7FBB0D 
 2390      AD60C3
 2391 0612 515FE88C 		.ascii	"Q_\350\214!\370\324m0=\243E\031z\3331\262|\032r4\331"
 2391      21F8D46D 
 2391      303DA345 
 2391      197ADB31 
 2391      B27C1A72 
 2392 0628 22C623BD 		.ascii	"\"\306#\275\331F\343\333\301M\264\211~\214\033Oc\345"
 2392      D946E3DB 
 2392      C14DB489 
 2392      7E8C1B4F 
 2392      63E5
 2393 063a AE09A66E 		.ascii	"\256\011\246nC0\252\010\265M\016\261M\016n\005?\233"
 2393      4330AA08 
 2393      B54D0EB1 
 2393      4D0E6E05 
 2393      3F9B
 2394 064c CD343E54 		.ascii	"\3154>TB\022\266\210\210\331\304\204\232u\306V\210\240"
 2394      4212B688 
 2394      88D9C484 
 2394      9A75C656 
 2394      88A0
 2395 065e 608E705E 		.ascii	"`\216p^\277?\321\344g\362\177{r\250$\331\244\217\011"
 2395      BF3FD1E4 
 2395      67F27F7B 
 2395      72A824D9 
 2395      A48F09
 2396 0671 EAA5A3EE 		.ascii	"\352\245\243\356\013\014h\323\246\376\004\0105\221\010"
 2396      0B0C68D3 
 2396      A6FE0408 
 2396      359108
 2397 0680 423FED36 		.ascii	"B?\3556\340\313\233L\306\202\322\031\315f\\NuF\177\313"
 2397      E0CB9B4C 
 2397      C682D219 
 2397      CD665C4E 
 2397      75467FCB 
 2398 0694 A7B62F22 		.ascii	"\247\266/\"LR\267\201`\327x\035+\003u\244I\217\233\231"
 2398      4C52B781 
 2398      60D7781D 
 2398      2B0375A4 
 2398      498F9B99 
 2399 06a8 9E60AC0E 		.ascii	"\236`\254\016\376\217\375\001\371\017\310\033\035\255"
 2399      FE8FFD01 
 2399      F90FC81B 
 2399      1DAD
 2400 06b6 19DECE16 		.ascii	"\031\336\316\026\025\"\243\031D\264*7\371\231\001\210"
 2400      1522A319 
 2400      44B42A37 
 2400      F9990188 
 2401 06c6 AC87C87B 		.ascii	"\254\207\310{\006\020cd#\354\257F\271\002\001\031\342"
 2401      06106364 
 2401      23ECAF46 
 2401      B9020119 
 2401      E2
 2402 06d7 D623C6C8 		.ascii	"\326#\306\310\000e\254\374\310lp0\321\216\341\343<\210"
 2402      0065ACFC 
ARM GAS  /tmp/ccqzpcMt.s 			page 84


 2402      C86C7030 
 2402      D18EE1E3 
 2402      3C88
 2403 06e9 AB2A2545 		.ascii	"\253*%E\255\233\222$~`\3354\346\\J\365\273\303^C]\015"
 2403      AD9B9224 
 2403      7E60DD34 
 2403      E65C4AF5 
 2403      BBC35E43 
 2404 06ff E9E13021 		.ascii	"\351\3410!k\266\0044C'\275\263&\3279\320w\303u\302\220"
 2404      6BB60434 
 2404      4327BDB3 
 2404      26D739D0 
 2404      77C375C2 
 2405 0714 EF74E1A6 		.ascii	"\357t\341\246\301\311W\272L\"\326h\011\237$XE \203\314"
 2405      C1C957BA 
 2405      4C22D668 
 2405      099F2458 
 2405      452083CC 
 2406 0728 690CA457 		.ascii	"i\014\244WuLUj\335\2526\223\262\304F)K\354j\204\306"
 2406      754C556A 
 2406      DDAA3693 
 2406      B2C44629 
 2406      4BEC6A84 
 2407 073d 49D23B59 		.ascii	"I\322;Y\2718\345\313R\203:\330\272\017\330\014\331\212"
 2407      B938E5CB 
 2407      52833AD8 
 2407      BA0FD80C 
 2407      D98A
 2408 074f BA6C45DD 		.ascii	"\272lE\335c3\035\324qpe~\032.c\3026\202\327(\3405\012"
 2408      63331DD4 
 2408      7170657E 
 2408      1A2E63C2 
 2408      3682D728 
 2409 0766 F88599AE 		.ascii	"\370\205\231\256\366\023\340\301\024-x\235\002^\247"
 2409      F613E0C1 
 2409      142D789D 
 2409      025EA7
 2410 0775 803706D2 		.ascii	"\2007\006\322\0352x\304\003\234\253\200s\025pr m\221"
 2410      1D3278C4 
 2410      039CAB80 
 2410      73157072 
 2410      206D91
 2411 0788 C10DC95A 		.ascii	"\301\015\311Z\360F\005\274Q\001\027\007\322\3532\270"
 2411      F04605BC 
 2411      51011707 
 2411      D2EB32B8 
 2412 0798 CE039CAF 		.ascii	"\316\003\234\257\200\363\025pM }\341\307\342U\364\262"
 2412      80F31570 
 2412      4D207DE1 
 2412      C7E255F4 
 2412      B2
 2413 07a9 A32C806D 		.ascii	"\243,\200m\013\273]\276\367k\210\271VP\230mVW\253Bu"
 2413      0BBB5DBE 
 2413      F76B88B9 
 2413      5650986D 
 2413      5657AB42 
 2414 07be B52A12F3 		.ascii	"\265*\022\363\276\345|K\205?\177\353\025\021\210\243"
ARM GAS  /tmp/ccqzpcMt.s 			page 85


 2414      BEE57C4B 
 2414      853F7FEB 
 2414      151188A3 
 2415 07ce A97A     		.ascii	"\251z"
 2416 07d0 B608D7A6 		.ascii	"\266\010\327\246\357+\321\211\355\240?\201R\222\304"
 2416      EF2BD189 
 2416      EDA03F81 
 2416      5292C4
 2417 07df E89412BE 		.ascii	"\350\224\022\2765\\j\226-\025\263\036\011J\010l!l\267"
 2417      355C6A96 
 2417      2D15B31E 
 2417      094A086C 
 2417      216CB7
 2418 07f2 75EB46B2 		.ascii	"u\353F\262PTJ`3k9\231r\177?Q\362\211\255\356\204n\303"
 2418      50544A60 
 2418      336B3999 
 2418      727F3F51 
 2418      F289ADEE 
 2419 0809 615B85F9 		.ascii	"a[\205\371\223\2072\036\371\277\223\213;\221\332'Y\317"
 2419      9387321E 
 2419      F9BF938B 
 2419      3B91DA27 
 2419      59CF
 2420 081b 27372617 		.ascii	"'7&\027\205b7lR\374\336\304g\002\335\243g\353\3374e"
 2420      8562376C 
 2420      52FCDEC4 
 2420      6702DDA3 
 2420      67EBDF34 
 2421 0830 FB8CE706 		.ascii	"\373\214\347\006\332\316\270\222\343\255\256\276\240"
 2421      DACEB892 
 2421      E3ADAEBE 
 2421      A0
 2422 083d B19BE39D 		.ascii	"\261\233\343\235\0041\270r\357 \360-#s\272\242\357\202"
 2422      0431B872 
 2422      EF20F02D 
 2422      2373BAA2 
 2422      EF82
 2423 084f 91D32B27 		.ascii	"\221\323+'\374u\177)e\367*\360\330DHPA\224-DMCs\267"
 2423      FC757F29 
 2423      65F72AF0 
 2423      D8444850 
 2423      41942D44 
 2424 0867 D71E0397 		.ascii	"\327\036\003\227\001\015`d{\345K\275\032\331J5\262\273"
 2424      010D6064 
 2424      7BE54BBD 
 2424      1AD94A35 
 2424      B2BB
 2425 0879 856B15F7 		.ascii	"\205k\025\367\222V\010\213\273\011\354b\034Z6\335+\360"
 2425      9256088B 
 2425      BB09EC62 
 2425      1C5A36DD 
 2425      2BF0
 2426 088b F7B187D8 		.ascii	"\367\261\207\330\213\361\330#\006\235\270\266\341*\360"
 2426      8BF1D823 
 2426      069DB8B6 
 2426      E12AF0
 2427 089a 7864E5B5 		.ascii	"xd\345\265\227\352\363\235M\004\273\241L\211G\231\210"
ARM GAS  /tmp/ccqzpcMt.s 			page 86


 2427      97EAF39D 
 2427      4D04BBA1 
 2427      4C894799 
 2427      88
 2428 08ab C745FD6B 		.ascii	"\307E\375k\2670\373\231\311o\257\245_\365w\2238\300"
 2428      B730FB99 
 2428      C96FAFA5 
 2428      5FF57793 
 2428      38C0
 2429 08bd 5AAA5757 		.ascii	"Z\252WW\025\032}\314\262\032$Q-H\254;\260'7\210\221"
 2429      151A7DCC 
 2429      B21A2451 
 2429      2D48AC3B 
 2429      B0273788 
 2430 08d2 E83D94B2 		.ascii	"\350=\224\262l\225\023\276\300N\250R(T\011\012\203\234"
 2430      6C9513BE 
 2430      C04EA852 
 2430      2854090A 
 2430      839C
 2431 08e4 C2DD81A5 		.ascii	"\302\335\201\245\367\205\311y\234B\337\343\353m\301"
 2431      F785C979 
 2431      9C42DFE3 
 2431      EB6DC1
 2432 08f3 6E830799 		.ascii	"n\203\007\231\301\357o\017\267\373\232\326\207\320`"
 2432      C1EF6F0F 
 2432      B7FB9AD6 
 2432      87D060
 2433 0902 BD3078BA 		.ascii	"\2750x\272\2546\223WA\345\361\224TW\010\301>\250S\354"
 2433      AC369357 
 2433      41E5F194 
 2433      545708C1 
 2433      3EA853EC 
 2434 0916 D5097B2B 		.ascii	"\325\011{+\014\014\232\327P\263M\347v\221\031L\315\\"
 2434      0C0C9AD7 
 2434      50B34DE7 
 2434      7691194C 
 2434      CD5C
 2435 0928 DD466502 		.ascii	"\335Fe\002\215\314^\357\323\275\003\324\315\240\211"
 2435      8DCC5EEF 
 2435      D3BD03D4 
 2435      CDA089
 2436 0937 97E6A6A1 		.ascii	"\227\346\246\241>_\014\016#\203f\301`\244\242e\245\201"
 2436      3E5F0C0E 
 2436      238366C1 
 2436      60A4A265 
 2436      A581
 2437 0949 33382A18 		.ascii	"38*\030\034&\340R\030\270\004\203b\316\300W\341|\247"
 2437      1C26E052 
 2437      18B80483 
 2437      62CEC057 
 2437      E17CA7
 2438 095c D6C5EDFB 		.ascii	"\326\305\355\373\337\345\004x\026\016\356v4\2003[\353"
 2438      DFE50478 
 2438      160EEE76 
 2438      3480335B 
 2438      EB
 2439 096d CE1AD5C2 		.ascii	"\316\032\325\302iU\013\347\250\340R\264yt\304\304\035"
ARM GAS  /tmp/ccqzpcMt.s 			page 87


 2439      69550BE7 
 2439      A8E052B4 
 2439      7974C4C4 
 2439      1D
 2440 097e 382A4A35 		.ascii	"8*J5\357\352\376a_u\323\206\374\277\027c\216\264g\225"
 2440      EFEAFE61 
 2440      5F75D386 
 2440      FCBF1763 
 2440      8EB46795 
 2441 0992 FBF194D5 		.ascii	"\373\361\224\325\226\212\224\265\021hQ\034h\021\016"
 2441      968A94B5 
 2441      1168511C 
 2441      68110E
 2442 09a1 ECE20E24 		.ascii	"\354\342\016$=\334\327,B\370\\\204\360inf%\221\313\350"
 2442      3DDCD72C 
 2442      42F85C84 
 2442      F0696E66 
 2442      2591CBE8 
 2443 09b5 380B585D 		.ascii	"8\013X]\305\356fp\007\371\004kY\223R\262=\330\315\251"
 2443      C5EE6670 
 2443      07F9046B 
 2443      599352B2 
 2443      3DD8CDA9 
 2444 09c9 83B594F7 		.ascii	"\203\265\224\367\3657\006\371\010\352)$uR\220J\255\315"
 2444      F53706F9 
 2444      08EA2924 
 2444      7552904A 
 2444      ADCD
 2445 09db 5C1FC849 		.ascii	"\\\037\310I\355\222\353\350\024\201c\012\251c\202T\213"
 2445      ED92EBE8 
 2445      1481630A 
 2445      A9638254 
 2445      8B
 2446 09ec C1671DAD 		.ascii	"\301g\035\255\350\311P\014\236e\006\037\034XWJ}\030"
 2446      E8C9500C 
 2446      9E65061F 
 2446      1C58574A 
 2446      7D18
 2447 09fe 3C8F06CF 		.ascii	"<\217\006\317\011\203\325\353\2275\032y\026\017\212"
 2447      0983D5EB 
 2447      97351A79 
 2447      160F8A
 2448 0a0d 2C9E2770 		.ascii	",\236'pF\261wF\330;\371\372:\272\310\354\015n\336Z\021"
 2448      46B17746 
 2448      D83BF9FA 
 2448      3ABAC8EC 
 2448      0D6EDE5A 
 2449 0a22 E8667089 		.ascii	"\350fp\211\317_W]R\200\017\006W\220\301e\301\2403/s"
 2449      CF5F575D 
 2449      52800F06 
 2449      5790C165 
 2449      C1A0332F 
 2450 0a37 0BCF4365 		.ascii	"\013\317Ce\265`p\205\300\005\205\301\005\301\340\272"
 2450      B5607085 
 2450      C00585C1 
 2450      05C1E0BA 
 2451 0a47 419A9A95 		.ascii	"A\232\232\225\345\254\356\273\221\025\346\374\204m!"
ARM GAS  /tmp/ccqzpcMt.s 			page 88


 2451      E5ACEEBB 
 2451      9115E6FC 
 2451      846D21
 2452 0a56 AF3188B2 		.ascii	"\2571\210\262\323\305_\261s\326\232\351\035\203\330"
 2452      D3C55FB1 
 2452      73D69AE9 
 2452      1D83D8
 2453 0a65 F451549C 		.ascii	"\364QT\234so\250\302\354k\323w\223o\372n\020\372\220"
 2453      736FA8C2 
 2453      EC6BD377 
 2453      936FFA6E 
 2453      10FA90
 2454 0a78 FBD573E4 		.ascii	"\373\325s\344n{\340\330\345\360\226\327r\270k\343\245"
 2454      6E7BE0D8 
 2454      E5F096D7 
 2454      72B86BE3 
 2454      A5
 2455 0a89 3490B784 		.ascii	"4\220\267\204\270\360\337&\312\346\371\016\341:9\303"
 2455      B8F0DF26 
 2455      CAE6F90E 
 2455      E13A39C3 
 2456 0a99 DE07A774 		.ascii	"\336\007\247t\237`\013\\\347\374\334\220\353D\2323\022"
 2456      9F600B5C 
 2456      E7FCDC90 
 2456      EB449A33 
 2456      12
 2457 0aaa 40FB851B 		.ascii	"@\373\205\033\275\017+\021\204\233\360n\017P7s\"\315"
 2457      BD0F2B11 
 2457      849BF06E 
 2457      0F503773 
 2457      22CD
 2458 0abc 4C8738AD 		.ascii	"L\2078\255\323\305\273\353\202\246v\212u\376\351\224"
 2458      D3C5BBEB 
 2458      82A6768A 
 2458      75FEE994 
 2459 0acc A6E4A24F 		.ascii	"\246\344\242O\260\330\356\361\021nO\356\241\332\333"
 2459      B0D8EEF1 
 2459      116E4FEE 
 2459      A1DADB
 2460 0adb 0134C528 		.ascii	"\0014\305(\321\002\224b\343\253f\333#9\240t;\2074\376"
 2460      D1029462 
 2460      E3AB66DB 
 2460      2339A074 
 2460      3B8734FE 
 2461 0aef 70E1AE81 		.ascii	"p\341\256\201C\\\356\031\327K\024\020;/\256\335Q@\325"
 2461      435CEE19 
 2461      D74B1410 
 2461      3B2FAEDD 
 2461      5140D5
 2462 0b02 19F7589D 		.ascii	"\031\367X\235qOD\326^^Z~_\234\334\\\276\001\331\233"
 2462      714F44D6 
 2462      5E5E5A7E 
 2462      5F9CDC5C 
 2462      BE01D99B 
 2463 0b16 1B36FBAB 		.ascii	"\0336\373\253\032\236\252\200g\034\240/y\232\224b\020"
 2463      1A9EAA80 
 2463      671CA02F 
ARM GAS  /tmp/ccqzpcMt.s 			page 89


 2463      799A9462 
 2463      10
 2464 0b27 9F107AAB 		.ascii	"\237\020z\253\2333\371\311\350\031\201\207\004\372\210"
 2464      9B33F9C9 
 2464      E8198187 
 2464      04FA88
 2465 0b36 F7E9C9FB 		.ascii	"\367\351\311\373\254/1\014\306\241\237\000\373\274\304"
 2465      AC2F310C 
 2465      C6A19F00 
 2465      FBBCC4
 2466 0b45 4F5715CD 		.ascii	"OW\025\315+\270\016\314\315\2031:\360\330\262W\004\247"
 2466      2BB80ECC 
 2466      CD83313A 
 2466      F0D8B257 
 2466      04A7
 2467 0b57 7FDD4533 		.ascii	"\177\335E3?\266\270\264\337\016\006\210\227F\204>L\332"
 2467      3FB6B8B4 
 2467      DF0E0688 
 2467      9746843E 
 2467      4CDA
 2468 0b69 52113435 		.ascii	"R\02145\237W\235\263\020\360\314\257\203A\002=\034\347"
 2468      9F579DB3 
 2468      10F0CCAF 
 2468      8341023D 
 2468      1CE7
 2469 0b7b E6D1C372 		.ascii	"\346\321\303r\326m\246M\030\376.n\341\373\313\225C\232"
 2469      D66DA64D 
 2469      18FE2E6E 
 2469      E1FBCB95 
 2469      439A
 2470 0b8d C56AB54A 		.ascii	"\305j\265Jd\004\025\323\273\010|\304\200\246\303/\226"
 2470      640415D3 
 2470      BB087CC4 
 2470      80A6C32F 
 2470      96
 2471 0b9e 3C32BDE2 		.ascii	"<2\275\342\300\352\244\314\310R\012\350P\022\205d*\234"
 2471      C0EAA4CC 
 2471      C8520AE8 
 2471      50128564 
 2471      2A9C
 2472 0bb0 C452E8DA 		.ascii	"\304R\350\332\033\332\230\314\217\254#\004^\022\206"
 2472      1BDA98CC 
 2472      8FAC2304 
 2472      5E1286
 2473 0bbf 1C7BD4AC 		.ascii	"\034{\324\254,\224\217\243\210\031\366\300h\216\254"
 2473      2C948FA3 
 2473      8819F6C0 
 2473      688EAC
 2474 0bce DB55CCE8 		.ascii	"\333U\314\350X\214|f-\270\231\252\211\252\227\261p\346"
 2474      588C7C66 
 2474      2DB899AA 
 2474      89AA97B1 
 2474      70E6
 2475 0be0 6F69F6F2 		.ascii	"oi\366\362G:MD\345\363j/\361\351\004;[\215\356\034\322"
 2475      473A4D44 
 2475      E5F36A2F 
 2475      F1E9043B 
ARM GAS  /tmp/ccqzpcMt.s 			page 90


 2475      5B8DEE1C 
 2476 0bf5 7C6A4851 		.ascii	"|jHQu.\243\034p\255\350\352\262@u\246-\243JXR\251\230"
 2476      752EA31C 
 2476      70ADE8EA 
 2476      B24075A6 
 2476      2DA34A58 
 2477 0c0c 69AC84D7 		.ascii	"i\254\204\327\017m\013R\013p\254\226\341\333\2566\235"
 2477      0F6D0B52 
 2477      0B70AC96 
 2477      E1DBAE36 
 2477      9D
 2478 0c1d AA65B94F 		.ascii	"\252e\271O-\253\262V\356\247,\307\270\361.\312\373\247"
 2478      2DABB256 
 2478      EEA72CC7 
 2478      B8F12ECA 
 2478      FBA7
 2479 0c2f 1C272E2E 		.ascii	"\034'..i\024\206<\346\345\020\313\361%3\3557JS\327\340"
 2479      6914863C 
 2479      E6E510CB 
 2479      F12533ED 
 2479      374A53D7 
 2480 0c44 ECAD29FD 		.ascii	"\354\255)\375<\013\230\305\025T\013\303_\261s6\233i"
 2480      3C0B98C5 
 2480      15540BC3 
 2480      5FB17336 
 2480      9B69
 2481 0c56 BA3F8755 		.ascii	"\272?\207U\336\335\206\347h\316,\303\003\227\301p\345"
 2481      DEDD86E7 
 2481      68CE2CC3 
 2481      0397C170 
 2481      E5
 2482 0c67 665A20E3 		.ascii	"fZ \343\352\312\334\270L\017\\&\303\325\230\363\250"
 2482      EACADCB8 
 2482      4C0F5C26 
 2482      C3D598F3 
 2482      A8
 2483 0c78 6E55EFC6 		.ascii	"nU\357\306\013A\374\353S\257(\023y\211\272\007\220\315"
 2483      0B41FCEB 
 2483      53AF2813 
 2483      7989BA07 
 2483      90CD
 2484 0c8a 87AC76D7 		.ascii	"\207\254v\327GV\336\240#\237\177\234\022\037\031\262"
 2484      4756DEA0 
 2484      239F7F9C 
 2484      121F19B2 
 2485 0c9a 7D242CB9 		.ascii	"}$,\271\373\354\250N\215\277\006\222#\"\367\355\376"
 2485      FBECA84E 
 2485      8DBF0692 
 2485      2322F7ED 
 2485      FE
 2486 0cab 8DFB3515 		.ascii	"\215\3735\025|A]o\326\010@E\366\326\275\232\317\204"
 2486      7C415D6F 
 2486      D6084045 
 2486      F6D6BD9A 
 2486      CF84
 2487 0cbd C32A60AD 		.ascii	"\303*`\255\000\014\346\\\354\327\000N\251s`\035\373"
 2487      000CE65C 
ARM GAS  /tmp/ccqzpcMt.s 			page 91


 2487      ECD7004E 
 2487      A973601D 
 2487      FB
 2488 0cce 8A5CE9EF 		.ascii	"\212\\\351\357\373\245\272,\273\311\354~\301\344\262"
 2488      FBA5BA2C 
 2488      BBC9EC7E 
 2488      C1E4B2
 2489 0cdd 25BC6F67 		.ascii	"%\274og\3127\356\367\311\006\326\320z\350\376e\275\217"
 2489      CA37EEF7 
 2489      C906D6D0 
 2489      7AE8FE65 
 2489      BD8F
 2490 0cef F7491EA6 		.ascii	"\367I\036\246t#\225O<#)+\330\211\247\010\223\224Ga="
 2490      7423954F 
 2490      3C23292B 
 2490      D889A708 
 2490      93944761 
 2491 0d04 15AB1AE4 		.ascii	"\025\253\032\344\263g\367\221`-\373\360[;|\342\211f"
 2491      B367F791 
 2491      602DFBF0 
 2491      5B3B7CE2 
 2491      8966
 2492 0d16 437A5BA5 		.ascii	"Cz[\245Y \374\030h\036|\252\371r1W\351\337$\372o6]\275"
 2492      5920FC18 
 2492      681E7CAA 
 2492      F9723157 
 2492      E9DF24FA 
 2493 0d2e E9A7F65F 		.ascii	"\351\247\366_Q\025\024\012@kzZ\237&\020w4\207\011\001"
 2493      5115140A 
 2493      406B7A5A 
 2493      9F261077 
 2493      34870901 
 2494 0d42 58BFB6F0 		.ascii	"X\277\266\360Oj\177\233\332\277Y\364\037\177p=K\243"
 2494      4F6A7F9B 
 2494      DABF59F4 
 2494      1F7F703D 
 2494      4BA3
 2495 0d54 609B0A28 		.ascii	"`\233\012(\026\000W\356\216z\315J\235\252\002J\004 "
 2495      160057EE 
 2495      8E7ACD4A 
 2495      9DAA024A 
 2495      0420
 2496 0d66 F351D231 		.ascii	"\363Q\3221\015\307\303j\262\266\010\300\232\341\201"
 2496      0DC7C36A 
 2496      B2B608C0 
 2496      9AE181
 2497 0d75 7C830A38 		.ascii	"|\203\0128\257j(\025\200;UC\3075K\371J\025\260\225\312"
 2497      AF6A2815 
 2497      803B5543 
 2497      C7354BF9 
 2497      4A15B095 
 2498 0d8a 1F59DE61 		.ascii	"\037Y\336a\311\0329\330\251\367\365\276\335N\331\373"
 2498      C91A39D8 
 2498      A9F7F5BE 
 2498      DD4ED9FB 
 2499 0d9a 761BE5C8 		.ascii	"v\033\345\310w\371G\226\\\366F\335\371p\327\011\217"
 2499      77F94796 
ARM GAS  /tmp/ccqzpcMt.s 			page 92


 2499      5CF646DD 
 2499      F970D709 
 2499      8F
 2500 0dab AFE1DF52 		.ascii	"\257\341\337R(C\215\260\203\362A|w_sm\277\206\334\016"
 2500      28438DB0 
 2500      83F2417C 
 2500      775F736D 
 2500      BF86DC0E 
 2501 0dbf B558770A 		.ascii	"\265Xw\012\300\241+\015e\232\343Z\215J\256\234\225Z"
 2501      C0A12B0D 
 2501      659AE35A 
 2501      8D4AAE9C 
 2501      955A
 2502 0dd1 A3BFCFAD 		.ascii	"\243\277\317\255\313\363\313\025\251\312&\277\202U\326"
 2502      CBF3CB15 
 2502      A9CA26BF 
 2502      8255D6
 2503 0de0 E8CBE715 		.ascii	"\350\313\347\025\201>*k7r\251\224+\253\362A\2528j6\352"
 2503      813E2A6B 
 2503      3772A994 
 2503      2BABF241 
 2503      AA386A36 
 2504 0df5 B01D76B9 		.ascii	"\260\035v\271+k\017{vW\326\275@\324\226_\177\242N\223"
 2504      2B6B0F7B 
 2504      7657D6BD 
 2504      40D4965F 
 2504      7FA24E93 
 2505 0e09 95C32AAB 		.ascii	"\225\303*\253\275\262_\353\272\31251\335\253\002\366"
 2505      BDB25FEB 
 2505      BACA3531 
 2505      DDAB02F6 
 2506 0e19 09404163 		.ascii	"\011@Acv\273\246\364\016\251\200*w\320\177\316\346L"
 2506      76BBA6F4 
 2506      0EA9802A 
 2506      77D07FCE 
 2506      E64C
 2507 0e2b D9F366A3 		.ascii	"\331\363f\243\257\240\037\340A\337/\202\376\013\361"
 2507      AFA01FE0 
 2507      41DF2F82 
 2507      FE0BF1
 2508 0e3a D18CF979 		.ascii	"\321\214\371y\247\254\376\010h\203^C\241\232\005\275"
 2508      A7ACFE08 
 2508      68835E43 
 2508      A19A05BD 
 2509 0e4a 96F241FC 		.ascii	"\226\362A\3744\363\250|\275f\001\250U\203^'\000;zJf"
 2509      34F3A87C 
 2509      BD6601A8 
 2509      55835E27 
 2509      003B7A4A 
 2510 0e5f F8327A90 		.ascii	"\3702z\220\033\275-\276\004\277\305\215v\363\377\357"
 2510      1BBD2DBE 
 2510      04BFC58D 
 2510      76F3FFEF 
 2511 0e6f 51D55A65 		.ascii	"Q\325Ze\320\032=D\241\236\031m\240|\020\323\231\323"
 2511      D01A3D44 
 2511      A19E196D 
 2511      A07C10D3 
ARM GAS  /tmp/ccqzpcMt.s 			page 93


 2511      99D3
 2512 0e81 5E774F63 		.ascii	"^wOc\264A5\352\022\200\253\305\003Y\232L\247\251\200"
 2512      B44135EA 
 2512      1280ABC5 
 2512      03599A4C 
 2512      A7A980
 2513 0e94 4679365E 		.ascii	"Fy6^\336\235o\360E\253\211\323j\025\264\002\005-\236"
 2513      DE9D6FF0 
 2513      45AB89D3 
 2513      6A15B402 
 2513      052D9E
 2514 0ea7 842DAB3A 		.ascii	"\204-\253:\374\265\264\016Shf\264\216P>\210a\012\237"
 2514      FCB5B40E 
 2514      536866B4 
 2514      8E503E88 
 2514      610A9F
 2515 0eba EDFB4E93 		.ascii	"\355\373N\223\207#\252\325\026\266\350~8=\354\243\250"
 2515      8723AAD5 
 2515      16B6E87E 
 2515      383DECA3 
 2515      A8
 2516 0ecb E8AFA27F 		.ascii	"\350\257\242\177\367\245%b\306\364\231\323g\2049\354"
 2516      F7A52562 
 2516      C6F499D3 
 2516      678439EC 
 2517 0edb 098EB0B8 		.ascii	"\011\216\260\270\204\371\321_\205%\304%\306[\355\232"
 2517      84F9D15F 
 2517      8525C425 
 2517      C65BED9A 
 2518 0eeb 160B7BB4 		.ascii	"\026\013{\264$\330\377\222h\217\265\332-3f|0\335j\374"
 2518      24D8FF92 
 2518      688FB5DA 
 2518      2D33667C 
 2518      30DD6AFC 
 2519 0eff EDE77F98 		.ascii	"\355\347\177\230\374Q\370\007\322\273\257\204L\267\276"
 2519      FC51F807 
 2519      D2BBAF84 
 2519      4CB7BE
 2520 0f0e FFD58CAF 		.ascii	"\377\325\214\257g\331\376E\322'D\377\315nq\350\254Q"
 2520      67D9FE45 
 2520      D22744FF 
 2520      CD6E71E8 
 2520      AC51
 2521 0f20 91F134C1 		.ascii	"\221\3614\301\036\343\207\260D\273.\326\276\310\341"
 2521      1EE387B0 
 2521      44BB2ED6 
 2521      BEC8E1
 2522 0f2f 6F8DB238 		.ascii	"o\215\2628\242\342\355\2216\243\270Y\034!JS\202E\000"
 2522      A2E2ED91 
 2522      36A3B859 
 2522      1C214A53 
 2522      824500
 2523 0f42 17C4DB17 		.ascii	"\027\304\333\027\276\027\026\025\027c\017\213\216\214"
 2523      BE171615 
 2523      17630F8B 
 2523      8E8C
 2524 0f50 59101FED 		.ascii	"Y\020\037\355\210Z\030\235\020ew8\026\207}\364\353/"
ARM GAS  /tmp/ccqzpcMt.s 			page 94


 2524      885A189D 
 2524      10657738 
 2524      16877DF4 
 2524      EB2F
 2525 0f62 174422DD 		.ascii	"\027D\"\335\230\030\353\314Y\341\357s\"\021R\350\030"
 2525      9818EBCC 
 2525      59E1EF73 
 2525      221152E8 
 2525      18
 2526 0f73 07E312C2 		.ascii	"\007\343\022\302\342\035a\321\261\326\371\2116{\230"
 2526      E21D61D1 
 2526      B1D6F989 
 2526      367B98
 2527 0f82 352AC11A 		.ascii	"5*\301\032e\233\036%\005{X\2628\314h\034\031F.\210\212"
 2527      659B1E25 
 2527      057B58B2 
 2527      38CC681C 
 2527      19462E88 
 2528 0f97 8BB7536B 		.ascii	"\213\267Sk\254\303\017\305\342"
 2528      ACC30FC5 
 2528      E2
 2529 0fa0 98F67A7D 		.ascii	"\230\366z}\366\030T\027\240\214Ew\027\304\305\315\367"
 2529      F6185417 
 2529      A08C4577 
 2529      17C4C5CD 
 2529      F7
 2530 0fb1 8B9C1F3D 		.ascii	"\213\234\037=/6 \356\253\377\261[1@\030\207\000\326"
 2530      2F3620EE 
 2530      ABFFB15B 
 2530      31401887 
 2530      00D6
 2531 0fc3 6C8942A3 		.ascii	"l\211B\243\366x\343\202\370\270\205\321\370`\216\261"
 2531      F678E382 
 2531      F8B885D1 
 2531      F8608EB1 
 2532 0fd3 C7CCB33B 		.ascii	"\307\314\263;\276N\214\265Z\034a\276\214\211\334\250"
 2532      BE4E8CB5 
 2532      5A1C61BE 
 2532      8C89DCA8 
 2533 0fe3 F6700053 		.ascii	"\366p\000S\224\200F\003\3619.~\261\205+vL\230\227\030"
 2533      94804603 
 2533      F1392E7E 
 2533      B1852B76 
 2533      4C989718 
 2534 0ff7 196FB3DB 		.ascii	"\031o\263\333,\036\2554\374"
 2534      2C1EAD34 
 2534      FC
 2535 1000 7DC93F32 		.ascii	"}\311?2>f\341\007\366\367b$\2235.\336a_\364^\314,)0"
 2535      3E66E107 
 2535      F6F76224 
 2535      93352EDE 
 2535      615FF45E 
 2536 1018 3671FE7C 		.ascii	"6q\376|\213\233\307\257\376\337\205!\375D\323\205-("
 2536      8B9BC7AF 
 2536      FEDF8521 
 2536      FD44D385 
 2536      2D28
ARM GAS  /tmp/ccqzpcMt.s 			page 95


 2537 102a 332DF645 		.ascii	"3-\366Evk\242\303\376c\037]\011vG\342\202\261\035\021"
 2537      766BA2C3 
 2537      FE631F5D 
 2537      097647E2 
 2537      82B11D11 
 2538 103e A263ACB2 		.ascii	"\242c\254\262\010\267\262\261]\341\257\266\023.\324"
 2538      08B7B2B1 
 2538      5DE1AFB6 
 2538      132ED4
 2539 104d 99455B64 		.ascii	"\231E[dB\202=\336\341g\371\025\206f\212o\217\231\277"
 2539      42823DDE 
 2539      E167F915 
 2539      86668A6F 
 2539      8F99BF
 2540 1060 AC0EF119 		.ascii	"\254\016\361\031#<\311\032\365[\021\325/p\310\207\363"
 2540      233CC91A 
 2540      F55B11D5 
 2540      2F70C887 
 2540      F3
 2541 1071 E7C7597F 		.ascii	"\347\307Y\177\037\035c\217Kt\004&,N\210\216u\330\343"
 2541      1F1D638F 
 2541      4B740426 
 2541      2C4E888E 
 2541      75D8E3
 2542 1084 17466294 		.ascii	"\027Fb\224\337\366\300\375\216'\375\337c\243\035\037"
 2542      DFF6C0FD 
 2542      8E27FDDF 
 2542      63A31D1F 
 2543 1094 B222B0DB 		.ascii	"\262\"\260\333~\344\321\375q\274\335\376\017\036-\237"
 2543      7EE4D1FD 
 2543      71BCDDFE 
 2543      0F1E2D9F 
 2544 10a4 C545DA3E 		.ascii	"\305E\332>\214\217\217\\\034`\215R\014M\024\317c\224"
 2544      8C8F8F5C 
 2544      1C608D52 
 2544      0C4D14CF 
 2544      6394
 2545 10b6 99443BD3 		.ascii	"\231D;\323\022,\036\225\341\272y1\013\302\015\242\346"
 2545      122C1E95 
 2545      E1BA7931 
 2545      0BC20DA2 
 2545      E6
 2546 10c7 128C89C8 		.ascii	"\022\214\211\310of\004\226\0006\372\213\2149\354\013"
 2546      6F660496 
 2546      0036FA8B 
 2546      8C39EC0B 
 2547 10d7 26BE2283 		.ascii	"&\276\"\203\272\330\310\030\273\23752\301\236`b\235"
 2547      BAD8C818 
 2547      BB9F3532 
 2547      C19E6062 
 2547      9D
 2548 10e8 ECC9E208 		.ascii	"\354\311\342\010b\217\012\314\361\326+\006[\"\231y\243"
 2548      628F0ACC 
 2548      F1D62B06 
 2548      5B229979 
 2548      A3
 2549 10f9 C38E2EC5 		.ascii	"\303\216.\305\3755\326\217\007\335 g\345\215\261Y\031"
ARM GAS  /tmp/ccqzpcMt.s 			page 96


 2549      FD35D68F 
 2549      07DD2067 
 2549      E58DB159 
 2549      19
 2550 110a DB1431B6 		.ascii	"\333\0241\266if\210w\004&\276\"\314\377\013$!\014a"
 2550      69668877 
 2550      0426BE22 
 2550      CCFF0B24 
 2550      210C61
 2551              		.text
 2552              		.section	.gnu.lto_.symtab.5c7148a491b7e67c,"e",%progbits
 2553 0000 6F736C69 		.ascii	"oslib_test_sequence_007\000"
 2553      625F7465 
 2553      73745F73 
 2553      65717565 
 2553      6E63655F 
 2554 0018 00       		.ascii	"\000"
 2555 0019 00       		.ascii	"\000"
 2556 001a 00       		.ascii	"\000"
 2557 001b 00000000 		.ascii	"\000\000\000\000\000\000\000\000"
 2557      00000000 
 2558 0023 7A010000 		.ascii	"z\001\000\000"
 2559 0027 6F736C69 		.ascii	"oslib_test_sequence_007_array\000"
 2559      625F7465 
 2559      73745F73 
 2559      65717565 
 2559      6E63655F 
 2560 0045 00       		.ascii	"\000"
 2561 0046 00       		.ascii	"\000"
 2562 0047 00       		.ascii	"\000"
 2563 0048 00000000 		.ascii	"\000\000\000\000\000\000\000\000"
 2563      00000000 
 2564 0050 8A010000 		.ascii	"\212\001\000\000"
 2565 0054 74657374 		.ascii	"test_step\000"
 2565      5F737465 
 2565      7000
 2566 005e 00       		.ascii	"\000"
 2567 005f 02       		.ascii	"\002"
 2568 0060 00       		.ascii	"\000"
 2569 0061 00000000 		.ascii	"\000\000\000\000\000\000\000\000"
 2569      00000000 
 2570 0069 6B010000 		.ascii	"k\001\000\000"
 2571 006d 5F746573 		.ascii	"_test_assert\000"
 2571      745F6173 
 2571      73657274 
 2571      00
 2572 007a 00       		.ascii	"\000"
 2573 007b 02       		.ascii	"\002"
 2574 007c 00       		.ascii	"\000"
 2575 007d 00000000 		.ascii	"\000\000\000\000\000\000\000\000"
 2575      00000000 
 2576 0085 28010000 		.ascii	"(\001\000\000"
 2577 0089 63684775 		.ascii	"chGuardedPoolAllocTimeout\000"
 2577      61726465 
 2577      64506F6F 
 2577      6C416C6C 
 2577      6F635469 
ARM GAS  /tmp/ccqzpcMt.s 			page 97


 2578 00a3 00       		.ascii	"\000"
 2579 00a4 02       		.ascii	"\002"
 2580 00a5 00       		.ascii	"\000"
 2581 00a6 00000000 		.ascii	"\000\000\000\000\000\000\000\000"
 2581      00000000 
 2582 00ae 34010000 		.ascii	"4\001\000\000"
 2583 00b2 63684775 		.ascii	"chGuardedPoolObjectInitAligned\000"
 2583      61726465 
 2583      64506F6F 
 2583      6C4F626A 
 2583      65637449 
 2584 00d1 00       		.ascii	"\000"
 2585 00d2 02       		.ascii	"\002"
 2586 00d3 00       		.ascii	"\000"
 2587 00d4 00000000 		.ascii	"\000\000\000\000\000\000\000\000"
 2587      00000000 
 2588 00dc 3A010000 		.ascii	":\001\000\000"
 2589 00e0 63684775 		.ascii	"chGuardedPoolFree\000"
 2589      61726465 
 2589      64506F6F 
 2589      6C467265 
 2589      6500
 2590 00f2 00       		.ascii	"\000"
 2591 00f3 02       		.ascii	"\002"
 2592 00f4 00       		.ascii	"\000"
 2593 00f5 00000000 		.ascii	"\000\000\000\000\000\000\000\000"
 2593      00000000 
 2594 00fd 3F010000 		.ascii	"?\001\000\000"
 2595 0101 63684775 		.ascii	"chGuardedPoolLoadArray\000"
 2595      61726465 
 2595      64506F6F 
 2595      6C4C6F61 
 2595      64417272 
 2596 0118 00       		.ascii	"\000"
 2597 0119 02       		.ascii	"\002"
 2598 011a 00       		.ascii	"\000"
 2599 011b 00000000 		.ascii	"\000\000\000\000\000\000\000\000"
 2599      00000000 
 2600 0123 45010000 		.ascii	"E\001\000\000"
 2601 0127 6368506F 		.ascii	"chPoolAlloc\000"
 2601      6F6C416C 
 2601      6C6F6300 
 2602 0133 00       		.ascii	"\000"
 2603 0134 02       		.ascii	"\002"
 2604 0135 00       		.ascii	"\000"
 2605 0136 00000000 		.ascii	"\000\000\000\000\000\000\000\000"
 2605      00000000 
 2606 013e 4C010000 		.ascii	"L\001\000\000"
 2607 0142 6368506F 		.ascii	"chPoolObjectInitAligned\000"
 2607      6F6C4F62 
 2607      6A656374 
 2607      496E6974 
 2607      416C6967 
 2608 015a 00       		.ascii	"\000"
 2609 015b 02       		.ascii	"\002"
 2610 015c 00       		.ascii	"\000"
 2611 015d 00000000 		.ascii	"\000\000\000\000\000\000\000\000"
ARM GAS  /tmp/ccqzpcMt.s 			page 98


 2611      00000000 
 2612 0165 53010000 		.ascii	"S\001\000\000"
 2613 0169 6368506F 		.ascii	"chPoolFree\000"
 2613      6F6C4672 
 2613      656500
 2614 0174 00       		.ascii	"\000"
 2615 0175 02       		.ascii	"\002"
 2616 0176 00       		.ascii	"\000"
 2617 0177 00000000 		.ascii	"\000\000\000\000\000\000\000\000"
 2617      00000000 
 2618 017f 58010000 		.ascii	"X\001\000\000"
 2619 0183 6368506F 		.ascii	"chPoolLoadArray\000"
 2619      6F6C4C6F 
 2619      61644172 
 2619      72617900 
 2620 0193 00       		.ascii	"\000"
 2621 0194 02       		.ascii	"\002"
 2622 0195 00       		.ascii	"\000"
 2623 0196 00000000 		.ascii	"\000\000\000\000\000\000\000\000"
 2623      00000000 
 2624 019e 5E010000 		.ascii	"^\001\000\000"
 2625              		.text
 2626              		.section	.gnu.lto_.ext_symtab.5c7148a491b7e67c,"e",%progbits
 2627 0000 01       		.ascii	"\001"
 2628 0001 02       		.ascii	"\002"
 2629 0002 00       		.ascii	"\000"
 2630 0003 02       		.ascii	"\002"
 2631 0004 00       		.ascii	"\000"
 2632 0005 02       		.ascii	"\002"
 2633 0006 01       		.ascii	"\001"
 2634 0007 01       		.ascii	"\001"
 2635 0008 00       		.ascii	"\000"
 2636 0009 01       		.ascii	"\001"
 2637 000a 00       		.ascii	"\000"
 2638 000b 01       		.ascii	"\001"
 2639 000c 00       		.ascii	"\000"
 2640 000d 01       		.ascii	"\001"
 2641 000e 00       		.ascii	"\000"
 2642 000f 01       		.ascii	"\001"
 2643 0010 00       		.ascii	"\000"
 2644 0011 01       		.ascii	"\001"
 2645 0012 00       		.ascii	"\000"
 2646 0013 01       		.ascii	"\001"
 2647 0014 00       		.ascii	"\000"
 2648 0015 01       		.ascii	"\001"
 2649 0016 00       		.ascii	"\000"
 2650 0017 01       		.ascii	"\001"
 2651 0018 00       		.ascii	"\000"
 2652              		.text
 2653              		.section	.gnu.lto_.opts,"e",%progbits
 2654 0000 272D666E 		.ascii	"'-fno-openmp' '-fno-openacc' '-fno-pie' '-fcf-prote"
 2654      6F2D6F70 
 2654      656E6D70 
 2654      2720272D 
 2654      666E6F2D 
 2655 0033 6374696F 		.ascii	"ction=none' '-g' '-mcpu=cortex-m4' '-mthumb' '-mflo"
 2655      6E3D6E6F 
ARM GAS  /tmp/ccqzpcMt.s 			page 99


 2655      6E652720 
 2655      272D6727 
 2655      20272D6D 
 2656 0066 61742D61 		.ascii	"at-abi=soft' '-march=armv7e-m' '-O2' '-fomit-frame-"
 2656      62693D73 
 2656      6F667427 
 2656      20272D6D 
 2656      61726368 
 2657 0099 706F696E 		.ascii	"pointer' '-falign-functions=16' '-ffunction-section"
 2657      74657227 
 2657      20272D66 
 2657      616C6967 
 2657      6E2D6675 
 2658 00cc 73272027 		.ascii	"s' '-fdata-sections' '-fno-common' '-flto' '-Xassem"
 2658      2D666461 
 2658      74612D73 
 2658      65637469 
 2658      6F6E7327 
 2659 00ff 626C6572 		.ascii	"bler' '-alms=./build/lst/oslib_test_sequence_007.ls"
 2659      2720272D 
 2659      616C6D73 
 2659      3D2E2F62 
 2659      75696C64 
 2660 0132 742700   		.ascii	"t'\000"
 2661              		.text
 2662              		.comm	__gnu_lto_slim,1,1
 2663              		.ident	"GCC: (GNU Arm Embedded Toolchain 10-2020-q4-major) 10.2.1 20201103 (release)"
ARM GAS  /tmp/ccqzpcMt.s 			page 100


DEFINED SYMBOLS
                            *ABS*:0000000000000000 oslib_test_sequence_007.c
     /tmp/ccqzpcMt.s:32     .gnu.debuglto_.debug_info:0000000000000000 oslib_test_sequence_007.c.c6b0f4d8
                            *COM*:0000000000000001 __gnu_lto_slim

NO UNDEFINED SYMBOLS
