ARM GAS  /tmp/cc5NbDbo.s 			page 1


   1              		.cpu cortex-m4
   2              		.eabi_attribute 20, 1
   3              		.eabi_attribute 21, 1
   4              		.eabi_attribute 23, 3
   5              		.eabi_attribute 24, 1
   6              		.eabi_attribute 25, 1
   7              		.eabi_attribute 26, 1
   8              		.eabi_attribute 30, 2
   9              		.eabi_attribute 34, 1
  10              		.eabi_attribute 18, 4
  11              		.file	"oslib_test_root.c"
  12              		.file 1 "./ChibiOS_20.3.0/test/lib/ch_test.h"
  13              		.file 2 "./ChibiOS_20.3.0/test/oslib/source/test/oslib_test_sequence_001.h"
  14              		.file 3 "./ChibiOS_20.3.0/test/oslib/source/test/oslib_test_sequence_002.h"
  15              		.file 4 "./ChibiOS_20.3.0/test/oslib/source/test/oslib_test_sequence_003.h"
  16              		.file 5 "./ChibiOS_20.3.0/test/oslib/source/test/oslib_test_sequence_004.h"
  17              		.file 6 "./ChibiOS_20.3.0/test/oslib/source/test/oslib_test_sequence_005.h"
  18              		.file 7 "./ChibiOS_20.3.0/test/oslib/source/test/oslib_test_sequence_006.h"
  19              		.file 8 "./ChibiOS_20.3.0/test/oslib/source/test/oslib_test_sequence_007.h"
  20              		.file 9 "./ChibiOS_20.3.0/test/oslib/source/test/oslib_test_sequence_008.h"
  21              		.file 10 "./ChibiOS_20.3.0/test/oslib/source/test/oslib_test_sequence_009.h"
  22              		.file 11 "./ChibiOS_20.3.0/test/oslib/source/test/oslib_test_root.h"
  23              		.file 12 "./ChibiOS_20.3.0/test/oslib/source/test/oslib_test_root.c"
  24              		.section	.gnu.debuglto_.debug_info,"e",%progbits
  25              	.Ldebug_info0:
  26              		.hidden	oslib_test_root.c.e4244009
  27              		.weak	oslib_test_root.c.e4244009
  28              	oslib_test_root.c.e4244009:
  29 0000 03020000 		.4byte	0x203
  30 0004 0400     		.2byte	0x4
  31 0006 00000000 		.4byte	.Ldebug_abbrev0
  32 000a 04       		.byte	0x4
  33 000b 01       		.uleb128 0x1
  34 000c C6000000 		.4byte	.LASF31
  35 0010 0C       		.byte	0xc
  36 0011 E6010000 		.4byte	.LASF32
  37 0015 EC020000 		.4byte	.LASF33
  38 0019 00000000 		.4byte	.Ldebug_line0
  39 001d 02       		.uleb128 0x2
  40 001e 04       		.byte	0x4
  41 001f 05       		.byte	0x5
  42 0020 696E7400 		.ascii	"int\000"
  43 0024 03       		.uleb128 0x3
  44 0025 04       		.byte	0x4
  45 0026 07       		.byte	0x7
  46 0027 52020000 		.4byte	.LASF0
  47 002b 03       		.uleb128 0x3
  48 002c 08       		.byte	0x8
  49 002d 05       		.byte	0x5
  50 002e 74020000 		.4byte	.LASF1
  51 0032 03       		.uleb128 0x3
  52 0033 08       		.byte	0x8
  53 0034 04       		.byte	0x4
  54 0035 CE020000 		.4byte	.LASF2
  55 0039 03       		.uleb128 0x3
  56 003a 01       		.byte	0x1
  57 003b 06       		.byte	0x6
ARM GAS  /tmp/cc5NbDbo.s 			page 2


  58 003c DA020000 		.4byte	.LASF3
  59 0040 03       		.uleb128 0x3
  60 0041 01       		.byte	0x1
  61 0042 08       		.byte	0x8
  62 0043 BD010000 		.4byte	.LASF4
  63 0047 03       		.uleb128 0x3
  64 0048 02       		.byte	0x2
  65 0049 05       		.byte	0x5
  66 004a 37020000 		.4byte	.LASF5
  67 004e 03       		.uleb128 0x3
  68 004f 02       		.byte	0x2
  69 0050 07       		.byte	0x7
  70 0051 8B010000 		.4byte	.LASF6
  71 0055 03       		.uleb128 0x3
  72 0056 04       		.byte	0x4
  73 0057 05       		.byte	0x5
  74 0058 C5020000 		.4byte	.LASF7
  75 005c 03       		.uleb128 0x3
  76 005d 04       		.byte	0x4
  77 005e 07       		.byte	0x7
  78 005f CB010000 		.4byte	.LASF8
  79 0063 03       		.uleb128 0x3
  80 0064 08       		.byte	0x8
  81 0065 07       		.byte	0x7
  82 0066 A6010000 		.4byte	.LASF9
  83 006a 04       		.uleb128 0x4
  84 006b 04       		.byte	0x4
  85 006c 77000000 		.4byte	0x77
  86 0070 03       		.uleb128 0x3
  87 0071 01       		.byte	0x1
  88 0072 08       		.byte	0x8
  89 0073 5F020000 		.4byte	.LASF10
  90 0077 05       		.uleb128 0x5
  91 0078 70000000 		.4byte	0x70
  92 007c 03       		.uleb128 0x3
  93 007d 01       		.byte	0x1
  94 007e 02       		.byte	0x2
  95 007f E6020000 		.4byte	.LASF11
  96 0083 06       		.uleb128 0x6
  97 0084 10       		.byte	0x10
  98 0085 01       		.byte	0x1
  99 0086 4C       		.byte	0x4c
 100 0087 09       		.byte	0x9
 101 0088 C1000000 		.4byte	0xc1
 102 008c 07       		.uleb128 0x7
 103 008d 9A020000 		.4byte	.LASF12
 104 0091 01       		.byte	0x1
 105 0092 4D       		.byte	0x4d
 106 0093 0F       		.byte	0xf
 107 0094 6A000000 		.4byte	0x6a
 108 0098 00       		.byte	0
 109 0099 07       		.uleb128 0x7
 110 009a C0000000 		.4byte	.LASF13
 111 009e 01       		.byte	0x1
 112 009f 4E       		.byte	0x4e
 113 00a0 0A       		.byte	0xa
 114 00a1 C2000000 		.4byte	0xc2
ARM GAS  /tmp/cc5NbDbo.s 			page 3


 115 00a5 04       		.byte	0x4
 116 00a6 07       		.uleb128 0x7
 117 00a7 DD010000 		.4byte	.LASF14
 118 00ab 01       		.byte	0x1
 119 00ac 4F       		.byte	0x4f
 120 00ad 0A       		.byte	0xa
 121 00ae C2000000 		.4byte	0xc2
 122 00b2 08       		.byte	0x8
 123 00b3 07       		.uleb128 0x7
 124 00b4 9E010000 		.4byte	.LASF15
 125 00b8 01       		.byte	0x1
 126 00b9 50       		.byte	0x50
 127 00ba 0A       		.byte	0xa
 128 00bb C2000000 		.4byte	0xc2
 129 00bf 0C       		.byte	0xc
 130 00c0 00       		.byte	0
 131 00c1 08       		.uleb128 0x8
 132 00c2 04       		.uleb128 0x4
 133 00c3 04       		.byte	0x4
 134 00c4 C1000000 		.4byte	0xc1
 135 00c8 09       		.uleb128 0x9
 136 00c9 20020000 		.4byte	.LASF17
 137 00cd 01       		.byte	0x1
 138 00ce 51       		.byte	0x51
 139 00cf 03       		.byte	0x3
 140 00d0 83000000 		.4byte	0x83
 141 00d4 05       		.uleb128 0x5
 142 00d5 C8000000 		.4byte	0xc8
 143 00d9 06       		.uleb128 0x6
 144 00da 08       		.byte	0x8
 145 00db 01       		.byte	0x1
 146 00dc 56       		.byte	0x56
 147 00dd 09       		.byte	0x9
 148 00de FD000000 		.4byte	0xfd
 149 00e2 07       		.uleb128 0x7
 150 00e3 9A020000 		.4byte	.LASF12
 151 00e7 01       		.byte	0x1
 152 00e8 57       		.byte	0x57
 153 00e9 16       		.byte	0x16
 154 00ea 6A000000 		.4byte	0x6a
 155 00ee 00       		.byte	0
 156 00ef 07       		.uleb128 0x7
 157 00f0 6E020000 		.4byte	.LASF16
 158 00f4 01       		.byte	0x1
 159 00f5 58       		.byte	0x58
 160 00f6 1E       		.byte	0x1e
 161 00f7 FD000000 		.4byte	0xfd
 162 00fb 04       		.byte	0x4
 163 00fc 00       		.byte	0
 164 00fd 04       		.uleb128 0x4
 165 00fe 04       		.byte	0x4
 166 00ff 09010000 		.4byte	0x109
 167 0103 04       		.uleb128 0x4
 168 0104 04       		.byte	0x4
 169 0105 D4000000 		.4byte	0xd4
 170 0109 05       		.uleb128 0x5
 171 010a 03010000 		.4byte	0x103
ARM GAS  /tmp/cc5NbDbo.s 			page 4


 172 010e 09       		.uleb128 0x9
 173 010f B6020000 		.4byte	.LASF18
 174 0113 01       		.byte	0x1
 175 0114 59       		.byte	0x59
 176 0115 03       		.byte	0x3
 177 0116 D9000000 		.4byte	0xd9
 178 011a 05       		.uleb128 0x5
 179 011b 0E010000 		.4byte	0x10e
 180 011f 06       		.uleb128 0x6
 181 0120 08       		.byte	0x8
 182 0121 01       		.byte	0x1
 183 0122 5E       		.byte	0x5e
 184 0123 09       		.byte	0x9
 185 0124 43010000 		.4byte	0x143
 186 0128 07       		.uleb128 0x7
 187 0129 9A020000 		.4byte	.LASF12
 188 012d 01       		.byte	0x1
 189 012e 5F       		.byte	0x5f
 190 012f 16       		.byte	0x16
 191 0130 6A000000 		.4byte	0x6a
 192 0134 00       		.byte	0
 193 0135 07       		.uleb128 0x7
 194 0136 64020000 		.4byte	.LASF19
 195 013a 01       		.byte	0x1
 196 013b 60       		.byte	0x60
 197 013c 22       		.byte	0x22
 198 013d 43010000 		.4byte	0x143
 199 0141 04       		.byte	0x4
 200 0142 00       		.byte	0
 201 0143 04       		.uleb128 0x4
 202 0144 04       		.byte	0x4
 203 0145 4F010000 		.4byte	0x14f
 204 0149 04       		.uleb128 0x4
 205 014a 04       		.byte	0x4
 206 014b 1A010000 		.4byte	0x11a
 207 014f 05       		.uleb128 0x5
 208 0150 49010000 		.4byte	0x149
 209 0154 09       		.uleb128 0x9
 210 0155 2B020000 		.4byte	.LASF20
 211 0159 01       		.byte	0x1
 212 015a 61       		.byte	0x61
 213 015b 03       		.byte	0x3
 214 015c 1F010000 		.4byte	0x11f
 215 0160 05       		.uleb128 0x5
 216 0161 54010000 		.4byte	0x154
 217 0165 0A       		.uleb128 0xa
 218 0166 00000000 		.4byte	.LASF21
 219 016a 02       		.byte	0x2
 220 016b 19       		.byte	0x19
 221 016c 1D       		.byte	0x1d
 222 016d 1A010000 		.4byte	0x11a
 223 0171 0A       		.uleb128 0xa
 224 0172 18000000 		.4byte	.LASF22
 225 0176 03       		.byte	0x3
 226 0177 19       		.byte	0x19
 227 0178 1D       		.byte	0x1d
 228 0179 1A010000 		.4byte	0x11a
ARM GAS  /tmp/cc5NbDbo.s 			page 5


 229 017d 0A       		.uleb128 0xa
 230 017e 30000000 		.4byte	.LASF23
 231 0182 04       		.byte	0x4
 232 0183 19       		.byte	0x19
 233 0184 1D       		.byte	0x1d
 234 0185 1A010000 		.4byte	0x11a
 235 0189 0A       		.uleb128 0xa
 236 018a 48000000 		.4byte	.LASF24
 237 018e 05       		.byte	0x5
 238 018f 19       		.byte	0x19
 239 0190 1D       		.byte	0x1d
 240 0191 1A010000 		.4byte	0x11a
 241 0195 0A       		.uleb128 0xa
 242 0196 60000000 		.4byte	.LASF25
 243 019a 06       		.byte	0x6
 244 019b 19       		.byte	0x19
 245 019c 1D       		.byte	0x1d
 246 019d 1A010000 		.4byte	0x11a
 247 01a1 0A       		.uleb128 0xa
 248 01a2 78000000 		.4byte	.LASF26
 249 01a6 07       		.byte	0x7
 250 01a7 19       		.byte	0x19
 251 01a8 1D       		.byte	0x1d
 252 01a9 1A010000 		.4byte	0x11a
 253 01ad 0A       		.uleb128 0xa
 254 01ae 90000000 		.4byte	.LASF27
 255 01b2 08       		.byte	0x8
 256 01b3 19       		.byte	0x19
 257 01b4 1D       		.byte	0x1d
 258 01b5 1A010000 		.4byte	0x11a
 259 01b9 0A       		.uleb128 0xa
 260 01ba A8000000 		.4byte	.LASF28
 261 01be 09       		.byte	0x9
 262 01bf 19       		.byte	0x19
 263 01c0 1D       		.byte	0x1d
 264 01c1 1A010000 		.4byte	0x11a
 265 01c5 0A       		.uleb128 0xa
 266 01c6 82020000 		.4byte	.LASF29
 267 01ca 0A       		.byte	0xa
 268 01cb 19       		.byte	0x19
 269 01cc 1D       		.byte	0x1d
 270 01cd 1A010000 		.4byte	0x11a
 271 01d1 0A       		.uleb128 0xa
 272 01d2 41020000 		.4byte	.LASF30
 273 01d6 0B       		.byte	0xb
 274 01d7 2B       		.byte	0x2b
 275 01d8 1A       		.byte	0x1a
 276 01d9 60010000 		.4byte	0x160
 277 01dd 0B       		.uleb128 0xb
 278 01de 4F010000 		.4byte	0x14f
 279 01e2 ED010000 		.4byte	0x1ed
 280 01e6 0C       		.uleb128 0xc
 281 01e7 24000000 		.4byte	0x24
 282 01eb 09       		.byte	0x9
 283 01ec 00       		.byte	0
 284 01ed 05       		.uleb128 0x5
 285 01ee DD010000 		.4byte	0x1dd
ARM GAS  /tmp/cc5NbDbo.s 			page 6


 286 01f2 0D       		.uleb128 0xd
 287 01f3 9F020000 		.4byte	.LASF34
 288 01f7 0C       		.byte	0xc
 289 01f8 35       		.byte	0x35
 290 01f9 1E       		.byte	0x1e
 291 01fa ED010000 		.4byte	0x1ed
 292 01fe 0E       		.uleb128 0xe
 293 01ff D1010000 		.4byte	0x1d1
 294 0203 0C       		.byte	0xc
 295 0204 55       		.byte	0x55
 296 0205 13       		.byte	0x13
 297 0206 00       		.byte	0
 298              		.section	.gnu.debuglto_.debug_abbrev,"e",%progbits
 299              	.Ldebug_abbrev0:
 300 0000 01       		.uleb128 0x1
 301 0001 11       		.uleb128 0x11
 302 0002 01       		.byte	0x1
 303 0003 25       		.uleb128 0x25
 304 0004 0E       		.uleb128 0xe
 305 0005 13       		.uleb128 0x13
 306 0006 0B       		.uleb128 0xb
 307 0007 03       		.uleb128 0x3
 308 0008 0E       		.uleb128 0xe
 309 0009 1B       		.uleb128 0x1b
 310 000a 0E       		.uleb128 0xe
 311 000b 10       		.uleb128 0x10
 312 000c 17       		.uleb128 0x17
 313 000d 00       		.byte	0
 314 000e 00       		.byte	0
 315 000f 02       		.uleb128 0x2
 316 0010 24       		.uleb128 0x24
 317 0011 00       		.byte	0
 318 0012 0B       		.uleb128 0xb
 319 0013 0B       		.uleb128 0xb
 320 0014 3E       		.uleb128 0x3e
 321 0015 0B       		.uleb128 0xb
 322 0016 03       		.uleb128 0x3
 323 0017 08       		.uleb128 0x8
 324 0018 00       		.byte	0
 325 0019 00       		.byte	0
 326 001a 03       		.uleb128 0x3
 327 001b 24       		.uleb128 0x24
 328 001c 00       		.byte	0
 329 001d 0B       		.uleb128 0xb
 330 001e 0B       		.uleb128 0xb
 331 001f 3E       		.uleb128 0x3e
 332 0020 0B       		.uleb128 0xb
 333 0021 03       		.uleb128 0x3
 334 0022 0E       		.uleb128 0xe
 335 0023 00       		.byte	0
 336 0024 00       		.byte	0
 337 0025 04       		.uleb128 0x4
 338 0026 0F       		.uleb128 0xf
 339 0027 00       		.byte	0
 340 0028 0B       		.uleb128 0xb
 341 0029 0B       		.uleb128 0xb
 342 002a 49       		.uleb128 0x49
ARM GAS  /tmp/cc5NbDbo.s 			page 7


 343 002b 13       		.uleb128 0x13
 344 002c 00       		.byte	0
 345 002d 00       		.byte	0
 346 002e 05       		.uleb128 0x5
 347 002f 26       		.uleb128 0x26
 348 0030 00       		.byte	0
 349 0031 49       		.uleb128 0x49
 350 0032 13       		.uleb128 0x13
 351 0033 00       		.byte	0
 352 0034 00       		.byte	0
 353 0035 06       		.uleb128 0x6
 354 0036 13       		.uleb128 0x13
 355 0037 01       		.byte	0x1
 356 0038 0B       		.uleb128 0xb
 357 0039 0B       		.uleb128 0xb
 358 003a 3A       		.uleb128 0x3a
 359 003b 0B       		.uleb128 0xb
 360 003c 3B       		.uleb128 0x3b
 361 003d 0B       		.uleb128 0xb
 362 003e 39       		.uleb128 0x39
 363 003f 0B       		.uleb128 0xb
 364 0040 01       		.uleb128 0x1
 365 0041 13       		.uleb128 0x13
 366 0042 00       		.byte	0
 367 0043 00       		.byte	0
 368 0044 07       		.uleb128 0x7
 369 0045 0D       		.uleb128 0xd
 370 0046 00       		.byte	0
 371 0047 03       		.uleb128 0x3
 372 0048 0E       		.uleb128 0xe
 373 0049 3A       		.uleb128 0x3a
 374 004a 0B       		.uleb128 0xb
 375 004b 3B       		.uleb128 0x3b
 376 004c 0B       		.uleb128 0xb
 377 004d 39       		.uleb128 0x39
 378 004e 0B       		.uleb128 0xb
 379 004f 49       		.uleb128 0x49
 380 0050 13       		.uleb128 0x13
 381 0051 38       		.uleb128 0x38
 382 0052 0B       		.uleb128 0xb
 383 0053 00       		.byte	0
 384 0054 00       		.byte	0
 385 0055 08       		.uleb128 0x8
 386 0056 15       		.uleb128 0x15
 387 0057 00       		.byte	0
 388 0058 27       		.uleb128 0x27
 389 0059 19       		.uleb128 0x19
 390 005a 00       		.byte	0
 391 005b 00       		.byte	0
 392 005c 09       		.uleb128 0x9
 393 005d 16       		.uleb128 0x16
 394 005e 00       		.byte	0
 395 005f 03       		.uleb128 0x3
 396 0060 0E       		.uleb128 0xe
 397 0061 3A       		.uleb128 0x3a
 398 0062 0B       		.uleb128 0xb
 399 0063 3B       		.uleb128 0x3b
ARM GAS  /tmp/cc5NbDbo.s 			page 8


 400 0064 0B       		.uleb128 0xb
 401 0065 39       		.uleb128 0x39
 402 0066 0B       		.uleb128 0xb
 403 0067 49       		.uleb128 0x49
 404 0068 13       		.uleb128 0x13
 405 0069 00       		.byte	0
 406 006a 00       		.byte	0
 407 006b 0A       		.uleb128 0xa
 408 006c 34       		.uleb128 0x34
 409 006d 00       		.byte	0
 410 006e 03       		.uleb128 0x3
 411 006f 0E       		.uleb128 0xe
 412 0070 3A       		.uleb128 0x3a
 413 0071 0B       		.uleb128 0xb
 414 0072 3B       		.uleb128 0x3b
 415 0073 0B       		.uleb128 0xb
 416 0074 39       		.uleb128 0x39
 417 0075 0B       		.uleb128 0xb
 418 0076 49       		.uleb128 0x49
 419 0077 13       		.uleb128 0x13
 420 0078 3F       		.uleb128 0x3f
 421 0079 19       		.uleb128 0x19
 422 007a 3C       		.uleb128 0x3c
 423 007b 19       		.uleb128 0x19
 424 007c 00       		.byte	0
 425 007d 00       		.byte	0
 426 007e 0B       		.uleb128 0xb
 427 007f 01       		.uleb128 0x1
 428 0080 01       		.byte	0x1
 429 0081 49       		.uleb128 0x49
 430 0082 13       		.uleb128 0x13
 431 0083 01       		.uleb128 0x1
 432 0084 13       		.uleb128 0x13
 433 0085 00       		.byte	0
 434 0086 00       		.byte	0
 435 0087 0C       		.uleb128 0xc
 436 0088 21       		.uleb128 0x21
 437 0089 00       		.byte	0
 438 008a 49       		.uleb128 0x49
 439 008b 13       		.uleb128 0x13
 440 008c 2F       		.uleb128 0x2f
 441 008d 0B       		.uleb128 0xb
 442 008e 00       		.byte	0
 443 008f 00       		.byte	0
 444 0090 0D       		.uleb128 0xd
 445 0091 34       		.uleb128 0x34
 446 0092 00       		.byte	0
 447 0093 03       		.uleb128 0x3
 448 0094 0E       		.uleb128 0xe
 449 0095 3A       		.uleb128 0x3a
 450 0096 0B       		.uleb128 0xb
 451 0097 3B       		.uleb128 0x3b
 452 0098 0B       		.uleb128 0xb
 453 0099 39       		.uleb128 0x39
 454 009a 0B       		.uleb128 0xb
 455 009b 49       		.uleb128 0x49
 456 009c 13       		.uleb128 0x13
ARM GAS  /tmp/cc5NbDbo.s 			page 9


 457 009d 3F       		.uleb128 0x3f
 458 009e 19       		.uleb128 0x19
 459 009f 00       		.byte	0
 460 00a0 00       		.byte	0
 461 00a1 0E       		.uleb128 0xe
 462 00a2 34       		.uleb128 0x34
 463 00a3 00       		.byte	0
 464 00a4 47       		.uleb128 0x47
 465 00a5 13       		.uleb128 0x13
 466 00a6 3A       		.uleb128 0x3a
 467 00a7 0B       		.uleb128 0xb
 468 00a8 3B       		.uleb128 0x3b
 469 00a9 0B       		.uleb128 0xb
 470 00aa 39       		.uleb128 0x39
 471 00ab 0B       		.uleb128 0xb
 472 00ac 00       		.byte	0
 473 00ad 00       		.byte	0
 474 00ae 00       		.byte	0
 475              		.section	.gnu.debuglto_.debug_line,"e",%progbits
 476              	.Ldebug_line0:
 477 0000 94010000 		.4byte	.LELT0-.LSLT0
 478              	.LSLT0:
 479 0004 0400     		.2byte	0x4
 480 0006 8E010000 		.4byte	.LELTP0-.LASLTP0
 481              	.LASLTP0:
 482 000a 01       		.byte	0x1
 483 000b 01       		.byte	0x1
 484 000c 01       		.byte	0x1
 485 000d F6       		.byte	0xf6
 486 000e F2       		.byte	0xf2
 487 000f 0D       		.byte	0xd
 488 0010 00       		.byte	0
 489 0011 01       		.byte	0x1
 490 0012 01       		.byte	0x1
 491 0013 01       		.byte	0x1
 492 0014 01       		.byte	0x1
 493 0015 00       		.byte	0
 494 0016 00       		.byte	0
 495 0017 00       		.byte	0
 496 0018 01       		.byte	0x1
 497 0019 00       		.byte	0
 498 001a 00       		.byte	0
 499 001b 01       		.byte	0x1
 500 001c 43686962 		.ascii	"ChibiOS_20.3.0/test/lib"
 500      694F535F 
 500      32302E33 
 500      2E302F74 
 500      6573742F 
 501 0033 00       		.byte	0
 502 0034 43686962 		.ascii	"ChibiOS_20.3.0/test/oslib/source/test"
 502      694F535F 
 502      32302E33 
 502      2E302F74 
 502      6573742F 
 503 0059 00       		.byte	0
 504 005a 00       		.byte	0
 505 005b 63685F74 		.ascii	"ch_test.h\000"
ARM GAS  /tmp/cc5NbDbo.s 			page 10


 505      6573742E 
 505      6800
 506 0065 01       		.uleb128 0x1
 507 0066 00       		.uleb128 0
 508 0067 00       		.uleb128 0
 509 0068 6F736C69 		.ascii	"oslib_test_sequence_001.h\000"
 509      625F7465 
 509      73745F73 
 509      65717565 
 509      6E63655F 
 510 0082 02       		.uleb128 0x2
 511 0083 00       		.uleb128 0
 512 0084 00       		.uleb128 0
 513 0085 6F736C69 		.ascii	"oslib_test_sequence_002.h\000"
 513      625F7465 
 513      73745F73 
 513      65717565 
 513      6E63655F 
 514 009f 02       		.uleb128 0x2
 515 00a0 00       		.uleb128 0
 516 00a1 00       		.uleb128 0
 517 00a2 6F736C69 		.ascii	"oslib_test_sequence_003.h\000"
 517      625F7465 
 517      73745F73 
 517      65717565 
 517      6E63655F 
 518 00bc 02       		.uleb128 0x2
 519 00bd 00       		.uleb128 0
 520 00be 00       		.uleb128 0
 521 00bf 6F736C69 		.ascii	"oslib_test_sequence_004.h\000"
 521      625F7465 
 521      73745F73 
 521      65717565 
 521      6E63655F 
 522 00d9 02       		.uleb128 0x2
 523 00da 00       		.uleb128 0
 524 00db 00       		.uleb128 0
 525 00dc 6F736C69 		.ascii	"oslib_test_sequence_005.h\000"
 525      625F7465 
 525      73745F73 
 525      65717565 
 525      6E63655F 
 526 00f6 02       		.uleb128 0x2
 527 00f7 00       		.uleb128 0
 528 00f8 00       		.uleb128 0
 529 00f9 6F736C69 		.ascii	"oslib_test_sequence_006.h\000"
 529      625F7465 
 529      73745F73 
 529      65717565 
 529      6E63655F 
 530 0113 02       		.uleb128 0x2
 531 0114 00       		.uleb128 0
 532 0115 00       		.uleb128 0
 533 0116 6F736C69 		.ascii	"oslib_test_sequence_007.h\000"
 533      625F7465 
 533      73745F73 
 533      65717565 
ARM GAS  /tmp/cc5NbDbo.s 			page 11


 533      6E63655F 
 534 0130 02       		.uleb128 0x2
 535 0131 00       		.uleb128 0
 536 0132 00       		.uleb128 0
 537 0133 6F736C69 		.ascii	"oslib_test_sequence_008.h\000"
 537      625F7465 
 537      73745F73 
 537      65717565 
 537      6E63655F 
 538 014d 02       		.uleb128 0x2
 539 014e 00       		.uleb128 0
 540 014f 00       		.uleb128 0
 541 0150 6F736C69 		.ascii	"oslib_test_sequence_009.h\000"
 541      625F7465 
 541      73745F73 
 541      65717565 
 541      6E63655F 
 542 016a 02       		.uleb128 0x2
 543 016b 00       		.uleb128 0
 544 016c 00       		.uleb128 0
 545 016d 6F736C69 		.ascii	"oslib_test_root.h\000"
 545      625F7465 
 545      73745F72 
 545      6F6F742E 
 545      6800
 546 017f 02       		.uleb128 0x2
 547 0180 00       		.uleb128 0
 548 0181 00       		.uleb128 0
 549 0182 6F736C69 		.ascii	"oslib_test_root.c\000"
 549      625F7465 
 549      73745F72 
 549      6F6F742E 
 549      6300
 550 0194 02       		.uleb128 0x2
 551 0195 00       		.uleb128 0
 552 0196 00       		.uleb128 0
 553 0197 00       		.byte	0
 554              	.LELTP0:
 555              	.LELT0:
 556              		.section	.gnu.debuglto_.debug_str,"eMS",%progbits,1
 557              	.LASF21:
 558 0000 6F736C69 		.ascii	"oslib_test_sequence_001\000"
 558      625F7465 
 558      73745F73 
 558      65717565 
 558      6E63655F 
 559              	.LASF22:
 560 0018 6F736C69 		.ascii	"oslib_test_sequence_002\000"
 560      625F7465 
 560      73745F73 
 560      65717565 
 560      6E63655F 
 561              	.LASF23:
 562 0030 6F736C69 		.ascii	"oslib_test_sequence_003\000"
 562      625F7465 
 562      73745F73 
 562      65717565 
ARM GAS  /tmp/cc5NbDbo.s 			page 12


 562      6E63655F 
 563              	.LASF24:
 564 0048 6F736C69 		.ascii	"oslib_test_sequence_004\000"
 564      625F7465 
 564      73745F73 
 564      65717565 
 564      6E63655F 
 565              	.LASF25:
 566 0060 6F736C69 		.ascii	"oslib_test_sequence_005\000"
 566      625F7465 
 566      73745F73 
 566      65717565 
 566      6E63655F 
 567              	.LASF26:
 568 0078 6F736C69 		.ascii	"oslib_test_sequence_006\000"
 568      625F7465 
 568      73745F73 
 568      65717565 
 568      6E63655F 
 569              	.LASF27:
 570 0090 6F736C69 		.ascii	"oslib_test_sequence_007\000"
 570      625F7465 
 570      73745F73 
 570      65717565 
 570      6E63655F 
 571              	.LASF28:
 572 00a8 6F736C69 		.ascii	"oslib_test_sequence_008\000"
 572      625F7465 
 572      73745F73 
 572      65717565 
 572      6E63655F 
 573              	.LASF13:
 574 00c0 73657475 		.ascii	"setup\000"
 574      7000
 575              	.LASF31:
 576 00c6 474E5520 		.ascii	"GNU C17 10.2.1 20201103 (release) -mcpu=cortex-m4 -"
 576      43313720 
 576      31302E32 
 576      2E312032 
 576      30323031 
 577 00f9 6D746875 		.ascii	"mthumb -mfloat-abi=soft -march=armv7e-m -ggdb -O2 -"
 577      6D62202D 
 577      6D666C6F 
 577      61742D61 
 577      62693D73 
 578 012c 666F6D69 		.ascii	"fomit-frame-pointer -falign-functions=16 -ffunction"
 578      742D6672 
 578      616D652D 
 578      706F696E 
 578      74657220 
 579 015f 2D736563 		.ascii	"-sections -fdata-sections -fno-common -flto\000"
 579      74696F6E 
 579      73202D66 
 579      64617461 
 579      2D736563 
 580              	.LASF6:
 581 018b 73686F72 		.ascii	"short unsigned int\000"
ARM GAS  /tmp/cc5NbDbo.s 			page 13


 581      7420756E 
 581      7369676E 
 581      65642069 
 581      6E7400
 582              	.LASF15:
 583 019e 65786563 		.ascii	"execute\000"
 583      75746500 
 584              	.LASF9:
 585 01a6 6C6F6E67 		.ascii	"long long unsigned int\000"
 585      206C6F6E 
 585      6720756E 
 585      7369676E 
 585      65642069 
 586              	.LASF4:
 587 01bd 756E7369 		.ascii	"unsigned char\000"
 587      676E6564 
 587      20636861 
 587      7200
 588              	.LASF8:
 589 01cb 6C6F6E67 		.ascii	"long unsigned int\000"
 589      20756E73 
 589      69676E65 
 589      6420696E 
 589      7400
 590              	.LASF14:
 591 01dd 74656172 		.ascii	"teardown\000"
 591      646F776E 
 591      00
 592              	.LASF32:
 593 01e6 2E2F4368 		.ascii	"./ChibiOS_20.3.0/test/oslib/source/test/oslib_test_"
 593      6962694F 
 593      535F3230 
 593      2E332E30 
 593      2F746573 
 594 0219 726F6F74 		.ascii	"root.c\000"
 594      2E6300
 595              	.LASF17:
 596 0220 74657374 		.ascii	"testcase_t\000"
 596      63617365 
 596      5F7400
 597              	.LASF20:
 598 022b 74657374 		.ascii	"testsuite_t\000"
 598      73756974 
 598      655F7400 
 599              	.LASF5:
 600 0237 73686F72 		.ascii	"short int\000"
 600      7420696E 
 600      7400
 601              	.LASF30:
 602 0241 6F736C69 		.ascii	"oslib_test_suite\000"
 602      625F7465 
 602      73745F73 
 602      75697465 
 602      00
 603              	.LASF0:
 604 0252 756E7369 		.ascii	"unsigned int\000"
 604      676E6564 
ARM GAS  /tmp/cc5NbDbo.s 			page 14


 604      20696E74 
 604      00
 605              	.LASF10:
 606 025f 63686172 		.ascii	"char\000"
 606      00
 607              	.LASF19:
 608 0264 73657175 		.ascii	"sequences\000"
 608      656E6365 
 608      7300
 609              	.LASF16:
 610 026e 63617365 		.ascii	"cases\000"
 610      7300
 611              	.LASF1:
 612 0274 6C6F6E67 		.ascii	"long long int\000"
 612      206C6F6E 
 612      6720696E 
 612      7400
 613              	.LASF29:
 614 0282 6F736C69 		.ascii	"oslib_test_sequence_009\000"
 614      625F7465 
 614      73745F73 
 614      65717565 
 614      6E63655F 
 615              	.LASF12:
 616 029a 6E616D65 		.ascii	"name\000"
 616      00
 617              	.LASF34:
 618 029f 6F736C69 		.ascii	"oslib_test_suite_array\000"
 618      625F7465 
 618      73745F73 
 618      75697465 
 618      5F617272 
 619              	.LASF18:
 620 02b6 74657374 		.ascii	"testsequence_t\000"
 620      73657175 
 620      656E6365 
 620      5F7400
 621              	.LASF7:
 622 02c5 6C6F6E67 		.ascii	"long int\000"
 622      20696E74 
 622      00
 623              	.LASF2:
 624 02ce 6C6F6E67 		.ascii	"long double\000"
 624      20646F75 
 624      626C6500 
 625              	.LASF3:
 626 02da 7369676E 		.ascii	"signed char\000"
 626      65642063 
 626      68617200 
 627              	.LASF11:
 628 02e6 5F426F6F 		.ascii	"_Bool\000"
 628      6C00
 629              	.LASF33:
 630 02ec 2F686F6D 		.ascii	"/home/iamprithvishetty/CDSpace/mmc3416_test2\000"
 630      652F6961 
 630      6D707269 
 630      74687669 
ARM GAS  /tmp/cc5NbDbo.s 			page 15


 630      73686574 
 631              		.text
 632              		.section	.gnu.lto_.profile.cc6ffcc3350d5711,"e",%progbits
 633 0000 789C6362 		.ascii	"x\234cb\000\001\000\000\022\000\003"
 633      00010000 
 633      120003
 634              		.text
 635              		.section	.gnu.lto_.icf.cc6ffcc3350d5711,"e",%progbits
 636 0000 789CE363 		.ascii	"x\234\343c@\000&\206\255\377n7\3622v,z{\231\213\001"
 636      40002686 
 636      ADFF6E37 
 636      F232762C 
 636      7A7B998B 
 637 0015 002F2906 		.ascii	"\000/)\006\""
 637      22
 638              		.text
 639              		.section	.gnu.lto_.ipa_sra.cc6ffcc3350d5711,"e",%progbits
 640 0000 789C6362 		.ascii	"x\234cb@\006\000\000*\000\003"
 640      40060000 
 640      2A0003
 641              		.text
 642              		.section	.gnu.lto_.inline.cc6ffcc3350d5711,"e",%progbits
 643 0000 789C6362 		.ascii	"x\234cb@\006\000\000*\000\003"
 643      40060000 
 643      2A0003
 644              		.text
 645              		.section	.gnu.lto_.jmpfuncs.cc6ffcc3350d5711,"e",%progbits
 646 0000 789C6362 		.ascii	"x\234cb@\006\000\000*\000\003"
 646      40060000 
 646      2A0003
 647              		.text
 648              		.section	.gnu.lto_.pureconst.cc6ffcc3350d5711,"e",%progbits
 649 0000 789C6364 		.ascii	"x\234cd\000\002\000\000\012\000\002"
 649      00020000 
 649      0A0002
 650              		.text
 651              		.section	.gnu.lto_.lto.cc6ffcc3350d5711,"e",%progbits
 652 0000 09000200 		.ascii	"\011\000\002\000\001\000\000\000"
 652      01000000 
 653              		.text
 654              		.section	.gnu.lto_oslib_test_suite_array.352.cc6ffcc3350d5711,"e",%progbits
 655 0000 789C4DCE 		.ascii	"x\234M\316=K\303@\000\207\361{r}\321\017c\256iDQ\024"
 655      3D4BC340 
 655      0087F17B 
 655      727DD10F 
 655      63AE6944 
 656 0016 87BA3BF4 		.ascii	"\207\272;\364\003\204\266\004\0221\244$Qp\013E\304\331"
 656      0384B604 
 656      1231A424 
 656      51700B45 
 656      C4D9
 657 0028 C9C1B183 		.ascii	"\311\301\261\203\037\300\327\372\256E\247:\373a\034"
 657      1FC0D7FA 
 657      AE45A73A 
 657      FB611C
 658 0037 8C179AF3 		.ascii	"\214\027\232\363\246\343\377\273\007\316A\210]Q\236"
 658      A6E3FFBB 
ARM GAS  /tmp/cc5NbDbo.s 			page 16


 658      07CE4188 
 658      5D519E
 659 0046 73C9A91C 		.ascii	"s\311\251\034K\301\374\006\213\305\355\210\343<\377"
 659      4BC1FC06 
 659      8BC5ED88 
 659      E33CFF
 660 0055 19CDBE9C 		.ascii	"\031\315\276\234\302.\244~\247\267\263\031z\371\367"
 660      C22EA47E 
 660      A7B7B319 
 660      7AF9F7
 661 0064 BE39B7EF 		.ascii	"\2769\267\357\317\322,c\215\252\373(M\032\253W\335\264"
 661      CFD22C63 
 661      8DAAFB28 
 661      4D1AAB57 
 661      DDB4
 662 0076 B49AB15A 		.ascii	"\264\232\261Z\325mi\252\033\222U\266\251\251a\310\252"
 662      D56D69AA 
 662      1B9255B6 
 662      A9A961C8 
 662      AA
 663 0087 AA0D4D4D 		.ascii	"\252\015MM\363\355U=,\210\265\321I\036\214\245\205\303"
 663      F3ED553D 
 663      2C88B5D1 
 663      491E8CA5 
 663      85C3
 664 0099 14DABCC3 		.ascii	"\024\332\274\303\033\274\302\013<\303\023<\302\003\334"
 664      1BBCC20B 
 664      3CC3133C 
 664      C203DC
 665 00a8 C304EEE0 		.ascii	"\303\004\356\340\026n\300\345\032\256\340\022\261\244"
 665      166EC0E5 
 665      1AAEE012 
 665      B1A4
 666 00b6 8238F255 		.ascii	"\2028\362U\330\213\206I\230\005\007a\032\370Yv\250:"
 666      D88B8649 
 666      98050761 
 666      1AF85976 
 666      A83A
 667 00c8 DBDD616F 		.ascii	"\333\335ao\340\253(\032\270\313\316\212\227\371i\326"
 667      E0AB281A 
 667      B8CBCE8A 
 667      97F969D6 
 668 00d8 16EBB6EA 		.ascii	"\026\353\266\352\004a?\334\351z\355\226\355\332-\365"
 668      04613FDC 
 668      E97AED96 
 668      EDDA2DF5 
 669 00e8 B7AB38DD 		.ascii	"\267\2538\335\013\373*\215\367\223\2420\213\216\274"
 669      0BFB2A8D 
 669      F793A230 
 669      8B8EBC
 670 00f7 248E337B 		.ascii	"$\2163{ ~\001\252\312uw"
 670      207E01AA 
 670      CA7577
 671              		.text
 672              		.section	.gnu.lto_oslib_test_suite.353.cc6ffcc3350d5711,"e",%progbits
 673 0000 789C7361 		.ascii	"x\234sa``\350d\200\2009\314\214-\214m\015\015\177\232"
 673      6060E864 
ARM GAS  /tmp/cc5NbDbo.s 			page 17


 673      808039CC 
 673      8C2D8C6D 
 673      0D0D7F9A 
 674 0014 CE5E375C 		.ascii	"\316^7\\\302\314\260\202\031,\246\230\335\306\261\204"
 674      C2CCB082 
 674      192CA698 
 674      DDC6B184 
 675 0024 9911263B 		.ascii	"\231\021&;\343:\343\022f&\306\255\214\014\226M\035\015"
 675      E33AE312 
 675      6626C6AD 
 675      8C0C964D 
 675      1D0D
 676 0036 4019E6B9 		.ascii	"@\031\346\271\314\014\214\333\030\347232nad\320\325"
 676      CC0C8CDB 
 676      18E73233 
 676      326E6164 
 676      D0D5
 677 0048 CFC8CF4D 		.ascii	"\317\310\317M\325\317L\314-(\312,\311(\313,\316H-)\251"
 677      D5CF4CCC 
 677      2D28CA2C 
 677      C928CB2C 
 677      CE482D29 
 678 005d D4777609 		.ascii	"\324wv\011.HLN\325\317\315M6614\213/I-.1b\260\322\323"
 678      2E484C4E 
 678      D5CFCD4D 
 678      36363134 
 678      8B2F492D 
 679 0077 77CEC84C 		.ascii	"w\316\310L\312\364\017\21672\3203\3263\320\007\211\353"
 679      CAF40F8E 
 679      3732D033 
 679      D633D007 
 679      89EB
 680 0089 E717E764 		.ascii	"\347\027\347d&\351\027\347\227\026\001u D\300\232\342"
 680      26E917E7 
 680      97160175 
 680      2044C09A 
 680      E2
 681 009a 8BF2F34B 		.ascii	"\213\362\363K\364\222\031\344\240\032\025\200\310'3"
 681      F49219E4 
 681      A01A1580 
 681      C82733
 682 00a9 A928B1A8 		.ascii	"\251(\261\250R!\004(\257\020\\\232Y\222\312\000\000"
 682      52210428 
 682      AF105C9A 
 682      5992CA00 
 682      00
 683 00ba 38B24437 		.ascii	"8\262D7"
 684              		.text
 685              		.section	.gnu.lto_.symbol_nodes.cc6ffcc3350d5711,"e",%progbits
 686 0000 789C25C6 		.ascii	"x\234%\306\311\001@@\020\005\321V\264-\012\261\210C"
 686      C9014040 
 686      1005D156 
 686      B42D0AB1 
 686      8843
 687 0012 32329DB1 		.ascii	"22\235\261\023\005\375\325\345\325d_\236\261y\214I\024"
 687      1305FDD5 
 687      E5D5645F 
ARM GAS  /tmp/cc5NbDbo.s 			page 18


 687      9EB1798C 
 687      4914
 688 0024 FF2C3084 		.ascii	"\377,0\204+\245\334\250\344\216\313\203Z\2364\362\242"
 688      2BA5DCA8 
 688      E48ECB83 
 688      5A9E34F2 
 688      A2
 689 0035 95379D7C 		.ascii	"\2257\235|\350C{\001\266l\015^"
 689      E8437B01 
 689      B66C0D5E 
 690              		.text
 691              		.section	.gnu.lto_.refs.cc6ffcc3350d5711,"e",%progbits
 692 0000 789C05C1 		.ascii	"x\234\005\301\011\001\000 \014\304\260^y\306p\200\177"
 692      09010020 
 692      0CC4B05E 
 692      79C67080 
 692      7F
 693 0011 A3240F08 		.ascii	"\243$\017\010\246\243\016\247\313myl/\037\006\212\000"
 693      A6A30EA7 
 693      CB6D796C 
 693      2F1F068A 
 693      00
 694 0022 70       		.ascii	"p"
 695              		.text
 696              		.section	.gnu.lto_.decls.cc6ffcc3350d5711,"e",%progbits
 697 0000 789CA594 		.ascii	"x\234\245\224mLSW\030\307\317\323S\336\011,b\266\017"
 697      6D4C5357 
 697      18C7CFD3 
 697      53DE092C 
 697      62B60F
 698 0013 661B1F30 		.ascii	"f\033\0370\331\227\265\005*\310>\312\222\355\323\366"
 698      D997B505 
 698      2AC83ECA 
 698      92EDD3F6 
 699 0023 C18CAF5D 		.ascii	"\301\214\257]m\232\265\311\000\327\226-.~\270EP\031"
 699      6D9AB5C9 
 699      00D7962D 
 699      2E7EB845 
 699      5019
 700 0035 1903228E 		.ascii	"\031\003\"\216\214\027\301\275d\3230\303\"\014&/\345"
 700      8C17C1BD 
 700      64D330C3 
 700      220C262F 
 700      E5
 701 0046 4D276F02 		.ascii	"M'o\002\242\200t\202\240\202\240\200\205Q\020\304=\347"
 701      A2807482 
 701      A082A080 
 701      855110C4 
 701      3DE7
 702 0058 DC5B6F0B 		.ascii	"\334[o\0134Y\354I\237\333{\357\371\235\377\363\234\347"
 702      3459EC49 
 702      9FDB7BEF 
 702      F99DFFF3 
 702      9CE7
 703 006a 79CE6D0C 		.ascii	"y\316m\014&$OI\210\223\020\362\002\007\305\377A\342"
 703      26244F49 
 703      889310F2 
ARM GAS  /tmp/cc5NbDbo.s 			page 19


 703      0207C5FF 
 703      41E2
 704 007c 3B22D0FA 		.ascii	";\"\320\372\321\246\321\036\240\315\240=B\233G{\202"
 704      D1A6D11E 
 704      A0CDA03D 
 704      429B477B 
 704      82
 705 008d B688F614 		.ascii	"\266\210\366\024m\031\355\337mk\257\001!Ls\002m/\332"
 705      6D19EDDF 
 705      6D6BAF01 
 705      214C7302 
 705      6D2FDA
 706 00a0 94D75C98 		.ascii	"\224\327\\\230\304/K\353\027%\275yI\177F\362\347=*P"
 706      C42F4BEB 
 706      1725BD79 
 706      497F46F2 
 706      E73D2A50 
 707 00b4 0FC325AB 		.ascii	"\017\303%\253h\033h\233h}h\012\264\036\264\353\022\007"
 707      681B689B 
 707      687D680A 
 707      B41EB4EB 
 707      1207
 708 00c6 52BCDE83 		.ascii	"R\274\336\203*H1\205=\020\212\327\275\340 4\206\250"
 708      2A483185 
 708      3D108AD7 
 708      BDE02034 
 708      86A8
 709 00d8 053ECE7F 		.ascii	"\005>\316\177F\340O\340PZ\004\237\215\345\244\222Z\010"
 709      46E04FE0 
 709      505A049F 
 709      8DE5A492 
 709      5A08
 710 00ea FD8A94D1 		.ascii	"\375\212\224\321\340\347\303\267\006B\302\367\001\340"
 710      E0E7C3B7 
 710      0642C2F7 
 710      01E0
 711 00f8 CF2108B3 		.ascii	"\317!\010\263B\273\235\022H\004\015\201&\200f \320\002"
 711      42BB9D12 
 711      48040D81 
 711      26806620 
 711      D002
 712 010a D00A0ABC 		.ascii	"\320\012\012\274\315\026\204\315\267\361\277\214*\252"
 712      CD1684CD 
 712      B7F1BF8C 
 712      2AAA
 713 0118 B6067E8B 		.ascii	"\266\006~\213\010g\274cw\036\231\211\212sE\221\221\310"
 713      0867BC63 
 713      771E9989 
 713      8A734591 
 713      91C8
 714 012a 2C0955ED 		.ascii	",\011U\355Jp\0004\002\374\205\301@\033\313\335q\364"
 714      4A700034 
 714      02FC85C1 
 714      401BCBDD 
 714      71F4
 715 013c AE18CFAD 		.ascii	"\256\030\317\255-\200\0301V\207\030't\0004\260[z\022"
 715      2D801831 
ARM GAS  /tmp/cc5NbDbo.s 			page 20


 715      56871827 
 715      740034B0 
 715      5B7A12
 716 014f 18722ABF 		.ascii	"\030r*\277\2754\232#\016\011\201Nx\011!P<\332\337\256"
 716      BD349A23 
 716      0E09814E 
 716      78092150 
 716      3CDADFAE 
 717 0163 94FD74C9 		.ascii	"\224\375t\311~\256\002\007V\256\364\024+8\340\330\035"
 717      7EAE0207 
 717      56AEF414 
 717      2B38E0D8 
 717      1D
 718 0174 A85DECAD 		.ascii	"\250]\354\255\213\226\025\256\311\300\337\034\010>s"
 718      8B9615AE 
 718      C9C0DF1C 
 718      083E73
 719 0183 F1424D50 		.ascii	"\361BMP\\L\034\"k\343\335]'\022\252\363N\011\205v\212"
 719      5C4C1C22 
 719      6BE3DD5D 
 719      2712AAF3 
 719      4E098576 
 720 0198 F3D00ED0 		.ascii	"\363\320\016\320-/P\2435\002\301hs0`%\201z\200:6\321"
 720      2D2F50A3 
 720      3502C168 
 720      73306025 
 720      817A803A 
 721 01ae CD02861E 		.ascii	"\315\002\206\036\200\353,l\346\253\265#?\212i\264\001"
 721      80EB2C6C 
 721      E6ABB523 
 721      3F8A69B4 
 721      01
 722 01bf 5CD9A111 		.ascii	"\\\331\241\021O\350,\337\376\371\322\222\012\276\375"
 722      4FE82CDF 
 722      FEF9D292 
 722      0ABEFD
 723 01ce 1C87971E 		.ascii	"\034\207\227\036\364\3026ED\3175\237\316\245\373\313"
 723      F4C23645 
 723      44CF359F 
 723      CEA5FBCB 
 724 01de 0B85B5D1 		.ascii	"\013\205\265\321\357j\246\303\355\310C\037\300e\316"
 724      EF6AA6C3 
 724      EDC8431F 
 724      C065CE
 725 01ed 79E2C0A7 		.ascii	"y\342\300\247\214\264-J/I=\363\216\3303\012\376\020"
 725      8CB42D4A 
 725      2F493DF3 
 725      8ED8330A 
 725      FE10
 726 01ff 862A2DEE 		.ascii	"\206*-\356\333\3154\\`\311p\344\204\341KOX7\321\255"
 726      DBCD345C 
 726      60C970E4 
 726      84E14B4F 
 726      5837D1AD 
 727 0213 1A86805E 		.ascii	"\032\206\200^U\370+\335-O\351z9\32263\366(\304\267t"
 727      55F82BDD 
 727      2D4FE97A 
ARM GAS  /tmp/cc5NbDbo.s 			page 21


 727      39D23633 
 727      F628C4B7 
 728 0228 B7E12584 		.ascii	"\267\341%\204\300d\311\305\012*'~D\316\301\250X\231"
 728      C064C9C5 
 728      0A2A277E 
 728      44CEC1A8 
 728      5899
 729 023a ADF1D3F3 		.ascii	"\255\361\323\363\021r\351v\002E\325\255\325a\262\302"
 729      1172E976 
 729      0245D5AD 
 729      D561B2C2 
 730 024a 980CDC11 		.ascii	"\230\014\334\021K\367\343rvn\210T\272\263\005\015\035"
 730      4BF7E372 
 730      766E8854 
 730      BAB3050D 
 730      1D
 731 025b D1E5B8AD 		.ascii	"\321\345\270\255H\234\205a\000\347\377(\234\223\247"
 731      489C8561 
 731      00E7FF28 
 731      9C93A7
 732 026a EF1F8071 		.ascii	"\357\037\200qO\341.\371\024\316\271\275p,7\356\263w"
 732      4FE12EF9 
 732      14CEB9BD 
 732      702C37EE 
 732      B377
 733 027c 227716AD 		.ascii	"\"w\026\255\023\266\251!\372\373\332R\201W\357\335\225"
 733      13B6A921 
 733      FAFBDA52 
 733      8157EFDD 
 733      95
 734 028d D526C41D 		.ascii	"\325&\304\035\316\011\2039\321{\304\270\252\024\370"
 734      CE098339 
 734      D17BC4B8 
 734      AA14F8
 735 029c 16060106 		.ascii	"\026\006\001\006\0300\011\274(\014\032+\236\250\013"
 735      183009BC 
 735      280C1A2B 
 735      9EA80B
 736 02ab 97F3B453 		.ascii	"\227\363\264S\245\361\347o\356QY\345\336\356*\325c\315"
 736      A5F1E76F 
 736      EE5159E5 
 736      DEEE2AD5 
 736      63CD
 737 02bd 2035D093 		.ascii	" 5\320\223\343\274\177\246\000n\360\220=\370\015\326"
 737      E3BC7FA6 
 737      006EF090 
 737      3DF80DD6 
 738 02cd 3F2E4A47 		.ascii	"?.JGx\205/\334mrG\356/\307\334\266|\337\370\265]\020"
 738      78852FDC 
 738      6D7247EE 
 738      2FC7DCB6 
 738      7CDFF8B5 
 739 02e3 7DDFF7E9 		.ascii	"}\337\367\351\270\373@\322\036(\350\037\224-\250?\221"
 739      B8FB40D2 
 739      1E28E81F 
 739      942DA83F 
 739      91
ARM GAS  /tmp/cc5NbDbo.s 			page 22


 740 02f4 3312CC16 		.ascii	"3\022\314\026\224^\256\264\013\2078\376\320\007\177"
 740      945EAEB4 
 740      0B8738FE 
 740      D0077F
 741 0303 88F85305 		.ascii	"\210\370S\005\375V\311\360\011W\266\020\304\361\037"
 741      FD56C9F0 
 741      0957B610 
 741      C4F11F
 742 0312 A60B85D8 		.ascii	"\246\013\205\330\017\031>\353\203\343)I{\256\240\263"
 742      0F193EEB 
 742      83E32949 
 742      7BAEA0B3 
 743 0322 1C3FE91A 		.ascii	"\034?\351\032v+9^8\347\301\347|\3609\304\363(\355\010"
 743      762B395E 
 743      38E7C1E7 
 743      7CF039C4 
 743      F328ED08 
 744 0336 6278CED0 		.ascii	"bx\316\320\232\213r|u\301\203?\366\301\037#^Bie0\303"
 744      9A8B727C 
 744      75C1833F 
 744      F6C11F23 
 744      5E426965 
 745 034c 4B47ABEC 		.ascii	"KG\253\354\242\272s\331\203/\370\340\013\210WS\272\316"
 745      A2BA73D9 
 745      832FF8E0 
 745      0B885753 
 745      BACE
 746 035e F1CE9B7D 		.ascii	"\361\316\233}\371\">\364\314\203/\371\340K\210\327P"
 746      F9223EF4 
 746      CC832FF9 
 746      E04B88D7 
 746      50
 747 036f 3A1CC2F0 		.ascii	":\034\302\360_k\327\213\304\3144\274\360\340.\037\334"
 747      5F6BD78B 
 747      C4CC34BC 
 747      F0E02E1F 
 747      DC
 748 0380 8578239E 		.ascii	"\205x#\236\334P\206\267\272\373+\304\314T\376R$\341"
 748      DC5086B7 
 748      BAFB2BC4 
 748      CC54FE52 
 748      24E1
 749 0392 2B3EF80A 		.ascii	"+>\370\012\342]\024\321\262\206\336\246P\271\305\246"
 749      E25D14D1 
 749      B286DEA6 
 749      50B9C5A6 
 750 03a2 E4E658C5 		.ascii	"\344\346X\305\013?\370o\"6\264\320t&d\267\203\277\306"
 750      0B3FF86F 
 750      2236B4D0 
 750      742664B7 
 750      83BFC6
 751 03b5 0FBE1B38 		.ascii	"\017\276\0338\371\026\377^,\261\017\374\244\363\247"
 751      F916FF5E 
 751      2CB10FFC 
 751      A4F3A7
 752 03c4 8528A9A7 		.ascii	"\205(\251\247>\305O?<\003Xg\0136\200/ba:\272\352\213"
 752      3EC54F3F 
ARM GAS  /tmp/cc5NbDbo.s 			page 23


 752      3C035867 
 752      0B36802F 
 752      62613ABA 
 753 03da BDCEE786 		.ascii	"\275\316\347\206\354{\223\035\200\3272\255\237\233\217"
 753      EC7B931D 
 753      80D732AD 
 753      9F9B8F
 754 03e9 E86C46AB 		.ascii	"\350lF\253Mg\3152\333\214)*u\252\311|\304\374\361a]"
 754      4D67CD32 
 754      DB8C292A 
 754      75AAC97C 
 754      C4FCF161 
 755 03fe 824695A8 		.ascii	"\202F\225\250\322\250\331\234\232cjkf\226\305`\364z"
 755      D2A8D99C 
 755      9A636A6B 
 755      6696C560 
 755      F47A
 756 0410 232EB464 		.ascii	"#.\264df\332T\206\320\017>\372$65>\231\354\3331\245"
 756      66DA5486 
 756      D00F3EFA 
 756      2436353E 
 756      99ECDB31 
 757 0425 326A13B4 		.ascii	"2j\023\264Z\215&\205(3\364\351F\245\301\244\267\204"
 757      5A8D2685 
 757      2833F4E9 
 757      46A5C1A4 
 757      B784
 758 0437 598D5F64 		.ascii	"Y\215_d\0313\014Fk\024#=O:\333\273jSf\272Qm\326\247"
 758      19330C46 
 758      6B14233D 
 758      4F3ADBBB 
 758      6A5366BA 
 759 044f 1FB5986D 		.ascii	"\037\265\230m\246/\315V\223\321f;\246N}\377\360Q=zO"
 759      A62FCD56 
 759      93D1663B 
 759      A64E7DFF 
 759      F0513D7A 
 760 0464 4F37246A 		.ascii	"O7$j\343\223\270~\002\211\333=^\026\255\301\304\031"
 760      E393B87E 
 760      0289DB3D 
 760      5E16ADC1 
 760      C419
 761 0476 95894470 		.ascii	"\225\211Dp\017l{:\333{\257\274A\362\372\366d\351\364"
 761      0F6C7B3A 
 761      DB7BAFBC 
 761      41F2FAF6 
 761      64E9F4
 762 0489 168BFE58 		.ascii	"\026\213\376X\220Ao5Z\303\331kv\247\263\275\341\315"
 762      90416F35 
 762      5AC3D96B 
 762      76A7B3BD 
 762      E1CD
 763 049b 79F6A5D1 		.ascii	"y\366\245\321\304\037z\005\327\336\353q'~\244\023\002"
 763      C41F7A05 
 763      D7DEEB71 
 763      277EA413 
 763      02
ARM GAS  /tmp/cc5NbDbo.s 			page 24


 764 04ac 944EF02F 		.ascii	"\224N\360/\235\030\240t\242\177im\200\322Z\377\322\007"
 764      9D18A074 
 764      A27F696D 
 764      80D25AFF 
 764      D207
 765 04be 02943EE0 		.ascii	"\002\224>\340_:)@\351$\377\322\311\001J'\373\227>\030"
 765      5F3A2940 
 765      E924FFD2 
 765      C9014A27 
 765      FB973E18 
 766 04d2 A0F441FF 		.ascii	"\240\364A\377\322)\001J\247\240\364\177\312o\335b"
 766      D229014A 
 766      A7A0F47F 
 766      CA6FDD62 
 767              		.text
 768              		.section	.gnu.lto_.symtab.cc6ffcc3350d5711,"e",%progbits
 769 0000 6F736C69 		.ascii	"oslib_test_suite\000"
 769      625F7465 
 769      73745F73 
 769      75697465 
 769      00
 770 0011 00       		.ascii	"\000"
 771 0012 00       		.ascii	"\000"
 772 0013 00       		.ascii	"\000"
 773 0014 00000000 		.ascii	"\000\000\000\000\000\000\000\000"
 773      00000000 
 774 001c CE000000 		.ascii	"\316\000\000\000"
 775 0020 6F736C69 		.ascii	"oslib_test_suite_array\000"
 775      625F7465 
 775      73745F73 
 775      75697465 
 775      5F617272 
 776 0037 00       		.ascii	"\000"
 777 0038 00       		.ascii	"\000"
 778 0039 00       		.ascii	"\000"
 779 003a 00000000 		.ascii	"\000\000\000\000\000\000\000\000"
 779      00000000 
 780 0042 E3000000 		.ascii	"\343\000\000\000"
 781 0046 6F736C69 		.ascii	"oslib_test_sequence_001\000"
 781      625F7465 
 781      73745F73 
 781      65717565 
 781      6E63655F 
 782 005e 00       		.ascii	"\000"
 783 005f 02       		.ascii	"\002"
 784 0060 00       		.ascii	"\000"
 785 0061 00000000 		.ascii	"\000\000\000\000\000\000\000\000"
 785      00000000 
 786 0069 E5000000 		.ascii	"\345\000\000\000"
 787 006d 6F736C69 		.ascii	"oslib_test_sequence_002\000"
 787      625F7465 
 787      73745F73 
 787      65717565 
 787      6E63655F 
 788 0085 00       		.ascii	"\000"
 789 0086 02       		.ascii	"\002"
 790 0087 00       		.ascii	"\000"
ARM GAS  /tmp/cc5NbDbo.s 			page 25


 791 0088 00000000 		.ascii	"\000\000\000\000\000\000\000\000"
 791      00000000 
 792 0090 E7000000 		.ascii	"\347\000\000\000"
 793 0094 6F736C69 		.ascii	"oslib_test_sequence_003\000"
 793      625F7465 
 793      73745F73 
 793      65717565 
 793      6E63655F 
 794 00ac 00       		.ascii	"\000"
 795 00ad 02       		.ascii	"\002"
 796 00ae 00       		.ascii	"\000"
 797 00af 00000000 		.ascii	"\000\000\000\000\000\000\000\000"
 797      00000000 
 798 00b7 E9000000 		.ascii	"\351\000\000\000"
 799 00bb 6F736C69 		.ascii	"oslib_test_sequence_004\000"
 799      625F7465 
 799      73745F73 
 799      65717565 
 799      6E63655F 
 800 00d3 00       		.ascii	"\000"
 801 00d4 02       		.ascii	"\002"
 802 00d5 00       		.ascii	"\000"
 803 00d6 00000000 		.ascii	"\000\000\000\000\000\000\000\000"
 803      00000000 
 804 00de EB000000 		.ascii	"\353\000\000\000"
 805 00e2 6F736C69 		.ascii	"oslib_test_sequence_005\000"
 805      625F7465 
 805      73745F73 
 805      65717565 
 805      6E63655F 
 806 00fa 00       		.ascii	"\000"
 807 00fb 02       		.ascii	"\002"
 808 00fc 00       		.ascii	"\000"
 809 00fd 00000000 		.ascii	"\000\000\000\000\000\000\000\000"
 809      00000000 
 810 0105 ED000000 		.ascii	"\355\000\000\000"
 811 0109 6F736C69 		.ascii	"oslib_test_sequence_006\000"
 811      625F7465 
 811      73745F73 
 811      65717565 
 811      6E63655F 
 812 0121 00       		.ascii	"\000"
 813 0122 02       		.ascii	"\002"
 814 0123 00       		.ascii	"\000"
 815 0124 00000000 		.ascii	"\000\000\000\000\000\000\000\000"
 815      00000000 
 816 012c EF000000 		.ascii	"\357\000\000\000"
 817 0130 6F736C69 		.ascii	"oslib_test_sequence_007\000"
 817      625F7465 
 817      73745F73 
 817      65717565 
 817      6E63655F 
 818 0148 00       		.ascii	"\000"
 819 0149 02       		.ascii	"\002"
 820 014a 00       		.ascii	"\000"
 821 014b 00000000 		.ascii	"\000\000\000\000\000\000\000\000"
 821      00000000 
ARM GAS  /tmp/cc5NbDbo.s 			page 26


 822 0153 F1000000 		.ascii	"\361\000\000\000"
 823 0157 6F736C69 		.ascii	"oslib_test_sequence_008\000"
 823      625F7465 
 823      73745F73 
 823      65717565 
 823      6E63655F 
 824 016f 00       		.ascii	"\000"
 825 0170 02       		.ascii	"\002"
 826 0171 00       		.ascii	"\000"
 827 0172 00000000 		.ascii	"\000\000\000\000\000\000\000\000"
 827      00000000 
 828 017a F3000000 		.ascii	"\363\000\000\000"
 829 017e 6F736C69 		.ascii	"oslib_test_sequence_009\000"
 829      625F7465 
 829      73745F73 
 829      65717565 
 829      6E63655F 
 830 0196 00       		.ascii	"\000"
 831 0197 02       		.ascii	"\002"
 832 0198 00       		.ascii	"\000"
 833 0199 00000000 		.ascii	"\000\000\000\000\000\000\000\000"
 833      00000000 
 834 01a1 F5000000 		.ascii	"\365\000\000\000"
 835              		.text
 836              		.section	.gnu.lto_.ext_symtab.cc6ffcc3350d5711,"e",%progbits
 837 0000 01       		.ascii	"\001"
 838 0001 02       		.ascii	"\002"
 839 0002 00       		.ascii	"\000"
 840 0003 02       		.ascii	"\002"
 841 0004 00       		.ascii	"\000"
 842 0005 02       		.ascii	"\002"
 843 0006 00       		.ascii	"\000"
 844 0007 02       		.ascii	"\002"
 845 0008 00       		.ascii	"\000"
 846 0009 02       		.ascii	"\002"
 847 000a 00       		.ascii	"\000"
 848 000b 02       		.ascii	"\002"
 849 000c 00       		.ascii	"\000"
 850 000d 02       		.ascii	"\002"
 851 000e 00       		.ascii	"\000"
 852 000f 02       		.ascii	"\002"
 853 0010 00       		.ascii	"\000"
 854 0011 02       		.ascii	"\002"
 855 0012 00       		.ascii	"\000"
 856 0013 02       		.ascii	"\002"
 857 0014 00       		.ascii	"\000"
 858 0015 02       		.ascii	"\002"
 859 0016 00       		.ascii	"\000"
 860              		.text
 861              		.section	.gnu.lto_.opts,"e",%progbits
 862 0000 272D666E 		.ascii	"'-fno-openmp' '-fno-openacc' '-fno-pie' '-fcf-prote"
 862      6F2D6F70 
 862      656E6D70 
 862      2720272D 
 862      666E6F2D 
 863 0033 6374696F 		.ascii	"ction=none' '-g' '-mcpu=cortex-m4' '-mthumb' '-mflo"
 863      6E3D6E6F 
ARM GAS  /tmp/cc5NbDbo.s 			page 27


 863      6E652720 
 863      272D6727 
 863      20272D6D 
 864 0066 61742D61 		.ascii	"at-abi=soft' '-march=armv7e-m' '-O2' '-fomit-frame-"
 864      62693D73 
 864      6F667427 
 864      20272D6D 
 864      61726368 
 865 0099 706F696E 		.ascii	"pointer' '-falign-functions=16' '-ffunction-section"
 865      74657227 
 865      20272D66 
 865      616C6967 
 865      6E2D6675 
 866 00cc 73272027 		.ascii	"s' '-fdata-sections' '-fno-common' '-flto' '-Xassem"
 866      2D666461 
 866      74612D73 
 866      65637469 
 866      6F6E7327 
 867 00ff 626C6572 		.ascii	"bler' '-alms=./build/lst/oslib_test_root.lst'\000"
 867      2720272D 
 867      616C6D73 
 867      3D2E2F62 
 867      75696C64 
 868              		.text
 869              		.comm	__gnu_lto_slim,1,1
 870              		.ident	"GCC: (GNU Arm Embedded Toolchain 10-2020-q4-major) 10.2.1 20201103 (release)"
ARM GAS  /tmp/cc5NbDbo.s 			page 28


DEFINED SYMBOLS
                            *ABS*:0000000000000000 oslib_test_root.c
     /tmp/cc5NbDbo.s:28     .gnu.debuglto_.debug_info:0000000000000000 oslib_test_root.c.e4244009
                            *COM*:0000000000000001 __gnu_lto_slim

NO UNDEFINED SYMBOLS
