ARM GAS  /tmp/ccY9soYc.s 			page 1


   1              		.cpu cortex-m4
   2              		.eabi_attribute 20, 1
   3              		.eabi_attribute 21, 1
   4              		.eabi_attribute 23, 3
   5              		.eabi_attribute 24, 1
   6              		.eabi_attribute 25, 1
   7              		.eabi_attribute 26, 1
   8              		.eabi_attribute 30, 2
   9              		.eabi_attribute 34, 1
  10              		.eabi_attribute 18, 4
  11              		.file	"rt_test_sequence_008.c"
  12              		.file 1 "/usr/share/gcc-arm-none-eabi-10-2020-q4-major/lib/gcc/arm-none-eabi/10.2.1/include/stddef
  13              		.file 2 "/usr/share/gcc-arm-none-eabi-10-2020-q4-major/arm-none-eabi/include/machine/_default_type
  14              		.file 3 "/usr/share/gcc-arm-none-eabi-10-2020-q4-major/arm-none-eabi/include/sys/_stdint.h"
  15              		.file 4 "./ChibiOS_20.3.0/os/common/ports/ARMCMx/compilers/GCC/chtypes.h"
  16              		.file 5 "./ChibiOS_20.3.0/os/rt/include/chsystypes.h"
  17              		.file 6 "./ChibiOS_20.3.0/os/rt/include/chschd.h"
  18              		.file 7 "./ChibiOS_20.3.0/os/rt/include/chtime.h"
  19              		.file 8 "./ChibiOS_20.3.0/os/common/ports/ARMCMx/chcore.h"
  20              		.file 9 "./ChibiOS_20.3.0/os/common/ports/ARMCMx/chcore_v7m.h"
  21              		.file 10 "./ChibiOS_20.3.0/os/rt/include/chtm.h"
  22              		.file 11 "./ChibiOS_20.3.0/os/rt/include/chsem.h"
  23              		.file 12 "./ChibiOS_20.3.0/os/rt/include/chmtx.h"
  24              		.file 13 "./ChibiOS_20.3.0/test/lib/ch_test.h"
  25              		.file 14 "./ChibiOS_20.3.0/test/rt/source/test/rt_test_sequence_008.h"
  26              		.file 15 "./ChibiOS_20.3.0/test/rt/source/test/rt_test_root.h"
  27              		.file 16 "./ChibiOS_20.3.0/test/rt/source/test/rt_test_sequence_008.c"
  28              		.file 17 "./ChibiOS_20.3.0/os/rt/include/chmsg.h"
  29              		.file 18 "./ChibiOS_20.3.0/os/rt/include/chthreads.h"
  30              		.file 19 "./ChibiOS_20.3.0/os/rt/include/chsys.h"
  31              		.file 20 "./ChibiOS_20.3.0/os/common/ext/ARM/CMSIS/Core/Include/cmsis_gcc.h"
  32              		.section	.gnu.debuglto_.debug_info,"e",%progbits
  33              	.Ldebug_info0:
  34              		.hidden	rt_test_sequence_008.c.0dee06dc
  35              		.weak	rt_test_sequence_008.c.0dee06dc
  36              	rt_test_sequence_008.c.0dee06dc:
  37 0000 B7080000 		.4byte	0x8b7
  38 0004 0400     		.2byte	0x4
  39 0006 00000000 		.4byte	.Ldebug_abbrev0
  40 000a 04       		.byte	0x4
  41 000b 01       		.uleb128 0x1
  42 000c 83020000 		.4byte	.LASF113
  43 0010 0C       		.byte	0xc
  44 0011 19010000 		.4byte	.LASF114
  45 0015 74010000 		.4byte	.LASF115
  46 0019 00000000 		.4byte	.Ldebug_line0
  47 001d 02       		.uleb128 0x2
  48 001e 04       		.byte	0x4
  49 001f 05       		.byte	0x5
  50 0020 696E7400 		.ascii	"int\000"
  51 0024 03       		.uleb128 0x3
  52 0025 0D000000 		.4byte	.LASF4
  53 0029 01       		.byte	0x1
  54 002a D1       		.byte	0xd1
  55 002b 17       		.byte	0x17
  56 002c 30000000 		.4byte	0x30
  57 0030 04       		.uleb128 0x4
ARM GAS  /tmp/ccY9soYc.s 			page 2


  58 0031 04       		.byte	0x4
  59 0032 07       		.byte	0x7
  60 0033 C5010000 		.4byte	.LASF0
  61 0037 04       		.uleb128 0x4
  62 0038 08       		.byte	0x8
  63 0039 05       		.byte	0x5
  64 003a BD000000 		.4byte	.LASF1
  65 003e 04       		.uleb128 0x4
  66 003f 08       		.byte	0x8
  67 0040 04       		.byte	0x4
  68 0041 B7030000 		.4byte	.LASF2
  69 0045 04       		.uleb128 0x4
  70 0046 01       		.byte	0x1
  71 0047 06       		.byte	0x6
  72 0048 CB000000 		.4byte	.LASF3
  73 004c 03       		.uleb128 0x3
  74 004d 2A000000 		.4byte	.LASF5
  75 0051 02       		.byte	0x2
  76 0052 2B       		.byte	0x2b
  77 0053 18       		.byte	0x18
  78 0054 58000000 		.4byte	0x58
  79 0058 04       		.uleb128 0x4
  80 0059 01       		.byte	0x1
  81 005a 08       		.byte	0x8
  82 005b 87040000 		.4byte	.LASF6
  83 005f 04       		.uleb128 0x4
  84 0060 02       		.byte	0x2
  85 0061 05       		.byte	0x5
  86 0062 95040000 		.4byte	.LASF7
  87 0066 04       		.uleb128 0x4
  88 0067 02       		.byte	0x2
  89 0068 07       		.byte	0x7
  90 0069 14020000 		.4byte	.LASF8
  91 006d 03       		.uleb128 0x3
  92 006e 48030000 		.4byte	.LASF9
  93 0072 02       		.byte	0x2
  94 0073 4D       		.byte	0x4d
  95 0074 18       		.byte	0x18
  96 0075 79000000 		.4byte	0x79
  97 0079 04       		.uleb128 0x4
  98 007a 04       		.byte	0x4
  99 007b 05       		.byte	0x5
 100 007c 10010000 		.4byte	.LASF10
 101 0080 03       		.uleb128 0x3
 102 0081 69010000 		.4byte	.LASF11
 103 0085 02       		.byte	0x2
 104 0086 4F       		.byte	0x4f
 105 0087 19       		.byte	0x19
 106 0088 8C000000 		.4byte	0x8c
 107 008c 04       		.uleb128 0x4
 108 008d 04       		.byte	0x4
 109 008e 07       		.byte	0x7
 110 008f 18050000 		.4byte	.LASF12
 111 0093 03       		.uleb128 0x3
 112 0094 31040000 		.4byte	.LASF13
 113 0098 02       		.byte	0x2
 114 0099 69       		.byte	0x69
ARM GAS  /tmp/ccY9soYc.s 			page 3


 115 009a 19       		.byte	0x19
 116 009b 9F000000 		.4byte	0x9f
 117 009f 04       		.uleb128 0x4
 118 00a0 08       		.byte	0x8
 119 00a1 07       		.byte	0x7
 120 00a2 5E000000 		.4byte	.LASF14
 121 00a6 03       		.uleb128 0x3
 122 00a7 B6050000 		.4byte	.LASF15
 123 00ab 03       		.byte	0x3
 124 00ac 18       		.byte	0x18
 125 00ad 13       		.byte	0x13
 126 00ae 4C000000 		.4byte	0x4c
 127 00b2 03       		.uleb128 0x3
 128 00b3 7F040000 		.4byte	.LASF16
 129 00b7 03       		.byte	0x3
 130 00b8 2C       		.byte	0x2c
 131 00b9 13       		.byte	0x13
 132 00ba 6D000000 		.4byte	0x6d
 133 00be 03       		.uleb128 0x3
 134 00bf F2040000 		.4byte	.LASF17
 135 00c3 03       		.byte	0x3
 136 00c4 30       		.byte	0x30
 137 00c5 14       		.byte	0x14
 138 00c6 80000000 		.4byte	0x80
 139 00ca 03       		.uleb128 0x3
 140 00cb 21000000 		.4byte	.LASF18
 141 00cf 03       		.byte	0x3
 142 00d0 3C       		.byte	0x3c
 143 00d1 14       		.byte	0x14
 144 00d2 93000000 		.4byte	0x93
 145 00d6 03       		.uleb128 0x3
 146 00d7 77050000 		.4byte	.LASF19
 147 00db 04       		.byte	0x4
 148 00dc 27       		.byte	0x27
 149 00dd 1D       		.byte	0x1d
 150 00de BE000000 		.4byte	0xbe
 151 00e2 03       		.uleb128 0x3
 152 00e3 61020000 		.4byte	.LASF20
 153 00e7 04       		.byte	0x4
 154 00e8 2A       		.byte	0x2a
 155 00e9 1D       		.byte	0x1d
 156 00ea A6000000 		.4byte	0xa6
 157 00ee 03       		.uleb128 0x3
 158 00ef 55010000 		.4byte	.LASF21
 159 00f3 04       		.byte	0x4
 160 00f4 2B       		.byte	0x2b
 161 00f5 1D       		.byte	0x1d
 162 00f6 A6000000 		.4byte	0xa6
 163 00fa 03       		.uleb128 0x3
 164 00fb 3C040000 		.4byte	.LASF22
 165 00ff 04       		.byte	0x4
 166 0100 2C       		.byte	0x2c
 167 0101 1D       		.byte	0x1d
 168 0102 A6000000 		.4byte	0xa6
 169 0106 03       		.uleb128 0x3
 170 0107 61040000 		.4byte	.LASF23
 171 010b 04       		.byte	0x4
ARM GAS  /tmp/ccY9soYc.s 			page 4


 172 010c 2E       		.byte	0x2e
 173 010d 1D       		.byte	0x1d
 174 010e BE000000 		.4byte	0xbe
 175 0112 03       		.uleb128 0x3
 176 0113 31020000 		.4byte	.LASF24
 177 0117 04       		.byte	0x4
 178 0118 2F       		.byte	0x2f
 179 0119 1D       		.byte	0x1d
 180 011a B2000000 		.4byte	0xb2
 181 011e 03       		.uleb128 0x3
 182 011f 77020000 		.4byte	.LASF25
 183 0123 04       		.byte	0x4
 184 0124 31       		.byte	0x31
 185 0125 1D       		.byte	0x1d
 186 0126 BE000000 		.4byte	0xbe
 187 012a 03       		.uleb128 0x3
 188 012b BF010000 		.4byte	.LASF26
 189 012f 04       		.byte	0x4
 190 0130 33       		.byte	0x33
 191 0131 1D       		.byte	0x1d
 192 0132 B2000000 		.4byte	0xb2
 193 0136 03       		.uleb128 0x3
 194 0137 3C050000 		.4byte	.LASF27
 195 013b 05       		.byte	0x5
 196 013c 34       		.byte	0x34
 197 013d 1A       		.byte	0x1a
 198 013e 42010000 		.4byte	0x142
 199 0142 05       		.uleb128 0x5
 200 0143 27020000 		.4byte	.LASF45
 201 0147 44       		.byte	0x44
 202 0148 06       		.byte	0x6
 203 0149 8E       		.byte	0x8e
 204 014a 08       		.byte	0x8
 205 014b 32020000 		.4byte	0x232
 206 014f 06       		.uleb128 0x6
 207 0150 63010000 		.4byte	.LASF28
 208 0154 06       		.byte	0x6
 209 0155 8F       		.byte	0x8f
 210 0156 19       		.byte	0x19
 211 0157 6B020000 		.4byte	0x26b
 212 015b 00       		.byte	0
 213 015c 06       		.uleb128 0x6
 214 015d 24040000 		.4byte	.LASF29
 215 0161 06       		.byte	0x6
 216 0162 90       		.byte	0x90
 217 0163 19       		.byte	0x19
 218 0164 06010000 		.4byte	0x106
 219 0168 08       		.byte	0x8
 220 0169 07       		.uleb128 0x7
 221 016a 63747800 		.ascii	"ctx\000"
 222 016e 06       		.byte	0x6
 223 016f 91       		.byte	0x91
 224 0170 19       		.byte	0x19
 225 0171 19050000 		.4byte	0x519
 226 0175 0C       		.byte	0xc
 227 0176 06       		.uleb128 0x6
 228 0177 68030000 		.4byte	.LASF30
ARM GAS  /tmp/ccY9soYc.s 			page 5


 229 017b 06       		.byte	0x6
 230 017c 93       		.byte	0x93
 231 017d 1A       		.byte	0x1a
 232 017e 3E020000 		.4byte	0x23e
 233 0182 10       		.byte	0x10
 234 0183 06       		.uleb128 0x6
 235 0184 36050000 		.4byte	.LASF31
 236 0188 06       		.byte	0x6
 237 0189 94       		.byte	0x94
 238 018a 1A       		.byte	0x1a
 239 018b 3E020000 		.4byte	0x23e
 240 018f 14       		.byte	0x14
 241 0190 06       		.uleb128 0x6
 242 0191 F1010000 		.4byte	.LASF32
 243 0195 06       		.byte	0x6
 244 0196 9B       		.byte	0x9b
 245 0197 1A       		.byte	0x1a
 246 0198 38060000 		.4byte	0x638
 247 019c 18       		.byte	0x18
 248 019d 06       		.uleb128 0x6
 249 019e 2A050000 		.4byte	.LASF33
 250 01a2 06       		.byte	0x6
 251 01a3 A4       		.byte	0xa4
 252 01a4 1A       		.byte	0x1a
 253 01a5 4F060000 		.4byte	0x64f
 254 01a9 1C       		.byte	0x1c
 255 01aa 06       		.uleb128 0x6
 256 01ab 0A010000 		.4byte	.LASF34
 257 01af 06       		.byte	0x6
 258 01b0 A9       		.byte	0xa9
 259 01b1 19       		.byte	0x19
 260 01b2 EE000000 		.4byte	0xee
 261 01b6 20       		.byte	0x20
 262 01b7 06       		.uleb128 0x6
 263 01b8 BE050000 		.4byte	.LASF35
 264 01bc 06       		.byte	0x6
 265 01bd AD       		.byte	0xad
 266 01be 19       		.byte	0x19
 267 01bf E2000000 		.4byte	0xe2
 268 01c3 21       		.byte	0x21
 269 01c4 06       		.uleb128 0x6
 270 01c5 44040000 		.4byte	.LASF36
 271 01c9 06       		.byte	0x6
 272 01ca B2       		.byte	0xb2
 273 01cb 19       		.byte	0x19
 274 01cc FA000000 		.4byte	0xfa
 275 01d0 22       		.byte	0x22
 276 01d1 08       		.uleb128 0x8
 277 01d2 7500     		.ascii	"u\000"
 278 01d4 06       		.byte	0x6
 279 01d5 0301     		.2byte	0x103
 280 01d7 19       		.byte	0x19
 281 01d8 5E050000 		.4byte	0x55e
 282 01dc 24       		.byte	0x24
 283 01dd 09       		.uleb128 0x9
 284 01de A1010000 		.4byte	.LASF37
 285 01e2 06       		.byte	0x6
ARM GAS  /tmp/ccY9soYc.s 			page 6


 286 01e3 0801     		.2byte	0x108
 287 01e5 19       		.byte	0x19
 288 01e6 44020000 		.4byte	0x244
 289 01ea 28       		.byte	0x28
 290 01eb 09       		.uleb128 0x9
 291 01ec 01010000 		.4byte	.LASF38
 292 01f0 06       		.byte	0x6
 293 01f1 0E01     		.2byte	0x10e
 294 01f3 19       		.byte	0x19
 295 01f4 6B020000 		.4byte	0x26b
 296 01f8 2C       		.byte	0x2c
 297 01f9 09       		.uleb128 0x9
 298 01fa 37020000 		.4byte	.LASF39
 299 01fe 06       		.byte	0x6
 300 01ff 1401     		.2byte	0x114
 301 0201 19       		.byte	0x19
 302 0202 1E010000 		.4byte	0x11e
 303 0206 34       		.byte	0x34
 304 0207 09       		.uleb128 0x9
 305 0208 E6050000 		.4byte	.LASF40
 306 020c 06       		.byte	0x6
 307 020d 1B01     		.2byte	0x11b
 308 020f 1A       		.byte	0x1a
 309 0210 32060000 		.4byte	0x632
 310 0214 38       		.byte	0x38
 311 0215 09       		.uleb128 0x9
 312 0216 6E030000 		.4byte	.LASF41
 313 021a 06       		.byte	0x6
 314 021b 1F01     		.2byte	0x11f
 315 021d 19       		.byte	0x19
 316 021e 06010000 		.4byte	0x106
 317 0222 3C       		.byte	0x3c
 318 0223 09       		.uleb128 0x9
 319 0224 0E020000 		.4byte	.LASF42
 320 0228 06       		.byte	0x6
 321 0229 2601     		.2byte	0x126
 322 022b 1A       		.byte	0x1a
 323 022c 2B030000 		.4byte	0x32b
 324 0230 40       		.byte	0x40
 325 0231 00       		.byte	0
 326 0232 03       		.uleb128 0x3
 327 0233 83030000 		.4byte	.LASF43
 328 0237 05       		.byte	0x5
 329 0238 39       		.byte	0x39
 330 0239 14       		.byte	0x14
 331 023a 3E020000 		.4byte	0x23e
 332 023e 0A       		.uleb128 0xa
 333 023f 04       		.byte	0x4
 334 0240 36010000 		.4byte	0x136
 335 0244 03       		.uleb128 0x3
 336 0245 CB050000 		.4byte	.LASF44
 337 0249 05       		.byte	0x5
 338 024a 3E       		.byte	0x3e
 339 024b 20       		.byte	0x20
 340 024c 50020000 		.4byte	0x250
 341 0250 05       		.uleb128 0x5
 342 0251 02050000 		.4byte	.LASF46
ARM GAS  /tmp/ccY9soYc.s 			page 7


 343 0255 04       		.byte	0x4
 344 0256 06       		.byte	0x6
 345 0257 7C       		.byte	0x7c
 346 0258 08       		.byte	0x8
 347 0259 6B020000 		.4byte	0x26b
 348 025d 06       		.uleb128 0x6
 349 025e A7000000 		.4byte	.LASF47
 350 0262 06       		.byte	0x6
 351 0263 7D       		.byte	0x7d
 352 0264 1A       		.byte	0x1a
 353 0265 3E020000 		.4byte	0x23e
 354 0269 00       		.byte	0
 355 026a 00       		.byte	0
 356 026b 03       		.uleb128 0x3
 357 026c 89050000 		.4byte	.LASF48
 358 0270 05       		.byte	0x5
 359 0271 45       		.byte	0x45
 360 0272 21       		.byte	0x21
 361 0273 77020000 		.4byte	0x277
 362 0277 05       		.uleb128 0x5
 363 0278 AC000000 		.4byte	.LASF49
 364 027c 08       		.byte	0x8
 365 027d 06       		.byte	0x6
 366 027e 83       		.byte	0x83
 367 027f 08       		.byte	0x8
 368 0280 9F020000 		.4byte	0x29f
 369 0284 06       		.uleb128 0x6
 370 0285 A7000000 		.4byte	.LASF47
 371 0289 06       		.byte	0x6
 372 028a 84       		.byte	0x84
 373 028b 1A       		.byte	0x1a
 374 028c 3E020000 		.4byte	0x23e
 375 0290 00       		.byte	0
 376 0291 06       		.uleb128 0x6
 377 0292 34000000 		.4byte	.LASF50
 378 0296 06       		.byte	0x6
 379 0297 85       		.byte	0x85
 380 0298 1A       		.byte	0x1a
 381 0299 3E020000 		.4byte	0x23e
 382 029d 04       		.byte	0x4
 383 029e 00       		.byte	0
 384 029f 03       		.uleb128 0x3
 385 02a0 00000000 		.4byte	.LASF51
 386 02a4 05       		.byte	0x5
 387 02a5 4C       		.byte	0x4c
 388 02a6 1E       		.byte	0x1e
 389 02a7 AB020000 		.4byte	0x2ab
 390 02ab 0B       		.uleb128 0xb
 391 02ac 69020000 		.4byte	.LASF52
 392 02b0 1C       		.byte	0x1c
 393 02b1 06       		.byte	0x6
 394 02b2 5E01     		.2byte	0x15e
 395 02b4 08       		.byte	0x8
 396 02b5 0E030000 		.4byte	0x30e
 397 02b9 09       		.uleb128 0x9
 398 02ba 63010000 		.4byte	.LASF28
 399 02be 06       		.byte	0x6
ARM GAS  /tmp/ccY9soYc.s 			page 8


 400 02bf 5F01     		.2byte	0x15f
 401 02c1 19       		.byte	0x19
 402 02c2 6B020000 		.4byte	0x26b
 403 02c6 00       		.byte	0
 404 02c7 09       		.uleb128 0x9
 405 02c8 24040000 		.4byte	.LASF29
 406 02cc 06       		.byte	0x6
 407 02cd 6001     		.2byte	0x160
 408 02cf 19       		.byte	0x19
 409 02d0 06010000 		.4byte	0x106
 410 02d4 08       		.byte	0x8
 411 02d5 08       		.uleb128 0x8
 412 02d6 63747800 		.ascii	"ctx\000"
 413 02da 06       		.byte	0x6
 414 02db 6201     		.2byte	0x162
 415 02dd 19       		.byte	0x19
 416 02de 19050000 		.4byte	0x519
 417 02e2 0C       		.byte	0xc
 418 02e3 09       		.uleb128 0x9
 419 02e4 68030000 		.4byte	.LASF30
 420 02e8 06       		.byte	0x6
 421 02e9 6501     		.2byte	0x165
 422 02eb 1A       		.byte	0x1a
 423 02ec 3E020000 		.4byte	0x23e
 424 02f0 10       		.byte	0x10
 425 02f1 09       		.uleb128 0x9
 426 02f2 36050000 		.4byte	.LASF31
 427 02f6 06       		.byte	0x6
 428 02f7 6601     		.2byte	0x166
 429 02f9 1A       		.byte	0x1a
 430 02fa 3E020000 		.4byte	0x23e
 431 02fe 14       		.byte	0x14
 432 02ff 09       		.uleb128 0x9
 433 0300 29040000 		.4byte	.LASF53
 434 0304 06       		.byte	0x6
 435 0305 6901     		.2byte	0x169
 436 0307 1A       		.byte	0x1a
 437 0308 3E020000 		.4byte	0x23e
 438 030c 18       		.byte	0x18
 439 030d 00       		.byte	0
 440 030e 03       		.uleb128 0x3
 441 030f 4F050000 		.4byte	.LASF54
 442 0313 05       		.byte	0x5
 443 0314 51       		.byte	0x51
 444 0315 10       		.byte	0x10
 445 0316 1A030000 		.4byte	0x31a
 446 031a 0A       		.uleb128 0xa
 447 031b 04       		.byte	0x4
 448 031c 20030000 		.4byte	0x320
 449 0320 0C       		.uleb128 0xc
 450 0321 2B030000 		.4byte	0x32b
 451 0325 0D       		.uleb128 0xd
 452 0326 2B030000 		.4byte	0x32b
 453 032a 00       		.byte	0
 454 032b 0E       		.uleb128 0xe
 455 032c 04       		.byte	0x4
 456 032d 0F       		.uleb128 0xf
ARM GAS  /tmp/ccY9soYc.s 			page 9


 457 032e 2B030000 		.4byte	0x32b
 458 0332 03       		.uleb128 0x3
 459 0333 49040000 		.4byte	.LASF55
 460 0337 05       		.byte	0x5
 461 0338 56       		.byte	0x56
 462 0339 21       		.byte	0x21
 463 033a 3E030000 		.4byte	0x33e
 464 033e 0B       		.uleb128 0xb
 465 033f D4040000 		.4byte	.LASF56
 466 0343 14       		.byte	0x14
 467 0344 06       		.byte	0x6
 468 0345 3901     		.2byte	0x139
 469 0347 08       		.byte	0x8
 470 0348 93030000 		.4byte	0x393
 471 034c 09       		.uleb128 0x9
 472 034d A7000000 		.4byte	.LASF47
 473 0351 06       		.byte	0x6
 474 0352 3A01     		.2byte	0x13a
 475 0354 1A       		.byte	0x1a
 476 0355 55060000 		.4byte	0x655
 477 0359 00       		.byte	0
 478 035a 09       		.uleb128 0x9
 479 035b 34000000 		.4byte	.LASF50
 480 035f 06       		.byte	0x6
 481 0360 3B01     		.2byte	0x13b
 482 0362 1A       		.byte	0x1a
 483 0363 55060000 		.4byte	0x655
 484 0367 04       		.byte	0x4
 485 0368 09       		.uleb128 0x9
 486 0369 14000000 		.4byte	.LASF57
 487 036d 06       		.byte	0x6
 488 036e 3C01     		.2byte	0x13c
 489 0370 19       		.byte	0x19
 490 0371 7B040000 		.4byte	0x47b
 491 0375 08       		.byte	0x8
 492 0376 09       		.uleb128 0x9
 493 0377 5E010000 		.4byte	.LASF58
 494 037b 06       		.byte	0x6
 495 037c 3D01     		.2byte	0x13d
 496 037e 19       		.byte	0x19
 497 037f 0E030000 		.4byte	0x30e
 498 0383 0C       		.byte	0xc
 499 0384 08       		.uleb128 0x8
 500 0385 70617200 		.ascii	"par\000"
 501 0389 06       		.byte	0x6
 502 038a 3F01     		.2byte	0x13f
 503 038c 1A       		.byte	0x1a
 504 038d 2B030000 		.4byte	0x32b
 505 0391 10       		.byte	0x10
 506 0392 00       		.byte	0
 507 0393 03       		.uleb128 0x3
 508 0394 91000000 		.4byte	.LASF59
 509 0398 05       		.byte	0x5
 510 0399 5B       		.byte	0x5b
 511 039a 28       		.byte	0x28
 512 039b 9F030000 		.4byte	0x39f
 513 039f 0B       		.uleb128 0xb
ARM GAS  /tmp/ccY9soYc.s 			page 10


 514 03a0 96030000 		.4byte	.LASF60
 515 03a4 10       		.byte	0x10
 516 03a5 06       		.byte	0x6
 517 03a6 4901     		.2byte	0x149
 518 03a8 08       		.byte	0x8
 519 03a9 E6030000 		.4byte	0x3e6
 520 03ad 09       		.uleb128 0x9
 521 03ae A7000000 		.4byte	.LASF47
 522 03b2 06       		.byte	0x6
 523 03b3 4A01     		.2byte	0x14a
 524 03b5 1A       		.byte	0x1a
 525 03b6 55060000 		.4byte	0x655
 526 03ba 00       		.byte	0
 527 03bb 09       		.uleb128 0x9
 528 03bc 34000000 		.4byte	.LASF50
 529 03c0 06       		.byte	0x6
 530 03c1 4C01     		.2byte	0x14c
 531 03c3 1A       		.byte	0x1a
 532 03c4 55060000 		.4byte	0x655
 533 03c8 04       		.byte	0x4
 534 03c9 09       		.uleb128 0x9
 535 03ca 14000000 		.4byte	.LASF57
 536 03ce 06       		.byte	0x6
 537 03cf 4E01     		.2byte	0x14e
 538 03d1 19       		.byte	0x19
 539 03d2 7B040000 		.4byte	0x47b
 540 03d6 08       		.byte	0x8
 541 03d7 09       		.uleb128 0x9
 542 03d8 9F040000 		.4byte	.LASF61
 543 03dc 06       		.byte	0x6
 544 03dd 5601     		.2byte	0x156
 545 03df 19       		.byte	0x19
 546 03e0 6F040000 		.4byte	0x46f
 547 03e4 0C       		.byte	0xc
 548 03e5 00       		.byte	0
 549 03e6 03       		.uleb128 0x3
 550 03e7 45000000 		.4byte	.LASF62
 551 03eb 05       		.byte	0x5
 552 03ec 60       		.byte	0x60
 553 03ed 20       		.byte	0x20
 554 03ee F2030000 		.4byte	0x3f2
 555 03f2 0B       		.uleb128 0xb
 556 03f3 69040000 		.4byte	.LASF63
 557 03f7 04       		.byte	0x4
 558 03f8 06       		.byte	0x6
 559 03f9 7001     		.2byte	0x170
 560 03fb 08       		.byte	0x8
 561 03fc 0F040000 		.4byte	0x40f
 562 0400 09       		.uleb128 0x9
 563 0401 66050000 		.4byte	.LASF64
 564 0405 06       		.byte	0x6
 565 0406 7801     		.2byte	0x178
 566 0408 24       		.byte	0x24
 567 0409 3E060000 		.4byte	0x63e
 568 040d 00       		.byte	0
 569 040e 00       		.byte	0
 570 040f 03       		.uleb128 0x3
ARM GAS  /tmp/ccY9soYc.s 			page 11


 571 0410 40020000 		.4byte	.LASF65
 572 0414 05       		.byte	0x5
 573 0415 65       		.byte	0x65
 574 0416 1A       		.byte	0x1a
 575 0417 1B040000 		.4byte	0x41b
 576 041b 0B       		.uleb128 0xb
 577 041c B7040000 		.4byte	.LASF66
 578 0420 78       		.byte	0x78
 579 0421 06       		.byte	0x6
 580 0422 9001     		.2byte	0x190
 581 0424 08       		.byte	0x8
 582 0425 6F040000 		.4byte	0x46f
 583 0429 09       		.uleb128 0x9
 584 042a A2050000 		.4byte	.LASF67
 585 042e 06       		.byte	0x6
 586 042f 9401     		.2byte	0x194
 587 0431 19       		.byte	0x19
 588 0432 9F020000 		.4byte	0x29f
 589 0436 00       		.byte	0
 590 0437 09       		.uleb128 0x9
 591 0438 EE000000 		.4byte	.LASF68
 592 043c 06       		.byte	0x6
 593 043d 9801     		.2byte	0x198
 594 043f 19       		.byte	0x19
 595 0440 93030000 		.4byte	0x393
 596 0444 1C       		.byte	0x1c
 597 0445 08       		.uleb128 0x8
 598 0446 64626700 		.ascii	"dbg\000"
 599 044a 06       		.byte	0x6
 600 044b 9C01     		.2byte	0x19c
 601 044d 19       		.byte	0x19
 602 044e E6030000 		.4byte	0x3e6
 603 0452 2C       		.byte	0x2c
 604 0453 09       		.uleb128 0x9
 605 0454 7E000000 		.4byte	.LASF69
 606 0458 06       		.byte	0x6
 607 0459 A001     		.2byte	0x1a0
 608 045b 19       		.byte	0x19
 609 045c 36010000 		.4byte	0x136
 610 0460 30       		.byte	0x30
 611 0461 08       		.uleb128 0x8
 612 0462 746D00   		.ascii	"tm\000"
 613 0465 06       		.byte	0x6
 614 0466 A501     		.2byte	0x1a5
 615 0468 19       		.byte	0x19
 616 0469 52050000 		.4byte	0x552
 617 046d 74       		.byte	0x74
 618 046e 00       		.byte	0
 619 046f 03       		.uleb128 0x3
 620 0470 45050000 		.4byte	.LASF70
 621 0474 07       		.byte	0x7
 622 0475 6D       		.byte	0x6d
 623 0476 12       		.byte	0x12
 624 0477 BE000000 		.4byte	0xbe
 625 047b 03       		.uleb128 0x3
 626 047c B1010000 		.4byte	.LASF71
 627 0480 07       		.byte	0x7
ARM GAS  /tmp/ccY9soYc.s 			page 12


 628 0481 79       		.byte	0x79
 629 0482 12       		.byte	0x12
 630 0483 BE000000 		.4byte	0xbe
 631 0487 03       		.uleb128 0x3
 632 0488 52030000 		.4byte	.LASF72
 633 048c 08       		.byte	0x8
 634 048d 68       		.byte	0x68
 635 048e 12       		.byte	0x12
 636 048f CA000000 		.4byte	0xca
 637 0493 0B       		.uleb128 0xb
 638 0494 39000000 		.4byte	.LASF73
 639 0498 24       		.byte	0x24
 640 0499 09       		.byte	0x9
 641 049a 8501     		.2byte	0x185
 642 049c 08       		.byte	0x8
 643 049d 19050000 		.4byte	0x519
 644 04a1 08       		.uleb128 0x8
 645 04a2 723400   		.ascii	"r4\000"
 646 04a5 09       		.byte	0x9
 647 04a6 9E01     		.2byte	0x19e
 648 04a8 11       		.byte	0x11
 649 04a9 BE000000 		.4byte	0xbe
 650 04ad 00       		.byte	0
 651 04ae 08       		.uleb128 0x8
 652 04af 723500   		.ascii	"r5\000"
 653 04b2 09       		.byte	0x9
 654 04b3 9F01     		.2byte	0x19f
 655 04b5 11       		.byte	0x11
 656 04b6 BE000000 		.4byte	0xbe
 657 04ba 04       		.byte	0x4
 658 04bb 08       		.uleb128 0x8
 659 04bc 723600   		.ascii	"r6\000"
 660 04bf 09       		.byte	0x9
 661 04c0 A001     		.2byte	0x1a0
 662 04c2 11       		.byte	0x11
 663 04c3 BE000000 		.4byte	0xbe
 664 04c7 08       		.byte	0x8
 665 04c8 08       		.uleb128 0x8
 666 04c9 723700   		.ascii	"r7\000"
 667 04cc 09       		.byte	0x9
 668 04cd A101     		.2byte	0x1a1
 669 04cf 11       		.byte	0x11
 670 04d0 BE000000 		.4byte	0xbe
 671 04d4 0C       		.byte	0xc
 672 04d5 08       		.uleb128 0x8
 673 04d6 723800   		.ascii	"r8\000"
 674 04d9 09       		.byte	0x9
 675 04da A201     		.2byte	0x1a2
 676 04dc 11       		.byte	0x11
 677 04dd BE000000 		.4byte	0xbe
 678 04e1 10       		.byte	0x10
 679 04e2 08       		.uleb128 0x8
 680 04e3 723900   		.ascii	"r9\000"
 681 04e6 09       		.byte	0x9
 682 04e7 A301     		.2byte	0x1a3
 683 04e9 11       		.byte	0x11
 684 04ea BE000000 		.4byte	0xbe
ARM GAS  /tmp/ccY9soYc.s 			page 13


 685 04ee 14       		.byte	0x14
 686 04ef 08       		.uleb128 0x8
 687 04f0 72313000 		.ascii	"r10\000"
 688 04f4 09       		.byte	0x9
 689 04f5 A401     		.2byte	0x1a4
 690 04f7 11       		.byte	0x11
 691 04f8 BE000000 		.4byte	0xbe
 692 04fc 18       		.byte	0x18
 693 04fd 08       		.uleb128 0x8
 694 04fe 72313100 		.ascii	"r11\000"
 695 0502 09       		.byte	0x9
 696 0503 A501     		.2byte	0x1a5
 697 0505 11       		.byte	0x11
 698 0506 BE000000 		.4byte	0xbe
 699 050a 1C       		.byte	0x1c
 700 050b 08       		.uleb128 0x8
 701 050c 6C7200   		.ascii	"lr\000"
 702 050f 09       		.byte	0x9
 703 0510 A601     		.2byte	0x1a6
 704 0512 11       		.byte	0x11
 705 0513 BE000000 		.4byte	0xbe
 706 0517 20       		.byte	0x20
 707 0518 00       		.byte	0
 708 0519 0B       		.uleb128 0xb
 709 051a FF030000 		.4byte	.LASF74
 710 051e 04       		.byte	0x4
 711 051f 09       		.byte	0x9
 712 0520 A901     		.2byte	0x1a9
 713 0522 08       		.byte	0x8
 714 0523 35050000 		.4byte	0x535
 715 0527 08       		.uleb128 0x8
 716 0528 737000   		.ascii	"sp\000"
 717 052b 09       		.byte	0x9
 718 052c AA01     		.2byte	0x1aa
 719 052e 1A       		.byte	0x1a
 720 052f 35050000 		.4byte	0x535
 721 0533 00       		.byte	0
 722 0534 00       		.byte	0
 723 0535 0A       		.uleb128 0xa
 724 0536 04       		.byte	0x4
 725 0537 93040000 		.4byte	0x493
 726 053b 10       		.uleb128 0x10
 727 053c 04       		.byte	0x4
 728 053d 0A       		.byte	0xa
 729 053e 38       		.byte	0x38
 730 053f 09       		.byte	0x9
 731 0540 52050000 		.4byte	0x552
 732 0544 06       		.uleb128 0x6
 733 0545 70050000 		.4byte	.LASF75
 734 0549 0A       		.byte	0xa
 735 054a 3C       		.byte	0x3c
 736 054b 19       		.byte	0x19
 737 054c D6000000 		.4byte	0xd6
 738 0550 00       		.byte	0
 739 0551 00       		.byte	0
 740 0552 03       		.uleb128 0x3
 741 0553 DE030000 		.4byte	.LASF76
ARM GAS  /tmp/ccY9soYc.s 			page 14


 742 0557 0A       		.byte	0xa
 743 0558 3D       		.byte	0x3d
 744 0559 03       		.byte	0x3
 745 055a 3B050000 		.4byte	0x53b
 746 055e 11       		.uleb128 0x11
 747 055f 04       		.byte	0x4
 748 0560 06       		.byte	0x6
 749 0561 C6       		.byte	0xc6
 750 0562 03       		.byte	0x3
 751 0563 C9050000 		.4byte	0x5c9
 752 0567 12       		.uleb128 0x12
 753 0568 1A000000 		.4byte	.LASF77
 754 056c 06       		.byte	0x6
 755 056d CD       		.byte	0xcd
 756 056e 19       		.byte	0x19
 757 056f 12010000 		.4byte	0x112
 758 0573 12       		.uleb128 0x12
 759 0574 75000000 		.4byte	.LASF78
 760 0578 06       		.byte	0x6
 761 0579 D4       		.byte	0xd4
 762 057a 19       		.byte	0x19
 763 057b 12010000 		.4byte	0x112
 764 057f 12       		.uleb128 0x12
 765 0580 C4050000 		.4byte	.LASF79
 766 0584 06       		.byte	0x6
 767 0585 DB       		.byte	0xdb
 768 0586 1A       		.byte	0x1a
 769 0587 2B030000 		.4byte	0x32b
 770 058b 12       		.uleb128 0x12
 771 058c D9010000 		.4byte	.LASF80
 772 0590 06       		.byte	0x6
 773 0591 E2       		.byte	0xe2
 774 0592 1A       		.byte	0x1a
 775 0593 C9050000 		.4byte	0x5c9
 776 0597 12       		.uleb128 0x12
 777 0598 89000000 		.4byte	.LASF81
 778 059c 06       		.byte	0x6
 779 059d E7       		.byte	0xe7
 780 059e 19       		.byte	0x19
 781 059f 12010000 		.4byte	0x112
 782 05a3 12       		.uleb128 0x12
 783 05a4 D2010000 		.4byte	.LASF82
 784 05a8 06       		.byte	0x6
 785 05a9 F0       		.byte	0xf0
 786 05aa 1A       		.byte	0x1a
 787 05ab F7050000 		.4byte	0x5f7
 788 05af 12       		.uleb128 0x12
 789 05b0 FB040000 		.4byte	.LASF83
 790 05b4 06       		.byte	0x6
 791 05b5 F9       		.byte	0xf9
 792 05b6 1A       		.byte	0x1a
 793 05b7 32060000 		.4byte	0x632
 794 05bb 13       		.uleb128 0x13
 795 05bc B0040000 		.4byte	.LASF84
 796 05c0 06       		.byte	0x6
 797 05c1 0101     		.2byte	0x101
 798 05c3 19       		.byte	0x19
ARM GAS  /tmp/ccY9soYc.s 			page 15


 799 05c4 1E010000 		.4byte	0x11e
 800 05c8 00       		.byte	0
 801 05c9 0A       		.uleb128 0xa
 802 05ca 04       		.byte	0x4
 803 05cb 32020000 		.4byte	0x232
 804 05cf 05       		.uleb128 0x5
 805 05d0 E5040000 		.4byte	.LASF85
 806 05d4 0C       		.byte	0xc
 807 05d5 0B       		.byte	0xb
 808 05d6 34       		.byte	0x34
 809 05d7 10       		.byte	0x10
 810 05d8 F7050000 		.4byte	0x5f7
 811 05dc 06       		.uleb128 0x6
 812 05dd 63010000 		.4byte	.LASF28
 813 05e1 0B       		.byte	0xb
 814 05e2 35       		.byte	0x35
 815 05e3 19       		.byte	0x19
 816 05e4 6B020000 		.4byte	0x26b
 817 05e8 00       		.byte	0
 818 05e9 07       		.uleb128 0x7
 819 05ea 636E7400 		.ascii	"cnt\000"
 820 05ee 0B       		.byte	0xb
 821 05ef 37       		.byte	0x37
 822 05f0 19       		.byte	0x19
 823 05f1 2A010000 		.4byte	0x12a
 824 05f5 08       		.byte	0x8
 825 05f6 00       		.byte	0
 826 05f7 0A       		.uleb128 0xa
 827 05f8 04       		.byte	0x4
 828 05f9 CF050000 		.4byte	0x5cf
 829 05fd 05       		.uleb128 0x5
 830 05fe 99050000 		.4byte	.LASF86
 831 0602 10       		.byte	0x10
 832 0603 0C       		.byte	0xc
 833 0604 39       		.byte	0x39
 834 0605 08       		.byte	0x8
 835 0606 32060000 		.4byte	0x632
 836 060a 06       		.uleb128 0x6
 837 060b 63010000 		.4byte	.LASF28
 838 060f 0C       		.byte	0xc
 839 0610 3A       		.byte	0x3a
 840 0611 19       		.byte	0x19
 841 0612 6B020000 		.4byte	0x26b
 842 0616 00       		.byte	0
 843 0617 06       		.uleb128 0x6
 844 0618 12050000 		.4byte	.LASF87
 845 061c 0C       		.byte	0xc
 846 061d 3C       		.byte	0x3c
 847 061e 1A       		.byte	0x1a
 848 061f 3E020000 		.4byte	0x23e
 849 0623 08       		.byte	0x8
 850 0624 06       		.uleb128 0x6
 851 0625 A7000000 		.4byte	.LASF47
 852 0629 0C       		.byte	0xc
 853 062a 3E       		.byte	0x3e
 854 062b 1A       		.byte	0x1a
 855 062c 73060000 		.4byte	0x673
ARM GAS  /tmp/ccY9soYc.s 			page 16


 856 0630 0C       		.byte	0xc
 857 0631 00       		.byte	0
 858 0632 0A       		.uleb128 0xa
 859 0633 04       		.byte	0x4
 860 0634 FD050000 		.4byte	0x5fd
 861 0638 0A       		.uleb128 0xa
 862 0639 04       		.byte	0x4
 863 063a 4A060000 		.4byte	0x64a
 864 063e 14       		.uleb128 0x14
 865 063f 38060000 		.4byte	0x638
 866 0643 04       		.uleb128 0x4
 867 0644 01       		.byte	0x1
 868 0645 08       		.byte	0x8
 869 0646 31050000 		.4byte	.LASF88
 870 064a 0F       		.uleb128 0xf
 871 064b 43060000 		.4byte	0x643
 872 064f 0A       		.uleb128 0xa
 873 0650 04       		.byte	0x4
 874 0651 87040000 		.4byte	0x487
 875 0655 0A       		.uleb128 0xa
 876 0656 04       		.byte	0x4
 877 0657 32030000 		.4byte	0x332
 878 065b 15       		.uleb128 0x15
 879 065c 636800   		.ascii	"ch\000"
 880 065f 06       		.byte	0x6
 881 0660 C701     		.2byte	0x1c7
 882 0662 14       		.byte	0x14
 883 0663 0F040000 		.4byte	0x40f
 884 0667 03       		.uleb128 0x3
 885 0668 A9010000 		.4byte	.LASF89
 886 066c 0C       		.byte	0xc
 887 066d 34       		.byte	0x34
 888 066e 19       		.byte	0x19
 889 066f FD050000 		.4byte	0x5fd
 890 0673 0A       		.uleb128 0xa
 891 0674 04       		.byte	0x4
 892 0675 67060000 		.4byte	0x667
 893 0679 04       		.uleb128 0x4
 894 067a 01       		.byte	0x1
 895 067b 02       		.byte	0x2
 896 067c 79040000 		.4byte	.LASF90
 897 0680 10       		.uleb128 0x10
 898 0681 10       		.byte	0x10
 899 0682 0D       		.byte	0xd
 900 0683 4C       		.byte	0x4c
 901 0684 09       		.byte	0x9
 902 0685 BE060000 		.4byte	0x6be
 903 0689 06       		.uleb128 0x6
 904 068a F1010000 		.4byte	.LASF32
 905 068e 0D       		.byte	0xd
 906 068f 4D       		.byte	0x4d
 907 0690 0F       		.byte	0xf
 908 0691 38060000 		.4byte	0x638
 909 0695 00       		.byte	0
 910 0696 06       		.uleb128 0x6
 911 0697 1E040000 		.4byte	.LASF91
 912 069b 0D       		.byte	0xd
ARM GAS  /tmp/ccY9soYc.s 			page 17


 913 069c 4E       		.byte	0x4e
 914 069d 0A       		.byte	0xa
 915 069e BF060000 		.4byte	0x6bf
 916 06a2 04       		.byte	0x4
 917 06a3 06       		.uleb128 0x6
 918 06a4 DF010000 		.4byte	.LASF92
 919 06a8 0D       		.byte	0xd
 920 06a9 4F       		.byte	0x4f
 921 06aa 0A       		.byte	0xa
 922 06ab BF060000 		.4byte	0x6bf
 923 06af 08       		.byte	0x8
 924 06b0 06       		.uleb128 0x6
 925 06b1 59040000 		.4byte	.LASF93
 926 06b5 0D       		.byte	0xd
 927 06b6 50       		.byte	0x50
 928 06b7 0A       		.byte	0xa
 929 06b8 BF060000 		.4byte	0x6bf
 930 06bc 0C       		.byte	0xc
 931 06bd 00       		.byte	0
 932 06be 16       		.uleb128 0x16
 933 06bf 0A       		.uleb128 0xa
 934 06c0 04       		.byte	0x4
 935 06c1 BE060000 		.4byte	0x6be
 936 06c5 03       		.uleb128 0x3
 937 06c6 5D030000 		.4byte	.LASF94
 938 06ca 0D       		.byte	0xd
 939 06cb 51       		.byte	0x51
 940 06cc 03       		.byte	0x3
 941 06cd 80060000 		.4byte	0x680
 942 06d1 0F       		.uleb128 0xf
 943 06d2 C5060000 		.4byte	0x6c5
 944 06d6 10       		.uleb128 0x10
 945 06d7 08       		.byte	0x8
 946 06d8 0D       		.byte	0xd
 947 06d9 56       		.byte	0x56
 948 06da 09       		.byte	0x9
 949 06db FA060000 		.4byte	0x6fa
 950 06df 06       		.uleb128 0x6
 951 06e0 F1010000 		.4byte	.LASF32
 952 06e4 0D       		.byte	0xd
 953 06e5 57       		.byte	0x57
 954 06e6 16       		.byte	0x16
 955 06e7 38060000 		.4byte	0x638
 956 06eb 00       		.byte	0
 957 06ec 06       		.uleb128 0x6
 958 06ed EE050000 		.4byte	.LASF95
 959 06f1 0D       		.byte	0xd
 960 06f2 58       		.byte	0x58
 961 06f3 1E       		.byte	0x1e
 962 06f4 FA060000 		.4byte	0x6fa
 963 06f8 04       		.byte	0x4
 964 06f9 00       		.byte	0
 965 06fa 0A       		.uleb128 0xa
 966 06fb 04       		.byte	0x4
 967 06fc 06070000 		.4byte	0x706
 968 0700 0A       		.uleb128 0xa
 969 0701 04       		.byte	0x4
ARM GAS  /tmp/ccY9soYc.s 			page 18


 970 0702 D1060000 		.4byte	0x6d1
 971 0706 0F       		.uleb128 0xf
 972 0707 00070000 		.4byte	0x700
 973 070b 03       		.uleb128 0x3
 974 070c D7000000 		.4byte	.LASF96
 975 0710 0D       		.byte	0xd
 976 0711 59       		.byte	0x59
 977 0712 03       		.byte	0x3
 978 0713 D6060000 		.4byte	0x6d6
 979 0717 0F       		.uleb128 0xf
 980 0718 0B070000 		.4byte	0x70b
 981 071c 17       		.uleb128 0x17
 982 071d AD030000 		.4byte	.LASF97
 983 0721 0D       		.byte	0xd
 984 0722 C9       		.byte	0xc9
 985 0723 11       		.byte	0x11
 986 0724 30000000 		.4byte	0x30
 987 0728 17       		.uleb128 0x17
 988 0729 4C020000 		.4byte	.LASF98
 989 072d 0E       		.byte	0xe
 990 072e 19       		.byte	0x19
 991 072f 1D       		.byte	0x1d
 992 0730 17070000 		.4byte	0x717
 993 0734 18       		.uleb128 0x18
 994 0735 3E020000 		.4byte	0x23e
 995 0739 44070000 		.4byte	0x744
 996 073d 19       		.uleb128 0x19
 997 073e 30000000 		.4byte	0x30
 998 0742 04       		.byte	0x4
 999 0743 00       		.byte	0
 1000 0744 17       		.uleb128 0x17
 1001 0745 A8040000 		.4byte	.LASF99
 1002 0749 0F       		.byte	0xf
 1003 074a 58       		.byte	0x58
 1004 074b 12       		.byte	0x12
 1005 074c 34070000 		.4byte	0x734
 1006 0750 18       		.uleb128 0x18
 1007 0751 2D030000 		.4byte	0x32d
 1008 0755 60070000 		.4byte	0x760
 1009 0759 19       		.uleb128 0x19
 1010 075a 30000000 		.4byte	0x30
 1011 075e 04       		.byte	0x4
 1012 075f 00       		.byte	0
 1013 0760 0F       		.uleb128 0xf
 1014 0761 50070000 		.4byte	0x750
 1015 0765 1A       		.uleb128 0x1a
 1016 0766 776100   		.ascii	"wa\000"
 1017 0769 0F       		.byte	0xf
 1018 076a 59       		.byte	0x59
 1019 076b 18       		.byte	0x18
 1020 076c 60070000 		.4byte	0x760
 1021 0770 1B       		.uleb128 0x1b
 1022 0771 EF030000 		.4byte	.LASF100
 1023 0775 10       		.byte	0x10
 1024 0776 69       		.byte	0x69
 1025 0777 19       		.byte	0x19
 1026 0778 D1060000 		.4byte	0x6d1
ARM GAS  /tmp/ccY9soYc.s 			page 19


 1027 077c 18       		.uleb128 0x18
 1028 077d 06070000 		.4byte	0x706
 1029 0781 8C070000 		.4byte	0x78c
 1030 0785 19       		.uleb128 0x19
 1031 0786 30000000 		.4byte	0x30
 1032 078a 01       		.byte	0x1
 1033 078b 00       		.byte	0
 1034 078c 0F       		.uleb128 0xf
 1035 078d 7C070000 		.4byte	0x77c
 1036 0791 1C       		.uleb128 0x1c
 1037 0792 C3030000 		.4byte	.LASF116
 1038 0796 10       		.byte	0x10
 1039 0797 77       		.byte	0x77
 1040 0798 1A       		.byte	0x1a
 1041 0799 8C070000 		.4byte	0x78c
 1042 079d 1D       		.uleb128 0x1d
 1043 079e 28070000 		.4byte	0x728
 1044 07a2 10       		.byte	0x10
 1045 07a3 7F       		.byte	0x7f
 1046 07a4 16       		.byte	0x16
 1047 07a5 1E       		.uleb128 0x1e
 1048 07a6 F6010000 		.4byte	.LASF101
 1049 07aa 10       		.byte	0x10
 1050 07ab 4B       		.byte	0x4b
 1051 07ac 0D       		.byte	0xd
 1052 07ad D5070000 		.4byte	0x7d5
 1053 07b1 1F       		.uleb128 0x1f
 1054 07b2 747000   		.ascii	"tp\000"
 1055 07b5 10       		.byte	0x10
 1056 07b6 4C       		.byte	0x4c
 1057 07b7 0D       		.byte	0xd
 1058 07b8 3E020000 		.4byte	0x23e
 1059 07bc 1F       		.uleb128 0x1f
 1060 07bd 6D736700 		.ascii	"msg\000"
 1061 07c1 10       		.byte	0x10
 1062 07c2 4D       		.byte	0x4d
 1063 07c3 09       		.byte	0x9
 1064 07c4 12010000 		.4byte	0x112
 1065 07c8 20       		.uleb128 0x20
 1066 07c9 1F       		.uleb128 0x1f
 1067 07ca 6900     		.ascii	"i\000"
 1068 07cc 10       		.byte	0x10
 1069 07cd 5B       		.byte	0x5b
 1070 07ce 0E       		.byte	0xe
 1071 07cf 30000000 		.4byte	0x30
 1072 07d3 00       		.byte	0
 1073 07d4 00       		.byte	0
 1074 07d5 1E       		.uleb128 0x1e
 1075 07d6 77030000 		.4byte	.LASF102
 1076 07da 10       		.byte	0x10
 1077 07db 31       		.byte	0x31
 1078 07dc 08       		.byte	0x8
 1079 07dd EC070000 		.4byte	0x7ec
 1080 07e1 21       		.uleb128 0x21
 1081 07e2 7000     		.ascii	"p\000"
 1082 07e4 10       		.byte	0x10
 1083 07e5 31       		.byte	0x31
ARM GAS  /tmp/ccY9soYc.s 			page 20


 1084 07e6 08       		.byte	0x8
 1085 07e7 2B030000 		.4byte	0x32b
 1086 07eb 00       		.byte	0
 1087 07ec 22       		.uleb128 0x22
 1088 07ed E8010000 		.4byte	.LASF103
 1089 07f1 11       		.byte	0x11
 1090 07f2 B8       		.byte	0xb8
 1091 07f3 15       		.byte	0x15
 1092 07f4 12010000 		.4byte	0x112
 1093 07f8 11080000 		.4byte	0x811
 1094 07fc 21       		.uleb128 0x21
 1095 07fd 747000   		.ascii	"tp\000"
 1096 0800 11       		.byte	0x11
 1097 0801 B8       		.byte	0xb8
 1098 0802 28       		.byte	0x28
 1099 0803 3E020000 		.4byte	0x23e
 1100 0807 23       		.uleb128 0x23
 1101 0808 C1040000 		.4byte	.LASF108
 1102 080c 21080000 		.4byte	0x821
 1103 0810 00       		.byte	0
 1104 0811 18       		.uleb128 0x18
 1105 0812 4A060000 		.4byte	0x64a
 1106 0816 21080000 		.4byte	0x821
 1107 081a 19       		.uleb128 0x19
 1108 081b 30000000 		.4byte	0x30
 1109 081f 08       		.byte	0x8
 1110 0820 00       		.byte	0
 1111 0821 0F       		.uleb128 0xf
 1112 0822 11080000 		.4byte	0x811
 1113 0826 22       		.uleb128 0x22
 1114 0827 7F050000 		.4byte	.LASF104
 1115 082b 11       		.byte	0x11
 1116 082c 59       		.byte	0x59
 1117 082d 19       		.byte	0x19
 1118 082e 3E020000 		.4byte	0x23e
 1119 0832 42080000 		.4byte	0x842
 1120 0836 1F       		.uleb128 0x1f
 1121 0837 747000   		.ascii	"tp\000"
 1122 083a 11       		.byte	0x11
 1123 083b 5A       		.byte	0x5a
 1124 083c 0D       		.byte	0xd
 1125 083d 3E020000 		.4byte	0x23e
 1126 0841 00       		.byte	0
 1127 0842 24       		.uleb128 0x24
 1128 0843 0C040000 		.4byte	.LASF105
 1129 0847 12       		.byte	0x12
 1130 0848 1D01     		.2byte	0x11d
 1131 084a 17       		.byte	0x17
 1132 084b 06010000 		.4byte	0x106
 1133 084f 24       		.uleb128 0x24
 1134 0850 A8050000 		.4byte	.LASF106
 1135 0854 12       		.byte	0x12
 1136 0855 1001     		.2byte	0x110
 1137 0857 19       		.byte	0x19
 1138 0858 3E020000 		.4byte	0x23e
 1139 085c 25       		.uleb128 0x25
 1140 085d DA050000 		.4byte	.LASF107
ARM GAS  /tmp/ccY9soYc.s 			page 21


 1141 0861 13       		.byte	0x13
 1142 0862 6D01     		.2byte	0x16d
 1143 0864 14       		.byte	0x14
 1144 0865 73080000 		.4byte	0x873
 1145 0869 23       		.uleb128 0x23
 1146 086a C1040000 		.4byte	.LASF108
 1147 086e 83080000 		.4byte	0x883
 1148 0872 00       		.byte	0
 1149 0873 18       		.uleb128 0x18
 1150 0874 4A060000 		.4byte	0x64a
 1151 0878 83080000 		.4byte	0x883
 1152 087c 19       		.uleb128 0x19
 1153 087d 30000000 		.4byte	0x30
 1154 0881 0B       		.byte	0xb
 1155 0882 00       		.byte	0
 1156 0883 0F       		.uleb128 0xf
 1157 0884 73080000 		.4byte	0x873
 1158 0888 26       		.uleb128 0x26
 1159 0889 CA040000 		.4byte	.LASF109
 1160 088d 13       		.byte	0x13
 1161 088e 6101     		.2byte	0x161
 1162 0890 14       		.byte	0x14
 1163 0891 26       		.uleb128 0x26
 1164 0892 F5000000 		.4byte	.LASF110
 1165 0896 09       		.byte	0x9
 1166 0897 B502     		.2byte	0x2b5
 1167 0899 1B       		.byte	0x1b
 1168 089a 26       		.uleb128 0x26
 1169 089b 54000000 		.4byte	.LASF111
 1170 089f 09       		.byte	0x9
 1171 08a0 9D02     		.2byte	0x29d
 1172 08a2 1B       		.byte	0x1b
 1173 08a3 27       		.uleb128 0x27
 1174 08a4 58050000 		.4byte	.LASF117
 1175 08a8 14       		.byte	0x14
 1176 08a9 EB01     		.2byte	0x1eb
 1177 08ab 1B       		.byte	0x1b
 1178 08ac 28       		.uleb128 0x28
 1179 08ad E6000000 		.4byte	.LASF112
 1180 08b1 14       		.byte	0x14
 1181 08b2 EB01     		.2byte	0x1eb
 1182 08b4 32       		.byte	0x32
 1183 08b5 BE000000 		.4byte	0xbe
 1184 08b9 00       		.byte	0
 1185 08ba 00       		.byte	0
 1186              		.section	.gnu.debuglto_.debug_abbrev,"e",%progbits
 1187              	.Ldebug_abbrev0:
 1188 0000 01       		.uleb128 0x1
 1189 0001 11       		.uleb128 0x11
 1190 0002 01       		.byte	0x1
 1191 0003 25       		.uleb128 0x25
 1192 0004 0E       		.uleb128 0xe
 1193 0005 13       		.uleb128 0x13
 1194 0006 0B       		.uleb128 0xb
 1195 0007 03       		.uleb128 0x3
 1196 0008 0E       		.uleb128 0xe
 1197 0009 1B       		.uleb128 0x1b
ARM GAS  /tmp/ccY9soYc.s 			page 22


 1198 000a 0E       		.uleb128 0xe
 1199 000b 10       		.uleb128 0x10
 1200 000c 17       		.uleb128 0x17
 1201 000d 00       		.byte	0
 1202 000e 00       		.byte	0
 1203 000f 02       		.uleb128 0x2
 1204 0010 24       		.uleb128 0x24
 1205 0011 00       		.byte	0
 1206 0012 0B       		.uleb128 0xb
 1207 0013 0B       		.uleb128 0xb
 1208 0014 3E       		.uleb128 0x3e
 1209 0015 0B       		.uleb128 0xb
 1210 0016 03       		.uleb128 0x3
 1211 0017 08       		.uleb128 0x8
 1212 0018 00       		.byte	0
 1213 0019 00       		.byte	0
 1214 001a 03       		.uleb128 0x3
 1215 001b 16       		.uleb128 0x16
 1216 001c 00       		.byte	0
 1217 001d 03       		.uleb128 0x3
 1218 001e 0E       		.uleb128 0xe
 1219 001f 3A       		.uleb128 0x3a
 1220 0020 0B       		.uleb128 0xb
 1221 0021 3B       		.uleb128 0x3b
 1222 0022 0B       		.uleb128 0xb
 1223 0023 39       		.uleb128 0x39
 1224 0024 0B       		.uleb128 0xb
 1225 0025 49       		.uleb128 0x49
 1226 0026 13       		.uleb128 0x13
 1227 0027 00       		.byte	0
 1228 0028 00       		.byte	0
 1229 0029 04       		.uleb128 0x4
 1230 002a 24       		.uleb128 0x24
 1231 002b 00       		.byte	0
 1232 002c 0B       		.uleb128 0xb
 1233 002d 0B       		.uleb128 0xb
 1234 002e 3E       		.uleb128 0x3e
 1235 002f 0B       		.uleb128 0xb
 1236 0030 03       		.uleb128 0x3
 1237 0031 0E       		.uleb128 0xe
 1238 0032 00       		.byte	0
 1239 0033 00       		.byte	0
 1240 0034 05       		.uleb128 0x5
 1241 0035 13       		.uleb128 0x13
 1242 0036 01       		.byte	0x1
 1243 0037 03       		.uleb128 0x3
 1244 0038 0E       		.uleb128 0xe
 1245 0039 0B       		.uleb128 0xb
 1246 003a 0B       		.uleb128 0xb
 1247 003b 3A       		.uleb128 0x3a
 1248 003c 0B       		.uleb128 0xb
 1249 003d 3B       		.uleb128 0x3b
 1250 003e 0B       		.uleb128 0xb
 1251 003f 39       		.uleb128 0x39
 1252 0040 0B       		.uleb128 0xb
 1253 0041 01       		.uleb128 0x1
 1254 0042 13       		.uleb128 0x13
ARM GAS  /tmp/ccY9soYc.s 			page 23


 1255 0043 00       		.byte	0
 1256 0044 00       		.byte	0
 1257 0045 06       		.uleb128 0x6
 1258 0046 0D       		.uleb128 0xd
 1259 0047 00       		.byte	0
 1260 0048 03       		.uleb128 0x3
 1261 0049 0E       		.uleb128 0xe
 1262 004a 3A       		.uleb128 0x3a
 1263 004b 0B       		.uleb128 0xb
 1264 004c 3B       		.uleb128 0x3b
 1265 004d 0B       		.uleb128 0xb
 1266 004e 39       		.uleb128 0x39
 1267 004f 0B       		.uleb128 0xb
 1268 0050 49       		.uleb128 0x49
 1269 0051 13       		.uleb128 0x13
 1270 0052 38       		.uleb128 0x38
 1271 0053 0B       		.uleb128 0xb
 1272 0054 00       		.byte	0
 1273 0055 00       		.byte	0
 1274 0056 07       		.uleb128 0x7
 1275 0057 0D       		.uleb128 0xd
 1276 0058 00       		.byte	0
 1277 0059 03       		.uleb128 0x3
 1278 005a 08       		.uleb128 0x8
 1279 005b 3A       		.uleb128 0x3a
 1280 005c 0B       		.uleb128 0xb
 1281 005d 3B       		.uleb128 0x3b
 1282 005e 0B       		.uleb128 0xb
 1283 005f 39       		.uleb128 0x39
 1284 0060 0B       		.uleb128 0xb
 1285 0061 49       		.uleb128 0x49
 1286 0062 13       		.uleb128 0x13
 1287 0063 38       		.uleb128 0x38
 1288 0064 0B       		.uleb128 0xb
 1289 0065 00       		.byte	0
 1290 0066 00       		.byte	0
 1291 0067 08       		.uleb128 0x8
 1292 0068 0D       		.uleb128 0xd
 1293 0069 00       		.byte	0
 1294 006a 03       		.uleb128 0x3
 1295 006b 08       		.uleb128 0x8
 1296 006c 3A       		.uleb128 0x3a
 1297 006d 0B       		.uleb128 0xb
 1298 006e 3B       		.uleb128 0x3b
 1299 006f 05       		.uleb128 0x5
 1300 0070 39       		.uleb128 0x39
 1301 0071 0B       		.uleb128 0xb
 1302 0072 49       		.uleb128 0x49
 1303 0073 13       		.uleb128 0x13
 1304 0074 38       		.uleb128 0x38
 1305 0075 0B       		.uleb128 0xb
 1306 0076 00       		.byte	0
 1307 0077 00       		.byte	0
 1308 0078 09       		.uleb128 0x9
 1309 0079 0D       		.uleb128 0xd
 1310 007a 00       		.byte	0
 1311 007b 03       		.uleb128 0x3
ARM GAS  /tmp/ccY9soYc.s 			page 24


 1312 007c 0E       		.uleb128 0xe
 1313 007d 3A       		.uleb128 0x3a
 1314 007e 0B       		.uleb128 0xb
 1315 007f 3B       		.uleb128 0x3b
 1316 0080 05       		.uleb128 0x5
 1317 0081 39       		.uleb128 0x39
 1318 0082 0B       		.uleb128 0xb
 1319 0083 49       		.uleb128 0x49
 1320 0084 13       		.uleb128 0x13
 1321 0085 38       		.uleb128 0x38
 1322 0086 0B       		.uleb128 0xb
 1323 0087 00       		.byte	0
 1324 0088 00       		.byte	0
 1325 0089 0A       		.uleb128 0xa
 1326 008a 0F       		.uleb128 0xf
 1327 008b 00       		.byte	0
 1328 008c 0B       		.uleb128 0xb
 1329 008d 0B       		.uleb128 0xb
 1330 008e 49       		.uleb128 0x49
 1331 008f 13       		.uleb128 0x13
 1332 0090 00       		.byte	0
 1333 0091 00       		.byte	0
 1334 0092 0B       		.uleb128 0xb
 1335 0093 13       		.uleb128 0x13
 1336 0094 01       		.byte	0x1
 1337 0095 03       		.uleb128 0x3
 1338 0096 0E       		.uleb128 0xe
 1339 0097 0B       		.uleb128 0xb
 1340 0098 0B       		.uleb128 0xb
 1341 0099 3A       		.uleb128 0x3a
 1342 009a 0B       		.uleb128 0xb
 1343 009b 3B       		.uleb128 0x3b
 1344 009c 05       		.uleb128 0x5
 1345 009d 39       		.uleb128 0x39
 1346 009e 0B       		.uleb128 0xb
 1347 009f 01       		.uleb128 0x1
 1348 00a0 13       		.uleb128 0x13
 1349 00a1 00       		.byte	0
 1350 00a2 00       		.byte	0
 1351 00a3 0C       		.uleb128 0xc
 1352 00a4 15       		.uleb128 0x15
 1353 00a5 01       		.byte	0x1
 1354 00a6 27       		.uleb128 0x27
 1355 00a7 19       		.uleb128 0x19
 1356 00a8 01       		.uleb128 0x1
 1357 00a9 13       		.uleb128 0x13
 1358 00aa 00       		.byte	0
 1359 00ab 00       		.byte	0
 1360 00ac 0D       		.uleb128 0xd
 1361 00ad 05       		.uleb128 0x5
 1362 00ae 00       		.byte	0
 1363 00af 49       		.uleb128 0x49
 1364 00b0 13       		.uleb128 0x13
 1365 00b1 00       		.byte	0
 1366 00b2 00       		.byte	0
 1367 00b3 0E       		.uleb128 0xe
 1368 00b4 0F       		.uleb128 0xf
ARM GAS  /tmp/ccY9soYc.s 			page 25


 1369 00b5 00       		.byte	0
 1370 00b6 0B       		.uleb128 0xb
 1371 00b7 0B       		.uleb128 0xb
 1372 00b8 00       		.byte	0
 1373 00b9 00       		.byte	0
 1374 00ba 0F       		.uleb128 0xf
 1375 00bb 26       		.uleb128 0x26
 1376 00bc 00       		.byte	0
 1377 00bd 49       		.uleb128 0x49
 1378 00be 13       		.uleb128 0x13
 1379 00bf 00       		.byte	0
 1380 00c0 00       		.byte	0
 1381 00c1 10       		.uleb128 0x10
 1382 00c2 13       		.uleb128 0x13
 1383 00c3 01       		.byte	0x1
 1384 00c4 0B       		.uleb128 0xb
 1385 00c5 0B       		.uleb128 0xb
 1386 00c6 3A       		.uleb128 0x3a
 1387 00c7 0B       		.uleb128 0xb
 1388 00c8 3B       		.uleb128 0x3b
 1389 00c9 0B       		.uleb128 0xb
 1390 00ca 39       		.uleb128 0x39
 1391 00cb 0B       		.uleb128 0xb
 1392 00cc 01       		.uleb128 0x1
 1393 00cd 13       		.uleb128 0x13
 1394 00ce 00       		.byte	0
 1395 00cf 00       		.byte	0
 1396 00d0 11       		.uleb128 0x11
 1397 00d1 17       		.uleb128 0x17
 1398 00d2 01       		.byte	0x1
 1399 00d3 0B       		.uleb128 0xb
 1400 00d4 0B       		.uleb128 0xb
 1401 00d5 3A       		.uleb128 0x3a
 1402 00d6 0B       		.uleb128 0xb
 1403 00d7 3B       		.uleb128 0x3b
 1404 00d8 0B       		.uleb128 0xb
 1405 00d9 39       		.uleb128 0x39
 1406 00da 0B       		.uleb128 0xb
 1407 00db 01       		.uleb128 0x1
 1408 00dc 13       		.uleb128 0x13
 1409 00dd 00       		.byte	0
 1410 00de 00       		.byte	0
 1411 00df 12       		.uleb128 0x12
 1412 00e0 0D       		.uleb128 0xd
 1413 00e1 00       		.byte	0
 1414 00e2 03       		.uleb128 0x3
 1415 00e3 0E       		.uleb128 0xe
 1416 00e4 3A       		.uleb128 0x3a
 1417 00e5 0B       		.uleb128 0xb
 1418 00e6 3B       		.uleb128 0x3b
 1419 00e7 0B       		.uleb128 0xb
 1420 00e8 39       		.uleb128 0x39
 1421 00e9 0B       		.uleb128 0xb
 1422 00ea 49       		.uleb128 0x49
 1423 00eb 13       		.uleb128 0x13
 1424 00ec 00       		.byte	0
 1425 00ed 00       		.byte	0
ARM GAS  /tmp/ccY9soYc.s 			page 26


 1426 00ee 13       		.uleb128 0x13
 1427 00ef 0D       		.uleb128 0xd
 1428 00f0 00       		.byte	0
 1429 00f1 03       		.uleb128 0x3
 1430 00f2 0E       		.uleb128 0xe
 1431 00f3 3A       		.uleb128 0x3a
 1432 00f4 0B       		.uleb128 0xb
 1433 00f5 3B       		.uleb128 0x3b
 1434 00f6 05       		.uleb128 0x5
 1435 00f7 39       		.uleb128 0x39
 1436 00f8 0B       		.uleb128 0xb
 1437 00f9 49       		.uleb128 0x49
 1438 00fa 13       		.uleb128 0x13
 1439 00fb 00       		.byte	0
 1440 00fc 00       		.byte	0
 1441 00fd 14       		.uleb128 0x14
 1442 00fe 35       		.uleb128 0x35
 1443 00ff 00       		.byte	0
 1444 0100 49       		.uleb128 0x49
 1445 0101 13       		.uleb128 0x13
 1446 0102 00       		.byte	0
 1447 0103 00       		.byte	0
 1448 0104 15       		.uleb128 0x15
 1449 0105 34       		.uleb128 0x34
 1450 0106 00       		.byte	0
 1451 0107 03       		.uleb128 0x3
 1452 0108 08       		.uleb128 0x8
 1453 0109 3A       		.uleb128 0x3a
 1454 010a 0B       		.uleb128 0xb
 1455 010b 3B       		.uleb128 0x3b
 1456 010c 05       		.uleb128 0x5
 1457 010d 39       		.uleb128 0x39
 1458 010e 0B       		.uleb128 0xb
 1459 010f 49       		.uleb128 0x49
 1460 0110 13       		.uleb128 0x13
 1461 0111 3F       		.uleb128 0x3f
 1462 0112 19       		.uleb128 0x19
 1463 0113 3C       		.uleb128 0x3c
 1464 0114 19       		.uleb128 0x19
 1465 0115 00       		.byte	0
 1466 0116 00       		.byte	0
 1467 0117 16       		.uleb128 0x16
 1468 0118 15       		.uleb128 0x15
 1469 0119 00       		.byte	0
 1470 011a 27       		.uleb128 0x27
 1471 011b 19       		.uleb128 0x19
 1472 011c 00       		.byte	0
 1473 011d 00       		.byte	0
 1474 011e 17       		.uleb128 0x17
 1475 011f 34       		.uleb128 0x34
 1476 0120 00       		.byte	0
 1477 0121 03       		.uleb128 0x3
 1478 0122 0E       		.uleb128 0xe
 1479 0123 3A       		.uleb128 0x3a
 1480 0124 0B       		.uleb128 0xb
 1481 0125 3B       		.uleb128 0x3b
 1482 0126 0B       		.uleb128 0xb
ARM GAS  /tmp/ccY9soYc.s 			page 27


 1483 0127 39       		.uleb128 0x39
 1484 0128 0B       		.uleb128 0xb
 1485 0129 49       		.uleb128 0x49
 1486 012a 13       		.uleb128 0x13
 1487 012b 3F       		.uleb128 0x3f
 1488 012c 19       		.uleb128 0x19
 1489 012d 3C       		.uleb128 0x3c
 1490 012e 19       		.uleb128 0x19
 1491 012f 00       		.byte	0
 1492 0130 00       		.byte	0
 1493 0131 18       		.uleb128 0x18
 1494 0132 01       		.uleb128 0x1
 1495 0133 01       		.byte	0x1
 1496 0134 49       		.uleb128 0x49
 1497 0135 13       		.uleb128 0x13
 1498 0136 01       		.uleb128 0x1
 1499 0137 13       		.uleb128 0x13
 1500 0138 00       		.byte	0
 1501 0139 00       		.byte	0
 1502 013a 19       		.uleb128 0x19
 1503 013b 21       		.uleb128 0x21
 1504 013c 00       		.byte	0
 1505 013d 49       		.uleb128 0x49
 1506 013e 13       		.uleb128 0x13
 1507 013f 2F       		.uleb128 0x2f
 1508 0140 0B       		.uleb128 0xb
 1509 0141 00       		.byte	0
 1510 0142 00       		.byte	0
 1511 0143 1A       		.uleb128 0x1a
 1512 0144 34       		.uleb128 0x34
 1513 0145 00       		.byte	0
 1514 0146 03       		.uleb128 0x3
 1515 0147 08       		.uleb128 0x8
 1516 0148 3A       		.uleb128 0x3a
 1517 0149 0B       		.uleb128 0xb
 1518 014a 3B       		.uleb128 0x3b
 1519 014b 0B       		.uleb128 0xb
 1520 014c 39       		.uleb128 0x39
 1521 014d 0B       		.uleb128 0xb
 1522 014e 49       		.uleb128 0x49
 1523 014f 13       		.uleb128 0x13
 1524 0150 3F       		.uleb128 0x3f
 1525 0151 19       		.uleb128 0x19
 1526 0152 3C       		.uleb128 0x3c
 1527 0153 19       		.uleb128 0x19
 1528 0154 00       		.byte	0
 1529 0155 00       		.byte	0
 1530 0156 1B       		.uleb128 0x1b
 1531 0157 34       		.uleb128 0x34
 1532 0158 00       		.byte	0
 1533 0159 03       		.uleb128 0x3
 1534 015a 0E       		.uleb128 0xe
 1535 015b 3A       		.uleb128 0x3a
 1536 015c 0B       		.uleb128 0xb
 1537 015d 3B       		.uleb128 0x3b
 1538 015e 0B       		.uleb128 0xb
 1539 015f 39       		.uleb128 0x39
ARM GAS  /tmp/ccY9soYc.s 			page 28


 1540 0160 0B       		.uleb128 0xb
 1541 0161 49       		.uleb128 0x49
 1542 0162 13       		.uleb128 0x13
 1543 0163 00       		.byte	0
 1544 0164 00       		.byte	0
 1545 0165 1C       		.uleb128 0x1c
 1546 0166 34       		.uleb128 0x34
 1547 0167 00       		.byte	0
 1548 0168 03       		.uleb128 0x3
 1549 0169 0E       		.uleb128 0xe
 1550 016a 3A       		.uleb128 0x3a
 1551 016b 0B       		.uleb128 0xb
 1552 016c 3B       		.uleb128 0x3b
 1553 016d 0B       		.uleb128 0xb
 1554 016e 39       		.uleb128 0x39
 1555 016f 0B       		.uleb128 0xb
 1556 0170 49       		.uleb128 0x49
 1557 0171 13       		.uleb128 0x13
 1558 0172 3F       		.uleb128 0x3f
 1559 0173 19       		.uleb128 0x19
 1560 0174 00       		.byte	0
 1561 0175 00       		.byte	0
 1562 0176 1D       		.uleb128 0x1d
 1563 0177 34       		.uleb128 0x34
 1564 0178 00       		.byte	0
 1565 0179 47       		.uleb128 0x47
 1566 017a 13       		.uleb128 0x13
 1567 017b 3A       		.uleb128 0x3a
 1568 017c 0B       		.uleb128 0xb
 1569 017d 3B       		.uleb128 0x3b
 1570 017e 0B       		.uleb128 0xb
 1571 017f 39       		.uleb128 0x39
 1572 0180 0B       		.uleb128 0xb
 1573 0181 00       		.byte	0
 1574 0182 00       		.byte	0
 1575 0183 1E       		.uleb128 0x1e
 1576 0184 2E       		.uleb128 0x2e
 1577 0185 01       		.byte	0x1
 1578 0186 03       		.uleb128 0x3
 1579 0187 0E       		.uleb128 0xe
 1580 0188 3A       		.uleb128 0x3a
 1581 0189 0B       		.uleb128 0xb
 1582 018a 3B       		.uleb128 0x3b
 1583 018b 0B       		.uleb128 0xb
 1584 018c 39       		.uleb128 0x39
 1585 018d 0B       		.uleb128 0xb
 1586 018e 27       		.uleb128 0x27
 1587 018f 19       		.uleb128 0x19
 1588 0190 01       		.uleb128 0x1
 1589 0191 13       		.uleb128 0x13
 1590 0192 00       		.byte	0
 1591 0193 00       		.byte	0
 1592 0194 1F       		.uleb128 0x1f
 1593 0195 34       		.uleb128 0x34
 1594 0196 00       		.byte	0
 1595 0197 03       		.uleb128 0x3
 1596 0198 08       		.uleb128 0x8
ARM GAS  /tmp/ccY9soYc.s 			page 29


 1597 0199 3A       		.uleb128 0x3a
 1598 019a 0B       		.uleb128 0xb
 1599 019b 3B       		.uleb128 0x3b
 1600 019c 0B       		.uleb128 0xb
 1601 019d 39       		.uleb128 0x39
 1602 019e 0B       		.uleb128 0xb
 1603 019f 49       		.uleb128 0x49
 1604 01a0 13       		.uleb128 0x13
 1605 01a1 00       		.byte	0
 1606 01a2 00       		.byte	0
 1607 01a3 20       		.uleb128 0x20
 1608 01a4 0B       		.uleb128 0xb
 1609 01a5 01       		.byte	0x1
 1610 01a6 00       		.byte	0
 1611 01a7 00       		.byte	0
 1612 01a8 21       		.uleb128 0x21
 1613 01a9 05       		.uleb128 0x5
 1614 01aa 00       		.byte	0
 1615 01ab 03       		.uleb128 0x3
 1616 01ac 08       		.uleb128 0x8
 1617 01ad 3A       		.uleb128 0x3a
 1618 01ae 0B       		.uleb128 0xb
 1619 01af 3B       		.uleb128 0x3b
 1620 01b0 0B       		.uleb128 0xb
 1621 01b1 39       		.uleb128 0x39
 1622 01b2 0B       		.uleb128 0xb
 1623 01b3 49       		.uleb128 0x49
 1624 01b4 13       		.uleb128 0x13
 1625 01b5 00       		.byte	0
 1626 01b6 00       		.byte	0
 1627 01b7 22       		.uleb128 0x22
 1628 01b8 2E       		.uleb128 0x2e
 1629 01b9 01       		.byte	0x1
 1630 01ba 03       		.uleb128 0x3
 1631 01bb 0E       		.uleb128 0xe
 1632 01bc 3A       		.uleb128 0x3a
 1633 01bd 0B       		.uleb128 0xb
 1634 01be 3B       		.uleb128 0x3b
 1635 01bf 0B       		.uleb128 0xb
 1636 01c0 39       		.uleb128 0x39
 1637 01c1 0B       		.uleb128 0xb
 1638 01c2 27       		.uleb128 0x27
 1639 01c3 19       		.uleb128 0x19
 1640 01c4 49       		.uleb128 0x49
 1641 01c5 13       		.uleb128 0x13
 1642 01c6 01       		.uleb128 0x1
 1643 01c7 13       		.uleb128 0x13
 1644 01c8 00       		.byte	0
 1645 01c9 00       		.byte	0
 1646 01ca 23       		.uleb128 0x23
 1647 01cb 34       		.uleb128 0x34
 1648 01cc 00       		.byte	0
 1649 01cd 03       		.uleb128 0x3
 1650 01ce 0E       		.uleb128 0xe
 1651 01cf 49       		.uleb128 0x49
 1652 01d0 13       		.uleb128 0x13
 1653 01d1 34       		.uleb128 0x34
ARM GAS  /tmp/ccY9soYc.s 			page 30


 1654 01d2 19       		.uleb128 0x19
 1655 01d3 00       		.byte	0
 1656 01d4 00       		.byte	0
 1657 01d5 24       		.uleb128 0x24
 1658 01d6 2E       		.uleb128 0x2e
 1659 01d7 00       		.byte	0
 1660 01d8 03       		.uleb128 0x3
 1661 01d9 0E       		.uleb128 0xe
 1662 01da 3A       		.uleb128 0x3a
 1663 01db 0B       		.uleb128 0xb
 1664 01dc 3B       		.uleb128 0x3b
 1665 01dd 05       		.uleb128 0x5
 1666 01de 39       		.uleb128 0x39
 1667 01df 0B       		.uleb128 0xb
 1668 01e0 27       		.uleb128 0x27
 1669 01e1 19       		.uleb128 0x19
 1670 01e2 49       		.uleb128 0x49
 1671 01e3 13       		.uleb128 0x13
 1672 01e4 00       		.byte	0
 1673 01e5 00       		.byte	0
 1674 01e6 25       		.uleb128 0x25
 1675 01e7 2E       		.uleb128 0x2e
 1676 01e8 01       		.byte	0x1
 1677 01e9 03       		.uleb128 0x3
 1678 01ea 0E       		.uleb128 0xe
 1679 01eb 3A       		.uleb128 0x3a
 1680 01ec 0B       		.uleb128 0xb
 1681 01ed 3B       		.uleb128 0x3b
 1682 01ee 05       		.uleb128 0x5
 1683 01ef 39       		.uleb128 0x39
 1684 01f0 0B       		.uleb128 0xb
 1685 01f1 27       		.uleb128 0x27
 1686 01f2 19       		.uleb128 0x19
 1687 01f3 01       		.uleb128 0x1
 1688 01f4 13       		.uleb128 0x13
 1689 01f5 00       		.byte	0
 1690 01f6 00       		.byte	0
 1691 01f7 26       		.uleb128 0x26
 1692 01f8 2E       		.uleb128 0x2e
 1693 01f9 00       		.byte	0
 1694 01fa 03       		.uleb128 0x3
 1695 01fb 0E       		.uleb128 0xe
 1696 01fc 3A       		.uleb128 0x3a
 1697 01fd 0B       		.uleb128 0xb
 1698 01fe 3B       		.uleb128 0x3b
 1699 01ff 05       		.uleb128 0x5
 1700 0200 39       		.uleb128 0x39
 1701 0201 0B       		.uleb128 0xb
 1702 0202 27       		.uleb128 0x27
 1703 0203 19       		.uleb128 0x19
 1704 0204 00       		.byte	0
 1705 0205 00       		.byte	0
 1706 0206 27       		.uleb128 0x27
 1707 0207 2E       		.uleb128 0x2e
 1708 0208 01       		.byte	0x1
 1709 0209 03       		.uleb128 0x3
 1710 020a 0E       		.uleb128 0xe
ARM GAS  /tmp/ccY9soYc.s 			page 31


 1711 020b 3A       		.uleb128 0x3a
 1712 020c 0B       		.uleb128 0xb
 1713 020d 3B       		.uleb128 0x3b
 1714 020e 05       		.uleb128 0x5
 1715 020f 39       		.uleb128 0x39
 1716 0210 0B       		.uleb128 0xb
 1717 0211 27       		.uleb128 0x27
 1718 0212 19       		.uleb128 0x19
 1719 0213 00       		.byte	0
 1720 0214 00       		.byte	0
 1721 0215 28       		.uleb128 0x28
 1722 0216 05       		.uleb128 0x5
 1723 0217 00       		.byte	0
 1724 0218 03       		.uleb128 0x3
 1725 0219 0E       		.uleb128 0xe
 1726 021a 3A       		.uleb128 0x3a
 1727 021b 0B       		.uleb128 0xb
 1728 021c 3B       		.uleb128 0x3b
 1729 021d 05       		.uleb128 0x5
 1730 021e 39       		.uleb128 0x39
 1731 021f 0B       		.uleb128 0xb
 1732 0220 49       		.uleb128 0x49
 1733 0221 13       		.uleb128 0x13
 1734 0222 00       		.byte	0
 1735 0223 00       		.byte	0
 1736 0224 00       		.byte	0
 1737              		.section	.gnu.debuglto_.debug_line,"e",%progbits
 1738              	.Ldebug_line0:
 1739 0000 0C030000 		.4byte	.LELT0-.LSLT0
 1740              	.LSLT0:
 1741 0004 0400     		.2byte	0x4
 1742 0006 06030000 		.4byte	.LELTP0-.LASLTP0
 1743              	.LASLTP0:
 1744 000a 01       		.byte	0x1
 1745 000b 01       		.byte	0x1
 1746 000c 01       		.byte	0x1
 1747 000d F6       		.byte	0xf6
 1748 000e F2       		.byte	0xf2
 1749 000f 0D       		.byte	0xd
 1750 0010 00       		.byte	0
 1751 0011 01       		.byte	0x1
 1752 0012 01       		.byte	0x1
 1753 0013 01       		.byte	0x1
 1754 0014 01       		.byte	0x1
 1755 0015 00       		.byte	0
 1756 0016 00       		.byte	0
 1757 0017 00       		.byte	0
 1758 0018 01       		.byte	0x1
 1759 0019 00       		.byte	0
 1760 001a 00       		.byte	0
 1761 001b 01       		.byte	0x1
 1762 001c 43686962 		.ascii	"ChibiOS_20.3.0/os/common/ext/ARM/CMSIS/Core/Include"
 1762      694F535F 
 1762      32302E33 
 1762      2E302F6F 
 1762      732F636F 
 1763 004f 00       		.byte	0
ARM GAS  /tmp/ccY9soYc.s 			page 32


 1764 0050 43686962 		.ascii	"ChibiOS_20.3.0/os/common/ports/ARMCMx/compilers/GCC"
 1764      694F535F 
 1764      32302E33 
 1764      2E302F6F 
 1764      732F636F 
 1765 0083 00       		.byte	0
 1766 0084 43686962 		.ascii	"ChibiOS_20.3.0/os/common/ports/ARMCMx"
 1766      694F535F 
 1766      32302E33 
 1766      2E302F6F 
 1766      732F636F 
 1767 00a9 00       		.byte	0
 1768 00aa 43686962 		.ascii	"ChibiOS_20.3.0/os/rt/include"
 1768      694F535F 
 1768      32302E33 
 1768      2E302F6F 
 1768      732F7274 
 1769 00c6 00       		.byte	0
 1770 00c7 43686962 		.ascii	"ChibiOS_20.3.0/test/lib"
 1770      694F535F 
 1770      32302E33 
 1770      2E302F74 
 1770      6573742F 
 1771 00de 00       		.byte	0
 1772 00df 43686962 		.ascii	"ChibiOS_20.3.0/test/rt/source/test"
 1772      694F535F 
 1772      32302E33 
 1772      2E302F74 
 1772      6573742F 
 1773 0101 00       		.byte	0
 1774 0102 2F757372 		.ascii	"/usr/share/gcc-arm-none-eabi-10-2020-q4-major/arm-n"
 1774      2F736861 
 1774      72652F67 
 1774      63632D61 
 1774      726D2D6E 
 1775 0135 6F6E652D 		.ascii	"one-eabi/include/machine"
 1775      65616269 
 1775      2F696E63 
 1775      6C756465 
 1775      2F6D6163 
 1776 014d 00       		.byte	0
 1777 014e 2F757372 		.ascii	"/usr/share/gcc-arm-none-eabi-10-2020-q4-major/arm-n"
 1777      2F736861 
 1777      72652F67 
 1777      63632D61 
 1777      726D2D6E 
 1778 0181 6F6E652D 		.ascii	"one-eabi/include/sys"
 1778      65616269 
 1778      2F696E63 
 1778      6C756465 
 1778      2F737973 
 1779 0195 00       		.byte	0
 1780 0196 2F757372 		.ascii	"/usr/share/gcc-arm-none-eabi-10-2020-q4-major/lib/g"
 1780      2F736861 
 1780      72652F67 
 1780      63632D61 
 1780      726D2D6E 
ARM GAS  /tmp/ccY9soYc.s 			page 33


 1781 01c9 63632F61 		.ascii	"cc/arm-none-eabi/10.2.1/include"
 1781      726D2D6E 
 1781      6F6E652D 
 1781      65616269 
 1781      2F31302E 
 1782 01e8 00       		.byte	0
 1783 01e9 00       		.byte	0
 1784 01ea 73746464 		.ascii	"stddef.h\000"
 1784      65662E68 
 1784      00
 1785 01f3 09       		.uleb128 0x9
 1786 01f4 00       		.uleb128 0
 1787 01f5 00       		.uleb128 0
 1788 01f6 5F646566 		.ascii	"_default_types.h\000"
 1788      61756C74 
 1788      5F747970 
 1788      65732E68 
 1788      00
 1789 0207 07       		.uleb128 0x7
 1790 0208 00       		.uleb128 0
 1791 0209 00       		.uleb128 0
 1792 020a 5F737464 		.ascii	"_stdint.h\000"
 1792      696E742E 
 1792      6800
 1793 0214 08       		.uleb128 0x8
 1794 0215 00       		.uleb128 0
 1795 0216 00       		.uleb128 0
 1796 0217 63687479 		.ascii	"chtypes.h\000"
 1796      7065732E 
 1796      6800
 1797 0221 02       		.uleb128 0x2
 1798 0222 00       		.uleb128 0
 1799 0223 00       		.uleb128 0
 1800 0224 63687379 		.ascii	"chsystypes.h\000"
 1800      73747970 
 1800      65732E68 
 1800      00
 1801 0231 04       		.uleb128 0x4
 1802 0232 00       		.uleb128 0
 1803 0233 00       		.uleb128 0
 1804 0234 63687363 		.ascii	"chschd.h\000"
 1804      68642E68 
 1804      00
 1805 023d 04       		.uleb128 0x4
 1806 023e 00       		.uleb128 0
 1807 023f 00       		.uleb128 0
 1808 0240 63687469 		.ascii	"chtime.h\000"
 1808      6D652E68 
 1808      00
 1809 0249 04       		.uleb128 0x4
 1810 024a 00       		.uleb128 0
 1811 024b 00       		.uleb128 0
 1812 024c 6368636F 		.ascii	"chcore.h\000"
 1812      72652E68 
 1812      00
 1813 0255 03       		.uleb128 0x3
 1814 0256 00       		.uleb128 0
ARM GAS  /tmp/ccY9soYc.s 			page 34


 1815 0257 00       		.uleb128 0
 1816 0258 6368636F 		.ascii	"chcore_v7m.h\000"
 1816      72655F76 
 1816      376D2E68 
 1816      00
 1817 0265 03       		.uleb128 0x3
 1818 0266 00       		.uleb128 0
 1819 0267 00       		.uleb128 0
 1820 0268 6368746D 		.ascii	"chtm.h\000"
 1820      2E6800
 1821 026f 04       		.uleb128 0x4
 1822 0270 00       		.uleb128 0
 1823 0271 00       		.uleb128 0
 1824 0272 63687365 		.ascii	"chsem.h\000"
 1824      6D2E6800 
 1825 027a 04       		.uleb128 0x4
 1826 027b 00       		.uleb128 0
 1827 027c 00       		.uleb128 0
 1828 027d 63686D74 		.ascii	"chmtx.h\000"
 1828      782E6800 
 1829 0285 04       		.uleb128 0x4
 1830 0286 00       		.uleb128 0
 1831 0287 00       		.uleb128 0
 1832 0288 63685F74 		.ascii	"ch_test.h\000"
 1832      6573742E 
 1832      6800
 1833 0292 05       		.uleb128 0x5
 1834 0293 00       		.uleb128 0
 1835 0294 00       		.uleb128 0
 1836 0295 72745F74 		.ascii	"rt_test_sequence_008.h\000"
 1836      6573745F 
 1836      73657175 
 1836      656E6365 
 1836      5F303038 
 1837 02ac 06       		.uleb128 0x6
 1838 02ad 00       		.uleb128 0
 1839 02ae 00       		.uleb128 0
 1840 02af 72745F74 		.ascii	"rt_test_root.h\000"
 1840      6573745F 
 1840      726F6F74 
 1840      2E6800
 1841 02be 06       		.uleb128 0x6
 1842 02bf 00       		.uleb128 0
 1843 02c0 00       		.uleb128 0
 1844 02c1 72745F74 		.ascii	"rt_test_sequence_008.c\000"
 1844      6573745F 
 1844      73657175 
 1844      656E6365 
 1844      5F303038 
 1845 02d8 06       		.uleb128 0x6
 1846 02d9 00       		.uleb128 0
 1847 02da 00       		.uleb128 0
 1848 02db 63686D73 		.ascii	"chmsg.h\000"
 1848      672E6800 
 1849 02e3 04       		.uleb128 0x4
 1850 02e4 00       		.uleb128 0
 1851 02e5 00       		.uleb128 0
ARM GAS  /tmp/ccY9soYc.s 			page 35


 1852 02e6 63687468 		.ascii	"chthreads.h\000"
 1852      72656164 
 1852      732E6800 
 1853 02f2 04       		.uleb128 0x4
 1854 02f3 00       		.uleb128 0
 1855 02f4 00       		.uleb128 0
 1856 02f5 63687379 		.ascii	"chsys.h\000"
 1856      732E6800 
 1857 02fd 04       		.uleb128 0x4
 1858 02fe 00       		.uleb128 0
 1859 02ff 00       		.uleb128 0
 1860 0300 636D7369 		.ascii	"cmsis_gcc.h\000"
 1860      735F6763 
 1860      632E6800 
 1861 030c 01       		.uleb128 0x1
 1862 030d 00       		.uleb128 0
 1863 030e 00       		.uleb128 0
 1864 030f 00       		.byte	0
 1865              	.LELTP0:
 1866              	.LELT0:
 1867              		.section	.gnu.debuglto_.debug_str,"eMS",%progbits,1
 1868              	.LASF51:
 1869 0000 72656164 		.ascii	"ready_list_t\000"
 1869      795F6C69 
 1869      73745F74 
 1869      00
 1870              	.LASF4:
 1871 000d 73697A65 		.ascii	"size_t\000"
 1871      5F7400
 1872              	.LASF57:
 1873 0014 64656C74 		.ascii	"delta\000"
 1873      6100
 1874              	.LASF77:
 1875 001a 7264796D 		.ascii	"rdymsg\000"
 1875      736700
 1876              	.LASF18:
 1877 0021 75696E74 		.ascii	"uint64_t\000"
 1877      36345F74 
 1877      00
 1878              	.LASF5:
 1879 002a 5F5F7569 		.ascii	"__uint8_t\000"
 1879      6E74385F 
 1879      7400
 1880              	.LASF50:
 1881 0034 70726576 		.ascii	"prev\000"
 1881      00
 1882              	.LASF73:
 1883 0039 706F7274 		.ascii	"port_intctx\000"
 1883      5F696E74 
 1883      63747800 
 1884              	.LASF62:
 1885 0045 73797374 		.ascii	"system_debug_t\000"
 1885      656D5F64 
 1885      65627567 
 1885      5F7400
 1886              	.LASF111:
 1887 0054 706F7274 		.ascii	"port_lock\000"
ARM GAS  /tmp/ccY9soYc.s 			page 36


 1887      5F6C6F63 
 1887      6B00
 1888              	.LASF14:
 1889 005e 6C6F6E67 		.ascii	"long long unsigned int\000"
 1889      206C6F6E 
 1889      6720756E 
 1889      7369676E 
 1889      65642069 
 1890              	.LASF78:
 1891 0075 65786974 		.ascii	"exitcode\000"
 1891      636F6465 
 1891      00
 1892              	.LASF69:
 1893 007e 6D61696E 		.ascii	"mainthread\000"
 1893      74687265 
 1893      616400
 1894              	.LASF81:
 1895 0089 73656E74 		.ascii	"sentmsg\000"
 1895      6D736700 
 1896              	.LASF59:
 1897 0091 76697274 		.ascii	"virtual_timers_list_t\000"
 1897      75616C5F 
 1897      74696D65 
 1897      72735F6C 
 1897      6973745F 
 1898              	.LASF47:
 1899 00a7 6E657874 		.ascii	"next\000"
 1899      00
 1900              	.LASF49:
 1901 00ac 63685F74 		.ascii	"ch_threads_queue\000"
 1901      68726561 
 1901      64735F71 
 1901      75657565 
 1901      00
 1902              	.LASF1:
 1903 00bd 6C6F6E67 		.ascii	"long long int\000"
 1903      206C6F6E 
 1903      6720696E 
 1903      7400
 1904              	.LASF3:
 1905 00cb 7369676E 		.ascii	"signed char\000"
 1905      65642063 
 1905      68617200 
 1906              	.LASF96:
 1907 00d7 74657374 		.ascii	"testsequence_t\000"
 1907      73657175 
 1907      656E6365 
 1907      5F7400
 1908              	.LASF112:
 1909 00e6 62617365 		.ascii	"basePri\000"
 1909      50726900 
 1910              	.LASF68:
 1911 00ee 76746C69 		.ascii	"vtlist\000"
 1911      737400
 1912              	.LASF110:
 1913 00f5 706F7274 		.ascii	"port_unlock\000"
 1913      5F756E6C 
ARM GAS  /tmp/ccY9soYc.s 			page 37


 1913      6F636B00 
 1914              	.LASF38:
 1915 0101 6D736771 		.ascii	"msgqueue\000"
 1915      75657565 
 1915      00
 1916              	.LASF34:
 1917 010a 73746174 		.ascii	"state\000"
 1917      6500
 1918              	.LASF10:
 1919 0110 6C6F6E67 		.ascii	"long int\000"
 1919      20696E74 
 1919      00
 1920              	.LASF114:
 1921 0119 2E2F4368 		.ascii	"./ChibiOS_20.3.0/test/rt/source/test/rt_test_sequen"
 1921      6962694F 
 1921      535F3230 
 1921      2E332E30 
 1921      2F746573 
 1922 014c 63655F30 		.ascii	"ce_008.c\000"
 1922      30382E63 
 1922      00
 1923              	.LASF21:
 1924 0155 74737461 		.ascii	"tstate_t\000"
 1924      74655F74 
 1924      00
 1925              	.LASF58:
 1926 015e 66756E63 		.ascii	"func\000"
 1926      00
 1927              	.LASF28:
 1928 0163 71756575 		.ascii	"queue\000"
 1928      6500
 1929              	.LASF11:
 1930 0169 5F5F7569 		.ascii	"__uint32_t\000"
 1930      6E743332 
 1930      5F7400
 1931              	.LASF115:
 1932 0174 2F686F6D 		.ascii	"/home/iamprithvishetty/CDSpace/mmc3416_test2\000"
 1932      652F6961 
 1932      6D707269 
 1932      74687669 
 1932      73686574 
 1933              	.LASF37:
 1934 01a1 77616974 		.ascii	"waiting\000"
 1934      696E6700 
 1935              	.LASF89:
 1936 01a9 6D757465 		.ascii	"mutex_t\000"
 1936      785F7400 
 1937              	.LASF71:
 1938 01b1 73797369 		.ascii	"sysinterval_t\000"
 1938      6E746572 
 1938      76616C5F 
 1938      7400
 1939              	.LASF26:
 1940 01bf 636E745F 		.ascii	"cnt_t\000"
 1940      7400
 1941              	.LASF0:
 1942 01c5 756E7369 		.ascii	"unsigned int\000"
ARM GAS  /tmp/ccY9soYc.s 			page 38


 1942      676E6564 
 1942      20696E74 
 1942      00
 1943              	.LASF82:
 1944 01d2 77747365 		.ascii	"wtsemp\000"
 1944      6D7000
 1945              	.LASF80:
 1946 01d9 77747472 		.ascii	"wttrp\000"
 1946      7000
 1947              	.LASF92:
 1948 01df 74656172 		.ascii	"teardown\000"
 1948      646F776E 
 1948      00
 1949              	.LASF103:
 1950 01e8 63684D73 		.ascii	"chMsgGet\000"
 1950      67476574 
 1950      00
 1951              	.LASF32:
 1952 01f1 6E616D65 		.ascii	"name\000"
 1952      00
 1953              	.LASF101:
 1954 01f6 72745F74 		.ascii	"rt_test_008_001_execute\000"
 1954      6573745F 
 1954      3030385F 
 1954      3030315F 
 1954      65786563 
 1955              	.LASF42:
 1956 020e 6D706F6F 		.ascii	"mpool\000"
 1956      6C00
 1957              	.LASF8:
 1958 0214 73686F72 		.ascii	"short unsigned int\000"
 1958      7420756E 
 1958      7369676E 
 1958      65642069 
 1958      6E7400
 1959              	.LASF45:
 1960 0227 63685F74 		.ascii	"ch_thread\000"
 1960      68726561 
 1960      6400
 1961              	.LASF24:
 1962 0231 6D73675F 		.ascii	"msg_t\000"
 1962      7400
 1963              	.LASF39:
 1964 0237 6570656E 		.ascii	"epending\000"
 1964      64696E67 
 1964      00
 1965              	.LASF65:
 1966 0240 63685F73 		.ascii	"ch_system_t\000"
 1966      79737465 
 1966      6D5F7400 
 1967              	.LASF98:
 1968 024c 72745F74 		.ascii	"rt_test_sequence_008\000"
 1968      6573745F 
 1968      73657175 
 1968      656E6365 
 1968      5F303038 
 1969              	.LASF20:
ARM GAS  /tmp/ccY9soYc.s 			page 39


 1970 0261 746D6F64 		.ascii	"tmode_t\000"
 1970      655F7400 
 1971              	.LASF52:
 1972 0269 63685F72 		.ascii	"ch_ready_list\000"
 1972      65616479 
 1972      5F6C6973 
 1972      7400
 1973              	.LASF25:
 1974 0277 6576656E 		.ascii	"eventmask_t\000"
 1974      746D6173 
 1974      6B5F7400 
 1975              	.LASF113:
 1976 0283 474E5520 		.ascii	"GNU C17 10.2.1 20201103 (release) -mcpu=cortex-m4 -"
 1976      43313720 
 1976      31302E32 
 1976      2E312032 
 1976      30323031 
 1977 02b6 6D746875 		.ascii	"mthumb -mfloat-abi=soft -march=armv7e-m -ggdb -O2 -"
 1977      6D62202D 
 1977      6D666C6F 
 1977      61742D61 
 1977      62693D73 
 1978 02e9 666F6D69 		.ascii	"fomit-frame-pointer -falign-functions=16 -ffunction"
 1978      742D6672 
 1978      616D652D 
 1978      706F696E 
 1978      74657220 
 1979 031c 2D736563 		.ascii	"-sections -fdata-sections -fno-common -flto\000"
 1979      74696F6E 
 1979      73202D66 
 1979      64617461 
 1979      2D736563 
 1980              	.LASF9:
 1981 0348 5F5F696E 		.ascii	"__int32_t\000"
 1981      7433325F 
 1981      7400
 1982              	.LASF72:
 1983 0352 73746B61 		.ascii	"stkalign_t\000"
 1983      6C69676E 
 1983      5F7400
 1984              	.LASF94:
 1985 035d 74657374 		.ascii	"testcase_t\000"
 1985      63617365 
 1985      5F7400
 1986              	.LASF30:
 1987 0368 6E657765 		.ascii	"newer\000"
 1987      7200
 1988              	.LASF41:
 1989 036e 7265616C 		.ascii	"realprio\000"
 1989      7072696F 
 1989      00
 1990              	.LASF102:
 1991 0377 6D73675F 		.ascii	"msg_thread1\000"
 1991      74687265 
 1991      61643100 
 1992              	.LASF43:
 1993 0383 74687265 		.ascii	"thread_reference_t\000"
ARM GAS  /tmp/ccY9soYc.s 			page 40


 1993      61645F72 
 1993      65666572 
 1993      656E6365 
 1993      5F7400
 1994              	.LASF60:
 1995 0396 63685F76 		.ascii	"ch_virtual_timers_list\000"
 1995      69727475 
 1995      616C5F74 
 1995      696D6572 
 1995      735F6C69 
 1996              	.LASF97:
 1997 03ad 74657374 		.ascii	"test_step\000"
 1997      5F737465 
 1997      7000
 1998              	.LASF2:
 1999 03b7 6C6F6E67 		.ascii	"long double\000"
 1999      20646F75 
 1999      626C6500 
 2000              	.LASF116:
 2001 03c3 72745F74 		.ascii	"rt_test_sequence_008_array\000"
 2001      6573745F 
 2001      73657175 
 2001      656E6365 
 2001      5F303038 
 2002              	.LASF76:
 2003 03de 746D5F63 		.ascii	"tm_calibration_t\000"
 2003      616C6962 
 2003      72617469 
 2003      6F6E5F74 
 2003      00
 2004              	.LASF100:
 2005 03ef 72745F74 		.ascii	"rt_test_008_001\000"
 2005      6573745F 
 2005      3030385F 
 2005      30303100 
 2006              	.LASF74:
 2007 03ff 706F7274 		.ascii	"port_context\000"
 2007      5F636F6E 
 2007      74657874 
 2007      00
 2008              	.LASF105:
 2009 040c 63685468 		.ascii	"chThdGetPriorityX\000"
 2009      64476574 
 2009      5072696F 
 2009      72697479 
 2009      5800
 2010              	.LASF91:
 2011 041e 73657475 		.ascii	"setup\000"
 2011      7000
 2012              	.LASF29:
 2013 0424 7072696F 		.ascii	"prio\000"
 2013      00
 2014              	.LASF53:
 2015 0429 63757272 		.ascii	"current\000"
 2015      656E7400 
 2016              	.LASF13:
 2017 0431 5F5F7569 		.ascii	"__uint64_t\000"
ARM GAS  /tmp/ccY9soYc.s 			page 41


 2017      6E743634 
 2017      5F7400
 2018              	.LASF22:
 2019 043c 74726566 		.ascii	"trefs_t\000"
 2019      735F7400 
 2020              	.LASF36:
 2021 0444 72656673 		.ascii	"refs\000"
 2021      00
 2022              	.LASF55:
 2023 0449 76697274 		.ascii	"virtual_timer_t\000"
 2023      75616C5F 
 2023      74696D65 
 2023      725F7400 
 2024              	.LASF93:
 2025 0459 65786563 		.ascii	"execute\000"
 2025      75746500 
 2026              	.LASF23:
 2027 0461 74707269 		.ascii	"tprio_t\000"
 2027      6F5F7400 
 2028              	.LASF63:
 2029 0469 63685F73 		.ascii	"ch_system_debug\000"
 2029      79737465 
 2029      6D5F6465 
 2029      62756700 
 2030              	.LASF90:
 2031 0479 5F426F6F 		.ascii	"_Bool\000"
 2031      6C00
 2032              	.LASF16:
 2033 047f 696E7433 		.ascii	"int32_t\000"
 2033      325F7400 
 2034              	.LASF6:
 2035 0487 756E7369 		.ascii	"unsigned char\000"
 2035      676E6564 
 2035      20636861 
 2035      7200
 2036              	.LASF7:
 2037 0495 73686F72 		.ascii	"short int\000"
 2037      7420696E 
 2037      7400
 2038              	.LASF61:
 2039 049f 6C617374 		.ascii	"lasttime\000"
 2039      74696D65 
 2039      00
 2040              	.LASF99:
 2041 04a8 74687265 		.ascii	"threads\000"
 2041      61647300 
 2042              	.LASF84:
 2043 04b0 65776D61 		.ascii	"ewmask\000"
 2043      736B00
 2044              	.LASF66:
 2045 04b7 63685F73 		.ascii	"ch_system\000"
 2045      79737465 
 2045      6D00
 2046              	.LASF108:
 2047 04c1 5F5F6675 		.ascii	"__func__\000"
 2047      6E635F5F 
 2047      00
ARM GAS  /tmp/ccY9soYc.s 			page 42


 2048              	.LASF109:
 2049 04ca 63685379 		.ascii	"chSysLock\000"
 2049      734C6F63 
 2049      6B00
 2050              	.LASF56:
 2051 04d4 63685F76 		.ascii	"ch_virtual_timer\000"
 2051      69727475 
 2051      616C5F74 
 2051      696D6572 
 2051      00
 2052              	.LASF85:
 2053 04e5 63685F73 		.ascii	"ch_semaphore\000"
 2053      656D6170 
 2053      686F7265 
 2053      00
 2054              	.LASF17:
 2055 04f2 75696E74 		.ascii	"uint32_t\000"
 2055      33325F74 
 2055      00
 2056              	.LASF83:
 2057 04fb 77746D74 		.ascii	"wtmtxp\000"
 2057      787000
 2058              	.LASF46:
 2059 0502 63685F74 		.ascii	"ch_threads_list\000"
 2059      68726561 
 2059      64735F6C 
 2059      69737400 
 2060              	.LASF87:
 2061 0512 6F776E65 		.ascii	"owner\000"
 2061      7200
 2062              	.LASF12:
 2063 0518 6C6F6E67 		.ascii	"long unsigned int\000"
 2063      20756E73 
 2063      69676E65 
 2063      6420696E 
 2063      7400
 2064              	.LASF33:
 2065 052a 77616261 		.ascii	"wabase\000"
 2065      736500
 2066              	.LASF88:
 2067 0531 63686172 		.ascii	"char\000"
 2067      00
 2068              	.LASF31:
 2069 0536 6F6C6465 		.ascii	"older\000"
 2069      7200
 2070              	.LASF27:
 2071 053c 74687265 		.ascii	"thread_t\000"
 2071      61645F74 
 2071      00
 2072              	.LASF70:
 2073 0545 73797374 		.ascii	"systime_t\000"
 2073      696D655F 
 2073      7400
 2074              	.LASF54:
 2075 054f 76746675 		.ascii	"vtfunc_t\000"
 2075      6E635F74 
 2075      00
ARM GAS  /tmp/ccY9soYc.s 			page 43


 2076              	.LASF117:
 2077 0558 5F5F7365 		.ascii	"__set_BASEPRI\000"
 2077      745F4241 
 2077      53455052 
 2077      4900
 2078              	.LASF64:
 2079 0566 70616E69 		.ascii	"panic_msg\000"
 2079      635F6D73 
 2079      6700
 2080              	.LASF75:
 2081 0570 6F666673 		.ascii	"offset\000"
 2081      657400
 2082              	.LASF19:
 2083 0577 7274636E 		.ascii	"rtcnt_t\000"
 2083      745F7400 
 2084              	.LASF104:
 2085 057f 63684D73 		.ascii	"chMsgWait\000"
 2085      67576169 
 2085      7400
 2086              	.LASF48:
 2087 0589 74687265 		.ascii	"threads_queue_t\000"
 2087      6164735F 
 2087      71756575 
 2087      655F7400 
 2088              	.LASF86:
 2089 0599 63685F6D 		.ascii	"ch_mutex\000"
 2089      75746578 
 2089      00
 2090              	.LASF67:
 2091 05a2 726C6973 		.ascii	"rlist\000"
 2091      7400
 2092              	.LASF106:
 2093 05a8 63685468 		.ascii	"chThdGetSelfX\000"
 2093      64476574 
 2093      53656C66 
 2093      5800
 2094              	.LASF15:
 2095 05b6 75696E74 		.ascii	"uint8_t\000"
 2095      385F7400 
 2096              	.LASF35:
 2097 05be 666C6167 		.ascii	"flags\000"
 2097      7300
 2098              	.LASF79:
 2099 05c4 77746F62 		.ascii	"wtobjp\000"
 2099      6A7000
 2100              	.LASF44:
 2101 05cb 74687265 		.ascii	"threads_list_t\000"
 2101      6164735F 
 2101      6C697374 
 2101      5F7400
 2102              	.LASF107:
 2103 05da 63685379 		.ascii	"chSysUnlock\000"
 2103      73556E6C 
 2103      6F636B00 
 2104              	.LASF40:
 2105 05e6 6D74786C 		.ascii	"mtxlist\000"
 2105      69737400 
ARM GAS  /tmp/ccY9soYc.s 			page 44


 2106              	.LASF95:
 2107 05ee 63617365 		.ascii	"cases\000"
 2107      7300
 2108              		.text
 2109              		.section	.gnu.lto_.profile.50336c8481b5a641,"e",%progbits
 2110 0000 789C6362 		.ascii	"x\234cb\000\001\000\000\022\000\003"
 2110      00010000 
 2110      120003
 2111              		.text
 2112              		.section	.gnu.lto_.icf.50336c8481b5a641,"e",%progbits
 2113 0000 789C9367 		.ascii	"x\234\223g@\000V\206g\027\316\364\3611~\332\260N\204"
 2113      40005686 
 2113      6717CEF4 
 2113      F1317EDA 
 2113      B04E84
 2114 0013 6DCAFA53 		.ascii	"m\312\372S\2779\331W\277\237\264\201\215\343\355\323"
 2114      BF39D957 
 2114      BF9FB481 
 2114      8DE3EDD3 
 2115 0023 39D3F918 		.ascii	"9\323\371\030\000\360w\016\303"
 2115      00F0770E 
 2115      C3
 2116              		.text
 2117              		.section	.gnu.lto_.ipa_sra.50336c8481b5a641,"e",%progbits
 2118 0000 789C7361 		.ascii	"x\234sa@\000&\006F \311\312\310\304\330\300\002\021"
 2118      40002606 
 2118      4620C9CA 
 2118      C8C4D8C0 
 2118      0211
 2119 0012 21CC6464 		.ascii	"!\314dd@@\020\000\000p#\002t"
 2119      40401000 
 2119      00702302 
 2119      74
 2120              		.text
 2121              		.section	.gnu.lto_.inline.50336c8481b5a641,"e",%progbits
 2122 0000 789C9BC7 		.ascii	"x\234\233\307\200\000L\014\014\374\015\015\015\023\230"
 2122      80004C0C 
 2122      0CFC0D0D 
 2122      0D1398
 2123 000f 331841EC 		.ascii	"3\030A\354F \273\216\201\201\015H50\2450\201\204\030"
 2123      4620BB8E 
 2123      81810D48 
 2123      3530A530 
 2123      818418
 2124 0022 987940EA 		.ascii	"\230y@\352&\370\341c02(}\373\377\177!s\026\320\024\251"
 2124      26F8E163 
 2124      3032287D 
 2124      FBFF7F21 
 2124      7316D014 
 2125 0037 5FFFFFB7 		.ascii	"_\377\377\2673e`5\205\201\201\221\013l-7#\2209\301\217"
 2125      33656035 
 2125      85818191 
 2125      0B6C2D37 
 2125      239039C1 
 2126 004c 9987116C 		.ascii	"\231\207\021l\300\004?\260\010\003\273\000\220`\005"
 2126      C0043FB0 
 2126      0803BB00 
ARM GAS  /tmp/ccY9soYc.s 			page 45


 2126      906005
 2127 005b 1A084100 		.ascii	"\032\010A\000\207\201\034\017"
 2127      87811C0F 
 2128              		.text
 2129              		.section	.gnu.lto_.jmpfuncs.50336c8481b5a641,"e",%progbits
 2130 0000 789C858F 		.ascii	"x\234\205\217M\012\3020\020\205\347e\322*n\304\235K"
 2130      4D0AC230 
 2130      1085E765 
 2130      D22A6EC4 
 2130      9D4B
 2131 0012 7B147F2E 		.ascii	"{\024\177.\"\232EA\012\"\272\264;\017\240{W\275\204"
 2131      229A4541 
 2131      0A22BAB4 
 2131      3B0FA07B 
 2131      57BD84
 2132 0025 AEECCFA2 		.ascii	"\256\354\317\242\207\0224\351\240\205Pt \204y\371&\357"
 2132      871234E9 
 2132      A0855074 
 2132      208479F9 
 2132      26EF
 2133 0037 CD054463 		.ascii	"\315\005Dc\222R\004@gLZ\037m\213\207\006\331\363\262"
 2133      92520440 
 2133      674C5A1F 
 2133      6D8B8706 
 2133      D9F3B2
 2134 004a 352475E6 		.ascii	"5$u\346\214\201J\364\312=\320/\260\024\275\374\013\026"
 2134      8C814AF4 
 2134      CA3DD02F 
 2134      B014BDFC 
 2134      0B16
 2135 005c A2172D88 		.ascii	"\242\027-\210n0\0270\027\320\261\034\341\324\317X}\371"
 2135      6E301730 
 2135      17D0B11C 
 2135      E1D4CF58 
 2135      7DF9
 2136 006e A7E3D1F0 		.ascii	"\247\343\321\360v@\256\346\017\216z\216\324>\211\033"
 2136      7640AEE6 
 2136      0F8E7A8E 
 2136      D43E891B 
 2137 007e 7087DDBC 		.ascii	"p\207\335\274\265\004i?i\333\247D\203\316=\002\324\022"
 2137      B504693F 
 2137      69DBA744 
 2137      83CE3D02 
 2137      D412
 2138 0090 A3564D3C 		.ascii	"\243VM<\037\342+{\222\304\014%f\370q\362\214\203\351"
 2138      1FE22B7B 
 2138      92C40C25 
 2138      66F871F2 
 2138      8C83E9
 2139 00a3 6CBEA051 		.ascii	"l\276\240Q\234\034\226\233x=\331\231\355\336$+Co\327"
 2139      9C1C969B 
 2139      783DD999 
 2139      EDDE242B 
 2139      436FD7
 2140 00b6 7974B1   		.ascii	"yt\261"
 2141              		.text
 2142              		.section	.gnu.lto_.pureconst.50336c8481b5a641,"e",%progbits
ARM GAS  /tmp/ccY9soYc.s 			page 46


 2143 0000 789C6367 		.ascii	"x\234cg```b\230\301\302\270\213\025\000\004\352\001"
 2143      60606062 
 2143      98C1C2B8 
 2143      8B150004 
 2143      EA01
 2144 0012 66       		.ascii	"f"
 2145              		.text
 2146              		.section	.gnu.lto_.lto.50336c8481b5a641,"e",%progbits
 2147 0000 09000200 		.ascii	"\011\000\002\000\001\000\000\000"
 2147      01000000 
 2148              		.text
 2149              		.section	.gnu.lto_msg_thread1.352.50336c8481b5a641,"e",%progbits
 2150 0000 789C7D90 		.ascii	"x\234}\220\273J\003A\024\206\317\231\331D,\304W\010"
 2150      BB4A0341 
 2150      1486CF99 
 2150      D9442CC4 
 2150      5708
 2151 0012 5888853B 		.ascii	"X\210\205;c\"\301\302B\210`i\221\007X\342f`\267X\023"
 2151      6322C1C2 
 2151      42886069 
 2151      910758E2 
 2151      6660B758 
 2152 0027 B31BC12A 		.ascii	"\263\033\301*\0231M\232\\\354$\244\220-\354\254\274"
 2152      13314D9A 
 2152      5CEC24A4 
 2152      902DECAC 
 2152      BC
 2153 0038 75EBE509 		.ascii	"u\353\345\011l\024\021\274`\243 \212\225\205\240\263"
 2153      6C1411BC 
 2153      60A3208A 
 2153      9585A0B3 
 2154 0048 6B8C8D66 		.ascii	"k\214\215f\340\300\371\377\371\316\234\237Y@\200\006"
 2154      E0C0F9FF 
 2154      F9CE9C9F 
 2154      59408006 
 2155 0058 008CA942 		.ascii	"\000\214\251B\012\330n\325\011H)\347\206\010V[\365a"
 2155      0AD86ED5 
 2155      094829E7 
 2155      8608565B 
 2155      F561
 2156 006a 3CC24821 		.ascii	"<\302H!T\010Vp\223N(\371^\333z\344r'@\237\002tUE\247"
 2156      54085670 
 2156      934E28F9 
 2156      5EDB7AE4 
 2156      7227409F 
 2157 0083 43B14D7D 		.ascii	"C\261M}\212\250\365:\202\011\325Q\007\306\003)\233\035"
 2157      8AA8F53A 
 2157      8209D551 
 2157      07C60329 
 2157      9B1D
 2158 0095 19683EA5 		.ascii	"\031h>\245x\200j\002\367\021\367\324je\024\356F\001"
 2158      78806A02 
 2158      F711F7D4 
 2158      6A6514EE 
 2158      4601
 2159 00a7 E23FEF28 		.ascii	"\342?\357(\017v\317c\201\374\370lH\371\374\200/D%\301"
 2159      0F76CF63 
ARM GAS  /tmp/ccY9soYc.s 			page 47


 2159      81FCF86C 
 2159      48F9FC80 
 2159      2F4425C1 
 2160 00bb C330260D 		.ascii	"\3030&\015\203I\015e\000\320\244\344[T\225xBy\1771\002"
 2160      83490D65 
 2160      00D0A4E4 
 2160      5B549578 
 2160      42797F31 
 2161 00d0 AF584BC0 		.ascii	"\257XK\300\006\022\237j]\252\006\266)\011c\304\360X"
 2161      06129F6A 
 2161      5DAA06B6 
 2161      290963C4 
 2161      F058
 2162 00e2 ED8947D4 		.ascii	"\355\211G\324%\376O\235\364\251\253\001\324i\237\272"
 2162      25FE4F9D 
 2162      F4A9AB01 
 2162      D4699FBA 
 2163 00f2 1E409D45 		.ascii	"\036@\235E\324\033\256\337\336\304\242\317iP\374\015"
 2163      D41BAEDF 
 2163      DEC4A2CF 
 2163      6950FC0D 
 2164 0102 0F30C9AC 		.ascii	"\0170\311\254\202#\230\235s\212%\333\263Vm\327\022\236"
 2164      8223989D 
 2164      738A25DB 
 2164      B3566DD7 
 2164      129E
 2165 0114 B7C632F3 		.ascii	"\267\3062\363\331b\316\024\314q\314\324\364T\332\360"
 2165      D962CE14 
 2165      CC71CCD4 
 2165      F454DAF0 
 2166 0124 84EB2561 		.ascii	"\204\353%aVg\031\313^\262\027\263F\222\353)\235\263"
 2166      566719CB 
 2166      5EB217B3 
 2166      4692EB29 
 2166      9DB3
 2167 0136 D067258F 		.ascii	"\320g%\217\271\205rI\341=\031\341\206+V\312b\331\024"
 2167      B9857249 
 2167      E13D19E1 
 2167      862B56CA 
 2167      62D914
 2168 0149 06E733BA 		.ascii	"\006\3473\272\011XL\374}\243\363\274\020<\2357\341\013"
 2168      09584CFC 
 2168      7DA3F3BC 
 2168      103C9D37 
 2168      E10B
 2169 015b 6AE3928B 		.ascii	"j\343\222\213"
 2170              		.text
 2171              		.section	.gnu.lto_rt_test_008_001_execute.353.50336c8481b5a641,"e",%progbits
 2172 0000 789C8D56 		.ascii	"x\234\215V[l\223e\030\376\336\377\373\333\256CV`\343"
 2172      5B6C9365 
 2172      18FEDEFF 
 2172      FBDBAE43 
 2172      5660E3
 2173 0013 A4A80599 		.ascii	"\244\250\005\231\010\352:@\361\020.\324\231\030/\026"
 2173      08EA3A40 
 2173      F1102ED4 
 2173      99182F16 
ARM GAS  /tmp/ccY9soYc.s 			page 48


 2174 0023 8DBBF072 		.ascii	"\215\273\360r\031]\343\232\330\215\265\205\310\225\265"
 2174      195DE39A 
 2174      D88DB585 
 2174      C895B5
 2175 0032 3BC5A9B0 		.ascii	";\305\251\260\315\301\306\32652:3\023\211\022\345\340"
 2175      CDC1C6D6 
 2175      35323A33 
 2175      138912E5 
 2175      E0
 2176 0043 441D22DD 		.ascii	"D\035\"\335\000\017c09L\255\242N\007A\313\2062\346\010"
 2176      000F6330 
 2176      394CADA2 
 2176      4E0741CB 
 2176      8632E608 
 2177 0057 BEEFFBFD 		.ascii	"\276\357\373\375=\200D\355\305\337\377{O\317\363\236"
 2177      3D8044ED 
 2177      C5DFFF7B 
 2177      4FCFF39E 
 2178 0067 BE7656A6 		.ascii	"\276vV\246\020} D\271\020\002\314\002\232\032\3535\021"
 2178      107D2044 
 2178      B91002CC 
 2178      029A1AEB 
 2178      3511
 2179 0079 08041EB1 		.ascii	"\010\004\036\261h\320\334X\377{\3732\350\003>Kh\336"
 2179      68D0DC58 
 2179      FF7BFB32 
 2179      E8033E4B 
 2179      68DE
 2180 008b 99D0E95A 		.ascii	"\231\320\351ZU\343+\032jF>\337\272R\257i\314j{o\344"
 2180      55E32B1A 
 2180      6A463EDF 
 2180      BA52AF69 
 2180      CC6A7B6F 
 2181 00a0 26DD042F 		.ascii	"&\335\004/%\275A\274\250I\224\274\250\351\002zu\320"
 2181      25BD41BC 
 2181      A84994BC 
 2181      A8E9027A 
 2181      75D0
 2182 00b2 530FA13E 		.ascii	"S\017\241>\257\313\245h9Q\323\326\276\335\022\350\356"
 2182      AFCBA568 
 2182      3951D3D6 
 2182      BEDD12E8 
 2182      EE
 2183 00c3 85881422 		.ascii	"\205\210\024\",E\342\023\222\320$#\022@7\3364\260\343"
 2183      2C45E213 
 2183      92D02423 
 2183      124037DE 
 2183      34B0E3
 2184 00d6 9BF49026 		.ascii	"\233\364\220&\027=\343\035\333k\263\032^\312\210H\011"
 2184      173DE31D 
 2184      DB6BB31A 
 2184      5ECA8848 
 2184      09
 2185 00e7 7B003D61 		.ascii	"{\000=a7\300. \337\312}62m\002\266\355E\333\320\366"
 2185      37C02E20 
 2185      DFCA7D36 
 2185      326D02B6 
ARM GAS  /tmp/ccY9soYc.s 			page 49


 2185      ED45DBD0 
 2186 00fc 3A65ABC3 		.ascii	":e\253\303\007\327\331\356\264a\332=\000{A\301\023\236"
 2186      07D7D9EE 
 2186      B461DA3D 
 2186      007B41C1 
 2186      139E
 2187 010e 99A800EC 		.ascii	"\231\250\000\354\343\000|\320\340#u@\344\275C\373\247"
 2187      E3007CD0 
 2187      E0237540 
 2187      E4BD43FB 
 2187      A7
 2188 011f 0BF810E3 		.ascii	"\013\370\020\343h\206\036>\2064\375\276\035\007c\230"
 2188      68861E3E 
 2188      8634FDBE 
 2188      1D076398 
 2189 012f 0D7C8216 		.ascii	"\015|\202\026 H\335{M,\011\237&\231M4m\354\331n\011"
 2189      2048DD7B 
 2189      4D2C099F 
 2189      26994D34 
 2189      6DECD96E 
 2190 0144 057AABED 		.ascii	"\005z\253\355\011r\272A\016\016 \301\312\3353\330\215"
 2190      0972BA41 
 2190      0E0E20C1 
 2190      CADD33D8 
 2190      8D
 2191 0155 0EA4FA8C 		.ascii	"\016\244\372\214=\345h*\300\300\251\366\325\206\277"
 2191      3DE5682A 
 2191      C0C0A9F6 
 2191      D586BF
 2192 0164 090E5E97 		.ascii	"\011\016^\227\334!\233\362\216\002\021\026\225\375\266"
 2192      DC219BF2 
 2192      8E021116 
 2192      95FDB6
 2193 0173 440EB1FD 		.ascii	"D\016\261\375h\330Gp\377BE\244SQ\374\341\020\036\373"
 2193      68D84770 
 2193      FF4245A4 
 2193      5351FCE1 
 2193      101EFB
 2194 0186 C120C2A1 		.ascii	"\301 \302\241\276[.\3400Z\233\022\222\320p\337\317&"
 2194      BE5B2EE0 
 2194      305A9B12 
 2194      92D070DF 
 2194      CF26
 2195 0198 01475066 		.ascii	"\001GPff\272\257s\241\226\020\310\237M\303_\335\214"
 2195      66BAAF73 
 2195      A19610C8 
 2195      9F4DC35F 
 2195      DD8C
 2196 01aa 207A449A 		.ascii	" zD\232\341\013\240j\030\030_\342\010\230+\337\236\231"
 2196      E10BA06A 
 2196      18185FE2 
 2196      08982BDF 
 2196      9E99
 2197 01bc A033B5E5 		.ascii	"\2403\265\345\243]\367\034\250\012\364\007\222\266\""
 2197      A35DF71C 
 2197      A80AF407 
 2197      92B622
ARM GAS  /tmp/ccY9soYc.s 			page 50


 2198 01cb 656BF0A1 		.ascii	"ek\360\241\021\032i3\303W(\374\234\242q\275\007\300"
 2198      111A6933 
 2198      C35728FC 
 2198      9CA271BD 
 2198      07C0
 2199 01dd 2831B379 		.ascii	"(1\263y\271.\006\212\241%\305\260\356\0122\034DY\206"
 2199      B92E068A 
 2199      A125C5B0 
 2199      EE0A321C 
 2199      445986
 2200 01f0 48019EFF 		.ascii	"H\001\236\377_\200{\247\020\3608\012\217%\001\207\222"
 2200      5F807BA7 
 2200      10F0380A 
 2200      8F250187 
 2200      92
 2201 0201 80D4602B 		.ascii	"\200\324`+\234\200d\302M\033'j\346\250\204UQ\255\211"
 2201      9C8064C2 
 2201      4D1B276A 
 2201      E6A88455 
 2201      51AD89
 2202 0214 98273161 		.ascii	"\230'1a\275r\312\226\352\344\326\207o\\\376\223i\350"
 2202      BD72CA96 
 2202      EAE4D687 
 2202      6F5CFE93 
 2202      69E8
 2203 0226 276300A7 		.ascii	"'c\000\247@\365\316\312\340\247\201\360\320D\303>c\177"
 2203      40F5CECA 
 2203      E0A781F0 
 2203      D044C33E 
 2203      637F
 2204 0238 DE1934F5 		.ascii	"\336\0314\365\006\246\256n\012\004b\363\207\247\306"
 2204      06A6AE6E 
 2204      0A0462F3 
 2204      87A7C6
 2205 0247 33E68188 		.ascii	"3\346\201\210H\213\206\217\014\211\017]\307\207\325"
 2205      488B868F 
 2205      0C890F5D 
 2205      C787D5
 2206 0256 44436125 		.ascii	"DCa%Y&\311f\3211\033\3372s\270\305b\223\024\003[\337"
 2206      5926C966 
 2206      D1311BDF 
 2206      3273B8C5 
 2206      62931403 
 2207 026c 1B1110E8 		.ascii	"\033\021\020\350\025\242Aj\352P\205\207\263\0208\363"
 2207      15A2416A 
 2207      EA508587 
 2207      B31038F3 
 2208 027c 41D44AF3 		.ascii	"A\324J\363D\257=f\376\0320\213\337 8\226al\3534.@5h"
 2208      44AF3D66 
 2208      FE1A308B 
 2208      DF203896 
 2208      616CEB34 
 2209 0294 F8DA8D6B 		.ascii	"\370\332\215k\365&q0\301\267\000\337\200 \003\023(\367"
 2209      F5267130 
 2209      C1B700DF 
 2209      80200313 
 2209      28F7
ARM GAS  /tmp/ccY9soYc.s 			page 51


 2210 02a6 A1A8468E 		.ascii	"\241\250F\216\003o\315\356\224`8\337d8\233\361\265["
 2210      036FCDEE 
 2210      946038DF 
 2210      64389BF1 
 2210      B55B
 2211 02b8 F2E14DC0 		.ascii	"\362\341M\300\372M\207\037\000\276\007\261\242:\020"
 2211      FA4D871F 
 2211      00BE07B1 
 2211      A23A10
 2212 02c7 C05DCE82 		.ascii	"\300]\316\2023\000\313h\3161\320\370\256\315\223\203"
 2212      3300CB68 
 2212      CE31D0F8 
 2212      AECD9383 
 2213 02d7 2D809BC8 		.ascii	"-\200\233\310a\257\016Zq\377\350\365\307\243\203!\300"
 2213      61AF0E5A 
 2213      71FFE8F5 
 2213      C7A38321 
 2213      C0
 2214 02e8 0D546828 		.ascii	"\015Th(\336\017\004\270\217\0003\015@[\212\255\255["
 2214      DE0F04B8 
 2214      8F00330D 
 2214      405B8AAD 
 2214      AD5B
 2215 02fa 6D35139E 		.ascii	"m5\023\236\001?\003\374\304\312|,}wVD\316\204\021\350"
 2215      013F03FC 
 2215      C4CA7C2C 
 2215      7D775644 
 2215      CE8411E8 
 2216 030e 90BCD32C 		.ascii	"\220\274\323,\232M\315\372\005E@\"\216|9\326\274\004"
 2216      9A4DCDFA 
 2216      05454022 
 2216      8E7C39D6 
 2216      BC04
 2217 0320 C13BA5D5 		.ascii	"\301;\245\325\010\257C2\342,\004\005\334^\362\305\024"
 2217      08AF4332 
 2217      E22C0405 
 2217      DC5EF2C5 
 2217      14
 2218 0331 B2E12CBA 		.ascii	"\262\341,\272jt\201\240kU(Z\367\332\320\266\\,m\247"
 2218      6A7481A0 
 2218      6B55285A 
 2218      F7DAD0B6 
 2218      5C2C6DA7 
 2219 0345 D4D09F9C 		.ascii	"\324\320\237\2343T\2410\277\001LD\030i\200\210Ck \374"
 2219      3354A130 
 2219      BF014C44 
 2219      18698088 
 2219      436B20FC 
 2220 0359 FEF1DACD 		.ascii	"\376\361\332\315\300\346\222\331\347\204%^\350\235\012"
 2220      C0E692D9 
 2220      E784255E 
 2220      E89D0A
 2221 0368 D604FD18 		.ascii	"\326\004\375\030D\253\206 c\315\016cW\31043\"\347\020"
 2221      44AB8620 
 2221      63CD0E63 
 2221      57C83433 
 2221      22E710
ARM GAS  /tmp/ccY9soYc.s 			page 52


 2222 037b D178FD41 		.ascii	"\321x\375A\315`87U\200\271\3358\323\011\272\363\340"
 2222      CD603837 
 2222      5580B9DD 
 2222      38D309BA 
 2222      F3E0
 2223 038d 02401C2B 		.ascii	"\002@\034+nd\257\303\230*9\0022\223\341(\263\353|\226"
 2223      6E64AFC3 
 2223      982A3902 
 2223      3293E128 
 2223      B3EB7C96 
 2224 03a1 4FE35148 		.ascii	"O\343QHN\301?z\1771\255\367\032\233_\212f\342\030\363"
 2224      4EC13F7A 
 2224      7F31ADF7 
 2224      1A9B5F8A 
 2224      66E218F3 
 2225 03b5 EB244D51 		.ascii	"\353$MQ\360\215\207p\012\225\005\265\265A\312\235\370"
 2225      F08D8770 
 2225      0A9505B5 
 2225      B541CA9D 
 2225      F8
 2226 03c6 0B239363 		.ascii	"\013#\223cw%\312\250\343]\241\261(6\265_\371\376\201"
 2226      7725CAA8 
 2226      E35DA1B1 
 2226      2836B55F 
 2226      F9FE81
 2227 03d9 C37858BD 		.ascii	"\303xX\275N\3600\216\237\0177\265l\001\274\200X\330"
 2227      4EF0308E 
 2227      9F0F37B5 
 2227      6C01BC80 
 2227      58D8
 2228 03eb 72C2AA46 		.ascii	"r\302\252F\344\362\216\311\263'\263\361\236`q\373\271"
 2228      E4F28EC9 
 2228      B327B3F1 
 2228      9E6071FB 
 2228      B9
 2229 03fc 562E67D0 		.ascii	"V.g\320\216\267\007\201\232\301\256\274\273v\307:\000"
 2229      8EB70781 
 2229      9AC1AEBC 
 2229      BB76C73A 
 2229      00
 2230 040d 2F1136FB 		.ascii	"/\0216\3730f\205\243 ~\207\340\"Z\262f\211\271-\354"
 2230      306685A3 
 2230      207E87E0 
 2230      225AB266 
 2230      89B92DEC 
 2231 0421 92B558D1 		.ascii	"\222\265X\321\371\370J?gp\031\004~\303$\300\004\027"
 2231      F9F84A3F 
 2231      67701904 
 2231      7EC324C0 
 2231      0417
 2232 0433 726137EB 		.ascii	"ra7\353of\345\224B\211O\354h;\227!\350\246\242\270c"
 2232      6F66E594 
 2232      42894FEC 
 2232      683B9721 
 2232      E8A6A2B8 
 2233 0448 E7C3AD2D 		.ascii	"\347\303\255-\271\212H\313\034\226t\205&U&q\250zcy\247"
 2233      B98A48CB 
ARM GAS  /tmp/ccY9soYc.s 			page 53


 2233      1C967485 
 2233      26552671 
 2233      A87A6379 
 2234 045d CCE112DE 		.ascii	"\314\341\022\336\022\306}\350\247\022.Pd\017a\013s\214"
 2234      12C67DE8 
 2234      A7122E50 
 2234      640F610B 
 2234      738C
 2235 046f 7280916E 		.ascii	"r\200\221n\017\245;\250\010\177\322\322b\214\311\321"
 2235      0FA53BA8 
 2235      087FD2D2 
 2235      628CC9D1 
 2236 047f 138BF9FB 		.ascii	"\023\213\371\373\333\023\254Y\224|\234\2718\327(\310"
 2236      DB13AC59 
 2236      947C9CB9 
 2236      38D728C8 
 2237 048f E9735890 		.ascii	"\351sX\220c\312\361B\252 \307\215\202\210\364\202\014"
 2237      63CAF142 
 2237      AA20C78D 
 2237      8288F482 
 2237      0C
 2238 04a0 A50AF275 		.ascii	"\245\012\362uzA\214\324\257r\021\322\363\215S\276\307"
 2238      7A418CD4 
 2238      AF7211D2 
 2238      F38D53BE 
 2238      C7
 2239 04b1 8D7C23A1 		.ascii	"\215|#\241\206'T\233\202\361m?\356\211g`\353\371\246"
 2239      8627549B 
 2239      82F16D3F 
 2239      EE896760 
 2239      EBF9A6
 2240 04c4 61C09E64 		.ascii	"a\300\236dRW\271\307(:\225\020a\273\343G0\277\323F\273"
 2240      5257B9C7 
 2240      283A9510 
 2240      61BBE347 
 2240      30BFD346 
 2241 04d9 8F5861F8 		.ascii	"\217Xa\370\372\204&\246\361\352\215\332:ev\332\256\345"
 2241      FA8426A6 
 2241      F1EA8DDA 
 2241      3A6576DA 
 2241      AEE5
 2242 04eb C0E835DB 		.ascii	"\300\3505\333{+\004\265\016\034]\214E\242_m\364\357"
 2242      7B2B04B5 
 2242      0E1C5D8C 
 2242      45A25F6D 
 2242      F4EF
 2243 04fd A10A45BA 		.ascii	"\241\012E\272P\341\221\333\370\236\213\314\355T\202"
 2243      50E191DB 
 2243      F89E8BCC 
 2243      ED5482
 2244 050c DB5E2492 		.ascii	"\333^$\222\315(\215}\022\233Sc\027\334\231\333\302r"
 2244      CD288D7D 
 2244      129B5363 
 2244      17DC99DB 
 2244      C272
 2245 051e 3A6D420E 		.ascii	":mB\016\252#\362v\266h\262\020\217\251:t\321\311+\016"
 2245      AA23F276 
ARM GAS  /tmp/ccY9soYc.s 			page 54


 2245      B668B210 
 2245      8FA93A74 
 2245      D1C92B0E 
 2246 0532 D586B53D 		.ascii	"\325\206\265=,\263\310\032\357\261\205l\372W\355\002"
 2246      2CB3C81A 
 2246      EFB1856C 
 2246      FA57ED02 
 2247 0542 DEF9DA2F 		.ascii	"\336\371\332/d'q5A\014\024`\024\275g\361\374\353H2\240"
 2247      64277135 
 2247      410C1460 
 2247      14BD67F1 
 2247      FCEB4832 
 2248 0557 D3FCE345 		.ascii	"\323\374\343E\021|D\260\312\304\033wL\247\335\031\205"
 2248      117C44B0 
 2248      CAC41B77 
 2248      4CA7DD19 
 2248      85
 2249 0568 EAD10373 		.ascii	"\352\321\003sP\246\266\206\377\\M\202\011.\201v\230"
 2249      50A6B686 
 2249      FF5C4D82 
 2249      092E8176 
 2249      98
 2250 0579 C2CA360B 		.ascii	"\302\3126\013\2061]{{\267\364i4c\006\261Eai\023X\256"
 2250      86315D7B 
 2250      7BB7F469 
 2250      346306B1 
 2250      45616913 
 2251 058f 3B58D76A 		.ascii	";X\327jI\313pqX\316\340\037\236\205\357\362@\347VC-"
 2251      49CB7071 
 2251      58CEE01F 
 2251      9E85EFF2 
 2251      40E75643 
 2252 05a4 DF257742 		.ascii	"\337%wB=\375\375#\315n\326,Ih\356\202WI\023\221K\231"
 2252      3DFDFD23 
 2252      CD6ED62C 
 2252      4968EE82 
 2252      57491391 
 2253 05ba A56AD499 		.ascii	"\245j\324\231\216\276\304\357\005\336\024c\224\011\177"
 2253      8EBEC4EF 
 2253      05DE1463 
 2253      94097F
 2254 05c9 364950CC 		.ascii	"6IP\314\202\275t\274\327QV\341q9\334%\236\265^\267\277"
 2254      82BD74BC 
 2254      D75156E1 
 2254      7139DC25 
 2254      9EB55EB7 
 2255 05de 6CBDDB57 		.ascii	"l\275\333W\346\362\37378\012\036/Z[\342t9<\036\347\312"
 2255      E6F2FB37 
 2255      380A1E2F 
 2255      5A5BE274 
 2255      393C1EE7 
 2256 05f3 FB96AF2A 		.ascii	"\373\226\257*\366\273|\376\025bu\236\243\240\314\275"
 2256      F6BB7CFE 
 2256      1562759E 
 2256      A3A0CCBD 
 2257 0603 C6FD5451 		.ascii	"\306\375TQ\361\212\374\274\225y\371\016\222;\274~\207"
 2257      F18AFCBC 
ARM GAS  /tmp/ccY9soYc.s 			page 55


 2257      9579F90E 
 2257      923BBC7E 
 2257      87
 2258 0614 AF629D17 		.ascii	"\257b\235\027\315\215#\233\027\373\\\225\353\\\345N"
 2258      CD8D239B 
 2258      17FB5C95 
 2258      EB5CE54E 
 2259 0624 57717EFE 		.ascii	"Wq~\376\203yN!=\276\347\3547\326\345\345\227\272\\\371"
 2259      83794E21 
 2259      3DBEE7EC 
 2259      37D6E5E5 
 2259      97BA5CF9 
 2260 0638 AB4A9D42 		.ascii	"\253J\235B\363\257\275\373\037 \025>\202p\227;\237_"
 2260      F3AFBDFB 
 2260      1F20153E 
 2260      8270973B 
 2260      9F5F
 2261 064a 57EA7238 		.ascii	"W\352r8\313\374e^WI\251/\257L,\371O[\004E;p\377\267"
 2261      CBFC655E 
 2261      5749A92F 
 2261      AF4C2CF9 
 2261      4F5B0445 
 2262 0662 A56F0345 		.ascii	"\245o\003E\264\254)\361\271\236\366\272\037\273\221"
 2262      B4AC29F1 
 2262      B99EF6BA 
 2262      1FBB91
 2263 0671 BDB3C2E3 		.ascii	"\275\263\302\343\251(w\270^\360;\036}\246\320QPX\364"
 2263      A92877B8 
 2263      5EF03B1E 
 2263      7DA6D051 
 2263      5058F4
 2264 0684 6491A3A0 		.ascii	"d\221\243\240\302\353r<\231\010\343\361\271}\305\317"
 2264      C2EB723C 
 2264      9908E3F1 
 2264      B97DC5CF 
 2265 0694 399D18EA 		.ascii	"9\235\030\352\376\177\011\261\266\302\353\367Q\220\202"
 2265      FE7F09B1 
 2265      B6C2EBF7 
 2265      519082
 2266 06a3 C21710DB 		.ascii	"\302\027\020\333\2111\212\327?\340A\257\031\205E\317"
 2266      89318AD7 
 2266      3FE041AF 
 2266      198545CF 
 2267 06b3 D8890436 		.ascii	"\330\211\0046\344\036{n\276\320\274\302\342qy*\274\033"
 2267      E41E7B6E 
 2267      BED0BCC2 
 2267      E271792A 
 2267      BC1B
 2268 06c5 84E9D1C7 		.ascii	"\204\351\321\307\012\036\0273\335\345\353K\236w\227"
 2268      0A1E1733 
 2268      DDE5EB4B 
 2268      9E7797
 2269 06d4 DA134514 		.ascii	"\332\023E\024\177\003\253\031\331."
 2269      7F03AB19 
 2269      D92E
 2270              		.text
 2271              		.section	.gnu.lto_rt_test_008_001.354.50336c8481b5a641,"e",%progbits
ARM GAS  /tmp/ccY9soYc.s 			page 56


 2272 0000 789C8B62 		.ascii	"x\234\213b``hb\200\2009\314\214-\214M\015\015\177\232"
 2272      60606862 
 2272      808039CC 
 2272      8C2D8C4D 
 2272      0D0D7F9A 
 2273 0014 CEBE335C 		.ascii	"\316\2763\\\302\3140\217\031,6\211\031\310f\004\261"
 2273      C2CC308F 
 2273      192C3689 
 2273      19C86604 
 2273      B1
 2274 0025 1473DB38 		.ascii	"\024s\3338\22603\202\325\26554\314x\313\270\204\231"
 2274      96303382 
 2274      D5B53534 
 2274      CC78CBB8 
 2274      8499
 2275 0037 89711B23 		.ascii	"\211q\033#\203eSG\203\300\022f\346\271@\205\333\031"
 2275      83655347 
 2275      83C01266 
 2275      E6B94085 
 2275      DB19
 2276 0049 E7323332 		.ascii	"\347232n\005\222L`\222\231q\013#\203\256~F~n\252~fb"
 2276      6E05924C 
 2276      60929971 
 2276      0B2383AE 
 2276      7E467E6E 
 2277 0061 6E415166 		.ascii	"nAQfIFYfqFjII\245\276\263KpAbr\252~nn\262\261\211\241"
 2277      49465966 
 2277      71466A49 
 2277      49A5BEB3 
 2277      4B704162 
 2278 007e 597C496A 		.ascii	"Y|Ijq\211\021\203\215\236\276sFfR\246\177p\274\221\201"
 2278      71891183 
 2278      8D9EBE73 
 2278      466652A6 
 2278      7F70BC91 
 2279 0093 9EB19E81 		.ascii	"\236\261\236\201>H\\\277\250D\2778\277\264\010\250\034"
 2279      3E485CBF 
 2279      A844BF38 
 2279      BFB408A8 
 2279      1C
 2280 00a4 CA052B8F 		.ascii	"\312\005+\217/N-,M\315KN\21570\260\320Kf\020\365M-."
 2280      2F4E2D2C 
 2280      4DCD4B4E 
 2280      8D3730B0 
 2280      D04B6610 
 2281 00bc 4E4C4F2D 		.ascii	"NLO-V\010N-*K-R\310\311\317/`\000\000\272\224F\247"
 2281      56084E2D 
 2281      2A4B2D52 
 2281      C8C9CF2F 
 2281      600000BA 
 2282              		.text
 2283              		.section	.gnu.lto_rt_test_sequence_008_array.355.50336c8481b5a641,"e",%progbits
 2284 0000 789C3360 		.ascii	"x\2343```\310a\200\2009\314\214\223\230\227030\202X"
 2284      6060C861 
 2284      808039CC 
 2284      8C939897 
 2284      30333082 
ARM GAS  /tmp/ccY9soYc.s 			page 57


 2285 0015 2D8C6D0D 		.ascii	"-\214m\015\015\177\232z\377\030\002EV030X6u4p,afd4d"
 2285      0D7F9A7A 
 2285      FF180245 
 2285      56303330 
 2285      58367534 
 2286 0030 DCCAC868 		.ascii	"\334\312\310h\304\270\205\221AW?#?7U?31\267\240(\263"
 2286      C4B88591 
 2286      41573F23 
 2286      3F37553F 
 2286      3331B7A0 
 2287 0046 24A32CB3 		.ascii	"$\243,\2638#\265\244\244R\337\331%\270 19U?77\331\330"
 2287      3823B5A4 
 2287      A452DFD9 
 2287      25B82031 
 2287      39553F37 
 2288 005d C4D02CBE 		.ascii	"\304\320,\276$\265\270\304\210\301FO\3379#3)\323?8\336"
 2288      24B5B8C4 
 2288      88C1464F 
 2288      DF392333 
 2288      29D33F38 
 2289 0072 C840CF58 		.ascii	"\310@\317X\317@\037$\256_T\242_\234_Z\004T\016\345\202"
 2289      CF401F24 
 2289      AE5F54A2 
 2289      5F9C5F5A 
 2289      04540EE5 
 2290 0087 95C717A7 		.ascii	"\225\307\027\247\026\226\246\346%\247\306\033\030X\350"
 2290      1696A6E6 
 2290      25A7C61B 
 2290      1858E8
 2291 0096 25330000 		.ascii	"%3\000\000<\3402\364"
 2291      3CE032F4 
 2292              		.text
 2293              		.section	.gnu.lto_rt_test_sequence_008.356.50336c8481b5a641,"e",%progbits
 2294 0000 789C358A 		.ascii	"x\2345\212;\016\202@\024E\337s\0327`\257\013\220A4F"
 2294      3B0E8240 
 2294      1445DF73 
 2294      1A3760AF 
 2294      0B904134 
 2295 0015 133B6C8D 		.ascii	"\023;l\215\005\013 8yq\246\030@f0\241#\304\030\227`"
 2295      050B2038 
 2295      7971A618 
 2295      406630A1 
 2295      23C41897 
 2296 002a A11D850B 		.ascii	"\241\035\205\013PW`\353\216,\374\337\356\236s\246\000"
 2296      505760EB 
 2296      8E2CFCDF 
 2296      EE9E73A6 
 2296      00
 2297 003b 50C17707 		.ascii	"P\301w\007\206\033\334\226\345\243\272\337\274\232\301"
 2297      861BDC96 
 2297      E5A3BADF 
 2297      BC9AC1
 2298 004a 897D5847 		.ascii	"\211}XGo\2335\303\277\335\337\0325k\340\005a\\\355\312"
 2298      6F9B35C3 
 2298      BFDDDF1A 
 2298      356BE005 
 2298      615CEDCA 
ARM GAS  /tmp/ccY9soYc.s 			page 58


 2299 005e 97614706 		.ascii	"\227aG\006x\305#C<#t\271L4q\025\3514SV\256\225\221d"
 2299      78C52343 
 2299      3C2374B9 
 2299      4C347115 
 2299      E9345356 
 2300 0076 6DC1FD69 		.ascii	"m\301\375i\220F\202\270\326\242?\350\015CK\306z0q\270"
 2300      904682B8 
 2300      D6A23FE8 
 2300      0D434BC6 
 2300      7A3071B8 
 2301 008a 2FD542CD 		.ascii	"/\325B\315\203\320s\235\276\343\3627\347\231\345&\311"
 2301      83D0739D 
 2301      BEE3F237 
 2301      E799E526 
 2301      C9
 2302 009b B357FEBB 		.ascii	"\263W\376\273\237<4\264\312)\026\024\272\356\310\021"
 2302      9F3C34B4 
 2302      CA291614 
 2302      BAEEC811 
 2303 00ab D00A8A58 		.ascii	"\320\012\212X\310,\211\223\334\264gdL\264$\003OG\277"
 2303      C82C8993 
 2303      DCB46764 
 2303      4CB42403 
 2303      4F47BF
 2304 00be 420E     		.ascii	"B\016"
 2305              		.text
 2306              		.section	.gnu.lto_.symbol_nodes.50336c8481b5a641,"e",%progbits
 2307 0000 789C7590 		.ascii	"x\234u\220\273\015\302P\014E\355\353$\374\241\243\205"
 2307      BB0DC250 
 2307      0C45EDEB 
 2307      24FCA1A3 
 2307      85
 2308 0011 11980131 		.ascii	"\021\230\0011\013\015C\230H\031\200\226\216\202\212"
 2308      0B0D4398 
 2308      48198096 
 2308      8E828A
 2309 0020 0ED13040 		.ascii	"\016\3210@J\204\030\201o\370\303\010\220\227\207\240"
 2309      4A841881 
 2309      6FF8C308 
 2309      909787A0 
 2310 0030 E1B9B947 		.ascii	"\341\271\271G:\226e\335\011\023\021\326P\352\247\343"
 2310      3A9665DD 
 2310      091311D6 
 2310      50EAA7E3 
 2311 0040 F16049A4 		.ascii	"\361`I\244D\363Q\030\266\310\270\324n\240\274\032\316"
 2311      44F35118 
 2311      B6C8B8D4 
 2311      6EA0BC1A 
 2311      CE
 2312 0051 12FA67FD 		.ascii	"\022\372g\375\003\250i2\001g\371\000\262<A\262\334\303"
 2312      03A86932 
 2312      0167F900 
 2312      B23C41B2 
 2312      DCC3
 2313 0063 0BDB0676 		.ascii	"\013\333\006v\360-l\021\364S\020\276C\361\372L#;N\346"
 2313      F02D6C11 
 2313      F45310BE 
ARM GAS  /tmp/ccY9soYc.s 			page 59


 2313      43F1FA4C 
 2313      233B4EE6 
 2314 0077 0D73986F 		.ascii	"\015s\230oPq\271+\324s\271\013\324w\27134p\271'4\347"
 2314      5071B92B 
 2314      D473B90B 
 2314      D477B933 
 2314      3470B927 
 2315 008d 724768DE 		.ascii	"rGh\336\341\204\012\266\270\316\227\"\376b\374\303("
 2315      E1840AB6 
 2315      B8CE9722 
 2315      FE62FCC3 
 2315      28
 2316 009e 10AED916 		.ascii	"\020\256\331\026\243\242pu\232,\206\302\343\272p\305"
 2316      A3A27075 
 2316      9A2C86C2 
 2316      E3BA70C5 
 2317 00ae 62D4152E 		.ascii	"b\324\025.[\334\247X\372\354\366\204\213\026\343\036"
 2317      5BDCA758 
 2317      FAECF684 
 2317      8B16E31E 
 2318 00be BD01CC96 		.ascii	"\275\001\314\226\223\350"
 2318      93E8
 2319              		.text
 2320              		.section	.gnu.lto_.refs.50336c8481b5a641,"e",%progbits
 2321 0000 789C05C1 		.ascii	"x\234\005\301\261\021\000 \014\003\261\267\011I\356"
 2321      B1110020 
 2321      0C03B1B7 
 2321      0949EE
 2322 000f 68A06006 		.ascii	"h\240`\006\366\337\020\351\001)9`$\304\302l4\017\362"
 2322      F6DF10E9 
 2322      01293960 
 2322      24C4C26C 
 2322      340FF2
 2323 0022 45E952B9 		.ascii	"E\351R\271\325\026\037\021\233\000\275"
 2323      D5161F11 
 2323      9B00BD
 2324              		.text
 2325              		.section	.gnu.lto_.decls.50336c8481b5a641,"e",%progbits
 2326 0000 789CA559 		.ascii	"x\234\245Y{T\024W\232\257\357\336\352\007\315\323@6"
 2326      7B541457 
 2326      9AAFEFDE 
 2326      EA07CDD3 
 2326      4036
 2327 0012 B3D99C8C 		.ascii	"\263\331\234\214\2335\033v\367$\250\311&9g\367\234\315"
 2327      9B351B76 
 2327      F724A8C9 
 2327      263967F7 
 2327      9CCD
 2328 0024 C4DD71B2 		.ascii	"\304\335q\262\231ds\342\346\314d\377\351m\273+\300\206"
 2328      996473E2 
 2328      E6CC64FF 
 2328      E96DBB2B 
 2328      C086
 2329 0036 06A6BBF0 		.ascii	"\006\246\273\360\261\377l\201((>P4\276\225H\214\017"
 2329      B1FF6C81 
 2329      28283E50 
 2329      34BE9548 
ARM GAS  /tmp/ccY9soYc.s 			page 60


 2329      8C0F
 2330 0048 8812A309 		.ascii	"\210\022\243\011\004\037-\240\242\210\342\013\337\210"
 2330      041F2DA0 
 2330      A288E20B 
 2330      DF88
 2331 0056 E2030585 		.ascii	"\342\003\005\205\000*\276\342~\367\336\352\256j\272"
 2331      002ABEE2 
 2331      7EF7DEEA 
 2331      AE6ABA
 2332 0065 1DCF9C41 		.ascii	"\035\317\234A\277\256[U\277\373\373\036\367\273\337"
 2332      BFAE5B55 
 2332      BFFBFB1E 
 2332      F7BBDF
 2333 0074 BD55F5C2 		.ascii	"\275U\365\302K\222t\311*I\345D\222\036\343\0376\245"
 2333      4B9274C9 
 2333      2A49E544 
 2333      921EE31F 
 2333      36A5
 2334 0086 23283694 		.ascii	"#(6\224t\224:\224\006\224F\224\375(\237\242\034\222"
 2334      74943A94 
 2334      06944694 
 2334      FD289FA2 
 2334      1C92
 2335 0098 C45F0CCA 		.ascii	"\304_\014\312Q\224\023(\027P\272Qn\242\374\204r\007"
 2335      51941328 
 2335      1750BA51 
 2335      6EA2FC84 
 2335      7207
 2336 00aa E51E4A2C 		.ascii	"\345\036J,\010\256x<\246\240\354F\331\203r\014\3452"
 2336      08AE783C 
 2336      A6A0EC46 
 2336      D983720C 
 2336      E532
 2337 00bc CA5590C2 		.ascii	"\312U\220\302\376\326\352\370\014\224gPRt;\256\201\260"
 2337      FED6EAF8 
 2337      0C946750 
 2337      52743BAE 
 2337      81B0
 2338 00ce A55DC711 		.ascii	"\245]\307\021]\367\005)\362\257\022\261\177?\214\203"
 2338      5DF70529 
 2338      F2AF12B1 
 2338      7F3F8C83 
 2339 00de FB01C2FE 		.ascii	"\373\001\302\376\353 8_A\011\2400\237o\340\265n\224"
 2339      EB20385F 
 2339      4109A030 
 2339      9F6FE0B5 
 2339      6E94
 2340 00f0 64946750 		.ascii	"d\224gPzP\002(\233Q\012Q\010\312M\020\276;\360x\013"
 2340      7A500228 
 2340      9B510A51 
 2340      08CA4D10 
 2340      BE3BF078 
 2341 0105 A511A517 		.ascii	"\245\021\245\027e\020\3456\312\020\336\373w<\336a\347"
 2341      6510E536 
 2341      CA10DEFB 
 2341      773CDE61 
 2341      E7
ARM GAS  /tmp/ccY9soYc.s 			page 61


 2342 0116 D8BE8BC7 		.ascii	"\330\276\213\307><\236\304\343q<\016Ax,\357\341\371"
 2342      3E3C9EC4 
 2342      E3713C0E 
 2342      41782CEF 
 2342      E1F9
 2343 0128 0D3C5A50 		.ascii	"\015<ZPvb{#\212\206\242\242\274\2172B\217\355\003l\377"
 2343      76627B23 
 2343      8A86A2A2 
 2343      BC8F3242 
 2343      8FED036C 
 2344 013d 8C22A3D3 		.ascii	"\214\"\243\323V\024;J,J<J\022J\012\021q>\252\307\374"
 2344      56143B4A 
 2344      2C4A3C4A 
 2344      124A0A11 
 2344      713EAAC7 
 2345 0152 8E3E0637 		.ascii	"\216>\0067\3651\221\243\304\337\374\327B\005\206\331"
 2345      F53191A3 
 2345      C4DFFCD7 
 2345      420586D9 
 2346 0162 F90BE4FA 		.ascii	"\371\013\344\372K\224\013 \256\265\343\361,\3129\224"
 2346      4B940B20 
 2346      AEB5E3F1 
 2346      2CCA3994 
 2347 0172 F328A0DB 		.ascii	"\363(\240\3334\374o?\025c\322\201\200N\023?k\016\037"
 2347      34FC6F3F 
 2347      1563D281 
 2347      804E133F 
 2347      6B0E1F
 2348 0185 E375BABE 		.ascii	"\343u\272\276\347\211\241\357(\210\376\255,\306`\364"
 2348      E789A1EF 
 2348      2888FEAD 
 2348      2CC660F4 
 2349 0195 BD3CACEF 		.ascii	"\275<\254\357\002\012V`\211j\343-\015\377\246P\"\245"
 2349      020A5660 
 2349      896AE32D 
 2349      0DFFA650 
 2349      22A5
 2350 01a7 69FCAFFE 		.ascii	"i\374\257\376\227\022|/z\214\217\245\031\014\375\014"
 2350      97127C2F 
 2350      7A8C8FA5 
 2350      190CFD0C 
 2351 01b7 C8F89B02 		.ascii	"\310\370\233\002#\227S\322\333v\242\336\352@\\\237\026"
 2351      239753D2 
 2351      DB76A2DE 
 2351      EA405C9F 
 2351      16
 2352 01c8 288C91E0 		.ascii	"(\214\221\340G\200Z\220\240\006\220\351\007\200m\000"
 2352      47805A90 
 2352      A00690E9 
 2352      07806D00 
 2353 01d8 5B01615D 		.ascii	"[\001a]\313\217\354\215\013\301\220A\340$\330\216\340"
 2353      CB8FEC8D 
 2353      0BC19041 
 2353      E024D88E 
 2353      E0
 2354 01e9 346C725A 		.ascii	"4lrZ\013\247M\245\331\322rj}t\374D\253\315\361W\000"
 2354      0BA74DA5 
ARM GAS  /tmp/ccY9soYc.s 			page 62


 2354      D9D2726A 
 2354      7D74FC44 
 2354      ABCDF157 
 2355 01fe F83FA069 		.ascii	"\370?\240i]Z}>\225\340u\030-\301.\274\202\375v\003\324"
 2355      5D5A7D3E 
 2355      95E07518 
 2355      2DC12EBC 
 2355      82FD7603 
 2356 0213 03C16681 		.ascii	"\003\301f\201\246=\374%\036QQA\245V ?\203\212\0125\355"
 2356      A63DFC25 
 2356      1E515141 
 2356      A556203F 
 2356      838A0A35 
 2357 0228 BFF112EC 		.ascii	"\277\361\022\354\004\330\301\024a\2462e\310L*\212\363"
 2357      04D8C114 
 2357      61A63265 
 2357      C84C2A8A 
 2357      F3
 2358 0239 7F1B1760 		.ascii	"\177\033\027`\266\224\327\313x#d\014\313>nH\022\242"
 2358      B694D7CB 
 2358      7823640C 
 2358      CB3E6E48 
 2358      12A2
 2359 024b 96ED9AD1 		.ascii	"\226\355\232\321#G3y/7y\2170y\0047\271\230\251^\272"
 2359      23473379 
 2359      2F37798F 
 2359      30790437 
 2359      B998A95E 
 2360 0260 61F7EE38 		.ascii	"a\367\3568\263\352&\200}\254\303~\340\235\230\352\353"
 2360      B3EA2680 
 2360      7DACC37E 
 2360      E09D98EA 
 2360      EB
 2361 0271 4385DD89 		.ascii	"C\205\335\211l\240 \035r8\001\341\004L\341\203\313["
 2361      6CA0201D 
 2361      723801E1 
 2361      044CE183 
 2361      CB5B
 2362 0283 A791E7B0 		.ascii	"\247\221\347\260\177\217\246\245@\006\034\004hf\335"
 2362      7F8FA6A5 
 2362      40061C04 
 2362      6866DD
 2363 0292 5BB0FB01 		.ascii	"[\260\373\001\321\275p\356\364v\253az\213a\372!\300"
 2363      D1BD70EE 
 2363      F476AB61 
 2363      7A8B61FA 
 2363      21C0
 2364 02a4 70334865 		.ascii	"p3Heg\335\371\270+\300G^\366\000\300\2517\361\307!\375"
 2364      67DDF9B8 
 2364      2BC0475E 
 2364      F600C0A9 
 2364      37F1C721 
 2365 02b9 17955234 		.ascii	"\027\225R4\242\021\253\207\022\007uP\217\243\011^L\035"
 2365      A211AB87 
 2365      12077550 
 2365      8FA3095E 
 2365      4C1D
ARM GAS  /tmp/ccY9soYc.s 			page 63


 2366 02cb A4EFD849 		.ascii	"\244\357\330Ij\242\303\276\276\001\222\034\026;!]6\217"
 2366      6AA2C3BE 
 2366      BE01921C 
 2366      163B215D 
 2366      368F
 2367 02dd 23F53E54 		.ascii	"#\365>T\221r\353\310w4\3313\373\331.\233FJ?Ly\375\035"
 2367      9172EBC8 
 2367      7734D933 
 2367      FBD92E9B 
 2367      464A3F4C 
 2368 02f4 FCEDB235 		.ascii	"\374\355\2625\201\007{}$\333\223\260\325es\014\322\362"
 2368      81077B7D 
 2368      24DB93B0 
 2368      D565730C 
 2368      D2F2
 2369 0306 39564F0B 		.ascii	"9VO\013)~\005\375ux\306\246\240\003\357\330\355/&\326"
 2369      297E05FD 
 2369      7578C6A6 
 2369      A003EFD8 
 2369      ED2F26D6 
 2370 031a D37AFA6B 		.ascii	"\323z\372k\234Y\366\352M\317:\272l\211H\221\352\031"
 2370      9C59F6EA 
 2370      4DCF3ABA 
 2370      6C894891 
 2370      EA19
 2371 032c 99E41999 		.ascii	"\231\344\031\231\330\004\026\217\307\221\222*\241\021"
 2371      D804168F 
 2371      C791922A 
 2371      A111
 2372 033a 9EB163DF 		.ascii	"\236\261c\337!\016d\226\355M0\226B\334X\355b\367s\016"
 2372      210E6496 
 2372      ED4D3096 
 2372      42DC58ED 
 2372      62F7730E 
 2373 034e 8B23E6C5 		.ascii	"\213#\346\305\221\251\222\344\221~M\220\227>\016\376"
 2373      91A992E4 
 2373      917E4D90 
 2373      973E0EFE 
 2374 035e 810D757A 		.ascii	"\201\015uz\214S\200T\007\031K\350\373]X\342\010\031"
 2374      8C538054 
 2374      07194BE8 
 2374      FB5D58E2 
 2374      0819
 2375 0370 89D35DB6 		.ascii	"\211\323]\266\307\305a\026\313\366\030\347\373\236\217"
 2375      C7C56116 
 2375      CBF618E7 
 2375      FB9E8F
 2376 037f C63AA42E 		.ascii	"\306:\244.\033\301[)2h\004\214\236\016\253\004\320M"
 2376      1BC15B29 
 2376      3268048C 
 2376      9E0EAB04 
 2376      D04D
 2377 0391 31B8FC1F 		.ascii	"1\270\374\037\373\001\375\007\330)\210\352\035T\303"
 2377      FB01FD07 
 2377      D82988EA 
 2377      1D54C3
 2378 03a0 AFB38123 		.ascii	"\257\263\201#:\232A\304\325\320Ao3\000\321yHp\322\212"
ARM GAS  /tmp/ccY9soYc.s 			page 64


 2378      3A9A41C4 
 2378      D5D0416F 
 2378      3300D179 
 2378      4870D28A 
 2379 03b4 3EBA12F6 		.ascii	">\272\022\366k\"\017A@\207\004yD\037\035\020\352\253"
 2379      6B220F41 
 2379      40870479 
 2379      441F1D10 
 2379      EAAB
 2380 03c6 37990E0E 		.ascii	"7\231\016\016&\346>\274_\230\341\006\245\024\242\015"
 2380      26E63EBC 
 2380      5F98E106 
 2380      A514A20D 
 2381 03d6 9A248913 		.ascii	"\232$\211\023\314\233\335eg\213,W\331\354\337>o\246"
 2381      CC9BDD65 
 2381      678B2C57 
 2381      D9ECDF3E 
 2381      6FA6
 2382 03e8 059E2D7D 		.ascii	"\005\236-}G\002:\033\244\227J\227hC?\315\332W\361\374"
 2382      47023A1B 
 2382      A4974A97 
 2382      68433FCD 
 2382      DA57F1FC 
 2383 03fc 921A4D9B 		.ascii	"\222\032M\233\216\367\355,%\341\010O8\306p\004y[\001"
 2383      8EF7ED2C 
 2383      25E1084F 
 2383      38C67004 
 2383      795B01
 2384 040f 0EC3F813 		.ascii	"\016\303\370\023\211t\032adEus\233\035QR\3718Bs$\316"
 2384      89741A61 
 2384      64457573 
 2384      9B1D5152 
 2384      F9384273 
 2385 0425 D9B7BCA2 		.ascii	"\331\267\274\242(\241\225U\030\300\313p,Dw,D\2676\221"
 2385      28A19555 
 2385      18C0CB70 
 2385      2C44772C 
 2385      44B73691 
 2386 0439 2EE774DD 		.ascii	".\347t\335;\037O\342\223\246\016 \207\256\345\327\012"
 2386      3B1F4FE2 
 2386      93A60E20 
 2386      87AEE5D7 
 2386      0A
 2387 044a 8B96EE27 		.ascii	"\213\226\356'\311\242F\005D\317S\000\247u\032\272Y\200"
 2387      C9A24605 
 2387      44CF5300 
 2387      A7751ABA 
 2387      5980
 2388 045c 6EAFBE63 		.ascii	"n\257\276c\011\007\2351@\010h[\272t31&\324YcB\235\023"
 2388      09079D31 
 2388      4008685B 
 2388      BA743331 
 2388      26D45963 
 2389 0473 336ED1D2 		.ascii	"3n\321\322M\003v\256\373\034\300I6\315+\232\017\266"
 2389      4D0376AE 
 2389      FB1CC049 
 2389      36CD2B9A 
ARM GAS  /tmp/ccY9soYc.s 			page 65


 2389      0FB6
 2390 0485 1BD3142D 		.ascii	"\033\323\024-\012:\207u\035\316\213^C\373:\216[^Z\242"
 2390      0A3A8775 
 2390      1DCE8B5E 
 2390      43FB3A8E 
 2390      5B5E5AA2 
 2391 0499 69437D65 		.ascii	"iC}e\017\307\256\320\352\011\336\205\266\220\217m\374"
 2391      0FC7AED0 
 2391      EA09DE85 
 2391      B6908F6D 
 2391      FC
 2392 04aa 403BB891 		.ascii	"@;\270\221\345?\267n\210u\260\022\027\210^\342\020s"
 2392      E53FB76E 
 2392      8875B012 
 2392      17885EE2 
 2392      1073
 2393 04bc 61E5EAF9 		.ascii	"a\345\352\371q\206\235\027\015;/\011\215{O\356\335\034"
 2393      71869D17 
 2393      0D3B2F09 
 2393      8D7B4FEE 
 2393      DD1C
 2394 04ce C3EDBC84 		.ascii	"\303\355\274\2041\302\013\337\026\\\177\030c\364\010"
 2394      31C20BDF 
 2394      165C7F18 
 2394      63F408
 2395 04dd 183D2E8B 		.ascii	"\030=.\213\036\335\253\032\356\305\361\036\227\001:"
 2395      1EDDAB1A 
 2395      EEC5F11E 
 2395      97013A
 2396 04ec 81DE61C6 		.ascii	"\201\336a\306X\177\234\265\265B\026E7\206\300uVZe<\360"
 2396      587F9CB5 
 2396      B5421645 
 2396      3786C075 
 2396      565A653C 
 2397 0501 025C18A7 		.ascii	"\002\\\030\247\033w\025\360\222\004\327\000\272\230"
 2397      1B7715F0 
 2397      9204D700 
 2397      BA98
 2398 050f 71070EB4 		.ascii	"q\007\016\264^\264\205\"r\335\210\010\356\000\340\212"
 2398      5EB48522 
 2398      72DD8808 
 2398      EE00E08A 
 2399 051f D03670A0 		.ascii	"\3206p\240\270IDdh\361\306\"+\017\311\015\200\216PH"
 2399      B8494464 
 2399      68F1C622 
 2399      2B0FC90D 
 2399      808E5048 
 2400 0533 3A4448BE 		.ascii	":DH\276\244\014\275i\316\372F+G\267-\337\321\000\034"
 2400      A40CBD69 
 2400      CEFA462B 
 2400      47B72DDF 
 2400      D1001C
 2401 0546 8D49D213 		.ascii	"\215I\322\023B\367\010t\027G\367^Zu(\236{\022\020\276"
 2401      42F70874 
 2401      1747F75E 
 2401      5A75289E 
 2401      7B1210BE 
ARM GAS  /tmp/ccY9soYc.s 			page 66


 2402 055a 77CD297A 		.ascii	"w\315)z@\243\244_\037\332\323+\354\2710X;`\323\355\251"
 2402      40A3A45F 
 2402      1FDAD32B 
 2402      ECB93058 
 2402      3B60D3ED 
 2403 056f D5EDE903 		.ascii	"\325\355\351\003\270\025\322pKh\030\242\021\0118<+\006"
 2403      B815D270 
 2403      4B6818A2 
 2403      1109383C 
 2403      2B06
 2404 0581 580CAAEB 		.ascii	"X\014\252\353\217\035\216\246\022710(T\316\256l.\343"
 2404      8F1D8EA6 
 2404      12373130 
 2404      2854CEAE 
 2404      6C2EE3
 2405 0594 4ED5F495 		.ascii	"N\325\364\225\025O\263\225\247\342M\350\017)\354\027"
 2405      154FB395 
 2405      A7E24DE8 
 2405      0F29EC17 
 2406 05a4 0AA7CB0C 		.ascii	"\012\247\313\014\273\357nk\2551\201\316\031!\035\022"
 2406      BBEF6E6B 
 2406      AD3181CE 
 2406      19211D12 
 2407 05b4 3388D9D4 		.ascii	"3\210\331\324y\254\335\316\350\372\036\375\330\247\331"
 2407      79ACDDCE 
 2407      E8FA1EFD 
 2407      D8A7D9
 2408 05c3 53F116DC 		.ascii	"S\361\026\334\015\261\335\025l\245r\304\252C\327\360"
 2408      0DB1DD15 
 2408      6CA572C4 
 2408      AA43D7F0 
 2409 05d3 6B1B67AE 		.ascii	"k\033g\256\352\240Q\226\022x\010\306bRp\262nO,\357\370"
 2409      EAA05196 
 2409      127808C6 
 2409      625270B2 
 2409      6E4F2CEF 
 2410 05e8 08E0015B 		.ascii	"\010\340\001[\361^\341\0254\221\267$\272\221S\235\320"
 2410      F15EE115 
 2410      3491B724 
 2410      BA91539D 
 2410      D0
 2411 05f9 5A56D81D 		.ascii	"ZV\330\035\201\341{\200|\202\030\334\003\260\252\313"
 2411      81E17B80 
 2411      7C8218DC 
 2411      03B0AACB 
 2412 0609 42D450B7 		.ascii	"B\324P\267\346\2579W\001\201\237\031\327\247!\256O\221"
 2412      E6AF3957 
 2412      01819F19 
 2412      D7A721AE 
 2412      4F91
 2413 061b 6B0BE75A 		.ascii	"k\013\347Z0p\267\311\032\3115\203 \006\271\246\023("
 2413      3070B7C9 
 2413      1AC93583 
 2413      2006B9A6 
 2413      1328
 2414 062d 2408FB61 		.ascii	"$\010\373a\326\027;\201\223\025\021\230\306\256\264"
 2414      D6173B81 
ARM GAS  /tmp/ccY9soYc.s 			page 67


 2414      93151198 
 2414      C6AEB4
 2415 063c EEEB6C70 		.ascii	"\356\353lp\350>\026\263\013\375\273\373\256\332\242"
 2415      E83E16B3 
 2415      0BFDBBFB 
 2415      AEDAA2
 2416 064b 857016D6 		.ascii	"\205p\026\326\313\231\204\307\360\342\367k\252\342\371"
 2416      CB9984C7 
 2416      F0E2F76B 
 2416      AAE2F9
 2417 065a 90F477F6 		.ascii	"\220\364w\366M\345I0\213\300\375P\024\357\213(^\341"
 2417      4DE54930 
 2417      8BC0FD50 
 2417      14EF8B28 
 2417      5EE1
 2418 066c A61D5BF3 		.ascii	"\246\035[\363m]\302\313\247x\312,]\347@\264\214F\315"
 2418      6D5DC2CB 
 2418      A778CA2C 
 2418      5DE740B4 
 2418      8C46CD
 2419 067f 26CCAEE0 		.ascii	"&\314\256\340\334\232M\244\361+\022h\257,\366\021)|"
 2419      DC9A4DA4 
 2419      F12B1268 
 2419      AF2CF611 
 2419      297C
 2420 0691 712F67DE 		.ascii	"q/g\336o\255~P\342\320w\007\345\004\215,%0\017\255\200"
 2420      6FAD7E50 
 2420      E2D07707 
 2420      E5048D2C 
 2420      25300FAD 
 2421 06a6 F924B431 		.ascii	"\371$\2641\251\255\350Y\027\317\307$\300\306$#D\233"
 2421      A9ADE859 
 2421      17CFC724 
 2421      C0C62423 
 2421      449B
 2422 06b8 CE6FDF9B 		.ascii	"\316o\337\233{?@\015\212\005$\032G[~\321\330\227W\360"
 2422      7B3F400D 
 2422      8A05241A 
 2422      475B7ED1 
 2422      D89757F0 
 2423 06cc 99533B2D 		.ascii	"\231S;-!\237\031YF`.\2672\010\237\213V^I\240\375\272"
 2423      219F1959 
 2423      46602EB7 
 2423      32089F8B 
 2423      565E49A0 
 2424 06e2 95431237 		.ascii	"\225C\02273`\343g}\342\342h\376\333(n\225\313\364\266"
 2424      3360E367 
 2424      7DE2E268 
 2424      FEDB286E 
 2424      95CBF4B6 
 2425 06f6 0E0E88C3 		.ascii	"\016\016\210\303\333T\263Ht&\312|\013S{y\240j01\274"
 2425      DB54B348 
 2425      7426CA7C 
 2425      0B537B79 
 2425      A06A3031 
 2426 070b D27E4960 		.ascii	"\322~I`\015\011U\332\336\216\245\233L\025\014\357\004"
 2426      0D0955DA 
ARM GAS  /tmp/ccY9soYc.s 			page 68


 2426      DE8EA59B 
 2426      4C150CEF 
 2426      04
 2427 071c 9DAB4093 		.ascii	"\235\253@\223\3502d\252\340L{o7/\262Df\300Zs6q\023R"
 2427      E83264AA 
 2427      E04C7B6F 
 2427      372FB244 
 2427      66C05A73 
 2428 0734 F9AF5DD8 		.ascii	"\371\257]\330\216\025\037\031jPv\240\034bL\326\225;"
 2428      8E151F19 
 2428      6A5076A0 
 2428      1C624CD6 
 2428      953B
 2429 0746 67DC8151 		.ascii	"g\334\201Q\311\243\002,\032\267\002GR\033\246iMX\"0"
 2429      C9A3022C 
 2429      1AB70247 
 2429      521BA669 
 2429      4D582230 
 2430 075a 172A096C 		.ascii	"\027*\011l6,HC\031#\211\300\006d\0116\020X\217\021\255"
 2430      362C4843 
 2430      192389C0 
 2430      06640936 
 2430      10588F11 
 2431 076f E220D4B9 		.ascii	"\342 \324\271\211@5[\310\221\250z\316\364\"-\2510\216"
 2431      8940355B 
 2431      C891A87A 
 2431      CEF4222D 
 2431      A9308E
 2432 0782 917C1341 		.ascii	"\221|\023A\362#\346\361C\356\305\327\325k\326\313\311"
 2432      F223E6F1 
 2432      43EEC5D7 
 2432      D56BD6CB 
 2432      C9
 2433 0793 1194DF0E 		.ascii	"\021\224\337\016\247\244\263\255\022]h\305.\362@u\361"
 2433      A7A4B3AD 
 2433      125D68C5 
 2433      2EF24075 
 2433      F1
 2434 07a4 05795432 		.ascii	"\005yT2S\362hZH\011Z\372}\024K\373\004\255\036\234\255"
 2434      53F2685A 
 2434      48095AFA 
 2434      7D144BFB 
 2434      04AD1E9C 
 2435 07b9 1CC4F6DB 		.ascii	"\034\304\366\333\234\363+\306G\256\364\034\374Cr\004"
 2435      9CF32BC6 
 2435      47AEF41C 
 2435      FC437204 
 2436 07c9 F4873028 		.ascii	"\364\2070(\017\341H"
 2436      0FE148
 2437 07d0 FA1D1AB1 		.ascii	"\372\035\032\261\015e;J\003\312\001N\320x\345X\351\260"
 2437      0D653B4A 
 2437      03CA014E 
 2437      D078E558 
 2437      E9B0
 2438 07e2 D5732781 		.ascii	"\325s'\201]\306\230\356\275\273\2512\321\030\323]\206"
 2438      5DC698EE 
 2438      BDBBA932 
ARM GAS  /tmp/ccY9soYc.s 			page 69


 2438      D118D35D 
 2438      86
 2439 07f3 9D0136A6 		.ascii	"\235\0016\246'\221\351\002\312\025\316\3266\270\256"
 2439      2791E902 
 2439      CA15CED6 
 2439      36B8AE
 2440 0802 3D3ECA52 		.ascii	"=>\312R\013\015$\270\330^\273\266\254\"\326\2004\032"
 2440      0B0D24B8 
 2440      D85EBBB6 
 2440      AC22D680 
 2440      341A
 2441 0814 7C7B18DF 		.ascii	"|{\030\337\020r\341\3234-\266!\370\231\313u\335k`T\312"
 2441      1072E1D3 
 2441      342DB621 
 2441      F899CB75 
 2441      DD6B6054 
 2442 0829 28F1C7A2 		.ascii	"(\361\307\242v\257HD\255\202\300v\002\007\236\0265\211"
 2442      76AF4844 
 2442      AD82C076 
 2442      02079E16 
 2442      3589
 2443 083b 4130102D 		.ascii	"A0\020-\004Z\011\034&p\220@3\201#\004\366\0238\304\242"
 2443      045A091C 
 2443      26709040 
 2443      33812304 
 2443      F61338C4 
 2444 0850 C37A1C5E 		.ascii	"\303z\034^77\2414\237\262\312\277;\012)3\366\300>\001"
 2444      3737A134 
 2444      9FB2CABF 
 2444      3B0A2933 
 2444      F6C03E01 
 2445 0864 D943A0FE 		.ascii	"\331C\240\376\011zW\032,M\321Y\252g\316\024\326\177"
 2445      097A571A 
 2445      2C4DD159 
 2445      AA67CE14 
 2445      D67F
 2446 0876 4DA0EE09 		.ascii	"M\240\356\011\212\352tE\351\260\367\011z\252\014=\373"
 2446      8AEA7445 
 2446      E9B0F709 
 2446      7AAA0C3D 
 2446      FB
 2447 0887 9E40D2A5 		.ascii	"\236@\322\245\223\004\010\354\210\002\241\363l,+^\020"
 2447      930408EC 
 2447      8802A1F3 
 2447      6C2C2B5E 
 2447      10
 2448 0898 B3EC054C 		.ascii	"\263\354\005L\350\205,\334\344\207\013\371k\304.\305"
 2448      E8852CDC 
 2448      E4870BF9 
 2448      6BC42EC5 
 2449 08a8 F4207682 		.ascii	"\364 v\202 \002Cx\234\3001BW\330$\272\206\203{\267\234"
 2449      20024378 
 2449      9CC03142 
 2449      57D824BA 
 2449      86837BB7 
 2450 08bd BB163F1C 		.ascii	"\273\026?\034|*\014\274\021\301\325\034|\376^\325\261"
 2450      7C2A0CBC 
ARM GAS  /tmp/ccY9soYc.s 			page 70


 2450      11C1D51C 
 2450      7CFE5ED5 
 2450      B1
 2451 08ce 08F05933 		.ascii	"\010\360Y3\230g\351/h-\267,\025\376\217\377J4\300\273"
 2451      9867E92F 
 2451      682DB72C 
 2451      15FE8FFF 
 2451      4A34C0BB 
 2452 08e2 17B42F5F 		.ascii	"\027\264/_\317W\237A-\260\244\324\032\232j\027\011\202"
 2452      CF579F41 
 2452      2DB0A4D4 
 2452      1A9A6A17 
 2452      0982
 2453 08f4 90A183C0 		.ascii	"\220\241\203\300\005\266\036\264\024\314\336\221`$\327"
 2453      05B61EB4 
 2453      14CCDE91 
 2453      6024D7
 2454 0903 25C3F14E 		.ascii	"%\303\361N\226\\\315hO+J\033\3129\224\016\224N\256`"
 2454      965CCD68 
 2454      4F2B4A1B 
 2454      CA39940E 
 2454      944EAE60 
 2455 0917 666FF7F3 		.ascii	"fo\367\363\341\263\340:\356]\214Y\260z\341\306rSe\273"
 2455      E1B3E03A 
 2455      EE5D8C59 
 2455      B07AE1C6 
 2455      725365BB 
 2456 092b 61107733 		.ascii	"a\020w3\342^F\"\027l;\320\023\223<*b:\366\020\270\311"
 2456      E25E4622 
 2456      176C3BD0 
 2456      13933C2A 
 2456      623AF610 
 2457 0941 B3F0965E 		.ascii	"\263\360\226^`j\206\036\227\237\305\035O\000S\241\233"
 2457      606A861E 
 2457      979FC51D 
 2457      4F0053A1 
 2457      9B
 2458 0952 4017BF3F 		.ascii	"@\027\277?l\210\266\330%\372\003\312\016;R\217\372i"
 2458      6C88B6D8 
 2458      25FA03CA 
 2458      0E3B528F 
 2458      FA69
 2459 0964 D7DA7C60 		.ascii	"\327\332|`s y\224\371\217q\265\335\252\376DPa%\271J"
 2459      73207994 
 2459      F98F71B5 
 2459      DDAAFE44 
 2459      506125B9 
 2460 0979 E08E6946 		.ascii	"\340\216iFA(iV\257\375\220%\304\026\334\001q\210\010"
 2460      41286956 
 2460      AFFD9025 
 2460      C416DC01 
 2460      718808
 2461 098c A029ADAA 		.ascii	"\240)\255\252K\364\334d\331\022\306RKD\325c\336\037"
 2461      4BF4DC64 
 2461      D912C652 
 2461      4B44D563 
 2461      DE1F
ARM GAS  /tmp/ccY9soYc.s 			page 71


 2462 099e DC2312AB 		.ascii	"\334#\022\253\0237\273a\240\363:\310\250\206\313\011"
 2462      1337BB61 
 2462      A0F33AC8 
 2462      A886CB09 
 2463 09ae 2C237CC3 		.ascii	",#|\303~\207;?@@\243p\217@?n\015\260\300\023\270M\340"
 2463      7E873B3F 
 2463      4040A370 
 2463      8F403F6E 
 2463      0DB0C013 
 2464 09c5 1101647B 		.ascii	"\021\001d{@`\020\227d\\\345)<$0D\240\200\302\335`5>"
 2464      40601097 
 2464      645CE529 
 2464      3C243044 
 2464      A080C2DD 
 2465 09dc A41B960E 		.ascii	"\244\033\226\016?\205\251\\IB\363\252nf\250*\224\207"
 2465      3F85A95C 
 2465      4942F3AA 
 2465      6E66A82A 
 2465      9487
 2466 09ee 61569150 		.ascii	"aV\221P\0046\254\025\246c\250\257\205a\326\033\246W"
 2466      0436AC15 
 2466      A663A8AF 
 2466      8561D61B 
 2466      A657
 2467 0a00 2FD1896A 		.ascii	"/\321\211j\010|\027\006Zg(\273\261g\206\226\224\037"
 2467      087C1706 
 2467      5A6728BB 
 2467      B1678696 
 2467      941F
 2468 0a12 076D048E 		.ascii	"\007m\004\216r\014Kf=L\007y\230\252\253\214y\376U\030"
 2468      720C4B66 
 2468      3D4C0779 
 2468      98AAAB8C 
 2468      79FE5518 
 2469 0a26 CD522396 		.ascii	"\315R#\226\325\247u\236s\004\316\014\347\021\323\270"
 2469      D5A7759E 
 2469      7304CE0C 
 2469      E711D3B8 
 2470 0a36 4A8F360E 		.ascii	"J\2176\016\354\225\310\201\325i\352\364\305\012\237"
 2470      EC95C881 
 2470      D569EAF4 
 2470      C50A9F
 2471 0a45 092E470E 		.ascii	"\011.G\016\211 Z\257\373\216\273\262\336H\337\205[\347"
 2471      89205AAF 
 2471      FB8EBBB2 
 2471      DE48DF85 
 2471      5BE7
 2472 0a57 75734E13 		.ascii	"usN\02389\334\234\3279b\227\356\025\262\254\216\214"
 2472      3839DC9C 
 2472      D7396297 
 2472      EE15B2AC 
 2472      8E8C
 2473 0a69 B21EC155 		.ascii	"\262\036\301U\0334\016\302L\333\030\226i\353t\020\233"
 2473      1B340EC2 
 2473      4CDB1896 
 2473      69EB7410 
 2473      9B
ARM GAS  /tmp/ccY9soYc.s 			page 72


 2474 0a7a A64BE7CD 		.ascii	"\246K\347\315\263'G\244\312\231?+Uh\003\316\226}('\355"
 2474      B32747A4 
 2474      CA993F2B 
 2474      556803CE 
 2474      967D2827 
 2475 0a8f 629359D1 		.ascii	"b\223Y\321\037\037\327\361\304\247)y\313\352\3553bF"
 2475      1F1FD7F1 
 2475      C4A72979 
 2475      CBEAED33 
 2475      6246
 2476 0aa1 255F44C4 		.ascii	"%_D\304PI\031\017O1\205\"\012\263\350\323\226\342\031"
 2476      5049190F 
 2476      4F318522 
 2476      0AB3E8D3 
 2476      96E219
 2477 0ab4 1C8486CE 		.ascii	"\034\204\206\316\244L\361E\2560P\363\323\026G\344Z\\"
 2477      A44CF145 
 2477      AE3050F3 
 2477      D31647E4 
 2477      5A5C
 2478 0ac6 1286E51B 		.ascii	"\022\206\345\033\031\015h\037\332y\027\345\021\357z"
 2478      190D681F 
 2478      DA7917E5 
 2478      11EF7A
 2479 0ad5 A8297027 		.ascii	"\250)p'!r;TJM\333!Z\022\303\240s:\276\252\212\011\257"
 2479      21723B54 
 2479      4A4DDB21 
 2479      5A12C3A0 
 2479      733ABEAA 
 2480 0aec 54C85946 		.ascii	"T\310YF\365G\342\025\034\364]\361\366\216\270p\320B"
 2480      F547E215 
 2480      1CF45DF1 
 2480      F68EB870 
 2480      D042
 2481 0afe 038480FC 		.ascii	"\003\204\200\374Esf8\214r\266\310\360\370\013\264\222"
 2481      45736638 
 2481      8C72B6C8 
 2481      F0F80BB4 
 2481      92
 2482 0b0f 56C56034 		.ascii	"V\305`4Q\016\012\266i\253\312\342\"\255[J\303\266\376"
 2482      510E0AB6 
 2482      69ABCAE2 
 2482      22AD5B4A 
 2482      C3B6FE
 2483 0b22 8E2B5B66 		.ascii	"\216+[f\327$\362\002\305\240+\232E\306}A\331\026jex"
 2483      D724F202 
 2483      C5A02B9A 
 2483      45C67D41 
 2483      D9166A65 
 2484 0b37 48F562B2 		.ascii	"H\365b\262\252R`\346S\230G\315\230\365\241Y\253'\310"
 2484      AA5260E6 
 2484      539847CD 
 2484      98F5A159 
 2484      AB27C8
 2485 0b4a 1CCA521E 		.ascii	"\034\312R\036\026s\024\352\\MQ#\254\240\260\212\352"
 2485      167314EA 
 2485      5C4D5123 
ARM GAS  /tmp/ccY9soYc.s 			page 73


 2485      ACA0B08A 
 2485      EA
 2486 0b5b 45625389 		.ascii	"EbS\211\310\315e\024\226Dr\351\012\227\031FUF\030\205"
 2486      C8CD6514 
 2486      964472E9 
 2486      0A971946 
 2486      55461885 
 2487 0b6f 35B78DFB 		.ascii	"5\267\215\373\273\260\261q>$G(/\217\256\234\257[/\360"
 2487      BBB0B171 
 2487      3E244728 
 2487      2F8FAE9C 
 2487      AF5B2FF0 
 2488 0b83 71ED00DA 		.ascii	"q\355\000\332\203Q\353G\321\034\310\224\360\325\341"
 2488      8351EB47 
 2488      D11CC894 
 2488      F0D5E1
 2489 0b92 355B885E 		.ascii	"5[\210^\263\231\221-%\241-\037\026\352\0154Z\241\336"
 2489      B399912D 
 2489      25A12D1F 
 2489      16EA0D34 
 2489      5AA1DE
 2490 0ba5 55692AD4 		.ascii	"Ui*\324\010\211(\324\272U\025\024\326\340B\272\2262"
 2490      088928D4 
 2490      BA551514 
 2490      D6E042BA 
 2490      9632
 2491 0bb7 105AB51E 		.ascii	"\020Z\265\036\003\215nQXG\241\212\302F=0}\247\233C5"
 2491      038D6E51 
 2491      5847A18A 
 2491      C2463D30 
 2491      7DA79B43 
 2492 0bcc E46B6AD6 		.ascii	"\344kj\326y\336(\215\007*\315\245qC\364\340\035j6\027"
 2492      79DE288D 
 2492      072ACDA5 
 2492      7143F4E0 
 2492      1D6A3617 
 2493 0be0 A3E1C6EB 		.ascii	"\243\341\306\353\240\246Js\241\031\316\204!.f\201!}"
 2493      A0A64A73 
 2493      A119CE84 
 2493      212E6681 
 2493      217D
 2494 0bf2 DFFC5C4C 		.ascii	"\337\374\\L\222#\234\331\364\307\234\241\213\034\022"
 2494      92239CD9 
 2494      F4C79CA1 
 2494      8B1C12
 2495 0c01 5D8DB206 		.ascii	"]\215\262\006e\003\2479\272\245\301\025\231\230\337"
 2495      6503A739 
 2495      BAA5C115 
 2495      9998DF
 2496 0c10 8527A6BC 		.ascii	"\205'\246\274z\317\215\303\300\367\3345G\277\333=\317"
 2496      7ACF8DC3 
 2496      C0F7DC35 
 2496      47BFDB3D 
 2496      CF
 2497 0c21 C69F0FB6 		.ascii	"\306\237\017\266b\210)|\377\264\251.1\010\333Hs\013"
 2497      6288297C 
 2497      FFB4A92E 
ARM GAS  /tmp/ccY9soYc.s 			page 74


 2497      3108DB48 
 2497      730B
 2498 0c33 4E71AD9B 		.ascii	"Nq\255\233\027.\330\026\033e\323M\315\330\3454\256\340"
 2498      172ED816 
 2498      1B65D34D 
 2498      CDD8E534 
 2498      AEE0
 2499 0c45 D0F72763 		.ascii	"\320\367'c\305zmx\272\230\300\027X\352\252)\324r\360"
 2499      C57A6D78 
 2499      BA98C017 
 2499      58EAAA29 
 2499      D472F0
 2500 0c58 4E0A3B70 		.ascii	"N\012;p+\207vP\330N\305~\024\227t\3554\344\3635\275"
 2500      2B877650 
 2500      D84EC57E 
 2500      149774ED 
 2500      34E4F335 
 2501 0c6d 10338D30 		.ascii	"\0203\2150\254\250\221\372\012\"V\354\355sD:\315\246"
 2501      ACA891FA 
 2501      0A2256EC 
 2501      ED73443A 
 2501      CDA6
 2502 0c7f 309DF385 		.ascii	"0\235\363\205-Vz=n\321A5\024\276\015\003-1\201j\276"
 2502      2D567A3D 
 2502      6ED14135 
 2502      14BE0D03 
 2502      2D31816A 
 2503 0c94 1145FB4B 		.ascii	"\021E\373K\012s9H\344|\330\262^]\245\2036S\370\212\203"
 2503      0A733948 
 2503      E47CD8B2 
 2503      5E5DA583 
 2503      3653F88A 
 2504 0ca9 C4A88566 		.ascii	"\304\250\205f\317u\036\235\201\374\246\222\230\344\010"
 2504      CF751E9D 
 2504      81FCA692 
 2504      98E408
 2505 0cb8 87773DD1 		.ascii	"\207w=\321aV\324\266_\273dy\231\275\346\2307\257Y\323"
 2505      6156D4B6 
 2505      5FBB6479 
 2505      99BDE698 
 2505      37AF59D3 
 2506 0ccc A0142040 		.ascii	"\240\024 @a\021_\013D\177\011\317\244\361g\343\350m"
 2506      61115F0B 
 2506      447F09CF 
 2506      A4F167E3 
 2506      E86D
 2507 0cde AEE4FEF2 		.ascii	"\256\344\376\362\376\257\301\250_\205\206W\015T\177"
 2507      FEAFC1A8 
 2507      5F858657 
 2507      0D547F
 2508 0ced AD51F8CD 		.ascii	"\255Q\370\315\245\032\331x\220\306\353\301'\343F\032"
 2508      A51AD978 
 2508      90C6EBC1 
 2508      27E3461A 
 2509 0cfd 7A90DED7 		.ascii	"z\220\336\327\276\265\236\276,\336A\32548\370\223t#"
 2509      BEB59EBE 
 2509      2CDE41D5 
ARM GAS  /tmp/ccY9soYc.s 			page 75


 2509      3438F893 
 2509      7423
 2510 0d0f 857A6A7E 		.ascii	"\205zj~\222\256\247\322\370\306\004\372\010\323nA,\353"
 2510      92AEA7D2 
 2510      F8C604FA 
 2510      08D36E41 
 2510      2CEB
 2511 0d21 7576FAB7 		.ascii	"uv\372\267s!\254\274J\320\024\254\300K8d\367\265\323"
 2511      7321ACBC 
 2511      4AD014AC 
 2511      C04B3864 
 2511      F7B5D3
 2512 0d34 D76D1C12 		.ascii	"\327m\034\022\010V\340\3754\004B@\307\242\312\225\246"
 2512      0856E0FD 
 2512      34044240 
 2512      C7A2CA95 
 2512      A6
 2513 0d45 5733070C 		.ascii	"W3\007\014\017\232)\007\374|\266\270;\326xO\020\011"
 2513      0F9A2907 
 2513      FC7CB6B8 
 2513      3BD6784F 
 2513      1009
 2514 0d57 98FFE5AE 		.ascii	"\230\377\345\256/M/\377\016\032\200\026\016\260V\014"
 2514      2F4D2FFF 
 2514      0E1A8016 
 2514      0EB0560C 
 2515 0d67 144CB789 		.ascii	"\024L\267\211G\343SC\213w\276\315\322\251\205\302>\012"
 2515      47E35343 
 2515      8B77BECD 
 2515      D2A985C2 
 2515      3E0A
 2516 0d79 8723CAF1 		.ascii	"\207#\312\361\360\207X\211a0\006\255\024\016\005+\311"
 2516      F0875889 
 2516      613006AD 
 2516      140E052B 
 2516      C9
 2517 0d8a E686123E 		.ascii	"\346\206\022>\267\305F\343pD\365\254\020\301\271\373"
 2517      B7C546E3 
 2517      7044F5AC 
 2517      10C1B9FB 
 2518 0d9a C519BEF6 		.ascii	"\305\031\276\366\024\006\314\017\305G\3500F\204\336"
 2518      1406CC0F 
 2518      C547E830 
 2518      4684DE
 2519 0da9 2ADE7C2E 		.ascii	"*\336|.\341\345\025\245Z\315\212\271\217\377F\373\015"
 2519      E1E515A5 
 2519      5ACD8AB9 
 2519      8FFF46FB 
 2519      0D
 2520 0dba 1CA5B097 		.ascii	"\034\245\260\227\203\202F\340Y\366\370\225\211t\013"
 2520      838246E0 
 2520      59F6F895 
 2520      89740B
 2521 0dc9 A7DE76EB 		.ascii	"\247\336v\353a\265%\332\327\232\023\224}\255\031M[8"
 2521      61B525DA 
 2521      D79A1394 
 2521      7DAD194D 
ARM GAS  /tmp/ccY9soYc.s 			page 76


 2521      5B38
 2522 0ddb ECC0B9EA 		.ascii	"\354\300\271\352\007v#0\307\215\225\377$[\334\332bq"
 2522      07762330 
 2522      C78D95FF 
 2522      245BDCDA 
 2522      6271
 2523 0ded F3CF808E 		.ascii	"\363\317\200\216\306\373\371\275\216\344\360\371\031"
 2523      C6FBF9BD 
 2523      8EE4F0F9 
 2523      19
 2524 0dfa 4CFC33DC 		.ascii	"L\3743\334\216v\012g\261\342Q8\257\007ahh\361\252\006"
 2524      8E760A67 
 2524      B1E25138 
 2524      AF076168 
 2524      68F1AA06 
 2525 0e0e ABD86E9F 		.ascii	"\253\330n\237\244p\2122`\344\322V\275Z\177\270GL[\030"
 2525      A4708A32 
 2525      60E4D256 
 2525      BD5A7FB8 
 2525      474C5B18 
 2526 0e22 C6B4E15A 		.ascii	"\306\264\341Zo`NGb\364\202\272\262\263\310\024\3643"
 2526      6F604E47 
 2526      62F482BA 
 2526      B2B3C814 
 2526      F433
 2527 0e34 C3838EEE 		.ascii	"\303\203\216\356\256\235_\334+\233\002\256/W\373iT\037"
 2527      AE9D5FDC 
 2527      2B9B02AE 
 2527      2F57FB69 
 2527      541F
 2528 0e46 B0C3E3C7 		.ascii	"\260\303\343\307U\017L\223\347\202\301\331!2+\377H\376"
 2528      550F4C93 
 2528      E782C1D9 
 2528      21322BFF 
 2528      48FE
 2529 0e58 EA3863EA 		.ascii	"\3528c\352t\030\213\320E\312\203\3153|\361\203u\011"
 2529      74188BD0 
 2529      45CA83CD 
 2529      337CF183 
 2529      7509
 2530 0e6a 467E46B2 		.ascii	"F~F\262\264w\325.7M\300KQY\3265\315\235NX\012\014\255"
 2530      B477D52E 
 2530      374DC04B 
 2530      5159D635 
 2530      CD9D4E58 
 2531 0e81 98DBDB90 		.ascii	"\230\333\333\220\2005O\206N\012\307\303\262\3408\313"
 2531      80354F86 
 2531      4E0AC7C3 
 2531      B2E038CB 
 2532 0e91 82F989F4 		.ascii	"\202\371\211\364r\254\364\362\302R\\\322*>\304\012\201"
 2532      72ACF4F2 
 2532      C2525CD2 
 2532      2A3EC40A 
 2532      81
 2533 0ea2 1AAF7058 		.ascii	"\032\257pXp\310\2560X_\002{\211v\246;\337\364\216\241"
 2533      70C8AE30 
 2533      585F027B 
ARM GAS  /tmp/ccY9soYc.s 			page 77


 2533      8976A63B 
 2533      DFF48EA1 
 2534 0eb6 DDC8806B 		.ascii	"\335\310\200k,\003\006y\232\364\354\271~0>r\365\350"
 2534      2C030679 
 2534      9AF4ECB9 
 2534      7E303E72 
 2534      F5E8
 2535 0ec8 0A5F3DC8 		.ascii	"\012_=\310P\303\275\001\323\373\217OCT7\204\007\217"
 2535      50C3BD01 
 2535      D3FB8F4F 
 2535      43543784 
 2535      078F
 2536 0eda 76355D91 		.ascii	"v5]\221\215\373e\246'C\001\230U5g\217\351\235H\300\010"
 2536      8DFB65A6 
 2536      27430198 
 2536      5535678F 
 2536      E99D48C0 
 2537 0eef 548F00D4 		.ascii	"T\217\000\324\034\371\346\254\351\373\304,\203\341\246"
 2537      1CF9E6AC 
 2537      E9FBC42C 
 2537      83E1A6
 2538 0efe 006CEE3D 		.ascii	"\000l\356=t\336\004h4\030n\011\300\211\212\373\333\251"
 2538      74DE0468 
 2538      34186E09 
 2538      C0898AFB 
 2538      DBA9
 2539 0f10 F9AB64F0 		.ascii	"\371\253d\3605h\257\036i\276I\261\262x\327\0267\307"
 2539      3568AF1E 
 2539      69BE49B1 
 2539      B278D716 
 2539      37C7
 2540 0f22 449B423F 		.ascii	"D\233B?\361)\324G9\322\306\2673o\263\367\241\235W\353"
 2540      F129D447 
 2540      39D2C6B7 
 2540      336FB3F7 
 2540      A19D57EB 
 2541 0f36 13CDCC03 		.ascii	"\023\315\314\003\024\372Y\315\037\244\274\017\017\344"
 2541      14FA59CD 
 2541      1FA4BC0F 
 2541      0FE4
 2542 0f44 B6CBDF98 		.ascii	"\266\313\337\230\"0dD\373\266\000\224\337\277\326o\252"
 2542      22306444 
 2542      FBB60094 
 2542      DFBFD66F 
 2542      AA
 2543 0f55 54B70DC0 		.ascii	"T\267\015\300\035=\206\355\213zL\217\355}\006\340\256"
 2543      1D3D86ED 
 2543      8B7A4C8F 
 2543      ED7D06E0 
 2543      AE
 2544 0f66 00DC1CF8 		.ascii	"\000\334\034\370\362\246\211\341\206\001\030\022\200"
 2544      F2A689E1 
 2544      86011812 
 2544      80
 2545 0f73 EF3AAF9D 		.ascii	"\357:\257\2351\215\370~\003p\217\215\370\243X\376=\252"
 2545      318DF87E 
 2545      03708F8D 
ARM GAS  /tmp/ccY9soYc.s 			page 78


 2545      F8A358FE 
 2545      3DAA
 2546 0f85 A6BF535B 		.ascii	"\246\277S[\304\236\273\0134m\367(f\351}\275\"\303\003"
 2546      C49EBB0B 
 2546      346DF728 
 2546      66E97DBD 
 2546      22C303
 2547 0f98 8AEDE047 		.ascii	"\212\355\340G\251\303I\264"
 2547      A9C349B4 
 2548 0fa0 248EBFAC 		.ascii	"$\216\277\254my\374/\241\327\313\270\247\011\306\365"
 2548      6D79FC2F 
 2548      A1D7CBB8 
 2548      A709C6F5 
 2549 0fb0 1135BE71 		.ascii	"\0215\276q\355\270^\302\276q\225\227\306\340ex\030$"
 2549      EDB85EC2 
 2549      BE719597 
 2549      C6E06578 
 2549      1824
 2550 0fc2 FC99B583 		.ascii	"\374\231\265\203\204\365Ite\234D+9iI}\303\012\253\214"
 2550      84F54974 
 2550      659C442B 
 2550      3969497D 
 2550      C30AAB8C 
 2551 0fd6 104DE6B6 		.ascii	"\020M\346\266\227\026\037\177\223\277\324\276N\371\207"
 2551      97161F7F 
 2551      93BFD4BE 
 2551      4EF987
 2552 0fe5 87337396 		.ascii	"\2073s\226\316\264E\371\3140\015'w\201,\264\016\365"
 2552      CEB445F9 
 2552      CC300D27 
 2552      77812CB4 
 2552      0EF5
 2553 0ff7 777EFBE0 		.ascii	"w~\373\340\325\206i\332z"
 2553      D58669DA 
 2553      7A
 2554 1000 4D2B6DC2 		.ascii	"M+m\302\247!\031\036\013\315\220\217\353!;\013\352\256"
 2554      A721191E 
 2554      0BCD908F 
 2554      EB213B0B 
 2554      EAAE
 2555 1012 18411FC6 		.ascii	"\030A\037\306\211N}e\265\025\011\272\373|\240\246\313"
 2555      894E7D65 
 2555      B51509BA 
 2555      FB7CA0A6 
 2555      CB
 2556 1023 BAB53364 		.ascii	"\272\2653dl\007{|\235Dg\304\213\036\2557\346\327\216"
 2556      6C077B7C 
 2556      9D4467C4 
 2556      8B1EAD37 
 2556      E6D78E
 2557 1036 A9176A7E 		.ascii	"\251\027j~\303JiQ\260G\261\214\355`\217\342\021\264"
 2557      C34A6951 
 2557      B047B18C 
 2557      ED608FE2 
 2557      11B4
 2558 1048 263EC237 		.ascii	"&>\3027\3160\364\270\365\244\265N|V,\370;\366y\020f"
 2558      CE30F4B8 
ARM GAS  /tmp/ccY9soYc.s 			page 79


 2558      F5A4B54E 
 2558      7C562CF8 
 2558      3BF67910 
 2559 105d 0A0E9825 		.ascii	"\012\016\230%C\211\214gA\226e#h}H\357\221\2720\275\263"
 2559      43898C67 
 2559      41966523 
 2559      687D48EF 
 2559      91BA30BD 
 2560 1072 837AE7C8 		.ascii	"\203z\347\310\330\016\3668\227D\017=Y\357\371az\347"
 2560      D80EF638 
 2560      97440F3D 
 2560      59EFF961 
 2560      7AE7
 2561 1084 EA7AE7C9 		.ascii	"\352z\347\311P*\343Y\220e\376\010z\206\263T-X\333\036"
 2561      502AE359 
 2561      9065FE08 
 2561      7A86B354 
 2561      2D58DB1E 
 2562 1098 FAE4C386 		.ascii	"\372\344\303\206byu\311\217\011\321\276\003\226a\347"
 2562      627975C9 
 2562      8F09D1BE 
 2562      039661E7 
 2563 10a8 0541557D 		.ascii	"\005AU}eCkcCYU&\303\374\240\261\013Y;\250\246'\221\031"
 2563      65436B63 
 2563      43595526 
 2563      C3FCA0B1 
 2563      0B593BA8 
 2564 10c0 DA3C673E 		.ascii	"\332<g>D\233\200\213d6\001\347\211\367`\317\362\011"
 2564      449B808B 
 2564      643601E7 
 2564      89F760CF 
 2564      F209
 2565 10d2 B89ED59F 		.ascii	"\270\236\325\237\332m\203wc\3143p\261\014_0O\227\310"
 2565      DA6D8377 
 2565      63CC3370 
 2565      B10C5F30 
 2565      4F97C8
 2566 10e5 BC13B37B 		.ascii	"\274\023\263{0p\365wF\362/\221\215\327\015\342\376\226"
 2566      3070F577 
 2566      46F22F91 
 2566      8DD70DE2 
 2566      FE96
 2567 10f7 19336B4C 		.ascii	"\0313kL\363\253\323( \313\230\267\377\364Z\332\270\214"
 2567      F3ABD328 
 2567      20CB98B7 
 2567      FFF45ADA 
 2567      B88C
 2568 1109 CC8999FF 		.ascii	"\314\211\231\3771\3019v\364k\257\2776:MU\374j\232OM"
 2568      31C13976 
 2568      F46BAFBF 
 2568      363A4D55 
 2568      FC6A9A4F 
 2569 111e F3E7E4F9 		.ascii	"\363\347\344\371\334J\360\324\311\216N\277\362\207<"
 2569      DC4AF0D4 
 2569      C98E4EBF 
 2569      F2873C
 2570 112d 25DBAD38 		.ascii	"%\333\2558G\217~\3735\267}\374\207\237\214\0347\346"
ARM GAS  /tmp/ccY9soYc.s 			page 80


 2570      478F7EFB 
 2570      35B77DFC 
 2570      879F8C1C 
 2570      37E6
 2571 113f 2D6964F4 		.ascii	"-id\364\373\257\215\366(\312\3507=n\311\342\365\247"
 2571      FBAF8DF6 
 2571      28CAE837 
 2571      3D6EC9E2 
 2571      F5A7
 2572 1151 3B55D99D 		.ascii	";U\331\235\341\362\3211oJ1.\237w\322[\312\253^\311\341"
 2572      E1F2D131 
 2572      6F4A312E 
 2572      9F77D25B 
 2572      CAAB5EC9 
 2573 1166 CEF1A9CA 		.ascii	"\316\361\251\312\224W\275oH\261\034\223\341S\\\2361"
 2573      9457BD6F 
 2573      48B11C93 
 2573      E1535C9E 
 2573      31
 2574 1177 AFA665E4 		.ascii	"\257\246e\344x\225\264L\2277\327\227\251fL\312\364g"
 2574      7895B44C 
 2574      9737D797 
 2574      A9664CCA 
 2574      F467
 2575 1189 28AA3A35 		.ascii	"(\252:5m\334\277N\310u\241Q^\257\373\3657\306\274\311"
 2575      6DDCBF4E 
 2575      C875A151 
 2575      5EAFFBF5 
 2575      37C6BCC9 
 2576 119d 958E95FE 		.ascii	"\225\216\225\376\371\317\360Az.x\035OQ\3068\225)\212"
 2576      F9CFF041 
 2576      7A2E781D 
 2576      4F51C638 
 2576      95298A
 2577 11b0 3B4F5562 		.ascii	";OUb\334\031\037\370\323'(\331\036l\351v\331\305\301"
 2577      DC191FF8 
 2577      D32728D9 
 2577      1E6CE976 
 2577      D9C5C1
 2578 11c3 A9BE12A1 		.ascii	"\251\276\022\2411\307\317\364ef\273\263\362<J\232;\003"
 2578      31C7CFF4 
 2578      6566BBB3 
 2578      F23C4A9A 
 2578      3B03
 2579 11d5 9D792D43 		.ascii	"\235y-CzVP\273\374~\305gh\2668\337\315\311\311\032\025"
 2579      7A5650BB 
 2579      FC7EC567 
 2579      68B638DF 
 2579      CDC9C91A 
 2580 11ea DDEAACCC 		.ascii	"\335\352\254\314\211iL!\266\221`\004\357?\331\225\251"
 2580      89694C21 
 2580      B6916004 
 2580      EF3FD995 
 2580      A9
 2581 11fb EA26F8DF 		.ascii	"\352&\370\337\370\223\234\365\345\3440\232D~\242x\031"
 2581      F8939CF5 
 2581      E5E4309A 
ARM GAS  /tmp/ccY9soYc.s 			page 81


 2581      447EA278 
 2581      19
 2582 120c 4DCEE74A 		.ascii	"M\316\347Jv\034w\356c%Kq\371\025\007?\371\035\352\230"
 2582      761C77EE 
 2582      63254B71 
 2582      F915073F 
 2582      F91DEA98 
 2583 1220 30C29DF1 		.ascii	"0\302\235\361\237\031\236q\250HU&\250.5\323mS?\313\313"
 2583      9F199E71 
 2583      A8485526 
 2583      A82E35D3 
 2583      6D533FCB 
 2584 1235 763B559B 		.ascii	"v;U\233\212#\221\343T\255\376\314\377U\234\352?<5\000"
 2584      8A2391E3 
 2584      54ADFECC 
 2584      FF559CEA 
 2584      3F3C3500 
 2585 1249 BAB9A83C 		.ascii	"\272\271\250<F\204]Ur\311d\027qg8\274\256\314l=\240"
 2585      46845D55 
 2585      72C96417 
 2585      716738BC 
 2585      AECC6C3D 
 2586 125e F893C588 		.ascii	"\370\223\305\210m^uJV\246_\265\243\353^\214\376\024"
 2586      6D5E754A 
 2586      56A65FB5 
 2586      A3EB5E8C 
 2586      FE14
 2587 1270 BB928BA1 		.ascii	"\273\222\213\241\317\314N\217U&)\331\252\327\345\377"
 2587      CFCC4E8F 
 2587      552629D9 
 2587      AAD7E5FF 
 2588 1280 DCA9DA31 		.ascii	"\334\251\3321\252\030\302<E\316V\246\250I\241q\361;"
 2588      AA18C23C 
 2588      45CE56A6 
 2588      A849A171 
 2588      F13B
 2589 1292 C5D55C9F 		.ascii	"\305\325\\\2372)\365\251\226\371\335\031\036\036\023"
 2589      3229F5A9 
 2589      96F9DD19 
 2589      1E1E13
 2590 12a1 735FF490 		.ascii	"s_\364\220E\031\025&\232h\231I\011\346\023\247\012y"
 2590      45191526 
 2590      9A689949 
 2590      09E613A7 
 2590      0A79
 2591 12b3 56653233 		.ascii	"Ve23\307:YE\243s\361\340W\274\271\030Q\034_\257+7#\307"
 2591      C73A5945 
 2591      A373F1E0 
 2591      57BCB918 
 2591      511C5FAF 
 2592 12cb A7D8FCCC 		.ascii	"\247\330\374\314d\177\272e\262\252\372r\237\321\263"
 2592      647FBA65 
 2592      B2AAFA72 
 2592      9FD1B3
 2593 12da C6A77CA6 		.ascii	"\306\247|\246\370x\346\251\330)g\342\377\344\332\225"
 2593      F878E6A9 
 2593      D82967E2 
ARM GAS  /tmp/ccY9soYc.s 			page 82


 2593      FFE4DA95 
 2594 12ea 2999AA3B 		.ascii	")\231\252;\307\243X}\236\251\210\227\021\342\267\251"
 2594      C7A3587D 
 2594      9EA98897 
 2594      11E2B7A9 
 2595 12fa ECD7A95A 		.ascii	"\354\327\251Z>\313r\245\343\231\027\357\343\231\037"
 2595      3ECB72A5 
 2595      E39917EF 
 2595      E3991F
 2596 1309 8743B1AB 		.ascii	"\207C\261\253\374\300\010\\\023\331\320\371\325\317"
 2596      FCC0085C 
 2596      13D9D0F9 
 2596      D5CF
 2597 1317 5D5999E9 		.ascii	"]Y\231\351\3318\271\262]^\305\222\223\345Q|\226le\262"
 2597      D938B9B2 
 2597      5D5EC592 
 2597      93E5517C 
 2597      966C65B2 
 2598 132b E2A36E75 		.ascii	"\342\243nu\012\361\347\306\346\342\014sb\300\3614\216"
 2598      0AF1E7C6 
 2598      E6E20C73 
 2598      62C0F134 
 2598      8E
 2599 133c B7DD39D9 		.ascii	"\267\3359\331\030`\365\037\243\005\312\235\343\365\346"
 2599      1860F51F 
 2599      A305CA9D 
 2599      E3F5E6
 2600 134b 64A7319C 		.ascii	"d\2471\234?\355W\037\1770\356\203)\0301\234\244\212"
 2600      3FED571F 
 2600      7F30EE83 
 2600      2918319C 
 2600      A48A
 2601 135d 73D25B5E 		.ascii	"s\322[^\214\232\314F\313\302Cf\361\346b\032S\317D\036"
 2601      8C9ACC46 
 2601      CBC24366 
 2601      F1E6621A 
 2601      53CF441E 
 2602 1371 32FF541C 		.ascii	"2\377T\034a\257\323\243L\314K\217\311ueg\272\235\350"
 2602      61AFD3A3 
 2602      4CCC4B8F 
 2602      C9756567 
 2602      BA9DE8
 2603 1384 5182F932 		.ascii	"Q\202\3712\232=IeQ\264x\224,\325\025\217\367\320.\305"
 2603      9A3D4965 
 2603      51B47894 
 2603      2CD5158F 
 2603      F7D02EC5 
 2604 1398 37C995E5 		.ascii	"7\311\225\345\344\2439)\323\247\346\261\223L\257\342"
 2604      E4A33929 
 2604      D3A7E6B1 
 2604      934CAFE2 
 2605 13a8 4B0C3B73 		.ascii	"K\014;s\252\1771\034 F\304\236\345\362\253\354<\206"
 2605      AA7F311C 
 2605      2046C49E 
 2605      E5F2ABEC 
 2605      3C86
 2606 13ba A9C2A353 		.ascii	"\251\302\243S}6\012\014#\350c\307xda\2431\225_\265\271"
ARM GAS  /tmp/ccY9soYc.s 			page 83


 2606      7D360A0C 
 2606      23E863C7 
 2606      786461A3 
 2606      31955FB5 
 2607 13cf F37C3824 		.ascii	"\363|8$j\234q\311\251\306\204\274!\252\327\232\363\331"
 2607      6A9C71C9 
 2607      A9C684BC 
 2607      21AAD79A 
 2607      F3D9
 2608 13e1 677E45B5 		.ascii	"g~E\265\371Tw6\336\373\333\247\347=\213R\222\352u\272"
 2608      F9547736 
 2608      DEFBDBA7 
 2608      E73D8B52 
 2608      92EA75BA 
 2609 13f5 716026FA 		.ascii	"q`&\372p\016\345\340\350\304\032\021\302\251$\022*%"
 2609      700EE5E0 
 2609      E8C41A11 
 2609      C2A92412 
 2609      2A25
 2610 1407 5A45B2B8 		.ascii	"ZE\262\270qX\375\016v\235\265\234\230~\330\014!\324"
 2610      7158FD0E 
 2610      769DB59C 
 2610      987ED80C 
 2610      21D4
 2611 1419 E7A37572 		.ascii	"\347\243ur\272|>\327T\273\252\270|\236\234\311\331\026"
 2611      BA7C3ED7 
 2611      54BBAAB8 
 2611      7C9E9CC9 
 2611      D916
 2612 142b 34382FD7 		.ascii	"48/\327\246\027\262\304a\005\316\236\207A\177}\254\223"
 2612      A617B2C4 
 2612      6105CE9E 
 2612      87417F7D 
 2612      AC93
 2613 143d 850227FB 		.ascii	"\205\002'\373xE\235\240d}\366\373\021\301\263\217p\200"
 2613      78459DA0 
 2613      647DF6FB 
 2613      11C1B38F 
 2613      7080
 2614 144f B1E84EFD 		.ascii	"\261\350N\375}\274\023\225\250\316w\1775\341\337>\372"
 2614      7DBC1395 
 2614      A8CE777F 
 2614      35E1DF3E 
 2614      FA
 2615 1460 F8BD7857 		.ascii	"\370\275xW\326d\327T?fRVf\266\362\356\037I\036\314-"
 2615      D664D754 
 2615      3F665256 
 2615      66B6F2EE 
 2615      1F491ECC 
 2616 1475 963A69E3 		.ascii	"\226:i\343>\230\360\336\204\264q\230;i\357\005\303\343"
 2616      3E98F0DE 
 2616      84B47198 
 2616      3B69EF05 
 2616      C3E3
 2617 1487 F567FA9D 		.ascii	"\365g\372\235\351n7+\013\241\262\203\255\011S\375\277"
 2617      E96E372B 
 2617      0BA1B283 
ARM GAS  /tmp/ccY9soYc.s 			page 84


 2617      AD0953FD 
 2617      BF
 2618 1498 CD717FFE 		.ascii	"\315q\177\376\364\272\212Ad}y\"ga\217X\336\367\223l"
 2618      F4BA8A41 
 2618      647D7922 
 2618      67618F58 
 2618      DEF7936C 
 2619 14ac DEE657F3 		.ascii	"\336\346W\363x\333\316\331\321\235\377\007\377\342\324"
 2619      78DBCED9 
 2619      D19DFF07 
 2619      FFE2D4
 2620 14bb 86       		.ascii	"\206"
 2621              		.text
 2622              		.section	.gnu.lto_.symtab.50336c8481b5a641,"e",%progbits
 2623 0000 72745F74 		.ascii	"rt_test_sequence_008\000"
 2623      6573745F 
 2623      73657175 
 2623      656E6365 
 2623      5F303038 
 2624 0015 00       		.ascii	"\000"
 2625 0016 00       		.ascii	"\000"
 2626 0017 00       		.ascii	"\000"
 2627 0018 00000000 		.ascii	"\000\000\000\000\000\000\000\000"
 2627      00000000 
 2628 0020 D3010000 		.ascii	"\323\001\000\000"
 2629 0024 72745F74 		.ascii	"rt_test_sequence_008_array\000"
 2629      6573745F 
 2629      73657175 
 2629      656E6365 
 2629      5F303038 
 2630 003f 00       		.ascii	"\000"
 2631 0040 00       		.ascii	"\000"
 2632 0041 00       		.ascii	"\000"
 2633 0042 00000000 		.ascii	"\000\000\000\000\000\000\000\000"
 2633      00000000 
 2634 004a E4010000 		.ascii	"\344\001\000\000"
 2635 004e 74657374 		.ascii	"test_step\000"
 2635      5F737465 
 2635      7000
 2636 0058 00       		.ascii	"\000"
 2637 0059 02       		.ascii	"\002"
 2638 005a 00       		.ascii	"\000"
 2639 005b 00000000 		.ascii	"\000\000\000\000\000\000\000\000"
 2639      00000000 
 2640 0063 0D010000 		.ascii	"\015\001\000\000"
 2641 0067 776100   		.ascii	"wa\000"
 2642 006a 00       		.ascii	"\000"
 2643 006b 02       		.ascii	"\002"
 2644 006c 00       		.ascii	"\000"
 2645 006d 00000000 		.ascii	"\000\000\000\000\000\000\000\000"
 2645      00000000 
 2646 0075 14010000 		.ascii	"\024\001\000\000"
 2647 0079 636800   		.ascii	"ch\000"
 2648 007c 00       		.ascii	"\000"
 2649 007d 02       		.ascii	"\002"
 2650 007e 00       		.ascii	"\000"
 2651 007f 00000000 		.ascii	"\000\000\000\000\000\000\000\000"
ARM GAS  /tmp/ccY9soYc.s 			page 85


 2651      00000000 
 2652 0087 C1010000 		.ascii	"\301\001\000\000"
 2653 008b 74687265 		.ascii	"threads\000"
 2653      61647300 
 2654 0093 00       		.ascii	"\000"
 2655 0094 02       		.ascii	"\002"
 2656 0095 00       		.ascii	"\000"
 2657 0096 00000000 		.ascii	"\000\000\000\000\000\000\000\000"
 2657      00000000 
 2658 009e C5010000 		.ascii	"\305\001\000\000"
 2659 00a2 63684D73 		.ascii	"chMsgSend\000"
 2659      6753656E 
 2659      6400
 2660 00ac 00       		.ascii	"\000"
 2661 00ad 02       		.ascii	"\002"
 2662 00ae 00       		.ascii	"\000"
 2663 00af 00000000 		.ascii	"\000\000\000\000\000\000\000\000"
 2663      00000000 
 2664 00b7 DF000000 		.ascii	"\337\000\000\000"
 2665 00bb 5F746573 		.ascii	"_test_assert_sequence\000"
 2665      745F6173 
 2665      73657274 
 2665      5F736571 
 2665      75656E63 
 2666 00d1 00       		.ascii	"\000"
 2667 00d2 02       		.ascii	"\002"
 2668 00d3 00       		.ascii	"\000"
 2669 00d4 00000000 		.ascii	"\000\000\000\000\000\000\000\000"
 2669      00000000 
 2670 00dc EB000000 		.ascii	"\353\000\000\000"
 2671 00e0 74657374 		.ascii	"test_wait_threads\000"
 2671      5F776169 
 2671      745F7468 
 2671      72656164 
 2671      7300
 2672 00f2 00       		.ascii	"\000"
 2673 00f3 02       		.ascii	"\002"
 2674 00f4 00       		.ascii	"\000"
 2675 00f5 00000000 		.ascii	"\000\000\000\000\000\000\000\000"
 2675      00000000 
 2676 00fd ED000000 		.ascii	"\355\000\000\000"
 2677 0101 74657374 		.ascii	"test_emit_token\000"
 2677      5F656D69 
 2677      745F746F 
 2677      6B656E00 
 2678 0111 00       		.ascii	"\000"
 2679 0112 02       		.ascii	"\002"
 2680 0113 00       		.ascii	"\000"
 2681 0114 00000000 		.ascii	"\000\000\000\000\000\000\000\000"
 2681      00000000 
 2682 011c F1000000 		.ascii	"\361\000\000\000"
 2683 0120 63684D73 		.ascii	"chMsgRelease\000"
 2683      6752656C 
 2683      65617365 
 2683      00
 2684 012d 00       		.ascii	"\000"
 2685 012e 02       		.ascii	"\002"
ARM GAS  /tmp/ccY9soYc.s 			page 86


 2686 012f 00       		.ascii	"\000"
 2687 0130 00000000 		.ascii	"\000\000\000\000\000\000\000\000"
 2687      00000000 
 2688 0138 F6000000 		.ascii	"\366\000\000\000"
 2689 013c 63684D73 		.ascii	"chMsgWaitS\000"
 2689      67576169 
 2689      745300
 2690 0147 00       		.ascii	"\000"
 2691 0148 02       		.ascii	"\002"
 2692 0149 00       		.ascii	"\000"
 2693 014a 00000000 		.ascii	"\000\000\000\000\000\000\000\000"
 2693      00000000 
 2694 0152 F9000000 		.ascii	"\371\000\000\000"
 2695 0156 63685468 		.ascii	"chThdCreateStatic\000"
 2695      64437265 
 2695      61746553 
 2695      74617469 
 2695      6300
 2696 0168 00       		.ascii	"\000"
 2697 0169 02       		.ascii	"\002"
 2698 016a 00       		.ascii	"\000"
 2699 016b 00000000 		.ascii	"\000\000\000\000\000\000\000\000"
 2699      00000000 
 2700 0173 0B010000 		.ascii	"\013\001\000\000"
 2701              		.text
 2702              		.section	.gnu.lto_.ext_symtab.50336c8481b5a641,"e",%progbits
 2703 0000 01       		.ascii	"\001"
 2704 0001 02       		.ascii	"\002"
 2705 0002 00       		.ascii	"\000"
 2706 0003 02       		.ascii	"\002"
 2707 0004 00       		.ascii	"\000"
 2708 0005 02       		.ascii	"\002"
 2709 0006 01       		.ascii	"\001"
 2710 0007 02       		.ascii	"\002"
 2711 0008 00       		.ascii	"\000"
 2712 0009 02       		.ascii	"\002"
 2713 000a 01       		.ascii	"\001"
 2714 000b 02       		.ascii	"\002"
 2715 000c 01       		.ascii	"\001"
 2716 000d 01       		.ascii	"\001"
 2717 000e 00       		.ascii	"\000"
 2718 000f 01       		.ascii	"\001"
 2719 0010 00       		.ascii	"\000"
 2720 0011 01       		.ascii	"\001"
 2721 0012 00       		.ascii	"\000"
 2722 0013 01       		.ascii	"\001"
 2723 0014 00       		.ascii	"\000"
 2724 0015 01       		.ascii	"\001"
 2725 0016 00       		.ascii	"\000"
 2726 0017 01       		.ascii	"\001"
 2727 0018 00       		.ascii	"\000"
 2728 0019 01       		.ascii	"\001"
 2729 001a 00       		.ascii	"\000"
 2730              		.text
 2731              		.section	.gnu.lto_.opts,"e",%progbits
 2732 0000 272D666E 		.ascii	"'-fno-openmp' '-fno-openacc' '-fno-pie' '-fcf-prote"
 2732      6F2D6F70 
ARM GAS  /tmp/ccY9soYc.s 			page 87


 2732      656E6D70 
 2732      2720272D 
 2732      666E6F2D 
 2733 0033 6374696F 		.ascii	"ction=none' '-g' '-mcpu=cortex-m4' '-mthumb' '-mflo"
 2733      6E3D6E6F 
 2733      6E652720 
 2733      272D6727 
 2733      20272D6D 
 2734 0066 61742D61 		.ascii	"at-abi=soft' '-march=armv7e-m' '-O2' '-fomit-frame-"
 2734      62693D73 
 2734      6F667427 
 2734      20272D6D 
 2734      61726368 
 2735 0099 706F696E 		.ascii	"pointer' '-falign-functions=16' '-ffunction-section"
 2735      74657227 
 2735      20272D66 
 2735      616C6967 
 2735      6E2D6675 
 2736 00cc 73272027 		.ascii	"s' '-fdata-sections' '-fno-common' '-flto' '-Xassem"
 2736      2D666461 
 2736      74612D73 
 2736      65637469 
 2736      6F6E7327 
 2737 00ff 626C6572 		.ascii	"bler' '-alms=./build/lst/rt_test_sequence_008.lst'\000"
 2737      2720272D 
 2737      616C6D73 
 2737      3D2E2F62 
 2737      75696C64 
 2738              		.text
 2739              		.comm	__gnu_lto_slim,1,1
 2740              		.ident	"GCC: (GNU Arm Embedded Toolchain 10-2020-q4-major) 10.2.1 20201103 (release)"
ARM GAS  /tmp/ccY9soYc.s 			page 88


DEFINED SYMBOLS
                            *ABS*:0000000000000000 rt_test_sequence_008.c
     /tmp/ccY9soYc.s:36     .gnu.debuglto_.debug_info:0000000000000000 rt_test_sequence_008.c.0dee06dc
                            *COM*:0000000000000001 __gnu_lto_slim

NO UNDEFINED SYMBOLS
