ARM GAS  /tmp/ccMb1niR.s 			page 1


   1              		.cpu cortex-m4
   2              		.eabi_attribute 20, 1
   3              		.eabi_attribute 21, 1
   4              		.eabi_attribute 23, 3
   5              		.eabi_attribute 24, 1
   6              		.eabi_attribute 25, 1
   7              		.eabi_attribute 26, 1
   8              		.eabi_attribute 30, 2
   9              		.eabi_attribute 34, 1
  10              		.eabi_attribute 18, 4
  11              		.file	"rt_test_sequence_007.c"
  12              		.file 1 "/usr/share/gcc-arm-none-eabi-10-2020-q4-major/lib/gcc/arm-none-eabi/10.2.1/include/stddef
  13              		.file 2 "/usr/share/gcc-arm-none-eabi-10-2020-q4-major/arm-none-eabi/include/machine/_default_type
  14              		.file 3 "/usr/share/gcc-arm-none-eabi-10-2020-q4-major/arm-none-eabi/include/sys/_stdint.h"
  15              		.file 4 "./ChibiOS_20.3.0/os/common/ports/ARMCMx/compilers/GCC/chtypes.h"
  16              		.file 5 "./ChibiOS_20.3.0/os/rt/include/chsystypes.h"
  17              		.file 6 "./ChibiOS_20.3.0/os/rt/include/chschd.h"
  18              		.file 7 "./ChibiOS_20.3.0/os/rt/include/chtime.h"
  19              		.file 8 "./ChibiOS_20.3.0/os/common/ports/ARMCMx/chcore.h"
  20              		.file 9 "./ChibiOS_20.3.0/os/common/ports/ARMCMx/chcore_v7m.h"
  21              		.file 10 "./ChibiOS_20.3.0/os/rt/include/chtm.h"
  22              		.file 11 "./ChibiOS_20.3.0/os/rt/include/chsem.h"
  23              		.file 12 "./ChibiOS_20.3.0/os/rt/include/chmtx.h"
  24              		.file 13 "./ChibiOS_20.3.0/os/rt/include/chcond.h"
  25              		.file 14 "./ChibiOS_20.3.0/test/lib/ch_test.h"
  26              		.file 15 "./ChibiOS_20.3.0/test/rt/source/test/rt_test_sequence_007.h"
  27              		.file 16 "./ChibiOS_20.3.0/test/rt/source/test/rt_test_root.h"
  28              		.file 17 "./ChibiOS_20.3.0/test/rt/source/test/rt_test_sequence_007.c"
  29              		.file 18 "./ChibiOS_20.3.0/os/rt/include/chthreads.h"
  30              		.file 19 "./ChibiOS_20.3.0/os/rt/include/chsys.h"
  31              		.file 20 "./ChibiOS_20.3.0/os/common/ext/ARM/CMSIS/Core/Include/cmsis_gcc.h"
  32              		.section	.gnu.debuglto_.debug_info,"e",%progbits
  33              	.Ldebug_info0:
  34              		.hidden	rt_test_sequence_007.c.73542311
  35              		.weak	rt_test_sequence_007.c.73542311
  36              	rt_test_sequence_007.c.73542311:
  37 0000 6B0A0000 		.4byte	0xa6b
  38 0004 0400     		.2byte	0x4
  39 0006 00000000 		.4byte	.Ldebug_abbrev0
  40 000a 04       		.byte	0x4
  41 000b 01       		.uleb128 0x1
  42 000c 3D030000 		.4byte	.LASF135
  43 0010 0C       		.byte	0xc
  44 0011 70020000 		.4byte	.LASF136
  45 0015 EB010000 		.4byte	.LASF137
  46 0019 00000000 		.4byte	.Ldebug_line0
  47 001d 02       		.uleb128 0x2
  48 001e 04       		.byte	0x4
  49 001f 05       		.byte	0x5
  50 0020 696E7400 		.ascii	"int\000"
  51 0024 03       		.uleb128 0x3
  52 0025 2D000000 		.4byte	.LASF4
  53 0029 01       		.byte	0x1
  54 002a D1       		.byte	0xd1
  55 002b 17       		.byte	0x17
  56 002c 30000000 		.4byte	0x30
  57 0030 04       		.uleb128 0x4
ARM GAS  /tmp/ccMb1niR.s 			page 2


  58 0031 04       		.byte	0x4
  59 0032 07       		.byte	0x7
  60 0033 3C020000 		.4byte	.LASF0
  61 0037 04       		.uleb128 0x4
  62 0038 08       		.byte	0x8
  63 0039 05       		.byte	0x5
  64 003a 1B010000 		.4byte	.LASF1
  65 003e 04       		.uleb128 0x4
  66 003f 08       		.byte	0x8
  67 0040 04       		.byte	0x4
  68 0041 D4010000 		.4byte	.LASF2
  69 0045 04       		.uleb128 0x4
  70 0046 01       		.byte	0x1
  71 0047 06       		.byte	0x6
  72 0048 29010000 		.4byte	.LASF3
  73 004c 03       		.uleb128 0x3
  74 004d 4A000000 		.4byte	.LASF5
  75 0051 02       		.byte	0x2
  76 0052 2B       		.byte	0x2b
  77 0053 18       		.byte	0x18
  78 0054 58000000 		.4byte	0x58
  79 0058 04       		.uleb128 0x4
  80 0059 01       		.byte	0x1
  81 005a 08       		.byte	0x8
  82 005b 48050000 		.4byte	.LASF6
  83 005f 04       		.uleb128 0x4
  84 0060 02       		.byte	0x2
  85 0061 05       		.byte	0x5
  86 0062 56050000 		.4byte	.LASF7
  87 0066 04       		.uleb128 0x4
  88 0067 02       		.byte	0x2
  89 0068 07       		.byte	0x7
  90 0069 AC020000 		.4byte	.LASF8
  91 006d 03       		.uleb128 0x3
  92 006e 02040000 		.4byte	.LASF9
  93 0072 02       		.byte	0x2
  94 0073 4D       		.byte	0x4d
  95 0074 18       		.byte	0x18
  96 0075 79000000 		.4byte	0x79
  97 0079 04       		.uleb128 0x4
  98 007a 04       		.byte	0x4
  99 007b 05       		.byte	0x5
 100 007c 7E010000 		.4byte	.LASF10
 101 0080 03       		.uleb128 0x3
 102 0081 E0010000 		.4byte	.LASF11
 103 0085 02       		.byte	0x2
 104 0086 4F       		.byte	0x4f
 105 0087 19       		.byte	0x19
 106 0088 8C000000 		.4byte	0x8c
 107 008c 04       		.uleb128 0x4
 108 008d 04       		.byte	0x4
 109 008e 07       		.byte	0x7
 110 008f F1050000 		.4byte	.LASF12
 111 0093 03       		.uleb128 0x3
 112 0094 F2040000 		.4byte	.LASF13
 113 0098 02       		.byte	0x2
 114 0099 69       		.byte	0x69
ARM GAS  /tmp/ccMb1niR.s 			page 3


 115 009a 19       		.byte	0x19
 116 009b 9F000000 		.4byte	0x9f
 117 009f 04       		.uleb128 0x4
 118 00a0 08       		.byte	0x8
 119 00a1 07       		.byte	0x7
 120 00a2 8B000000 		.4byte	.LASF14
 121 00a6 03       		.uleb128 0x3
 122 00a7 F1060000 		.4byte	.LASF15
 123 00ab 03       		.byte	0x3
 124 00ac 18       		.byte	0x18
 125 00ad 13       		.byte	0x13
 126 00ae 4C000000 		.4byte	0x4c
 127 00b2 03       		.uleb128 0x3
 128 00b3 40050000 		.4byte	.LASF16
 129 00b7 03       		.byte	0x3
 130 00b8 2C       		.byte	0x2c
 131 00b9 13       		.byte	0x13
 132 00ba 6D000000 		.4byte	0x6d
 133 00be 03       		.uleb128 0x3
 134 00bf CB050000 		.4byte	.LASF17
 135 00c3 03       		.byte	0x3
 136 00c4 30       		.byte	0x30
 137 00c5 14       		.byte	0x14
 138 00c6 80000000 		.4byte	0x80
 139 00ca 03       		.uleb128 0x3
 140 00cb 41000000 		.4byte	.LASF18
 141 00cf 03       		.byte	0x3
 142 00d0 3C       		.byte	0x3c
 143 00d1 14       		.byte	0x14
 144 00d2 93000000 		.4byte	0x93
 145 00d6 03       		.uleb128 0x3
 146 00d7 47040000 		.4byte	.LASF19
 147 00db 04       		.byte	0x4
 148 00dc 27       		.byte	0x27
 149 00dd 1D       		.byte	0x1d
 150 00de BE000000 		.4byte	0xbe
 151 00e2 03       		.uleb128 0x3
 152 00e3 1B030000 		.4byte	.LASF20
 153 00e7 04       		.byte	0x4
 154 00e8 2A       		.byte	0x2a
 155 00e9 1D       		.byte	0x1d
 156 00ea A6000000 		.4byte	0xa6
 157 00ee 03       		.uleb128 0x3
 158 00ef 87010000 		.4byte	.LASF21
 159 00f3 04       		.byte	0x4
 160 00f4 2B       		.byte	0x2b
 161 00f5 1D       		.byte	0x1d
 162 00f6 A6000000 		.4byte	0xa6
 163 00fa 03       		.uleb128 0x3
 164 00fb FD040000 		.4byte	.LASF22
 165 00ff 04       		.byte	0x4
 166 0100 2C       		.byte	0x2c
 167 0101 1D       		.byte	0x1d
 168 0102 A6000000 		.4byte	0xa6
 169 0106 03       		.uleb128 0x3
 170 0107 22050000 		.4byte	.LASF23
 171 010b 04       		.byte	0x4
ARM GAS  /tmp/ccMb1niR.s 			page 4


 172 010c 2E       		.byte	0x2e
 173 010d 1D       		.byte	0x1d
 174 010e BE000000 		.4byte	0xbe
 175 0112 03       		.uleb128 0x3
 176 0113 C9020000 		.4byte	.LASF24
 177 0117 04       		.byte	0x4
 178 0118 2F       		.byte	0x2f
 179 0119 1D       		.byte	0x1d
 180 011a B2000000 		.4byte	0xb2
 181 011e 03       		.uleb128 0x3
 182 011f 31030000 		.4byte	.LASF25
 183 0123 04       		.byte	0x4
 184 0124 31       		.byte	0x31
 185 0125 1D       		.byte	0x1d
 186 0126 BE000000 		.4byte	0xbe
 187 012a 03       		.uleb128 0x3
 188 012b 36020000 		.4byte	.LASF26
 189 012f 04       		.byte	0x4
 190 0130 33       		.byte	0x33
 191 0131 1D       		.byte	0x1d
 192 0132 B2000000 		.4byte	0xb2
 193 0136 03       		.uleb128 0x3
 194 0137 25060000 		.4byte	.LASF27
 195 013b 05       		.byte	0x5
 196 013c 34       		.byte	0x34
 197 013d 1A       		.byte	0x1a
 198 013e 42010000 		.4byte	0x142
 199 0142 05       		.uleb128 0x5
 200 0143 BF020000 		.4byte	.LASF45
 201 0147 44       		.byte	0x44
 202 0148 06       		.byte	0x6
 203 0149 8E       		.byte	0x8e
 204 014a 08       		.byte	0x8
 205 014b 32020000 		.4byte	0x232
 206 014f 06       		.uleb128 0x6
 207 0150 A8010000 		.4byte	.LASF28
 208 0154 06       		.byte	0x6
 209 0155 8F       		.byte	0x8f
 210 0156 19       		.byte	0x19
 211 0157 6B020000 		.4byte	0x26b
 212 015b 00       		.byte	0
 213 015c 06       		.uleb128 0x6
 214 015d CF040000 		.4byte	.LASF29
 215 0161 06       		.byte	0x6
 216 0162 90       		.byte	0x90
 217 0163 19       		.byte	0x19
 218 0164 06010000 		.4byte	0x106
 219 0168 08       		.byte	0x8
 220 0169 07       		.uleb128 0x7
 221 016a 63747800 		.ascii	"ctx\000"
 222 016e 06       		.byte	0x6
 223 016f 91       		.byte	0x91
 224 0170 19       		.byte	0x19
 225 0171 2A050000 		.4byte	0x52a
 226 0175 0C       		.byte	0xc
 227 0176 06       		.uleb128 0x6
 228 0177 38040000 		.4byte	.LASF30
ARM GAS  /tmp/ccMb1niR.s 			page 5


 229 017b 06       		.byte	0x6
 230 017c 93       		.byte	0x93
 231 017d 1A       		.byte	0x1a
 232 017e 3E020000 		.4byte	0x23e
 233 0182 10       		.byte	0x10
 234 0183 06       		.uleb128 0x6
 235 0184 0F060000 		.4byte	.LASF31
 236 0188 06       		.byte	0x6
 237 0189 94       		.byte	0x94
 238 018a 1A       		.byte	0x1a
 239 018b 3E020000 		.4byte	0x23e
 240 018f 14       		.byte	0x14
 241 0190 06       		.uleb128 0x6
 242 0191 6B020000 		.4byte	.LASF32
 243 0195 06       		.byte	0x6
 244 0196 9B       		.byte	0x9b
 245 0197 1A       		.byte	0x1a
 246 0198 49060000 		.4byte	0x649
 247 019c 18       		.byte	0x18
 248 019d 06       		.uleb128 0x6
 249 019e 03060000 		.4byte	.LASF33
 250 01a2 06       		.byte	0x6
 251 01a3 A4       		.byte	0xa4
 252 01a4 1A       		.byte	0x1a
 253 01a5 60060000 		.4byte	0x660
 254 01a9 1C       		.byte	0x1c
 255 01aa 06       		.uleb128 0x6
 256 01ab 70010000 		.4byte	.LASF34
 257 01af 06       		.byte	0x6
 258 01b0 A9       		.byte	0xa9
 259 01b1 19       		.byte	0x19
 260 01b2 EE000000 		.4byte	0xee
 261 01b6 20       		.byte	0x20
 262 01b7 06       		.uleb128 0x6
 263 01b8 F9060000 		.4byte	.LASF35
 264 01bc 06       		.byte	0x6
 265 01bd AD       		.byte	0xad
 266 01be 19       		.byte	0x19
 267 01bf E2000000 		.4byte	0xe2
 268 01c3 21       		.byte	0x21
 269 01c4 06       		.uleb128 0x6
 270 01c5 05050000 		.4byte	.LASF36
 271 01c9 06       		.byte	0x6
 272 01ca B2       		.byte	0xb2
 273 01cb 19       		.byte	0x19
 274 01cc FA000000 		.4byte	0xfa
 275 01d0 22       		.byte	0x22
 276 01d1 08       		.uleb128 0x8
 277 01d2 7500     		.ascii	"u\000"
 278 01d4 06       		.byte	0x6
 279 01d5 0301     		.2byte	0x103
 280 01d7 19       		.byte	0x19
 281 01d8 6F050000 		.4byte	0x56f
 282 01dc 24       		.byte	0x24
 283 01dd 09       		.uleb128 0x9
 284 01de 18020000 		.4byte	.LASF37
 285 01e2 06       		.byte	0x6
ARM GAS  /tmp/ccMb1niR.s 			page 6


 286 01e3 0801     		.2byte	0x108
 287 01e5 19       		.byte	0x19
 288 01e6 44020000 		.4byte	0x244
 289 01ea 28       		.byte	0x28
 290 01eb 09       		.uleb128 0x9
 291 01ec 5F010000 		.4byte	.LASF38
 292 01f0 06       		.byte	0x6
 293 01f1 0E01     		.2byte	0x10e
 294 01f3 19       		.byte	0x19
 295 01f4 6B020000 		.4byte	0x26b
 296 01f8 2C       		.byte	0x2c
 297 01f9 09       		.uleb128 0x9
 298 01fa CF020000 		.4byte	.LASF39
 299 01fe 06       		.byte	0x6
 300 01ff 1401     		.2byte	0x114
 301 0201 19       		.byte	0x19
 302 0202 1E010000 		.4byte	0x11e
 303 0206 34       		.byte	0x34
 304 0207 09       		.uleb128 0x9
 305 0208 87070000 		.4byte	.LASF40
 306 020c 06       		.byte	0x6
 307 020d 1B01     		.2byte	0x11b
 308 020f 1A       		.byte	0x1a
 309 0210 43060000 		.4byte	0x643
 310 0214 38       		.byte	0x38
 311 0215 09       		.uleb128 0x9
 312 0216 3E040000 		.4byte	.LASF41
 313 021a 06       		.byte	0x6
 314 021b 1F01     		.2byte	0x11f
 315 021d 19       		.byte	0x19
 316 021e 06010000 		.4byte	0x106
 317 0222 3C       		.byte	0x3c
 318 0223 09       		.uleb128 0x9
 319 0224 91060000 		.4byte	.LASF42
 320 0228 06       		.byte	0x6
 321 0229 2601     		.2byte	0x126
 322 022b 1A       		.byte	0x1a
 323 022c 30030000 		.4byte	0x330
 324 0230 40       		.byte	0x40
 325 0231 00       		.byte	0
 326 0232 03       		.uleb128 0x3
 327 0233 4F040000 		.4byte	.LASF43
 328 0237 05       		.byte	0x5
 329 0238 39       		.byte	0x39
 330 0239 14       		.byte	0x14
 331 023a 3E020000 		.4byte	0x23e
 332 023e 0A       		.uleb128 0xa
 333 023f 04       		.byte	0x4
 334 0240 36010000 		.4byte	0x136
 335 0244 03       		.uleb128 0x3
 336 0245 6C070000 		.4byte	.LASF44
 337 0249 05       		.byte	0x5
 338 024a 3E       		.byte	0x3e
 339 024b 20       		.byte	0x20
 340 024c 50020000 		.4byte	0x250
 341 0250 05       		.uleb128 0x5
 342 0251 DB050000 		.4byte	.LASF46
ARM GAS  /tmp/ccMb1niR.s 			page 7


 343 0255 04       		.byte	0x4
 344 0256 06       		.byte	0x6
 345 0257 7C       		.byte	0x7c
 346 0258 08       		.byte	0x8
 347 0259 6B020000 		.4byte	0x26b
 348 025d 06       		.uleb128 0x6
 349 025e 05010000 		.4byte	.LASF47
 350 0262 06       		.byte	0x6
 351 0263 7D       		.byte	0x7d
 352 0264 1A       		.byte	0x1a
 353 0265 3E020000 		.4byte	0x23e
 354 0269 00       		.byte	0
 355 026a 00       		.byte	0
 356 026b 03       		.uleb128 0x3
 357 026c AF060000 		.4byte	.LASF48
 358 0270 05       		.byte	0x5
 359 0271 45       		.byte	0x45
 360 0272 21       		.byte	0x21
 361 0273 7C020000 		.4byte	0x27c
 362 0277 0B       		.uleb128 0xb
 363 0278 6B020000 		.4byte	0x26b
 364 027c 05       		.uleb128 0x5
 365 027d 0A010000 		.4byte	.LASF49
 366 0281 08       		.byte	0x8
 367 0282 06       		.byte	0x6
 368 0283 83       		.byte	0x83
 369 0284 08       		.byte	0x8
 370 0285 A4020000 		.4byte	0x2a4
 371 0289 06       		.uleb128 0x6
 372 028a 05010000 		.4byte	.LASF47
 373 028e 06       		.byte	0x6
 374 028f 84       		.byte	0x84
 375 0290 1A       		.byte	0x1a
 376 0291 3E020000 		.4byte	0x23e
 377 0295 00       		.byte	0
 378 0296 06       		.uleb128 0x6
 379 0297 54000000 		.4byte	.LASF50
 380 029b 06       		.byte	0x6
 381 029c 85       		.byte	0x85
 382 029d 1A       		.byte	0x1a
 383 029e 3E020000 		.4byte	0x23e
 384 02a2 04       		.byte	0x4
 385 02a3 00       		.byte	0
 386 02a4 03       		.uleb128 0x3
 387 02a5 84060000 		.4byte	.LASF51
 388 02a9 05       		.byte	0x5
 389 02aa 4C       		.byte	0x4c
 390 02ab 1E       		.byte	0x1e
 391 02ac B0020000 		.4byte	0x2b0
 392 02b0 0C       		.uleb128 0xc
 393 02b1 23030000 		.4byte	.LASF52
 394 02b5 1C       		.byte	0x1c
 395 02b6 06       		.byte	0x6
 396 02b7 5E01     		.2byte	0x15e
 397 02b9 08       		.byte	0x8
 398 02ba 13030000 		.4byte	0x313
 399 02be 09       		.uleb128 0x9
ARM GAS  /tmp/ccMb1niR.s 			page 8


 400 02bf A8010000 		.4byte	.LASF28
 401 02c3 06       		.byte	0x6
 402 02c4 5F01     		.2byte	0x15f
 403 02c6 19       		.byte	0x19
 404 02c7 6B020000 		.4byte	0x26b
 405 02cb 00       		.byte	0
 406 02cc 09       		.uleb128 0x9
 407 02cd CF040000 		.4byte	.LASF29
 408 02d1 06       		.byte	0x6
 409 02d2 6001     		.2byte	0x160
 410 02d4 19       		.byte	0x19
 411 02d5 06010000 		.4byte	0x106
 412 02d9 08       		.byte	0x8
 413 02da 08       		.uleb128 0x8
 414 02db 63747800 		.ascii	"ctx\000"
 415 02df 06       		.byte	0x6
 416 02e0 6201     		.2byte	0x162
 417 02e2 19       		.byte	0x19
 418 02e3 2A050000 		.4byte	0x52a
 419 02e7 0C       		.byte	0xc
 420 02e8 09       		.uleb128 0x9
 421 02e9 38040000 		.4byte	.LASF30
 422 02ed 06       		.byte	0x6
 423 02ee 6501     		.2byte	0x165
 424 02f0 1A       		.byte	0x1a
 425 02f1 3E020000 		.4byte	0x23e
 426 02f5 10       		.byte	0x10
 427 02f6 09       		.uleb128 0x9
 428 02f7 0F060000 		.4byte	.LASF31
 429 02fb 06       		.byte	0x6
 430 02fc 6601     		.2byte	0x166
 431 02fe 1A       		.byte	0x1a
 432 02ff 3E020000 		.4byte	0x23e
 433 0303 14       		.byte	0x14
 434 0304 09       		.uleb128 0x9
 435 0305 EA040000 		.4byte	.LASF53
 436 0309 06       		.byte	0x6
 437 030a 6901     		.2byte	0x169
 438 030c 1A       		.byte	0x1a
 439 030d 3E020000 		.4byte	0x23e
 440 0311 18       		.byte	0x18
 441 0312 00       		.byte	0
 442 0313 03       		.uleb128 0x3
 443 0314 38060000 		.4byte	.LASF54
 444 0318 05       		.byte	0x5
 445 0319 51       		.byte	0x51
 446 031a 10       		.byte	0x10
 447 031b 1F030000 		.4byte	0x31f
 448 031f 0A       		.uleb128 0xa
 449 0320 04       		.byte	0x4
 450 0321 25030000 		.4byte	0x325
 451 0325 0D       		.uleb128 0xd
 452 0326 30030000 		.4byte	0x330
 453 032a 0E       		.uleb128 0xe
 454 032b 30030000 		.4byte	0x330
 455 032f 00       		.byte	0
 456 0330 0F       		.uleb128 0xf
ARM GAS  /tmp/ccMb1niR.s 			page 9


 457 0331 04       		.byte	0x4
 458 0332 0B       		.uleb128 0xb
 459 0333 30030000 		.4byte	0x330
 460 0337 03       		.uleb128 0x3
 461 0338 0A050000 		.4byte	.LASF55
 462 033c 05       		.byte	0x5
 463 033d 56       		.byte	0x56
 464 033e 21       		.byte	0x21
 465 033f 43030000 		.4byte	0x343
 466 0343 0C       		.uleb128 0xc
 467 0344 95050000 		.4byte	.LASF56
 468 0348 14       		.byte	0x14
 469 0349 06       		.byte	0x6
 470 034a 3901     		.2byte	0x139
 471 034c 08       		.byte	0x8
 472 034d 98030000 		.4byte	0x398
 473 0351 09       		.uleb128 0x9
 474 0352 05010000 		.4byte	.LASF47
 475 0356 06       		.byte	0x6
 476 0357 3A01     		.2byte	0x13a
 477 0359 1A       		.byte	0x1a
 478 035a 66060000 		.4byte	0x666
 479 035e 00       		.byte	0
 480 035f 09       		.uleb128 0x9
 481 0360 54000000 		.4byte	.LASF50
 482 0364 06       		.byte	0x6
 483 0365 3B01     		.2byte	0x13b
 484 0367 1A       		.byte	0x1a
 485 0368 66060000 		.4byte	0x666
 486 036c 04       		.byte	0x4
 487 036d 09       		.uleb128 0x9
 488 036e 34000000 		.4byte	.LASF57
 489 0372 06       		.byte	0x6
 490 0373 3C01     		.2byte	0x13c
 491 0375 19       		.byte	0x19
 492 0376 80040000 		.4byte	0x480
 493 037a 08       		.byte	0x8
 494 037b 09       		.uleb128 0x9
 495 037c 00010000 		.4byte	.LASF58
 496 0380 06       		.byte	0x6
 497 0381 3D01     		.2byte	0x13d
 498 0383 19       		.byte	0x19
 499 0384 13030000 		.4byte	0x313
 500 0388 0C       		.byte	0xc
 501 0389 08       		.uleb128 0x8
 502 038a 70617200 		.ascii	"par\000"
 503 038e 06       		.byte	0x6
 504 038f 3F01     		.2byte	0x13f
 505 0391 1A       		.byte	0x1a
 506 0392 30030000 		.4byte	0x330
 507 0396 10       		.byte	0x10
 508 0397 00       		.byte	0
 509 0398 03       		.uleb128 0x3
 510 0399 EA000000 		.4byte	.LASF59
 511 039d 05       		.byte	0x5
 512 039e 5B       		.byte	0x5b
 513 039f 28       		.byte	0x28
ARM GAS  /tmp/ccMb1niR.s 			page 10


 514 03a0 A4030000 		.4byte	0x3a4
 515 03a4 0C       		.uleb128 0xc
 516 03a5 62040000 		.4byte	.LASF60
 517 03a9 10       		.byte	0x10
 518 03aa 06       		.byte	0x6
 519 03ab 4901     		.2byte	0x149
 520 03ad 08       		.byte	0x8
 521 03ae EB030000 		.4byte	0x3eb
 522 03b2 09       		.uleb128 0x9
 523 03b3 05010000 		.4byte	.LASF47
 524 03b7 06       		.byte	0x6
 525 03b8 4A01     		.2byte	0x14a
 526 03ba 1A       		.byte	0x1a
 527 03bb 66060000 		.4byte	0x666
 528 03bf 00       		.byte	0
 529 03c0 09       		.uleb128 0x9
 530 03c1 54000000 		.4byte	.LASF50
 531 03c5 06       		.byte	0x6
 532 03c6 4C01     		.2byte	0x14c
 533 03c8 1A       		.byte	0x1a
 534 03c9 66060000 		.4byte	0x666
 535 03cd 04       		.byte	0x4
 536 03ce 09       		.uleb128 0x9
 537 03cf 34000000 		.4byte	.LASF57
 538 03d3 06       		.byte	0x6
 539 03d4 4E01     		.2byte	0x14e
 540 03d6 19       		.byte	0x19
 541 03d7 80040000 		.4byte	0x480
 542 03db 08       		.byte	0x8
 543 03dc 09       		.uleb128 0x9
 544 03dd 60050000 		.4byte	.LASF61
 545 03e1 06       		.byte	0x6
 546 03e2 5601     		.2byte	0x156
 547 03e4 19       		.byte	0x19
 548 03e5 74040000 		.4byte	0x474
 549 03e9 0C       		.byte	0xc
 550 03ea 00       		.byte	0
 551 03eb 03       		.uleb128 0x3
 552 03ec 65000000 		.4byte	.LASF62
 553 03f0 05       		.byte	0x5
 554 03f1 60       		.byte	0x60
 555 03f2 20       		.byte	0x20
 556 03f3 F7030000 		.4byte	0x3f7
 557 03f7 0C       		.uleb128 0xc
 558 03f8 2A050000 		.4byte	.LASF63
 559 03fc 04       		.byte	0x4
 560 03fd 06       		.byte	0x6
 561 03fe 7001     		.2byte	0x170
 562 0400 08       		.byte	0x8
 563 0401 14040000 		.4byte	0x414
 564 0405 09       		.uleb128 0x9
 565 0406 4F060000 		.4byte	.LASF64
 566 040a 06       		.byte	0x6
 567 040b 7801     		.2byte	0x178
 568 040d 24       		.byte	0x24
 569 040e 4F060000 		.4byte	0x64f
 570 0412 00       		.byte	0
ARM GAS  /tmp/ccMb1niR.s 			page 11


 571 0413 00       		.byte	0
 572 0414 03       		.uleb128 0x3
 573 0415 78060000 		.4byte	.LASF65
 574 0419 05       		.byte	0x5
 575 041a 65       		.byte	0x65
 576 041b 1A       		.byte	0x1a
 577 041c 20040000 		.4byte	0x420
 578 0420 0C       		.uleb128 0xc
 579 0421 78050000 		.4byte	.LASF66
 580 0425 78       		.byte	0x78
 581 0426 06       		.byte	0x6
 582 0427 9001     		.2byte	0x190
 583 0429 08       		.byte	0x8
 584 042a 74040000 		.4byte	0x474
 585 042e 09       		.uleb128 0x9
 586 042f DD060000 		.4byte	.LASF67
 587 0433 06       		.byte	0x6
 588 0434 9401     		.2byte	0x194
 589 0436 19       		.byte	0x19
 590 0437 A4020000 		.4byte	0x2a4
 591 043b 00       		.byte	0
 592 043c 09       		.uleb128 0x9
 593 043d 4C010000 		.4byte	.LASF68
 594 0441 06       		.byte	0x6
 595 0442 9801     		.2byte	0x198
 596 0444 19       		.byte	0x19
 597 0445 98030000 		.4byte	0x398
 598 0449 1C       		.byte	0x1c
 599 044a 08       		.uleb128 0x8
 600 044b 64626700 		.ascii	"dbg\000"
 601 044f 06       		.byte	0x6
 602 0450 9C01     		.2byte	0x19c
 603 0452 19       		.byte	0x19
 604 0453 EB030000 		.4byte	0x3eb
 605 0457 2C       		.byte	0x2c
 606 0458 09       		.uleb128 0x9
 607 0459 D7000000 		.4byte	.LASF69
 608 045d 06       		.byte	0x6
 609 045e A001     		.2byte	0x1a0
 610 0460 19       		.byte	0x19
 611 0461 36010000 		.4byte	0x136
 612 0465 30       		.byte	0x30
 613 0466 08       		.uleb128 0x8
 614 0467 746D00   		.ascii	"tm\000"
 615 046a 06       		.byte	0x6
 616 046b A501     		.2byte	0x1a5
 617 046d 19       		.byte	0x19
 618 046e 63050000 		.4byte	0x563
 619 0472 74       		.byte	0x74
 620 0473 00       		.byte	0
 621 0474 03       		.uleb128 0x3
 622 0475 2E060000 		.4byte	.LASF70
 623 0479 07       		.byte	0x7
 624 047a 6D       		.byte	0x6d
 625 047b 12       		.byte	0x12
 626 047c BE000000 		.4byte	0xbe
 627 0480 03       		.uleb128 0x3
ARM GAS  /tmp/ccMb1niR.s 			page 12


 628 0481 28020000 		.4byte	.LASF71
 629 0485 07       		.byte	0x7
 630 0486 79       		.byte	0x79
 631 0487 12       		.byte	0x12
 632 0488 BE000000 		.4byte	0xbe
 633 048c 03       		.uleb128 0x3
 634 048d 5F020000 		.4byte	.LASF72
 635 0491 07       		.byte	0x7
 636 0492 96       		.byte	0x96
 637 0493 12       		.byte	0x12
 638 0494 CA000000 		.4byte	0xca
 639 0498 03       		.uleb128 0x3
 640 0499 22040000 		.4byte	.LASF73
 641 049d 08       		.byte	0x8
 642 049e 68       		.byte	0x68
 643 049f 12       		.byte	0x12
 644 04a0 CA000000 		.4byte	0xca
 645 04a4 0C       		.uleb128 0xc
 646 04a5 59000000 		.4byte	.LASF74
 647 04a9 24       		.byte	0x24
 648 04aa 09       		.byte	0x9
 649 04ab 8501     		.2byte	0x185
 650 04ad 08       		.byte	0x8
 651 04ae 2A050000 		.4byte	0x52a
 652 04b2 08       		.uleb128 0x8
 653 04b3 723400   		.ascii	"r4\000"
 654 04b6 09       		.byte	0x9
 655 04b7 9E01     		.2byte	0x19e
 656 04b9 11       		.byte	0x11
 657 04ba BE000000 		.4byte	0xbe
 658 04be 00       		.byte	0
 659 04bf 08       		.uleb128 0x8
 660 04c0 723500   		.ascii	"r5\000"
 661 04c3 09       		.byte	0x9
 662 04c4 9F01     		.2byte	0x19f
 663 04c6 11       		.byte	0x11
 664 04c7 BE000000 		.4byte	0xbe
 665 04cb 04       		.byte	0x4
 666 04cc 08       		.uleb128 0x8
 667 04cd 723600   		.ascii	"r6\000"
 668 04d0 09       		.byte	0x9
 669 04d1 A001     		.2byte	0x1a0
 670 04d3 11       		.byte	0x11
 671 04d4 BE000000 		.4byte	0xbe
 672 04d8 08       		.byte	0x8
 673 04d9 08       		.uleb128 0x8
 674 04da 723700   		.ascii	"r7\000"
 675 04dd 09       		.byte	0x9
 676 04de A101     		.2byte	0x1a1
 677 04e0 11       		.byte	0x11
 678 04e1 BE000000 		.4byte	0xbe
 679 04e5 0C       		.byte	0xc
 680 04e6 08       		.uleb128 0x8
 681 04e7 723800   		.ascii	"r8\000"
 682 04ea 09       		.byte	0x9
 683 04eb A201     		.2byte	0x1a2
 684 04ed 11       		.byte	0x11
ARM GAS  /tmp/ccMb1niR.s 			page 13


 685 04ee BE000000 		.4byte	0xbe
 686 04f2 10       		.byte	0x10
 687 04f3 08       		.uleb128 0x8
 688 04f4 723900   		.ascii	"r9\000"
 689 04f7 09       		.byte	0x9
 690 04f8 A301     		.2byte	0x1a3
 691 04fa 11       		.byte	0x11
 692 04fb BE000000 		.4byte	0xbe
 693 04ff 14       		.byte	0x14
 694 0500 08       		.uleb128 0x8
 695 0501 72313000 		.ascii	"r10\000"
 696 0505 09       		.byte	0x9
 697 0506 A401     		.2byte	0x1a4
 698 0508 11       		.byte	0x11
 699 0509 BE000000 		.4byte	0xbe
 700 050d 18       		.byte	0x18
 701 050e 08       		.uleb128 0x8
 702 050f 72313100 		.ascii	"r11\000"
 703 0513 09       		.byte	0x9
 704 0514 A501     		.2byte	0x1a5
 705 0516 11       		.byte	0x11
 706 0517 BE000000 		.4byte	0xbe
 707 051b 1C       		.byte	0x1c
 708 051c 08       		.uleb128 0x8
 709 051d 6C7200   		.ascii	"lr\000"
 710 0520 09       		.byte	0x9
 711 0521 A601     		.2byte	0x1a6
 712 0523 11       		.byte	0x11
 713 0524 BE000000 		.4byte	0xbe
 714 0528 20       		.byte	0x20
 715 0529 00       		.byte	0
 716 052a 0C       		.uleb128 0xc
 717 052b 7E000000 		.4byte	.LASF75
 718 052f 04       		.byte	0x4
 719 0530 09       		.byte	0x9
 720 0531 A901     		.2byte	0x1a9
 721 0533 08       		.byte	0x8
 722 0534 46050000 		.4byte	0x546
 723 0538 08       		.uleb128 0x8
 724 0539 737000   		.ascii	"sp\000"
 725 053c 09       		.byte	0x9
 726 053d AA01     		.2byte	0x1aa
 727 053f 1A       		.byte	0x1a
 728 0540 46050000 		.4byte	0x546
 729 0544 00       		.byte	0
 730 0545 00       		.byte	0
 731 0546 0A       		.uleb128 0xa
 732 0547 04       		.byte	0x4
 733 0548 A4040000 		.4byte	0x4a4
 734 054c 10       		.uleb128 0x10
 735 054d 04       		.byte	0x4
 736 054e 0A       		.byte	0xa
 737 054f 38       		.byte	0x38
 738 0550 09       		.byte	0x9
 739 0551 63050000 		.4byte	0x563
 740 0555 06       		.uleb128 0x6
 741 0556 59060000 		.4byte	.LASF76
ARM GAS  /tmp/ccMb1niR.s 			page 14


 742 055a 0A       		.byte	0xa
 743 055b 3C       		.byte	0x3c
 744 055c 19       		.byte	0x19
 745 055d D6000000 		.4byte	0xd6
 746 0561 00       		.byte	0
 747 0562 00       		.byte	0
 748 0563 03       		.uleb128 0x3
 749 0564 96040000 		.4byte	.LASF77
 750 0568 0A       		.byte	0xa
 751 0569 3D       		.byte	0x3d
 752 056a 03       		.byte	0x3
 753 056b 4C050000 		.4byte	0x54c
 754 056f 11       		.uleb128 0x11
 755 0570 04       		.byte	0x4
 756 0571 06       		.byte	0x6
 757 0572 C6       		.byte	0xc6
 758 0573 03       		.byte	0x3
 759 0574 DA050000 		.4byte	0x5da
 760 0578 12       		.uleb128 0x12
 761 0579 3A000000 		.4byte	.LASF78
 762 057d 06       		.byte	0x6
 763 057e CD       		.byte	0xcd
 764 057f 19       		.byte	0x19
 765 0580 12010000 		.4byte	0x112
 766 0584 12       		.uleb128 0x12
 767 0585 CE000000 		.4byte	.LASF79
 768 0589 06       		.byte	0x6
 769 058a D4       		.byte	0xd4
 770 058b 19       		.byte	0x19
 771 058c 12010000 		.4byte	0x112
 772 0590 12       		.uleb128 0x12
 773 0591 2F070000 		.4byte	.LASF80
 774 0595 06       		.byte	0x6
 775 0596 DB       		.byte	0xdb
 776 0597 1A       		.byte	0x1a
 777 0598 30030000 		.4byte	0x330
 778 059c 12       		.uleb128 0x12
 779 059d 50020000 		.4byte	.LASF81
 780 05a1 06       		.byte	0x6
 781 05a2 E2       		.byte	0xe2
 782 05a3 1A       		.byte	0x1a
 783 05a4 DA050000 		.4byte	0x5da
 784 05a8 12       		.uleb128 0x12
 785 05a9 E2000000 		.4byte	.LASF82
 786 05ad 06       		.byte	0x6
 787 05ae E7       		.byte	0xe7
 788 05af 19       		.byte	0x19
 789 05b0 12010000 		.4byte	0x112
 790 05b4 12       		.uleb128 0x12
 791 05b5 49020000 		.4byte	.LASF83
 792 05b9 06       		.byte	0x6
 793 05ba F0       		.byte	0xf0
 794 05bb 1A       		.byte	0x1a
 795 05bc 08060000 		.4byte	0x608
 796 05c0 12       		.uleb128 0x12
 797 05c1 D4050000 		.4byte	.LASF84
 798 05c5 06       		.byte	0x6
ARM GAS  /tmp/ccMb1niR.s 			page 15


 799 05c6 F9       		.byte	0xf9
 800 05c7 1A       		.byte	0x1a
 801 05c8 43060000 		.4byte	0x643
 802 05cc 13       		.uleb128 0x13
 803 05cd 71050000 		.4byte	.LASF85
 804 05d1 06       		.byte	0x6
 805 05d2 0101     		.2byte	0x101
 806 05d4 19       		.byte	0x19
 807 05d5 1E010000 		.4byte	0x11e
 808 05d9 00       		.byte	0
 809 05da 0A       		.uleb128 0xa
 810 05db 04       		.byte	0x4
 811 05dc 32020000 		.4byte	0x232
 812 05e0 05       		.uleb128 0x5
 813 05e1 A6050000 		.4byte	.LASF86
 814 05e5 0C       		.byte	0xc
 815 05e6 0B       		.byte	0xb
 816 05e7 34       		.byte	0x34
 817 05e8 10       		.byte	0x10
 818 05e9 08060000 		.4byte	0x608
 819 05ed 06       		.uleb128 0x6
 820 05ee A8010000 		.4byte	.LASF28
 821 05f2 0B       		.byte	0xb
 822 05f3 35       		.byte	0x35
 823 05f4 19       		.byte	0x19
 824 05f5 6B020000 		.4byte	0x26b
 825 05f9 00       		.byte	0
 826 05fa 07       		.uleb128 0x7
 827 05fb 636E7400 		.ascii	"cnt\000"
 828 05ff 0B       		.byte	0xb
 829 0600 37       		.byte	0x37
 830 0601 19       		.byte	0x19
 831 0602 2A010000 		.4byte	0x12a
 832 0606 08       		.byte	0x8
 833 0607 00       		.byte	0
 834 0608 0A       		.uleb128 0xa
 835 0609 04       		.byte	0x4
 836 060a E0050000 		.4byte	0x5e0
 837 060e 05       		.uleb128 0x5
 838 060f BF060000 		.4byte	.LASF87
 839 0613 10       		.byte	0x10
 840 0614 0C       		.byte	0xc
 841 0615 39       		.byte	0x39
 842 0616 08       		.byte	0x8
 843 0617 43060000 		.4byte	0x643
 844 061b 06       		.uleb128 0x6
 845 061c A8010000 		.4byte	.LASF28
 846 0620 0C       		.byte	0xc
 847 0621 3A       		.byte	0x3a
 848 0622 19       		.byte	0x19
 849 0623 6B020000 		.4byte	0x26b
 850 0627 00       		.byte	0
 851 0628 06       		.uleb128 0x6
 852 0629 EB050000 		.4byte	.LASF88
 853 062d 0C       		.byte	0xc
 854 062e 3C       		.byte	0x3c
 855 062f 1A       		.byte	0x1a
ARM GAS  /tmp/ccMb1niR.s 			page 16


 856 0630 3E020000 		.4byte	0x23e
 857 0634 08       		.byte	0x8
 858 0635 06       		.uleb128 0x6
 859 0636 05010000 		.4byte	.LASF47
 860 063a 0C       		.byte	0xc
 861 063b 3E       		.byte	0x3e
 862 063c 1A       		.byte	0x1a
 863 063d 84060000 		.4byte	0x684
 864 0641 0C       		.byte	0xc
 865 0642 00       		.byte	0
 866 0643 0A       		.uleb128 0xa
 867 0644 04       		.byte	0x4
 868 0645 0E060000 		.4byte	0x60e
 869 0649 0A       		.uleb128 0xa
 870 064a 04       		.byte	0x4
 871 064b 5B060000 		.4byte	0x65b
 872 064f 14       		.uleb128 0x14
 873 0650 49060000 		.4byte	0x649
 874 0654 04       		.uleb128 0x4
 875 0655 01       		.byte	0x1
 876 0656 08       		.byte	0x8
 877 0657 0A060000 		.4byte	.LASF89
 878 065b 0B       		.uleb128 0xb
 879 065c 54060000 		.4byte	0x654
 880 0660 0A       		.uleb128 0xa
 881 0661 04       		.byte	0x4
 882 0662 98040000 		.4byte	0x498
 883 0666 0A       		.uleb128 0xa
 884 0667 04       		.byte	0x4
 885 0668 37030000 		.4byte	0x337
 886 066c 15       		.uleb128 0x15
 887 066d 636800   		.ascii	"ch\000"
 888 0670 06       		.byte	0x6
 889 0671 C701     		.2byte	0x1c7
 890 0673 14       		.byte	0x14
 891 0674 14040000 		.4byte	0x414
 892 0678 03       		.uleb128 0x3
 893 0679 20020000 		.4byte	.LASF90
 894 067d 0C       		.byte	0xc
 895 067e 34       		.byte	0x34
 896 067f 19       		.byte	0x19
 897 0680 0E060000 		.4byte	0x60e
 898 0684 0A       		.uleb128 0xa
 899 0685 04       		.byte	0x4
 900 0686 78060000 		.4byte	0x678
 901 068a 05       		.uleb128 0x5
 902 068b 83040000 		.4byte	.LASF91
 903 068f 08       		.byte	0x8
 904 0690 0D       		.byte	0xd
 905 0691 3B       		.byte	0x3b
 906 0692 10       		.byte	0x10
 907 0693 A5060000 		.4byte	0x6a5
 908 0697 06       		.uleb128 0x6
 909 0698 A8010000 		.4byte	.LASF28
 910 069c 0D       		.byte	0xd
 911 069d 3C       		.byte	0x3c
 912 069e 19       		.byte	0x19
ARM GAS  /tmp/ccMb1niR.s 			page 17


 913 069f 6B020000 		.4byte	0x26b
 914 06a3 00       		.byte	0
 915 06a4 00       		.byte	0
 916 06a5 03       		.uleb128 0x3
 917 06a6 C8060000 		.4byte	.LASF92
 918 06aa 0D       		.byte	0xd
 919 06ab 3E       		.byte	0x3e
 920 06ac 03       		.byte	0x3
 921 06ad 8A060000 		.4byte	0x68a
 922 06b1 04       		.uleb128 0x4
 923 06b2 01       		.byte	0x1
 924 06b3 02       		.byte	0x2
 925 06b4 3A050000 		.4byte	.LASF93
 926 06b8 10       		.uleb128 0x10
 927 06b9 10       		.byte	0x10
 928 06ba 0E       		.byte	0xe
 929 06bb 4C       		.byte	0x4c
 930 06bc 09       		.byte	0x9
 931 06bd F6060000 		.4byte	0x6f6
 932 06c1 06       		.uleb128 0x6
 933 06c2 6B020000 		.4byte	.LASF32
 934 06c6 0E       		.byte	0xe
 935 06c7 4D       		.byte	0x4d
 936 06c8 0F       		.byte	0xf
 937 06c9 49060000 		.4byte	0x649
 938 06cd 00       		.byte	0
 939 06ce 06       		.uleb128 0x6
 940 06cf C9040000 		.4byte	.LASF94
 941 06d3 0E       		.byte	0xe
 942 06d4 4E       		.byte	0x4e
 943 06d5 0A       		.byte	0xa
 944 06d6 F7060000 		.4byte	0x6f7
 945 06da 04       		.byte	0x4
 946 06db 06       		.uleb128 0x6
 947 06dc 56020000 		.4byte	.LASF95
 948 06e0 0E       		.byte	0xe
 949 06e1 4F       		.byte	0x4f
 950 06e2 0A       		.byte	0xa
 951 06e3 F7060000 		.4byte	0x6f7
 952 06e7 08       		.byte	0x8
 953 06e8 06       		.uleb128 0x6
 954 06e9 1A050000 		.4byte	.LASF96
 955 06ed 0E       		.byte	0xe
 956 06ee 50       		.byte	0x50
 957 06ef 0A       		.byte	0xa
 958 06f0 F7060000 		.4byte	0x6f7
 959 06f4 0C       		.byte	0xc
 960 06f5 00       		.byte	0
 961 06f6 16       		.uleb128 0x16
 962 06f7 0A       		.uleb128 0xa
 963 06f8 04       		.byte	0x4
 964 06f9 F6060000 		.4byte	0x6f6
 965 06fd 03       		.uleb128 0x3
 966 06fe 2D040000 		.4byte	.LASF97
 967 0702 0E       		.byte	0xe
 968 0703 51       		.byte	0x51
 969 0704 03       		.byte	0x3
ARM GAS  /tmp/ccMb1niR.s 			page 18


 970 0705 B8060000 		.4byte	0x6b8
 971 0709 0B       		.uleb128 0xb
 972 070a FD060000 		.4byte	0x6fd
 973 070e 10       		.uleb128 0x10
 974 070f 08       		.byte	0x8
 975 0710 0E       		.byte	0xe
 976 0711 56       		.byte	0x56
 977 0712 09       		.byte	0x9
 978 0713 32070000 		.4byte	0x732
 979 0717 06       		.uleb128 0x6
 980 0718 6B020000 		.4byte	.LASF32
 981 071c 0E       		.byte	0xe
 982 071d 57       		.byte	0x57
 983 071e 16       		.byte	0x16
 984 071f 49060000 		.4byte	0x649
 985 0723 00       		.byte	0
 986 0724 06       		.uleb128 0x6
 987 0725 A8070000 		.4byte	.LASF98
 988 0729 0E       		.byte	0xe
 989 072a 58       		.byte	0x58
 990 072b 1E       		.byte	0x1e
 991 072c 32070000 		.4byte	0x732
 992 0730 04       		.byte	0x4
 993 0731 00       		.byte	0
 994 0732 0A       		.uleb128 0xa
 995 0733 04       		.byte	0x4
 996 0734 3E070000 		.4byte	0x73e
 997 0738 0A       		.uleb128 0xa
 998 0739 04       		.byte	0x4
 999 073a 09070000 		.4byte	0x709
 1000 073e 0B       		.uleb128 0xb
 1001 073f 38070000 		.4byte	0x738
 1002 0743 03       		.uleb128 0x3
 1003 0744 35010000 		.4byte	.LASF99
 1004 0748 0E       		.byte	0xe
 1005 0749 59       		.byte	0x59
 1006 074a 03       		.byte	0x3
 1007 074b 0E070000 		.4byte	0x70e
 1008 074f 0B       		.uleb128 0xb
 1009 0750 43070000 		.4byte	0x743
 1010 0754 17       		.uleb128 0x17
 1011 0755 79040000 		.4byte	.LASF100
 1012 0759 0E       		.byte	0xe
 1013 075a C9       		.byte	0xc9
 1014 075b 11       		.byte	0x11
 1015 075c 30000000 		.4byte	0x30
 1016 0760 17       		.uleb128 0x17
 1017 0761 F0020000 		.4byte	.LASF101
 1018 0765 0F       		.byte	0xf
 1019 0766 19       		.byte	0x19
 1020 0767 1D       		.byte	0x1d
 1021 0768 4F070000 		.4byte	0x74f
 1022 076c 18       		.uleb128 0x18
 1023 076d 3E020000 		.4byte	0x23e
 1024 0771 7C070000 		.4byte	0x77c
 1025 0775 19       		.uleb128 0x19
 1026 0776 30000000 		.4byte	0x30
ARM GAS  /tmp/ccMb1niR.s 			page 19


 1027 077a 04       		.byte	0x4
 1028 077b 00       		.byte	0
 1029 077c 17       		.uleb128 0x17
 1030 077d 69050000 		.4byte	.LASF102
 1031 0781 10       		.byte	0x10
 1032 0782 58       		.byte	0x58
 1033 0783 12       		.byte	0x12
 1034 0784 6C070000 		.4byte	0x76c
 1035 0788 18       		.uleb128 0x18
 1036 0789 32030000 		.4byte	0x332
 1037 078d 98070000 		.4byte	0x798
 1038 0791 19       		.uleb128 0x19
 1039 0792 30000000 		.4byte	0x30
 1040 0796 04       		.byte	0x4
 1041 0797 00       		.byte	0
 1042 0798 0B       		.uleb128 0xb
 1043 0799 88070000 		.4byte	0x788
 1044 079d 1A       		.uleb128 0x1a
 1045 079e 776100   		.ascii	"wa\000"
 1046 07a1 10       		.byte	0x10
 1047 07a2 59       		.byte	0x59
 1048 07a3 18       		.byte	0x18
 1049 07a4 98070000 		.4byte	0x798
 1050 07a8 1B       		.uleb128 0x1b
 1051 07a9 6D3100   		.ascii	"m1\000"
 1052 07ac 11       		.byte	0x11
 1053 07ad 39       		.byte	0x39
 1054 07ae 08       		.byte	0x8
 1055 07af 78060000 		.4byte	0x678
 1056 07b3 1B       		.uleb128 0x1b
 1057 07b4 6D3200   		.ascii	"m2\000"
 1058 07b7 11       		.byte	0x11
 1059 07b8 3A       		.byte	0x3a
 1060 07b9 08       		.byte	0x8
 1061 07ba 78060000 		.4byte	0x678
 1062 07be 1B       		.uleb128 0x1b
 1063 07bf 633100   		.ascii	"c1\000"
 1064 07c2 11       		.byte	0x11
 1065 07c3 3C       		.byte	0x3c
 1066 07c4 08       		.byte	0x8
 1067 07c5 A5060000 		.4byte	0x6a5
 1068 07c9 1C       		.uleb128 0x1c
 1069 07ca FF060000 		.4byte	.LASF103
 1070 07ce 11       		.byte	0x11
 1071 07cf 2D01     		.2byte	0x12d
 1072 07d1 19       		.byte	0x19
 1073 07d2 09070000 		.4byte	0x709
 1074 07d6 1C       		.uleb128 0x1c
 1075 07d7 0F070000 		.4byte	.LASF104
 1076 07db 11       		.byte	0x11
 1077 07dc 4102     		.2byte	0x241
 1078 07de 19       		.byte	0x19
 1079 07df 09070000 		.4byte	0x709
 1080 07e3 1C       		.uleb128 0x1c
 1081 07e4 1F070000 		.4byte	.LASF105
 1082 07e8 11       		.byte	0x11
 1083 07e9 AC02     		.2byte	0x2ac
ARM GAS  /tmp/ccMb1niR.s 			page 20


 1084 07eb 19       		.byte	0x19
 1085 07ec 09070000 		.4byte	0x709
 1086 07f0 1C       		.uleb128 0x1c
 1087 07f1 15060000 		.4byte	.LASF106
 1088 07f5 11       		.byte	0x11
 1089 07f6 8703     		.2byte	0x387
 1090 07f8 19       		.byte	0x19
 1091 07f9 09070000 		.4byte	0x709
 1092 07fd 1C       		.uleb128 0x1c
 1093 07fe 36070000 		.4byte	.LASF107
 1094 0802 11       		.byte	0x11
 1095 0803 C603     		.2byte	0x3c6
 1096 0805 19       		.byte	0x19
 1097 0806 09070000 		.4byte	0x709
 1098 080a 1C       		.uleb128 0x1c
 1099 080b 46070000 		.4byte	.LASF108
 1100 080f 11       		.byte	0x11
 1101 0810 3104     		.2byte	0x431
 1102 0812 19       		.byte	0x19
 1103 0813 09070000 		.4byte	0x709
 1104 0817 18       		.uleb128 0x18
 1105 0818 3E070000 		.4byte	0x73e
 1106 081c 27080000 		.4byte	0x827
 1107 0820 19       		.uleb128 0x19
 1108 0821 30000000 		.4byte	0x30
 1109 0825 06       		.byte	0x6
 1110 0826 00       		.byte	0
 1111 0827 0B       		.uleb128 0xb
 1112 0828 17080000 		.4byte	0x817
 1113 082c 1D       		.uleb128 0x1d
 1114 082d 00000000 		.4byte	.LASF138
 1115 0831 11       		.byte	0x11
 1116 0832 4004     		.2byte	0x440
 1117 0834 1A       		.byte	0x1a
 1118 0835 27080000 		.4byte	0x827
 1119 0839 1E       		.uleb128 0x1e
 1120 083a 60070000 		.4byte	0x760
 1121 083e 11       		.byte	0x11
 1122 083f 5E04     		.2byte	0x45e
 1123 0841 16       		.byte	0x16
 1124 0842 1F       		.uleb128 0x1f
 1125 0843 BC010000 		.4byte	.LASF109
 1126 0847 11       		.byte	0x11
 1127 0848 F603     		.2byte	0x3f6
 1128 084a 0D       		.byte	0xd
 1129 084b 5D080000 		.4byte	0x85d
 1130 084f 1C       		.uleb128 0x1c
 1131 0850 CF040000 		.4byte	.LASF29
 1132 0854 11       		.byte	0x11
 1133 0855 F703     		.2byte	0x3f7
 1134 0857 0B       		.byte	0xb
 1135 0858 06010000 		.4byte	0x106
 1136 085c 00       		.byte	0
 1137 085d 20       		.uleb128 0x20
 1138 085e 0C040000 		.4byte	.LASF111
 1139 0862 11       		.byte	0x11
 1140 0863 F003     		.2byte	0x3f0
ARM GAS  /tmp/ccMb1niR.s 			page 21


 1141 0865 0D       		.byte	0xd
 1142 0866 1F       		.uleb128 0x1f
 1143 0867 97060000 		.4byte	.LASF110
 1144 086b 11       		.byte	0x11
 1145 086c AC03     		.2byte	0x3ac
 1146 086e 0D       		.byte	0xd
 1147 086f 83080000 		.4byte	0x883
 1148 0873 21       		.uleb128 0x21
 1149 0874 1C       		.uleb128 0x1c
 1150 0875 CF040000 		.4byte	.LASF29
 1151 0879 11       		.byte	0x11
 1152 087a B203     		.2byte	0x3b2
 1153 087c 0D       		.byte	0xd
 1154 087d 06010000 		.4byte	0x106
 1155 0881 00       		.byte	0
 1156 0882 00       		.byte	0
 1157 0883 20       		.uleb128 0x20
 1158 0884 56070000 		.4byte	.LASF112
 1159 0888 11       		.byte	0x11
 1160 0889 A703     		.2byte	0x3a7
 1161 088b 0D       		.byte	0xd
 1162 088c 1F       		.uleb128 0x1f
 1163 088d B3050000 		.4byte	.LASF113
 1164 0891 11       		.byte	0x11
 1165 0892 6503     		.2byte	0x365
 1166 0894 0D       		.byte	0xd
 1167 0895 A9080000 		.4byte	0x8a9
 1168 0899 21       		.uleb128 0x21
 1169 089a 1C       		.uleb128 0x1c
 1170 089b CF040000 		.4byte	.LASF29
 1171 089f 11       		.byte	0x11
 1172 08a0 6B03     		.2byte	0x36b
 1173 08a2 0D       		.byte	0xd
 1174 08a3 06010000 		.4byte	0x106
 1175 08a7 00       		.byte	0
 1176 08a8 00       		.byte	0
 1177 08a9 20       		.uleb128 0x20
 1178 08aa 05030000 		.4byte	.LASF114
 1179 08ae 11       		.byte	0x11
 1180 08af 6003     		.2byte	0x360
 1181 08b1 0D       		.byte	0xd
 1182 08b2 1F       		.uleb128 0x1f
 1183 08b3 D8020000 		.4byte	.LASF115
 1184 08b7 11       		.byte	0x11
 1185 08b8 6802     		.2byte	0x268
 1186 08ba 0D       		.byte	0xd
 1187 08bb D8080000 		.4byte	0x8d8
 1188 08bf 22       		.uleb128 0x22
 1189 08c0 6200     		.ascii	"b\000"
 1190 08c2 11       		.byte	0x11
 1191 08c3 6902     		.2byte	0x269
 1192 08c5 08       		.byte	0x8
 1193 08c6 B1060000 		.4byte	0x6b1
 1194 08ca 1C       		.uleb128 0x1c
 1195 08cb CF040000 		.4byte	.LASF29
 1196 08cf 11       		.byte	0x11
 1197 08d0 6A02     		.2byte	0x26a
ARM GAS  /tmp/ccMb1niR.s 			page 22


 1198 08d2 0B       		.byte	0xb
 1199 08d3 06010000 		.4byte	0x106
 1200 08d7 00       		.byte	0
 1201 08d8 20       		.uleb128 0x20
 1202 08d9 A2000000 		.4byte	.LASF116
 1203 08dd 11       		.byte	0x11
 1204 08de 6402     		.2byte	0x264
 1205 08e0 0D       		.byte	0xd
 1206 08e1 1F       		.uleb128 0x1f
 1207 08e2 90010000 		.4byte	.LASF117
 1208 08e6 11       		.byte	0x11
 1209 08e7 F301     		.2byte	0x1f3
 1210 08e9 0D       		.byte	0xd
 1211 08ea 12090000 		.4byte	0x912
 1212 08ee 22       		.uleb128 0x22
 1213 08ef 7000     		.ascii	"p\000"
 1214 08f1 11       		.byte	0x11
 1215 08f2 F401     		.2byte	0x1f4
 1216 08f4 0B       		.byte	0xb
 1217 08f5 06010000 		.4byte	0x106
 1218 08f9 22       		.uleb128 0x22
 1219 08fa 706100   		.ascii	"pa\000"
 1220 08fd 11       		.byte	0x11
 1221 08fe F401     		.2byte	0x1f4
 1222 0900 0E       		.byte	0xe
 1223 0901 06010000 		.4byte	0x106
 1224 0905 22       		.uleb128 0x22
 1225 0906 706200   		.ascii	"pb\000"
 1226 0909 11       		.byte	0x11
 1227 090a F401     		.2byte	0x1f4
 1228 090c 12       		.byte	0x12
 1229 090d 06010000 		.4byte	0x106
 1230 0911 00       		.byte	0
 1231 0912 20       		.uleb128 0x20
 1232 0913 8F070000 		.4byte	.LASF118
 1233 0917 11       		.byte	0x11
 1234 0918 EF01     		.2byte	0x1ef
 1235 091a 0D       		.byte	0xd
 1236 091b 20       		.uleb128 0x20
 1237 091c D4040000 		.4byte	.LASF119
 1238 0920 11       		.byte	0x11
 1239 0921 EA01     		.2byte	0x1ea
 1240 0923 0D       		.byte	0xd
 1241 0924 1F       		.uleb128 0x1f
 1242 0925 60060000 		.4byte	.LASF120
 1243 0929 11       		.byte	0x11
 1244 092a 0301     		.2byte	0x103
 1245 092c 0D       		.byte	0xd
 1246 092d 3F090000 		.4byte	0x93f
 1247 0931 1C       		.uleb128 0x1c
 1248 0932 CF040000 		.4byte	.LASF29
 1249 0936 11       		.byte	0x11
 1250 0937 0401     		.2byte	0x104
 1251 0939 0B       		.byte	0xb
 1252 093a 06010000 		.4byte	0x106
 1253 093e 00       		.byte	0
 1254 093f 23       		.uleb128 0x23
ARM GAS  /tmp/ccMb1niR.s 			page 23


 1255 0940 B8000000 		.4byte	.LASF121
 1256 0944 11       		.byte	0x11
 1257 0945 FF       		.byte	0xff
 1258 0946 0D       		.byte	0xd
 1259 0947 24       		.uleb128 0x24
 1260 0948 76010000 		.4byte	.LASF122
 1261 094c 11       		.byte	0x11
 1262 094d DF       		.byte	0xdf
 1263 094e 08       		.byte	0x8
 1264 094f 5E090000 		.4byte	0x95e
 1265 0953 25       		.uleb128 0x25
 1266 0954 7000     		.ascii	"p\000"
 1267 0956 11       		.byte	0x11
 1268 0957 DF       		.byte	0xdf
 1269 0958 08       		.byte	0x8
 1270 0959 30030000 		.4byte	0x330
 1271 095d 00       		.byte	0
 1272 095e 24       		.uleb128 0x24
 1273 095f 68010000 		.4byte	.LASF123
 1274 0963 11       		.byte	0x11
 1275 0964 D1       		.byte	0xd1
 1276 0965 08       		.byte	0x8
 1277 0966 75090000 		.4byte	0x975
 1278 096a 25       		.uleb128 0x25
 1279 096b 7000     		.ascii	"p\000"
 1280 096d 11       		.byte	0x11
 1281 096e D1       		.byte	0xd1
 1282 096f 08       		.byte	0x8
 1283 0970 30030000 		.4byte	0x330
 1284 0974 00       		.byte	0
 1285 0975 24       		.uleb128 0x24
 1286 0976 AF040000 		.4byte	.LASF124
 1287 097a 11       		.byte	0x11
 1288 097b C9       		.byte	0xc9
 1289 097c 08       		.byte	0x8
 1290 097d 8C090000 		.4byte	0x98c
 1291 0981 25       		.uleb128 0x25
 1292 0982 7000     		.ascii	"p\000"
 1293 0984 11       		.byte	0x11
 1294 0985 C9       		.byte	0xc9
 1295 0986 08       		.byte	0x8
 1296 0987 30030000 		.4byte	0x330
 1297 098b 00       		.byte	0
 1298 098c 24       		.uleb128 0x24
 1299 098d 24000000 		.4byte	.LASF125
 1300 0991 11       		.byte	0x11
 1301 0992 BD       		.byte	0xbd
 1302 0993 08       		.byte	0x8
 1303 0994 A3090000 		.4byte	0x9a3
 1304 0998 25       		.uleb128 0x25
 1305 0999 7000     		.ascii	"p\000"
 1306 099b 11       		.byte	0x11
 1307 099c BD       		.byte	0xbd
 1308 099d 08       		.byte	0x8
 1309 099e 30030000 		.4byte	0x330
 1310 09a2 00       		.byte	0
 1311 09a3 24       		.uleb128 0x24
ARM GAS  /tmp/ccMb1niR.s 			page 24


 1312 09a4 1B000000 		.4byte	.LASF126
 1313 09a8 11       		.byte	0x11
 1314 09a9 B5       		.byte	0xb5
 1315 09aa 08       		.byte	0x8
 1316 09ab BA090000 		.4byte	0x9ba
 1317 09af 25       		.uleb128 0x25
 1318 09b0 7000     		.ascii	"p\000"
 1319 09b2 11       		.byte	0x11
 1320 09b3 B5       		.byte	0xb5
 1321 09b4 08       		.byte	0x8
 1322 09b5 30030000 		.4byte	0x330
 1323 09b9 00       		.byte	0
 1324 09ba 24       		.uleb128 0x24
 1325 09bb A7040000 		.4byte	.LASF127
 1326 09bf 11       		.byte	0x11
 1327 09c0 55       		.byte	0x55
 1328 09c1 08       		.byte	0x8
 1329 09c2 D1090000 		.4byte	0x9d1
 1330 09c6 25       		.uleb128 0x25
 1331 09c7 7000     		.ascii	"p\000"
 1332 09c9 11       		.byte	0x11
 1333 09ca 55       		.byte	0x55
 1334 09cb 08       		.byte	0x8
 1335 09cc 30030000 		.4byte	0x330
 1336 09d0 00       		.byte	0
 1337 09d1 26       		.uleb128 0x26
 1338 09d2 B7040000 		.4byte	.LASF128
 1339 09d6 12       		.byte	0x12
 1340 09d7 1D01     		.2byte	0x11d
 1341 09d9 17       		.byte	0x17
 1342 09da 06010000 		.4byte	0x106
 1343 09de 26       		.uleb128 0x26
 1344 09df E3060000 		.4byte	.LASF129
 1345 09e3 12       		.byte	0x12
 1346 09e4 1001     		.2byte	0x110
 1347 09e6 19       		.byte	0x19
 1348 09e7 3E020000 		.4byte	0x23e
 1349 09eb 1F       		.uleb128 0x1f
 1350 09ec 7B070000 		.4byte	.LASF130
 1351 09f0 13       		.byte	0x13
 1352 09f1 6D01     		.2byte	0x16d
 1353 09f3 14       		.byte	0x14
 1354 09f4 020A0000 		.4byte	0xa02
 1355 09f8 27       		.uleb128 0x27
 1356 09f9 82050000 		.4byte	.LASF139
 1357 09fd 120A0000 		.4byte	0xa12
 1358 0a01 00       		.byte	0
 1359 0a02 18       		.uleb128 0x18
 1360 0a03 5B060000 		.4byte	0x65b
 1361 0a07 120A0000 		.4byte	0xa12
 1362 0a0b 19       		.uleb128 0x19
 1363 0a0c 30000000 		.4byte	0x30
 1364 0a10 0B       		.byte	0xb
 1365 0a11 00       		.byte	0
 1366 0a12 0B       		.uleb128 0xb
 1367 0a13 020A0000 		.4byte	0xa02
 1368 0a17 20       		.uleb128 0x20
ARM GAS  /tmp/ccMb1niR.s 			page 25


 1369 0a18 8B050000 		.4byte	.LASF131
 1370 0a1c 13       		.byte	0x13
 1371 0a1d 6101     		.2byte	0x161
 1372 0a1f 14       		.byte	0x14
 1373 0a20 28       		.uleb128 0x28
 1374 0a21 AE010000 		.4byte	.LASF140
 1375 0a25 06       		.byte	0x6
 1376 0a26 2702     		.2byte	0x227
 1377 0a28 14       		.byte	0x14
 1378 0a29 B1060000 		.4byte	0x6b1
 1379 0a2d 3F0A0000 		.4byte	0xa3f
 1380 0a31 29       		.uleb128 0x29
 1381 0a32 74717000 		.ascii	"tqp\000"
 1382 0a36 06       		.byte	0x6
 1383 0a37 2702     		.2byte	0x227
 1384 0a39 39       		.byte	0x39
 1385 0a3a 3F0A0000 		.4byte	0xa3f
 1386 0a3e 00       		.byte	0
 1387 0a3f 0A       		.uleb128 0xa
 1388 0a40 04       		.byte	0x4
 1389 0a41 77020000 		.4byte	0x277
 1390 0a45 20       		.uleb128 0x20
 1391 0a46 53010000 		.4byte	.LASF132
 1392 0a4a 09       		.byte	0x9
 1393 0a4b B502     		.2byte	0x2b5
 1394 0a4d 1B       		.byte	0x1b
 1395 0a4e 20       		.uleb128 0x20
 1396 0a4f 74000000 		.4byte	.LASF133
 1397 0a53 09       		.byte	0x9
 1398 0a54 9D02     		.2byte	0x29d
 1399 0a56 1B       		.byte	0x1b
 1400 0a57 2A       		.uleb128 0x2a
 1401 0a58 41060000 		.4byte	.LASF141
 1402 0a5c 14       		.byte	0x14
 1403 0a5d EB01     		.2byte	0x1eb
 1404 0a5f 1B       		.byte	0x1b
 1405 0a60 2B       		.uleb128 0x2b
 1406 0a61 44010000 		.4byte	.LASF134
 1407 0a65 14       		.byte	0x14
 1408 0a66 EB01     		.2byte	0x1eb
 1409 0a68 32       		.byte	0x32
 1410 0a69 BE000000 		.4byte	0xbe
 1411 0a6d 00       		.byte	0
 1412 0a6e 00       		.byte	0
 1413              		.section	.gnu.debuglto_.debug_abbrev,"e",%progbits
 1414              	.Ldebug_abbrev0:
 1415 0000 01       		.uleb128 0x1
 1416 0001 11       		.uleb128 0x11
 1417 0002 01       		.byte	0x1
 1418 0003 25       		.uleb128 0x25
 1419 0004 0E       		.uleb128 0xe
 1420 0005 13       		.uleb128 0x13
 1421 0006 0B       		.uleb128 0xb
 1422 0007 03       		.uleb128 0x3
 1423 0008 0E       		.uleb128 0xe
 1424 0009 1B       		.uleb128 0x1b
 1425 000a 0E       		.uleb128 0xe
ARM GAS  /tmp/ccMb1niR.s 			page 26


 1426 000b 10       		.uleb128 0x10
 1427 000c 17       		.uleb128 0x17
 1428 000d 00       		.byte	0
 1429 000e 00       		.byte	0
 1430 000f 02       		.uleb128 0x2
 1431 0010 24       		.uleb128 0x24
 1432 0011 00       		.byte	0
 1433 0012 0B       		.uleb128 0xb
 1434 0013 0B       		.uleb128 0xb
 1435 0014 3E       		.uleb128 0x3e
 1436 0015 0B       		.uleb128 0xb
 1437 0016 03       		.uleb128 0x3
 1438 0017 08       		.uleb128 0x8
 1439 0018 00       		.byte	0
 1440 0019 00       		.byte	0
 1441 001a 03       		.uleb128 0x3
 1442 001b 16       		.uleb128 0x16
 1443 001c 00       		.byte	0
 1444 001d 03       		.uleb128 0x3
 1445 001e 0E       		.uleb128 0xe
 1446 001f 3A       		.uleb128 0x3a
 1447 0020 0B       		.uleb128 0xb
 1448 0021 3B       		.uleb128 0x3b
 1449 0022 0B       		.uleb128 0xb
 1450 0023 39       		.uleb128 0x39
 1451 0024 0B       		.uleb128 0xb
 1452 0025 49       		.uleb128 0x49
 1453 0026 13       		.uleb128 0x13
 1454 0027 00       		.byte	0
 1455 0028 00       		.byte	0
 1456 0029 04       		.uleb128 0x4
 1457 002a 24       		.uleb128 0x24
 1458 002b 00       		.byte	0
 1459 002c 0B       		.uleb128 0xb
 1460 002d 0B       		.uleb128 0xb
 1461 002e 3E       		.uleb128 0x3e
 1462 002f 0B       		.uleb128 0xb
 1463 0030 03       		.uleb128 0x3
 1464 0031 0E       		.uleb128 0xe
 1465 0032 00       		.byte	0
 1466 0033 00       		.byte	0
 1467 0034 05       		.uleb128 0x5
 1468 0035 13       		.uleb128 0x13
 1469 0036 01       		.byte	0x1
 1470 0037 03       		.uleb128 0x3
 1471 0038 0E       		.uleb128 0xe
 1472 0039 0B       		.uleb128 0xb
 1473 003a 0B       		.uleb128 0xb
 1474 003b 3A       		.uleb128 0x3a
 1475 003c 0B       		.uleb128 0xb
 1476 003d 3B       		.uleb128 0x3b
 1477 003e 0B       		.uleb128 0xb
 1478 003f 39       		.uleb128 0x39
 1479 0040 0B       		.uleb128 0xb
 1480 0041 01       		.uleb128 0x1
 1481 0042 13       		.uleb128 0x13
 1482 0043 00       		.byte	0
ARM GAS  /tmp/ccMb1niR.s 			page 27


 1483 0044 00       		.byte	0
 1484 0045 06       		.uleb128 0x6
 1485 0046 0D       		.uleb128 0xd
 1486 0047 00       		.byte	0
 1487 0048 03       		.uleb128 0x3
 1488 0049 0E       		.uleb128 0xe
 1489 004a 3A       		.uleb128 0x3a
 1490 004b 0B       		.uleb128 0xb
 1491 004c 3B       		.uleb128 0x3b
 1492 004d 0B       		.uleb128 0xb
 1493 004e 39       		.uleb128 0x39
 1494 004f 0B       		.uleb128 0xb
 1495 0050 49       		.uleb128 0x49
 1496 0051 13       		.uleb128 0x13
 1497 0052 38       		.uleb128 0x38
 1498 0053 0B       		.uleb128 0xb
 1499 0054 00       		.byte	0
 1500 0055 00       		.byte	0
 1501 0056 07       		.uleb128 0x7
 1502 0057 0D       		.uleb128 0xd
 1503 0058 00       		.byte	0
 1504 0059 03       		.uleb128 0x3
 1505 005a 08       		.uleb128 0x8
 1506 005b 3A       		.uleb128 0x3a
 1507 005c 0B       		.uleb128 0xb
 1508 005d 3B       		.uleb128 0x3b
 1509 005e 0B       		.uleb128 0xb
 1510 005f 39       		.uleb128 0x39
 1511 0060 0B       		.uleb128 0xb
 1512 0061 49       		.uleb128 0x49
 1513 0062 13       		.uleb128 0x13
 1514 0063 38       		.uleb128 0x38
 1515 0064 0B       		.uleb128 0xb
 1516 0065 00       		.byte	0
 1517 0066 00       		.byte	0
 1518 0067 08       		.uleb128 0x8
 1519 0068 0D       		.uleb128 0xd
 1520 0069 00       		.byte	0
 1521 006a 03       		.uleb128 0x3
 1522 006b 08       		.uleb128 0x8
 1523 006c 3A       		.uleb128 0x3a
 1524 006d 0B       		.uleb128 0xb
 1525 006e 3B       		.uleb128 0x3b
 1526 006f 05       		.uleb128 0x5
 1527 0070 39       		.uleb128 0x39
 1528 0071 0B       		.uleb128 0xb
 1529 0072 49       		.uleb128 0x49
 1530 0073 13       		.uleb128 0x13
 1531 0074 38       		.uleb128 0x38
 1532 0075 0B       		.uleb128 0xb
 1533 0076 00       		.byte	0
 1534 0077 00       		.byte	0
 1535 0078 09       		.uleb128 0x9
 1536 0079 0D       		.uleb128 0xd
 1537 007a 00       		.byte	0
 1538 007b 03       		.uleb128 0x3
 1539 007c 0E       		.uleb128 0xe
ARM GAS  /tmp/ccMb1niR.s 			page 28


 1540 007d 3A       		.uleb128 0x3a
 1541 007e 0B       		.uleb128 0xb
 1542 007f 3B       		.uleb128 0x3b
 1543 0080 05       		.uleb128 0x5
 1544 0081 39       		.uleb128 0x39
 1545 0082 0B       		.uleb128 0xb
 1546 0083 49       		.uleb128 0x49
 1547 0084 13       		.uleb128 0x13
 1548 0085 38       		.uleb128 0x38
 1549 0086 0B       		.uleb128 0xb
 1550 0087 00       		.byte	0
 1551 0088 00       		.byte	0
 1552 0089 0A       		.uleb128 0xa
 1553 008a 0F       		.uleb128 0xf
 1554 008b 00       		.byte	0
 1555 008c 0B       		.uleb128 0xb
 1556 008d 0B       		.uleb128 0xb
 1557 008e 49       		.uleb128 0x49
 1558 008f 13       		.uleb128 0x13
 1559 0090 00       		.byte	0
 1560 0091 00       		.byte	0
 1561 0092 0B       		.uleb128 0xb
 1562 0093 26       		.uleb128 0x26
 1563 0094 00       		.byte	0
 1564 0095 49       		.uleb128 0x49
 1565 0096 13       		.uleb128 0x13
 1566 0097 00       		.byte	0
 1567 0098 00       		.byte	0
 1568 0099 0C       		.uleb128 0xc
 1569 009a 13       		.uleb128 0x13
 1570 009b 01       		.byte	0x1
 1571 009c 03       		.uleb128 0x3
 1572 009d 0E       		.uleb128 0xe
 1573 009e 0B       		.uleb128 0xb
 1574 009f 0B       		.uleb128 0xb
 1575 00a0 3A       		.uleb128 0x3a
 1576 00a1 0B       		.uleb128 0xb
 1577 00a2 3B       		.uleb128 0x3b
 1578 00a3 05       		.uleb128 0x5
 1579 00a4 39       		.uleb128 0x39
 1580 00a5 0B       		.uleb128 0xb
 1581 00a6 01       		.uleb128 0x1
 1582 00a7 13       		.uleb128 0x13
 1583 00a8 00       		.byte	0
 1584 00a9 00       		.byte	0
 1585 00aa 0D       		.uleb128 0xd
 1586 00ab 15       		.uleb128 0x15
 1587 00ac 01       		.byte	0x1
 1588 00ad 27       		.uleb128 0x27
 1589 00ae 19       		.uleb128 0x19
 1590 00af 01       		.uleb128 0x1
 1591 00b0 13       		.uleb128 0x13
 1592 00b1 00       		.byte	0
 1593 00b2 00       		.byte	0
 1594 00b3 0E       		.uleb128 0xe
 1595 00b4 05       		.uleb128 0x5
 1596 00b5 00       		.byte	0
ARM GAS  /tmp/ccMb1niR.s 			page 29


 1597 00b6 49       		.uleb128 0x49
 1598 00b7 13       		.uleb128 0x13
 1599 00b8 00       		.byte	0
 1600 00b9 00       		.byte	0
 1601 00ba 0F       		.uleb128 0xf
 1602 00bb 0F       		.uleb128 0xf
 1603 00bc 00       		.byte	0
 1604 00bd 0B       		.uleb128 0xb
 1605 00be 0B       		.uleb128 0xb
 1606 00bf 00       		.byte	0
 1607 00c0 00       		.byte	0
 1608 00c1 10       		.uleb128 0x10
 1609 00c2 13       		.uleb128 0x13
 1610 00c3 01       		.byte	0x1
 1611 00c4 0B       		.uleb128 0xb
 1612 00c5 0B       		.uleb128 0xb
 1613 00c6 3A       		.uleb128 0x3a
 1614 00c7 0B       		.uleb128 0xb
 1615 00c8 3B       		.uleb128 0x3b
 1616 00c9 0B       		.uleb128 0xb
 1617 00ca 39       		.uleb128 0x39
 1618 00cb 0B       		.uleb128 0xb
 1619 00cc 01       		.uleb128 0x1
 1620 00cd 13       		.uleb128 0x13
 1621 00ce 00       		.byte	0
 1622 00cf 00       		.byte	0
 1623 00d0 11       		.uleb128 0x11
 1624 00d1 17       		.uleb128 0x17
 1625 00d2 01       		.byte	0x1
 1626 00d3 0B       		.uleb128 0xb
 1627 00d4 0B       		.uleb128 0xb
 1628 00d5 3A       		.uleb128 0x3a
 1629 00d6 0B       		.uleb128 0xb
 1630 00d7 3B       		.uleb128 0x3b
 1631 00d8 0B       		.uleb128 0xb
 1632 00d9 39       		.uleb128 0x39
 1633 00da 0B       		.uleb128 0xb
 1634 00db 01       		.uleb128 0x1
 1635 00dc 13       		.uleb128 0x13
 1636 00dd 00       		.byte	0
 1637 00de 00       		.byte	0
 1638 00df 12       		.uleb128 0x12
 1639 00e0 0D       		.uleb128 0xd
 1640 00e1 00       		.byte	0
 1641 00e2 03       		.uleb128 0x3
 1642 00e3 0E       		.uleb128 0xe
 1643 00e4 3A       		.uleb128 0x3a
 1644 00e5 0B       		.uleb128 0xb
 1645 00e6 3B       		.uleb128 0x3b
 1646 00e7 0B       		.uleb128 0xb
 1647 00e8 39       		.uleb128 0x39
 1648 00e9 0B       		.uleb128 0xb
 1649 00ea 49       		.uleb128 0x49
 1650 00eb 13       		.uleb128 0x13
 1651 00ec 00       		.byte	0
 1652 00ed 00       		.byte	0
 1653 00ee 13       		.uleb128 0x13
ARM GAS  /tmp/ccMb1niR.s 			page 30


 1654 00ef 0D       		.uleb128 0xd
 1655 00f0 00       		.byte	0
 1656 00f1 03       		.uleb128 0x3
 1657 00f2 0E       		.uleb128 0xe
 1658 00f3 3A       		.uleb128 0x3a
 1659 00f4 0B       		.uleb128 0xb
 1660 00f5 3B       		.uleb128 0x3b
 1661 00f6 05       		.uleb128 0x5
 1662 00f7 39       		.uleb128 0x39
 1663 00f8 0B       		.uleb128 0xb
 1664 00f9 49       		.uleb128 0x49
 1665 00fa 13       		.uleb128 0x13
 1666 00fb 00       		.byte	0
 1667 00fc 00       		.byte	0
 1668 00fd 14       		.uleb128 0x14
 1669 00fe 35       		.uleb128 0x35
 1670 00ff 00       		.byte	0
 1671 0100 49       		.uleb128 0x49
 1672 0101 13       		.uleb128 0x13
 1673 0102 00       		.byte	0
 1674 0103 00       		.byte	0
 1675 0104 15       		.uleb128 0x15
 1676 0105 34       		.uleb128 0x34
 1677 0106 00       		.byte	0
 1678 0107 03       		.uleb128 0x3
 1679 0108 08       		.uleb128 0x8
 1680 0109 3A       		.uleb128 0x3a
 1681 010a 0B       		.uleb128 0xb
 1682 010b 3B       		.uleb128 0x3b
 1683 010c 05       		.uleb128 0x5
 1684 010d 39       		.uleb128 0x39
 1685 010e 0B       		.uleb128 0xb
 1686 010f 49       		.uleb128 0x49
 1687 0110 13       		.uleb128 0x13
 1688 0111 3F       		.uleb128 0x3f
 1689 0112 19       		.uleb128 0x19
 1690 0113 3C       		.uleb128 0x3c
 1691 0114 19       		.uleb128 0x19
 1692 0115 00       		.byte	0
 1693 0116 00       		.byte	0
 1694 0117 16       		.uleb128 0x16
 1695 0118 15       		.uleb128 0x15
 1696 0119 00       		.byte	0
 1697 011a 27       		.uleb128 0x27
 1698 011b 19       		.uleb128 0x19
 1699 011c 00       		.byte	0
 1700 011d 00       		.byte	0
 1701 011e 17       		.uleb128 0x17
 1702 011f 34       		.uleb128 0x34
 1703 0120 00       		.byte	0
 1704 0121 03       		.uleb128 0x3
 1705 0122 0E       		.uleb128 0xe
 1706 0123 3A       		.uleb128 0x3a
 1707 0124 0B       		.uleb128 0xb
 1708 0125 3B       		.uleb128 0x3b
 1709 0126 0B       		.uleb128 0xb
 1710 0127 39       		.uleb128 0x39
ARM GAS  /tmp/ccMb1niR.s 			page 31


 1711 0128 0B       		.uleb128 0xb
 1712 0129 49       		.uleb128 0x49
 1713 012a 13       		.uleb128 0x13
 1714 012b 3F       		.uleb128 0x3f
 1715 012c 19       		.uleb128 0x19
 1716 012d 3C       		.uleb128 0x3c
 1717 012e 19       		.uleb128 0x19
 1718 012f 00       		.byte	0
 1719 0130 00       		.byte	0
 1720 0131 18       		.uleb128 0x18
 1721 0132 01       		.uleb128 0x1
 1722 0133 01       		.byte	0x1
 1723 0134 49       		.uleb128 0x49
 1724 0135 13       		.uleb128 0x13
 1725 0136 01       		.uleb128 0x1
 1726 0137 13       		.uleb128 0x13
 1727 0138 00       		.byte	0
 1728 0139 00       		.byte	0
 1729 013a 19       		.uleb128 0x19
 1730 013b 21       		.uleb128 0x21
 1731 013c 00       		.byte	0
 1732 013d 49       		.uleb128 0x49
 1733 013e 13       		.uleb128 0x13
 1734 013f 2F       		.uleb128 0x2f
 1735 0140 0B       		.uleb128 0xb
 1736 0141 00       		.byte	0
 1737 0142 00       		.byte	0
 1738 0143 1A       		.uleb128 0x1a
 1739 0144 34       		.uleb128 0x34
 1740 0145 00       		.byte	0
 1741 0146 03       		.uleb128 0x3
 1742 0147 08       		.uleb128 0x8
 1743 0148 3A       		.uleb128 0x3a
 1744 0149 0B       		.uleb128 0xb
 1745 014a 3B       		.uleb128 0x3b
 1746 014b 0B       		.uleb128 0xb
 1747 014c 39       		.uleb128 0x39
 1748 014d 0B       		.uleb128 0xb
 1749 014e 49       		.uleb128 0x49
 1750 014f 13       		.uleb128 0x13
 1751 0150 3F       		.uleb128 0x3f
 1752 0151 19       		.uleb128 0x19
 1753 0152 3C       		.uleb128 0x3c
 1754 0153 19       		.uleb128 0x19
 1755 0154 00       		.byte	0
 1756 0155 00       		.byte	0
 1757 0156 1B       		.uleb128 0x1b
 1758 0157 34       		.uleb128 0x34
 1759 0158 00       		.byte	0
 1760 0159 03       		.uleb128 0x3
 1761 015a 08       		.uleb128 0x8
 1762 015b 3A       		.uleb128 0x3a
 1763 015c 0B       		.uleb128 0xb
 1764 015d 3B       		.uleb128 0x3b
 1765 015e 0B       		.uleb128 0xb
 1766 015f 39       		.uleb128 0x39
 1767 0160 0B       		.uleb128 0xb
ARM GAS  /tmp/ccMb1niR.s 			page 32


 1768 0161 49       		.uleb128 0x49
 1769 0162 13       		.uleb128 0x13
 1770 0163 00       		.byte	0
 1771 0164 00       		.byte	0
 1772 0165 1C       		.uleb128 0x1c
 1773 0166 34       		.uleb128 0x34
 1774 0167 00       		.byte	0
 1775 0168 03       		.uleb128 0x3
 1776 0169 0E       		.uleb128 0xe
 1777 016a 3A       		.uleb128 0x3a
 1778 016b 0B       		.uleb128 0xb
 1779 016c 3B       		.uleb128 0x3b
 1780 016d 05       		.uleb128 0x5
 1781 016e 39       		.uleb128 0x39
 1782 016f 0B       		.uleb128 0xb
 1783 0170 49       		.uleb128 0x49
 1784 0171 13       		.uleb128 0x13
 1785 0172 00       		.byte	0
 1786 0173 00       		.byte	0
 1787 0174 1D       		.uleb128 0x1d
 1788 0175 34       		.uleb128 0x34
 1789 0176 00       		.byte	0
 1790 0177 03       		.uleb128 0x3
 1791 0178 0E       		.uleb128 0xe
 1792 0179 3A       		.uleb128 0x3a
 1793 017a 0B       		.uleb128 0xb
 1794 017b 3B       		.uleb128 0x3b
 1795 017c 05       		.uleb128 0x5
 1796 017d 39       		.uleb128 0x39
 1797 017e 0B       		.uleb128 0xb
 1798 017f 49       		.uleb128 0x49
 1799 0180 13       		.uleb128 0x13
 1800 0181 3F       		.uleb128 0x3f
 1801 0182 19       		.uleb128 0x19
 1802 0183 00       		.byte	0
 1803 0184 00       		.byte	0
 1804 0185 1E       		.uleb128 0x1e
 1805 0186 34       		.uleb128 0x34
 1806 0187 00       		.byte	0
 1807 0188 47       		.uleb128 0x47
 1808 0189 13       		.uleb128 0x13
 1809 018a 3A       		.uleb128 0x3a
 1810 018b 0B       		.uleb128 0xb
 1811 018c 3B       		.uleb128 0x3b
 1812 018d 05       		.uleb128 0x5
 1813 018e 39       		.uleb128 0x39
 1814 018f 0B       		.uleb128 0xb
 1815 0190 00       		.byte	0
 1816 0191 00       		.byte	0
 1817 0192 1F       		.uleb128 0x1f
 1818 0193 2E       		.uleb128 0x2e
 1819 0194 01       		.byte	0x1
 1820 0195 03       		.uleb128 0x3
 1821 0196 0E       		.uleb128 0xe
 1822 0197 3A       		.uleb128 0x3a
 1823 0198 0B       		.uleb128 0xb
 1824 0199 3B       		.uleb128 0x3b
ARM GAS  /tmp/ccMb1niR.s 			page 33


 1825 019a 05       		.uleb128 0x5
 1826 019b 39       		.uleb128 0x39
 1827 019c 0B       		.uleb128 0xb
 1828 019d 27       		.uleb128 0x27
 1829 019e 19       		.uleb128 0x19
 1830 019f 01       		.uleb128 0x1
 1831 01a0 13       		.uleb128 0x13
 1832 01a1 00       		.byte	0
 1833 01a2 00       		.byte	0
 1834 01a3 20       		.uleb128 0x20
 1835 01a4 2E       		.uleb128 0x2e
 1836 01a5 00       		.byte	0
 1837 01a6 03       		.uleb128 0x3
 1838 01a7 0E       		.uleb128 0xe
 1839 01a8 3A       		.uleb128 0x3a
 1840 01a9 0B       		.uleb128 0xb
 1841 01aa 3B       		.uleb128 0x3b
 1842 01ab 05       		.uleb128 0x5
 1843 01ac 39       		.uleb128 0x39
 1844 01ad 0B       		.uleb128 0xb
 1845 01ae 27       		.uleb128 0x27
 1846 01af 19       		.uleb128 0x19
 1847 01b0 00       		.byte	0
 1848 01b1 00       		.byte	0
 1849 01b2 21       		.uleb128 0x21
 1850 01b3 0B       		.uleb128 0xb
 1851 01b4 01       		.byte	0x1
 1852 01b5 00       		.byte	0
 1853 01b6 00       		.byte	0
 1854 01b7 22       		.uleb128 0x22
 1855 01b8 34       		.uleb128 0x34
 1856 01b9 00       		.byte	0
 1857 01ba 03       		.uleb128 0x3
 1858 01bb 08       		.uleb128 0x8
 1859 01bc 3A       		.uleb128 0x3a
 1860 01bd 0B       		.uleb128 0xb
 1861 01be 3B       		.uleb128 0x3b
 1862 01bf 05       		.uleb128 0x5
 1863 01c0 39       		.uleb128 0x39
 1864 01c1 0B       		.uleb128 0xb
 1865 01c2 49       		.uleb128 0x49
 1866 01c3 13       		.uleb128 0x13
 1867 01c4 00       		.byte	0
 1868 01c5 00       		.byte	0
 1869 01c6 23       		.uleb128 0x23
 1870 01c7 2E       		.uleb128 0x2e
 1871 01c8 00       		.byte	0
 1872 01c9 03       		.uleb128 0x3
 1873 01ca 0E       		.uleb128 0xe
 1874 01cb 3A       		.uleb128 0x3a
 1875 01cc 0B       		.uleb128 0xb
 1876 01cd 3B       		.uleb128 0x3b
 1877 01ce 0B       		.uleb128 0xb
 1878 01cf 39       		.uleb128 0x39
 1879 01d0 0B       		.uleb128 0xb
 1880 01d1 27       		.uleb128 0x27
 1881 01d2 19       		.uleb128 0x19
ARM GAS  /tmp/ccMb1niR.s 			page 34


 1882 01d3 00       		.byte	0
 1883 01d4 00       		.byte	0
 1884 01d5 24       		.uleb128 0x24
 1885 01d6 2E       		.uleb128 0x2e
 1886 01d7 01       		.byte	0x1
 1887 01d8 03       		.uleb128 0x3
 1888 01d9 0E       		.uleb128 0xe
 1889 01da 3A       		.uleb128 0x3a
 1890 01db 0B       		.uleb128 0xb
 1891 01dc 3B       		.uleb128 0x3b
 1892 01dd 0B       		.uleb128 0xb
 1893 01de 39       		.uleb128 0x39
 1894 01df 0B       		.uleb128 0xb
 1895 01e0 27       		.uleb128 0x27
 1896 01e1 19       		.uleb128 0x19
 1897 01e2 01       		.uleb128 0x1
 1898 01e3 13       		.uleb128 0x13
 1899 01e4 00       		.byte	0
 1900 01e5 00       		.byte	0
 1901 01e6 25       		.uleb128 0x25
 1902 01e7 05       		.uleb128 0x5
 1903 01e8 00       		.byte	0
 1904 01e9 03       		.uleb128 0x3
 1905 01ea 08       		.uleb128 0x8
 1906 01eb 3A       		.uleb128 0x3a
 1907 01ec 0B       		.uleb128 0xb
 1908 01ed 3B       		.uleb128 0x3b
 1909 01ee 0B       		.uleb128 0xb
 1910 01ef 39       		.uleb128 0x39
 1911 01f0 0B       		.uleb128 0xb
 1912 01f1 49       		.uleb128 0x49
 1913 01f2 13       		.uleb128 0x13
 1914 01f3 00       		.byte	0
 1915 01f4 00       		.byte	0
 1916 01f5 26       		.uleb128 0x26
 1917 01f6 2E       		.uleb128 0x2e
 1918 01f7 00       		.byte	0
 1919 01f8 03       		.uleb128 0x3
 1920 01f9 0E       		.uleb128 0xe
 1921 01fa 3A       		.uleb128 0x3a
 1922 01fb 0B       		.uleb128 0xb
 1923 01fc 3B       		.uleb128 0x3b
 1924 01fd 05       		.uleb128 0x5
 1925 01fe 39       		.uleb128 0x39
 1926 01ff 0B       		.uleb128 0xb
 1927 0200 27       		.uleb128 0x27
 1928 0201 19       		.uleb128 0x19
 1929 0202 49       		.uleb128 0x49
 1930 0203 13       		.uleb128 0x13
 1931 0204 00       		.byte	0
 1932 0205 00       		.byte	0
 1933 0206 27       		.uleb128 0x27
 1934 0207 34       		.uleb128 0x34
 1935 0208 00       		.byte	0
 1936 0209 03       		.uleb128 0x3
 1937 020a 0E       		.uleb128 0xe
 1938 020b 49       		.uleb128 0x49
ARM GAS  /tmp/ccMb1niR.s 			page 35


 1939 020c 13       		.uleb128 0x13
 1940 020d 34       		.uleb128 0x34
 1941 020e 19       		.uleb128 0x19
 1942 020f 00       		.byte	0
 1943 0210 00       		.byte	0
 1944 0211 28       		.uleb128 0x28
 1945 0212 2E       		.uleb128 0x2e
 1946 0213 01       		.byte	0x1
 1947 0214 03       		.uleb128 0x3
 1948 0215 0E       		.uleb128 0xe
 1949 0216 3A       		.uleb128 0x3a
 1950 0217 0B       		.uleb128 0xb
 1951 0218 3B       		.uleb128 0x3b
 1952 0219 05       		.uleb128 0x5
 1953 021a 39       		.uleb128 0x39
 1954 021b 0B       		.uleb128 0xb
 1955 021c 27       		.uleb128 0x27
 1956 021d 19       		.uleb128 0x19
 1957 021e 49       		.uleb128 0x49
 1958 021f 13       		.uleb128 0x13
 1959 0220 01       		.uleb128 0x1
 1960 0221 13       		.uleb128 0x13
 1961 0222 00       		.byte	0
 1962 0223 00       		.byte	0
 1963 0224 29       		.uleb128 0x29
 1964 0225 05       		.uleb128 0x5
 1965 0226 00       		.byte	0
 1966 0227 03       		.uleb128 0x3
 1967 0228 08       		.uleb128 0x8
 1968 0229 3A       		.uleb128 0x3a
 1969 022a 0B       		.uleb128 0xb
 1970 022b 3B       		.uleb128 0x3b
 1971 022c 05       		.uleb128 0x5
 1972 022d 39       		.uleb128 0x39
 1973 022e 0B       		.uleb128 0xb
 1974 022f 49       		.uleb128 0x49
 1975 0230 13       		.uleb128 0x13
 1976 0231 00       		.byte	0
 1977 0232 00       		.byte	0
 1978 0233 2A       		.uleb128 0x2a
 1979 0234 2E       		.uleb128 0x2e
 1980 0235 01       		.byte	0x1
 1981 0236 03       		.uleb128 0x3
 1982 0237 0E       		.uleb128 0xe
 1983 0238 3A       		.uleb128 0x3a
 1984 0239 0B       		.uleb128 0xb
 1985 023a 3B       		.uleb128 0x3b
 1986 023b 05       		.uleb128 0x5
 1987 023c 39       		.uleb128 0x39
 1988 023d 0B       		.uleb128 0xb
 1989 023e 27       		.uleb128 0x27
 1990 023f 19       		.uleb128 0x19
 1991 0240 00       		.byte	0
 1992 0241 00       		.byte	0
 1993 0242 2B       		.uleb128 0x2b
 1994 0243 05       		.uleb128 0x5
 1995 0244 00       		.byte	0
ARM GAS  /tmp/ccMb1niR.s 			page 36


 1996 0245 03       		.uleb128 0x3
 1997 0246 0E       		.uleb128 0xe
 1998 0247 3A       		.uleb128 0x3a
 1999 0248 0B       		.uleb128 0xb
 2000 0249 3B       		.uleb128 0x3b
 2001 024a 05       		.uleb128 0x5
 2002 024b 39       		.uleb128 0x39
 2003 024c 0B       		.uleb128 0xb
 2004 024d 49       		.uleb128 0x49
 2005 024e 13       		.uleb128 0x13
 2006 024f 00       		.byte	0
 2007 0250 00       		.byte	0
 2008 0251 00       		.byte	0
 2009              		.section	.gnu.debuglto_.debug_line,"e",%progbits
 2010              	.Ldebug_line0:
 2011 0000 0D030000 		.4byte	.LELT0-.LSLT0
 2012              	.LSLT0:
 2013 0004 0400     		.2byte	0x4
 2014 0006 07030000 		.4byte	.LELTP0-.LASLTP0
 2015              	.LASLTP0:
 2016 000a 01       		.byte	0x1
 2017 000b 01       		.byte	0x1
 2018 000c 01       		.byte	0x1
 2019 000d F6       		.byte	0xf6
 2020 000e F2       		.byte	0xf2
 2021 000f 0D       		.byte	0xd
 2022 0010 00       		.byte	0
 2023 0011 01       		.byte	0x1
 2024 0012 01       		.byte	0x1
 2025 0013 01       		.byte	0x1
 2026 0014 01       		.byte	0x1
 2027 0015 00       		.byte	0
 2028 0016 00       		.byte	0
 2029 0017 00       		.byte	0
 2030 0018 01       		.byte	0x1
 2031 0019 00       		.byte	0
 2032 001a 00       		.byte	0
 2033 001b 01       		.byte	0x1
 2034 001c 43686962 		.ascii	"ChibiOS_20.3.0/os/common/ext/ARM/CMSIS/Core/Include"
 2034      694F535F 
 2034      32302E33 
 2034      2E302F6F 
 2034      732F636F 
 2035 004f 00       		.byte	0
 2036 0050 43686962 		.ascii	"ChibiOS_20.3.0/os/common/ports/ARMCMx/compilers/GCC"
 2036      694F535F 
 2036      32302E33 
 2036      2E302F6F 
 2036      732F636F 
 2037 0083 00       		.byte	0
 2038 0084 43686962 		.ascii	"ChibiOS_20.3.0/os/common/ports/ARMCMx"
 2038      694F535F 
 2038      32302E33 
 2038      2E302F6F 
 2038      732F636F 
 2039 00a9 00       		.byte	0
 2040 00aa 43686962 		.ascii	"ChibiOS_20.3.0/os/rt/include"
ARM GAS  /tmp/ccMb1niR.s 			page 37


 2040      694F535F 
 2040      32302E33 
 2040      2E302F6F 
 2040      732F7274 
 2041 00c6 00       		.byte	0
 2042 00c7 43686962 		.ascii	"ChibiOS_20.3.0/test/lib"
 2042      694F535F 
 2042      32302E33 
 2042      2E302F74 
 2042      6573742F 
 2043 00de 00       		.byte	0
 2044 00df 43686962 		.ascii	"ChibiOS_20.3.0/test/rt/source/test"
 2044      694F535F 
 2044      32302E33 
 2044      2E302F74 
 2044      6573742F 
 2045 0101 00       		.byte	0
 2046 0102 2F757372 		.ascii	"/usr/share/gcc-arm-none-eabi-10-2020-q4-major/arm-n"
 2046      2F736861 
 2046      72652F67 
 2046      63632D61 
 2046      726D2D6E 
 2047 0135 6F6E652D 		.ascii	"one-eabi/include/machine"
 2047      65616269 
 2047      2F696E63 
 2047      6C756465 
 2047      2F6D6163 
 2048 014d 00       		.byte	0
 2049 014e 2F757372 		.ascii	"/usr/share/gcc-arm-none-eabi-10-2020-q4-major/arm-n"
 2049      2F736861 
 2049      72652F67 
 2049      63632D61 
 2049      726D2D6E 
 2050 0181 6F6E652D 		.ascii	"one-eabi/include/sys"
 2050      65616269 
 2050      2F696E63 
 2050      6C756465 
 2050      2F737973 
 2051 0195 00       		.byte	0
 2052 0196 2F757372 		.ascii	"/usr/share/gcc-arm-none-eabi-10-2020-q4-major/lib/g"
 2052      2F736861 
 2052      72652F67 
 2052      63632D61 
 2052      726D2D6E 
 2053 01c9 63632F61 		.ascii	"cc/arm-none-eabi/10.2.1/include"
 2053      726D2D6E 
 2053      6F6E652D 
 2053      65616269 
 2053      2F31302E 
 2054 01e8 00       		.byte	0
 2055 01e9 00       		.byte	0
 2056 01ea 73746464 		.ascii	"stddef.h\000"
 2056      65662E68 
 2056      00
 2057 01f3 09       		.uleb128 0x9
 2058 01f4 00       		.uleb128 0
 2059 01f5 00       		.uleb128 0
ARM GAS  /tmp/ccMb1niR.s 			page 38


 2060 01f6 5F646566 		.ascii	"_default_types.h\000"
 2060      61756C74 
 2060      5F747970 
 2060      65732E68 
 2060      00
 2061 0207 07       		.uleb128 0x7
 2062 0208 00       		.uleb128 0
 2063 0209 00       		.uleb128 0
 2064 020a 5F737464 		.ascii	"_stdint.h\000"
 2064      696E742E 
 2064      6800
 2065 0214 08       		.uleb128 0x8
 2066 0215 00       		.uleb128 0
 2067 0216 00       		.uleb128 0
 2068 0217 63687479 		.ascii	"chtypes.h\000"
 2068      7065732E 
 2068      6800
 2069 0221 02       		.uleb128 0x2
 2070 0222 00       		.uleb128 0
 2071 0223 00       		.uleb128 0
 2072 0224 63687379 		.ascii	"chsystypes.h\000"
 2072      73747970 
 2072      65732E68 
 2072      00
 2073 0231 04       		.uleb128 0x4
 2074 0232 00       		.uleb128 0
 2075 0233 00       		.uleb128 0
 2076 0234 63687363 		.ascii	"chschd.h\000"
 2076      68642E68 
 2076      00
 2077 023d 04       		.uleb128 0x4
 2078 023e 00       		.uleb128 0
 2079 023f 00       		.uleb128 0
 2080 0240 63687469 		.ascii	"chtime.h\000"
 2080      6D652E68 
 2080      00
 2081 0249 04       		.uleb128 0x4
 2082 024a 00       		.uleb128 0
 2083 024b 00       		.uleb128 0
 2084 024c 6368636F 		.ascii	"chcore.h\000"
 2084      72652E68 
 2084      00
 2085 0255 03       		.uleb128 0x3
 2086 0256 00       		.uleb128 0
 2087 0257 00       		.uleb128 0
 2088 0258 6368636F 		.ascii	"chcore_v7m.h\000"
 2088      72655F76 
 2088      376D2E68 
 2088      00
 2089 0265 03       		.uleb128 0x3
 2090 0266 00       		.uleb128 0
 2091 0267 00       		.uleb128 0
 2092 0268 6368746D 		.ascii	"chtm.h\000"
 2092      2E6800
 2093 026f 04       		.uleb128 0x4
 2094 0270 00       		.uleb128 0
 2095 0271 00       		.uleb128 0
ARM GAS  /tmp/ccMb1niR.s 			page 39


 2096 0272 63687365 		.ascii	"chsem.h\000"
 2096      6D2E6800 
 2097 027a 04       		.uleb128 0x4
 2098 027b 00       		.uleb128 0
 2099 027c 00       		.uleb128 0
 2100 027d 63686D74 		.ascii	"chmtx.h\000"
 2100      782E6800 
 2101 0285 04       		.uleb128 0x4
 2102 0286 00       		.uleb128 0
 2103 0287 00       		.uleb128 0
 2104 0288 6368636F 		.ascii	"chcond.h\000"
 2104      6E642E68 
 2104      00
 2105 0291 04       		.uleb128 0x4
 2106 0292 00       		.uleb128 0
 2107 0293 00       		.uleb128 0
 2108 0294 63685F74 		.ascii	"ch_test.h\000"
 2108      6573742E 
 2108      6800
 2109 029e 05       		.uleb128 0x5
 2110 029f 00       		.uleb128 0
 2111 02a0 00       		.uleb128 0
 2112 02a1 72745F74 		.ascii	"rt_test_sequence_007.h\000"
 2112      6573745F 
 2112      73657175 
 2112      656E6365 
 2112      5F303037 
 2113 02b8 06       		.uleb128 0x6
 2114 02b9 00       		.uleb128 0
 2115 02ba 00       		.uleb128 0
 2116 02bb 72745F74 		.ascii	"rt_test_root.h\000"
 2116      6573745F 
 2116      726F6F74 
 2116      2E6800
 2117 02ca 06       		.uleb128 0x6
 2118 02cb 00       		.uleb128 0
 2119 02cc 00       		.uleb128 0
 2120 02cd 72745F74 		.ascii	"rt_test_sequence_007.c\000"
 2120      6573745F 
 2120      73657175 
 2120      656E6365 
 2120      5F303037 
 2121 02e4 06       		.uleb128 0x6
 2122 02e5 00       		.uleb128 0
 2123 02e6 00       		.uleb128 0
 2124 02e7 63687468 		.ascii	"chthreads.h\000"
 2124      72656164 
 2124      732E6800 
 2125 02f3 04       		.uleb128 0x4
 2126 02f4 00       		.uleb128 0
 2127 02f5 00       		.uleb128 0
 2128 02f6 63687379 		.ascii	"chsys.h\000"
 2128      732E6800 
 2129 02fe 04       		.uleb128 0x4
 2130 02ff 00       		.uleb128 0
 2131 0300 00       		.uleb128 0
 2132 0301 636D7369 		.ascii	"cmsis_gcc.h\000"
ARM GAS  /tmp/ccMb1niR.s 			page 40


 2132      735F6763 
 2132      632E6800 
 2133 030d 01       		.uleb128 0x1
 2134 030e 00       		.uleb128 0
 2135 030f 00       		.uleb128 0
 2136 0310 00       		.byte	0
 2137              	.LELTP0:
 2138              	.LELT0:
 2139              		.section	.gnu.debuglto_.debug_str,"eMS",%progbits,1
 2140              	.LASF138:
 2141 0000 72745F74 		.ascii	"rt_test_sequence_007_array\000"
 2141      6573745F 
 2141      73657175 
 2141      656E6365 
 2141      5F303037 
 2142              	.LASF126:
 2143 001b 74687265 		.ascii	"thread4A\000"
 2143      61643441 
 2143      00
 2144              	.LASF125:
 2145 0024 74687265 		.ascii	"thread4B\000"
 2145      61643442 
 2145      00
 2146              	.LASF4:
 2147 002d 73697A65 		.ascii	"size_t\000"
 2147      5F7400
 2148              	.LASF57:
 2149 0034 64656C74 		.ascii	"delta\000"
 2149      6100
 2150              	.LASF78:
 2151 003a 7264796D 		.ascii	"rdymsg\000"
 2151      736700
 2152              	.LASF18:
 2153 0041 75696E74 		.ascii	"uint64_t\000"
 2153      36345F74 
 2153      00
 2154              	.LASF5:
 2155 004a 5F5F7569 		.ascii	"__uint8_t\000"
 2155      6E74385F 
 2155      7400
 2156              	.LASF50:
 2157 0054 70726576 		.ascii	"prev\000"
 2157      00
 2158              	.LASF74:
 2159 0059 706F7274 		.ascii	"port_intctx\000"
 2159      5F696E74 
 2159      63747800 
 2160              	.LASF62:
 2161 0065 73797374 		.ascii	"system_debug_t\000"
 2161      656D5F64 
 2161      65627567 
 2161      5F7400
 2162              	.LASF133:
 2163 0074 706F7274 		.ascii	"port_lock\000"
 2163      5F6C6F63 
 2163      6B00
 2164              	.LASF75:
ARM GAS  /tmp/ccMb1niR.s 			page 41


 2165 007e 706F7274 		.ascii	"port_context\000"
 2165      5F636F6E 
 2165      74657874 
 2165      00
 2166              	.LASF14:
 2167 008b 6C6F6E67 		.ascii	"long long unsigned int\000"
 2167      206C6F6E 
 2167      6720756E 
 2167      7369676E 
 2167      65642069 
 2168              	.LASF116:
 2169 00a2 72745F74 		.ascii	"rt_test_007_005_setup\000"
 2169      6573745F 
 2169      3030375F 
 2169      3030355F 
 2169      73657475 
 2170              	.LASF121:
 2171 00b8 72745F74 		.ascii	"rt_test_007_001_setup\000"
 2171      6573745F 
 2171      3030375F 
 2171      3030315F 
 2171      73657475 
 2172              	.LASF79:
 2173 00ce 65786974 		.ascii	"exitcode\000"
 2173      636F6465 
 2173      00
 2174              	.LASF69:
 2175 00d7 6D61696E 		.ascii	"mainthread\000"
 2175      74687265 
 2175      616400
 2176              	.LASF82:
 2177 00e2 73656E74 		.ascii	"sentmsg\000"
 2177      6D736700 
 2178              	.LASF59:
 2179 00ea 76697274 		.ascii	"virtual_timers_list_t\000"
 2179      75616C5F 
 2179      74696D65 
 2179      72735F6C 
 2179      6973745F 
 2180              	.LASF58:
 2181 0100 66756E63 		.ascii	"func\000"
 2181      00
 2182              	.LASF47:
 2183 0105 6E657874 		.ascii	"next\000"
 2183      00
 2184              	.LASF49:
 2185 010a 63685F74 		.ascii	"ch_threads_queue\000"
 2185      68726561 
 2185      64735F71 
 2185      75657565 
 2185      00
 2186              	.LASF1:
 2187 011b 6C6F6E67 		.ascii	"long long int\000"
 2187      206C6F6E 
 2187      6720696E 
 2187      7400
 2188              	.LASF3:
ARM GAS  /tmp/ccMb1niR.s 			page 42


 2189 0129 7369676E 		.ascii	"signed char\000"
 2189      65642063 
 2189      68617200 
 2190              	.LASF99:
 2191 0135 74657374 		.ascii	"testsequence_t\000"
 2191      73657175 
 2191      656E6365 
 2191      5F7400
 2192              	.LASF134:
 2193 0144 62617365 		.ascii	"basePri\000"
 2193      50726900 
 2194              	.LASF68:
 2195 014c 76746C69 		.ascii	"vtlist\000"
 2195      737400
 2196              	.LASF132:
 2197 0153 706F7274 		.ascii	"port_unlock\000"
 2197      5F756E6C 
 2197      6F636B00 
 2198              	.LASF38:
 2199 015f 6D736771 		.ascii	"msgqueue\000"
 2199      75657565 
 2199      00
 2200              	.LASF123:
 2201 0168 74687265 		.ascii	"thread8\000"
 2201      61643800 
 2202              	.LASF34:
 2203 0170 73746174 		.ascii	"state\000"
 2203      6500
 2204              	.LASF122:
 2205 0176 74687265 		.ascii	"thread9\000"
 2205      61643900 
 2206              	.LASF10:
 2207 017e 6C6F6E67 		.ascii	"long int\000"
 2207      20696E74 
 2207      00
 2208              	.LASF21:
 2209 0187 74737461 		.ascii	"tstate_t\000"
 2209      74655F74 
 2209      00
 2210              	.LASF117:
 2211 0190 72745F74 		.ascii	"rt_test_007_004_execute\000"
 2211      6573745F 
 2211      3030375F 
 2211      3030345F 
 2211      65786563 
 2212              	.LASF28:
 2213 01a8 71756575 		.ascii	"queue\000"
 2213      6500
 2214              	.LASF140:
 2215 01ae 71756575 		.ascii	"queue_isempty\000"
 2215      655F6973 
 2215      656D7074 
 2215      7900
 2216              	.LASF109:
 2217 01bc 72745F74 		.ascii	"rt_test_007_009_execute\000"
 2217      6573745F 
 2217      3030375F 
ARM GAS  /tmp/ccMb1niR.s 			page 43


 2217      3030395F 
 2217      65786563 
 2218              	.LASF2:
 2219 01d4 6C6F6E67 		.ascii	"long double\000"
 2219      20646F75 
 2219      626C6500 
 2220              	.LASF11:
 2221 01e0 5F5F7569 		.ascii	"__uint32_t\000"
 2221      6E743332 
 2221      5F7400
 2222              	.LASF137:
 2223 01eb 2F686F6D 		.ascii	"/home/iamprithvishetty/CDSpace/mmc3416_test2\000"
 2223      652F6961 
 2223      6D707269 
 2223      74687669 
 2223      73686574 
 2224              	.LASF37:
 2225 0218 77616974 		.ascii	"waiting\000"
 2225      696E6700 
 2226              	.LASF90:
 2227 0220 6D757465 		.ascii	"mutex_t\000"
 2227      785F7400 
 2228              	.LASF71:
 2229 0228 73797369 		.ascii	"sysinterval_t\000"
 2229      6E746572 
 2229      76616C5F 
 2229      7400
 2230              	.LASF26:
 2231 0236 636E745F 		.ascii	"cnt_t\000"
 2231      7400
 2232              	.LASF0:
 2233 023c 756E7369 		.ascii	"unsigned int\000"
 2233      676E6564 
 2233      20696E74 
 2233      00
 2234              	.LASF83:
 2235 0249 77747365 		.ascii	"wtsemp\000"
 2235      6D7000
 2236              	.LASF81:
 2237 0250 77747472 		.ascii	"wttrp\000"
 2237      7000
 2238              	.LASF95:
 2239 0256 74656172 		.ascii	"teardown\000"
 2239      646F776E 
 2239      00
 2240              	.LASF72:
 2241 025f 74696D65 		.ascii	"time_conv_t\000"
 2241      5F636F6E 
 2241      765F7400 
 2242              	.LASF32:
 2243 026b 6E616D65 		.ascii	"name\000"
 2243      00
 2244              	.LASF136:
 2245 0270 2E2F4368 		.ascii	"./ChibiOS_20.3.0/test/rt/source/test/rt_test_sequen"
 2245      6962694F 
 2245      535F3230 
 2245      2E332E30 
ARM GAS  /tmp/ccMb1niR.s 			page 44


 2245      2F746573 
 2246 02a3 63655F30 		.ascii	"ce_007.c\000"
 2246      30372E63 
 2246      00
 2247              	.LASF8:
 2248 02ac 73686F72 		.ascii	"short unsigned int\000"
 2248      7420756E 
 2248      7369676E 
 2248      65642069 
 2248      6E7400
 2249              	.LASF45:
 2250 02bf 63685F74 		.ascii	"ch_thread\000"
 2250      68726561 
 2250      6400
 2251              	.LASF24:
 2252 02c9 6D73675F 		.ascii	"msg_t\000"
 2252      7400
 2253              	.LASF39:
 2254 02cf 6570656E 		.ascii	"epending\000"
 2254      64696E67 
 2254      00
 2255              	.LASF115:
 2256 02d8 72745F74 		.ascii	"rt_test_007_005_execute\000"
 2256      6573745F 
 2256      3030375F 
 2256      3030355F 
 2256      65786563 
 2257              	.LASF101:
 2258 02f0 72745F74 		.ascii	"rt_test_sequence_007\000"
 2258      6573745F 
 2258      73657175 
 2258      656E6365 
 2258      5F303037 
 2259              	.LASF114:
 2260 0305 72745F74 		.ascii	"rt_test_007_007_setup\000"
 2260      6573745F 
 2260      3030375F 
 2260      3030375F 
 2260      73657475 
 2261              	.LASF20:
 2262 031b 746D6F64 		.ascii	"tmode_t\000"
 2262      655F7400 
 2263              	.LASF52:
 2264 0323 63685F72 		.ascii	"ch_ready_list\000"
 2264      65616479 
 2264      5F6C6973 
 2264      7400
 2265              	.LASF25:
 2266 0331 6576656E 		.ascii	"eventmask_t\000"
 2266      746D6173 
 2266      6B5F7400 
 2267              	.LASF135:
 2268 033d 474E5520 		.ascii	"GNU C17 10.2.1 20201103 (release) -mcpu=cortex-m4 -"
 2268      43313720 
 2268      31302E32 
 2268      2E312032 
 2268      30323031 
ARM GAS  /tmp/ccMb1niR.s 			page 45


 2269 0370 6D746875 		.ascii	"mthumb -mfloat-abi=soft -march=armv7e-m -ggdb -O2 -"
 2269      6D62202D 
 2269      6D666C6F 
 2269      61742D61 
 2269      62693D73 
 2270 03a3 666F6D69 		.ascii	"fomit-frame-pointer -falign-functions=16 -ffunction"
 2270      742D6672 
 2270      616D652D 
 2270      706F696E 
 2270      74657220 
 2271 03d6 2D736563 		.ascii	"-sections -fdata-sections -fno-common -flto\000"
 2271      74696F6E 
 2271      73202D66 
 2271      64617461 
 2271      2D736563 
 2272              	.LASF9:
 2273 0402 5F5F696E 		.ascii	"__int32_t\000"
 2273      7433325F 
 2273      7400
 2274              	.LASF111:
 2275 040c 72745F74 		.ascii	"rt_test_007_009_setup\000"
 2275      6573745F 
 2275      3030375F 
 2275      3030395F 
 2275      73657475 
 2276              	.LASF73:
 2277 0422 73746B61 		.ascii	"stkalign_t\000"
 2277      6C69676E 
 2277      5F7400
 2278              	.LASF97:
 2279 042d 74657374 		.ascii	"testcase_t\000"
 2279      63617365 
 2279      5F7400
 2280              	.LASF30:
 2281 0438 6E657765 		.ascii	"newer\000"
 2281      7200
 2282              	.LASF41:
 2283 043e 7265616C 		.ascii	"realprio\000"
 2283      7072696F 
 2283      00
 2284              	.LASF19:
 2285 0447 7274636E 		.ascii	"rtcnt_t\000"
 2285      745F7400 
 2286              	.LASF43:
 2287 044f 74687265 		.ascii	"thread_reference_t\000"
 2287      61645F72 
 2287      65666572 
 2287      656E6365 
 2287      5F7400
 2288              	.LASF60:
 2289 0462 63685F76 		.ascii	"ch_virtual_timers_list\000"
 2289      69727475 
 2289      616C5F74 
 2289      696D6572 
 2289      735F6C69 
 2290              	.LASF100:
 2291 0479 74657374 		.ascii	"test_step\000"
ARM GAS  /tmp/ccMb1niR.s 			page 46


 2291      5F737465 
 2291      7000
 2292              	.LASF91:
 2293 0483 636F6E64 		.ascii	"condition_variable\000"
 2293      6974696F 
 2293      6E5F7661 
 2293      72696162 
 2293      6C6500
 2294              	.LASF77:
 2295 0496 746D5F63 		.ascii	"tm_calibration_t\000"
 2295      616C6962 
 2295      72617469 
 2295      6F6E5F74 
 2295      00
 2296              	.LASF127:
 2297 04a7 74687265 		.ascii	"thread1\000"
 2297      61643100 
 2298              	.LASF124:
 2299 04af 74687265 		.ascii	"thread6\000"
 2299      61643600 
 2300              	.LASF128:
 2301 04b7 63685468 		.ascii	"chThdGetPriorityX\000"
 2301      64476574 
 2301      5072696F 
 2301      72697479 
 2301      5800
 2302              	.LASF94:
 2303 04c9 73657475 		.ascii	"setup\000"
 2303      7000
 2304              	.LASF29:
 2305 04cf 7072696F 		.ascii	"prio\000"
 2305      00
 2306              	.LASF119:
 2307 04d4 72745F74 		.ascii	"rt_test_007_004_setup\000"
 2307      6573745F 
 2307      3030375F 
 2307      3030345F 
 2307      73657475 
 2308              	.LASF53:
 2309 04ea 63757272 		.ascii	"current\000"
 2309      656E7400 
 2310              	.LASF13:
 2311 04f2 5F5F7569 		.ascii	"__uint64_t\000"
 2311      6E743634 
 2311      5F7400
 2312              	.LASF22:
 2313 04fd 74726566 		.ascii	"trefs_t\000"
 2313      735F7400 
 2314              	.LASF36:
 2315 0505 72656673 		.ascii	"refs\000"
 2315      00
 2316              	.LASF55:
 2317 050a 76697274 		.ascii	"virtual_timer_t\000"
 2317      75616C5F 
 2317      74696D65 
 2317      725F7400 
 2318              	.LASF96:
ARM GAS  /tmp/ccMb1niR.s 			page 47


 2319 051a 65786563 		.ascii	"execute\000"
 2319      75746500 
 2320              	.LASF23:
 2321 0522 74707269 		.ascii	"tprio_t\000"
 2321      6F5F7400 
 2322              	.LASF63:
 2323 052a 63685F73 		.ascii	"ch_system_debug\000"
 2323      79737465 
 2323      6D5F6465 
 2323      62756700 
 2324              	.LASF93:
 2325 053a 5F426F6F 		.ascii	"_Bool\000"
 2325      6C00
 2326              	.LASF16:
 2327 0540 696E7433 		.ascii	"int32_t\000"
 2327      325F7400 
 2328              	.LASF6:
 2329 0548 756E7369 		.ascii	"unsigned char\000"
 2329      676E6564 
 2329      20636861 
 2329      7200
 2330              	.LASF7:
 2331 0556 73686F72 		.ascii	"short int\000"
 2331      7420696E 
 2331      7400
 2332              	.LASF61:
 2333 0560 6C617374 		.ascii	"lasttime\000"
 2333      74696D65 
 2333      00
 2334              	.LASF102:
 2335 0569 74687265 		.ascii	"threads\000"
 2335      61647300 
 2336              	.LASF85:
 2337 0571 65776D61 		.ascii	"ewmask\000"
 2337      736B00
 2338              	.LASF66:
 2339 0578 63685F73 		.ascii	"ch_system\000"
 2339      79737465 
 2339      6D00
 2340              	.LASF139:
 2341 0582 5F5F6675 		.ascii	"__func__\000"
 2341      6E635F5F 
 2341      00
 2342              	.LASF131:
 2343 058b 63685379 		.ascii	"chSysLock\000"
 2343      734C6F63 
 2343      6B00
 2344              	.LASF56:
 2345 0595 63685F76 		.ascii	"ch_virtual_timer\000"
 2345      69727475 
 2345      616C5F74 
 2345      696D6572 
 2345      00
 2346              	.LASF86:
 2347 05a6 63685F73 		.ascii	"ch_semaphore\000"
 2347      656D6170 
 2347      686F7265 
ARM GAS  /tmp/ccMb1niR.s 			page 48


 2347      00
 2348              	.LASF113:
 2349 05b3 72745F74 		.ascii	"rt_test_007_007_execute\000"
 2349      6573745F 
 2349      3030375F 
 2349      3030375F 
 2349      65786563 
 2350              	.LASF17:
 2351 05cb 75696E74 		.ascii	"uint32_t\000"
 2351      33325F74 
 2351      00
 2352              	.LASF84:
 2353 05d4 77746D74 		.ascii	"wtmtxp\000"
 2353      787000
 2354              	.LASF46:
 2355 05db 63685F74 		.ascii	"ch_threads_list\000"
 2355      68726561 
 2355      64735F6C 
 2355      69737400 
 2356              	.LASF88:
 2357 05eb 6F776E65 		.ascii	"owner\000"
 2357      7200
 2358              	.LASF12:
 2359 05f1 6C6F6E67 		.ascii	"long unsigned int\000"
 2359      20756E73 
 2359      69676E65 
 2359      6420696E 
 2359      7400
 2360              	.LASF33:
 2361 0603 77616261 		.ascii	"wabase\000"
 2361      736500
 2362              	.LASF89:
 2363 060a 63686172 		.ascii	"char\000"
 2363      00
 2364              	.LASF31:
 2365 060f 6F6C6465 		.ascii	"older\000"
 2365      7200
 2366              	.LASF106:
 2367 0615 72745F74 		.ascii	"rt_test_007_007\000"
 2367      6573745F 
 2367      3030375F 
 2367      30303700 
 2368              	.LASF27:
 2369 0625 74687265 		.ascii	"thread_t\000"
 2369      61645F74 
 2369      00
 2370              	.LASF70:
 2371 062e 73797374 		.ascii	"systime_t\000"
 2371      696D655F 
 2371      7400
 2372              	.LASF54:
 2373 0638 76746675 		.ascii	"vtfunc_t\000"
 2373      6E635F74 
 2373      00
 2374              	.LASF141:
 2375 0641 5F5F7365 		.ascii	"__set_BASEPRI\000"
 2375      745F4241 
ARM GAS  /tmp/ccMb1niR.s 			page 49


 2375      53455052 
 2375      4900
 2376              	.LASF64:
 2377 064f 70616E69 		.ascii	"panic_msg\000"
 2377      635F6D73 
 2377      6700
 2378              	.LASF76:
 2379 0659 6F666673 		.ascii	"offset\000"
 2379      657400
 2380              	.LASF120:
 2381 0660 72745F74 		.ascii	"rt_test_007_001_execute\000"
 2381      6573745F 
 2381      3030375F 
 2381      3030315F 
 2381      65786563 
 2382              	.LASF65:
 2383 0678 63685F73 		.ascii	"ch_system_t\000"
 2383      79737465 
 2383      6D5F7400 
 2384              	.LASF51:
 2385 0684 72656164 		.ascii	"ready_list_t\000"
 2385      795F6C69 
 2385      73745F74 
 2385      00
 2386              	.LASF42:
 2387 0691 6D706F6F 		.ascii	"mpool\000"
 2387      6C00
 2388              	.LASF110:
 2389 0697 72745F74 		.ascii	"rt_test_007_008_execute\000"
 2389      6573745F 
 2389      3030375F 
 2389      3030385F 
 2389      65786563 
 2390              	.LASF48:
 2391 06af 74687265 		.ascii	"threads_queue_t\000"
 2391      6164735F 
 2391      71756575 
 2391      655F7400 
 2392              	.LASF87:
 2393 06bf 63685F6D 		.ascii	"ch_mutex\000"
 2393      75746578 
 2393      00
 2394              	.LASF92:
 2395 06c8 636F6E64 		.ascii	"condition_variable_t\000"
 2395      6974696F 
 2395      6E5F7661 
 2395      72696162 
 2395      6C655F74 
 2396              	.LASF67:
 2397 06dd 726C6973 		.ascii	"rlist\000"
 2397      7400
 2398              	.LASF129:
 2399 06e3 63685468 		.ascii	"chThdGetSelfX\000"
 2399      64476574 
 2399      53656C66 
 2399      5800
 2400              	.LASF15:
ARM GAS  /tmp/ccMb1niR.s 			page 50


 2401 06f1 75696E74 		.ascii	"uint8_t\000"
 2401      385F7400 
 2402              	.LASF35:
 2403 06f9 666C6167 		.ascii	"flags\000"
 2403      7300
 2404              	.LASF103:
 2405 06ff 72745F74 		.ascii	"rt_test_007_001\000"
 2405      6573745F 
 2405      3030375F 
 2405      30303100 
 2406              	.LASF104:
 2407 070f 72745F74 		.ascii	"rt_test_007_004\000"
 2407      6573745F 
 2407      3030375F 
 2407      30303400 
 2408              	.LASF105:
 2409 071f 72745F74 		.ascii	"rt_test_007_005\000"
 2409      6573745F 
 2409      3030375F 
 2409      30303500 
 2410              	.LASF80:
 2411 072f 77746F62 		.ascii	"wtobjp\000"
 2411      6A7000
 2412              	.LASF107:
 2413 0736 72745F74 		.ascii	"rt_test_007_008\000"
 2413      6573745F 
 2413      3030375F 
 2413      30303800 
 2414              	.LASF108:
 2415 0746 72745F74 		.ascii	"rt_test_007_009\000"
 2415      6573745F 
 2415      3030375F 
 2415      30303900 
 2416              	.LASF112:
 2417 0756 72745F74 		.ascii	"rt_test_007_008_setup\000"
 2417      6573745F 
 2417      3030375F 
 2417      3030385F 
 2417      73657475 
 2418              	.LASF44:
 2419 076c 74687265 		.ascii	"threads_list_t\000"
 2419      6164735F 
 2419      6C697374 
 2419      5F7400
 2420              	.LASF130:
 2421 077b 63685379 		.ascii	"chSysUnlock\000"
 2421      73556E6C 
 2421      6F636B00 
 2422              	.LASF40:
 2423 0787 6D74786C 		.ascii	"mtxlist\000"
 2423      69737400 
 2424              	.LASF118:
 2425 078f 72745F74 		.ascii	"rt_test_007_004_teardown\000"
 2425      6573745F 
 2425      3030375F 
 2425      3030345F 
 2425      74656172 
ARM GAS  /tmp/ccMb1niR.s 			page 51


 2426              	.LASF98:
 2427 07a8 63617365 		.ascii	"cases\000"
 2427      7300
 2428              		.text
 2429              		.section	.gnu.lto_.profile.9a6e21261cdd440f,"e",%progbits
 2430 0000 789C6362 		.ascii	"x\234cb\000\001\000\000\022\000\003"
 2430      00010000 
 2430      120003
 2431              		.text
 2432              		.section	.gnu.lto_.icf.9a6e21261cdd440f,"e",%progbits
 2433 0000 789CDBCA 		.ascii	"x\234\333\312\200\000r\014G\232\367\375\346a\234\260"
 2433      8000720C 
 2433      479AF7FD 
 2433      E6619CB0 
 2434 0010 6FEF1A7E 		.ascii	"o\357\032~\326\323\375;\246\260\263\277x\373\250\221"
 2434      D6D3FD3B 
 2434      A6B0B3BF 
 2434      78FBA891 
 2435 0020 9963D9FF 		.ascii	"\231c\331\377\303K\2309\327\277iY\305\303u\350\305\244"
 2435      C34B9839 
 2435      D7BF6959 
 2435      C5C375E8 
 2435      C5A4
 2436 0032 7FECDC60 		.ascii	"\177\354\334`\021\0360\233\367\346\312\326/\314|w\367"
 2436      111E309B 
 2436      F7E6CAD6 
 2436      2FCC7C77 
 2436      F7
 2437 0043 9DBECFCA 		.ascii	"\235\276\317\312\017&\005V6m^\304\"\010f\013\201\331"
 2437      0F260556 
 2437      366D5EC4 
 2437      2208660B 
 2437      81D9
 2438 0055 C2CF1F2D 		.ascii	"\302\317\037-\334\317.\262\344\345\305\371\334\242;"
 2438      DCCF2EB2 
 2438      E4E5C5F9 
 2438      DCA23B
 2439 0064 57FCAE17 		.ascii	"W\374\256\027\333|\377\301<f\361\316\257\335s\271$~"
 2439      DB7CFFC1 
 2439      3C66F1CE 
 2439      AFDD73B9 
 2439      247E
 2440 0076 7D3DD3C5 		.ascii	"}=\323\305+y\346\333\323S<R+gv\034g\221n>tx\016\207"
 2440      2B79E6DB 
 2440      D3533C52 
 2440      2B67761C 
 2440      67916E3E 
 2441 008e CCD377CD 		.ascii	"\314\323w\315[Yd\217\036[\264\211]\356\371\255O\367"
 2441      5B59648F 
 2441      1E5BB489 
 2441      5DEEF9AD 
 2441      4FF7
 2442 00a0 98E5371D 		.ascii	"\230\3457\035\234\335\304\256p\257\353\376O\026\305"
 2442      9CDDC4AE 
 2442      70AFEBFE 
 2442      4F16C5
 2443 00af 15371BBB 		.ascii	"\0257\033\273\271\031\000<#\\\353"
ARM GAS  /tmp/ccMb1niR.s 			page 52


 2443      B919003C 
 2443      235CEB
 2444              		.text
 2445              		.section	.gnu.lto_.ipa_sra.9a6e21261cdd440f,"e",%progbits
 2446 0000 789C6D90 		.ascii	"x\234m\220Y\012\2000\014Dg>DA\\\353z\014\357\1779Mc"
 2446      590A8030 
 2446      0C44673E 
 2446      44415CEB 
 2446      7A0CEF7F 
 2447 0017 D3456768 		.ascii	"\323Egh&y\220Rz\021&\007\020$\242\275*I\305\364\255"
 2447      26799052 
 2447      7A112607 
 2447      1024A2BD 
 2447      2A49C5F4 
 2448 002c BA0E38C2 		.ascii	"\272\0168\302\246Dm\011\272\260\335k\014\032\243\224"
 2448      A6446D09 
 2448      BAB0DD6B 
 2448      0C1AA394 
 2449 003c 49FB598A 		.ascii	"I\373Y\212\313\237 Z\300\217M\353;f\020\334\014\244"
 2449      CB9F205A 
 2449      C08F4DEB 
 2449      3B6610DC 
 2449      0CA4
 2450 004e 389B77BB 		.ascii	"8\233w\273\352\357\340\240\376\200\367\231\016\217o"
 2450      EAEFE0A0 
 2450      FE80F799 
 2450      0E8F6F
 2451 005d 2FE901CC 		.ascii	"/\351\001\314"
 2452              		.text
 2453              		.section	.gnu.lto_.inline.9a6e21261cdd440f,"e",%progbits
 2454 0000 789CFBC1 		.ascii	"x\234\373\301\312\000\007\302\014\014,\015@\300\234"
 2454      CA0007C2 
 2454      0C0C2C0D 
 2454      40C09C
 2455 000f C6C8C0C4 		.ascii	"\306\310\300\304\300\320\010d\32610\260\201\204\230"
 2455      C0D00864 
 2455      D63130B0 
 2455      818498
 2456 001e 52984042 		.ascii	"R\230@B\014\214\\ \205\214\014\206@\261=\314\231@uJ"
 2456      0C8C5C20 
 2456      858C0C86 
 2456      40B13DCC 
 2456      9940754A 
 2457 0032 40D604A6 		.ascii	"@\326\004\246t4u\314<@\202\011\246\236\211\033\254\011"
 2457      743475CC 
 2457      3C408209 
 2457      A69E891B 
 2457      AC09
 2458 0044 4AB10B00 		.ascii	"J\261\013\000)\326\011~\014@\204\207\303\312 \0104p"
 2458      29D6097E 
 2458      0C408487 
 2458      C3CA2008 
 2458      3470
 2459 0056 0613C812 		.ascii	"\006\023\310\022F\260\331I@\025@\372\000\314\022Tc!"
 2459      46B0D949 
 2459      401540FA 
 2459      00CC1254 
ARM GAS  /tmp/ccMb1niR.s 			page 53


 2459      6321
 2460 0068 D4043F98 		.ascii	"\324\004?\230\325h\2262\360\000\265\376`\312 \316\264"
 2460      D5689632 
 2460      F000B5FE 
 2460      60CA20CE 
 2460      B4
 2461 0079 097EA8DA 		.ascii	"\011~\250\3329\030\270\200j\027\220\254\235\233L}\274"
 2461      3918B880 
 2461      6A1790AC 
 2461      9D9B4C7D 
 2461      BC
 2462 008a 0C9C60CF 		.ascii	"\014\234`\317g\340\214\011l\236g\340\003\233\335\300"
 2462      67E08C09 
 2462      6C9E67E0 
 2462      039BDDC0 
 2463 009a 9C4EA436 		.ascii	"\234N\2446~\022\325\0130\260\202\274\203'\201@\025\012"
 2463      7E12D50B 
 2463      30B082BC 
 2463      83278140 
 2463      150A
 2464 00ac 9268B010 		.ascii	"\222h\260\020\261\006\0133\330\003\005{\230\262\200"
 2464      B1060B33 
 2464      D803057B 
 2464      98B280
 2465 00bb 0AD580AC 		.ascii	"\012\325\200\254\015\304%=\"\323\034n\216\010\303)\006"
 2465      0DC4253D 
 2465      22D31C6E 
 2465      8E08C329 
 2465      06
 2466 00cc A0257FC0 		.ascii	"\240%\177\300\026k\001Y\027\010X\214-\345c\245(v\232"
 2466      166B0159 
 2466      1708588C 
 2466      2DE563A5 
 2466      28769A
 2467 00df 28C36986 		.ascii	"(\303i\206\177\247\357\356\006;\315\010\224\035\231"
 2467      7FA7EFEE 
 2467      063BCD08 
 2467      941D99
 2468 00ee 71398D85 		.ascii	"q9\215\205\027D\0035Q7p\240\346\2101<f\270\277\373\311"
 2468      17440335 
 2468      513770A0 
 2468      E688313C 
 2468      66B8BFFB 
 2469 0103 196650AA 		.ascii	"\031fP\252\015\271?\177\352\022\2464\254\016\001\352"
 2469      0DB93F7F 
 2469      EA12A634 
 2469      AC0E01EA 
 2470 0113 81BB04CD 		.ascii	"\201\273\004\315Ip.X%#n>&\003\352\012B&\2103\334g\350"
 2470      49702E58 
 2470      25236E3E 
 2470      2603EA0A 
 2470      42268833 
 2471 012a 5C3C6B32 		.ascii	"\\<k2\270\364\012\353\332\272\372\004\216\230\304b$"
 2471      B8F40AEB 
 2471      DABAFA04 
 2471      8E98C462 
 2471      24
ARM GAS  /tmp/ccMb1niR.s 			page 54


 2472 013b 95F8B843 		.ascii	"\225\370\270CR\202\274|/\211T\272\261@Tc-\270\261jf"
 2472      5282BC7C 
 2472      2F8954BA 
 2472      B1405463 
 2472      2DB8B16A 
 2473 0150 000061AF 		.ascii	"\000\000a\257\327\010"
 2473      D708
 2474              		.text
 2475              		.section	.gnu.lto_.jmpfuncs.9a6e21261cdd440f,"e",%progbits
 2476 0000 789CED57 		.ascii	"x\234\355WKN\343@\020\255\352v>C\200\360\035\030\215"
 2476      4B4EE340 
 2476      10ADEA76 
 2476      3E4380F0 
 2476      1D188D
 2477 0013 34B27748 		.ascii	"4\262wH#q\007 \034\201\003\004\322\032Ycl\010\001\224"
 2477      23710720 
 2477      1C810304 
 2477      D21A5963 
 2477      6C080194 
 2478 0027 C5687673 		.ascii	"\305hvs\000\0160\253,\270\000\010X\261\344\020\254X"
 2478      000E30AB 
 2478      2CB80008 
 2478      58B1E410 
 2478      AC58
 2479 0039 71009648 		.ascii	"q\000\226H\241\333\355\014\310L\265\035\247\025\204"
 2479      A1DBED0C 
 2479      C84CB51D 
 2479      A71584
 2480 0048 44A47CDC 		.ascii	"D\244|\334\365\272\336\353\352\327\345\030\347\000~"
 2480      F5BADEEB 
 2480      EAD7E518 
 2480      E7007E
 2481 0057 817ECDAB 		.ascii	"\201~\315\253\017\004p\270\207\177\252=./\256\035\004"
 2481      0F0470B8 
 2481      877FAA3D 
 2481      2E2FAE1D 
 2481      04
 2482 0068 F97EECF7 		.ascii	"\371~\354\367\373ud'\274\307\021Q\177\365\325\030\367"
 2482      FB756427 
 2482      BCC71151 
 2482      7FF5D518 
 2482      F7
 2483 0079 CA0AC9D2 		.ascii	"\312\012\311\322H<C<G`\374\364u\026\0353\204&\236\307"
 2483      483C433C 
 2483      4760FCF4 
 2483      75161D33 
 2483      84269EC7 
 2484 008d 63128889 		.ascii	"c\022\210\2119\336h\232\033\246\202\220\006\361\277"
 2484      39DE689A 
 2484      1BA68290 
 2484      06F1BF
 2485 009c 3C35A405 		.ascii	"<5\244\005;Z\2603\020\274\254\004\227\3622\343\005f"
 2485      3B5AB033 
 2485      10BCAC04 
 2485      97F232E3 
 2485      0566
 2486 00ae 90629A14 		.ascii	"\220b\232\024/\021\257\220{_-\0231\212\350\233\201\250"
ARM GAS  /tmp/ccMb1niR.s 			page 55


 2486      2F11AF90 
 2486      7B5F2D13 
 2486      318AE89B 
 2486      81A8
 2487 00c0 24F7EB77 		.ascii	"$\367\353w\217\227U\271\221\336\011b\003\331\013\031"
 2487      8F9755B9 
 2487      91DE0962 
 2487      03D90B19 
 2488 00d0 287D41EF 		.ascii	"(}A\357\246*q%\321\212\003\211\361JL\351iQ\225\027\272"
 2488      A62A7125 
 2488      D18A0389 
 2488      F14A4CE9 
 2488      69519517 
 2489 00e5 7389CBB0 		.ascii	"s\211\313\260\032\221\243\232\243<\257h\010`\255\210"
 2489      1A91A39A 
 2489      A33CAF68 
 2489      0860AD88 
 2490 00f5 64023805 		.ascii	"d\0028\005&\246\214\222\022e\230\316\334\013bb\275\350"
 2490      26A68C92 
 2490      126598CE 
 2490      DC0B6262 
 2490      BDE8
 2491 0107 C419E3C4 		.ascii	"\304\031\343\304\331\242k\2343\246\235\217\033\230\247"
 2491      D9A26B9C 
 2491      33A69D8F 
 2491      1B98A7
 2492 0116 CE44F5FF 		.ascii	"\316D\365\377\210\342M\313j\1770\035[\253D\357\266\343"
 2492      88E24DCB 
 2492      6A7F301D 
 2492      5BAB44EF 
 2492      B6E3
 2493 0128 91442BE3 		.ascii	"\221D+\343\"\372n Z\030\325h\005o\217\326C\037\256\376"
 2493      22FA6E20 
 2493      5A18D568 
 2493      056F8FD6 
 2493      431FAEFE 
 2494 013c 70F53FA2 		.ascii	"p\365?\242\305\021]\355<\013A\340\336\252\202~2tZ\""
 2494      C5115DED 
 2494      3C0B41E0 
 2494      DEAA827E 
 2494      32745A22 
 2495 0150 4D91F5F2 		.ascii	"M\221\365\362qy\222$\262\355I\222\310\266'I\"\333\236"
 2495      71799224 
 2495      B2ED4992 
 2495      C8B62749 
 2495      22DB9E
 2496 0163 24894C9E 		.ascii	"$\211L\2364\370\344\263\264k~\307\245\240\015\005\235"
 2496      34F8E4B3 
 2496      B46B7EC7 
 2496      A5A00D05 
 2496      9D
 2497 0174 C805DD52 		.ascii	"\310\005\335R\320\032\341\343\024v[a'\207^J*K\250\262"
 2497      D01AE1E3 
 2497      14765B61 
 2497      27875E4A 
 2497      2A4BA8B2 
 2498 0188 4C8D9A65 		.ascii	"L\215\232e\374\325\310\257\355M\353\2644\224q\354\024"
ARM GAS  /tmp/ccMb1niR.s 			page 56


 2498      FCD5C8AF 
 2498      ED4DEBB4 
 2498      349471EC 
 2498      14
 2499 0199 DCF07777 		.ascii	"\334\360ww\230,\311\303\326}%\216\337W\342\263\366\006"
 2499      982CC9C3 
 2499      D67D258E 
 2499      DF57E2B3 
 2499      F606
 2500 01ab 32F00E47 		.ascii	"2\360\016GP`\261\361;\343\352\307%\212\310t\207Y\226"
 2500      5060B1F1 
 2500      3BE3EAC7 
 2500      258AC874 
 2500      875996
 2501 01be E5808CE7 		.ascii	"\345\200\214\347BC(\331\355\007\3359\037x\254\355K\222"
 2501      424328D9 
 2501      ED07DD39 
 2501      1F78ACED 
 2501      4B92
 2502 01d0 33EB098A 		.ascii	"3\353\011\212\012%Io\365\031\276\255\351\005;k\353\033"
 2502      0A25496F 
 2502      F519BEAD 
 2502      E9053B6B 
 2502      EB1B
 2503 01e2 30EB8747 		.ascii	"0\353\207G\315\300o\271\007b\377P\204;\002\330:\260"
 2503      CDC06FB9 
 2503      0762FF50 
 2503      843B02D8 
 2503      3AB0
 2504 01f4 0D606B50 		.ascii	"\015`kP\226\361\306&\260\006\260MX<nG\341\017w\257\355"
 2504      96F1C626 
 2504      B006B04D 
 2504      583C6E47 
 2504      E10F77AF 
 2505 0209 476DBFD3 		.ascii	"Gm\277\323u\003q$\002\230\221s\016\205\033F\035W\354"
 2505      75037124 
 2505      02989173 
 2505      0E851B46 
 2505      1D57EC
 2506 021c EE75BA30 		.ascii	"\356u\2720y\320\361\203\300\215\216C\321\202\232\032"
 2506      79D0F183 
 2506      C08D8E43 
 2506      D1829A1A 
 2507 022c 0FA29D9F 		.ascii	"\017\242\235\237\362w\275\031\264E\263\325\035\\?\001"
 2507      F277BD19 
 2507      B445B3D5 
 2507      1D5C3F01 
 2508 023c B7AB1643 		.ascii	"\267\253\026C"
 2509              		.text
 2510              		.section	.gnu.lto_.pureconst.9a6e21261cdd440f,"e",%progbits
 2511 0000 789C05C1 		.ascii	"x\234\005\301\211\011\2000\020D\321\025\376\242 \306"
 2511      89098030 
 2511      1044D115 
 2511      FEA220C6 
 2512 0010 231EB115 		.ascii	"#\036\261\025+\235i%\325\371\336\027\0215\304`\322\214"
 2512      2B9D6925 
 2512      D5F9DE17 
ARM GAS  /tmp/ccMb1niR.s 			page 57


 2512      1135C460 
 2512      D28C
 2513 0022 6632B359 		.ascii	"f2\263YD\021\253\330\304.\016Q\315\331\3632\267yL\023"
 2513      4411ABD8 
 2513      C42E0E51 
 2513      CDD9F332 
 2513      B7794C13 
 2514 0036 6FCF1F7D 		.ascii	"o\317\037}\262\015H"
 2514      B20D48
 2515              		.text
 2516              		.section	.gnu.lto_.lto.9a6e21261cdd440f,"e",%progbits
 2517 0000 09000200 		.ascii	"\011\000\002\000\001\000\000\000"
 2517      01000000 
 2518              		.text
 2519              		.section	.gnu.lto_m1.352.9a6e21261cdd440f,"e",%progbits
 2520 0000 789CEB67 		.ascii	"x\234\353g``\310a\200\2009\314\214\223\230\227030\302"
 2520      6060C861 
 2520      808039CC 
 2520      8C939897 
 2520      303330C2 
 2521 0014 588C6096 		.ascii	"X\214`\226ACC\303\237\246\263{$\22603\255`f\230\313"
 2521      414343C3 
 2521      9FA6B37B 
 2521      24963033 
 2521      AD606698 
 2522 0029 0C51DAC2 		.ascii	"\014Q\332\302\330\324\320\300\261\204\231\231q\033\\"
 2522      D8D4D0C0 
 2522      B1849999 
 2522      711B5C
 2523 0038 19072E25 		.ascii	"\031\007.%;\300J,\233:\300J\346\002M\336\3118\227\231"
 2523      3BC04A2C 
 2523      9B3AC04A 
 2523      E6024DDE 
 2523      C9389799 
 2524 004c 89713B58 		.ascii	"\211q;X\214g\0113\013P\017\343.\240\0303\343V \311\302"
 2524      8C670933 
 2524      0B500FE3 
 2524      2EA01833 
 2524      E35620C9 
 2525 0061 B8859141 		.ascii	"\270\205\221AW?#?7U?31\267\240(\263$\243,\2638#\265"
 2525      573F233F 
 2525      37553F33 
 2525      31B7A028 
 2525      B324A32C 
 2526 0079 A4A452DF 		.ascii	"\244\244R\337\331%\270 19U?77\331\330\304\320,\276$"
 2526      D925B820 
 2526      3139553F 
 2526      3737D9D8 
 2526      C4D02CBE 
 2527 008e B5B8C488 		.ascii	"\265\270\304\210\301FO\3379#3)\323?8\336\310@\317X\317"
 2527      C1464FDF 
 2527      39233329 
 2527      D33F38DE 
 2527      C840CF58 
 2528 00a3 401F24AE 		.ascii	"@\037$\256_T\242_\234_Z\004T\016\345\202\225\307\027"
 2528      5F54A25F 
 2528      9C5F5A04 
ARM GAS  /tmp/ccMb1niR.s 			page 58


 2528      540EE582 
 2528      95C717
 2529 00b6 A71696A6 		.ascii	"\247\026\226\246\346%\247\306\033\030\230\353%3\000"
 2529      E625A7C6 
 2529      1B1898EB 
 2529      253300
 2530 00c5 00446549 		.ascii	"\000DeI\336"
 2530      DE
 2531              		.text
 2532              		.section	.gnu.lto_m2.353.9a6e21261cdd440f,"e",%progbits
 2533 0000 789CEB67 		.ascii	"x\234\353g``\310a\200\2009\314\214\223\230\227030\302"
 2533      6060C861 
 2533      808039CC 
 2533      8C939897 
 2533      303330C2 
 2534 0014 588C6096 		.ascii	"X\214`\226ACC\303\237\246\336\275\022K\230\231V03\314"
 2534      414343C3 
 2534      9FA6DEBD 
 2534      124B9899 
 2534      563033CC 
 2535 0028 6586286D 		.ascii	"e\206(maljh\340X\302\314\314\270\015\256\214\003\227"
 2535      616C6A68 
 2535      E058C2CC 
 2535      CCB80DAE 
 2535      8C0397
 2536 003b 921D6025 		.ascii	"\222\035`%\226M\035`%s\201&\357d\234\313\314\304\270"
 2536      964D1D60 
 2536      25738126 
 2536      EF649CCB 
 2536      CCC4B8
 2537 004e 1D2CC6B3 		.ascii	"\035,\306\263\204\231\005\250\207q\027P\214\231q+\220"
 2537      849905A8 
 2537      87711750 
 2537      8C99712B 
 2537      90
 2538 005f 6461DCC2 		.ascii	"da\334\302\310\240\253\237\221\237\233\252\237\231\230"
 2538      C8A0AB9F 
 2538      919F9BAA 
 2538      9F9998
 2539 006e 5B509459 		.ascii	"[P\224Y\222Q\226Y\234\221ZRR\251\357\354\022\\\220\230"
 2539      92519659 
 2539      9C915A52 
 2539      52A9EFEC 
 2539      125C9098 
 2540 0082 9CAA9F9B 		.ascii	"\234\252\237\233\233llbh\026_\222Z\\b\304`\243\247\357"
 2540      9B6C6C62 
 2540      68165F92 
 2540      5A5C62C4 
 2540      60A3A7EF 
 2541 0096 9C919994 		.ascii	"\234\221\231\224\351\037\034od\240g\254g\240\017\022"
 2541      E91F1C6F 
 2541      64A067AC 
 2541      67A00F12 
 2542 00a6 D72F2AD1 		.ascii	"\327/*\321/\316/-\002*\207r\301\312\343\213S\013KS\363"
 2542      2FCE2F2D 
 2542      022A8772 
 2542      C1CAE38B 
ARM GAS  /tmp/ccMb1niR.s 			page 59


 2542      530B4B53 
 2543 00bb 9253E30D 		.ascii	"\222S\343\015\014\314\365\222\031\000\015\302I\237"
 2543      0CCCF592 
 2543      19000DC2 
 2543      499F
 2544              		.text
 2545              		.section	.gnu.lto_c1.354.9a6e21261cdd440f,"e",%progbits
 2546 0000 789CCB67 		.ascii	"x\234\313g``\310a\200\2009\314\214\006\015\015\015\177"
 2546      6060C861 
 2546      808039CC 
 2546      8C060D0D 
 2546      0D7F
 2547 0012 9A7AF749 		.ascii	"\232z\367I,afX\301\3140\227\031\"\334\302\330\324\320"
 2547      2C616658 
 2547      C1CC3097 
 2547      1922DCC2 
 2547      D8D4D0
 2548 0025 C0B18499 		.ascii	"\300\261\204\231\221q\013#L\031\007.%\333\300J,\233"
 2548      91710B23 
 2548      4C19072E 
 2548      25DBC04A 
 2548      2C9B
 2549 0037 3AC04AE6 		.ascii	":\300J\346\002E\2663\316efb\334\012\026cY\302\314\004"
 2549      0245B633 
 2549      CE656662 
 2549      DC0A1663 
 2549      59C2CC04 
 2550 004b D4C3B883 		.ascii	"\324\303\270\203\221AW?#?7U?31\267\240(\263$\243,\263"
 2550      9141573F 
 2550      233F3755 
 2550      3F3331B7 
 2550      A028B324 
 2551 0062 3823B5A4 		.ascii	"8#\265\244\244R\337\331%\270 19U?77\331\330\304\320"
 2551      A452DFD9 
 2551      25B82031 
 2551      39553F37 
 2551      37D9D8C4 
 2552 0077 2CBE24B5 		.ascii	",\276$\265\270\304\210\301FO\3379#3)\323?8\336\310@"
 2552      B8C488C1 
 2552      464FDF39 
 2552      233329D3 
 2552      3F38DEC8 
 2553 008c CF58CF40 		.ascii	"\317X\317@\037$\256_T\242_\234_Z\004T\016\345\202\225"
 2553      1F24AE5F 
 2553      54A25F9C 
 2553      5F5A0454 
 2553      0EE58295 
 2554 00a0 C717A716 		.ascii	"\307\027\247\026\226\246\346%\247\306\033\030\230\353"
 2554      96A6E625 
 2554      A7C61B18 
 2554      98EB
 2555 00ae 25330000 		.ascii	"%3\000\000\240\270B\363"
 2555      A0B842F3 
 2556              		.text
 2557              		.section	.gnu.lto_thread1.355.9a6e21261cdd440f,"e",%progbits
 2558 0000 789C6D50 		.ascii	"x\234mP;K\003A\030\374\346\276\3634Z\372\007\002\026"
 2558      3B4B0341 
ARM GAS  /tmp/ccMb1niR.s 			page 60


 2558      18FCE6BE 
 2558      F3345AFA 
 2558      070216
 2559 0013 62E15D5E 		.ascii	"b\341]^\232\306BPl-\374\001A\303A\2568\023\223\213`"
 2559      9AC64250 
 2559      6C2DFC01 
 2559      41C341AE 
 2559      3813938B 
 2560 0028 E51AB5D1 		.ascii	"\345\032\265\321\"\017\033\021I!\207\330\210\225o\305"
 2560      220F1B11 
 2560      492187D8 
 2560      88956FC5 
 2561 0038 03C5CEC6 		.ascii	"\003\305\316\306?\240\210\225\205\004A\260\020t\357"
 2561      3FA08895 
 2561      850441B0 
 2561      1074EF
 2562 0047 8C8A9285 		.ascii	"\214\212\222\205\205ofggf\267\002\2422\021\365\310\015"
 2562      856F6667 
 2562      6766B702 
 2562      A23211F5 
 2562      C80D
 2563 0059 26D4AA2B 		.ascii	"&\324\252+\012\011!\206\333\025,TWB8F\200@\363\012\346"
 2563      0A092186 
 2563      DB152C54 
 2563      57423846 
 2563      8040F30A 
 2564 006e B1C67D12 		.ascii	"\261\306}\022\276-o\354.jb\307\203\313Du\271\203\265"
 2564      BE2D6FEC 
 2564      2E6A62C7 
 2564      83CB4475 
 2564      B983B5
 2565 0081 C9A8B1CB 		.ascii	"\311\250\261\313\200\332\234\024\204\345\3046\365zB"
 2565      80DA9C14 
 2565      84E5C436 
 2565      F57A42
 2566 0090 543685A7 		.ascii	"T6\205\247\272\3148\204\274\201\003`_fK\"{\335M\244"
 2566      BACC3884 
 2566      BC810360 
 2566      5F664B22 
 2566      7BDD4DA4 
 2567 00a4 7DFB488E 		.ascii	"}\373H\216\366n\333<\361\376Q\026\342\346\021'=2\334"
 2567      F66EDB3C 
 2567      F1FE5116 
 2567      E2E61127 
 2567      3D32DC
 2568 00b7 6555058E 		.ascii	"eU\005\216\374\262\354\327\023*\204GTa\345\013,H\360"
 2568      FCB2ECD7 
 2568      132A8447 
 2568      5461E50B 
 2568      2C48F0
 2569 00ca 04F17077 		.ascii	"\004\361pw\015j`)LKP\\n\2533~ji\360\247\200\327v8\240"
 2569      0D6A6029 
 2569      4C4B505C 
 2569      6EAB337E 
 2569      6A69F0A7 
 2570 00e3 B77DE376 		.ascii	"\267}\343v\234\001\247\2207JBt\370\272s\310W\273\334"
 2570      9C01A790 
ARM GAS  /tmp/ccMb1niR.s 			page 61


 2570      374A4274 
 2570      F8BA73C8 
 2570      57BBDC
 2571 00f6 11383634 		.ascii	"\021864zFi}\025[\214\246S\010\264\355\377\212\024\253"
 2571      7A46697D 
 2571      155B8CA6 
 2571      5308B4ED 
 2571      FF8A14AB 
 2572 010a 5BACE242 		.ascii	"[\254\342B\206\374\206v\326Y!\222j\227\273\002\207\027"
 2572      86FC8676 
 2572      D6592192 
 2572      6A97BB02 
 2572      8717
 2573 011c ED6FA5AF 		.ascii	"\355o\245\257\354VE.\377\025\271\372.\362\202\322\375"
 2573      EC56452E 
 2573      FF15B9FA 
 2573      2EF282D2 
 2573      FD
 2574 012d EB58F0C9 		.ascii	"\353X\360\311e\306\357\373\211\372\215L\3266\015k\322"
 2574      65C6EFFB 
 2574      89FA8D4C 
 2574      D6360D6B 
 2574      D2
 2575 013e CEE52D27 		.ascii	"\316\345-'3k\0252\246\343\314\031#\243\023\271\311\264"
 2575      336B1532 
 2575      A6E3CC19 
 2575      23A313B9 
 2575      C9B4
 2576 0150 69D8763A 		.ascii	"i\330v:\236\210\016\246\034\263\340\304hH7F2\326\224"
 2576      9E880EA6 
 2576      1CB3E0C4 
 2576      68483746 
 2576      32D694
 2577 0163 353E918A 		.ascii	"5>\221\212E\364\270\0361|\336\310;F![\314Ky\023\006"
 2577      45F4B81E 
 2577      317CDEC8 
 2577      3B46215B 
 2577      CC4B7913 
 2578 0178 F254C19C 		.ascii	"\362T\301\234)\232\323i3\025\211$\3654!\027n}\242'\343"
 2578      299AD369 
 2578      33158924 
 2578      F5342117 
 2578      6E7DA227 
 2579 018d 0389583C 		.ascii	"\003\211X<\032\245O\235\316\242\034"
 2579      1AA54F9D 
 2579      CEA21C
 2580              		.text
 2581              		.section	.gnu.lto_thread4A.356.9a6e21261cdd440f,"e",%progbits
 2582 0000 789C6D50 		.ascii	"x\234mP\273J\003A\024\275g\357\346\241\226\376@@D,\334"
 2582      BB4A0341 
 2582      14BD67EF 
 2582      E6A196FE 
 2582      4040442C 
 2583 0015 CDC34763 		.ascii	"\315\303Gc!hga\221\017\010\032\026\262\305&1Y\005+'"
 2583      21686761 
 2583      910F081A 
 2583      16B2C526 
ARM GAS  /tmp/ccMb1niR.s 			page 62


 2583      3159052B 
 2584 002a 411B9BF8 		.ascii	"A\033\233\370\350DR-\222.\225\212\205\272hi'X+b%\010"
 2584      E844522D 
 2584      922E958A 
 2584      85BA6869 
 2584      27582B62 
 2585 0040 21041414 		.ascii	"!\004\024\024tv|\022203\367\2349\367\314\231\311\203"
 2585      74767C12 
 2585      323033F7 
 2585      9C39F7CC 
 2585      99C983
 2586 0053 A8464443 		.ascii	"\250FDCr\202\011\273;[\032\011!f\"\032*;[}8\205B\240"
 2586      728209BB 
 2586      3B5B1A09 
 2586      2166221A 
 2586      2A3B5B7D 
 2587 006b 750DEBD8 		.ascii	"u\015\353\330\343Q\011_7\367\2377\303\242\341\303c\242"
 2587      E351095F 
 2587      37F79F37 
 2587      C3A2E1C3 
 2587      63A2
 2588 007d BA9C6A1C 		.ascii	"\272\234j\0340v\331c@\377\2564\304d\305\016\215\370"
 2588      3076D963 
 2588      40FFAE34 
 2588      C464C50E 
 2588      8DF8
 2589 008f 426C1F08 		.ascii	"Bl\037\010_\367\230q\002\331\201c\340H\336-\211Bs\220"
 2589      5FF79871 
 2589      02D98163 
 2589      E048DE2D 
 2589      89427390 
 2590 00a3 28FCE323 		.ascii	"(\374\343#9j\336\204|\361\376Q\023\342\366\021o\303"
 2590      396ADE84 
 2590      7CF1FE51 
 2590      13E2F611 
 2590      6FC3
 2591 00b5 21199183 		.ascii	"!\031\221\203PB\207\360\211\266Y\373\002\025\011\236"
 2591      504287F0 
 2591      89B659FB 
 2591      0215099E 
 2592 00c5 201EEEAE 		.ascii	" \036\356\256\241\366\326\000\265\260\021\243\015h\036"
 2592      A1F6D600 
 2592      B5B011A3 
 2592      0D681E
 2593 00d4 EB75965E 		.ascii	"\353u\226^A\214\020:r\015+I\373\277$Rg\3557v\024A\245"
 2593      418C103A 
 2593      720D2B49 
 2593      FBBF2452 
 2593      67ED3776 
 2594 00eb F8688315 		.ascii	"\370h\203\025}\010\231\257\017\347\300\031dGU\210h\240"
 2594      7D0899AF 
 2594      0FE7C019 
 2594      64475588 
 2594      68A0
 2595 00fd BB80FC15 		.ascii	"\273\200\374\025\217\373\225a\247\313\360\253\263\227"
 2595      8FFB9561 
 2595      A7CBF0AB 
ARM GAS  /tmp/ccMb1niR.s 			page 63


 2595      B397
 2596 010b CD6597CD 		.ascii	"\315e\227\315\325\217M\033\325\373\227y\365\2055\306"
 2596      D58F4D1B 
 2596      D5FB9779 
 2596      F58535C6 
 2597 011b DF3B89C6 		.ascii	"\337;\211\306\314\\\301\261L{\321)\226l7\267j\227s\226"
 2597      CC5CC1B1 
 2597      4C7BD129 
 2597      966C37B7 
 2597      6A977396 
 2598 012f EBAE99B3 		.ascii	"\353\256\231\263s\351\342b\3262\035'\233\032OLf\\\253"
 2598      73E9E262 
 2598      D6321D27 
 2598      9B1A4F4C 
 2598      665CAB
 2599 0142 EC2669DA 		.ascii	"\354&i\3320gs\366\222\275\220\316$\343F\312\210\233"
 2599      306773F6 
 2599      92BD90CE 
 2599      24E346CA 
 2599      889B
 2600 0154 016F965C 		.ascii	"\001o\226\\\263\\X)I\3717T\362L\331Z^\261\362Y+\023"
 2600      B35C5829 
 2600      49F93754 
 2600      F24CD95A 
 2600      5EB1F259 
 2601 016a 8F4F1959 		.ascii	"\217O\031YB1\326\373\304\230JM\214'S\211\004}\002\351"
 2601      4231D6FB 
 2601      C4984A4D 
 2601      8C275389 
 2601      047D02E9 
 2602 017e E09CA4   		.ascii	"\340\234\244"
 2603              		.text
 2604              		.section	.gnu.lto_thread4B.357.9a6e21261cdd440f,"e",%progbits
 2605 0000 789C8D52 		.ascii	"x\234\215RKh\023Q\024\275w\3364M\254VAQ\020\027\361"
 2605      4B681351 
 2605      14BD77DE 
 2605      344DAC56 
 2605      41511017 
 2606 0015 5344A899 		.ascii	"SD\250\231\264Q\273q\241\306\215`Q\214\373\320\216\203"
 2606      B451BB71 
 2606      A1C68D60 
 2606      518CFBD0 
 2606      8E83
 2607 0027 09389D9A 		.ascii	"\0118\235\232I\245]9\266V\301\205\255\021\233Rc\240"
 2607      49A55D39 
 2607      B656C185 
 2607      AD119B52 
 2607      63A0
 2608 0039 3848178A 		.ascii	"8H\027\212\033?\325\372\211\266\025?\024\255\240\365"
 2608      1B3FD5FA 
 2608      89B6153F 
 2608      14ADA0F5 
 2609 0049 8B5251A4 		.ascii	"\213RQ\244ElUP\304\242\367\275I\233\370\305\201\344"
 2609      456C5550 
 2609      C4A2F7BD 
 2609      499BF8C5 
 2609      81E4
ARM GAS  /tmp/ccMb1niR.s 			page 64


 2610 005b BD7BDEBD 		.ascii	"\275{\336\275\347\334w\317[ \003lE\200\305\000\200\014"
 2610      E7DC77CF 
 2610      5B20036C 
 2610      4580C500 
 2610      800C
 2611 006d 3071E880 		.ascii	"0q\350\200\004\226e\255)\224p\317\241\003\036\274\200"
 2611      049665AD 
 2611      299470CF 
 2611      A1031EBC 
 2611      80
 2612 007e 2242D82D 		.ascii	"\"B\330-\341n<\314\226Q\370\245\271c\242\331eue\320"
 2612      E16E3CCC 
 2612      9651F8A5 
 2612      B963A2D9 
 2612      657565D0 
 2613 0092 660069FA 		.ascii	"f\000i\372\211/\3050\301l\206(gw\022zi\307tX\232\261"
 2613      892FC530 
 2613      C16C8628 
 2613      6777127A 
 2613      69C77458 
 2614 00a8 ACD69495 		.ascii	"\254\326\224\225\221m\306\360<R\005\236C<K\272\004\030"
 2614      916DC6F0 
 2614      3C52059E 
 2614      433C4BBA 
 2614      0418
 2615 00ba EDB3015C 		.ascii	"\355\263\001\\Y\036\211\012\304\036\361\"rF\027\327"
 2615      591E890A 
 2615      C41EF122 
 2615      724617D7 
 2616 00ca EB0B0035 		.ascii	"\353\013\0005\222f\322$\222\352\352\177]\000\330C\030"
 2616      9266D224 
 2616      92EAEA7F 
 2616      5D00D843 
 2616      18
 2617 00db E318EB16 		.ascii	"\343\030\353\026\311\\\347K\353\301\247w\347;b2^FN\345"
 2617      C95CE74B 
 2617      EBC1A777 
 2617      E73B6232 
 2617      5E464EE5 
 2618 00ef 88E115EA 		.ascii	"\210\341\025\352W6^\316\241\314\022\236\331\226\270"
 2618      57365ECE 
 2618      A1CC129E 
 2618      D996B8
 2619 00fe 7CB6B4B7 		.ascii	"|\266\264\267\311\272iM\345B.\327\271\221\320\177\323"
 2619      C9BA694D 
 2619      E5422ED7 
 2619      B991D07F 
 2619      D3
 2620 010f E1C2AB04 		.ascii	"\341\302\253\004^\342l\274W\314\344\367\227z{f\201\323"
 2620      5EE26CBC 
 2620      57CCE4F7 
 2620      977A7B66 
 2620      81D3
 2621 0121 A09C6BB0 		.ascii	"\240\234k\260y\202\032\274NX\001\344\364\336\375\227"
 2621      79821ABC 
 2621      4E5801E4 
 2621      F4DEFD97 
ARM GAS  /tmp/ccMb1niR.s 			page 65


 2622 0131 5EF737D2 		.ascii	"^\3677\322\353#\260wJ\257_\350\361\234\323\367\0132"
 2622      EB23B077 
 2622      4AAF5FE8 
 2622      F19CD3F7 
 2622      0B32
 2623 0143 D6B7EF2D 		.ascii	"\326\267\357-Vf\377\214\211\376\304\347n\311\015\320"
 2623      5666FF8C 
 2623      89FEC4E7 
 2623      6EC90DD0 
 2624 0153 C2B86996 		.ascii	"\302\270i\226\214V\006\240\225IN\320D\301\010Z\303\337"
 2624      8C5606A0 
 2624      95494ED0 
 2624      44C1085A 
 2624      C3DF
 2625 0165 EFA0585B 		.ascii	"\357\240X[\213a\014\367za/J6+H3\"\3466\271\360Y\221"
 2625      8B610CF7 
 2625      7A612F4A 
 2625      362B4833 
 2625      22E636B9 
 2626 017c CD0A454A 		.ascii	"\315\012EJ\242\230/\037;\217$\222mH\363\025`r\310#\210"
 2626      A2982F1F 
 2626      3B8F2492 
 2626      6D48F315 
 2626      6072C823 
 2627 0191 3E9EB2BF 		.ascii	">\236\262\277\216<\232Mc\020\360\321\321v\344x\243\227"
 2627      8E3C9A4D 
 2627      6310F0D1 
 2627      D176E478 
 2627      A397
 2628 01a3 86C38964 		.ascii	"\206\303\211d\364:\325\251s/\216!\315H\244\365\274\360"
 2628      F43AD5A9 
 2628      732F8E21 
 2628      CD48A4F5 
 2628      BCF0
 2629 01b5 E03584F7 		.ascii	"\3405\204\367\330\270\210\337\340\002\267x\341mi\237"
 2629      D8B888DF 
 2629      E002B778 
 2629      E16D699F 
 2630 01c5 DB666EDA 		.ascii	"\333fn\332\312\374\345\335F\240\025\357 \336\022S]8"
 2630      CAFCE5DD 
 2630      46A015EF 
 2630      20DE1253 
 2630      5D38
 2631 01d7 20CE3DE2 		.ascii	" \316=\342p\300Q\031;iw\214\272\201\033\301y?t\036i"
 2631      70C05119 
 2631      3B69778C 
 2631      BA811BC1 
 2631      793F741E 
 2632 01ec 4F96388D 		.ascii	"O\2268\215$\347:\310\361\361\215dC\336%\247\245\351"
 2632      24E73AC8 
 2632      F1F18D64 
 2632      43DE25A7 
 2632      A5E9
 2633 01fe 5E930FB3 		.ascii	"^\223\017\263HP\013\274\250\213\011\370\004\322\013"
 2633      48500BBC 
 2633      A88B09F8 
 2633      04D20B
ARM GAS  /tmp/ccMb1niR.s 			page 66


 2634 020d 9C8E8388 		.ascii	"\234\216\203\210\367\220*\032-\313\315\363\356#\321"
 2634      F7902A1A 
 2634      2DCBCDF3 
 2634      EE23D1
 2635 021c D86C8660 		.ascii	"\330l\206`o+\376\231\320\015\177\243y\360\013\315\303"
 2635      6F2BFE99 
 2635      D00D7FA3 
 2635      79F00BCD 
 2635      C3
 2636 022d 7C9A764E 		.ascii	"|\232vN\323\224\245)N3\017\177\3743\305Q\307\344\320"
 2636      D394A529 
 2636      4E330F7F 
 2636      FC33C551 
 2636      C7E4D0
 2637 0240 2FF2A15F 		.ascii	"/\362\241_w\306v5\231t.:<8\264D\254\317\207\304\311"
 2637      77C67635 
 2637      99742E3A 
 2637      3C38B444 
 2637      ACCF87C4 
 2638 0255 A2A9BFE1 		.ascii	"\242\251\277\341O\363\262\266<\031%[z\235\302\361\234"
 2638      4FF3B2B6 
 2638      3C19255B 
 2638      7A9DC2F1 
 2638      9C
 2639 0266 2D7D595B 		.ascii	"-}Y[ \337\226\376\234-7\362m\311\032\360XX\221?\365"
 2639      20DF96FE 
 2639      9C2D37F2 
 2639      6DC91AF0 
 2639      5858913F 
 2640 027b 313E757A 		.ascii	"1>uz\216\360\201\302\316W\343\353\371\214\371\327\302"
 2640      8EF081C2 
 2640      CE57E3EB 
 2640      F98CF9D7 
 2640      C2
 2641 028c D079688D 		.ascii	"\320yh\215\031\036.W\"\206\256)\321*\2756\026\215Gv"
 2641      191E2E57 
 2641      2286AE29 
 2641      D12ABD36 
 2641      168D4776 
 2642 02a0 45CD8816 		.ascii	"E\315\210\026\2177(\301\365\241\332*USt]\015\254([\025"
 2642      8F3728C1 
 2642      F5A1DA2A 
 2642      5553745D 
 2642      0DAC285B 
 2643 02b5 8E6B66BC 		.ascii	"\216kf\274\034V\373\224`$Z\035\335\024\012\227\373}"
 2643      1C56FB94 
 2643      60245A1D 
 2643      DD140A97 
 2643      FB7D
 2644 02c7 019F5FE1 		.ascii	"\001\237_\341\270\022\213+\246Q\027\243\364l(\322\303"
 2644      B8128B2B 
 2644      A65117A3 
 2644      F46C28D2 
 2644      C3
 2645 02d8 A6B6B34E 		.ascii	"\246\266\263N\253Q\265\260\337_\341S\001k\275\177>\361"
 2645      AB51B5B0 
 2645      DF5FE153 
ARM GAS  /tmp/ccMb1niR.s 			page 67


 2645      016BBD7F 
 2645      3EF1
 2646 02ea 550456AE 		.ascii	"U\004V\256(\017\224\225\301\322\337\370\015\223\263"
 2646      280F9495 
 2646      C1D2DFF8 
 2646      0D93B3
 2647 02f9 476BD41D 		.ascii	"Gk\324\035u\3334E\215\230\015\246/\002\205\325U\246"
 2647      75DB3445 
 2647      8D980DA6 
 2647      2F0285D5 
 2647      55A6
 2648 030b B639165D 		.ascii	"\2669\026]\367\247|\325\320u\243F\321\352\343\312\332"
 2648      F7A77CD5 
 2648      D075A346 
 2648      D1EAE3CA 
 2648      DA
 2649 031c 2D954AB0 		.ascii	"-\225J\2602\264!\244\004\215\230\246l\230\244\321\315"
 2649      32B421A4 
 2649      048D98A6 
 2649      6C98A4D1 
 2649      CD
 2650 032d A819DEAE 		.ascii	"\250\031\336\256\252D\265\362\037\024\265F,nr\222`e"
 2650      AA44B5F2 
 2650      1F14B546 
 2650      2C6E7292 
 2650      6065
 2651 033f 3D69ABC4 		.ascii	"=i\253\304\021\336U\241S\325\254\312\320\026/o\202\246"
 2651      11DE55A1 
 2651      53D5ACCA 
 2651      D0162F6F 
 2651      82A6
 2652 0351 56EA2DF1 		.ascii	"V\352-\361\203\024\203B]\323\215X\003\374\000Et\301"
 2652      83148342 
 2652      5DD38D58 
 2652      03FC0045 
 2652      74C1
 2653 0363 B8       		.ascii	"\270"
 2654              		.text
 2655              		.section	.gnu.lto_thread6.358.9a6e21261cdd440f,"e",%progbits
 2656 0000 789C7591 		.ascii	"x\234u\221OO\023Q\024\305\357\231;-\245h]\370\005\232"
 2656      4F4F1351 
 2656      14C5EF99 
 2656      3B2DA568 
 2656      5DF8059A 
 2657 0014 B8202C98 		.ascii	"\270 ,\230\351\037\224\015\013\023\\\343\202\017\320"
 2657      E91F940D 
 2657      0B135CE3 
 2657      820FD0
 2658 0023 40334967 		.ascii	"@3Ig1\266\264\203\211+^\033\014\011,\012\270QCJB&\244"
 2658      31B6B483 
 2658      892B5E1B 
 2658      0C092C0A 
 2658      B851434A 
 2659 003a 3B57F29F 		.ascii	";W\362\2370\020\026\262\200\005\237\000\214+\027\306"
 2659      301016B2 
 2659      80059F00 
 2659      8C2B17C6 
ARM GAS  /tmp/ccMb1niR.s 			page 68


 2660 004a B87261A2 		.ascii	"\270ra\242w\036\245U\243\223\274\344\336\373\316\373"
 2660      771EA555 
 2660      A393BCE4 
 2660      DEFBCEFB 
 2661 005a BD73DE5C 		.ascii	"\275s\336\\\203\250ID\017d\201\011\253+\213\006)\245"
 2661      83A84944 
 2661      0F648109 
 2661      AB2B8B06 
 2661      29A5
 2662 006c 1EF719A8 		.ascii	"\036\367\031\250\257,\366c\027\272\003\315\031\230\303"
 2662      AF2CF663 
 2662      17BA03CD 
 2662      1998C3
 2663 007b 2B1E92F6 		.ascii	"+\036\222\366\373\313\267o\026\342\252\035\"`\242\226"
 2663      FBCBB76F 
 2663      16E2AA1D 
 2663      2260A296 
 2664 008b 2CFDAD31 		.ascii	",\375\2551V9`\300\354T\006\322R\261G\203\241R\313k*"
 2664      563960C0 
 2664      EC5406D2 
 2664      52B14783 
 2664      A152CB6B 
 2665 00a0 3403666C 		.ascii	"4\003flCN`\013x/w\313\240\\\277O\024\277\345\310\214"
 2665      434E600B 
 2665      782F77CB 
 2665      A05CBF4F 
 2665      14BFE5C8 
 2666 00b5 DE5DC642 		.ascii	"\336]\306B\365\343gS\251\363OX\037L@df\014\330\211\314"
 2666      F5E36753 
 2666      A9F34F58 
 2666      1F4C4064 
 2666      660CD889 
 2667 00ca 72644F99 		.ascii	"rdO\231P!\3212\0337M]\232\317P\037\267/@_1\237\246y"
 2667      5021D132 
 2667      1B374D5D 
 2667      9ACF501F 
 2667      B72F405F 
 2668 00e2 1801C75A 		.ascii	"\030\001\307Z\214\256\2558\242J\317\343m\326\343\315"
 2668      8CAEAD38 
 2668      A24ACFE3 
 2668      6DD6E3CD 
 2669 00f2 08DC8703 		.ascii	"\010\334\207\003`\037r\242\241T\"\322\035BR\007\234"
 2669      601F72A2 
 2669      A15422D2 
 2669      1D425207 
 2669      9C
 2670 0103 D0C49DD4 		.ascii	"\320\304\235\324o\300\376\026\033]`\262\007L\266\031"
 2670      6FC0FE16 
 2670      1B5D60B2 
 2670      074CB619 
 2671 0113 5DE0008E 		.ascii	"]\340\000\216\201\260\007L\342\344\006xG\003\367R\364"
 2671      81B0074C 
 2671      E2E40678 
 2671      4703F752 
 2671      F4
 2672 0124 058DD74B 		.ascii	"\005\215\327K\330`tHwA\233\3213\213\330\334\340\030"
 2672      D8607448 
ARM GAS  /tmp/ccMb1niR.s 			page 69


 2672      77419BD1 
 2672      338BD8DC 
 2672      E018
 2673 0136 4EC575EF 		.ascii	"N\305u\357\322T\213\305\256\250\003\276\247\011\007"
 2673      D2548BC5 
 2673      AEA803BE 
 2673      A70907
 2674 0145 A93F339A 		.ascii	"\251?3\232\364\277d\037\376Jvv\233\354\033\032WG\023"
 2674      F4BF641F 
 2674      FE4A7676 
 2674      9BEC1B1A 
 2674      574713
 2675 0158 FAAF3519 		.ascii	"\372\2575\031\275\007%\032\266Ke\317\261\335)\257Ru"
 2675      BD07251A 
 2675      B64B65CF 
 2675      B1DD29AF 
 2675      5275
 2676 016a FDD273B7 		.ascii	"\375\322s\267Vr|\377\205=\376d\2622Utl\317+\346G\262"
 2676      56727CFF 
 2676      853DFE64 
 2676      B2325574 
 2676      6CCF2BE6 
 2677 0180 8F0ABE53 		.ascii	"\217\012\276S\363s4f\331\343%w\332}:Y\310e\254\274\225"
 2677      F3733466 
 2677      D9E32577 
 2677      DA7D3A59 
 2677      C865ACBC 
 2678 0195 B1A3B95D 		.ascii	"\261\243\271]\365\355Zy\266*\362N\253\345\205\23233"
 2678      F5ED5A79 
 2678      B62AF24E 
 2678      ABE5859A 
 2678      3333
 2679 01a7 EB3C2B3A 		.ascii	"\353<+:\205Lf\324*\022*\351\177\357X\243\371\207#\271"
 2679      854C66D4 
 2679      2A122AE9 
 2679      7FEF58A3 
 2679      F98723B9 
 2680 01bb 7C364BBF 		.ascii	"|6K\277\000(\237\264\324"
 2680      00289FB4 
 2680      D4
 2681              		.text
 2682              		.section	.gnu.lto_thread8.359.9a6e21261cdd440f,"e",%progbits
 2683 0000 789C7D92 		.ascii	"x\234}\222Mk\023Q\024\206\317;g:m\243\246\305_\020p"
 2683      4D6B1351 
 2683      1486CF3B 
 2683      673A6DA3 
 2683      A6C55F10 
 2684 0015 515C3893 		.ascii	"Q\\8\223\217j7.\204\272\326E\177@\250a \263\030\023"
 2684      8F6A372E 
 2684      84BAD645 
 2684      7F40A861 
 2684      20B31813 
 2685 0029 93A9A09B 		.ascii	"\223\251\240\233\336\206\026\241.\322\217\215H\311\242"
 2685      DE8616A1 
 2685      2ED28F8D 
 2685      48C9A2
 2686 0038 0C25AE5C 		.ascii	"\014%\256\\\371\205\026FP\301E\013v\243\013\027\"\256"
ARM GAS  /tmp/ccMb1niR.s 			page 70


 2686      F9851646 
 2686      50C1450B 
 2686      76A30B17 
 2686      22AE
 2687 004a BA101191 		.ascii	"\272\020\021\221\202B=\367\2324!T/\\8\347\275\347<\274"
 2687      82423DF7 
 2687      9A342154 
 2687      2F5C38E7 
 2687      BDE73CBC 
 2688 005e E7DE7BDB 		.ascii	"\347\336{\333\"j\022\321\031\331`\302\332\352\262EJ"
 2688      226A12D1 
 2688      19D960C2 
 2688      DAEAB245 
 2688      4A
 2689 006f A94BC316 		.ascii	"\251K\303\026\026V\227G\361\014&\003\315[\230\307:\237"
 2689      16569747 
 2689      F10C2603 
 2689      CD5B98C7 
 2689      3A9F
 2690 0081 95F460E9 		.ascii	"\225\364`\351\376\203;\216j'\210\231\250%\333\254\015"
 2690      FE833B8E 
 2690      6A278899 
 2690      A825DBAC 
 2690      0D
 2691 0092 C61AC70C 		.ascii	"\306\032\307\014\330\235\310BF\"\016i\"QjeC%v\314\214"
 2691      D89DC842 
 2691      46220E69 
 2691      22516A65 
 2691      432576CC 
 2692 00a7 27900E3C 		.ascii	"'\220\016<\006\036\201H\204\312\376i\"\247\313\021\215"
 2692      061E8148 
 2692      84CAFE69 
 2692      22A7CB11 
 2692      8D
 2693 00b8 1EEE0D25 		.ascii	"\036\356\015%\352\367aS\251\235/\330\236HA\312l\007"
 2693      EAF76153 
 2693      A99D2FD8 
 2693      9E4841CA 
 2693      6C07
 2694 00ca 782A874D 		.ascii	"x*\207M\326\366\224\015\225\020\255\260\3657Y\220d\037"
 2694      D6F6940D 
 2694      9510ADB0 
 2694      F5375990 
 2694      641F
 2695 00dc EAF3FB5D 		.ascii	"\352\363\373]\3207,fh\021V\314C-\306\221-\007:2\272"
 2695      D0372C66 
 2695      681156CC 
 2695      432DC691 
 2695      2D073A32 
 2696 00f1 D366236F 		.ascii	"\323f#oi\3600^\000\317!\035\015\245Ft\3356d\352\230"
 2696      69F0305E 
 2696      00CF211D 
 2696      0DA54674 
 2696      DD3664EA 
 2697 0106 470CF143 		.ascii	"G\014\361C\3728`\027\203>L2\200y\331\217\371\2501K\035"
 2697      FA386017 
 2697      833E4C32 
ARM GAS  /tmp/ccMb1niR.s 			page 71


 2697      8079D98F 
 2697      F9A8314B 
 2698 011b CC688BAD 		.ascii	"\314h\213\255#_\251\236\257T[\364.\360\004^\003\257"
 2698      235FA99E 
 2698      AF545BF4 
 2698      2EF0045E 
 2698      03AF
 2699 012d 7AC014DE 		.ascii	"z\300\024\336h\240n9\211CYc1\2372\354\037i\372\212\306"
 2699      68A06E39 
 2699      89435963 
 2699      319F32EC 
 2699      1F69FA8A 
 2700 0142 BDBBD864 		.ascii	"\275\273\330dt\240i\320\226~8\351\2637\305\313[\261"
 2700      74A069D0 
 2700      967E38E9 
 2700      B337C5CB 
 2700      5BB1
 2701 0154 DD1B63AC 		.ascii	"\335\033c\254\305r\001R\035\363\270!\374\034\030\322"
 2701      C5720152 
 2701      1DF3B821 
 2701      FC1C18D2 
 2702 0164 FEE7903B 		.ascii	"\376\347\220;\003C\356\366\017y\360_L\377\225\277\033"
 2702      0343EEF6 
 2702      0F79F05F 
 2702      4CFF95BF 
 2702      1B
 2703 0175 C0EC7531 		.ascii	"\300\354u1\337\321\370\364\353\212\371NMF\357\245\211"
 2703      DFD1F8F4 
 2703      EB8AF94E 
 2703      4D46EFA5 
 2703      89
 2704 0186 CE79E54A 		.ascii	"\316y\345J\350{\301lX\255\005Q\371fP/\373Qt\313\233"
 2704      E87BC16C 
 2704      58AD0551 
 2704      F966502F 
 2704      FB5174CB 
 2705 019b BE3C539D 		.ascii	"\276<S\235-\371^\030\226\012\223\271\013\305\310\257"
 2705      2DF95E18 
 2705      960A93B9 
 2705      0BC5C8AF 
 2706 01ab 4779BAE8 		.ascii	"Gy\272\350z\323\345\340Zpu\246\230\317\272\0057\353"
 2706      7AD3E5E0 
 2706      5A7075A6 
 2706      98CFBA05 
 2706      37EB
 2707 01bd 69DDAB45 		.ascii	"i\335\253E^\2752W\223\362Nj\312\213u\377\306\234\177"
 2707      5EBD3257 
 2707      93F24E6A 
 2707      CA8B75FF 
 2707      C69C7F
 2708 01d0 BDE417B3 		.ascii	"\275\344\027\263\331)\267D\250f\216?q\247\012\347'\363"
 2708      D929B744 
 2708      A8668E3F 
 2708      71A70AE7 
 2708      27F3
 2709 01e2 855C8EFE 		.ascii	"\205\\\216\376\000\305|\336\252"
 2709      00C57CDE 
ARM GAS  /tmp/ccMb1niR.s 			page 72


 2709      AA
 2710              		.text
 2711              		.section	.gnu.lto_thread9.360.9a6e21261cdd440f,"e",%progbits
 2712 0000 789C6D50 		.ascii	"x\234mP;K\003A\030\374\346\276K|\025\001\177A\300B,"
 2712      3B4B0341 
 2712      18FCE6BE 
 2712      4B7C1501 
 2712      7F41C042 
 2713 0015 BCCB434D 		.ascii	"\274\313CMc!ho\341\017\010\032\016r\305\231\230\234"
 2713      6321686F 
 2713      E10F081A 
 2713      0E72C599 
 2713      989C
 2714 0027 82956B88 		.ascii	"\202\225k\210\010\261H\242\"*\222B\016\261\263\362\205"
 2714      08B148A2 
 2714      222A9242 
 2714      0EB1B3F2 
 2714      85
 2715 0038 8A075A2A 		.ascii	"\212\007Z*\202\376\001\021+\013\021+\013A\367.\211\242"
 2715      82FE0111 
 2715      2B0B112B 
 2715      0B41F72E 
 2715      89A2
 2716 004a 6461E19B 		.ascii	"da\341\233\331\331\231\331\255\200\250LD=r\203\011\253"
 2716      D9D999D9 
 2716      AD80A84C 
 2716      443D7283 
 2716      09AB
 2717 005c D5924242 		.ascii	"\325\222BB\210\2216\005\213\325R\007N\341#\320\202\202"
 2717      88913605 
 2717      8BD55207 
 2717      4EE123D0 
 2717      8282
 2718 006e 05AC719F 		.ascii	"\005\254q\237\204\037K\333\227\313A\261\357\302a\242"
 2718      841F4BDB 
 2718      97CB41B1 
 2718      EFC261A2 
 2719 007e 9ADCFEDA 		.ascii	"\232\334\376\332a\254\262\303\200\332\230\024\204\345"
 2719      61ACB2C3 
 2719      80DA9814 
 2719      84E5
 2720 008c C416F5BA 		.ascii	"\304\026\365\272BTv\204\253:\3148\206\274\201#\340P"
 2720      42547684 
 2720      AB3ACC38 
 2720      86BC8123 
 2720      E050
 2721 009e 664B22F3 		.ascii	"fK\"\363\320M\024l\372H\216\016\356\003\256\370\374"
 2721      D04D146C 
 2721      FA488E0E 
 2721      EE03AEF8 
 2721      FC
 2722 00af 2A0B71FB 		.ascii	"*\013q\373\214\233^\031\356\260\252\002'^Y\366\352\011"
 2722      8C9B5E19 
 2722      EEB0AA02 
 2722      275E59F6 
 2722      EA09
 2723 00c1 15C225AA 		.ascii	"\025\302%\252\260R\007\213\022\274@<\255\335\201\336"
ARM GAS  /tmp/ccMb1niR.s 			page 73


 2723      B052078B 
 2723      12BC403C 
 2723      ADDD81DE 
 2724 00d1 500C5311 		.ascii	"P\014S\021\212\303\201\032\343\247V\020\336\344\363"
 2724      8AC3811A 
 2724      E3A75610 
 2724      DEE4F3
 2725 00e0 C17DF6E9 		.ascii	"\301}\366\351=\317\270\015\347\300\031\344\215\202\020"
 2725      3DCFB80D 
 2725      E7C019E4 
 2725      8D8210
 2726 00ef ED9EEE02 		.ascii	"\355\236\356\002\362\325\016\267\373\216\353!zEas\005"
 2726      F2D50EB7 
 2726      FB8EEB21 
 2726      7A456173 
 2726      05
 2727 0100 BB8C8653 		.ascii	"\273\214\206S\007h\317\373\025)VwY\305\245\014\371\015"
 2727      0768CFFB 
 2727      15295677 
 2727      59C5A50C 
 2727      F90D
 2728 0112 EDACB142 		.ascii	"\355\254\261B$\325\016w\371\016\033\241\277\225\352"
 2728      24D50E77 
 2728      F90E1BA1 
 2728      BF95EA
 2729 0121 D9AD8A5C 		.ascii	"\331\255\212\\\375+r\335,\362\216\302\343\326\270\377"
 2729      FD2B72DD 
 2729      2CF28EC2 
 2729      E3D6B8FF 
 2730 0131 C965C6EF 		.ascii	"\311e\306\357\373\211\372\365t\3062ts\322\312\346L;"
 2730      FB89FAF5 
 2730      74C63274 
 2730      73D2CAE6 
 2730      4C3B
 2731 0143 3D67E6D3 		.ascii	"=g\346\323\206m\317\353\243c\023\331\311\224\241[V*"
 2731      866DCFEB 
 2731      A36313D9 
 2731      C994A15B 
 2731      562A
 2732 0155 3E101D4A 		.ascii	">\020\035J\332F\336\216\321\260\246\217\246\315)s|\""
 2732      DA46DE8E 
 2732      D1B0A68F 
 2732      A6CD2973 
 2732      7C22
 2733 0167 198B6871 		.ascii	"\031\213hq-\242{\274\236\263\365|f6'\345\015\350\313"
 2733      2DA27BBC 
 2733      9EB3F57C 
 2733      663627E5 
 2733      0DE8CB
 2734 017a 93796366 		.ascii	"\223ycf\326\230N\031\311H$\241\245\010\331p\353\023"
 2734      D6984E19 
 2734      C94824A1 
 2734      A508D970 
 2734      EB13
 2735 018c 2D111F1C 		.ascii	"-\021\037\034\210\305\243Q\372\006\276\207\241\030"
 2735      88C5A351 
 2735      FA06BE87 
ARM GAS  /tmp/ccMb1niR.s 			page 74


 2735      A118
 2736              		.text
 2737              		.section	.gnu.lto_rt_test_007_001_setup.361.9a6e21261cdd440f,"e",%progbits
 2738 0000 789C458E 		.ascii	"x\234E\216?K\303P\024\305\357y\267Z\375\026\202S\007"
 2738      3F4BC350 
 2738      14C5EF79 
 2738      B75AFD16 
 2738      825307
 2739 0013 F3622BBA 		.ascii	"\363b+\2728\010u\027\354\007\0105<H\300\330\332\244"
 2739      38087517 
 2739      EC070835 
 2739      3C48C0D8 
 2739      DAA4
 2740 0025 82535F4B 		.ascii	"\202S_K\035\354R\333n\"\235\202vs\022u\0138\273\364"
 2740      1DEC52DB 
 2740      6E229D82 
 2740      76731275 
 2740      0B38BBF4 
 2741 0039 1388E0E2 		.ascii	"\023\210\340\342$N\016B}\211\025/\034\270\277\303\271"
 2741      244E0E42 
 2741      7D89152F 
 2741      1CB8BFC3 
 2741      B9
 2742 004a 7F9E88E8 		.ascii	"\177\236\210\350\320h\325\010L\030\016z\202\264\326"
 2742      D068D508 
 2742      4C180E7A 
 2742      82B4D6
 2743 0059 3B7981F6 		.ascii	";y\201\366\240\267\214;d\004j\011\2640\342\202\301\257"
 2743      A0B78C3B 
 2743      64046A09 
 2743      B430E282 
 2743      C1AF
 2744 006b B3CBD94D 		.ascii	"\263\313\331M^O\022\304L46\232\327\342\037\301\350v"
 2744      5E4F12C4 
 2744      4C34369A 
 2744      D7E21FC1 
 2744      E876
 2745 007d BA90E8EF 		.ascii	"\272\220\350\357Y_\353\3477\234\027\214\337\347t\265"
 2745      595FEBE7 
 2745      379C178C 
 2745      DFE774B5 
 2746 008d CE412744 		.ascii	"\316A'D\027,~\241m\340\035\372u0\005}\240\273B]\210"
 2746      172C7EA1 
 2746      6DE01DFA 
 2746      7530057D 
 2746      A0BB425D 
 2747 00a2 983166B3 		.ascii	"\2301f\263\344\2121\344\230\005\322.\363\305\2043\373"
 2747      E48A31E4 
 2747      9805D22E 
 2747      F3C58433 
 2747      FB
 2748 00b3 1A1433E3 		.ascii	"\032\0243\343\001\270\207\231\350h\275\224\346\036a"
 2748      01B88799 
 2748      E868BD94 
 2748      E61E61
 2749 00c2 3E8E3947 		.ascii	">\2169G\237\350\274\214\366\263\257\372\214\377\263"
 2749      9FE8BC8C 
ARM GAS  /tmp/ccMb1niR.s 			page 75


 2749      F6B3AFFA 
 2749      8CFFB3
 2750 00d1 446BD2AB 		.ascii	"Dk\322\253\005J\372\325\240\336\360#\357\304\017=\025"
 2750      054AFAD5 
 2750      A0DEF023 
 2750      EFC40F3D 
 2750      15
 2751 00e2 45A7B2BC 		.ascii	"E\247\262\274[\251W]%\203\300-m\254o:\221\012\243\""
 2751      5BA9575D 
 2751      2583C02D 
 2751      6DAC6F3A 
 2751      910AA322 
 2752 00f6 6D5BB2EC 		.ascii	"m[\262\354\371\007\376^\305)\332V\311\262e\352\313F"
 2752      F907FE5E 
 2752      C529DA56 
 2752      C9B265EA 
 2752      CB46
 2753 0108 24C35AB3 		.ascii	"$\303Z\263a\342s\314\342N\250\216\233\352\310U\216m"
 2753      61E273CC 
 2753      E24EA88E 
 2753      9BEAC855 
 2753      8E6D
 2754 011a 6F592EFD 		.ascii	"oY.\375\000Z\360c\370"
 2754      005AF063 
 2754      F8
 2755              		.text
 2756              		.section	.gnu.lto_rt_test_007_001_execute.362.9a6e21261cdd440f,"e",%progbits
 2757 0000 789C8D96 		.ascii	"x\234\215\226[l\224E\024\307\347?\363\355\245\227\335"
 2757      5B6C9445 
 2757      14C7E73F 
 2757      F3EDA597 
 2757      DD
 2758 0011 B64045F1 		.ascii	"\266@E\361\302\242Vn\332--\312\213\017@\341\331\007"
 2758      C2A2566E 
 2758      DA2D2DCA 
 2758      8B0F40E1 
 2758      D907
 2759 0023 1E7C6C6A 		.ascii	"\036|lj\331\270\233\364\202\355\202\341\211\2457\024"
 2759      D9B89BF4 
 2759      82ED82E1 
 2759      89A53714 
 2760 0033 4C4A0105 		.ascii	"LJ\001\005\244\254\262np\033c\0141\210h\221\245RA\005"
 2760      A4ACB26E 
 2760      701B630C 
 2760      31886891 
 2760      A5524105 
 2761 0047 035B49BC 		.ascii	"\003[I\274DK\200\210U\203\005b\344\246x\316|\337\356"
 2761      444B8088 
 2761      55830562 
 2761      E4A678CE 
 2761      7CDFEE
 2762 005a 7EBBDD1A 		.ascii	"~\273\335\032\232\364\333\357\314\3149\347\377;3;gg"
 2762      9AF4DBEF 
 2762      CCCC39E7 
 2762      FF3B333B 
 2762      6767
 2763 006c 160B7147 		.ascii	"\026\013qG\010QO\377p\010l\353\337,E$\022Y\352\222\262"
ARM GAS  /tmp/ccMb1niR.s 			page 76


 2763      08514FFF 
 2763      70086CEB 
 2763      DF2C4524 
 2763      1259EA92 
 2764 0081 BB7F8BC4 		.ascii	"\273\177\213\304al:\377\243\317\350\352\367\336|+>\333"
 2764      616C3AFF 
 2764      A3CFE8EA 
 2764      F7DE7C2B 
 2764      3EDB
 2765 0093 50D8D15F 		.ascii	"P\330\321_\254\347\015l\314\254\205\330 \225\201\015"
 2765      ACE70D6C 
 2765      CCAC85D8 
 2765      2095810D 
 2766 00a3 D8AEE6D3 		.ascii	"\330\256\346\323\300\215\2367\267\014\272\"\211$\342"
 2766      C08D9E37 
 2766      B70CBA22 
 2766      8924E2
 2767 00b2 4A8828FD 		.ascii	"J\210(\375[\177\003\012\333T\\\001\206\365&\341\243"
 2767      5B7F030A 
 2767      DB545C01 
 2767      86F526E1 
 2767      A3
 2768 00c3 37D5C233 		.ascii	"7\325\3023U\311Hd\342\265\361^\357\326\215\356\270R"
 2768      55C94864 
 2768      E2B5F15E 
 2768      EFD68DEE 
 2768      B852
 2769 00d5 3804F2C4 		.ascii	"8\004\362\304G\300A\260o\373\201iN\201\217a\306\223"
 2769      47C041B0 
 2769      6FFB8169 
 2769      4E818F61 
 2769      C693
 2770 00e7 E4E0E4D8 		.ascii	"\344\340\344\330\300'\020iC\342S\323`\021\247\216\223"
 2770      C0271069 
 2770      43E253D3 
 2770      6011A78E 
 2770      93
 2771 00f8 FB610A22 		.ascii	"\373a\012\"\255y\014\3016?\364\336\310\030\311\303\021"
 2771      AD790CC1 
 2771      363FF4DE 
 2771      C818C9C3 
 2771      11
 2772 0109 5A01C1D3 		.ascii	"Z\001\301\323\237eb\361\364\257C\373\035y\376\311B\376"
 2772      9F6562F1 
 2772      F4AF43FB 
 2772      1D79FEC9 
 2772      42FE
 2773 011b C732FEC3 		.ascii	"\3072\376\303\332\237\305~\220r$#w\356\366E\222\233"
 2773      DA9FC57E 
 2773      90722423 
 2773      77EEF645 
 2773      929B
 2774 012d 3C5BC6DF 		.ascii	"<[\306\337\030;-\027@\304\225!\351\341P\364p\032l:\330"
 2774      183B2D17 
 2774      40C49521 
 2774      E9E150F4 
 2774      701A6C3A 
ARM GAS  /tmp/ccMb1niR.s 			page 77


 2775 0142 74B2E962 		.ascii	"t\262\351b\323\315f\021\233\305l\226\260Y\312\246\207"
 2775      D3CD6611 
 2775      9BC56C96 
 2775      B059CAA6 
 2775      87
 2776 0153 4D2F9B65 		.ascii	"M/\233el\226\323\303U\301\217\031<V\305c\363\3701\237"
 2776      6C96D3C3 
 2776      55C18F19 
 2776      3C56C563 
 2776      F3F8319F 
 2777 0167 4D21FA14 		.ascii	"M!\372\024\357J\304@$)\304V%M\243\213\214\337\020\271"
 2777      EF4AC440 
 2777      2429C456 
 2777      254DA38B 
 2777      8CDF10B9 
 2778 017b B03B5544 		.ascii	"\260;UDT\3725:M\177|\230\222\374y\375\375\327o\245v"
 2778      54FA353A 
 2778      4D7F7C98 
 2778      92FC79FD 
 2778      FDD76FA5 
 2779 0190 82AAA447 		.ascii	"\202\252\244G\357\322\272#\372\365\342\331\324\000\250"
 2779      EFD2BA23 
 2779      FAF5E2D9 
 2779      D400A8
 2780 019f 3A7AF81C 		.ascii	":z\370\034\015\037\205\270\202\316\241\301\312\230\232"
 2780      0D1F85B8 
 2780      82CEA1C1 
 2780      CA989A
 2781 01ae 676DA45B 		.ascii	"gm\244[\327\245\033\222^\023J\357\364~F.\302\010p\\"
 2781      D7A51B92 
 2781      5E134AEF 
 2781      F47E462E 
 2781      C208705C 
 2782 01c2 4FD6908C 		.ascii	"O\326\220\214\2047\256\212\361\005\366*]o=TI\312q\202"
 2782      8437AE8A 
 2782      F105F62A 
 2782      5D6F3D54 
 2782      49CA7182 
 2783 01d6 86C0433A 		.ascii	"\206\300C:\362\315\261\035s)yL\315\267\302;\221\211"
 2783      F2CDB11D 
 2783      7329794C 
 2783      CDB7C23B 
 2783      9189
 2784 01e8 584249F1 		.ascii	"XBI\361%\004\373\352s\362\025\271Ja\312\356\234\330"
 2784      2504FBEA 
 2784      73F215B9 
 2784      4A61CAEE 
 2784      9CD8
 2785 01fa B77DFB55 		.ascii	"\267}\373U7\001\322I!w-\371PJK\217=\257\255#)\235\343"
 2785      3701D249 
 2785      21772DF9 
 2785      504A4B8F 
 2785      3DAFAD23 
 2786 0211 9ADB0A5D 		.ascii	"\232\333\012]\232U^\232 \015:\211\007\247\201S\020\274"
 2786      9A555E9A 
 2786      200D3A89 
 2786      07A78153 
ARM GAS  /tmp/ccMb1niR.s 			page 78


 2786      10BC
 2787 0223 C0035D9E 		.ascii	"\300\003]\236\013g\251L\023\350\366\011\275\326\033"
 2787      0B67A94C 
 2787      13E8F609 
 2787      BDD61B
 2788 0232 552A73A0 		.ascii	"U*s\240\313\2621\312\022\346y\321a\312\221\002\316\202"
 2788      CBB231CA 
 2788      12E679D1 
 2788      61CA9102 
 2788      CE82
 2789 0244 3C3AB5D8 		.ascii	"<:\265\3302\214\202\264\305U\205UK\273\2601\233\260"
 2789      328C82B4 
 2789      C5558555 
 2789      4BBBB031 
 2789      9BB0
 2790 0256 4972CED9 		.ascii	"Ir\316\331\344(\275\374:\311\241\345gx\027`\351\230"
 2790      E428BDFC 
 2790      3AC9A1E5 
 2790      67781760 
 2790      E998
 2791 0268 66E970D2 		.ascii	"f\351p\322k\202\364i\035F\\M\307\367\300w\020\265\335"
 2791      6B82F469 
 2791      1D465C4D 
 2791      C7F7C077 
 2791      10B5DD
 2792 027b 5AC60CFC 		.ascii	"Z\306\014\374\000,\340/\325\025t\015\364R\241$\325\212"
 2792      002CE02F 
 2792      D515740D 
 2792      F452A124 
 2792      D58A
 2793 028d 03380062 		.ascii	"\0038\000b\334\0251bJi\015\225Qe\010\0213\303{p\222"
 2793      DC153162 
 2793      4A690D95 
 2793      51650811 
 2793      33C37B70 
 2794 02a2 16CA34CD 		.ascii	"\026\3124\315}QZ\177\230s\3179\212^\032\230\331\215"
 2794      7D515A7F 
 2794      9873CF39 
 2794      8A5E1A98 
 2794      D98D
 2795 02b4 5E3D733F 		.ascii	"^=s?\316\233\234\017\260\304\211\315#\322\0228+[\250"
 2795      CE9B9C0F 
 2795      B0C489CD 
 2795      23D21238 
 2795      2B5BA8
 2796 02c7 59098A9C 		.ascii	"Y\011\212\234.\324\203\270\010\\ \201\326\031q\342\222"
 2796      2ED483B8 
 2796      085C2081 
 2796      D61971E2 
 2796      92
 2797 02d8 A9907468 		.ascii	"\251\220th\332\277l\264\306\024\214\277\3442^\006\026"
 2797      DABF6CB4 
 2797      C6148CBF 
 2797      E4325E06 
 2797      16
 2798 02e9 DA191D19 		.ascii	"\332\031\035\031F\231ft\3460\032\370\231\227\025\300"
 2798      46996674 
ARM GAS  /tmp/ccMb1niR.s 			page 79


 2798      E6301AF8 
 2798      999715C0 
 2799 02f9 1BCEC7FB 		.ascii	"\033\316\307\373c2^!\250+yP\177\232\222(\261\206\372"
 2799      63325E21 
 2799      A82B7950 
 2799      7F9A9228 
 2799      B186FA
 2800 030c DB06E5B2 		.ascii	"\333\006\345\262*\364\020\344\024x\327r\361\256\003"
 2800      2AF410E4 
 2800      1478D772 
 2800      F1AE03
 2801 031b 5761E773 		.ascii	"Wa\347sg\370T\232\257(\207\317\245\371\334\005\370F"
 2801      67F8549A 
 2801      AF2887CF 
 2801      A5F9DC05 
 2801      F846
 2802 032d F2F96EDC 		.ascii	"\362\371n\334\033\337\255<\276\333\226&\312\254\001"
 2802      1BDFAD3C 
 2802      BEDB9626 
 2802      CAAC01
 2803 033c 6FDA008B 		.ascii	"o\332\000\213\247\300\372'\027\353_\340I;UI\206\312"
 2803      A7C0FA27 
 2803      17EB5FE0 
 2803      493B5549 
 2803      86CA
 2804 034e 485395E6 		.ascii	"HS\225\346P\025k\252\222\002T'\363\251\272\344=Q\365"
 2804      50156BAA 
 2804      92025427 
 2804      F3A9BAE4 
 2804      3D51F5
 2805 0361 C85CAA5E 		.ascii	"\310\\\252^\251%Qb\015u\333\006\345\311\354\332T\207"
 2805      A9255162 
 2805      0D75DB06 
 2805      E5C9ECDA 
 2805      5487
 2806 0373 F2559983 		.ascii	"\362U\231\203\267Y\342\025i\347\363f\370\034i\276\262"
 2806      B759E215 
 2806      69E7F366 
 2806      F81C69BE 
 2806      B2
 2807 0384 1C3E8FE6 		.ascii	"\034>\217\346\363\026\340\373:\237\257\357\336\370\372"
 2807      F316E0FB 
 2807      3A9FAFEF 
 2807      DEF8FA
 2808 0393 F3F8B659 		.ascii	"\363\370\266Y\232(\263u\363\333\257\245\235\243\377"
 2808      9A28B375 
 2808      F3DBAFA5 
 2808      9DA3FF
 2809 03a2 732DED90 		.ascii	"s-\355\220\331k\311\320\313\367\214\346\335\222N1\325"
 2809      D96BC9D0 
 2809      CBF78CE6 
 2809      DD924E31 
 2809      D5
 2810 03b3 DDB84BE6 		.ascii	"\335\270K\346\336\215\273\245\355n\034\230Na\272\254"
 2810      DE8DBBA5 
 2810      ED6E1C98 
 2810      4E61BAAC 
ARM GAS  /tmp/ccMb1niR.s 			page 80


 2811 03c3 300F4795 		.ascii	"0\017G\225K\220\317#f\333\232noW\311l\273:fkW\303\331"
 2811      4B90CF23 
 2811      66DB9A6E 
 2811      6F57C96C 
 2811      BB3A666B 
 2812 03da 76F579B6 		.ascii	"v\365y\266]UM\321\244\006\344\244&\265W\352&5lkRQ\251"
 2812      5D554DD1 
 2812      A406E4A4 
 2812      26B557EA 
 2812      26356C6B 
 2813 03f1 9BD4B0AD 		.ascii	"\233\324\260\255I\035\243\275\231akMU9\255\351m\251"
 2813      491DA3BD 
 2813      99616B4D 
 2813      5539ADE9 
 2813      6DA9
 2814 0403 5B53921D 		.ascii	"[S\222\035\272\316\234\330t\372\362\267\314\030S\345"
 2814      BACE9CD8 
 2814      74FAF2B7 
 2814      CC1853E5 
 2815 0413 E4C5ED69 		.ascii	"\344\305\355i\002=\276\230\252\320\222fG\225\2337\241"
 2815      023DBE98 
 2815      AAD09266 
 2815      47959B37 
 2815      A1
 2816 0424 9CF7F61B 		.ascii	"\234\367\366\033\275\267\276\364\336\316\301;fq\036"
 2816      BDB7BEF4 
 2816      DECEC13B 
 2816      66711E
 2817 0433 15E3E81E 		.ascii	"\025\343\350\036\257'\037.\272\013\346\357\252\255J"
 2817      AF271F2E 
 2817      BA0BE6EF 
 2817      AAAD4A
 2818 0442 9DBCBB8F 		.ascii	"\235\274\273\217\276\215\324\344%o\335\036\363\2029"
 2818      BE8DD4E4 
 2818      256FDD1E 
 2818      F38239
 2819 0451 A037A3C7 		.ascii	"\2407\243\307\252\342cQ\372Z2\344\234K:\372\343\351"
 2819      AAE26351 
 2819      FA5A32E4 
 2819      9C4B3AFA 
 2819      E3E9
 2820 0463 E8557857 		.ascii	"\350UxWZg\352w=\363Dzf.\006\315\274\363t\026#\363SB"
 2820      5A67EA77 
 2820      3DF3447A 
 2820      662E06CD 
 2820      BCF37416 
 2821 047b 71969FCC 		.ascii	"q\226\237\314\032\037\034M\237\227k\350\\j*\352S0\327"
 2821      1A1F1C4D 
 2821      9F976BE8 
 2821      5C6A2AEA 
 2821      5330D7
 2822 048e 7626D97C 		.ascii	"v&\331|\312\037lk\011\370C\215-k\332C\341\340\272PG"
 2822      CA1F6C6B 
 2822      09F8438D 
 2822      2D6BDA43 
 2822      E1E0BA50 
 2823 04a3 30100EAF 		.ascii	"0\020\016\257\367\327\257X\265\246\261)\340oii\252["
ARM GAS  /tmp/ccMb1niR.s 			page 81


 2823      F7D7AF58 
 2823      B5A6B129 
 2823      E06F6969 
 2823      AA5B
 2824 04b5 BCE89986 		.ascii	"\274\350\231\206p\240#\\+\236\255\366\327\007C/\204"
 2824      70A0235C 
 2824      2B9EADF6 
 2824      D707432F 
 2824      84
 2825 04c6 9E5BD550 		.ascii	"\236[\325P[S]W]\343\347q\177{\330\337\321\266\266\235"
 2825      5B535D57 
 2825      5DE3E771 
 2825      7F7BD8DF 
 2825      D1B6B69D 
 2826 04da 965BA65E 		.ascii	"\226[\246^\336\320\021xim\240\265)\320PS\263\244\272"
 2826      DED01178 
 2826      696DA0B5 
 2826      29D05053 
 2826      B3A4BA
 2827 04ed 491894A1 		.ascii	"I\030\224\241\315Wx\262zI\335\323\213k\353\026-\022"
 2827      CD5778B2 
 2827      7A49DDD3 
 2827      8B6BEB16 
 2827      2D12
 2828 04ff 0B27A568 		.ascii	"\013'\245h\353\340\004\241\326\246\346\265\253\003\376"
 2828      EBE004A1 
 2828      D6A6E6B5 
 2828      AB03FE
 2829 050e A66038D8 		.ascii	"\246`8\330\036h\\\335Q\035\024r\245\220+\204\254\027"
 2829      1E685CDD 
 2829      511D1472 
 2829      A5902B84 
 2829      AC17
 2830 0520 72B990CB 		.ascii	"r\271\220\313D\345\313\355m\255/\3728\015\261\254\367"
 2830      44E5CBED 
 2830      6DAD2FFA 
 2830      380DB1AC 
 2830      F7
 2831 0531 3507D605 		.ascii	"5\007\326\005\232\205s\331\362\372\025+EE\250u]csh\265"
 2831      9A8573D9 
 2831      F2FA152B 
 2831      4545A875 
 2831      5D637368 
 2832 0546 2F9D58FC 		.ascii	"/\235X\374\007\372\261.y"
 2832      07FAB12E 
 2832      79
 2833              		.text
 2834              		.section	.gnu.lto_rt_test_007_001.363.9a6e21261cdd440f,"e",%progbits
 2835 0000 789CCB61 		.ascii	"x\234\313a``he\200\2009\314\214-\214M\015\015\177\232"
 2835      60606865 
 2835      808039CC 
 2835      8C2D8C4D 
 2835      0D0D7F9A 
 2836 0014 CE7E3159 		.ascii	"\316~1Y\302\3140\217\031,6\211\031\310f\204\313\336"
 2836      C2CC308F 
 2836      192C3689 
 2836      19C86684 
ARM GAS  /tmp/ccMb1niR.s 			page 82


 2836      CBDE
 2837 0026 78CF0296 		.ascii	"x\317\002\226\003\213(\346\266q,af\004\313\26554\314"
 2837      038B28E6 
 2837      B6712C61 
 2837      6604CBB5 
 2837      3534CC
 2838 0039 00C93131 		.ascii	"\000\31111ngd\260l\352h\020X\302\314<\027\250u\007\343"
 2838      6E6764B0 
 2838      6CEA6810 
 2838      58C2CC3C 
 2838      17A87507 
 2839 004e 5C6646C6 		.ascii	"\\fF\306m@\222\211q+\220df\334\302\310\240\253\237\221"
 2839      6D409289 
 2839      712B9064 
 2839      66DCC2C8 
 2839      A0AB9F91 
 2840 0062 9F9BAA9F 		.ascii	"\237\233\252\237\231\230[P\224Y\222Q\226Y\234\221ZR"
 2840      99985B50 
 2840      94599251 
 2840      96599C91 
 2840      5A52
 2841 0074 52A9EFEC 		.ascii	"R\251\357\354\022\\\220\230\234\252\237\233\233llbh"
 2841      125C9098 
 2841      9CAA9F9B 
 2841      9B6C6C62 
 2841      68
 2842 0085 165F925A 		.ascii	"\026_\222Z\\b\304`\243\247\357\234\221\231\224\351\037"
 2842      5C62C460 
 2842      A3A7EF9C 
 2842      919994E9 
 2842      1F
 2843 0096 1C6F64A0 		.ascii	"\034od\240g\254g\240\017\022\327/*\321/\316/-\002*\207"
 2843      67AC67A0 
 2843      0F12D72F 
 2843      2AD12FCE 
 2843      2F2D022A 
 2844 00ab 72C1CAE3 		.ascii	"r\301\312\343\213S\013KS\363\222S\343\015\014\314\365"
 2844      8B530B4B 
 2844      53F39253 
 2844      E30D0CCC 
 2844      F5
 2845 00bc 92192402 		.ascii	"\222\031$\002\2122\363\201\226T*\244\346\001%J3\363"
 2845      8A32F381 
 2845      96542AA4 
 2845      E601254A 
 2845      33F3
 2846 00ce D21540EA 		.ascii	"\322\025@\352\030\000\376\302N\024"
 2846      1800FEC2 
 2846      4E14
 2847              		.text
 2848              		.section	.gnu.lto_rt_test_007_004_setup.364.9a6e21261cdd440f,"e",%progbits
 2849 0000 789C6D8F 		.ascii	"x\234m\2171K\303@\030\206\2777_\265\352\237Ppr0\027"
 2849      314BC340 
 2849      1886BF37 
 2849      5FB5EA9F 
 2849      50707230 
 2850 0015 5BD1C541 		.ascii	"[\321\305A\250\273\203? \324p\220\200\261\265I\005\247"
ARM GAS  /tmp/ccMb1niR.s 			page 83


 2850      A8BB833F 
 2850      20D47090 
 2850      80B1B549 
 2850      05A7
 2851 0027 5E4B5DBA 		.ascii	"^K]\272\324\326M\244S\220n\235\244\025\025\372\007\\"
 2851      D4D64DA4 
 2851      53906E9D 
 2851      A41515FA 
 2851      075C
 2852 0039 1C055104 		.ascii	"\034\005Q\004\027'qr\020\364\022[\024\361\340\203{^"
 2852      17277172 
 2852      10F4125B 
 2852      14F1E083 
 2852      7B5E
 2853 004b DE7BF86E 		.ascii	"\336{\370n\006D;D4\257\007Lh\267\032\006)\245\326\323"
 2853      06443B44 
 2853      34AF074C 
 2853      68B71A06 
 2853      29A5D6D3 
 2854 005f 06AAADC6 		.ascii	"\006\252\255\3064\316\221\020\250b\240\202c^\320\370"
 2854      34CE9110 
 2854      A862A082 
 2854      635ED0F8 
 2855 006f 7E7872D7 		.ascii	"~xr\327K\253\356\020\021\023u\364\214\316\344\230\264"
 2855      4BABEE10 
 2855      111375F4 
 2855      8CCEE498 
 2855      B4
 2856 0080 957AB713 		.ascii	"\225z\267\023C\365\361\331T\352\346\031\367\"E\324\344"
 2856      43F5F1D9 
 2856      54EAE619 
 2856      F72245D4 
 2856      E4
 2857 0091 58AD5250 		.ascii	"X\255RPC\242#6\276\241\252\341\005\352\251\377\000z"
 2857      43A22336 
 2857      BEA1AAE1 
 2857      05EAA9FF 
 2857      007A
 2858 00a3 457D8EEA 		.ascii	"E}\216\3520\"F\207\265\344\224\321\346\210\015\304\267"
 2858      30224687 
 2858      B5E494D1 
 2858      E6880DC4 
 2858      B7
 2859 00b4 2437BA9C 		.ascii	"$7\272\234\304g\240\210\031\003\240\017\375\242\246"
 2859      C467A088 
 2859      1903A00F 
 2859      FDA2A6
 2860 00c3 D454DCBB 		.ascii	"\324T\334\273\200\3368\342Tb\034\314\376'\034k\360K"
 2860      80DE38E2 
 2860      54621CCC 
 2860      FE271C6B 
 2860      F04B
 2861 00d5 73F54773 		.ascii	"s\365Gs=\326\274\241\366xi'\237k2~\266'Z\024n\301\227"
 2861      3DD6BCA1 
 2861      F6786927 
 2861      9F6B327E 
 2861      B6275A14 
ARM GAS  /tmp/ccMb1niR.s 			page 84


 2862 00ec C2CBFBC5 		.ascii	"\302\313\373\305\222\027\272\373^\340\3120<\020\271"
 2862      9217BAFB 
 2862      5EE0CA30 
 2862      3C10B9
 2863 00fb 8DAD62DE 		.ascii	"\215\255b\336\221\302\367\235\354\362\322\212\035\312"
 2863      91C2F79D 
 2863      ECF2D28A 
 2863      1DCA
 2864 0109 20CCD09A 		.ascii	" \314\320\232)r\256\267\355mn\331\031\313\314\232\226"
 2864      2972AEB7 
 2864      ED6D6ED9 
 2864      19CBCC9A 
 2864      96
 2865 011a 8873510A 		.ascii	"\210sQ\012EP(\227t}\204I\335\016\344^Y\356:\322\266"
 2865      45502897 
 2865      747D8449 
 2865      DD0EE45E 
 2865      59EE3AD2 
 2866 012f AC55D3A1 		.ascii	"\254U\323\241/\350\203u-"
 2866      2FE88375 
 2866      2D
 2867              		.text
 2868              		.section	.gnu.lto_rt_test_007_004_teardown.365.9a6e21261cdd440f,"e",%progbits
 2869 0000 789CEB65 		.ascii	"x\234\353e``\310\001be fdf`\2344\261\213\211\241\241"
 2869      6060C801 
 2869      62652066 
 2869      6466609C 
 2869      34B18B89 
 2870 0016 A1C1819D 		.ascii	"\241\301\201\235\211\261qb\027'\343VF0\217\221\241\236"
 2870      89B17162 
 2870      1727E356 
 2870      46308F91 
 2870      A19E
 2871 0028 89B19E71 		.ascii	"\211\261\236q2\263&\220\373\243u\326\375\365\354\015"
 2871      32B32690 
 2871      FBA375D6 
 2871      FDF5EC0D 
 2872 0038 2B0E302E 		.ascii	"+\0160.af`\230\007\304P\300\006\3431\002\361\372K\254"
 2872      61666098 
 2872      07C450C0 
 2872      06E33102 
 2872      F1FA4BAC 
 2873 004c 071AFEFC 		.ascii	"\007\032\376\374\357ohx\372\224\361\245>P\274\237\031"
 2873      EF6F6878 
 2873      FA94F1A5 
 2873      3E50BC9F 
 2873      19
 2874 005d 6474030B 		.ascii	"dt\003\013c\303\001\006\206\011\314L\020N#\220\363\212"
 2874      63C30106 
 2874      8609CC4C 
 2874      104E2390 
 2874      F38A
 2875 006f B1E1D1C5 		.ascii	"\261\341\321\305\373\214\014\037\030\233\025\030Z\030"
 2875      FB8C0C1F 
 2875      189B1518 
 2875      5A18
 2876 007d 99963033 		.ascii	"\231\22603\316c\006\032\262\204\231\211\341\023c\323"
ARM GAS  /tmp/ccMb1niR.s 			page 85


 2876      CE63061A 
 2876      B2849989 
 2876      E11363D3 
 2877 008d 83CBF160 		.ascii	"\203\313\361`\363\373\231\031\021\00600\350\352g\344"
 2877      F3FB9919 
 2877      11063030 
 2877      E8EA67E4 
 2878 009d E7A6EA67 		.ascii	"\347\246\352g&\346\026\024e\226d\224e\026g\244\226\224"
 2878      26E61614 
 2878      65966494 
 2878      651667A4 
 2878      9694
 2879 00af 54EA3BBB 		.ascii	"T\352;\273\004\027$&\247\352\347\346&\033\233\030\232"
 2879      04172426 
 2879      A7EAE7E6 
 2879      261B9B18 
 2879      9A
 2880 00c0 C597A416 		.ascii	"\305\227\244\026\227\0301\330\350\351;gd&e\372\007\307"
 2880      971831D8 
 2880      E8E93B67 
 2880      642665FA 
 2880      07C7
 2881 00d2 1B19E819 		.ascii	"\033\031\350\031\353\031\350\203\304\365\213J\364\213"
 2881      EB19E883 
 2881      C4F58B4A 
 2881      F48B
 2882 00e0 F34B8B80 		.ascii	"\363K\213\200\312\241\\\260\362\370\342\324\302\322"
 2882      CAA15CB0 
 2882      F2F8E2D4 
 2882      C2D2
 2883 00ee D4BCE4D4 		.ascii	"\324\274\344\324x\003\003s\275d\006\000\374\023X\327"
 2883      78030373 
 2883      BD640600 
 2883      FC1358D7 
 2884              		.text
 2885              		.section	.gnu.lto_rt_test_007_004_execute.366.9a6e21261cdd440f,"e",%progbits
 2886 0000 789C7D97 		.ascii	"x\234}\227kLTG\024\307\347\334\331'\362P\024+\255\326"
 2886      6B4C5447 
 2886      14C7E7DC 
 2886      D927F250 
 2886      142BADD6 
 2887 0014 35B5A955 		.ascii	"5\265\251U\313\256<\304\246\375`k\2777\215\037\372\221"
 2887      CBAE3CC4 
 2887      A6FD606B 
 2887      BF378D1F 
 2887      FA91
 2888 0026 286E0A89 		.ascii	"(n\012\211\010\005\264\361\223+\317\326\306\200\250"
 2888      0805B4F1 
 2888      932BCFD6 
 2888      C680A8
 2889 0035 151531D2 		.ascii	"\025\0251\322\325\254\246\251}D\305\212\272\"\357\""
 2889      D5ACA6A9 
 2889      7D44C58A 
 2889      BA22EF22 
 2890 0045 C25A15F0 		.ascii	"\302Z\025\360\201\205\330\372\012R\255U\214J\317\314"
 2890      8185D8FA 
 2890      0A52AD55 
ARM GAS  /tmp/ccMb1niR.s 			page 86


 2890      8C4ACFCC 
 2891 0055 5CEE9D7B 		.ascii	"\\\356\235{w\201\204\3313g\316\177f\316\371q\356^r\246"
 2891      778184D9 
 2891      3367CE7F 
 2891      66CEF971 
 2891      EE5E72A6 
 2892 0069 12728310 		.ascii	"\022r\203\020\262\003\177\301I\240j\333\026\205\370"
 2892      B2037FC1 
 2892      49A06ADB 
 2892      1685F8
 2893 0078 7CBEE576 		.ascii	"|\276\345vE\251\256\374e\036\234\206\362[\327\\\226"
 2893      45A9AEFC 
 2893      651E9C86 
 2893      F25BD75C 
 2893      96
 2894 0089 E26DB1A3 		.ascii	"\342m\261\243\373\375s-\224y\205\253DuYtW\251\352\262"
 2894      FBFD732D 
 2894      947985AB 
 2894      44755974 
 2894      57A9EAB2 
 2895 009d EAAE32D5 		.ascii	"\352\2562\325e\323]\345\252\313\016\325Uu\300\017s\300"
 2895      65D35DE5 
 2895      AACB0ED5 
 2895      5575C00F 
 2895      73C0
 2896 00af 66ED6020 		.ascii	"f\355` \233\024j\261\332\320\271\011\266\323w\321\371"
 2896      9B146AB1 
 2896      DAD0B909 
 2896      B6D377D1 
 2896      F9
 2897 00c0 AC74CFFD 		.ascii	"\254t\317\375\243v_ \010~JH-\376\252?5\024\252\250\237"
 2897      A3765F20 
 2897      087E4A48 
 2897      2DFEAA3F 
 2897      3514AAA8 
 2898 00d5 0258544B 		.ascii	"\002XTK\001\027Z4\207\255\274\035\364\371F\036\\\334"
 2898      01175A34 
 2898      87ADBC1D 
 2898      F4F9461E 
 2898      5CDC
 2899 00e7 125BB9D9 		.ascii	"\022[\271\331\341\247\024N\000*\3418\3001`\332\274\322"
 2899      E1A7144E 
 2899      002AE138 
 2899      C03160DA 
 2899      BCD2
 2900 00f9 7816BA0D 		.ascii	"x\026\272\015\306c\273k\353}>\247\213\205\2364\205\216"
 2900      C663BB6B 
 2900      EB7D3EA7 
 2900      8B859E34 
 2900      858E
 2901 010b 4E63A13B 		.ascii	"Nc\241;\364\320\275Z\350)S\350\3604\033\201\006\200"
 2901      F4D0BD5A 
 2901      E82953E8 
 2901      F0341B81 
 2901      0680
 2902 011d DF00EA41 		.ascii	"\337\000\352A\334\325\216*\033\2737\300\031\276\005"
 2902      DCD58E2A 
ARM GAS  /tmp/ccMb1niR.s 			page 87


 2902      1BBB37C0 
 2902      19BE05
 2903 012c 9F287056 		.ascii	"\237(pVL0\301\372W\325Q\004k\215^u\035\202 \2557\374"
 2903      4C30C1FA 
 2903      57D55104 
 2903      6B8D5E75 
 2903      1D8220AD 
 2904 0142 D83C80A9 		.ascii	"\330<\200\251\3039\214\000\302\226\033\265\275\330\362"
 2904      C3398C00 
 2904      C2961BB5 
 2904      BDD8F2
 2905 0151 9D9F5A3F 		.ascii	"\235\237Z?3\351\233\"\351\2335}\213Q?\322b\326\267E"
 2905      33E99B22 
 2905      E99B357D 
 2905      8B513FD2 
 2905      62D6B745 
 2906 0165 D2B76BFA 		.ascii	"\322\267k\372\016\243>\020\246\357\214\244\277\240\351"
 2906      0EA33E10 
 2906      A6EF8CA4 
 2906      BFA0E9
 2907 0174 BB8CFA5B 		.ascii	"\273\214\372[\315f}w$}\217\246\017\031\365w\316&\232"
 2907      CD667D77 
 2907      247D8FA6 
 2907      0F19F577 
 2907      CE269A
 2908 0187 F47F44D2 		.ascii	"\364\177D\322_\326\364W\214\372gM\346\363{#\351\373"
 2908      5FD6F457 
 2908      8CFA674D 
 2908      E6F37B23 
 2908      E9FB
 2909 0199 347D3FD7 		.ascii	"4}?\327#rE\220>\032\262\006}/\306*|\301\362\230\373"
 2909      23724590 
 2909      3E1AB206 
 2909      7D2FC62A 
 2909      7CC1F298 
 2910 01ae 0FBF1BAB 		.ascii	"\017\277\033\253x\353} ~jQp\260RfY\230e\305\301fc\203"
 2910      78EB7D20 
 2910      7E6A5170 
 2910      B0526659 
 2910      9865C5C1 
 2911 01c5 9D0D0E36 		.ascii	"\235\015\01668\331\020\305\206)l\210fC\014\033b\331"
 2911      38D910C5 
 2911      86296C88 
 2911      66430C1B 
 2911      62D9
 2912 01d7 10C78678 		.ascii	"\020\307\206x\246\235N\360\250\031\004\017\233\215S"
 2912      A69D4EF0 
 2912      A819040F 
 2912      9B8D53
 2913 01e6 BB8BF9E6 		.ascii	"\273\213\371\3463k\001\263\0263\313\303\254df\2450+"
 2913      336B01B3 
 2913      1633CBC3 
 2913      AC6466A5 
 2913      302B
 2914 01f8 955969CC 		.ascii	"\225Yi\314Z\312\254tf-c\026!\025\224u\233\317\002\276"
 2914      5ACAAC74 
 2914      662D6316 
ARM GAS  /tmp/ccMb1niR.s 			page 88


 2914      21159475 
 2914      9BCF02BE 
 2915 020c 20219554 		.ascii	" !\225T\021\223b\234\334\003\337`\337\200\023\253\301"
 2915      1193629C 
 2915      DC03DF60 
 2915      DF8013AB 
 2915      C1
 2916 021d CD91B9FC 		.ascii	"\315\221\271\374\343\311\200\302>\037\237\334\371<\264"
 2916      E3C980C2 
 2916      3E1F9FDC 
 2916      F93CB4
 2917 022c 0BB0BADC 		.ascii	"\013\260\272\334;\026rbM\2319\324\023\252\001\254*w"
 2917      3B167262 
 2917      4D9939D4 
 2917      13AA01AC 
 2917      2A77
 2918 023e 5F46F755 		.ascii	"_F\367U \303P\324p8\241\216.P\233\323\301\353Y\002\012"
 2918      20C350D4 
 2918      7038A18E 
 2918      2E509BD3 
 2918      C1EB5902 
 2919 0253 9A01CABB 		.ascii	"\232\001\312\273\367\020+\222\023n\000\\\347\213\036"
 2919      F7102B92 
 2919      136E005C 
 2919      E78B1E
 2920 0262 BC4620D6 		.ascii	"\274F \326O\243\340&\354\243\234\023w%\340\315a\000"
 2920      4FA3E026 
 2920      ECA39C13 
 2920      7725E0CD 
 2920      6100
 2921 0274 5DC05C7C 		.ascii	"]\300\\|\347\321\201\035\357\340\341ut\276\272\275\025"
 2921      E7D1811D 
 2921      EFE0E175 
 2921      74BEBABD 
 2921      15
 2922 0285 B41DA7E0 		.ascii	"\264\035\247\340\241\360'\020\246\345\275?\210R\205"
 2922      A1F02710 
 2922      A6E5BD3F 
 2922      885285
 2923 0294 886B178D 		.ascii	"\210k\027\215\034\370~\354\266\003\023\304>E9\277\362"
 2923      1CF87EEC 
 2923      B60313C4 
 2923      3E4539BF 
 2923      F2
 2924 02a5 53CC6F18 		.ascii	"S\314o\030\212k\312\232\3215\035\275lG;\360x\027\326"
 2924      8A6BCA9A 
 2924      D1351DBD 
 2924      6C473BF0 
 2924      7817D6
 2925 02b8 1D9D3C6E 		.ascii	"\035\235<nT\216\233\241\305)\"\256\2369y\334\313\001"
 2925      548E9BA1 
 2925      C52922AE 
 2925      9E3979DC 
 2925      CB01
 2926 02ca 5E8ABACF 		.ascii	"^\212\272\317\371l\373\340,v\347G\016\365\252\321z%"
 2926      F96CFBE0 
 2926      2C76E747 
ARM GAS  /tmp/ccMb1niR.s 			page 89


 2926      0EF5AAD1 
 2926      7A25
 2927 02dc A2039813 		.ascii	"\242\003\230\023\277t\014\374\015\360\027\020\026\020"
 2927      BF740CFC 
 2927      0DF01710 
 2927      1610
 2928 02ea C377F40D 		.ascii	"\303w\364\015\356\032\\\300\204\335\254\214\240\212"
 2928      EE1A5CC0 
 2928      84DDAC8C 
 2928      A08A
 2929 02f8 6355B10D 		.ascii	"cU\261\015\315\200\370\203=\004\026?\215\203\373\000"
 2929      CD80F883 
 2929      3D04163F 
 2929      8D83FB00 
 2930 0308 F7802497 		.ascii	"\367\200$\227\360\244\247\302\003\200\205\354\2314\002"
 2930      F0A4A7C2 
 2930      038085EC 
 2930      993402
 2931 0317 D53E4B1D 		.ascii	"\325>K\035U\370y\323j)\326\265Nl\025\003m\012fV\002"
 2931      55F879D3 
 2931      6A29D6B5 
 2931      4E6C1503 
 2931      6D0A6656 
 2932 032c 455C125F 		.ascii	"E\\\022_K-X\026\334p^#\224\241\003W\312\370\312\014"
 2932      4B2D5816 
 2932      DC705E23 
 2932      94A10357 
 2932      CAF8CA0C 
 2933 0340 F80770C5 		.ascii	"\370\007p\305O\023\330uF\2664+\352ef\352\231\314\014"
 2933      4F13D875 
 2933      46B6342B 
 2933      EA6566EA 
 2933      99CC0C
 2934 0353 E0CEE304 		.ascii	"\340\316\343\004^\203\177\001\036\343eT\240Vx\"n\203"
 2934      5E837F01 
 2934      1EE36554 
 2934      A0567822 
 2934      6E83
 2935 0365 F7E099ED 		.ascii	"\367\340\231\355\2262\243\023\344\363\324\230\3173\200"
 2935      9632A313 
 2935      E4F3D498 
 2935      CF3380
 2936 0374 45523E16 		.ascii	"ER>\026C>\024\036\262\342K\251X\325T\232\315\251\274"
 2936      433E141E 
 2936      B2E24BA9 
 2936      58D5549A 
 2936      CDA9BC
 2937 0387 084F2552 		.ascii	"\010O%R\002\257L\011\214\211\343\361`\236\300>d\252"
 2937      02AF4C09 
 2937      8C89E3F1 
 2937      609EC03E 
 2937      64AA
 2938 0399 133E2111 		.ascii	"\023>!\021\016\343\272Y\321\271R\036~\012\263\037\201"
 2938      0EE3BA59 
 2938      D1B9521E 
 2938      7E0AB31F 
 2938      81
ARM GAS  /tmp/ccMb1niR.s 			page 90


 2939 03aa 1217E1B1 		.ascii	"\022\027\341\261\263j\251M\3732K\324+\232\030\300\263"
 2939      B36AA94D 
 2939      FB324BD4 
 2939      2B9A18C0 
 2939      B3
 2940 03bb C62FF43A 		.ascii	"\306/\364:\224)P\252\220\361\014\023\241\\\341y\274"
 2940      942950AA 
 2940      90F10C13 
 2940      A15CE179 
 2940      BC
 2941 03cc C1776C58 		.ascii	"\301wlX-\367g\257\336\237}R\177\366\353\375yM\357O\317"
 2941      2DF767AF 
 2941      DE9F7D52 
 2941      7FF6EBFD 
 2941      794DEF4F 
 2942 03e1 045DF98D 		.ascii	"\004]\371\215\022\326\225[\024\336\225\375RW~\253\360"
 2942      12D6955B 
 2942      14DE95FD 
 2942      52577EAB 
 2942      F0
 2943 03f2 AEEC97BA 		.ascii	"\256\354\227\272\262\017I,\226z\321c\350\305\255\012"
 2943      B20F492C 
 2943      967AD163 
 2943      E8C5AD0A 
 2944 0402 EFC55E26 		.ascii	"\357\305^&(\356n-\337z\261z!&RG\255\330N(\304\302\224"
 2944      28EE6E2D 
 2944      DF7AB17A 
 2944      21265247 
 2944      ADD84E28 
 2945 0419 BAEAA88D 		.ascii	"\272\352\250\215_iv-{Z\341\032#\331\306I\316\031'\371"
 2945      5F69762D 
 2945      7B5AE11A 
 2945      23D9C649 
 2945      CE1927F9 
 2946 042d 26548A0A 		.ascii	"&T\212\012\314%w\241\344\356\012\324\260\002\332@\274"
 2946      CC2577A1 
 2946      E4EE0AD4 
 2946      B002DA40 
 2946      BC
 2947 043e 1C5452DA 		.ascii	"\034TR\3326v\3409\260\247\232\302H\355\264\361\354{"
 2947      3676E039 
 2947      B0A79AC2 
 2947      48EDB4F1 
 2947      EC7B
 2948 0450 0CE0AE4D 		.ascii	"\014\340\256M\006n\273\004NP\0370\200s\325R\007!\342"
 2948      066EBB04 
 2948      4E501F30 
 2948      8073D552 
 2948      0721E2
 2949 0463 1170C7EE 		.ascii	"\021p\307\356\247\363\304#\323\200\242[G\321#\241\010"
 2949      A7F3C423 
 2949      D380A25B 
 2949      47D123A1 
 2949      08
 2950 0474 E9282EE9 		.ascii	"\351(.\351(\\\023\240\250\016G\261[\240\010I(\366\010"
 2950      285C13A0 
 2950      A80E47B1 
ARM GAS  /tmp/ccMb1niR.s 			page 91


 2950      5BA00849 
 2950      28F608
 2951 0487 14210945 		.ascii	"\024!\011E\017\326u\266\204\302e@Q#Ptk(\256\253(\354"
 2951      0FD675B6 
 2951      84C26540 
 2951      51235074 
 2951      6B28AEAB 
 2952 049d FC21385B 		.ascii	"\374!8[E\3410\240\260GD\261\337\204\302\001U\212\212"
 2952      45E130A0 
 2952      B04744B1 
 2952      DF84C201 
 2952      558A8A
 2953 04b0 C1726FEF 		.ascii	"\301ro\357\221\347D\303\260K`xb\30006\031\206\003\022"
 2953      91E744C3 
 2953      B04B6078 
 2953      62C03036 
 2953      19860312 
 2954 04c4 06AB78A0 		.ascii	"\006\253x\240\016E\354\237\361\256\261J]s\320\3245\207"
 2954      0E45EC9F 
 2954      F1AEB14A 
 2954      5D73D0D4 
 2954      3587
 2955 04d6 E4AED991 		.ascii	"\344\256\331\221)\243\352\324Q]\220Pu\351\250.\352\250"
 2955      29A3EAD4 
 2955      515D9050 
 2955      75E9A82E 
 2955      EAA8
 2956 04e8 E2274015 		.ascii	"\342'@\025\010GuX\240\352\222P\035\021\250\272$T\027"
 2956      08477558 
 2956      A0EA9250 
 2956      1D11A8BA 
 2956      245417
 2957 04fb B0EEC912 		.ascii	"\260\356\311\022\252x\003\252\037\004\252N\015\325m"
 2957      AA7803AA 
 2957      1F04AA4E 
 2957      0DD56D
 2958 050a 159593A3 		.ascii	"\025\225\223\243JVQE\031P9#\242:jB\025\245\243\262\036"
 2958      4A565145 
 2958      19503923 
 2958      A23A6A42 
 2958      15A5A3B2 
 2959 051f BC79FB03 		.ascii	"\274y\373\0033\251\335C2\251_\207&!\365\263DJ\210O\014"
 2959      33A9DD43 
 2959      32A95F87 
 2959      2621F5B3 
 2959      444A884F 
 2960 0534 85370CEC 		.ascii	"\2057\014\354R\306{\245\336\000\240M\007\320.\001\350"
 2960      52C67BA5 
 2960      DE00A04D 
 2960      07D02E01 
 2960      E8
 2961 0545 D001FCAE 		.ascii	"\320\001\374\256\003H\231\000\300\261p\000\307\005\200"
 2961      03489900 
 2961      C0B17000 
 2961      C70580
 2962 0554 0E09C009 		.ascii	"\016\011\300\011\001\240C\002\320\216\325L\225\000\244"
 2962      01A04302 
ARM GAS  /tmp/ccMb1niR.s 			page 92


 2962      D08ED54C 
 2962      9500A4
 2963 0563 18009C14 		.ascii	"\030\000\234\024\000\3324\000\303*\200)\374E U\005\020"
 2963      00DA3400 
 2963      C32A8029 
 2963      FC452055 
 2963      0510
 2964 0575 6D003025 		.ascii	"m\0000%\"\200\006\023\200h\035\200m\240j\337\0343\200"
 2964      22800613 
 2964      80681D80 
 2964      6DA06ADF 
 2964      1C3380
 2965 0588 D3060097 		.ascii	"\323\006\000\227&\003pF\002`\347\341W\315\255\342\234"
 2965      26037046 
 2965      0260E7E1 
 2965      57CDADE2 
 2965      9C
 2966 0599 B0551A4D 		.ascii	"\260U\032M\255r^n\225^\003\251&\235T\263D\252E'\325"
 2966      AD725E6E 
 2966      955E03A9 
 2966      269D54B3 
 2966      44AA4527 
 2967 05ae AA934A9B 		.ascii	"\252\223J\233\200Ts8\251\026A\252E\"\325*H\265H\244"
 2967      80547338 
 2967      A91641AA 
 2967      4522D52A 
 2967      48B548A4 
 2968 05c2 D8CBD752 		.ascii	"\330\313\327R\211T\232\201T\273 \325\244\221\372O%\025"
 2968      89549A81 
 2968      54BB20D5 
 2968      A491FA4F 
 2968      2515
 2969 05d4 C35B65A9 		.ascii	"\303[e\251J*\326@*&\"\251N\023\251X\235\224\375\353"
 2969      4A2AD640 
 2969      2A2622A9 
 2969      4E13A958 
 2969      9D94FDEB 
 2970 05e8 2BFE5833 		.ascii	"+\376X3\251\033\006R\217'#\325%\221r\210w\320\311I\311"
 2970      A91B0652 
 2970      8F2723D5 
 2970      25917288 
 2970      77D0C949 
 2971 05fd AF022113 		.ascii	"\257\002!\023\251K2\251g\006RA\235\3249\211T\243N\352"
 2971      A94B32A9 
 2971      67065241 
 2971      9DD43989 
 2971      54A34EEA 
 2972 0611 BC4E2A7D 		.ascii	"\274N*}\002R\227\303I]\021\244\032%RW\005\251F\211\324"
 2972      025297C3 
 2972      495D11A4 
 2972      1A255257 
 2972      05A94689 
 2973 0626 392CFB32 		.ascii	"9,\3732\211T\272\201T\237 \025\324H\275RI\305\361W\201"
 2973      8954BA81 
 2973      549F2015 
 2973      D448BD52 
 2973      49C5F157 
ARM GAS  /tmp/ccMb1niR.s 			page 93


 2974 063b 659C1431 		.ascii	"e\234\0241p\212\213\310\351\3728'F\306\241\3753C\245"
 2974      708A8BC8 
 2974      E9FA3827 
 2974      46C6A1FD 
 2974      3343A5
 2975 064e AFFD971A 		.ascii	"\257\375\227\032\232GP\264\\\274\"TP\020\261EA6}\317"
 2975      9A4750B4 
 2975      5CBC2254 
 2975      5010B145 
 2975      41367DCF 
 2976 0662 9D959BE3 		.ascii	"\235\225\233\343ug\257\312\311\313\317.\314\332\220"
 2976      7567AFCA 
 2976      C9CBCF2E 
 2976      CCDA90
 2977 0671 5D90E52D 		.ascii	"]\220\345-,\334\350^\361\311\312\274U\231^wNNfJ\352"
 2977      2CDCE85E 
 2977      F1C9CABC 
 2977      55995E77 
 2977      4E4E664A 
 2978 0686 92A51985 		.ascii	"\222\245\031\205\336\202\302d\362a\222{EV\366\352\354"
 2978      DE82C264 
 2978      F261927B 
 2978      4556F6EA 
 2978      EC
 2979 0697 4F576624 		.ascii	"OWf${\222R\222<n\346w\347\027\272\013r\327\347c\270"
 2979      7B925292 
 2979      3C6EE677 
 2979      E717BA0B 
 2979      72D7E763 
 2980 06ac 3AE5E119 		.ascii	":\345\341\031\005\336/\327{\327ez3<\236\364\244L\242"
 2980      05DE2FD7 
 2980      7BD7657A 
 2980      333C9EF4 
 2980      A44CA2
 2981 06bf E4AD7645 		.ascii	"\344\255vE^JJOIKMNY\262\004cVA\336\242\260Sr\013\330"
 2981      5E4A4A4F 
 2981      494B4D4E 
 2981      59B20463 
 2981      5641DEA2 
 2982 06d8 19D9EB32 		.ascii	"\031\331\3532\327\256_\343ugf\025f\345{W\255)H\312\""
 2982      D7AE5FE3 
 2982      75676615 
 2982      66E57B57 
 2982      AD2948CA 
 2983 06ed CA4744F9 		.ascii	"\312GD\371\230$|\225\237\273\356\013\027\246\220\213"
 2983      98247C95 
 2983      9FBBEE0B 
 2983      17A6908B 
 2984 06fd 596C74AD 		.ascii	"Ylt\255\365n\360\256%\377\003)v_>"
 2984      F56EF0AE 
 2984      25FF0329 
 2984      765F3E
 2985              		.text
 2986              		.section	.gnu.lto_rt_test_007_004.367.9a6e21261cdd440f,"e",%progbits
 2987 0000 789C2B65 		.ascii	"x\234+e``\350b\200\2009\314\214-\214M\015\015\177\232"
 2987      6060E862 
 2987      808039CC 
ARM GAS  /tmp/ccMb1niR.s 			page 94


 2987      8C2D8C4D 
 2987      0D0D7F9A 
 2988 0014 CE1E9BC9 		.ascii	"\316\036\233\311\266\204\231a\0363Bp\3061I\260\010#"
 2988      B6849961 
 2988      1E334270 
 2988      C63149B0 
 2988      0823
 2989 0026 5CE4C651 		.ascii	"\\\344\306Q\210\010\023HD1\267\215c\0113#X\256\015\250"
 2989      88081348 
 2989      4431B78D 
 2989      63093323 
 2989      58AE0DA8 
 2990 003a 1A24C7C4 		.ascii	"\032$\307\304\270\235\221\301\262\251\243A`\0113\363"
 2990      B89D91C1 
 2990      B2A9A341 
 2990      600933F3 
 2991 004a 5C6606C6 		.ascii	"\\f\006\306\035\214s\231\031\031\267\001I&\306\255@"
 2991      1D8C7399 
 2991      1919B701 
 2991      4926C6AD 
 2991      40
 2992 005b 9299710B 		.ascii	"\222\231q\013#\203\256~F~n\252~fbnAQfIFYfqFjII\245\276"
 2992      2383AE7E 
 2992      467E6EAA 
 2992      7E66626E 
 2992      41516649 
 2993 0079 B34B7041 		.ascii	"\263KpAbr\252~nn\262\261\211\241Y|Ijq\211\021\203\215"
 2993      6272AA7E 
 2993      6E6EB2B1 
 2993      89A1597C 
 2993      496A7189 
 2994 0090 9EBE7346 		.ascii	"\236\276sFfR\246\177p\274\221\201\236\261\236\201>H"
 2994      6652A67F 
 2994      70BC9181 
 2994      9EB19E81 
 2994      3E48
 2995 00a2 5CBFA844 		.ascii	"\\\277\250D\2778\277\264\010\250\034\312\005+\217/N"
 2995      BF38BFB4 
 2995      08A81CCA 
 2995      052B8F2F 
 2995      4E
 2996 00b3 2D2C4DCD 		.ascii	"-,M\315KN\215700\327Kf\220\015(\312\314\007ZR\251P\224"
 2996      4B4E8D37 
 2996      3030D74B 
 2996      66900D28 
 2996      CACC075A 
 2997 00cb 5A525A94 		.ascii	"ZRZ\224\247P\226Z\224\231\226\231\234X\222\231\237\307"
 2997      A750965A 
 2997      94999699 
 2997      9C589299 
 2997      9FC7
 2998 00dd 000029A9 		.ascii	"\000\000)\251S\327"
 2998      53D7
 2999              		.text
 3000              		.section	.gnu.lto_rt_test_007_005_setup.368.9a6e21261cdd440f,"e",%progbits
 3001 0000 789C458E 		.ascii	"x\234E\216=K\303P\024\206\317\271'j\375\007\035\005"
 3001      3D4BC350 
ARM GAS  /tmp/ccMb1niR.s 			page 95


 3001      1486CFB9 
 3001      276AFD07 
 3001      1D05
 3002 0012 27077363 		.ascii	"'\007sc[tq\020\352\356\320\037\020j\270\220\200\261"
 3002      5B747110 
 3002      EAEED01F 
 3002      106AB890 
 3002      80B1
 3003 0024 354905A7 		.ascii	"5I\005\247\236\224v\351R[7?:\005qs(\242n]\334\324\301"
 3003      9E9476E9 
 3003      525B373F 
 3003      3A057173 
 3003      28A26E5D 
 3004 003b 5F208214 		.ascii	"_ \202\024\234\304\311A\320\233X\361\302\013\367y\317"
 3004      9CC4C941 
 3004      D09B58F1 
 3004      C20BF779 
 3004      CF
 3005 004c 7B3EEE00 		.ascii	"{>\356\000`GkQ\013\011p\320\357\012`\346\2159\201q\277"
 3005      60476B51 
 3005      0B0970D0 
 3005      EF0A60E6 
 3005      8D398171 
 3006 0061 3B8F5798 		.ascii	";\217W\230\021BS`\023\217hI\343g\347\370~T\212\271\223"
 3006      11425360 
 3006      138F6849 
 3006      E367E7F8 
 3006      7E548AB9 
 3007 0076 4F0860A8 		.ascii	"O\010`\2505}\263\177\204Z\227O3c\376\372\3561?\274\342"
 3007      357DB37F 
 3007      845A974F 
 3007      3363FEFA 
 3007      EE313FBC 
 3008 008b E3C8D085 		.ascii	"\343\310\320\205\036\245\263\331@\036\003\034\222\370"
 3008      1EA5B3D9 
 3008      401E031C 
 3008      92F8
 3009 0099 8558C31B 		.ascii	"\205X\303\033\362\313\311$\017\357\330^\2006\212\204"
 3009      F2CBC924 
 3009      0FEFD85E 
 3009      80368A84 
 3010 00a9 70487ACA 		.ascii	"pHz\312)\341\200\022\022\230\3762_\\Pf\237#$Dx\203x"
 3010      29E18012 
 3010      1298FE32 
 3010      5F5C5066 
 3010      9F232444 
 3011 00c0 8DBAA3C5 		.ascii	"\215\272\243\305\234Ks\267\250ON\310\200\017l=\237M"
 3011      9C4B73B7 
 3011      A84F4EC8 
 3011      800F6C3D 
 3011      9F4D
 3012 00d2 72D95D3D 		.ascii	"r\331]=\302\377\275\000\313\322\255\371JzU\277\036x"
 3012      C2FFBD00 
 3012      CBD2ADF9 
 3012      4A7A55BF 
 3012      1E78
 3013 00e4 91BBEF85 		.ascii	"\221\273\357\205\256\212\242\003Y\336\254\324\253\216"
ARM GAS  /tmp/ccMb1niR.s 			page 96


 3013      AE8AA203 
 3013      59DEACD4 
 3013      AB8E
 3014 00f2 92BEEF14 		.ascii	"\222\276\357\024K+\253v\244\302\250\000\353\246,\273"
 3014      4B2BAB76 
 3014      A4C2A800 
 3014      EBA62CBB 
 3015 0102 DEB6B755 		.ascii	"\336\266\267U\261\013\226Y4-\231\3722\210dXk\004:>\305"
 3015      B10B9659 
 3015      342D99FA 
 3015      32886458 
 3015      6B043A3E 
 3016 0117 2C6E876A 		.ascii	",n\207j\257\241v\035e[\326\232\351\300\017\262\350e"
 3016      AFA1761D 
 3016      655BD69A 
 3016      E9C00FB2 
 3016      E865
 3017 0129 65       		.ascii	"e"
 3018              		.text
 3019              		.section	.gnu.lto_rt_test_007_005_execute.369.9a6e21261cdd440f,"e",%progbits
 3020 0000 789C9557 		.ascii	"x\234\225W[LTG\030\236\377\314^\330e\271Y\274Tj]\252"
 3020      5B4C5447 
 3020      189EFFCC 
 3020      5ED865B9 
 3020      59BC546A 
 3021 0016 066B5316 		.ascii	"\006kS\026\004\305\244mbc\037\372\3264>\364\321(n\204"
 3021      04C5A46D 
 3021      62631FFA 
 3021      D6343EF4 
 3021      D1286E84 
 3022 002a 16588445 		.ascii	"\026X\204E\343\223GX\300\232V\005kDD\264\333\325`S\323"
 3022      E3934758 
 3022      C09A5605 
 3022      6B4444B4 
 3022      DBD56053 
 3023 003f 2ADEA1B0 		.ascii	"*\336\241\260V\021\244Z\025\305xi\012\325\032\024\324"
 3023      5611A45A 
 3023      15C57869 
 3023      0AD51A14 
 3023      D4
 3024 0050 528D1569 		.ascii	"R\215\025i\221\316?sv\317\205ES\023\347\314\374\363"
 3024      91CE3F73 
 3024      76CF8545 
 3024      5313E7CC 
 3024      FCF3
 3025 0062 CF3FDFF7 		.ascii	"\317?\337\367\235\231\357,\357\307\021\362\036\020r"
 3025      9D99EF2C 
 3025      EFC711F2 
 3025      1E1072
 3026 0071 97100231 		.ascii	"\227\020\0021\004\252\2536HD\226\345\205VI\252\333|"
 3026      04AAAB36 
 3026      484496E5 
 3026      855649AA 
 3026      DB7C
 3027 0083 30199AA0 		.ascii	"0\031\232\240\262\367\246\323TV\025\373lW`\272\211b"
 3027      B2F7A6D3 
 3027      545615FB 
ARM GAS  /tmp/ccMb1niR.s 			page 97


 3027      6C5760BA 
 3027      8962
 3028 0095 54847C4A 		.ascii	"T\204|J\310\244\206\312\225\220Y\015U(!\213\032\252"
 3028      C8A486CA 
 3028      9590590D 
 3028      5528218B 
 3028      1AAA
 3029 00a7 54425635 		.ascii	"TBV5T\263\371\026\360X\224\032\333\036\212\331\324X"
 3029      54B3F916 
 3029      F058941A 
 3029      DB1E8AD9 
 3029      D458
 3030 00b9 6D286657 		.ascii	"m(fWc;B\261h\250\253\366\003\007\357\200ua\"@\326J\324"
 3030      633B42B1 
 3030      68A8ABF6 
 3030      0307EF80 
 3030      75612240 
 3031 00d0 64B658A3 		.ascii	"d\266X\243l\366h\007\254\205-\364M61T^{\2551s\235\\"
 3031      6CF66807 
 3031      AC852DF4 
 3031      4D363154 
 3031      5E7BAD31 
 3032 00e7 3E254009 		.ascii	">%@\011\251g\377\225\177u\024\252i\200\002\230\224\236"
 3032      A967FF95 
 3032      7F7514AA 
 3032      69800298 
 3032      949E
 3033 00f9 044ED6A3 		.ascii	"\004N\326\243\37183+(\313\2037\032\357\367\202\\-C\200"
 3033      F938332B 
 3033      28CB8337 
 3033      1AEFF782 
 3033      5C2D4380 
 3034 010d 52380A6C 		.ascii	"R8\012l-\034\0018\014\270\272\2503\001\223\267@8\373"
 3034      2D1C0138 
 3034      0CB8BAA8 
 3034      330193B7 
 3034      4038FB
 3035 0120 7A63EF45 		.ascii	"zc\357E\220+0\333\004\307yv\006\244\361\334\326\004"
 3035      902B30DB 
 3035      04C77976 
 3035      06A4F1DC 
 3035      D604
 3036 0132 0B811300 		.ascii	"\013\201\023\000\307@\0000\2635\026\004\003\320\314"
 3036      C7400030 
 3036      B3351604 
 3036      03D0CC
 3037 0141 0BF08104 		.ascii	"\013\360\201\004?\212\001\242\356\253\265\023\366RX"
 3037      3F8A01A2 
 3037      EEABB513 
 3037      F65258
 3038 0150 54998716 		.ascii	"T\231\207\026\320\3147\357o\353a|\240\225e\000\301\351"
 3038      D0CC37EF 
 3038      6FEB617C 
 3038      A0956500 
 3038      C1E9
 3039 0162 A0AE1685 		.ascii	"\240\256\026\205\237\370\200\236\344\217\024\006p\250"
 3039      9FF8809E 
ARM GAS  /tmp/ccMb1niR.s 			page 98


 3039      E48F1406 
 3039      70A8
 3040 0170 76E38503 		.ascii	"v\343\205\0033\333\313\344\017\003\324\014\247\000\223"
 3040      33DBCBE4 
 3040      0F03D40C 
 3040      A70093
 3041 017f 041D38CD 		.ascii	"\004\0358\3150\233\213\016$*T\206.\236\334\371\215\265"
 3041      309B8B0E 
 3041      242A5486 
 3041      2E9EDCF9 
 3041      8DB5
 3042 0191 4E0EFA9C 		.ascii	"N\016\372\234\241T\242\246\012\351\020\304\261?j\355"
 3042      A154A2A6 
 3042      0AE910C4 
 3042      B13F6AED 
 3043 01a1 D0060227 		.ascii	"\320\006\002'\345(\316\200\2621\316\327tO5p\350\210"
 3043      E528CE80 
 3043      B231CED7 
 3043      744F3570 
 3043      E888
 3044 01b3 C4E16C98 		.ascii	"\304\341l\230Cg\210\303\377A1t\236\2418\247Cq^\213b"
 3044      436788C3 
 3044      FF413174 
 3044      9EA138A7 
 3044      43715E8B 
 3045 01c8 E8CFED0B 		.ascii	"\350\317\355\013\0140.D\202q1\014\343\022\207\301\266"
 3045      0C302E44 
 3045      8271310C 
 3045      E31287C1 
 3045      B6
 3046 01d9 00F6D2BE 		.ascii	"\000\366\322\276\3572\007\345\177G7\311\301\312\230"
 3046      EF3207E5 
 3046      7F4737C9 
 3046      C1CA98
 3047 01e8 6B8DF71F 		.ascii	"k\215\367\037\3358lZ\000\204\275c\011\033\212\215\211"
 3047      DD386C5A 
 3047      0084BD63 
 3047      091B8A8D 
 3047      89
 3048 01f9 351633F6 		.ascii	"5\0263\366,\330X\261\211\302\306\206\215\035\233hl\034"
 3048      2CD858B1 
 3048      89C2C686 
 3048      8D1D9B68 
 3048      6C1C
 3049 020b D8C46072 		.ascii	"\330\304`r,\366\342\260\211\307&\001\233D\234\230\214"
 3049      2CF6E2B0 
 3049      89C72601 
 3049      9B449C98 
 3049      8C
 3050 021c E724091B 		.ascii	"\347$\011\033'\306f`,\005\207s\260IeCk:\3062\260\227"
 3050      27C66660 
 3050      2C058773 
 3050      B0496543 
 3050      6B3AC632 
 3051 0232 89BD7998 		.ascii	"\211\275y\2307\037{Y\030#d\023\305\373 \233@\016\022"
 3051      371F7B59 
 3051      18236413 
ARM GAS  /tmp/ccMb1niR.s 			page 99


 3051      C5FB209B 
 3051      400E12
 3052 0245 B2994A62 		.ascii	"\262\231JbP\306\006\375 \337j\354\253\001&\006\357\037"
 3052      50C606FD 
 3052      20DF6AEC 
 3052      AB012606 
 3052      EF1F
 3053 0257 5AC11F27 		.ascii	"Z\301\037'\304\243\265o6>\037\037\336:\334\265\015\230"
 3053      C4A3B56F 
 3053      363E1F1F 
 3053      DE3ADCB5 
 3053      0D98
 3054 0269 463C3ADA 		.ascii	"F<:\332ec\312`\367\366\245\256:`\332\360p7\013w\001"
 3054      6563CA60 
 3054      F7F6A5AE 
 3054      3A60DAF0 
 3054      70370B77 
 3055 027e 7908A5CD 		.ascii	"y\010\245\315\373&\372i\272r\205\242\270\252>\220X\267"
 3055      FB26FA69 
 3055      BA7285A2 
 3055      B8AA3E90 
 3055      58B7
 3056 0290 81F257B4 		.ascii	"\201\362W\264\027\305\262\301\025\200\313|2\215\301"
 3056      17C5B2C1 
 3056      1580CB7C 
 3056      328DC1
 3057 029f 69880D50 		.ascii	"i\210\015P;t\303N\312\325\346\241\211\214\001\\e!\300"
 3057      3B74C34E 
 3057      CAD5E6A1 
 3057      898C015C 
 3057      6521C0
 3058 02b2 10AFFCAC 		.ascii	"\020\257\374\254\347\253\024\266\271\237\246*\345-\020"
 3058      E7AB14B6 
 3058      B99FA62A 
 3058      E52D10
 3059 02c1 AE18CD36 		.ascii	"\256\030\3156\205k@pm\024\336\317\353l\251D\004\354"
 3059      856B4070 
 3059      6D14DECF 
 3059      EB6CA944 
 3059      04EC
 3060 02d3 D2C1AF1F 		.ascii	"\322\301\257\0377UlD\242\354\316\261\365\034\363\345"
 3060      37556C44 
 3060      A2ECCEB1 
 3060      F51CF3E5 
 3061 02e3 BE29F8F4 		.ascii	"\276)\370\364\177\302G7\331\210m\362(J\251\355P\241"
 3061      7FC24737 
 3061      D9886DF2 
 3061      284AA9ED 
 3061      50A1
 3062 02f5 3B1A1808 		.ascii	";\032\030\010\276K\014\374\012p\023\010&\304\200\304"
 3062      BE4B0CFC 
 3062      0A701308 
 3062      26C480C4 
 3063 0305 17F6309D 		.ascii	"\027\3660\235\006\301\267;\303O'\363\364\330zj\012\333"
 3063      06C1B73B 
 3063      C34F27F3 
 3063      F4D87A6A 
ARM GAS  /tmp/ccMb1niR.s 			page 100


 3063      0ADB
 3064 0317 499C5A26 		.ascii	"I\234Z&\256A\2348^)\036~\007\350\005\342\203R\0168\016"
 3064      AE419C38 
 3064      5E291E7E 
 3064      07E805E2 
 3064      83520E38 
 3065 032c 6E21BC00 		.ascii	"n!\274\000M@\274N\366rY9^\377/^\277\334\351W\312L\250"
 3065      4D40BC4E 
 3065      F6725939 
 3065      5EFF2F5E 
 3065      BFDCE957 
 3066 0343 A76642D8 		.ascii	"\247fB\330,+\225\374\020*\330\342W|P\301\253$\302\035"
 3066      2C2B95FC 
 3066      102AD8E2 
 3066      577C50C1 
 3066      AB24C21D 
 3067 0357 516522B9 		.ascii	"Qe\"\271\007\276{\213\374\002\204\011\204\305m\246\264"
 3067      07BE7B8B 
 3067      FC028409 
 3067      84C56DA6 
 3067      B4
 3068 0368 63F4EB61 		.ascii	"c\364\353a\300\267/!\365\035\342\355=\321)1\242Qb\014"
 3068      C0B72F21 
 3068      F51DE2ED 
 3068      3DD12931 
 3068      A251620C 
 3069 037c FFBB1AFE 		.ascii	"\377\273\032\376\224\247W\365\207\371'\351\371Gb}\337"
 3069      94A757F5 
 3069      87F927E9 
 3069      F947627D 
 3069      DF
 3070 038d C0FAC118 		.ascii	"\300\372\301\030\326I\274\352\026V\225\201\250\251d"
 3070      D649BCEA 
 3070      16569581 
 3070      A8A964
 3071 039c 11098342 		.ascii	"\021\011\203B\002\252\223@B\011\236s\011&\205$\230\014"
 3071      02AA9340 
 3071      42099E73 
 3071      09268524 
 3071      980C
 3072 03ae 83060928 		.ascii	"\203\006\011(\364\201B\337\324\277\343\333a\022\246"
 3072      F48142DF 
 3072      D4BFE3DB 
 3072      6112A6
 3073 03bd BF55D0DF 		.ascii	"\277U\320\337\326\257\245\277\253\377\005\364\037i\350"
 3073      D6AFA5BF 
 3073      ABFF05F4 
 3073      1F69E8
 3074 03cc 9BC40512 		.ascii	"\233\304\005\022\364\235\204\347N\251\247\226q\271\377"
 3074      F49D84E7 
 3074      4EA9A796 
 3074      71B9FF
 3075 03db 6DE0FE54 		.ascii	"m\340\376T\000}U\\\276O\371\031\267\371\251i\234\345"
 3075      007D555C 
 3075      BE4FF919 
 3075      B7F9A969 
 3075      9CE5
ARM GAS  /tmp/ccMb1niR.s 			page 101


 3076 03ed CFF872E5 		.ascii	"\317\370r\345\200[`\230\035p\374x<\204\262\213\250\222"
 3076      805B6098 
 3076      1D70FC78 
 3076      3C84B28B 
 3076      A892
 3077 03ff 99ADC41B 		.ascii	"\231\255\304\033 \204\262\350\204\302\017L\362\006\011"
 3077      2084B2E8 
 3077      84C20F4C 
 3077      F20609
 3078 040e 859A1A12 		.ascii	"\205\232\032\022*\011F\014BYT\241\314{~\273\363N\310"
 3078      2A09460C 
 3078      425954A1 
 3078      CC7B7EBB 
 3078      F34EC8
 3079 0421 24FC9785 		.ascii	"$\374\227\205NG\373g\213\327t\016\306\2018\312!*\267"
 3079      4E47FB67 
 3079      8BD7740E 
 3079      C68138CA 
 3079      212AB7
 3080 0434 9AEDF11A 		.ascii	"\232\355\361\032\310\322N<\015!\322\323`\235\244\330"
 3080      C8D24E3C 
 3080      0D21D2D3 
 3080      609DA4D8 
 3081 0444 CDE3C375 		.ascii	"\315\343\303u\365\267{'0s\026:\336fF\364\213b!\223\374"
 3081      F5B77B27 
 3081      3073163A 
 3081      DE6646F4 
 3081      8B622193 
 3082 0459 74867281 		.ascii	"t\206r\201\314\352\005\232\246\335\354u\360IP&\2214"
 3082      CCEA059A 
 3082      A6DDEC75 
 3082      F0495026 
 3082      9134
 3083 046b 1F2F3C1D 		.ascii	"\037/<\035\312\331Nf\364z\241H7\223\304)\312DBZ)i\220"
 3083      CAD94E66 
 3083      F47AA148 
 3083      3793C429 
 3083      CA44425A 
 3084 0482 36DFBD7F 		.ascii	"6\337\275\177\345cD\273\336\210\366s\005m\351n\354\340"
 3084      E56344BB 
 3084      DE88F673 
 3084      056DE96E 
 3084      ECE0
 3085 0494 6745D1D7 		.ascii	"gE\321\327\252\323\027\177($o\343\372:C\372&\303\027"
 3085      AAD3177F 
 3085      28246FE3 
 3085      FA3A43FA 
 3085      26C317
 3086 04a7 925E5FAB 		.ascii	"\222^_\253\252\257\245\247z\347\264\3609\374GH\320\244"
 3086      AAAFA5A7 
 3086      7AE7B4F0 
 3086      39FC4748 
 3086      D0A4
 3087 04b9 3B87975E 		.ascii	";\207\227^t\0167J\35294\013\007\356\327\331u\207j\327"
 3087      740E374A 
 3087      EA39340B 
 3087      07EED7D9 
ARM GAS  /tmp/ccMb1niR.s 			page 102


 3087      75876AD7 
 3088 04cd 673576DD 		.ascii	"g5v\335\251\332\365\317\252]'\216c\322U\322\030\223"
 3088      A9DAF5CF 
 3088      AA5D278E 
 3088      63D255D2 
 3088      1893
 3089 04df AE96B849 		.ascii	"\256\226\270IwjLz\213\304M\272Sc\322g\231\370\031\032"
 3089      776A4C7A 
 3089      8BC44DBA 
 3089      5363D267 
 3089      99F8191A 
 3090 04f3 6B4ED459 		.ascii	"kN\324Y\363V\211[s\207xS\355\225_v\327\316aJ\371i\024"
 3090      F356895B 
 3090      73877853 
 3090      ED955F76 
 3090      D7CE614A 
 3091 050a B366B650 		.ascii	"\263f\266P\221\330\246\223\030eHn\340\022\277\021\222"
 3091      91D8A693 
 3091      1865486E 
 3091      E012BF11 
 3091      92
 3092 051b 7806D418 		.ascii	"x\006\324\030$\266\251\022[\327_\015\304\252Ng\341\304"
 3092      24B6A912 
 3092      5BD75F0D 
 3092      C4AA4E67 
 3092      E1C4
 3093 052d AFEB24EE 		.ascii	"\257\353$\356y\221\304\265\032\211\305\342\307\252\323"
 3093      7991C4B5 
 3093      1A89C5E2 
 3093      C7AAD3
 3094 053c A5BCDCE9 		.ascii	"\245\274\334\351\352%\375m\337%\031\235.E\230o\177\310"
 3094      EA25FD6D 
 3094      DF25199D 
 3094      2E45986F 
 3094      7FC8
 3095 054e DFED3AC2 		.ascii	"\337\355:\302)\021\375\335o lW\011G\035\1770b1Z\373"
 3095      2911FDDD 
 3095      6F206C57 
 3095      09471D7F 
 3095      3062315A 
 3096 0563 5315F39C 		.ascii	"S\025\363\234\227c\336c\300\274w\014\3469\274\3523\215"
 3096      9763DE63 
 3096      C0BC770C 
 3096      E639BCEA 
 3096      338D
 3097 0575 3B476350 		.ascii	";GcP\020p\350\010DGt\347}\006\002\016\225\200m\317\223"
 3097      1070E808 
 3097      444774E7 
 3097      7D06020E 
 3097      95806DCF 
 3098 058a 43D468CE 		.ascii	"C\324h\316#\234@\231\342\2573\353\361'M\200\316\342"
 3098      239C4099 
 3098      E2AF33EB 
 3098      F1274D80 
 3098      CEE2
 3099 059c 73CFC39E 		.ascii	"s\317\303\236\0313\016\241\357$\235g\356\227\364\236"
 3099      19330EA1 
ARM GAS  /tmp/ccMb1niR.s 			page 103


 3099      EF249D67 
 3099      EE97F49E 
 3100 05ac 19CB56AA 		.ascii	"\031\313V\252\236\031\247\203\037\033\3213\1770\300"
 3100      9E19A783 
 3100      1F1BD133 
 3100      7F30C0
 3101 05bb 8F53E1DB 		.ascii	"\217S\341\333\003\035\335`\364\314\252\001\3053\333"
 3101      031DDD60 
 3101      F4CCAA01 
 3101      C533DB
 3102 05ca C6F3CC83 		.ascii	"\306\363\314\203\222\3213\033\215.t\310\350\231g4\236"
 3102      92D1331B 
 3102      8D2E74C8 
 3102      E8996734 
 3102      9E
 3103 05db D9AE7A66 		.ascii	"\331\256zf\3468NyD\357\224G\205S\236\3218\345<\315b"
 3103      E6384E79 
 3103      44EF9447 
 3103      85539ED1 
 3103      38E53CCD 
 3104 05f0 03BEE37A 		.ascii	"\003\276\343z\247\334}\225;\345\011#\306&\275S\266\205"
 3104      A7DC7D95 
 3104      3BE50923 
 3104      C626BD53 
 3104      B685
 3105 0602 9D325EA7 		.ascii	"\2352^\247\352\274\210N\331bP5^U5z\344\300]bt\312\255"
 3105      EABC884E 
 3105      D9625035 
 3105      5E55357A 
 3105      E4C05D62 
 3106 0619 03DA6BBC 		.ascii	"\003\332k\274c\340\005\3278\250\271\306V\361\201\037"
 3106      63E005D7 
 3106      38A8B9C6 
 3106      56F1811F 
 3107 0629 D039658B 		.ascii	"\3209e\213\352\224\255\032\247\014\252NyRu\312\371\343"
 3107      EA94AD1A 
 3107      A70CAA4E 
 3107      795275CA 
 3107      F9E3
 3108 063b 38E5A9B1 		.ascii	"8\345\251\261NyZ8eP\343\224m\302)\203\032\247le\342"
 3108      4E795A38 
 3108      6550E394 
 3108      6DC22983 
 3108      1AA76C65 
