
build/ch.elf:     file format elf32-littlearm


Disassembly of section .vectors:

08000000 <_vectors>:
 8000000:	20000400 	.word	0x20000400
 8000004:	08000279 	.word	0x08000279
 8000008:	0800027b 	.word	0x0800027b
 800000c:	0800027b 	.word	0x0800027b
 8000010:	0800027b 	.word	0x0800027b
 8000014:	0800027b 	.word	0x0800027b
 8000018:	0800027b 	.word	0x0800027b
 800001c:	0800027b 	.word	0x0800027b
 8000020:	0800027b 	.word	0x0800027b
 8000024:	0800027b 	.word	0x0800027b
 8000028:	0800027b 	.word	0x0800027b
 800002c:	08002301 	.word	0x08002301
 8000030:	0800027b 	.word	0x0800027b
 8000034:	0800027b 	.word	0x0800027b
 8000038:	0800027b 	.word	0x0800027b
 800003c:	0800027b 	.word	0x0800027b
 8000040:	0800027b 	.word	0x0800027b
 8000044:	0800027b 	.word	0x0800027b
 8000048:	0800027b 	.word	0x0800027b
 800004c:	0800027b 	.word	0x0800027b
 8000050:	0800027b 	.word	0x0800027b
 8000054:	0800027b 	.word	0x0800027b
 8000058:	0800027b 	.word	0x0800027b
 800005c:	0800027b 	.word	0x0800027b
 8000060:	0800027b 	.word	0x0800027b
 8000064:	0800027b 	.word	0x0800027b
 8000068:	0800027b 	.word	0x0800027b
 800006c:	08000fd1 	.word	0x08000fd1
 8000070:	08001041 	.word	0x08001041
 8000074:	080010c1 	.word	0x080010c1
 8000078:	08001141 	.word	0x08001141
 800007c:	080011c1 	.word	0x080011c1
 8000080:	08001241 	.word	0x08001241
 8000084:	080012c1 	.word	0x080012c1
 8000088:	0800027b 	.word	0x0800027b
 800008c:	0800027b 	.word	0x0800027b
 8000090:	0800027b 	.word	0x0800027b
 8000094:	0800027b 	.word	0x0800027b
 8000098:	0800027b 	.word	0x0800027b
 800009c:	0800027b 	.word	0x0800027b
 80000a0:	0800027b 	.word	0x0800027b
 80000a4:	0800027b 	.word	0x0800027b
 80000a8:	0800027b 	.word	0x0800027b
 80000ac:	0800027b 	.word	0x0800027b
 80000b0:	08001891 	.word	0x08001891
 80000b4:	0800027b 	.word	0x0800027b
 80000b8:	0800027b 	.word	0x0800027b
 80000bc:	080015b1 	.word	0x080015b1
 80000c0:	080017d1 	.word	0x080017d1
 80000c4:	0800027b 	.word	0x0800027b
 80000c8:	0800027b 	.word	0x0800027b
 80000cc:	0800027b 	.word	0x0800027b
 80000d0:	0800027b 	.word	0x0800027b
 80000d4:	0800027b 	.word	0x0800027b
 80000d8:	08001941 	.word	0x08001941
 80000dc:	0800027b 	.word	0x0800027b
 80000e0:	0800027b 	.word	0x0800027b
 80000e4:	0800027b 	.word	0x0800027b
 80000e8:	0800027b 	.word	0x0800027b
 80000ec:	0800027b 	.word	0x0800027b
 80000f0:	0800027b 	.word	0x0800027b
 80000f4:	0800027b 	.word	0x0800027b
 80000f8:	0800027b 	.word	0x0800027b
 80000fc:	0800027b 	.word	0x0800027b
 8000100:	0800027b 	.word	0x0800027b
 8000104:	0800027b 	.word	0x0800027b
 8000108:	0800027b 	.word	0x0800027b
 800010c:	0800027b 	.word	0x0800027b
 8000110:	0800027b 	.word	0x0800027b
 8000114:	0800027b 	.word	0x0800027b
 8000118:	0800027b 	.word	0x0800027b
 800011c:	0800027b 	.word	0x0800027b
 8000120:	08001341 	.word	0x08001341
 8000124:	080013b1 	.word	0x080013b1
 8000128:	08001431 	.word	0x08001431
 800012c:	080014b1 	.word	0x080014b1
 8000130:	08001531 	.word	0x08001531
 8000134:	0800027b 	.word	0x0800027b
 8000138:	0800027b 	.word	0x0800027b
 800013c:	0800027b 	.word	0x0800027b
 8000140:	0800027b 	.word	0x0800027b
 8000144:	0800027b 	.word	0x0800027b
 8000148:	0800027b 	.word	0x0800027b
 800014c:	0800027b 	.word	0x0800027b
 8000150:	0800027b 	.word	0x0800027b
 8000154:	0800027b 	.word	0x0800027b
 8000158:	0800027b 	.word	0x0800027b
 800015c:	0800027b 	.word	0x0800027b
 8000160:	0800027b 	.word	0x0800027b
 8000164:	0800027b 	.word	0x0800027b
 8000168:	0800027b 	.word	0x0800027b
 800016c:	0800027b 	.word	0x0800027b
 8000170:	0800027b 	.word	0x0800027b
 8000174:	0800027b 	.word	0x0800027b
 8000178:	0800027b 	.word	0x0800027b
 800017c:	0800027b 	.word	0x0800027b
 8000180:	0800027b 	.word	0x0800027b
 8000184:	0800027b 	.word	0x0800027b
 8000188:	0800027b 	.word	0x0800027b
 800018c:	0800027b 	.word	0x0800027b
 8000190:	0800027b 	.word	0x0800027b
 8000194:	0800027b 	.word	0x0800027b
 8000198:	0800027b 	.word	0x0800027b
 800019c:	0800027b 	.word	0x0800027b

Disassembly of section .text:

080001a0 <_crt0_entry>:
                .align  2
                .thumb_func
                .global _crt0_entry
_crt0_entry:
                /* Interrupts are globally masked initially.*/
                cpsid   i
 80001a0:	b672      	cpsid	i

#if CRT0_FORCE_MSP_INIT == TRUE
                /* MSP stack pointers initialization.*/
                ldr     r0, =__main_stack_end__
 80001a2:	4827      	ldr	r0, [pc, #156]	; (8000240 <endfiniloop+0x4>)
                msr     MSP, r0
 80001a4:	f380 8808 	msr	MSP, r0
#endif

                /* PSP stack pointers initialization.*/
                ldr     r0, =__process_stack_end__
 80001a8:	4826      	ldr	r0, [pc, #152]	; (8000244 <endfiniloop+0x8>)
                msr     PSP, r0
 80001aa:	f380 8809 	msr	PSP, r0

#if CRT0_VTOR_INIT == TRUE
                ldr     r0, =_vectors
 80001ae:	4826      	ldr	r0, [pc, #152]	; (8000248 <endfiniloop+0xc>)
                movw    r1, #SCB_VTOR & 0xFFFF
 80001b0:	f64e 5108 	movw	r1, #60680	; 0xed08
                movt    r1, #SCB_VTOR >> 16
 80001b4:	f2ce 0100 	movt	r1, #57344	; 0xe000
                str     r0, [r1]
 80001b8:	6008      	str	r0, [r1, #0]

                /* Enforcing FPCA bit in the CONTROL register.*/
                movs    r0, #CRT0_CONTROL_INIT | CONTROL_FPCA

#else
                movs    r0, #CRT0_CONTROL_INIT
 80001ba:	2002      	movs	r0, #2
#endif

                /* CONTROL register initialization as configured.*/
                msr     CONTROL, r0
 80001bc:	f380 8814 	msr	CONTROL, r0
                isb
 80001c0:	f3bf 8f6f 	isb	sy

#if CRT0_INIT_CORE == TRUE
                /* Core initialization.*/
                bl      __core_init
 80001c4:	f000 feb4 	bl	8000f30 <__core_init>
#endif

                /* Early initialization.*/
                bl      __early_init
 80001c8:	f001 fcca 	bl	8001b60 <__early_init>

#if CRT0_INIT_STACKS == TRUE
                ldr     r0, =CRT0_STACKS_FILL_PATTERN
 80001cc:	f04f 3055 	mov.w	r0, #1431655765	; 0x55555555
                /* Main Stack initialization. Note, it assumes that the
                   stack size is a multiple of 4 so the linker file must
                   ensure this.*/
                ldr     r1, =__main_stack_base__
 80001d0:	491e      	ldr	r1, [pc, #120]	; (800024c <endfiniloop+0x10>)
                ldr     r2, =__main_stack_end__
 80001d2:	4a1b      	ldr	r2, [pc, #108]	; (8000240 <endfiniloop+0x4>)

080001d4 <msloop>:
msloop:
                cmp     r1, r2
 80001d4:	4291      	cmp	r1, r2
                itt     lo
 80001d6:	bf3c      	itt	cc
                strlo   r0, [r1], #4
 80001d8:	f841 0b04 	strcc.w	r0, [r1], #4
                blo     msloop
 80001dc:	e7fa      	bcc.n	80001d4 <msloop>

                /* Process Stack initialization. Note, it assumes that the
                   stack size is a multiple of 4 so the linker file must
                   ensure this.*/
                ldr     r1, =__process_stack_base__
 80001de:	491c      	ldr	r1, [pc, #112]	; (8000250 <endfiniloop+0x14>)
                ldr     r2, =__process_stack_end__
 80001e0:	4a18      	ldr	r2, [pc, #96]	; (8000244 <endfiniloop+0x8>)

080001e2 <psloop>:
psloop:
                cmp     r1, r2
 80001e2:	4291      	cmp	r1, r2
                itt     lo
 80001e4:	bf3c      	itt	cc
                strlo   r0, [r1], #4
 80001e6:	f841 0b04 	strcc.w	r0, [r1], #4
                blo     psloop
 80001ea:	e7fa      	bcc.n	80001e2 <psloop>
#endif

#if CRT0_INIT_DATA == TRUE
                /* Data initialization. Note, it assumes that the DATA size
                  is a multiple of 4 so the linker file must ensure this.*/
                ldr     r1, =__textdata_base__
 80001ec:	4919      	ldr	r1, [pc, #100]	; (8000254 <endfiniloop+0x18>)
                ldr     r2, =__data_base__
 80001ee:	4a1a      	ldr	r2, [pc, #104]	; (8000258 <endfiniloop+0x1c>)
                ldr     r3, =__data_end__
 80001f0:	4b1a      	ldr	r3, [pc, #104]	; (800025c <endfiniloop+0x20>)

080001f2 <dloop>:
dloop:
                cmp     r2, r3
 80001f2:	429a      	cmp	r2, r3
                ittt    lo
 80001f4:	bf3e      	ittt	cc
                ldrlo   r0, [r1], #4
 80001f6:	f851 0b04 	ldrcc.w	r0, [r1], #4
                strlo   r0, [r2], #4
 80001fa:	f842 0b04 	strcc.w	r0, [r2], #4
                blo     dloop
 80001fe:	e7f8      	bcc.n	80001f2 <dloop>
#endif

#if CRT0_INIT_BSS == TRUE
                /* BSS initialization. Note, it assumes that the DATA size
                  is a multiple of 4 so the linker file must ensure this.*/
                movs    r0, #0
 8000200:	2000      	movs	r0, #0
                ldr     r1, =__bss_base__
 8000202:	4917      	ldr	r1, [pc, #92]	; (8000260 <endfiniloop+0x24>)
                ldr     r2, =__bss_end__
 8000204:	4a17      	ldr	r2, [pc, #92]	; (8000264 <endfiniloop+0x28>)

08000206 <bloop>:
bloop:
                cmp     r1, r2
 8000206:	4291      	cmp	r1, r2
                itt     lo
 8000208:	bf3c      	itt	cc
                strlo   r0, [r1], #4
 800020a:	f841 0b04 	strcc.w	r0, [r1], #4
                blo     bloop
 800020e:	e7fa      	bcc.n	8000206 <bloop>
#endif

#if CRT0_INIT_RAM_AREAS == TRUE
                /* RAM areas initialization.*/
                bl      __init_ram_areas
 8000210:	f000 fea6 	bl	8000f60 <__init_ram_areas>
#endif

                /* Late initialization..*/
                bl      __late_init
 8000214:	f000 fe94 	bl	8000f40 <__late_init>

#if CRT0_CALL_CONSTRUCTORS == TRUE
                /* Constructors invocation.*/
                ldr     r4, =__init_array_base__
 8000218:	4c13      	ldr	r4, [pc, #76]	; (8000268 <endfiniloop+0x2c>)
                ldr     r5, =__init_array_end__
 800021a:	4d14      	ldr	r5, [pc, #80]	; (800026c <endfiniloop+0x30>)

0800021c <initloop>:
initloop:
                cmp     r4, r5
 800021c:	42ac      	cmp	r4, r5
                bge     endinitloop
 800021e:	da03      	bge.n	8000228 <endinitloop>
                ldr     r1, [r4], #4
 8000220:	f854 1b04 	ldr.w	r1, [r4], #4
                blx     r1
 8000224:	4788      	blx	r1
                b       initloop
 8000226:	e7f9      	b.n	800021c <initloop>

08000228 <endinitloop>:
endinitloop:
#endif

                /* Main program invocation, r0 contains the returned value.*/
                bl      main
 8000228:	f002 f87a 	bl	8002320 <main>

#if CRT0_CALL_DESTRUCTORS == TRUE
                /* Destructors invocation.*/
                ldr     r4, =__fini_array_base__
 800022c:	4c10      	ldr	r4, [pc, #64]	; (8000270 <endfiniloop+0x34>)
                ldr     r5, =__fini_array_end__
 800022e:	4d11      	ldr	r5, [pc, #68]	; (8000274 <endfiniloop+0x38>)

08000230 <finiloop>:
finiloop:
                cmp     r4, r5
 8000230:	42ac      	cmp	r4, r5
                bge     endfiniloop
 8000232:	da03      	bge.n	800023c <endfiniloop>
                ldr     r1, [r4], #4
 8000234:	f854 1b04 	ldr.w	r1, [r4], #4
                blx     r1
 8000238:	4788      	blx	r1
                b       finiloop
 800023a:	e7f9      	b.n	8000230 <finiloop>

0800023c <endfiniloop>:
endfiniloop:
#endif

                /* Branching to the defined exit handler.*/
                b       __default_exit
 800023c:	f000 be88 	b.w	8000f50 <__default_exit>
                ldr     r0, =__main_stack_end__
 8000240:	20000400 	.word	0x20000400
                ldr     r0, =__process_stack_end__
 8000244:	20000800 	.word	0x20000800
                ldr     r0, =_vectors
 8000248:	08000000 	.word	0x08000000
                ldr     r1, =__main_stack_base__
 800024c:	20000000 	.word	0x20000000
                ldr     r1, =__process_stack_base__
 8000250:	20000400 	.word	0x20000400
                ldr     r1, =__textdata_base__
 8000254:	08002a64 	.word	0x08002a64
                ldr     r2, =__data_base__
 8000258:	20000800 	.word	0x20000800
                ldr     r3, =__data_end__
 800025c:	20000800 	.word	0x20000800
                ldr     r1, =__bss_base__
 8000260:	20000800 	.word	0x20000800
                ldr     r2, =__bss_end__
 8000264:	20001100 	.word	0x20001100
                ldr     r4, =__init_array_base__
 8000268:	080001a0 	.word	0x080001a0
                ldr     r5, =__init_array_end__
 800026c:	080001a0 	.word	0x080001a0
                ldr     r4, =__fini_array_base__
 8000270:	080001a0 	.word	0x080001a0
                ldr     r5, =__fini_array_end__
 8000274:	080001a0 	.word	0x080001a0

08000278 <Reset_Handler>:

        .align      2
        .thumb_func
        .weak       Reset_Handler
Reset_Handler:
         b          _crt0_entry
 8000278:	e792      	b.n	80001a0 <_crt0_entry>

0800027a <BusFault_Handler>:
        .thumb_func
Vector3F8:
        .thumb_func
Vector3FC:
#endif
        bl          _unhandled_exception
 800027a:	f000 f800 	bl	800027e <_unhandled_exception>

0800027e <_unhandled_exception>:

        .thumb_func
        .weak       _unhandled_exception
_unhandled_exception:
.stay:
        b           .stay
 800027e:	e7fe      	b.n	800027e <_unhandled_exception>

08000280 <_port_switch>:
 * Performs a context switch between two threads.
 *--------------------------------------------------------------------------*/
                .thumb_func
                .globl  _port_switch
_port_switch:
                push    {r4, r5, r6, r7, r8, r9, r10, r11, lr}
 8000280:	e92d 4ff0 	stmdb	sp!, {r4, r5, r6, r7, r8, r9, sl, fp, lr}
#if PORT_SWITCHED_REGIONS_NUMBER == 4
                push    {r4, r5, r6, r7, r8, r9, r10, r11}
#endif
#endif

                str     sp, [r1, #CONTEXT_OFFSET]
 8000284:	f8c1 d00c 	str.w	sp, [r1, #12]
#if (CORTEX_SIMPLIFIED_PRIORITY == FALSE) &&                                \
    ((CORTEX_MODEL == 3) || (CORTEX_MODEL == 4))
                /* Workaround for ARM errata 752419, only applied if
                   condition exists for it to be triggered.*/
                ldr     r3, [r0, #CONTEXT_OFFSET]
 8000288:	68c3      	ldr	r3, [r0, #12]
                mov     sp, r3
 800028a:	469d      	mov	sp, r3

#if CORTEX_USE_FPU
                /* Restoring FPU context.*/
                vpop    {s16-s31}
#endif
                pop     {r4, r5, r6, r7, r8, r9, r10, r11, pc}
 800028c:	e8bd 8ff0 	ldmia.w	sp!, {r4, r5, r6, r7, r8, r9, sl, fp, pc}

08000290 <_port_thread_start>:
                bl      _stats_stop_measure_crit_thd
#endif
#if CORTEX_SIMPLIFIED_PRIORITY
                cpsie   i
#else
                movs    r3, #0              /* CORTEX_BASEPRI_DISABLED */
 8000290:	2300      	movs	r3, #0
                msr     BASEPRI, r3
 8000292:	f383 8811 	msr	BASEPRI, r3
#endif
                mov     r0, r5
 8000296:	4628      	mov	r0, r5
                blx     r4
 8000298:	47a0      	blx	r4
                movs    r0, #0              /* MSG_OK */
 800029a:	2000      	movs	r0, #0
                bl      chThdExit
 800029c:	f001 fff0 	bl	8002280 <chThdExit>

080002a0 <_zombies>:
_zombies:       b       _zombies
 80002a0:	e7fe      	b.n	80002a0 <_zombies>

080002a2 <_port_switch_from_isr>:
                bl      _stats_start_measure_crit_thd
#endif
#if CH_DBG_SYSTEM_STATE_CHECK
                bl      _dbg_check_lock
#endif
                bl      chSchDoReschedule
 80002a2:	f001 fd45 	bl	8001d30 <chSchDoReschedule>

080002a6 <_port_exit_from_isr>:
                movt    r3, #:upper16:SCB_ICSR
                mov     r2, ICSR_PENDSVSET
                str     r2, [r3, #0]
                cpsie   i
#else /* !CORTEX_SIMPLIFIED_PRIORITY */
                svc     #0
 80002a6:	df00      	svc	0
#endif /* !CORTEX_SIMPLIFIED_PRIORITY */
.L1:            b       .L1
 80002a8:	e7fe      	b.n	80002a8 <_port_exit_from_isr+0x2>
	...

080002ac <memcpy>:
 80002ac:	4684      	mov	ip, r0
 80002ae:	ea41 0300 	orr.w	r3, r1, r0
 80002b2:	f013 0303 	ands.w	r3, r3, #3
 80002b6:	d16d      	bne.n	8000394 <memcpy+0xe8>
 80002b8:	3a40      	subs	r2, #64	; 0x40
 80002ba:	d341      	bcc.n	8000340 <memcpy+0x94>
 80002bc:	f851 3b04 	ldr.w	r3, [r1], #4
 80002c0:	f840 3b04 	str.w	r3, [r0], #4
 80002c4:	f851 3b04 	ldr.w	r3, [r1], #4
 80002c8:	f840 3b04 	str.w	r3, [r0], #4
 80002cc:	f851 3b04 	ldr.w	r3, [r1], #4
 80002d0:	f840 3b04 	str.w	r3, [r0], #4
 80002d4:	f851 3b04 	ldr.w	r3, [r1], #4
 80002d8:	f840 3b04 	str.w	r3, [r0], #4
 80002dc:	f851 3b04 	ldr.w	r3, [r1], #4
 80002e0:	f840 3b04 	str.w	r3, [r0], #4
 80002e4:	f851 3b04 	ldr.w	r3, [r1], #4
 80002e8:	f840 3b04 	str.w	r3, [r0], #4
 80002ec:	f851 3b04 	ldr.w	r3, [r1], #4
 80002f0:	f840 3b04 	str.w	r3, [r0], #4
 80002f4:	f851 3b04 	ldr.w	r3, [r1], #4
 80002f8:	f840 3b04 	str.w	r3, [r0], #4
 80002fc:	f851 3b04 	ldr.w	r3, [r1], #4
 8000300:	f840 3b04 	str.w	r3, [r0], #4
 8000304:	f851 3b04 	ldr.w	r3, [r1], #4
 8000308:	f840 3b04 	str.w	r3, [r0], #4
 800030c:	f851 3b04 	ldr.w	r3, [r1], #4
 8000310:	f840 3b04 	str.w	r3, [r0], #4
 8000314:	f851 3b04 	ldr.w	r3, [r1], #4
 8000318:	f840 3b04 	str.w	r3, [r0], #4
 800031c:	f851 3b04 	ldr.w	r3, [r1], #4
 8000320:	f840 3b04 	str.w	r3, [r0], #4
 8000324:	f851 3b04 	ldr.w	r3, [r1], #4
 8000328:	f840 3b04 	str.w	r3, [r0], #4
 800032c:	f851 3b04 	ldr.w	r3, [r1], #4
 8000330:	f840 3b04 	str.w	r3, [r0], #4
 8000334:	f851 3b04 	ldr.w	r3, [r1], #4
 8000338:	f840 3b04 	str.w	r3, [r0], #4
 800033c:	3a40      	subs	r2, #64	; 0x40
 800033e:	d2bd      	bcs.n	80002bc <memcpy+0x10>
 8000340:	3230      	adds	r2, #48	; 0x30
 8000342:	d311      	bcc.n	8000368 <memcpy+0xbc>
 8000344:	f851 3b04 	ldr.w	r3, [r1], #4
 8000348:	f840 3b04 	str.w	r3, [r0], #4
 800034c:	f851 3b04 	ldr.w	r3, [r1], #4
 8000350:	f840 3b04 	str.w	r3, [r0], #4
 8000354:	f851 3b04 	ldr.w	r3, [r1], #4
 8000358:	f840 3b04 	str.w	r3, [r0], #4
 800035c:	f851 3b04 	ldr.w	r3, [r1], #4
 8000360:	f840 3b04 	str.w	r3, [r0], #4
 8000364:	3a10      	subs	r2, #16
 8000366:	d2ed      	bcs.n	8000344 <memcpy+0x98>
 8000368:	320c      	adds	r2, #12
 800036a:	d305      	bcc.n	8000378 <memcpy+0xcc>
 800036c:	f851 3b04 	ldr.w	r3, [r1], #4
 8000370:	f840 3b04 	str.w	r3, [r0], #4
 8000374:	3a04      	subs	r2, #4
 8000376:	d2f9      	bcs.n	800036c <memcpy+0xc0>
 8000378:	3204      	adds	r2, #4
 800037a:	d008      	beq.n	800038e <memcpy+0xe2>
 800037c:	07d2      	lsls	r2, r2, #31
 800037e:	bf1c      	itt	ne
 8000380:	f811 3b01 	ldrbne.w	r3, [r1], #1
 8000384:	f800 3b01 	strbne.w	r3, [r0], #1
 8000388:	d301      	bcc.n	800038e <memcpy+0xe2>
 800038a:	880b      	ldrh	r3, [r1, #0]
 800038c:	8003      	strh	r3, [r0, #0]
 800038e:	4660      	mov	r0, ip
 8000390:	4770      	bx	lr
 8000392:	bf00      	nop
 8000394:	2a08      	cmp	r2, #8
 8000396:	d313      	bcc.n	80003c0 <memcpy+0x114>
 8000398:	078b      	lsls	r3, r1, #30
 800039a:	d08d      	beq.n	80002b8 <memcpy+0xc>
 800039c:	f010 0303 	ands.w	r3, r0, #3
 80003a0:	d08a      	beq.n	80002b8 <memcpy+0xc>
 80003a2:	f1c3 0304 	rsb	r3, r3, #4
 80003a6:	1ad2      	subs	r2, r2, r3
 80003a8:	07db      	lsls	r3, r3, #31
 80003aa:	bf1c      	itt	ne
 80003ac:	f811 3b01 	ldrbne.w	r3, [r1], #1
 80003b0:	f800 3b01 	strbne.w	r3, [r0], #1
 80003b4:	d380      	bcc.n	80002b8 <memcpy+0xc>
 80003b6:	f831 3b02 	ldrh.w	r3, [r1], #2
 80003ba:	f820 3b02 	strh.w	r3, [r0], #2
 80003be:	e77b      	b.n	80002b8 <memcpy+0xc>
 80003c0:	3a04      	subs	r2, #4
 80003c2:	d3d9      	bcc.n	8000378 <memcpy+0xcc>
 80003c4:	3a01      	subs	r2, #1
 80003c6:	f811 3b01 	ldrb.w	r3, [r1], #1
 80003ca:	f800 3b01 	strb.w	r3, [r0], #1
 80003ce:	d2f9      	bcs.n	80003c4 <memcpy+0x118>
 80003d0:	780b      	ldrb	r3, [r1, #0]
 80003d2:	7003      	strb	r3, [r0, #0]
 80003d4:	784b      	ldrb	r3, [r1, #1]
 80003d6:	7043      	strb	r3, [r0, #1]
 80003d8:	788b      	ldrb	r3, [r1, #2]
 80003da:	7083      	strb	r3, [r0, #2]
 80003dc:	4660      	mov	r0, ip
 80003de:	4770      	bx	lr

080003e0 <_ctl>:
#else
    break;
#endif
  }
  return MSG_OK;
}
 80003e0:	2000      	movs	r0, #0
 80003e2:	4770      	bx	lr
	...

080003f0 <_port_irq_epilogue>:
  \details Assigns the given value to the Base Priority register.
  \param [in]    basePri  Base Priority value to set
 */
__STATIC_FORCEINLINE void __set_BASEPRI(uint32_t basePri)
{
  __ASM volatile ("MSR basepri, %0" : : "r" (basePri) : "memory");
 80003f0:	2320      	movs	r3, #32
 80003f2:	f383 8811 	msr	BASEPRI, r3
 * @brief   Exception exit redirection to _port_switch_from_isr().
 */
void _port_irq_epilogue(void) {

  port_lock_from_isr();
  if ((SCB->ICSR & SCB_ICSR_RETTOBASE_Msk) != 0U) {
 80003f6:	4b0d      	ldr	r3, [pc, #52]	; (800042c <_port_irq_epilogue+0x3c>)
 80003f8:	685b      	ldr	r3, [r3, #4]
 80003fa:	f413 6300 	ands.w	r3, r3, #2048	; 0x800
 80003fe:	d102      	bne.n	8000406 <_port_irq_epilogue+0x16>
 8000400:	f383 8811 	msr	BASEPRI, r3
    /* Note, returning without unlocking is intentional, this is done in
       order to keep the rest of the context switch atomic.*/
    return;
  }
  port_unlock_from_isr();
}
 8000404:	4770      	bx	lr
  __ASM volatile ("MRS %0, psp"  : "=r" (result) );
 8000406:	f3ef 8309 	mrs	r3, PSP
    s_psp -= sizeof (struct port_extctx);
 800040a:	3b20      	subs	r3, #32
    ectxp->xpsr = 0x01000000U;
 800040c:	f04f 7280 	mov.w	r2, #16777216	; 0x1000000
 8000410:	61da      	str	r2, [r3, #28]
  __ASM volatile ("MSR psp, %0" : : "r" (topOfProcStack) : );
 8000412:	f383 8809 	msr	PSP, r3
 * @retval false        if preemption is not required.
 *
 * @special
 */
bool chSchIsPreemptionRequired(void) {
  tprio_t p1 = firstprio(&ch.rlist.queue);
 8000416:	4a06      	ldr	r2, [pc, #24]	; (8000430 <_port_irq_epilogue+0x40>)
 8000418:	6811      	ldr	r1, [r2, #0]
  tprio_t p2 = currp->prio;
 800041a:	6992      	ldr	r2, [r2, #24]
    if (chSchIsPreemptionRequired()) {
 800041c:	6889      	ldr	r1, [r1, #8]
 800041e:	6892      	ldr	r2, [r2, #8]
 8000420:	4291      	cmp	r1, r2
      ectxp->pc = (uint32_t)_port_switch_from_isr;
 8000422:	bf8c      	ite	hi
 8000424:	4a03      	ldrhi	r2, [pc, #12]	; (8000434 <_port_irq_epilogue+0x44>)
      ectxp->pc = (uint32_t)_port_exit_from_isr;
 8000426:	4a04      	ldrls	r2, [pc, #16]	; (8000438 <_port_irq_epilogue+0x48>)
 8000428:	619a      	str	r2, [r3, #24]
 800042a:	4770      	bx	lr
 800042c:	e000ed00 	.word	0xe000ed00
 8000430:	20000894 	.word	0x20000894
 8000434:	080002a3 	.word	0x080002a3
 8000438:	080002a6 	.word	0x080002a6
 800043c:	00000000 	.word	0x00000000

08000440 <i2c_lld_init>:
 *
 * @init
 */
void i2cObjectInit(I2CDriver *i2cp) {

  i2cp->state  = I2C_STOP;
 8000440:	4b08      	ldr	r3, [pc, #32]	; (8000464 <i2c_lld_init+0x24>)
void i2c_lld_init(void) {

#if STM32_I2C_USE_I2C1
  i2cObjectInit(&I2CD1);
  I2CD1.thread = NULL;
  I2CD1.i2c    = I2C1;
 8000442:	4809      	ldr	r0, [pc, #36]	; (8000468 <i2c_lld_init+0x28>)
 8000444:	6318      	str	r0, [r3, #48]	; 0x30
  i2cp->config = NULL;
 8000446:	2200      	movs	r2, #0
 *
 * @notapi
 */
static inline void queue_init(threads_queue_t *tqp) {

  tqp->next = (thread_t *)tqp;
 8000448:	f103 010c 	add.w	r1, r3, #12
  i2cp->state  = I2C_STOP;
 800044c:	f04f 0c01 	mov.w	ip, #1
  tqp->prev = (thread_t *)tqp;
 8000450:	e9c3 1103 	strd	r1, r1, [r3, #12]
#if STM32_I2C_USE_DMA == TRUE
  I2CD1.dmarx  = NULL;
  I2CD1.dmatx  = NULL;
 8000454:	e9c3 220a 	strd	r2, r2, [r3, #40]	; 0x28
 8000458:	f883 c000 	strb.w	ip, [r3]
  i2cp->config = NULL;
 800045c:	605a      	str	r2, [r3, #4]
void chMtxObjectInit(mutex_t *mp) {

  chDbgCheck(mp != NULL);

  queue_init(&mp->queue);
  mp->owner = NULL;
 800045e:	615a      	str	r2, [r3, #20]
  I2CD1.thread = NULL;
 8000460:	61da      	str	r2, [r3, #28]
#if STM32_I2C_USE_DMA == TRUE
  I2CD4.dmarx  = NULL;
  I2CD4.dmatx  = NULL;
#endif
#endif /* STM32_I2C_USE_I2C4 */
}
 8000462:	4770      	bx	lr
 8000464:	20000800 	.word	0x20000800
 8000468:	40005400 	.word	0x40005400
 800046c:	00000000 	.word	0x00000000

08000470 <notify2>:

#if STM32_SERIAL_USE_USART2 || defined(__DOXYGEN__)
static void notify2(io_queue_t *qp) {

  (void)qp;
  USART2->CR1 |= USART_CR1_TXEIE | USART_CR1_TCIE;
 8000470:	4a02      	ldr	r2, [pc, #8]	; (800047c <notify2+0xc>)
 8000472:	6813      	ldr	r3, [r2, #0]
 8000474:	f043 03c0 	orr.w	r3, r3, #192	; 0xc0
 8000478:	6013      	str	r3, [r2, #0]
}
 800047a:	4770      	bx	lr
 800047c:	40004400 	.word	0x40004400

08000480 <_idle_thread>:
__STATIC_FORCEINLINE void port_wait_for_interrupt(void) {

#if CORTEX_ENABLE_WFI_IDLE == TRUE
  __WFI();
#endif
}
 8000480:	e7fe      	b.n	8000480 <_idle_thread>
 8000482:	bf00      	nop
	...

08000490 <wakeup>:
  __ASM volatile ("MSR basepri, %0" : : "r" (basePri) : "memory");
 8000490:	2320      	movs	r3, #32
 8000492:	f383 8811 	msr	BASEPRI, r3
  switch (tp->state) {
 8000496:	f890 3020 	ldrb.w	r3, [r0, #32]
 800049a:	2b07      	cmp	r3, #7
 800049c:	d80d      	bhi.n	80004ba <wakeup+0x2a>
 800049e:	e8df f003 	tbb	[pc, r3]
 80004a2:	0c27      	.short	0x0c27
 80004a4:	0408230c 	.word	0x0408230c
 80004a8:	080c      	.short	0x080c
    chSemFastSignalI(tp->u.wtsemp);
 80004aa:	6a42      	ldr	r2, [r0, #36]	; 0x24
 */
static inline void chSemFastSignalI(semaphore_t *sp) {

  chDbgCheckClassI();

  sp->cnt++;
 80004ac:	6893      	ldr	r3, [r2, #8]
 80004ae:	3301      	adds	r3, #1
 80004b0:	6093      	str	r3, [r2, #8]
  return tp;
}

static inline thread_t *queue_dequeue(thread_t *tp) {

  tp->queue.prev->queue.next = tp->queue.next;
 80004b2:	e9d0 3200 	ldrd	r3, r2, [r0]
 80004b6:	6013      	str	r3, [r2, #0]
  tp->queue.next->queue.prev = tp->queue.prev;
 80004b8:	605a      	str	r2, [r3, #4]
static void wakeup(void *p) {
 80004ba:	b410      	push	{r4}
  tp->state = CH_STATE_READY;
 80004bc:	2200      	movs	r2, #0
  tp->u.rdymsg = MSG_TIMEOUT;
 80004be:	f04f 34ff 	mov.w	r4, #4294967295	; 0xffffffff
  } while (cp->prio >= tp->prio);
 80004c2:	6881      	ldr	r1, [r0, #8]
  cp = (thread_t *)&ch.rlist.queue;
 80004c4:	4b0c      	ldr	r3, [pc, #48]	; (80004f8 <wakeup+0x68>)
  tp->u.rdymsg = MSG_TIMEOUT;
 80004c6:	6244      	str	r4, [r0, #36]	; 0x24
  tp->state = CH_STATE_READY;
 80004c8:	f880 2020 	strb.w	r2, [r0, #32]
    cp = cp->queue.next;
 80004cc:	681b      	ldr	r3, [r3, #0]
  } while (cp->prio >= tp->prio);
 80004ce:	689a      	ldr	r2, [r3, #8]
 80004d0:	428a      	cmp	r2, r1
 80004d2:	d2fb      	bcs.n	80004cc <wakeup+0x3c>
  tp->queue.prev             = cp->queue.prev;
 80004d4:	685a      	ldr	r2, [r3, #4]
 80004d6:	2100      	movs	r1, #0
 80004d8:	e9c0 3200 	strd	r3, r2, [r0]
  tp->queue.prev->queue.next = tp;
 80004dc:	6010      	str	r0, [r2, #0]
  cp->queue.prev             = tp;
 80004de:	6058      	str	r0, [r3, #4]
 80004e0:	f381 8811 	msr	BASEPRI, r1
}
 80004e4:	bc10      	pop	{r4}
 80004e6:	4770      	bx	lr
    *tp->u.wttrp = NULL;
 80004e8:	6a43      	ldr	r3, [r0, #36]	; 0x24
 80004ea:	2200      	movs	r2, #0
 80004ec:	601a      	str	r2, [r3, #0]
    break;
 80004ee:	e7e4      	b.n	80004ba <wakeup+0x2a>
 80004f0:	2300      	movs	r3, #0
 80004f2:	f383 8811 	msr	BASEPRI, r3
 80004f6:	4770      	bx	lr
 80004f8:	20000894 	.word	0x20000894
 80004fc:	00000000 	.word	0x00000000

08000500 <chTMStartMeasurementX>:
 *
 * @return              The realtime counter value.
 */
__STATIC_FORCEINLINE rtcnt_t port_rt_get_counter_value(void) {

  return DWT->CYCCNT;
 8000500:	4b01      	ldr	r3, [pc, #4]	; (8000508 <chTMStartMeasurementX+0x8>)
 8000502:	685b      	ldr	r3, [r3, #4]
 *
 * @xclass
 */
NOINLINE void chTMStartMeasurementX(time_measurement_t *tmp) {

  tmp->last = chSysGetRealtimeCounterX();
 8000504:	6083      	str	r3, [r0, #8]
}
 8000506:	4770      	bx	lr
 8000508:	e0001000 	.word	0xe0001000
 800050c:	00000000 	.word	0x00000000

08000510 <chTMStopMeasurementX>:
 *
 * @xclass
 */
NOINLINE void chTMStopMeasurementX(time_measurement_t *tmp) {

  tm_stop(tmp, chSysGetRealtimeCounterX(), ch.tm.offset);
 8000510:	4a0e      	ldr	r2, [pc, #56]	; (800054c <chTMStopMeasurementX+0x3c>)
 8000512:	4b0f      	ldr	r3, [pc, #60]	; (8000550 <chTMStopMeasurementX+0x40>)
  tmp->last = (now - tmp->last) - offset;
 8000514:	6881      	ldr	r1, [r0, #8]
 8000516:	685b      	ldr	r3, [r3, #4]
NOINLINE void chTMStopMeasurementX(time_measurement_t *tmp) {
 8000518:	b410      	push	{r4}
  tm_stop(tmp, chSysGetRealtimeCounterX(), ch.tm.offset);
 800051a:	6f54      	ldr	r4, [r2, #116]	; 0x74
  tmp->cumulative += (rttime_t)tmp->last;
 800051c:	6902      	ldr	r2, [r0, #16]
  tmp->last = (now - tmp->last) - offset;
 800051e:	1b1b      	subs	r3, r3, r4
 8000520:	1a5b      	subs	r3, r3, r1
  tmp->cumulative += (rttime_t)tmp->last;
 8000522:	18d2      	adds	r2, r2, r3
 8000524:	6941      	ldr	r1, [r0, #20]
 8000526:	6102      	str	r2, [r0, #16]
  if (tmp->last > tmp->worst) {
 8000528:	6842      	ldr	r2, [r0, #4]
  tmp->n++;
 800052a:	68c4      	ldr	r4, [r0, #12]
  tmp->cumulative += (rttime_t)tmp->last;
 800052c:	f141 0100 	adc.w	r1, r1, #0
  if (tmp->last > tmp->worst) {
 8000530:	4293      	cmp	r3, r2
  if (tmp->last < tmp->best) {
 8000532:	6802      	ldr	r2, [r0, #0]
    tmp->worst = tmp->last;
 8000534:	bf88      	it	hi
 8000536:	6043      	strhi	r3, [r0, #4]
  tmp->n++;
 8000538:	3401      	adds	r4, #1
  if (tmp->last < tmp->best) {
 800053a:	4293      	cmp	r3, r2
  tmp->last = (now - tmp->last) - offset;
 800053c:	e9c0 3402 	strd	r3, r4, [r0, #8]
  tmp->cumulative += (rttime_t)tmp->last;
 8000540:	6141      	str	r1, [r0, #20]
}
 8000542:	bc10      	pop	{r4}
    tmp->best = tmp->last;
 8000544:	bf38      	it	cc
 8000546:	6003      	strcc	r3, [r0, #0]
}
 8000548:	4770      	bx	lr
 800054a:	bf00      	nop
 800054c:	20000894 	.word	0x20000894
 8000550:	e0001000 	.word	0xe0001000
	...

08000560 <chCoreAllocFromTop>:
 * @return              A pointer to the allocated memory block.
 * @retval NULL         allocation failed, core memory exhausted.
 *
 * @api
 */
void *chCoreAllocFromTop(size_t size, unsigned align, size_t offset) {
 8000560:	b410      	push	{r4}
 8000562:	2320      	movs	r3, #32
 8000564:	f383 8811 	msr	BASEPRI, r3
  p = (uint8_t *)MEM_ALIGN_PREV(ch_memcore.topmem - size, align);
 8000568:	4b0b      	ldr	r3, [pc, #44]	; (8000598 <chCoreAllocFromTop+0x38>)
 800056a:	685c      	ldr	r4, [r3, #4]
 800056c:	4249      	negs	r1, r1
 800056e:	1a20      	subs	r0, r4, r0
 8000570:	4008      	ands	r0, r1
  if ((prev < ch_memcore.basemem) || (prev > ch_memcore.topmem)) {
 8000572:	6819      	ldr	r1, [r3, #0]
  prev = p - offset;
 8000574:	1a82      	subs	r2, r0, r2
  if ((prev < ch_memcore.basemem) || (prev > ch_memcore.topmem)) {
 8000576:	428a      	cmp	r2, r1
 8000578:	d307      	bcc.n	800058a <chCoreAllocFromTop+0x2a>
 800057a:	4294      	cmp	r4, r2
 800057c:	d305      	bcc.n	800058a <chCoreAllocFromTop+0x2a>
  ch_memcore.topmem = prev;
 800057e:	605a      	str	r2, [r3, #4]
 8000580:	2300      	movs	r3, #0
 8000582:	f383 8811 	msr	BASEPRI, r3
  chSysLock();
  p = chCoreAllocFromTopI(size, align, offset);
  chSysUnlock();

  return p;
}
 8000586:	bc10      	pop	{r4}
 8000588:	4770      	bx	lr
    return NULL;
 800058a:	2000      	movs	r0, #0
 800058c:	2300      	movs	r3, #0
 800058e:	f383 8811 	msr	BASEPRI, r3
}
 8000592:	bc10      	pop	{r4}
 8000594:	4770      	bx	lr
 8000596:	bf00      	nop
 8000598:	20000a30 	.word	0x20000a30
 800059c:	00000000 	.word	0x00000000

080005a0 <chCoreAllocAlignedI>:
  p = (uint8_t *)MEM_ALIGN_PREV(ch_memcore.topmem - size, align);
 80005a0:	4b06      	ldr	r3, [pc, #24]	; (80005bc <chCoreAllocAlignedI+0x1c>)
 80005a2:	685a      	ldr	r2, [r3, #4]
 80005a4:	4249      	negs	r1, r1
 80005a6:	1a10      	subs	r0, r2, r0
 80005a8:	4008      	ands	r0, r1
  if ((prev < ch_memcore.basemem) || (prev > ch_memcore.topmem)) {
 80005aa:	6819      	ldr	r1, [r3, #0]
 80005ac:	4288      	cmp	r0, r1
 80005ae:	d303      	bcc.n	80005b8 <chCoreAllocAlignedI+0x18>
 80005b0:	4282      	cmp	r2, r0
 80005b2:	d301      	bcc.n	80005b8 <chCoreAllocAlignedI+0x18>
  ch_memcore.topmem = prev;
 80005b4:	6058      	str	r0, [r3, #4]
  return p;
 80005b6:	4770      	bx	lr
    return NULL;
 80005b8:	2000      	movs	r0, #0
 * @iclass
 */
static inline void *chCoreAllocAlignedI(size_t size, unsigned align) {

  return chCoreAllocAlignedWithOffsetI(size, align, 0U);
}
 80005ba:	4770      	bx	lr
 80005bc:	20000a30 	.word	0x20000a30

080005c0 <chEvtBroadcastFlagsI.constprop.0>:
 * @param[in] esp       pointer to the @p event_source_t structure
 * @param[in] flags     the flags set to be added to the listener flags mask
 *
 * @iclass
 */
void chEvtBroadcastFlagsI(event_source_t *esp, eventflags_t flags) {
 80005c0:	b4f0      	push	{r4, r5, r6, r7}
  event_listener_t *elp;

  chDbgCheckClassI();
  chDbgCheck(esp != NULL);

  elp = esp->next;
 80005c2:	4d1b      	ldr	r5, [pc, #108]	; (8000630 <chEvtBroadcastFlagsI.constprop.0+0x70>)
 80005c4:	f855 3f04 	ldr.w	r3, [r5, #4]!
  /*lint -save -e9087 -e740 [11.3, 1.3] Cast required by list handling.*/
  while (elp != (event_listener_t *)esp) {
 80005c8:	42ab      	cmp	r3, r5
 80005ca:	d02a      	beq.n	8000622 <chEvtBroadcastFlagsI.constprop.0+0x62>
  /* Test on the AND/OR conditions wait states.*/
  if (((tp->state == CH_STATE_WTOREVT) &&
       ((tp->epending & tp->u.ewmask) != (eventmask_t)0)) ||
      ((tp->state == CH_STATE_WTANDEVT) &&
       ((tp->epending & tp->u.ewmask) == tp->u.ewmask))) {
    tp->u.rdymsg = MSG_OK;
 80005cc:	2600      	movs	r6, #0
 80005ce:	e004      	b.n	80005da <chEvtBroadcastFlagsI.constprop.0+0x1a>
       ((tp->epending & tp->u.ewmask) != (eventmask_t)0)) ||
 80005d0:	2c0b      	cmp	r4, #11
 80005d2:	d028      	beq.n	8000626 <chEvtBroadcastFlagsI.constprop.0+0x66>
    elp = elp->next;
 80005d4:	681b      	ldr	r3, [r3, #0]
  while (elp != (event_listener_t *)esp) {
 80005d6:	42ab      	cmp	r3, r5
 80005d8:	d023      	beq.n	8000622 <chEvtBroadcastFlagsI.constprop.0+0x62>
    elp->flags |= flags;
 80005da:	68da      	ldr	r2, [r3, #12]
 80005dc:	4302      	orrs	r2, r0
 80005de:	60da      	str	r2, [r3, #12]
    if ((flags == (eventflags_t)0) ||
 80005e0:	b110      	cbz	r0, 80005e8 <chEvtBroadcastFlagsI.constprop.0+0x28>
        ((flags & elp->wflags) != (eventflags_t)0)) {
 80005e2:	691a      	ldr	r2, [r3, #16]
    if ((flags == (eventflags_t)0) ||
 80005e4:	4210      	tst	r0, r2
 80005e6:	d0f5      	beq.n	80005d4 <chEvtBroadcastFlagsI.constprop.0+0x14>
  tp->epending |= events;
 80005e8:	e9d3 1201 	ldrd	r1, r2, [r3, #4]
 80005ec:	6b4f      	ldr	r7, [r1, #52]	; 0x34
  if (((tp->state == CH_STATE_WTOREVT) &&
 80005ee:	f891 4020 	ldrb.w	r4, [r1, #32]
  tp->epending |= events;
 80005f2:	433a      	orrs	r2, r7
  if (((tp->state == CH_STATE_WTOREVT) &&
 80005f4:	2c0a      	cmp	r4, #10
  tp->epending |= events;
 80005f6:	634a      	str	r2, [r1, #52]	; 0x34
  if (((tp->state == CH_STATE_WTOREVT) &&
 80005f8:	d1ea      	bne.n	80005d0 <chEvtBroadcastFlagsI.constprop.0+0x10>
       ((tp->epending & tp->u.ewmask) != (eventmask_t)0)) ||
 80005fa:	6a4c      	ldr	r4, [r1, #36]	; 0x24
  if (((tp->state == CH_STATE_WTOREVT) &&
 80005fc:	4222      	tst	r2, r4
 80005fe:	d0e9      	beq.n	80005d4 <chEvtBroadcastFlagsI.constprop.0+0x14>
  } while (cp->prio >= tp->prio);
 8000600:	688c      	ldr	r4, [r1, #8]
  cp = (thread_t *)&ch.rlist.queue;
 8000602:	4a0c      	ldr	r2, [pc, #48]	; (8000634 <chEvtBroadcastFlagsI.constprop.0+0x74>)
    tp->u.rdymsg = MSG_OK;
 8000604:	624e      	str	r6, [r1, #36]	; 0x24
  tp->state = CH_STATE_READY;
 8000606:	f881 6020 	strb.w	r6, [r1, #32]
    cp = cp->queue.next;
 800060a:	6812      	ldr	r2, [r2, #0]
  } while (cp->prio >= tp->prio);
 800060c:	6897      	ldr	r7, [r2, #8]
 800060e:	42a7      	cmp	r7, r4
 8000610:	d2fb      	bcs.n	800060a <chEvtBroadcastFlagsI.constprop.0+0x4a>
    elp = elp->next;
 8000612:	681b      	ldr	r3, [r3, #0]
  tp->queue.prev             = cp->queue.prev;
 8000614:	6854      	ldr	r4, [r2, #4]
  while (elp != (event_listener_t *)esp) {
 8000616:	42ab      	cmp	r3, r5
 8000618:	e9c1 2400 	strd	r2, r4, [r1]
  tp->queue.prev->queue.next = tp;
 800061c:	6021      	str	r1, [r4, #0]
  cp->queue.prev             = tp;
 800061e:	6051      	str	r1, [r2, #4]
 8000620:	d1db      	bne.n	80005da <chEvtBroadcastFlagsI.constprop.0+0x1a>
}
 8000622:	bcf0      	pop	{r4, r5, r6, r7}
 8000624:	4770      	bx	lr
       ((tp->epending & tp->u.ewmask) == tp->u.ewmask))) {
 8000626:	6a4c      	ldr	r4, [r1, #36]	; 0x24
      ((tp->state == CH_STATE_WTANDEVT) &&
 8000628:	ea34 0202 	bics.w	r2, r4, r2
 800062c:	d1d2      	bne.n	80005d4 <chEvtBroadcastFlagsI.constprop.0+0x14>
 800062e:	e7e7      	b.n	8000600 <chEvtBroadcastFlagsI.constprop.0+0x40>
 8000630:	20000834 	.word	0x20000834
 8000634:	20000894 	.word	0x20000894
	...

08000640 <chMtxLockS.constprop.0>:

  chDbgCheckClassS();
  chDbgCheck(mp != NULL);

  /* Is the mutex already locked? */
  if (mp->owner != NULL) {
 8000640:	4a39      	ldr	r2, [pc, #228]	; (8000728 <chMtxLockS.constprop.0+0xe8>)
void chMtxLockS(mutex_t *mp) {
 8000642:	b470      	push	{r4, r5, r6}
  if (mp->owner != NULL) {
 8000644:	6953      	ldr	r3, [r2, #20]
  thread_t *ctp = currp;
 8000646:	4d39      	ldr	r5, [pc, #228]	; (800072c <chMtxLockS.constprop.0+0xec>)
 8000648:	69a9      	ldr	r1, [r5, #24]
  if (mp->owner != NULL) {
 800064a:	b34b      	cbz	r3, 80006a0 <chMtxLockS.constprop.0+0x60>
         priority of the running thread requesting the mutex.*/
      thread_t *tp = mp->owner;

      /* Does the running thread have higher priority than the mutex
         owning thread? */
      while (tp->prio < ctp->prio) {
 800064c:	6888      	ldr	r0, [r1, #8]
 800064e:	689a      	ldr	r2, [r3, #8]
 8000650:	4282      	cmp	r2, r0
 8000652:	d207      	bcs.n	8000664 <chMtxLockS.constprop.0+0x24>
        /* Make priority of thread tp match the running thread's priority.*/
        tp->prio = ctp->prio;

        /* The following states need priority queues reordering.*/
        switch (tp->state) {
 8000654:	f893 2020 	ldrb.w	r2, [r3, #32]
        tp->prio = ctp->prio;
 8000658:	6098      	str	r0, [r3, #8]
        switch (tp->state) {
 800065a:	2a06      	cmp	r2, #6
 800065c:	d04c      	beq.n	80006f8 <chMtxLockS.constprop.0+0xb8>
 800065e:	2a07      	cmp	r2, #7
 8000660:	d037      	beq.n	80006d2 <chMtxLockS.constprop.0+0x92>
 8000662:	b32a      	cbz	r2, 80006b0 <chMtxLockS.constprop.0+0x70>
  thread_t *cp = (thread_t *)tqp;
 8000664:	4c32      	ldr	r4, [pc, #200]	; (8000730 <chMtxLockS.constprop.0+0xf0>)
 8000666:	4623      	mov	r3, r4
 8000668:	e003      	b.n	8000672 <chMtxLockS.constprop.0+0x32>
  } while ((cp != (thread_t *)tqp) && (cp->prio >= tp->prio));
 800066a:	6898      	ldr	r0, [r3, #8]
 800066c:	688a      	ldr	r2, [r1, #8]
 800066e:	4290      	cmp	r0, r2
 8000670:	d302      	bcc.n	8000678 <chMtxLockS.constprop.0+0x38>
    cp = cp->queue.next;
 8000672:	681b      	ldr	r3, [r3, #0]
  } while ((cp != (thread_t *)tqp) && (cp->prio >= tp->prio));
 8000674:	42a3      	cmp	r3, r4
 8000676:	d1f8      	bne.n	800066a <chMtxLockS.constprop.0+0x2a>
  tp->queue.prev             = cp->queue.prev;
 8000678:	685a      	ldr	r2, [r3, #4]
 800067a:	e9c1 3200 	strd	r3, r2, [r1]
  tp->queue.prev->queue.next = tp;
 800067e:	6011      	str	r1, [r2, #0]
  thread_t *tp = tqp->next;
 8000680:	6828      	ldr	r0, [r5, #0]
  cp->queue.prev             = tp;
 8000682:	6059      	str	r1, [r3, #4]
  otp->state = newstate;
 8000684:	2206      	movs	r2, #6
 8000686:	f881 2020 	strb.w	r2, [r1, #32]
  tqp->next             = tp->queue.next;
 800068a:	6803      	ldr	r3, [r0, #0]
 800068c:	602b      	str	r3, [r5, #0]
        break;
      }

      /* Sleep on the mutex.*/
      queue_prio_insert(ctp, &mp->queue);
      ctp->u.wtmtxp = mp;
 800068e:	624c      	str	r4, [r1, #36]	; 0x24
  tqp->next->queue.prev = (thread_t *)tqp;
 8000690:	605d      	str	r5, [r3, #4]
  currp->state = CH_STATE_CURRENT;
 8000692:	2301      	movs	r3, #1
 8000694:	f880 3020 	strb.w	r3, [r0, #32]
  currp = queue_fifo_remove(&ch.rlist.queue);
 8000698:	61a8      	str	r0, [r5, #24]
    /* It was not owned, inserted in the owned mutexes list.*/
    mp->owner = ctp;
    mp->next = ctp->mtxlist;
    ctp->mtxlist = mp;
  }
}
 800069a:	bc70      	pop	{r4, r5, r6}
  chSysSwitch(currp, otp);
 800069c:	f7ff bdf0 	b.w	8000280 <_port_switch>
    mp->next = ctp->mtxlist;
 80006a0:	6b88      	ldr	r0, [r1, #56]	; 0x38
    ctp->mtxlist = mp;
 80006a2:	f102 030c 	add.w	r3, r2, #12
}
 80006a6:	bc70      	pop	{r4, r5, r6}
    mp->next = ctp->mtxlist;
 80006a8:	e9c2 1005 	strd	r1, r0, [r2, #20]
    ctp->mtxlist = mp;
 80006ac:	638b      	str	r3, [r1, #56]	; 0x38
}
 80006ae:	4770      	bx	lr
  tp->queue.prev->queue.next = tp->queue.next;
 80006b0:	e9d3 4600 	ldrd	r4, r6, [r3]
 80006b4:	6034      	str	r4, [r6, #0]
  tp->queue.next->queue.prev = tp->queue.prev;
 80006b6:	6066      	str	r6, [r4, #4]
  tp->state = CH_STATE_READY;
 80006b8:	f883 2020 	strb.w	r2, [r3, #32]
  cp = (thread_t *)&ch.rlist.queue;
 80006bc:	4a1b      	ldr	r2, [pc, #108]	; (800072c <chMtxLockS.constprop.0+0xec>)
    cp = cp->queue.next;
 80006be:	6812      	ldr	r2, [r2, #0]
  } while (cp->prio >= tp->prio);
 80006c0:	6894      	ldr	r4, [r2, #8]
 80006c2:	42a0      	cmp	r0, r4
 80006c4:	d9fb      	bls.n	80006be <chMtxLockS.constprop.0+0x7e>
  tp->queue.prev             = cp->queue.prev;
 80006c6:	6850      	ldr	r0, [r2, #4]
 80006c8:	e9c3 2000 	strd	r2, r0, [r3]
  tp->queue.prev->queue.next = tp;
 80006cc:	6003      	str	r3, [r0, #0]
  cp->queue.prev             = tp;
 80006ce:	6053      	str	r3, [r2, #4]
  return tp;
 80006d0:	e7c8      	b.n	8000664 <chMtxLockS.constprop.0+0x24>
  tp->queue.prev->queue.next = tp->queue.next;
 80006d2:	e9d3 2400 	ldrd	r2, r4, [r3]
          queue_prio_insert(queue_dequeue(tp), &tp->u.wtmtxp->queue);
 80006d6:	6a5e      	ldr	r6, [r3, #36]	; 0x24
 80006d8:	6022      	str	r2, [r4, #0]
  tp->queue.next->queue.prev = tp->queue.prev;
 80006da:	6054      	str	r4, [r2, #4]
  thread_t *cp = (thread_t *)tqp;
 80006dc:	4632      	mov	r2, r6
 80006de:	e002      	b.n	80006e6 <chMtxLockS.constprop.0+0xa6>
  } while ((cp != (thread_t *)tqp) && (cp->prio >= tp->prio));
 80006e0:	6894      	ldr	r4, [r2, #8]
 80006e2:	42a0      	cmp	r0, r4
 80006e4:	d8ef      	bhi.n	80006c6 <chMtxLockS.constprop.0+0x86>
    cp = cp->queue.next;
 80006e6:	6812      	ldr	r2, [r2, #0]
  } while ((cp != (thread_t *)tqp) && (cp->prio >= tp->prio));
 80006e8:	4296      	cmp	r6, r2
 80006ea:	d1f9      	bne.n	80006e0 <chMtxLockS.constprop.0+0xa0>
  tp->queue.prev             = cp->queue.prev;
 80006ec:	6850      	ldr	r0, [r2, #4]
 80006ee:	e9c3 2000 	strd	r2, r0, [r3]
  tp->queue.prev->queue.next = tp;
 80006f2:	6003      	str	r3, [r0, #0]
  cp->queue.prev             = tp;
 80006f4:	6053      	str	r3, [r2, #4]
 80006f6:	e7b5      	b.n	8000664 <chMtxLockS.constprop.0+0x24>
  tp->queue.prev->queue.next = tp->queue.next;
 80006f8:	e9d3 2400 	ldrd	r2, r4, [r3]
          queue_prio_insert(queue_dequeue(tp), &tp->u.wtmtxp->queue);
 80006fc:	6a5e      	ldr	r6, [r3, #36]	; 0x24
 80006fe:	6022      	str	r2, [r4, #0]
  tp->queue.next->queue.prev = tp->queue.prev;
 8000700:	6054      	str	r4, [r2, #4]
  thread_t *cp = (thread_t *)tqp;
 8000702:	4632      	mov	r2, r6
 8000704:	e002      	b.n	800070c <chMtxLockS.constprop.0+0xcc>
  } while ((cp != (thread_t *)tqp) && (cp->prio >= tp->prio));
 8000706:	6894      	ldr	r4, [r2, #8]
 8000708:	4284      	cmp	r4, r0
 800070a:	d302      	bcc.n	8000712 <chMtxLockS.constprop.0+0xd2>
    cp = cp->queue.next;
 800070c:	6812      	ldr	r2, [r2, #0]
  } while ((cp != (thread_t *)tqp) && (cp->prio >= tp->prio));
 800070e:	4296      	cmp	r6, r2
 8000710:	d1f9      	bne.n	8000706 <chMtxLockS.constprop.0+0xc6>
  tp->queue.prev             = cp->queue.prev;
 8000712:	6850      	ldr	r0, [r2, #4]
  tp->queue.next             = cp;
 8000714:	601a      	str	r2, [r3, #0]
  tp->queue.prev             = cp->queue.prev;
 8000716:	6058      	str	r0, [r3, #4]
  tp->queue.prev->queue.next = tp;
 8000718:	6003      	str	r3, [r0, #0]
  cp->queue.prev             = tp;
 800071a:	6053      	str	r3, [r2, #4]
          tp = tp->u.wtmtxp->owner;
 800071c:	68b3      	ldr	r3, [r6, #8]
      while (tp->prio < ctp->prio) {
 800071e:	6888      	ldr	r0, [r1, #8]
 8000720:	689a      	ldr	r2, [r3, #8]
 8000722:	4290      	cmp	r0, r2
 8000724:	d896      	bhi.n	8000654 <chMtxLockS.constprop.0+0x14>
 8000726:	e79d      	b.n	8000664 <chMtxLockS.constprop.0+0x24>
 8000728:	20000800 	.word	0x20000800
 800072c:	20000894 	.word	0x20000894
 8000730:	2000080c 	.word	0x2000080c
	...

08000740 <chSchGoSleepTimeoutS>:
msg_t chSchGoSleepTimeoutS(tstate_t newstate, sysinterval_t timeout) {
 8000740:	b5f0      	push	{r4, r5, r6, r7, lr}
  if (TIME_INFINITE != timeout) {
 8000742:	1c4b      	adds	r3, r1, #1
msg_t chSchGoSleepTimeoutS(tstate_t newstate, sysinterval_t timeout) {
 8000744:	b087      	sub	sp, #28
  if (TIME_INFINITE != timeout) {
 8000746:	d052      	beq.n	80007ee <chSchGoSleepTimeoutS+0xae>
    chVTDoSetI(&vt, timeout, wakeup, currp);
 8000748:	4d4b      	ldr	r5, [pc, #300]	; (8000878 <chSchGoSleepTimeoutS+0x138>)

  chDbgCheckClassI();
  chDbgCheck((vtp != NULL) && (vtfunc != NULL) && (delay != TIME_IMMEDIATE));

  vtp->par = par;
  vtp->func = vtfunc;
 800074a:	4a4c      	ldr	r2, [pc, #304]	; (800087c <chSchGoSleepTimeoutS+0x13c>)
 800074c:	460b      	mov	r3, r1
    if (delay < (sysinterval_t)CH_CFG_ST_TIMEDELTA) {
      delay = (sysinterval_t)CH_CFG_ST_TIMEDELTA;
    }

    /* Special case where the timers list is empty.*/
    if (&ch.vtlist == (virtual_timers_list_t *)ch.vtlist.next) {
 800074e:	462e      	mov	r6, r5
 8000750:	69a9      	ldr	r1, [r5, #24]
  vtp->par = par;
 8000752:	e9cd 2104 	strd	r2, r1, [sp, #16]
    if (&ch.vtlist == (virtual_timers_list_t *)ch.vtlist.next) {
 8000756:	f856 2f1c 	ldr.w	r2, [r6, #28]!
 800075a:	2b02      	cmp	r3, #2
 *
 * @notapi
 */
static inline systime_t st_lld_get_counter(void) {

  return (systime_t)STM32_ST_TIM->CNT;
 800075c:	f04f 4c80 	mov.w	ip, #1073741824	; 0x40000000
 8000760:	bf38      	it	cc
 8000762:	2302      	movcc	r3, #2
 8000764:	42b2      	cmp	r2, r6
 8000766:	f8dc 4024 	ldr.w	r4, [ip, #36]	; 0x24
 800076a:	d06f      	beq.n	800084c <chSchGoSleepTimeoutS+0x10c>
    /* Pointer to the first element in the delta list, which is non-empty.*/
    p = ch.vtlist.next;

    /* Delay as delta from 'lasttime'. Note, it can overflow and the value
       becomes lower than 'now'.*/
    delta = chTimeDiffX(ch.vtlist.lasttime, now) + delay;
 800076c:	6aaf      	ldr	r7, [r5, #40]	; 0x28
 */
static inline sysinterval_t chTimeDiffX(systime_t start, systime_t end) {

  /*lint -save -e9033 [10.8] This cast is required by the operation, it is
    known that the destination type can be wider.*/
  return (sysinterval_t)((systime_t)(end - start));
 800076e:	1be4      	subs	r4, r4, r7
 8000770:	191b      	adds	r3, r3, r4

    if (delta < chTimeDiffX(ch.vtlist.lasttime, now)) {
      /* Scenario where a very large delay excedeed the numeric range, it
         requires a special handling. We need to skip the first element and
         adjust the delta to wrap back in the previous numeric range.*/
      delta -= p->delta;
 8000772:	6894      	ldr	r4, [r2, #8]
    if (delta < chTimeDiffX(ch.vtlist.lasttime, now)) {
 8000774:	d335      	bcc.n	80007e2 <chSchGoSleepTimeoutS+0xa2>
      p = p->next;
 8000776:	6812      	ldr	r2, [r2, #0]
      delta -= p->delta;
 8000778:	1b1b      	subs	r3, r3, r4
  p = ch.vtlist.next;
#endif /* CH_CFG_ST_TIMEDELTA == 0 */

  /* The delta list is scanned in order to find the correct position for
     this timer. */
  while (p->delta < delta) {
 800077a:	6894      	ldr	r4, [r2, #8]
 800077c:	42a3      	cmp	r3, r4
 800077e:	d904      	bls.n	800078a <chSchGoSleepTimeoutS+0x4a>
    /* Debug assert if the timer is already in the list.*/
    chDbgAssert(p != vtp, "timer already armed");

    delta -= p->delta;
    p = p->next;
 8000780:	6812      	ldr	r2, [r2, #0]
    delta -= p->delta;
 8000782:	1b1b      	subs	r3, r3, r4
  while (p->delta < delta) {
 8000784:	6894      	ldr	r4, [r2, #8]
 8000786:	429c      	cmp	r4, r3
 8000788:	d3fa      	bcc.n	8000780 <chSchGoSleepTimeoutS+0x40>
  }

  /* The timer is inserted in the delta list.*/
  vtp->next = p;
  vtp->prev = vtp->next->prev;
 800078a:	6854      	ldr	r4, [r2, #4]
 800078c:	9402      	str	r4, [sp, #8]
  vtp->prev->next = vtp;
 800078e:	af01      	add	r7, sp, #4
  vtp->next = p;
 8000790:	9201      	str	r2, [sp, #4]
  vtp->prev->next = vtp;
 8000792:	6027      	str	r7, [r4, #0]
  p->prev = vtp;
 8000794:	6057      	str	r7, [r2, #4]
  vtp->delta = delta;
 8000796:	9303      	str	r3, [sp, #12]

  /* Calculate new delta for the following entry.*/
  p->delta -= delta;
 8000798:	6894      	ldr	r4, [r2, #8]
 800079a:	1ae3      	subs	r3, r4, r3
 800079c:	6093      	str	r3, [r2, #8]

  /* Special case when the timer is in last position in the list, the
     value in the header must be restored.*/
  ch.vtlist.delta = (sysinterval_t)-1;
 800079e:	f04f 33ff 	mov.w	r3, #4294967295	; 0xffffffff
 80007a2:	626b      	str	r3, [r5, #36]	; 0x24
  otp->state = newstate;
 80007a4:	f881 0020 	strb.w	r0, [r1, #32]
  thread_t *tp = tqp->next;
 80007a8:	6828      	ldr	r0, [r5, #0]
  tqp->next             = tp->queue.next;
 80007aa:	6803      	ldr	r3, [r0, #0]
 80007ac:	602b      	str	r3, [r5, #0]
  tqp->next->queue.prev = (thread_t *)tqp;
 80007ae:	605d      	str	r5, [r3, #4]
  currp->state = CH_STATE_CURRENT;
 80007b0:	2301      	movs	r3, #1
 80007b2:	f880 3020 	strb.w	r3, [r0, #32]
  currp = queue_fifo_remove(&ch.rlist.queue);
 80007b6:	61a8      	str	r0, [r5, #24]
  chSysSwitch(currp, otp);
 80007b8:	f7ff fd62 	bl	8000280 <_port_switch>
    if (chVTIsArmedI(&vt)) {
 80007bc:	9b04      	ldr	r3, [sp, #16]
 80007be:	b163      	cbz	r3, 80007da <chSchGoSleepTimeoutS+0x9a>
#else /* CH_CFG_ST_TIMEDELTA > 0 */
  sysinterval_t nowdelta, delta;

  /* If the timer is not the first of the list then it is simply unlinked
     else the operation is more complex.*/
  if (ch.vtlist.next != vtp) {
 80007c0:	69eb      	ldr	r3, [r5, #28]
 80007c2:	42bb      	cmp	r3, r7
 80007c4:	d026      	beq.n	8000814 <chSchGoSleepTimeoutS+0xd4>
    /* Removing the element from the delta list.*/
    vtp->prev->next = vtp->next;
 80007c6:	e9dd 3201 	ldrd	r3, r2, [sp, #4]
    vtp->next->prev = vtp->prev;
    vtp->func = NULL;

    /* Adding delta to the next element, if it is not the last one.*/
    if (&ch.vtlist != (virtual_timers_list_t *)vtp->next)
 80007ca:	42b3      	cmp	r3, r6
    vtp->prev->next = vtp->next;
 80007cc:	6013      	str	r3, [r2, #0]
    vtp->next->prev = vtp->prev;
 80007ce:	605a      	str	r2, [r3, #4]
    if (&ch.vtlist != (virtual_timers_list_t *)vtp->next)
 80007d0:	d003      	beq.n	80007da <chSchGoSleepTimeoutS+0x9a>
      vtp->next->delta += vtp->delta;
 80007d2:	689a      	ldr	r2, [r3, #8]
 80007d4:	9903      	ldr	r1, [sp, #12]
 80007d6:	440a      	add	r2, r1
 80007d8:	609a      	str	r2, [r3, #8]
  return currp->u.rdymsg;
 80007da:	69ab      	ldr	r3, [r5, #24]
}
 80007dc:	6a58      	ldr	r0, [r3, #36]	; 0x24
 80007de:	b007      	add	sp, #28
 80007e0:	bdf0      	pop	{r4, r5, r6, r7, pc}
    else if (delta < p->delta) {
 80007e2:	42a3      	cmp	r3, r4
 80007e4:	d2ca      	bcs.n	800077c <chSchGoSleepTimeoutS+0x3c>
  return systime + (systime_t)interval;
 80007e6:	441f      	add	r7, r3
 *
 * @notapi
 */
static inline void st_lld_set_alarm(systime_t abstime) {

  STM32_ST_TIM->CCR[0] = (uint32_t)abstime;
 80007e8:	f8cc 7034 	str.w	r7, [ip, #52]	; 0x34
void stSetAlarm(systime_t abstime) {

  osalDbgAssert(stIsAlarmActive() != false, "not active");

  st_lld_set_alarm(abstime);
}
 80007ec:	e7c6      	b.n	800077c <chSchGoSleepTimeoutS+0x3c>
  thread_t *otp = currp;
 80007ee:	4d22      	ldr	r5, [pc, #136]	; (8000878 <chSchGoSleepTimeoutS+0x138>)
 80007f0:	69a9      	ldr	r1, [r5, #24]
  thread_t *tp = tqp->next;
 80007f2:	682b      	ldr	r3, [r5, #0]
  otp->state = newstate;
 80007f4:	f881 0020 	strb.w	r0, [r1, #32]
  tqp->next             = tp->queue.next;
 80007f8:	681a      	ldr	r2, [r3, #0]
 80007fa:	602a      	str	r2, [r5, #0]
  currp->state = CH_STATE_CURRENT;
 80007fc:	2401      	movs	r4, #1
  tqp->next->queue.prev = (thread_t *)tqp;
 80007fe:	6055      	str	r5, [r2, #4]
  chSysSwitch(currp, otp);
 8000800:	4618      	mov	r0, r3
  currp->state = CH_STATE_CURRENT;
 8000802:	f883 4020 	strb.w	r4, [r3, #32]
  currp = queue_fifo_remove(&ch.rlist.queue);
 8000806:	61ab      	str	r3, [r5, #24]
  chSysSwitch(currp, otp);
 8000808:	f7ff fd3a 	bl	8000280 <_port_switch>
  return currp->u.rdymsg;
 800080c:	69ab      	ldr	r3, [r5, #24]
}
 800080e:	6a58      	ldr	r0, [r3, #36]	; 0x24
 8000810:	b007      	add	sp, #28
 8000812:	bdf0      	pop	{r4, r5, r6, r7, pc}

    return;
  }

  /* Removing the first timer from the list.*/
  ch.vtlist.next = vtp->next;
 8000814:	9b01      	ldr	r3, [sp, #4]
 8000816:	61eb      	str	r3, [r5, #28]
  ch.vtlist.next->prev = (virtual_timer_t *)&ch.vtlist;
  vtp->func = NULL;
 8000818:	2200      	movs	r2, #0

  /* If the list become empty then the alarm timer is stopped and done.*/
  if (&ch.vtlist == (virtual_timers_list_t *)ch.vtlist.next) {
 800081a:	42b3      	cmp	r3, r6
  ch.vtlist.next->prev = (virtual_timer_t *)&ch.vtlist;
 800081c:	605e      	str	r6, [r3, #4]
  vtp->func = NULL;
 800081e:	9204      	str	r2, [sp, #16]
  if (&ch.vtlist == (virtual_timers_list_t *)ch.vtlist.next) {
 8000820:	d025      	beq.n	800086e <chSchGoSleepTimeoutS+0x12e>

    return;
  }

  /* The delta of the removed timer is added to the new first timer.*/
  ch.vtlist.next->delta += vtp->delta;
 8000822:	689a      	ldr	r2, [r3, #8]
 8000824:	9803      	ldr	r0, [sp, #12]
  return (systime_t)STM32_ST_TIM->CNT;
 8000826:	f04f 4180 	mov.w	r1, #1073741824	; 0x40000000
 800082a:	4402      	add	r2, r0
 800082c:	609a      	str	r2, [r3, #8]
 800082e:	6a4b      	ldr	r3, [r1, #36]	; 0x24
/*  if (ch.vtlist.next->delta == 0) {
    return;
  }*/

  /* Distance in ticks between the last alarm event and current time.*/
  nowdelta = chTimeDiffX(ch.vtlist.lasttime, chVTGetSystemTimeX());
 8000830:	6aa9      	ldr	r1, [r5, #40]	; 0x28
  return (sysinterval_t)((systime_t)(end - start));
 8000832:	1a58      	subs	r0, r3, r1

  /* If the current time surpassed the time of the next element in list
     then the event interrupt is already pending, just return.*/
  if (nowdelta >= ch.vtlist.next->delta) {
 8000834:	4282      	cmp	r2, r0
 8000836:	d9d0      	bls.n	80007da <chSchGoSleepTimeoutS+0x9a>
    return;
  }

  /* Distance from the next scheduled event and now.*/
  delta = ch.vtlist.next->delta - nowdelta;
 8000838:	1acb      	subs	r3, r1, r3
 800083a:	4413      	add	r3, r2

  /* Making sure to not schedule an event closer than CH_CFG_ST_TIMEDELTA
     ticks from now.*/
  if (delta < (sysinterval_t)CH_CFG_ST_TIMEDELTA) {
 800083c:	2b01      	cmp	r3, #1
    delta = nowdelta + (sysinterval_t)CH_CFG_ST_TIMEDELTA;
 800083e:	bf98      	it	ls
 8000840:	1c82      	addls	r2, r0, #2
  STM32_ST_TIM->CCR[0] = (uint32_t)abstime;
 8000842:	f04f 4380 	mov.w	r3, #1073741824	; 0x40000000
  return systime + (systime_t)interval;
 8000846:	440a      	add	r2, r1
 8000848:	635a      	str	r2, [r3, #52]	; 0x34
 800084a:	e7c6      	b.n	80007da <chSchGoSleepTimeoutS+0x9a>
      ch.vtlist.lasttime = now;
 800084c:	62ac      	str	r4, [r5, #40]	; 0x28
      vtp->delta = delay;
 800084e:	9303      	str	r3, [sp, #12]
 8000850:	441c      	add	r4, r3
      ch.vtlist.next = vtp;
 8000852:	af01      	add	r7, sp, #4
  STM32_ST_TIM->SR     = 0;
 8000854:	2300      	movs	r3, #0
      vtp->prev = (virtual_timer_t *)&ch.vtlist;
 8000856:	e9cd 6601 	strd	r6, r6, [sp, #4]
      ch.vtlist.prev = vtp;
 800085a:	e9c5 7707 	strd	r7, r7, [r5, #28]
  STM32_ST_TIM->CCR[0] = (uint32_t)abstime;
 800085e:	f8cc 4034 	str.w	r4, [ip, #52]	; 0x34
  STM32_ST_TIM->SR     = 0;
 8000862:	f8cc 3010 	str.w	r3, [ip, #16]
  STM32_ST_TIM->DIER   = STM32_TIM_DIER_CC1IE;
 8000866:	2302      	movs	r3, #2
 8000868:	f8cc 300c 	str.w	r3, [ip, #12]
}
 800086c:	e79a      	b.n	80007a4 <chSchGoSleepTimeoutS+0x64>
  STM32_ST_TIM->DIER = 0U;
 800086e:	f04f 4380 	mov.w	r3, #1073741824	; 0x40000000
 8000872:	60da      	str	r2, [r3, #12]
    return;
 8000874:	e7b1      	b.n	80007da <chSchGoSleepTimeoutS+0x9a>
 8000876:	bf00      	nop
 8000878:	20000894 	.word	0x20000894
 800087c:	08000491 	.word	0x08000491

08000880 <iqReadTimeout>:
 * @return              The number of bytes effectively transferred.
 *
 * @api
 */
size_t iqReadTimeout(input_queue_t *iqp, uint8_t *bp,
                     size_t n, sysinterval_t timeout) {
 8000880:	e92d 4ff0 	stmdb	sp!, {r4, r5, r6, r7, r8, r9, sl, fp, lr}
 8000884:	b083      	sub	sp, #12
  qnotify_t nfy = iqp->q_notify;
 8000886:	69c7      	ldr	r7, [r0, #28]
                     size_t n, sysinterval_t timeout) {
 8000888:	9201      	str	r2, [sp, #4]
 800088a:	4699      	mov	r9, r3
 800088c:	f04f 0a20 	mov.w	sl, #32
 8000890:	f38a 8811 	msr	BASEPRI, sl

  osalDbgCheck(n > 0U);

  osalSysLock();

  while (n > 0U) {
 8000894:	2a00      	cmp	r2, #0
 8000896:	d033      	beq.n	8000900 <iqReadTimeout+0x80>
 8000898:	f8dd b004 	ldr.w	fp, [sp, #4]
 800089c:	4604      	mov	r4, r0
 800089e:	460e      	mov	r6, r1
  if (n > iqGetFullI(iqp)) {
 80008a0:	68a2      	ldr	r2, [r4, #8]
  s1 = (size_t)(iqp->q_top - iqp->q_rdptr);
 80008a2:	69a1      	ldr	r1, [r4, #24]
  if (n > iqGetFullI(iqp)) {
 80008a4:	455a      	cmp	r2, fp
  s1 = (size_t)(iqp->q_top - iqp->q_rdptr);
 80008a6:	6922      	ldr	r2, [r4, #16]
    n = iqGetFullI(iqp);
 80008a8:	bf34      	ite	cc
 80008aa:	68a5      	ldrcc	r5, [r4, #8]
 80008ac:	465d      	movcs	r5, fp
  s1 = (size_t)(iqp->q_top - iqp->q_rdptr);
 80008ae:	eba2 0801 	sub.w	r8, r2, r1
  if (n < s1) {
 80008b2:	45a8      	cmp	r8, r5
 80008b4:	d84f      	bhi.n	8000956 <iqReadTimeout+0xd6>
  else if (n > s1) {
 80008b6:	d22a      	bcs.n	800090e <iqReadTimeout+0x8e>
    s2 = n - s1;
 80008b8:	eba5 0308 	sub.w	r3, r5, r8
    memcpy((void *)bp, (void *)iqp->q_rdptr, s1);
 80008bc:	4642      	mov	r2, r8
 80008be:	4630      	mov	r0, r6
    s2 = n - s1;
 80008c0:	9300      	str	r3, [sp, #0]
    memcpy((void *)bp, (void *)iqp->q_rdptr, s1);
 80008c2:	f7ff fcf3 	bl	80002ac <memcpy>
    memcpy((void *)bp, (void *)iqp->q_buffer, s2);
 80008c6:	eb06 0008 	add.w	r0, r6, r8
 80008ca:	f8dd 8000 	ldr.w	r8, [sp]
 80008ce:	68e1      	ldr	r1, [r4, #12]
 80008d0:	4642      	mov	r2, r8
 80008d2:	f7ff fceb 	bl	80002ac <memcpy>
    iqp->q_rdptr = iqp->q_buffer + s2;
 80008d6:	68e2      	ldr	r2, [r4, #12]
 80008d8:	4442      	add	r2, r8
 80008da:	61a2      	str	r2, [r4, #24]
  iqp->q_counter -= n;
 80008dc:	68a2      	ldr	r2, [r4, #8]
 80008de:	1b52      	subs	r2, r2, r5
 80008e0:	60a2      	str	r2, [r4, #8]
    size_t done;

    done = iq_read(iqp, bp, n);
    if (done == (size_t)0) {
 80008e2:	b1fd      	cbz	r5, 8000924 <iqReadTimeout+0xa4>
      }
    }
    else {
      /* Inform the low side that the queue has at least one empty slot
         available.*/
      if (nfy != NULL) {
 80008e4:	b10f      	cbz	r7, 80008ea <iqReadTimeout+0x6a>
        nfy(iqp);
 80008e6:	4620      	mov	r0, r4
 80008e8:	47b8      	blx	r7
 80008ea:	2300      	movs	r3, #0
 80008ec:	f383 8811 	msr	BASEPRI, r3
      }

      /* Giving a preemption chance in a controlled point.*/
      osalSysUnlock();

      n  -= done;
 80008f0:	ebab 0b05 	sub.w	fp, fp, r5
      bp += done;
 80008f4:	442e      	add	r6, r5
 80008f6:	f38a 8811 	msr	BASEPRI, sl
  while (n > 0U) {
 80008fa:	f1bb 0f00 	cmp.w	fp, #0
 80008fe:	d1cf      	bne.n	80008a0 <iqReadTimeout+0x20>
 8000900:	9801      	ldr	r0, [sp, #4]
 8000902:	2300      	movs	r3, #0
 8000904:	f383 8811 	msr	BASEPRI, r3
    }
  }

  osalSysUnlock();
  return max - n;
}
 8000908:	b003      	add	sp, #12
 800090a:	e8bd 8ff0 	ldmia.w	sp!, {r4, r5, r6, r7, r8, r9, sl, fp, pc}
    memcpy((void *)bp, (void *)iqp->q_rdptr, n);
 800090e:	462a      	mov	r2, r5
 8000910:	4630      	mov	r0, r6
 8000912:	f7ff fccb 	bl	80002ac <memcpy>
    iqp->q_rdptr = iqp->q_buffer;
 8000916:	68e2      	ldr	r2, [r4, #12]
 8000918:	61a2      	str	r2, [r4, #24]
  iqp->q_counter -= n;
 800091a:	68a2      	ldr	r2, [r4, #8]
 800091c:	1b52      	subs	r2, r2, r5
 800091e:	60a2      	str	r2, [r4, #8]
    if (done == (size_t)0) {
 8000920:	2d00      	cmp	r5, #0
 8000922:	d1df      	bne.n	80008e4 <iqReadTimeout+0x64>
 *
 * @sclass
 */
msg_t chThdEnqueueTimeoutS(threads_queue_t *tqp, sysinterval_t timeout) {

  if (TIME_IMMEDIATE == timeout) {
 8000924:	f1b9 0f00 	cmp.w	r9, #0
 8000928:	d00c      	beq.n	8000944 <iqReadTimeout+0xc4>
    return MSG_TIMEOUT;
  }

  queue_insert(currp, tqp);
 800092a:	4b0f      	ldr	r3, [pc, #60]	; (8000968 <iqReadTimeout+0xe8>)
  tp->queue.prev             = tqp->prev;
 800092c:	6860      	ldr	r0, [r4, #4]
 800092e:	699a      	ldr	r2, [r3, #24]

  return chSchGoSleepTimeoutS(CH_STATE_QUEUED, timeout);
 8000930:	4649      	mov	r1, r9
 8000932:	e9c2 4000 	strd	r4, r0, [r2]
  tp->queue.prev->queue.next = tp;
 8000936:	6002      	str	r2, [r0, #0]
  tqp->prev                  = tp;
 8000938:	6062      	str	r2, [r4, #4]
 800093a:	2004      	movs	r0, #4
 800093c:	f7ff ff00 	bl	8000740 <chSchGoSleepTimeoutS>
      if (msg != MSG_OK) {
 8000940:	2800      	cmp	r0, #0
 8000942:	d0ad      	beq.n	80008a0 <iqReadTimeout+0x20>
  return max - n;
 8000944:	9b01      	ldr	r3, [sp, #4]
 8000946:	eba3 000b 	sub.w	r0, r3, fp
 800094a:	2300      	movs	r3, #0
 800094c:	f383 8811 	msr	BASEPRI, r3
}
 8000950:	b003      	add	sp, #12
 8000952:	e8bd 8ff0 	ldmia.w	sp!, {r4, r5, r6, r7, r8, r9, sl, fp, pc}
    memcpy((void *)bp, (void *)iqp->q_rdptr, n);
 8000956:	462a      	mov	r2, r5
 8000958:	4630      	mov	r0, r6
 800095a:	f7ff fca7 	bl	80002ac <memcpy>
    iqp->q_rdptr += n;
 800095e:	69a2      	ldr	r2, [r4, #24]
 8000960:	442a      	add	r2, r5
 8000962:	61a2      	str	r2, [r4, #24]
 8000964:	e7ba      	b.n	80008dc <iqReadTimeout+0x5c>
 8000966:	bf00      	nop
 8000968:	20000894 	.word	0x20000894
 800096c:	00000000 	.word	0x00000000

08000970 <_read>:
  return iqReadTimeout(&((SerialDriver *)ip)->iqueue, bp,
 8000970:	f04f 33ff 	mov.w	r3, #4294967295	; 0xffffffff
 8000974:	300c      	adds	r0, #12
 8000976:	f7ff bf83 	b.w	8000880 <iqReadTimeout>
 800097a:	bf00      	nop
 800097c:	0000      	movs	r0, r0
	...

08000980 <_readt>:
  return iqReadTimeout(&((SerialDriver *)ip)->iqueue, bp, n, timeout);
 8000980:	300c      	adds	r0, #12
 8000982:	f7ff bf7d 	b.w	8000880 <iqReadTimeout>
 8000986:	bf00      	nop
	...

08000990 <iqGetTimeout>:
msg_t iqGetTimeout(input_queue_t *iqp, sysinterval_t timeout) {
 8000990:	b570      	push	{r4, r5, r6, lr}
 8000992:	2320      	movs	r3, #32
 8000994:	4604      	mov	r4, r0
 8000996:	460d      	mov	r5, r1
 8000998:	f383 8811 	msr	BASEPRI, r3
  queue_insert(currp, tqp);
 800099c:	4e16      	ldr	r6, [pc, #88]	; (80009f8 <iqGetTimeout+0x68>)
 * @special
 */
static inline void osalSysLock(void) {

  chSysLock();
}
 800099e:	e00a      	b.n	80009b6 <iqGetTimeout+0x26>
  if (TIME_IMMEDIATE == timeout) {
 80009a0:	b325      	cbz	r5, 80009ec <iqGetTimeout+0x5c>
  queue_insert(currp, tqp);
 80009a2:	69b3      	ldr	r3, [r6, #24]
  tp->queue.prev             = tqp->prev;
 80009a4:	6862      	ldr	r2, [r4, #4]
 80009a6:	e9c3 4200 	strd	r4, r2, [r3]
  tp->queue.prev->queue.next = tp;
 80009aa:	6013      	str	r3, [r2, #0]
  tqp->prev                  = tp;
 80009ac:	6063      	str	r3, [r4, #4]
  return chSchGoSleepTimeoutS(CH_STATE_QUEUED, timeout);
 80009ae:	f7ff fec7 	bl	8000740 <chSchGoSleepTimeoutS>
    if (msg < MSG_OK) {
 80009b2:	2800      	cmp	r0, #0
 80009b4:	db1c      	blt.n	80009f0 <iqGetTimeout+0x60>
  while (iqIsEmptyI(iqp)) {
 80009b6:	68a3      	ldr	r3, [r4, #8]
 80009b8:	4629      	mov	r1, r5
 80009ba:	2004      	movs	r0, #4
 80009bc:	2b00      	cmp	r3, #0
 80009be:	d0ef      	beq.n	80009a0 <iqGetTimeout+0x10>
  iqp->q_counter--;
 80009c0:	68a3      	ldr	r3, [r4, #8]
  b = *iqp->q_rdptr++;
 80009c2:	69a1      	ldr	r1, [r4, #24]
  iqp->q_counter--;
 80009c4:	3b01      	subs	r3, #1
 80009c6:	60a3      	str	r3, [r4, #8]
  if (iqp->q_rdptr >= iqp->q_top) {
 80009c8:	6923      	ldr	r3, [r4, #16]
  b = *iqp->q_rdptr++;
 80009ca:	1c4a      	adds	r2, r1, #1
  if (iqp->q_rdptr >= iqp->q_top) {
 80009cc:	429a      	cmp	r2, r3
    iqp->q_rdptr = iqp->q_buffer;
 80009ce:	bf28      	it	cs
 80009d0:	68e3      	ldrcs	r3, [r4, #12]
  b = *iqp->q_rdptr++;
 80009d2:	61a2      	str	r2, [r4, #24]
 80009d4:	780d      	ldrb	r5, [r1, #0]
    iqp->q_rdptr = iqp->q_buffer;
 80009d6:	bf28      	it	cs
 80009d8:	61a3      	strcs	r3, [r4, #24]
  if (iqp->q_notify != NULL) {
 80009da:	69e3      	ldr	r3, [r4, #28]
 80009dc:	b10b      	cbz	r3, 80009e2 <iqGetTimeout+0x52>
    iqp->q_notify(iqp);
 80009de:	4620      	mov	r0, r4
 80009e0:	4798      	blx	r3
 80009e2:	2300      	movs	r3, #0
 80009e4:	f383 8811 	msr	BASEPRI, r3
  return (msg_t)b;
 80009e8:	4628      	mov	r0, r5
}
 80009ea:	bd70      	pop	{r4, r5, r6, pc}
    return MSG_TIMEOUT;
 80009ec:	f04f 30ff 	mov.w	r0, #4294967295	; 0xffffffff
 80009f0:	2300      	movs	r3, #0
 80009f2:	f383 8811 	msr	BASEPRI, r3
 80009f6:	bd70      	pop	{r4, r5, r6, pc}
 80009f8:	20000894 	.word	0x20000894
 80009fc:	00000000 	.word	0x00000000

08000a00 <_get>:
  return iqGetTimeout(&((SerialDriver *)ip)->iqueue, TIME_INFINITE);
 8000a00:	f04f 31ff 	mov.w	r1, #4294967295	; 0xffffffff
 8000a04:	300c      	adds	r0, #12
 8000a06:	f7ff bfc3 	b.w	8000990 <iqGetTimeout>
 8000a0a:	bf00      	nop
 8000a0c:	0000      	movs	r0, r0
	...

08000a10 <_gett>:
  return iqGetTimeout(&((SerialDriver *)ip)->iqueue, timeout);
 8000a10:	300c      	adds	r0, #12
 8000a12:	f7ff bfbd 	b.w	8000990 <iqGetTimeout>
 8000a16:	bf00      	nop
	...

08000a20 <oqPutTimeout>:
 * @retval MSG_TIMEOUT  if the specified time expired.
 * @retval MSG_RESET    if the queue has been reset.
 *
 * @api
 */
msg_t oqPutTimeout(output_queue_t *oqp, uint8_t b, sysinterval_t timeout) {
 8000a20:	e92d 41f0 	stmdb	sp!, {r4, r5, r6, r7, r8, lr}
 8000a24:	2320      	movs	r3, #32
 8000a26:	4604      	mov	r4, r0
 8000a28:	460f      	mov	r7, r1
 8000a2a:	4616      	mov	r6, r2
 8000a2c:	f383 8811 	msr	BASEPRI, r3
  queue_insert(currp, tqp);
 8000a30:	f8df 8060 	ldr.w	r8, [pc, #96]	; 8000a94 <oqPutTimeout+0x74>
 8000a34:	e00b      	b.n	8000a4e <oqPutTimeout+0x2e>
  if (TIME_IMMEDIATE == timeout) {
 8000a36:	b32e      	cbz	r6, 8000a84 <oqPutTimeout+0x64>
  queue_insert(currp, tqp);
 8000a38:	f8d8 3018 	ldr.w	r3, [r8, #24]
  tp->queue.prev             = tqp->prev;
 8000a3c:	6865      	ldr	r5, [r4, #4]
 8000a3e:	e9c3 4500 	strd	r4, r5, [r3]
  tp->queue.prev->queue.next = tp;
 8000a42:	602b      	str	r3, [r5, #0]
  tqp->prev                  = tp;
 8000a44:	6063      	str	r3, [r4, #4]
  return chSchGoSleepTimeoutS(CH_STATE_QUEUED, timeout);
 8000a46:	f7ff fe7b 	bl	8000740 <chSchGoSleepTimeoutS>
  osalSysLock();

  /* Waiting until there is a slot available or a timeout occurs.*/
  while (oqIsFullI(oqp)) {
    msg_t msg = osalThreadEnqueueTimeoutS(&oqp->q_waiting, timeout);
    if (msg < MSG_OK) {
 8000a4a:	2800      	cmp	r0, #0
 8000a4c:	db1c      	blt.n	8000a88 <oqPutTimeout+0x68>
  while (oqIsFullI(oqp)) {
 8000a4e:	68a3      	ldr	r3, [r4, #8]
 8000a50:	4631      	mov	r1, r6
 8000a52:	2004      	movs	r0, #4
 8000a54:	2b00      	cmp	r3, #0
 8000a56:	d0ee      	beq.n	8000a36 <oqPutTimeout+0x16>
    }
  }

  /* Putting the character into the queue.*/
  oqp->q_counter--;
  *oqp->q_wrptr++ = b;
 8000a58:	6962      	ldr	r2, [r4, #20]
  oqp->q_counter--;
 8000a5a:	68a3      	ldr	r3, [r4, #8]
  *oqp->q_wrptr++ = b;
 8000a5c:	1c51      	adds	r1, r2, #1
  oqp->q_counter--;
 8000a5e:	3b01      	subs	r3, #1
  *oqp->q_wrptr++ = b;
 8000a60:	6161      	str	r1, [r4, #20]
  oqp->q_counter--;
 8000a62:	60a3      	str	r3, [r4, #8]
  *oqp->q_wrptr++ = b;
 8000a64:	7017      	strb	r7, [r2, #0]
  if (oqp->q_wrptr >= oqp->q_top) {
 8000a66:	e9d4 3204 	ldrd	r3, r2, [r4, #16]
 8000a6a:	429a      	cmp	r2, r3
    oqp->q_wrptr = oqp->q_buffer;
 8000a6c:	bf24      	itt	cs
 8000a6e:	68e3      	ldrcs	r3, [r4, #12]
 8000a70:	6163      	strcs	r3, [r4, #20]
  }

  /* Inform the low side that the queue has at least one character available.*/
  if (oqp->q_notify != NULL) {
 8000a72:	69e3      	ldr	r3, [r4, #28]
 8000a74:	b10b      	cbz	r3, 8000a7a <oqPutTimeout+0x5a>
    oqp->q_notify(oqp);
 8000a76:	4620      	mov	r0, r4
 8000a78:	4798      	blx	r3
 8000a7a:	2000      	movs	r0, #0
 8000a7c:	f380 8811 	msr	BASEPRI, r0
  }

  osalSysUnlock();

  return MSG_OK;
}
 8000a80:	e8bd 81f0 	ldmia.w	sp!, {r4, r5, r6, r7, r8, pc}
    return MSG_TIMEOUT;
 8000a84:	f04f 30ff 	mov.w	r0, #4294967295	; 0xffffffff
 8000a88:	2300      	movs	r3, #0
 8000a8a:	f383 8811 	msr	BASEPRI, r3
 8000a8e:	e8bd 81f0 	ldmia.w	sp!, {r4, r5, r6, r7, r8, pc}
 8000a92:	bf00      	nop
 8000a94:	20000894 	.word	0x20000894
	...

08000aa0 <_put>:
  return oqPutTimeout(&((SerialDriver *)ip)->oqueue, b, TIME_INFINITE);
 8000aa0:	f04f 32ff 	mov.w	r2, #4294967295	; 0xffffffff
 8000aa4:	3030      	adds	r0, #48	; 0x30
 8000aa6:	f7ff bfbb 	b.w	8000a20 <oqPutTimeout>
 8000aaa:	bf00      	nop
 8000aac:	0000      	movs	r0, r0
	...

08000ab0 <_putt>:
  return oqPutTimeout(&((SerialDriver *)ip)->oqueue, b, timeout);
 8000ab0:	3030      	adds	r0, #48	; 0x30
 8000ab2:	f7ff bfb5 	b.w	8000a20 <oqPutTimeout>
 8000ab6:	bf00      	nop
	...

08000ac0 <oqWriteTimeout>:
 * @return              The number of bytes effectively transferred.
 *
 * @api
 */
size_t oqWriteTimeout(output_queue_t *oqp, const uint8_t *bp,
                      size_t n, sysinterval_t timeout) {
 8000ac0:	e92d 4ff0 	stmdb	sp!, {r4, r5, r6, r7, r8, r9, sl, fp, lr}
 8000ac4:	b083      	sub	sp, #12
  qnotify_t nfy = oqp->q_notify;
 8000ac6:	f8d0 801c 	ldr.w	r8, [r0, #28]
                      size_t n, sysinterval_t timeout) {
 8000aca:	9201      	str	r2, [sp, #4]
 8000acc:	4699      	mov	r9, r3
 8000ace:	f04f 0a20 	mov.w	sl, #32
 8000ad2:	f38a 8811 	msr	BASEPRI, sl

  osalDbgCheck(n > 0U);

  osalSysLock();

  while (n > 0U) {
 8000ad6:	b382      	cbz	r2, 8000b3a <oqWriteTimeout+0x7a>
 8000ad8:	f8dd b004 	ldr.w	fp, [sp, #4]
 8000adc:	4604      	mov	r4, r0
 8000ade:	460f      	mov	r7, r1
  if (n > oqGetEmptyI(oqp)) {
 8000ae0:	68a3      	ldr	r3, [r4, #8]
  s1 = (size_t)(oqp->q_top - oqp->q_wrptr);
 8000ae2:	e9d4 6004 	ldrd	r6, r0, [r4, #16]
  if (n > oqGetEmptyI(oqp)) {
 8000ae6:	455b      	cmp	r3, fp
    n = oqGetEmptyI(oqp);
 8000ae8:	bf34      	ite	cc
 8000aea:	68a5      	ldrcc	r5, [r4, #8]
 8000aec:	465d      	movcs	r5, fp
  s1 = (size_t)(oqp->q_top - oqp->q_wrptr);
 8000aee:	1a36      	subs	r6, r6, r0
  if (n < s1) {
 8000af0:	42ae      	cmp	r6, r5
 8000af2:	d84d      	bhi.n	8000b90 <oqWriteTimeout+0xd0>
  else if (n > s1) {
 8000af4:	d228      	bcs.n	8000b48 <oqWriteTimeout+0x88>
    memcpy((void *)oqp->q_wrptr, (const void *)bp, s1);
 8000af6:	4632      	mov	r2, r6
 8000af8:	4639      	mov	r1, r7
 8000afa:	f7ff fbd7 	bl	80002ac <memcpy>
    s2 = n - s1;
 8000afe:	1baa      	subs	r2, r5, r6
    memcpy((void *)oqp->q_buffer, (const void *)bp, s2);
 8000b00:	68e0      	ldr	r0, [r4, #12]
 8000b02:	9200      	str	r2, [sp, #0]
 8000b04:	19b9      	adds	r1, r7, r6
 8000b06:	f7ff fbd1 	bl	80002ac <memcpy>
    oqp->q_wrptr = oqp->q_buffer + s2;
 8000b0a:	68e3      	ldr	r3, [r4, #12]
 8000b0c:	9a00      	ldr	r2, [sp, #0]
 8000b0e:	4413      	add	r3, r2
 8000b10:	6163      	str	r3, [r4, #20]
  oqp->q_counter -= n;
 8000b12:	68a3      	ldr	r3, [r4, #8]
 8000b14:	1b5b      	subs	r3, r3, r5
 8000b16:	60a3      	str	r3, [r4, #8]
    size_t done;

    done = oq_write(oqp, bp, n);
    if (done == (size_t)0) {
 8000b18:	b30d      	cbz	r5, 8000b5e <oqWriteTimeout+0x9e>
      }
    }
    else {
      /* Inform the low side that the queue has at least one character
         available.*/
      if (nfy != NULL) {
 8000b1a:	f1b8 0f00 	cmp.w	r8, #0
 8000b1e:	d001      	beq.n	8000b24 <oqWriteTimeout+0x64>
        nfy(oqp);
 8000b20:	4620      	mov	r0, r4
 8000b22:	47c0      	blx	r8
 8000b24:	2300      	movs	r3, #0
 8000b26:	f383 8811 	msr	BASEPRI, r3
      }

      /* Giving a preemption chance in a controlled point.*/
      osalSysUnlock();

      n  -= done;
 8000b2a:	ebab 0b05 	sub.w	fp, fp, r5
      bp += done;
 8000b2e:	442f      	add	r7, r5
 8000b30:	f38a 8811 	msr	BASEPRI, sl
  while (n > 0U) {
 8000b34:	f1bb 0f00 	cmp.w	fp, #0
 8000b38:	d1d2      	bne.n	8000ae0 <oqWriteTimeout+0x20>
 8000b3a:	9801      	ldr	r0, [sp, #4]
 8000b3c:	2300      	movs	r3, #0
 8000b3e:	f383 8811 	msr	BASEPRI, r3
    }
  }

  osalSysUnlock();
  return max - n;
}
 8000b42:	b003      	add	sp, #12
 8000b44:	e8bd 8ff0 	ldmia.w	sp!, {r4, r5, r6, r7, r8, r9, sl, fp, pc}
    memcpy((void *)oqp->q_wrptr, (const void *)bp, n);
 8000b48:	462a      	mov	r2, r5
 8000b4a:	4639      	mov	r1, r7
 8000b4c:	f7ff fbae 	bl	80002ac <memcpy>
    oqp->q_wrptr = oqp->q_buffer;
 8000b50:	68e3      	ldr	r3, [r4, #12]
 8000b52:	6163      	str	r3, [r4, #20]
  oqp->q_counter -= n;
 8000b54:	68a3      	ldr	r3, [r4, #8]
 8000b56:	1b5b      	subs	r3, r3, r5
 8000b58:	60a3      	str	r3, [r4, #8]
    if (done == (size_t)0) {
 8000b5a:	2d00      	cmp	r5, #0
 8000b5c:	d1dd      	bne.n	8000b1a <oqWriteTimeout+0x5a>
  if (TIME_IMMEDIATE == timeout) {
 8000b5e:	f1b9 0f00 	cmp.w	r9, #0
 8000b62:	d00c      	beq.n	8000b7e <oqWriteTimeout+0xbe>
  queue_insert(currp, tqp);
 8000b64:	4b0e      	ldr	r3, [pc, #56]	; (8000ba0 <oqWriteTimeout+0xe0>)
  tp->queue.prev             = tqp->prev;
 8000b66:	6862      	ldr	r2, [r4, #4]
 8000b68:	699b      	ldr	r3, [r3, #24]
  return chSchGoSleepTimeoutS(CH_STATE_QUEUED, timeout);
 8000b6a:	4649      	mov	r1, r9
 8000b6c:	e9c3 4200 	strd	r4, r2, [r3]
 8000b70:	2004      	movs	r0, #4
  tp->queue.prev->queue.next = tp;
 8000b72:	6013      	str	r3, [r2, #0]
  tqp->prev                  = tp;
 8000b74:	6063      	str	r3, [r4, #4]
 8000b76:	f7ff fde3 	bl	8000740 <chSchGoSleepTimeoutS>
      if (msg != MSG_OK) {
 8000b7a:	2800      	cmp	r0, #0
 8000b7c:	d0b0      	beq.n	8000ae0 <oqWriteTimeout+0x20>
  return max - n;
 8000b7e:	9b01      	ldr	r3, [sp, #4]
 8000b80:	eba3 000b 	sub.w	r0, r3, fp
 8000b84:	2300      	movs	r3, #0
 8000b86:	f383 8811 	msr	BASEPRI, r3
}
 8000b8a:	b003      	add	sp, #12
 8000b8c:	e8bd 8ff0 	ldmia.w	sp!, {r4, r5, r6, r7, r8, r9, sl, fp, pc}
    memcpy((void *)oqp->q_wrptr, (const void *)bp, n);
 8000b90:	462a      	mov	r2, r5
 8000b92:	4639      	mov	r1, r7
 8000b94:	f7ff fb8a 	bl	80002ac <memcpy>
    oqp->q_wrptr += n;
 8000b98:	6963      	ldr	r3, [r4, #20]
 8000b9a:	442b      	add	r3, r5
 8000b9c:	6163      	str	r3, [r4, #20]
 8000b9e:	e7b8      	b.n	8000b12 <oqWriteTimeout+0x52>
 8000ba0:	20000894 	.word	0x20000894
	...

08000bb0 <_write>:
  return oqWriteTimeout(&((SerialDriver *)ip)->oqueue, bp,
 8000bb0:	f04f 33ff 	mov.w	r3, #4294967295	; 0xffffffff
 8000bb4:	3030      	adds	r0, #48	; 0x30
 8000bb6:	f7ff bf83 	b.w	8000ac0 <oqWriteTimeout>
 8000bba:	bf00      	nop
 8000bbc:	0000      	movs	r0, r0
	...

08000bc0 <_writet>:
  return oqWriteTimeout(&((SerialDriver *)ip)->oqueue, bp, n, timeout);
 8000bc0:	3030      	adds	r0, #48	; 0x30
 8000bc2:	f7ff bf7d 	b.w	8000ac0 <oqWriteTimeout>
 8000bc6:	bf00      	nop
	...

08000bd0 <Thread1>:

/*
 * Blinker thread to check if the code is working
 */
static THD_WORKING_AREA(waThread1, 128);
static THD_FUNCTION(Thread1, arg) {
 8000bd0:	b508      	push	{r3, lr}
 8000bd2:	2420      	movs	r4, #32
 8000bd4:	f384 8811 	msr	BASEPRI, r4
 */
static inline void chThdSleepS(sysinterval_t ticks) {

  chDbgCheck(ticks != TIME_IMMEDIATE);

  (void) chSchGoSleepTimeoutS(CH_STATE_SLEEPING, ticks);
 8000bd8:	f242 7110 	movw	r1, #10000	; 0x2710
 8000bdc:	2008      	movs	r0, #8
 8000bde:	f7ff fdaf 	bl	8000740 <chSchGoSleepTimeoutS>
 8000be2:	2300      	movs	r3, #0
 8000be4:	f383 8811 	msr	BASEPRI, r3
 8000be8:	e7f4      	b.n	8000bd4 <Thread1+0x4>
 8000bea:	bf00      	nop
 8000bec:	0000      	movs	r0, r0
	...

08000bf0 <i2c_lld_master_transmit_timeout.constprop.0>:
 *                      timeout the driver must be stopped and restarted
 *                      because the bus is in an uncertain state</b>.
 *
 * @notapi
 */
msg_t i2c_lld_master_transmit_timeout(I2CDriver *i2cp, i2caddr_t addr,
 8000bf0:	b5f8      	push	{r3, r4, r5, r6, r7, lr}
                                      const uint8_t *txbuf, size_t txbytes,
                                      uint8_t *rxbuf, size_t rxbytes,
                                      sysinterval_t timeout) {
  msg_t msg;
  I2C_TypeDef *dp = i2cp->i2c;
 8000bf2:	4e3f      	ldr	r6, [pc, #252]	; (8000cf0 <i2c_lld_master_transmit_timeout.constprop.0+0x100>)
  systime_t start, end;

  /* Resetting error flags for this transfer.*/
  i2cp->errors = I2C_NO_ERROR;
 8000bf4:	2200      	movs	r2, #0
  I2C_TypeDef *dp = i2cp->i2c;
 8000bf6:	6b34      	ldr	r4, [r6, #48]	; 0x30
  i2cp->errors = I2C_NO_ERROR;
 8000bf8:	60b2      	str	r2, [r6, #8]
 8000bfa:	f382 8811 	msr	BASEPRI, r2
  /* Releases the lock from high level driver.*/
  osalSysUnlock();

#if STM32_I2C_USE_DMA == TRUE
  /* TX DMA setup.*/
  dmaStreamSetMode(i2cp->dmatx, i2cp->txdmamode);
 8000bfe:	6af3      	ldr	r3, [r6, #44]	; 0x2c
 8000c00:	6a77      	ldr	r7, [r6, #36]	; 0x24
 8000c02:	685d      	ldr	r5, [r3, #4]
  dmaStreamSetMemory0(i2cp->dmatx, txbuf);
  dmaStreamSetTransactionSize(i2cp->dmatx, txbytes);

  /* RX DMA setup, note, rxbytes can be zero but we write the value anyway.*/
  dmaStreamSetMode(i2cp->dmarx, i2cp->rxdmamode);
 8000c04:	6ab3      	ldr	r3, [r6, #40]	; 0x28
 8000c06:	685b      	ldr	r3, [r3, #4]
  dmaStreamSetMode(i2cp->dmatx, i2cp->txdmamode);
 8000c08:	602f      	str	r7, [r5, #0]
  dmaStreamSetMemory0(i2cp->dmatx, txbuf);
 8000c0a:	60e8      	str	r0, [r5, #12]
  dmaStreamSetTransactionSize(i2cp->dmatx, txbytes);
 8000c0c:	6069      	str	r1, [r5, #4]
  dmaStreamSetMode(i2cp->dmarx, i2cp->rxdmamode);
 8000c0e:	6a31      	ldr	r1, [r6, #32]
 8000c10:	6019      	str	r1, [r3, #0]
  return (systime_t)STM32_ST_TIM->CNT;
 8000c12:	f04f 4180 	mov.w	r1, #1073741824	; 0x40000000
  dmaStreamSetMemory0(i2cp->dmarx, rxbuf);
 8000c16:	60da      	str	r2, [r3, #12]
  dmaStreamSetTransactionSize(i2cp->dmarx, rxbytes);
 8000c18:	605a      	str	r2, [r3, #4]
 8000c1a:	6a4d      	ldr	r5, [r1, #36]	; 0x24
 8000c1c:	2020      	movs	r0, #32
 8000c1e:	f380 8811 	msr	BASEPRI, r0
  while (true) {
    osalSysLock();

    /* If the bus is not busy then the operation can continue, note, the
       loop is exited in the locked state.*/
    if ((dp->ISR & I2C_ISR_BUSY) == 0)
 8000c22:	69a3      	ldr	r3, [r4, #24]
 8000c24:	041f      	lsls	r7, r3, #16
 8000c26:	d407      	bmi.n	8000c38 <i2c_lld_master_transmit_timeout.constprop.0+0x48>
 8000c28:	e00e      	b.n	8000c48 <i2c_lld_master_transmit_timeout.constprop.0+0x58>
 8000c2a:	f382 8811 	msr	BASEPRI, r2
 8000c2e:	f380 8811 	msr	BASEPRI, r0
 8000c32:	69a3      	ldr	r3, [r4, #24]
 8000c34:	041f      	lsls	r7, r3, #16
 8000c36:	d507      	bpl.n	8000c48 <i2c_lld_master_transmit_timeout.constprop.0+0x58>
 8000c38:	6a4b      	ldr	r3, [r1, #36]	; 0x24
 */
static inline bool chTimeIsInRangeX(systime_t time,
                                    systime_t start,
                                    systime_t end) {

  return (bool)((systime_t)((systime_t)time - (systime_t)start) <
 8000c3a:	1b5b      	subs	r3, r3, r5
      break;

    /* If the system time went outside the allowed window then a timeout
       condition is returned.*/
    if (!osalTimeIsInRangeX(osalOsGetSystemTimeX(), start, end)) {
 8000c3c:	f5b3 7ffa 	cmp.w	r3, #500	; 0x1f4
 8000c40:	d3f3      	bcc.n	8000c2a <i2c_lld_master_transmit_timeout.constprop.0+0x3a>
      return MSG_TIMEOUT;
 8000c42:	f04f 30ff 	mov.w	r0, #4294967295	; 0xffffffff
    dmaStreamDisable(i2cp->dmatx);
#endif
  }

  return msg;
}
 8000c46:	bdf8      	pop	{r3, r4, r5, r6, r7, pc}
  if ((i2cp->config->cr2 & I2C_CR2_ADD10) == 0U)
 8000c48:	6873      	ldr	r3, [r6, #4]
  I2C_TypeDef *dp = i2cp->i2c;
 8000c4a:	6b37      	ldr	r7, [r6, #48]	; 0x30
  if ((i2cp->config->cr2 & I2C_CR2_ADD10) == 0U)
 8000c4c:	6898      	ldr	r0, [r3, #8]
 8000c4e:	0503      	lsls	r3, r0, #20
 8000c50:	d54b      	bpl.n	8000cea <i2c_lld_master_transmit_timeout.constprop.0+0xfa>
    dp->CR2 = (uint32_t)addr;
 8000c52:	2330      	movs	r3, #48	; 0x30
 8000c54:	607b      	str	r3, [r7, #4]
  n = i2c_lld_get_txbytes(i2cp);
 8000c56:	6af3      	ldr	r3, [r6, #44]	; 0x2c
  return ch.rlist.current;
 8000c58:	4a26      	ldr	r2, [pc, #152]	; (8000cf4 <i2c_lld_master_transmit_timeout.constprop.0+0x104>)
 8000c5a:	685d      	ldr	r5, [r3, #4]
 8000c5c:	6992      	ldr	r2, [r2, #24]
 8000c5e:	6869      	ldr	r1, [r5, #4]
  dp->CR2 = (dp->CR2 & ~(I2C_CR2_NBYTES | I2C_CR2_RELOAD)) | i2cp->config->cr2 |
 8000c60:	687b      	ldr	r3, [r7, #4]
 8000c62:	f023 73ff 	bic.w	r3, r3, #33423360	; 0x1fe0000
  if (n > 255U) {
 8000c66:	29ff      	cmp	r1, #255	; 0xff
  dp->CR2 = (dp->CR2 & ~(I2C_CR2_NBYTES | I2C_CR2_RELOAD)) | i2cp->config->cr2 |
 8000c68:	f423 3380 	bic.w	r3, r3, #65536	; 0x10000
    reload = 0U;
 8000c6c:	bf94      	ite	ls
 8000c6e:	f04f 0c00 	movls.w	ip, #0
    reload = I2C_CR2_RELOAD;
 8000c72:	f04f 7c80 	movhi.w	ip, #16777216	; 0x1000000
            (n << 16U) | reload;
 8000c76:	ea43 0300 	orr.w	r3, r3, r0
 8000c7a:	bf94      	ite	ls
 8000c7c:	0409      	lslls	r1, r1, #16
 8000c7e:	f44f 017f 	movhi.w	r1, #16711680	; 0xff0000
 8000c82:	ea43 030c 	orr.w	r3, r3, ip
 8000c86:	430b      	orrs	r3, r1
  dp->CR2 = (dp->CR2 & ~(I2C_CR2_NBYTES | I2C_CR2_RELOAD)) | i2cp->config->cr2 |
 8000c88:	607b      	str	r3, [r7, #4]
  dmaStreamEnable(i2cp->dmatx);
 8000c8a:	682b      	ldr	r3, [r5, #0]
 8000c8c:	f043 0301 	orr.w	r3, r3, #1
 8000c90:	602b      	str	r3, [r5, #0]
  dp->CR1 |= I2C_CR1_TCIE;
 8000c92:	6823      	ldr	r3, [r4, #0]
 8000c94:	f043 0340 	orr.w	r3, r3, #64	; 0x40
 8000c98:	6023      	str	r3, [r4, #0]
  dp->CR2 |= I2C_CR2_START;
 8000c9a:	6863      	ldr	r3, [r4, #4]
 8000c9c:	f443 5300 	orr.w	r3, r3, #8192	; 0x2000
 8000ca0:	6063      	str	r3, [r4, #4]
  tp->u.wttrp = trp;
 8000ca2:	4b15      	ldr	r3, [pc, #84]	; (8000cf8 <i2c_lld_master_transmit_timeout.constprop.0+0x108>)
 8000ca4:	6253      	str	r3, [r2, #36]	; 0x24
  return chSchGoSleepTimeoutS(CH_STATE_SUSPENDED, timeout);
 8000ca6:	2150      	movs	r1, #80	; 0x50
 8000ca8:	2003      	movs	r0, #3
  *trp = tp;
 8000caa:	61f2      	str	r2, [r6, #28]
  return chSchGoSleepTimeoutS(CH_STATE_SUSPENDED, timeout);
 8000cac:	f7ff fd48 	bl	8000740 <chSchGoSleepTimeoutS>
  if (msg == MSG_TIMEOUT) {
 8000cb0:	1c43      	adds	r3, r0, #1
 8000cb2:	d1c8      	bne.n	8000c46 <i2c_lld_master_transmit_timeout.constprop.0+0x56>
    dp->CR2 |= I2C_CR2_STOP;
 8000cb4:	6862      	ldr	r2, [r4, #4]
    dmaStreamDisable(i2cp->dmarx);
 8000cb6:	6ab3      	ldr	r3, [r6, #40]	; 0x28
    dp->CR2 |= I2C_CR2_STOP;
 8000cb8:	f442 4280 	orr.w	r2, r2, #16384	; 0x4000
 8000cbc:	6062      	str	r2, [r4, #4]
    dmaStreamDisable(i2cp->dmarx);
 8000cbe:	685c      	ldr	r4, [r3, #4]
    dmaStreamDisable(i2cp->dmatx);
 8000cc0:	6af2      	ldr	r2, [r6, #44]	; 0x2c
    dmaStreamDisable(i2cp->dmarx);
 8000cc2:	6821      	ldr	r1, [r4, #0]
 8000cc4:	f021 010f 	bic.w	r1, r1, #15
 8000cc8:	6021      	str	r1, [r4, #0]
 8000cca:	7b59      	ldrb	r1, [r3, #13]
 8000ccc:	681c      	ldr	r4, [r3, #0]
 8000cce:	230e      	movs	r3, #14
 8000cd0:	fa03 f101 	lsl.w	r1, r3, r1
 8000cd4:	6061      	str	r1, [r4, #4]
    dmaStreamDisable(i2cp->dmatx);
 8000cd6:	6854      	ldr	r4, [r2, #4]
 8000cd8:	6821      	ldr	r1, [r4, #0]
 8000cda:	f021 010f 	bic.w	r1, r1, #15
 8000cde:	6021      	str	r1, [r4, #0]
 8000ce0:	7b51      	ldrb	r1, [r2, #13]
 8000ce2:	6812      	ldr	r2, [r2, #0]
 8000ce4:	408b      	lsls	r3, r1
 8000ce6:	6053      	str	r3, [r2, #4]
}
 8000ce8:	bdf8      	pop	{r3, r4, r5, r6, r7, pc}
    dp->CR2 = (uint32_t)addr << 1U;
 8000cea:	2360      	movs	r3, #96	; 0x60
 8000cec:	607b      	str	r3, [r7, #4]
 8000cee:	e7b2      	b.n	8000c56 <i2c_lld_master_transmit_timeout.constprop.0+0x66>
 8000cf0:	20000800 	.word	0x20000800
 8000cf4:	20000894 	.word	0x20000894
 8000cf8:	2000081c 	.word	0x2000081c
 8000cfc:	00000000 	.word	0x00000000

08000d00 <i2c_lld_master_receive_timeout.constprop.0>:
msg_t i2c_lld_master_receive_timeout(I2CDriver *i2cp, i2caddr_t addr,
 8000d00:	b5f8      	push	{r3, r4, r5, r6, r7, lr}
  I2C_TypeDef *dp = i2cp->i2c;
 8000d02:	4e37      	ldr	r6, [pc, #220]	; (8000de0 <i2c_lld_master_receive_timeout.constprop.0+0xe0>)
  i2cp->errors = I2C_NO_ERROR;
 8000d04:	2200      	movs	r2, #0
  I2C_TypeDef *dp = i2cp->i2c;
 8000d06:	6b34      	ldr	r4, [r6, #48]	; 0x30
  i2cp->errors = I2C_NO_ERROR;
 8000d08:	60b2      	str	r2, [r6, #8]
 8000d0a:	f382 8811 	msr	BASEPRI, r2
  dmaStreamSetMode(i2cp->dmarx, i2cp->rxdmamode);
 8000d0e:	6ab3      	ldr	r3, [r6, #40]	; 0x28
 8000d10:	6a35      	ldr	r5, [r6, #32]
 8000d12:	685b      	ldr	r3, [r3, #4]
 8000d14:	601d      	str	r5, [r3, #0]
  dmaStreamSetMemory0(i2cp->dmarx, rxbuf);
 8000d16:	60d8      	str	r0, [r3, #12]
  dmaStreamSetTransactionSize(i2cp->dmarx, rxbytes);
 8000d18:	6059      	str	r1, [r3, #4]
 8000d1a:	f04f 4180 	mov.w	r1, #1073741824	; 0x40000000
 8000d1e:	2020      	movs	r0, #32
 8000d20:	6a4d      	ldr	r5, [r1, #36]	; 0x24
 8000d22:	f380 8811 	msr	BASEPRI, r0
    if ((dp->ISR & I2C_ISR_BUSY) == 0)
 8000d26:	69a3      	ldr	r3, [r4, #24]
 8000d28:	041f      	lsls	r7, r3, #16
 8000d2a:	d407      	bmi.n	8000d3c <i2c_lld_master_receive_timeout.constprop.0+0x3c>
 8000d2c:	e00e      	b.n	8000d4c <i2c_lld_master_receive_timeout.constprop.0+0x4c>
 8000d2e:	f382 8811 	msr	BASEPRI, r2
 8000d32:	f380 8811 	msr	BASEPRI, r0
 8000d36:	69a3      	ldr	r3, [r4, #24]
 8000d38:	041f      	lsls	r7, r3, #16
 8000d3a:	d507      	bpl.n	8000d4c <i2c_lld_master_receive_timeout.constprop.0+0x4c>
 8000d3c:	6a4b      	ldr	r3, [r1, #36]	; 0x24
 8000d3e:	1b5b      	subs	r3, r3, r5
    if (!osalTimeIsInRangeX(osalOsGetSystemTimeX(), start, end)) {
 8000d40:	f5b3 7ffa 	cmp.w	r3, #500	; 0x1f4
 8000d44:	d3f3      	bcc.n	8000d2e <i2c_lld_master_receive_timeout.constprop.0+0x2e>
      return MSG_TIMEOUT;
 8000d46:	f04f 30ff 	mov.w	r0, #4294967295	; 0xffffffff
}
 8000d4a:	bdf8      	pop	{r3, r4, r5, r6, r7, pc}
  if ((i2cp->config->cr2 & I2C_CR2_ADD10) == 0U)
 8000d4c:	6873      	ldr	r3, [r6, #4]
  I2C_TypeDef *dp = i2cp->i2c;
 8000d4e:	6b37      	ldr	r7, [r6, #48]	; 0x30
  if ((i2cp->config->cr2 & I2C_CR2_ADD10) == 0U)
 8000d50:	6899      	ldr	r1, [r3, #8]
 8000d52:	050b      	lsls	r3, r1, #20
 8000d54:	d540      	bpl.n	8000dd8 <i2c_lld_master_receive_timeout.constprop.0+0xd8>
    dp->CR2 = (uint32_t)addr;
 8000d56:	2330      	movs	r3, #48	; 0x30
 8000d58:	607b      	str	r3, [r7, #4]
  n = i2c_lld_get_rxbytes(i2cp);
 8000d5a:	6ab3      	ldr	r3, [r6, #40]	; 0x28
 8000d5c:	4a21      	ldr	r2, [pc, #132]	; (8000de4 <i2c_lld_master_receive_timeout.constprop.0+0xe4>)
 8000d5e:	685d      	ldr	r5, [r3, #4]
 8000d60:	6992      	ldr	r2, [r2, #24]
 8000d62:	6868      	ldr	r0, [r5, #4]
  if (n > 255U) {
 8000d64:	28ff      	cmp	r0, #255	; 0xff
    reload = 0U;
 8000d66:	bf94      	ite	ls
 8000d68:	2300      	movls	r3, #0
    reload = I2C_CR2_RELOAD;
 8000d6a:	f04f 7380 	movhi.w	r3, #16777216	; 0x1000000
            I2C_CR2_RD_WRN | (n << 16U) | reload;
 8000d6e:	ea41 0103 	orr.w	r1, r1, r3
  dp->CR2 = (dp->CR2 & ~(I2C_CR2_NBYTES | I2C_CR2_RELOAD)) | i2cp->config->cr2 |
 8000d72:	687b      	ldr	r3, [r7, #4]
 8000d74:	f023 73ff 	bic.w	r3, r3, #33423360	; 0x1fe0000
 8000d78:	f423 3380 	bic.w	r3, r3, #65536	; 0x10000
            I2C_CR2_RD_WRN | (n << 16U) | reload;
 8000d7c:	bf94      	ite	ls
 8000d7e:	0400      	lslls	r0, r0, #16
 8000d80:	f44f 007f 	movhi.w	r0, #16711680	; 0xff0000
 8000d84:	430b      	orrs	r3, r1
 8000d86:	4303      	orrs	r3, r0
 8000d88:	f443 6380 	orr.w	r3, r3, #1024	; 0x400
  dp->CR2 = (dp->CR2 & ~(I2C_CR2_NBYTES | I2C_CR2_RELOAD)) | i2cp->config->cr2 |
 8000d8c:	607b      	str	r3, [r7, #4]
  dmaStreamEnable(i2cp->dmarx);
 8000d8e:	682b      	ldr	r3, [r5, #0]
 8000d90:	f043 0301 	orr.w	r3, r3, #1
 8000d94:	602b      	str	r3, [r5, #0]
  dp->CR1 |= I2C_CR1_TCIE;
 8000d96:	6823      	ldr	r3, [r4, #0]
 8000d98:	f043 0340 	orr.w	r3, r3, #64	; 0x40
 8000d9c:	6023      	str	r3, [r4, #0]
  dp->CR2 |= I2C_CR2_START;
 8000d9e:	6863      	ldr	r3, [r4, #4]
 8000da0:	f443 5300 	orr.w	r3, r3, #8192	; 0x2000
 8000da4:	6063      	str	r3, [r4, #4]
  tp->u.wttrp = trp;
 8000da6:	4b10      	ldr	r3, [pc, #64]	; (8000de8 <i2c_lld_master_receive_timeout.constprop.0+0xe8>)
 8000da8:	6253      	str	r3, [r2, #36]	; 0x24
  return chSchGoSleepTimeoutS(CH_STATE_SUSPENDED, timeout);
 8000daa:	2150      	movs	r1, #80	; 0x50
 8000dac:	2003      	movs	r0, #3
  *trp = tp;
 8000dae:	61f2      	str	r2, [r6, #28]
  return chSchGoSleepTimeoutS(CH_STATE_SUSPENDED, timeout);
 8000db0:	f7ff fcc6 	bl	8000740 <chSchGoSleepTimeoutS>
  if (msg == MSG_TIMEOUT) {
 8000db4:	1c43      	adds	r3, r0, #1
 8000db6:	d1c8      	bne.n	8000d4a <i2c_lld_master_receive_timeout.constprop.0+0x4a>
    dmaStreamDisable(i2cp->dmarx);
 8000db8:	6ab3      	ldr	r3, [r6, #40]	; 0x28
    dp->CR2 |= I2C_CR2_STOP;
 8000dba:	6862      	ldr	r2, [r4, #4]
    dmaStreamDisable(i2cp->dmarx);
 8000dbc:	6859      	ldr	r1, [r3, #4]
    dp->CR2 |= I2C_CR2_STOP;
 8000dbe:	f442 4280 	orr.w	r2, r2, #16384	; 0x4000
 8000dc2:	6062      	str	r2, [r4, #4]
    dmaStreamDisable(i2cp->dmarx);
 8000dc4:	680a      	ldr	r2, [r1, #0]
 8000dc6:	681c      	ldr	r4, [r3, #0]
 8000dc8:	f022 020f 	bic.w	r2, r2, #15
 8000dcc:	600a      	str	r2, [r1, #0]
 8000dce:	7b5a      	ldrb	r2, [r3, #13]
 8000dd0:	230e      	movs	r3, #14
 8000dd2:	4093      	lsls	r3, r2
 8000dd4:	6063      	str	r3, [r4, #4]
}
 8000dd6:	bdf8      	pop	{r3, r4, r5, r6, r7, pc}
    dp->CR2 = (uint32_t)addr << 1U;
 8000dd8:	2360      	movs	r3, #96	; 0x60
 8000dda:	607b      	str	r3, [r7, #4]
 8000ddc:	e7bd      	b.n	8000d5a <i2c_lld_master_receive_timeout.constprop.0+0x5a>
 8000dde:	bf00      	nop
 8000de0:	20000800 	.word	0x20000800
 8000de4:	20000894 	.word	0x20000894
 8000de8:	2000081c 	.word	0x2000081c
 8000dec:	00000000 	.word	0x00000000

08000df0 <chSchWakeupS.constprop.0>:
  thread_t *otp = currp;
 8000df0:	4a14      	ldr	r2, [pc, #80]	; (8000e44 <chSchWakeupS.constprop.0+0x54>)
 8000df2:	6991      	ldr	r1, [r2, #24]
void chSchWakeupS(thread_t *ntp, msg_t msg) {
 8000df4:	b430      	push	{r4, r5}
  if (ntp->prio <= otp->prio) {
 8000df6:	688c      	ldr	r4, [r1, #8]
 8000df8:	6885      	ldr	r5, [r0, #8]
  ntp->u.rdymsg = msg;
 8000dfa:	2300      	movs	r3, #0
  if (ntp->prio <= otp->prio) {
 8000dfc:	42a5      	cmp	r5, r4
  ntp->u.rdymsg = msg;
 8000dfe:	6243      	str	r3, [r0, #36]	; 0x24
  if (ntp->prio <= otp->prio) {
 8000e00:	d912      	bls.n	8000e28 <chSchWakeupS.constprop.0+0x38>
  tp->state = CH_STATE_READY;
 8000e02:	f881 3020 	strb.w	r3, [r1, #32]
  cp = (thread_t *)&ch.rlist.queue;
 8000e06:	4613      	mov	r3, r2
    cp = cp->queue.next;
 8000e08:	681b      	ldr	r3, [r3, #0]
  } while (cp->prio > tp->prio);
 8000e0a:	689d      	ldr	r5, [r3, #8]
 8000e0c:	42ac      	cmp	r4, r5
 8000e0e:	d3fb      	bcc.n	8000e08 <chSchWakeupS.constprop.0+0x18>
  tp->queue.prev             = cp->queue.prev;
 8000e10:	685c      	ldr	r4, [r3, #4]
 8000e12:	e9c1 3400 	strd	r3, r4, [r1]
  tp->queue.prev->queue.next = tp;
 8000e16:	6021      	str	r1, [r4, #0]
    ntp->state = CH_STATE_CURRENT;
 8000e18:	2401      	movs	r4, #1
  cp->queue.prev             = tp;
 8000e1a:	6059      	str	r1, [r3, #4]
    ntp->state = CH_STATE_CURRENT;
 8000e1c:	f880 4020 	strb.w	r4, [r0, #32]
}
 8000e20:	bc30      	pop	{r4, r5}
    currp = ntp;
 8000e22:	6190      	str	r0, [r2, #24]
    chSysSwitch(ntp, otp);
 8000e24:	f7ff ba2c 	b.w	8000280 <_port_switch>
  tp->state = CH_STATE_READY;
 8000e28:	f880 3020 	strb.w	r3, [r0, #32]
  cp = (thread_t *)&ch.rlist.queue;
 8000e2c:	4613      	mov	r3, r2
    cp = cp->queue.next;
 8000e2e:	681b      	ldr	r3, [r3, #0]
  } while (cp->prio >= tp->prio);
 8000e30:	689a      	ldr	r2, [r3, #8]
 8000e32:	4295      	cmp	r5, r2
 8000e34:	d9fb      	bls.n	8000e2e <chSchWakeupS.constprop.0+0x3e>
  tp->queue.prev             = cp->queue.prev;
 8000e36:	685a      	ldr	r2, [r3, #4]
}
 8000e38:	bc30      	pop	{r4, r5}
  tp->queue.prev             = cp->queue.prev;
 8000e3a:	e9c0 3200 	strd	r3, r2, [r0]
  tp->queue.prev->queue.next = tp;
 8000e3e:	6010      	str	r0, [r2, #0]
  cp->queue.prev             = tp;
 8000e40:	6058      	str	r0, [r3, #4]
}
 8000e42:	4770      	bx	lr
 8000e44:	20000894 	.word	0x20000894
	...

08000e50 <chThdCreateStatic.constprop.0.isra.0>:
thread_t *chThdCreateStatic(void *wsp, size_t size,
 8000e50:	b538      	push	{r3, r4, r5, lr}
 8000e52:	4603      	mov	r3, r0
 8000e54:	2020      	movs	r0, #32
 8000e56:	f380 8811 	msr	BASEPRI, r0
  tp = (thread_t *)((uint8_t *)wsp + size -
 8000e5a:	3948      	subs	r1, #72	; 0x48
 8000e5c:	1858      	adds	r0, r3, r1
  PORT_SETUP_CONTEXT(tp, wsp, tp, pf, arg);
 8000e5e:	f1a0 0124 	sub.w	r1, r0, #36	; 0x24
  tp->wabase = (stkalign_t *)wsp;
 8000e62:	61c3      	str	r3, [r0, #28]
  PORT_SETUP_CONTEXT(tp, wsp, tp, pf, arg);
 8000e64:	2400      	movs	r4, #0
  REG_INSERT(tp);
 8000e66:	4b12      	ldr	r3, [pc, #72]	; (8000eb0 <chThdCreateStatic.constprop.0.isra.0+0x60>)
  PORT_SETUP_CONTEXT(tp, wsp, tp, pf, arg);
 8000e68:	60c1      	str	r1, [r0, #12]
 8000e6a:	e940 2409 	strd	r2, r4, [r0, #-36]	; 0x24
  tp->prio      = prio;
 8000e6e:	2180      	movs	r1, #128	; 0x80
  tp->name      = name;
 8000e70:	4a10      	ldr	r2, [pc, #64]	; (8000eb4 <chThdCreateStatic.constprop.0.isra.0+0x64>)
  tp->prio      = prio;
 8000e72:	6081      	str	r1, [r0, #8]
  tp->realprio  = prio;
 8000e74:	63c1      	str	r1, [r0, #60]	; 0x3c
  tp->name      = name;
 8000e76:	6182      	str	r2, [r0, #24]
  REG_INSERT(tp);
 8000e78:	6959      	ldr	r1, [r3, #20]
  PORT_SETUP_CONTEXT(tp, wsp, tp, pf, arg);
 8000e7a:	4d0f      	ldr	r5, [pc, #60]	; (8000eb8 <chThdCreateStatic.constprop.0.isra.0+0x68>)
 8000e7c:	f840 5c04 	str.w	r5, [r0, #-4]
  tp->state     = CH_STATE_WTSTART;
 8000e80:	2202      	movs	r2, #2
 8000e82:	8402      	strh	r2, [r0, #32]
  list_init(&tp->waiting);
 8000e84:	f100 0528 	add.w	r5, r0, #40	; 0x28
  queue_init(&tp->msgqueue);
 8000e88:	f100 022c 	add.w	r2, r0, #44	; 0x2c
  tp->refs      = (trefs_t)1;
 8000e8c:	f04f 0c01 	mov.w	ip, #1
  REG_INSERT(tp);
 8000e90:	e9c0 3104 	strd	r3, r1, [r0, #16]
  tp->epending  = (eventmask_t)0;
 8000e94:	e9c0 440d 	strd	r4, r4, [r0, #52]	; 0x34
  tp->refs      = (trefs_t)1;
 8000e98:	f880 c022 	strb.w	ip, [r0, #34]	; 0x22
  REG_INSERT(tp);
 8000e9c:	6108      	str	r0, [r1, #16]
  tqp->next = (thread_t *)tqp;
 8000e9e:	e9c0 520a 	strd	r5, r2, [r0, #40]	; 0x28
  tqp->prev = (thread_t *)tqp;
 8000ea2:	6302      	str	r2, [r0, #48]	; 0x30
 8000ea4:	6158      	str	r0, [r3, #20]
  chSchWakeupS(tp, MSG_OK);
 8000ea6:	f7ff ffa3 	bl	8000df0 <chSchWakeupS.constprop.0>
 8000eaa:	f384 8811 	msr	BASEPRI, r4
}
 8000eae:	bd38      	pop	{r3, r4, r5, pc}
 8000eb0:	20000894 	.word	0x20000894
 8000eb4:	080028bc 	.word	0x080028bc
 8000eb8:	08000291 	.word	0x08000291
 8000ebc:	00000000 	.word	0x00000000

08000ec0 <dmaStreamAllocI.part.0.constprop.0>:
 *                      structure.
 * @retval NULL         if a/the stream is not available.
 *
 * @iclass
 */
const stm32_dma_stream_t *dmaStreamAllocI(uint32_t id,
 8000ec0:	b4f0      	push	{r4, r5, r6, r7}
    return NULL;
  }

  for (i = startid; i <= endid; i++) {
    uint32_t mask = (1U << i);
    if ((dma.allocated_mask & mask) == 0U) {
 8000ec2:	4c15      	ldr	r4, [pc, #84]	; (8000f18 <dmaStreamAllocI.part.0.constprop.0+0x58>)
    uint32_t mask = (1U << i);
 8000ec4:	2301      	movs	r3, #1
    if ((dma.allocated_mask & mask) == 0U) {
 8000ec6:	6821      	ldr	r1, [r4, #0]
    uint32_t mask = (1U << i);
 8000ec8:	4083      	lsls	r3, r0
    if ((dma.allocated_mask & mask) == 0U) {
 8000eca:	ea13 0501 	ands.w	r5, r3, r1

      return dmastp;
    }
  }

  return NULL;
 8000ece:	bf18      	it	ne
 8000ed0:	2000      	movne	r0, #0
    if ((dma.allocated_mask & mask) == 0U) {
 8000ed2:	d001      	beq.n	8000ed8 <dmaStreamAllocI.part.0.constprop.0+0x18>
}
 8000ed4:	bcf0      	pop	{r4, r5, r6, r7}
 8000ed6:	4770      	bx	lr
 8000ed8:	4602      	mov	r2, r0
      dma.allocated_mask  |= mask;
 8000eda:	430b      	orrs	r3, r1
      const stm32_dma_stream_t *dmastp = STM32_DMA_STREAM(i);
 8000edc:	4f0f      	ldr	r7, [pc, #60]	; (8000f1c <dmaStreamAllocI.part.0.constprop.0+0x5c>)
        rccEnableDMA1(true);
 8000ede:	4910      	ldr	r1, [pc, #64]	; (8000f20 <dmaStreamAllocI.part.0.constprop.0+0x60>)
      dma.allocated_mask  |= mask;
 8000ee0:	6023      	str	r3, [r4, #0]
      dma.streams[i].func  = func;
 8000ee2:	1c53      	adds	r3, r2, #1
        rccEnableDMA1(true);
 8000ee4:	694e      	ldr	r6, [r1, #20]
      dma.streams[i].func  = func;
 8000ee6:	f844 5033 	str.w	r5, [r4, r3, lsl #3]
      const stm32_dma_stream_t *dmastp = STM32_DMA_STREAM(i);
 8000eea:	eb07 1000 	add.w	r0, r7, r0, lsl #4
 8000eee:	0112      	lsls	r2, r2, #4
      dma.streams[i].param = param;
 8000ef0:	eb04 04c3 	add.w	r4, r4, r3, lsl #3
      dmaStreamDisable(dmastp);
 8000ef4:	58bf      	ldr	r7, [r7, r2]
 8000ef6:	6843      	ldr	r3, [r0, #4]
      dma.streams[i].param = param;
 8000ef8:	4a0a      	ldr	r2, [pc, #40]	; (8000f24 <dmaStreamAllocI.part.0.constprop.0+0x64>)
 8000efa:	6062      	str	r2, [r4, #4]
        rccEnableDMA1(true);
 8000efc:	f046 0601 	orr.w	r6, r6, #1
 8000f00:	614e      	str	r6, [r1, #20]
 8000f02:	694a      	ldr	r2, [r1, #20]
      dmaStreamDisable(dmastp);
 8000f04:	681a      	ldr	r2, [r3, #0]
 8000f06:	7b41      	ldrb	r1, [r0, #13]
 8000f08:	f022 020f 	bic.w	r2, r2, #15
 8000f0c:	601a      	str	r2, [r3, #0]
 8000f0e:	220e      	movs	r2, #14
 8000f10:	408a      	lsls	r2, r1
 8000f12:	607a      	str	r2, [r7, #4]
      dmastp->channel->CCR = STM32_DMA_CCR_RESET_VALUE;
 8000f14:	601d      	str	r5, [r3, #0]
      return dmastp;
 8000f16:	e7dd      	b.n	8000ed4 <dmaStreamAllocI.part.0.constprop.0+0x14>
 8000f18:	20000a54 	.word	0x20000a54
 8000f1c:	080028d8 	.word	0x080028d8
 8000f20:	40021000 	.word	0x40021000
 8000f24:	20000800 	.word	0x20000800
	...

08000f30 <__core_init>:

#if CORTEX_MODEL == 7
  SCB_EnableICache();
  SCB_EnableDCache();
#endif
}
 8000f30:	4770      	bx	lr
 8000f32:	bf00      	nop
	...

08000f40 <__late_init>:
 8000f40:	4770      	bx	lr
 8000f42:	bf00      	nop
	...

08000f50 <__default_exit>:
#endif
/*lint -save -e9075 [8.4] All symbols are invoked from asm context.*/
void __default_exit(void) {
/*lint -restore*/

  while (true) {
 8000f50:	e7fe      	b.n	8000f50 <__default_exit>
 8000f52:	bf00      	nop
	...

08000f60 <__init_ram_areas>:
}

/**
 * @brief   Performs the initialization of the various RAM areas.
 */
void __init_ram_areas(void) {
 8000f60:	b5f8      	push	{r3, r4, r5, r6, r7, lr}
 8000f62:	4d15      	ldr	r5, [pc, #84]	; (8000fb8 <__init_ram_areas+0x58>)
 8000f64:	4f15      	ldr	r7, [pc, #84]	; (8000fbc <__init_ram_areas+0x5c>)
 8000f66:	4916      	ldr	r1, [pc, #88]	; (8000fc0 <__init_ram_areas+0x60>)
 8000f68:	4816      	ldr	r0, [pc, #88]	; (8000fc4 <__init_ram_areas+0x64>)
 8000f6a:	4a17      	ldr	r2, [pc, #92]	; (8000fc8 <__init_ram_areas+0x68>)
 8000f6c:	f105 0470 	add.w	r4, r5, #112	; 0x70
  do {
    uint32_t *tp = rap->init_text_area;
    uint32_t *p = rap->init_area;

    /* Copying initialization data.*/
    while (p < rap->clear_area) {
 8000f70:	4281      	cmp	r1, r0
 8000f72:	d90d      	bls.n	8000f90 <__init_ram_areas+0x30>
 8000f74:	3a04      	subs	r2, #4
 8000f76:	4603      	mov	r3, r0
      *p = *tp;
 8000f78:	f852 6f04 	ldr.w	r6, [r2, #4]!
 8000f7c:	f843 6b04 	str.w	r6, [r3], #4
    while (p < rap->clear_area) {
 8000f80:	4299      	cmp	r1, r3
 8000f82:	d8f9      	bhi.n	8000f78 <__init_ram_areas+0x18>
      p++;
 8000f84:	1e4b      	subs	r3, r1, #1
 8000f86:	1a1b      	subs	r3, r3, r0
 8000f88:	f023 0303 	bic.w	r3, r3, #3
 8000f8c:	3304      	adds	r3, #4
 8000f8e:	4418      	add	r0, r3
      tp++;
    }

    /* Zeroing clear area.*/
    while (p < rap->no_init_area) {
 8000f90:	4287      	cmp	r7, r0
 8000f92:	d907      	bls.n	8000fa4 <__init_ram_areas+0x44>
      *p = 0;
 8000f94:	1e7a      	subs	r2, r7, #1
 8000f96:	1a12      	subs	r2, r2, r0
 8000f98:	f022 0203 	bic.w	r2, r2, #3
 8000f9c:	3204      	adds	r2, #4
 8000f9e:	2100      	movs	r1, #0
 8000fa0:	f001 fc3a 	bl	8002818 <memset>
      p++;
    }
    rap++;
  }
  while (rap < &ram_areas[CRT1_AREAS_NUMBER]);
 8000fa4:	42a5      	cmp	r5, r4
 8000fa6:	d005      	beq.n	8000fb4 <__init_ram_areas+0x54>
    uint32_t *p = rap->init_area;
 8000fa8:	e9d5 2004 	ldrd	r2, r0, [r5, #16]
    while (p < rap->no_init_area) {
 8000fac:	e9d5 1706 	ldrd	r1, r7, [r5, #24]
 8000fb0:	3510      	adds	r5, #16
 8000fb2:	e7dd      	b.n	8000f70 <__init_ram_areas+0x10>
#endif
}
 8000fb4:	bdf8      	pop	{r3, r4, r5, r6, r7, pc}
 8000fb6:	bf00      	nop
 8000fb8:	080029bc 	.word	0x080029bc
 8000fbc:	20001100 	.word	0x20001100
 8000fc0:	20001100 	.word	0x20001100
 8000fc4:	20001100 	.word	0x20001100
 8000fc8:	08002a64 	.word	0x08002a64
 8000fcc:	00000000 	.word	0x00000000

08000fd0 <Vector6C>:
OSAL_IRQ_HANDLER(STM32_DMA1_CH1_HANDLER) {
 8000fd0:	b508      	push	{r3, lr}
 */
void dmaServeInterrupt(const stm32_dma_stream_t *dmastp) {
  uint32_t flags;
  uint32_t selfindex = (uint32_t)dmastp->selfindex;

  flags = (dmastp->dma->ISR >> dmastp->shift) & STM32_DMA_ISR_MASK;
 8000fd2:	4b15      	ldr	r3, [pc, #84]	; (8001028 <Vector6C+0x58>)
 8000fd4:	6819      	ldr	r1, [r3, #0]
  if (flags & dmastp->channel->CCR) {
 8000fd6:	689a      	ldr	r2, [r3, #8]
  flags = (dmastp->dma->ISR >> dmastp->shift) & STM32_DMA_ISR_MASK;
 8000fd8:	f001 010e 	and.w	r1, r1, #14
  if (flags & dmastp->channel->CCR) {
 8000fdc:	4211      	tst	r1, r2
 8000fde:	d005      	beq.n	8000fec <Vector6C+0x1c>
    dmastp->dma->IFCR = flags << dmastp->shift;
    if (dma.streams[selfindex].func) {
 8000fe0:	4a12      	ldr	r2, [pc, #72]	; (800102c <Vector6C+0x5c>)
    dmastp->dma->IFCR = flags << dmastp->shift;
 8000fe2:	6059      	str	r1, [r3, #4]
    if (dma.streams[selfindex].func) {
 8000fe4:	6893      	ldr	r3, [r2, #8]
 8000fe6:	b10b      	cbz	r3, 8000fec <Vector6C+0x1c>
      dma.streams[selfindex].func(dma.streams[selfindex].param, flags);
 8000fe8:	68d0      	ldr	r0, [r2, #12]
 8000fea:	4798      	blx	r3
 8000fec:	2320      	movs	r3, #32
 8000fee:	f383 8811 	msr	BASEPRI, r3
  if ((SCB->ICSR & SCB_ICSR_RETTOBASE_Msk) != 0U) {
 8000ff2:	4b0f      	ldr	r3, [pc, #60]	; (8001030 <Vector6C+0x60>)
 8000ff4:	685b      	ldr	r3, [r3, #4]
 8000ff6:	f413 6300 	ands.w	r3, r3, #2048	; 0x800
 8000ffa:	d102      	bne.n	8001002 <Vector6C+0x32>
 8000ffc:	f383 8811 	msr	BASEPRI, r3
}
 8001000:	bd08      	pop	{r3, pc}
  __ASM volatile ("MRS %0, psp"  : "=r" (result) );
 8001002:	f3ef 8309 	mrs	r3, PSP
    s_psp -= sizeof (struct port_extctx);
 8001006:	3b20      	subs	r3, #32
    ectxp->xpsr = 0x01000000U;
 8001008:	f04f 7280 	mov.w	r2, #16777216	; 0x1000000
 800100c:	61da      	str	r2, [r3, #28]
  __ASM volatile ("MSR psp, %0" : : "r" (topOfProcStack) : );
 800100e:	f383 8809 	msr	PSP, r3
  tprio_t p1 = firstprio(&ch.rlist.queue);
 8001012:	4a08      	ldr	r2, [pc, #32]	; (8001034 <Vector6C+0x64>)
 8001014:	6811      	ldr	r1, [r2, #0]
  tprio_t p2 = currp->prio;
 8001016:	6992      	ldr	r2, [r2, #24]
    if (chSchIsPreemptionRequired()) {
 8001018:	6889      	ldr	r1, [r1, #8]
 800101a:	6892      	ldr	r2, [r2, #8]
 800101c:	4291      	cmp	r1, r2
      ectxp->pc = (uint32_t)_port_switch_from_isr;
 800101e:	bf8c      	ite	hi
 8001020:	4a05      	ldrhi	r2, [pc, #20]	; (8001038 <Vector6C+0x68>)
      ectxp->pc = (uint32_t)_port_exit_from_isr;
 8001022:	4a06      	ldrls	r2, [pc, #24]	; (800103c <Vector6C+0x6c>)
 8001024:	619a      	str	r2, [r3, #24]
 8001026:	bd08      	pop	{r3, pc}
 8001028:	40020000 	.word	0x40020000
 800102c:	20000a54 	.word	0x20000a54
 8001030:	e000ed00 	.word	0xe000ed00
 8001034:	20000894 	.word	0x20000894
 8001038:	080002a3 	.word	0x080002a3
 800103c:	080002a6 	.word	0x080002a6

08001040 <Vector70>:
  flags = (dmastp->dma->ISR >> dmastp->shift) & STM32_DMA_ISR_MASK;
 8001040:	4b16      	ldr	r3, [pc, #88]	; (800109c <Vector70+0x5c>)
 8001042:	6819      	ldr	r1, [r3, #0]
  if (flags & dmastp->channel->CCR) {
 8001044:	69da      	ldr	r2, [r3, #28]
  flags = (dmastp->dma->ISR >> dmastp->shift) & STM32_DMA_ISR_MASK;
 8001046:	0909      	lsrs	r1, r1, #4
 8001048:	f001 010e 	and.w	r1, r1, #14
  if (flags & dmastp->channel->CCR) {
 800104c:	4211      	tst	r1, r2
OSAL_IRQ_HANDLER(STM32_DMA1_CH2_HANDLER) {
 800104e:	b510      	push	{r4, lr}
  if (flags & dmastp->channel->CCR) {
 8001050:	d006      	beq.n	8001060 <Vector70+0x20>
    if (dma.streams[selfindex].func) {
 8001052:	4813      	ldr	r0, [pc, #76]	; (80010a0 <Vector70+0x60>)
 8001054:	6904      	ldr	r4, [r0, #16]
    dmastp->dma->IFCR = flags << dmastp->shift;
 8001056:	010a      	lsls	r2, r1, #4
 8001058:	605a      	str	r2, [r3, #4]
    if (dma.streams[selfindex].func) {
 800105a:	b10c      	cbz	r4, 8001060 <Vector70+0x20>
      dma.streams[selfindex].func(dma.streams[selfindex].param, flags);
 800105c:	6940      	ldr	r0, [r0, #20]
 800105e:	47a0      	blx	r4
  __ASM volatile ("MSR basepri, %0" : : "r" (basePri) : "memory");
 8001060:	2320      	movs	r3, #32
 8001062:	f383 8811 	msr	BASEPRI, r3
  if ((SCB->ICSR & SCB_ICSR_RETTOBASE_Msk) != 0U) {
 8001066:	4b0f      	ldr	r3, [pc, #60]	; (80010a4 <Vector70+0x64>)
 8001068:	685b      	ldr	r3, [r3, #4]
 800106a:	f413 6300 	ands.w	r3, r3, #2048	; 0x800
 800106e:	d102      	bne.n	8001076 <Vector70+0x36>
 8001070:	f383 8811 	msr	BASEPRI, r3
}
 8001074:	bd10      	pop	{r4, pc}
  __ASM volatile ("MRS %0, psp"  : "=r" (result) );
 8001076:	f3ef 8309 	mrs	r3, PSP
    s_psp -= sizeof (struct port_extctx);
 800107a:	3b20      	subs	r3, #32
    ectxp->xpsr = 0x01000000U;
 800107c:	f04f 7280 	mov.w	r2, #16777216	; 0x1000000
 8001080:	61da      	str	r2, [r3, #28]
  __ASM volatile ("MSR psp, %0" : : "r" (topOfProcStack) : );
 8001082:	f383 8809 	msr	PSP, r3
  tprio_t p1 = firstprio(&ch.rlist.queue);
 8001086:	4a08      	ldr	r2, [pc, #32]	; (80010a8 <Vector70+0x68>)
 8001088:	6811      	ldr	r1, [r2, #0]
  tprio_t p2 = currp->prio;
 800108a:	6992      	ldr	r2, [r2, #24]
    if (chSchIsPreemptionRequired()) {
 800108c:	6889      	ldr	r1, [r1, #8]
 800108e:	6892      	ldr	r2, [r2, #8]
 8001090:	4291      	cmp	r1, r2
      ectxp->pc = (uint32_t)_port_switch_from_isr;
 8001092:	bf8c      	ite	hi
 8001094:	4a05      	ldrhi	r2, [pc, #20]	; (80010ac <Vector70+0x6c>)
      ectxp->pc = (uint32_t)_port_exit_from_isr;
 8001096:	4a06      	ldrls	r2, [pc, #24]	; (80010b0 <Vector70+0x70>)
 8001098:	619a      	str	r2, [r3, #24]
 800109a:	bd10      	pop	{r4, pc}
 800109c:	40020000 	.word	0x40020000
 80010a0:	20000a54 	.word	0x20000a54
 80010a4:	e000ed00 	.word	0xe000ed00
 80010a8:	20000894 	.word	0x20000894
 80010ac:	080002a3 	.word	0x080002a3
 80010b0:	080002a6 	.word	0x080002a6
	...

080010c0 <Vector74>:
  flags = (dmastp->dma->ISR >> dmastp->shift) & STM32_DMA_ISR_MASK;
 80010c0:	4b16      	ldr	r3, [pc, #88]	; (800111c <Vector74+0x5c>)
 80010c2:	6819      	ldr	r1, [r3, #0]
  if (flags & dmastp->channel->CCR) {
 80010c4:	6b1a      	ldr	r2, [r3, #48]	; 0x30
  flags = (dmastp->dma->ISR >> dmastp->shift) & STM32_DMA_ISR_MASK;
 80010c6:	0a09      	lsrs	r1, r1, #8
 80010c8:	f001 010e 	and.w	r1, r1, #14
  if (flags & dmastp->channel->CCR) {
 80010cc:	4211      	tst	r1, r2
OSAL_IRQ_HANDLER(STM32_DMA1_CH3_HANDLER) {
 80010ce:	b510      	push	{r4, lr}
  if (flags & dmastp->channel->CCR) {
 80010d0:	d006      	beq.n	80010e0 <Vector74+0x20>
    if (dma.streams[selfindex].func) {
 80010d2:	4813      	ldr	r0, [pc, #76]	; (8001120 <Vector74+0x60>)
 80010d4:	6984      	ldr	r4, [r0, #24]
    dmastp->dma->IFCR = flags << dmastp->shift;
 80010d6:	020a      	lsls	r2, r1, #8
 80010d8:	605a      	str	r2, [r3, #4]
    if (dma.streams[selfindex].func) {
 80010da:	b10c      	cbz	r4, 80010e0 <Vector74+0x20>
      dma.streams[selfindex].func(dma.streams[selfindex].param, flags);
 80010dc:	69c0      	ldr	r0, [r0, #28]
 80010de:	47a0      	blx	r4
  __ASM volatile ("MSR basepri, %0" : : "r" (basePri) : "memory");
 80010e0:	2320      	movs	r3, #32
 80010e2:	f383 8811 	msr	BASEPRI, r3
  if ((SCB->ICSR & SCB_ICSR_RETTOBASE_Msk) != 0U) {
 80010e6:	4b0f      	ldr	r3, [pc, #60]	; (8001124 <Vector74+0x64>)
 80010e8:	685b      	ldr	r3, [r3, #4]
 80010ea:	f413 6300 	ands.w	r3, r3, #2048	; 0x800
 80010ee:	d102      	bne.n	80010f6 <Vector74+0x36>
 80010f0:	f383 8811 	msr	BASEPRI, r3
}
 80010f4:	bd10      	pop	{r4, pc}
  __ASM volatile ("MRS %0, psp"  : "=r" (result) );
 80010f6:	f3ef 8309 	mrs	r3, PSP
    s_psp -= sizeof (struct port_extctx);
 80010fa:	3b20      	subs	r3, #32
    ectxp->xpsr = 0x01000000U;
 80010fc:	f04f 7280 	mov.w	r2, #16777216	; 0x1000000
 8001100:	61da      	str	r2, [r3, #28]
  __ASM volatile ("MSR psp, %0" : : "r" (topOfProcStack) : );
 8001102:	f383 8809 	msr	PSP, r3
  tprio_t p1 = firstprio(&ch.rlist.queue);
 8001106:	4a08      	ldr	r2, [pc, #32]	; (8001128 <Vector74+0x68>)
 8001108:	6811      	ldr	r1, [r2, #0]
  tprio_t p2 = currp->prio;
 800110a:	6992      	ldr	r2, [r2, #24]
    if (chSchIsPreemptionRequired()) {
 800110c:	6889      	ldr	r1, [r1, #8]
 800110e:	6892      	ldr	r2, [r2, #8]
 8001110:	4291      	cmp	r1, r2
      ectxp->pc = (uint32_t)_port_switch_from_isr;
 8001112:	bf8c      	ite	hi
 8001114:	4a05      	ldrhi	r2, [pc, #20]	; (800112c <Vector74+0x6c>)
      ectxp->pc = (uint32_t)_port_exit_from_isr;
 8001116:	4a06      	ldrls	r2, [pc, #24]	; (8001130 <Vector74+0x70>)
 8001118:	619a      	str	r2, [r3, #24]
 800111a:	bd10      	pop	{r4, pc}
 800111c:	40020000 	.word	0x40020000
 8001120:	20000a54 	.word	0x20000a54
 8001124:	e000ed00 	.word	0xe000ed00
 8001128:	20000894 	.word	0x20000894
 800112c:	080002a3 	.word	0x080002a3
 8001130:	080002a6 	.word	0x080002a6
	...

08001140 <Vector78>:
  flags = (dmastp->dma->ISR >> dmastp->shift) & STM32_DMA_ISR_MASK;
 8001140:	4b16      	ldr	r3, [pc, #88]	; (800119c <Vector78+0x5c>)
 8001142:	6819      	ldr	r1, [r3, #0]
  if (flags & dmastp->channel->CCR) {
 8001144:	6c5a      	ldr	r2, [r3, #68]	; 0x44
  flags = (dmastp->dma->ISR >> dmastp->shift) & STM32_DMA_ISR_MASK;
 8001146:	0b09      	lsrs	r1, r1, #12
 8001148:	f001 010e 	and.w	r1, r1, #14
  if (flags & dmastp->channel->CCR) {
 800114c:	4211      	tst	r1, r2
OSAL_IRQ_HANDLER(STM32_DMA1_CH4_HANDLER) {
 800114e:	b510      	push	{r4, lr}
  if (flags & dmastp->channel->CCR) {
 8001150:	d006      	beq.n	8001160 <Vector78+0x20>
    if (dma.streams[selfindex].func) {
 8001152:	4813      	ldr	r0, [pc, #76]	; (80011a0 <Vector78+0x60>)
 8001154:	6a04      	ldr	r4, [r0, #32]
    dmastp->dma->IFCR = flags << dmastp->shift;
 8001156:	030a      	lsls	r2, r1, #12
 8001158:	605a      	str	r2, [r3, #4]
    if (dma.streams[selfindex].func) {
 800115a:	b10c      	cbz	r4, 8001160 <Vector78+0x20>
      dma.streams[selfindex].func(dma.streams[selfindex].param, flags);
 800115c:	6a40      	ldr	r0, [r0, #36]	; 0x24
 800115e:	47a0      	blx	r4
  __ASM volatile ("MSR basepri, %0" : : "r" (basePri) : "memory");
 8001160:	2320      	movs	r3, #32
 8001162:	f383 8811 	msr	BASEPRI, r3
  if ((SCB->ICSR & SCB_ICSR_RETTOBASE_Msk) != 0U) {
 8001166:	4b0f      	ldr	r3, [pc, #60]	; (80011a4 <Vector78+0x64>)
 8001168:	685b      	ldr	r3, [r3, #4]
 800116a:	f413 6300 	ands.w	r3, r3, #2048	; 0x800
 800116e:	d102      	bne.n	8001176 <Vector78+0x36>
 8001170:	f383 8811 	msr	BASEPRI, r3
}
 8001174:	bd10      	pop	{r4, pc}
  __ASM volatile ("MRS %0, psp"  : "=r" (result) );
 8001176:	f3ef 8309 	mrs	r3, PSP
    s_psp -= sizeof (struct port_extctx);
 800117a:	3b20      	subs	r3, #32
    ectxp->xpsr = 0x01000000U;
 800117c:	f04f 7280 	mov.w	r2, #16777216	; 0x1000000
 8001180:	61da      	str	r2, [r3, #28]
  __ASM volatile ("MSR psp, %0" : : "r" (topOfProcStack) : );
 8001182:	f383 8809 	msr	PSP, r3
  tprio_t p1 = firstprio(&ch.rlist.queue);
 8001186:	4a08      	ldr	r2, [pc, #32]	; (80011a8 <Vector78+0x68>)
 8001188:	6811      	ldr	r1, [r2, #0]
  tprio_t p2 = currp->prio;
 800118a:	6992      	ldr	r2, [r2, #24]
    if (chSchIsPreemptionRequired()) {
 800118c:	6889      	ldr	r1, [r1, #8]
 800118e:	6892      	ldr	r2, [r2, #8]
 8001190:	4291      	cmp	r1, r2
      ectxp->pc = (uint32_t)_port_switch_from_isr;
 8001192:	bf8c      	ite	hi
 8001194:	4a05      	ldrhi	r2, [pc, #20]	; (80011ac <Vector78+0x6c>)
      ectxp->pc = (uint32_t)_port_exit_from_isr;
 8001196:	4a06      	ldrls	r2, [pc, #24]	; (80011b0 <Vector78+0x70>)
 8001198:	619a      	str	r2, [r3, #24]
 800119a:	bd10      	pop	{r4, pc}
 800119c:	40020000 	.word	0x40020000
 80011a0:	20000a54 	.word	0x20000a54
 80011a4:	e000ed00 	.word	0xe000ed00
 80011a8:	20000894 	.word	0x20000894
 80011ac:	080002a3 	.word	0x080002a3
 80011b0:	080002a6 	.word	0x080002a6
	...

080011c0 <Vector7C>:
  flags = (dmastp->dma->ISR >> dmastp->shift) & STM32_DMA_ISR_MASK;
 80011c0:	4b16      	ldr	r3, [pc, #88]	; (800121c <Vector7C+0x5c>)
 80011c2:	6819      	ldr	r1, [r3, #0]
  if (flags & dmastp->channel->CCR) {
 80011c4:	6d9a      	ldr	r2, [r3, #88]	; 0x58
  flags = (dmastp->dma->ISR >> dmastp->shift) & STM32_DMA_ISR_MASK;
 80011c6:	0c09      	lsrs	r1, r1, #16
 80011c8:	f001 010e 	and.w	r1, r1, #14
  if (flags & dmastp->channel->CCR) {
 80011cc:	4211      	tst	r1, r2
OSAL_IRQ_HANDLER(STM32_DMA1_CH5_HANDLER) {
 80011ce:	b510      	push	{r4, lr}
  if (flags & dmastp->channel->CCR) {
 80011d0:	d006      	beq.n	80011e0 <Vector7C+0x20>
    if (dma.streams[selfindex].func) {
 80011d2:	4813      	ldr	r0, [pc, #76]	; (8001220 <Vector7C+0x60>)
 80011d4:	6a84      	ldr	r4, [r0, #40]	; 0x28
    dmastp->dma->IFCR = flags << dmastp->shift;
 80011d6:	040a      	lsls	r2, r1, #16
 80011d8:	605a      	str	r2, [r3, #4]
    if (dma.streams[selfindex].func) {
 80011da:	b10c      	cbz	r4, 80011e0 <Vector7C+0x20>
      dma.streams[selfindex].func(dma.streams[selfindex].param, flags);
 80011dc:	6ac0      	ldr	r0, [r0, #44]	; 0x2c
 80011de:	47a0      	blx	r4
  __ASM volatile ("MSR basepri, %0" : : "r" (basePri) : "memory");
 80011e0:	2320      	movs	r3, #32
 80011e2:	f383 8811 	msr	BASEPRI, r3
  if ((SCB->ICSR & SCB_ICSR_RETTOBASE_Msk) != 0U) {
 80011e6:	4b0f      	ldr	r3, [pc, #60]	; (8001224 <Vector7C+0x64>)
 80011e8:	685b      	ldr	r3, [r3, #4]
 80011ea:	f413 6300 	ands.w	r3, r3, #2048	; 0x800
 80011ee:	d102      	bne.n	80011f6 <Vector7C+0x36>
 80011f0:	f383 8811 	msr	BASEPRI, r3
}
 80011f4:	bd10      	pop	{r4, pc}
  __ASM volatile ("MRS %0, psp"  : "=r" (result) );
 80011f6:	f3ef 8309 	mrs	r3, PSP
    s_psp -= sizeof (struct port_extctx);
 80011fa:	3b20      	subs	r3, #32
    ectxp->xpsr = 0x01000000U;
 80011fc:	f04f 7280 	mov.w	r2, #16777216	; 0x1000000
 8001200:	61da      	str	r2, [r3, #28]
  __ASM volatile ("MSR psp, %0" : : "r" (topOfProcStack) : );
 8001202:	f383 8809 	msr	PSP, r3
  tprio_t p1 = firstprio(&ch.rlist.queue);
 8001206:	4a08      	ldr	r2, [pc, #32]	; (8001228 <Vector7C+0x68>)
 8001208:	6811      	ldr	r1, [r2, #0]
  tprio_t p2 = currp->prio;
 800120a:	6992      	ldr	r2, [r2, #24]
    if (chSchIsPreemptionRequired()) {
 800120c:	6889      	ldr	r1, [r1, #8]
 800120e:	6892      	ldr	r2, [r2, #8]
 8001210:	4291      	cmp	r1, r2
      ectxp->pc = (uint32_t)_port_switch_from_isr;
 8001212:	bf8c      	ite	hi
 8001214:	4a05      	ldrhi	r2, [pc, #20]	; (800122c <Vector7C+0x6c>)
      ectxp->pc = (uint32_t)_port_exit_from_isr;
 8001216:	4a06      	ldrls	r2, [pc, #24]	; (8001230 <Vector7C+0x70>)
 8001218:	619a      	str	r2, [r3, #24]
 800121a:	bd10      	pop	{r4, pc}
 800121c:	40020000 	.word	0x40020000
 8001220:	20000a54 	.word	0x20000a54
 8001224:	e000ed00 	.word	0xe000ed00
 8001228:	20000894 	.word	0x20000894
 800122c:	080002a3 	.word	0x080002a3
 8001230:	080002a6 	.word	0x080002a6
	...

08001240 <Vector80>:
  flags = (dmastp->dma->ISR >> dmastp->shift) & STM32_DMA_ISR_MASK;
 8001240:	4b16      	ldr	r3, [pc, #88]	; (800129c <Vector80+0x5c>)
 8001242:	6819      	ldr	r1, [r3, #0]
  if (flags & dmastp->channel->CCR) {
 8001244:	6eda      	ldr	r2, [r3, #108]	; 0x6c
  flags = (dmastp->dma->ISR >> dmastp->shift) & STM32_DMA_ISR_MASK;
 8001246:	0d09      	lsrs	r1, r1, #20
 8001248:	f001 010e 	and.w	r1, r1, #14
  if (flags & dmastp->channel->CCR) {
 800124c:	4211      	tst	r1, r2
OSAL_IRQ_HANDLER(STM32_DMA1_CH6_HANDLER) {
 800124e:	b510      	push	{r4, lr}
  if (flags & dmastp->channel->CCR) {
 8001250:	d006      	beq.n	8001260 <Vector80+0x20>
    if (dma.streams[selfindex].func) {
 8001252:	4813      	ldr	r0, [pc, #76]	; (80012a0 <Vector80+0x60>)
 8001254:	6b04      	ldr	r4, [r0, #48]	; 0x30
    dmastp->dma->IFCR = flags << dmastp->shift;
 8001256:	050a      	lsls	r2, r1, #20
 8001258:	605a      	str	r2, [r3, #4]
    if (dma.streams[selfindex].func) {
 800125a:	b10c      	cbz	r4, 8001260 <Vector80+0x20>
      dma.streams[selfindex].func(dma.streams[selfindex].param, flags);
 800125c:	6b40      	ldr	r0, [r0, #52]	; 0x34
 800125e:	47a0      	blx	r4
  __ASM volatile ("MSR basepri, %0" : : "r" (basePri) : "memory");
 8001260:	2320      	movs	r3, #32
 8001262:	f383 8811 	msr	BASEPRI, r3
  if ((SCB->ICSR & SCB_ICSR_RETTOBASE_Msk) != 0U) {
 8001266:	4b0f      	ldr	r3, [pc, #60]	; (80012a4 <Vector80+0x64>)
 8001268:	685b      	ldr	r3, [r3, #4]
 800126a:	f413 6300 	ands.w	r3, r3, #2048	; 0x800
 800126e:	d102      	bne.n	8001276 <Vector80+0x36>
 8001270:	f383 8811 	msr	BASEPRI, r3
}
 8001274:	bd10      	pop	{r4, pc}
  __ASM volatile ("MRS %0, psp"  : "=r" (result) );
 8001276:	f3ef 8309 	mrs	r3, PSP
    s_psp -= sizeof (struct port_extctx);
 800127a:	3b20      	subs	r3, #32
    ectxp->xpsr = 0x01000000U;
 800127c:	f04f 7280 	mov.w	r2, #16777216	; 0x1000000
 8001280:	61da      	str	r2, [r3, #28]
  __ASM volatile ("MSR psp, %0" : : "r" (topOfProcStack) : );
 8001282:	f383 8809 	msr	PSP, r3
  tprio_t p1 = firstprio(&ch.rlist.queue);
 8001286:	4a08      	ldr	r2, [pc, #32]	; (80012a8 <Vector80+0x68>)
 8001288:	6811      	ldr	r1, [r2, #0]
  tprio_t p2 = currp->prio;
 800128a:	6992      	ldr	r2, [r2, #24]
    if (chSchIsPreemptionRequired()) {
 800128c:	6889      	ldr	r1, [r1, #8]
 800128e:	6892      	ldr	r2, [r2, #8]
 8001290:	4291      	cmp	r1, r2
      ectxp->pc = (uint32_t)_port_switch_from_isr;
 8001292:	bf8c      	ite	hi
 8001294:	4a05      	ldrhi	r2, [pc, #20]	; (80012ac <Vector80+0x6c>)
      ectxp->pc = (uint32_t)_port_exit_from_isr;
 8001296:	4a06      	ldrls	r2, [pc, #24]	; (80012b0 <Vector80+0x70>)
 8001298:	619a      	str	r2, [r3, #24]
 800129a:	bd10      	pop	{r4, pc}
 800129c:	40020000 	.word	0x40020000
 80012a0:	20000a54 	.word	0x20000a54
 80012a4:	e000ed00 	.word	0xe000ed00
 80012a8:	20000894 	.word	0x20000894
 80012ac:	080002a3 	.word	0x080002a3
 80012b0:	080002a6 	.word	0x080002a6
	...

080012c0 <Vector84>:
  flags = (dmastp->dma->ISR >> dmastp->shift) & STM32_DMA_ISR_MASK;
 80012c0:	4b17      	ldr	r3, [pc, #92]	; (8001320 <Vector84+0x60>)
 80012c2:	6819      	ldr	r1, [r3, #0]
  if (flags & dmastp->channel->CCR) {
 80012c4:	f8d3 2080 	ldr.w	r2, [r3, #128]	; 0x80
  flags = (dmastp->dma->ISR >> dmastp->shift) & STM32_DMA_ISR_MASK;
 80012c8:	0e09      	lsrs	r1, r1, #24
 80012ca:	f001 010e 	and.w	r1, r1, #14
  if (flags & dmastp->channel->CCR) {
 80012ce:	4211      	tst	r1, r2
OSAL_IRQ_HANDLER(STM32_DMA1_CH7_HANDLER) {
 80012d0:	b510      	push	{r4, lr}
  if (flags & dmastp->channel->CCR) {
 80012d2:	d006      	beq.n	80012e2 <Vector84+0x22>
    if (dma.streams[selfindex].func) {
 80012d4:	4813      	ldr	r0, [pc, #76]	; (8001324 <Vector84+0x64>)
 80012d6:	6b84      	ldr	r4, [r0, #56]	; 0x38
    dmastp->dma->IFCR = flags << dmastp->shift;
 80012d8:	060a      	lsls	r2, r1, #24
 80012da:	605a      	str	r2, [r3, #4]
    if (dma.streams[selfindex].func) {
 80012dc:	b10c      	cbz	r4, 80012e2 <Vector84+0x22>
      dma.streams[selfindex].func(dma.streams[selfindex].param, flags);
 80012de:	6bc0      	ldr	r0, [r0, #60]	; 0x3c
 80012e0:	47a0      	blx	r4
  __ASM volatile ("MSR basepri, %0" : : "r" (basePri) : "memory");
 80012e2:	2320      	movs	r3, #32
 80012e4:	f383 8811 	msr	BASEPRI, r3
  if ((SCB->ICSR & SCB_ICSR_RETTOBASE_Msk) != 0U) {
 80012e8:	4b0f      	ldr	r3, [pc, #60]	; (8001328 <Vector84+0x68>)
 80012ea:	685b      	ldr	r3, [r3, #4]
 80012ec:	f413 6300 	ands.w	r3, r3, #2048	; 0x800
 80012f0:	d102      	bne.n	80012f8 <Vector84+0x38>
 80012f2:	f383 8811 	msr	BASEPRI, r3
}
 80012f6:	bd10      	pop	{r4, pc}
  __ASM volatile ("MRS %0, psp"  : "=r" (result) );
 80012f8:	f3ef 8309 	mrs	r3, PSP
    s_psp -= sizeof (struct port_extctx);
 80012fc:	3b20      	subs	r3, #32
    ectxp->xpsr = 0x01000000U;
 80012fe:	f04f 7280 	mov.w	r2, #16777216	; 0x1000000
 8001302:	61da      	str	r2, [r3, #28]
  __ASM volatile ("MSR psp, %0" : : "r" (topOfProcStack) : );
 8001304:	f383 8809 	msr	PSP, r3
  tprio_t p1 = firstprio(&ch.rlist.queue);
 8001308:	4a08      	ldr	r2, [pc, #32]	; (800132c <Vector84+0x6c>)
 800130a:	6811      	ldr	r1, [r2, #0]
  tprio_t p2 = currp->prio;
 800130c:	6992      	ldr	r2, [r2, #24]
    if (chSchIsPreemptionRequired()) {
 800130e:	6889      	ldr	r1, [r1, #8]
 8001310:	6892      	ldr	r2, [r2, #8]
 8001312:	4291      	cmp	r1, r2
      ectxp->pc = (uint32_t)_port_switch_from_isr;
 8001314:	bf8c      	ite	hi
 8001316:	4a06      	ldrhi	r2, [pc, #24]	; (8001330 <Vector84+0x70>)
      ectxp->pc = (uint32_t)_port_exit_from_isr;
 8001318:	4a06      	ldrls	r2, [pc, #24]	; (8001334 <Vector84+0x74>)
 800131a:	619a      	str	r2, [r3, #24]
 800131c:	bd10      	pop	{r4, pc}
 800131e:	bf00      	nop
 8001320:	40020000 	.word	0x40020000
 8001324:	20000a54 	.word	0x20000a54
 8001328:	e000ed00 	.word	0xe000ed00
 800132c:	20000894 	.word	0x20000894
 8001330:	080002a3 	.word	0x080002a3
 8001334:	080002a6 	.word	0x080002a6
	...

08001340 <Vector120>:
OSAL_IRQ_HANDLER(STM32_DMA2_CH1_HANDLER) {
 8001340:	b508      	push	{r3, lr}
  flags = (dmastp->dma->ISR >> dmastp->shift) & STM32_DMA_ISR_MASK;
 8001342:	4b15      	ldr	r3, [pc, #84]	; (8001398 <Vector120+0x58>)
 8001344:	6819      	ldr	r1, [r3, #0]
  if (flags & dmastp->channel->CCR) {
 8001346:	689a      	ldr	r2, [r3, #8]
  flags = (dmastp->dma->ISR >> dmastp->shift) & STM32_DMA_ISR_MASK;
 8001348:	f001 010e 	and.w	r1, r1, #14
  if (flags & dmastp->channel->CCR) {
 800134c:	4211      	tst	r1, r2
 800134e:	d005      	beq.n	800135c <Vector120+0x1c>
    if (dma.streams[selfindex].func) {
 8001350:	4a12      	ldr	r2, [pc, #72]	; (800139c <Vector120+0x5c>)
    dmastp->dma->IFCR = flags << dmastp->shift;
 8001352:	6059      	str	r1, [r3, #4]
    if (dma.streams[selfindex].func) {
 8001354:	6c13      	ldr	r3, [r2, #64]	; 0x40
 8001356:	b10b      	cbz	r3, 800135c <Vector120+0x1c>
      dma.streams[selfindex].func(dma.streams[selfindex].param, flags);
 8001358:	6c50      	ldr	r0, [r2, #68]	; 0x44
 800135a:	4798      	blx	r3
  __ASM volatile ("MSR basepri, %0" : : "r" (basePri) : "memory");
 800135c:	2320      	movs	r3, #32
 800135e:	f383 8811 	msr	BASEPRI, r3
  if ((SCB->ICSR & SCB_ICSR_RETTOBASE_Msk) != 0U) {
 8001362:	4b0f      	ldr	r3, [pc, #60]	; (80013a0 <Vector120+0x60>)
 8001364:	685b      	ldr	r3, [r3, #4]
 8001366:	f413 6300 	ands.w	r3, r3, #2048	; 0x800
 800136a:	d102      	bne.n	8001372 <Vector120+0x32>
 800136c:	f383 8811 	msr	BASEPRI, r3
}
 8001370:	bd08      	pop	{r3, pc}
  __ASM volatile ("MRS %0, psp"  : "=r" (result) );
 8001372:	f3ef 8309 	mrs	r3, PSP
    s_psp -= sizeof (struct port_extctx);
 8001376:	3b20      	subs	r3, #32
    ectxp->xpsr = 0x01000000U;
 8001378:	f04f 7280 	mov.w	r2, #16777216	; 0x1000000
 800137c:	61da      	str	r2, [r3, #28]
  __ASM volatile ("MSR psp, %0" : : "r" (topOfProcStack) : );
 800137e:	f383 8809 	msr	PSP, r3
  tprio_t p1 = firstprio(&ch.rlist.queue);
 8001382:	4a08      	ldr	r2, [pc, #32]	; (80013a4 <Vector120+0x64>)
 8001384:	6811      	ldr	r1, [r2, #0]
  tprio_t p2 = currp->prio;
 8001386:	6992      	ldr	r2, [r2, #24]
    if (chSchIsPreemptionRequired()) {
 8001388:	6889      	ldr	r1, [r1, #8]
 800138a:	6892      	ldr	r2, [r2, #8]
 800138c:	4291      	cmp	r1, r2
      ectxp->pc = (uint32_t)_port_switch_from_isr;
 800138e:	bf8c      	ite	hi
 8001390:	4a05      	ldrhi	r2, [pc, #20]	; (80013a8 <Vector120+0x68>)
      ectxp->pc = (uint32_t)_port_exit_from_isr;
 8001392:	4a06      	ldrls	r2, [pc, #24]	; (80013ac <Vector120+0x6c>)
 8001394:	619a      	str	r2, [r3, #24]
 8001396:	bd08      	pop	{r3, pc}
 8001398:	40020400 	.word	0x40020400
 800139c:	20000a54 	.word	0x20000a54
 80013a0:	e000ed00 	.word	0xe000ed00
 80013a4:	20000894 	.word	0x20000894
 80013a8:	080002a3 	.word	0x080002a3
 80013ac:	080002a6 	.word	0x080002a6

080013b0 <Vector124>:
  flags = (dmastp->dma->ISR >> dmastp->shift) & STM32_DMA_ISR_MASK;
 80013b0:	4b16      	ldr	r3, [pc, #88]	; (800140c <Vector124+0x5c>)
 80013b2:	6819      	ldr	r1, [r3, #0]
  if (flags & dmastp->channel->CCR) {
 80013b4:	69da      	ldr	r2, [r3, #28]
  flags = (dmastp->dma->ISR >> dmastp->shift) & STM32_DMA_ISR_MASK;
 80013b6:	0909      	lsrs	r1, r1, #4
 80013b8:	f001 010e 	and.w	r1, r1, #14
  if (flags & dmastp->channel->CCR) {
 80013bc:	4211      	tst	r1, r2
OSAL_IRQ_HANDLER(STM32_DMA2_CH2_HANDLER) {
 80013be:	b510      	push	{r4, lr}
  if (flags & dmastp->channel->CCR) {
 80013c0:	d006      	beq.n	80013d0 <Vector124+0x20>
    if (dma.streams[selfindex].func) {
 80013c2:	4813      	ldr	r0, [pc, #76]	; (8001410 <Vector124+0x60>)
 80013c4:	6c84      	ldr	r4, [r0, #72]	; 0x48
    dmastp->dma->IFCR = flags << dmastp->shift;
 80013c6:	010a      	lsls	r2, r1, #4
 80013c8:	605a      	str	r2, [r3, #4]
    if (dma.streams[selfindex].func) {
 80013ca:	b10c      	cbz	r4, 80013d0 <Vector124+0x20>
      dma.streams[selfindex].func(dma.streams[selfindex].param, flags);
 80013cc:	6cc0      	ldr	r0, [r0, #76]	; 0x4c
 80013ce:	47a0      	blx	r4
  __ASM volatile ("MSR basepri, %0" : : "r" (basePri) : "memory");
 80013d0:	2320      	movs	r3, #32
 80013d2:	f383 8811 	msr	BASEPRI, r3
  if ((SCB->ICSR & SCB_ICSR_RETTOBASE_Msk) != 0U) {
 80013d6:	4b0f      	ldr	r3, [pc, #60]	; (8001414 <Vector124+0x64>)
 80013d8:	685b      	ldr	r3, [r3, #4]
 80013da:	f413 6300 	ands.w	r3, r3, #2048	; 0x800
 80013de:	d102      	bne.n	80013e6 <Vector124+0x36>
 80013e0:	f383 8811 	msr	BASEPRI, r3
}
 80013e4:	bd10      	pop	{r4, pc}
  __ASM volatile ("MRS %0, psp"  : "=r" (result) );
 80013e6:	f3ef 8309 	mrs	r3, PSP
    s_psp -= sizeof (struct port_extctx);
 80013ea:	3b20      	subs	r3, #32
    ectxp->xpsr = 0x01000000U;
 80013ec:	f04f 7280 	mov.w	r2, #16777216	; 0x1000000
 80013f0:	61da      	str	r2, [r3, #28]
  __ASM volatile ("MSR psp, %0" : : "r" (topOfProcStack) : );
 80013f2:	f383 8809 	msr	PSP, r3
  tprio_t p1 = firstprio(&ch.rlist.queue);
 80013f6:	4a08      	ldr	r2, [pc, #32]	; (8001418 <Vector124+0x68>)
 80013f8:	6811      	ldr	r1, [r2, #0]
  tprio_t p2 = currp->prio;
 80013fa:	6992      	ldr	r2, [r2, #24]
    if (chSchIsPreemptionRequired()) {
 80013fc:	6889      	ldr	r1, [r1, #8]
 80013fe:	6892      	ldr	r2, [r2, #8]
 8001400:	4291      	cmp	r1, r2
      ectxp->pc = (uint32_t)_port_switch_from_isr;
 8001402:	bf8c      	ite	hi
 8001404:	4a05      	ldrhi	r2, [pc, #20]	; (800141c <Vector124+0x6c>)
      ectxp->pc = (uint32_t)_port_exit_from_isr;
 8001406:	4a06      	ldrls	r2, [pc, #24]	; (8001420 <Vector124+0x70>)
 8001408:	619a      	str	r2, [r3, #24]
 800140a:	bd10      	pop	{r4, pc}
 800140c:	40020400 	.word	0x40020400
 8001410:	20000a54 	.word	0x20000a54
 8001414:	e000ed00 	.word	0xe000ed00
 8001418:	20000894 	.word	0x20000894
 800141c:	080002a3 	.word	0x080002a3
 8001420:	080002a6 	.word	0x080002a6
	...

08001430 <Vector128>:
  flags = (dmastp->dma->ISR >> dmastp->shift) & STM32_DMA_ISR_MASK;
 8001430:	4b16      	ldr	r3, [pc, #88]	; (800148c <Vector128+0x5c>)
 8001432:	6819      	ldr	r1, [r3, #0]
  if (flags & dmastp->channel->CCR) {
 8001434:	6b1a      	ldr	r2, [r3, #48]	; 0x30
  flags = (dmastp->dma->ISR >> dmastp->shift) & STM32_DMA_ISR_MASK;
 8001436:	0a09      	lsrs	r1, r1, #8
 8001438:	f001 010e 	and.w	r1, r1, #14
  if (flags & dmastp->channel->CCR) {
 800143c:	4211      	tst	r1, r2
OSAL_IRQ_HANDLER(STM32_DMA2_CH3_HANDLER) {
 800143e:	b510      	push	{r4, lr}
  if (flags & dmastp->channel->CCR) {
 8001440:	d006      	beq.n	8001450 <Vector128+0x20>
    if (dma.streams[selfindex].func) {
 8001442:	4813      	ldr	r0, [pc, #76]	; (8001490 <Vector128+0x60>)
 8001444:	6d04      	ldr	r4, [r0, #80]	; 0x50
    dmastp->dma->IFCR = flags << dmastp->shift;
 8001446:	020a      	lsls	r2, r1, #8
 8001448:	605a      	str	r2, [r3, #4]
    if (dma.streams[selfindex].func) {
 800144a:	b10c      	cbz	r4, 8001450 <Vector128+0x20>
      dma.streams[selfindex].func(dma.streams[selfindex].param, flags);
 800144c:	6d40      	ldr	r0, [r0, #84]	; 0x54
 800144e:	47a0      	blx	r4
  __ASM volatile ("MSR basepri, %0" : : "r" (basePri) : "memory");
 8001450:	2320      	movs	r3, #32
 8001452:	f383 8811 	msr	BASEPRI, r3
  if ((SCB->ICSR & SCB_ICSR_RETTOBASE_Msk) != 0U) {
 8001456:	4b0f      	ldr	r3, [pc, #60]	; (8001494 <Vector128+0x64>)
 8001458:	685b      	ldr	r3, [r3, #4]
 800145a:	f413 6300 	ands.w	r3, r3, #2048	; 0x800
 800145e:	d102      	bne.n	8001466 <Vector128+0x36>
 8001460:	f383 8811 	msr	BASEPRI, r3
}
 8001464:	bd10      	pop	{r4, pc}
  __ASM volatile ("MRS %0, psp"  : "=r" (result) );
 8001466:	f3ef 8309 	mrs	r3, PSP
    s_psp -= sizeof (struct port_extctx);
 800146a:	3b20      	subs	r3, #32
    ectxp->xpsr = 0x01000000U;
 800146c:	f04f 7280 	mov.w	r2, #16777216	; 0x1000000
 8001470:	61da      	str	r2, [r3, #28]
  __ASM volatile ("MSR psp, %0" : : "r" (topOfProcStack) : );
 8001472:	f383 8809 	msr	PSP, r3
  tprio_t p1 = firstprio(&ch.rlist.queue);
 8001476:	4a08      	ldr	r2, [pc, #32]	; (8001498 <Vector128+0x68>)
 8001478:	6811      	ldr	r1, [r2, #0]
  tprio_t p2 = currp->prio;
 800147a:	6992      	ldr	r2, [r2, #24]
    if (chSchIsPreemptionRequired()) {
 800147c:	6889      	ldr	r1, [r1, #8]
 800147e:	6892      	ldr	r2, [r2, #8]
 8001480:	4291      	cmp	r1, r2
      ectxp->pc = (uint32_t)_port_switch_from_isr;
 8001482:	bf8c      	ite	hi
 8001484:	4a05      	ldrhi	r2, [pc, #20]	; (800149c <Vector128+0x6c>)
      ectxp->pc = (uint32_t)_port_exit_from_isr;
 8001486:	4a06      	ldrls	r2, [pc, #24]	; (80014a0 <Vector128+0x70>)
 8001488:	619a      	str	r2, [r3, #24]
 800148a:	bd10      	pop	{r4, pc}
 800148c:	40020400 	.word	0x40020400
 8001490:	20000a54 	.word	0x20000a54
 8001494:	e000ed00 	.word	0xe000ed00
 8001498:	20000894 	.word	0x20000894
 800149c:	080002a3 	.word	0x080002a3
 80014a0:	080002a6 	.word	0x080002a6
	...

080014b0 <Vector12C>:
  flags = (dmastp->dma->ISR >> dmastp->shift) & STM32_DMA_ISR_MASK;
 80014b0:	4b16      	ldr	r3, [pc, #88]	; (800150c <Vector12C+0x5c>)
 80014b2:	6819      	ldr	r1, [r3, #0]
  if (flags & dmastp->channel->CCR) {
 80014b4:	6c5a      	ldr	r2, [r3, #68]	; 0x44
  flags = (dmastp->dma->ISR >> dmastp->shift) & STM32_DMA_ISR_MASK;
 80014b6:	0b09      	lsrs	r1, r1, #12
 80014b8:	f001 010e 	and.w	r1, r1, #14
  if (flags & dmastp->channel->CCR) {
 80014bc:	4211      	tst	r1, r2
OSAL_IRQ_HANDLER(STM32_DMA2_CH4_HANDLER) {
 80014be:	b510      	push	{r4, lr}
  if (flags & dmastp->channel->CCR) {
 80014c0:	d006      	beq.n	80014d0 <Vector12C+0x20>
    if (dma.streams[selfindex].func) {
 80014c2:	4813      	ldr	r0, [pc, #76]	; (8001510 <Vector12C+0x60>)
 80014c4:	6d84      	ldr	r4, [r0, #88]	; 0x58
    dmastp->dma->IFCR = flags << dmastp->shift;
 80014c6:	030a      	lsls	r2, r1, #12
 80014c8:	605a      	str	r2, [r3, #4]
    if (dma.streams[selfindex].func) {
 80014ca:	b10c      	cbz	r4, 80014d0 <Vector12C+0x20>
      dma.streams[selfindex].func(dma.streams[selfindex].param, flags);
 80014cc:	6dc0      	ldr	r0, [r0, #92]	; 0x5c
 80014ce:	47a0      	blx	r4
  __ASM volatile ("MSR basepri, %0" : : "r" (basePri) : "memory");
 80014d0:	2320      	movs	r3, #32
 80014d2:	f383 8811 	msr	BASEPRI, r3
  if ((SCB->ICSR & SCB_ICSR_RETTOBASE_Msk) != 0U) {
 80014d6:	4b0f      	ldr	r3, [pc, #60]	; (8001514 <Vector12C+0x64>)
 80014d8:	685b      	ldr	r3, [r3, #4]
 80014da:	f413 6300 	ands.w	r3, r3, #2048	; 0x800
 80014de:	d102      	bne.n	80014e6 <Vector12C+0x36>
 80014e0:	f383 8811 	msr	BASEPRI, r3
}
 80014e4:	bd10      	pop	{r4, pc}
  __ASM volatile ("MRS %0, psp"  : "=r" (result) );
 80014e6:	f3ef 8309 	mrs	r3, PSP
    s_psp -= sizeof (struct port_extctx);
 80014ea:	3b20      	subs	r3, #32
    ectxp->xpsr = 0x01000000U;
 80014ec:	f04f 7280 	mov.w	r2, #16777216	; 0x1000000
 80014f0:	61da      	str	r2, [r3, #28]
  __ASM volatile ("MSR psp, %0" : : "r" (topOfProcStack) : );
 80014f2:	f383 8809 	msr	PSP, r3
  tprio_t p1 = firstprio(&ch.rlist.queue);
 80014f6:	4a08      	ldr	r2, [pc, #32]	; (8001518 <Vector12C+0x68>)
 80014f8:	6811      	ldr	r1, [r2, #0]
  tprio_t p2 = currp->prio;
 80014fa:	6992      	ldr	r2, [r2, #24]
    if (chSchIsPreemptionRequired()) {
 80014fc:	6889      	ldr	r1, [r1, #8]
 80014fe:	6892      	ldr	r2, [r2, #8]
 8001500:	4291      	cmp	r1, r2
      ectxp->pc = (uint32_t)_port_switch_from_isr;
 8001502:	bf8c      	ite	hi
 8001504:	4a05      	ldrhi	r2, [pc, #20]	; (800151c <Vector12C+0x6c>)
      ectxp->pc = (uint32_t)_port_exit_from_isr;
 8001506:	4a06      	ldrls	r2, [pc, #24]	; (8001520 <Vector12C+0x70>)
 8001508:	619a      	str	r2, [r3, #24]
 800150a:	bd10      	pop	{r4, pc}
 800150c:	40020400 	.word	0x40020400
 8001510:	20000a54 	.word	0x20000a54
 8001514:	e000ed00 	.word	0xe000ed00
 8001518:	20000894 	.word	0x20000894
 800151c:	080002a3 	.word	0x080002a3
 8001520:	080002a6 	.word	0x080002a6
	...

08001530 <Vector130>:
  flags = (dmastp->dma->ISR >> dmastp->shift) & STM32_DMA_ISR_MASK;
 8001530:	4b16      	ldr	r3, [pc, #88]	; (800158c <Vector130+0x5c>)
 8001532:	6819      	ldr	r1, [r3, #0]
  if (flags & dmastp->channel->CCR) {
 8001534:	6d9a      	ldr	r2, [r3, #88]	; 0x58
  flags = (dmastp->dma->ISR >> dmastp->shift) & STM32_DMA_ISR_MASK;
 8001536:	0c09      	lsrs	r1, r1, #16
 8001538:	f001 010e 	and.w	r1, r1, #14
  if (flags & dmastp->channel->CCR) {
 800153c:	4211      	tst	r1, r2
OSAL_IRQ_HANDLER(STM32_DMA2_CH5_HANDLER) {
 800153e:	b510      	push	{r4, lr}
  if (flags & dmastp->channel->CCR) {
 8001540:	d006      	beq.n	8001550 <Vector130+0x20>
    if (dma.streams[selfindex].func) {
 8001542:	4813      	ldr	r0, [pc, #76]	; (8001590 <Vector130+0x60>)
 8001544:	6e04      	ldr	r4, [r0, #96]	; 0x60
    dmastp->dma->IFCR = flags << dmastp->shift;
 8001546:	040a      	lsls	r2, r1, #16
 8001548:	605a      	str	r2, [r3, #4]
    if (dma.streams[selfindex].func) {
 800154a:	b10c      	cbz	r4, 8001550 <Vector130+0x20>
      dma.streams[selfindex].func(dma.streams[selfindex].param, flags);
 800154c:	6e40      	ldr	r0, [r0, #100]	; 0x64
 800154e:	47a0      	blx	r4
  __ASM volatile ("MSR basepri, %0" : : "r" (basePri) : "memory");
 8001550:	2320      	movs	r3, #32
 8001552:	f383 8811 	msr	BASEPRI, r3
  if ((SCB->ICSR & SCB_ICSR_RETTOBASE_Msk) != 0U) {
 8001556:	4b0f      	ldr	r3, [pc, #60]	; (8001594 <Vector130+0x64>)
 8001558:	685b      	ldr	r3, [r3, #4]
 800155a:	f413 6300 	ands.w	r3, r3, #2048	; 0x800
 800155e:	d102      	bne.n	8001566 <Vector130+0x36>
 8001560:	f383 8811 	msr	BASEPRI, r3
}
 8001564:	bd10      	pop	{r4, pc}
  __ASM volatile ("MRS %0, psp"  : "=r" (result) );
 8001566:	f3ef 8309 	mrs	r3, PSP
    s_psp -= sizeof (struct port_extctx);
 800156a:	3b20      	subs	r3, #32
    ectxp->xpsr = 0x01000000U;
 800156c:	f04f 7280 	mov.w	r2, #16777216	; 0x1000000
 8001570:	61da      	str	r2, [r3, #28]
  __ASM volatile ("MSR psp, %0" : : "r" (topOfProcStack) : );
 8001572:	f383 8809 	msr	PSP, r3
  tprio_t p1 = firstprio(&ch.rlist.queue);
 8001576:	4a08      	ldr	r2, [pc, #32]	; (8001598 <Vector130+0x68>)
 8001578:	6811      	ldr	r1, [r2, #0]
  tprio_t p2 = currp->prio;
 800157a:	6992      	ldr	r2, [r2, #24]
    if (chSchIsPreemptionRequired()) {
 800157c:	6889      	ldr	r1, [r1, #8]
 800157e:	6892      	ldr	r2, [r2, #8]
 8001580:	4291      	cmp	r1, r2
      ectxp->pc = (uint32_t)_port_switch_from_isr;
 8001582:	bf8c      	ite	hi
 8001584:	4a05      	ldrhi	r2, [pc, #20]	; (800159c <Vector130+0x6c>)
      ectxp->pc = (uint32_t)_port_exit_from_isr;
 8001586:	4a06      	ldrls	r2, [pc, #24]	; (80015a0 <Vector130+0x70>)
 8001588:	619a      	str	r2, [r3, #24]
 800158a:	bd10      	pop	{r4, pc}
 800158c:	40020400 	.word	0x40020400
 8001590:	20000a54 	.word	0x20000a54
 8001594:	e000ed00 	.word	0xe000ed00
 8001598:	20000894 	.word	0x20000894
 800159c:	080002a3 	.word	0x080002a3
 80015a0:	080002a6 	.word	0x080002a6
	...

080015b0 <VectorBC>:
  uint32_t isr = I2CD1.i2c->ISR;
 80015b0:	4981      	ldr	r1, [pc, #516]	; (80017b8 <VectorBC+0x208>)
 80015b2:	6b0a      	ldr	r2, [r1, #48]	; 0x30
 80015b4:	6993      	ldr	r3, [r2, #24]
  I2CD1.i2c->ICR = isr & I2C_INT_MASK;
 80015b6:	f003 00fe 	and.w	r0, r3, #254	; 0xfe
OSAL_IRQ_HANDLER(STM32_I2C1_EVENT_HANDLER) {
 80015ba:	b470      	push	{r4, r5, r6}
  I2CD1.i2c->ICR = isr & I2C_INT_MASK;
 80015bc:	61d0      	str	r0, [r2, #28]
  if ((isr & I2C_ISR_NACKF) != 0U) {
 80015be:	f013 0010 	ands.w	r0, r3, #16
 80015c2:	d15e      	bne.n	8001682 <VectorBC+0xd2>
  if ((isr & I2C_ISR_TCR) != 0U) {
 80015c4:	f013 0480 	ands.w	r4, r3, #128	; 0x80
 80015c8:	d13e      	bne.n	8001648 <VectorBC+0x98>
  if ((isr & I2C_ISR_TC) != 0U) {
 80015ca:	065b      	lsls	r3, r3, #25
 80015cc:	d40c      	bmi.n	80015e8 <VectorBC+0x38>
  __ASM volatile ("MSR basepri, %0" : : "r" (basePri) : "memory");
 80015ce:	2320      	movs	r3, #32
 80015d0:	f383 8811 	msr	BASEPRI, r3
  if ((SCB->ICSR & SCB_ICSR_RETTOBASE_Msk) != 0U) {
 80015d4:	4b79      	ldr	r3, [pc, #484]	; (80017bc <VectorBC+0x20c>)
 80015d6:	685b      	ldr	r3, [r3, #4]
 80015d8:	f413 6300 	ands.w	r3, r3, #2048	; 0x800
 80015dc:	f040 808c 	bne.w	80016f8 <VectorBC+0x148>
 80015e0:	f383 8811 	msr	BASEPRI, r3
}
 80015e4:	bc70      	pop	{r4, r5, r6}
 80015e6:	4770      	bx	lr
    if (i2cp->state == I2C_ACTIVE_TX) {
 80015e8:	780b      	ldrb	r3, [r1, #0]
 80015ea:	2b03      	cmp	r3, #3
 80015ec:	f000 80b0 	beq.w	8001750 <VectorBC+0x1a0>
      dmaStreamDisable(i2cp->dmarx);
 80015f0:	6a88      	ldr	r0, [r1, #40]	; 0x28
 80015f2:	6844      	ldr	r4, [r0, #4]
 80015f4:	6823      	ldr	r3, [r4, #0]
 80015f6:	f023 030f 	bic.w	r3, r3, #15
 80015fa:	6023      	str	r3, [r4, #0]
 80015fc:	7b44      	ldrb	r4, [r0, #13]
 80015fe:	6800      	ldr	r0, [r0, #0]
 8001600:	230e      	movs	r3, #14
 8001602:	40a3      	lsls	r3, r4
 8001604:	6043      	str	r3, [r0, #4]
    dp->CR2 |= I2C_CR2_STOP;
 8001606:	6853      	ldr	r3, [r2, #4]
 8001608:	f443 4380 	orr.w	r3, r3, #16384	; 0x4000
 800160c:	6053      	str	r3, [r2, #4]
    dp->CR1 &= ~I2C_CR1_TCIE;
 800160e:	6813      	ldr	r3, [r2, #0]
 8001610:	f023 0340 	bic.w	r3, r3, #64	; 0x40
 8001614:	2020      	movs	r0, #32
 8001616:	6013      	str	r3, [r2, #0]
 8001618:	f380 8811 	msr	BASEPRI, r0
  if (*trp != NULL) {
 800161c:	69c8      	ldr	r0, [r1, #28]
 800161e:	b178      	cbz	r0, 8001640 <VectorBC+0x90>
    *trp = NULL;
 8001620:	2200      	movs	r2, #0
  cp = (thread_t *)&ch.rlist.queue;
 8001622:	4b67      	ldr	r3, [pc, #412]	; (80017c0 <VectorBC+0x210>)
  } while (cp->prio >= tp->prio);
 8001624:	6884      	ldr	r4, [r0, #8]
    tp->u.rdymsg = msg;
 8001626:	6242      	str	r2, [r0, #36]	; 0x24
    *trp = NULL;
 8001628:	61ca      	str	r2, [r1, #28]
  tp->state = CH_STATE_READY;
 800162a:	f880 2020 	strb.w	r2, [r0, #32]
    cp = cp->queue.next;
 800162e:	681b      	ldr	r3, [r3, #0]
  } while (cp->prio >= tp->prio);
 8001630:	689a      	ldr	r2, [r3, #8]
 8001632:	42a2      	cmp	r2, r4
 8001634:	d2fb      	bcs.n	800162e <VectorBC+0x7e>
  tp->queue.prev             = cp->queue.prev;
 8001636:	685a      	ldr	r2, [r3, #4]
 8001638:	e9c0 3200 	strd	r3, r2, [r0]
  tp->queue.prev->queue.next = tp;
 800163c:	6010      	str	r0, [r2, #0]
  cp->queue.prev             = tp;
 800163e:	6058      	str	r0, [r3, #4]
 8001640:	2300      	movs	r3, #0
 8001642:	f383 8811 	msr	BASEPRI, r3
 * @special
 */
static inline void osalSysUnlockFromISR(void) {

  chSysUnlockFromISR();
}
 8001646:	e7c2      	b.n	80015ce <VectorBC+0x1e>
    if (i2cp->state == I2C_ACTIVE_TX) {
 8001648:	780b      	ldrb	r3, [r1, #0]
 800164a:	2b03      	cmp	r3, #3
 800164c:	d068      	beq.n	8001720 <VectorBC+0x170>
  n = i2c_lld_get_rxbytes(i2cp);
 800164e:	6a8b      	ldr	r3, [r1, #40]	; 0x28
  dp->CR2 = (dp->CR2 & ~(I2C_CR2_NBYTES | I2C_CR2_RELOAD)) | i2cp->config->cr2 |
 8001650:	684c      	ldr	r4, [r1, #4]
  n = i2c_lld_get_rxbytes(i2cp);
 8001652:	685b      	ldr	r3, [r3, #4]
            I2C_CR2_RD_WRN | (n << 16U) | reload;
 8001654:	68a4      	ldr	r4, [r4, #8]
  n = i2c_lld_get_rxbytes(i2cp);
 8001656:	685b      	ldr	r3, [r3, #4]
  dp->CR2 = (dp->CR2 & ~(I2C_CR2_NBYTES | I2C_CR2_RELOAD)) | i2cp->config->cr2 |
 8001658:	6851      	ldr	r1, [r2, #4]
  if (n > 255U) {
 800165a:	2bff      	cmp	r3, #255	; 0xff
            I2C_CR2_RD_WRN | (n << 16U) | reload;
 800165c:	bf94      	ite	ls
 800165e:	041b      	lslls	r3, r3, #16
 8001660:	f44f 037f 	movhi.w	r3, #16711680	; 0xff0000
  dp->CR2 = (dp->CR2 & ~(I2C_CR2_NBYTES | I2C_CR2_RELOAD)) | i2cp->config->cr2 |
 8001664:	f021 71ff 	bic.w	r1, r1, #33423360	; 0x1fe0000
            I2C_CR2_RD_WRN | (n << 16U) | reload;
 8001668:	ea43 0304 	orr.w	r3, r3, r4
  dp->CR2 = (dp->CR2 & ~(I2C_CR2_NBYTES | I2C_CR2_RELOAD)) | i2cp->config->cr2 |
 800166c:	f421 3180 	bic.w	r1, r1, #65536	; 0x10000
    reload = I2C_CR2_RELOAD;
 8001670:	bf88      	it	hi
 8001672:	f04f 7080 	movhi.w	r0, #16777216	; 0x1000000
            I2C_CR2_RD_WRN | (n << 16U) | reload;
 8001676:	430b      	orrs	r3, r1
 8001678:	4303      	orrs	r3, r0
 800167a:	f443 6380 	orr.w	r3, r3, #1024	; 0x400
  dp->CR2 = (dp->CR2 & ~(I2C_CR2_NBYTES | I2C_CR2_RELOAD)) | i2cp->config->cr2 |
 800167e:	6053      	str	r3, [r2, #4]
}
 8001680:	e7a5      	b.n	80015ce <VectorBC+0x1e>
    dmaStreamDisable(i2cp->dmatx);
 8001682:	6acb      	ldr	r3, [r1, #44]	; 0x2c
 8001684:	685c      	ldr	r4, [r3, #4]
 8001686:	6820      	ldr	r0, [r4, #0]
 8001688:	f020 000f 	bic.w	r0, r0, #15
 800168c:	6020      	str	r0, [r4, #0]
 800168e:	7b58      	ldrb	r0, [r3, #13]
 8001690:	681c      	ldr	r4, [r3, #0]
 8001692:	230e      	movs	r3, #14
 8001694:	fa03 f000 	lsl.w	r0, r3, r0
 8001698:	6060      	str	r0, [r4, #4]
    dmaStreamDisable(i2cp->dmarx);
 800169a:	6a88      	ldr	r0, [r1, #40]	; 0x28
 800169c:	e9d0 6500 	ldrd	r6, r5, [r0]
 80016a0:	682c      	ldr	r4, [r5, #0]
 80016a2:	f024 040f 	bic.w	r4, r4, #15
 80016a6:	602c      	str	r4, [r5, #0]
 80016a8:	7b40      	ldrb	r0, [r0, #13]
 80016aa:	4083      	lsls	r3, r0
 80016ac:	6073      	str	r3, [r6, #4]
    dp->CR2 |= I2C_CR2_STOP;
 80016ae:	6853      	ldr	r3, [r2, #4]
    i2cp->errors |= I2C_ACK_FAILURE;
 80016b0:	6888      	ldr	r0, [r1, #8]
    dp->CR2 |= I2C_CR2_STOP;
 80016b2:	f443 4380 	orr.w	r3, r3, #16384	; 0x4000
    i2cp->errors |= I2C_ACK_FAILURE;
 80016b6:	f040 0004 	orr.w	r0, r0, #4
 80016ba:	6088      	str	r0, [r1, #8]
    dp->CR2 |= I2C_CR2_STOP;
 80016bc:	6053      	str	r3, [r2, #4]
    dp->CR1 &= ~(I2C_CR1_TCIE | I2C_CR1_TXIE | I2C_CR1_RXIE);
 80016be:	6813      	ldr	r3, [r2, #0]
 80016c0:	f023 0346 	bic.w	r3, r3, #70	; 0x46
 80016c4:	2020      	movs	r0, #32
 80016c6:	6013      	str	r3, [r2, #0]
 80016c8:	f380 8811 	msr	BASEPRI, r0
  if (*trp != NULL) {
 80016cc:	69c8      	ldr	r0, [r1, #28]
 80016ce:	2800      	cmp	r0, #0
 80016d0:	d0b6      	beq.n	8001640 <VectorBC+0x90>
    tp->u.rdymsg = msg;
 80016d2:	f06f 0301 	mvn.w	r3, #1
    *trp = NULL;
 80016d6:	2200      	movs	r2, #0
    tp->u.rdymsg = msg;
 80016d8:	6243      	str	r3, [r0, #36]	; 0x24
  cp = (thread_t *)&ch.rlist.queue;
 80016da:	4b39      	ldr	r3, [pc, #228]	; (80017c0 <VectorBC+0x210>)
  } while (cp->prio >= tp->prio);
 80016dc:	6884      	ldr	r4, [r0, #8]
  tp->state = CH_STATE_READY;
 80016de:	f880 2020 	strb.w	r2, [r0, #32]
    *trp = NULL;
 80016e2:	61ca      	str	r2, [r1, #28]
    cp = cp->queue.next;
 80016e4:	681b      	ldr	r3, [r3, #0]
  } while (cp->prio >= tp->prio);
 80016e6:	689a      	ldr	r2, [r3, #8]
 80016e8:	42a2      	cmp	r2, r4
 80016ea:	d2fb      	bcs.n	80016e4 <VectorBC+0x134>
  tp->queue.prev             = cp->queue.prev;
 80016ec:	685a      	ldr	r2, [r3, #4]
 80016ee:	e9c0 3200 	strd	r3, r2, [r0]
  tp->queue.prev->queue.next = tp;
 80016f2:	6010      	str	r0, [r2, #0]
  cp->queue.prev             = tp;
 80016f4:	6058      	str	r0, [r3, #4]
 80016f6:	e7a3      	b.n	8001640 <VectorBC+0x90>
  __ASM volatile ("MRS %0, psp"  : "=r" (result) );
 80016f8:	f3ef 8309 	mrs	r3, PSP
    s_psp -= sizeof (struct port_extctx);
 80016fc:	3b20      	subs	r3, #32
    ectxp->xpsr = 0x01000000U;
 80016fe:	f04f 7280 	mov.w	r2, #16777216	; 0x1000000
 8001702:	61da      	str	r2, [r3, #28]
  __ASM volatile ("MSR psp, %0" : : "r" (topOfProcStack) : );
 8001704:	f383 8809 	msr	PSP, r3
  tprio_t p1 = firstprio(&ch.rlist.queue);
 8001708:	4a2d      	ldr	r2, [pc, #180]	; (80017c0 <VectorBC+0x210>)
 800170a:	6811      	ldr	r1, [r2, #0]
  tprio_t p2 = currp->prio;
 800170c:	6992      	ldr	r2, [r2, #24]
    if (chSchIsPreemptionRequired()) {
 800170e:	6889      	ldr	r1, [r1, #8]
 8001710:	6892      	ldr	r2, [r2, #8]
 8001712:	4291      	cmp	r1, r2
      ectxp->pc = (uint32_t)_port_switch_from_isr;
 8001714:	bf8c      	ite	hi
 8001716:	4a2b      	ldrhi	r2, [pc, #172]	; (80017c4 <VectorBC+0x214>)
      ectxp->pc = (uint32_t)_port_exit_from_isr;
 8001718:	4a2b      	ldrls	r2, [pc, #172]	; (80017c8 <VectorBC+0x218>)
 800171a:	619a      	str	r2, [r3, #24]
}
 800171c:	bc70      	pop	{r4, r5, r6}
 800171e:	4770      	bx	lr
  n = i2c_lld_get_txbytes(i2cp);
 8001720:	6acb      	ldr	r3, [r1, #44]	; 0x2c
  dp->CR2 = (dp->CR2 & ~(I2C_CR2_NBYTES | I2C_CR2_RELOAD)) | i2cp->config->cr2 |
 8001722:	6849      	ldr	r1, [r1, #4]
  n = i2c_lld_get_txbytes(i2cp);
 8001724:	685b      	ldr	r3, [r3, #4]
  dp->CR2 = (dp->CR2 & ~(I2C_CR2_NBYTES | I2C_CR2_RELOAD)) | i2cp->config->cr2 |
 8001726:	6889      	ldr	r1, [r1, #8]
  n = i2c_lld_get_txbytes(i2cp);
 8001728:	685c      	ldr	r4, [r3, #4]
  dp->CR2 = (dp->CR2 & ~(I2C_CR2_NBYTES | I2C_CR2_RELOAD)) | i2cp->config->cr2 |
 800172a:	6853      	ldr	r3, [r2, #4]
 800172c:	f023 73ff 	bic.w	r3, r3, #33423360	; 0x1fe0000
  if (n > 255U) {
 8001730:	2cff      	cmp	r4, #255	; 0xff
  dp->CR2 = (dp->CR2 & ~(I2C_CR2_NBYTES | I2C_CR2_RELOAD)) | i2cp->config->cr2 |
 8001732:	f423 3380 	bic.w	r3, r3, #65536	; 0x10000
    reload = I2C_CR2_RELOAD;
 8001736:	bf88      	it	hi
 8001738:	f04f 7080 	movhi.w	r0, #16777216	; 0x1000000
  dp->CR2 = (dp->CR2 & ~(I2C_CR2_NBYTES | I2C_CR2_RELOAD)) | i2cp->config->cr2 |
 800173c:	ea43 0301 	orr.w	r3, r3, r1
            (n << 16U) | reload;
 8001740:	bf94      	ite	ls
 8001742:	0424      	lslls	r4, r4, #16
 8001744:	f44f 047f 	movhi.w	r4, #16711680	; 0xff0000
 8001748:	4303      	orrs	r3, r0
 800174a:	4323      	orrs	r3, r4
  dp->CR2 = (dp->CR2 & ~(I2C_CR2_NBYTES | I2C_CR2_RELOAD)) | i2cp->config->cr2 |
 800174c:	6053      	str	r3, [r2, #4]
}
 800174e:	e73e      	b.n	80015ce <VectorBC+0x1e>
      dmaStreamDisable(i2cp->dmatx);
 8001750:	6ac8      	ldr	r0, [r1, #44]	; 0x2c
      if (i2c_lld_get_rxbytes(i2cp) > 0U) {
 8001752:	6a8b      	ldr	r3, [r1, #40]	; 0x28
      dmaStreamDisable(i2cp->dmatx);
 8001754:	6845      	ldr	r5, [r0, #4]
      if (i2c_lld_get_rxbytes(i2cp) > 0U) {
 8001756:	685e      	ldr	r6, [r3, #4]
      dmaStreamDisable(i2cp->dmatx);
 8001758:	682b      	ldr	r3, [r5, #0]
 800175a:	f023 030f 	bic.w	r3, r3, #15
 800175e:	602b      	str	r3, [r5, #0]
 8001760:	7b45      	ldrb	r5, [r0, #13]
 8001762:	6800      	ldr	r0, [r0, #0]
 8001764:	230e      	movs	r3, #14
 8001766:	40ab      	lsls	r3, r5
 8001768:	6043      	str	r3, [r0, #4]
      if (i2c_lld_get_rxbytes(i2cp) > 0U) {
 800176a:	6873      	ldr	r3, [r6, #4]
 800176c:	2b00      	cmp	r3, #0
 800176e:	f43f af4a 	beq.w	8001606 <VectorBC+0x56>
  n = i2c_lld_get_rxbytes(i2cp);
 8001772:	6873      	ldr	r3, [r6, #4]
  dp->CR2 = (dp->CR2 & ~(I2C_CR2_NBYTES | I2C_CR2_RELOAD)) | i2cp->config->cr2 |
 8001774:	6848      	ldr	r0, [r1, #4]
  if (n > 255U) {
 8001776:	2bff      	cmp	r3, #255	; 0xff
            I2C_CR2_RD_WRN | (n << 16U) | reload;
 8001778:	6880      	ldr	r0, [r0, #8]
 800177a:	bf94      	ite	ls
 800177c:	041b      	lslls	r3, r3, #16
 800177e:	f44f 037f 	movhi.w	r3, #16711680	; 0xff0000
 8001782:	ea43 0300 	orr.w	r3, r3, r0
  dp->CR2 = (dp->CR2 & ~(I2C_CR2_NBYTES | I2C_CR2_RELOAD)) | i2cp->config->cr2 |
 8001786:	6850      	ldr	r0, [r2, #4]
 8001788:	f020 70ff 	bic.w	r0, r0, #33423360	; 0x1fe0000
 800178c:	f420 3080 	bic.w	r0, r0, #65536	; 0x10000
            I2C_CR2_RD_WRN | (n << 16U) | reload;
 8001790:	ea43 0300 	orr.w	r3, r3, r0
    reload = I2C_CR2_RELOAD;
 8001794:	bf88      	it	hi
 8001796:	f04f 7480 	movhi.w	r4, #16777216	; 0x1000000
            I2C_CR2_RD_WRN | (n << 16U) | reload;
 800179a:	4323      	orrs	r3, r4
 800179c:	f443 6380 	orr.w	r3, r3, #1024	; 0x400
  dp->CR2 = (dp->CR2 & ~(I2C_CR2_NBYTES | I2C_CR2_RELOAD)) | i2cp->config->cr2 |
 80017a0:	6053      	str	r3, [r2, #4]
        dmaStreamEnable(i2cp->dmarx);
 80017a2:	6833      	ldr	r3, [r6, #0]
 80017a4:	f043 0301 	orr.w	r3, r3, #1
 80017a8:	6033      	str	r3, [r6, #0]
        dp->CR2 |= I2C_CR2_START;
 80017aa:	6853      	ldr	r3, [r2, #4]
        i2cp->state = I2C_ACTIVE_RX;
 80017ac:	2004      	movs	r0, #4
        dp->CR2 |= I2C_CR2_START;
 80017ae:	f443 5300 	orr.w	r3, r3, #8192	; 0x2000
        i2cp->state = I2C_ACTIVE_RX;
 80017b2:	7008      	strb	r0, [r1, #0]
        dp->CR2 |= I2C_CR2_START;
 80017b4:	6053      	str	r3, [r2, #4]
        return;
 80017b6:	e70a      	b.n	80015ce <VectorBC+0x1e>
 80017b8:	20000800 	.word	0x20000800
 80017bc:	e000ed00 	.word	0xe000ed00
 80017c0:	20000894 	.word	0x20000894
 80017c4:	080002a3 	.word	0x080002a3
 80017c8:	080002a6 	.word	0x080002a6
 80017cc:	00000000 	.word	0x00000000

080017d0 <VectorC0>:
  uint32_t isr = I2CD1.i2c->ISR;
 80017d0:	4a2a      	ldr	r2, [pc, #168]	; (800187c <VectorC0+0xac>)
  dmaStreamDisable(i2cp->dmatx);
 80017d2:	e9d2 300b 	ldrd	r3, r0, [r2, #44]	; 0x2c
  uint32_t isr = I2CD1.i2c->ISR;
 80017d6:	6981      	ldr	r1, [r0, #24]
OSAL_IRQ_HANDLER(STM32_I2C1_ERROR_HANDLER) {
 80017d8:	b470      	push	{r4, r5, r6}
  I2CD1.i2c->ICR = isr & I2C_ERROR_MASK;
 80017da:	f401 547c 	and.w	r4, r1, #16128	; 0x3f00
 80017de:	61c4      	str	r4, [r0, #28]
  dmaStreamDisable(i2cp->dmatx);
 80017e0:	685c      	ldr	r4, [r3, #4]
 80017e2:	6820      	ldr	r0, [r4, #0]
 80017e4:	f020 000f 	bic.w	r0, r0, #15
 80017e8:	6020      	str	r0, [r4, #0]
 80017ea:	7b58      	ldrb	r0, [r3, #13]
 80017ec:	681c      	ldr	r4, [r3, #0]
 80017ee:	230e      	movs	r3, #14
 80017f0:	fa03 f000 	lsl.w	r0, r3, r0
 80017f4:	6060      	str	r0, [r4, #4]
  dmaStreamDisable(i2cp->dmarx);
 80017f6:	6a90      	ldr	r0, [r2, #40]	; 0x28
 80017f8:	e9d0 6500 	ldrd	r6, r5, [r0]
 80017fc:	682c      	ldr	r4, [r5, #0]
 80017fe:	f024 040f 	bic.w	r4, r4, #15
 8001802:	602c      	str	r4, [r5, #0]
 8001804:	7b40      	ldrb	r0, [r0, #13]
 8001806:	4083      	lsls	r3, r0
 8001808:	6073      	str	r3, [r6, #4]
    i2cp->errors |= I2C_BUS_ERROR;
 800180a:	6893      	ldr	r3, [r2, #8]
  if (isr & I2C_ISR_BERR)
 800180c:	05ce      	lsls	r6, r1, #23
    i2cp->errors |= I2C_BUS_ERROR;
 800180e:	bf44      	itt	mi
 8001810:	f043 0301 	orrmi.w	r3, r3, #1
 8001814:	6093      	strmi	r3, [r2, #8]
  if (isr & I2C_ISR_ARLO)
 8001816:	058d      	lsls	r5, r1, #22
    i2cp->errors |= I2C_ARBITRATION_LOST;
 8001818:	bf44      	itt	mi
 800181a:	f043 0302 	orrmi.w	r3, r3, #2
 800181e:	6093      	strmi	r3, [r2, #8]
  if (isr & I2C_ISR_OVR)
 8001820:	054c      	lsls	r4, r1, #21
 8001822:	d524      	bpl.n	800186e <VectorC0+0x9e>
    i2cp->errors |= I2C_OVERRUN;
 8001824:	f043 0308 	orr.w	r3, r3, #8
  if (isr & I2C_ISR_TIMEOUT)
 8001828:	04c8      	lsls	r0, r1, #19
    i2cp->errors |= I2C_OVERRUN;
 800182a:	6093      	str	r3, [r2, #8]
  if (isr & I2C_ISR_TIMEOUT)
 800182c:	d502      	bpl.n	8001834 <VectorC0+0x64>
    i2cp->errors |= I2C_TIMEOUT;
 800182e:	f043 0320 	orr.w	r3, r3, #32
 8001832:	6093      	str	r3, [r2, #8]
  __ASM volatile ("MSR basepri, %0" : : "r" (basePri) : "memory");
 8001834:	2320      	movs	r3, #32
 8001836:	f383 8811 	msr	BASEPRI, r3
  if (*trp != NULL) {
 800183a:	69d1      	ldr	r1, [r2, #28]
 800183c:	b189      	cbz	r1, 8001862 <VectorC0+0x92>
    tp->u.rdymsg = msg;
 800183e:	f06f 0301 	mvn.w	r3, #1
    *trp = NULL;
 8001842:	2400      	movs	r4, #0
    tp->u.rdymsg = msg;
 8001844:	624b      	str	r3, [r1, #36]	; 0x24
  cp = (thread_t *)&ch.rlist.queue;
 8001846:	4b0e      	ldr	r3, [pc, #56]	; (8001880 <VectorC0+0xb0>)
  } while (cp->prio >= tp->prio);
 8001848:	6888      	ldr	r0, [r1, #8]
  tp->state = CH_STATE_READY;
 800184a:	f881 4020 	strb.w	r4, [r1, #32]
    *trp = NULL;
 800184e:	61d4      	str	r4, [r2, #28]
    cp = cp->queue.next;
 8001850:	681b      	ldr	r3, [r3, #0]
  } while (cp->prio >= tp->prio);
 8001852:	689a      	ldr	r2, [r3, #8]
 8001854:	4282      	cmp	r2, r0
 8001856:	d2fb      	bcs.n	8001850 <VectorC0+0x80>
  tp->queue.prev             = cp->queue.prev;
 8001858:	685a      	ldr	r2, [r3, #4]
 800185a:	e9c1 3200 	strd	r3, r2, [r1]
  tp->queue.prev->queue.next = tp;
 800185e:	6011      	str	r1, [r2, #0]
  cp->queue.prev             = tp;
 8001860:	6059      	str	r1, [r3, #4]
 8001862:	2300      	movs	r3, #0
 8001864:	f383 8811 	msr	BASEPRI, r3
}
 8001868:	bc70      	pop	{r4, r5, r6}
  OSAL_IRQ_EPILOGUE();
 800186a:	f7fe bdc1 	b.w	80003f0 <_port_irq_epilogue>
  if (isr & I2C_ISR_TIMEOUT)
 800186e:	04c9      	lsls	r1, r1, #19
 8001870:	d4dd      	bmi.n	800182e <VectorC0+0x5e>
  if (i2cp->errors != I2C_NO_ERROR)
 8001872:	2b00      	cmp	r3, #0
 8001874:	d1de      	bne.n	8001834 <VectorC0+0x64>
}
 8001876:	bc70      	pop	{r4, r5, r6}
  OSAL_IRQ_EPILOGUE();
 8001878:	f7fe bdba 	b.w	80003f0 <_port_irq_epilogue>
 800187c:	20000800 	.word	0x20000800
 8001880:	20000894 	.word	0x20000894
	...

08001890 <VectorB0>:
/**
 * @brief   Interrupt handler.
 *
 * @isr
 */
OSAL_IRQ_HANDLER(ST_HANDLER) {
 8001890:	e92d 43f8 	stmdb	sp!, {r3, r4, r5, r6, r7, r8, r9, lr}
void st_lld_serve_interrupt(void) {
#if OSAL_ST_MODE == OSAL_ST_MODE_FREERUNNING
  uint32_t sr;
  stm32_tim_t *timp = STM32_ST_TIM;

  sr  = timp->SR;
 8001894:	f04f 4680 	mov.w	r6, #1073741824	; 0x40000000
 8001898:	6933      	ldr	r3, [r6, #16]
  sr &= timp->DIER & STM32_TIM_DIER_IRQ_MASK;
 800189a:	68f2      	ldr	r2, [r6, #12]
 800189c:	4013      	ands	r3, r2
 800189e:	b2da      	uxtb	r2, r3
  timp->SR = ~sr;
 80018a0:	43d2      	mvns	r2, r2

  if ((sr & TIM_SR_CC1IF) != 0U)
 80018a2:	079b      	lsls	r3, r3, #30
  timp->SR = ~sr;
 80018a4:	6132      	str	r2, [r6, #16]
  if ((sr & TIM_SR_CC1IF) != 0U)
 80018a6:	d403      	bmi.n	80018b0 <VectorB0+0x20>
}
 80018a8:	e8bd 43f8 	ldmia.w	sp!, {r3, r4, r5, r6, r7, r8, r9, lr}
  OSAL_IRQ_EPILOGUE();
 80018ac:	f7fe bda0 	b.w	80003f0 <_port_irq_epilogue>
 80018b0:	2320      	movs	r3, #32
 80018b2:	f383 8811 	msr	BASEPRI, r3
  virtual_timer_t *vtp;
  systime_t now;
  sysinterval_t delta, nowdelta;

  /* Looping through timers.*/
  vtp = ch.vtlist.next;
 80018b6:	4c21      	ldr	r4, [pc, #132]	; (800193c <VectorB0+0xac>)
 80018b8:	6a70      	ldr	r0, [r6, #36]	; 0x24
 80018ba:	69e3      	ldr	r3, [r4, #28]
  while (true) {

    /* Getting the system time as reference.*/
    now = chVTGetSystemTimeX();
    nowdelta = chTimeDiffX(ch.vtlist.lasttime, now);
 80018bc:	6aa2      	ldr	r2, [r4, #40]	; 0x28

    /* The list scan is limited by the timers header having
       "ch.vtlist.vt_delta == (sysinterval_t)-1" which is
       greater than all deltas.*/
    if (nowdelta < vtp->delta) {
 80018be:	6899      	ldr	r1, [r3, #8]
  return (sysinterval_t)((systime_t)(end - start));
 80018c0:	1a87      	subs	r7, r0, r2
 80018c2:	42b9      	cmp	r1, r7
 80018c4:	f104 091c 	add.w	r9, r4, #28
      nowdelta -= vtp->delta;

      vtp->next->prev = (virtual_timer_t *)&ch.vtlist;
      ch.vtlist.next = vtp->next;
      fn = vtp->func;
      vtp->func = NULL;
 80018c8:	bf98      	it	ls
 80018ca:	f04f 0800 	movls.w	r8, #0
    if (nowdelta < vtp->delta) {
 80018ce:	d820      	bhi.n	8001912 <VectorB0+0x82>
 80018d0:	2520      	movs	r5, #32
 80018d2:	e000      	b.n	80018d6 <VectorB0+0x46>
      ch.vtlist.lasttime += vtp->delta;
 80018d4:	6aa2      	ldr	r2, [r4, #40]	; 0x28
      vtp->next->prev = (virtual_timer_t *)&ch.vtlist;
 80018d6:	6818      	ldr	r0, [r3, #0]
      ch.vtlist.lasttime += vtp->delta;
 80018d8:	440a      	add	r2, r1

      /* If the list becomes empty then the timer is stopped.*/
      if (ch.vtlist.next == (virtual_timer_t *)&ch.vtlist) {
 80018da:	4548      	cmp	r0, r9
      ch.vtlist.lasttime += vtp->delta;
 80018dc:	62a2      	str	r2, [r4, #40]	; 0x28
      nowdelta -= vtp->delta;
 80018de:	eba7 0701 	sub.w	r7, r7, r1
      fn = vtp->func;
 80018e2:	68da      	ldr	r2, [r3, #12]
      vtp->next->prev = (virtual_timer_t *)&ch.vtlist;
 80018e4:	f8c0 9004 	str.w	r9, [r0, #4]
      ch.vtlist.next = vtp->next;
 80018e8:	61e0      	str	r0, [r4, #28]
      vtp->func = NULL;
 80018ea:	f8c3 800c 	str.w	r8, [r3, #12]
  STM32_ST_TIM->DIER = 0U;
 80018ee:	bf08      	it	eq
 80018f0:	f8c6 800c 	streq.w	r8, [r6, #12]
 80018f4:	f388 8811 	msr	BASEPRI, r8
        port_timer_stop_alarm();
      }

      /* The callback is invoked outside the kernel critical zone.*/
      chSysUnlockFromISR();
      fn(vtp->par);
 80018f8:	6918      	ldr	r0, [r3, #16]
 80018fa:	4790      	blx	r2
 80018fc:	f385 8811 	msr	BASEPRI, r5
      chSysLockFromISR();

      /* Next element in the list.*/
      vtp = ch.vtlist.next;
 8001900:	69e3      	ldr	r3, [r4, #28]
    }
    while (vtp->delta <= nowdelta);
 8001902:	6899      	ldr	r1, [r3, #8]
 8001904:	428f      	cmp	r7, r1
 8001906:	d2e5      	bcs.n	80018d4 <VectorB0+0x44>
  return (systime_t)STM32_ST_TIM->CNT;
 8001908:	6a70      	ldr	r0, [r6, #36]	; 0x24
    nowdelta = chTimeDiffX(ch.vtlist.lasttime, now);
 800190a:	6aa2      	ldr	r2, [r4, #40]	; 0x28
 800190c:	1a87      	subs	r7, r0, r2
    if (nowdelta < vtp->delta) {
 800190e:	428f      	cmp	r7, r1
 8001910:	d2de      	bcs.n	80018d0 <VectorB0+0x40>
  }

  /* If the list is empty, nothing else to do.*/
  if (ch.vtlist.next == (virtual_timer_t *)&ch.vtlist) {
 8001912:	454b      	cmp	r3, r9
 8001914:	d00b      	beq.n	800192e <VectorB0+0x9e>
  }

  /* The "unprocessed nowdelta" time slice is added to "last time"
     and subtracted to next timer's delta.*/
  ch.vtlist.lasttime += nowdelta;
  ch.vtlist.next->delta -= nowdelta;
 8001916:	6899      	ldr	r1, [r3, #8]
  ch.vtlist.lasttime += nowdelta;
 8001918:	62a0      	str	r0, [r4, #40]	; 0x28
  ch.vtlist.next->delta -= nowdelta;
 800191a:	1a09      	subs	r1, r1, r0
 800191c:	440a      	add	r2, r1
  STM32_ST_TIM->CCR[0] = (uint32_t)abstime;
 800191e:	f04f 4180 	mov.w	r1, #1073741824	; 0x40000000
  return systime + (systime_t)interval;
 8001922:	2a02      	cmp	r2, #2
 8001924:	bf2c      	ite	cs
 8001926:	1880      	addcs	r0, r0, r2
 8001928:	3002      	addcc	r0, #2
 800192a:	609a      	str	r2, [r3, #8]
 800192c:	6348      	str	r0, [r1, #52]	; 0x34
 800192e:	2300      	movs	r3, #0
 8001930:	f383 8811 	msr	BASEPRI, r3
}
 8001934:	e8bd 43f8 	ldmia.w	sp!, {r3, r4, r5, r6, r7, r8, r9, lr}
  OSAL_IRQ_EPILOGUE();
 8001938:	f7fe bd5a 	b.w	80003f0 <_port_irq_epilogue>
 800193c:	20000894 	.word	0x20000894

08001940 <VectorD8>:
/**
 * @brief   USART2 interrupt handler.
 *
 * @isr
 */
OSAL_IRQ_HANDLER(STM32_USART2_HANDLER) {
 8001940:	e92d 47f0 	stmdb	sp!, {r4, r5, r6, r7, r8, r9, sl, lr}
 * @brief   Common IRQ handler.
 *
 * @param[in] sdp       communication channel associated to the USART
 */
void sd_lld_serve_interrupt(SerialDriver *sdp) {
  USART_TypeDef *u = sdp->usart;
 8001944:	4c7f      	ldr	r4, [pc, #508]	; (8001b44 <VectorD8+0x204>)
 8001946:	f8d4 8054 	ldr.w	r8, [r4, #84]	; 0x54
  uint32_t cr1 = u->CR1;
 800194a:	f8d8 5000 	ldr.w	r5, [r8]
  uint32_t isr;

  /* Reading and clearing status.*/
  isr = u->ISR;
 800194e:	f8d8 601c 	ldr.w	r6, [r8, #28]
  u->ICR = isr;
 8001952:	f8c8 6020 	str.w	r6, [r8, #32]

  /* Error condition detection.*/
  if (isr & (USART_ISR_ORE | USART_ISR_NE | USART_ISR_FE  | USART_ISR_PE))
 8001956:	0731      	lsls	r1, r6, #28
 8001958:	f040 80bb 	bne.w	8001ad2 <VectorD8+0x192>
    set_error(sdp, isr);

  /* Special case, LIN break detection.*/
  if (isr & USART_ISR_LBDF) {
 800195c:	05f1      	lsls	r1, r6, #23
 800195e:	f100 80ad 	bmi.w	8001abc <VectorD8+0x17c>
  /* Data available, note it is a while in order to handle two situations:
     1) Another byte arrived after removing the previous one, this would cause
        an extra interrupt to serve.
     2) FIFO mode is enabled on devices that support it, we need to empty
        the FIFO.*/
  while (isr & USART_ISR_RXNE) {
 8001962:	06b2      	lsls	r2, r6, #26
 8001964:	d53a      	bpl.n	80019dc <VectorD8+0x9c>
 *
 * @iclass
 */
void chThdDequeueNextI(threads_queue_t *tqp, msg_t msg) {

  if (queue_notempty(tqp)) {
 8001966:	f8df a1e0 	ldr.w	sl, [pc, #480]	; 8001b48 <VectorD8+0x208>
 800196a:	2720      	movs	r7, #32

  tp = queue_fifo_remove(tqp);

  chDbgAssert(tp->state == CH_STATE_QUEUED, "invalid state");

  tp->u.rdymsg = msg;
 800196c:	f04f 0900 	mov.w	r9, #0
 8001970:	f387 8811 	msr	BASEPRI, r7
    osalSysLockFromISR();
    sdIncomingDataI(sdp, (uint8_t)u->RDR & sdp->rxmask);
 8001974:	f8b8 2024 	ldrh.w	r2, [r8, #36]	; 0x24
 8001978:	f894 605c 	ldrb.w	r6, [r4, #92]	; 0x5c
void sdIncomingDataI(SerialDriver *sdp, uint8_t b) {

  osalDbgCheckClassI();
  osalDbgCheck(sdp != NULL);

  if (iqIsEmptyI(&sdp->iqueue))
 800197c:	6963      	ldr	r3, [r4, #20]
 800197e:	4016      	ands	r6, r2
 8001980:	2b00      	cmp	r3, #0
 8001982:	d073      	beq.n	8001a6c <VectorD8+0x12c>
  if (!iqIsFullI(iqp)) {
 8001984:	e9d4 2308 	ldrd	r2, r3, [r4, #32]
 8001988:	429a      	cmp	r2, r3
 800198a:	d076      	beq.n	8001a7a <VectorD8+0x13a>
    iqp->q_counter++;
 800198c:	6963      	ldr	r3, [r4, #20]
    *iqp->q_wrptr++ = b;
 800198e:	1c51      	adds	r1, r2, #1
    iqp->q_counter++;
 8001990:	3301      	adds	r3, #1
    *iqp->q_wrptr++ = b;
 8001992:	6221      	str	r1, [r4, #32]
    iqp->q_counter++;
 8001994:	6163      	str	r3, [r4, #20]
    *iqp->q_wrptr++ = b;
 8001996:	7016      	strb	r6, [r2, #0]
    if (iqp->q_wrptr >= iqp->q_top) {
 8001998:	e9d4 3207 	ldrd	r3, r2, [r4, #28]
 800199c:	429a      	cmp	r2, r3
 800199e:	d301      	bcc.n	80019a4 <VectorD8+0x64>
      iqp->q_wrptr = iqp->q_buffer;
 80019a0:	69a3      	ldr	r3, [r4, #24]
 80019a2:	6223      	str	r3, [r4, #32]
  return (bool)(tqp->next != (const thread_t *)tqp);
 80019a4:	68e1      	ldr	r1, [r4, #12]
 80019a6:	4551      	cmp	r1, sl
 80019a8:	d012      	beq.n	80019d0 <VectorD8+0x90>
  tqp->next             = tp->queue.next;
 80019aa:	680a      	ldr	r2, [r1, #0]
  cp = (thread_t *)&ch.rlist.queue;
 80019ac:	4b67      	ldr	r3, [pc, #412]	; (8001b4c <VectorD8+0x20c>)
  } while (cp->prio >= tp->prio);
 80019ae:	6888      	ldr	r0, [r1, #8]
 80019b0:	60e2      	str	r2, [r4, #12]
  tqp->next->queue.prev = (thread_t *)tqp;
 80019b2:	f8c2 a004 	str.w	sl, [r2, #4]
 80019b6:	f8c1 9024 	str.w	r9, [r1, #36]	; 0x24
  tp->state = CH_STATE_READY;
 80019ba:	f881 9020 	strb.w	r9, [r1, #32]
    cp = cp->queue.next;
 80019be:	681b      	ldr	r3, [r3, #0]
  } while (cp->prio >= tp->prio);
 80019c0:	689a      	ldr	r2, [r3, #8]
 80019c2:	4282      	cmp	r2, r0
 80019c4:	d2fb      	bcs.n	80019be <VectorD8+0x7e>
  tp->queue.prev             = cp->queue.prev;
 80019c6:	685a      	ldr	r2, [r3, #4]
 80019c8:	e9c1 3200 	strd	r3, r2, [r1]
  tp->queue.prev->queue.next = tp;
 80019cc:	6011      	str	r1, [r2, #0]
  cp->queue.prev             = tp;
 80019ce:	6059      	str	r1, [r3, #4]
 80019d0:	f389 8811 	msr	BASEPRI, r9
    osalSysUnlockFromISR();

    isr = u->ISR;
 80019d4:	f8d8 601c 	ldr.w	r6, [r8, #28]
  while (isr & USART_ISR_RXNE) {
 80019d8:	06b3      	lsls	r3, r6, #26
 80019da:	d4c9      	bmi.n	8001970 <VectorD8+0x30>
     situations:
     1) The data registers has been emptied immediately after writing it, this
        would cause an extra interrupt to serve.
     2) FIFO mode is enabled on devices that support it, we need to fill
        the FIFO.*/
  if (cr1 & USART_CR1_TXEIE) {
 80019dc:	062f      	lsls	r7, r5, #24
 80019de:	d535      	bpl.n	8001a4c <VectorD8+0x10c>
    while (isr & USART_ISR_TXE) {
 80019e0:	0630      	lsls	r0, r6, #24
 80019e2:	d533      	bpl.n	8001a4c <VectorD8+0x10c>
 80019e4:	f8df c168 	ldr.w	ip, [pc, #360]	; 8001b50 <VectorD8+0x210>
 80019e8:	f04f 0e20 	mov.w	lr, #32
 80019ec:	2700      	movs	r7, #0
 80019ee:	f38e 8811 	msr	BASEPRI, lr
  if (!oqIsEmptyI(oqp)) {
 80019f2:	e9d4 2311 	ldrd	r2, r3, [r4, #68]	; 0x44
 80019f6:	429a      	cmp	r2, r3
 80019f8:	d052      	beq.n	8001aa0 <VectorD8+0x160>
    oqp->q_counter++;
 80019fa:	6ba1      	ldr	r1, [r4, #56]	; 0x38
    if (oqp->q_rdptr >= oqp->q_top) {
 80019fc:	6c22      	ldr	r2, [r4, #64]	; 0x40
    b = *oqp->q_rdptr++;
 80019fe:	1c58      	adds	r0, r3, #1
    oqp->q_counter++;
 8001a00:	3101      	adds	r1, #1
 8001a02:	63a1      	str	r1, [r4, #56]	; 0x38
    b = *oqp->q_rdptr++;
 8001a04:	64a0      	str	r0, [r4, #72]	; 0x48
    if (oqp->q_rdptr >= oqp->q_top) {
 8001a06:	4290      	cmp	r0, r2
    b = *oqp->q_rdptr++;
 8001a08:	781e      	ldrb	r6, [r3, #0]
    if (oqp->q_rdptr >= oqp->q_top) {
 8001a0a:	d301      	bcc.n	8001a10 <VectorD8+0xd0>
      oqp->q_rdptr = oqp->q_buffer;
 8001a0c:	6be3      	ldr	r3, [r4, #60]	; 0x3c
 8001a0e:	64a3      	str	r3, [r4, #72]	; 0x48
  return (bool)(tqp->next != (const thread_t *)tqp);
 8001a10:	6b21      	ldr	r1, [r4, #48]	; 0x30
 8001a12:	4561      	cmp	r1, ip
 8001a14:	d011      	beq.n	8001a3a <VectorD8+0xfa>
  tqp->next             = tp->queue.next;
 8001a16:	680b      	ldr	r3, [r1, #0]
  } while (cp->prio >= tp->prio);
 8001a18:	6888      	ldr	r0, [r1, #8]
 8001a1a:	6323      	str	r3, [r4, #48]	; 0x30
  tqp->next->queue.prev = (thread_t *)tqp;
 8001a1c:	f8c3 c004 	str.w	ip, [r3, #4]
  cp = (thread_t *)&ch.rlist.queue;
 8001a20:	4b4a      	ldr	r3, [pc, #296]	; (8001b4c <VectorD8+0x20c>)
 8001a22:	624f      	str	r7, [r1, #36]	; 0x24
  tp->state = CH_STATE_READY;
 8001a24:	f881 7020 	strb.w	r7, [r1, #32]
    cp = cp->queue.next;
 8001a28:	681b      	ldr	r3, [r3, #0]
  } while (cp->prio >= tp->prio);
 8001a2a:	689a      	ldr	r2, [r3, #8]
 8001a2c:	4282      	cmp	r2, r0
 8001a2e:	d2fb      	bcs.n	8001a28 <VectorD8+0xe8>
  tp->queue.prev             = cp->queue.prev;
 8001a30:	685a      	ldr	r2, [r3, #4]
 8001a32:	e9c1 3200 	strd	r3, r2, [r1]
  tp->queue.prev->queue.next = tp;
 8001a36:	6011      	str	r1, [r2, #0]
  cp->queue.prev             = tp;
 8001a38:	6059      	str	r1, [r3, #4]
        chnAddFlagsI(sdp, CHN_OUTPUT_EMPTY);
        u->CR1 = cr1 & ~USART_CR1_TXEIE;
        osalSysUnlockFromISR();
        break;
      }
      u->TDR = b;
 8001a3a:	b2b6      	uxth	r6, r6
 8001a3c:	f8a8 6028 	strh.w	r6, [r8, #40]	; 0x28
 8001a40:	f387 8811 	msr	BASEPRI, r7
      osalSysUnlockFromISR();

      isr = u->ISR;
 8001a44:	f8d8 601c 	ldr.w	r6, [r8, #28]
    while (isr & USART_ISR_TXE) {
 8001a48:	0633      	lsls	r3, r6, #24
 8001a4a:	d4d0      	bmi.n	80019ee <VectorD8+0xae>
    }
  }

  /* Physical transmission end.*/
  if ((cr1 & USART_CR1_TCIE) && (isr & USART_ISR_TC)) {
 8001a4c:	0669      	lsls	r1, r5, #25
 8001a4e:	d501      	bpl.n	8001a54 <VectorD8+0x114>
 8001a50:	0672      	lsls	r2, r6, #25
 8001a52:	d41a      	bmi.n	8001a8a <VectorD8+0x14a>
 8001a54:	2320      	movs	r3, #32
 8001a56:	f383 8811 	msr	BASEPRI, r3
  if ((SCB->ICSR & SCB_ICSR_RETTOBASE_Msk) != 0U) {
 8001a5a:	4b3e      	ldr	r3, [pc, #248]	; (8001b54 <VectorD8+0x214>)
 8001a5c:	685b      	ldr	r3, [r3, #4]
 8001a5e:	f413 6300 	ands.w	r3, r3, #2048	; 0x800
 8001a62:	d14f      	bne.n	8001b04 <VectorD8+0x1c4>
 8001a64:	f383 8811 	msr	BASEPRI, r3
}
 8001a68:	e8bd 87f0 	ldmia.w	sp!, {r4, r5, r6, r7, r8, r9, sl, pc}
 * @iclass
 */
static inline void osalEventBroadcastFlagsI(event_source_t *esp,
                                            eventflags_t flags) {

  chEvtBroadcastFlagsI(esp, flags);
 8001a6c:	2004      	movs	r0, #4
 8001a6e:	f7fe fda7 	bl	80005c0 <chEvtBroadcastFlagsI.constprop.0>
  if (!iqIsFullI(iqp)) {
 8001a72:	e9d4 2308 	ldrd	r2, r3, [r4, #32]
 8001a76:	429a      	cmp	r2, r3
 8001a78:	d188      	bne.n	800198c <VectorD8+0x4c>
 8001a7a:	6963      	ldr	r3, [r4, #20]
 8001a7c:	2b00      	cmp	r3, #0
 8001a7e:	d085      	beq.n	800198c <VectorD8+0x4c>
 8001a80:	f44f 6080 	mov.w	r0, #1024	; 0x400
 8001a84:	f7fe fd9c 	bl	80005c0 <chEvtBroadcastFlagsI.constprop.0>
}
 8001a88:	e7a2      	b.n	80019d0 <VectorD8+0x90>
 8001a8a:	2320      	movs	r3, #32
 8001a8c:	f383 8811 	msr	BASEPRI, r3
    osalSysLockFromISR();
    if (oqIsEmptyI(&sdp->oqueue)) {
 8001a90:	e9d4 2311 	ldrd	r2, r3, [r4, #68]	; 0x44
 8001a94:	429a      	cmp	r2, r3
 8001a96:	d049      	beq.n	8001b2c <VectorD8+0x1ec>
 8001a98:	2300      	movs	r3, #0
 8001a9a:	f383 8811 	msr	BASEPRI, r3
}
 8001a9e:	e7d9      	b.n	8001a54 <VectorD8+0x114>
  if (!oqIsEmptyI(oqp)) {
 8001aa0:	6ba2      	ldr	r2, [r4, #56]	; 0x38
 8001aa2:	2a00      	cmp	r2, #0
 8001aa4:	d0a9      	beq.n	80019fa <VectorD8+0xba>
  chEvtBroadcastFlagsI(esp, flags);
 8001aa6:	2008      	movs	r0, #8
 8001aa8:	f7fe fd8a 	bl	80005c0 <chEvtBroadcastFlagsI.constprop.0>
        u->CR1 = cr1 & ~USART_CR1_TXEIE;
 8001aac:	f025 0380 	bic.w	r3, r5, #128	; 0x80
 8001ab0:	f8c8 3000 	str.w	r3, [r8]
 8001ab4:	2300      	movs	r3, #0
 8001ab6:	f383 8811 	msr	BASEPRI, r3
}
 8001aba:	e7c7      	b.n	8001a4c <VectorD8+0x10c>
 8001abc:	2320      	movs	r3, #32
 8001abe:	f383 8811 	msr	BASEPRI, r3
  chEvtBroadcastFlagsI(esp, flags);
 8001ac2:	f44f 7000 	mov.w	r0, #512	; 0x200
 8001ac6:	f7fe fd7b 	bl	80005c0 <chEvtBroadcastFlagsI.constprop.0>
 8001aca:	2300      	movs	r3, #0
 8001acc:	f383 8811 	msr	BASEPRI, r3
}
 8001ad0:	e747      	b.n	8001962 <VectorD8+0x22>
    sts |= SD_OVERRUN_ERROR;
 8001ad2:	f016 0008 	ands.w	r0, r6, #8
 8001ad6:	bf18      	it	ne
 8001ad8:	2080      	movne	r0, #128	; 0x80
  if (isr & USART_ISR_PE)
 8001ada:	07f2      	lsls	r2, r6, #31
    sts |= SD_PARITY_ERROR;
 8001adc:	bf48      	it	mi
 8001ade:	f040 0020 	orrmi.w	r0, r0, #32
  if (isr & USART_ISR_FE)
 8001ae2:	07b3      	lsls	r3, r6, #30
    sts |= SD_FRAMING_ERROR;
 8001ae4:	bf48      	it	mi
 8001ae6:	f040 0040 	orrmi.w	r0, r0, #64	; 0x40
  if (isr & USART_ISR_NE)
 8001aea:	0777      	lsls	r7, r6, #29
    sts |= SD_NOISE_ERROR;
 8001aec:	bf48      	it	mi
 8001aee:	f440 7080 	orrmi.w	r0, r0, #256	; 0x100
 8001af2:	2320      	movs	r3, #32
 8001af4:	f383 8811 	msr	BASEPRI, r3
  chEvtBroadcastFlagsI(esp, flags);
 8001af8:	f7fe fd62 	bl	80005c0 <chEvtBroadcastFlagsI.constprop.0>
 8001afc:	2300      	movs	r3, #0
 8001afe:	f383 8811 	msr	BASEPRI, r3
}
 8001b02:	e72b      	b.n	800195c <VectorD8+0x1c>
  __ASM volatile ("MRS %0, psp"  : "=r" (result) );
 8001b04:	f3ef 8309 	mrs	r3, PSP
    s_psp -= sizeof (struct port_extctx);
 8001b08:	3b20      	subs	r3, #32
    ectxp->xpsr = 0x01000000U;
 8001b0a:	f04f 7280 	mov.w	r2, #16777216	; 0x1000000
 8001b0e:	61da      	str	r2, [r3, #28]
  __ASM volatile ("MSR psp, %0" : : "r" (topOfProcStack) : );
 8001b10:	f383 8809 	msr	PSP, r3
  tprio_t p1 = firstprio(&ch.rlist.queue);
 8001b14:	4a0d      	ldr	r2, [pc, #52]	; (8001b4c <VectorD8+0x20c>)
 8001b16:	6811      	ldr	r1, [r2, #0]
  tprio_t p2 = currp->prio;
 8001b18:	6992      	ldr	r2, [r2, #24]
    if (chSchIsPreemptionRequired()) {
 8001b1a:	6889      	ldr	r1, [r1, #8]
 8001b1c:	6892      	ldr	r2, [r2, #8]
 8001b1e:	4291      	cmp	r1, r2
      ectxp->pc = (uint32_t)_port_switch_from_isr;
 8001b20:	bf8c      	ite	hi
 8001b22:	4a0d      	ldrhi	r2, [pc, #52]	; (8001b58 <VectorD8+0x218>)
      ectxp->pc = (uint32_t)_port_exit_from_isr;
 8001b24:	4a0d      	ldrls	r2, [pc, #52]	; (8001b5c <VectorD8+0x21c>)
 8001b26:	619a      	str	r2, [r3, #24]
}
 8001b28:	e8bd 87f0 	ldmia.w	sp!, {r4, r5, r6, r7, r8, r9, sl, pc}
    if (oqIsEmptyI(&sdp->oqueue)) {
 8001b2c:	6ba3      	ldr	r3, [r4, #56]	; 0x38
 8001b2e:	2b00      	cmp	r3, #0
 8001b30:	d0b2      	beq.n	8001a98 <VectorD8+0x158>
 8001b32:	2010      	movs	r0, #16
      chnAddFlagsI(sdp, CHN_TRANSMISSION_END);
      u->CR1 = cr1 & ~USART_CR1_TCIE;
 8001b34:	f025 0540 	bic.w	r5, r5, #64	; 0x40
 8001b38:	f7fe fd42 	bl	80005c0 <chEvtBroadcastFlagsI.constprop.0>
 8001b3c:	f8c8 5000 	str.w	r5, [r8]
 8001b40:	e7aa      	b.n	8001a98 <VectorD8+0x158>
 8001b42:	bf00      	nop
 8001b44:	20000834 	.word	0x20000834
 8001b48:	20000840 	.word	0x20000840
 8001b4c:	20000894 	.word	0x20000894
 8001b50:	20000864 	.word	0x20000864
 8001b54:	e000ed00 	.word	0xe000ed00
 8001b58:	080002a3 	.word	0x080002a3
 8001b5c:	080002a6 	.word	0x080002a6

08001b60 <__early_init>:

static void stm32_gpio_init(void) {

  /* Enabling GPIO-related clocks, the mask comes from the
     registry header file.*/
  rccResetAHB(STM32_GPIO_EN_MASK);
 8001b60:	4b62      	ldr	r3, [pc, #392]	; (8001cec <__early_init+0x18c>)
 8001b62:	6a98      	ldr	r0, [r3, #40]	; 0x28
 8001b64:	f440 00fc 	orr.w	r0, r0, #8257536	; 0x7e0000
/**
 * @brief   Early initialization code.
 * @details GPIO ports and system clocks are initialized before everything
 *          else.
 */
void __early_init(void) {
 8001b68:	b4f0      	push	{r4, r5, r6, r7}
  rccResetAHB(STM32_GPIO_EN_MASK);
 8001b6a:	6298      	str	r0, [r3, #40]	; 0x28
 8001b6c:	6a98      	ldr	r0, [r3, #40]	; 0x28
  gpiop->OSPEEDR = config->ospeedr;
 8001b6e:	4d60      	ldr	r5, [pc, #384]	; (8001cf0 <__early_init+0x190>)
  rccResetAHB(STM32_GPIO_EN_MASK);
 8001b70:	f420 00fc 	bic.w	r0, r0, #8257536	; 0x7e0000
 8001b74:	6298      	str	r0, [r3, #40]	; 0x28
 8001b76:	6a98      	ldr	r0, [r3, #40]	; 0x28
  rccEnableAHB(STM32_GPIO_EN_MASK, true);
 8001b78:	6958      	ldr	r0, [r3, #20]
  gpiop->OTYPER  = config->otyper;
 8001b7a:	f04f 4190 	mov.w	r1, #1207959552	; 0x48000000
  rccEnableAHB(STM32_GPIO_EN_MASK, true);
 8001b7e:	f440 00fc 	orr.w	r0, r0, #8257536	; 0x7e0000
 8001b82:	6158      	str	r0, [r3, #20]
  gpiop->OTYPER  = config->otyper;
 8001b84:	2200      	movs	r2, #0
  gpiop->PUPDR   = config->pupdr;
 8001b86:	485b      	ldr	r0, [pc, #364]	; (8001cf4 <__early_init+0x194>)
  rccEnableAHB(STM32_GPIO_EN_MASK, true);
 8001b88:	695e      	ldr	r6, [r3, #20]
  gpiop->OTYPER  = config->otyper;
 8001b8a:	604a      	str	r2, [r1, #4]
  gpiop->ODR     = config->odr;
 8001b8c:	f64f 74ff 	movw	r4, #65535	; 0xffff
  gpiop->OSPEEDR = config->ospeedr;
 8001b90:	608d      	str	r5, [r1, #8]
  gpiop->PUPDR   = config->pupdr;
 8001b92:	60c8      	str	r0, [r1, #12]
  gpiop->AFRL    = config->afrl;
 8001b94:	4858      	ldr	r0, [pc, #352]	; (8001cf8 <__early_init+0x198>)
  gpiop->ODR     = config->odr;
 8001b96:	614c      	str	r4, [r1, #20]
  gpiop->AFRL    = config->afrl;
 8001b98:	6208      	str	r0, [r1, #32]
  gpiop->AFRH    = config->afrh;
 8001b9a:	f44f 206e 	mov.w	r0, #974848	; 0xee000
 8001b9e:	6248      	str	r0, [r1, #36]	; 0x24
  gpiop->MODER   = config->moder;
 8001ba0:	4856      	ldr	r0, [pc, #344]	; (8001cfc <__early_init+0x19c>)
 8001ba2:	6008      	str	r0, [r1, #0]
  gpiop->OTYPER  = config->otyper;
 8001ba4:	20c0      	movs	r0, #192	; 0xc0
 8001ba6:	f8c1 0404 	str.w	r0, [r1, #1028]	; 0x404
  gpiop->OSPEEDR = config->ospeedr;
 8001baa:	f24f 00c0 	movw	r0, #61632	; 0xf0c0
 8001bae:	f8c1 0408 	str.w	r0, [r1, #1032]	; 0x408
  gpiop->PUPDR   = config->pupdr;
 8001bb2:	4853      	ldr	r0, [pc, #332]	; (8001d00 <__early_init+0x1a0>)
 8001bb4:	f8c1 040c 	str.w	r0, [r1, #1036]	; 0x40c
  gpiop->AFRL    = config->afrl;
 8001bb8:	f04f 4088 	mov.w	r0, #1140850688	; 0x44000000
  gpiop->ODR     = config->odr;
 8001bbc:	f8c1 4414 	str.w	r4, [r1, #1044]	; 0x414
  gpiop->AFRL    = config->afrl;
 8001bc0:	f8c1 0420 	str.w	r0, [r1, #1056]	; 0x420
  gpiop->MODER   = config->moder;
 8001bc4:	f24a 0080 	movw	r0, #41088	; 0xa080
  gpiop->AFRH    = config->afrh;
 8001bc8:	f8c1 2424 	str.w	r2, [r1, #1060]	; 0x424
  gpiop->MODER   = config->moder;
 8001bcc:	f8c1 0400 	str.w	r0, [r1, #1024]	; 0x400
  gpiop->OSPEEDR = config->ospeedr;
 8001bd0:	f04f 4070 	mov.w	r0, #4026531840	; 0xf0000000
  gpiop->OTYPER  = config->otyper;
 8001bd4:	f8c1 2804 	str.w	r2, [r1, #2052]	; 0x804
  gpiop->OSPEEDR = config->ospeedr;
 8001bd8:	f8c1 0808 	str.w	r0, [r1, #2056]	; 0x808
  gpiop->PUPDR   = config->pupdr;
 8001bdc:	4849      	ldr	r0, [pc, #292]	; (8001d04 <__early_init+0x1a4>)
 8001bde:	f8c1 080c 	str.w	r0, [r1, #2060]	; 0x80c
  gpiop->AFRL    = config->afrl;
 8001be2:	f44f 00ee 	mov.w	r0, #7798784	; 0x770000
  gpiop->ODR     = config->odr;
 8001be6:	f8c1 4814 	str.w	r4, [r1, #2068]	; 0x814
  gpiop->AFRL    = config->afrl;
 8001bea:	f8c1 0820 	str.w	r0, [r1, #2080]	; 0x820
  gpiop->MODER   = config->moder;
 8001bee:	f44f 6020 	mov.w	r0, #2560	; 0xa00
  gpiop->AFRH    = config->afrh;
 8001bf2:	f8c1 2824 	str.w	r2, [r1, #2084]	; 0x824
  gpiop->MODER   = config->moder;
 8001bf6:	f8c1 0800 	str.w	r0, [r1, #2048]	; 0x800
  gpiop->PUPDR   = config->pupdr;
 8001bfa:	f04f 3055 	mov.w	r0, #1431655765	; 0x55555555
  gpiop->OTYPER  = config->otyper;
 8001bfe:	f8c1 2c04 	str.w	r2, [r1, #3076]	; 0xc04
  gpiop->OSPEEDR = config->ospeedr;
 8001c02:	f8c1 2c08 	str.w	r2, [r1, #3080]	; 0xc08
  gpiop->PUPDR   = config->pupdr;
 8001c06:	f8c1 0c0c 	str.w	r0, [r1, #3084]	; 0xc0c
  gpiop->OTYPER  = config->otyper;
 8001c0a:	483f      	ldr	r0, [pc, #252]	; (8001d08 <__early_init+0x1a8>)
  gpiop->OSPEEDR = config->ospeedr;
 8001c0c:	4d3f      	ldr	r5, [pc, #252]	; (8001d0c <__early_init+0x1ac>)
  gpiop->ODR     = config->odr;
 8001c0e:	f8c1 4c14 	str.w	r4, [r1, #3092]	; 0xc14
  gpiop->OTYPER  = config->otyper;
 8001c12:	f501 6100 	add.w	r1, r1, #2048	; 0x800
  gpiop->MODER   = config->moder;
 8001c16:	4e3e      	ldr	r6, [pc, #248]	; (8001d10 <__early_init+0x1b0>)
  gpiop->AFRL    = config->afrl;
 8001c18:	f8c1 2420 	str.w	r2, [r1, #1056]	; 0x420
  gpiop->ODR     = config->odr;
 8001c1c:	27ff      	movs	r7, #255	; 0xff
  gpiop->AFRH    = config->afrh;
 8001c1e:	f8c1 2424 	str.w	r2, [r1, #1060]	; 0x424
  gpiop->MODER   = config->moder;
 8001c22:	f8c1 2400 	str.w	r2, [r1, #1024]	; 0x400
  gpiop->OTYPER  = config->otyper;
 8001c26:	6042      	str	r2, [r0, #4]
  gpiop->OSPEEDR = config->ospeedr;
 8001c28:	6085      	str	r5, [r0, #8]
  gpiop->PUPDR   = config->pupdr;
 8001c2a:	4d3a      	ldr	r5, [pc, #232]	; (8001d14 <__early_init+0x1b4>)
 8001c2c:	60c5      	str	r5, [r0, #12]
  gpiop->ODR     = config->odr;
 8001c2e:	6147      	str	r7, [r0, #20]
  gpiop->PUPDR   = config->pupdr;
 8001c30:	4d39      	ldr	r5, [pc, #228]	; (8001d18 <__early_init+0x1b8>)
  gpiop->AFRL    = config->afrl;
 8001c32:	6202      	str	r2, [r0, #32]
  gpiop->AFRH    = config->afrh;
 8001c34:	6242      	str	r2, [r0, #36]	; 0x24
  gpiop->MODER   = config->moder;
 8001c36:	6006      	str	r6, [r0, #0]
  gpiop->OSPEEDR = config->ospeedr;
 8001c38:	200f      	movs	r0, #15
  gpiop->OTYPER  = config->otyper;
 8001c3a:	f8c1 2c04 	str.w	r2, [r1, #3076]	; 0xc04
  gpiop->OSPEEDR = config->ospeedr;
 8001c3e:	f8c1 0c08 	str.w	r0, [r1, #3080]	; 0xc08
  gpiop->PUPDR   = config->pupdr;
 8001c42:	f8c1 5c0c 	str.w	r5, [r1, #3084]	; 0xc0c
  gpiop->ODR     = config->odr;
 8001c46:	f8c1 4c14 	str.w	r4, [r1, #3092]	; 0xc14
  gpiop->AFRL    = config->afrl;
 8001c4a:	f8c1 2c20 	str.w	r2, [r1, #3104]	; 0xc20
  gpiop->AFRH    = config->afrh;
 8001c4e:	f8c1 2c24 	str.w	r2, [r1, #3108]	; 0xc24
  gpiop->MODER   = config->moder;
 8001c52:	f8c1 2c00 	str.w	r2, [r1, #3072]	; 0xc00
void stm32_clock_init(void) {

#if !STM32_NO_INIT
  /* HSI setup, it enforces the reset situation in order to handle possible
     problems with JTAG probes and re-initializations.*/
  RCC->CR |= RCC_CR_HSION;                  /* Make sure HSI is ON.         */
 8001c56:	681a      	ldr	r2, [r3, #0]
 8001c58:	f042 0201 	orr.w	r2, r2, #1
 8001c5c:	601a      	str	r2, [r3, #0]
  while (!(RCC->CR & RCC_CR_HSIRDY))
 8001c5e:	681a      	ldr	r2, [r3, #0]
 8001c60:	0794      	lsls	r4, r2, #30
 8001c62:	d5fc      	bpl.n	8001c5e <__early_init+0xfe>
    ;                                       /* Wait until HSI is stable.    */

  /* HSI is selected as new source without touching the other fields in
     CFGR. Clearing the register has to be postponed after HSI is the
     new source.*/
  RCC->CFGR &= ~RCC_CFGR_SW;                /* Reset SW, selecting HSI.     */
 8001c64:	6859      	ldr	r1, [r3, #4]
  while ((RCC->CFGR & RCC_CFGR_SWS) != RCC_CFGR_SWS_HSI)
 8001c66:	4a21      	ldr	r2, [pc, #132]	; (8001cec <__early_init+0x18c>)
  RCC->CFGR &= ~RCC_CFGR_SW;                /* Reset SW, selecting HSI.     */
 8001c68:	f021 0103 	bic.w	r1, r1, #3
 8001c6c:	6059      	str	r1, [r3, #4]
  while ((RCC->CFGR & RCC_CFGR_SWS) != RCC_CFGR_SWS_HSI)
 8001c6e:	6853      	ldr	r3, [r2, #4]
 8001c70:	f013 030c 	ands.w	r3, r3, #12
 8001c74:	d1fb      	bne.n	8001c6e <__early_init+0x10e>
    ;                                       /* Wait until HSI is selected.  */

  /* Registers finally cleared to reset values.*/
  RCC->CR &= RCC_CR_HSITRIM | RCC_CR_HSION; /* CR Reset value.              */
 8001c76:	6810      	ldr	r0, [r2, #0]
  RCC->CR |= RCC_CR_HSEON | RCC_CR_HSEBYP;
#else
  /* No HSE Bypass.*/
  RCC->CR |= RCC_CR_HSEON;
#endif
  while (!(RCC->CR & RCC_CR_HSERDY))
 8001c78:	491c      	ldr	r1, [pc, #112]	; (8001cec <__early_init+0x18c>)
  RCC->CR &= RCC_CR_HSITRIM | RCC_CR_HSION; /* CR Reset value.              */
 8001c7a:	f000 00f9 	and.w	r0, r0, #249	; 0xf9
 8001c7e:	6010      	str	r0, [r2, #0]
  RCC->CFGR = 0;                            /* CFGR reset value.            */
 8001c80:	6053      	str	r3, [r2, #4]
  RCC->CR |= RCC_CR_HSEON;
 8001c82:	6813      	ldr	r3, [r2, #0]
 8001c84:	f443 3380 	orr.w	r3, r3, #65536	; 0x10000
 8001c88:	6013      	str	r3, [r2, #0]
  while (!(RCC->CR & RCC_CR_HSERDY))
 8001c8a:	680b      	ldr	r3, [r1, #0]
 8001c8c:	0398      	lsls	r0, r3, #14
 8001c8e:	d5fc      	bpl.n	8001c8a <__early_init+0x12a>
    ;                                       /* Waits until HSE is stable.   */
#endif

#if STM32_LSI_ENABLED
  /* LSI activation.*/
  RCC->CSR |= RCC_CSR_LSION;
 8001c90:	6a4b      	ldr	r3, [r1, #36]	; 0x24
  while ((RCC->CSR & RCC_CSR_LSIRDY) == 0)
 8001c92:	4a16      	ldr	r2, [pc, #88]	; (8001cec <__early_init+0x18c>)
  RCC->CSR |= RCC_CSR_LSION;
 8001c94:	f043 0301 	orr.w	r3, r3, #1
 8001c98:	624b      	str	r3, [r1, #36]	; 0x24
  while ((RCC->CSR & RCC_CSR_LSIRDY) == 0)
 8001c9a:	6a53      	ldr	r3, [r2, #36]	; 0x24
 8001c9c:	0799      	lsls	r1, r3, #30
 8001c9e:	d5fc      	bpl.n	8001c9a <__early_init+0x13a>

  /* Clock settings.*/
  RCC->CFGR  = STM32_MCOSEL    | STM32_USBPRE    | STM32_PLLMUL   |
               STM32_PLLSRC    | STM32_PPRE1     | STM32_PPRE2    |
               STM32_HPRE;
  RCC->CFGR2 = STM32_ADC34PRES | STM32_ADC12PRES | STM32_PREDIV;
 8001ca0:	f44f 5104 	mov.w	r1, #8448	; 0x2100
  RCC->CFGR3 = STM32_UART5SW   | STM32_UART4SW   | STM32_USART3SW |
 8001ca4:	2330      	movs	r3, #48	; 0x30
  RCC->CFGR  = STM32_MCOSEL    | STM32_USBPRE    | STM32_PLLMUL   |
 8001ca6:	481d      	ldr	r0, [pc, #116]	; (8001d1c <__early_init+0x1bc>)
 8001ca8:	6050      	str	r0, [r2, #4]
  RCC->CFGR2 = STM32_ADC34PRES | STM32_ADC12PRES | STM32_PREDIV;
 8001caa:	62d1      	str	r1, [r2, #44]	; 0x2c
  RCC->CFGR3 = STM32_UART5SW   | STM32_UART4SW   | STM32_USART3SW |
 8001cac:	6313      	str	r3, [r2, #48]	; 0x30
               STM32_USART2SW  | STM32_I2C2SW    | STM32_I2C1SW   |
               STM32_USART1SW;

#if STM32_ACTIVATE_PLL
  /* PLL activation.*/
  RCC->CR   |= RCC_CR_PLLON;
 8001cae:	6813      	ldr	r3, [r2, #0]
  while (!(RCC->CR & RCC_CR_PLLRDY))
 8001cb0:	490e      	ldr	r1, [pc, #56]	; (8001cec <__early_init+0x18c>)
  RCC->CR   |= RCC_CR_PLLON;
 8001cb2:	f043 7380 	orr.w	r3, r3, #16777216	; 0x1000000
 8001cb6:	6013      	str	r3, [r2, #0]
  while (!(RCC->CR & RCC_CR_PLLRDY))
 8001cb8:	680b      	ldr	r3, [r1, #0]
 8001cba:	019b      	lsls	r3, r3, #6
 8001cbc:	d5fc      	bpl.n	8001cb8 <__early_init+0x158>
    ;                                       /* Waits until PLL is stable.   */
#endif

  /* Flash setup and final clock selection.   */
  FLASH->ACR = STM32_FLASHBITS;
 8001cbe:	4a18      	ldr	r2, [pc, #96]	; (8001d20 <__early_init+0x1c0>)
 8001cc0:	2312      	movs	r3, #18
 8001cc2:	6013      	str	r3, [r2, #0]
  while ((FLASH->ACR & FLASH_ACR_LATENCY_Msk) !=
 8001cc4:	6813      	ldr	r3, [r2, #0]
 8001cc6:	f003 0307 	and.w	r3, r3, #7
 8001cca:	2b02      	cmp	r3, #2
 8001ccc:	d1fa      	bne.n	8001cc4 <__early_init+0x164>
  }

  /* Switching to the configured clock source if it is different from HSI.*/
#if (STM32_SW != STM32_SW_HSI)
  /* Switches clock source.*/
  RCC->CFGR |= STM32_SW;
 8001cce:	4a07      	ldr	r2, [pc, #28]	; (8001cec <__early_init+0x18c>)
 8001cd0:	6853      	ldr	r3, [r2, #4]
 8001cd2:	f043 0302 	orr.w	r3, r3, #2
 8001cd6:	6053      	str	r3, [r2, #4]
  while ((RCC->CFGR & RCC_CFGR_SWS) != (STM32_SW << 2))
 8001cd8:	6853      	ldr	r3, [r2, #4]
 8001cda:	f003 030c 	and.w	r3, r3, #12
 8001cde:	2b08      	cmp	r3, #8
 8001ce0:	d1fa      	bne.n	8001cd8 <__early_init+0x178>
    ;                                       /* Waits selection complete.    */
#endif

  /* After PLL activation because the special requirements for TIM1 and
     TIM8 bits.*/
  RCC->CFGR3 |= STM32_HRTIM1SW | STM32_TIM8SW | STM32_TIM1SW;
 8001ce2:	6b13      	ldr	r3, [r2, #48]	; 0x30
 8001ce4:	6313      	str	r3, [r2, #48]	; 0x30

  stm32_gpio_init();
  stm32_clock_init();
}
 8001ce6:	bcf0      	pop	{r4, r5, r6, r7}
 8001ce8:	4770      	bx	lr
 8001cea:	bf00      	nop
 8001cec:	40021000 	.word	0x40021000
 8001cf0:	3cc0fc00 	.word	0x3cc0fc00
 8001cf4:	6415116a 	.word	0x6415116a
 8001cf8:	55500000 	.word	0x55500000
 8001cfc:	2a80a815 	.word	0x2a80a815
 8001d00:	55550515 	.word	0x55550515
 8001d04:	05555555 	.word	0x05555555
 8001d08:	48001000 	.word	0x48001000
 8001d0c:	ffff00c0 	.word	0xffff00c0
 8001d10:	55550040 	.word	0x55550040
 8001d14:	01155515 	.word	0x01155515
 8001d18:	55555550 	.word	0x55555550
 8001d1c:	001d2400 	.word	0x001d2400
 8001d20:	40022000 	.word	0x40022000
	...

08001d30 <chSchDoReschedule>:
 *          itself.
 *
 * @special
 */
void chSchDoRescheduleAhead(void) {
  thread_t *otp = currp;
 8001d30:	4b0d      	ldr	r3, [pc, #52]	; (8001d68 <chSchDoReschedule+0x38>)
  thread_t *tp = tqp->next;
 8001d32:	6818      	ldr	r0, [r3, #0]
 8001d34:	6999      	ldr	r1, [r3, #24]
  tqp->next             = tp->queue.next;
 8001d36:	6802      	ldr	r2, [r0, #0]
void chSchDoRescheduleAhead(void) {
 8001d38:	b410      	push	{r4}

  /* Picks the first thread from the ready queue and makes it current.*/
  currp = queue_fifo_remove(&ch.rlist.queue);
  currp->state = CH_STATE_CURRENT;
 8001d3a:	2401      	movs	r4, #1
  tqp->next->queue.prev = (thread_t *)tqp;
 8001d3c:	6053      	str	r3, [r2, #4]
  tqp->next             = tp->queue.next;
 8001d3e:	601a      	str	r2, [r3, #0]
 8001d40:	f880 4020 	strb.w	r4, [r0, #32]
  tp->state = CH_STATE_READY;
 8001d44:	2200      	movs	r2, #0

  /* Handling idle-leave hook.*/
  if (otp->prio == IDLEPRIO) {
 8001d46:	688c      	ldr	r4, [r1, #8]
  tp->state = CH_STATE_READY;
 8001d48:	f881 2020 	strb.w	r2, [r1, #32]
  currp = queue_fifo_remove(&ch.rlist.queue);
 8001d4c:	6198      	str	r0, [r3, #24]
    cp = cp->queue.next;
 8001d4e:	681b      	ldr	r3, [r3, #0]
  } while (cp->prio > tp->prio);
 8001d50:	689a      	ldr	r2, [r3, #8]
 8001d52:	4294      	cmp	r4, r2
 8001d54:	d3fb      	bcc.n	8001d4e <chSchDoReschedule+0x1e>
  tp->queue.prev             = cp->queue.prev;
 8001d56:	685a      	ldr	r2, [r3, #4]
  /* Placing in ready list ahead of peers.*/
  otp = chSchReadyAheadI(otp);

  /* Swap operation as tail call.*/
  chSysSwitch(currp, otp);
}
 8001d58:	bc10      	pop	{r4}
  tp->queue.prev             = cp->queue.prev;
 8001d5a:	e9c1 3200 	strd	r3, r2, [r1]
  tp->queue.prev->queue.next = tp;
 8001d5e:	6011      	str	r1, [r2, #0]
  cp->queue.prev             = tp;
 8001d60:	6059      	str	r1, [r3, #4]
  chSysSwitch(currp, otp);
 8001d62:	f7fe ba8d 	b.w	8000280 <_port_switch>
 8001d66:	bf00      	nop
 8001d68:	20000894 	.word	0x20000894
 8001d6c:	00000000 	.word	0x00000000

08001d70 <chMtxUnlock.constprop.0>:
 *
 * @param[in] mp        pointer to the @p mutex_t structure
 *
 * @api
 */
void chMtxUnlock(mutex_t *mp) {
 8001d70:	b5f8      	push	{r3, r4, r5, r6, r7, lr}
  thread_t *ctp = currp;
 8001d72:	4e22      	ldr	r6, [pc, #136]	; (8001dfc <chMtxUnlock.constprop.0+0x8c>)
  __ASM volatile ("MSR basepri, %0" : : "r" (basePri) : "memory");
 8001d74:	2320      	movs	r3, #32
 8001d76:	69b7      	ldr	r7, [r6, #24]
 8001d78:	f383 8811 	msr	BASEPRI, r3
    chDbgAssert(ctp->mtxlist == mp, "not next in list");

    /* Removes the top mutex from the thread's owned mutexes list and marks
       it as not owned. Note, it is assumed to be the same mutex passed as
       parameter of this function.*/
    ctp->mtxlist = mp->next;
 8001d7c:	4c20      	ldr	r4, [pc, #128]	; (8001e00 <chMtxUnlock.constprop.0+0x90>)
  return (bool)(tqp->next != (const thread_t *)tqp);
 8001d7e:	4625      	mov	r5, r4
 8001d80:	69a3      	ldr	r3, [r4, #24]
 8001d82:	f855 0f0c 	ldr.w	r0, [r5, #12]!
 8001d86:	63bb      	str	r3, [r7, #56]	; 0x38

    /* If a thread is waiting on the mutex then the fun part begins.*/
    if (chMtxQueueNotEmptyS(mp)) {
 8001d88:	42a8      	cmp	r0, r5
 8001d8a:	d031      	beq.n	8001df0 <chMtxUnlock.constprop.0+0x80>
      thread_t *tp;

      /* Recalculates the optimal thread priority by scanning the owned
         mutexes list.*/
      tprio_t newprio = ctp->realprio;
 8001d8c:	6bf9      	ldr	r1, [r7, #60]	; 0x3c
      lmp = ctp->mtxlist;
      while (lmp != NULL) {
 8001d8e:	b14b      	cbz	r3, 8001da4 <chMtxUnlock.constprop.0+0x34>
 8001d90:	681a      	ldr	r2, [r3, #0]
        /* If the highest priority thread waiting in the mutexes list has a
           greater priority than the current thread base priority then the
           final priority will have at least that priority.*/
        if (chMtxQueueNotEmptyS(lmp) &&
 8001d92:	4293      	cmp	r3, r2
 8001d94:	d003      	beq.n	8001d9e <chMtxUnlock.constprop.0+0x2e>
 8001d96:	6892      	ldr	r2, [r2, #8]
 8001d98:	4291      	cmp	r1, r2
 8001d9a:	bf38      	it	cc
 8001d9c:	4611      	movcc	r1, r2
            (lmp->queue.next->prio > newprio)) {
          newprio = lmp->queue.next->prio;
        }
        lmp = lmp->next;
 8001d9e:	68db      	ldr	r3, [r3, #12]
      while (lmp != NULL) {
 8001da0:	2b00      	cmp	r3, #0
 8001da2:	d1f5      	bne.n	8001d90 <chMtxUnlock.constprop.0+0x20>
  tqp->next             = tp->queue.next;
 8001da4:	6803      	ldr	r3, [r0, #0]
      }

      /* Assigns to the current thread the highest priority among all the
         waiting threads.*/
      ctp->prio = newprio;
 8001da6:	60b9      	str	r1, [r7, #8]
 8001da8:	60e3      	str	r3, [r4, #12]
  tqp->next->queue.prev = (thread_t *)tqp;
 8001daa:	605d      	str	r5, [r3, #4]
#if CH_CFG_USE_MUTEXES_RECURSIVE == TRUE
      mp->cnt = (cnt_t)1;
#endif
      tp = queue_fifo_remove(&mp->queue);
      mp->owner = tp;
      mp->next = tp->mtxlist;
 8001dac:	6b83      	ldr	r3, [r0, #56]	; 0x38
  } while (cp->prio >= tp->prio);
 8001dae:	6881      	ldr	r1, [r0, #8]
      tp->mtxlist = mp;
 8001db0:	6385      	str	r5, [r0, #56]	; 0x38
      mp->next = tp->mtxlist;
 8001db2:	e9c4 0305 	strd	r0, r3, [r4, #20]
  tp->state = CH_STATE_READY;
 8001db6:	2300      	movs	r3, #0
 8001db8:	f880 3020 	strb.w	r3, [r0, #32]
  cp = (thread_t *)&ch.rlist.queue;
 8001dbc:	4b0f      	ldr	r3, [pc, #60]	; (8001dfc <chMtxUnlock.constprop.0+0x8c>)
    cp = cp->queue.next;
 8001dbe:	681b      	ldr	r3, [r3, #0]
  } while (cp->prio >= tp->prio);
 8001dc0:	689a      	ldr	r2, [r3, #8]
 8001dc2:	428a      	cmp	r2, r1
 8001dc4:	d2fb      	bcs.n	8001dbe <chMtxUnlock.constprop.0+0x4e>
 */
static inline bool chSchIsRescRequiredI(void) {

  chDbgCheckClassI();

  return firstprio(&ch.rlist.queue) > currp->prio;
 8001dc6:	69b1      	ldr	r1, [r6, #24]
 8001dc8:	6834      	ldr	r4, [r6, #0]
  if (chSchIsRescRequiredI()) {
 8001dca:	6889      	ldr	r1, [r1, #8]
 8001dcc:	68a4      	ldr	r4, [r4, #8]
  tp->queue.prev             = cp->queue.prev;
 8001dce:	685a      	ldr	r2, [r3, #4]
  if (chSchIsRescRequiredI()) {
 8001dd0:	428c      	cmp	r4, r1
  tp->queue.prev             = cp->queue.prev;
 8001dd2:	e9c0 3200 	strd	r3, r2, [r0]
  tp->queue.prev->queue.next = tp;
 8001dd6:	6010      	str	r0, [r2, #0]
  cp->queue.prev             = tp;
 8001dd8:	6058      	str	r0, [r3, #4]
  if (chSchIsRescRequiredI()) {
 8001dda:	d803      	bhi.n	8001de4 <chMtxUnlock.constprop.0+0x74>
 8001ddc:	2300      	movs	r3, #0
 8001dde:	f383 8811 	msr	BASEPRI, r3
#if CH_CFG_USE_MUTEXES_RECURSIVE == TRUE
  }
#endif

  chSysUnlock();
}
 8001de2:	bdf8      	pop	{r3, r4, r5, r6, r7, pc}
    chSchDoRescheduleAhead();
 8001de4:	f7ff ffa4 	bl	8001d30 <chSchDoReschedule>
 8001de8:	2300      	movs	r3, #0
 8001dea:	f383 8811 	msr	BASEPRI, r3
 8001dee:	bdf8      	pop	{r3, r4, r5, r6, r7, pc}
      mp->owner = NULL;
 8001df0:	2300      	movs	r3, #0
 8001df2:	6163      	str	r3, [r4, #20]
 8001df4:	2300      	movs	r3, #0
 8001df6:	f383 8811 	msr	BASEPRI, r3
}
 8001dfa:	bdf8      	pop	{r3, r4, r5, r6, r7, pc}
 8001dfc:	20000894 	.word	0x20000894
 8001e00:	20000800 	.word	0x20000800
	...

08001e10 <Thread2>:

/*
 * I2C Thread to retrieve data
 */
THD_WORKING_AREA(waThread2, 1024);
THD_FUNCTION(Thread2, arg) {
 8001e10:	e92d 4880 	stmdb	sp!, {r7, fp, lr}
 * @api
 */
static inline void chRegSetThreadName(const char *name) {

#if CH_CFG_USE_REGISTRY == TRUE
  ch.rlist.current->name = name;
 8001e14:	4acd      	ldr	r2, [pc, #820]	; (800214c <Thread2+0x33c>)
  (void)arg;
  
  chRegSetThreadName("mmc thread");
  uint8_t X_ch_MSB=0x00,Y_ch_MSB=0x00,Z_ch_MSB=0x00,X_ch_LSB=0x00,Y_ch_LSB=0x00,Z_ch_LSB=0x00;
  mmc_measurement[0] = 0x07;
 8001e16:	4bce      	ldr	r3, [pc, #824]	; (8002150 <Thread2+0x340>)
 8001e18:	6991      	ldr	r1, [r2, #24]
 8001e1a:	48ce      	ldr	r0, [pc, #824]	; (8002154 <Thread2+0x344>)
 8001e1c:	4ace      	ldr	r2, [pc, #824]	; (8002158 <Thread2+0x348>)
 8001e1e:	4fcf      	ldr	r7, [pc, #828]	; (800215c <Thread2+0x34c>)
 8001e20:	6188      	str	r0, [r1, #24]
THD_FUNCTION(Thread2, arg) {
 8001e22:	b083      	sub	sp, #12
  mmc_measurement[1] = 0x01;
  mmc_measurement[2] = 0x06;
  mmc_measurement[3] = 0x00;

  volatile msg_t mmc_message = MSG_OK;
 8001e24:	2400      	movs	r4, #0
  mmc_measurement[0] = 0x07;
 8001e26:	601a      	str	r2, [r3, #0]
  volatile msg_t mmc_message = MSG_OK;
 8001e28:	9401      	str	r4, [sp, #4]
 8001e2a:	2520      	movs	r5, #32
 8001e2c:	f385 8811 	msr	BASEPRI, r5
  chMtxLockS(mp);
 8001e30:	f7fe fc06 	bl	8000640 <chMtxLockS.constprop.0>
 8001e34:	f384 8811 	msr	BASEPRI, r4
 8001e38:	f385 8811 	msr	BASEPRI, r5

  osalDbgAssert(i2cp->state == I2C_READY, "not ready");

  osalSysLock();
  i2cp->errors = I2C_NO_ERROR;
  i2cp->state = I2C_ACTIVE_TX;
 8001e3c:	2303      	movs	r3, #3
  rdymsg = i2c_lld_master_transmit_timeout(i2cp, addr, txbuf, txbytes,
 8001e3e:	2102      	movs	r1, #2
 8001e40:	48c3      	ldr	r0, [pc, #780]	; (8002150 <Thread2+0x340>)
  i2cp->state = I2C_ACTIVE_TX;
 8001e42:	703b      	strb	r3, [r7, #0]
  i2cp->errors = I2C_NO_ERROR;
 8001e44:	60bc      	str	r4, [r7, #8]
  rdymsg = i2c_lld_master_transmit_timeout(i2cp, addr, txbuf, txbytes,
 8001e46:	f7fe fed3 	bl	8000bf0 <i2c_lld_master_transmit_timeout.constprop.0>
                                           rxbuf, rxbytes, timeout);
  if (rdymsg == MSG_TIMEOUT) {
    i2cp->state = I2C_LOCKED;
 8001e4a:	1c42      	adds	r2, r0, #1
 8001e4c:	bf14      	ite	ne
 8001e4e:	2302      	movne	r3, #2
 8001e50:	2305      	moveq	r3, #5
 8001e52:	703b      	strb	r3, [r7, #0]
 8001e54:	f384 8811 	msr	BASEPRI, r4
  volatile i2cflags_t error;  

  while (true) {

    i2cAcquireBus(&I2CD1);
    mmc_message = i2cMasterTransmitTimeout(&I2CD1, MMC_3416_ADDR,mmc_measurement,2,NULL,0,TIME_MS2I(8));
 8001e58:	9001      	str	r0, [sp, #4]
 * @api
 */
static inline void osalMutexUnlock(mutex_t *mp) {

#if CH_CFG_USE_MUTEXES
  chMtxUnlock(mp);
 8001e5a:	f7ff ff89 	bl	8001d70 <chMtxUnlock.constprop.0>
    i2cReleaseBus(&I2CD1);
    if(mmc_message == MSG_OK)
 8001e5e:	9b01      	ldr	r3, [sp, #4]
 8001e60:	2b00      	cmp	r3, #0
 8001e62:	d174      	bne.n	8001f4e <Thread2+0x13e>
    {
    for(int count=0;count<5;count++)
    {
    palClearPad(GPIOA, GPIOA_PIN1);
 8001e64:	f04f 0802 	mov.w	r8, #2
 8001e68:	2505      	movs	r5, #5
 8001e6a:	f04f 4690 	mov.w	r6, #1207959552	; 0x48000000
 8001e6e:	46c1      	mov	r9, r8
 8001e70:	f8a6 901a 	strh.w	r9, [r6, #26]
 8001e74:	f04f 0b20 	mov.w	fp, #32
 8001e78:	f38b 8811 	msr	BASEPRI, fp
  (void) chSchGoSleepTimeoutS(CH_STATE_SLEEPING, ticks);
 8001e7c:	f44f 717a 	mov.w	r1, #1000	; 0x3e8
 8001e80:	2008      	movs	r0, #8
 8001e82:	f7fe fc5d 	bl	8000740 <chSchGoSleepTimeoutS>
 8001e86:	f384 8811 	msr	BASEPRI, r4
    chThdSleepMilliseconds(100);
    palSetPad(GPIOA, GPIOA_PIN1);
 8001e8a:	f8a6 8018 	strh.w	r8, [r6, #24]
 8001e8e:	f38b 8811 	msr	BASEPRI, fp
 8001e92:	f44f 717a 	mov.w	r1, #1000	; 0x3e8
 8001e96:	2008      	movs	r0, #8
 8001e98:	f7fe fc52 	bl	8000740 <chSchGoSleepTimeoutS>
 8001e9c:	f384 8811 	msr	BASEPRI, r4
    for(int count=0;count<5;count++)
 8001ea0:	3d01      	subs	r5, #1
 8001ea2:	d1e5      	bne.n	8001e70 <Thread2+0x60>
    palSetPad(GPIOA, GPIOA_BUTTON);
    chThdSleepMilliseconds(100);
    }
    }

    if(mmc_message == MSG_OK)
 8001ea4:	9d01      	ldr	r5, [sp, #4]
 8001ea6:	2d00      	cmp	r5, #0
 8001ea8:	d074      	beq.n	8001f94 <Thread2+0x184>
    chThdSleepMilliseconds(100);
    }
    }
    }

    mmc_rec[0] = 0;
 8001eaa:	4aad      	ldr	r2, [pc, #692]	; (8002160 <Thread2+0x350>)
    if( mmc_message == MSG_OK)
 8001eac:	9b01      	ldr	r3, [sp, #4]
    mmc_rec[0] = 0;
 8001eae:	7014      	strb	r4, [r2, #0]
    if( mmc_message == MSG_OK)
 8001eb0:	2b00      	cmp	r3, #0
 8001eb2:	f000 80b3 	beq.w	800201c <Thread2+0x20c>
              
      }

  }

  if(mmc_message == MSG_OK)
 8001eb6:	9d01      	ldr	r5, [sp, #4]
 8001eb8:	2d00      	cmp	r5, #0
 8001eba:	f000 8109 	beq.w	80020d0 <Thread2+0x2c0>
        }

      }
  }

  if( mmc_message == MSG_OK)
 8001ebe:	9d01      	ldr	r5, [sp, #4]
 8001ec0:	2d00      	cmp	r5, #0
 8001ec2:	d1b2      	bne.n	8001e2a <Thread2+0x1a>
 8001ec4:	2620      	movs	r6, #32
 8001ec6:	f386 8811 	msr	BASEPRI, r6
 8001eca:	f7fe fbb9 	bl	8000640 <chMtxLockS.constprop.0>
 8001ece:	f385 8811 	msr	BASEPRI, r5
 8001ed2:	f386 8811 	msr	BASEPRI, r6

  osalDbgAssert(i2cp->state == I2C_READY, "not ready");

  osalSysLock();
  i2cp->errors = I2C_NO_ERROR;
  i2cp->state = I2C_ACTIVE_RX;
 8001ed6:	2304      	movs	r3, #4
  rdymsg = i2c_lld_master_receive_timeout(i2cp, addr, rxbuf, rxbytes, timeout);
 8001ed8:	2106      	movs	r1, #6
 8001eda:	48a2      	ldr	r0, [pc, #648]	; (8002164 <Thread2+0x354>)
  i2cp->state = I2C_ACTIVE_RX;
 8001edc:	703b      	strb	r3, [r7, #0]
  i2cp->errors = I2C_NO_ERROR;
 8001ede:	60bd      	str	r5, [r7, #8]
  rdymsg = i2c_lld_master_receive_timeout(i2cp, addr, rxbuf, rxbytes, timeout);
 8001ee0:	f7fe ff0e 	bl	8000d00 <i2c_lld_master_receive_timeout.constprop.0>
  if (rdymsg == MSG_TIMEOUT) {
    i2cp->state = I2C_LOCKED;
 8001ee4:	1c43      	adds	r3, r0, #1
 8001ee6:	bf14      	ite	ne
 8001ee8:	2302      	movne	r3, #2
 8001eea:	2305      	moveq	r3, #5
 8001eec:	703b      	strb	r3, [r7, #0]
 8001eee:	f384 8811 	msr	BASEPRI, r4
  {
    i2cAcquireBus(&I2CD1);
    mmc_message = i2cMasterReceiveTimeout(&I2CD1, MMC_3416_ADDR,mmc_values,6,TIME_MS2I(8));
 8001ef2:	9001      	str	r0, [sp, #4]
 8001ef4:	f7ff ff3c 	bl	8001d70 <chMtxUnlock.constprop.0>
    i2cReleaseBus(&I2CD1);
    if(mmc_message == MSG_OK)
 8001ef8:	9b01      	ldr	r3, [sp, #4]
 8001efa:	2b00      	cmp	r3, #0
 8001efc:	f040 819e 	bne.w	800223c <Thread2+0x42c>
      {
        for(int count=0;count<5;count++)
        {
        palClearPad(GPIOA, GPIOA_PIN1);
 8001f00:	f04f 0902 	mov.w	r9, #2
 8001f04:	2605      	movs	r6, #5
 8001f06:	f04f 4590 	mov.w	r5, #1207959552	; 0x48000000
 8001f0a:	46ca      	mov	sl, r9
        palClearPad(GPIOA, GPIOA_BUTTON);
 8001f0c:	f04f 0b01 	mov.w	fp, #1
        palClearPad(GPIOA, GPIOA_PIN1);
 8001f10:	f8a5 a01a 	strh.w	sl, [r5, #26]
 8001f14:	f04f 0820 	mov.w	r8, #32
        palClearPad(GPIOA, GPIOA_BUTTON);
 8001f18:	f8a5 b01a 	strh.w	fp, [r5, #26]
 8001f1c:	f388 8811 	msr	BASEPRI, r8
 8001f20:	f640 31b8 	movw	r1, #3000	; 0xbb8
 8001f24:	2008      	movs	r0, #8
 8001f26:	f7fe fc0b 	bl	8000740 <chSchGoSleepTimeoutS>
 8001f2a:	f384 8811 	msr	BASEPRI, r4
        chThdSleepMilliseconds(300);
        palSetPad(GPIOA, GPIOA_PIN1);
 8001f2e:	f8a5 9018 	strh.w	r9, [r5, #24]
        palSetPad(GPIOA, GPIOA_BUTTON);
 8001f32:	f8a5 b018 	strh.w	fp, [r5, #24]
 8001f36:	f388 8811 	msr	BASEPRI, r8
 8001f3a:	f640 31b8 	movw	r1, #3000	; 0xbb8
 8001f3e:	2008      	movs	r0, #8
